{
  "_format": "hh-sol-artifact-1",
  "contractName": "CollecteurExportateurContrat",
  "sourceName": "contracts/CollecteurExportateurContractOK.sol",
  "abi": [
    {
      "inputs": [
        {
          "internalType": "address",
          "name": "_producteurEnPhaseCultureAddress",
          "type": "address"
        }
      ],
      "stateMutability": "nonpayable",
      "type": "constructor"
    },
    {
      "anonymous": false,
      "inputs": [
        {
          "indexed": true,
          "internalType": "address",
          "name": "acteur",
          "type": "address"
        },
        {
          "indexed": false,
          "internalType": "enum ProducteurEnPhaseCulture.Role",
          "name": "role",
          "type": "uint8"
        }
      ],
      "name": "ActeurEnregistre",
      "type": "event"
    },
    {
      "anonymous": false,
      "inputs": [
        {
          "indexed": true,
          "internalType": "address",
          "name": "exportateur",
          "type": "address"
        },
        {
          "indexed": false,
          "internalType": "uint256",
          "name": "idProduit",
          "type": "uint256"
        }
      ],
      "name": "CommandePasser",
      "type": "event"
    },
    {
      "anonymous": false,
      "inputs": [
        {
          "indexed": true,
          "internalType": "uint256",
          "name": "idProduit",
          "type": "uint256"
        },
        {
          "indexed": false,
          "internalType": "uint256",
          "name": "idCondition",
          "type": "uint256"
        },
        {
          "indexed": false,
          "internalType": "string",
          "name": "temperature",
          "type": "string"
        },
        {
          "indexed": false,
          "internalType": "string",
          "name": "humidite",
          "type": "string"
        },
        {
          "indexed": false,
          "internalType": "uint256",
          "name": "timestamp",
          "type": "uint256"
        }
      ],
      "name": "ConditionEnregistree",
      "type": "event"
    },
    {
      "anonymous": false,
      "inputs": [
        {
          "indexed": true,
          "internalType": "uint256",
          "name": "idProduit",
          "type": "uint256"
        },
        {
          "indexed": false,
          "internalType": "uint256",
          "name": "idPaiement",
          "type": "uint256"
        },
        {
          "indexed": false,
          "internalType": "address",
          "name": "payeur",
          "type": "address"
        },
        {
          "indexed": false,
          "internalType": "uint256",
          "name": "montant",
          "type": "uint256"
        },
        {
          "indexed": false,
          "internalType": "enum CollecteurExportateurContrat.ModePaiement",
          "name": "mode",
          "type": "uint8"
        }
      ],
      "name": "PaiementEffectue",
      "type": "event"
    },
    {
      "anonymous": false,
      "inputs": [
        {
          "indexed": true,
          "internalType": "uint256",
          "name": "idProduit",
          "type": "uint256"
        },
        {
          "indexed": false,
          "internalType": "string",
          "name": "nom",
          "type": "string"
        },
        {
          "indexed": false,
          "internalType": "uint256",
          "name": "quantite",
          "type": "uint256"
        },
        {
          "indexed": false,
          "internalType": "uint256",
          "name": "prix",
          "type": "uint256"
        },
        {
          "indexed": false,
          "internalType": "uint256",
          "name": "idParcelle",
          "type": "uint256"
        },
        {
          "indexed": false,
          "internalType": "string",
          "name": "dateRecolte",
          "type": "string"
        },
        {
          "indexed": false,
          "internalType": "string",
          "name": "certificatPhytosanitaire",
          "type": "string"
        }
      ],
      "name": "ProduitAjoute",
      "type": "event"
    },
    {
      "anonymous": false,
      "inputs": [
        {
          "indexed": true,
          "internalType": "uint256",
          "name": "idProduit",
          "type": "uint256"
        },
        {
          "indexed": false,
          "internalType": "bool",
          "name": "valide",
          "type": "bool"
        }
      ],
      "name": "ProduitValide",
      "type": "event"
    },
    {
      "anonymous": false,
      "inputs": [
        {
          "indexed": true,
          "internalType": "uint256",
          "name": "idProduit",
          "type": "uint256"
        },
        {
          "indexed": false,
          "internalType": "enum CollecteurExportateurContrat.StatutTransport",
          "name": "statut",
          "type": "uint8"
        }
      ],
      "name": "StatutTransportMisAJour",
      "type": "event"
    },
    {
      "stateMutability": "payable",
      "type": "fallback"
    },
    {
      "inputs": [
        {
          "internalType": "uint256",
          "name": "_idParcelle",
          "type": "uint256"
        },
        {
          "internalType": "uint256",
          "name": "_quantite",
          "type": "uint256"
        },
        {
          "internalType": "uint256",
          "name": "_prix",
          "type": "uint256"
        }
      ],
      "name": "ajouterProduit",
      "outputs": [],
      "stateMutability": "nonpayable",
      "type": "function"
    },
    {
      "inputs": [
        {
          "internalType": "uint256",
          "name": "",
          "type": "uint256"
        }
      ],
      "name": "commandes",
      "outputs": [
        {
          "internalType": "uint256",
          "name": "id",
          "type": "uint256"
        },
        {
          "internalType": "uint256",
          "name": "idProduit",
          "type": "uint256"
        },
        {
          "internalType": "uint256",
          "name": "quantite",
          "type": "uint256"
        },
        {
          "internalType": "uint256",
          "name": "prix",
          "type": "uint256"
        },
        {
          "internalType": "bool",
          "name": "payer",
          "type": "bool"
        },
        {
          "internalType": "enum CollecteurExportateurContrat.StatutTransport",
          "name": "statutTransport",
          "type": "uint8"
        },
        {
          "internalType": "address",
          "name": "exportateur",
          "type": "address"
        }
      ],
      "stateMutability": "view",
      "type": "function"
    },
    {
      "inputs": [],
      "name": "compteurCommandes",
      "outputs": [
        {
          "internalType": "uint256",
          "name": "",
          "type": "uint256"
        }
      ],
      "stateMutability": "view",
      "type": "function"
    },
    {
      "inputs": [],
      "name": "compteurConditions",
      "outputs": [
        {
          "internalType": "uint256",
          "name": "",
          "type": "uint256"
        }
      ],
      "stateMutability": "view",
      "type": "function"
    },
    {
      "inputs": [],
      "name": "compteurPaiements",
      "outputs": [
        {
          "internalType": "uint256",
          "name": "",
          "type": "uint256"
        }
      ],
      "stateMutability": "view",
      "type": "function"
    },
    {
      "inputs": [],
      "name": "compteurProduits",
      "outputs": [
        {
          "internalType": "uint256",
          "name": "",
          "type": "uint256"
        }
      ],
      "stateMutability": "view",
      "type": "function"
    },
    {
      "inputs": [
        {
          "internalType": "uint256",
          "name": "",
          "type": "uint256"
        }
      ],
      "name": "conditions",
      "outputs": [
        {
          "internalType": "uint256",
          "name": "id",
          "type": "uint256"
        },
        {
          "internalType": "string",
          "name": "temperature",
          "type": "string"
        },
        {
          "internalType": "string",
          "name": "humidite",
          "type": "string"
        },
        {
          "internalType": "uint256",
          "name": "timestamp",
          "type": "uint256"
        }
      ],
      "stateMutability": "view",
      "type": "function"
    },
    {
      "inputs": [
        {
          "internalType": "uint256",
          "name": "_idCommande",
          "type": "uint256"
        },
        {
          "internalType": "uint256",
          "name": "_montant",
          "type": "uint256"
        },
        {
          "internalType": "enum CollecteurExportateurContrat.ModePaiement",
          "name": "_mode",
          "type": "uint8"
        }
      ],
      "name": "effectuerPaiement",
      "outputs": [],
      "stateMutability": "payable",
      "type": "function"
    },
    {
      "inputs": [
        {
          "internalType": "uint256",
          "name": "_idCommande",
          "type": "uint256"
        },
        {
          "internalType": "string",
          "name": "_temperature",
          "type": "string"
        },
        {
          "internalType": "string",
          "name": "_humidite",
          "type": "string"
        }
      ],
      "name": "enregistrerCondition",
      "outputs": [],
      "stateMutability": "nonpayable",
      "type": "function"
    },
    {
      "inputs": [
        {
          "internalType": "address",
          "name": "addr",
          "type": "address"
        }
      ],
      "name": "getActeur",
      "outputs": [
        {
          "components": [
            {
              "internalType": "address",
              "name": "addr",
              "type": "address"
            },
            {
              "internalType": "enum ProducteurEnPhaseCulture.Role",
              "name": "role",
              "type": "uint8"
            }
          ],
          "internalType": "struct ProducteurEnPhaseCulture.Acteur",
          "name": "",
          "type": "tuple"
        }
      ],
      "stateMutability": "view",
      "type": "function"
    },
    {
      "inputs": [
        {
          "internalType": "uint256",
          "name": "id",
          "type": "uint256"
        }
      ],
      "name": "getCommande",
      "outputs": [
        {
          "components": [
            {
              "internalType": "uint256",
              "name": "id",
              "type": "uint256"
            },
            {
              "internalType": "uint256",
              "name": "idProduit",
              "type": "uint256"
            },
            {
              "internalType": "uint256",
              "name": "quantite",
              "type": "uint256"
            },
            {
              "internalType": "uint256",
              "name": "prix",
              "type": "uint256"
            },
            {
              "internalType": "bool",
              "name": "payer",
              "type": "bool"
            },
            {
              "internalType": "enum CollecteurExportateurContrat.StatutTransport",
              "name": "statutTransport",
              "type": "uint8"
            },
            {
              "internalType": "address",
              "name": "exportateur",
              "type": "address"
            }
          ],
          "internalType": "struct CollecteurExportateurContrat.Commande",
          "name": "",
          "type": "tuple"
        }
      ],
      "stateMutability": "view",
      "type": "function"
    },
    {
      "inputs": [],
      "name": "getCompteurCommande",
      "outputs": [
        {
          "internalType": "uint256",
          "name": "",
          "type": "uint256"
        }
      ],
      "stateMutability": "view",
      "type": "function"
    },
    {
      "inputs": [],
      "name": "getCompteurCondition",
      "outputs": [
        {
          "internalType": "uint256",
          "name": "",
          "type": "uint256"
        }
      ],
      "stateMutability": "view",
      "type": "function"
    },
    {
      "inputs": [],
      "name": "getCompteurPaiement",
      "outputs": [
        {
          "internalType": "uint256",
          "name": "",
          "type": "uint256"
        }
      ],
      "stateMutability": "view",
      "type": "function"
    },
    {
      "inputs": [],
      "name": "getCompteurProduit",
      "outputs": [
        {
          "internalType": "uint256",
          "name": "",
          "type": "uint256"
        }
      ],
      "stateMutability": "view",
      "type": "function"
    },
    {
      "inputs": [
        {
          "internalType": "uint256",
          "name": "id",
          "type": "uint256"
        }
      ],
      "name": "getCondition",
      "outputs": [
        {
          "components": [
            {
              "internalType": "uint256",
              "name": "id",
              "type": "uint256"
            },
            {
              "internalType": "string",
              "name": "temperature",
              "type": "string"
            },
            {
              "internalType": "string",
              "name": "humidite",
              "type": "string"
            },
            {
              "internalType": "uint256",
              "name": "timestamp",
              "type": "uint256"
            }
          ],
          "internalType": "struct CollecteurExportateurContrat.EnregistrementCondition",
          "name": "",
          "type": "tuple"
        }
      ],
      "stateMutability": "view",
      "type": "function"
    },
    {
      "inputs": [
        {
          "internalType": "uint256",
          "name": "id",
          "type": "uint256"
        }
      ],
      "name": "getPaiement",
      "outputs": [
        {
          "components": [
            {
              "internalType": "uint256",
              "name": "id",
              "type": "uint256"
            },
            {
              "internalType": "address",
              "name": "payeur",
              "type": "address"
            },
            {
              "internalType": "uint256",
              "name": "montant",
              "type": "uint256"
            },
            {
              "internalType": "enum CollecteurExportateurContrat.ModePaiement",
              "name": "mode",
              "type": "uint8"
            },
            {
              "internalType": "uint256",
              "name": "timestamp",
              "type": "uint256"
            }
          ],
          "internalType": "struct CollecteurExportateurContrat.Paiement",
          "name": "",
          "type": "tuple"
        }
      ],
      "stateMutability": "view",
      "type": "function"
    },
    {
      "inputs": [
        {
          "internalType": "uint256",
          "name": "id",
          "type": "uint256"
        }
      ],
      "name": "getProduit",
      "outputs": [
        {
          "components": [
            {
              "internalType": "uint256",
              "name": "id",
              "type": "uint256"
            },
            {
              "internalType": "string",
              "name": "nom",
              "type": "string"
            },
            {
              "internalType": "uint256",
              "name": "quantite",
              "type": "uint256"
            },
            {
              "internalType": "uint256",
              "name": "prix",
              "type": "uint256"
            },
            {
              "internalType": "enum CollecteurExportateurContrat.StatutProduit",
              "name": "statut",
              "type": "uint8"
            },
            {
              "internalType": "uint256",
              "name": "idParcelle",
              "type": "uint256"
            },
            {
              "internalType": "string",
              "name": "dateRecolte",
              "type": "string"
            },
            {
              "internalType": "string",
              "name": "certificatPhytosanitaire",
              "type": "string"
            },
            {
              "internalType": "address",
              "name": "collecteur",
              "type": "address"
            }
          ],
          "internalType": "struct CollecteurExportateurContrat.Produit",
          "name": "",
          "type": "tuple"
        }
      ],
      "stateMutability": "view",
      "type": "function"
    },
    {
      "inputs": [
        {
          "internalType": "uint256",
          "name": "_idCommande",
          "type": "uint256"
        },
        {
          "internalType": "enum CollecteurExportateurContrat.StatutTransport",
          "name": "_statut",
          "type": "uint8"
        }
      ],
      "name": "mettreAJourStatutTransport",
      "outputs": [],
      "stateMutability": "nonpayable",
      "type": "function"
    },
    {
      "inputs": [
        {
          "internalType": "uint256",
          "name": "",
          "type": "uint256"
        }
      ],
      "name": "paiements",
      "outputs": [
        {
          "internalType": "uint256",
          "name": "id",
          "type": "uint256"
        },
        {
          "internalType": "address",
          "name": "payeur",
          "type": "address"
        },
        {
          "internalType": "uint256",
          "name": "montant",
          "type": "uint256"
        },
        {
          "internalType": "enum CollecteurExportateurContrat.ModePaiement",
          "name": "mode",
          "type": "uint8"
        },
        {
          "internalType": "uint256",
          "name": "timestamp",
          "type": "uint256"
        }
      ],
      "stateMutability": "view",
      "type": "function"
    },
    {
      "inputs": [
        {
          "internalType": "uint256",
          "name": "idProduit",
          "type": "uint256"
        },
        {
          "internalType": "uint256",
          "name": "_quantite",
          "type": "uint256"
        }
      ],
      "name": "passerCommande",
      "outputs": [],
      "stateMutability": "nonpayable",
      "type": "function"
    },
    {
      "inputs": [],
      "name": "producteurEnPhaseCulture",
      "outputs": [
        {
          "internalType": "contract ProducteurEnPhaseCulture",
          "name": "",
          "type": "address"
        }
      ],
      "stateMutability": "view",
      "type": "function"
    },
    {
      "inputs": [
        {
          "internalType": "uint256",
          "name": "",
          "type": "uint256"
        }
      ],
      "name": "produits",
      "outputs": [
        {
          "internalType": "uint256",
          "name": "id",
          "type": "uint256"
        },
        {
          "internalType": "string",
          "name": "nom",
          "type": "string"
        },
        {
          "internalType": "uint256",
          "name": "quantite",
          "type": "uint256"
        },
        {
          "internalType": "uint256",
          "name": "prix",
          "type": "uint256"
        },
        {
          "internalType": "enum CollecteurExportateurContrat.StatutProduit",
          "name": "statut",
          "type": "uint8"
        },
        {
          "internalType": "uint256",
          "name": "idParcelle",
          "type": "uint256"
        },
        {
          "internalType": "string",
          "name": "dateRecolte",
          "type": "string"
        },
        {
          "internalType": "string",
          "name": "certificatPhytosanitaire",
          "type": "string"
        },
        {
          "internalType": "address",
          "name": "collecteur",
          "type": "address"
        }
      ],
      "stateMutability": "view",
      "type": "function"
    },
    {
      "inputs": [
        {
          "internalType": "address",
          "name": "_addr",
          "type": "address"
        }
      ],
      "name": "setProducteurEnPhaseCulture",
      "outputs": [],
      "stateMutability": "nonpayable",
      "type": "function"
    },
    {
      "inputs": [
        {
          "internalType": "uint256",
          "name": "_idProduit",
          "type": "uint256"
        },
        {
          "internalType": "bool",
          "name": "_valide",
          "type": "bool"
        }
      ],
      "name": "validerProduit",
      "outputs": [],
      "stateMutability": "nonpayable",
      "type": "function"
    },
    {
      "stateMutability": "payable",
      "type": "receive"
    }
  ],
  "bytecode": "0x60806040523480156200001157600080fd5b50604051620043de380380620043de833981810160405281019062000037919062000096565b80600860006101000a81548173ffffffffffffffffffffffffffffffffffffffff021916908373ffffffffffffffffffffffffffffffffffffffff1602179055505062000110565b6000815190506200009081620000f6565b92915050565b600060208284031215620000a957600080fd5b6000620000b9848285016200007f565b91505092915050565b6000620000cf82620000d6565b9050919050565b600073ffffffffffffffffffffffffffffffffffffffff82169050919050565b6200010181620000c2565b81146200010d57600080fd5b50565b6142be80620001206000396000f3fe60806040526004361061016a5760003560e01c806391e5954c116100d1578063cf4d6a6a1161008a578063fdccf43311610064578063fdccf4331461056e578063fe32398a14610599578063fe71496b146105d6578063ffd826d3146105ff57610171565b8063cf4d6a6a146104dd578063d305dc351461051a578063edd131631461054357610171565b806391e5954c146103a357806393c2f9b4146103e45780639ca262141461040f578063bb95f3b91461044c578063c889bc6714610475578063cd3df1ed146104b257610171565b8063488dee2011610123578063488dee201461027557806350346b0b146102a057806362ca1128146102cb578063687112e2146103105780637bf212f81461033b5780638777654f1461037857610171565b8063011970181461017357806302dccbc41461019e57806315e20529146101c7578063257687e6146101e357806326c500071461020c578063487396f21461024c57610171565b3661017157005b005b34801561017f57600080fd5b50610188610642565b6040516101959190613c06565b60405180910390f35b3480156101aa57600080fd5b506101c560048036038101906101c09190613146565b61064c565b005b6101e160048036038101906101dc9190613279565b610990565b005b3480156101ef57600080fd5b5061020a60048036038101906102059190612f85565b611191565b005b34801561021857600080fd5b50610233600480360381019061022e919061311d565b6111d5565b6040516102439493929190613cb9565b60405180910390f35b34801561025857600080fd5b50610273600480360381019061026e91906131be565b611315565b005b34801561028157600080fd5b5061028a61159e565b6040516102979190613c06565b60405180910390f35b3480156102ac57600080fd5b506102b56115a4565b6040516102c291906139a5565b60405180910390f35b3480156102d757600080fd5b506102f260048036038101906102ed919061311d565b6115ca565b60405161030799989796959493929190613d0c565b60405180910390f35b34801561031c57600080fd5b506103256117dd565b6040516103329190613c06565b60405180910390f35b34801561034757600080fd5b50610362600480360381019061035d919061311d565b6117e3565b60405161036f9190613ba7565b60405180910390f35b34801561038457600080fd5b5061038d611948565b60405161039a9190613c06565b60405180910390f35b3480156103af57600080fd5b506103ca60048036038101906103c5919061311d565b611952565b6040516103db959493929190613c66565b60405180910390f35b3480156103f057600080fd5b506103f96119b5565b6040516104069190613c06565b60405180910390f35b34801561041b57600080fd5b506104366004803603810190610431919061311d565b6119bf565b6040516104439190613be4565b60405180910390f35b34801561045857600080fd5b50610473600480360381019061046e9190613182565b611ca7565b005b34801561048157600080fd5b5061049c6004803603810190610497919061311d565b611eec565b6040516104a99190613bc9565b60405180910390f35b3480156104be57600080fd5b506104c7612014565b6040516104d49190613c06565b60405180910390f35b3480156104e957600080fd5b5061050460048036038101906104ff919061311d565b61201a565b6040516105119190613b8c565b60405180910390f35b34801561052657600080fd5b50610541600480360381019061053c919061323d565b612167565b005b34801561054f57600080fd5b50610558612572565b6040516105659190613c06565b60405180910390f35b34801561057a57600080fd5b50610583612578565b6040516105909190613c06565b60405180910390f35b3480156105a557600080fd5b506105c060048036038101906105bb9190612f85565b612582565b6040516105cd9190613b71565b60405180910390f35b3480156105e257600080fd5b506105fd60048036038101906105f891906132c8565b61263b565b005b34801561060b57600080fd5b506106266004803603810190610621919061311d565b612a83565b6040516106399796959493929190613dae565b60405180910390f35b6000600554905090565b600680811115610685577f4e487b7100000000000000000000000000000000000000000000000000000000600052602160045260246000fd5b600860009054906101000a900473ffffffffffffffffffffffffffffffffffffffff1673ffffffffffffffffffffffffffffffffffffffff1663fe32398a336040518263ffffffff1660e01b81526004016106e0919061396f565b604080518083038186803b1580156106f757600080fd5b505afa15801561070b573d6000803e3d6000fd5b505050506040513d601f19601f8201168201806040525081019061072f91906130f4565b60200151600681111561076b577f4e487b7100000000000000000000000000000000000000000000000000000000600052602160045260246000fd5b146107ab576040517f08c379a00000000000000000000000000000000000000000000000000000000081526004016107a290613b31565b60405180910390fd5b600060028111156107e5577f4e487b7100000000000000000000000000000000000000000000000000000000600052602160045260246000fd5b60008084815260200190815260200160002060040160009054906101000a900460ff166002811115610840577f4e487b7100000000000000000000000000000000000000000000000000000000600052602160045260246000fd5b14610880576040517f08c379a000000000000000000000000000000000000000000000000000000000815260040161087790613a91565b60405180910390fd5b80156108ef57600160008084815260200190815260200160002060040160006101000a81548160ff021916908360028111156108e5577f4e487b7100000000000000000000000000000000000000000000000000000000600052602160045260246000fd5b0217905550610954565b600260008084815260200190815260200160002060040160006101000a81548160ff0219169083600281111561094e577f4e487b7100000000000000000000000000000000000000000000000000000000600052602160045260246000fd5b02179055505b817f40b060b3f7b6252dbdc35ea1e381d20a283b1e1a996cd701bde7b75ec12568f582604051610984919061398a565b60405180910390a25050565b6006808111156109c9577f4e487b7100000000000000000000000000000000000000000000000000000000600052602160045260246000fd5b600860009054906101000a900473ffffffffffffffffffffffffffffffffffffffff1673ffffffffffffffffffffffffffffffffffffffff1663fe32398a336040518263ffffffff1660e01b8152600401610a24919061396f565b604080518083038186803b158015610a3b57600080fd5b505afa158015610a4f573d6000803e3d6000fd5b505050506040513d601f19601f82011682018060405250810190610a7391906130f4565b602001516006811115610aaf577f4e487b7100000000000000000000000000000000000000000000000000000000600052602160045260246000fd5b14610aef576040517f08c379a0000000000000000000000000000000000000000000000000000000008152600401610ae690613b31565b60405180910390fd5b6000806000600360008781526020019081526020016000206001015481526020019081526020016000206040518061012001604052908160008201548152602001600182018054610b3f9061407b565b80601f0160208091040260200160405190810160405280929190818152602001828054610b6b9061407b565b8015610bb85780601f10610b8d57610100808354040283529160200191610bb8565b820191906000526020600020905b815481529060010190602001808311610b9b57829003601f168201915b5050505050815260200160028201548152602001600382015481526020016004820160009054906101000a900460ff166002811115610c20577f4e487b7100000000000000000000000000000000000000000000000000000000600052602160045260246000fd5b6002811115610c58577f4e487b7100000000000000000000000000000000000000000000000000000000600052602160045260246000fd5b815260200160058201548152602001600682018054610c769061407b565b80601f0160208091040260200160405190810160405280929190818152602001828054610ca29061407b565b8015610cef5780601f10610cc457610100808354040283529160200191610cef565b820191906000526020600020905b815481529060010190602001808311610cd257829003601f168201915b50505050508152602001600782018054610d089061407b565b80601f0160208091040260200160405190810160405280929190818152602001828054610d349061407b565b8015610d815780601f10610d5657610100808354040283529160200191610d81565b820191906000526020600020905b815481529060010190602001808311610d6457829003601f168201915b505050505081526020016008820160009054906101000a900473ffffffffffffffffffffffffffffffffffffffff1673ffffffffffffffffffffffffffffffffffffffff1673ffffffffffffffffffffffffffffffffffffffff1681525050905060016002811115610e1c577f4e487b7100000000000000000000000000000000000000000000000000000000600052602160045260246000fd5b81608001516002811115610e59577f4e487b7100000000000000000000000000000000000000000000000000000000600052602160045260246000fd5b14610e99576040517f08c379a0000000000000000000000000000000000000000000000000000000008152600401610e9090613ad1565b60405180910390fd5b60036000858152602001908152602001600020600201548160600151610ebf9190613eab565b3414610f00576040517f08c379a0000000000000000000000000000000000000000000000000000000008152600401610ef790613a71565b60405180910390fd5b6003600085815260200190815260200160002060040160009054906101000a900460ff1615610f64576040517f08c379a0000000000000000000000000000000000000000000000000000000008152600401610f5b90613ab1565b60405180910390fd5b60016003600086815260200190815260200160002060040160006101000a81548160ff02191690831515021790555060076000815480929190610fa6906140ad565b91905055506040518060a0016040528060075481526020013373ffffffffffffffffffffffffffffffffffffffff168152602001848152602001836002811115611019577f4e487b7100000000000000000000000000000000000000000000000000000000600052602160045260246000fd5b8152602001428152506002600060075481526020019081526020016000206000820151816000015560208201518160010160006101000a81548173ffffffffffffffffffffffffffffffffffffffff021916908373ffffffffffffffffffffffffffffffffffffffff1602179055506040820151816002015560608201518160030160006101000a81548160ff021916908360028111156110e3577f4e487b7100000000000000000000000000000000000000000000000000000000600052602160045260246000fd5b02179055506080820151816004015590505080600001517f7cd7c5e6b4cabba2bd7f4c36f4a3e25931a4d1130f8745849d9225eacdd394fe6007543386866040516111319493929190613c21565b60405180910390a2600081610100015190508073ffffffffffffffffffffffffffffffffffffffff166108fc349081150290604051600060405180830381858888f19350505050158015611189573d6000803e3d6000fd5b505050505050565b80600860006101000a81548173ffffffffffffffffffffffffffffffffffffffff021916908373ffffffffffffffffffffffffffffffffffffffff16021790555050565b60016020528060005260406000206000915090508060000154908060010180546111fe9061407b565b80601f016020809104026020016040519081016040528092919081815260200182805461122a9061407b565b80156112775780601f1061124c57610100808354040283529160200191611277565b820191906000526020600020905b81548152906001019060200180831161125a57829003601f168201915b50505050509080600201805461128c9061407b565b80601f01602080910402602001604051908101604052809291908181526020018280546112b89061407b565b80156113055780601f106112da57610100808354040283529160200191611305565b820191906000526020600020905b8154815290600101906020018083116112e857829003601f168201915b5050505050908060030154905084565b6005600681111561134f577f4e487b7100000000000000000000000000000000000000000000000000000000600052602160045260246000fd5b600860009054906101000a900473ffffffffffffffffffffffffffffffffffffffff1673ffffffffffffffffffffffffffffffffffffffff1663fe32398a336040518263ffffffff1660e01b81526004016113aa919061396f565b604080518083038186803b1580156113c157600080fd5b505afa1580156113d5573d6000803e3d6000fd5b505050506040513d601f19601f820116820180604052508101906113f991906130f4565b602001516006811115611435577f4e487b7100000000000000000000000000000000000000000000000000000000600052602160045260246000fd5b14611475576040517f08c379a000000000000000000000000000000000000000000000000000000000815260040161146c90613b51565b60405180910390fd5b6004548311156114ba576040517f08c379a00000000000000000000000000000000000000000000000000000000081526004016114b190613a51565b60405180910390fd5b600660008154809291906114cd906140ad565b919050555060405180608001604052806006548152602001838152602001828152602001428152506001600085815260200190815260200160002060008201518160000155602082015181600101908051906020019061152e929190612aff565b50604082015181600201908051906020019061154b929190612aff565b5060608201518160030155905050827fa313df723389871f22ba2e986d3ad5724712c38a270e9ec008e6037c670862da6006548484426040516115919493929190613cb9565b60405180910390a2505050565b60045481565b600860009054906101000a900473ffffffffffffffffffffffffffffffffffffffff1681565b60006020528060005260406000206000915090508060000154908060010180546115f39061407b565b80601f016020809104026020016040519081016040528092919081815260200182805461161f9061407b565b801561166c5780601f106116415761010080835404028352916020019161166c565b820191906000526020600020905b81548152906001019060200180831161164f57829003601f168201915b5050505050908060020154908060030154908060040160009054906101000a900460ff16908060050154908060060180546116a69061407b565b80601f01602080910402602001604051908101604052809291908181526020018280546116d29061407b565b801561171f5780601f106116f45761010080835404028352916020019161171f565b820191906000526020600020905b81548152906001019060200180831161170257829003601f168201915b5050505050908060070180546117349061407b565b80601f01602080910402602001604051908101604052809291908181526020018280546117609061407b565b80156117ad5780601f10611782576101008083540402835291602001916117ad565b820191906000526020600020905b81548152906001019060200180831161179057829003601f168201915b5050505050908060080160009054906101000a900473ffffffffffffffffffffffffffffffffffffffff16905089565b60065481565b6117eb612b85565b60016000838152602001908152602001600020604051806080016040529081600082015481526020016001820180546118239061407b565b80601f016020809104026020016040519081016040528092919081815260200182805461184f9061407b565b801561189c5780601f106118715761010080835404028352916020019161189c565b820191906000526020600020905b81548152906001019060200180831161187f57829003601f168201915b505050505081526020016002820180546118b59061407b565b80601f01602080910402602001604051908101604052809291908181526020018280546118e19061407b565b801561192e5780601f106119035761010080835404028352916020019161192e565b820191906000526020600020905b81548152906001019060200180831161191157829003601f168201915b505050505081526020016003820154815250509050919050565b6000600454905090565b60026020528060005260406000206000915090508060000154908060010160009054906101000a900473ffffffffffffffffffffffffffffffffffffffff16908060020154908060030160009054906101000a900460ff16908060040154905085565b6000600654905090565b6119c7612bad565b60008083815260200190815260200160002060405180610120016040529081600082015481526020016001820180546119ff9061407b565b80601f0160208091040260200160405190810160405280929190818152602001828054611a2b9061407b565b8015611a785780601f10611a4d57610100808354040283529160200191611a78565b820191906000526020600020905b815481529060010190602001808311611a5b57829003601f168201915b5050505050815260200160028201548152602001600382015481526020016004820160009054906101000a900460ff166002811115611ae0577f4e487b7100000000000000000000000000000000000000000000000000000000600052602160045260246000fd5b6002811115611b18577f4e487b7100000000000000000000000000000000000000000000000000000000600052602160045260246000fd5b815260200160058201548152602001600682018054611b369061407b565b80601f0160208091040260200160405190810160405280929190818152602001828054611b629061407b565b8015611baf5780601f10611b8457610100808354040283529160200191611baf565b820191906000526020600020905b815481529060010190602001808311611b9257829003601f168201915b50505050508152602001600782018054611bc89061407b565b80601f0160208091040260200160405190810160405280929190818152602001828054611bf49061407b565b8015611c415780601f10611c1657610100808354040283529160200191611c41565b820191906000526020600020905b815481529060010190602001808311611c2457829003601f168201915b505050505081526020016008820160009054906101000a900473ffffffffffffffffffffffffffffffffffffffff1673ffffffffffffffffffffffffffffffffffffffff1673ffffffffffffffffffffffffffffffffffffffff16815250509050919050565b60056006811115611ce1577f4e487b7100000000000000000000000000000000000000000000000000000000600052602160045260246000fd5b600860009054906101000a900473ffffffffffffffffffffffffffffffffffffffff1673ffffffffffffffffffffffffffffffffffffffff1663fe32398a336040518263ffffffff1660e01b8152600401611d3c919061396f565b604080518083038186803b158015611d5357600080fd5b505afa158015611d67573d6000803e3d6000fd5b505050506040513d601f19601f82011682018060405250810190611d8b91906130f4565b602001516006811115611dc7577f4e487b7100000000000000000000000000000000000000000000000000000000600052602160045260246000fd5b14611e07576040517f08c379a0000000000000000000000000000000000000000000000000000000008152600401611dfe90613b51565b60405180910390fd5b600454821115611e4c576040517f08c379a0000000000000000000000000000000000000000000000000000000008152600401611e4390613a51565b60405180910390fd5b806003600084815260200190815260200160002060040160016101000a81548160ff02191690836001811115611eab577f4e487b7100000000000000000000000000000000000000000000000000000000600052602160045260246000fd5b0217905550817f26ac1a75b14d22a4bdc3531ce4b57293ccf9243488885dce5ceb2ebf2d24f93782604051611ee091906139c0565b60405180910390a25050565b611ef4612c47565b600260008381526020019081526020016000206040518060a0016040529081600082015481526020016001820160009054906101000a900473ffffffffffffffffffffffffffffffffffffffff1673ffffffffffffffffffffffffffffffffffffffff1673ffffffffffffffffffffffffffffffffffffffff168152602001600282015481526020016003820160009054906101000a900460ff166002811115611fc7577f4e487b7100000000000000000000000000000000000000000000000000000000600052602160045260246000fd5b6002811115611fff577f4e487b7100000000000000000000000000000000000000000000000000000000600052602160045260246000fd5b81526020016004820154815250509050919050565b60075481565b612022612cc4565b600360008381526020019081526020016000206040518060e0016040529081600082015481526020016001820154815260200160028201548152602001600382015481526020016004820160009054906101000a900460ff161515151581526020016004820160019054906101000a900460ff1660018111156120ce577f4e487b7100000000000000000000000000000000000000000000000000000000600052602160045260246000fd5b6001811115612106577f4e487b7100000000000000000000000000000000000000000000000000000000600052602160045260246000fd5b81526020016004820160029054906101000a900473ffffffffffffffffffffffffffffffffffffffff1673ffffffffffffffffffffffffffffffffffffffff1673ffffffffffffffffffffffffffffffffffffffff16815250509050919050565b6006808111156121a0577f4e487b7100000000000000000000000000000000000000000000000000000000600052602160045260246000fd5b600860009054906101000a900473ffffffffffffffffffffffffffffffffffffffff1673ffffffffffffffffffffffffffffffffffffffff1663fe32398a336040518263ffffffff1660e01b81526004016121fb919061396f565b604080518083038186803b15801561221257600080fd5b505afa158015612226573d6000803e3d6000fd5b505050506040513d601f19601f8201168201806040525081019061224a91906130f4565b602001516006811115612286577f4e487b7100000000000000000000000000000000000000000000000000000000600052602160045260246000fd5b146122c6576040517f08c379a00000000000000000000000000000000000000000000000000000000081526004016122bd90613b31565b60405180910390fd5b6000808381526020019081526020016000206002015481111561231e576040517f08c379a000000000000000000000000000000000000000000000000000000000815260040161231590613af1565b60405180910390fd5b600080600084815260200190815260200160002060030154826123419190613eab565b9050600082600080868152602001908152602001600020600201546123669190613f05565b9050806000808681526020019081526020016000206002018190555060046000815480929190612395906140ad565b91905055506040518060e00160405280600454815260200185815260200184815260200183815260200160001515815260200160006001811115612402577f4e487b7100000000000000000000000000000000000000000000000000000000600052602160045260246000fd5b81526020013373ffffffffffffffffffffffffffffffffffffffff168152506003600060045481526020019081526020016000206000820151816000015560208201518160010155604082015181600201556060820151816003015560808201518160040160006101000a81548160ff02191690831515021790555060a08201518160040160016101000a81548160ff021916908360018111156124cf577f4e487b7100000000000000000000000000000000000000000000000000000000600052602160045260246000fd5b021790555060c08201518160040160026101000a81548173ffffffffffffffffffffffffffffffffffffffff021916908373ffffffffffffffffffffffffffffffffffffffff1602179055509050503373ffffffffffffffffffffffffffffffffffffffff167fac67b1d913a02769b0d5b5c09600fcf53ccca6745557622305af0da92152d05a856040516125649190613c06565b60405180910390a250505050565b60055481565b6000600754905090565b61258a612d51565b600860009054906101000a900473ffffffffffffffffffffffffffffffffffffffff1673ffffffffffffffffffffffffffffffffffffffff1663fe32398a836040518263ffffffff1660e01b81526004016125e5919061396f565b604080518083038186803b1580156125fc57600080fd5b505afa158015612610573d6000803e3d6000fd5b505050506040513d601f19601f8201168201806040525081019061263491906130f4565b9050919050565b60036006811115612675577f4e487b7100000000000000000000000000000000000000000000000000000000600052602160045260246000fd5b600860009054906101000a900473ffffffffffffffffffffffffffffffffffffffff1673ffffffffffffffffffffffffffffffffffffffff1663fe32398a336040518263ffffffff1660e01b81526004016126d0919061396f565b604080518083038186803b1580156126e757600080fd5b505afa1580156126fb573d6000803e3d6000fd5b505050506040513d601f19601f8201168201806040525081019061271f91906130f4565b60200151600681111561275b577f4e487b7100000000000000000000000000000000000000000000000000000000600052602160045260246000fd5b1461279b576040517f08c379a000000000000000000000000000000000000000000000000000000000815260040161279290613b11565b60405180910390fd5b6000806000600860009054906101000a900473ffffffffffffffffffffffffffffffffffffffff1673ffffffffffffffffffffffffffffffffffffffff16637f645273876040518263ffffffff1660e01b81526004016127fb9190613c06565b60006040518083038186803b15801561281357600080fd5b505afa158015612827573d6000803e3d6000fd5b505050506040513d6000823e3d601f19601f820116820180604052508101906128509190612fae565b965096509650505050506005600081548092919061286d906140ad565b91905055506040518061012001604052806005548152602001848152602001868152602001858152602001600060028111156128d2577f4e487b7100000000000000000000000000000000000000000000000000000000600052602160045260246000fd5b81526020018781526020018381526020018281526020013373ffffffffffffffffffffffffffffffffffffffff16815250600080600554815260200190815260200160002060008201518160000155602082015181600101908051906020019061293d929190612aff565b50604082015181600201556060820151816003015560808201518160040160006101000a81548160ff021916908360028111156129a3577f4e487b7100000000000000000000000000000000000000000000000000000000600052602160045260246000fd5b021790555060a0820151816005015560c08201518160060190805190602001906129ce929190612aff565b5060e08201518160070190805190602001906129eb929190612aff565b506101008201518160080160006101000a81548173ffffffffffffffffffffffffffffffffffffffff021916908373ffffffffffffffffffffffffffffffffffffffff1602179055509050506005547ff66885504dddadc35efd9cd98df3190adb9b2b9c7537390767c4ee806f4c0bbf8487878a8787604051612a73969594939291906139db565b60405180910390a2505050505050565b60036020528060005260406000206000915090508060000154908060010154908060020154908060030154908060040160009054906101000a900460ff16908060040160019054906101000a900460ff16908060040160029054906101000a900473ffffffffffffffffffffffffffffffffffffffff16905087565b828054612b0b9061407b565b90600052602060002090601f016020900481019282612b2d5760008555612b74565b82601f10612b4657805160ff1916838001178555612b74565b82800160010185558215612b74579182015b82811115612b73578251825591602001919060010190612b58565b5b509050612b819190612db9565b5090565b6040518060800160405280600081526020016060815260200160608152602001600081525090565b6040518061012001604052806000815260200160608152602001600081526020016000815260200160006002811115612c0f577f4e487b7100000000000000000000000000000000000000000000000000000000600052602160045260246000fd5b8152602001600081526020016060815260200160608152602001600073ffffffffffffffffffffffffffffffffffffffff1681525090565b6040518060a0016040528060008152602001600073ffffffffffffffffffffffffffffffffffffffff1681526020016000815260200160006002811115612cb7577f4e487b7100000000000000000000000000000000000000000000000000000000600052602160045260246000fd5b8152602001600081525090565b6040518060e001604052806000815260200160008152602001600081526020016000815260200160001515815260200160006001811115612d2e577f4e487b7100000000000000000000000000000000000000000000000000000000600052602160045260246000fd5b8152602001600073ffffffffffffffffffffffffffffffffffffffff1681525090565b6040518060400160405280600073ffffffffffffffffffffffffffffffffffffffff16815260200160006006811115612db3577f4e487b7100000000000000000000000000000000000000000000000000000000600052602160045260246000fd5b81525090565b5b80821115612dd2576000816000905550600101612dba565b5090565b6000612de9612de484613e4e565b613e1d565b905082815260208101848484011115612e0157600080fd5b612e0c848285614039565b509392505050565b6000612e27612e2284613e4e565b613e1d565b905082815260208101848484011115612e3f57600080fd5b612e4a848285614048565b509392505050565b600081359050612e6181614213565b92915050565b600081519050612e7681614213565b92915050565b600081359050612e8b8161422a565b92915050565b600081359050612ea081614241565b92915050565b600081519050612eb581614251565b92915050565b600081359050612eca81614261565b92915050565b600082601f830112612ee157600080fd5b8135612ef1848260208601612dd6565b91505092915050565b600082601f830112612f0b57600080fd5b8151612f1b848260208601612e14565b91505092915050565b600060408284031215612f3657600080fd5b612f406040613e1d565b90506000612f5084828501612e67565b6000830152506020612f6484828501612ea6565b60208301525092915050565b600081359050612f7f81614271565b92915050565b600060208284031215612f9757600080fd5b6000612fa584828501612e52565b91505092915050565b600080600080600080600060e0888a031215612fc957600080fd5b600088015167ffffffffffffffff811115612fe357600080fd5b612fef8a828b01612efa565b975050602088015167ffffffffffffffff81111561300c57600080fd5b6130188a828b01612efa565b965050604088015167ffffffffffffffff81111561303557600080fd5b6130418a828b01612efa565b955050606088015167ffffffffffffffff81111561305e57600080fd5b61306a8a828b01612efa565b945050608088015167ffffffffffffffff81111561308757600080fd5b6130938a828b01612efa565b93505060a088015167ffffffffffffffff8111156130b057600080fd5b6130bc8a828b01612efa565b92505060c088015167ffffffffffffffff8111156130d957600080fd5b6130e58a828b01612efa565b91505092959891949750929550565b60006040828403121561310657600080fd5b600061311484828501612f24565b91505092915050565b60006020828403121561312f57600080fd5b600061313d84828501612f70565b91505092915050565b6000806040838503121561315957600080fd5b600061316785828601612f70565b925050602061317885828601612e7c565b9150509250929050565b6000806040838503121561319557600080fd5b60006131a385828601612f70565b92505060206131b485828601612ebb565b9150509250929050565b6000806000606084860312156131d357600080fd5b60006131e186828701612f70565b935050602084013567ffffffffffffffff8111156131fe57600080fd5b61320a86828701612ed0565b925050604084013567ffffffffffffffff81111561322757600080fd5b61323386828701612ed0565b9150509250925092565b6000806040838503121561325057600080fd5b600061325e85828601612f70565b925050602061326f85828601612f70565b9150509250929050565b60008060006060848603121561328e57600080fd5b600061329c86828701612f70565b93505060206132ad86828701612f70565b92505060406132be86828701612e91565b9150509250925092565b6000806000606084860312156132dd57600080fd5b60006132eb86828701612f70565b93505060206132fc86828701612f70565b925050604061330d86828701612f70565b9150509250925092565b61332081613f39565b82525050565b61332f81613f39565b82525050565b61333e81613f4b565b82525050565b61334d81613f4b565b82525050565b61335c81613fcd565b82525050565b61336b81613ff1565b82525050565b61337a81613ff1565b82525050565b61338981614003565b82525050565b61339881614015565b82525050565b6133a781614015565b82525050565b6133b681614027565b82525050565b6133c581614027565b82525050565b60006133d682613e7e565b6133e08185613e89565b93506133f0818560208601614048565b6133f9816141b2565b840191505092915050565b600061340f82613e7e565b6134198185613e9a565b9350613429818560208601614048565b613432816141b2565b840191505092915050565b600061344a601983613e9a565b91507f4c6120636f6d6d616e6465206e27657869737465207061732e000000000000006000830152602082019050919050565b600061348a601183613e9a565b91507f4d6f6e74616e7420696e636f72726563740000000000000000000000000000006000830152602082019050919050565b60006134ca601383613e9a565b91507f50726f647569742064656a6120747261697465000000000000000000000000006000830152602082019050919050565b600061350a601383613e9a565b91507f436f6d6d616e64652064656a61207061796572000000000000000000000000006000830152602082019050919050565b600061354a601283613e9a565b91507f50726f64756974206e6f6e2076616c69646500000000000000000000000000006000830152602082019050919050565b600061358a601183613e9a565b91507f5175616e7469746520696e76616c6964650000000000000000000000000000006000830152602082019050919050565b60006135ca602283613e9a565b91507f4e6f6e206175746f726973653a207365756c656d656e7420436f6c6c6563746560008301527f75720000000000000000000000000000000000000000000000000000000000006020830152604082019050919050565b6000613630602383613e9a565b91507f4e6f6e206175746f726973653a207365756c656d656e74204578706f7274617460008301527f65757200000000000000000000000000000000000000000000000000000000006020830152604082019050919050565b6000613696602483613e9a565b91507f4e6f6e206175746f726973653a207365756c656d656e74205472616e73706f7260008301527f74657572000000000000000000000000000000000000000000000000000000006020830152604082019050919050565b6040820160008201516137056000850182613317565b5060208201516137186020850182613380565b50505050565b60e0820160008201516137346000850182613951565b5060208201516137476020850182613951565b50604082015161375a6040850182613951565b50606082015161376d6060850182613951565b5060808201516137806080850182613335565b5060a082015161379360a08501826133ad565b5060c08201516137a660c0850182613317565b50505050565b60006080830160008301516137c46000860182613951565b50602083015184820360208601526137dc82826133cb565b915050604083015184820360408601526137f682826133cb565b915050606083015161380b6060860182613951565b508091505092915050565b60a08201600082015161382c6000850182613951565b50602082015161383f6020850182613317565b5060408201516138526040850182613951565b5060608201516138656060850182613362565b5060808201516138786080850182613951565b50505050565b6000610120830160008301516138976000860182613951565b50602083015184820360208601526138af82826133cb565b91505060408301516138c46040860182613951565b5060608301516138d76060860182613951565b5060808301516138ea608086018261338f565b5060a08301516138fd60a0860182613951565b5060c083015184820360c086015261391582826133cb565b91505060e083015184820360e086015261392f82826133cb565b915050610100830151613946610100860182613317565b508091505092915050565b61395a81613fc3565b82525050565b61396981613fc3565b82525050565b60006020820190506139846000830184613326565b92915050565b600060208201905061399f6000830184613344565b92915050565b60006020820190506139ba6000830184613353565b92915050565b60006020820190506139d560008301846133bc565b92915050565b600060c08201905081810360008301526139f58189613404565b9050613a046020830188613960565b613a116040830187613960565b613a1e6060830186613960565b8181036080830152613a308185613404565b905081810360a0830152613a448184613404565b9050979650505050505050565b60006020820190508181036000830152613a6a8161343d565b9050919050565b60006020820190508181036000830152613a8a8161347d565b9050919050565b60006020820190508181036000830152613aaa816134bd565b9050919050565b60006020820190508181036000830152613aca816134fd565b9050919050565b60006020820190508181036000830152613aea8161353d565b9050919050565b60006020820190508181036000830152613b0a8161357d565b9050919050565b60006020820190508181036000830152613b2a816135bd565b9050919050565b60006020820190508181036000830152613b4a81613623565b9050919050565b60006020820190508181036000830152613b6a81613689565b9050919050565b6000604082019050613b8660008301846136ef565b92915050565b600060e082019050613ba1600083018461371e565b92915050565b60006020820190508181036000830152613bc181846137ac565b905092915050565b600060a082019050613bde6000830184613816565b92915050565b60006020820190508181036000830152613bfe818461387e565b905092915050565b6000602082019050613c1b6000830184613960565b92915050565b6000608082019050613c366000830187613960565b613c436020830186613326565b613c506040830185613960565b613c5d6060830184613371565b95945050505050565b600060a082019050613c7b6000830188613960565b613c886020830187613326565b613c956040830186613960565b613ca26060830185613371565b613caf6080830184613960565b9695505050505050565b6000608082019050613cce6000830187613960565b8181036020830152613ce08186613404565b90508181036040830152613cf48185613404565b9050613d036060830184613960565b95945050505050565b600061012082019050613d22600083018c613960565b8181036020830152613d34818b613404565b9050613d43604083018a613960565b613d506060830189613960565b613d5d608083018861339e565b613d6a60a0830187613960565b81810360c0830152613d7c8186613404565b905081810360e0830152613d908185613404565b9050613da0610100830184613326565b9a9950505050505050505050565b600060e082019050613dc3600083018a613960565b613dd06020830189613960565b613ddd6040830188613960565b613dea6060830187613960565b613df76080830186613344565b613e0460a08301856133bc565b613e1160c0830184613326565b98975050505050505050565b6000604051905081810181811067ffffffffffffffff82111715613e4457613e43614183565b5b8060405250919050565b600067ffffffffffffffff821115613e6957613e68614183565b5b601f19601f8301169050602081019050919050565b600081519050919050565b600082825260208201905092915050565b600082825260208201905092915050565b6000613eb682613fc3565b9150613ec183613fc3565b9250817fffffffffffffffffffffffffffffffffffffffffffffffffffffffffffffffff0483118215151615613efa57613ef96140f6565b5b828202905092915050565b6000613f1082613fc3565b9150613f1b83613fc3565b925082821015613f2e57613f2d6140f6565b5b828203905092915050565b6000613f4482613fa3565b9050919050565b60008115159050919050565b6000819050613f65826141c3565b919050565b6000819050613f78826141d7565b919050565b6000819050613f8b826141eb565b919050565b6000819050613f9e826141ff565b919050565b600073ffffffffffffffffffffffffffffffffffffffff82169050919050565b6000819050919050565b6000613fd882613fdf565b9050919050565b6000613fea82613fa3565b9050919050565b6000613ffc82613f57565b9050919050565b600061400e82613f6a565b9050919050565b600061402082613f7d565b9050919050565b600061403282613f90565b9050919050565b82818337600083830152505050565b60005b8381101561406657808201518184015260208101905061404b565b83811115614075576000848401525b50505050565b6000600282049050600182168061409357607f821691505b602082108114156140a7576140a6614154565b5b50919050565b60006140b882613fc3565b91507fffffffffffffffffffffffffffffffffffffffffffffffffffffffffffffffff8214156140eb576140ea6140f6565b5b600182019050919050565b7f4e487b7100000000000000000000000000000000000000000000000000000000600052601160045260246000fd5b7f4e487b7100000000000000000000000000000000000000000000000000000000600052602160045260246000fd5b7f4e487b7100000000000000000000000000000000000000000000000000000000600052602260045260246000fd5b7f4e487b7100000000000000000000000000000000000000000000000000000000600052604160045260246000fd5b6000601f19601f8301169050919050565b600381106141d4576141d3614125565b5b50565b600781106141e8576141e7614125565b5b50565b600381106141fc576141fb614125565b5b50565b600281106142105761420f614125565b5b50565b61421c81613f39565b811461422757600080fd5b50565b61423381613f4b565b811461423e57600080fd5b50565b6003811061424e57600080fd5b50565b6007811061425e57600080fd5b50565b6002811061426e57600080fd5b50565b61427a81613fc3565b811461428557600080fd5b5056fea264697066735822122066ce5e58ab0b72178a1eb7c245acf1750c2301e1a4f3912d6b6af9f86c226b9064736f6c63430008000033",
  "linkReferences": {},
  "deployedLinkReferences": {}
}