{
  "_format": "hh-sol-artifact-1",
  "contractName": "CollecteurProducteur",
  "sourceName": "contracts/CollecteurProducteur.sol",
  "abi": [
    {
      "anonymous": false,
      "inputs": [
        {
          "indexed": true,
          "internalType": "uint32",
          "name": "idProduit",
          "type": "uint32"
        },
        {
          "indexed": false,
          "internalType": "string",
          "name": "cid",
          "type": "string"
        },
        {
          "indexed": false,
          "internalType": "uint256",
          "name": "timestamp",
          "type": "uint256"
        },
        {
          "indexed": false,
          "internalType": "address",
          "name": "transporteur",
          "type": "address"
        }
      ],
      "name": "ConditionEnregistree",
      "type": "event"
    },
    {
      "anonymous": false,
      "inputs": [
        {
          "indexed": true,
          "internalType": "uint32",
          "name": "idCommande",
          "type": "uint32"
        },
        {
          "indexed": false,
          "internalType": "bool",
          "name": "status",
          "type": "bool"
        }
      ],
      "name": "ValidationCommandeRecolte",
      "type": "event"
    },
    {
      "inputs": [
        {
          "internalType": "uint32",
          "name": "_idRecolte",
          "type": "uint32"
        },
        {
          "internalType": "string",
          "name": "_hash",
          "type": "string"
        }
      ],
      "name": "ajoutHashMerkleRecolte",
      "outputs": [],
      "stateMutability": "nonpayable",
      "type": "function"
    },
    {
      "inputs": [
        {
          "internalType": "uint32[]",
          "name": "_idParcelles",
          "type": "uint32[]"
        },
        {
          "internalType": "uint32",
          "name": "_quantite",
          "type": "uint32"
        },
        {
          "internalType": "uint32",
          "name": "_prix",
          "type": "uint32"
        },
        {
          "internalType": "string",
          "name": "_cid",
          "type": "string"
        }
      ],
      "name": "ajoutRecolte",
      "outputs": [],
      "stateMutability": "nonpayable",
      "type": "function"
    },
    {
      "inputs": [
        {
          "internalType": "uint32",
          "name": "_idRecolte",
          "type": "uint32"
        },
        {
          "internalType": "string",
          "name": "_certificat",
          "type": "string"
        }
      ],
      "name": "certifieRecolte",
      "outputs": [],
      "stateMutability": "nonpayable",
      "type": "function"
    },
    {
      "inputs": [
        {
          "internalType": "uint32",
          "name": "idCommande",
          "type": "uint32"
        },
        {
          "internalType": "address",
          "name": "transporteur",
          "type": "address"
        }
      ],
      "name": "choisirTransporteurCommandeRecolte",
      "outputs": [],
      "stateMutability": "nonpayable",
      "type": "function"
    },
    {
      "inputs": [
        {
          "internalType": "uint32",
          "name": "",
          "type": "uint32"
        }
      ],
      "name": "commandes",
      "outputs": [
        {
          "internalType": "uint32",
          "name": "id",
          "type": "uint32"
        },
        {
          "internalType": "uint32",
          "name": "idRecolte",
          "type": "uint32"
        },
        {
          "internalType": "uint32",
          "name": "quantite",
          "type": "uint32"
        },
        {
          "internalType": "uint32",
          "name": "prix",
          "type": "uint32"
        },
        {
          "internalType": "bool",
          "name": "payer",
          "type": "bool"
        },
        {
          "internalType": "enum StructLib.StatutTransport",
          "name": "statutTransport",
          "type": "uint8"
        },
        {
          "internalType": "address",
          "name": "producteur",
          "type": "address"
        },
        {
          "internalType": "address",
          "name": "collecteur",
          "type": "address"
        },
        {
          "internalType": "enum StructLib.StatutProduit",
          "name": "statutRecolte",
          "type": "uint8"
        },
        {
          "internalType": "string",
          "name": "hashMerkle",
          "type": "string"
        },
        {
          "internalType": "bool",
          "name": "enregistrerCondition",
          "type": "bool"
        },
        {
          "internalType": "address",
          "name": "transporteur",
          "type": "address"
        }
      ],
      "stateMutability": "view",
      "type": "function"
    },
    {
      "inputs": [],
      "name": "compteurCommandes",
      "outputs": [
        {
          "internalType": "uint32",
          "name": "",
          "type": "uint32"
        }
      ],
      "stateMutability": "view",
      "type": "function"
    },
    {
      "inputs": [],
      "name": "compteurRecoltes",
      "outputs": [
        {
          "internalType": "uint32",
          "name": "",
          "type": "uint32"
        }
      ],
      "stateMutability": "view",
      "type": "function"
    },
    {
      "inputs": [
        {
          "internalType": "uint32",
          "name": "",
          "type": "uint32"
        }
      ],
      "name": "conditions",
      "outputs": [
        {
          "internalType": "uint32",
          "name": "id",
          "type": "uint32"
        },
        {
          "internalType": "string",
          "name": "cid",
          "type": "string"
        },
        {
          "internalType": "uint256",
          "name": "timestamp",
          "type": "uint256"
        },
        {
          "internalType": "string",
          "name": "hashMerkle",
          "type": "string"
        }
      ],
      "stateMutability": "view",
      "type": "function"
    },
    {
      "inputs": [
        {
          "internalType": "uint32",
          "name": "_idCommande",
          "type": "uint32"
        },
        {
          "internalType": "uint32",
          "name": "_montant",
          "type": "uint32"
        },
        {
          "internalType": "enum StructLib.ModePaiement",
          "name": "_mode",
          "type": "uint8"
        }
      ],
      "name": "effectuerPaiementVersProducteur",
      "outputs": [],
      "stateMutability": "payable",
      "type": "function"
    },
    {
      "inputs": [
        {
          "internalType": "uint32",
          "name": "_idCommande",
          "type": "uint32"
        },
        {
          "internalType": "string",
          "name": "_cid",
          "type": "string"
        }
      ],
      "name": "enregistrerCondition",
      "outputs": [],
      "stateMutability": "nonpayable",
      "type": "function"
    },
    {
      "inputs": [],
      "name": "gestionnaireActeurs",
      "outputs": [
        {
          "internalType": "contract GestionnaireActeurs",
          "name": "",
          "type": "address"
        }
      ],
      "stateMutability": "view",
      "type": "function"
    },
    {
      "inputs": [
        {
          "internalType": "uint32",
          "name": "_id",
          "type": "uint32"
        }
      ],
      "name": "getCommande",
      "outputs": [
        {
          "components": [
            {
              "internalType": "uint32",
              "name": "id",
              "type": "uint32"
            },
            {
              "internalType": "uint32",
              "name": "idRecolte",
              "type": "uint32"
            },
            {
              "internalType": "uint32",
              "name": "quantite",
              "type": "uint32"
            },
            {
              "internalType": "uint32",
              "name": "prix",
              "type": "uint32"
            },
            {
              "internalType": "bool",
              "name": "payer",
              "type": "bool"
            },
            {
              "internalType": "enum StructLib.StatutTransport",
              "name": "statutTransport",
              "type": "uint8"
            },
            {
              "internalType": "address",
              "name": "producteur",
              "type": "address"
            },
            {
              "internalType": "address",
              "name": "collecteur",
              "type": "address"
            },
            {
              "internalType": "enum StructLib.StatutProduit",
              "name": "statutRecolte",
              "type": "uint8"
            },
            {
              "internalType": "string",
              "name": "hashMerkle",
              "type": "string"
            },
            {
              "internalType": "bool",
              "name": "enregistrerCondition",
              "type": "bool"
            },
            {
              "internalType": "address",
              "name": "transporteur",
              "type": "address"
            }
          ],
          "internalType": "struct StructLib.CommandeRecolte",
          "name": "",
          "type": "tuple"
        }
      ],
      "stateMutability": "view",
      "type": "function"
    },
    {
      "inputs": [],
      "name": "getCompteurCommandes",
      "outputs": [
        {
          "internalType": "uint32",
          "name": "",
          "type": "uint32"
        }
      ],
      "stateMutability": "view",
      "type": "function"
    },
    {
      "inputs": [],
      "name": "getCompteurPaiments",
      "outputs": [
        {
          "internalType": "uint32",
          "name": "",
          "type": "uint32"
        }
      ],
      "stateMutability": "view",
      "type": "function"
    },
    {
      "inputs": [],
      "name": "getCompteurRecoltes",
      "outputs": [
        {
          "internalType": "uint32",
          "name": "",
          "type": "uint32"
        }
      ],
      "stateMutability": "view",
      "type": "function"
    },
    {
      "inputs": [
        {
          "internalType": "uint32",
          "name": "_idCommande",
          "type": "uint32"
        }
      ],
      "name": "getConditionTransport",
      "outputs": [
        {
          "components": [
            {
              "internalType": "uint32",
              "name": "id",
              "type": "uint32"
            },
            {
              "internalType": "string",
              "name": "cid",
              "type": "string"
            },
            {
              "internalType": "uint256",
              "name": "timestamp",
              "type": "uint256"
            },
            {
              "internalType": "string",
              "name": "hashMerkle",
              "type": "string"
            }
          ],
          "internalType": "struct StructLib.EnregistrementCondition",
          "name": "",
          "type": "tuple"
        }
      ],
      "stateMutability": "view",
      "type": "function"
    },
    {
      "inputs": [
        {
          "internalType": "uint32",
          "name": "_id",
          "type": "uint32"
        }
      ],
      "name": "getPaiement",
      "outputs": [
        {
          "components": [
            {
              "internalType": "uint32",
              "name": "id",
              "type": "uint32"
            },
            {
              "internalType": "address",
              "name": "payeur",
              "type": "address"
            },
            {
              "internalType": "address",
              "name": "vendeur",
              "type": "address"
            },
            {
              "internalType": "uint32",
              "name": "montant",
              "type": "uint32"
            },
            {
              "internalType": "enum StructLib.ModePaiement",
              "name": "mode",
              "type": "uint8"
            },
            {
              "internalType": "uint256",
              "name": "timestamp",
              "type": "uint256"
            },
            {
              "internalType": "string",
              "name": "hashMerkle",
              "type": "string"
            }
          ],
          "internalType": "struct StructLib.Paiement",
          "name": "",
          "type": "tuple"
        }
      ],
      "stateMutability": "view",
      "type": "function"
    },
    {
      "inputs": [
        {
          "internalType": "uint32",
          "name": "_idRecolte",
          "type": "uint32"
        }
      ],
      "name": "getRecolte",
      "outputs": [
        {
          "components": [
            {
              "internalType": "uint32",
              "name": "id",
              "type": "uint32"
            },
            {
              "internalType": "uint32[]",
              "name": "idParcelle",
              "type": "uint32[]"
            },
            {
              "internalType": "uint32",
              "name": "quantite",
              "type": "uint32"
            },
            {
              "internalType": "uint32",
              "name": "prixUnit",
              "type": "uint32"
            },
            {
              "internalType": "bool",
              "name": "certifie",
              "type": "bool"
            },
            {
              "internalType": "string",
              "name": "certificatPhytosanitaire",
              "type": "string"
            },
            {
              "internalType": "address",
              "name": "producteur",
              "type": "address"
            },
            {
              "internalType": "string",
              "name": "hashMerkle",
              "type": "string"
            },
            {
              "internalType": "string",
              "name": "cid",
              "type": "string"
            }
          ],
          "internalType": "struct StructLib.Recolte",
          "name": "",
          "type": "tuple"
        }
      ],
      "stateMutability": "view",
      "type": "function"
    },
    {
      "inputs": [
        {
          "internalType": "address",
          "name": "_addrCE",
          "type": "address"
        },
        {
          "internalType": "address",
          "name": "_gestionnaireActeurs",
          "type": "address"
        },
        {
          "internalType": "address",
          "name": "_producteurEnPhaseCulture",
          "type": "address"
        }
      ],
      "name": "initialiser",
      "outputs": [],
      "stateMutability": "nonpayable",
      "type": "function"
    },
    {
      "inputs": [
        {
          "internalType": "uint32",
          "name": "_idCommande",
          "type": "uint32"
        },
        {
          "internalType": "enum StructLib.StatutTransport",
          "name": "_statut",
          "type": "uint8"
        }
      ],
      "name": "mettreAJourStatutTransport",
      "outputs": [],
      "stateMutability": "nonpayable",
      "type": "function"
    },
    {
      "inputs": [
        {
          "internalType": "uint32",
          "name": "",
          "type": "uint32"
        }
      ],
      "name": "paiements",
      "outputs": [
        {
          "internalType": "uint32",
          "name": "id",
          "type": "uint32"
        },
        {
          "internalType": "address",
          "name": "payeur",
          "type": "address"
        },
        {
          "internalType": "address",
          "name": "vendeur",
          "type": "address"
        },
        {
          "internalType": "uint32",
          "name": "montant",
          "type": "uint32"
        },
        {
          "internalType": "enum StructLib.ModePaiement",
          "name": "mode",
          "type": "uint8"
        },
        {
          "internalType": "uint256",
          "name": "timestamp",
          "type": "uint256"
        },
        {
          "internalType": "string",
          "name": "hashMerkle",
          "type": "string"
        }
      ],
      "stateMutability": "view",
      "type": "function"
    },
    {
      "inputs": [
        {
          "internalType": "uint32",
          "name": "_idRecolte",
          "type": "uint32"
        },
        {
          "internalType": "uint32",
          "name": "_quantite",
          "type": "uint32"
        }
      ],
      "name": "passerCommandeVersProducteur",
      "outputs": [],
      "stateMutability": "nonpayable",
      "type": "function"
    },
    {
      "inputs": [],
      "name": "producteurEnPhaseCulture",
      "outputs": [
        {
          "internalType": "contract IProducteur",
          "name": "",
          "type": "address"
        }
      ],
      "stateMutability": "view",
      "type": "function"
    },
    {
      "inputs": [
        {
          "internalType": "uint32",
          "name": "",
          "type": "uint32"
        }
      ],
      "name": "recoltes",
      "outputs": [
        {
          "internalType": "uint32",
          "name": "id",
          "type": "uint32"
        },
        {
          "internalType": "uint32",
          "name": "quantite",
          "type": "uint32"
        },
        {
          "internalType": "uint32",
          "name": "prixUnit",
          "type": "uint32"
        },
        {
          "internalType": "bool",
          "name": "certifie",
          "type": "bool"
        },
        {
          "internalType": "string",
          "name": "certificatPhytosanitaire",
          "type": "string"
        },
        {
          "internalType": "address",
          "name": "producteur",
          "type": "address"
        },
        {
          "internalType": "string",
          "name": "hashMerkle",
          "type": "string"
        },
        {
          "internalType": "string",
          "name": "cid",
          "type": "string"
        }
      ],
      "stateMutability": "view",
      "type": "function"
    },
    {
      "inputs": [
        {
          "internalType": "address",
          "name": "_addr",
          "type": "address"
        }
      ],
      "name": "setGestionnaireActeurs",
      "outputs": [],
      "stateMutability": "nonpayable",
      "type": "function"
    },
    {
      "inputs": [
        {
          "internalType": "address",
          "name": "_addr",
          "type": "address"
        }
      ],
      "name": "setModuleCE",
      "outputs": [],
      "stateMutability": "nonpayable",
      "type": "function"
    },
    {
      "inputs": [
        {
          "internalType": "address",
          "name": "_addr",
          "type": "address"
        }
      ],
      "name": "setProducteurEnPhaseCulture",
      "outputs": [],
      "stateMutability": "nonpayable",
      "type": "function"
    },
    {
      "inputs": [
        {
          "internalType": "uint32",
          "name": "_idCommande",
          "type": "uint32"
        },
        {
          "internalType": "bool",
          "name": "_valide",
          "type": "bool"
        }
      ],
      "name": "validerCommandeRecolte",
      "outputs": [],
      "stateMutability": "nonpayable",
      "type": "function"
    }
  ],
  "bytecode": "0x608060405234801561001057600080fd5b50615ca580620000216000396000f3fe6080604052600436106101b75760003560e01c806384342842116100ec578063cb3948761161008a578063e550ef9911610064578063e550ef9914610625578063f1b7e5a81461064e578063f6980cc914610677578063fd643101146106b7576101b7565b8063cb394876146105a6578063cd60462b146105d1578063d84e632d146105fc576101b7565b80639e942cd4116100c65780639e942cd4146104e3578063b38d3aea1461050e578063b3df2a1514610552578063b5fe20761461057b576101b7565b806384342842146104685780638a16156e146104915780639d75741d146104ba576101b7565b8063488dee20116101595780636ad267d3116101335780636ad267d3146103985780636f3fd6c5146103c15780637babcffa146104095780638428d5431461044c576101b7565b8063488dee201461030557806350346b0b146103305780635293ea511461035b576101b7565b806319f1c2901161019557806319f1c2901461025f578063257687e61461028a5780632d5b3658146102b35780633e7a6049146102dc576101b7565b80630b215e64146101bc578063182b03bc146101f957806319c04d0e14610222575b600080fd5b3480156101c857600080fd5b506101e360048036038101906101de919061496e565b6106f4565b6040516101f09190615500565b60405180910390f35b34801561020557600080fd5b50610220600480360381019061021b9190614871565b610948565b005b34801561022e57600080fd5b506102496004803603810190610244919061496e565b610f62565b60405161025691906154de565b60405180910390f35b34801561026b57600080fd5b506102746110ef565b6040516102819190615544565b60405180910390f35b34801561029657600080fd5b506102b160048036038101906102ac91906147f9565b611107565b005b3480156102bf57600080fd5b506102da60048036038101906102d59190614ac8565b61114b565b005b3480156102e857600080fd5b5061030360048036038101906102fe91906147f9565b611ac1565b005b34801561031157600080fd5b5061031a611b05565b6040516103279190615544565b60405180910390f35b34801561033c57600080fd5b50610345611b19565b6040516103529190615323565b60405180910390f35b34801561036757600080fd5b50610382600480360381019061037d919061496e565b611b3f565b60405161038f91906154bc565b60405180910390f35b3480156103a457600080fd5b506103bf60048036038101906103ba9190614a74565b611ee9565b005b3480156103cd57600080fd5b506103e860048036038101906103e3919061496e565b611f86565b6040516104009c9b9a999897969594939291906156f2565b60405180910390f35b34801561041557600080fd5b50610430600480360381019061042b919061496e565b612142565b604051610443979695949392919061555f565b60405180910390f35b61046660048036038101906104619190614b04565b612279565b005b34801561047457600080fd5b5061048f600480360381019061048a91906149fc565b612b1d565b005b34801561049d57600080fd5b506104b860048036038101906104b39190614a38565b612ef1565b005b3480156104c657600080fd5b506104e160048036038101906104dc9190614a74565b61312f565b005b3480156104ef57600080fd5b506104f8613338565b6040516105059190615308565b60405180910390f35b34801561051a57600080fd5b506105356004803603810190610530919061496e565b61335e565b60405161054998979695949392919061565f565b60405180910390f35b34801561055e57600080fd5b50610579600480360381019061057491906149c0565b61359b565b005b34801561058757600080fd5b506105906137c8565b60405161059d9190615544565b60405180910390f35b3480156105b257600080fd5b506105bb6137e0565b6040516105c89190615544565b60405180910390f35b3480156105dd57600080fd5b506105e66137f6565b6040516105f39190615544565b60405180910390f35b34801561060857600080fd5b50610623600480360381019061061e91906147f9565b613810565b005b34801561063157600080fd5b5061064c60048036038101906106479190614a74565b613854565b005b34801561065a57600080fd5b5061067560048036038101906106709190614822565b613b9b565b005b34801561068357600080fd5b5061069e6004803603810190610699919061496e565b613cce565b6040516106ae94939291906155d5565b60405180910390f35b3480156106c357600080fd5b506106de60048036038101906106d9919061496e565b613e1e565b6040516106eb9190615522565b60405180910390f35b6106fc614174565b600260008363ffffffff1663ffffffff1681526020019081526020016000206040518060e00160405290816000820160009054906101000a900463ffffffff1663ffffffff1663ffffffff1681526020016000820160049054906101000a900473ffffffffffffffffffffffffffffffffffffffff1673ffffffffffffffffffffffffffffffffffffffff1673ffffffffffffffffffffffffffffffffffffffff1681526020016001820160009054906101000a900473ffffffffffffffffffffffffffffffffffffffff1673ffffffffffffffffffffffffffffffffffffffff1673ffffffffffffffffffffffffffffffffffffffff1681526020016001820160149054906101000a900463ffffffff1663ffffffff1663ffffffff1681526020016001820160189054906101000a900460ff166002811115610869577f4e487b7100000000000000000000000000000000000000000000000000000000600052602160045260246000fd5b60028111156108a1577f4e487b7100000000000000000000000000000000000000000000000000000000600052602160045260246000fd5b8152602001600282015481526020016003820180546108bf90615a8e565b80601f01602080910402602001604051908101604052809291908181526020018280546108eb90615a8e565b80156109385780601f1061090d57610100808354040283529160200191610938565b820191906000526020600020905b81548152906001019060200180831161091b57829003601f168201915b5050505050815250509050919050565b600560009054906101000a900473ffffffffffffffffffffffffffffffffffffffff1673ffffffffffffffffffffffffffffffffffffffff1663d1e47bb33360006040518363ffffffff1660e01b81526004016109a69291906152c4565b60206040518083038186803b1580156109be57600080fd5b505afa1580156109d2573d6000803e3d6000fd5b505050506040513d601f19601f820116820180604052508101906109f69190614904565b610a35576040517f08c379a0000000000000000000000000000000000000000000000000000000008152600401610a2c9061547c565b60405180910390fd5b60005b84518163ffffffff161015610cfb57600660009054906101000a900473ffffffffffffffffffffffffffffffffffffffff1673ffffffffffffffffffffffffffffffffffffffff166331686f416040518163ffffffff1660e01b815260040160206040518083038186803b158015610aaf57600080fd5b505afa158015610ac3573d6000803e3d6000fd5b505050506040513d601f19601f82011682018060405250810190610ae79190614997565b63ffffffff16858263ffffffff1681518110610b2c577f4e487b7100000000000000000000000000000000000000000000000000000000600052603260045260246000fd5b602002602001015163ffffffff161115610b7b576040517f08c379a0000000000000000000000000000000000000000000000000000000008152600401610b729061541c565b60405180910390fd5b6000600660009054906101000a900473ffffffffffffffffffffffffffffffffffffffff1673ffffffffffffffffffffffffffffffffffffffff1663421b3e08878463ffffffff1681518110610bfa577f4e487b7100000000000000000000000000000000000000000000000000000000600052603260045260246000fd5b60200260200101516040518263ffffffff1660e01b8152600401610c1e9190615544565b60006040518083038186803b158015610c3657600080fd5b505afa158015610c4a573d6000803e3d6000fd5b505050506040513d6000823e3d601f19601f82011682018060405250810190610c73919061492d565b90503373ffffffffffffffffffffffffffffffffffffffff16816020015173ffffffffffffffffffffffffffffffffffffffff1614610ce7576040517f08c379a0000000000000000000000000000000000000000000000000000000008152600401610cde906153fc565b60405180910390fd5b508080610cf390615ac0565b915050610a38565b506004600081819054906101000a900463ffffffff1680929190610d1e90615ac0565b91906101000a81548163ffffffff021916908363ffffffff16021790555050604051806101200160405280600460009054906101000a900463ffffffff1663ffffffff1681526020018581526020018463ffffffff1681526020018363ffffffff1681526020016000151581526020016040518060200160405280600081525081526020013373ffffffffffffffffffffffffffffffffffffffff16815260200160405180602001604052806000815250815260200182815250600080600460009054906101000a900463ffffffff1663ffffffff1663ffffffff16815260200190815260200160002060008201518160000160006101000a81548163ffffffff021916908363ffffffff1602179055506020820151816001019080519060200190610e4b929190614221565b5060408201518160020160006101000a81548163ffffffff021916908363ffffffff16021790555060608201518160020160046101000a81548163ffffffff021916908363ffffffff16021790555060808201518160020160086101000a81548160ff02191690831515021790555060a0820151816003019080519060200190610ed69291906142d1565b5060c08201518160040160006101000a81548173ffffffffffffffffffffffffffffffffffffffff021916908373ffffffffffffffffffffffffffffffffffffffff16021790555060e0820151816005019080519060200190610f3a9291906142d1565b50610100820151816006019080519060200190610f589291906142d1565b5090505050505050565b610f6a614357565b600360008363ffffffff1663ffffffff1681526020019081526020016000206040518060800160405290816000820160009054906101000a900463ffffffff1663ffffffff1663ffffffff168152602001600182018054610fca90615a8e565b80601f0160208091040260200160405190810160405280929190818152602001828054610ff690615a8e565b80156110435780601f1061101857610100808354040283529160200191611043565b820191906000526020600020905b81548152906001019060200180831161102657829003601f168201915b505050505081526020016002820154815260200160038201805461106690615a8e565b80601f016020809104026020016040519081016040528092919081815260200182805461109290615a8e565b80156110df5780601f106110b4576101008083540402835291602001916110df565b820191906000526020600020905b8154815290600101906020018083116110c257829003601f168201915b5050505050815250509050919050565b600060048054906101000a900463ffffffff16905090565b80600660006101000a81548173ffffffffffffffffffffffffffffffffffffffff021916908373ffffffffffffffffffffffffffffffffffffffff16021790555050565b600560009054906101000a900473ffffffffffffffffffffffffffffffffffffffff1673ffffffffffffffffffffffffffffffffffffffff1663d1e47bb33360036040518363ffffffff1660e01b81526004016111a99291906152c4565b60206040518083038186803b1580156111c157600080fd5b505afa1580156111d5573d6000803e3d6000fd5b505050506040513d601f19601f820116820180604052508101906111f99190614904565b611238576040517f08c379a000000000000000000000000000000000000000000000000000000000815260040161122f906153dc565b60405180910390fd5b81600460009054906101000a900463ffffffff1663ffffffff168163ffffffff16111561129a576040517f08c379a00000000000000000000000000000000000000000000000000000000081526004016112919061543c565b60405180910390fd5b60008060008563ffffffff1663ffffffff168152602001908152602001600020604051806101200160405290816000820160009054906101000a900463ffffffff1663ffffffff1663ffffffff1681526020016001820180548060200260200160405190810160405280929190818152602001828054801561136757602002820191906000526020600020906000905b82829054906101000a900463ffffffff1663ffffffff168152602001906004019060208260030104928301926001038202915080841161132a5790505b505050505081526020016002820160009054906101000a900463ffffffff1663ffffffff1663ffffffff1681526020016002820160049054906101000a900463ffffffff1663ffffffff1663ffffffff1681526020016002820160089054906101000a900460ff161515151581526020016003820180546113e790615a8e565b80601f016020809104026020016040519081016040528092919081815260200182805461141390615a8e565b80156114605780601f1061143557610100808354040283529160200191611460565b820191906000526020600020905b81548152906001019060200180831161144357829003601f168201915b505050505081526020016004820160009054906101000a900473ffffffffffffffffffffffffffffffffffffffff1673ffffffffffffffffffffffffffffffffffffffff1673ffffffffffffffffffffffffffffffffffffffff1681526020016005820180546114cf90615a8e565b80601f01602080910402602001604051908101604052809291908181526020018280546114fb90615a8e565b80156115485780601f1061151d57610100808354040283529160200191611548565b820191906000526020600020905b81548152906001019060200180831161152b57829003601f168201915b5050505050815260200160068201805461156190615a8e565b80601f016020809104026020016040519081016040528092919081815260200182805461158d90615a8e565b80156115da5780601f106115af576101008083540402835291602001916115da565b820191906000526020600020905b8154815290600101906020018083116115bd57829003601f168201915b505050505081525050905080608001516115f357600080fd5b806040015163ffffffff168363ffffffff16111561161057600080fd5b826000808663ffffffff1663ffffffff16815260200190815260200160002060020160008282829054906101000a900463ffffffff1661165091906158e4565b92506101000a81548163ffffffff021916908363ffffffff16021790555060048081819054906101000a900463ffffffff168092919061168f90615ac0565b91906101000a81548163ffffffff021916908363ffffffff1602179055505060008382606001516116c091906158a6565b905060405180610180016040528060048054906101000a900463ffffffff1663ffffffff1681526020018663ffffffff1681526020018563ffffffff1681526020018263ffffffff16815260200160001515815260200160006001811115611751577f4e487b7100000000000000000000000000000000000000000000000000000000600052602160045260246000fd5b81526020018360c0015173ffffffffffffffffffffffffffffffffffffffff1681526020013373ffffffffffffffffffffffffffffffffffffffff168152602001600060028111156117cc577f4e487b7100000000000000000000000000000000000000000000000000000000600052602160045260246000fd5b8152602001604051806020016040528060008152508152602001600115158152602001600073ffffffffffffffffffffffffffffffffffffffff168152506001600060048054906101000a900463ffffffff1663ffffffff1663ffffffff16815260200190815260200160002060008201518160000160006101000a81548163ffffffff021916908363ffffffff16021790555060208201518160000160046101000a81548163ffffffff021916908363ffffffff16021790555060408201518160000160086101000a81548163ffffffff021916908363ffffffff160217905550606082015181600001600c6101000a81548163ffffffff021916908363ffffffff16021790555060808201518160000160106101000a81548160ff02191690831515021790555060a08201518160000160116101000a81548160ff02191690836001811115611946577f4e487b7100000000000000000000000000000000000000000000000000000000600052602160045260246000fd5b021790555060c08201518160010160006101000a81548173ffffffffffffffffffffffffffffffffffffffff021916908373ffffffffffffffffffffffffffffffffffffffff16021790555060e08201518160020160006101000a81548173ffffffffffffffffffffffffffffffffffffffff021916908373ffffffffffffffffffffffffffffffffffffffff1602179055506101008201518160020160146101000a81548160ff02191690836002811115611a2b577f4e487b7100000000000000000000000000000000000000000000000000000000600052602160045260246000fd5b0217905550610120820151816003019080519060200190611a4d9291906142d1565b506101408201518160040160006101000a81548160ff0219169083151502179055506101608201518160040160016101000a81548173ffffffffffffffffffffffffffffffffffffffff021916908373ffffffffffffffffffffffffffffffffffffffff1602179055509050505050505050565b80600560006101000a81548173ffffffffffffffffffffffffffffffffffffffff021916908373ffffffffffffffffffffffffffffffffffffffff16021790555050565b60048054906101000a900463ffffffff1681565b600660009054906101000a900473ffffffffffffffffffffffffffffffffffffffff1681565b611b47614385565b600160008363ffffffff1663ffffffff168152602001908152602001600020604051806101800160405290816000820160009054906101000a900463ffffffff1663ffffffff1663ffffffff1681526020016000820160049054906101000a900463ffffffff1663ffffffff1663ffffffff1681526020016000820160089054906101000a900463ffffffff1663ffffffff1663ffffffff16815260200160008201600c9054906101000a900463ffffffff1663ffffffff1663ffffffff1681526020016000820160109054906101000a900460ff161515151581526020016000820160119054906101000a900460ff166001811115611c70577f4e487b7100000000000000000000000000000000000000000000000000000000600052602160045260246000fd5b6001811115611ca8577f4e487b7100000000000000000000000000000000000000000000000000000000600052602160045260246000fd5b81526020016001820160009054906101000a900473ffffffffffffffffffffffffffffffffffffffff1673ffffffffffffffffffffffffffffffffffffffff1673ffffffffffffffffffffffffffffffffffffffff1681526020016002820160009054906101000a900473ffffffffffffffffffffffffffffffffffffffff1673ffffffffffffffffffffffffffffffffffffffff1673ffffffffffffffffffffffffffffffffffffffff1681526020016002820160149054906101000a900460ff166002811115611da3577f4e487b7100000000000000000000000000000000000000000000000000000000600052602160045260246000fd5b6002811115611ddb577f4e487b7100000000000000000000000000000000000000000000000000000000600052602160045260246000fd5b8152602001600382018054611def90615a8e565b80601f0160208091040260200160405190810160405280929190818152602001828054611e1b90615a8e565b8015611e685780601f10611e3d57610100808354040283529160200191611e68565b820191906000526020600020905b815481529060010190602001808311611e4b57829003601f168201915b505050505081526020016004820160009054906101000a900460ff161515151581526020016004820160019054906101000a900473ffffffffffffffffffffffffffffffffffffffff1673ffffffffffffffffffffffffffffffffffffffff1673ffffffffffffffffffffffffffffffffffffffff16815250509050919050565b81600460009054906101000a900463ffffffff1663ffffffff168163ffffffff161115611f4b576040517f08c379a0000000000000000000000000000000000000000000000000000000008152600401611f429061543c565b60405180910390fd5b816000808563ffffffff1663ffffffff1681526020019081526020016000206005019080519060200190611f809291906142d1565b50505050565b60016020528060005260406000206000915090508060000160009054906101000a900463ffffffff16908060000160049054906101000a900463ffffffff16908060000160089054906101000a900463ffffffff169080600001600c9054906101000a900463ffffffff16908060000160109054906101000a900460ff16908060000160119054906101000a900460ff16908060010160009054906101000a900473ffffffffffffffffffffffffffffffffffffffff16908060020160009054906101000a900473ffffffffffffffffffffffffffffffffffffffff16908060020160149054906101000a900460ff169080600301805461208690615a8e565b80601f01602080910402602001604051908101604052809291908181526020018280546120b290615a8e565b80156120ff5780601f106120d4576101008083540402835291602001916120ff565b820191906000526020600020905b8154815290600101906020018083116120e257829003601f168201915b5050505050908060040160009054906101000a900460ff16908060040160019054906101000a900473ffffffffffffffffffffffffffffffffffffffff1690508c565b60026020528060005260406000206000915090508060000160009054906101000a900463ffffffff16908060000160049054906101000a900473ffffffffffffffffffffffffffffffffffffffff16908060010160009054906101000a900473ffffffffffffffffffffffffffffffffffffffff16908060010160149054906101000a900463ffffffff16908060010160189054906101000a900460ff16908060020154908060030180546121f690615a8e565b80601f016020809104026020016040519081016040528092919081815260200182805461222290615a8e565b801561226f5780601f106122445761010080835404028352916020019161226f565b820191906000526020600020905b81548152906001019060200180831161225257829003601f168201915b5050505050905087565b600560009054906101000a900473ffffffffffffffffffffffffffffffffffffffff1673ffffffffffffffffffffffffffffffffffffffff1663d1e47bb33360036040518363ffffffff1660e01b81526004016122d79291906152c4565b60206040518083038186803b1580156122ef57600080fd5b505afa158015612303573d6000803e3d6000fd5b505050506040513d601f19601f820116820180604052508101906123279190614904565b612366576040517f08c379a000000000000000000000000000000000000000000000000000000000815260040161235d906153dc565b60405180910390fd5b8260048054906101000a900463ffffffff1663ffffffff168163ffffffff1611156123c6576040517f08c379a00000000000000000000000000000000000000000000000000000000081526004016123bd9061539c565b60405180910390fd5b6000600160008663ffffffff1663ffffffff168152602001908152602001600020604051806101800160405290816000820160009054906101000a900463ffffffff1663ffffffff1663ffffffff1681526020016000820160049054906101000a900463ffffffff1663ffffffff1663ffffffff1681526020016000820160089054906101000a900463ffffffff1663ffffffff1663ffffffff16815260200160008201600c9054906101000a900463ffffffff1663ffffffff1663ffffffff1681526020016000820160109054906101000a900460ff161515151581526020016000820160119054906101000a900460ff1660018111156124f1577f4e487b7100000000000000000000000000000000000000000000000000000000600052602160045260246000fd5b6001811115612529577f4e487b7100000000000000000000000000000000000000000000000000000000600052602160045260246000fd5b81526020016001820160009054906101000a900473ffffffffffffffffffffffffffffffffffffffff1673ffffffffffffffffffffffffffffffffffffffff1673ffffffffffffffffffffffffffffffffffffffff1681526020016002820160009054906101000a900473ffffffffffffffffffffffffffffffffffffffff1673ffffffffffffffffffffffffffffffffffffffff1673ffffffffffffffffffffffffffffffffffffffff1681526020016002820160149054906101000a900460ff166002811115612624577f4e487b7100000000000000000000000000000000000000000000000000000000600052602160045260246000fd5b600281111561265c577f4e487b7100000000000000000000000000000000000000000000000000000000600052602160045260246000fd5b815260200160038201805461267090615a8e565b80601f016020809104026020016040519081016040528092919081815260200182805461269c90615a8e565b80156126e95780601f106126be576101008083540402835291602001916126e9565b820191906000526020600020905b8154815290600101906020018083116126cc57829003601f168201915b505050505081526020016004820160009054906101000a900460ff161515151581526020016004820160019054906101000a900473ffffffffffffffffffffffffffffffffffffffff1673ffffffffffffffffffffffffffffffffffffffff1673ffffffffffffffffffffffffffffffffffffffff1681525050905080608001511561277457600080fd5b806060015163ffffffff168463ffffffff161461279057600080fd5b600160028111156127ca577f4e487b7100000000000000000000000000000000000000000000000000000000600052602160045260246000fd5b8161010001516002811115612808577f4e487b7100000000000000000000000000000000000000000000000000000000600052602160045260246000fd5b1461281257600080fd5b600460089054906101000a900473ffffffffffffffffffffffffffffffffffffffff1673ffffffffffffffffffffffffffffffffffffffff1663c1f73cfa82602001518360400151336040518463ffffffff1660e01b815260040161287993929190615628565b600060405180830381600087803b15801561289357600080fd5b505af11580156128a7573d6000803e3d6000fd5b5050505060018060008763ffffffff1663ffffffff16815260200190815260200160002060000160106101000a81548160ff0219169083151502179055506040518060e001604052808663ffffffff1681526020013373ffffffffffffffffffffffffffffffffffffffff1681526020018260c0015173ffffffffffffffffffffffffffffffffffffffff1681526020018563ffffffff16815260200184600281111561297d577f4e487b7100000000000000000000000000000000000000000000000000000000600052602160045260246000fd5b815260200142815260200160405180602001604052806000815250815250600260008763ffffffff1663ffffffff16815260200190815260200160002060008201518160000160006101000a81548163ffffffff021916908363ffffffff16021790555060208201518160000160046101000a81548173ffffffffffffffffffffffffffffffffffffffff021916908373ffffffffffffffffffffffffffffffffffffffff16021790555060408201518160010160006101000a81548173ffffffffffffffffffffffffffffffffffffffff021916908373ffffffffffffffffffffffffffffffffffffffff16021790555060608201518160010160146101000a81548163ffffffff021916908363ffffffff16021790555060808201518160010160186101000a81548160ff02191690836002811115612ae7577f4e487b7100000000000000000000000000000000000000000000000000000000600052602160045260246000fd5b021790555060a0820151816002015560c0820151816003019080519060200190612b129291906142d1565b509050505050505050565b600560009054906101000a900473ffffffffffffffffffffffffffffffffffffffff1673ffffffffffffffffffffffffffffffffffffffff1663d1e47bb33360036040518363ffffffff1660e01b8152600401612b7b9291906152c4565b60206040518083038186803b158015612b9357600080fd5b505afa158015612ba7573d6000803e3d6000fd5b505050506040513d601f19601f82011682018060405250810190612bcb9190614904565b612c0a576040517f08c379a0000000000000000000000000000000000000000000000000000000008152600401612c01906153dc565b60405180910390fd5b8160048054906101000a900463ffffffff1663ffffffff168163ffffffff161115612c6a576040517f08c379a0000000000000000000000000000000000000000000000000000000008152600401612c619061539c565b60405180910390fd5b600180811115612ca3577f4e487b7100000000000000000000000000000000000000000000000000000000600052602160045260246000fd5b600160008563ffffffff1663ffffffff16815260200190815260200160002060000160119054906101000a900460ff166001811115612d0b577f4e487b7100000000000000000000000000000000000000000000000000000000600052602160045260246000fd5b14612d1557600080fd5b60006002811115612d4f577f4e487b7100000000000000000000000000000000000000000000000000000000600052602160045260246000fd5b600160008563ffffffff1663ffffffff16815260200190815260200160002060020160149054906101000a900460ff166002811115612db7577f4e487b7100000000000000000000000000000000000000000000000000000000600052602160045260246000fd5b14612dc157600080fd5b8115612e3c5760018060008563ffffffff1663ffffffff16815260200190815260200160002060020160146101000a81548160ff02191690836002811115612e32577f4e487b7100000000000000000000000000000000000000000000000000000000600052602160045260246000fd5b0217905550612eae565b6002600160008563ffffffff1663ffffffff16815260200190815260200160002060020160146101000a81548160ff02191690836002811115612ea8577f4e487b7100000000000000000000000000000000000000000000000000000000600052602160045260246000fd5b02179055505b8263ffffffff167f1df7b2ecf94baf358d5ffc6f43b2769c0b74ac06ff426c80d5eb4106388cb5de83604051612ee491906152ed565b60405180910390a2505050565b600560009054906101000a900473ffffffffffffffffffffffffffffffffffffffff1673ffffffffffffffffffffffffffffffffffffffff1663d1e47bb33360056040518363ffffffff1660e01b8152600401612f4f9291906152c4565b60206040518083038186803b158015612f6757600080fd5b505afa158015612f7b573d6000803e3d6000fd5b505050506040513d601f19601f82011682018060405250810190612f9f9190614904565b612fde576040517f08c379a0000000000000000000000000000000000000000000000000000000008152600401612fd5906153bc565b60405180910390fd5b8160048054906101000a900463ffffffff1663ffffffff168163ffffffff16111561303e576040517f08c379a00000000000000000000000000000000000000000000000000000000081526004016130359061539c565b60405180910390fd5b823373ffffffffffffffffffffffffffffffffffffffff16600160008363ffffffff1663ffffffff16815260200190815260200160002060040160019054906101000a900473ffffffffffffffffffffffffffffffffffffffff1673ffffffffffffffffffffffffffffffffffffffff16146130b957600080fd5b82600160008663ffffffff1663ffffffff16815260200190815260200160002060000160116101000a81548160ff02191690836001811115613124577f4e487b7100000000000000000000000000000000000000000000000000000000600052602160045260246000fd5b021790555050505050565b600560009054906101000a900473ffffffffffffffffffffffffffffffffffffffff1673ffffffffffffffffffffffffffffffffffffffff1663d1e47bb33360026040518363ffffffff1660e01b815260040161318d9291906152c4565b60206040518083038186803b1580156131a557600080fd5b505afa1580156131b9573d6000803e3d6000fd5b505050506040513d601f19601f820116820180604052508101906131dd9190614904565b61321c576040517f08c379a00000000000000000000000000000000000000000000000000000000081526004016132139061537c565b60405180910390fd5b81600460009054906101000a900463ffffffff1663ffffffff168163ffffffff16111561327e576040517f08c379a00000000000000000000000000000000000000000000000000000000081526004016132759061543c565b60405180910390fd5b6000825114156132c3576040517f08c379a00000000000000000000000000000000000000000000000000000000081526004016132ba9061545c565b60405180910390fd5b60016000808563ffffffff1663ffffffff16815260200190815260200160002060020160086101000a81548160ff021916908315150217905550816000808563ffffffff1663ffffffff16815260200190815260200160002060030190805190602001906133329291906142d1565b50505050565b600560009054906101000a900473ffffffffffffffffffffffffffffffffffffffff1681565b60006020528060005260406000206000915090508060000160009054906101000a900463ffffffff16908060020160009054906101000a900463ffffffff16908060020160049054906101000a900463ffffffff16908060020160089054906101000a900460ff16908060030180546133d690615a8e565b80601f016020809104026020016040519081016040528092919081815260200182805461340290615a8e565b801561344f5780601f106134245761010080835404028352916020019161344f565b820191906000526020600020905b81548152906001019060200180831161343257829003601f168201915b5050505050908060040160009054906101000a900473ffffffffffffffffffffffffffffffffffffffff169080600501805461348a90615a8e565b80601f01602080910402602001604051908101604052809291908181526020018280546134b690615a8e565b80156135035780601f106134d857610100808354040283529160200191613503565b820191906000526020600020905b8154815290600101906020018083116134e657829003601f168201915b50505050509080600601805461351890615a8e565b80601f016020809104026020016040519081016040528092919081815260200182805461354490615a8e565b80156135915780601f1061356657610100808354040283529160200191613591565b820191906000526020600020905b81548152906001019060200180831161357457829003601f168201915b5050505050905088565b600560009054906101000a900473ffffffffffffffffffffffffffffffffffffffff1673ffffffffffffffffffffffffffffffffffffffff1663d1e47bb33360036040518363ffffffff1660e01b81526004016135f99291906152c4565b60206040518083038186803b15801561361157600080fd5b505afa158015613625573d6000803e3d6000fd5b505050506040513d601f19601f820116820180604052508101906136499190614904565b613688576040517f08c379a000000000000000000000000000000000000000000000000000000000815260040161367f906153dc565b60405180910390fd5b8160048054906101000a900463ffffffff1663ffffffff168163ffffffff1611156136e8576040517f08c379a00000000000000000000000000000000000000000000000000000000081526004016136df9061539c565b60405180910390fd5b3373ffffffffffffffffffffffffffffffffffffffff16600160008563ffffffff1663ffffffff16815260200190815260200160002060020160009054906101000a900473ffffffffffffffffffffffffffffffffffffffff1673ffffffffffffffffffffffffffffffffffffffff161461376257600080fd5b81600160008563ffffffff1663ffffffff16815260200190815260200160002060040160016101000a81548173ffffffffffffffffffffffffffffffffffffffff021916908373ffffffffffffffffffffffffffffffffffffffff160217905550505050565b600060048054906101000a900463ffffffff16905090565b600460009054906101000a900463ffffffff1681565b6000600460009054906101000a900463ffffffff16905090565b80600460086101000a81548173ffffffffffffffffffffffffffffffffffffffff021916908373ffffffffffffffffffffffffffffffffffffffff16021790555050565b600560009054906101000a900473ffffffffffffffffffffffffffffffffffffffff1673ffffffffffffffffffffffffffffffffffffffff1663d1e47bb33360056040518363ffffffff1660e01b81526004016138b29291906152c4565b60206040518083038186803b1580156138ca57600080fd5b505afa1580156138de573d6000803e3d6000fd5b505050506040513d601f19601f820116820180604052508101906139029190614904565b613941576040517f08c379a0000000000000000000000000000000000000000000000000000000008152600401613938906153bc565b60405180910390fd5b8160048054906101000a900463ffffffff1663ffffffff168163ffffffff1611156139a1576040517f08c379a00000000000000000000000000000000000000000000000000000000081526004016139989061539c565b60405180910390fd5b823373ffffffffffffffffffffffffffffffffffffffff16600160008363ffffffff1663ffffffff16815260200190815260200160002060040160019054906101000a900473ffffffffffffffffffffffffffffffffffffffff1673ffffffffffffffffffffffffffffffffffffffff1614613a1c57600080fd5b600160008563ffffffff1663ffffffff16815260200190815260200160002060040160009054906101000a900460ff1615613a5657600080fd5b60018060008663ffffffff1663ffffffff16815260200190815260200160002060040160006101000a81548160ff02191690831515021790555060405180608001604052808563ffffffff16815260200184815260200142815260200160405180602001604052806000815250815250600360008663ffffffff1663ffffffff16815260200190815260200160002060008201518160000160006101000a81548163ffffffff021916908363ffffffff1602179055506020820151816001019080519060200190613b289291906142d1565b50604082015181600201556060820151816003019080519060200190613b4f9291906142d1565b509050508363ffffffff167fbcbce0994790c925173de558389c26cc831b555df7ed8b14077b3811069cec57844233604051613b8d9392919061533e565b60405180910390a250505050565b600660149054906101000a900460ff1615613beb576040517f08c379a0000000000000000000000000000000000000000000000000000000008152600401613be29061549c565b60405180910390fd5b82600460086101000a81548173ffffffffffffffffffffffffffffffffffffffff021916908373ffffffffffffffffffffffffffffffffffffffff16021790555081600560006101000a81548173ffffffffffffffffffffffffffffffffffffffff021916908373ffffffffffffffffffffffffffffffffffffffff16021790555080600660006101000a81548173ffffffffffffffffffffffffffffffffffffffff021916908373ffffffffffffffffffffffffffffffffffffffff1602179055506001600660146101000a81548160ff021916908315150217905550505050565b60036020528060005260406000206000915090508060000160009054906101000a900463ffffffff1690806001018054613d0790615a8e565b80601f0160208091040260200160405190810160405280929190818152602001828054613d3390615a8e565b8015613d805780601f10613d5557610100808354040283529160200191613d80565b820191906000526020600020905b815481529060010190602001808311613d6357829003601f168201915b505050505090806002015490806003018054613d9b90615a8e565b80601f0160208091040260200160405190810160405280929190818152602001828054613dc790615a8e565b8015613e145780601f10613de957610100808354040283529160200191613e14565b820191906000526020600020905b815481529060010190602001808311613df757829003601f168201915b5050505050905084565b613e266144b4565b6000808363ffffffff1663ffffffff168152602001908152602001600020604051806101200160405290816000820160009054906101000a900463ffffffff1663ffffffff1663ffffffff16815260200160018201805480602002602001604051908101604052809291908181526020018280548015613ef157602002820191906000526020600020906000905b82829054906101000a900463ffffffff1663ffffffff1681526020019060040190602082600301049283019260010382029150808411613eb45790505b505050505081526020016002820160009054906101000a900463ffffffff1663ffffffff1663ffffffff1681526020016002820160049054906101000a900463ffffffff1663ffffffff1663ffffffff1681526020016002820160089054906101000a900460ff16151515158152602001600382018054613f7190615a8e565b80601f0160208091040260200160405190810160405280929190818152602001828054613f9d90615a8e565b8015613fea5780601f10613fbf57610100808354040283529160200191613fea565b820191906000526020600020905b815481529060010190602001808311613fcd57829003601f168201915b505050505081526020016004820160009054906101000a900473ffffffffffffffffffffffffffffffffffffffff1673ffffffffffffffffffffffffffffffffffffffff1673ffffffffffffffffffffffffffffffffffffffff16815260200160058201805461405990615a8e565b80601f016020809104026020016040519081016040528092919081815260200182805461408590615a8e565b80156140d25780601f106140a7576101008083540402835291602001916140d2565b820191906000526020600020905b8154815290600101906020018083116140b557829003601f168201915b505050505081526020016006820180546140eb90615a8e565b80601f016020809104026020016040519081016040528092919081815260200182805461411790615a8e565b80156141645780601f1061413957610100808354040283529160200191614164565b820191906000526020600020905b81548152906001019060200180831161414757829003601f168201915b5050505050815250509050919050565b6040518060e00160405280600063ffffffff168152602001600073ffffffffffffffffffffffffffffffffffffffff168152602001600073ffffffffffffffffffffffffffffffffffffffff168152602001600063ffffffff1681526020016000600281111561420d577f4e487b7100000000000000000000000000000000000000000000000000000000600052602160045260246000fd5b815260200160008152602001606081525090565b828054828255906000526020600020906007016008900481019282156142c05791602002820160005b8382111561428e57835183826101000a81548163ffffffff021916908363ffffffff160217905550926020019260040160208160030104928301926001030261424a565b80156142be5782816101000a81549063ffffffff021916905560040160208160030104928301926001030261428e565b505b5090506142cd919061452a565b5090565b8280546142dd90615a8e565b90600052602060002090601f0160209004810192826142ff5760008555614346565b82601f1061431857805160ff1916838001178555614346565b82800160010185558215614346579182015b8281111561434557825182559160200191906001019061432a565b5b509050614353919061452a565b5090565b6040518060800160405280600063ffffffff1681526020016060815260200160008152602001606081525090565b604051806101800160405280600063ffffffff168152602001600063ffffffff168152602001600063ffffffff168152602001600063ffffffff16815260200160001515815260200160006001811115614408577f4e487b7100000000000000000000000000000000000000000000000000000000600052602160045260246000fd5b8152602001600073ffffffffffffffffffffffffffffffffffffffff168152602001600073ffffffffffffffffffffffffffffffffffffffff16815260200160006002811115614481577f4e487b7100000000000000000000000000000000000000000000000000000000600052602160045260246000fd5b815260200160608152602001600015158152602001600073ffffffffffffffffffffffffffffffffffffffff1681525090565b604051806101200160405280600063ffffffff16815260200160608152602001600063ffffffff168152602001600063ffffffff16815260200160001515815260200160608152602001600073ffffffffffffffffffffffffffffffffffffffff16815260200160608152602001606081525090565b5b8082111561454357600081600090555060010161452b565b5090565b600061455a614555846157e4565b6157b3565b9050808382526020820190508285602086028201111561457957600080fd5b60005b858110156145a9578161458f88826147cf565b84526020840193506020830192505060018101905061457c565b5050509392505050565b60006145c66145c184615810565b6157b3565b9050828152602081018484840111156145de57600080fd5b6145e9848285615a4c565b509392505050565b60006146046145ff84615810565b6157b3565b90508281526020810184848401111561461c57600080fd5b614627848285615a5b565b509392505050565b60008135905061463e81615c0a565b92915050565b60008151905061465381615c0a565b92915050565b600082601f83011261466a57600080fd5b813561467a848260208601614547565b91505092915050565b60008135905061469281615c21565b92915050565b6000815190506146a781615c21565b92915050565b6000813590506146bc81615c38565b92915050565b6000813590506146d181615c48565b92915050565b600082601f8301126146e857600080fd5b81356146f88482602086016145b3565b91505092915050565b600082601f83011261471257600080fd5b81516147228482602086016145f1565b91505092915050565b60006080828403121561473d57600080fd5b61474760806157b3565b90506000614757848285016147e4565b600083015250602061476b84828501614644565b602083015250604082015167ffffffffffffffff81111561478b57600080fd5b61479784828501614701565b604083015250606082015167ffffffffffffffff8111156147b757600080fd5b6147c384828501614701565b60608301525092915050565b6000813590506147de81615c58565b92915050565b6000815190506147f381615c58565b92915050565b60006020828403121561480b57600080fd5b60006148198482850161462f565b91505092915050565b60008060006060848603121561483757600080fd5b60006148458682870161462f565b93505060206148568682870161462f565b92505060406148678682870161462f565b9150509250925092565b6000806000806080858703121561488757600080fd5b600085013567ffffffffffffffff8111156148a157600080fd5b6148ad87828801614659565b94505060206148be878288016147cf565b93505060406148cf878288016147cf565b925050606085013567ffffffffffffffff8111156148ec57600080fd5b6148f8878288016146d7565b91505092959194509250565b60006020828403121561491657600080fd5b600061492484828501614698565b91505092915050565b60006020828403121561493f57600080fd5b600082015167ffffffffffffffff81111561495957600080fd5b6149658482850161472b565b91505092915050565b60006020828403121561498057600080fd5b600061498e848285016147cf565b91505092915050565b6000602082840312156149a957600080fd5b60006149b7848285016147e4565b91505092915050565b600080604083850312156149d357600080fd5b60006149e1858286016147cf565b92505060206149f28582860161462f565b9150509250929050565b60008060408385031215614a0f57600080fd5b6000614a1d858286016147cf565b9250506020614a2e85828601614683565b9150509250929050565b60008060408385031215614a4b57600080fd5b6000614a59858286016147cf565b9250506020614a6a858286016146c2565b9150509250929050565b60008060408385031215614a8757600080fd5b6000614a95858286016147cf565b925050602083013567ffffffffffffffff811115614ab257600080fd5b614abe858286016146d7565b9150509250929050565b60008060408385031215614adb57600080fd5b6000614ae9858286016147cf565b9250506020614afa858286016147cf565b9150509250929050565b600080600060608486031215614b1957600080fd5b6000614b27868287016147cf565b9350506020614b38868287016147cf565b9250506040614b49868287016146ad565b9150509250925092565b6000614b5f83836152a6565b60208301905092915050565b614b7481615918565b82525050565b614b8381615918565b82525050565b6000614b9482615850565b614b9e8185615873565b9350614ba983615840565b8060005b83811015614bda578151614bc18882614b53565b9750614bcc83615866565b925050600181019050614bad565b5085935050505092915050565b614bf08161592a565b82525050565b614bff8161592a565b82525050565b614c0e816159bc565b82525050565b614c1d816159e0565b82525050565b614c2c81615a04565b82525050565b614c3b81615a04565b82525050565b614c4a81615a16565b82525050565b614c5981615a28565b82525050565b614c6881615a28565b82525050565b614c7781615a3a565b82525050565b614c8681615a3a565b82525050565b6000614c978261585b565b614ca18185615884565b9350614cb1818560208601615a5b565b614cba81615ba9565b840191505092915050565b6000614cd08261585b565b614cda8185615895565b9350614cea818560208601615a5b565b614cf381615ba9565b840191505092915050565b6000614d0b601783615895565b91507f7365756c656d656e7420436572746966696361746575720000000000000000006000830152602082019050919050565b6000614d4b601583615895565b91507f436f6d6d616e6465206e6f6e206578697374616e7400000000000000000000006000830152602082019050919050565b6000614d8b601683615895565b91507f7365756c656d656e74205472616e73706f7274657572000000000000000000006000830152602082019050919050565b6000614dcb601483615895565b91507f7365756c656d656e7420436f6c6c6563746575720000000000000000000000006000830152602082019050919050565b6000614e0b602883615895565b91507f566f7573206e27657374207061732070726f707269657461697265206475207060008301527f617263656c6c652e0000000000000000000000000000000000000000000000006020830152604082019050919050565b6000614e71601683615895565b91507f50617263656c6c65206e6f6e206578697374616e742e000000000000000000006000830152602082019050919050565b6000614eb1601483615895565b91507f5265636f6c7465206e6f6e206578697374616e740000000000000000000000006000830152602082019050919050565b6000614ef1600f83615895565b91507f43657274696669636174207669646500000000000000000000000000000000006000830152602082019050919050565b6000614f31601483615895565b91507f7365756c656d656e742050726f647563746575720000000000000000000000006000830152602082019050919050565b6000614f71601a83615895565b91507f436f6e747261742064656a6120696e697469616c6973657220210000000000006000830152602082019050919050565b600061018083016000830151614fbd60008601826152a6565b506020830151614fd060208601826152a6565b506040830151614fe360408601826152a6565b506060830151614ff660608601826152a6565b5060808301516150096080860182614be7565b5060a083015161501c60a0860182614c6e565b5060c083015161502f60c0860182614b6b565b5060e083015161504260e0860182614b6b565b50610100830151615057610100860182614c50565b506101208301518482036101208601526150718282614c8c565b915050610140830151615088610140860182614be7565b5061016083015161509d610160860182614b6b565b508091505092915050565b60006080830160008301516150c060008601826152a6565b50602083015184820360208601526150d88282614c8c565b91505060408301516150ed6040860182615288565b50606083015184820360608601526151058282614c8c565b9150508091505092915050565b600060e08301600083015161512a60008601826152a6565b50602083015161513d6020860182614b6b565b5060408301516151506040860182614b6b565b50606083015161516360608601826152a6565b5060808301516151766080860182614c23565b5060a083015161518960a0860182615288565b5060c083015184820360c08601526151a18282614c8c565b9150508091505092915050565b6000610120830160008301516151c760008601826152a6565b50602083015184820360208601526151df8282614b89565b91505060408301516151f460408601826152a6565b50606083015161520760608601826152a6565b50608083015161521a6080860182614be7565b5060a083015184820360a08601526152328282614c8c565b91505060c083015161524760c0860182614b6b565b5060e083015184820360e086015261525f8282614c8c565b91505061010083015184820361010086015261527b8282614c8c565b9150508091505092915050565b615291816159a2565b82525050565b6152a0816159a2565b82525050565b6152af816159ac565b82525050565b6152be816159ac565b82525050565b60006040820190506152d96000830185614b7a565b6152e66020830184614c41565b9392505050565b60006020820190506153026000830184614bf6565b92915050565b600060208201905061531d6000830184614c05565b92915050565b60006020820190506153386000830184614c14565b92915050565b600060608201905081810360008301526153588186614cc5565b90506153676020830185615297565b6153746040830184614b7a565b949350505050565b6000602082019050818103600083015261539581614cfe565b9050919050565b600060208201905081810360008301526153b581614d3e565b9050919050565b600060208201905081810360008301526153d581614d7e565b9050919050565b600060208201905081810360008301526153f581614dbe565b9050919050565b6000602082019050818103600083015261541581614dfe565b9050919050565b6000602082019050818103600083015261543581614e64565b9050919050565b6000602082019050818103600083015261545581614ea4565b9050919050565b6000602082019050818103600083015261547581614ee4565b9050919050565b6000602082019050818103600083015261549581614f24565b9050919050565b600060208201905081810360008301526154b581614f64565b9050919050565b600060208201905081810360008301526154d68184614fa4565b905092915050565b600060208201905081810360008301526154f881846150a8565b905092915050565b6000602082019050818103600083015261551a8184615112565b905092915050565b6000602082019050818103600083015261553c81846151ae565b905092915050565b600060208201905061555960008301846152b5565b92915050565b600060e082019050615574600083018a6152b5565b6155816020830189614b7a565b61558e6040830188614b7a565b61559b60608301876152b5565b6155a86080830186614c32565b6155b560a0830185615297565b81810360c08301526155c78184614cc5565b905098975050505050505050565b60006080820190506155ea60008301876152b5565b81810360208301526155fc8186614cc5565b905061560b6040830185615297565b818103606083015261561d8184614cc5565b905095945050505050565b600060608201905061563d60008301866152b5565b61564a60208301856152b5565b6156576040830184614b7a565b949350505050565b600061010082019050615675600083018b6152b5565b615682602083018a6152b5565b61568f60408301896152b5565b61569c6060830188614bf6565b81810360808301526156ae8187614cc5565b90506156bd60a0830186614b7a565b81810360c08301526156cf8185614cc5565b905081810360e08301526156e38184614cc5565b90509998505050505050505050565b600061018082019050615708600083018f6152b5565b615715602083018e6152b5565b615722604083018d6152b5565b61572f606083018c6152b5565b61573c608083018b614bf6565b61574960a083018a614c7d565b61575660c0830189614b7a565b61576360e0830188614b7a565b615771610100830187614c5f565b8181036101208301526157848186614cc5565b9050615794610140830185614bf6565b6157a2610160830184614b7a565b9d9c50505050505050505050505050565b6000604051905081810181811067ffffffffffffffff821117156157da576157d9615b7a565b5b8060405250919050565b600067ffffffffffffffff8211156157ff576157fe615b7a565b5b602082029050602081019050919050565b600067ffffffffffffffff82111561582b5761582a615b7a565b5b601f19601f8301169050602081019050919050565b6000819050602082019050919050565b600081519050919050565b600081519050919050565b6000602082019050919050565b600082825260208201905092915050565b600082825260208201905092915050565b600082825260208201905092915050565b60006158b1826159ac565b91506158bc836159ac565b92508163ffffffff04831182151516156158d9576158d8615aed565b5b828202905092915050565b60006158ef826159ac565b91506158fa836159ac565b92508282101561590d5761590c615aed565b5b828203905092915050565b600061592382615982565b9050919050565b60008115159050919050565b600081905061594482615bba565b919050565b600081905061595782615bce565b919050565b600081905061596a82615be2565b919050565b600081905061597d82615bf6565b919050565b600073ffffffffffffffffffffffffffffffffffffffff82169050919050565b6000819050919050565b600063ffffffff82169050919050565b60006159c7826159ce565b9050919050565b60006159d982615982565b9050919050565b60006159eb826159f2565b9050919050565b60006159fd82615982565b9050919050565b6000615a0f82615936565b9050919050565b6000615a2182615949565b9050919050565b6000615a338261595c565b9050919050565b6000615a458261596f565b9050919050565b82818337600083830152505050565b60005b83811015615a79578082015181840152602081019050615a5e565b83811115615a88576000848401525b50505050565b60006002820490506001821680615aa657607f821691505b60208210811415615aba57615ab9615b4b565b5b50919050565b6000615acb826159ac565b915063ffffffff821415615ae257615ae1615aed565b5b600182019050919050565b7f4e487b7100000000000000000000000000000000000000000000000000000000600052601160045260246000fd5b7f4e487b7100000000000000000000000000000000000000000000000000000000600052602160045260246000fd5b7f4e487b7100000000000000000000000000000000000000000000000000000000600052602260045260246000fd5b7f4e487b7100000000000000000000000000000000000000000000000000000000600052604160045260246000fd5b6000601f19601f8301169050919050565b60038110615bcb57615bca615b1c565b5b50565b60088110615bdf57615bde615b1c565b5b50565b60038110615bf357615bf2615b1c565b5b50565b60028110615c0757615c06615b1c565b5b50565b615c1381615918565b8114615c1e57600080fd5b50565b615c2a8161592a565b8114615c3557600080fd5b50565b60038110615c4557600080fd5b50565b60028110615c5557600080fd5b50565b615c61816159ac565b8114615c6c57600080fd5b5056fea264697066735822122002274080f9c6e5959fe6800c4c6d5a0dabd42c5f5a4767d5fcd24a5727aa3fe664736f6c63430008000033",
  "linkReferences": {},
  "deployedLinkReferences": {}
}