{
  "_format": "hh-sol-artifact-1",
  "contractName": "CollecteurProducteur",
  "sourceName": "contracts/CollecteurProducteur.sol",
  "abi": [
    {
      "anonymous": false,
      "inputs": [
        {
          "indexed": true,
          "internalType": "uint32",
          "name": "idProduit",
          "type": "uint32"
        },
        {
          "indexed": false,
          "internalType": "string",
          "name": "cid",
          "type": "string"
        },
        {
          "indexed": false,
          "internalType": "uint256",
          "name": "timestamp",
          "type": "uint256"
        },
        {
          "indexed": false,
          "internalType": "address",
          "name": "transporteur",
          "type": "address"
        }
      ],
      "name": "ConditionEnregistree",
      "type": "event"
    },
    {
      "anonymous": false,
      "inputs": [
        {
          "indexed": true,
          "internalType": "uint32",
          "name": "idCommande",
          "type": "uint32"
        },
        {
          "indexed": false,
          "internalType": "bool",
          "name": "status",
          "type": "bool"
        }
      ],
      "name": "ValidationCommandeRecolte",
      "type": "event"
    },
    {
      "inputs": [
        {
          "internalType": "uint32[]",
          "name": "_idParcelles",
          "type": "uint32[]"
        },
        {
          "internalType": "uint32",
          "name": "_quantite",
          "type": "uint32"
        },
        {
          "internalType": "uint32",
          "name": "_prix",
          "type": "uint32"
        },
        {
          "internalType": "string",
          "name": "_cid",
          "type": "string"
        }
      ],
      "name": "ajoutRecolte",
      "outputs": [],
      "stateMutability": "nonpayable",
      "type": "function"
    },
    {
      "inputs": [
        {
          "internalType": "uint32",
          "name": "_idRecolte",
          "type": "uint32"
        },
        {
          "internalType": "string",
          "name": "_certificat",
          "type": "string"
        }
      ],
      "name": "certifieRecolte",
      "outputs": [],
      "stateMutability": "nonpayable",
      "type": "function"
    },
    {
      "inputs": [
        {
          "internalType": "uint32",
          "name": "idCommande",
          "type": "uint32"
        },
        {
          "internalType": "address",
          "name": "transporteur",
          "type": "address"
        }
      ],
      "name": "choisirTransporteurCommandeRecolte",
      "outputs": [],
      "stateMutability": "nonpayable",
      "type": "function"
    },
    {
      "inputs": [
        {
          "internalType": "uint32",
          "name": "",
          "type": "uint32"
        }
      ],
      "name": "commandes",
      "outputs": [
        {
          "internalType": "uint32",
          "name": "id",
          "type": "uint32"
        },
        {
          "internalType": "uint32",
          "name": "idRecolte",
          "type": "uint32"
        },
        {
          "internalType": "uint32",
          "name": "quantite",
          "type": "uint32"
        },
        {
          "internalType": "uint32",
          "name": "prix",
          "type": "uint32"
        },
        {
          "internalType": "bool",
          "name": "payer",
          "type": "bool"
        },
        {
          "internalType": "enum StructLib.StatutTransport",
          "name": "statutTransport",
          "type": "uint8"
        },
        {
          "internalType": "address",
          "name": "producteur",
          "type": "address"
        },
        {
          "internalType": "address",
          "name": "collecteur",
          "type": "address"
        },
        {
          "internalType": "enum StructLib.StatutProduit",
          "name": "statutRecolte",
          "type": "uint8"
        },
        {
          "internalType": "bool",
          "name": "enregistrerCondition",
          "type": "bool"
        },
        {
          "internalType": "address",
          "name": "transporteur",
          "type": "address"
        }
      ],
      "stateMutability": "view",
      "type": "function"
    },
    {
      "inputs": [],
      "name": "compteurCommandes",
      "outputs": [
        {
          "internalType": "uint32",
          "name": "",
          "type": "uint32"
        }
      ],
      "stateMutability": "view",
      "type": "function"
    },
    {
      "inputs": [],
      "name": "compteurRecoltes",
      "outputs": [
        {
          "internalType": "uint32",
          "name": "",
          "type": "uint32"
        }
      ],
      "stateMutability": "view",
      "type": "function"
    },
    {
      "inputs": [
        {
          "internalType": "uint32",
          "name": "",
          "type": "uint32"
        }
      ],
      "name": "conditions",
      "outputs": [
        {
          "internalType": "uint32",
          "name": "id",
          "type": "uint32"
        },
        {
          "internalType": "string",
          "name": "cid",
          "type": "string"
        },
        {
          "internalType": "uint256",
          "name": "timestamp",
          "type": "uint256"
        },
        {
          "internalType": "bytes32",
          "name": "hashMerkle",
          "type": "bytes32"
        }
      ],
      "stateMutability": "view",
      "type": "function"
    },
    {
      "inputs": [
        {
          "internalType": "uint32",
          "name": "_idCommande",
          "type": "uint32"
        },
        {
          "internalType": "uint32",
          "name": "_montant",
          "type": "uint32"
        },
        {
          "internalType": "enum StructLib.ModePaiement",
          "name": "_mode",
          "type": "uint8"
        }
      ],
      "name": "effectuerPaiementVersProducteur",
      "outputs": [],
      "stateMutability": "payable",
      "type": "function"
    },
    {
      "inputs": [
        {
          "internalType": "uint32",
          "name": "_idCommande",
          "type": "uint32"
        },
        {
          "internalType": "string",
          "name": "_cid",
          "type": "string"
        }
      ],
      "name": "enregistrerCondition",
      "outputs": [],
      "stateMutability": "nonpayable",
      "type": "function"
    },
    {
      "inputs": [],
      "name": "gestionnaireActeurs",
      "outputs": [
        {
          "internalType": "contract GestionnaireActeurs",
          "name": "",
          "type": "address"
        }
      ],
      "stateMutability": "view",
      "type": "function"
    },
    {
      "inputs": [
        {
          "internalType": "uint32",
          "name": "_id",
          "type": "uint32"
        }
      ],
      "name": "getCommande",
      "outputs": [
        {
          "components": [
            {
              "internalType": "uint32",
              "name": "id",
              "type": "uint32"
            },
            {
              "internalType": "uint32",
              "name": "idRecolte",
              "type": "uint32"
            },
            {
              "internalType": "uint32",
              "name": "quantite",
              "type": "uint32"
            },
            {
              "internalType": "uint32",
              "name": "prix",
              "type": "uint32"
            },
            {
              "internalType": "bool",
              "name": "payer",
              "type": "bool"
            },
            {
              "internalType": "enum StructLib.StatutTransport",
              "name": "statutTransport",
              "type": "uint8"
            },
            {
              "internalType": "address",
              "name": "producteur",
              "type": "address"
            },
            {
              "internalType": "address",
              "name": "collecteur",
              "type": "address"
            },
            {
              "internalType": "enum StructLib.StatutProduit",
              "name": "statutRecolte",
              "type": "uint8"
            },
            {
              "internalType": "bool",
              "name": "enregistrerCondition",
              "type": "bool"
            },
            {
              "internalType": "address",
              "name": "transporteur",
              "type": "address"
            }
          ],
          "internalType": "struct StructLib.CommandeRecolte",
          "name": "",
          "type": "tuple"
        }
      ],
      "stateMutability": "view",
      "type": "function"
    },
    {
      "inputs": [],
      "name": "getCompteurCommandes",
      "outputs": [
        {
          "internalType": "uint32",
          "name": "",
          "type": "uint32"
        }
      ],
      "stateMutability": "view",
      "type": "function"
    },
    {
      "inputs": [],
      "name": "getCompteurPaiments",
      "outputs": [
        {
          "internalType": "uint32",
          "name": "",
          "type": "uint32"
        }
      ],
      "stateMutability": "view",
      "type": "function"
    },
    {
      "inputs": [],
      "name": "getCompteurRecoltes",
      "outputs": [
        {
          "internalType": "uint32",
          "name": "",
          "type": "uint32"
        }
      ],
      "stateMutability": "view",
      "type": "function"
    },
    {
      "inputs": [
        {
          "internalType": "uint32",
          "name": "_idCommande",
          "type": "uint32"
        }
      ],
      "name": "getConditionTransport",
      "outputs": [
        {
          "components": [
            {
              "internalType": "uint32",
              "name": "id",
              "type": "uint32"
            },
            {
              "internalType": "string",
              "name": "cid",
              "type": "string"
            },
            {
              "internalType": "uint256",
              "name": "timestamp",
              "type": "uint256"
            },
            {
              "internalType": "bytes32",
              "name": "hashMerkle",
              "type": "bytes32"
            }
          ],
          "internalType": "struct StructLib.EnregistrementCondition",
          "name": "",
          "type": "tuple"
        }
      ],
      "stateMutability": "view",
      "type": "function"
    },
    {
      "inputs": [
        {
          "internalType": "uint32",
          "name": "_id",
          "type": "uint32"
        }
      ],
      "name": "getPaiement",
      "outputs": [
        {
          "components": [
            {
              "internalType": "uint32",
              "name": "id",
              "type": "uint32"
            },
            {
              "internalType": "address",
              "name": "payeur",
              "type": "address"
            },
            {
              "internalType": "address",
              "name": "vendeur",
              "type": "address"
            },
            {
              "internalType": "uint32",
              "name": "montant",
              "type": "uint32"
            },
            {
              "internalType": "enum StructLib.ModePaiement",
              "name": "mode",
              "type": "uint8"
            },
            {
              "internalType": "uint256",
              "name": "timestamp",
              "type": "uint256"
            },
            {
              "internalType": "string",
              "name": "hashMerkle",
              "type": "string"
            }
          ],
          "internalType": "struct StructLib.Paiement",
          "name": "",
          "type": "tuple"
        }
      ],
      "stateMutability": "view",
      "type": "function"
    },
    {
      "inputs": [
        {
          "internalType": "uint32",
          "name": "_idRecolte",
          "type": "uint32"
        }
      ],
      "name": "getRecolte",
      "outputs": [
        {
          "components": [
            {
              "internalType": "uint32",
              "name": "id",
              "type": "uint32"
            },
            {
              "internalType": "uint32[]",
              "name": "idParcelle",
              "type": "uint32[]"
            },
            {
              "internalType": "uint32",
              "name": "quantite",
              "type": "uint32"
            },
            {
              "internalType": "uint32",
              "name": "prixUnit",
              "type": "uint32"
            },
            {
              "internalType": "bool",
              "name": "certifie",
              "type": "bool"
            },
            {
              "internalType": "string",
              "name": "certificatPhytosanitaire",
              "type": "string"
            },
            {
              "internalType": "address",
              "name": "producteur",
              "type": "address"
            },
            {
              "internalType": "bytes32",
              "name": "hashMerkle",
              "type": "bytes32"
            },
            {
              "internalType": "string",
              "name": "cid",
              "type": "string"
            }
          ],
          "internalType": "struct StructLib.Recolte",
          "name": "",
          "type": "tuple"
        }
      ],
      "stateMutability": "view",
      "type": "function"
    },
    {
      "inputs": [
        {
          "internalType": "address",
          "name": "_addrCE",
          "type": "address"
        },
        {
          "internalType": "address",
          "name": "_gestionnaireActeurs",
          "type": "address"
        },
        {
          "internalType": "address",
          "name": "_producteurEnPhaseCulture",
          "type": "address"
        }
      ],
      "name": "initialiser",
      "outputs": [],
      "stateMutability": "nonpayable",
      "type": "function"
    },
    {
      "inputs": [
        {
          "internalType": "uint32",
          "name": "_idCommande",
          "type": "uint32"
        },
        {
          "internalType": "enum StructLib.StatutTransport",
          "name": "_statut",
          "type": "uint8"
        }
      ],
      "name": "mettreAJourStatutTransport",
      "outputs": [],
      "stateMutability": "nonpayable",
      "type": "function"
    },
    {
      "inputs": [
        {
          "internalType": "uint32",
          "name": "idRecolte",
          "type": "uint32"
        },
        {
          "internalType": "uint32",
          "name": "newPrix",
          "type": "uint32"
        }
      ],
      "name": "modifierPrixRecolte",
      "outputs": [],
      "stateMutability": "nonpayable",
      "type": "function"
    },
    {
      "inputs": [
        {
          "internalType": "uint32",
          "name": "",
          "type": "uint32"
        }
      ],
      "name": "paiements",
      "outputs": [
        {
          "internalType": "uint32",
          "name": "id",
          "type": "uint32"
        },
        {
          "internalType": "address",
          "name": "payeur",
          "type": "address"
        },
        {
          "internalType": "address",
          "name": "vendeur",
          "type": "address"
        },
        {
          "internalType": "uint32",
          "name": "montant",
          "type": "uint32"
        },
        {
          "internalType": "enum StructLib.ModePaiement",
          "name": "mode",
          "type": "uint8"
        },
        {
          "internalType": "uint256",
          "name": "timestamp",
          "type": "uint256"
        },
        {
          "internalType": "string",
          "name": "hashMerkle",
          "type": "string"
        }
      ],
      "stateMutability": "view",
      "type": "function"
    },
    {
      "inputs": [
        {
          "internalType": "uint32",
          "name": "_idRecolte",
          "type": "uint32"
        },
        {
          "internalType": "uint32",
          "name": "_quantite",
          "type": "uint32"
        }
      ],
      "name": "passerCommandeVersProducteur",
      "outputs": [],
      "stateMutability": "nonpayable",
      "type": "function"
    },
    {
      "inputs": [],
      "name": "producteurEnPhaseCulture",
      "outputs": [
        {
          "internalType": "contract IProducteur",
          "name": "",
          "type": "address"
        }
      ],
      "stateMutability": "view",
      "type": "function"
    },
    {
      "inputs": [
        {
          "internalType": "uint32",
          "name": "",
          "type": "uint32"
        }
      ],
      "name": "recoltes",
      "outputs": [
        {
          "internalType": "uint32",
          "name": "id",
          "type": "uint32"
        },
        {
          "internalType": "uint32",
          "name": "quantite",
          "type": "uint32"
        },
        {
          "internalType": "uint32",
          "name": "prixUnit",
          "type": "uint32"
        },
        {
          "internalType": "bool",
          "name": "certifie",
          "type": "bool"
        },
        {
          "internalType": "string",
          "name": "certificatPhytosanitaire",
          "type": "string"
        },
        {
          "internalType": "address",
          "name": "producteur",
          "type": "address"
        },
        {
          "internalType": "bytes32",
          "name": "hashMerkle",
          "type": "bytes32"
        },
        {
          "internalType": "string",
          "name": "cid",
          "type": "string"
        }
      ],
      "stateMutability": "view",
      "type": "function"
    },
    {
      "inputs": [
        {
          "internalType": "address",
          "name": "_addr",
          "type": "address"
        }
      ],
      "name": "setGestionnaireActeurs",
      "outputs": [],
      "stateMutability": "nonpayable",
      "type": "function"
    },
    {
      "inputs": [
        {
          "internalType": "address",
          "name": "_addr",
          "type": "address"
        }
      ],
      "name": "setModuleCE",
      "outputs": [],
      "stateMutability": "nonpayable",
      "type": "function"
    },
    {
      "inputs": [
        {
          "internalType": "address",
          "name": "_addr",
          "type": "address"
        }
      ],
      "name": "setProducteurEnPhaseCulture",
      "outputs": [],
      "stateMutability": "nonpayable",
      "type": "function"
    },
    {
      "inputs": [
        {
          "internalType": "uint32",
          "name": "_idCommande",
          "type": "uint32"
        },
        {
          "internalType": "bool",
          "name": "_valide",
          "type": "bool"
        }
      ],
      "name": "validerCommandeRecolte",
      "outputs": [],
      "stateMutability": "nonpayable",
      "type": "function"
    }
  ],
  "bytecode": "0x608060405234801561001057600080fd5b50615f7d80620000216000396000f3fe6080604052600436106101b75760003560e01c806384342842116100ec578063cb3948761161008a578063e550ef9911610064578063e550ef9914610624578063f1b7e5a81461064d578063f6980cc914610676578063fd643101146106b6576101b7565b8063cb394876146105a5578063cd60462b146105d0578063d84e632d146105fb576101b7565b80639e942cd4116100c65780639e942cd4146104e2578063b38d3aea1461050d578063b3df2a1514610551578063b5fe20761461057a576101b7565b806384342842146104675780638a16156e146104905780639d75741d146104b9576101b7565b80633e7a6049116101595780635293ea51116101335780635293ea51146103845780636f3fd6c5146103c15780637babcffa146104085780638428d5431461044b576101b7565b80633e7a604914610305578063488dee201461032e57806350346b0b14610359576101b7565b806319c04d0e1161019557806319c04d0e1461024b57806319f1c29014610288578063257687e6146102b35780632d5b3658146102dc576101b7565b80630b215e64146101bc578063182b03bc146101f9578063191cc98314610222575b600080fd5b3480156101c857600080fd5b506101e360048036038101906101de9190614a37565b6106f3565b6040516101f0919061575d565b60405180910390f35b34801561020557600080fd5b50610220600480360381019061021b919061493a565b610947565b005b34801561022e57600080fd5b5061024960048036038101906102449190614b91565b610f75565b005b34801561025757600080fd5b50610272600480360381019061026d9190614a37565b611182565b60405161027f919061573b565b60405180910390f35b34801561029457600080fd5b5061029d611287565b6040516102aa91906157a1565b60405180910390f35b3480156102bf57600080fd5b506102da60048036038101906102d591906148c2565b61129f565b005b3480156102e857600080fd5b5061030360048036038101906102fe9190614b91565b6112e3565b005b34801561031157600080fd5b5061032c600480360381019061032791906148c2565b611e7a565b005b34801561033a57600080fd5b50610343611ebe565b60405161035091906157a1565b60405180910390f35b34801561036557600080fd5b5061036e611ed2565b60405161037b9190615586565b60405180910390f35b34801561039057600080fd5b506103ab60048036038101906103a69190614a37565b611ef8565b6040516103b8919061571f565b60405180910390f35b3480156103cd57600080fd5b506103e860048036038101906103e39190614a37565b612210565b6040516103ff9b9a9998979695949392919061594f565b60405180910390f35b34801561041457600080fd5b5061042f600480360381019061042a9190614a37565b61233e565b60405161044297969594939291906157bc565b60405180910390f35b61046560048036038101906104609190614bcd565b612475565b005b34801561047357600080fd5b5061048e60048036038101906104899190614ac5565b612c8d565b005b34801561049c57600080fd5b506104b760048036038101906104b29190614b01565b613061565b005b3480156104c557600080fd5b506104e060048036038101906104db9190614b3d565b6132d8565b005b3480156104ee57600080fd5b506104f76134e1565b604051610504919061556b565b60405180910390f35b34801561051957600080fd5b50610534600480360381019061052f9190614a37565b613507565b6040516105489897969594939291906158c3565b60405180910390f35b34801561055d57600080fd5b5061057860048036038101906105739190614a89565b6136bc565b005b34801561058657600080fd5b5061058f6138e9565b60405161059c91906157a1565b60405180910390f35b3480156105b157600080fd5b506105ba613901565b6040516105c791906157a1565b60405180910390f35b3480156105dc57600080fd5b506105e5613917565b6040516105f291906157a1565b60405180910390f35b34801561060757600080fd5b50610622600480360381019061061d91906148c2565b613931565b005b34801561063057600080fd5b5061064b60048036038101906106469190614b3d565b613975565b005b34801561065957600080fd5b50610674600480360381019061066f91906148eb565b613d78565b005b34801561068257600080fd5b5061069d60048036038101906106989190614a37565b613eab565b6040516106ad9493929190615832565b60405180910390f35b3480156106c257600080fd5b506106dd60048036038101906106d89190614a37565b613f73565b6040516106ea919061577f565b60405180910390f35b6106fb614241565b600260008363ffffffff1663ffffffff1681526020019081526020016000206040518060e00160405290816000820160009054906101000a900463ffffffff1663ffffffff1663ffffffff1681526020016000820160049054906101000a900473ffffffffffffffffffffffffffffffffffffffff1673ffffffffffffffffffffffffffffffffffffffff1673ffffffffffffffffffffffffffffffffffffffff1681526020016001820160009054906101000a900473ffffffffffffffffffffffffffffffffffffffff1673ffffffffffffffffffffffffffffffffffffffff1673ffffffffffffffffffffffffffffffffffffffff1681526020016001820160149054906101000a900463ffffffff1663ffffffff1663ffffffff1681526020016001820160189054906101000a900460ff166002811115610868577f4e487b7100000000000000000000000000000000000000000000000000000000600052602160045260246000fd5b60028111156108a0577f4e487b7100000000000000000000000000000000000000000000000000000000600052602160045260246000fd5b8152602001600282015481526020016003820180546108be90615cf5565b80601f01602080910402602001604051908101604052809291908181526020018280546108ea90615cf5565b80156109375780601f1061090c57610100808354040283529160200191610937565b820191906000526020600020905b81548152906001019060200180831161091a57829003601f168201915b5050505050815250509050919050565b600560009054906101000a900473ffffffffffffffffffffffffffffffffffffffff1673ffffffffffffffffffffffffffffffffffffffff1663d1e47bb33360006040518363ffffffff1660e01b81526004016109a5929190615527565b60206040518083038186803b1580156109bd57600080fd5b505afa1580156109d1573d6000803e3d6000fd5b505050506040513d601f19601f820116820180604052508101906109f591906149cd565b610a34576040517f08c379a0000000000000000000000000000000000000000000000000000000008152600401610a2b906156df565b60405180910390fd5b60005b84518163ffffffff161015610cfa57600660009054906101000a900473ffffffffffffffffffffffffffffffffffffffff1673ffffffffffffffffffffffffffffffffffffffff166331686f416040518163ffffffff1660e01b815260040160206040518083038186803b158015610aae57600080fd5b505afa158015610ac2573d6000803e3d6000fd5b505050506040513d601f19601f82011682018060405250810190610ae69190614a60565b63ffffffff16858263ffffffff1681518110610b2b577f4e487b7100000000000000000000000000000000000000000000000000000000600052603260045260246000fd5b602002602001015163ffffffff161115610b7a576040517f08c379a0000000000000000000000000000000000000000000000000000000008152600401610b719061567f565b60405180910390fd5b6000600660009054906101000a900473ffffffffffffffffffffffffffffffffffffffff1673ffffffffffffffffffffffffffffffffffffffff1663421b3e08878463ffffffff1681518110610bf9577f4e487b7100000000000000000000000000000000000000000000000000000000600052603260045260246000fd5b60200260200101516040518263ffffffff1660e01b8152600401610c1d91906157a1565b60006040518083038186803b158015610c3557600080fd5b505afa158015610c49573d6000803e3d6000fd5b505050506040513d6000823e3d601f19601f82011682018060405250810190610c7291906149f6565b90503373ffffffffffffffffffffffffffffffffffffffff16816020015173ffffffffffffffffffffffffffffffffffffffff1614610ce6576040517f08c379a0000000000000000000000000000000000000000000000000000000008152600401610cdd9061565f565b60405180910390fd5b508080610cf290615d27565b915050610a37565b506004600081819054906101000a900463ffffffff1680929190610d1d90615d27565b91906101000a81548163ffffffff021916908363ffffffff160217905550506000848484843342604051602001610d5996959493929190615475565b604051602081830303815290604052805190602001209050604051806101200160405280600460009054906101000a900463ffffffff1663ffffffff1681526020018681526020018563ffffffff1681526020018463ffffffff1681526020016000151581526020016040518060200160405280600081525081526020013373ffffffffffffffffffffffffffffffffffffffff16815260200182815260200183815250600080600460009054906101000a900463ffffffff1663ffffffff1663ffffffff16815260200190815260200160002060008201518160000160006101000a81548163ffffffff021916908363ffffffff1602179055506020820151816001019080519060200190610e709291906142ee565b5060408201518160020160006101000a81548163ffffffff021916908363ffffffff16021790555060608201518160020160046101000a81548163ffffffff021916908363ffffffff16021790555060808201518160020160086101000a81548160ff02191690831515021790555060a0820151816003019080519060200190610efb92919061439e565b5060c08201518160040160006101000a81548173ffffffffffffffffffffffffffffffffffffffff021916908373ffffffffffffffffffffffffffffffffffffffff16021790555060e08201518160050155610100820151816006019080519060200190610f6a92919061439e565b509050505050505050565b600560009054906101000a900473ffffffffffffffffffffffffffffffffffffffff1673ffffffffffffffffffffffffffffffffffffffff1663d1e47bb33360006040518363ffffffff1660e01b8152600401610fd3929190615527565b60206040518083038186803b158015610feb57600080fd5b505afa158015610fff573d6000803e3d6000fd5b505050506040513d601f19601f8201168201806040525081019061102391906149cd565b611062576040517f08c379a0000000000000000000000000000000000000000000000000000000008152600401611059906156df565b60405180910390fd5b81600460009054906101000a900463ffffffff1663ffffffff168163ffffffff1611156110c4576040517f08c379a00000000000000000000000000000000000000000000000000000000081526004016110bb9061569f565b60405180910390fd5b3373ffffffffffffffffffffffffffffffffffffffff166000808563ffffffff1663ffffffff16815260200190815260200160002060040160009054906101000a900473ffffffffffffffffffffffffffffffffffffffff1673ffffffffffffffffffffffffffffffffffffffff161461113d57600080fd5b816000808563ffffffff1663ffffffff16815260200190815260200160002060020160046101000a81548163ffffffff021916908363ffffffff160217905550505050565b61118a614424565b600360008363ffffffff1663ffffffff1681526020019081526020016000206040518060800160405290816000820160009054906101000a900463ffffffff1663ffffffff1663ffffffff1681526020016001820180546111ea90615cf5565b80601f016020809104026020016040519081016040528092919081815260200182805461121690615cf5565b80156112635780601f1061123857610100808354040283529160200191611263565b820191906000526020600020905b81548152906001019060200180831161124657829003601f168201915b50505050508152602001600282015481526020016003820154815250509050919050565b600060048054906101000a900463ffffffff16905090565b80600660006101000a81548173ffffffffffffffffffffffffffffffffffffffff021916908373ffffffffffffffffffffffffffffffffffffffff16021790555050565b600560009054906101000a900473ffffffffffffffffffffffffffffffffffffffff1673ffffffffffffffffffffffffffffffffffffffff1663d1e47bb33360036040518363ffffffff1660e01b8152600401611341929190615527565b60206040518083038186803b15801561135957600080fd5b505afa15801561136d573d6000803e3d6000fd5b505050506040513d601f19601f8201168201806040525081019061139191906149cd565b6113d0576040517f08c379a00000000000000000000000000000000000000000000000000000000081526004016113c79061563f565b60405180910390fd5b81600460009054906101000a900463ffffffff1663ffffffff168163ffffffff161115611432576040517f08c379a00000000000000000000000000000000000000000000000000000000081526004016114299061569f565b60405180910390fd5b60008060008563ffffffff1663ffffffff168152602001908152602001600020604051806101200160405290816000820160009054906101000a900463ffffffff1663ffffffff1663ffffffff168152602001600182018054806020026020016040519081016040528092919081815260200182805480156114ff57602002820191906000526020600020906000905b82829054906101000a900463ffffffff1663ffffffff16815260200190600401906020826003010492830192600103820291508084116114c25790505b505050505081526020016002820160009054906101000a900463ffffffff1663ffffffff1663ffffffff1681526020016002820160049054906101000a900463ffffffff1663ffffffff1663ffffffff1681526020016002820160089054906101000a900460ff1615151515815260200160038201805461157f90615cf5565b80601f01602080910402602001604051908101604052809291908181526020018280546115ab90615cf5565b80156115f85780601f106115cd576101008083540402835291602001916115f8565b820191906000526020600020905b8154815290600101906020018083116115db57829003601f168201915b505050505081526020016004820160009054906101000a900473ffffffffffffffffffffffffffffffffffffffff1673ffffffffffffffffffffffffffffffffffffffff1673ffffffffffffffffffffffffffffffffffffffff1681526020016005820154815260200160068201805461167190615cf5565b80601f016020809104026020016040519081016040528092919081815260200182805461169d90615cf5565b80156116ea5780601f106116bf576101008083540402835291602001916116ea565b820191906000526020600020905b8154815290600101906020018083116116cd57829003601f168201915b5050505050815250509050806080015161170357600080fd5b806040015163ffffffff168363ffffffff16111561172057600080fd5b826000808663ffffffff1663ffffffff16815260200190815260200160002060020160008282829054906101000a900463ffffffff166117609190615b41565b92506101000a81548163ffffffff021916908363ffffffff16021790555060048081819054906101000a900463ffffffff168092919061179f90615d27565b91906101000a81548163ffffffff021916908363ffffffff1602179055505060008382606001516117d09190615b03565b905060405180610160016040528060048054906101000a900463ffffffff1663ffffffff1681526020018663ffffffff1681526020018563ffffffff1681526020018263ffffffff16815260200160001515815260200160006001811115611861577f4e487b7100000000000000000000000000000000000000000000000000000000600052602160045260246000fd5b81526020018360c0015173ffffffffffffffffffffffffffffffffffffffff1681526020013373ffffffffffffffffffffffffffffffffffffffff168152602001600060028111156118dc577f4e487b7100000000000000000000000000000000000000000000000000000000600052602160045260246000fd5b8152602001600015158152602001600073ffffffffffffffffffffffffffffffffffffffff168152506001600060048054906101000a900463ffffffff1663ffffffff1663ffffffff16815260200190815260200160002060008201518160000160006101000a81548163ffffffff021916908363ffffffff16021790555060208201518160000160046101000a81548163ffffffff021916908363ffffffff16021790555060408201518160000160086101000a81548163ffffffff021916908363ffffffff160217905550606082015181600001600c6101000a81548163ffffffff021916908363ffffffff16021790555060808201518160000160106101000a81548160ff02191690831515021790555060a08201518160000160116101000a81548160ff02191690836001811115611a41577f4e487b7100000000000000000000000000000000000000000000000000000000600052602160045260246000fd5b021790555060c08201518160010160006101000a81548173ffffffffffffffffffffffffffffffffffffffff021916908373ffffffffffffffffffffffffffffffffffffffff16021790555060e08201518160020160006101000a81548173ffffffffffffffffffffffffffffffffffffffff021916908373ffffffffffffffffffffffffffffffffffffffff1602179055506101008201518160020160146101000a81548160ff02191690836002811115611b26577f4e487b7100000000000000000000000000000000000000000000000000000000600052602160045260246000fd5b02179055506101208201518160020160156101000a81548160ff0219169083151502179055506101408201518160030160006101000a81548173ffffffffffffffffffffffffffffffffffffffff021916908373ffffffffffffffffffffffffffffffffffffffff1602179055509050503373ffffffffffffffffffffffffffffffffffffffff168260c0015173ffffffffffffffffffffffffffffffffffffffff161415611e7357600180600060048054906101000a900463ffffffff1663ffffffff1663ffffffff16815260200190815260200160002060000160106101000a81548160ff021916908315150217905550600180600060048054906101000a900463ffffffff1663ffffffff1663ffffffff16815260200190815260200160002060000160116101000a81548160ff02191690836001811115611c94577f4e487b7100000000000000000000000000000000000000000000000000000000600052602160045260246000fd5b0217905550600180600060048054906101000a900463ffffffff1663ffffffff1663ffffffff16815260200190815260200160002060020160146101000a81548160ff02191690836002811115611d14577f4e487b7100000000000000000000000000000000000000000000000000000000600052602160045260246000fd5b0217905550600460089054906101000a900473ffffffffffffffffffffffffffffffffffffffff1673ffffffffffffffffffffffffffffffffffffffff166389c1ca536001600060048054906101000a900463ffffffff1663ffffffff1663ffffffff16815260200190815260200160002060000160009054906101000a900463ffffffff166001600060048054906101000a900463ffffffff1663ffffffff1663ffffffff16815260200190815260200160002060000160049054906101000a900463ffffffff166001600060048054906101000a900463ffffffff1663ffffffff1663ffffffff16815260200190815260200160002060000160089054906101000a900463ffffffff16336040518563ffffffff1660e01b8152600401611e40949392919061587e565b600060405180830381600087803b158015611e5a57600080fd5b505af1158015611e6e573d6000803e3d6000fd5b505050505b5050505050565b80600560006101000a81548173ffffffffffffffffffffffffffffffffffffffff021916908373ffffffffffffffffffffffffffffffffffffffff16021790555050565b60048054906101000a900463ffffffff1681565b600660009054906101000a900473ffffffffffffffffffffffffffffffffffffffff1681565b611f00614455565b600160008363ffffffff1663ffffffff168152602001908152602001600020604051806101600160405290816000820160009054906101000a900463ffffffff1663ffffffff1663ffffffff1681526020016000820160049054906101000a900463ffffffff1663ffffffff1663ffffffff1681526020016000820160089054906101000a900463ffffffff1663ffffffff1663ffffffff16815260200160008201600c9054906101000a900463ffffffff1663ffffffff1663ffffffff1681526020016000820160109054906101000a900460ff161515151581526020016000820160119054906101000a900460ff166001811115612029577f4e487b7100000000000000000000000000000000000000000000000000000000600052602160045260246000fd5b6001811115612061577f4e487b7100000000000000000000000000000000000000000000000000000000600052602160045260246000fd5b81526020016001820160009054906101000a900473ffffffffffffffffffffffffffffffffffffffff1673ffffffffffffffffffffffffffffffffffffffff1673ffffffffffffffffffffffffffffffffffffffff1681526020016002820160009054906101000a900473ffffffffffffffffffffffffffffffffffffffff1673ffffffffffffffffffffffffffffffffffffffff1673ffffffffffffffffffffffffffffffffffffffff1681526020016002820160149054906101000a900460ff16600281111561215c577f4e487b7100000000000000000000000000000000000000000000000000000000600052602160045260246000fd5b6002811115612194577f4e487b7100000000000000000000000000000000000000000000000000000000600052602160045260246000fd5b81526020016002820160159054906101000a900460ff161515151581526020016003820160009054906101000a900473ffffffffffffffffffffffffffffffffffffffff1673ffffffffffffffffffffffffffffffffffffffff1673ffffffffffffffffffffffffffffffffffffffff16815250509050919050565b60016020528060005260406000206000915090508060000160009054906101000a900463ffffffff16908060000160049054906101000a900463ffffffff16908060000160089054906101000a900463ffffffff169080600001600c9054906101000a900463ffffffff16908060000160109054906101000a900460ff16908060000160119054906101000a900460ff16908060010160009054906101000a900473ffffffffffffffffffffffffffffffffffffffff16908060020160009054906101000a900473ffffffffffffffffffffffffffffffffffffffff16908060020160149054906101000a900460ff16908060020160159054906101000a900460ff16908060030160009054906101000a900473ffffffffffffffffffffffffffffffffffffffff1690508b565b60026020528060005260406000206000915090508060000160009054906101000a900463ffffffff16908060000160049054906101000a900473ffffffffffffffffffffffffffffffffffffffff16908060010160009054906101000a900473ffffffffffffffffffffffffffffffffffffffff16908060010160149054906101000a900463ffffffff16908060010160189054906101000a900460ff16908060020154908060030180546123f290615cf5565b80601f016020809104026020016040519081016040528092919081815260200182805461241e90615cf5565b801561246b5780601f106124405761010080835404028352916020019161246b565b820191906000526020600020905b81548152906001019060200180831161244e57829003601f168201915b5050505050905087565b600560009054906101000a900473ffffffffffffffffffffffffffffffffffffffff1673ffffffffffffffffffffffffffffffffffffffff1663d1e47bb33360036040518363ffffffff1660e01b81526004016124d3929190615527565b60206040518083038186803b1580156124eb57600080fd5b505afa1580156124ff573d6000803e3d6000fd5b505050506040513d601f19601f8201168201806040525081019061252391906149cd565b612562576040517f08c379a00000000000000000000000000000000000000000000000000000000081526004016125599061563f565b60405180910390fd5b8260048054906101000a900463ffffffff1663ffffffff168163ffffffff1611156125c2576040517f08c379a00000000000000000000000000000000000000000000000000000000081526004016125b9906155ff565b60405180910390fd5b6000600160008663ffffffff1663ffffffff168152602001908152602001600020604051806101600160405290816000820160009054906101000a900463ffffffff1663ffffffff1663ffffffff1681526020016000820160049054906101000a900463ffffffff1663ffffffff1663ffffffff1681526020016000820160089054906101000a900463ffffffff1663ffffffff1663ffffffff16815260200160008201600c9054906101000a900463ffffffff1663ffffffff1663ffffffff1681526020016000820160109054906101000a900460ff161515151581526020016000820160119054906101000a900460ff1660018111156126ed577f4e487b7100000000000000000000000000000000000000000000000000000000600052602160045260246000fd5b6001811115612725577f4e487b7100000000000000000000000000000000000000000000000000000000600052602160045260246000fd5b81526020016001820160009054906101000a900473ffffffffffffffffffffffffffffffffffffffff1673ffffffffffffffffffffffffffffffffffffffff1673ffffffffffffffffffffffffffffffffffffffff1681526020016002820160009054906101000a900473ffffffffffffffffffffffffffffffffffffffff1673ffffffffffffffffffffffffffffffffffffffff1673ffffffffffffffffffffffffffffffffffffffff1681526020016002820160149054906101000a900460ff166002811115612820577f4e487b7100000000000000000000000000000000000000000000000000000000600052602160045260246000fd5b6002811115612858577f4e487b7100000000000000000000000000000000000000000000000000000000600052602160045260246000fd5b81526020016002820160159054906101000a900460ff161515151581526020016003820160009054906101000a900473ffffffffffffffffffffffffffffffffffffffff1673ffffffffffffffffffffffffffffffffffffffff1673ffffffffffffffffffffffffffffffffffffffff168152505090508060800151156128de57600080fd5b806060015163ffffffff168463ffffffff16146128fa57600080fd5b60016002811115612934577f4e487b7100000000000000000000000000000000000000000000000000000000600052602160045260246000fd5b8161010001516002811115612972577f4e487b7100000000000000000000000000000000000000000000000000000000600052602160045260246000fd5b1461297c57600080fd5b600460089054906101000a900473ffffffffffffffffffffffffffffffffffffffff1673ffffffffffffffffffffffffffffffffffffffff166389c1ca53826000015183602001518460400151336040518563ffffffff1660e01b81526004016129e9949392919061587e565b600060405180830381600087803b158015612a0357600080fd5b505af1158015612a17573d6000803e3d6000fd5b5050505060018060008763ffffffff1663ffffffff16815260200190815260200160002060000160106101000a81548160ff0219169083151502179055506040518060e001604052808663ffffffff1681526020013373ffffffffffffffffffffffffffffffffffffffff1681526020018260c0015173ffffffffffffffffffffffffffffffffffffffff1681526020018563ffffffff168152602001846002811115612aed577f4e487b7100000000000000000000000000000000000000000000000000000000600052602160045260246000fd5b815260200142815260200160405180602001604052806000815250815250600260008763ffffffff1663ffffffff16815260200190815260200160002060008201518160000160006101000a81548163ffffffff021916908363ffffffff16021790555060208201518160000160046101000a81548173ffffffffffffffffffffffffffffffffffffffff021916908373ffffffffffffffffffffffffffffffffffffffff16021790555060408201518160010160006101000a81548173ffffffffffffffffffffffffffffffffffffffff021916908373ffffffffffffffffffffffffffffffffffffffff16021790555060608201518160010160146101000a81548163ffffffff021916908363ffffffff16021790555060808201518160010160186101000a81548160ff02191690836002811115612c57577f4e487b7100000000000000000000000000000000000000000000000000000000600052602160045260246000fd5b021790555060a0820151816002015560c0820151816003019080519060200190612c8292919061439e565b509050505050505050565b600560009054906101000a900473ffffffffffffffffffffffffffffffffffffffff1673ffffffffffffffffffffffffffffffffffffffff1663d1e47bb33360036040518363ffffffff1660e01b8152600401612ceb929190615527565b60206040518083038186803b158015612d0357600080fd5b505afa158015612d17573d6000803e3d6000fd5b505050506040513d601f19601f82011682018060405250810190612d3b91906149cd565b612d7a576040517f08c379a0000000000000000000000000000000000000000000000000000000008152600401612d719061563f565b60405180910390fd5b8160048054906101000a900463ffffffff1663ffffffff168163ffffffff161115612dda576040517f08c379a0000000000000000000000000000000000000000000000000000000008152600401612dd1906155ff565b60405180910390fd5b600180811115612e13577f4e487b7100000000000000000000000000000000000000000000000000000000600052602160045260246000fd5b600160008563ffffffff1663ffffffff16815260200190815260200160002060000160119054906101000a900460ff166001811115612e7b577f4e487b7100000000000000000000000000000000000000000000000000000000600052602160045260246000fd5b14612e8557600080fd5b60006002811115612ebf577f4e487b7100000000000000000000000000000000000000000000000000000000600052602160045260246000fd5b600160008563ffffffff1663ffffffff16815260200190815260200160002060020160149054906101000a900460ff166002811115612f27577f4e487b7100000000000000000000000000000000000000000000000000000000600052602160045260246000fd5b14612f3157600080fd5b8115612fac5760018060008563ffffffff1663ffffffff16815260200190815260200160002060020160146101000a81548160ff02191690836002811115612fa2577f4e487b7100000000000000000000000000000000000000000000000000000000600052602160045260246000fd5b021790555061301e565b6002600160008563ffffffff1663ffffffff16815260200190815260200160002060020160146101000a81548160ff02191690836002811115613018577f4e487b7100000000000000000000000000000000000000000000000000000000600052602160045260246000fd5b02179055505b8263ffffffff167f1df7b2ecf94baf358d5ffc6f43b2769c0b74ac06ff426c80d5eb4106388cb5de836040516130549190615550565b60405180910390a2505050565b600560009054906101000a900473ffffffffffffffffffffffffffffffffffffffff1673ffffffffffffffffffffffffffffffffffffffff1663d1e47bb33360056040518363ffffffff1660e01b81526004016130bf929190615527565b60206040518083038186803b1580156130d757600080fd5b505afa1580156130eb573d6000803e3d6000fd5b505050506040513d601f19601f8201168201806040525081019061310f91906149cd565b61314e576040517f08c379a00000000000000000000000000000000000000000000000000000000081526004016131459061561f565b60405180910390fd5b8160048054906101000a900463ffffffff1663ffffffff168163ffffffff1611156131ae576040517f08c379a00000000000000000000000000000000000000000000000000000000081526004016131a5906155ff565b60405180910390fd5b823373ffffffffffffffffffffffffffffffffffffffff16600160008363ffffffff1663ffffffff16815260200190815260200160002060030160009054906101000a900473ffffffffffffffffffffffffffffffffffffffff1673ffffffffffffffffffffffffffffffffffffffff161461322957600080fd5b600160008563ffffffff1663ffffffff16815260200190815260200160002060020160159054906101000a900460ff1661326257600080fd5b82600160008663ffffffff1663ffffffff16815260200190815260200160002060000160116101000a81548160ff021916908360018111156132cd577f4e487b7100000000000000000000000000000000000000000000000000000000600052602160045260246000fd5b021790555050505050565b600560009054906101000a900473ffffffffffffffffffffffffffffffffffffffff1673ffffffffffffffffffffffffffffffffffffffff1663d1e47bb33360026040518363ffffffff1660e01b8152600401613336929190615527565b60206040518083038186803b15801561334e57600080fd5b505afa158015613362573d6000803e3d6000fd5b505050506040513d601f19601f8201168201806040525081019061338691906149cd565b6133c5576040517f08c379a00000000000000000000000000000000000000000000000000000000081526004016133bc906155df565b60405180910390fd5b81600460009054906101000a900463ffffffff1663ffffffff168163ffffffff161115613427576040517f08c379a000000000000000000000000000000000000000000000000000000000815260040161341e9061569f565b60405180910390fd5b60008251141561346c576040517f08c379a0000000000000000000000000000000000000000000000000000000008152600401613463906156bf565b60405180910390fd5b60016000808563ffffffff1663ffffffff16815260200190815260200160002060020160086101000a81548160ff021916908315150217905550816000808563ffffffff1663ffffffff16815260200190815260200160002060030190805190602001906134db92919061439e565b50505050565b600560009054906101000a900473ffffffffffffffffffffffffffffffffffffffff1681565b60006020528060005260406000206000915090508060000160009054906101000a900463ffffffff16908060020160009054906101000a900463ffffffff16908060020160049054906101000a900463ffffffff16908060020160089054906101000a900460ff169080600301805461357f90615cf5565b80601f01602080910402602001604051908101604052809291908181526020018280546135ab90615cf5565b80156135f85780601f106135cd576101008083540402835291602001916135f8565b820191906000526020600020905b8154815290600101906020018083116135db57829003601f168201915b5050505050908060040160009054906101000a900473ffffffffffffffffffffffffffffffffffffffff169080600501549080600601805461363990615cf5565b80601f016020809104026020016040519081016040528092919081815260200182805461366590615cf5565b80156136b25780601f10613687576101008083540402835291602001916136b2565b820191906000526020600020905b81548152906001019060200180831161369557829003601f168201915b5050505050905088565b600560009054906101000a900473ffffffffffffffffffffffffffffffffffffffff1673ffffffffffffffffffffffffffffffffffffffff1663d1e47bb33360036040518363ffffffff1660e01b815260040161371a929190615527565b60206040518083038186803b15801561373257600080fd5b505afa158015613746573d6000803e3d6000fd5b505050506040513d601f19601f8201168201806040525081019061376a91906149cd565b6137a9576040517f08c379a00000000000000000000000000000000000000000000000000000000081526004016137a09061563f565b60405180910390fd5b8160048054906101000a900463ffffffff1663ffffffff168163ffffffff161115613809576040517f08c379a0000000000000000000000000000000000000000000000000000000008152600401613800906155ff565b60405180910390fd5b3373ffffffffffffffffffffffffffffffffffffffff16600160008563ffffffff1663ffffffff16815260200190815260200160002060020160009054906101000a900473ffffffffffffffffffffffffffffffffffffffff1673ffffffffffffffffffffffffffffffffffffffff161461388357600080fd5b81600160008563ffffffff1663ffffffff16815260200190815260200160002060030160006101000a81548173ffffffffffffffffffffffffffffffffffffffff021916908373ffffffffffffffffffffffffffffffffffffffff160217905550505050565b600060048054906101000a900463ffffffff16905090565b600460009054906101000a900463ffffffff1681565b6000600460009054906101000a900463ffffffff16905090565b80600460086101000a81548173ffffffffffffffffffffffffffffffffffffffff021916908373ffffffffffffffffffffffffffffffffffffffff16021790555050565b600560009054906101000a900473ffffffffffffffffffffffffffffffffffffffff1673ffffffffffffffffffffffffffffffffffffffff1663d1e47bb33360056040518363ffffffff1660e01b81526004016139d3929190615527565b60206040518083038186803b1580156139eb57600080fd5b505afa1580156139ff573d6000803e3d6000fd5b505050506040513d601f19601f82011682018060405250810190613a2391906149cd565b613a62576040517f08c379a0000000000000000000000000000000000000000000000000000000008152600401613a599061561f565b60405180910390fd5b8160048054906101000a900463ffffffff1663ffffffff168163ffffffff161115613ac2576040517f08c379a0000000000000000000000000000000000000000000000000000000008152600401613ab9906155ff565b60405180910390fd5b823373ffffffffffffffffffffffffffffffffffffffff16600160008363ffffffff1663ffffffff16815260200190815260200160002060030160009054906101000a900473ffffffffffffffffffffffffffffffffffffffff1673ffffffffffffffffffffffffffffffffffffffff1614613b3d57600080fd5b600160008563ffffffff1663ffffffff16815260200190815260200160002060020160159054906101000a900460ff1615613b7757600080fd5b600180811115613bb0577f4e487b7100000000000000000000000000000000000000000000000000000000600052602160045260246000fd5b600160008663ffffffff1663ffffffff16815260200190815260200160002060000160119054906101000a900460ff166001811115613c18577f4e487b7100000000000000000000000000000000000000000000000000000000600052602160045260246000fd5b1415613c2357600080fd5b60018060008663ffffffff1663ffffffff16815260200190815260200160002060020160156101000a81548160ff021916908315150217905550600084843342604051602001613c7694939291906154dd565b60405160208183030381529060405280519060200120905060405180608001604052808663ffffffff16815260200185815260200142815260200182815250600360008763ffffffff1663ffffffff16815260200190815260200160002060008201518160000160006101000a81548163ffffffff021916908363ffffffff1602179055506020820151816001019080519060200190613d1792919061439e565b5060408201518160020155606082015181600301559050508463ffffffff167fbcbce0994790c925173de558389c26cc831b555df7ed8b14077b3811069cec57854233604051613d69939291906155a1565b60405180910390a25050505050565b600660149054906101000a900460ff1615613dc8576040517f08c379a0000000000000000000000000000000000000000000000000000000008152600401613dbf906156ff565b60405180910390fd5b82600460086101000a81548173ffffffffffffffffffffffffffffffffffffffff021916908373ffffffffffffffffffffffffffffffffffffffff16021790555081600560006101000a81548173ffffffffffffffffffffffffffffffffffffffff021916908373ffffffffffffffffffffffffffffffffffffffff16021790555080600660006101000a81548173ffffffffffffffffffffffffffffffffffffffff021916908373ffffffffffffffffffffffffffffffffffffffff1602179055506001600660146101000a81548160ff021916908315150217905550505050565b60036020528060005260406000206000915090508060000160009054906101000a900463ffffffff1690806001018054613ee490615cf5565b80601f0160208091040260200160405190810160405280929190818152602001828054613f1090615cf5565b8015613f5d5780601f10613f3257610100808354040283529160200191613f5d565b820191906000526020600020905b815481529060010190602001808311613f4057829003601f168201915b5050505050908060020154908060030154905084565b613f7b61457d565b6000808363ffffffff1663ffffffff168152602001908152602001600020604051806101200160405290816000820160009054906101000a900463ffffffff1663ffffffff1663ffffffff1681526020016001820180548060200260200160405190810160405280929190818152602001828054801561404657602002820191906000526020600020906000905b82829054906101000a900463ffffffff1663ffffffff16815260200190600401906020826003010492830192600103820291508084116140095790505b505050505081526020016002820160009054906101000a900463ffffffff1663ffffffff1663ffffffff1681526020016002820160049054906101000a900463ffffffff1663ffffffff1663ffffffff1681526020016002820160089054906101000a900460ff161515151581526020016003820180546140c690615cf5565b80601f01602080910402602001604051908101604052809291908181526020018280546140f290615cf5565b801561413f5780601f106141145761010080835404028352916020019161413f565b820191906000526020600020905b81548152906001019060200180831161412257829003601f168201915b505050505081526020016004820160009054906101000a900473ffffffffffffffffffffffffffffffffffffffff1673ffffffffffffffffffffffffffffffffffffffff1673ffffffffffffffffffffffffffffffffffffffff168152602001600582015481526020016006820180546141b890615cf5565b80601f01602080910402602001604051908101604052809291908181526020018280546141e490615cf5565b80156142315780601f1061420657610100808354040283529160200191614231565b820191906000526020600020905b81548152906001019060200180831161421457829003601f168201915b5050505050815250509050919050565b6040518060e00160405280600063ffffffff168152602001600073ffffffffffffffffffffffffffffffffffffffff168152602001600073ffffffffffffffffffffffffffffffffffffffff168152602001600063ffffffff168152602001600060028111156142da577f4e487b7100000000000000000000000000000000000000000000000000000000600052602160045260246000fd5b815260200160008152602001606081525090565b8280548282559060005260206000209060070160089004810192821561438d5791602002820160005b8382111561435b57835183826101000a81548163ffffffff021916908363ffffffff1602179055509260200192600401602081600301049283019260010302614317565b801561438b5782816101000a81549063ffffffff021916905560040160208160030104928301926001030261435b565b505b50905061439a91906145f6565b5090565b8280546143aa90615cf5565b90600052602060002090601f0160209004810192826143cc5760008555614413565b82601f106143e557805160ff1916838001178555614413565b82800160010185558215614413579182015b828111156144125782518255916020019190600101906143f7565b5b50905061442091906145f6565b5090565b6040518060800160405280600063ffffffff1681526020016060815260200160008152602001600080191681525090565b604051806101600160405280600063ffffffff168152602001600063ffffffff168152602001600063ffffffff168152602001600063ffffffff168152602001600015158152602001600060018111156144d8577f4e487b7100000000000000000000000000000000000000000000000000000000600052602160045260246000fd5b8152602001600073ffffffffffffffffffffffffffffffffffffffff168152602001600073ffffffffffffffffffffffffffffffffffffffff16815260200160006002811115614551577f4e487b7100000000000000000000000000000000000000000000000000000000600052602160045260246000fd5b8152602001600015158152602001600073ffffffffffffffffffffffffffffffffffffffff1681525090565b604051806101200160405280600063ffffffff16815260200160608152602001600063ffffffff168152602001600063ffffffff16815260200160001515815260200160608152602001600073ffffffffffffffffffffffffffffffffffffffff16815260200160008019168152602001606081525090565b5b8082111561460f5760008160009055506001016145f7565b5090565b600061462661462184615a2b565b6159fa565b9050808382526020820190508285602086028201111561464557600080fd5b60005b85811015614675578161465b8882614898565b845260208401935060208301925050600181019050614648565b5050509392505050565b600061469261468d84615a57565b6159fa565b9050828152602081018484840111156146aa57600080fd5b6146b5848285615cb3565b509392505050565b60006146d06146cb84615a57565b6159fa565b9050828152602081018484840111156146e857600080fd5b6146f3848285615cc2565b509392505050565b60008135905061470a81615ecb565b92915050565b60008151905061471f81615ecb565b92915050565b600082601f83011261473657600080fd5b8135614746848260208601614613565b91505092915050565b60008135905061475e81615ee2565b92915050565b60008151905061477381615ee2565b92915050565b60008151905061478881615ef9565b92915050565b60008135905061479d81615f10565b92915050565b6000813590506147b281615f20565b92915050565b600082601f8301126147c957600080fd5b81356147d984826020860161467f565b91505092915050565b600082601f8301126147f357600080fd5b81516148038482602086016146bd565b91505092915050565b60006080828403121561481e57600080fd5b61482860806159fa565b90506000614838848285016148ad565b600083015250602061484c84828501614710565b602083015250604082015167ffffffffffffffff81111561486c57600080fd5b614878848285016147e2565b604083015250606061488c84828501614779565b60608301525092915050565b6000813590506148a781615f30565b92915050565b6000815190506148bc81615f30565b92915050565b6000602082840312156148d457600080fd5b60006148e2848285016146fb565b91505092915050565b60008060006060848603121561490057600080fd5b600061490e868287016146fb565b935050602061491f868287016146fb565b9250506040614930868287016146fb565b9150509250925092565b6000806000806080858703121561495057600080fd5b600085013567ffffffffffffffff81111561496a57600080fd5b61497687828801614725565b945050602061498787828801614898565b935050604061499887828801614898565b925050606085013567ffffffffffffffff8111156149b557600080fd5b6149c1878288016147b8565b91505092959194509250565b6000602082840312156149df57600080fd5b60006149ed84828501614764565b91505092915050565b600060208284031215614a0857600080fd5b600082015167ffffffffffffffff811115614a2257600080fd5b614a2e8482850161480c565b91505092915050565b600060208284031215614a4957600080fd5b6000614a5784828501614898565b91505092915050565b600060208284031215614a7257600080fd5b6000614a80848285016148ad565b91505092915050565b60008060408385031215614a9c57600080fd5b6000614aaa85828601614898565b9250506020614abb858286016146fb565b9150509250929050565b60008060408385031215614ad857600080fd5b6000614ae685828601614898565b9250506020614af78582860161474f565b9150509250929050565b60008060408385031215614b1457600080fd5b6000614b2285828601614898565b9250506020614b33858286016147a3565b9150509250929050565b60008060408385031215614b5057600080fd5b6000614b5e85828601614898565b925050602083013567ffffffffffffffff811115614b7b57600080fd5b614b87858286016147b8565b9150509250929050565b60008060408385031215614ba457600080fd5b6000614bb285828601614898565b9250506020614bc385828601614898565b9150509250929050565b600080600060608486031215614be257600080fd5b6000614bf086828701614898565b9350506020614c0186828701614898565b9250506040614c128682870161478e565b9150509250925092565b6000614c288383615431565b60208301905092915050565b6000614c40838361544f565b60208301905092915050565b614c5581615b75565b82525050565b614c6481615b75565b82525050565b614c7b614c7682615b75565b615d54565b82525050565b6000614c8c82615a97565b614c968185615aba565b9350614ca183615a87565b8060005b83811015614cd2578151614cb98882614c1c565b9750614cc483615aad565b925050600181019050614ca5565b5085935050505092915050565b6000614cea82615a97565b614cf48185615acb565b9350614cff83615a87565b8060005b83811015614d30578151614d178882614c34565b9750614d2283615aad565b925050600181019050614d03565b5085935050505092915050565b614d4681615b87565b82525050565b614d5581615b87565b82525050565b614d6481615b93565b82525050565b614d7381615b93565b82525050565b614d8281615c23565b82525050565b614d9181615c47565b82525050565b614da081615c6b565b82525050565b614daf81615c6b565b82525050565b614dbe81615c7d565b82525050565b614dcd81615c8f565b82525050565b614ddc81615c8f565b82525050565b614deb81615ca1565b82525050565b614dfa81615ca1565b82525050565b6000614e0b82615aa2565b614e158185615ad6565b9350614e25818560208601615cc2565b614e2e81615e50565b840191505092915050565b6000614e4482615aa2565b614e4e8185615ae7565b9350614e5e818560208601615cc2565b614e6781615e50565b840191505092915050565b6000614e7d82615aa2565b614e878185615af8565b9350614e97818560208601615cc2565b80840191505092915050565b6000614eb0601783615ae7565b91507f7365756c656d656e7420436572746966696361746575720000000000000000006000830152602082019050919050565b6000614ef0601583615ae7565b91507f436f6d6d616e6465206e6f6e206578697374616e7400000000000000000000006000830152602082019050919050565b6000614f30601683615ae7565b91507f7365756c656d656e74205472616e73706f7274657572000000000000000000006000830152602082019050919050565b6000614f70601483615ae7565b91507f7365756c656d656e7420436f6c6c6563746575720000000000000000000000006000830152602082019050919050565b6000614fb0602883615ae7565b91507f566f7573206e27657374207061732070726f707269657461697265206475207060008301527f617263656c6c652e0000000000000000000000000000000000000000000000006020830152604082019050919050565b6000615016601683615ae7565b91507f50617263656c6c65206e6f6e206578697374616e742e000000000000000000006000830152602082019050919050565b6000615056601483615ae7565b91507f5265636f6c7465206e6f6e206578697374616e740000000000000000000000006000830152602082019050919050565b6000615096600f83615ae7565b91507f43657274696669636174207669646500000000000000000000000000000000006000830152602082019050919050565b60006150d6601483615ae7565b91507f7365756c656d656e742050726f647563746575720000000000000000000000006000830152602082019050919050565b6000615116601a83615ae7565b91507f436f6e747261742064656a6120696e697469616c6973657220210000000000006000830152602082019050919050565b610160820160008201516151606000850182615431565b5060208201516151736020850182615431565b5060408201516151866040850182615431565b5060608201516151996060850182615431565b5060808201516151ac6080850182614d3d565b5060a08201516151bf60a0850182614de2565b5060c08201516151d260c0850182614c4c565b5060e08201516151e560e0850182614c4c565b506101008201516151fa610100850182614dc4565b5061012082015161520f610120850182614d3d565b50610140820151615224610140850182614c4c565b50505050565b60006080830160008301516152426000860182615431565b506020830151848203602086015261525a8282614e00565b915050604083015161526f60408601826153fc565b5060608301516152826060860182614d5b565b508091505092915050565b600060e0830160008301516152a56000860182615431565b5060208301516152b86020860182614c4c565b5060408301516152cb6040860182614c4c565b5060608301516152de6060860182615431565b5060808301516152f16080860182614d97565b5060a083015161530460a08601826153fc565b5060c083015184820360c086015261531c8282614e00565b9150508091505092915050565b6000610120830160008301516153426000860182615431565b506020830151848203602086015261535a8282614c81565b915050604083015161536f6040860182615431565b5060608301516153826060860182615431565b5060808301516153956080860182614d3d565b5060a083015184820360a08601526153ad8282614e00565b91505060c08301516153c260c0860182614c4c565b5060e08301516153d560e0860182614d5b565b506101008301518482036101008601526153ef8282614e00565b9150508091505092915050565b61540581615c09565b82525050565b61541481615c09565b82525050565b61542b61542682615c09565b615d78565b82525050565b61543a81615c13565b82525050565b61544981615c13565b82525050565b61545881615c13565b82525050565b61546f61546a82615c13565b615d82565b82525050565b60006154818289614cdf565b915061548d828861545e565b60048201915061549d828761545e565b6004820191506154ad8286614e72565b91506154b98285614c6a565b6014820191506154c9828461541a565b602082019150819050979650505050505050565b60006154e9828761545e565b6004820191506154f98286614e72565b91506155058285614c6a565b601482019150615515828461541a565b60208201915081905095945050505050565b600060408201905061553c6000830185614c5b565b6155496020830184614db5565b9392505050565b60006020820190506155656000830184614d4c565b92915050565b60006020820190506155806000830184614d79565b92915050565b600060208201905061559b6000830184614d88565b92915050565b600060608201905081810360008301526155bb8186614e39565b90506155ca602083018561540b565b6155d76040830184614c5b565b949350505050565b600060208201905081810360008301526155f881614ea3565b9050919050565b6000602082019050818103600083015261561881614ee3565b9050919050565b6000602082019050818103600083015261563881614f23565b9050919050565b6000602082019050818103600083015261565881614f63565b9050919050565b6000602082019050818103600083015261567881614fa3565b9050919050565b6000602082019050818103600083015261569881615009565b9050919050565b600060208201905081810360008301526156b881615049565b9050919050565b600060208201905081810360008301526156d881615089565b9050919050565b600060208201905081810360008301526156f8816150c9565b9050919050565b6000602082019050818103600083015261571881615109565b9050919050565b6000610160820190506157356000830184615149565b92915050565b60006020820190508181036000830152615755818461522a565b905092915050565b60006020820190508181036000830152615777818461528d565b905092915050565b600060208201905081810360008301526157998184615329565b905092915050565b60006020820190506157b66000830184615440565b92915050565b600060e0820190506157d1600083018a615440565b6157de6020830189614c5b565b6157eb6040830188614c5b565b6157f86060830187615440565b6158056080830186614da6565b61581260a083018561540b565b81810360c08301526158248184614e39565b905098975050505050505050565b60006080820190506158476000830187615440565b81810360208301526158598186614e39565b9050615868604083018561540b565b6158756060830184614d6a565b95945050505050565b60006080820190506158936000830187615440565b6158a06020830186615440565b6158ad6040830185615440565b6158ba6060830184614c5b565b95945050505050565b6000610100820190506158d9600083018b615440565b6158e6602083018a615440565b6158f36040830189615440565b6159006060830188614d4c565b81810360808301526159128187614e39565b905061592160a0830186614c5b565b61592e60c0830185614d6a565b81810360e08301526159408184614e39565b90509998505050505050505050565b600061016082019050615965600083018e615440565b615972602083018d615440565b61597f604083018c615440565b61598c606083018b615440565b615999608083018a614d4c565b6159a660a0830189614df1565b6159b360c0830188614c5b565b6159c060e0830187614c5b565b6159ce610100830186614dd3565b6159dc610120830185614d4c565b6159ea610140830184614c5b565b9c9b505050505050505050505050565b6000604051905081810181811067ffffffffffffffff82111715615a2157615a20615e21565b5b8060405250919050565b600067ffffffffffffffff821115615a4657615a45615e21565b5b602082029050602081019050919050565b600067ffffffffffffffff821115615a7257615a71615e21565b5b601f19601f8301169050602081019050919050565b6000819050602082019050919050565b600081519050919050565b600081519050919050565b6000602082019050919050565b600082825260208201905092915050565b600081905092915050565b600082825260208201905092915050565b600082825260208201905092915050565b600081905092915050565b6000615b0e82615c13565b9150615b1983615c13565b92508163ffffffff0483118215151615615b3657615b35615d94565b5b828202905092915050565b6000615b4c82615c13565b9150615b5783615c13565b925082821015615b6a57615b69615d94565b5b828203905092915050565b6000615b8082615be9565b9050919050565b60008115159050919050565b6000819050919050565b6000819050615bab82615e7b565b919050565b6000819050615bbe82615e8f565b919050565b6000819050615bd182615ea3565b919050565b6000819050615be482615eb7565b919050565b600073ffffffffffffffffffffffffffffffffffffffff82169050919050565b6000819050919050565b600063ffffffff82169050919050565b6000615c2e82615c35565b9050919050565b6000615c4082615be9565b9050919050565b6000615c5282615c59565b9050919050565b6000615c6482615be9565b9050919050565b6000615c7682615b9d565b9050919050565b6000615c8882615bb0565b9050919050565b6000615c9a82615bc3565b9050919050565b6000615cac82615bd6565b9050919050565b82818337600083830152505050565b60005b83811015615ce0578082015181840152602081019050615cc5565b83811115615cef576000848401525b50505050565b60006002820490506001821680615d0d57607f821691505b60208210811415615d2157615d20615df2565b5b50919050565b6000615d3282615c13565b915063ffffffff821415615d4957615d48615d94565b5b600182019050919050565b6000615d5f82615d66565b9050919050565b6000615d7182615e6e565b9050919050565b6000819050919050565b6000615d8d82615e61565b9050919050565b7f4e487b7100000000000000000000000000000000000000000000000000000000600052601160045260246000fd5b7f4e487b7100000000000000000000000000000000000000000000000000000000600052602160045260246000fd5b7f4e487b7100000000000000000000000000000000000000000000000000000000600052602260045260246000fd5b7f4e487b7100000000000000000000000000000000000000000000000000000000600052604160045260246000fd5b6000601f19601f8301169050919050565b60008160e01b9050919050565b60008160601b9050919050565b60038110615e8c57615e8b615dc3565b5b50565b60088110615ea057615e9f615dc3565b5b50565b60038110615eb457615eb3615dc3565b5b50565b60028110615ec857615ec7615dc3565b5b50565b615ed481615b75565b8114615edf57600080fd5b50565b615eeb81615b87565b8114615ef657600080fd5b50565b615f0281615b93565b8114615f0d57600080fd5b50565b60038110615f1d57600080fd5b50565b60028110615f2d57600080fd5b50565b615f3981615c13565b8114615f4457600080fd5b5056fea2646970667358221220988da0e02c4f5de43b1b0e5624d0dc5f39e56818f42ebb8dd1ff1edf01ddb9ea64736f6c63430008000033",
  "linkReferences": {},
  "deployedLinkReferences": {}
}