{
  "_format": "hh-sol-artifact-1",
  "contractName": "CollecteurExportateur",
  "sourceName": "contracts/CollecteurExportateur.sol",
  "abi": [
    {
      "anonymous": false,
      "inputs": [
        {
          "indexed": true,
          "internalType": "address",
          "name": "collecteur",
          "type": "address"
        },
        {
          "indexed": false,
          "internalType": "uint32",
          "name": "idLotProduit",
          "type": "uint32"
        },
        {
          "indexed": false,
          "internalType": "uint32",
          "name": "quantite",
          "type": "uint32"
        },
        {
          "indexed": false,
          "internalType": "uint32",
          "name": "prix",
          "type": "uint32"
        }
      ],
      "name": "AjoutLotProduit",
      "type": "event"
    },
    {
      "anonymous": false,
      "inputs": [
        {
          "indexed": true,
          "internalType": "address",
          "name": "exportateur",
          "type": "address"
        },
        {
          "indexed": false,
          "internalType": "uint32",
          "name": "idProduit",
          "type": "uint32"
        }
      ],
      "name": "CommandePasser",
      "type": "event"
    },
    {
      "anonymous": false,
      "inputs": [
        {
          "indexed": true,
          "internalType": "uint32",
          "name": "idProduit",
          "type": "uint32"
        },
        {
          "indexed": false,
          "internalType": "string",
          "name": "cid",
          "type": "string"
        },
        {
          "indexed": false,
          "internalType": "uint256",
          "name": "timestamp",
          "type": "uint256"
        }
      ],
      "name": "ConditionEnregistree",
      "type": "event"
    },
    {
      "anonymous": false,
      "inputs": [
        {
          "indexed": true,
          "internalType": "uint32",
          "name": "idProduit",
          "type": "uint32"
        },
        {
          "indexed": false,
          "internalType": "uint32",
          "name": "idPaiement",
          "type": "uint32"
        },
        {
          "indexed": false,
          "internalType": "address",
          "name": "payeur",
          "type": "address"
        },
        {
          "indexed": false,
          "internalType": "uint32",
          "name": "montant",
          "type": "uint32"
        },
        {
          "indexed": false,
          "internalType": "enum StructLib.ModePaiement",
          "name": "mode",
          "type": "uint8"
        }
      ],
      "name": "PaiementEffectue",
      "type": "event"
    },
    {
      "anonymous": false,
      "inputs": [
        {
          "indexed": true,
          "internalType": "uint32",
          "name": "idProduit",
          "type": "uint32"
        },
        {
          "indexed": false,
          "internalType": "uint32",
          "name": "quantite",
          "type": "uint32"
        },
        {
          "indexed": false,
          "internalType": "uint32",
          "name": "idRecolte",
          "type": "uint32"
        }
      ],
      "name": "ProduitAjoute",
      "type": "event"
    },
    {
      "anonymous": false,
      "inputs": [
        {
          "indexed": true,
          "internalType": "uint32",
          "name": "idProduit",
          "type": "uint32"
        },
        {
          "indexed": false,
          "internalType": "bool",
          "name": "valide",
          "type": "bool"
        }
      ],
      "name": "ProduitValide",
      "type": "event"
    },
    {
      "anonymous": false,
      "inputs": [
        {
          "indexed": true,
          "internalType": "uint32",
          "name": "idCommande",
          "type": "uint32"
        },
        {
          "indexed": false,
          "internalType": "enum StructLib.StatutProduit",
          "name": "status",
          "type": "uint8"
        }
      ],
      "name": "StatusCommandeMisAJour",
      "type": "event"
    },
    {
      "anonymous": false,
      "inputs": [
        {
          "indexed": true,
          "internalType": "uint32",
          "name": "idProduit",
          "type": "uint32"
        },
        {
          "indexed": false,
          "internalType": "enum StructLib.StatutTransport",
          "name": "statut",
          "type": "uint8"
        }
      ],
      "name": "StatutTransportMisAJour",
      "type": "event"
    },
    {
      "stateMutability": "payable",
      "type": "fallback"
    },
    {
      "inputs": [
        {
          "internalType": "uint32[]",
          "name": "_idProduits",
          "type": "uint32[]"
        },
        {
          "internalType": "string",
          "name": "_cid",
          "type": "string"
        },
        {
          "internalType": "uint32",
          "name": "_prix",
          "type": "uint32"
        }
      ],
      "name": "ajouterLotProduit",
      "outputs": [],
      "stateMutability": "nonpayable",
      "type": "function"
    },
    {
      "inputs": [
        {
          "internalType": "uint32",
          "name": "_idCommandeRecolte",
          "type": "uint32"
        },
        {
          "internalType": "uint32",
          "name": "_idRecolte",
          "type": "uint32"
        },
        {
          "internalType": "uint32",
          "name": "_quantite",
          "type": "uint32"
        },
        {
          "internalType": "address",
          "name": "_collecteur",
          "type": "address"
        }
      ],
      "name": "ajouterProduit",
      "outputs": [],
      "stateMutability": "nonpayable",
      "type": "function"
    },
    {
      "inputs": [
        {
          "internalType": "uint32",
          "name": "idCommande",
          "type": "uint32"
        },
        {
          "internalType": "address",
          "name": "transporteur",
          "type": "address"
        }
      ],
      "name": "choisirTransporteurCommandeProduit",
      "outputs": [],
      "stateMutability": "nonpayable",
      "type": "function"
    },
    {
      "inputs": [
        {
          "internalType": "uint32",
          "name": "",
          "type": "uint32"
        }
      ],
      "name": "commandes",
      "outputs": [
        {
          "internalType": "uint32",
          "name": "id",
          "type": "uint32"
        },
        {
          "internalType": "uint32",
          "name": "idLotProduit",
          "type": "uint32"
        },
        {
          "internalType": "uint32",
          "name": "quantite",
          "type": "uint32"
        },
        {
          "internalType": "uint32",
          "name": "prix",
          "type": "uint32"
        },
        {
          "internalType": "bool",
          "name": "payer",
          "type": "bool"
        },
        {
          "internalType": "enum StructLib.StatutTransport",
          "name": "statutTransport",
          "type": "uint8"
        },
        {
          "internalType": "address",
          "name": "collecteur",
          "type": "address"
        },
        {
          "internalType": "address",
          "name": "exportateur",
          "type": "address"
        },
        {
          "internalType": "enum StructLib.StatutProduit",
          "name": "statutProduit",
          "type": "uint8"
        },
        {
          "internalType": "bool",
          "name": "enregistre",
          "type": "bool"
        },
        {
          "internalType": "bool",
          "name": "enregistrerCondition",
          "type": "bool"
        },
        {
          "internalType": "address",
          "name": "transporteur",
          "type": "address"
        }
      ],
      "stateMutability": "view",
      "type": "function"
    },
    {
      "inputs": [],
      "name": "compteurCommandes",
      "outputs": [
        {
          "internalType": "uint32",
          "name": "",
          "type": "uint32"
        }
      ],
      "stateMutability": "view",
      "type": "function"
    },
    {
      "inputs": [],
      "name": "compteurLotProduits",
      "outputs": [
        {
          "internalType": "uint32",
          "name": "",
          "type": "uint32"
        }
      ],
      "stateMutability": "view",
      "type": "function"
    },
    {
      "inputs": [],
      "name": "compteurProduits",
      "outputs": [
        {
          "internalType": "uint32",
          "name": "",
          "type": "uint32"
        }
      ],
      "stateMutability": "view",
      "type": "function"
    },
    {
      "inputs": [
        {
          "internalType": "uint32",
          "name": "",
          "type": "uint32"
        }
      ],
      "name": "conditions",
      "outputs": [
        {
          "internalType": "uint32",
          "name": "id",
          "type": "uint32"
        },
        {
          "internalType": "string",
          "name": "cid",
          "type": "string"
        },
        {
          "internalType": "uint256",
          "name": "timestamp",
          "type": "uint256"
        },
        {
          "internalType": "bytes32",
          "name": "hashMerkle",
          "type": "bytes32"
        }
      ],
      "stateMutability": "view",
      "type": "function"
    },
    {
      "inputs": [
        {
          "internalType": "uint32",
          "name": "_idCommande",
          "type": "uint32"
        },
        {
          "internalType": "uint32",
          "name": "_montant",
          "type": "uint32"
        },
        {
          "internalType": "enum StructLib.ModePaiement",
          "name": "_mode",
          "type": "uint8"
        }
      ],
      "name": "effectuerPaiement",
      "outputs": [],
      "stateMutability": "payable",
      "type": "function"
    },
    {
      "inputs": [
        {
          "internalType": "uint32",
          "name": "_idCommande",
          "type": "uint32"
        },
        {
          "internalType": "bool",
          "name": "_enregistre",
          "type": "bool"
        },
        {
          "internalType": "address",
          "name": "_appelleur",
          "type": "address"
        }
      ],
      "name": "enregistrerCommande",
      "outputs": [],
      "stateMutability": "nonpayable",
      "type": "function"
    },
    {
      "inputs": [
        {
          "internalType": "uint32",
          "name": "_idCommande",
          "type": "uint32"
        },
        {
          "internalType": "string",
          "name": "_cid",
          "type": "string"
        }
      ],
      "name": "enregistrerCondition",
      "outputs": [],
      "stateMutability": "nonpayable",
      "type": "function"
    },
    {
      "inputs": [],
      "name": "gestionnaireActeurs",
      "outputs": [
        {
          "internalType": "contract GestionnaireActeurs",
          "name": "",
          "type": "address"
        }
      ],
      "stateMutability": "view",
      "type": "function"
    },
    {
      "inputs": [
        {
          "internalType": "uint32",
          "name": "id",
          "type": "uint32"
        }
      ],
      "name": "getCommande",
      "outputs": [
        {
          "components": [
            {
              "internalType": "uint32",
              "name": "id",
              "type": "uint32"
            },
            {
              "internalType": "uint32",
              "name": "idLotProduit",
              "type": "uint32"
            },
            {
              "internalType": "uint32",
              "name": "quantite",
              "type": "uint32"
            },
            {
              "internalType": "uint32",
              "name": "prix",
              "type": "uint32"
            },
            {
              "internalType": "bool",
              "name": "payer",
              "type": "bool"
            },
            {
              "internalType": "enum StructLib.StatutTransport",
              "name": "statutTransport",
              "type": "uint8"
            },
            {
              "internalType": "address",
              "name": "collecteur",
              "type": "address"
            },
            {
              "internalType": "address",
              "name": "exportateur",
              "type": "address"
            },
            {
              "internalType": "enum StructLib.StatutProduit",
              "name": "statutProduit",
              "type": "uint8"
            },
            {
              "internalType": "bool",
              "name": "enregistre",
              "type": "bool"
            },
            {
              "internalType": "bool",
              "name": "enregistrerCondition",
              "type": "bool"
            },
            {
              "internalType": "address",
              "name": "transporteur",
              "type": "address"
            }
          ],
          "internalType": "struct StructLib.CommandeProduit",
          "name": "",
          "type": "tuple"
        }
      ],
      "stateMutability": "view",
      "type": "function"
    },
    {
      "inputs": [],
      "name": "getCompteurCommande",
      "outputs": [
        {
          "internalType": "uint32",
          "name": "",
          "type": "uint32"
        }
      ],
      "stateMutability": "view",
      "type": "function"
    },
    {
      "inputs": [],
      "name": "getCompteurCondition",
      "outputs": [
        {
          "internalType": "uint32",
          "name": "",
          "type": "uint32"
        }
      ],
      "stateMutability": "view",
      "type": "function"
    },
    {
      "inputs": [],
      "name": "getCompteurPaiement",
      "outputs": [
        {
          "internalType": "uint32",
          "name": "",
          "type": "uint32"
        }
      ],
      "stateMutability": "view",
      "type": "function"
    },
    {
      "inputs": [],
      "name": "getCompteurProduit",
      "outputs": [
        {
          "internalType": "uint32",
          "name": "",
          "type": "uint32"
        }
      ],
      "stateMutability": "view",
      "type": "function"
    },
    {
      "inputs": [
        {
          "internalType": "uint32",
          "name": "id",
          "type": "uint32"
        }
      ],
      "name": "getCondition",
      "outputs": [
        {
          "components": [
            {
              "internalType": "uint32",
              "name": "id",
              "type": "uint32"
            },
            {
              "internalType": "string",
              "name": "cid",
              "type": "string"
            },
            {
              "internalType": "uint256",
              "name": "timestamp",
              "type": "uint256"
            },
            {
              "internalType": "bytes32",
              "name": "hashMerkle",
              "type": "bytes32"
            }
          ],
          "internalType": "struct StructLib.EnregistrementCondition",
          "name": "",
          "type": "tuple"
        }
      ],
      "stateMutability": "view",
      "type": "function"
    },
    {
      "inputs": [
        {
          "internalType": "uint32",
          "name": "id",
          "type": "uint32"
        }
      ],
      "name": "getLotProduit",
      "outputs": [
        {
          "components": [
            {
              "internalType": "uint32",
              "name": "id",
              "type": "uint32"
            },
            {
              "internalType": "uint32[]",
              "name": "idRecolte",
              "type": "uint32[]"
            },
            {
              "internalType": "uint32[]",
              "name": "idCommandeRecoltes",
              "type": "uint32[]"
            },
            {
              "internalType": "uint32",
              "name": "quantite",
              "type": "uint32"
            },
            {
              "internalType": "uint32",
              "name": "prix",
              "type": "uint32"
            },
            {
              "internalType": "address",
              "name": "collecteur",
              "type": "address"
            },
            {
              "internalType": "string",
              "name": "cid",
              "type": "string"
            },
            {
              "internalType": "bytes32",
              "name": "hashMerkle",
              "type": "bytes32"
            }
          ],
          "internalType": "struct StructLib.LotProduit",
          "name": "",
          "type": "tuple"
        }
      ],
      "stateMutability": "view",
      "type": "function"
    },
    {
      "inputs": [
        {
          "internalType": "uint32",
          "name": "id",
          "type": "uint32"
        }
      ],
      "name": "getPaiement",
      "outputs": [
        {
          "components": [
            {
              "internalType": "uint32",
              "name": "id",
              "type": "uint32"
            },
            {
              "internalType": "address",
              "name": "payeur",
              "type": "address"
            },
            {
              "internalType": "address",
              "name": "vendeur",
              "type": "address"
            },
            {
              "internalType": "uint32",
              "name": "montant",
              "type": "uint32"
            },
            {
              "internalType": "enum StructLib.ModePaiement",
              "name": "mode",
              "type": "uint8"
            },
            {
              "internalType": "uint256",
              "name": "timestamp",
              "type": "uint256"
            },
            {
              "internalType": "string",
              "name": "hashMerkle",
              "type": "string"
            }
          ],
          "internalType": "struct StructLib.Paiement",
          "name": "",
          "type": "tuple"
        }
      ],
      "stateMutability": "view",
      "type": "function"
    },
    {
      "inputs": [
        {
          "internalType": "uint32",
          "name": "id",
          "type": "uint32"
        }
      ],
      "name": "getProduit",
      "outputs": [
        {
          "components": [
            {
              "internalType": "uint32",
              "name": "id",
              "type": "uint32"
            },
            {
              "internalType": "uint32",
              "name": "idRecolte",
              "type": "uint32"
            },
            {
              "internalType": "uint32",
              "name": "idCommandeRecolte",
              "type": "uint32"
            },
            {
              "internalType": "uint32",
              "name": "quantite",
              "type": "uint32"
            },
            {
              "internalType": "address",
              "name": "collecteur",
              "type": "address"
            },
            {
              "internalType": "bool",
              "name": "enregistre",
              "type": "bool"
            }
          ],
          "internalType": "struct StructLib.Produit",
          "name": "",
          "type": "tuple"
        }
      ],
      "stateMutability": "view",
      "type": "function"
    },
    {
      "inputs": [
        {
          "internalType": "address",
          "name": "_gestionnaireActeurs",
          "type": "address"
        }
      ],
      "name": "initialiser",
      "outputs": [],
      "stateMutability": "nonpayable",
      "type": "function"
    },
    {
      "inputs": [
        {
          "internalType": "uint32",
          "name": "",
          "type": "uint32"
        }
      ],
      "name": "lotProduits",
      "outputs": [
        {
          "internalType": "uint32",
          "name": "id",
          "type": "uint32"
        },
        {
          "internalType": "uint32",
          "name": "quantite",
          "type": "uint32"
        },
        {
          "internalType": "uint32",
          "name": "prix",
          "type": "uint32"
        },
        {
          "internalType": "address",
          "name": "collecteur",
          "type": "address"
        },
        {
          "internalType": "string",
          "name": "cid",
          "type": "string"
        },
        {
          "internalType": "bytes32",
          "name": "hashMerkle",
          "type": "bytes32"
        }
      ],
      "stateMutability": "view",
      "type": "function"
    },
    {
      "inputs": [
        {
          "internalType": "uint32",
          "name": "_idCommande",
          "type": "uint32"
        },
        {
          "internalType": "enum StructLib.StatutProduit",
          "name": "_status",
          "type": "uint8"
        }
      ],
      "name": "mettreAJourStatutCommande",
      "outputs": [],
      "stateMutability": "nonpayable",
      "type": "function"
    },
    {
      "inputs": [
        {
          "internalType": "uint32",
          "name": "_idCommande",
          "type": "uint32"
        },
        {
          "internalType": "enum StructLib.StatutTransport",
          "name": "_statut",
          "type": "uint8"
        }
      ],
      "name": "mettreAJourStatutTransport",
      "outputs": [],
      "stateMutability": "nonpayable",
      "type": "function"
    },
    {
      "inputs": [
        {
          "internalType": "uint32",
          "name": "",
          "type": "uint32"
        }
      ],
      "name": "paiements",
      "outputs": [
        {
          "internalType": "uint32",
          "name": "id",
          "type": "uint32"
        },
        {
          "internalType": "address",
          "name": "payeur",
          "type": "address"
        },
        {
          "internalType": "address",
          "name": "vendeur",
          "type": "address"
        },
        {
          "internalType": "uint32",
          "name": "montant",
          "type": "uint32"
        },
        {
          "internalType": "enum StructLib.ModePaiement",
          "name": "mode",
          "type": "uint8"
        },
        {
          "internalType": "uint256",
          "name": "timestamp",
          "type": "uint256"
        },
        {
          "internalType": "string",
          "name": "hashMerkle",
          "type": "string"
        }
      ],
      "stateMutability": "view",
      "type": "function"
    },
    {
      "inputs": [
        {
          "internalType": "uint32",
          "name": "_idLotProduit",
          "type": "uint32"
        },
        {
          "internalType": "uint32",
          "name": "_quantite",
          "type": "uint32"
        }
      ],
      "name": "passerCommande",
      "outputs": [],
      "stateMutability": "nonpayable",
      "type": "function"
    },
    {
      "inputs": [
        {
          "internalType": "uint32",
          "name": "",
          "type": "uint32"
        }
      ],
      "name": "produits",
      "outputs": [
        {
          "internalType": "uint32",
          "name": "id",
          "type": "uint32"
        },
        {
          "internalType": "uint32",
          "name": "idRecolte",
          "type": "uint32"
        },
        {
          "internalType": "uint32",
          "name": "idCommandeRecolte",
          "type": "uint32"
        },
        {
          "internalType": "uint32",
          "name": "quantite",
          "type": "uint32"
        },
        {
          "internalType": "address",
          "name": "collecteur",
          "type": "address"
        },
        {
          "internalType": "bool",
          "name": "enregistre",
          "type": "bool"
        }
      ],
      "stateMutability": "view",
      "type": "function"
    },
    {
      "inputs": [
        {
          "internalType": "address",
          "name": "_addr",
          "type": "address"
        }
      ],
      "name": "setGestionnaireActeurs",
      "outputs": [],
      "stateMutability": "nonpayable",
      "type": "function"
    },
    {
      "inputs": [
        {
          "internalType": "uint32",
          "name": "_idLotProduit",
          "type": "uint32"
        },
        {
          "internalType": "uint32",
          "name": "_prix",
          "type": "uint32"
        }
      ],
      "name": "setPriceProduit",
      "outputs": [],
      "stateMutability": "nonpayable",
      "type": "function"
    },
    {
      "stateMutability": "payable",
      "type": "receive"
    }
  ],
  "bytecode": "0x608060405234801561001057600080fd5b506159e880620000216000396000f3fe6080604052600436106101d05760003560e01c80636f3fd6c5116100f75780639f86734011610095578063e6cab64c11610064578063e6cab64c146106de578063edd13163146106fa578063f6980cc914610725578063fdccf43314610765576101d7565b80639f86734014610621578063b9e91d701461064a578063ba9ba24014610673578063e550ef99146106b5576101d7565b806389c1ca53116100d157806389c1ca53146105795780638a16156e146105a257806393c2f9b4146105cb5780639e942cd4146105f6576101d7565b80636f3fd6c5146104c35780637babcffa1461050b5780638777654f1461054e576101d7565b806341fae4db1161016f5780634dafb5011161013e5780634dafb501146104095780634fbdf4fe146104325780635293ea511461045b578063693dff1f14610498576101d7565b806341fae4db146103225780634851ca821461035f578063488dee20146103a157806348d2cee0146103cc576101d7565b806315a3374c116101ab57806315a3374c1461026a5780632477b51014610293578063369064b9146102bc5780633e7a6049146102f9576101d7565b806241fb4e146101d957806301197018146102025780630b215e641461022d576101d7565b366101d757005b005b3480156101e557600080fd5b5061020060048036038101906101fb9190614517565b610790565b005b34801561020e57600080fd5b50610217610987565b6040516102249190615151565b60405180910390f35b34801561023957600080fd5b50610254600480360381019061024f91906144ee565b6109a1565b6040516102619190615114565b60405180910390f35b34801561027657600080fd5b50610291600480360381019061028c919061466e565b610bf5565b005b34801561029f57600080fd5b506102ba60048036038101906102b591906145a2565b610dcc565b005b3480156102c857600080fd5b506102e360048036038101906102de91906144ee565b611016565b6040516102f09190615136565b60405180910390f35b34801561030557600080fd5b50610320600480360381019061031b919061441d565b611157565b005b34801561032e57600080fd5b50610349600480360381019061034491906144ee565b61119b565b60405161035691906150d0565b60405180910390f35b34801561036b57600080fd5b50610386600480360381019061038191906144ee565b6112a0565b6040516103989695949392919061533b565b60405180910390f35b3480156103ad57600080fd5b506103b6611349565b6040516103c39190615151565b60405180910390f35b3480156103d857600080fd5b506103f360048036038101906103ee91906144ee565b61135f565b60405161040091906150f2565b60405180910390f35b34801561041557600080fd5b50610430600480360381019061042b919061466e565b611605565b005b34801561043e57600080fd5b506104596004803603810190610454919061441d565b611cc8565b005b34801561046757600080fd5b50610482600480360381019061047d91906144ee565b611d41565b60405161048f91906150b4565b60405180910390f35b3480156104a457600080fd5b506104ad612074565b6040516104ba9190615151565b60405180910390f35b3480156104cf57600080fd5b506104ea60048036038101906104e591906144ee565b61208a565b6040516105029c9b9a9998979695949392919061539c565b60405180910390f35b34801561051757600080fd5b50610532600480360381019061052d91906144ee565b6121cb565b604051610545979695949392919061516c565b60405180910390f35b34801561055a57600080fd5b50610563612302565b6040516105709190615151565b60405180910390f35b34801561058557600080fd5b506105a0600480360381019061059b91906146f9565b61231c565b005b3480156105ae57600080fd5b506105c960048036038101906105c491906145de565b61255b565b005b3480156105d757600080fd5b506105e061279f565b6040516105ed9190615151565b60405180910390f35b34801561060257600080fd5b5061060b6127b9565b6040516106189190614fb3565b60405180910390f35b34801561062d57600080fd5b5061064860048036038101906106439190614553565b6127df565b005b34801561065657600080fd5b50610671600480360381019061066c9190614446565b6128f9565b005b34801561067f57600080fd5b5061069a600480360381019061069591906144ee565b613148565b6040516106ac969594939291906152d3565b60405180910390f35b3480156106c157600080fd5b506106dc60048036038101906106d7919061461a565b61325c565b005b6106f860048036038101906106f391906146aa565b61357a565b005b34801561070657600080fd5b5061070f613d5c565b60405161071c9190615151565b60405180910390f35b34801561073157600080fd5b5061074c600480360381019061074791906144ee565b613d72565b60405161075c9493929190615227565b60405180910390f35b34801561077157600080fd5b5061077a613e3a565b6040516107879190615151565b60405180910390f35b600660009054906101000a900473ffffffffffffffffffffffffffffffffffffffff1673ffffffffffffffffffffffffffffffffffffffff1663d1e47bb33360066040518363ffffffff1660e01b81526004016107ee929190614f8a565b60206040518083038186803b15801561080657600080fd5b505afa15801561081a573d6000803e3d6000fd5b505050506040513d601f19601f8201168201806040525081019061083e91906144c5565b61087d576040517f08c379a000000000000000000000000000000000000000000000000000000000815260040161087490615074565b60405180910390fd5b600560009054906101000a900463ffffffff1663ffffffff168263ffffffff1611156108a857600080fd5b3373ffffffffffffffffffffffffffffffffffffffff16600460008463ffffffff1663ffffffff16815260200190815260200160002060020160009054906101000a900473ffffffffffffffffffffffffffffffffffffffff1673ffffffffffffffffffffffffffffffffffffffff161461092257600080fd5b80600460008463ffffffff1663ffffffff16815260200190815260200160002060030160006101000a81548173ffffffffffffffffffffffffffffffffffffffff021916908373ffffffffffffffffffffffffffffffffffffffff1602179055505050565b6000600560049054906101000a900463ffffffff16905090565b6109a9613e54565b600360008363ffffffff1663ffffffff1681526020019081526020016000206040518060e00160405290816000820160009054906101000a900463ffffffff1663ffffffff1663ffffffff1681526020016000820160049054906101000a900473ffffffffffffffffffffffffffffffffffffffff1673ffffffffffffffffffffffffffffffffffffffff1673ffffffffffffffffffffffffffffffffffffffff1681526020016001820160009054906101000a900473ffffffffffffffffffffffffffffffffffffffff1673ffffffffffffffffffffffffffffffffffffffff1673ffffffffffffffffffffffffffffffffffffffff1681526020016001820160149054906101000a900463ffffffff1663ffffffff1663ffffffff1681526020016001820160189054906101000a900460ff166002811115610b16577f4e487b7100000000000000000000000000000000000000000000000000000000600052602160045260246000fd5b6002811115610b4e577f4e487b7100000000000000000000000000000000000000000000000000000000600052602160045260246000fd5b815260200160028201548152602001600382018054610b6c90615767565b80601f0160208091040260200160405190810160405280929190818152602001828054610b9890615767565b8015610be55780601f10610bba57610100808354040283529160200191610be5565b820191906000526020600020905b815481529060010190602001808311610bc857829003601f168201915b5050505050815250509050919050565b600660009054906101000a900473ffffffffffffffffffffffffffffffffffffffff1673ffffffffffffffffffffffffffffffffffffffff1663d1e47bb33360036040518363ffffffff1660e01b8152600401610c53929190614f8a565b60206040518083038186803b158015610c6b57600080fd5b505afa158015610c7f573d6000803e3d6000fd5b505050506040513d601f19601f82011682018060405250810190610ca391906144c5565b610ce2576040517f08c379a0000000000000000000000000000000000000000000000000000000008152600401610cd990615054565b60405180910390fd5b600560089054906101000a900463ffffffff1663ffffffff168263ffffffff161115610d0d57600080fd5b3373ffffffffffffffffffffffffffffffffffffffff16600160008463ffffffff1663ffffffff16815260200190815260200160002060030160089054906101000a900473ffffffffffffffffffffffffffffffffffffffff1673ffffffffffffffffffffffffffffffffffffffff1614610d8757600080fd5b80600160008463ffffffff1663ffffffff16815260200190815260200160002060030160046101000a81548163ffffffff021916908363ffffffff1602179055505050565b600660009054906101000a900473ffffffffffffffffffffffffffffffffffffffff1673ffffffffffffffffffffffffffffffffffffffff1663d1e47bb33360066040518363ffffffff1660e01b8152600401610e2a929190614f8a565b60206040518083038186803b158015610e4257600080fd5b505afa158015610e56573d6000803e3d6000fd5b505050506040513d601f19601f82011682018060405250810190610e7a91906144c5565b610eb9576040517f08c379a0000000000000000000000000000000000000000000000000000000008152600401610eb090615074565b60405180910390fd5b600180811115610ef2577f4e487b7100000000000000000000000000000000000000000000000000000000600052602160045260246000fd5b600460008463ffffffff1663ffffffff16815260200190815260200160002060000160119054906101000a900460ff166001811115610f5a577f4e487b7100000000000000000000000000000000000000000000000000000000600052602160045260246000fd5b14610f6457600080fd5b80600460008463ffffffff1663ffffffff16815260200190815260200160002060020160146101000a81548160ff02191690836002811115610fcf577f4e487b7100000000000000000000000000000000000000000000000000000000600052602160045260246000fd5b02179055508163ffffffff167fab130106cad960e950d3b5ff9c896fdd5af7f3144699e12c2c8429afd4abd7ab8260405161100a9190614fce565b60405180910390a25050565b61101e613f01565b6000808363ffffffff1663ffffffff1681526020019081526020016000206040518060c00160405290816000820160009054906101000a900463ffffffff1663ffffffff1663ffffffff1681526020016000820160049054906101000a900463ffffffff1663ffffffff1663ffffffff1681526020016000820160089054906101000a900463ffffffff1663ffffffff1663ffffffff16815260200160008201600c9054906101000a900463ffffffff1663ffffffff1663ffffffff1681526020016001820160009054906101000a900473ffffffffffffffffffffffffffffffffffffffff1673ffffffffffffffffffffffffffffffffffffffff1673ffffffffffffffffffffffffffffffffffffffff1681526020016001820160149054906101000a900460ff1615151515815250509050919050565b80600660006101000a81548173ffffffffffffffffffffffffffffffffffffffff021916908373ffffffffffffffffffffffffffffffffffffffff16021790555050565b6111a3613f67565b600260008363ffffffff1663ffffffff1681526020019081526020016000206040518060800160405290816000820160009054906101000a900463ffffffff1663ffffffff1663ffffffff16815260200160018201805461120390615767565b80601f016020809104026020016040519081016040528092919081815260200182805461122f90615767565b801561127c5780601f106112515761010080835404028352916020019161127c565b820191906000526020600020905b81548152906001019060200180831161125f57829003601f168201915b50505050508152602001600282015481526020016003820154815250509050919050565b60006020528060005260406000206000915090508060000160009054906101000a900463ffffffff16908060000160049054906101000a900463ffffffff16908060000160089054906101000a900463ffffffff169080600001600c9054906101000a900463ffffffff16908060010160009054906101000a900473ffffffffffffffffffffffffffffffffffffffff16908060010160149054906101000a900460ff16905086565b600560009054906101000a900463ffffffff1681565b611367613f98565b600160008363ffffffff1663ffffffff168152602001908152602001600020604051806101000160405290816000820160009054906101000a900463ffffffff1663ffffffff1663ffffffff1681526020016001820180548060200260200160405190810160405280929190818152602001828054801561143357602002820191906000526020600020906000905b82829054906101000a900463ffffffff1663ffffffff16815260200190600401906020826003010492830192600103820291508084116113f65790505b50505050508152602001600282018054806020026020016040519081016040528092919081815260200182805480156114b757602002820191906000526020600020906000905b82829054906101000a900463ffffffff1663ffffffff168152602001906004019060208260030104928301926001038202915080841161147a5790505b505050505081526020016003820160009054906101000a900463ffffffff1663ffffffff1663ffffffff1681526020016003820160049054906101000a900463ffffffff1663ffffffff1663ffffffff1681526020016003820160089054906101000a900473ffffffffffffffffffffffffffffffffffffffff1673ffffffffffffffffffffffffffffffffffffffff1673ffffffffffffffffffffffffffffffffffffffff16815260200160048201805461157290615767565b80601f016020809104026020016040519081016040528092919081815260200182805461159e90615767565b80156115eb5780601f106115c0576101008083540402835291602001916115eb565b820191906000526020600020905b8154815290600101906020018083116115ce57829003601f168201915b505050505081526020016005820154815250509050919050565b600660009054906101000a900473ffffffffffffffffffffffffffffffffffffffff1673ffffffffffffffffffffffffffffffffffffffff1663d1e47bb33360066040518363ffffffff1660e01b8152600401611663929190614f8a565b60206040518083038186803b15801561167b57600080fd5b505afa15801561168f573d6000803e3d6000fd5b505050506040513d601f19601f820116820180604052508101906116b391906144c5565b6116f2576040517f08c379a00000000000000000000000000000000000000000000000000000000081526004016116e990615074565b60405180910390fd5b600160008363ffffffff1663ffffffff16815260200190815260200160002060030160009054906101000a900463ffffffff1663ffffffff168163ffffffff16111561173d57600080fd5b6000600160008463ffffffff1663ffffffff16815260200190815260200160002060030160049054906101000a900463ffffffff168261177d9190615599565b9050600082600160008663ffffffff1663ffffffff16815260200190815260200160002060030160009054906101000a900463ffffffff166117bf91906155d7565b905080600160008663ffffffff1663ffffffff16815260200190815260200160002060030160006101000a81548163ffffffff021916908363ffffffff1602179055506005600081819054906101000a900463ffffffff168092919061182490615799565b91906101000a81548163ffffffff021916908363ffffffff16021790555050604051806101800160405280600560009054906101000a900463ffffffff1663ffffffff1681526020018563ffffffff1681526020018463ffffffff1681526020018363ffffffff168152602001600015158152602001600060018111156118d4577f4e487b7100000000000000000000000000000000000000000000000000000000600052602160045260246000fd5b8152602001600160008763ffffffff1663ffffffff16815260200190815260200160002060030160089054906101000a900473ffffffffffffffffffffffffffffffffffffffff1673ffffffffffffffffffffffffffffffffffffffff1681526020013373ffffffffffffffffffffffffffffffffffffffff1681526020016000600281111561198d577f4e487b7100000000000000000000000000000000000000000000000000000000600052602160045260246000fd5b8152602001600015158152602001600015158152602001600073ffffffffffffffffffffffffffffffffffffffff1681525060046000600560009054906101000a900463ffffffff1663ffffffff1663ffffffff16815260200190815260200160002060008201518160000160006101000a81548163ffffffff021916908363ffffffff16021790555060208201518160000160046101000a81548163ffffffff021916908363ffffffff16021790555060408201518160000160086101000a81548163ffffffff021916908363ffffffff160217905550606082015181600001600c6101000a81548163ffffffff021916908363ffffffff16021790555060808201518160000160106101000a81548160ff02191690831515021790555060a08201518160000160116101000a81548160ff02191690836001811115611afd577f4e487b7100000000000000000000000000000000000000000000000000000000600052602160045260246000fd5b021790555060c08201518160010160006101000a81548173ffffffffffffffffffffffffffffffffffffffff021916908373ffffffffffffffffffffffffffffffffffffffff16021790555060e08201518160020160006101000a81548173ffffffffffffffffffffffffffffffffffffffff021916908373ffffffffffffffffffffffffffffffffffffffff1602179055506101008201518160020160146101000a81548160ff02191690836002811115611be2577f4e487b7100000000000000000000000000000000000000000000000000000000600052602160045260246000fd5b02179055506101208201518160020160156101000a81548160ff0219169083151502179055506101408201518160020160166101000a81548160ff0219169083151502179055506101608201518160030160006101000a81548173ffffffffffffffffffffffffffffffffffffffff021916908373ffffffffffffffffffffffffffffffffffffffff1602179055509050503373ffffffffffffffffffffffffffffffffffffffff167fa0e84f4dba1ea97bb938c4d3ff9475e68dacbd58f3086c672b0605ad53d76dc185604051611cba9190615151565b60405180910390a250505050565b6005600c9054906101000a900460ff1615611ce257600080fd5b80600660006101000a81548173ffffffffffffffffffffffffffffffffffffffff021916908373ffffffffffffffffffffffffffffffffffffffff16021790555060016005600c6101000a81548160ff02191690831515021790555050565b611d49614008565b600460008363ffffffff1663ffffffff168152602001908152602001600020604051806101800160405290816000820160009054906101000a900463ffffffff1663ffffffff1663ffffffff1681526020016000820160049054906101000a900463ffffffff1663ffffffff1663ffffffff1681526020016000820160089054906101000a900463ffffffff1663ffffffff1663ffffffff16815260200160008201600c9054906101000a900463ffffffff1663ffffffff1663ffffffff1681526020016000820160109054906101000a900460ff161515151581526020016000820160119054906101000a900460ff166001811115611e72577f4e487b7100000000000000000000000000000000000000000000000000000000600052602160045260246000fd5b6001811115611eaa577f4e487b7100000000000000000000000000000000000000000000000000000000600052602160045260246000fd5b81526020016001820160009054906101000a900473ffffffffffffffffffffffffffffffffffffffff1673ffffffffffffffffffffffffffffffffffffffff1673ffffffffffffffffffffffffffffffffffffffff1681526020016002820160009054906101000a900473ffffffffffffffffffffffffffffffffffffffff1673ffffffffffffffffffffffffffffffffffffffff1673ffffffffffffffffffffffffffffffffffffffff1681526020016002820160149054906101000a900460ff166002811115611fa5577f4e487b7100000000000000000000000000000000000000000000000000000000600052602160045260246000fd5b6002811115611fdd577f4e487b7100000000000000000000000000000000000000000000000000000000600052602160045260246000fd5b81526020016002820160159054906101000a900460ff161515151581526020016002820160169054906101000a900460ff161515151581526020016003820160009054906101000a900473ffffffffffffffffffffffffffffffffffffffff1673ffffffffffffffffffffffffffffffffffffffff1673ffffffffffffffffffffffffffffffffffffffff16815250509050919050565b600560089054906101000a900463ffffffff1681565b60046020528060005260406000206000915090508060000160009054906101000a900463ffffffff16908060000160049054906101000a900463ffffffff16908060000160089054906101000a900463ffffffff169080600001600c9054906101000a900463ffffffff16908060000160109054906101000a900460ff16908060000160119054906101000a900460ff16908060010160009054906101000a900473ffffffffffffffffffffffffffffffffffffffff16908060020160009054906101000a900473ffffffffffffffffffffffffffffffffffffffff16908060020160149054906101000a900460ff16908060020160159054906101000a900460ff16908060020160169054906101000a900460ff16908060030160009054906101000a900473ffffffffffffffffffffffffffffffffffffffff1690508c565b60036020528060005260406000206000915090508060000160009054906101000a900463ffffffff16908060000160049054906101000a900473ffffffffffffffffffffffffffffffffffffffff16908060010160009054906101000a900473ffffffffffffffffffffffffffffffffffffffff16908060010160149054906101000a900463ffffffff16908060010160189054906101000a900460ff169080600201549080600301805461227f90615767565b80601f01602080910402602001604051908101604052809291908181526020018280546122ab90615767565b80156122f85780601f106122cd576101008083540402835291602001916122f8565b820191906000526020600020905b8154815290600101906020018083116122db57829003601f168201915b5050505050905087565b6000600560009054906101000a900463ffffffff16905090565b6005600481819054906101000a900463ffffffff168092919061233e90615799565b91906101000a81548163ffffffff021916908363ffffffff160217905550506040518060c00160405280600560049054906101000a900463ffffffff1663ffffffff1681526020018463ffffffff1681526020018563ffffffff1681526020018363ffffffff1681526020018273ffffffffffffffffffffffffffffffffffffffff16815260200160001515815250600080600560049054906101000a900463ffffffff1663ffffffff1663ffffffff16815260200190815260200160002060008201518160000160006101000a81548163ffffffff021916908363ffffffff16021790555060208201518160000160046101000a81548163ffffffff021916908363ffffffff16021790555060408201518160000160086101000a81548163ffffffff021916908363ffffffff160217905550606082015181600001600c6101000a81548163ffffffff021916908363ffffffff16021790555060808201518160010160006101000a81548173ffffffffffffffffffffffffffffffffffffffff021916908373ffffffffffffffffffffffffffffffffffffffff16021790555060a08201518160010160146101000a81548160ff021916908315150217905550905050600560049054906101000a900463ffffffff1663ffffffff167f3d078b1c3921ddadb756791c1a070b903bcb0cd941a1df4de6eed059fb6e06db838560405161254d929190615273565b60405180910390a250505050565b600660009054906101000a900473ffffffffffffffffffffffffffffffffffffffff1673ffffffffffffffffffffffffffffffffffffffff1663d1e47bb33360056040518363ffffffff1660e01b81526004016125b9929190614f8a565b60206040518083038186803b1580156125d157600080fd5b505afa1580156125e5573d6000803e3d6000fd5b505050506040513d601f19601f8201168201806040525081019061260991906144c5565b612648576040517f08c379a000000000000000000000000000000000000000000000000000000000815260040161263f90615094565b60405180910390fd5b600560009054906101000a900463ffffffff1663ffffffff168263ffffffff16111561267357600080fd5b3373ffffffffffffffffffffffffffffffffffffffff16600460008463ffffffff1663ffffffff16815260200190815260200160002060030160009054906101000a900473ffffffffffffffffffffffffffffffffffffffff1673ffffffffffffffffffffffffffffffffffffffff16146126ed57600080fd5b80600460008463ffffffff1663ffffffff16815260200190815260200160002060000160116101000a81548160ff02191690836001811115612758577f4e487b7100000000000000000000000000000000000000000000000000000000600052602160045260246000fd5b02179055508163ffffffff167ff84820c84ecbec116ee0604a91f0bec4a5d5926d8d5189a13f57fc30951d4b91826040516127939190614fe9565b60405180910390a25050565b6000600560009054906101000a900463ffffffff16905090565b600660009054906101000a900473ffffffffffffffffffffffffffffffffffffffff1681565b600560009054906101000a900463ffffffff1663ffffffff168363ffffffff161115612840576040517f08c379a000000000000000000000000000000000000000000000000000000000815260040161283790615034565b60405180910390fd5b8073ffffffffffffffffffffffffffffffffffffffff16600460008563ffffffff1663ffffffff16815260200190815260200160002060020160009054906101000a900473ffffffffffffffffffffffffffffffffffffffff1673ffffffffffffffffffffffffffffffffffffffff16146128ba57600080fd5b81600460008563ffffffff1663ffffffff16815260200190815260200160002060020160156101000a81548160ff021916908315150217905550505050565b600660009054906101000a900473ffffffffffffffffffffffffffffffffffffffff1673ffffffffffffffffffffffffffffffffffffffff1663d1e47bb33360036040518363ffffffff1660e01b8152600401612957929190614f8a565b60206040518083038186803b15801561296f57600080fd5b505afa158015612983573d6000803e3d6000fd5b505050506040513d601f19601f820116820180604052508101906129a791906144c5565b6129e6576040517f08c379a00000000000000000000000000000000000000000000000000000000081526004016129dd90615054565b60405180910390fd5b6000835167ffffffffffffffff811115612a29577f4e487b7100000000000000000000000000000000000000000000000000000000600052604160045260246000fd5b604051908082528060200260200182016040528015612a575781602001602082028036833780820191505090505b5090506000845167ffffffffffffffff811115612a9d577f4e487b7100000000000000000000000000000000000000000000000000000000600052604160045260246000fd5b604051908082528060200260200182016040528015612acb5781602001602082028036833780820191505090505b5090506000805b86518163ffffffff161015612dfb57600560049054906101000a900463ffffffff1663ffffffff16878263ffffffff1681518110612b39577f4e487b7100000000000000000000000000000000000000000000000000000000600052603260045260246000fd5b602002602001015163ffffffff161115612b5257600080fd5b6000806000898463ffffffff1681518110612b96577f4e487b7100000000000000000000000000000000000000000000000000000000600052603260045260246000fd5b602002602001015163ffffffff1663ffffffff1681526020019081526020016000206040518060c00160405290816000820160009054906101000a900463ffffffff1663ffffffff1663ffffffff1681526020016000820160049054906101000a900463ffffffff1663ffffffff1663ffffffff1681526020016000820160089054906101000a900463ffffffff1663ffffffff1663ffffffff16815260200160008201600c9054906101000a900463ffffffff1663ffffffff1663ffffffff1681526020016001820160009054906101000a900473ffffffffffffffffffffffffffffffffffffffff1673ffffffffffffffffffffffffffffffffffffffff1673ffffffffffffffffffffffffffffffffffffffff1681526020016001820160149054906101000a900460ff16151515158152505090508060200151858363ffffffff1681518110612d12577f4e487b7100000000000000000000000000000000000000000000000000000000600052603260045260246000fd5b602002602001019063ffffffff16908163ffffffff16815250508060400151848363ffffffff1681518110612d70577f4e487b7100000000000000000000000000000000000000000000000000000000600052603260045260246000fd5b602002602001019063ffffffff16908163ffffffff1681525050806060015183612d9a919061555f565b92503373ffffffffffffffffffffffffffffffffffffffff16816080015173ffffffffffffffffffffffffffffffffffffffff1614612dd857600080fd5b8060a0015115612de757600080fd5b508080612df390615799565b915050612ad2565b506005600881819054906101000a900463ffffffff1680929190612e1e90615799565b91906101000a81548163ffffffff021916908363ffffffff1602179055505060008533428686604051602001612e58959493929190614eed565b60405160208183030381529060405280519060200120905060005b87518163ffffffff161015612f155760016000808a8463ffffffff1681518110612ec6577f4e487b7100000000000000000000000000000000000000000000000000000000600052603260045260246000fd5b602002602001015163ffffffff1663ffffffff16815260200190815260200160002060010160146101000a81548160ff0219169083151502179055508080612f0d90615799565b915050612e73565b50604051806101000160405280600560089054906101000a900463ffffffff1663ffffffff1681526020018581526020018481526020018363ffffffff1681526020018663ffffffff1681526020013373ffffffffffffffffffffffffffffffffffffffff1681526020018781526020018281525060016000600560089054906101000a900463ffffffff1663ffffffff1663ffffffff16815260200190815260200160002060008201518160000160006101000a81548163ffffffff021916908363ffffffff1602179055506020820151816001019080519060200190612ffe929190614139565b50604082015181600201908051906020019061301b929190614139565b5060608201518160030160006101000a81548163ffffffff021916908363ffffffff16021790555060808201518160030160046101000a81548163ffffffff021916908363ffffffff16021790555060a08201518160030160086101000a81548173ffffffffffffffffffffffffffffffffffffffff021916908373ffffffffffffffffffffffffffffffffffffffff16021790555060c08201518160040190805190602001906130cd9291906141e9565b5060e082015181600501559050503373ffffffffffffffffffffffffffffffffffffffff167f499d3f5837e61d77a364db177a5e0ba2d02b9a2316f1264fffa374d94a9a12b1600560089054906101000a900463ffffffff1684886040516131379392919061529c565b60405180910390a250505050505050565b60016020528060005260406000206000915090508060000160009054906101000a900463ffffffff16908060030160009054906101000a900463ffffffff16908060030160049054906101000a900463ffffffff16908060030160089054906101000a900473ffffffffffffffffffffffffffffffffffffffff16908060040180546131d390615767565b80601f01602080910402602001604051908101604052809291908181526020018280546131ff90615767565b801561324c5780601f106132215761010080835404028352916020019161324c565b820191906000526020600020905b81548152906001019060200180831161322f57829003601f168201915b5050505050908060050154905086565b600660009054906101000a900473ffffffffffffffffffffffffffffffffffffffff1673ffffffffffffffffffffffffffffffffffffffff1663d1e47bb33360056040518363ffffffff1660e01b81526004016132ba929190614f8a565b60206040518083038186803b1580156132d257600080fd5b505afa1580156132e6573d6000803e3d6000fd5b505050506040513d601f19601f8201168201806040525081019061330a91906144c5565b613349576040517f08c379a000000000000000000000000000000000000000000000000000000000815260040161334090615094565b60405180910390fd5b600560009054906101000a900463ffffffff1663ffffffff168263ffffffff16111561337457600080fd5b600460008363ffffffff1663ffffffff16815260200190815260200160002060020160169054906101000a900460ff16156133ae57600080fd5b3373ffffffffffffffffffffffffffffffffffffffff16600460008463ffffffff1663ffffffff16815260200190815260200160002060030160009054906101000a900473ffffffffffffffffffffffffffffffffffffffff1673ffffffffffffffffffffffffffffffffffffffff161461342857600080fd5b6000828233426040516020016134419493929190614f40565b6040516020818303038152906040528051906020012090506001600460008563ffffffff1663ffffffff16815260200190815260200160002060020160166101000a81548160ff02191690831515021790555060405180608001604052808463ffffffff16815260200183815260200142815260200182815250600260008563ffffffff1663ffffffff16815260200190815260200160002060008201518160000160006101000a81548163ffffffff021916908363ffffffff160217905550602082015181600101908051906020019061351d9291906141e9565b5060408201518160020155606082015181600301559050508263ffffffff167f85a6dd7e3bffc328a15679316ce7c104a56122ec56d15beab290adac6fceda18834260405161356d929190615004565b60405180910390a2505050565b600660009054906101000a900473ffffffffffffffffffffffffffffffffffffffff1673ffffffffffffffffffffffffffffffffffffffff1663d1e47bb33360066040518363ffffffff1660e01b81526004016135d8929190614f8a565b60206040518083038186803b1580156135f057600080fd5b505afa158015613604573d6000803e3d6000fd5b505050506040513d601f19601f8201168201806040525081019061362891906144c5565b613667576040517f08c379a000000000000000000000000000000000000000000000000000000000815260040161365e90615074565b60405180910390fd5b600060016000600460008763ffffffff1663ffffffff16815260200190815260200160002060000160049054906101000a900463ffffffff1663ffffffff1663ffffffff168152602001908152602001600020604051806101000160405290816000820160009054906101000a900463ffffffff1663ffffffff1663ffffffff1681526020016001820180548060200260200160405190810160405280929190818152602001828054801561376757602002820191906000526020600020906000905b82829054906101000a900463ffffffff1663ffffffff168152602001906004019060208260030104928301926001038202915080841161372a5790505b50505050508152602001600282018054806020026020016040519081016040528092919081815260200182805480156137eb57602002820191906000526020600020906000905b82829054906101000a900463ffffffff1663ffffffff16815260200190600401906020826003010492830192600103820291508084116137ae5790505b505050505081526020016003820160009054906101000a900463ffffffff1663ffffffff1663ffffffff1681526020016003820160049054906101000a900463ffffffff1663ffffffff1663ffffffff1681526020016003820160089054906101000a900473ffffffffffffffffffffffffffffffffffffffff1673ffffffffffffffffffffffffffffffffffffffff1673ffffffffffffffffffffffffffffffffffffffff1681526020016004820180546138a690615767565b80601f01602080910402602001604051908101604052809291908181526020018280546138d290615767565b801561391f5780601f106138f45761010080835404028352916020019161391f565b820191906000526020600020905b81548152906001019060200180831161390257829003601f168201915b505050505081526020016005820154815250509050600460008563ffffffff1663ffffffff168152602001908152602001600020600001600c9054906101000a900463ffffffff1663ffffffff168363ffffffff161461397e57600080fd5b600460008563ffffffff1663ffffffff16815260200190815260200160002060000160109054906101000a900460ff16156139b857600080fd5b600160028111156139f2577f4e487b7100000000000000000000000000000000000000000000000000000000600052602160045260246000fd5b600460008663ffffffff1663ffffffff16815260200190815260200160002060020160149054906101000a900460ff166002811115613a5a577f4e487b7100000000000000000000000000000000000000000000000000000000600052602160045260246000fd5b14613a6457600080fd5b6001600460008663ffffffff1663ffffffff16815260200190815260200160002060000160106101000a81548160ff0219169083151502179055506040518060e001604052808563ffffffff1681526020013373ffffffffffffffffffffffffffffffffffffffff168152602001600460008763ffffffff1663ffffffff16815260200190815260200160002060010160009054906101000a900473ffffffffffffffffffffffffffffffffffffffff1673ffffffffffffffffffffffffffffffffffffffff1681526020018463ffffffff168152602001836002811115613b75577f4e487b7100000000000000000000000000000000000000000000000000000000600052602160045260246000fd5b815260200142815260200160405180602001604052806000815250815250600360008663ffffffff1663ffffffff16815260200190815260200160002060008201518160000160006101000a81548163ffffffff021916908363ffffffff16021790555060208201518160000160046101000a81548173ffffffffffffffffffffffffffffffffffffffff021916908373ffffffffffffffffffffffffffffffffffffffff16021790555060408201518160010160006101000a81548173ffffffffffffffffffffffffffffffffffffffff021916908373ffffffffffffffffffffffffffffffffffffffff16021790555060608201518160010160146101000a81548163ffffffff021916908363ffffffff16021790555060808201518160010160186101000a81548160ff02191690836002811115613cdf577f4e487b7100000000000000000000000000000000000000000000000000000000600052602160045260246000fd5b021790555060a0820151816002015560c0820151816003019080519060200190613d0a9291906141e9565b50905050806000015163ffffffff167fd9f037670aada9b07156110dd936887c158e5cd6f7932663cc64ef336e44cf9f85338686604051613d4e94939291906151e2565b60405180910390a250505050565b600560049054906101000a900463ffffffff1681565b60026020528060005260406000206000915090508060000160009054906101000a900463ffffffff1690806001018054613dab90615767565b80601f0160208091040260200160405190810160405280929190818152602001828054613dd790615767565b8015613e245780601f10613df957610100808354040283529160200191613e24565b820191906000526020600020905b815481529060010190602001808311613e0757829003601f168201915b5050505050908060020154908060030154905084565b6000600560009054906101000a900463ffffffff16905090565b6040518060e00160405280600063ffffffff168152602001600073ffffffffffffffffffffffffffffffffffffffff168152602001600073ffffffffffffffffffffffffffffffffffffffff168152602001600063ffffffff16815260200160006002811115613eed577f4e487b7100000000000000000000000000000000000000000000000000000000600052602160045260246000fd5b815260200160008152602001606081525090565b6040518060c00160405280600063ffffffff168152602001600063ffffffff168152602001600063ffffffff168152602001600063ffffffff168152602001600073ffffffffffffffffffffffffffffffffffffffff1681526020016000151581525090565b6040518060800160405280600063ffffffff1681526020016060815260200160008152602001600080191681525090565b604051806101000160405280600063ffffffff1681526020016060815260200160608152602001600063ffffffff168152602001600063ffffffff168152602001600073ffffffffffffffffffffffffffffffffffffffff16815260200160608152602001600080191681525090565b604051806101800160405280600063ffffffff168152602001600063ffffffff168152602001600063ffffffff168152602001600063ffffffff1681526020016000151581526020016000600181111561408b577f4e487b7100000000000000000000000000000000000000000000000000000000600052602160045260246000fd5b8152602001600073ffffffffffffffffffffffffffffffffffffffff168152602001600073ffffffffffffffffffffffffffffffffffffffff16815260200160006002811115614104577f4e487b7100000000000000000000000000000000000000000000000000000000600052602160045260246000fd5b8152602001600015158152602001600015158152602001600073ffffffffffffffffffffffffffffffffffffffff1681525090565b828054828255906000526020600020906007016008900481019282156141d85791602002820160005b838211156141a657835183826101000a81548163ffffffff021916908363ffffffff1602179055509260200192600401602081600301049283019260010302614162565b80156141d65782816101000a81549063ffffffff02191690556004016020816003010492830192600103026141a6565b505b5090506141e5919061426f565b5090565b8280546141f590615767565b90600052602060002090601f016020900481019282614217576000855561425e565b82601f1061423057805160ff191683800117855561425e565b8280016001018555821561425e579182015b8281111561425d578251825591602001919060010190614242565b5b50905061426b919061426f565b5090565b5b80821115614288576000816000905550600101614270565b5090565b600061429f61429a84615487565b615456565b905080838252602082019050828560208602820111156142be57600080fd5b60005b858110156142ee57816142d48882614408565b8452602084019350602083019250506001810190506142c1565b5050509392505050565b600061430b614306846154b3565b615456565b90508281526020810184848401111561432357600080fd5b61432e848285615725565b509392505050565b6000813590506143458161593d565b92915050565b600082601f83011261435c57600080fd5b813561436c84826020860161428c565b91505092915050565b60008135905061438481615954565b92915050565b60008151905061439981615954565b92915050565b6000813590506143ae8161596b565b92915050565b6000813590506143c38161597b565b92915050565b6000813590506143d88161598b565b92915050565b600082601f8301126143ef57600080fd5b81356143ff8482602086016142f8565b91505092915050565b6000813590506144178161599b565b92915050565b60006020828403121561442f57600080fd5b600061443d84828501614336565b91505092915050565b60008060006060848603121561445b57600080fd5b600084013567ffffffffffffffff81111561447557600080fd5b6144818682870161434b565b935050602084013567ffffffffffffffff81111561449e57600080fd5b6144aa868287016143de565b92505060406144bb86828701614408565b9150509250925092565b6000602082840312156144d757600080fd5b60006144e58482850161438a565b91505092915050565b60006020828403121561450057600080fd5b600061450e84828501614408565b91505092915050565b6000806040838503121561452a57600080fd5b600061453885828601614408565b925050602061454985828601614336565b9150509250929050565b60008060006060848603121561456857600080fd5b600061457686828701614408565b935050602061458786828701614375565b925050604061459886828701614336565b9150509250925092565b600080604083850312156145b557600080fd5b60006145c385828601614408565b92505060206145d4858286016143b4565b9150509250929050565b600080604083850312156145f157600080fd5b60006145ff85828601614408565b9250506020614610858286016143c9565b9150509250929050565b6000806040838503121561462d57600080fd5b600061463b85828601614408565b925050602083013567ffffffffffffffff81111561465857600080fd5b614664858286016143de565b9150509250929050565b6000806040838503121561468157600080fd5b600061468f85828601614408565b92505060206146a085828601614408565b9150509250929050565b6000806000606084860312156146bf57600080fd5b60006146cd86828701614408565b93505060206146de86828701614408565b92505060406146ef8682870161439f565b9150509250925092565b6000806000806080858703121561470f57600080fd5b600061471d87828801614408565b945050602061472e87828801614408565b935050604061473f87828801614408565b925050606061475087828801614336565b91505092959194509250565b60006147688383614ea9565b60208301905092915050565b60006147808383614ec7565b60208301905092915050565b6147958161560b565b82525050565b6147a48161560b565b82525050565b6147bb6147b68261560b565b6157c6565b82525050565b60006147cc826154f3565b6147d68185615516565b93506147e1836154e3565b8060005b838110156148125781516147f9888261475c565b975061480483615509565b9250506001810190506147e5565b5085935050505092915050565b600061482a826154f3565b6148348185615527565b935061483f836154e3565b8060005b838110156148705781516148578882614774565b975061486283615509565b925050600181019050614843565b5085935050505092915050565b6148868161561d565b82525050565b6148958161561d565b82525050565b6148a481615629565b82525050565b6148b381615629565b82525050565b6148c2816156b9565b82525050565b6148d1816156dd565b82525050565b6148e0816156dd565b82525050565b6148ef816156ef565b82525050565b6148fe81615701565b82525050565b61490d81615701565b82525050565b61491c81615713565b82525050565b61492b81615713565b82525050565b600061493c826154fe565b6149468185615532565b9350614956818560208601615734565b61495f816158c2565b840191505092915050565b6000614975826154fe565b61497f8185615543565b935061498f818560208601615734565b614998816158c2565b840191505092915050565b60006149ae826154fe565b6149b88185615554565b93506149c8818560208601615734565b80840191505092915050565b60006149e1601983615543565b91507f4c6120636f6d6d616e6465206e27657869737465207061732e000000000000006000830152602082019050919050565b6000614a21602283615543565b91507f4e6f6e206175746f726973653a207365756c656d656e7420436f6c6c6563746560008301527f75720000000000000000000000000000000000000000000000000000000000006020830152604082019050919050565b6000614a87602383615543565b91507f4e6f6e206175746f726973653a207365756c656d656e74204578706f7274617460008301527f65757200000000000000000000000000000000000000000000000000000000006020830152604082019050919050565b6000614aed602483615543565b91507f4e6f6e206175746f726973653a207365756c656d656e74205472616e73706f7260008301527f74657572000000000000000000000000000000000000000000000000000000006020830152604082019050919050565b61018082016000820151614b5d6000850182614ea9565b506020820151614b706020850182614ea9565b506040820151614b836040850182614ea9565b506060820151614b966060850182614ea9565b506080820151614ba9608085018261487d565b5060a0820151614bbc60a0850182614913565b5060c0820151614bcf60c085018261478c565b5060e0820151614be260e085018261478c565b50610100820151614bf76101008501826148f5565b50610120820151614c0c61012085018261487d565b50610140820151614c2161014085018261487d565b50610160820151614c3661016085018261478c565b50505050565b6000608083016000830151614c546000860182614ea9565b5060208301518482036020860152614c6c8282614931565b9150506040830151614c816040860182614e74565b506060830151614c94606086018261489b565b508091505092915050565b600061010083016000830151614cb86000860182614ea9565b5060208301518482036020860152614cd082826147c1565b91505060408301518482036040860152614cea82826147c1565b9150506060830151614cff6060860182614ea9565b506080830151614d126080860182614ea9565b5060a0830151614d2560a086018261478c565b5060c083015184820360c0860152614d3d8282614931565b91505060e0830151614d5260e086018261489b565b508091505092915050565b600060e083016000830151614d756000860182614ea9565b506020830151614d88602086018261478c565b506040830151614d9b604086018261478c565b506060830151614dae6060860182614ea9565b506080830151614dc160808601826148c8565b5060a0830151614dd460a0860182614e74565b5060c083015184820360c0860152614dec8282614931565b9150508091505092915050565b60c082016000820151614e0f6000850182614ea9565b506020820151614e226020850182614ea9565b506040820151614e356040850182614ea9565b506060820151614e486060850182614ea9565b506080820151614e5b608085018261478c565b5060a0820151614e6e60a085018261487d565b50505050565b614e7d8161569f565b82525050565b614e8c8161569f565b82525050565b614ea3614e9e8261569f565b6157ea565b82525050565b614eb2816156a9565b82525050565b614ec1816156a9565b82525050565b614ed0816156a9565b82525050565b614ee7614ee2826156a9565b6157f4565b82525050565b6000614ef982886149a3565b9150614f0582876147aa565b601482019150614f158286614e92565b602082019150614f25828561481f565b9150614f31828461481f565b91508190509695505050505050565b6000614f4c8287614ed6565b600482019150614f5c82866149a3565b9150614f6882856147aa565b601482019150614f788284614e92565b60208201915081905095945050505050565b6000604082019050614f9f600083018561479b565b614fac60208301846148e6565b9392505050565b6000602082019050614fc860008301846148b9565b92915050565b6000602082019050614fe36000830184614904565b92915050565b6000602082019050614ffe6000830184614922565b92915050565b6000604082019050818103600083015261501e818561496a565b905061502d6020830184614e83565b9392505050565b6000602082019050818103600083015261504d816149d4565b9050919050565b6000602082019050818103600083015261506d81614a14565b9050919050565b6000602082019050818103600083015261508d81614a7a565b9050919050565b600060208201905081810360008301526150ad81614ae0565b9050919050565b6000610180820190506150ca6000830184614b46565b92915050565b600060208201905081810360008301526150ea8184614c3c565b905092915050565b6000602082019050818103600083015261510c8184614c9f565b905092915050565b6000602082019050818103600083015261512e8184614d5d565b905092915050565b600060c08201905061514b6000830184614df9565b92915050565b60006020820190506151666000830184614eb8565b92915050565b600060e082019050615181600083018a614eb8565b61518e602083018961479b565b61519b604083018861479b565b6151a86060830187614eb8565b6151b560808301866148d7565b6151c260a0830185614e83565b81810360c08301526151d4818461496a565b905098975050505050505050565b60006080820190506151f76000830187614eb8565b615204602083018661479b565b6152116040830185614eb8565b61521e60608301846148d7565b95945050505050565b600060808201905061523c6000830187614eb8565b818103602083015261524e818661496a565b905061525d6040830185614e83565b61526a60608301846148aa565b95945050505050565b60006040820190506152886000830185614eb8565b6152956020830184614eb8565b9392505050565b60006060820190506152b16000830186614eb8565b6152be6020830185614eb8565b6152cb6040830184614eb8565b949350505050565b600060c0820190506152e86000830189614eb8565b6152f56020830188614eb8565b6153026040830187614eb8565b61530f606083018661479b565b8181036080830152615321818561496a565b905061533060a08301846148aa565b979650505050505050565b600060c0820190506153506000830189614eb8565b61535d6020830188614eb8565b61536a6040830187614eb8565b6153776060830186614eb8565b615384608083018561479b565b61539160a083018461488c565b979650505050505050565b6000610180820190506153b2600083018f614eb8565b6153bf602083018e614eb8565b6153cc604083018d614eb8565b6153d9606083018c614eb8565b6153e6608083018b61488c565b6153f360a083018a614922565b61540060c083018961479b565b61540d60e083018861479b565b61541b610100830187614904565b61542961012083018661488c565b61543761014083018561488c565b61544561016083018461479b565b9d9c50505050505050505050505050565b6000604051905081810181811067ffffffffffffffff8211171561547d5761547c615893565b5b8060405250919050565b600067ffffffffffffffff8211156154a2576154a1615893565b5b602082029050602081019050919050565b600067ffffffffffffffff8211156154ce576154cd615893565b5b601f19601f8301169050602081019050919050565b6000819050602082019050919050565b600081519050919050565b600081519050919050565b6000602082019050919050565b600082825260208201905092915050565b600081905092915050565b600082825260208201905092915050565b600082825260208201905092915050565b600081905092915050565b600061556a826156a9565b9150615575836156a9565b92508263ffffffff0382111561558e5761558d615806565b5b828201905092915050565b60006155a4826156a9565b91506155af836156a9565b92508163ffffffff04831182151516156155cc576155cb615806565b5b828202905092915050565b60006155e2826156a9565b91506155ed836156a9565b925082821015615600576155ff615806565b5b828203905092915050565b60006156168261567f565b9050919050565b60008115159050919050565b6000819050919050565b6000819050615641826158ed565b919050565b600081905061565482615901565b919050565b600081905061566782615915565b919050565b600081905061567a82615929565b919050565b600073ffffffffffffffffffffffffffffffffffffffff82169050919050565b6000819050919050565b600063ffffffff82169050919050565b60006156c4826156cb565b9050919050565b60006156d68261567f565b9050919050565b60006156e882615633565b9050919050565b60006156fa82615646565b9050919050565b600061570c82615659565b9050919050565b600061571e8261566c565b9050919050565b82818337600083830152505050565b60005b83811015615752578082015181840152602081019050615737565b83811115615761576000848401525b50505050565b6000600282049050600182168061577f57607f821691505b6020821081141561579357615792615864565b5b50919050565b60006157a4826156a9565b915063ffffffff8214156157bb576157ba615806565b5b600182019050919050565b60006157d1826157d8565b9050919050565b60006157e3826158e0565b9050919050565b6000819050919050565b60006157ff826158d3565b9050919050565b7f4e487b7100000000000000000000000000000000000000000000000000000000600052601160045260246000fd5b7f4e487b7100000000000000000000000000000000000000000000000000000000600052602160045260246000fd5b7f4e487b7100000000000000000000000000000000000000000000000000000000600052602260045260246000fd5b7f4e487b7100000000000000000000000000000000000000000000000000000000600052604160045260246000fd5b6000601f19601f8301169050919050565b60008160e01b9050919050565b60008160601b9050919050565b600381106158fe576158fd615835565b5b50565b6008811061591257615911615835565b5b50565b6003811061592657615925615835565b5b50565b6002811061593a57615939615835565b5b50565b6159468161560b565b811461595157600080fd5b50565b61595d8161561d565b811461596857600080fd5b50565b6003811061597857600080fd5b50565b6003811061598857600080fd5b50565b6002811061599857600080fd5b50565b6159a4816156a9565b81146159af57600080fd5b5056fea2646970667358221220a87a59533b697b5df76bf89c65145504c6158dba58d5739a29a19aa63eb52da664736f6c63430008000033",
  "linkReferences": {},
  "deployedLinkReferences": {}
}