{
  "_format": "hh-sol-artifact-1",
  "contractName": "CollecteurProducteurContratFINAL",
  "sourceName": "contracts/CollecteurProducteurContratFINAL.sol",
  "abi": [
    {
      "anonymous": false,
      "inputs": [
        {
          "indexed": true,
          "internalType": "address",
          "name": "acteur",
          "type": "address"
        },
        {
          "indexed": false,
          "internalType": "enum CollecteurProducteurContratFINAL.Role",
          "name": "role",
          "type": "uint8"
        }
      ],
      "name": "ActeurEnregistre",
      "type": "event"
    },
    {
      "anonymous": false,
      "inputs": [
        {
          "indexed": true,
          "internalType": "uint256",
          "name": "idParcelle",
          "type": "uint256"
        },
        {
          "indexed": false,
          "internalType": "uint256",
          "name": "idCondition",
          "type": "uint256"
        },
        {
          "indexed": false,
          "internalType": "string",
          "name": "temperature",
          "type": "string"
        },
        {
          "indexed": false,
          "internalType": "string",
          "name": "humidite",
          "type": "string"
        },
        {
          "indexed": false,
          "internalType": "uint256",
          "name": "timestamp",
          "type": "uint256"
        }
      ],
      "name": "ConditionEnregistree",
      "type": "event"
    },
    {
      "anonymous": false,
      "inputs": [
        {
          "indexed": true,
          "internalType": "uint256",
          "name": "idParcelle",
          "type": "uint256"
        },
        {
          "indexed": false,
          "internalType": "bool",
          "name": "passe",
          "type": "bool"
        }
      ],
      "name": "ControlePhytosanitaire",
      "type": "event"
    },
    {
      "anonymous": false,
      "inputs": [
        {
          "indexed": true,
          "internalType": "uint256",
          "name": "idParcelle",
          "type": "uint256"
        },
        {
          "indexed": false,
          "internalType": "enum CollecteurProducteurContratFINAL.Etape",
          "name": "etape",
          "type": "uint8"
        }
      ],
      "name": "EtapeMiseAJour",
      "type": "event"
    },
    {
      "anonymous": false,
      "inputs": [
        {
          "indexed": true,
          "internalType": "uint256",
          "name": "idParcelle",
          "type": "uint256"
        },
        {
          "indexed": false,
          "internalType": "uint256",
          "name": "idInspection",
          "type": "uint256"
        },
        {
          "indexed": false,
          "internalType": "address",
          "name": "auditeur",
          "type": "address"
        },
        {
          "indexed": false,
          "internalType": "string",
          "name": "rapport",
          "type": "string"
        },
        {
          "indexed": false,
          "internalType": "uint256",
          "name": "timestamp",
          "type": "uint256"
        }
      ],
      "name": "InspectionAjoutee",
      "type": "event"
    },
    {
      "anonymous": false,
      "inputs": [
        {
          "indexed": true,
          "internalType": "uint256",
          "name": "idParcelle",
          "type": "uint256"
        },
        {
          "indexed": false,
          "internalType": "string",
          "name": "nom",
          "type": "string"
        },
        {
          "indexed": false,
          "internalType": "uint256",
          "name": "quantite",
          "type": "uint256"
        }
      ],
      "name": "IntrantAjoute",
      "type": "event"
    },
    {
      "anonymous": false,
      "inputs": [
        {
          "indexed": true,
          "internalType": "uint256",
          "name": "idParcelle",
          "type": "uint256"
        },
        {
          "indexed": false,
          "internalType": "string",
          "name": "nom",
          "type": "string"
        },
        {
          "indexed": false,
          "internalType": "bool",
          "name": "valide",
          "type": "bool"
        }
      ],
      "name": "IntrantValide",
      "type": "event"
    },
    {
      "anonymous": false,
      "inputs": [
        {
          "indexed": true,
          "internalType": "uint256",
          "name": "idParcelle",
          "type": "uint256"
        },
        {
          "indexed": false,
          "internalType": "string",
          "name": "methodeCulture",
          "type": "string"
        }
      ],
      "name": "MethodeCultureFixee",
      "type": "event"
    },
    {
      "anonymous": false,
      "inputs": [
        {
          "indexed": true,
          "internalType": "uint256",
          "name": "idParcelle",
          "type": "uint256"
        },
        {
          "indexed": false,
          "internalType": "uint256",
          "name": "idPaiement",
          "type": "uint256"
        },
        {
          "indexed": false,
          "internalType": "address",
          "name": "payeur",
          "type": "address"
        },
        {
          "indexed": false,
          "internalType": "uint256",
          "name": "montant",
          "type": "uint256"
        },
        {
          "indexed": false,
          "internalType": "enum CollecteurProducteurContratFINAL.ModePaiement",
          "name": "mode",
          "type": "uint8"
        },
        {
          "indexed": false,
          "internalType": "uint256",
          "name": "timestamp",
          "type": "uint256"
        }
      ],
      "name": "PaiementEnregistre",
      "type": "event"
    },
    {
      "anonymous": false,
      "inputs": [
        {
          "indexed": true,
          "internalType": "uint256",
          "name": "idParcelle",
          "type": "uint256"
        },
        {
          "indexed": false,
          "internalType": "string",
          "name": "latitude",
          "type": "string"
        },
        {
          "indexed": false,
          "internalType": "string",
          "name": "longitude",
          "type": "string"
        }
      ],
      "name": "ParcelleCree",
      "type": "event"
    },
    {
      "anonymous": false,
      "inputs": [
        {
          "indexed": true,
          "internalType": "uint256",
          "name": "idParcelle",
          "type": "uint256"
        },
        {
          "indexed": false,
          "internalType": "string",
          "name": "urlPhoto",
          "type": "string"
        }
      ],
      "name": "PhotoAjoutee",
      "type": "event"
    },
    {
      "anonymous": false,
      "inputs": [
        {
          "indexed": true,
          "internalType": "uint256",
          "name": "idParcelle",
          "type": "uint256"
        },
        {
          "indexed": false,
          "internalType": "bool",
          "name": "qualiteApprouvee",
          "type": "bool"
        }
      ],
      "name": "RecolteConfirmee",
      "type": "event"
    },
    {
      "anonymous": false,
      "inputs": [
        {
          "indexed": true,
          "internalType": "uint256",
          "name": "idParcelle",
          "type": "uint256"
        },
        {
          "indexed": false,
          "internalType": "string",
          "name": "qualiteSemence",
          "type": "string"
        }
      ],
      "name": "SemenceValidee",
      "type": "event"
    },
    {
      "stateMutability": "payable",
      "type": "fallback"
    },
    {
      "inputs": [
        {
          "internalType": "address",
          "name": "",
          "type": "address"
        }
      ],
      "name": "acteurs",
      "outputs": [
        {
          "internalType": "address",
          "name": "addr",
          "type": "address"
        },
        {
          "internalType": "enum CollecteurProducteurContratFINAL.Role",
          "name": "role",
          "type": "uint8"
        }
      ],
      "stateMutability": "view",
      "type": "function"
    },
    {
      "inputs": [
        {
          "internalType": "uint256",
          "name": "_idParcelle",
          "type": "uint256"
        },
        {
          "internalType": "string",
          "name": "_rapport",
          "type": "string"
        }
      ],
      "name": "ajouterInspection",
      "outputs": [],
      "stateMutability": "nonpayable",
      "type": "function"
    },
    {
      "inputs": [
        {
          "internalType": "uint256",
          "name": "_idParcelle",
          "type": "uint256"
        },
        {
          "internalType": "string",
          "name": "_nom",
          "type": "string"
        },
        {
          "internalType": "uint256",
          "name": "_quantite",
          "type": "uint256"
        }
      ],
      "name": "ajouterIntrant",
      "outputs": [],
      "stateMutability": "nonpayable",
      "type": "function"
    },
    {
      "inputs": [
        {
          "internalType": "uint256",
          "name": "_idParcelle",
          "type": "uint256"
        },
        {
          "internalType": "string",
          "name": "_urlPhoto",
          "type": "string"
        }
      ],
      "name": "ajouterPhoto",
      "outputs": [],
      "stateMutability": "nonpayable",
      "type": "function"
    },
    {
      "inputs": [
        {
          "internalType": "uint256",
          "name": "_idParcelle",
          "type": "uint256"
        },
        {
          "internalType": "bool",
          "name": "_passe",
          "type": "bool"
        }
      ],
      "name": "appliquerControlePhytosanitaire",
      "outputs": [],
      "stateMutability": "nonpayable",
      "type": "function"
    },
    {
      "inputs": [],
      "name": "compteurConditions",
      "outputs": [
        {
          "internalType": "uint256",
          "name": "",
          "type": "uint256"
        }
      ],
      "stateMutability": "view",
      "type": "function"
    },
    {
      "inputs": [],
      "name": "compteurInspections",
      "outputs": [
        {
          "internalType": "uint256",
          "name": "",
          "type": "uint256"
        }
      ],
      "stateMutability": "view",
      "type": "function"
    },
    {
      "inputs": [],
      "name": "compteurPaiements",
      "outputs": [
        {
          "internalType": "uint256",
          "name": "",
          "type": "uint256"
        }
      ],
      "stateMutability": "view",
      "type": "function"
    },
    {
      "inputs": [],
      "name": "compteurParcelles",
      "outputs": [
        {
          "internalType": "uint256",
          "name": "",
          "type": "uint256"
        }
      ],
      "stateMutability": "view",
      "type": "function"
    },
    {
      "inputs": [
        {
          "internalType": "uint256",
          "name": "_idParcelle",
          "type": "uint256"
        },
        {
          "internalType": "bool",
          "name": "_qualiteApprouvee",
          "type": "bool"
        }
      ],
      "name": "confirmerRecolte",
      "outputs": [],
      "stateMutability": "nonpayable",
      "type": "function"
    },
    {
      "inputs": [
        {
          "internalType": "string",
          "name": "_qualiteSemence",
          "type": "string"
        },
        {
          "internalType": "string",
          "name": "_methodeCulture",
          "type": "string"
        },
        {
          "internalType": "string",
          "name": "_latitude",
          "type": "string"
        },
        {
          "internalType": "string",
          "name": "_longitude",
          "type": "string"
        },
        {
          "internalType": "string",
          "name": "_produit",
          "type": "string"
        },
        {
          "internalType": "string",
          "name": "_dateRecolte",
          "type": "string"
        },
        {
          "internalType": "string",
          "name": "_certificatPhytosanitaire",
          "type": "string"
        }
      ],
      "name": "creerParcelle",
      "outputs": [],
      "stateMutability": "nonpayable",
      "type": "function"
    },
    {
      "inputs": [
        {
          "internalType": "address",
          "name": "_acteur",
          "type": "address"
        },
        {
          "internalType": "enum CollecteurProducteurContratFINAL.Role",
          "name": "_role",
          "type": "uint8"
        }
      ],
      "name": "enregistrerActeur",
      "outputs": [],
      "stateMutability": "nonpayable",
      "type": "function"
    },
    {
      "inputs": [
        {
          "internalType": "uint256",
          "name": "_idParcelle",
          "type": "uint256"
        },
        {
          "internalType": "string",
          "name": "_temperature",
          "type": "string"
        },
        {
          "internalType": "string",
          "name": "_humidite",
          "type": "string"
        }
      ],
      "name": "enregistrerCondition",
      "outputs": [],
      "stateMutability": "nonpayable",
      "type": "function"
    },
    {
      "inputs": [
        {
          "internalType": "uint256",
          "name": "_idParcelle",
          "type": "uint256"
        },
        {
          "internalType": "uint256",
          "name": "_montant",
          "type": "uint256"
        },
        {
          "internalType": "enum CollecteurProducteurContratFINAL.ModePaiement",
          "name": "_mode",
          "type": "uint8"
        }
      ],
      "name": "enregistrerPaiement",
      "outputs": [],
      "stateMutability": "nonpayable",
      "type": "function"
    },
    {
      "inputs": [
        {
          "internalType": "uint256",
          "name": "_idParcelle",
          "type": "uint256"
        }
      ],
      "name": "getConditions",
      "outputs": [
        {
          "components": [
            {
              "internalType": "uint256",
              "name": "id",
              "type": "uint256"
            },
            {
              "internalType": "string",
              "name": "temperature",
              "type": "string"
            },
            {
              "internalType": "string",
              "name": "humidite",
              "type": "string"
            },
            {
              "internalType": "uint256",
              "name": "timestamp",
              "type": "uint256"
            }
          ],
          "internalType": "struct CollecteurProducteurContratFINAL.EnregistrementCondition[]",
          "name": "",
          "type": "tuple[]"
        }
      ],
      "stateMutability": "view",
      "type": "function"
    },
    {
      "inputs": [
        {
          "internalType": "uint256",
          "name": "_idParcelle",
          "type": "uint256"
        }
      ],
      "name": "getInspections",
      "outputs": [
        {
          "components": [
            {
              "internalType": "uint256",
              "name": "id",
              "type": "uint256"
            },
            {
              "internalType": "address",
              "name": "auditeur",
              "type": "address"
            },
            {
              "internalType": "string",
              "name": "rapport",
              "type": "string"
            },
            {
              "internalType": "uint256",
              "name": "timestamp",
              "type": "uint256"
            }
          ],
          "internalType": "struct CollecteurProducteurContratFINAL.Inspection[]",
          "name": "",
          "type": "tuple[]"
        }
      ],
      "stateMutability": "view",
      "type": "function"
    },
    {
      "inputs": [
        {
          "internalType": "uint256",
          "name": "_idParcelle",
          "type": "uint256"
        }
      ],
      "name": "getIntrants",
      "outputs": [
        {
          "components": [
            {
              "internalType": "string",
              "name": "nom",
              "type": "string"
            },
            {
              "internalType": "uint256",
              "name": "quantite",
              "type": "uint256"
            },
            {
              "internalType": "bool",
              "name": "valide",
              "type": "bool"
            }
          ],
          "internalType": "struct CollecteurProducteurContratFINAL.Intrant[]",
          "name": "",
          "type": "tuple[]"
        }
      ],
      "stateMutability": "view",
      "type": "function"
    },
    {
      "inputs": [
        {
          "internalType": "uint256",
          "name": "_idParcelle",
          "type": "uint256"
        }
      ],
      "name": "getPaiements",
      "outputs": [
        {
          "components": [
            {
              "internalType": "uint256",
              "name": "id",
              "type": "uint256"
            },
            {
              "internalType": "address",
              "name": "payeur",
              "type": "address"
            },
            {
              "internalType": "uint256",
              "name": "montant",
              "type": "uint256"
            },
            {
              "internalType": "enum CollecteurProducteurContratFINAL.ModePaiement",
              "name": "mode",
              "type": "uint8"
            },
            {
              "internalType": "uint256",
              "name": "timestamp",
              "type": "uint256"
            }
          ],
          "internalType": "struct CollecteurProducteurContratFINAL.Paiement[]",
          "name": "",
          "type": "tuple[]"
        }
      ],
      "stateMutability": "view",
      "type": "function"
    },
    {
      "inputs": [
        {
          "internalType": "uint256",
          "name": "_idParcelle",
          "type": "uint256"
        }
      ],
      "name": "getPhotos",
      "outputs": [
        {
          "internalType": "string[]",
          "name": "",
          "type": "string[]"
        }
      ],
      "stateMutability": "view",
      "type": "function"
    },
    {
      "inputs": [
        {
          "internalType": "uint256",
          "name": "_idParcelle",
          "type": "uint256"
        },
        {
          "internalType": "enum CollecteurProducteurContratFINAL.Etape",
          "name": "_etape",
          "type": "uint8"
        }
      ],
      "name": "mettreAJourEtape",
      "outputs": [],
      "stateMutability": "nonpayable",
      "type": "function"
    },
    {
      "inputs": [
        {
          "internalType": "uint256",
          "name": "",
          "type": "uint256"
        }
      ],
      "name": "parcelles",
      "outputs": [
        {
          "internalType": "uint256",
          "name": "id",
          "type": "uint256"
        },
        {
          "internalType": "address",
          "name": "producteur",
          "type": "address"
        },
        {
          "internalType": "string",
          "name": "qualiteSemence",
          "type": "string"
        },
        {
          "internalType": "string",
          "name": "methodeCulture",
          "type": "string"
        },
        {
          "internalType": "bool",
          "name": "certifie",
          "type": "bool"
        },
        {
          "internalType": "enum CollecteurProducteurContratFINAL.Etape",
          "name": "etape",
          "type": "uint8"
        },
        {
          "internalType": "string",
          "name": "latitude",
          "type": "string"
        },
        {
          "internalType": "string",
          "name": "longitude",
          "type": "string"
        },
        {
          "internalType": "string",
          "name": "produit",
          "type": "string"
        },
        {
          "internalType": "string",
          "name": "dateRecolte",
          "type": "string"
        },
        {
          "internalType": "string",
          "name": "certificatPhytosanitaire",
          "type": "string"
        }
      ],
      "stateMutability": "view",
      "type": "function"
    },
    {
      "inputs": [
        {
          "internalType": "uint256",
          "name": "_idParcelle",
          "type": "uint256"
        },
        {
          "internalType": "string",
          "name": "_nom",
          "type": "string"
        },
        {
          "internalType": "bool",
          "name": "_valide",
          "type": "bool"
        }
      ],
      "name": "validerIntrant",
      "outputs": [],
      "stateMutability": "nonpayable",
      "type": "function"
    },
    {
      "stateMutability": "payable",
      "type": "receive"
    }
  ],
  "bytecode": "0x608060405234801561001057600080fd5b5061400b806100206000396000f3fe6080604052600436106101395760003560e01c80637b906d47116100ab578063bfc5167c1161006f578063bfc5167c14610430578063c1a345dd1461046d578063cd3df1ed14610496578063cda36e63146104c1578063d1aa5bbe146104ec578063f7ad4b8b1461052a57610140565b80637b906d471461033b5780639016d62114610378578063b0b21067146103b5578063b96cc76f146103de578063bbfcc3111461040757610140565b80633c4b76c5116100fd5780633c4b76c514610241578063487396f21461026a57806361153ee914610293578063687112e2146102be57806370b0728b146102e95780637509b8b61461031257610140565b80630ee99848146101425780631cb0efc31461016b5780631eada765146101945780632aae399c146101d15780633a934f751461021857610140565b3661014057005b005b34801561014e57600080fd5b5061016960048036038101906101649190612c49565b610567565b005b34801561017757600080fd5b50610192600480360381019061018d9190612a9e565b610708565b005b3480156101a057600080fd5b506101bb60048036038101906101b69190612be4565b610b23565b6040516101c891906136dd565b60405180910390f35b3480156101dd57600080fd5b506101f860048036038101906101f39190612be4565b610cd0565b60405161020f9b9a9998979695949392919061394a565b60405180910390f35b34801561022457600080fd5b5061023f600480360381019061023a9190612c85565b61111c565b005b34801561024d57600080fd5b5061026860048036038101906102639190612c85565b61136a565b005b34801561027657600080fd5b50610291600480360381019061028c9190612d40565b6114f7565b005b34801561029f57600080fd5b506102a8611706565b6040516102b5919061392f565b60405180910390f35b3480156102ca57600080fd5b506102d361170c565b6040516102e0919061392f565b60405180910390f35b3480156102f557600080fd5b50610310600480360381019061030b9190612cd9565b611712565b005b34801561031e57600080fd5b5061033960048036038101906103349190612e26565b6119b8565b005b34801561034757600080fd5b50610362600480360381019061035d9190612be4565b611b8a565b60405161036f9190613721565b60405180910390f35b34801561038457600080fd5b5061039f600480360381019061039a9190612be4565b611cb6565b6040516103ac91906136ff565b60405180910390f35b3480156103c157600080fd5b506103dc60048036038101906103d79190612c0d565b611e27565b005b3480156103ea57600080fd5b5061040560048036038101906104009190612a62565b61203a565b005b34801561041357600080fd5b5061042e60048036038101906104299190612dbf565b6121cd565b005b34801561043c57600080fd5b5061045760048036038101906104529190612be4565b6123b3565b60405161046491906136bb565b60405180910390f35b34801561047957600080fd5b50610494600480360381019061048f9190612c0d565b6124a2565b005b3480156104a257600080fd5b506104ab6126e3565b6040516104b8919061392f565b60405180910390f35b3480156104cd57600080fd5b506104d66126e9565b6040516104e3919061392f565b60405180910390f35b3480156104f857600080fd5b50610513600480360381019061050e9190612a39565b6126ef565b604051610521929190613692565b60405180910390f35b34801561053657600080fd5b50610551600480360381019061054c9190612be4565b612740565b60405161055e9190613743565b60405180910390f35b600060058111156105a1577f4e487b7100000000000000000000000000000000000000000000000000000000600052602160045260246000fd5b6000803373ffffffffffffffffffffffffffffffffffffffff1673ffffffffffffffffffffffffffffffffffffffff16815260200190815260200160002060000160149054906101000a900460ff166005811115610628577f4e487b7100000000000000000000000000000000000000000000000000000000600052602160045260246000fd5b14610668576040517f08c379a000000000000000000000000000000000000000000000000000000000815260040161065f9061386f565b60405180910390fd5b806001600084815260200190815260200160002060040160016101000a81548160ff021916908360038111156106c7577f4e487b7100000000000000000000000000000000000000000000000000000000600052602160045260246000fd5b0217905550817f45b242b5fc63415549b3b82a5f92422875e4d12321c4e12bafa6c1895dd8e32d826040516106fc9190613780565b60405180910390a25050565b60006005811115610742577f4e487b7100000000000000000000000000000000000000000000000000000000600052602160045260246000fd5b6000803373ffffffffffffffffffffffffffffffffffffffff1673ffffffffffffffffffffffffffffffffffffffff16815260200190815260200160002060000160149054906101000a900460ff1660058111156107c9577f4e487b7100000000000000000000000000000000000000000000000000000000600052602160045260246000fd5b14610809576040517f08c379a00000000000000000000000000000000000000000000000000000000081526004016108009061386f565b60405180910390fd5b6002600081548092919061081c90613e0e565b9190505550600254600160006002548152602001908152602001600020600001819055503360016000600254815260200190815260200160002060010160006101000a81548173ffffffffffffffffffffffffffffffffffffffff021916908373ffffffffffffffffffffffffffffffffffffffff1602179055508660016000600254815260200190815260200160002060020190805190602001906108c39291906128b0565b508560016000600254815260200190815260200160002060030190805190602001906108f09291906128b0565b50600060016000600254815260200190815260200160002060040160006101000a81548160ff021916908315150217905550600060016000600254815260200190815260200160002060040160016101000a81548160ff02191690836003811115610984577f4e487b7100000000000000000000000000000000000000000000000000000000600052602160045260246000fd5b02179055508460016000600254815260200190815260200160002060050190805190602001906109b59291906128b0565b508360016000600254815260200190815260200160002060060190805190602001906109e29291906128b0565b50826001600060025481526020019081526020016000206007019080519060200190610a0f9291906128b0565b50816001600060025481526020019081526020016000206008019080519060200190610a3c9291906128b0565b50806001600060025481526020019081526020016000206009019080519060200190610a699291906128b0565b506002547f76020fc040e621874f31bd683ac3c70ae524d6682f783cdb9ead5f6d303c258388604051610a9c91906137b6565b60405180910390a26002547f4b291666c2cd3cd2be2ae7085933be794c81b3a759eeb12c058b2b26a48a93e187604051610ad691906137b6565b60405180910390a26002547f2f69d44a966e818e483aa2b077fe4fc704ad4ee2a6e35937fc403834e3ba9f798686604051610b12929190613808565b60405180910390a250505050505050565b606060016000838152602001908152602001600020600e01805480602002602001604051908101604052809291908181526020016000905b82821015610cc5578382906000526020600020906004020160405180608001604052908160008201548152602001600182018054610b9890613ddc565b80601f0160208091040260200160405190810160405280929190818152602001828054610bc490613ddc565b8015610c115780601f10610be657610100808354040283529160200191610c11565b820191906000526020600020905b815481529060010190602001808311610bf457829003601f168201915b50505050508152602001600282018054610c2a90613ddc565b80601f0160208091040260200160405190810160405280929190818152602001828054610c5690613ddc565b8015610ca35780601f10610c7857610100808354040283529160200191610ca3565b820191906000526020600020905b815481529060010190602001808311610c8657829003601f168201915b5050505050815260200160038201548152505081526020019060010190610b5b565b505050509050919050565b60016020528060005260406000206000915090508060000154908060010160009054906101000a900473ffffffffffffffffffffffffffffffffffffffff1690806002018054610d1f90613ddc565b80601f0160208091040260200160405190810160405280929190818152602001828054610d4b90613ddc565b8015610d985780601f10610d6d57610100808354040283529160200191610d98565b820191906000526020600020905b815481529060010190602001808311610d7b57829003601f168201915b505050505090806003018054610dad90613ddc565b80601f0160208091040260200160405190810160405280929190818152602001828054610dd990613ddc565b8015610e265780601f10610dfb57610100808354040283529160200191610e26565b820191906000526020600020905b815481529060010190602001808311610e0957829003601f168201915b5050505050908060040160009054906101000a900460ff16908060040160019054906101000a900460ff1690806005018054610e6190613ddc565b80601f0160208091040260200160405190810160405280929190818152602001828054610e8d90613ddc565b8015610eda5780601f10610eaf57610100808354040283529160200191610eda565b820191906000526020600020905b815481529060010190602001808311610ebd57829003601f168201915b505050505090806006018054610eef90613ddc565b80601f0160208091040260200160405190810160405280929190818152602001828054610f1b90613ddc565b8015610f685780601f10610f3d57610100808354040283529160200191610f68565b820191906000526020600020905b815481529060010190602001808311610f4b57829003601f168201915b505050505090806007018054610f7d90613ddc565b80601f0160208091040260200160405190810160405280929190818152602001828054610fa990613ddc565b8015610ff65780601f10610fcb57610100808354040283529160200191610ff6565b820191906000526020600020905b815481529060010190602001808311610fd957829003601f168201915b50505050509080600801805461100b90613ddc565b80601f016020809104026020016040519081016040528092919081815260200182805461103790613ddc565b80156110845780601f1061105957610100808354040283529160200191611084565b820191906000526020600020905b81548152906001019060200180831161106757829003601f168201915b50505050509080600901805461109990613ddc565b80601f01602080910402602001604051908101604052809291908181526020018280546110c590613ddc565b80156111125780601f106110e757610100808354040283529160200191611112565b820191906000526020600020905b8154815290600101906020018083116110f557829003601f168201915b505050505090508b565b600580811115611155577f4e487b7100000000000000000000000000000000000000000000000000000000600052602160045260246000fd5b6000803373ffffffffffffffffffffffffffffffffffffffff1673ffffffffffffffffffffffffffffffffffffffff16815260200190815260200160002060000160149054906101000a900460ff1660058111156111dc577f4e487b7100000000000000000000000000000000000000000000000000000000600052602160045260246000fd5b1461121c576040517f08c379a00000000000000000000000000000000000000000000000000000000081526004016112139061390f565b60405180910390fd5b6003600081548092919061122f90613e0e565b919050555060016000838152602001908152602001600020600d01604051806080016040528060035481526020013373ffffffffffffffffffffffffffffffffffffffff1681526020018381526020014281525090806001815401808255809150506001900390600052602060002090600402016000909190919091506000820151816000015560208201518160010160006101000a81548173ffffffffffffffffffffffffffffffffffffffff021916908373ffffffffffffffffffffffffffffffffffffffff16021790555060408201518160020190805190602001906113199291906128b0565b50606082015181600301555050817f01a45eca5add8bc008d04da47eb5d17311e76e71fdcdf26dde57b4370a03bfa760035433844260405161135e9493929190613a26565b60405180910390a25050565b600060058111156113a4577f4e487b7100000000000000000000000000000000000000000000000000000000600052602160045260246000fd5b6000803373ffffffffffffffffffffffffffffffffffffffff1673ffffffffffffffffffffffffffffffffffffffff16815260200190815260200160002060000160149054906101000a900460ff16600581111561142b577f4e487b7100000000000000000000000000000000000000000000000000000000600052602160045260246000fd5b1461146b576040517f08c379a00000000000000000000000000000000000000000000000000000000081526004016114629061386f565b60405180910390fd5b60016000838152602001908152602001600020600a01819080600181540180825580915050600190039060005260206000200160009091909190915090805190602001906114ba9291906128b0565b50817f3e91c1bda32051113f8f1aaa1b3fb12b874b54bfd3dbdb463ee2836493a83c9d826040516114eb91906137b6565b60405180910390a25050565b600580811115611530577f4e487b7100000000000000000000000000000000000000000000000000000000600052602160045260246000fd5b6000803373ffffffffffffffffffffffffffffffffffffffff1673ffffffffffffffffffffffffffffffffffffffff16815260200190815260200160002060000160149054906101000a900460ff1660058111156115b7577f4e487b7100000000000000000000000000000000000000000000000000000000600052602160045260246000fd5b146115f7576040517f08c379a00000000000000000000000000000000000000000000000000000000081526004016115ee9061390f565b60405180910390fd5b6004600081548092919061160a90613e0e565b919050555060016000848152602001908152602001600020600e01604051806080016040528060045481526020018481526020018381526020014281525090806001815401808255809150506001900390600052602060002090600402016000909190919091506000820151816000015560208201518160010190805190602001906116979291906128b0565b5060408201518160020190805190602001906116b49291906128b0565b50606082015181600301555050827fa313df723389871f22ba2e986d3ad5724712c38a270e9ec008e6037c670862da6004548484426040516116f99493929190613ac5565b60405180910390a2505050565b60025481565b60045481565b6002600581111561174c577f4e487b7100000000000000000000000000000000000000000000000000000000600052602160045260246000fd5b6000803373ffffffffffffffffffffffffffffffffffffffff1673ffffffffffffffffffffffffffffffffffffffff16815260200190815260200160002060000160149054906101000a900460ff1660058111156117d3577f4e487b7100000000000000000000000000000000000000000000000000000000600052602160045260246000fd5b14611813576040517f08c379a000000000000000000000000000000000000000000000000000000000815260040161180a9061388f565b60405180910390fd5b60005b60016000858152602001908152602001600020600b01805490508110156119b257826040516020016118489190613664565b6040516020818303038152906040528051906020012060016000868152602001908152602001600020600b0182815481106118ac577f4e487b7100000000000000000000000000000000000000000000000000000000600052603260045260246000fd5b90600052602060002090600302016000016040516020016118cd919061367b565b60405160208183030381529060405280519060200120141561199f578160016000868152602001908152602001600020600b018281548110611938577f4e487b7100000000000000000000000000000000000000000000000000000000600052603260045260246000fd5b906000526020600020906003020160020160006101000a81548160ff021916908315150217905550837f48a30b2f4fe18c85c3ef5f067c24f56cb42dd613715bce20f76dcaa87077d96f84846040516119929291906137d8565b60405180910390a26119b2565b80806119aa90613e0e565b915050611816565b50505050565b600560008154809291906119cb90613e0e565b919050555060016000848152602001908152602001600020600c016040518060a0016040528060055481526020013373ffffffffffffffffffffffffffffffffffffffff168152602001848152602001836002811115611a54577f4e487b7100000000000000000000000000000000000000000000000000000000600052602160045260246000fd5b81526020014281525090806001815401808255809150506001900390600052602060002090600502016000909190919091506000820151816000015560208201518160010160006101000a81548173ffffffffffffffffffffffffffffffffffffffff021916908373ffffffffffffffffffffffffffffffffffffffff1602179055506040820151816002015560608201518160030160006101000a81548160ff02191690836002811115611b32577f4e487b7100000000000000000000000000000000000000000000000000000000600052602160045260246000fd5b0217905550608082015181600401555050827fba6b427338f09a816b2e12e87d74b29db8d1af7f4af86e46dc5e066fb1de573960055433858542604051611b7d959493929190613a72565b60405180910390a2505050565b606060016000838152602001908152602001600020600b01805480602002602001604051908101604052809291908181526020016000905b82821015611cab5783829060005260206000209060030201604051806060016040529081600082018054611bf590613ddc565b80601f0160208091040260200160405190810160405280929190818152602001828054611c2190613ddc565b8015611c6e5780601f10611c4357610100808354040283529160200191611c6e565b820191906000526020600020905b815481529060010190602001808311611c5157829003601f168201915b50505050508152602001600182015481526020016002820160009054906101000a900460ff16151515158152505081526020019060010190611bc2565b505050509050919050565b606060016000838152602001908152602001600020600d01805480602002602001604051908101604052809291908181526020016000905b82821015611e1c5783829060005260206000209060040201604051806080016040529081600082015481526020016001820160009054906101000a900473ffffffffffffffffffffffffffffffffffffffff1673ffffffffffffffffffffffffffffffffffffffff1673ffffffffffffffffffffffffffffffffffffffff168152602001600282018054611d8190613ddc565b80601f0160208091040260200160405190810160405280929190818152602001828054611dad90613ddc565b8015611dfa5780601f10611dcf57610100808354040283529160200191611dfa565b820191906000526020600020905b815481529060010190602001808311611ddd57829003601f168201915b5050505050815260200160038201548152505081526020019060010190611cee565b505050509050919050565b60026005811115611e61577f4e487b7100000000000000000000000000000000000000000000000000000000600052602160045260246000fd5b6000803373ffffffffffffffffffffffffffffffffffffffff1673ffffffffffffffffffffffffffffffffffffffff16815260200190815260200160002060000160149054906101000a900460ff166005811115611ee8577f4e487b7100000000000000000000000000000000000000000000000000000000600052602160045260246000fd5b14611f28576040517f08c379a0000000000000000000000000000000000000000000000000000000008152600401611f1f9061388f565b60405180910390fd5b60026003811115611f62577f4e487b7100000000000000000000000000000000000000000000000000000000600052602160045260246000fd5b6001600084815260200190815260200160002060040160019054906101000a900460ff166003811115611fbe577f4e487b7100000000000000000000000000000000000000000000000000000000600052602160045260246000fd5b14611ffe576040517f08c379a0000000000000000000000000000000000000000000000000000000008152600401611ff5906138af565b60405180910390fd5b817fb0a26e6f92742be73e2b10e4ca6494bc6f97c828c1f06afc1aad3e69eb1a62eb8260405161202e9190613765565b60405180910390a25050565b60405180604001604052808373ffffffffffffffffffffffffffffffffffffffff16815260200182600581111561209a577f4e487b7100000000000000000000000000000000000000000000000000000000600052602160045260246000fd5b8152506000808473ffffffffffffffffffffffffffffffffffffffff1673ffffffffffffffffffffffffffffffffffffffff16815260200190815260200160002060008201518160000160006101000a81548173ffffffffffffffffffffffffffffffffffffffff021916908373ffffffffffffffffffffffffffffffffffffffff16021790555060208201518160000160146101000a81548160ff02191690836005811115612173577f4e487b7100000000000000000000000000000000000000000000000000000000600052602160045260246000fd5b02179055509050508173ffffffffffffffffffffffffffffffffffffffff167fbd86914a2cea41efb2ef2e360c4375dceb3c2ec14c6876f40345126b9ac1f3cc826040516121c1919061379b565b60405180910390a25050565b60036005811115612207577f4e487b7100000000000000000000000000000000000000000000000000000000600052602160045260246000fd5b6000803373ffffffffffffffffffffffffffffffffffffffff1673ffffffffffffffffffffffffffffffffffffffff16815260200190815260200160002060000160149054906101000a900460ff16600581111561228e577f4e487b7100000000000000000000000000000000000000000000000000000000600052602160045260246000fd5b146122ce576040517f08c379a00000000000000000000000000000000000000000000000000000000081526004016122c5906138ef565b60405180910390fd5b60016000848152602001908152602001600020600b01604051806060016040528084815260200183815260200160001515815250908060018154018082558091505060019003906000526020600020906003020160009091909190915060008201518160000190805190602001906123479291906128b0565b506020820151816001015560408201518160020160006101000a81548160ff0219169083151502179055505050827f375185d24a1c31669068f184b530875ecc60b01611be86ca7346d6f42aa7b24a83836040516123a692919061383f565b60405180910390a2505050565b606060016000838152602001908152602001600020600a01805480602002602001604051908101604052809291908181526020016000905b8282101561249757838290600052602060002001805461240a90613ddc565b80601f016020809104026020016040519081016040528092919081815260200182805461243690613ddc565b80156124835780601f1061245857610100808354040283529160200191612483565b820191906000526020600020905b81548152906001019060200180831161246657829003601f168201915b5050505050815260200190600101906123eb565b505050509050919050565b600260058111156124dc577f4e487b7100000000000000000000000000000000000000000000000000000000600052602160045260246000fd5b6000803373ffffffffffffffffffffffffffffffffffffffff1673ffffffffffffffffffffffffffffffffffffffff16815260200190815260200160002060000160149054906101000a900460ff166005811115612563577f4e487b7100000000000000000000000000000000000000000000000000000000600052602160045260246000fd5b146125a3576040517f08c379a000000000000000000000000000000000000000000000000000000000815260040161259a9061388f565b60405180910390fd5b600160038111156125dd577f4e487b7100000000000000000000000000000000000000000000000000000000600052602160045260246000fd5b6001600084815260200190815260200160002060040160019054906101000a900460ff166003811115612639577f4e487b7100000000000000000000000000000000000000000000000000000000600052602160045260246000fd5b14612679576040517f08c379a0000000000000000000000000000000000000000000000000000000008152600401612670906138cf565b60405180910390fd5b806001600084815260200190815260200160002060040160006101000a81548160ff021916908315150217905550817f8376f0f93a9f281fb3c3d346f9e32ed107438f6270d44c2f4c70f741db94738d826040516126d79190613765565b60405180910390a25050565b60055481565b60035481565b60006020528060005260406000206000915090508060000160009054906101000a900473ffffffffffffffffffffffffffffffffffffffff16908060000160149054906101000a900460ff16905082565b606060016000838152602001908152602001600020600c01805480602002602001604051908101604052809291908181526020016000905b828210156128a557838290600052602060002090600502016040518060a0016040529081600082015481526020016001820160009054906101000a900473ffffffffffffffffffffffffffffffffffffffff1673ffffffffffffffffffffffffffffffffffffffff1673ffffffffffffffffffffffffffffffffffffffff168152602001600282015481526020016003820160009054906101000a900460ff166002811115612850577f4e487b7100000000000000000000000000000000000000000000000000000000600052602160045260246000fd5b6002811115612888577f4e487b7100000000000000000000000000000000000000000000000000000000600052602160045260246000fd5b815260200160048201548152505081526020019060010190612778565b505050509050919050565b8280546128bc90613ddc565b90600052602060002090601f0160209004810192826128de5760008555612925565b82601f106128f757805160ff1916838001178555612925565b82800160010185558215612925579182015b82811115612924578251825591602001919060010190612909565b5b5090506129329190612936565b5090565b5b8082111561294f576000816000905550600101612937565b5090565b600061296661296184613b49565b613b18565b90508281526020810184848401111561297e57600080fd5b612989848285613d9a565b509392505050565b6000813590506129a081613f60565b92915050565b6000813590506129b581613f77565b92915050565b6000813590506129ca81613f8e565b92915050565b6000813590506129df81613f9e565b92915050565b6000813590506129f481613fae565b92915050565b600082601f830112612a0b57600080fd5b8135612a1b848260208601612953565b91505092915050565b600081359050612a3381613fbe565b92915050565b600060208284031215612a4b57600080fd5b6000612a5984828501612991565b91505092915050565b60008060408385031215612a7557600080fd5b6000612a8385828601612991565b9250506020612a94858286016129e5565b9150509250929050565b600080600080600080600060e0888a031215612ab957600080fd5b600088013567ffffffffffffffff811115612ad357600080fd5b612adf8a828b016129fa565b975050602088013567ffffffffffffffff811115612afc57600080fd5b612b088a828b016129fa565b965050604088013567ffffffffffffffff811115612b2557600080fd5b612b318a828b016129fa565b955050606088013567ffffffffffffffff811115612b4e57600080fd5b612b5a8a828b016129fa565b945050608088013567ffffffffffffffff811115612b7757600080fd5b612b838a828b016129fa565b93505060a088013567ffffffffffffffff811115612ba057600080fd5b612bac8a828b016129fa565b92505060c088013567ffffffffffffffff811115612bc957600080fd5b612bd58a828b016129fa565b91505092959891949750929550565b600060208284031215612bf657600080fd5b6000612c0484828501612a24565b91505092915050565b60008060408385031215612c2057600080fd5b6000612c2e85828601612a24565b9250506020612c3f858286016129a6565b9150509250929050565b60008060408385031215612c5c57600080fd5b6000612c6a85828601612a24565b9250506020612c7b858286016129bb565b9150509250929050565b60008060408385031215612c9857600080fd5b6000612ca685828601612a24565b925050602083013567ffffffffffffffff811115612cc357600080fd5b612ccf858286016129fa565b9150509250929050565b600080600060608486031215612cee57600080fd5b6000612cfc86828701612a24565b935050602084013567ffffffffffffffff811115612d1957600080fd5b612d25868287016129fa565b9250506040612d36868287016129a6565b9150509250925092565b600080600060608486031215612d5557600080fd5b6000612d6386828701612a24565b935050602084013567ffffffffffffffff811115612d8057600080fd5b612d8c868287016129fa565b925050604084013567ffffffffffffffff811115612da957600080fd5b612db5868287016129fa565b9150509250925092565b600080600060608486031215612dd457600080fd5b6000612de286828701612a24565b935050602084013567ffffffffffffffff811115612dff57600080fd5b612e0b868287016129fa565b9250506040612e1c86828701612a24565b9150509250925092565b600080600060608486031215612e3b57600080fd5b6000612e4986828701612a24565b9350506020612e5a86828701612a24565b9250506040612e6b868287016129d0565b9150509250925092565b6000612e818383613187565b905092915050565b6000612e9583836134c1565b905092915050565b6000612ea9838361352b565b905092915050565b6000612ebd838361358e565b905092915050565b6000612ed183836135de565b60a08301905092915050565b612ee681613ce3565b82525050565b612ef581613ce3565b82525050565b6000612f0682613bde565b612f108185613c61565b935083602082028501612f2285613b79565b8060005b85811015612f5e5784840389528151612f3f8582612e75565b9450612f4a83613c20565b925060208a01995050600181019050612f26565b50829750879550505050505092915050565b6000612f7b82613be9565b612f858185613c72565b935083602082028501612f9785613b89565b8060005b85811015612fd35784840389528151612fb48582612e89565b9450612fbf83613c2d565b925060208a01995050600181019050612f9b565b50829750879550505050505092915050565b6000612ff082613bf4565b612ffa8185613c83565b93508360208202850161300c85613b99565b8060005b8581101561304857848403895281516130298582612e9d565b945061303483613c3a565b925060208a01995050600181019050613010565b50829750879550505050505092915050565b600061306582613bff565b61306f8185613c94565b93508360208202850161308185613ba9565b8060005b858110156130bd578484038952815161309e8582612eb1565b94506130a983613c47565b925060208a01995050600181019050613085565b50829750879550505050505092915050565b60006130da82613c0a565b6130e48185613ca5565b93506130ef83613bb9565b8060005b838110156131205781516131078882612ec5565b975061311283613c54565b9250506001810190506130f3565b5085935050505092915050565b61313681613cf5565b82525050565b61314581613cf5565b82525050565b61315481613d64565b82525050565b61316381613d76565b82525050565b61317281613d76565b82525050565b61318181613d88565b82525050565b600061319282613c15565b61319c8185613cb6565b93506131ac818560208601613da9565b6131b581613f13565b840191505092915050565b60006131cb82613c15565b6131d58185613cc7565b93506131e5818560208601613da9565b6131ee81613f13565b840191505092915050565b600061320482613c15565b61320e8185613cd8565b935061321e818560208601613da9565b80840191505092915050565b6000815461323781613ddc565b6132418186613cd8565b9450600182166000811461325c576001811461326d576132a0565b60ff198316865281860193506132a0565b61327685613bc9565b60005b8381101561329857815481890152600182019150602081019050613279565b838801955050505b50505092915050565b60006132b6602283613cc7565b91507f4e6f6e206175746f726973653a207365756c656d656e742050726f647563746560008301527f75720000000000000000000000000000000000000000000000000000000000006020830152604082019050919050565b600061331c602583613cc7565b91507f4e6f6e206175746f726973653a207365756c656d656e7420436572746966696360008301527f61746575720000000000000000000000000000000000000000000000000000006020830152604082019050919050565b6000613382601783613cc7565b91507f50617320656e206574617065206465207265636f6c74650000000000000000006000830152602082019050919050565b60006133c2601783613cc7565b91507f50617320656e2065746170652064652063756c747572650000000000000000006000830152602082019050919050565b6000613402602283613cc7565b91507f4e6f6e206175746f726973653a207365756c656d656e7420436f6c6c6563746560008301527f75720000000000000000000000000000000000000000000000000000000000006020830152604082019050919050565b6000613468602483613cc7565b91507f4e6f6e206175746f726973653a207365756c656d656e74205472616e73706f7260008301527f74657572000000000000000000000000000000000000000000000000000000006020830152604082019050919050565b60006080830160008301516134d96000860182613646565b50602083015184820360208601526134f18282613187565b9150506040830151848203604086015261350b8282613187565b91505060608301516135206060860182613646565b508091505092915050565b60006080830160008301516135436000860182613646565b5060208301516135566020860182612edd565b506040830151848203604086015261356e8282613187565b91505060608301516135836060860182613646565b508091505092915050565b600060608301600083015184820360008601526135ab8282613187565b91505060208301516135c06020860182613646565b5060408301516135d3604086018261312d565b508091505092915050565b60a0820160008201516135f46000850182613646565b5060208201516136076020850182612edd565b50604082015161361a6040850182613646565b50606082015161362d606085018261315a565b5060808201516136406080850182613646565b50505050565b61364f81613d5a565b82525050565b61365e81613d5a565b82525050565b600061367082846131f9565b915081905092915050565b6000613687828461322a565b915081905092915050565b60006040820190506136a76000830185612eec565b6136b46020830184613178565b9392505050565b600060208201905081810360008301526136d58184612efb565b905092915050565b600060208201905081810360008301526136f78184612f70565b905092915050565b600060208201905081810360008301526137198184612fe5565b905092915050565b6000602082019050818103600083015261373b818461305a565b905092915050565b6000602082019050818103600083015261375d81846130cf565b905092915050565b600060208201905061377a600083018461313c565b92915050565b6000602082019050613795600083018461314b565b92915050565b60006020820190506137b06000830184613178565b92915050565b600060208201905081810360008301526137d081846131c0565b905092915050565b600060408201905081810360008301526137f281856131c0565b9050613801602083018461313c565b9392505050565b6000604082019050818103600083015261382281856131c0565b9050818103602083015261383681846131c0565b90509392505050565b6000604082019050818103600083015261385981856131c0565b90506138686020830184613655565b9392505050565b60006020820190508181036000830152613888816132a9565b9050919050565b600060208201905081810360008301526138a88161330f565b9050919050565b600060208201905081810360008301526138c881613375565b9050919050565b600060208201905081810360008301526138e8816133b5565b9050919050565b60006020820190508181036000830152613908816133f5565b9050919050565b600060208201905081810360008301526139288161345b565b9050919050565b60006020820190506139446000830184613655565b92915050565b600061016082019050613960600083018e613655565b61396d602083018d612eec565b818103604083015261397f818c6131c0565b90508181036060830152613993818b6131c0565b90506139a2608083018a61313c565b6139af60a083018961314b565b81810360c08301526139c181886131c0565b905081810360e08301526139d581876131c0565b90508181036101008301526139ea81866131c0565b90508181036101208301526139ff81856131c0565b9050818103610140830152613a1481846131c0565b90509c9b505050505050505050505050565b6000608082019050613a3b6000830187613655565b613a486020830186612eec565b8181036040830152613a5a81856131c0565b9050613a696060830184613655565b95945050505050565b600060a082019050613a876000830188613655565b613a946020830187612eec565b613aa16040830186613655565b613aae6060830185613169565b613abb6080830184613655565b9695505050505050565b6000608082019050613ada6000830187613655565b8181036020830152613aec81866131c0565b90508181036040830152613b0081856131c0565b9050613b0f6060830184613655565b95945050505050565b6000604051905081810181811067ffffffffffffffff82111715613b3f57613b3e613ee4565b5b8060405250919050565b600067ffffffffffffffff821115613b6457613b63613ee4565b5b601f19601f8301169050602081019050919050565b6000819050602082019050919050565b6000819050602082019050919050565b6000819050602082019050919050565b6000819050602082019050919050565b6000819050602082019050919050565b60008190508160005260206000209050919050565b600081519050919050565b600081519050919050565b600081519050919050565b600081519050919050565b600081519050919050565b600081519050919050565b6000602082019050919050565b6000602082019050919050565b6000602082019050919050565b6000602082019050919050565b6000602082019050919050565b600082825260208201905092915050565b600082825260208201905092915050565b600082825260208201905092915050565b600082825260208201905092915050565b600082825260208201905092915050565b600082825260208201905092915050565b600082825260208201905092915050565b600081905092915050565b6000613cee82613d3a565b9050919050565b60008115159050919050565b6000819050613d0f82613f24565b919050565b6000819050613d2282613f38565b919050565b6000819050613d3582613f4c565b919050565b600073ffffffffffffffffffffffffffffffffffffffff82169050919050565b6000819050919050565b6000613d6f82613d01565b9050919050565b6000613d8182613d14565b9050919050565b6000613d9382613d27565b9050919050565b82818337600083830152505050565b60005b83811015613dc7578082015181840152602081019050613dac565b83811115613dd6576000848401525b50505050565b60006002820490506001821680613df457607f821691505b60208210811415613e0857613e07613eb5565b5b50919050565b6000613e1982613d5a565b91507fffffffffffffffffffffffffffffffffffffffffffffffffffffffffffffffff821415613e4c57613e4b613e57565b5b600182019050919050565b7f4e487b7100000000000000000000000000000000000000000000000000000000600052601160045260246000fd5b7f4e487b7100000000000000000000000000000000000000000000000000000000600052602160045260246000fd5b7f4e487b7100000000000000000000000000000000000000000000000000000000600052602260045260246000fd5b7f4e487b7100000000000000000000000000000000000000000000000000000000600052604160045260246000fd5b6000601f19601f8301169050919050565b60048110613f3557613f34613e86565b5b50565b60038110613f4957613f48613e86565b5b50565b60068110613f5d57613f5c613e86565b5b50565b613f6981613ce3565b8114613f7457600080fd5b50565b613f8081613cf5565b8114613f8b57600080fd5b50565b60048110613f9b57600080fd5b50565b60038110613fab57600080fd5b50565b60068110613fbb57600080fd5b50565b613fc781613d5a565b8114613fd257600080fd5b5056fea2646970667358221220c5c68cd909acb6bbed9d55668d8a711d6d59bc3b1b38723a6d9a65793b862ca864736f6c63430008000033",
  "linkReferences": {},
  "deployedLinkReferences": {}
}