{
  "_format": "hh-sol-artifact-1",
  "contractName": "CollecteurProducteur",
  "sourceName": "contracts/CollecteurProducteur.sol",
  "abi": [
    {
      "anonymous": false,
      "inputs": [
        {
          "indexed": true,
          "internalType": "uint32",
          "name": "idProduit",
          "type": "uint32"
        },
        {
          "indexed": false,
          "internalType": "string",
          "name": "cid",
          "type": "string"
        },
        {
          "indexed": false,
          "internalType": "uint256",
          "name": "timestamp",
          "type": "uint256"
        },
        {
          "indexed": false,
          "internalType": "address",
          "name": "transporteur",
          "type": "address"
        }
      ],
      "name": "ConditionEnregistree",
      "type": "event"
    },
    {
      "anonymous": false,
      "inputs": [
        {
          "indexed": true,
          "internalType": "uint32",
          "name": "idCommande",
          "type": "uint32"
        },
        {
          "indexed": false,
          "internalType": "enum StructLib.StatutTransport",
          "name": "statut",
          "type": "uint8"
        },
        {
          "indexed": false,
          "internalType": "address",
          "name": "transporteur",
          "type": "address"
        }
      ],
      "name": "StatutTransportMisAJour",
      "type": "event"
    },
    {
      "anonymous": false,
      "inputs": [
        {
          "indexed": true,
          "internalType": "uint32",
          "name": "idCommande",
          "type": "uint32"
        },
        {
          "indexed": false,
          "internalType": "bool",
          "name": "status",
          "type": "bool"
        }
      ],
      "name": "ValidationCommandeRecolte",
      "type": "event"
    },
    {
      "inputs": [
        {
          "internalType": "uint32",
          "name": "_idRecolte",
          "type": "uint32"
        },
        {
          "internalType": "string",
          "name": "_hash",
          "type": "string"
        }
      ],
      "name": "ajoutHashMerkleRecolte",
      "outputs": [],
      "stateMutability": "nonpayable",
      "type": "function"
    },
    {
      "inputs": [
        {
          "internalType": "uint32[]",
          "name": "_idParcelles",
          "type": "uint32[]"
        },
        {
          "internalType": "uint32",
          "name": "_quantite",
          "type": "uint32"
        },
        {
          "internalType": "uint32",
          "name": "_prix",
          "type": "uint32"
        },
        {
          "internalType": "string",
          "name": "_cid",
          "type": "string"
        }
      ],
      "name": "ajoutRecolte",
      "outputs": [],
      "stateMutability": "nonpayable",
      "type": "function"
    },
    {
      "inputs": [
        {
          "internalType": "uint32",
          "name": "_idRecolte",
          "type": "uint32"
        },
        {
          "internalType": "string",
          "name": "_certificat",
          "type": "string"
        }
      ],
      "name": "certifieRecolte",
      "outputs": [],
      "stateMutability": "nonpayable",
      "type": "function"
    },
    {
      "inputs": [
        {
          "internalType": "uint32",
          "name": "idCommande",
          "type": "uint32"
        },
        {
          "internalType": "address",
          "name": "transporteur",
          "type": "address"
        }
      ],
      "name": "choisirTransporteurCommandeRecolte",
      "outputs": [],
      "stateMutability": "nonpayable",
      "type": "function"
    },
    {
      "inputs": [
        {
          "internalType": "uint32",
          "name": "",
          "type": "uint32"
        }
      ],
      "name": "commandes",
      "outputs": [
        {
          "internalType": "uint32",
          "name": "id",
          "type": "uint32"
        },
        {
          "internalType": "uint32",
          "name": "idRecolte",
          "type": "uint32"
        },
        {
          "internalType": "uint32",
          "name": "quantite",
          "type": "uint32"
        },
        {
          "internalType": "uint32",
          "name": "prix",
          "type": "uint32"
        },
        {
          "internalType": "bool",
          "name": "payer",
          "type": "bool"
        },
        {
          "internalType": "enum StructLib.StatutTransport",
          "name": "statutTransport",
          "type": "uint8"
        },
        {
          "internalType": "address",
          "name": "producteur",
          "type": "address"
        },
        {
          "internalType": "address",
          "name": "collecteur",
          "type": "address"
        },
        {
          "internalType": "enum StructLib.StatutProduit",
          "name": "statutRecolte",
          "type": "uint8"
        },
        {
          "internalType": "string",
          "name": "hashMerkle",
          "type": "string"
        },
        {
          "internalType": "bool",
          "name": "enregistrerCondition",
          "type": "bool"
        },
        {
          "internalType": "address",
          "name": "transporteur",
          "type": "address"
        }
      ],
      "stateMutability": "view",
      "type": "function"
    },
    {
      "inputs": [],
      "name": "compteurCommandes",
      "outputs": [
        {
          "internalType": "uint32",
          "name": "",
          "type": "uint32"
        }
      ],
      "stateMutability": "view",
      "type": "function"
    },
    {
      "inputs": [],
      "name": "compteurRecoltes",
      "outputs": [
        {
          "internalType": "uint32",
          "name": "",
          "type": "uint32"
        }
      ],
      "stateMutability": "view",
      "type": "function"
    },
    {
      "inputs": [
        {
          "internalType": "uint32",
          "name": "",
          "type": "uint32"
        }
      ],
      "name": "conditions",
      "outputs": [
        {
          "internalType": "uint32",
          "name": "id",
          "type": "uint32"
        },
        {
          "internalType": "string",
          "name": "cid",
          "type": "string"
        },
        {
          "internalType": "uint256",
          "name": "timestamp",
          "type": "uint256"
        },
        {
          "internalType": "string",
          "name": "hashMerkle",
          "type": "string"
        }
      ],
      "stateMutability": "view",
      "type": "function"
    },
    {
      "inputs": [
        {
          "internalType": "uint32",
          "name": "_idCommande",
          "type": "uint32"
        },
        {
          "internalType": "uint32",
          "name": "_montant",
          "type": "uint32"
        },
        {
          "internalType": "enum StructLib.ModePaiement",
          "name": "_mode",
          "type": "uint8"
        }
      ],
      "name": "effectuerPaiementVersProducteur",
      "outputs": [],
      "stateMutability": "payable",
      "type": "function"
    },
    {
      "inputs": [
        {
          "internalType": "uint32",
          "name": "_idCommande",
          "type": "uint32"
        },
        {
          "internalType": "string",
          "name": "_cid",
          "type": "string"
        }
      ],
      "name": "enregistrerCondition",
      "outputs": [],
      "stateMutability": "nonpayable",
      "type": "function"
    },
    {
      "inputs": [],
      "name": "gestionnaireActeurs",
      "outputs": [
        {
          "internalType": "contract GestionnaireActeurs",
          "name": "",
          "type": "address"
        }
      ],
      "stateMutability": "view",
      "type": "function"
    },
    {
      "inputs": [
        {
          "internalType": "uint32",
          "name": "_id",
          "type": "uint32"
        }
      ],
      "name": "getCommande",
      "outputs": [
        {
          "components": [
            {
              "internalType": "uint32",
              "name": "id",
              "type": "uint32"
            },
            {
              "internalType": "uint32",
              "name": "idRecolte",
              "type": "uint32"
            },
            {
              "internalType": "uint32",
              "name": "quantite",
              "type": "uint32"
            },
            {
              "internalType": "uint32",
              "name": "prix",
              "type": "uint32"
            },
            {
              "internalType": "bool",
              "name": "payer",
              "type": "bool"
            },
            {
              "internalType": "enum StructLib.StatutTransport",
              "name": "statutTransport",
              "type": "uint8"
            },
            {
              "internalType": "address",
              "name": "producteur",
              "type": "address"
            },
            {
              "internalType": "address",
              "name": "collecteur",
              "type": "address"
            },
            {
              "internalType": "enum StructLib.StatutProduit",
              "name": "statutRecolte",
              "type": "uint8"
            },
            {
              "internalType": "string",
              "name": "hashMerkle",
              "type": "string"
            },
            {
              "internalType": "bool",
              "name": "enregistrerCondition",
              "type": "bool"
            },
            {
              "internalType": "address",
              "name": "transporteur",
              "type": "address"
            }
          ],
          "internalType": "struct StructLib.CommandeRecolte",
          "name": "",
          "type": "tuple"
        }
      ],
      "stateMutability": "view",
      "type": "function"
    },
    {
      "inputs": [],
      "name": "getCompteurCommandes",
      "outputs": [
        {
          "internalType": "uint32",
          "name": "",
          "type": "uint32"
        }
      ],
      "stateMutability": "view",
      "type": "function"
    },
    {
      "inputs": [],
      "name": "getCompteurPaiments",
      "outputs": [
        {
          "internalType": "uint32",
          "name": "",
          "type": "uint32"
        }
      ],
      "stateMutability": "view",
      "type": "function"
    },
    {
      "inputs": [],
      "name": "getCompteurRecoltes",
      "outputs": [
        {
          "internalType": "uint32",
          "name": "",
          "type": "uint32"
        }
      ],
      "stateMutability": "view",
      "type": "function"
    },
    {
      "inputs": [
        {
          "internalType": "uint32",
          "name": "_idCommande",
          "type": "uint32"
        }
      ],
      "name": "getConditionTransport",
      "outputs": [
        {
          "components": [
            {
              "internalType": "uint32",
              "name": "id",
              "type": "uint32"
            },
            {
              "internalType": "string",
              "name": "cid",
              "type": "string"
            },
            {
              "internalType": "uint256",
              "name": "timestamp",
              "type": "uint256"
            },
            {
              "internalType": "string",
              "name": "hashMerkle",
              "type": "string"
            }
          ],
          "internalType": "struct StructLib.EnregistrementCondition",
          "name": "",
          "type": "tuple"
        }
      ],
      "stateMutability": "view",
      "type": "function"
    },
    {
      "inputs": [
        {
          "internalType": "uint32",
          "name": "_id",
          "type": "uint32"
        }
      ],
      "name": "getPaiement",
      "outputs": [
        {
          "components": [
            {
              "internalType": "uint32",
              "name": "id",
              "type": "uint32"
            },
            {
              "internalType": "address",
              "name": "payeur",
              "type": "address"
            },
            {
              "internalType": "address",
              "name": "vendeur",
              "type": "address"
            },
            {
              "internalType": "uint32",
              "name": "montant",
              "type": "uint32"
            },
            {
              "internalType": "enum StructLib.ModePaiement",
              "name": "mode",
              "type": "uint8"
            },
            {
              "internalType": "uint256",
              "name": "timestamp",
              "type": "uint256"
            },
            {
              "internalType": "string",
              "name": "hashMerkle",
              "type": "string"
            }
          ],
          "internalType": "struct StructLib.Paiement",
          "name": "",
          "type": "tuple"
        }
      ],
      "stateMutability": "view",
      "type": "function"
    },
    {
      "inputs": [
        {
          "internalType": "uint32",
          "name": "_idRecolte",
          "type": "uint32"
        }
      ],
      "name": "getRecolte",
      "outputs": [
        {
          "components": [
            {
              "internalType": "uint32",
              "name": "id",
              "type": "uint32"
            },
            {
              "internalType": "uint32[]",
              "name": "idParcelle",
              "type": "uint32[]"
            },
            {
              "internalType": "uint32",
              "name": "quantite",
              "type": "uint32"
            },
            {
              "internalType": "uint32",
              "name": "prixUnit",
              "type": "uint32"
            },
            {
              "internalType": "bool",
              "name": "certifie",
              "type": "bool"
            },
            {
              "internalType": "string",
              "name": "certificatPhytosanitaire",
              "type": "string"
            },
            {
              "internalType": "address",
              "name": "producteur",
              "type": "address"
            },
            {
              "internalType": "string",
              "name": "hashMerkle",
              "type": "string"
            },
            {
              "internalType": "string",
              "name": "cid",
              "type": "string"
            }
          ],
          "internalType": "struct StructLib.Recolte",
          "name": "",
          "type": "tuple"
        }
      ],
      "stateMutability": "view",
      "type": "function"
    },
    {
      "inputs": [
        {
          "internalType": "address",
          "name": "_addrCE",
          "type": "address"
        },
        {
          "internalType": "address",
          "name": "_gestionnaireActeurs",
          "type": "address"
        },
        {
          "internalType": "address",
          "name": "_producteurEnPhaseCulture",
          "type": "address"
        }
      ],
      "name": "initialiser",
      "outputs": [],
      "stateMutability": "nonpayable",
      "type": "function"
    },
    {
      "inputs": [
        {
          "internalType": "uint32",
          "name": "",
          "type": "uint32"
        }
      ],
      "name": "paiements",
      "outputs": [
        {
          "internalType": "uint32",
          "name": "id",
          "type": "uint32"
        },
        {
          "internalType": "address",
          "name": "payeur",
          "type": "address"
        },
        {
          "internalType": "address",
          "name": "vendeur",
          "type": "address"
        },
        {
          "internalType": "uint32",
          "name": "montant",
          "type": "uint32"
        },
        {
          "internalType": "enum StructLib.ModePaiement",
          "name": "mode",
          "type": "uint8"
        },
        {
          "internalType": "uint256",
          "name": "timestamp",
          "type": "uint256"
        },
        {
          "internalType": "string",
          "name": "hashMerkle",
          "type": "string"
        }
      ],
      "stateMutability": "view",
      "type": "function"
    },
    {
      "inputs": [
        {
          "internalType": "uint32",
          "name": "_idRecolte",
          "type": "uint32"
        },
        {
          "internalType": "uint32",
          "name": "_quantite",
          "type": "uint32"
        }
      ],
      "name": "passerCommandeVersProducteur",
      "outputs": [],
      "stateMutability": "nonpayable",
      "type": "function"
    },
    {
      "inputs": [],
      "name": "producteurEnPhaseCulture",
      "outputs": [
        {
          "internalType": "contract ProducteurEnPhaseCulture",
          "name": "",
          "type": "address"
        }
      ],
      "stateMutability": "view",
      "type": "function"
    },
    {
      "inputs": [
        {
          "internalType": "uint32",
          "name": "",
          "type": "uint32"
        }
      ],
      "name": "recoltes",
      "outputs": [
        {
          "internalType": "uint32",
          "name": "id",
          "type": "uint32"
        },
        {
          "internalType": "uint32",
          "name": "quantite",
          "type": "uint32"
        },
        {
          "internalType": "uint32",
          "name": "prixUnit",
          "type": "uint32"
        },
        {
          "internalType": "bool",
          "name": "certifie",
          "type": "bool"
        },
        {
          "internalType": "string",
          "name": "certificatPhytosanitaire",
          "type": "string"
        },
        {
          "internalType": "address",
          "name": "producteur",
          "type": "address"
        },
        {
          "internalType": "string",
          "name": "hashMerkle",
          "type": "string"
        },
        {
          "internalType": "string",
          "name": "cid",
          "type": "string"
        }
      ],
      "stateMutability": "view",
      "type": "function"
    },
    {
      "inputs": [
        {
          "internalType": "address",
          "name": "_addr",
          "type": "address"
        }
      ],
      "name": "setGestionnaireActeurs",
      "outputs": [],
      "stateMutability": "nonpayable",
      "type": "function"
    },
    {
      "inputs": [
        {
          "internalType": "address",
          "name": "_addr",
          "type": "address"
        }
      ],
      "name": "setModuleCE",
      "outputs": [],
      "stateMutability": "nonpayable",
      "type": "function"
    },
    {
      "inputs": [
        {
          "internalType": "address",
          "name": "_addr",
          "type": "address"
        }
      ],
      "name": "setProducteurEnPhaseCulture",
      "outputs": [],
      "stateMutability": "nonpayable",
      "type": "function"
    },
    {
      "inputs": [
        {
          "internalType": "uint32",
          "name": "_idCommande",
          "type": "uint32"
        },
        {
          "internalType": "bool",
          "name": "_valide",
          "type": "bool"
        }
      ],
      "name": "validerCommandeRecolte",
      "outputs": [],
      "stateMutability": "nonpayable",
      "type": "function"
    }
  ],
  "bytecode": "0x608060405234801561001057600080fd5b50615ffd80620000216000396000f3fe60806040526004361061019c5760003560e01c80638428d543116100ec578063cb3948761161008a578063e550ef9911610064578063e550ef99146105e1578063f1b7e5a81461060a578063f6980cc914610633578063fd643101146106735761019c565b8063cb39487614610562578063cd60462b1461058d578063d84e632d146105b85761019c565b80639e942cd4116100c65780639e942cd41461049f578063b38d3aea146104ca578063b3df2a151461050e578063b5fe2076146105375761019c565b80638428d54314610431578063843428421461044d5780639d75741d146104765761019c565b80633e7a6049116101595780635293ea51116101335780635293ea51146103405780636ad267d31461037d5780636f3fd6c5146103a65780637babcffa146103ee5761019c565b80633e7a6049146102c1578063488dee20146102ea57806350346b0b146103155761019c565b80630b215e64146101a1578063182b03bc146101de57806319c04d0e1461020757806319f1c29014610244578063257687e61461026f5780632d5b365814610298575b600080fd5b3480156101ad57600080fd5b506101c860048036038101906101c391906147d4565b6106b0565b6040516101d59190615868565b60405180910390f35b3480156101ea57600080fd5b50610205600480360381019061020091906146d7565b610904565b005b34801561021357600080fd5b5061022e600480360381019061022991906147d4565b610f1e565b60405161023b9190615846565b60405180910390f35b34801561025057600080fd5b506102596110ab565b60405161026691906158ac565b60405180910390f35b34801561027b57600080fd5b506102966004803603810190610291919061465f565b6110c3565b005b3480156102a457600080fd5b506102bf60048036038101906102ba91906148f2565b611107565b005b3480156102cd57600080fd5b506102e860048036038101906102e3919061465f565b611ae7565b005b3480156102f657600080fd5b506102ff611b2b565b60405161030c91906158ac565b60405180910390f35b34801561032157600080fd5b5061032a611b3f565b604051610337919061550b565b60405180910390f35b34801561034c57600080fd5b50610367600480360381019061036291906147d4565b611b65565b6040516103749190615824565b60405180910390f35b34801561038957600080fd5b506103a4600480360381019061039f919061489e565b611f0f565b005b3480156103b257600080fd5b506103cd60048036038101906103c891906147d4565b611faa565b6040516103e59c9b9a99989796959493929190615a5a565b60405180910390f35b3480156103fa57600080fd5b50610415600480360381019061041091906147d4565b612166565b60405161042897969594939291906158c7565b60405180910390f35b61044b6004803603810190610446919061492e565b61229d565b005b34801561045957600080fd5b50610474600480360381019061046f9190614862565b612be1565b005b34801561048257600080fd5b5061049d6004803603810190610498919061489e565b612fc0565b005b3480156104ab57600080fd5b506104b46131c7565b6040516104c191906154f0565b60405180910390f35b3480156104d657600080fd5b506104f160048036038101906104ec91906147d4565b6131ed565b6040516105059897969594939291906159c7565b60405180910390f35b34801561051a57600080fd5b5061053560048036038101906105309190614826565b61342a565b005b34801561054357600080fd5b5061054c61368b565b60405161055991906158ac565b60405180910390f35b34801561056e57600080fd5b506105776136a3565b60405161058491906158ac565b60405180910390f35b34801561059957600080fd5b506105a26136b9565b6040516105af91906158ac565b60405180910390f35b3480156105c457600080fd5b506105df60048036038101906105da919061465f565b6136d3565b005b3480156105ed57600080fd5b506106086004803603810190610603919061489e565b613717565b005b34801561061657600080fd5b50610631600480360381019061062c9190614688565b613a16565b005b34801561063f57600080fd5b5061065a600480360381019061065591906147d4565b613b49565b60405161066a949392919061593d565b60405180910390f35b34801561067f57600080fd5b5061069a600480360381019061069591906147d4565b613c99565b6040516106a7919061588a565b60405180910390f35b6106b8613fef565b600260008363ffffffff1663ffffffff1681526020019081526020016000206040518060e00160405290816000820160009054906101000a900463ffffffff1663ffffffff1663ffffffff1681526020016000820160049054906101000a900473ffffffffffffffffffffffffffffffffffffffff1673ffffffffffffffffffffffffffffffffffffffff1673ffffffffffffffffffffffffffffffffffffffff1681526020016001820160009054906101000a900473ffffffffffffffffffffffffffffffffffffffff1673ffffffffffffffffffffffffffffffffffffffff1673ffffffffffffffffffffffffffffffffffffffff1681526020016001820160149054906101000a900463ffffffff1663ffffffff1663ffffffff1681526020016001820160189054906101000a900460ff166002811115610825577f4e487b7100000000000000000000000000000000000000000000000000000000600052602160045260246000fd5b600281111561085d577f4e487b7100000000000000000000000000000000000000000000000000000000600052602160045260246000fd5b81526020016002820154815260200160038201805461087b90615df6565b80601f01602080910402602001604051908101604052809291908181526020018280546108a790615df6565b80156108f45780601f106108c9576101008083540402835291602001916108f4565b820191906000526020600020905b8154815290600101906020018083116108d757829003601f168201915b5050505050815250509050919050565b600560009054906101000a900473ffffffffffffffffffffffffffffffffffffffff1673ffffffffffffffffffffffffffffffffffffffff1663d1e47bb33360006040518363ffffffff1660e01b81526004016109629291906154ac565b60206040518083038186803b15801561097a57600080fd5b505afa15801561098e573d6000803e3d6000fd5b505050506040513d601f19601f820116820180604052508101906109b2919061476a565b6109f1576040517f08c379a00000000000000000000000000000000000000000000000000000000081526004016109e890615584565b60405180910390fd5b60005b84518163ffffffff161015610cb757600660009054906101000a900473ffffffffffffffffffffffffffffffffffffffff1673ffffffffffffffffffffffffffffffffffffffff166331686f416040518163ffffffff1660e01b815260040160206040518083038186803b158015610a6b57600080fd5b505afa158015610a7f573d6000803e3d6000fd5b505050506040513d601f19601f82011682018060405250810190610aa391906147fd565b63ffffffff16858263ffffffff1681518110610ae8577f4e487b7100000000000000000000000000000000000000000000000000000000600052603260045260246000fd5b602002602001015163ffffffff161115610b37576040517f08c379a0000000000000000000000000000000000000000000000000000000008152600401610b2e906156a4565b60405180910390fd5b6000600660009054906101000a900473ffffffffffffffffffffffffffffffffffffffff1673ffffffffffffffffffffffffffffffffffffffff1663421b3e08878463ffffffff1681518110610bb6577f4e487b7100000000000000000000000000000000000000000000000000000000600052603260045260246000fd5b60200260200101516040518263ffffffff1660e01b8152600401610bda91906158ac565b60006040518083038186803b158015610bf257600080fd5b505afa158015610c06573d6000803e3d6000fd5b505050506040513d6000823e3d601f19601f82011682018060405250810190610c2f9190614793565b90503373ffffffffffffffffffffffffffffffffffffffff16816020015173ffffffffffffffffffffffffffffffffffffffff1614610ca3576040517f08c379a0000000000000000000000000000000000000000000000000000000008152600401610c9a90615644565b60405180910390fd5b508080610caf90615e28565b9150506109f4565b506004600081819054906101000a900463ffffffff1680929190610cda90615e28565b91906101000a81548163ffffffff021916908363ffffffff16021790555050604051806101200160405280600460009054906101000a900463ffffffff1663ffffffff1681526020018581526020018463ffffffff1681526020018363ffffffff1681526020016000151581526020016040518060200160405280600081525081526020013373ffffffffffffffffffffffffffffffffffffffff16815260200160405180602001604052806000815250815260200182815250600080600460009054906101000a900463ffffffff1663ffffffff1663ffffffff16815260200190815260200160002060008201518160000160006101000a81548163ffffffff021916908363ffffffff1602179055506020820151816001019080519060200190610e0792919061409c565b5060408201518160020160006101000a81548163ffffffff021916908363ffffffff16021790555060608201518160020160046101000a81548163ffffffff021916908363ffffffff16021790555060808201518160020160086101000a81548160ff02191690831515021790555060a0820151816003019080519060200190610e9292919061414c565b5060c08201518160040160006101000a81548173ffffffffffffffffffffffffffffffffffffffff021916908373ffffffffffffffffffffffffffffffffffffffff16021790555060e0820151816005019080519060200190610ef692919061414c565b50610100820151816006019080519060200190610f1492919061414c565b5090505050505050565b610f266141d2565b600360008363ffffffff1663ffffffff1681526020019081526020016000206040518060800160405290816000820160009054906101000a900463ffffffff1663ffffffff1663ffffffff168152602001600182018054610f8690615df6565b80601f0160208091040260200160405190810160405280929190818152602001828054610fb290615df6565b8015610fff5780601f10610fd457610100808354040283529160200191610fff565b820191906000526020600020905b815481529060010190602001808311610fe257829003601f168201915b505050505081526020016002820154815260200160038201805461102290615df6565b80601f016020809104026020016040519081016040528092919081815260200182805461104e90615df6565b801561109b5780601f106110705761010080835404028352916020019161109b565b820191906000526020600020905b81548152906001019060200180831161107e57829003601f168201915b5050505050815250509050919050565b600060048054906101000a900463ffffffff16905090565b80600660006101000a81548173ffffffffffffffffffffffffffffffffffffffff021916908373ffffffffffffffffffffffffffffffffffffffff16021790555050565b600560009054906101000a900473ffffffffffffffffffffffffffffffffffffffff1673ffffffffffffffffffffffffffffffffffffffff1663d1e47bb33360036040518363ffffffff1660e01b81526004016111659291906154ac565b60206040518083038186803b15801561117d57600080fd5b505afa158015611191573d6000803e3d6000fd5b505050506040513d601f19601f820116820180604052508101906111b5919061476a565b6111f4576040517f08c379a00000000000000000000000000000000000000000000000000000000081526004016111eb906157a4565b60405180910390fd5b60008060008463ffffffff1663ffffffff168152602001908152602001600020604051806101200160405290816000820160009054906101000a900463ffffffff1663ffffffff1663ffffffff168152602001600182018054806020026020016040519081016040528092919081815260200182805480156112c157602002820191906000526020600020906000905b82829054906101000a900463ffffffff1663ffffffff16815260200190600401906020826003010492830192600103820291508084116112845790505b505050505081526020016002820160009054906101000a900463ffffffff1663ffffffff1663ffffffff1681526020016002820160049054906101000a900463ffffffff1663ffffffff1663ffffffff1681526020016002820160089054906101000a900460ff1615151515815260200160038201805461134190615df6565b80601f016020809104026020016040519081016040528092919081815260200182805461136d90615df6565b80156113ba5780601f1061138f576101008083540402835291602001916113ba565b820191906000526020600020905b81548152906001019060200180831161139d57829003601f168201915b505050505081526020016004820160009054906101000a900473ffffffffffffffffffffffffffffffffffffffff1673ffffffffffffffffffffffffffffffffffffffff1673ffffffffffffffffffffffffffffffffffffffff16815260200160058201805461142990615df6565b80601f016020809104026020016040519081016040528092919081815260200182805461145590615df6565b80156114a25780601f10611477576101008083540402835291602001916114a2565b820191906000526020600020905b81548152906001019060200180831161148557829003601f168201915b505050505081526020016006820180546114bb90615df6565b80601f01602080910402602001604051908101604052809291908181526020018280546114e790615df6565b80156115345780601f1061150957610100808354040283529160200191611534565b820191906000526020600020905b81548152906001019060200180831161151757829003601f168201915b50505050508152505090508060800151611583576040517f08c379a000000000000000000000000000000000000000000000000000000000815260040161157a90615664565b60405180910390fd5b600460009054906101000a900463ffffffff1663ffffffff168363ffffffff1611156115e4576040517f08c379a00000000000000000000000000000000000000000000000000000000081526004016115db906156c4565b60405180910390fd5b806040015163ffffffff168263ffffffff161115611637576040517f08c379a000000000000000000000000000000000000000000000000000000000815260040161162e90615744565b60405180910390fd5b816000808563ffffffff1663ffffffff16815260200190815260200160002060020160008282829054906101000a900463ffffffff166116779190615c4c565b92506101000a81548163ffffffff021916908363ffffffff16021790555060048081819054906101000a900463ffffffff16809291906116b690615e28565b91906101000a81548163ffffffff021916908363ffffffff1602179055505060008282606001516116e79190615c0e565b905060405180610180016040528060048054906101000a900463ffffffff1663ffffffff1681526020018563ffffffff1681526020018463ffffffff1681526020018263ffffffff16815260200160001515815260200160006001811115611778577f4e487b7100000000000000000000000000000000000000000000000000000000600052602160045260246000fd5b81526020018360c0015173ffffffffffffffffffffffffffffffffffffffff1681526020013373ffffffffffffffffffffffffffffffffffffffff168152602001600060028111156117f3577f4e487b7100000000000000000000000000000000000000000000000000000000600052602160045260246000fd5b8152602001604051806020016040528060008152508152602001600115158152602001600073ffffffffffffffffffffffffffffffffffffffff168152506001600060048054906101000a900463ffffffff1663ffffffff1663ffffffff16815260200190815260200160002060008201518160000160006101000a81548163ffffffff021916908363ffffffff16021790555060208201518160000160046101000a81548163ffffffff021916908363ffffffff16021790555060408201518160000160086101000a81548163ffffffff021916908363ffffffff160217905550606082015181600001600c6101000a81548163ffffffff021916908363ffffffff16021790555060808201518160000160106101000a81548160ff02191690831515021790555060a08201518160000160116101000a81548160ff0219169083600181111561196d577f4e487b7100000000000000000000000000000000000000000000000000000000600052602160045260246000fd5b021790555060c08201518160010160006101000a81548173ffffffffffffffffffffffffffffffffffffffff021916908373ffffffffffffffffffffffffffffffffffffffff16021790555060e08201518160020160006101000a81548173ffffffffffffffffffffffffffffffffffffffff021916908373ffffffffffffffffffffffffffffffffffffffff1602179055506101008201518160020160146101000a81548160ff02191690836002811115611a52577f4e487b7100000000000000000000000000000000000000000000000000000000600052602160045260246000fd5b0217905550610120820151816003019080519060200190611a7492919061414c565b506101408201518160040160006101000a81548160ff0219169083151502179055506101608201518160040160016101000a81548173ffffffffffffffffffffffffffffffffffffffff021916908373ffffffffffffffffffffffffffffffffffffffff16021790555090505050505050565b80600560006101000a81548173ffffffffffffffffffffffffffffffffffffffff021916908373ffffffffffffffffffffffffffffffffffffffff16021790555050565b60048054906101000a900463ffffffff1681565b600660009054906101000a900473ffffffffffffffffffffffffffffffffffffffff1681565b611b6d614200565b600160008363ffffffff1663ffffffff168152602001908152602001600020604051806101800160405290816000820160009054906101000a900463ffffffff1663ffffffff1663ffffffff1681526020016000820160049054906101000a900463ffffffff1663ffffffff1663ffffffff1681526020016000820160089054906101000a900463ffffffff1663ffffffff1663ffffffff16815260200160008201600c9054906101000a900463ffffffff1663ffffffff1663ffffffff1681526020016000820160109054906101000a900460ff161515151581526020016000820160119054906101000a900460ff166001811115611c96577f4e487b7100000000000000000000000000000000000000000000000000000000600052602160045260246000fd5b6001811115611cce577f4e487b7100000000000000000000000000000000000000000000000000000000600052602160045260246000fd5b81526020016001820160009054906101000a900473ffffffffffffffffffffffffffffffffffffffff1673ffffffffffffffffffffffffffffffffffffffff1673ffffffffffffffffffffffffffffffffffffffff1681526020016002820160009054906101000a900473ffffffffffffffffffffffffffffffffffffffff1673ffffffffffffffffffffffffffffffffffffffff1673ffffffffffffffffffffffffffffffffffffffff1681526020016002820160149054906101000a900460ff166002811115611dc9577f4e487b7100000000000000000000000000000000000000000000000000000000600052602160045260246000fd5b6002811115611e01577f4e487b7100000000000000000000000000000000000000000000000000000000600052602160045260246000fd5b8152602001600382018054611e1590615df6565b80601f0160208091040260200160405190810160405280929190818152602001828054611e4190615df6565b8015611e8e5780601f10611e6357610100808354040283529160200191611e8e565b820191906000526020600020905b815481529060010190602001808311611e7157829003601f168201915b505050505081526020016004820160009054906101000a900460ff161515151581526020016004820160019054906101000a900473ffffffffffffffffffffffffffffffffffffffff1673ffffffffffffffffffffffffffffffffffffffff1673ffffffffffffffffffffffffffffffffffffffff16815250509050919050565b600460009054906101000a900463ffffffff1663ffffffff168263ffffffff161115611f70576040517f08c379a0000000000000000000000000000000000000000000000000000000008152600401611f6790615564565b60405180910390fd5b806000808463ffffffff1663ffffffff1681526020019081526020016000206005019080519060200190611fa592919061414c565b505050565b60016020528060005260406000206000915090508060000160009054906101000a900463ffffffff16908060000160049054906101000a900463ffffffff16908060000160089054906101000a900463ffffffff169080600001600c9054906101000a900463ffffffff16908060000160109054906101000a900460ff16908060000160119054906101000a900460ff16908060010160009054906101000a900473ffffffffffffffffffffffffffffffffffffffff16908060020160009054906101000a900473ffffffffffffffffffffffffffffffffffffffff16908060020160149054906101000a900460ff16908060030180546120aa90615df6565b80601f01602080910402602001604051908101604052809291908181526020018280546120d690615df6565b80156121235780601f106120f857610100808354040283529160200191612123565b820191906000526020600020905b81548152906001019060200180831161210657829003601f168201915b5050505050908060040160009054906101000a900460ff16908060040160019054906101000a900473ffffffffffffffffffffffffffffffffffffffff1690508c565b60026020528060005260406000206000915090508060000160009054906101000a900463ffffffff16908060000160049054906101000a900473ffffffffffffffffffffffffffffffffffffffff16908060010160009054906101000a900473ffffffffffffffffffffffffffffffffffffffff16908060010160149054906101000a900463ffffffff16908060010160189054906101000a900460ff169080600201549080600301805461221a90615df6565b80601f016020809104026020016040519081016040528092919081815260200182805461224690615df6565b80156122935780601f1061226857610100808354040283529160200191612293565b820191906000526020600020905b81548152906001019060200180831161227657829003601f168201915b5050505050905087565b600560009054906101000a900473ffffffffffffffffffffffffffffffffffffffff1673ffffffffffffffffffffffffffffffffffffffff1663d1e47bb33360036040518363ffffffff1660e01b81526004016122fb9291906154ac565b60206040518083038186803b15801561231357600080fd5b505afa158015612327573d6000803e3d6000fd5b505050506040513d601f19601f8201168201806040525081019061234b919061476a565b61238a576040517f08c379a0000000000000000000000000000000000000000000000000000000008152600401612381906157a4565b60405180910390fd5b6000600160008563ffffffff1663ffffffff168152602001908152602001600020604051806101800160405290816000820160009054906101000a900463ffffffff1663ffffffff1663ffffffff1681526020016000820160049054906101000a900463ffffffff1663ffffffff1663ffffffff1681526020016000820160089054906101000a900463ffffffff1663ffffffff1663ffffffff16815260200160008201600c9054906101000a900463ffffffff1663ffffffff1663ffffffff1681526020016000820160109054906101000a900460ff161515151581526020016000820160119054906101000a900460ff1660018111156124b5577f4e487b7100000000000000000000000000000000000000000000000000000000600052602160045260246000fd5b60018111156124ed577f4e487b7100000000000000000000000000000000000000000000000000000000600052602160045260246000fd5b81526020016001820160009054906101000a900473ffffffffffffffffffffffffffffffffffffffff1673ffffffffffffffffffffffffffffffffffffffff1673ffffffffffffffffffffffffffffffffffffffff1681526020016002820160009054906101000a900473ffffffffffffffffffffffffffffffffffffffff1673ffffffffffffffffffffffffffffffffffffffff1673ffffffffffffffffffffffffffffffffffffffff1681526020016002820160149054906101000a900460ff1660028111156125e8577f4e487b7100000000000000000000000000000000000000000000000000000000600052602160045260246000fd5b6002811115612620577f4e487b7100000000000000000000000000000000000000000000000000000000600052602160045260246000fd5b815260200160038201805461263490615df6565b80601f016020809104026020016040519081016040528092919081815260200182805461266090615df6565b80156126ad5780601f10612682576101008083540402835291602001916126ad565b820191906000526020600020905b81548152906001019060200180831161269057829003601f168201915b505050505081526020016004820160009054906101000a900460ff161515151581526020016004820160019054906101000a900473ffffffffffffffffffffffffffffffffffffffff1673ffffffffffffffffffffffffffffffffffffffff1673ffffffffffffffffffffffffffffffffffffffff1681525050905060048054906101000a900463ffffffff1663ffffffff168463ffffffff161115612788576040517f08c379a000000000000000000000000000000000000000000000000000000000815260040161277f906155c4565b60405180910390fd5b8060800151156127cd576040517f08c379a00000000000000000000000000000000000000000000000000000000081526004016127c490615724565b60405180910390fd5b806060015163ffffffff168363ffffffff161461281f576040517f08c379a0000000000000000000000000000000000000000000000000000000008152600401612816906155a4565b60405180910390fd5b60016002811115612859577f4e487b7100000000000000000000000000000000000000000000000000000000600052602160045260246000fd5b8161010001516002811115612897577f4e487b7100000000000000000000000000000000000000000000000000000000600052602160045260246000fd5b146128d7576040517f08c379a00000000000000000000000000000000000000000000000000000000081526004016128ce90615764565b60405180910390fd5b600460089054906101000a900473ffffffffffffffffffffffffffffffffffffffff1673ffffffffffffffffffffffffffffffffffffffff1663c1f73cfa82602001518360400151336040518463ffffffff1660e01b815260040161293e93929190615990565b600060405180830381600087803b15801561295857600080fd5b505af115801561296c573d6000803e3d6000fd5b5050505060018060008663ffffffff1663ffffffff16815260200190815260200160002060000160106101000a81548160ff0219169083151502179055506040518060e001604052808563ffffffff1681526020013373ffffffffffffffffffffffffffffffffffffffff1681526020018260c0015173ffffffffffffffffffffffffffffffffffffffff1681526020018463ffffffff168152602001836002811115612a42577f4e487b7100000000000000000000000000000000000000000000000000000000600052602160045260246000fd5b815260200142815260200160405180602001604052806000815250815250600260008663ffffffff1663ffffffff16815260200190815260200160002060008201518160000160006101000a81548163ffffffff021916908363ffffffff16021790555060208201518160000160046101000a81548173ffffffffffffffffffffffffffffffffffffffff021916908373ffffffffffffffffffffffffffffffffffffffff16021790555060408201518160010160006101000a81548173ffffffffffffffffffffffffffffffffffffffff021916908373ffffffffffffffffffffffffffffffffffffffff16021790555060608201518160010160146101000a81548163ffffffff021916908363ffffffff16021790555060808201518160010160186101000a81548160ff02191690836002811115612bac577f4e487b7100000000000000000000000000000000000000000000000000000000600052602160045260246000fd5b021790555060a0820151816002015560c0820151816003019080519060200190612bd792919061414c565b5090505050505050565b600560009054906101000a900473ffffffffffffffffffffffffffffffffffffffff1673ffffffffffffffffffffffffffffffffffffffff1663d1e47bb33360036040518363ffffffff1660e01b8152600401612c3f9291906154ac565b60206040518083038186803b158015612c5757600080fd5b505afa158015612c6b573d6000803e3d6000fd5b505050506040513d601f19601f82011682018060405250810190612c8f919061476a565b612cce576040517f08c379a0000000000000000000000000000000000000000000000000000000008152600401612cc5906157a4565b60405180910390fd5b600180811115612d07577f4e487b7100000000000000000000000000000000000000000000000000000000600052602160045260246000fd5b600160008463ffffffff1663ffffffff16815260200190815260200160002060000160119054906101000a900460ff166001811115612d6f577f4e487b7100000000000000000000000000000000000000000000000000000000600052602160045260246000fd5b14612daf576040517f08c379a0000000000000000000000000000000000000000000000000000000008152600401612da690615604565b60405180910390fd5b60006002811115612de9577f4e487b7100000000000000000000000000000000000000000000000000000000600052602160045260246000fd5b600160008463ffffffff1663ffffffff16815260200190815260200160002060020160149054906101000a900460ff166002811115612e51577f4e487b7100000000000000000000000000000000000000000000000000000000600052602160045260246000fd5b14612e91576040517f08c379a0000000000000000000000000000000000000000000000000000000008152600401612e8890615684565b60405180910390fd5b8015612f0c5760018060008463ffffffff1663ffffffff16815260200190815260200160002060020160146101000a81548160ff02191690836002811115612f02577f4e487b7100000000000000000000000000000000000000000000000000000000600052602160045260246000fd5b0217905550612f7e565b6002600160008463ffffffff1663ffffffff16815260200190815260200160002060020160146101000a81548160ff02191690836002811115612f78577f4e487b7100000000000000000000000000000000000000000000000000000000600052602160045260246000fd5b02179055505b8163ffffffff167f1df7b2ecf94baf358d5ffc6f43b2769c0b74ac06ff426c80d5eb4106388cb5de82604051612fb491906154d5565b60405180910390a25050565b600560009054906101000a900473ffffffffffffffffffffffffffffffffffffffff1673ffffffffffffffffffffffffffffffffffffffff1663d1e47bb33360026040518363ffffffff1660e01b815260040161301e9291906154ac565b60206040518083038186803b15801561303657600080fd5b505afa15801561304a573d6000803e3d6000fd5b505050506040513d601f19601f8201168201806040525081019061306e919061476a565b6130ad576040517f08c379a00000000000000000000000000000000000000000000000000000000081526004016130a4906155e4565b60405180910390fd5b600460009054906101000a900463ffffffff1663ffffffff168263ffffffff16111561310e576040517f08c379a0000000000000000000000000000000000000000000000000000000008152600401613105906156c4565b60405180910390fd5b600081511415613153576040517f08c379a000000000000000000000000000000000000000000000000000000000815260040161314a90615704565b60405180910390fd5b60016000808463ffffffff1663ffffffff16815260200190815260200160002060020160086101000a81548160ff021916908315150217905550806000808463ffffffff1663ffffffff16815260200190815260200160002060030190805190602001906131c292919061414c565b505050565b600560009054906101000a900473ffffffffffffffffffffffffffffffffffffffff1681565b60006020528060005260406000206000915090508060000160009054906101000a900463ffffffff16908060020160009054906101000a900463ffffffff16908060020160049054906101000a900463ffffffff16908060020160089054906101000a900460ff169080600301805461326590615df6565b80601f016020809104026020016040519081016040528092919081815260200182805461329190615df6565b80156132de5780601f106132b3576101008083540402835291602001916132de565b820191906000526020600020905b8154815290600101906020018083116132c157829003601f168201915b5050505050908060040160009054906101000a900473ffffffffffffffffffffffffffffffffffffffff169080600501805461331990615df6565b80601f016020809104026020016040519081016040528092919081815260200182805461334590615df6565b80156133925780601f1061336757610100808354040283529160200191613392565b820191906000526020600020905b81548152906001019060200180831161337557829003601f168201915b5050505050908060060180546133a790615df6565b80601f01602080910402602001604051908101604052809291908181526020018280546133d390615df6565b80156134205780601f106133f557610100808354040283529160200191613420565b820191906000526020600020905b81548152906001019060200180831161340357829003601f168201915b5050505050905088565b600560009054906101000a900473ffffffffffffffffffffffffffffffffffffffff1673ffffffffffffffffffffffffffffffffffffffff1663d1e47bb33360036040518363ffffffff1660e01b81526004016134889291906154ac565b60206040518083038186803b1580156134a057600080fd5b505afa1580156134b4573d6000803e3d6000fd5b505050506040513d601f19601f820116820180604052508101906134d8919061476a565b613517576040517f08c379a000000000000000000000000000000000000000000000000000000000815260040161350e906157a4565b60405180910390fd5b60048054906101000a900463ffffffff1663ffffffff168263ffffffff161115613576576040517f08c379a000000000000000000000000000000000000000000000000000000000815260040161356d906157c4565b60405180910390fd5b3373ffffffffffffffffffffffffffffffffffffffff16600160008463ffffffff1663ffffffff16815260200190815260200160002060020160009054906101000a900473ffffffffffffffffffffffffffffffffffffffff1673ffffffffffffffffffffffffffffffffffffffff1614613626576040517f08c379a000000000000000000000000000000000000000000000000000000000815260040161361d90615784565b60405180910390fd5b80600160008463ffffffff1663ffffffff16815260200190815260200160002060040160016101000a81548173ffffffffffffffffffffffffffffffffffffffff021916908373ffffffffffffffffffffffffffffffffffffffff1602179055505050565b600060048054906101000a900463ffffffff16905090565b600460009054906101000a900463ffffffff1681565b6000600460009054906101000a900463ffffffff16905090565b80600460086101000a81548173ffffffffffffffffffffffffffffffffffffffff021916908373ffffffffffffffffffffffffffffffffffffffff16021790555050565b600560009054906101000a900473ffffffffffffffffffffffffffffffffffffffff1673ffffffffffffffffffffffffffffffffffffffff1663d1e47bb33360056040518363ffffffff1660e01b81526004016137759291906154ac565b60206040518083038186803b15801561378d57600080fd5b505afa1580156137a1573d6000803e3d6000fd5b505050506040513d601f19601f820116820180604052508101906137c5919061476a565b613804576040517f08c379a00000000000000000000000000000000000000000000000000000000081526004016137fb90615804565b60405180910390fd5b60048054906101000a900463ffffffff1663ffffffff168263ffffffff161115613863576040517f08c379a000000000000000000000000000000000000000000000000000000000815260040161385a90615624565b60405180910390fd5b600160008363ffffffff1663ffffffff16815260200190815260200160002060040160009054906101000a900460ff16156138d3576040517f08c379a00000000000000000000000000000000000000000000000000000000081526004016138ca906156e4565b60405180910390fd5b60018060008463ffffffff1663ffffffff16815260200190815260200160002060040160006101000a81548160ff02191690831515021790555060405180608001604052808363ffffffff16815260200182815260200142815260200160405180602001604052806000815250815250600360008463ffffffff1663ffffffff16815260200190815260200160002060008201518160000160006101000a81548163ffffffff021916908363ffffffff16021790555060208201518160010190805190602001906139a592919061414c565b506040820151816002015560608201518160030190805190602001906139cc92919061414c565b509050508163ffffffff167fbcbce0994790c925173de558389c26cc831b555df7ed8b14077b3811069cec57824233604051613a0a93929190615526565b60405180910390a25050565b600660149054906101000a900460ff1615613a66576040517f08c379a0000000000000000000000000000000000000000000000000000000008152600401613a5d906157e4565b60405180910390fd5b82600460086101000a81548173ffffffffffffffffffffffffffffffffffffffff021916908373ffffffffffffffffffffffffffffffffffffffff16021790555081600560006101000a81548173ffffffffffffffffffffffffffffffffffffffff021916908373ffffffffffffffffffffffffffffffffffffffff16021790555080600660006101000a81548173ffffffffffffffffffffffffffffffffffffffff021916908373ffffffffffffffffffffffffffffffffffffffff1602179055506001600660146101000a81548160ff021916908315150217905550505050565b60036020528060005260406000206000915090508060000160009054906101000a900463ffffffff1690806001018054613b8290615df6565b80601f0160208091040260200160405190810160405280929190818152602001828054613bae90615df6565b8015613bfb5780601f10613bd057610100808354040283529160200191613bfb565b820191906000526020600020905b815481529060010190602001808311613bde57829003601f168201915b505050505090806002015490806003018054613c1690615df6565b80601f0160208091040260200160405190810160405280929190818152602001828054613c4290615df6565b8015613c8f5780601f10613c6457610100808354040283529160200191613c8f565b820191906000526020600020905b815481529060010190602001808311613c7257829003601f168201915b5050505050905084565b613ca161432f565b6000808363ffffffff1663ffffffff168152602001908152602001600020604051806101200160405290816000820160009054906101000a900463ffffffff1663ffffffff1663ffffffff16815260200160018201805480602002602001604051908101604052809291908181526020018280548015613d6c57602002820191906000526020600020906000905b82829054906101000a900463ffffffff1663ffffffff1681526020019060040190602082600301049283019260010382029150808411613d2f5790505b505050505081526020016002820160009054906101000a900463ffffffff1663ffffffff1663ffffffff1681526020016002820160049054906101000a900463ffffffff1663ffffffff1663ffffffff1681526020016002820160089054906101000a900460ff16151515158152602001600382018054613dec90615df6565b80601f0160208091040260200160405190810160405280929190818152602001828054613e1890615df6565b8015613e655780601f10613e3a57610100808354040283529160200191613e65565b820191906000526020600020905b815481529060010190602001808311613e4857829003601f168201915b505050505081526020016004820160009054906101000a900473ffffffffffffffffffffffffffffffffffffffff1673ffffffffffffffffffffffffffffffffffffffff1673ffffffffffffffffffffffffffffffffffffffff168152602001600582018054613ed490615df6565b80601f0160208091040260200160405190810160405280929190818152602001828054613f0090615df6565b8015613f4d5780601f10613f2257610100808354040283529160200191613f4d565b820191906000526020600020905b815481529060010190602001808311613f3057829003601f168201915b50505050508152602001600682018054613f6690615df6565b80601f0160208091040260200160405190810160405280929190818152602001828054613f9290615df6565b8015613fdf5780601f10613fb457610100808354040283529160200191613fdf565b820191906000526020600020905b815481529060010190602001808311613fc257829003601f168201915b5050505050815250509050919050565b6040518060e00160405280600063ffffffff168152602001600073ffffffffffffffffffffffffffffffffffffffff168152602001600073ffffffffffffffffffffffffffffffffffffffff168152602001600063ffffffff16815260200160006002811115614088577f4e487b7100000000000000000000000000000000000000000000000000000000600052602160045260246000fd5b815260200160008152602001606081525090565b8280548282559060005260206000209060070160089004810192821561413b5791602002820160005b8382111561410957835183826101000a81548163ffffffff021916908363ffffffff16021790555092602001926004016020816003010492830192600103026140c5565b80156141395782816101000a81549063ffffffff0219169055600401602081600301049283019260010302614109565b505b50905061414891906143a5565b5090565b82805461415890615df6565b90600052602060002090601f01602090048101928261417a57600085556141c1565b82601f1061419357805160ff19168380011785556141c1565b828001600101855582156141c1579182015b828111156141c05782518255916020019190600101906141a5565b5b5090506141ce91906143a5565b5090565b6040518060800160405280600063ffffffff1681526020016060815260200160008152602001606081525090565b604051806101800160405280600063ffffffff168152602001600063ffffffff168152602001600063ffffffff168152602001600063ffffffff16815260200160001515815260200160006001811115614283577f4e487b7100000000000000000000000000000000000000000000000000000000600052602160045260246000fd5b8152602001600073ffffffffffffffffffffffffffffffffffffffff168152602001600073ffffffffffffffffffffffffffffffffffffffff168152602001600060028111156142fc577f4e487b7100000000000000000000000000000000000000000000000000000000600052602160045260246000fd5b815260200160608152602001600015158152602001600073ffffffffffffffffffffffffffffffffffffffff1681525090565b604051806101200160405280600063ffffffff16815260200160608152602001600063ffffffff168152602001600063ffffffff16815260200160001515815260200160608152602001600073ffffffffffffffffffffffffffffffffffffffff16815260200160608152602001606081525090565b5b808211156143be5760008160009055506001016143a6565b5090565b60006143d56143d084615b4c565b615b1b565b905080838252602082019050828560208602820111156143f457600080fd5b60005b85811015614424578161440a8882614635565b8452602084019350602083019250506001810190506143f7565b5050509392505050565b600061444161443c84615b78565b615b1b565b90508281526020810184848401111561445957600080fd5b614464848285615db4565b509392505050565b600061447f61447a84615b78565b615b1b565b90508281526020810184848401111561449757600080fd5b6144a2848285615dc3565b509392505050565b6000813590506144b981615f72565b92915050565b6000815190506144ce81615f72565b92915050565b600082601f8301126144e557600080fd5b81356144f58482602086016143c2565b91505092915050565b60008135905061450d81615f89565b92915050565b60008151905061452281615f89565b92915050565b60008135905061453781615fa0565b92915050565b600082601f83011261454e57600080fd5b813561455e84826020860161442e565b91505092915050565b600082601f83011261457857600080fd5b815161458884826020860161446c565b91505092915050565b6000608082840312156145a357600080fd5b6145ad6080615b1b565b905060006145bd8482850161464a565b60008301525060206145d1848285016144bf565b602083015250604082015167ffffffffffffffff8111156145f157600080fd5b6145fd84828501614567565b604083015250606082015167ffffffffffffffff81111561461d57600080fd5b61462984828501614567565b60608301525092915050565b60008135905061464481615fb0565b92915050565b60008151905061465981615fb0565b92915050565b60006020828403121561467157600080fd5b600061467f848285016144aa565b91505092915050565b60008060006060848603121561469d57600080fd5b60006146ab868287016144aa565b93505060206146bc868287016144aa565b92505060406146cd868287016144aa565b9150509250925092565b600080600080608085870312156146ed57600080fd5b600085013567ffffffffffffffff81111561470757600080fd5b614713878288016144d4565b945050602061472487828801614635565b935050604061473587828801614635565b925050606085013567ffffffffffffffff81111561475257600080fd5b61475e8782880161453d565b91505092959194509250565b60006020828403121561477c57600080fd5b600061478a84828501614513565b91505092915050565b6000602082840312156147a557600080fd5b600082015167ffffffffffffffff8111156147bf57600080fd5b6147cb84828501614591565b91505092915050565b6000602082840312156147e657600080fd5b60006147f484828501614635565b91505092915050565b60006020828403121561480f57600080fd5b600061481d8482850161464a565b91505092915050565b6000806040838503121561483957600080fd5b600061484785828601614635565b9250506020614858858286016144aa565b9150509250929050565b6000806040838503121561487557600080fd5b600061488385828601614635565b9250506020614894858286016144fe565b9150509250929050565b600080604083850312156148b157600080fd5b60006148bf85828601614635565b925050602083013567ffffffffffffffff8111156148dc57600080fd5b6148e88582860161453d565b9150509250929050565b6000806040838503121561490557600080fd5b600061491385828601614635565b925050602061492485828601614635565b9150509250929050565b60008060006060848603121561494357600080fd5b600061495186828701614635565b935050602061496286828701614635565b925050604061497386828701614528565b9150509250925092565b6000614989838361548e565b60208301905092915050565b61499e81615c80565b82525050565b6149ad81615c80565b82525050565b60006149be82615bb8565b6149c88185615bdb565b93506149d383615ba8565b8060005b83811015614a045781516149eb888261497d565b97506149f683615bce565b9250506001810190506149d7565b5085935050505092915050565b614a1a81615c92565b82525050565b614a2981615c92565b82525050565b614a3881615d24565b82525050565b614a4781615d48565b82525050565b614a5681615d6c565b82525050565b614a6581615d6c565b82525050565b614a7481615d7e565b82525050565b614a8381615d90565b82525050565b614a9281615d90565b82525050565b614aa181615da2565b82525050565b614ab081615da2565b82525050565b6000614ac182615bc3565b614acb8185615bec565b9350614adb818560208601615dc3565b614ae481615f11565b840191505092915050565b6000614afa82615bc3565b614b048185615bfd565b9350614b14818560208601615dc3565b614b1d81615f11565b840191505092915050565b6000614b35601583615bfd565b91507f5265636f6c7465206e6f6e206578697374616e742e00000000000000000000006000830152602082019050919050565b6000614b75602283615bfd565b91507f4e6f6e206175746f726973653a207365756c656d656e742050726f647563746560008301527f75720000000000000000000000000000000000000000000000000000000000006020830152604082019050919050565b6000614bdb600e83615bfd565b91507f5072697820696e636f72726563740000000000000000000000000000000000006000830152602082019050919050565b6000614c1b601583615bfd565b91507f436f6d6d616e6465206e6f6e206578697374616e7400000000000000000000006000830152602082019050919050565b6000614c5b602583615bfd565b91507f4e6f6e206175746f726973653a207365756c656d656e7420436572746966696360008301527f61746575720000000000000000000000000000000000000000000000000000006020830152604082019050919050565b6000614cc1601b83615bfd565b91507f436f6d6d616e64652070617320656e636f7265206172726976657200000000006000830152602082019050919050565b6000614d01601983615bfd565b91507f4c6120636f6d6d616e6465206e27657869737465207061732e000000000000006000830152602082019050919050565b6000614d41602883615bfd565b91507f566f7573206e27657374207061732070726f707269657461697265206475207060008301527f617263656c6c652e0000000000000000000000000000000000000000000000006020830152604082019050919050565b6000614da7601483615bfd565b91507f5265636f6c7465206e6f6e2063657274696669650000000000000000000000006000830152602082019050919050565b6000614de7601683615bfd565b91507f436f6d6d616e64652064656a6120747261697465722e000000000000000000006000830152602082019050919050565b6000614e27601683615bfd565b91507f50617263656c6c65206e6f6e206578697374616e742e000000000000000000006000830152602082019050919050565b6000614e67601483615bfd565b91507f5265636f6c7465206e6f6e206578697374616e740000000000000000000000006000830152602082019050919050565b6000614ea7601b83615bfd565b91507f496c207920612064656a612064657320636f6e646974696f6e732e00000000006000830152602082019050919050565b6000614ee7600f83615bfd565b91507f43657274696669636174207669646500000000000000000000000000000000006000830152602082019050919050565b6000614f27601383615bfd565b91507f436f6d6d616e64652064656a61207061796572000000000000000000000000006000830152602082019050919050565b6000614f67603683615bfd565b91507f5175616e746974652074726f70206772616e642070617220726170706f72742060008301527f6175207175616e7469746520646973706f6e69626c65000000000000000000006020830152604082019050919050565b6000614fcd601483615bfd565b91507f50726f64756974206e6f6e2076616c696465722e0000000000000000000000006000830152602082019050919050565b600061500d601c83615bfd565b91507f4365206e276573742070617320766f74726520636f6d6d616e64652e000000006000830152602082019050919050565b600061504d602283615bfd565b91507f4e6f6e206175746f726973653a207365756c656d656e7420436f6c6c6563746560008301527f75720000000000000000000000000000000000000000000000000000000000006020830152604082019050919050565b60006150b3601683615bfd565b91507f436f6d6d616e6465206e6f6e206578697374616e742e000000000000000000006000830152602082019050919050565b60006150f3601a83615bfd565b91507f436f6e747261742064656a6120696e697469616c6973657220210000000000006000830152602082019050919050565b6000615133602483615bfd565b91507f4e6f6e206175746f726973653a207365756c656d656e74205472616e73706f7260008301527f74657572000000000000000000000000000000000000000000000000000000006020830152604082019050919050565b6000610180830160008301516151a5600086018261548e565b5060208301516151b8602086018261548e565b5060408301516151cb604086018261548e565b5060608301516151de606086018261548e565b5060808301516151f16080860182614a11565b5060a083015161520460a0860182614a98565b5060c083015161521760c0860182614995565b5060e083015161522a60e0860182614995565b5061010083015161523f610100860182614a7a565b506101208301518482036101208601526152598282614ab6565b915050610140830151615270610140860182614a11565b50610160830151615285610160860182614995565b508091505092915050565b60006080830160008301516152a8600086018261548e565b50602083015184820360208601526152c08282614ab6565b91505060408301516152d56040860182615470565b50606083015184820360608601526152ed8282614ab6565b9150508091505092915050565b600060e083016000830151615312600086018261548e565b5060208301516153256020860182614995565b5060408301516153386040860182614995565b50606083015161534b606086018261548e565b50608083015161535e6080860182614a4d565b5060a083015161537160a0860182615470565b5060c083015184820360c08601526153898282614ab6565b9150508091505092915050565b6000610120830160008301516153af600086018261548e565b50602083015184820360208601526153c782826149b3565b91505060408301516153dc604086018261548e565b5060608301516153ef606086018261548e565b5060808301516154026080860182614a11565b5060a083015184820360a086015261541a8282614ab6565b91505060c083015161542f60c0860182614995565b5060e083015184820360e08601526154478282614ab6565b9150506101008301518482036101008601526154638282614ab6565b9150508091505092915050565b61547981615d0a565b82525050565b61548881615d0a565b82525050565b61549781615d14565b82525050565b6154a681615d14565b82525050565b60006040820190506154c160008301856149a4565b6154ce6020830184614a6b565b9392505050565b60006020820190506154ea6000830184614a20565b92915050565b60006020820190506155056000830184614a2f565b92915050565b60006020820190506155206000830184614a3e565b92915050565b600060608201905081810360008301526155408186614aef565b905061554f602083018561547f565b61555c60408301846149a4565b949350505050565b6000602082019050818103600083015261557d81614b28565b9050919050565b6000602082019050818103600083015261559d81614b68565b9050919050565b600060208201905081810360008301526155bd81614bce565b9050919050565b600060208201905081810360008301526155dd81614c0e565b9050919050565b600060208201905081810360008301526155fd81614c4e565b9050919050565b6000602082019050818103600083015261561d81614cb4565b9050919050565b6000602082019050818103600083015261563d81614cf4565b9050919050565b6000602082019050818103600083015261565d81614d34565b9050919050565b6000602082019050818103600083015261567d81614d9a565b9050919050565b6000602082019050818103600083015261569d81614dda565b9050919050565b600060208201905081810360008301526156bd81614e1a565b9050919050565b600060208201905081810360008301526156dd81614e5a565b9050919050565b600060208201905081810360008301526156fd81614e9a565b9050919050565b6000602082019050818103600083015261571d81614eda565b9050919050565b6000602082019050818103600083015261573d81614f1a565b9050919050565b6000602082019050818103600083015261575d81614f5a565b9050919050565b6000602082019050818103600083015261577d81614fc0565b9050919050565b6000602082019050818103600083015261579d81615000565b9050919050565b600060208201905081810360008301526157bd81615040565b9050919050565b600060208201905081810360008301526157dd816150a6565b9050919050565b600060208201905081810360008301526157fd816150e6565b9050919050565b6000602082019050818103600083015261581d81615126565b9050919050565b6000602082019050818103600083015261583e818461518c565b905092915050565b600060208201905081810360008301526158608184615290565b905092915050565b6000602082019050818103600083015261588281846152fa565b905092915050565b600060208201905081810360008301526158a48184615396565b905092915050565b60006020820190506158c1600083018461549d565b92915050565b600060e0820190506158dc600083018a61549d565b6158e960208301896149a4565b6158f660408301886149a4565b615903606083018761549d565b6159106080830186614a5c565b61591d60a083018561547f565b81810360c083015261592f8184614aef565b905098975050505050505050565b6000608082019050615952600083018761549d565b81810360208301526159648186614aef565b9050615973604083018561547f565b81810360608301526159858184614aef565b905095945050505050565b60006060820190506159a5600083018661549d565b6159b2602083018561549d565b6159bf60408301846149a4565b949350505050565b6000610100820190506159dd600083018b61549d565b6159ea602083018a61549d565b6159f7604083018961549d565b615a046060830188614a20565b8181036080830152615a168187614aef565b9050615a2560a08301866149a4565b81810360c0830152615a378185614aef565b905081810360e0830152615a4b8184614aef565b90509998505050505050505050565b600061018082019050615a70600083018f61549d565b615a7d602083018e61549d565b615a8a604083018d61549d565b615a97606083018c61549d565b615aa4608083018b614a20565b615ab160a083018a614aa7565b615abe60c08301896149a4565b615acb60e08301886149a4565b615ad9610100830187614a89565b818103610120830152615aec8186614aef565b9050615afc610140830185614a20565b615b0a6101608301846149a4565b9d9c50505050505050505050505050565b6000604051905081810181811067ffffffffffffffff82111715615b4257615b41615ee2565b5b8060405250919050565b600067ffffffffffffffff821115615b6757615b66615ee2565b5b602082029050602081019050919050565b600067ffffffffffffffff821115615b9357615b92615ee2565b5b601f19601f8301169050602081019050919050565b6000819050602082019050919050565b600081519050919050565b600081519050919050565b6000602082019050919050565b600082825260208201905092915050565b600082825260208201905092915050565b600082825260208201905092915050565b6000615c1982615d14565b9150615c2483615d14565b92508163ffffffff0483118215151615615c4157615c40615e55565b5b828202905092915050565b6000615c5782615d14565b9150615c6283615d14565b925082821015615c7557615c74615e55565b5b828203905092915050565b6000615c8b82615cea565b9050919050565b60008115159050919050565b6000819050615cac82615f22565b919050565b6000819050615cbf82615f36565b919050565b6000819050615cd282615f4a565b919050565b6000819050615ce582615f5e565b919050565b600073ffffffffffffffffffffffffffffffffffffffff82169050919050565b6000819050919050565b600063ffffffff82169050919050565b6000615d2f82615d36565b9050919050565b6000615d4182615cea565b9050919050565b6000615d5382615d5a565b9050919050565b6000615d6582615cea565b9050919050565b6000615d7782615c9e565b9050919050565b6000615d8982615cb1565b9050919050565b6000615d9b82615cc4565b9050919050565b6000615dad82615cd7565b9050919050565b82818337600083830152505050565b60005b83811015615de1578082015181840152602081019050615dc6565b83811115615df0576000848401525b50505050565b60006002820490506001821680615e0e57607f821691505b60208210811415615e2257615e21615eb3565b5b50919050565b6000615e3382615d14565b915063ffffffff821415615e4a57615e49615e55565b5b600182019050919050565b7f4e487b7100000000000000000000000000000000000000000000000000000000600052601160045260246000fd5b7f4e487b7100000000000000000000000000000000000000000000000000000000600052602160045260246000fd5b7f4e487b7100000000000000000000000000000000000000000000000000000000600052602260045260246000fd5b7f4e487b7100000000000000000000000000000000000000000000000000000000600052604160045260246000fd5b6000601f19601f8301169050919050565b60038110615f3357615f32615e84565b5b50565b60088110615f4757615f46615e84565b5b50565b60038110615f5b57615f5a615e84565b5b50565b60028110615f6f57615f6e615e84565b5b50565b615f7b81615c80565b8114615f8657600080fd5b50565b615f9281615c92565b8114615f9d57600080fd5b50565b60038110615fad57600080fd5b50565b615fb981615d14565b8114615fc457600080fd5b5056fea26469706673582212208e116a31d328f5c119be839f851ba3bee69e6a03329ead9341d009413f3a72f964736f6c63430008000033",
  "linkReferences": {},
  "deployedLinkReferences": {}
}