{
  "_format": "hh-sol-artifact-1",
  "contractName": "CollecteurExportateur",
  "sourceName": "contracts/CollecteurExportateur.sol",
  "abi": [
    {
      "anonymous": false,
      "inputs": [
        {
          "indexed": true,
          "internalType": "address",
          "name": "collecteur",
          "type": "address"
        },
        {
          "indexed": false,
          "internalType": "uint32",
          "name": "idLotProduit",
          "type": "uint32"
        },
        {
          "indexed": false,
          "internalType": "uint32",
          "name": "quantite",
          "type": "uint32"
        },
        {
          "indexed": false,
          "internalType": "uint32",
          "name": "prix",
          "type": "uint32"
        }
      ],
      "name": "AjoutLotProduit",
      "type": "event"
    },
    {
      "anonymous": false,
      "inputs": [
        {
          "indexed": true,
          "internalType": "address",
          "name": "exportateur",
          "type": "address"
        },
        {
          "indexed": false,
          "internalType": "uint32",
          "name": "idProduit",
          "type": "uint32"
        }
      ],
      "name": "CommandePasser",
      "type": "event"
    },
    {
      "anonymous": false,
      "inputs": [
        {
          "indexed": true,
          "internalType": "uint32",
          "name": "idProduit",
          "type": "uint32"
        },
        {
          "indexed": false,
          "internalType": "uint32",
          "name": "idCondition",
          "type": "uint32"
        },
        {
          "indexed": false,
          "internalType": "string",
          "name": "cid",
          "type": "string"
        },
        {
          "indexed": false,
          "internalType": "uint256",
          "name": "timestamp",
          "type": "uint256"
        }
      ],
      "name": "ConditionEnregistree",
      "type": "event"
    },
    {
      "anonymous": false,
      "inputs": [
        {
          "indexed": true,
          "internalType": "uint32",
          "name": "idProduit",
          "type": "uint32"
        },
        {
          "indexed": false,
          "internalType": "uint32",
          "name": "idPaiement",
          "type": "uint32"
        },
        {
          "indexed": false,
          "internalType": "address",
          "name": "payeur",
          "type": "address"
        },
        {
          "indexed": false,
          "internalType": "uint32",
          "name": "montant",
          "type": "uint32"
        },
        {
          "indexed": false,
          "internalType": "enum StructLib.ModePaiement",
          "name": "mode",
          "type": "uint8"
        }
      ],
      "name": "PaiementEffectue",
      "type": "event"
    },
    {
      "anonymous": false,
      "inputs": [
        {
          "indexed": true,
          "internalType": "uint32",
          "name": "idProduit",
          "type": "uint32"
        },
        {
          "indexed": false,
          "internalType": "uint32",
          "name": "quantite",
          "type": "uint32"
        },
        {
          "indexed": false,
          "internalType": "uint32",
          "name": "idRecolte",
          "type": "uint32"
        }
      ],
      "name": "ProduitAjoute",
      "type": "event"
    },
    {
      "anonymous": false,
      "inputs": [
        {
          "indexed": true,
          "internalType": "uint32",
          "name": "idProduit",
          "type": "uint32"
        },
        {
          "indexed": false,
          "internalType": "bool",
          "name": "valide",
          "type": "bool"
        }
      ],
      "name": "ProduitValide",
      "type": "event"
    },
    {
      "anonymous": false,
      "inputs": [
        {
          "indexed": true,
          "internalType": "uint32",
          "name": "idCommande",
          "type": "uint32"
        },
        {
          "indexed": false,
          "internalType": "enum StructLib.StatutProduit",
          "name": "status",
          "type": "uint8"
        }
      ],
      "name": "StatusCommandeMisAJour",
      "type": "event"
    },
    {
      "anonymous": false,
      "inputs": [
        {
          "indexed": true,
          "internalType": "uint32",
          "name": "idProduit",
          "type": "uint32"
        },
        {
          "indexed": false,
          "internalType": "enum StructLib.StatutTransport",
          "name": "statut",
          "type": "uint8"
        }
      ],
      "name": "StatutTransportMisAJour",
      "type": "event"
    },
    {
      "stateMutability": "payable",
      "type": "fallback"
    },
    {
      "inputs": [
        {
          "internalType": "uint32[]",
          "name": "_idProduits",
          "type": "uint32[]"
        },
        {
          "internalType": "string",
          "name": "_cid",
          "type": "string"
        },
        {
          "internalType": "uint32",
          "name": "_prix",
          "type": "uint32"
        }
      ],
      "name": "ajouterLotProduit",
      "outputs": [],
      "stateMutability": "nonpayable",
      "type": "function"
    },
    {
      "inputs": [
        {
          "internalType": "uint32",
          "name": "_idRecolte",
          "type": "uint32"
        },
        {
          "internalType": "uint32",
          "name": "_quantite",
          "type": "uint32"
        },
        {
          "internalType": "address",
          "name": "_collecteur",
          "type": "address"
        }
      ],
      "name": "ajouterProduit",
      "outputs": [],
      "stateMutability": "nonpayable",
      "type": "function"
    },
    {
      "inputs": [
        {
          "internalType": "uint32",
          "name": "",
          "type": "uint32"
        }
      ],
      "name": "commandes",
      "outputs": [
        {
          "internalType": "uint32",
          "name": "id",
          "type": "uint32"
        },
        {
          "internalType": "uint32",
          "name": "idLotProduit",
          "type": "uint32"
        },
        {
          "internalType": "uint32",
          "name": "quantite",
          "type": "uint32"
        },
        {
          "internalType": "uint32",
          "name": "prix",
          "type": "uint32"
        },
        {
          "internalType": "bool",
          "name": "payer",
          "type": "bool"
        },
        {
          "internalType": "enum StructLib.StatutTransport",
          "name": "statutTransport",
          "type": "uint8"
        },
        {
          "internalType": "address",
          "name": "collecteur",
          "type": "address"
        },
        {
          "internalType": "address",
          "name": "exportateur",
          "type": "address"
        },
        {
          "internalType": "enum StructLib.StatutProduit",
          "name": "statutProduit",
          "type": "uint8"
        },
        {
          "internalType": "string",
          "name": "hashMerkle",
          "type": "string"
        }
      ],
      "stateMutability": "view",
      "type": "function"
    },
    {
      "inputs": [],
      "name": "compteurCommandes",
      "outputs": [
        {
          "internalType": "uint32",
          "name": "",
          "type": "uint32"
        }
      ],
      "stateMutability": "view",
      "type": "function"
    },
    {
      "inputs": [],
      "name": "compteurConditions",
      "outputs": [
        {
          "internalType": "uint32",
          "name": "",
          "type": "uint32"
        }
      ],
      "stateMutability": "view",
      "type": "function"
    },
    {
      "inputs": [],
      "name": "compteurLotProduits",
      "outputs": [
        {
          "internalType": "uint32",
          "name": "",
          "type": "uint32"
        }
      ],
      "stateMutability": "view",
      "type": "function"
    },
    {
      "inputs": [],
      "name": "compteurPaiements",
      "outputs": [
        {
          "internalType": "uint32",
          "name": "",
          "type": "uint32"
        }
      ],
      "stateMutability": "view",
      "type": "function"
    },
    {
      "inputs": [],
      "name": "compteurProduits",
      "outputs": [
        {
          "internalType": "uint32",
          "name": "",
          "type": "uint32"
        }
      ],
      "stateMutability": "view",
      "type": "function"
    },
    {
      "inputs": [
        {
          "internalType": "uint32",
          "name": "",
          "type": "uint32"
        }
      ],
      "name": "conditions",
      "outputs": [
        {
          "internalType": "uint32",
          "name": "id",
          "type": "uint32"
        },
        {
          "internalType": "string",
          "name": "cid",
          "type": "string"
        },
        {
          "internalType": "uint256",
          "name": "timestamp",
          "type": "uint256"
        },
        {
          "internalType": "string",
          "name": "hashMerkle",
          "type": "string"
        }
      ],
      "stateMutability": "view",
      "type": "function"
    },
    {
      "inputs": [
        {
          "internalType": "uint32",
          "name": "_idCommande",
          "type": "uint32"
        },
        {
          "internalType": "uint32",
          "name": "_montant",
          "type": "uint32"
        },
        {
          "internalType": "enum StructLib.ModePaiement",
          "name": "_mode",
          "type": "uint8"
        }
      ],
      "name": "effectuerPaiement",
      "outputs": [],
      "stateMutability": "payable",
      "type": "function"
    },
    {
      "inputs": [
        {
          "internalType": "uint32",
          "name": "_idCommande",
          "type": "uint32"
        },
        {
          "internalType": "string",
          "name": "_cid",
          "type": "string"
        }
      ],
      "name": "enregistrerCondition",
      "outputs": [],
      "stateMutability": "nonpayable",
      "type": "function"
    },
    {
      "inputs": [],
      "name": "gestionnaireActeurs",
      "outputs": [
        {
          "internalType": "contract GestionnaireActeurs",
          "name": "",
          "type": "address"
        }
      ],
      "stateMutability": "view",
      "type": "function"
    },
    {
      "inputs": [
        {
          "internalType": "uint32",
          "name": "id",
          "type": "uint32"
        }
      ],
      "name": "getCommande",
      "outputs": [
        {
          "components": [
            {
              "internalType": "uint32",
              "name": "id",
              "type": "uint32"
            },
            {
              "internalType": "uint32",
              "name": "idLotProduit",
              "type": "uint32"
            },
            {
              "internalType": "uint32",
              "name": "quantite",
              "type": "uint32"
            },
            {
              "internalType": "uint32",
              "name": "prix",
              "type": "uint32"
            },
            {
              "internalType": "bool",
              "name": "payer",
              "type": "bool"
            },
            {
              "internalType": "enum StructLib.StatutTransport",
              "name": "statutTransport",
              "type": "uint8"
            },
            {
              "internalType": "address",
              "name": "collecteur",
              "type": "address"
            },
            {
              "internalType": "address",
              "name": "exportateur",
              "type": "address"
            },
            {
              "internalType": "enum StructLib.StatutProduit",
              "name": "statutProduit",
              "type": "uint8"
            },
            {
              "internalType": "string",
              "name": "hashMerkle",
              "type": "string"
            }
          ],
          "internalType": "struct StructLib.CommandeProduit",
          "name": "",
          "type": "tuple"
        }
      ],
      "stateMutability": "view",
      "type": "function"
    },
    {
      "inputs": [],
      "name": "getCompteurCommande",
      "outputs": [
        {
          "internalType": "uint32",
          "name": "",
          "type": "uint32"
        }
      ],
      "stateMutability": "view",
      "type": "function"
    },
    {
      "inputs": [],
      "name": "getCompteurCondition",
      "outputs": [
        {
          "internalType": "uint32",
          "name": "",
          "type": "uint32"
        }
      ],
      "stateMutability": "view",
      "type": "function"
    },
    {
      "inputs": [],
      "name": "getCompteurPaiement",
      "outputs": [
        {
          "internalType": "uint32",
          "name": "",
          "type": "uint32"
        }
      ],
      "stateMutability": "view",
      "type": "function"
    },
    {
      "inputs": [],
      "name": "getCompteurProduit",
      "outputs": [
        {
          "internalType": "uint32",
          "name": "",
          "type": "uint32"
        }
      ],
      "stateMutability": "view",
      "type": "function"
    },
    {
      "inputs": [
        {
          "internalType": "uint32",
          "name": "id",
          "type": "uint32"
        }
      ],
      "name": "getCondition",
      "outputs": [
        {
          "components": [
            {
              "internalType": "uint32",
              "name": "id",
              "type": "uint32"
            },
            {
              "internalType": "string",
              "name": "cid",
              "type": "string"
            },
            {
              "internalType": "uint256",
              "name": "timestamp",
              "type": "uint256"
            },
            {
              "internalType": "string",
              "name": "hashMerkle",
              "type": "string"
            }
          ],
          "internalType": "struct StructLib.EnregistrementCondition",
          "name": "",
          "type": "tuple"
        }
      ],
      "stateMutability": "view",
      "type": "function"
    },
    {
      "inputs": [
        {
          "internalType": "uint32",
          "name": "id",
          "type": "uint32"
        }
      ],
      "name": "getLotProduit",
      "outputs": [
        {
          "components": [
            {
              "internalType": "uint32",
              "name": "id",
              "type": "uint32"
            },
            {
              "internalType": "uint32[]",
              "name": "idRecolte",
              "type": "uint32[]"
            },
            {
              "internalType": "uint32",
              "name": "quantite",
              "type": "uint32"
            },
            {
              "internalType": "uint32",
              "name": "prix",
              "type": "uint32"
            },
            {
              "internalType": "address",
              "name": "collecteur",
              "type": "address"
            },
            {
              "internalType": "string",
              "name": "cid",
              "type": "string"
            },
            {
              "internalType": "string",
              "name": "hashMerkle",
              "type": "string"
            }
          ],
          "internalType": "struct StructLib.LotProduit",
          "name": "",
          "type": "tuple"
        }
      ],
      "stateMutability": "view",
      "type": "function"
    },
    {
      "inputs": [
        {
          "internalType": "uint32",
          "name": "id",
          "type": "uint32"
        }
      ],
      "name": "getPaiement",
      "outputs": [
        {
          "components": [
            {
              "internalType": "uint32",
              "name": "id",
              "type": "uint32"
            },
            {
              "internalType": "address",
              "name": "payeur",
              "type": "address"
            },
            {
              "internalType": "address",
              "name": "vendeur",
              "type": "address"
            },
            {
              "internalType": "uint32",
              "name": "montant",
              "type": "uint32"
            },
            {
              "internalType": "enum StructLib.ModePaiement",
              "name": "mode",
              "type": "uint8"
            },
            {
              "internalType": "uint256",
              "name": "timestamp",
              "type": "uint256"
            },
            {
              "internalType": "string",
              "name": "hashMerkle",
              "type": "string"
            }
          ],
          "internalType": "struct StructLib.Paiement",
          "name": "",
          "type": "tuple"
        }
      ],
      "stateMutability": "view",
      "type": "function"
    },
    {
      "inputs": [
        {
          "internalType": "uint32",
          "name": "id",
          "type": "uint32"
        }
      ],
      "name": "getProduit",
      "outputs": [
        {
          "components": [
            {
              "internalType": "uint32",
              "name": "id",
              "type": "uint32"
            },
            {
              "internalType": "uint32",
              "name": "idRecolte",
              "type": "uint32"
            },
            {
              "internalType": "uint32",
              "name": "quantite",
              "type": "uint32"
            },
            {
              "internalType": "address",
              "name": "collecteur",
              "type": "address"
            },
            {
              "internalType": "bool",
              "name": "enregistre",
              "type": "bool"
            },
            {
              "internalType": "string",
              "name": "hashMerkle",
              "type": "string"
            }
          ],
          "internalType": "struct StructLib.Produit",
          "name": "",
          "type": "tuple"
        }
      ],
      "stateMutability": "view",
      "type": "function"
    },
    {
      "inputs": [
        {
          "internalType": "address",
          "name": "_gestionnaireActeurs",
          "type": "address"
        }
      ],
      "name": "initialiser",
      "outputs": [],
      "stateMutability": "nonpayable",
      "type": "function"
    },
    {
      "inputs": [
        {
          "internalType": "uint32",
          "name": "",
          "type": "uint32"
        }
      ],
      "name": "lotProduits",
      "outputs": [
        {
          "internalType": "uint32",
          "name": "id",
          "type": "uint32"
        },
        {
          "internalType": "uint32",
          "name": "quantite",
          "type": "uint32"
        },
        {
          "internalType": "uint32",
          "name": "prix",
          "type": "uint32"
        },
        {
          "internalType": "address",
          "name": "collecteur",
          "type": "address"
        },
        {
          "internalType": "string",
          "name": "cid",
          "type": "string"
        },
        {
          "internalType": "string",
          "name": "hashMerkle",
          "type": "string"
        }
      ],
      "stateMutability": "view",
      "type": "function"
    },
    {
      "inputs": [
        {
          "internalType": "uint32",
          "name": "_idCommande",
          "type": "uint32"
        },
        {
          "internalType": "enum StructLib.StatutProduit",
          "name": "_status",
          "type": "uint8"
        }
      ],
      "name": "mettreAJourStatutCommande",
      "outputs": [],
      "stateMutability": "nonpayable",
      "type": "function"
    },
    {
      "inputs": [
        {
          "internalType": "uint32",
          "name": "_idCommande",
          "type": "uint32"
        },
        {
          "internalType": "enum StructLib.StatutTransport",
          "name": "_statut",
          "type": "uint8"
        }
      ],
      "name": "mettreAJourStatutTransport",
      "outputs": [],
      "stateMutability": "nonpayable",
      "type": "function"
    },
    {
      "inputs": [
        {
          "internalType": "uint32",
          "name": "",
          "type": "uint32"
        }
      ],
      "name": "paiements",
      "outputs": [
        {
          "internalType": "uint32",
          "name": "id",
          "type": "uint32"
        },
        {
          "internalType": "address",
          "name": "payeur",
          "type": "address"
        },
        {
          "internalType": "address",
          "name": "vendeur",
          "type": "address"
        },
        {
          "internalType": "uint32",
          "name": "montant",
          "type": "uint32"
        },
        {
          "internalType": "enum StructLib.ModePaiement",
          "name": "mode",
          "type": "uint8"
        },
        {
          "internalType": "uint256",
          "name": "timestamp",
          "type": "uint256"
        },
        {
          "internalType": "string",
          "name": "hashMerkle",
          "type": "string"
        }
      ],
      "stateMutability": "view",
      "type": "function"
    },
    {
      "inputs": [
        {
          "internalType": "uint32",
          "name": "_idLotProduit",
          "type": "uint32"
        },
        {
          "internalType": "uint32",
          "name": "_quantite",
          "type": "uint32"
        }
      ],
      "name": "passerCommande",
      "outputs": [],
      "stateMutability": "nonpayable",
      "type": "function"
    },
    {
      "inputs": [
        {
          "internalType": "uint32",
          "name": "",
          "type": "uint32"
        }
      ],
      "name": "produits",
      "outputs": [
        {
          "internalType": "uint32",
          "name": "id",
          "type": "uint32"
        },
        {
          "internalType": "uint32",
          "name": "idRecolte",
          "type": "uint32"
        },
        {
          "internalType": "uint32",
          "name": "quantite",
          "type": "uint32"
        },
        {
          "internalType": "address",
          "name": "collecteur",
          "type": "address"
        },
        {
          "internalType": "bool",
          "name": "enregistre",
          "type": "bool"
        },
        {
          "internalType": "string",
          "name": "hashMerkle",
          "type": "string"
        }
      ],
      "stateMutability": "view",
      "type": "function"
    },
    {
      "inputs": [
        {
          "internalType": "address",
          "name": "_addr",
          "type": "address"
        }
      ],
      "name": "setGestionnaireActeurs",
      "outputs": [],
      "stateMutability": "nonpayable",
      "type": "function"
    },
    {
      "inputs": [
        {
          "internalType": "uint32",
          "name": "_idLotProduit",
          "type": "uint32"
        },
        {
          "internalType": "uint32",
          "name": "_prix",
          "type": "uint32"
        }
      ],
      "name": "setPriceProduit",
      "outputs": [],
      "stateMutability": "nonpayable",
      "type": "function"
    },
    {
      "stateMutability": "payable",
      "type": "receive"
    }
  ],
  "bytecode": "0x608060405234801561001057600080fd5b50615c3e80620000216000396000f3fe6080604052600436106101d15760003560e01c80636f3fd6c5116100f7578063ba9ba24011610095578063e6cab64c11610064578063e6cab64c146106e1578063edd13163146106fd578063f6980cc914610728578063fdccf43314610768576101d8565b8063ba9ba24014610622578063c1f73cfa14610664578063cd3df1ed1461068d578063e550ef99146106b8576101d8565b80638a16156e116100d15780638a16156e1461057a57806393c2f9b4146105a35780639e942cd4146105ce578063b9e91d70146105f9576101d8565b80636f3fd6c5146104c65780637babcffa1461050c5780638777654f1461054f576101d8565b80634851ca821161016f5780634fbdf4fe1161013e5780634fbdf4fe1461040a5780635293ea5114610433578063687112e214610470578063693dff1f1461049b576101d8565b80634851ca8214610337578063488dee201461037957806348d2cee0146103a45780634dafb501146103e1576101d8565b80632477b510116101ab5780632477b5101461026b578063369064b9146102945780633e7a6049146102d157806341fae4db146102fa576101d8565b806301197018146101da5780630b215e641461020557806315a3374c14610242576101d8565b366101d857005b005b3480156101e657600080fd5b506101ef610793565b6040516101fc91906153e5565b60405180910390f35b34801561021157600080fd5b5061022c60048036038101906102279190614583565b6107ad565b60405161023991906153a1565b60405180910390f35b34801561024e57600080fd5b5061026960048036038101906102649190614678565b610a01565b005b34801561027757600080fd5b50610292600480360381019061028d91906145ac565b610c44565b005b3480156102a057600080fd5b506102bb60048036038101906102b69190614583565b610ec4565b6040516102c891906153c3565b60405180910390f35b3480156102dd57600080fd5b506102f860048036038101906102f391906144b2565b611071565b005b34801561030657600080fd5b50610321600480360381019061031c9190614583565b6110b5565b60405161032e919061535d565b60405180910390f35b34801561034357600080fd5b5061035e60048036038101906103599190614583565b611242565b604051610370969594939291906155ac565b60405180910390f35b34801561038557600080fd5b5061038e611363565b60405161039b91906153e5565b60405180910390f35b3480156103b057600080fd5b506103cb60048036038101906103c69190614583565b611379565b6040516103d8919061537f565b60405180910390f35b3480156103ed57600080fd5b5061040860048036038101906104039190614678565b611622565b005b34801561041657600080fd5b50610431600480360381019061042c91906144b2565b611c95565b005b34801561043f57600080fd5b5061045a60048036038101906104559190614583565b611d44565b604051610467919061533b565b60405180910390f35b34801561047c57600080fd5b5061048561207d565b60405161049291906153e5565b60405180910390f35b3480156104a757600080fd5b506104b0612093565b6040516104bd91906153e5565b60405180910390f35b3480156104d257600080fd5b506104ed60048036038101906104e89190614583565b6120a9565b6040516105039a99989796959493929190615683565b60405180910390f35b34801561051857600080fd5b50610533600480360381019061052e9190614583565b61222c565b6040516105469796959493929190615400565b60405180910390f35b34801561055b57600080fd5b50610564612363565b60405161057191906153e5565b60405180910390f35b34801561058657600080fd5b506105a1600480360381019061059c91906145e8565b61237d565b005b3480156105af57600080fd5b506105b861257d565b6040516105c591906153e5565b60405180910390f35b3480156105da57600080fd5b506105e3612597565b6040516105f0919061510a565b60405180910390f35b34801561060557600080fd5b50610620600480360381019061061b91906144db565b6125bd565b005b34801561062e57600080fd5b5061064960048036038101906106449190614583565b612e11565b60405161065b96959493929190615614565b60405180910390f35b34801561067057600080fd5b5061068b600480360381019061068691906146b4565b612fad565b005b34801561069957600080fd5b506106a26131ea565b6040516106af91906153e5565b60405180910390f35b3480156106c457600080fd5b506106df60048036038101906106da9190614624565b613200565b005b6106fb60048036038101906106f69190614703565b6134bc565b005b34801561070957600080fd5b50610712613dba565b60405161071f91906153e5565b60405180910390f35b34801561073457600080fd5b5061074f600480360381019061074a9190614583565b613dd0565b60405161075f94939291906154f9565b60405180910390f35b34801561077457600080fd5b5061077d613f20565b60405161078a91906153e5565b60405180910390f35b6000600560049054906101000a900463ffffffff16905090565b6107b5613f3a565b600360008363ffffffff1663ffffffff1681526020019081526020016000206040518060e00160405290816000820160009054906101000a900463ffffffff1663ffffffff1663ffffffff1681526020016000820160049054906101000a900473ffffffffffffffffffffffffffffffffffffffff1673ffffffffffffffffffffffffffffffffffffffff1673ffffffffffffffffffffffffffffffffffffffff1681526020016001820160009054906101000a900473ffffffffffffffffffffffffffffffffffffffff1673ffffffffffffffffffffffffffffffffffffffff1673ffffffffffffffffffffffffffffffffffffffff1681526020016001820160149054906101000a900463ffffffff1663ffffffff1663ffffffff1681526020016001820160189054906101000a900460ff166002811115610922577f4e487b7100000000000000000000000000000000000000000000000000000000600052602160045260246000fd5b600281111561095a577f4e487b7100000000000000000000000000000000000000000000000000000000600052602160045260246000fd5b81526020016002820154815260200160038201805461097890615a17565b80601f01602080910402602001604051908101604052809291908181526020018280546109a490615a17565b80156109f15780601f106109c6576101008083540402835291602001916109f1565b820191906000526020600020905b8154815290600101906020018083116109d457829003601f168201915b5050505050815250509050919050565b600660009054906101000a900473ffffffffffffffffffffffffffffffffffffffff1673ffffffffffffffffffffffffffffffffffffffff1663d1e47bb33360036040518363ffffffff1660e01b8152600401610a5f9291906150e1565b60206040518083038186803b158015610a7757600080fd5b505afa158015610a8b573d6000803e3d6000fd5b505050506040513d601f19601f82011682018060405250810190610aaf919061455a565b610aee576040517f08c379a0000000000000000000000000000000000000000000000000000000008152600401610ae59061529b565b60405180910390fd5b600560089054906101000a900463ffffffff1663ffffffff168263ffffffff161115610b4f576040517f08c379a0000000000000000000000000000000000000000000000000000000008152600401610b469061525b565b60405180910390fd5b3373ffffffffffffffffffffffffffffffffffffffff16600160008463ffffffff1663ffffffff16815260200190815260200160002060020160089054906101000a900473ffffffffffffffffffffffffffffffffffffffff1673ffffffffffffffffffffffffffffffffffffffff1614610bff576040517f08c379a0000000000000000000000000000000000000000000000000000000008152600401610bf69061521b565b60405180910390fd5b80600160008463ffffffff1663ffffffff16815260200190815260200160002060020160046101000a81548163ffffffff021916908363ffffffff1602179055505050565b600660009054906101000a900473ffffffffffffffffffffffffffffffffffffffff1673ffffffffffffffffffffffffffffffffffffffff1663d1e47bb33360066040518363ffffffff1660e01b8152600401610ca29291906150e1565b60206040518083038186803b158015610cba57600080fd5b505afa158015610cce573d6000803e3d6000fd5b505050506040513d601f19601f82011682018060405250810190610cf2919061455a565b610d31576040517f08c379a0000000000000000000000000000000000000000000000000000000008152600401610d28906152db565b60405180910390fd5b600180811115610d6a577f4e487b7100000000000000000000000000000000000000000000000000000000600052602160045260246000fd5b600460008463ffffffff1663ffffffff16815260200190815260200160002060000160119054906101000a900460ff166001811115610dd2577f4e487b7100000000000000000000000000000000000000000000000000000000600052602160045260246000fd5b14610e12576040517f08c379a0000000000000000000000000000000000000000000000000000000008152600401610e099061517b565b60405180910390fd5b80600460008463ffffffff1663ffffffff16815260200190815260200160002060020160146101000a81548160ff02191690836002811115610e7d577f4e487b7100000000000000000000000000000000000000000000000000000000600052602160045260246000fd5b02179055508163ffffffff167fab130106cad960e950d3b5ff9c896fdd5af7f3144699e12c2c8429afd4abd7ab82604051610eb89190615125565b60405180910390a25050565b610ecc613fe7565b6000808363ffffffff1663ffffffff1681526020019081526020016000206040518060c00160405290816000820160009054906101000a900463ffffffff1663ffffffff1663ffffffff1681526020016000820160049054906101000a900463ffffffff1663ffffffff1663ffffffff1681526020016000820160089054906101000a900463ffffffff1663ffffffff1663ffffffff16815260200160008201600c9054906101000a900473ffffffffffffffffffffffffffffffffffffffff1673ffffffffffffffffffffffffffffffffffffffff1673ffffffffffffffffffffffffffffffffffffffff1681526020016001820160009054906101000a900460ff16151515158152602001600282018054610fe890615a17565b80601f016020809104026020016040519081016040528092919081815260200182805461101490615a17565b80156110615780601f1061103657610100808354040283529160200191611061565b820191906000526020600020905b81548152906001019060200180831161104457829003601f168201915b5050505050815250509050919050565b80600660006101000a81548173ffffffffffffffffffffffffffffffffffffffff021916908373ffffffffffffffffffffffffffffffffffffffff16021790555050565b6110bd614047565b600260008363ffffffff1663ffffffff1681526020019081526020016000206040518060800160405290816000820160009054906101000a900463ffffffff1663ffffffff1663ffffffff16815260200160018201805461111d90615a17565b80601f016020809104026020016040519081016040528092919081815260200182805461114990615a17565b80156111965780601f1061116b57610100808354040283529160200191611196565b820191906000526020600020905b81548152906001019060200180831161117957829003601f168201915b50505050508152602001600282015481526020016003820180546111b990615a17565b80601f01602080910402602001604051908101604052809291908181526020018280546111e590615a17565b80156112325780601f1061120757610100808354040283529160200191611232565b820191906000526020600020905b81548152906001019060200180831161121557829003601f168201915b5050505050815250509050919050565b60006020528060005260406000206000915090508060000160009054906101000a900463ffffffff16908060000160049054906101000a900463ffffffff16908060000160089054906101000a900463ffffffff169080600001600c9054906101000a900473ffffffffffffffffffffffffffffffffffffffff16908060010160009054906101000a900460ff16908060020180546112e090615a17565b80601f016020809104026020016040519081016040528092919081815260200182805461130c90615a17565b80156113595780601f1061132e57610100808354040283529160200191611359565b820191906000526020600020905b81548152906001019060200180831161133c57829003601f168201915b5050505050905086565b600560009054906101000a900463ffffffff1681565b611381614075565b600160008363ffffffff1663ffffffff1681526020019081526020016000206040518060e00160405290816000820160009054906101000a900463ffffffff1663ffffffff1663ffffffff1681526020016001820180548060200260200160405190810160405280929190818152602001828054801561144c57602002820191906000526020600020906000905b82829054906101000a900463ffffffff1663ffffffff168152602001906004019060208260030104928301926001038202915080841161140f5790505b505050505081526020016002820160009054906101000a900463ffffffff1663ffffffff1663ffffffff1681526020016002820160049054906101000a900463ffffffff1663ffffffff1663ffffffff1681526020016002820160089054906101000a900473ffffffffffffffffffffffffffffffffffffffff1673ffffffffffffffffffffffffffffffffffffffff1673ffffffffffffffffffffffffffffffffffffffff16815260200160038201805461150790615a17565b80601f016020809104026020016040519081016040528092919081815260200182805461153390615a17565b80156115805780601f1061155557610100808354040283529160200191611580565b820191906000526020600020905b81548152906001019060200180831161156357829003601f168201915b5050505050815260200160048201805461159990615a17565b80601f01602080910402602001604051908101604052809291908181526020018280546115c590615a17565b80156116125780601f106115e757610100808354040283529160200191611612565b820191906000526020600020905b8154815290600101906020018083116115f557829003601f168201915b5050505050815250509050919050565b600660009054906101000a900473ffffffffffffffffffffffffffffffffffffffff1673ffffffffffffffffffffffffffffffffffffffff1663d1e47bb33360066040518363ffffffff1660e01b81526004016116809291906150e1565b60206040518083038186803b15801561169857600080fd5b505afa1580156116ac573d6000803e3d6000fd5b505050506040513d601f19601f820116820180604052508101906116d0919061455a565b61170f576040517f08c379a0000000000000000000000000000000000000000000000000000000008152600401611706906152db565b60405180910390fd5b600160008363ffffffff1663ffffffff16815260200190815260200160002060020160009054906101000a900463ffffffff1663ffffffff168163ffffffff161115611790576040517f08c379a00000000000000000000000000000000000000000000000000000000081526004016117879061527b565b60405180910390fd5b6000600160008463ffffffff1663ffffffff16815260200190815260200160002060020160049054906101000a900463ffffffff16826117d09190615853565b9050600082600160008663ffffffff1663ffffffff16815260200190815260200160002060020160009054906101000a900463ffffffff166118129190615891565b905080600160008663ffffffff1663ffffffff16815260200190815260200160002060020160006101000a81548163ffffffff021916908363ffffffff1602179055506005600081819054906101000a900463ffffffff168092919061187790615a49565b91906101000a81548163ffffffff021916908363ffffffff16021790555050604051806101400160405280600560009054906101000a900463ffffffff1663ffffffff1681526020018563ffffffff1681526020018463ffffffff1681526020018363ffffffff16815260200160001515815260200160006001811115611927577f4e487b7100000000000000000000000000000000000000000000000000000000600052602160045260246000fd5b8152602001600160008763ffffffff1663ffffffff16815260200190815260200160002060020160089054906101000a900473ffffffffffffffffffffffffffffffffffffffff1673ffffffffffffffffffffffffffffffffffffffff1681526020013373ffffffffffffffffffffffffffffffffffffffff168152602001600060028111156119e0577f4e487b7100000000000000000000000000000000000000000000000000000000600052602160045260246000fd5b81526020016040518060200160405280600081525081525060046000600560009054906101000a900463ffffffff1663ffffffff1663ffffffff16815260200190815260200160002060008201518160000160006101000a81548163ffffffff021916908363ffffffff16021790555060208201518160000160046101000a81548163ffffffff021916908363ffffffff16021790555060408201518160000160086101000a81548163ffffffff021916908363ffffffff160217905550606082015181600001600c6101000a81548163ffffffff021916908363ffffffff16021790555060808201518160000160106101000a81548160ff02191690831515021790555060a08201518160000160116101000a81548160ff02191690836001811115611b36577f4e487b7100000000000000000000000000000000000000000000000000000000600052602160045260246000fd5b021790555060c08201518160010160006101000a81548173ffffffffffffffffffffffffffffffffffffffff021916908373ffffffffffffffffffffffffffffffffffffffff16021790555060e08201518160020160006101000a81548173ffffffffffffffffffffffffffffffffffffffff021916908373ffffffffffffffffffffffffffffffffffffffff1602179055506101008201518160020160146101000a81548160ff02191690836002811115611c1b577f4e487b7100000000000000000000000000000000000000000000000000000000600052602160045260246000fd5b0217905550610120820151816003019080519060200190611c3d9291906140da565b509050503373ffffffffffffffffffffffffffffffffffffffff167fa0e84f4dba1ea97bb938c4d3ff9475e68dacbd58f3086c672b0605ad53d76dc185604051611c8791906153e5565b60405180910390a250505050565b600560149054906101000a900460ff1615611ce5576040517f08c379a0000000000000000000000000000000000000000000000000000000008152600401611cdc906152bb565b60405180910390fd5b80600660006101000a81548173ffffffffffffffffffffffffffffffffffffffff021916908373ffffffffffffffffffffffffffffffffffffffff1602179055506001600560146101000a81548160ff02191690831515021790555050565b611d4c614160565b600460008363ffffffff1663ffffffff168152602001908152602001600020604051806101400160405290816000820160009054906101000a900463ffffffff1663ffffffff1663ffffffff1681526020016000820160049054906101000a900463ffffffff1663ffffffff1663ffffffff1681526020016000820160089054906101000a900463ffffffff1663ffffffff1663ffffffff16815260200160008201600c9054906101000a900463ffffffff1663ffffffff1663ffffffff1681526020016000820160109054906101000a900460ff161515151581526020016000820160119054906101000a900460ff166001811115611e75577f4e487b7100000000000000000000000000000000000000000000000000000000600052602160045260246000fd5b6001811115611ead577f4e487b7100000000000000000000000000000000000000000000000000000000600052602160045260246000fd5b81526020016001820160009054906101000a900473ffffffffffffffffffffffffffffffffffffffff1673ffffffffffffffffffffffffffffffffffffffff1673ffffffffffffffffffffffffffffffffffffffff1681526020016002820160009054906101000a900473ffffffffffffffffffffffffffffffffffffffff1673ffffffffffffffffffffffffffffffffffffffff1673ffffffffffffffffffffffffffffffffffffffff1681526020016002820160149054906101000a900460ff166002811115611fa8577f4e487b7100000000000000000000000000000000000000000000000000000000600052602160045260246000fd5b6002811115611fe0577f4e487b7100000000000000000000000000000000000000000000000000000000600052602160045260246000fd5b8152602001600382018054611ff490615a17565b80601f016020809104026020016040519081016040528092919081815260200182805461202090615a17565b801561206d5780601f106120425761010080835404028352916020019161206d565b820191906000526020600020905b81548152906001019060200180831161205057829003601f168201915b5050505050815250509050919050565b6005600c9054906101000a900463ffffffff1681565b600560089054906101000a900463ffffffff1681565b60046020528060005260406000206000915090508060000160009054906101000a900463ffffffff16908060000160049054906101000a900463ffffffff16908060000160089054906101000a900463ffffffff169080600001600c9054906101000a900463ffffffff16908060000160109054906101000a900460ff16908060000160119054906101000a900460ff16908060010160009054906101000a900473ffffffffffffffffffffffffffffffffffffffff16908060020160009054906101000a900473ffffffffffffffffffffffffffffffffffffffff16908060020160149054906101000a900460ff16908060030180546121a990615a17565b80601f01602080910402602001604051908101604052809291908181526020018280546121d590615a17565b80156122225780601f106121f757610100808354040283529160200191612222565b820191906000526020600020905b81548152906001019060200180831161220557829003601f168201915b505050505090508a565b60036020528060005260406000206000915090508060000160009054906101000a900463ffffffff16908060000160049054906101000a900473ffffffffffffffffffffffffffffffffffffffff16908060010160009054906101000a900473ffffffffffffffffffffffffffffffffffffffff16908060010160149054906101000a900463ffffffff16908060010160189054906101000a900460ff16908060020154908060030180546122e090615a17565b80601f016020809104026020016040519081016040528092919081815260200182805461230c90615a17565b80156123595780601f1061232e57610100808354040283529160200191612359565b820191906000526020600020905b81548152906001019060200180831161233c57829003601f168201915b5050505050905087565b6000600560009054906101000a900463ffffffff16905090565b600660009054906101000a900473ffffffffffffffffffffffffffffffffffffffff1673ffffffffffffffffffffffffffffffffffffffff1663d1e47bb33360056040518363ffffffff1660e01b81526004016123db9291906150e1565b60206040518083038186803b1580156123f357600080fd5b505afa158015612407573d6000803e3d6000fd5b505050506040513d601f19601f8201168201806040525081019061242b919061455a565b61246a576040517f08c379a00000000000000000000000000000000000000000000000000000000081526004016124619061531b565b60405180910390fd5b600560009054906101000a900463ffffffff1663ffffffff168263ffffffff1611156124cb576040517f08c379a00000000000000000000000000000000000000000000000000000000081526004016124c2906151bb565b60405180910390fd5b80600460008463ffffffff1663ffffffff16815260200190815260200160002060000160116101000a81548160ff02191690836001811115612536577f4e487b7100000000000000000000000000000000000000000000000000000000600052602160045260246000fd5b02179055508163ffffffff167ff84820c84ecbec116ee0604a91f0bec4a5d5926d8d5189a13f57fc30951d4b91826040516125719190615140565b60405180910390a25050565b60006005600c9054906101000a900463ffffffff16905090565b600660009054906101000a900473ffffffffffffffffffffffffffffffffffffffff1681565b600660009054906101000a900473ffffffffffffffffffffffffffffffffffffffff1673ffffffffffffffffffffffffffffffffffffffff1663d1e47bb33360036040518363ffffffff1660e01b815260040161261b9291906150e1565b60206040518083038186803b15801561263357600080fd5b505afa158015612647573d6000803e3d6000fd5b505050506040513d601f19601f8201168201806040525081019061266b919061455a565b6126aa576040517f08c379a00000000000000000000000000000000000000000000000000000000081526004016126a19061529b565b60405180910390fd5b6000835167ffffffffffffffff8111156126ed577f4e487b7100000000000000000000000000000000000000000000000000000000600052604160045260246000fd5b60405190808252806020026020018201604052801561271b5781602001602082028036833780820191505090505b5090506000805b85518163ffffffff161015612afb57600560049054906101000a900463ffffffff1663ffffffff16868263ffffffff1681518110612789577f4e487b7100000000000000000000000000000000000000000000000000000000600052603260045260246000fd5b602002602001015163ffffffff1611156127d8576040517f08c379a00000000000000000000000000000000000000000000000000000000081526004016127cf906152fb565b60405180910390fd5b6000806000888463ffffffff168151811061281c577f4e487b7100000000000000000000000000000000000000000000000000000000600052603260045260246000fd5b602002602001015163ffffffff1663ffffffff1681526020019081526020016000206040518060c00160405290816000820160009054906101000a900463ffffffff1663ffffffff1663ffffffff1681526020016000820160049054906101000a900463ffffffff1663ffffffff1663ffffffff1681526020016000820160089054906101000a900463ffffffff1663ffffffff1663ffffffff16815260200160008201600c9054906101000a900473ffffffffffffffffffffffffffffffffffffffff1673ffffffffffffffffffffffffffffffffffffffff1673ffffffffffffffffffffffffffffffffffffffff1681526020016001820160009054906101000a900460ff1615151515815260200160028201805461293c90615a17565b80601f016020809104026020016040519081016040528092919081815260200182805461296890615a17565b80156129b55780601f1061298a576101008083540402835291602001916129b5565b820191906000526020600020905b81548152906001019060200180831161299857829003601f168201915b50505050508152505090508060200151848363ffffffff1681518110612a04577f4e487b7100000000000000000000000000000000000000000000000000000000600052603260045260246000fd5b602002602001019063ffffffff16908163ffffffff1681525050806040015183612a2e9190615819565b92503373ffffffffffffffffffffffffffffffffffffffff16816060015173ffffffffffffffffffffffffffffffffffffffff1614612aa2576040517f08c379a0000000000000000000000000000000000000000000000000000000008152600401612a999061515b565b60405180910390fd5b806080015115612ae7576040517f08c379a0000000000000000000000000000000000000000000000000000000008152600401612ade906151fb565b60405180910390fd5b508080612af390615a49565b915050612722565b506005600881819054906101000a900463ffffffff1680929190612b1e90615a49565b91906101000a81548163ffffffff021916908363ffffffff1602179055505060005b85518163ffffffff161015612be2576001600080888463ffffffff1681518110612b93577f4e487b7100000000000000000000000000000000000000000000000000000000600052603260045260246000fd5b602002602001015163ffffffff1663ffffffff16815260200190815260200160002060010160006101000a81548160ff0219169083151502179055508080612bda90615a49565b915050612b40565b506040518060e00160405280600560089054906101000a900463ffffffff1663ffffffff1681526020018381526020018263ffffffff1681526020018463ffffffff1681526020013373ffffffffffffffffffffffffffffffffffffffff1681526020018581526020016040518060200160405280600081525081525060016000600560089054906101000a900463ffffffff1663ffffffff1663ffffffff16815260200190815260200160002060008201518160000160006101000a81548163ffffffff021916908363ffffffff1602179055506020820151816001019080519060200190612cd3929190614269565b5060408201518160020160006101000a81548163ffffffff021916908363ffffffff16021790555060608201518160020160046101000a81548163ffffffff021916908363ffffffff16021790555060808201518160020160086101000a81548173ffffffffffffffffffffffffffffffffffffffff021916908373ffffffffffffffffffffffffffffffffffffffff16021790555060a0820151816003019080519060200190612d859291906140da565b5060c0820151816004019080519060200190612da29291906140da565b509050503373ffffffffffffffffffffffffffffffffffffffff167f499d3f5837e61d77a364db177a5e0ba2d02b9a2316f1264fffa374d94a9a12b1600560089054906101000a900463ffffffff168386604051612e0293929190615575565b60405180910390a25050505050565b60016020528060005260406000206000915090508060000160009054906101000a900463ffffffff16908060020160009054906101000a900463ffffffff16908060020160049054906101000a900463ffffffff16908060020160089054906101000a900473ffffffffffffffffffffffffffffffffffffffff1690806003018054612e9c90615a17565b80601f0160208091040260200160405190810160405280929190818152602001828054612ec890615a17565b8015612f155780601f10612eea57610100808354040283529160200191612f15565b820191906000526020600020905b815481529060010190602001808311612ef857829003601f168201915b505050505090806004018054612f2a90615a17565b80601f0160208091040260200160405190810160405280929190818152602001828054612f5690615a17565b8015612fa35780601f10612f7857610100808354040283529160200191612fa3565b820191906000526020600020905b815481529060010190602001808311612f8657829003601f168201915b5050505050905086565b6005600481819054906101000a900463ffffffff1680929190612fcf90615a49565b91906101000a81548163ffffffff021916908363ffffffff160217905550506040518060c00160405280600560049054906101000a900463ffffffff1663ffffffff1681526020018463ffffffff1681526020018363ffffffff1681526020018273ffffffffffffffffffffffffffffffffffffffff16815260200160001515815260200160405180602001604052806000815250815250600080600560049054906101000a900463ffffffff1663ffffffff1663ffffffff16815260200190815260200160002060008201518160000160006101000a81548163ffffffff021916908363ffffffff16021790555060208201518160000160046101000a81548163ffffffff021916908363ffffffff16021790555060408201518160000160086101000a81548163ffffffff021916908363ffffffff160217905550606082015181600001600c6101000a81548173ffffffffffffffffffffffffffffffffffffffff021916908373ffffffffffffffffffffffffffffffffffffffff16021790555060808201518160010160006101000a81548160ff02191690831515021790555060a082015181600201908051906020019061318f9291906140da565b50905050600560049054906101000a900463ffffffff1663ffffffff167f3d078b1c3921ddadb756791c1a070b903bcb0cd941a1df4de6eed059fb6e06db83856040516131dd92919061554c565b60405180910390a2505050565b600560109054906101000a900463ffffffff1681565b600660009054906101000a900473ffffffffffffffffffffffffffffffffffffffff1673ffffffffffffffffffffffffffffffffffffffff1663d1e47bb33360056040518363ffffffff1660e01b815260040161325e9291906150e1565b60206040518083038186803b15801561327657600080fd5b505afa15801561328a573d6000803e3d6000fd5b505050506040513d601f19601f820116820180604052508101906132ae919061455a565b6132ed576040517f08c379a00000000000000000000000000000000000000000000000000000000081526004016132e49061531b565b60405180910390fd5b600560009054906101000a900463ffffffff1663ffffffff168263ffffffff16111561334e576040517f08c379a0000000000000000000000000000000000000000000000000000000008152600401613345906151bb565b60405180910390fd5b6005600c81819054906101000a900463ffffffff168092919061337090615a49565b91906101000a81548163ffffffff021916908363ffffffff1602179055505060405180608001604052806005600c9054906101000a900463ffffffff1663ffffffff16815260200182815260200142815260200160405180602001604052806000815250815250600260008463ffffffff1663ffffffff16815260200190815260200160002060008201518160000160006101000a81548163ffffffff021916908363ffffffff16021790555060208201518160010190805190602001906134399291906140da565b506040820151816002015560608201518160030190805190602001906134609291906140da565b509050508163ffffffff167f9ab17ec591b78d61af32f738c106f43e1d835ccc08eb5363d4e06886475d990f6005600c9054906101000a900463ffffffff1683426040516134b0939291906154bb565b60405180910390a25050565b600660009054906101000a900473ffffffffffffffffffffffffffffffffffffffff1673ffffffffffffffffffffffffffffffffffffffff1663d1e47bb33360066040518363ffffffff1660e01b815260040161351a9291906150e1565b60206040518083038186803b15801561353257600080fd5b505afa158015613546573d6000803e3d6000fd5b505050506040513d601f19601f8201168201806040525081019061356a919061455a565b6135a9576040517f08c379a00000000000000000000000000000000000000000000000000000000081526004016135a0906152db565b60405180910390fd5b600060016000600460008763ffffffff1663ffffffff16815260200190815260200160002060000160049054906101000a900463ffffffff1663ffffffff1663ffffffff1681526020019081526020016000206040518060e00160405290816000820160009054906101000a900463ffffffff1663ffffffff1663ffffffff168152602001600182018054806020026020016040519081016040528092919081815260200182805480156136a857602002820191906000526020600020906000905b82829054906101000a900463ffffffff1663ffffffff168152602001906004019060208260030104928301926001038202915080841161366b5790505b505050505081526020016002820160009054906101000a900463ffffffff1663ffffffff1663ffffffff1681526020016002820160049054906101000a900463ffffffff1663ffffffff1663ffffffff1681526020016002820160089054906101000a900473ffffffffffffffffffffffffffffffffffffffff1673ffffffffffffffffffffffffffffffffffffffff1673ffffffffffffffffffffffffffffffffffffffff16815260200160038201805461376390615a17565b80601f016020809104026020016040519081016040528092919081815260200182805461378f90615a17565b80156137dc5780601f106137b1576101008083540402835291602001916137dc565b820191906000526020600020905b8154815290600101906020018083116137bf57829003601f168201915b505050505081526020016004820180546137f590615a17565b80601f016020809104026020016040519081016040528092919081815260200182805461382190615a17565b801561386e5780601f106138435761010080835404028352916020019161386e565b820191906000526020600020905b81548152906001019060200180831161385157829003601f168201915b5050505050815250509050600460008563ffffffff1663ffffffff168152602001908152602001600020600001600c9054906101000a900463ffffffff1663ffffffff168363ffffffff16146138f9576040517f08c379a00000000000000000000000000000000000000000000000000000000081526004016138f0906151db565b60405180910390fd5b600460008563ffffffff1663ffffffff16815260200190815260200160002060000160109054906101000a900460ff1615613969576040517f08c379a00000000000000000000000000000000000000000000000000000000081526004016139609061523b565b60405180910390fd5b600160028111156139a3577f4e487b7100000000000000000000000000000000000000000000000000000000600052602160045260246000fd5b600460008663ffffffff1663ffffffff16815260200190815260200160002060020160149054906101000a900460ff166002811115613a0b577f4e487b7100000000000000000000000000000000000000000000000000000000600052602160045260246000fd5b14613a4b576040517f08c379a0000000000000000000000000000000000000000000000000000000008152600401613a429061519b565b60405180910390fd5b6001600460008663ffffffff1663ffffffff16815260200190815260200160002060000160106101000a81548160ff0219169083151502179055506005601081819054906101000a900463ffffffff1680929190613aa890615a49565b91906101000a81548163ffffffff021916908363ffffffff160217905550506040518060e00160405280600560109054906101000a900463ffffffff1663ffffffff1681526020013373ffffffffffffffffffffffffffffffffffffffff168152602001600460008763ffffffff1663ffffffff16815260200190815260200160002060010160009054906101000a900473ffffffffffffffffffffffffffffffffffffffff1673ffffffffffffffffffffffffffffffffffffffff1681526020018463ffffffff168152602001836002811115613baf577f4e487b7100000000000000000000000000000000000000000000000000000000600052602160045260246000fd5b81526020014281526020016040518060200160405280600081525081525060036000600560109054906101000a900463ffffffff1663ffffffff1663ffffffff16815260200190815260200160002060008201518160000160006101000a81548163ffffffff021916908363ffffffff16021790555060208201518160000160046101000a81548173ffffffffffffffffffffffffffffffffffffffff021916908373ffffffffffffffffffffffffffffffffffffffff16021790555060408201518160010160006101000a81548173ffffffffffffffffffffffffffffffffffffffff021916908373ffffffffffffffffffffffffffffffffffffffff16021790555060608201518160010160146101000a81548163ffffffff021916908363ffffffff16021790555060808201518160010160186101000a81548160ff02191690836002811115613d2b577f4e487b7100000000000000000000000000000000000000000000000000000000600052602160045260246000fd5b021790555060a0820151816002015560c0820151816003019080519060200190613d569291906140da565b50905050806000015163ffffffff167fd9f037670aada9b07156110dd936887c158e5cd6f7932663cc64ef336e44cf9f600560109054906101000a900463ffffffff16338686604051613dac9493929190615476565b60405180910390a250505050565b600560049054906101000a900463ffffffff1681565b60026020528060005260406000206000915090508060000160009054906101000a900463ffffffff1690806001018054613e0990615a17565b80601f0160208091040260200160405190810160405280929190818152602001828054613e3590615a17565b8015613e825780601f10613e5757610100808354040283529160200191613e82565b820191906000526020600020905b815481529060010190602001808311613e6557829003601f168201915b505050505090806002015490806003018054613e9d90615a17565b80601f0160208091040260200160405190810160405280929190818152602001828054613ec990615a17565b8015613f165780601f10613eeb57610100808354040283529160200191613f16565b820191906000526020600020905b815481529060010190602001808311613ef957829003601f168201915b5050505050905084565b6000600560109054906101000a900463ffffffff16905090565b6040518060e00160405280600063ffffffff168152602001600073ffffffffffffffffffffffffffffffffffffffff168152602001600073ffffffffffffffffffffffffffffffffffffffff168152602001600063ffffffff16815260200160006002811115613fd3577f4e487b7100000000000000000000000000000000000000000000000000000000600052602160045260246000fd5b815260200160008152602001606081525090565b6040518060c00160405280600063ffffffff168152602001600063ffffffff168152602001600063ffffffff168152602001600073ffffffffffffffffffffffffffffffffffffffff168152602001600015158152602001606081525090565b6040518060800160405280600063ffffffff1681526020016060815260200160008152602001606081525090565b6040518060e00160405280600063ffffffff16815260200160608152602001600063ffffffff168152602001600063ffffffff168152602001600073ffffffffffffffffffffffffffffffffffffffff16815260200160608152602001606081525090565b8280546140e690615a17565b90600052602060002090601f016020900481019282614108576000855561414f565b82601f1061412157805160ff191683800117855561414f565b8280016001018555821561414f579182015b8281111561414e578251825591602001919060010190614133565b5b50905061415c9190614319565b5090565b604051806101400160405280600063ffffffff168152602001600063ffffffff168152602001600063ffffffff168152602001600063ffffffff168152602001600015158152602001600060018111156141e3577f4e487b7100000000000000000000000000000000000000000000000000000000600052602160045260246000fd5b8152602001600073ffffffffffffffffffffffffffffffffffffffff168152602001600073ffffffffffffffffffffffffffffffffffffffff1681526020016000600281111561425c577f4e487b7100000000000000000000000000000000000000000000000000000000600052602160045260246000fd5b8152602001606081525090565b828054828255906000526020600020906007016008900481019282156143085791602002820160005b838211156142d657835183826101000a81548163ffffffff021916908363ffffffff1602179055509260200192600401602081600301049283019260010302614292565b80156143065782816101000a81549063ffffffff02191690556004016020816003010492830192600103026142d6565b505b5090506143159190614319565b5090565b5b8082111561433257600081600090555060010161431a565b5090565b600061434961434484615757565b615726565b9050808382526020820190508285602086028201111561436857600080fd5b60005b85811015614398578161437e888261449d565b84526020840193506020830192505060018101905061436b565b5050509392505050565b60006143b56143b084615783565b615726565b9050828152602081018484840111156143cd57600080fd5b6143d88482856159d5565b509392505050565b6000813590506143ef81615b93565b92915050565b600082601f83011261440657600080fd5b8135614416848260208601614336565b91505092915050565b60008151905061442e81615baa565b92915050565b60008135905061444381615bc1565b92915050565b60008135905061445881615bd1565b92915050565b60008135905061446d81615be1565b92915050565b600082601f83011261448457600080fd5b81356144948482602086016143a2565b91505092915050565b6000813590506144ac81615bf1565b92915050565b6000602082840312156144c457600080fd5b60006144d2848285016143e0565b91505092915050565b6000806000606084860312156144f057600080fd5b600084013567ffffffffffffffff81111561450a57600080fd5b614516868287016143f5565b935050602084013567ffffffffffffffff81111561453357600080fd5b61453f86828701614473565b92505060406145508682870161449d565b9150509250925092565b60006020828403121561456c57600080fd5b600061457a8482850161441f565b91505092915050565b60006020828403121561459557600080fd5b60006145a38482850161449d565b91505092915050565b600080604083850312156145bf57600080fd5b60006145cd8582860161449d565b92505060206145de85828601614449565b9150509250929050565b600080604083850312156145fb57600080fd5b60006146098582860161449d565b925050602061461a8582860161445e565b9150509250929050565b6000806040838503121561463757600080fd5b60006146458582860161449d565b925050602083013567ffffffffffffffff81111561466257600080fd5b61466e85828601614473565b9150509250929050565b6000806040838503121561468b57600080fd5b60006146998582860161449d565b92505060206146aa8582860161449d565b9150509250929050565b6000806000606084860312156146c957600080fd5b60006146d78682870161449d565b93505060206146e88682870161449d565b92505060406146f9868287016143e0565b9150509250925092565b60008060006060848603121561471857600080fd5b60006147268682870161449d565b93505060206147378682870161449d565b925050604061474886828701614434565b9150509250925092565b600061475e83836150c3565b60208301905092915050565b614773816158c5565b82525050565b614782816158c5565b82525050565b6000614793826157c3565b61479d81856157e6565b93506147a8836157b3565b8060005b838110156147d95781516147c08882614752565b97506147cb836157d9565b9250506001810190506147ac565b5085935050505092915050565b6147ef816158d7565b82525050565b6147fe816158d7565b82525050565b61480d81615969565b82525050565b61481c8161598d565b82525050565b61482b8161598d565b82525050565b61483a8161599f565b82525050565b614849816159b1565b82525050565b614858816159b1565b82525050565b614867816159c3565b82525050565b614876816159c3565b82525050565b6000614887826157ce565b61489181856157f7565b93506148a18185602086016159e4565b6148aa81615b32565b840191505092915050565b60006148c0826157ce565b6148ca8185615808565b93506148da8185602086016159e4565b6148e381615b32565b840191505092915050565b60006148fb602a83615808565b91507f566f7573206e27657374207061732070726f707269657461697265206465206360008301527f652070726f647569742e000000000000000000000000000000000000000000006020830152604082019050919050565b6000614961601a83615808565b91507f436f6d6d616e64652070617320656e636f7265206c697672652e0000000000006000830152602082019050919050565b60006149a1601583615808565b91507f436f6d6d616e6465206e6f6e2076616c696465722e00000000000000000000006000830152602082019050919050565b60006149e1601983615808565b91507f4c6120636f6d6d616e6465206e27657869737465207061732e000000000000006000830152602082019050919050565b6000614a21601183615808565b91507f4d6f6e74616e7420696e636f72726563740000000000000000000000000000006000830152602082019050919050565b6000614a61602183615808565b91507f50726f647569742064656a6120656e726567697374726520636f6d6d65206c6f60008301527f74000000000000000000000000000000000000000000000000000000000000006020830152604082019050919050565b6000614ac7602a83615808565b91507f566f7573206e2765746573207061732070726f7072696574616972652064652060008301527f63652070726f64756974000000000000000000000000000000000000000000006020830152604082019050919050565b6000614b2d601383615808565b91507f436f6d6d616e64652064656a61207061796572000000000000000000000000006000830152602082019050919050565b6000614b6d600b83615808565b91507f496420696e636f726563740000000000000000000000000000000000000000006000830152602082019050919050565b6000614bad601183615808565b91507f5175616e7469746520696e76616c6964650000000000000000000000000000006000830152602082019050919050565b6000614bed602283615808565b91507f4e6f6e206175746f726973653a207365756c656d656e7420436f6c6c6563746560008301527f75720000000000000000000000000000000000000000000000000000000000006020830152604082019050919050565b6000614c53601a83615808565b91507f436f6e747261742064656a6120696e697469616c6973657220210000000000006000830152602082019050919050565b6000614c93602383615808565b91507f4e6f6e206175746f726973653a207365756c656d656e74204578706f7274617460008301527f65757200000000000000000000000000000000000000000000000000000000006020830152604082019050919050565b6000614cf9601583615808565b91507f50726f64756974206e6f6e206578697374616e742e00000000000000000000006000830152602082019050919050565b6000614d39602483615808565b91507f4e6f6e206175746f726973653a207365756c656d656e74205472616e73706f7260008301527f74657572000000000000000000000000000000000000000000000000000000006020830152604082019050919050565b600061014083016000830151614dab60008601826150c3565b506020830151614dbe60208601826150c3565b506040830151614dd160408601826150c3565b506060830151614de460608601826150c3565b506080830151614df760808601826147e6565b5060a0830151614e0a60a086018261485e565b5060c0830151614e1d60c086018261476a565b5060e0830151614e3060e086018261476a565b50610100830151614e45610100860182614840565b50610120830151848203610120860152614e5f828261487c565b9150508091505092915050565b6000608083016000830151614e8460008601826150c3565b5060208301518482036020860152614e9c828261487c565b9150506040830151614eb160408601826150a5565b5060608301518482036060860152614ec9828261487c565b9150508091505092915050565b600060e083016000830151614eee60008601826150c3565b5060208301518482036020860152614f068282614788565b9150506040830151614f1b60408601826150c3565b506060830151614f2e60608601826150c3565b506080830151614f41608086018261476a565b5060a083015184820360a0860152614f59828261487c565b91505060c083015184820360c0860152614f73828261487c565b9150508091505092915050565b600060e083016000830151614f9860008601826150c3565b506020830151614fab602086018261476a565b506040830151614fbe604086018261476a565b506060830151614fd160608601826150c3565b506080830151614fe46080860182614813565b5060a0830151614ff760a08601826150a5565b5060c083015184820360c086015261500f828261487c565b9150508091505092915050565b600060c08301600083015161503460008601826150c3565b50602083015161504760208601826150c3565b50604083015161505a60408601826150c3565b50606083015161506d606086018261476a565b50608083015161508060808601826147e6565b5060a083015184820360a0860152615098828261487c565b9150508091505092915050565b6150ae8161594f565b82525050565b6150bd8161594f565b82525050565b6150cc81615959565b82525050565b6150db81615959565b82525050565b60006040820190506150f66000830185614779565b6151036020830184614831565b9392505050565b600060208201905061511f6000830184614804565b92915050565b600060208201905061513a600083018461484f565b92915050565b6000602082019050615155600083018461486d565b92915050565b60006020820190508181036000830152615174816148ee565b9050919050565b6000602082019050818103600083015261519481614954565b9050919050565b600060208201905081810360008301526151b481614994565b9050919050565b600060208201905081810360008301526151d4816149d4565b9050919050565b600060208201905081810360008301526151f481614a14565b9050919050565b6000602082019050818103600083015261521481614a54565b9050919050565b6000602082019050818103600083015261523481614aba565b9050919050565b6000602082019050818103600083015261525481614b20565b9050919050565b6000602082019050818103600083015261527481614b60565b9050919050565b6000602082019050818103600083015261529481614ba0565b9050919050565b600060208201905081810360008301526152b481614be0565b9050919050565b600060208201905081810360008301526152d481614c46565b9050919050565b600060208201905081810360008301526152f481614c86565b9050919050565b6000602082019050818103600083015261531481614cec565b9050919050565b6000602082019050818103600083015261533481614d2c565b9050919050565b600060208201905081810360008301526153558184614d92565b905092915050565b600060208201905081810360008301526153778184614e6c565b905092915050565b600060208201905081810360008301526153998184614ed6565b905092915050565b600060208201905081810360008301526153bb8184614f80565b905092915050565b600060208201905081810360008301526153dd818461501c565b905092915050565b60006020820190506153fa60008301846150d2565b92915050565b600060e082019050615415600083018a6150d2565b6154226020830189614779565b61542f6040830188614779565b61543c60608301876150d2565b6154496080830186614822565b61545660a08301856150b4565b81810360c083015261546881846148b5565b905098975050505050505050565b600060808201905061548b60008301876150d2565b6154986020830186614779565b6154a560408301856150d2565b6154b26060830184614822565b95945050505050565b60006060820190506154d060008301866150d2565b81810360208301526154e281856148b5565b90506154f160408301846150b4565b949350505050565b600060808201905061550e60008301876150d2565b818103602083015261552081866148b5565b905061552f60408301856150b4565b818103606083015261554181846148b5565b905095945050505050565b600060408201905061556160008301856150d2565b61556e60208301846150d2565b9392505050565b600060608201905061558a60008301866150d2565b61559760208301856150d2565b6155a460408301846150d2565b949350505050565b600060c0820190506155c160008301896150d2565b6155ce60208301886150d2565b6155db60408301876150d2565b6155e86060830186614779565b6155f560808301856147f5565b81810360a083015261560781846148b5565b9050979650505050505050565b600060c08201905061562960008301896150d2565b61563660208301886150d2565b61564360408301876150d2565b6156506060830186614779565b818103608083015261566281856148b5565b905081810360a083015261567681846148b5565b9050979650505050505050565b600061014082019050615699600083018d6150d2565b6156a6602083018c6150d2565b6156b3604083018b6150d2565b6156c0606083018a6150d2565b6156cd60808301896147f5565b6156da60a083018861486d565b6156e760c0830187614779565b6156f460e0830186614779565b61570261010083018561484f565b81810361012083015261571581846148b5565b90509b9a5050505050505050505050565b6000604051905081810181811067ffffffffffffffff8211171561574d5761574c615b03565b5b8060405250919050565b600067ffffffffffffffff82111561577257615771615b03565b5b602082029050602081019050919050565b600067ffffffffffffffff82111561579e5761579d615b03565b5b601f19601f8301169050602081019050919050565b6000819050602082019050919050565b600081519050919050565b600081519050919050565b6000602082019050919050565b600082825260208201905092915050565b600082825260208201905092915050565b600082825260208201905092915050565b600061582482615959565b915061582f83615959565b92508263ffffffff0382111561584857615847615a76565b5b828201905092915050565b600061585e82615959565b915061586983615959565b92508163ffffffff048311821515161561588657615885615a76565b5b828202905092915050565b600061589c82615959565b91506158a783615959565b9250828210156158ba576158b9615a76565b5b828203905092915050565b60006158d08261592f565b9050919050565b60008115159050919050565b60008190506158f182615b43565b919050565b600081905061590482615b57565b919050565b600081905061591782615b6b565b919050565b600081905061592a82615b7f565b919050565b600073ffffffffffffffffffffffffffffffffffffffff82169050919050565b6000819050919050565b600063ffffffff82169050919050565b60006159748261597b565b9050919050565b60006159868261592f565b9050919050565b6000615998826158e3565b9050919050565b60006159aa826158f6565b9050919050565b60006159bc82615909565b9050919050565b60006159ce8261591c565b9050919050565b82818337600083830152505050565b60005b83811015615a025780820151818401526020810190506159e7565b83811115615a11576000848401525b50505050565b60006002820490506001821680615a2f57607f821691505b60208210811415615a4357615a42615ad4565b5b50919050565b6000615a5482615959565b915063ffffffff821415615a6b57615a6a615a76565b5b600182019050919050565b7f4e487b7100000000000000000000000000000000000000000000000000000000600052601160045260246000fd5b7f4e487b7100000000000000000000000000000000000000000000000000000000600052602160045260246000fd5b7f4e487b7100000000000000000000000000000000000000000000000000000000600052602260045260246000fd5b7f4e487b7100000000000000000000000000000000000000000000000000000000600052604160045260246000fd5b6000601f19601f8301169050919050565b60038110615b5457615b53615aa5565b5b50565b60088110615b6857615b67615aa5565b5b50565b60038110615b7c57615b7b615aa5565b5b50565b60028110615b9057615b8f615aa5565b5b50565b615b9c816158c5565b8114615ba757600080fd5b50565b615bb3816158d7565b8114615bbe57600080fd5b50565b60038110615bce57600080fd5b50565b60038110615bde57600080fd5b50565b60028110615bee57600080fd5b50565b615bfa81615959565b8114615c0557600080fd5b5056fea26469706673582212202d64f315248c26e0a94524414c253b5dd41077db8f3b650f14a2a7738c9fe3f064736f6c63430008000033",
  "linkReferences": {},
  "deployedLinkReferences": {}
}