{
  "_format": "hh-sol-artifact-1",
  "contractName": "CollecteurProducteur",
  "sourceName": "contracts/CollecteurProducteur.sol",
  "abi": [
    {
      "inputs": [
        {
          "internalType": "address",
          "name": "_addrCE",
          "type": "address"
        },
        {
          "internalType": "address",
          "name": "_producteur",
          "type": "address"
        }
      ],
      "stateMutability": "nonpayable",
      "type": "constructor"
    },
    {
      "inputs": [
        {
          "internalType": "uint32",
          "name": "_idParcelle",
          "type": "uint32"
        },
        {
          "internalType": "uint32",
          "name": "_quantite",
          "type": "uint32"
        },
        {
          "internalType": "uint32",
          "name": "_prix",
          "type": "uint32"
        },
        {
          "internalType": "string",
          "name": "_dateRecolte",
          "type": "string"
        },
        {
          "internalType": "string",
          "name": "_nomProduit",
          "type": "string"
        }
      ],
      "name": "ajoutRecolte",
      "outputs": [],
      "stateMutability": "nonpayable",
      "type": "function"
    },
    {
      "inputs": [
        {
          "internalType": "uint32",
          "name": "_idRecolte",
          "type": "uint32"
        },
        {
          "internalType": "string",
          "name": "_certificat",
          "type": "string"
        }
      ],
      "name": "certifieRecolte",
      "outputs": [],
      "stateMutability": "nonpayable",
      "type": "function"
    },
    {
      "inputs": [
        {
          "internalType": "uint32",
          "name": "",
          "type": "uint32"
        }
      ],
      "name": "commandes",
      "outputs": [
        {
          "internalType": "uint32",
          "name": "id",
          "type": "uint32"
        },
        {
          "internalType": "uint32",
          "name": "idRecolte",
          "type": "uint32"
        },
        {
          "internalType": "uint32",
          "name": "quantite",
          "type": "uint32"
        },
        {
          "internalType": "uint32",
          "name": "prix",
          "type": "uint32"
        },
        {
          "internalType": "bool",
          "name": "payer",
          "type": "bool"
        },
        {
          "internalType": "enum StructLib.StatutTransport",
          "name": "statutTransport",
          "type": "uint8"
        },
        {
          "internalType": "address",
          "name": "producteur",
          "type": "address"
        },
        {
          "internalType": "address",
          "name": "collecteur",
          "type": "address"
        }
      ],
      "stateMutability": "view",
      "type": "function"
    },
    {
      "inputs": [],
      "name": "compteurCommandes",
      "outputs": [
        {
          "internalType": "uint32",
          "name": "",
          "type": "uint32"
        }
      ],
      "stateMutability": "view",
      "type": "function"
    },
    {
      "inputs": [],
      "name": "compteurPaiements",
      "outputs": [
        {
          "internalType": "uint32",
          "name": "",
          "type": "uint32"
        }
      ],
      "stateMutability": "view",
      "type": "function"
    },
    {
      "inputs": [],
      "name": "compteurRecoltes",
      "outputs": [
        {
          "internalType": "uint32",
          "name": "",
          "type": "uint32"
        }
      ],
      "stateMutability": "view",
      "type": "function"
    },
    {
      "inputs": [
        {
          "internalType": "uint32",
          "name": "_idCommande",
          "type": "uint32"
        },
        {
          "internalType": "uint32",
          "name": "_montant",
          "type": "uint32"
        },
        {
          "internalType": "enum StructLib.ModePaiement",
          "name": "_mode",
          "type": "uint8"
        }
      ],
      "name": "effectuerPaiementVersProducteur",
      "outputs": [],
      "stateMutability": "payable",
      "type": "function"
    },
    {
      "inputs": [
        {
          "internalType": "uint32",
          "name": "_id",
          "type": "uint32"
        }
      ],
      "name": "getCommande",
      "outputs": [
        {
          "components": [
            {
              "internalType": "uint32",
              "name": "id",
              "type": "uint32"
            },
            {
              "internalType": "uint32",
              "name": "idRecolte",
              "type": "uint32"
            },
            {
              "internalType": "uint32",
              "name": "quantite",
              "type": "uint32"
            },
            {
              "internalType": "uint32",
              "name": "prix",
              "type": "uint32"
            },
            {
              "internalType": "bool",
              "name": "payer",
              "type": "bool"
            },
            {
              "internalType": "enum StructLib.StatutTransport",
              "name": "statutTransport",
              "type": "uint8"
            },
            {
              "internalType": "address",
              "name": "producteur",
              "type": "address"
            },
            {
              "internalType": "address",
              "name": "collecteur",
              "type": "address"
            }
          ],
          "internalType": "struct StructLib.CommandeRecolte",
          "name": "",
          "type": "tuple"
        }
      ],
      "stateMutability": "view",
      "type": "function"
    },
    {
      "inputs": [],
      "name": "getCompteurCommandes",
      "outputs": [
        {
          "internalType": "uint32",
          "name": "",
          "type": "uint32"
        }
      ],
      "stateMutability": "view",
      "type": "function"
    },
    {
      "inputs": [],
      "name": "getCompteurPaiments",
      "outputs": [
        {
          "internalType": "uint32",
          "name": "",
          "type": "uint32"
        }
      ],
      "stateMutability": "view",
      "type": "function"
    },
    {
      "inputs": [],
      "name": "getCompteurRecoltes",
      "outputs": [
        {
          "internalType": "uint32",
          "name": "",
          "type": "uint32"
        }
      ],
      "stateMutability": "view",
      "type": "function"
    },
    {
      "inputs": [
        {
          "internalType": "uint32",
          "name": "_id",
          "type": "uint32"
        }
      ],
      "name": "getPaiement",
      "outputs": [
        {
          "components": [
            {
              "internalType": "uint32",
              "name": "id",
              "type": "uint32"
            },
            {
              "internalType": "address",
              "name": "payeur",
              "type": "address"
            },
            {
              "internalType": "address",
              "name": "vendeur",
              "type": "address"
            },
            {
              "internalType": "uint32",
              "name": "montant",
              "type": "uint32"
            },
            {
              "internalType": "enum StructLib.ModePaiement",
              "name": "mode",
              "type": "uint8"
            },
            {
              "internalType": "uint256",
              "name": "timestamp",
              "type": "uint256"
            }
          ],
          "internalType": "struct StructLib.Paiement",
          "name": "",
          "type": "tuple"
        }
      ],
      "stateMutability": "view",
      "type": "function"
    },
    {
      "inputs": [
        {
          "internalType": "uint32",
          "name": "_idRecolte",
          "type": "uint32"
        }
      ],
      "name": "getRecolte",
      "outputs": [
        {
          "components": [
            {
              "internalType": "uint32",
              "name": "id",
              "type": "uint32"
            },
            {
              "internalType": "uint32",
              "name": "idParcelle",
              "type": "uint32"
            },
            {
              "internalType": "uint32",
              "name": "quantite",
              "type": "uint32"
            },
            {
              "internalType": "uint32",
              "name": "prixUnit",
              "type": "uint32"
            },
            {
              "internalType": "bool",
              "name": "certifie",
              "type": "bool"
            },
            {
              "internalType": "string",
              "name": "certificatPhytosanitaire",
              "type": "string"
            },
            {
              "internalType": "string",
              "name": "dateRecolte",
              "type": "string"
            },
            {
              "internalType": "address",
              "name": "producteur",
              "type": "address"
            },
            {
              "internalType": "string",
              "name": "nomProduit",
              "type": "string"
            }
          ],
          "internalType": "struct StructLib.Recolte",
          "name": "",
          "type": "tuple"
        }
      ],
      "stateMutability": "view",
      "type": "function"
    },
    {
      "inputs": [
        {
          "internalType": "uint32",
          "name": "",
          "type": "uint32"
        }
      ],
      "name": "paiements",
      "outputs": [
        {
          "internalType": "uint32",
          "name": "id",
          "type": "uint32"
        },
        {
          "internalType": "address",
          "name": "payeur",
          "type": "address"
        },
        {
          "internalType": "address",
          "name": "vendeur",
          "type": "address"
        },
        {
          "internalType": "uint32",
          "name": "montant",
          "type": "uint32"
        },
        {
          "internalType": "enum StructLib.ModePaiement",
          "name": "mode",
          "type": "uint8"
        },
        {
          "internalType": "uint256",
          "name": "timestamp",
          "type": "uint256"
        }
      ],
      "stateMutability": "view",
      "type": "function"
    },
    {
      "inputs": [
        {
          "internalType": "uint32",
          "name": "_idRecolte",
          "type": "uint32"
        },
        {
          "internalType": "uint32",
          "name": "_quantite",
          "type": "uint32"
        }
      ],
      "name": "passerCommandeVersProducteur",
      "outputs": [],
      "stateMutability": "nonpayable",
      "type": "function"
    },
    {
      "inputs": [
        {
          "internalType": "uint32",
          "name": "",
          "type": "uint32"
        }
      ],
      "name": "recoltes",
      "outputs": [
        {
          "internalType": "uint32",
          "name": "id",
          "type": "uint32"
        },
        {
          "internalType": "uint32",
          "name": "idParcelle",
          "type": "uint32"
        },
        {
          "internalType": "uint32",
          "name": "quantite",
          "type": "uint32"
        },
        {
          "internalType": "uint32",
          "name": "prixUnit",
          "type": "uint32"
        },
        {
          "internalType": "bool",
          "name": "certifie",
          "type": "bool"
        },
        {
          "internalType": "string",
          "name": "certificatPhytosanitaire",
          "type": "string"
        },
        {
          "internalType": "string",
          "name": "dateRecolte",
          "type": "string"
        },
        {
          "internalType": "address",
          "name": "producteur",
          "type": "address"
        },
        {
          "internalType": "string",
          "name": "nomProduit",
          "type": "string"
        }
      ],
      "stateMutability": "view",
      "type": "function"
    },
    {
      "inputs": [
        {
          "internalType": "address",
          "name": "_addr",
          "type": "address"
        }
      ],
      "name": "setModuleCE",
      "outputs": [],
      "stateMutability": "nonpayable",
      "type": "function"
    },
    {
      "inputs": [
        {
          "internalType": "address",
          "name": "_addr",
          "type": "address"
        }
      ],
      "name": "setModuleProducteur",
      "outputs": [],
      "stateMutability": "nonpayable",
      "type": "function"
    }
  ],
  "bytecode": "0x60806040523480156200001157600080fd5b50604051620049bb380380620049bb8339818101604052810190620000379190620000d8565b81600560046101000a81548173ffffffffffffffffffffffffffffffffffffffff021916908373ffffffffffffffffffffffffffffffffffffffff16021790555080600660006101000a81548173ffffffffffffffffffffffffffffffffffffffff021916908373ffffffffffffffffffffffffffffffffffffffff160217905550505062000167565b600081519050620000d2816200014d565b92915050565b60008060408385031215620000ec57600080fd5b6000620000fc85828601620000c1565b92505060206200010f85828601620000c1565b9150509250929050565b600062000126826200012d565b9050919050565b600073ffffffffffffffffffffffffffffffffffffffff82169050919050565b620001588162000119565b81146200016457600080fd5b50565b61484480620001776000396000f3fe6080604052600436106101095760003560e01c80638428d54311610095578063cb39487611610064578063cb39487614610394578063cd3df1ed146103bf578063cd60462b146103ea578063d84e632d14610415578063fd6431011461043e57610109565b80638428d543146102df5780639d75741d146102fb578063b38d3aea14610324578063b5fe20761461036957610109565b8063488dee20116100dc578063488dee20146101c85780635293ea51146101f357806364372fae146102305780636f3fd6c5146102595780637babcffa1461029d57610109565b80630b215e641461010e57806319f1c2901461014b5780632d5b3658146101765780634383fca11461019f575b600080fd5b34801561011a57600080fd5b50610135600480360381019061013091906136da565b61047b565b604051610142919061413d565b60405180910390f35b34801561015757600080fd5b5061016061063d565b60405161016d919061417a565b60405180910390f35b34801561018257600080fd5b5061019d60048036038101906101989190613780565b610657565b005b3480156101ab57600080fd5b506101c660048036038101906101c1919061380b565b610ef9565b005b3480156101d457600080fd5b506101dd6114d6565b6040516101ea919061417a565b60405180910390f35b3480156101ff57600080fd5b5061021a600480360381019061021591906136da565b6114ec565b6040516102279190614121565b60405180910390f35b34801561023c57600080fd5b5061025760048036038101906102529190613647565b61170c565b005b34801561026557600080fd5b50610280600480360381019061027b91906136da565b611750565b60405161029498979695949392919061427a565b60405180910390f35b3480156102a957600080fd5b506102c460048036038101906102bf91906136da565b611832565b6040516102d696959493929190614195565b60405180910390f35b6102f960048036038101906102f491906137bc565b6118db565b005b34801561030757600080fd5b50610322600480360381019061031d919061372c565b61237f565b005b34801561033057600080fd5b5061034b600480360381019061034691906136da565b6125f9565b604051610360999897969594939291906142f8565b60405180910390f35b34801561037557600080fd5b5061037e61284c565b60405161038b919061417a565b60405180910390f35b3480156103a057600080fd5b506103a9612866565b6040516103b6919061417a565b60405180910390f35b3480156103cb57600080fd5b506103d461287c565b6040516103e1919061417a565b60405180910390f35b3480156103f657600080fd5b506103ff612892565b60405161040c919061417a565b60405180910390f35b34801561042157600080fd5b5061043c60048036038101906104379190613647565b6128ac565b005b34801561044a57600080fd5b50610465600480360381019061046091906136da565b6128f0565b6040516104729190614158565b60405180910390f35b610483612be8565b600260008363ffffffff1663ffffffff1681526020019081526020016000206040518060c00160405290816000820160009054906101000a900463ffffffff1663ffffffff1663ffffffff1681526020016000820160049054906101000a900473ffffffffffffffffffffffffffffffffffffffff1673ffffffffffffffffffffffffffffffffffffffff1673ffffffffffffffffffffffffffffffffffffffff1681526020016001820160009054906101000a900473ffffffffffffffffffffffffffffffffffffffff1673ffffffffffffffffffffffffffffffffffffffff1673ffffffffffffffffffffffffffffffffffffffff1681526020016001820160149054906101000a900463ffffffff1663ffffffff1663ffffffff1681526020016001820160189054906101000a900460ff1660028111156105f0577f4e487b7100000000000000000000000000000000000000000000000000000000600052602160045260246000fd5b6002811115610628577f4e487b7100000000000000000000000000000000000000000000000000000000600052602160045260246000fd5b81526020016002820154815250509050919050565b6000600360009054906101000a900463ffffffff16905090565b60036006811115610691577f4e487b7100000000000000000000000000000000000000000000000000000000600052602160045260246000fd5b600660009054906101000a900473ffffffffffffffffffffffffffffffffffffffff1673ffffffffffffffffffffffffffffffffffffffff1663fe32398a336040518263ffffffff1660e01b81526004016106ec9190613f86565b604080518083038186803b15801561070357600080fd5b505afa158015610717573d6000803e3d6000fd5b505050506040513d601f19601f8201168201806040525081019061073b9190613670565b602001516006811115610777577f4e487b7100000000000000000000000000000000000000000000000000000000600052602160045260246000fd5b146107b7576040517f08c379a00000000000000000000000000000000000000000000000000000000081526004016107ae90614101565b60405180910390fd5b60008060008463ffffffff1663ffffffff168152602001908152602001600020604051806101200160405290816000820160009054906101000a900463ffffffff1663ffffffff1663ffffffff1681526020016000820160049054906101000a900463ffffffff1663ffffffff1663ffffffff1681526020016000820160089054906101000a900463ffffffff1663ffffffff1663ffffffff16815260200160008201600c9054906101000a900463ffffffff1663ffffffff1663ffffffff1681526020016000820160109054906101000a900460ff161515151581526020016001820180546108a69061462e565b80601f01602080910402602001604051908101604052809291908181526020018280546108d29061462e565b801561091f5780601f106108f45761010080835404028352916020019161091f565b820191906000526020600020905b81548152906001019060200180831161090257829003601f168201915b505050505081526020016002820180546109389061462e565b80601f01602080910402602001604051908101604052809291908181526020018280546109649061462e565b80156109b15780601f10610986576101008083540402835291602001916109b1565b820191906000526020600020905b81548152906001019060200180831161099457829003601f168201915b505050505081526020016003820160009054906101000a900473ffffffffffffffffffffffffffffffffffffffff1673ffffffffffffffffffffffffffffffffffffffff1673ffffffffffffffffffffffffffffffffffffffff168152602001600482018054610a209061462e565b80601f0160208091040260200160405190810160405280929190818152602001828054610a4c9061462e565b8015610a995780601f10610a6e57610100808354040283529160200191610a99565b820191906000526020600020905b815481529060010190602001808311610a7c57829003601f168201915b50505050508152505090508060800151610ae8576040517f08c379a0000000000000000000000000000000000000000000000000000000008152600401610adf90614041565b60405180910390fd5b600160009054906101000a900463ffffffff1663ffffffff168363ffffffff161115610b49576040517f08c379a0000000000000000000000000000000000000000000000000000000008152600401610b4090614081565b60405180910390fd5b806040015163ffffffff168263ffffffff161115610b9c576040517f08c379a0000000000000000000000000000000000000000000000000000000008152600401610b93906140e1565b60405180910390fd5b816000808563ffffffff1663ffffffff16815260200190815260200160002060000160088282829054906101000a900463ffffffff16610bdc9190614516565b92506101000a81548163ffffffff021916908363ffffffff1602179055506005600081819054906101000a900463ffffffff1680929190610c1c90614660565b91906101000a81548163ffffffff021916908363ffffffff160217905550506000828260600151610c4d91906144d8565b9050604051806101000160405280600560009054906101000a900463ffffffff1663ffffffff1681526020018563ffffffff1681526020018463ffffffff1681526020018263ffffffff16815260200160001515815260200160006001811115610ce0577f4e487b7100000000000000000000000000000000000000000000000000000000600052602160045260246000fd5b81526020018360e0015173ffffffffffffffffffffffffffffffffffffffff1681526020013373ffffffffffffffffffffffffffffffffffffffff1681525060046000600560009054906101000a900463ffffffff1663ffffffff1663ffffffff16815260200190815260200160002060008201518160000160006101000a81548163ffffffff021916908363ffffffff16021790555060208201518160000160046101000a81548163ffffffff021916908363ffffffff16021790555060408201518160000160086101000a81548163ffffffff021916908363ffffffff160217905550606082015181600001600c6101000a81548163ffffffff021916908363ffffffff16021790555060808201518160000160106101000a81548160ff02191690831515021790555060a08201518160000160116101000a81548160ff02191690836001811115610e5d577f4e487b7100000000000000000000000000000000000000000000000000000000600052602160045260246000fd5b021790555060c08201518160010160006101000a81548173ffffffffffffffffffffffffffffffffffffffff021916908373ffffffffffffffffffffffffffffffffffffffff16021790555060e08201518160020160006101000a81548173ffffffffffffffffffffffffffffffffffffffff021916908373ffffffffffffffffffffffffffffffffffffffff16021790555090505050505050565b60006006811115610f33577f4e487b7100000000000000000000000000000000000000000000000000000000600052602160045260246000fd5b600660009054906101000a900473ffffffffffffffffffffffffffffffffffffffff1673ffffffffffffffffffffffffffffffffffffffff1663fe32398a336040518263ffffffff1660e01b8152600401610f8e9190613f86565b604080518083038186803b158015610fa557600080fd5b505afa158015610fb9573d6000803e3d6000fd5b505050506040513d601f19601f82011682018060405250810190610fdd9190613670565b602001516006811115611019577f4e487b7100000000000000000000000000000000000000000000000000000000600052602160045260246000fd5b14611059576040517f08c379a000000000000000000000000000000000000000000000000000000000815260040161105090613fa1565b60405180910390fd5b6000600660009054906101000a900473ffffffffffffffffffffffffffffffffffffffff1673ffffffffffffffffffffffffffffffffffffffff1663421b3e08876040518263ffffffff1660e01b81526004016110b6919061417a565b60006040518083038186803b1580156110ce57600080fd5b505afa1580156110e2573d6000803e3d6000fd5b505050506040513d6000823e3d601f19601f8201168201806040525081019061110b9190613699565b9050600660009054906101000a900473ffffffffffffffffffffffffffffffffffffffff1673ffffffffffffffffffffffffffffffffffffffff166331686f416040518163ffffffff1660e01b815260040160206040518083038186803b15801561117557600080fd5b505afa158015611189573d6000803e3d6000fd5b505050506040513d601f19601f820116820180604052508101906111ad9190613703565b63ffffffff168663ffffffff1611156111fb576040517f08c379a00000000000000000000000000000000000000000000000000000000081526004016111f290614021565b60405180910390fd5b3373ffffffffffffffffffffffffffffffffffffffff16816020015173ffffffffffffffffffffffffffffffffffffffff161461126d576040517f08c379a000000000000000000000000000000000000000000000000000000000815260040161126490614061565b60405180910390fd5b6001600081819054906101000a900463ffffffff168092919061128f90614660565b91906101000a81548163ffffffff021916908363ffffffff16021790555050604051806101200160405280600160009054906101000a900463ffffffff1663ffffffff1681526020018763ffffffff1681526020018663ffffffff1681526020018563ffffffff1681526020016000151581526020016040518060200160405280600081525081526020018481526020013373ffffffffffffffffffffffffffffffffffffffff16815260200183815250600080600160009054906101000a900463ffffffff1663ffffffff1663ffffffff16815260200190815260200160002060008201518160000160006101000a81548163ffffffff021916908363ffffffff16021790555060208201518160000160046101000a81548163ffffffff021916908363ffffffff16021790555060408201518160000160086101000a81548163ffffffff021916908363ffffffff160217905550606082015181600001600c6101000a81548163ffffffff021916908363ffffffff16021790555060808201518160000160106101000a81548160ff02191690831515021790555060a0820151816001019080519060200190611448929190612c8e565b5060c0820151816002019080519060200190611465929190612c8e565b5060e08201518160030160006101000a81548173ffffffffffffffffffffffffffffffffffffffff021916908373ffffffffffffffffffffffffffffffffffffffff1602179055506101008201518160040190805190602001906114ca929190612c8e565b50905050505050505050565b600560009054906101000a900463ffffffff1681565b6114f4612d14565b600460008363ffffffff1663ffffffff168152602001908152602001600020604051806101000160405290816000820160009054906101000a900463ffffffff1663ffffffff1663ffffffff1681526020016000820160049054906101000a900463ffffffff1663ffffffff1663ffffffff1681526020016000820160089054906101000a900463ffffffff1663ffffffff1663ffffffff16815260200160008201600c9054906101000a900463ffffffff1663ffffffff1663ffffffff1681526020016000820160109054906101000a900460ff161515151581526020016000820160119054906101000a900460ff16600181111561161d577f4e487b7100000000000000000000000000000000000000000000000000000000600052602160045260246000fd5b6001811115611655577f4e487b7100000000000000000000000000000000000000000000000000000000600052602160045260246000fd5b81526020016001820160009054906101000a900473ffffffffffffffffffffffffffffffffffffffff1673ffffffffffffffffffffffffffffffffffffffff1673ffffffffffffffffffffffffffffffffffffffff1681526020016002820160009054906101000a900473ffffffffffffffffffffffffffffffffffffffff1673ffffffffffffffffffffffffffffffffffffffff1673ffffffffffffffffffffffffffffffffffffffff16815250509050919050565b80600660006101000a81548173ffffffffffffffffffffffffffffffffffffffff021916908373ffffffffffffffffffffffffffffffffffffffff16021790555050565b60046020528060005260406000206000915090508060000160009054906101000a900463ffffffff16908060000160049054906101000a900463ffffffff16908060000160089054906101000a900463ffffffff169080600001600c9054906101000a900463ffffffff16908060000160109054906101000a900460ff16908060000160119054906101000a900460ff16908060010160009054906101000a900473ffffffffffffffffffffffffffffffffffffffff16908060020160009054906101000a900473ffffffffffffffffffffffffffffffffffffffff16905088565b60026020528060005260406000206000915090508060000160009054906101000a900463ffffffff16908060000160049054906101000a900473ffffffffffffffffffffffffffffffffffffffff16908060010160009054906101000a900473ffffffffffffffffffffffffffffffffffffffff16908060010160149054906101000a900463ffffffff16908060010160189054906101000a900460ff16908060020154905086565b60036006811115611915577f4e487b7100000000000000000000000000000000000000000000000000000000600052602160045260246000fd5b600660009054906101000a900473ffffffffffffffffffffffffffffffffffffffff1673ffffffffffffffffffffffffffffffffffffffff1663fe32398a336040518263ffffffff1660e01b81526004016119709190613f86565b604080518083038186803b15801561198757600080fd5b505afa15801561199b573d6000803e3d6000fd5b505050506040513d601f19601f820116820180604052508101906119bf9190613670565b6020015160068111156119fb577f4e487b7100000000000000000000000000000000000000000000000000000000600052602160045260246000fd5b14611a3b576040517f08c379a0000000000000000000000000000000000000000000000000000000008152600401611a3290614101565b60405180910390fd5b6000600460008563ffffffff1663ffffffff168152602001908152602001600020604051806101000160405290816000820160009054906101000a900463ffffffff1663ffffffff1663ffffffff1681526020016000820160049054906101000a900463ffffffff1663ffffffff1663ffffffff1681526020016000820160089054906101000a900463ffffffff1663ffffffff1663ffffffff16815260200160008201600c9054906101000a900463ffffffff1663ffffffff1663ffffffff1681526020016000820160109054906101000a900460ff161515151581526020016000820160119054906101000a900460ff166001811115611b66577f4e487b7100000000000000000000000000000000000000000000000000000000600052602160045260246000fd5b6001811115611b9e577f4e487b7100000000000000000000000000000000000000000000000000000000600052602160045260246000fd5b81526020016001820160009054906101000a900473ffffffffffffffffffffffffffffffffffffffff1673ffffffffffffffffffffffffffffffffffffffff1673ffffffffffffffffffffffffffffffffffffffff1681526020016002820160009054906101000a900473ffffffffffffffffffffffffffffffffffffffff1673ffffffffffffffffffffffffffffffffffffffff1673ffffffffffffffffffffffffffffffffffffffff168152505090506000806000836020015163ffffffff1663ffffffff168152602001908152602001600020604051806101200160405290816000820160009054906101000a900463ffffffff1663ffffffff1663ffffffff1681526020016000820160049054906101000a900463ffffffff1663ffffffff1663ffffffff1681526020016000820160089054906101000a900463ffffffff1663ffffffff1663ffffffff16815260200160008201600c9054906101000a900463ffffffff1663ffffffff1663ffffffff1681526020016000820160109054906101000a900460ff16151515158152602001600182018054611d439061462e565b80601f0160208091040260200160405190810160405280929190818152602001828054611d6f9061462e565b8015611dbc5780601f10611d9157610100808354040283529160200191611dbc565b820191906000526020600020905b815481529060010190602001808311611d9f57829003601f168201915b50505050508152602001600282018054611dd59061462e565b80601f0160208091040260200160405190810160405280929190818152602001828054611e019061462e565b8015611e4e5780601f10611e2357610100808354040283529160200191611e4e565b820191906000526020600020905b815481529060010190602001808311611e3157829003601f168201915b505050505081526020016003820160009054906101000a900473ffffffffffffffffffffffffffffffffffffffff1673ffffffffffffffffffffffffffffffffffffffff1673ffffffffffffffffffffffffffffffffffffffff168152602001600482018054611ebd9061462e565b80601f0160208091040260200160405190810160405280929190818152602001828054611ee99061462e565b8015611f365780601f10611f0b57610100808354040283529160200191611f36565b820191906000526020600020905b815481529060010190602001808311611f1957829003601f168201915b5050505050815250509050600560009054906101000a900463ffffffff1663ffffffff168563ffffffff161115611fa2576040517f08c379a0000000000000000000000000000000000000000000000000000000008152600401611f9990613fe1565b60405180910390fd5b816080015115611fe7576040517f08c379a0000000000000000000000000000000000000000000000000000000008152600401611fde906140c1565b60405180910390fd5b816060015163ffffffff168463ffffffff1614612039576040517f08c379a000000000000000000000000000000000000000000000000000000000815260040161203090613fc1565b60405180910390fd5b600560049054906101000a900473ffffffffffffffffffffffffffffffffffffffff1673ffffffffffffffffffffffffffffffffffffffff16639aed4540836020015184604001518460600151338661010001518760c001518860a001516040518863ffffffff1660e01b81526004016120b997969594939291906141f6565b600060405180830381600087803b1580156120d357600080fd5b505af11580156120e7573d6000803e3d6000fd5b505050506001600460008763ffffffff1663ffffffff16815260200190815260200160002060000160106101000a81548160ff0219169083151502179055506003600081819054906101000a900463ffffffff168092919061214890614660565b91906101000a81548163ffffffff021916908363ffffffff160217905550506040518060c00160405280600360009054906101000a900463ffffffff1663ffffffff1681526020013373ffffffffffffffffffffffffffffffffffffffff1681526020018360c0015173ffffffffffffffffffffffffffffffffffffffff1681526020018563ffffffff168152602001846002811115612211577f4e487b7100000000000000000000000000000000000000000000000000000000600052602160045260246000fd5b815260200142815250600260008763ffffffff1663ffffffff16815260200190815260200160002060008201518160000160006101000a81548163ffffffff021916908363ffffffff16021790555060208201518160000160046101000a81548173ffffffffffffffffffffffffffffffffffffffff021916908373ffffffffffffffffffffffffffffffffffffffff16021790555060408201518160010160006101000a81548173ffffffffffffffffffffffffffffffffffffffff021916908373ffffffffffffffffffffffffffffffffffffffff16021790555060608201518160010160146101000a81548163ffffffff021916908363ffffffff16021790555060808201518160010160186101000a81548160ff02191690836002811115612366577f4e487b7100000000000000000000000000000000000000000000000000000000600052602160045260246000fd5b021790555060a082015181600201559050505050505050565b600260068111156123b9577f4e487b7100000000000000000000000000000000000000000000000000000000600052602160045260246000fd5b600660009054906101000a900473ffffffffffffffffffffffffffffffffffffffff1673ffffffffffffffffffffffffffffffffffffffff1663fe32398a336040518263ffffffff1660e01b81526004016124149190613f86565b604080518083038186803b15801561242b57600080fd5b505afa15801561243f573d6000803e3d6000fd5b505050506040513d601f19601f820116820180604052508101906124639190613670565b60200151600681111561249f577f4e487b7100000000000000000000000000000000000000000000000000000000600052602160045260246000fd5b146124df576040517f08c379a00000000000000000000000000000000000000000000000000000000081526004016124d690614001565b60405180910390fd5b600160009054906101000a900463ffffffff1663ffffffff168263ffffffff161115612540576040517f08c379a000000000000000000000000000000000000000000000000000000000815260040161253790614081565b60405180910390fd5b600081511415612585576040517f08c379a000000000000000000000000000000000000000000000000000000000815260040161257c906140a1565b60405180910390fd5b60016000808463ffffffff1663ffffffff16815260200190815260200160002060000160106101000a81548160ff021916908315150217905550806000808463ffffffff1663ffffffff16815260200190815260200160002060010190805190602001906125f4929190612c8e565b505050565b60006020528060005260406000206000915090508060000160009054906101000a900463ffffffff16908060000160049054906101000a900463ffffffff16908060000160089054906101000a900463ffffffff169080600001600c9054906101000a900463ffffffff16908060000160109054906101000a900460ff16908060010180546126879061462e565b80601f01602080910402602001604051908101604052809291908181526020018280546126b39061462e565b80156127005780601f106126d557610100808354040283529160200191612700565b820191906000526020600020905b8154815290600101906020018083116126e357829003601f168201915b5050505050908060020180546127159061462e565b80601f01602080910402602001604051908101604052809291908181526020018280546127419061462e565b801561278e5780601f106127635761010080835404028352916020019161278e565b820191906000526020600020905b81548152906001019060200180831161277157829003601f168201915b5050505050908060030160009054906101000a900473ffffffffffffffffffffffffffffffffffffffff16908060040180546127c99061462e565b80601f01602080910402602001604051908101604052809291908181526020018280546127f59061462e565b80156128425780601f1061281757610100808354040283529160200191612842565b820191906000526020600020905b81548152906001019060200180831161282557829003601f168201915b5050505050905089565b6000600560009054906101000a900463ffffffff16905090565b600160009054906101000a900463ffffffff1681565b600360009054906101000a900463ffffffff1681565b6000600160009054906101000a900463ffffffff16905090565b80600560046101000a81548173ffffffffffffffffffffffffffffffffffffffff021916908373ffffffffffffffffffffffffffffffffffffffff16021790555050565b6128f8612dd7565b6000808363ffffffff1663ffffffff168152602001908152602001600020604051806101200160405290816000820160009054906101000a900463ffffffff1663ffffffff1663ffffffff1681526020016000820160049054906101000a900463ffffffff1663ffffffff1663ffffffff1681526020016000820160089054906101000a900463ffffffff1663ffffffff1663ffffffff16815260200160008201600c9054906101000a900463ffffffff1663ffffffff1663ffffffff1681526020016000820160109054906101000a900460ff161515151581526020016001820180546129e59061462e565b80601f0160208091040260200160405190810160405280929190818152602001828054612a119061462e565b8015612a5e5780601f10612a3357610100808354040283529160200191612a5e565b820191906000526020600020905b815481529060010190602001808311612a4157829003601f168201915b50505050508152602001600282018054612a779061462e565b80601f0160208091040260200160405190810160405280929190818152602001828054612aa39061462e565b8015612af05780601f10612ac557610100808354040283529160200191612af0565b820191906000526020600020905b815481529060010190602001808311612ad357829003601f168201915b505050505081526020016003820160009054906101000a900473ffffffffffffffffffffffffffffffffffffffff1673ffffffffffffffffffffffffffffffffffffffff1673ffffffffffffffffffffffffffffffffffffffff168152602001600482018054612b5f9061462e565b80601f0160208091040260200160405190810160405280929190818152602001828054612b8b9061462e565b8015612bd85780601f10612bad57610100808354040283529160200191612bd8565b820191906000526020600020905b815481529060010190602001808311612bbb57829003601f168201915b5050505050815250509050919050565b6040518060c00160405280600063ffffffff168152602001600073ffffffffffffffffffffffffffffffffffffffff168152602001600073ffffffffffffffffffffffffffffffffffffffff168152602001600063ffffffff16815260200160006002811115612c81577f4e487b7100000000000000000000000000000000000000000000000000000000600052602160045260246000fd5b8152602001600081525090565b828054612c9a9061462e565b90600052602060002090601f016020900481019282612cbc5760008555612d03565b82601f10612cd557805160ff1916838001178555612d03565b82800160010185558215612d03579182015b82811115612d02578251825591602001919060010190612ce7565b5b509050612d109190612e53565b5090565b604051806101000160405280600063ffffffff168152602001600063ffffffff168152602001600063ffffffff168152602001600063ffffffff16815260200160001515815260200160006001811115612d97577f4e487b7100000000000000000000000000000000000000000000000000000000600052602160045260246000fd5b8152602001600073ffffffffffffffffffffffffffffffffffffffff168152602001600073ffffffffffffffffffffffffffffffffffffffff1681525090565b604051806101200160405280600063ffffffff168152602001600063ffffffff168152602001600063ffffffff168152602001600063ffffffff1681526020016000151581526020016060815260200160608152602001600073ffffffffffffffffffffffffffffffffffffffff168152602001606081525090565b5b80821115612e6c576000816000905550600101612e54565b5090565b6000612e83612e7e846143cb565b61439a565b9050808382526020820190508260005b85811015612ec35781518501612ea988826131b0565b845260208401935060208301925050600181019050612e93565b5050509392505050565b6000612ee0612edb846143f7565b61439a565b9050808382526020820190508260005b85811015612f205781518501612f068882613226565b845260208401935060208301925050600181019050612ef0565b5050509392505050565b6000612f3d612f3884614423565b61439a565b9050808382526020820190508260005b85811015612f7d5781518501612f6388826132ca565b845260208401935060208301925050600181019050612f4d565b5050509392505050565b6000612f9a612f958461444f565b61439a565b9050808382526020820190508260005b85811015612fda5781518501612fc08882613356565b845260208401935060208301925050600181019050612faa565b5050509392505050565b6000612ff7612ff28461447b565b61439a565b90508281526020810184848401111561300f57600080fd5b61301a8482856145ec565b509392505050565b60006130356130308461447b565b61439a565b90508281526020810184848401111561304d57600080fd5b6130588482856145fb565b509392505050565b60008135905061306f81614782565b92915050565b60008151905061308481614782565b92915050565b600082601f83011261309b57600080fd5b81516130ab848260208601612e70565b91505092915050565b600082601f8301126130c557600080fd5b81516130d5848260208601612ecd565b91505092915050565b600082601f8301126130ef57600080fd5b81516130ff848260208601612f2a565b91505092915050565b600082601f83011261311957600080fd5b8151613129848260208601612f87565b91505092915050565b60008151905061314181614799565b92915050565b600081519050613156816147b0565b92915050565b60008135905061316b816147c0565b92915050565b600081519050613180816147d0565b92915050565b600082601f83011261319757600080fd5b81356131a7848260208601612fe4565b91505092915050565b600082601f8301126131c157600080fd5b81516131d1848260208601613022565b91505092915050565b6000604082840312156131ec57600080fd5b6131f6604061439a565b9050600061320684828501613075565b600083015250602061321a84828501613171565b60208301525092915050565b60006080828403121561323857600080fd5b613242608061439a565b9050600061325284828501613632565b600083015250602082015167ffffffffffffffff81111561327257600080fd5b61327e848285016131b0565b602083015250604082015167ffffffffffffffff81111561329e57600080fd5b6132aa848285016131b0565b60408301525060606132be84828501613608565b60608301525092915050565b6000608082840312156132dc57600080fd5b6132e6608061439a565b905060006132f684828501613632565b600083015250602061330a84828501613075565b602083015250604082015167ffffffffffffffff81111561332a57600080fd5b613336848285016131b0565b604083015250606061334a84828501613608565b60608301525092915050565b60006060828403121561336857600080fd5b613372606061439a565b9050600082015167ffffffffffffffff81111561338e57600080fd5b61339a848285016131b0565b60008301525060206133ae84828501613632565b60208301525060406133c284828501613132565b60408301525092915050565b60006101c082840312156133e157600080fd5b6133ec6101c061439a565b905060006133fc84828501613632565b600083015250602061341084828501613075565b602083015250604082015167ffffffffffffffff81111561343057600080fd5b61343c848285016131b0565b604083015250606082015167ffffffffffffffff81111561345c57600080fd5b613468848285016131b0565b606083015250608061347c84828501613132565b60808301525060a061349084828501613147565b60a08301525060c082015167ffffffffffffffff8111156134b057600080fd5b6134bc848285016131b0565b60c08301525060e082015167ffffffffffffffff8111156134dc57600080fd5b6134e8848285016131b0565b60e08301525061010082015167ffffffffffffffff81111561350957600080fd5b6135158482850161308a565b6101008301525061012082015167ffffffffffffffff81111561353757600080fd5b61354384828501613108565b6101208301525061014082015167ffffffffffffffff81111561356557600080fd5b613571848285016130de565b6101408301525061016082015167ffffffffffffffff81111561359357600080fd5b61359f848285016130b4565b6101608301525061018082015167ffffffffffffffff8111156135c157600080fd5b6135cd848285016131b0565b610180830152506101a082015167ffffffffffffffff8111156135ef57600080fd5b6135fb848285016131b0565b6101a08301525092915050565b600081519050613617816147e0565b92915050565b60008135905061362c816147f7565b92915050565b600081519050613641816147f7565b92915050565b60006020828403121561365957600080fd5b600061366784828501613060565b91505092915050565b60006040828403121561368257600080fd5b6000613690848285016131da565b91505092915050565b6000602082840312156136ab57600080fd5b600082015167ffffffffffffffff8111156136c557600080fd5b6136d1848285016133ce565b91505092915050565b6000602082840312156136ec57600080fd5b60006136fa8482850161361d565b91505092915050565b60006020828403121561371557600080fd5b600061372384828501613632565b91505092915050565b6000806040838503121561373f57600080fd5b600061374d8582860161361d565b925050602083013567ffffffffffffffff81111561376a57600080fd5b61377685828601613186565b9150509250929050565b6000806040838503121561379357600080fd5b60006137a18582860161361d565b92505060206137b28582860161361d565b9150509250929050565b6000806000606084860312156137d157600080fd5b60006137df8682870161361d565b93505060206137f08682870161361d565b92505060406138018682870161315c565b9150509250925092565b600080600080600060a0868803121561382357600080fd5b60006138318882890161361d565b95505060206138428882890161361d565b94505060406138538882890161361d565b935050606086013567ffffffffffffffff81111561387057600080fd5b61387c88828901613186565b925050608086013567ffffffffffffffff81111561389957600080fd5b6138a588828901613186565b9150509295509295909350565b6138bb8161454a565b82525050565b6138ca8161454a565b82525050565b6138d98161455c565b82525050565b6138e88161455c565b82525050565b6138f7816145c8565b82525050565b613906816145c8565b82525050565b613915816145da565b82525050565b613924816145da565b82525050565b6000613935826144ab565b61393f81856144b6565b935061394f8185602086016145fb565b61395881614749565b840191505092915050565b600061396e826144ab565b61397881856144c7565b93506139888185602086016145fb565b61399181614749565b840191505092915050565b60006139a96022836144c7565b91507f4e6f6e206175746f726973653a207365756c656d656e742050726f647563746560008301527f75720000000000000000000000000000000000000000000000000000000000006020830152604082019050919050565b6000613a0f600e836144c7565b91507f5072697820696e636f72726563740000000000000000000000000000000000006000830152602082019050919050565b6000613a4f6015836144c7565b91507f436f6d6d616e6465206e6f6e206578697374616e7400000000000000000000006000830152602082019050919050565b6000613a8f6025836144c7565b91507f4e6f6e206175746f726973653a207365756c656d656e7420436572746966696360008301527f61746575720000000000000000000000000000000000000000000000000000006020830152604082019050919050565b6000613af56015836144c7565b91507f50617263656c6c65206e6f6e206578697374616e7400000000000000000000006000830152602082019050919050565b6000613b356014836144c7565b91507f5265636f6c7465206e6f6e2063657274696669650000000000000000000000006000830152602082019050919050565b6000613b75602c836144c7565b91507f566f7573206e2765746573207061732070726f7072696574616972652064652060008301527f63652070617263656c6c6c6500000000000000000000000000000000000000006020830152604082019050919050565b6000613bdb6014836144c7565b91507f5265636f6c7465206e6f6e206578697374616e740000000000000000000000006000830152602082019050919050565b6000613c1b600f836144c7565b91507f43657274696669636174207669646500000000000000000000000000000000006000830152602082019050919050565b6000613c5b6013836144c7565b91507f436f6d6d616e64652064656a61207061796572000000000000000000000000006000830152602082019050919050565b6000613c9b6036836144c7565b91507f5175616e746974652074726f70206772616e642070617220726170706f72742060008301527f6175207175616e7469746520646973706f6e69626c65000000000000000000006020830152604082019050919050565b6000613d016022836144c7565b91507f4e6f6e206175746f726973653a207365756c656d656e7420436f6c6c6563746560008301527f75720000000000000000000000000000000000000000000000000000000000006020830152604082019050919050565b61010082016000820151613d716000850182613f68565b506020820151613d846020850182613f68565b506040820151613d976040850182613f68565b506060820151613daa6060850182613f68565b506080820151613dbd60808501826138d0565b5060a0820151613dd060a085018261390c565b5060c0820151613de360c08501826138b2565b5060e0820151613df660e08501826138b2565b50505050565b60c082016000820151613e126000850182613f68565b506020820151613e2560208501826138b2565b506040820151613e3860408501826138b2565b506060820151613e4b6060850182613f68565b506080820151613e5e60808501826138ee565b5060a0820151613e7160a0850182613f4a565b50505050565b600061012083016000830151613e906000860182613f68565b506020830151613ea36020860182613f68565b506040830151613eb66040860182613f68565b506060830151613ec96060860182613f68565b506080830151613edc60808601826138d0565b5060a083015184820360a0860152613ef4828261392a565b91505060c083015184820360c0860152613f0e828261392a565b91505060e0830151613f2360e08601826138b2565b50610100830151848203610100860152613f3d828261392a565b9150508091505092915050565b613f53816145ae565b82525050565b613f62816145ae565b82525050565b613f71816145b8565b82525050565b613f80816145b8565b82525050565b6000602082019050613f9b60008301846138c1565b92915050565b60006020820190508181036000830152613fba8161399c565b9050919050565b60006020820190508181036000830152613fda81613a02565b9050919050565b60006020820190508181036000830152613ffa81613a42565b9050919050565b6000602082019050818103600083015261401a81613a82565b9050919050565b6000602082019050818103600083015261403a81613ae8565b9050919050565b6000602082019050818103600083015261405a81613b28565b9050919050565b6000602082019050818103600083015261407a81613b68565b9050919050565b6000602082019050818103600083015261409a81613bce565b9050919050565b600060208201905081810360008301526140ba81613c0e565b9050919050565b600060208201905081810360008301526140da81613c4e565b9050919050565b600060208201905081810360008301526140fa81613c8e565b9050919050565b6000602082019050818103600083015261411a81613cf4565b9050919050565b6000610100820190506141376000830184613d5a565b92915050565b600060c0820190506141526000830184613dfc565b92915050565b600060208201905081810360008301526141728184613e77565b905092915050565b600060208201905061418f6000830184613f77565b92915050565b600060c0820190506141aa6000830189613f77565b6141b760208301886138c1565b6141c460408301876138c1565b6141d16060830186613f77565b6141de60808301856138fd565b6141eb60a0830184613f59565b979650505050505050565b600060e08201905061420b600083018a613f77565b6142186020830189613f77565b6142256040830188613f77565b61423260608301876138c1565b81810360808301526142448186613963565b905081810360a08301526142588185613963565b905081810360c083015261426c8184613963565b905098975050505050505050565b600061010082019050614290600083018b613f77565b61429d602083018a613f77565b6142aa6040830189613f77565b6142b76060830188613f77565b6142c460808301876138df565b6142d160a083018661391b565b6142de60c08301856138c1565b6142eb60e08301846138c1565b9998505050505050505050565b60006101208201905061430e600083018c613f77565b61431b602083018b613f77565b614328604083018a613f77565b6143356060830189613f77565b61434260808301886138df565b81810360a08301526143548187613963565b905081810360c08301526143688186613963565b905061437760e08301856138c1565b81810361010083015261438a8184613963565b90509a9950505050505050505050565b6000604051905081810181811067ffffffffffffffff821117156143c1576143c061471a565b5b8060405250919050565b600067ffffffffffffffff8211156143e6576143e561471a565b5b602082029050602081019050919050565b600067ffffffffffffffff8211156144125761441161471a565b5b602082029050602081019050919050565b600067ffffffffffffffff82111561443e5761443d61471a565b5b602082029050602081019050919050565b600067ffffffffffffffff82111561446a5761446961471a565b5b602082029050602081019050919050565b600067ffffffffffffffff8211156144965761449561471a565b5b601f19601f8301169050602081019050919050565b600081519050919050565b600082825260208201905092915050565b600082825260208201905092915050565b60006144e3826145b8565b91506144ee836145b8565b92508163ffffffff048311821515161561450b5761450a61468d565b5b828202905092915050565b6000614521826145b8565b915061452c836145b8565b92508282101561453f5761453e61468d565b5b828203905092915050565b60006145558261458e565b9050919050565b60008115159050919050565b60008190506145768261475a565b919050565b60008190506145898261476e565b919050565b600073ffffffffffffffffffffffffffffffffffffffff82169050919050565b6000819050919050565b600063ffffffff82169050919050565b60006145d382614568565b9050919050565b60006145e58261457b565b9050919050565b82818337600083830152505050565b60005b838110156146195780820151818401526020810190506145fe565b83811115614628576000848401525b50505050565b6000600282049050600182168061464657607f821691505b6020821081141561465a576146596146eb565b5b50919050565b600061466b826145b8565b915063ffffffff8214156146825761468161468d565b5b600182019050919050565b7f4e487b7100000000000000000000000000000000000000000000000000000000600052601160045260246000fd5b7f4e487b7100000000000000000000000000000000000000000000000000000000600052602160045260246000fd5b7f4e487b7100000000000000000000000000000000000000000000000000000000600052602260045260246000fd5b7f4e487b7100000000000000000000000000000000000000000000000000000000600052604160045260246000fd5b6000601f19601f8301169050919050565b6003811061476b5761476a6146bc565b5b50565b6002811061477f5761477e6146bc565b5b50565b61478b8161454a565b811461479657600080fd5b50565b6147a28161455c565b81146147ad57600080fd5b50565b600481106147bd57600080fd5b50565b600381106147cd57600080fd5b50565b600781106147dd57600080fd5b50565b6147e9816145ae565b81146147f457600080fd5b50565b614800816145b8565b811461480b57600080fd5b5056fea2646970667358221220dac1f7f35d46de6b07def0080217801214bba6a46bbea65fab08ca018469122464736f6c63430008000033",
  "linkReferences": {},
  "deployedLinkReferences": {}
}