{
  "_format": "hh-sol-artifact-1",
  "contractName": "CollecteurExportateur",
  "sourceName": "contracts/CollecteurExportateur.sol",
  "abi": [
    {
      "anonymous": false,
      "inputs": [
        {
          "indexed": true,
          "internalType": "address",
          "name": "collecteur",
          "type": "address"
        },
        {
          "indexed": false,
          "internalType": "uint32",
          "name": "idLotProduit",
          "type": "uint32"
        },
        {
          "indexed": false,
          "internalType": "uint32",
          "name": "quantite",
          "type": "uint32"
        },
        {
          "indexed": false,
          "internalType": "uint32",
          "name": "prix",
          "type": "uint32"
        }
      ],
      "name": "AjoutLotProduit",
      "type": "event"
    },
    {
      "anonymous": false,
      "inputs": [
        {
          "indexed": true,
          "internalType": "address",
          "name": "exportateur",
          "type": "address"
        },
        {
          "indexed": false,
          "internalType": "uint32",
          "name": "idProduit",
          "type": "uint32"
        }
      ],
      "name": "CommandePasser",
      "type": "event"
    },
    {
      "anonymous": false,
      "inputs": [
        {
          "indexed": true,
          "internalType": "uint32",
          "name": "idProduit",
          "type": "uint32"
        },
        {
          "indexed": false,
          "internalType": "string",
          "name": "cid",
          "type": "string"
        },
        {
          "indexed": false,
          "internalType": "uint256",
          "name": "timestamp",
          "type": "uint256"
        }
      ],
      "name": "ConditionEnregistree",
      "type": "event"
    },
    {
      "anonymous": false,
      "inputs": [
        {
          "indexed": true,
          "internalType": "uint32",
          "name": "idProduit",
          "type": "uint32"
        },
        {
          "indexed": false,
          "internalType": "uint32",
          "name": "idPaiement",
          "type": "uint32"
        },
        {
          "indexed": false,
          "internalType": "address",
          "name": "payeur",
          "type": "address"
        },
        {
          "indexed": false,
          "internalType": "uint32",
          "name": "montant",
          "type": "uint32"
        },
        {
          "indexed": false,
          "internalType": "enum StructLib.ModePaiement",
          "name": "mode",
          "type": "uint8"
        }
      ],
      "name": "PaiementEffectue",
      "type": "event"
    },
    {
      "anonymous": false,
      "inputs": [
        {
          "indexed": true,
          "internalType": "uint32",
          "name": "idProduit",
          "type": "uint32"
        },
        {
          "indexed": false,
          "internalType": "uint32",
          "name": "quantite",
          "type": "uint32"
        },
        {
          "indexed": false,
          "internalType": "uint32",
          "name": "idRecolte",
          "type": "uint32"
        }
      ],
      "name": "ProduitAjoute",
      "type": "event"
    },
    {
      "anonymous": false,
      "inputs": [
        {
          "indexed": true,
          "internalType": "uint32",
          "name": "idProduit",
          "type": "uint32"
        },
        {
          "indexed": false,
          "internalType": "bool",
          "name": "valide",
          "type": "bool"
        }
      ],
      "name": "ProduitValide",
      "type": "event"
    },
    {
      "anonymous": false,
      "inputs": [
        {
          "indexed": true,
          "internalType": "uint32",
          "name": "idCommande",
          "type": "uint32"
        },
        {
          "indexed": false,
          "internalType": "enum StructLib.StatutProduit",
          "name": "status",
          "type": "uint8"
        }
      ],
      "name": "StatusCommandeMisAJour",
      "type": "event"
    },
    {
      "anonymous": false,
      "inputs": [
        {
          "indexed": true,
          "internalType": "uint32",
          "name": "idProduit",
          "type": "uint32"
        },
        {
          "indexed": false,
          "internalType": "enum StructLib.StatutTransport",
          "name": "statut",
          "type": "uint8"
        }
      ],
      "name": "StatutTransportMisAJour",
      "type": "event"
    },
    {
      "stateMutability": "payable",
      "type": "fallback"
    },
    {
      "inputs": [
        {
          "internalType": "uint32[]",
          "name": "_idProduits",
          "type": "uint32[]"
        },
        {
          "internalType": "string",
          "name": "_cid",
          "type": "string"
        },
        {
          "internalType": "uint32",
          "name": "_prix",
          "type": "uint32"
        }
      ],
      "name": "ajouterLotProduit",
      "outputs": [],
      "stateMutability": "nonpayable",
      "type": "function"
    },
    {
      "inputs": [
        {
          "internalType": "uint32",
          "name": "_idRecolte",
          "type": "uint32"
        },
        {
          "internalType": "uint32",
          "name": "_quantite",
          "type": "uint32"
        },
        {
          "internalType": "address",
          "name": "_collecteur",
          "type": "address"
        }
      ],
      "name": "ajouterProduit",
      "outputs": [],
      "stateMutability": "nonpayable",
      "type": "function"
    },
    {
      "inputs": [
        {
          "internalType": "uint32",
          "name": "idCommande",
          "type": "uint32"
        },
        {
          "internalType": "address",
          "name": "transporteur",
          "type": "address"
        }
      ],
      "name": "choisirTransporteurCommandeProduit",
      "outputs": [],
      "stateMutability": "nonpayable",
      "type": "function"
    },
    {
      "inputs": [
        {
          "internalType": "uint32",
          "name": "",
          "type": "uint32"
        }
      ],
      "name": "commandes",
      "outputs": [
        {
          "internalType": "uint32",
          "name": "id",
          "type": "uint32"
        },
        {
          "internalType": "uint32",
          "name": "idLotProduit",
          "type": "uint32"
        },
        {
          "internalType": "uint32",
          "name": "quantite",
          "type": "uint32"
        },
        {
          "internalType": "uint32",
          "name": "prix",
          "type": "uint32"
        },
        {
          "internalType": "bool",
          "name": "payer",
          "type": "bool"
        },
        {
          "internalType": "enum StructLib.StatutTransport",
          "name": "statutTransport",
          "type": "uint8"
        },
        {
          "internalType": "address",
          "name": "collecteur",
          "type": "address"
        },
        {
          "internalType": "address",
          "name": "exportateur",
          "type": "address"
        },
        {
          "internalType": "enum StructLib.StatutProduit",
          "name": "statutProduit",
          "type": "uint8"
        },
        {
          "internalType": "bool",
          "name": "enregistre",
          "type": "bool"
        },
        {
          "internalType": "bool",
          "name": "enregistrerCondition",
          "type": "bool"
        },
        {
          "internalType": "address",
          "name": "transporteur",
          "type": "address"
        }
      ],
      "stateMutability": "view",
      "type": "function"
    },
    {
      "inputs": [],
      "name": "compteurCommandes",
      "outputs": [
        {
          "internalType": "uint32",
          "name": "",
          "type": "uint32"
        }
      ],
      "stateMutability": "view",
      "type": "function"
    },
    {
      "inputs": [],
      "name": "compteurLotProduits",
      "outputs": [
        {
          "internalType": "uint32",
          "name": "",
          "type": "uint32"
        }
      ],
      "stateMutability": "view",
      "type": "function"
    },
    {
      "inputs": [],
      "name": "compteurProduits",
      "outputs": [
        {
          "internalType": "uint32",
          "name": "",
          "type": "uint32"
        }
      ],
      "stateMutability": "view",
      "type": "function"
    },
    {
      "inputs": [
        {
          "internalType": "uint32",
          "name": "",
          "type": "uint32"
        }
      ],
      "name": "conditions",
      "outputs": [
        {
          "internalType": "uint32",
          "name": "id",
          "type": "uint32"
        },
        {
          "internalType": "string",
          "name": "cid",
          "type": "string"
        },
        {
          "internalType": "uint256",
          "name": "timestamp",
          "type": "uint256"
        },
        {
          "internalType": "string",
          "name": "hashMerkle",
          "type": "string"
        }
      ],
      "stateMutability": "view",
      "type": "function"
    },
    {
      "inputs": [
        {
          "internalType": "uint32",
          "name": "_idCommande",
          "type": "uint32"
        },
        {
          "internalType": "uint32",
          "name": "_montant",
          "type": "uint32"
        },
        {
          "internalType": "enum StructLib.ModePaiement",
          "name": "_mode",
          "type": "uint8"
        }
      ],
      "name": "effectuerPaiement",
      "outputs": [],
      "stateMutability": "payable",
      "type": "function"
    },
    {
      "inputs": [
        {
          "internalType": "uint32",
          "name": "_idCommande",
          "type": "uint32"
        },
        {
          "internalType": "bool",
          "name": "_enregistre",
          "type": "bool"
        }
      ],
      "name": "enregistrerCommande",
      "outputs": [],
      "stateMutability": "nonpayable",
      "type": "function"
    },
    {
      "inputs": [
        {
          "internalType": "uint32",
          "name": "_idCommande",
          "type": "uint32"
        },
        {
          "internalType": "string",
          "name": "_cid",
          "type": "string"
        }
      ],
      "name": "enregistrerCondition",
      "outputs": [],
      "stateMutability": "nonpayable",
      "type": "function"
    },
    {
      "inputs": [],
      "name": "gestionnaireActeurs",
      "outputs": [
        {
          "internalType": "contract GestionnaireActeurs",
          "name": "",
          "type": "address"
        }
      ],
      "stateMutability": "view",
      "type": "function"
    },
    {
      "inputs": [
        {
          "internalType": "uint32",
          "name": "id",
          "type": "uint32"
        }
      ],
      "name": "getCommande",
      "outputs": [
        {
          "components": [
            {
              "internalType": "uint32",
              "name": "id",
              "type": "uint32"
            },
            {
              "internalType": "uint32",
              "name": "idLotProduit",
              "type": "uint32"
            },
            {
              "internalType": "uint32",
              "name": "quantite",
              "type": "uint32"
            },
            {
              "internalType": "uint32",
              "name": "prix",
              "type": "uint32"
            },
            {
              "internalType": "bool",
              "name": "payer",
              "type": "bool"
            },
            {
              "internalType": "enum StructLib.StatutTransport",
              "name": "statutTransport",
              "type": "uint8"
            },
            {
              "internalType": "address",
              "name": "collecteur",
              "type": "address"
            },
            {
              "internalType": "address",
              "name": "exportateur",
              "type": "address"
            },
            {
              "internalType": "enum StructLib.StatutProduit",
              "name": "statutProduit",
              "type": "uint8"
            },
            {
              "internalType": "bool",
              "name": "enregistre",
              "type": "bool"
            },
            {
              "internalType": "bool",
              "name": "enregistrerCondition",
              "type": "bool"
            },
            {
              "internalType": "address",
              "name": "transporteur",
              "type": "address"
            }
          ],
          "internalType": "struct StructLib.CommandeProduit",
          "name": "",
          "type": "tuple"
        }
      ],
      "stateMutability": "view",
      "type": "function"
    },
    {
      "inputs": [],
      "name": "getCompteurCommande",
      "outputs": [
        {
          "internalType": "uint32",
          "name": "",
          "type": "uint32"
        }
      ],
      "stateMutability": "view",
      "type": "function"
    },
    {
      "inputs": [],
      "name": "getCompteurCondition",
      "outputs": [
        {
          "internalType": "uint32",
          "name": "",
          "type": "uint32"
        }
      ],
      "stateMutability": "view",
      "type": "function"
    },
    {
      "inputs": [],
      "name": "getCompteurPaiement",
      "outputs": [
        {
          "internalType": "uint32",
          "name": "",
          "type": "uint32"
        }
      ],
      "stateMutability": "view",
      "type": "function"
    },
    {
      "inputs": [],
      "name": "getCompteurProduit",
      "outputs": [
        {
          "internalType": "uint32",
          "name": "",
          "type": "uint32"
        }
      ],
      "stateMutability": "view",
      "type": "function"
    },
    {
      "inputs": [
        {
          "internalType": "uint32",
          "name": "id",
          "type": "uint32"
        }
      ],
      "name": "getCondition",
      "outputs": [
        {
          "components": [
            {
              "internalType": "uint32",
              "name": "id",
              "type": "uint32"
            },
            {
              "internalType": "string",
              "name": "cid",
              "type": "string"
            },
            {
              "internalType": "uint256",
              "name": "timestamp",
              "type": "uint256"
            },
            {
              "internalType": "string",
              "name": "hashMerkle",
              "type": "string"
            }
          ],
          "internalType": "struct StructLib.EnregistrementCondition",
          "name": "",
          "type": "tuple"
        }
      ],
      "stateMutability": "view",
      "type": "function"
    },
    {
      "inputs": [
        {
          "internalType": "uint32",
          "name": "id",
          "type": "uint32"
        }
      ],
      "name": "getLotProduit",
      "outputs": [
        {
          "components": [
            {
              "internalType": "uint32",
              "name": "id",
              "type": "uint32"
            },
            {
              "internalType": "uint32[]",
              "name": "idRecolte",
              "type": "uint32[]"
            },
            {
              "internalType": "uint32",
              "name": "quantite",
              "type": "uint32"
            },
            {
              "internalType": "uint32",
              "name": "prix",
              "type": "uint32"
            },
            {
              "internalType": "address",
              "name": "collecteur",
              "type": "address"
            },
            {
              "internalType": "string",
              "name": "cid",
              "type": "string"
            },
            {
              "internalType": "string",
              "name": "hashMerkle",
              "type": "string"
            }
          ],
          "internalType": "struct StructLib.LotProduit",
          "name": "",
          "type": "tuple"
        }
      ],
      "stateMutability": "view",
      "type": "function"
    },
    {
      "inputs": [
        {
          "internalType": "uint32",
          "name": "id",
          "type": "uint32"
        }
      ],
      "name": "getPaiement",
      "outputs": [
        {
          "components": [
            {
              "internalType": "uint32",
              "name": "id",
              "type": "uint32"
            },
            {
              "internalType": "address",
              "name": "payeur",
              "type": "address"
            },
            {
              "internalType": "address",
              "name": "vendeur",
              "type": "address"
            },
            {
              "internalType": "uint32",
              "name": "montant",
              "type": "uint32"
            },
            {
              "internalType": "enum StructLib.ModePaiement",
              "name": "mode",
              "type": "uint8"
            },
            {
              "internalType": "uint256",
              "name": "timestamp",
              "type": "uint256"
            },
            {
              "internalType": "string",
              "name": "hashMerkle",
              "type": "string"
            }
          ],
          "internalType": "struct StructLib.Paiement",
          "name": "",
          "type": "tuple"
        }
      ],
      "stateMutability": "view",
      "type": "function"
    },
    {
      "inputs": [
        {
          "internalType": "uint32",
          "name": "id",
          "type": "uint32"
        }
      ],
      "name": "getProduit",
      "outputs": [
        {
          "components": [
            {
              "internalType": "uint32",
              "name": "id",
              "type": "uint32"
            },
            {
              "internalType": "uint32",
              "name": "idRecolte",
              "type": "uint32"
            },
            {
              "internalType": "uint32",
              "name": "quantite",
              "type": "uint32"
            },
            {
              "internalType": "address",
              "name": "collecteur",
              "type": "address"
            },
            {
              "internalType": "bool",
              "name": "enregistre",
              "type": "bool"
            },
            {
              "internalType": "string",
              "name": "hashMerkle",
              "type": "string"
            }
          ],
          "internalType": "struct StructLib.Produit",
          "name": "",
          "type": "tuple"
        }
      ],
      "stateMutability": "view",
      "type": "function"
    },
    {
      "inputs": [
        {
          "internalType": "address",
          "name": "_gestionnaireActeurs",
          "type": "address"
        }
      ],
      "name": "initialiser",
      "outputs": [],
      "stateMutability": "nonpayable",
      "type": "function"
    },
    {
      "inputs": [
        {
          "internalType": "uint32",
          "name": "",
          "type": "uint32"
        }
      ],
      "name": "lotProduits",
      "outputs": [
        {
          "internalType": "uint32",
          "name": "id",
          "type": "uint32"
        },
        {
          "internalType": "uint32",
          "name": "quantite",
          "type": "uint32"
        },
        {
          "internalType": "uint32",
          "name": "prix",
          "type": "uint32"
        },
        {
          "internalType": "address",
          "name": "collecteur",
          "type": "address"
        },
        {
          "internalType": "string",
          "name": "cid",
          "type": "string"
        },
        {
          "internalType": "string",
          "name": "hashMerkle",
          "type": "string"
        }
      ],
      "stateMutability": "view",
      "type": "function"
    },
    {
      "inputs": [
        {
          "internalType": "uint32",
          "name": "_idCommande",
          "type": "uint32"
        },
        {
          "internalType": "enum StructLib.StatutProduit",
          "name": "_status",
          "type": "uint8"
        }
      ],
      "name": "mettreAJourStatutCommande",
      "outputs": [],
      "stateMutability": "nonpayable",
      "type": "function"
    },
    {
      "inputs": [
        {
          "internalType": "uint32",
          "name": "_idCommande",
          "type": "uint32"
        },
        {
          "internalType": "enum StructLib.StatutTransport",
          "name": "_statut",
          "type": "uint8"
        }
      ],
      "name": "mettreAJourStatutTransport",
      "outputs": [],
      "stateMutability": "nonpayable",
      "type": "function"
    },
    {
      "inputs": [
        {
          "internalType": "uint32",
          "name": "",
          "type": "uint32"
        }
      ],
      "name": "paiements",
      "outputs": [
        {
          "internalType": "uint32",
          "name": "id",
          "type": "uint32"
        },
        {
          "internalType": "address",
          "name": "payeur",
          "type": "address"
        },
        {
          "internalType": "address",
          "name": "vendeur",
          "type": "address"
        },
        {
          "internalType": "uint32",
          "name": "montant",
          "type": "uint32"
        },
        {
          "internalType": "enum StructLib.ModePaiement",
          "name": "mode",
          "type": "uint8"
        },
        {
          "internalType": "uint256",
          "name": "timestamp",
          "type": "uint256"
        },
        {
          "internalType": "string",
          "name": "hashMerkle",
          "type": "string"
        }
      ],
      "stateMutability": "view",
      "type": "function"
    },
    {
      "inputs": [
        {
          "internalType": "uint32",
          "name": "_idLotProduit",
          "type": "uint32"
        },
        {
          "internalType": "uint32",
          "name": "_quantite",
          "type": "uint32"
        }
      ],
      "name": "passerCommande",
      "outputs": [],
      "stateMutability": "nonpayable",
      "type": "function"
    },
    {
      "inputs": [
        {
          "internalType": "uint32",
          "name": "",
          "type": "uint32"
        }
      ],
      "name": "produits",
      "outputs": [
        {
          "internalType": "uint32",
          "name": "id",
          "type": "uint32"
        },
        {
          "internalType": "uint32",
          "name": "idRecolte",
          "type": "uint32"
        },
        {
          "internalType": "uint32",
          "name": "quantite",
          "type": "uint32"
        },
        {
          "internalType": "address",
          "name": "collecteur",
          "type": "address"
        },
        {
          "internalType": "bool",
          "name": "enregistre",
          "type": "bool"
        },
        {
          "internalType": "string",
          "name": "hashMerkle",
          "type": "string"
        }
      ],
      "stateMutability": "view",
      "type": "function"
    },
    {
      "inputs": [
        {
          "internalType": "address",
          "name": "_addr",
          "type": "address"
        }
      ],
      "name": "setGestionnaireActeurs",
      "outputs": [],
      "stateMutability": "nonpayable",
      "type": "function"
    },
    {
      "inputs": [
        {
          "internalType": "uint32",
          "name": "_idLotProduit",
          "type": "uint32"
        },
        {
          "internalType": "uint32",
          "name": "_prix",
          "type": "uint32"
        }
      ],
      "name": "setPriceProduit",
      "outputs": [],
      "stateMutability": "nonpayable",
      "type": "function"
    },
    {
      "stateMutability": "payable",
      "type": "receive"
    }
  ],
  "bytecode": "0x608060405234801561001057600080fd5b5061596580620000216000396000f3fe6080604052600436106101d05760003560e01c80636f3fd6c5116100f7578063ba9ba24011610095578063e6cab64c11610064578063e6cab64c146106de578063edd13163146106fa578063f6980cc914610725578063fdccf43314610765576101d7565b8063ba9ba24014610621578063c1f73cfa14610663578063c4c8d1941461068c578063e550ef99146106b5576101d7565b80638a16156e116100d15780638a16156e1461057957806393c2f9b4146105a25780639e942cd4146105cd578063b9e91d70146105f8576101d7565b80636f3fd6c5146104c35780637babcffa1461050b5780638777654f1461054e576101d7565b806341fae4db1161016f5780634dafb5011161013e5780634dafb501146104095780634fbdf4fe146104325780635293ea511461045b578063693dff1f14610498576101d7565b806341fae4db146103225780634851ca821461035f578063488dee20146103a157806348d2cee0146103cc576101d7565b806315a3374c116101ab57806315a3374c1461026a5780632477b51014610293578063369064b9146102bc5780633e7a6049146102f9576101d7565b806241fb4e146101d957806301197018146102025780630b215e641461022d576101d7565b366101d757005b005b3480156101e557600080fd5b5061020060048036038101906101fb91906146ce565b610790565b005b34801561020e57600080fd5b50610217610987565b6040516102249190615133565b60405180910390f35b34801561023957600080fd5b50610254600480360381019061024f91906146a5565b6109a1565b60405161026191906150ef565b60405180910390f35b34801561027657600080fd5b50610291600480360381019061028c9190614812565b610bf5565b005b34801561029f57600080fd5b506102ba60048036038101906102b59190614746565b610dcc565b005b3480156102c857600080fd5b506102e360048036038101906102de91906146a5565b611016565b6040516102f09190615111565b60405180910390f35b34801561030557600080fd5b50610320600480360381019061031b91906145d4565b6111c3565b005b34801561032e57600080fd5b50610349600480360381019061034491906146a5565b611207565b60405161035691906150ab565b60405180910390f35b34801561036b57600080fd5b50610386600480360381019061038191906146a5565b611394565b604051610398969594939291906152bc565b60405180910390f35b3480156103ad57600080fd5b506103b66114b5565b6040516103c39190615133565b60405180910390f35b3480156103d857600080fd5b506103f360048036038101906103ee91906146a5565b6114cb565b60405161040091906150cd565b60405180910390f35b34801561041557600080fd5b50610430600480360381019061042b9190614812565b611774565b005b34801561043e57600080fd5b50610459600480360381019061045491906145d4565b611e37565b005b34801561046757600080fd5b50610482600480360381019061047d91906146a5565b611eb0565b60405161048f919061508f565b60405180910390f35b3480156104a457600080fd5b506104ad6121e3565b6040516104ba9190615133565b60405180910390f35b3480156104cf57600080fd5b506104ea60048036038101906104e591906146a5565b6121f9565b6040516105029c9b9a99989796959493929190615393565b60405180910390f35b34801561051757600080fd5b50610532600480360381019061052d91906146a5565b61233a565b604051610545979695949392919061514e565b60405180910390f35b34801561055a57600080fd5b50610563612471565b6040516105709190615133565b60405180910390f35b34801561058557600080fd5b506105a0600480360381019061059b9190614782565b61248b565b005b3480156105ae57600080fd5b506105b76126cf565b6040516105c49190615133565b60405180910390f35b3480156105d957600080fd5b506105e26126e9565b6040516105ef9190614f8e565b60405180910390f35b34801561060457600080fd5b5061061f600480360381019061061a91906145fd565b61270f565b005b34801561062d57600080fd5b50610648600480360381019061064391906146a5565b612ec1565b60405161065a96959493929190615324565b60405180910390f35b34801561066f57600080fd5b5061068a6004803603810190610685919061484e565b61305d565b005b34801561069857600080fd5b506106b360048036038101906106ae919061470a565b61329a565b005b3480156106c157600080fd5b506106dc60048036038101906106d791906147be565b613426565b005b6106f860048036038101906106f3919061489d565b6136ba565b005b34801561070657600080fd5b5061070f613e9f565b60405161071c9190615133565b60405180910390f35b34801561073157600080fd5b5061074c600480360381019061074791906146a5565b613eb5565b60405161075c9493929190615209565b60405180910390f35b34801561077157600080fd5b5061077a614005565b6040516107879190615133565b60405180910390f35b600660009054906101000a900473ffffffffffffffffffffffffffffffffffffffff1673ffffffffffffffffffffffffffffffffffffffff1663d1e47bb33360066040518363ffffffff1660e01b81526004016107ee929190614f65565b60206040518083038186803b15801561080657600080fd5b505afa15801561081a573d6000803e3d6000fd5b505050506040513d601f19601f8201168201806040525081019061083e919061467c565b61087d576040517f08c379a00000000000000000000000000000000000000000000000000000000081526004016108749061504f565b60405180910390fd5b600560009054906101000a900463ffffffff1663ffffffff168263ffffffff1611156108a857600080fd5b3373ffffffffffffffffffffffffffffffffffffffff16600460008463ffffffff1663ffffffff16815260200190815260200160002060020160009054906101000a900473ffffffffffffffffffffffffffffffffffffffff1673ffffffffffffffffffffffffffffffffffffffff161461092257600080fd5b80600460008463ffffffff1663ffffffff16815260200190815260200160002060030160006101000a81548173ffffffffffffffffffffffffffffffffffffffff021916908373ffffffffffffffffffffffffffffffffffffffff1602179055505050565b6000600560049054906101000a900463ffffffff16905090565b6109a961401f565b600360008363ffffffff1663ffffffff1681526020019081526020016000206040518060e00160405290816000820160009054906101000a900463ffffffff1663ffffffff1663ffffffff1681526020016000820160049054906101000a900473ffffffffffffffffffffffffffffffffffffffff1673ffffffffffffffffffffffffffffffffffffffff1673ffffffffffffffffffffffffffffffffffffffff1681526020016001820160009054906101000a900473ffffffffffffffffffffffffffffffffffffffff1673ffffffffffffffffffffffffffffffffffffffff1673ffffffffffffffffffffffffffffffffffffffff1681526020016001820160149054906101000a900463ffffffff1663ffffffff1663ffffffff1681526020016001820160189054906101000a900460ff166002811115610b16577f4e487b7100000000000000000000000000000000000000000000000000000000600052602160045260246000fd5b6002811115610b4e577f4e487b7100000000000000000000000000000000000000000000000000000000600052602160045260246000fd5b815260200160028201548152602001600382018054610b6c9061573e565b80601f0160208091040260200160405190810160405280929190818152602001828054610b989061573e565b8015610be55780601f10610bba57610100808354040283529160200191610be5565b820191906000526020600020905b815481529060010190602001808311610bc857829003601f168201915b5050505050815250509050919050565b600660009054906101000a900473ffffffffffffffffffffffffffffffffffffffff1673ffffffffffffffffffffffffffffffffffffffff1663d1e47bb33360036040518363ffffffff1660e01b8152600401610c53929190614f65565b60206040518083038186803b158015610c6b57600080fd5b505afa158015610c7f573d6000803e3d6000fd5b505050506040513d601f19601f82011682018060405250810190610ca3919061467c565b610ce2576040517f08c379a0000000000000000000000000000000000000000000000000000000008152600401610cd99061502f565b60405180910390fd5b600560089054906101000a900463ffffffff1663ffffffff168263ffffffff161115610d0d57600080fd5b3373ffffffffffffffffffffffffffffffffffffffff16600160008463ffffffff1663ffffffff16815260200190815260200160002060020160089054906101000a900473ffffffffffffffffffffffffffffffffffffffff1673ffffffffffffffffffffffffffffffffffffffff1614610d8757600080fd5b80600160008463ffffffff1663ffffffff16815260200190815260200160002060020160046101000a81548163ffffffff021916908363ffffffff1602179055505050565b600660009054906101000a900473ffffffffffffffffffffffffffffffffffffffff1673ffffffffffffffffffffffffffffffffffffffff1663d1e47bb33360066040518363ffffffff1660e01b8152600401610e2a929190614f65565b60206040518083038186803b158015610e4257600080fd5b505afa158015610e56573d6000803e3d6000fd5b505050506040513d601f19601f82011682018060405250810190610e7a919061467c565b610eb9576040517f08c379a0000000000000000000000000000000000000000000000000000000008152600401610eb09061504f565b60405180910390fd5b600180811115610ef2577f4e487b7100000000000000000000000000000000000000000000000000000000600052602160045260246000fd5b600460008463ffffffff1663ffffffff16815260200190815260200160002060000160119054906101000a900460ff166001811115610f5a577f4e487b7100000000000000000000000000000000000000000000000000000000600052602160045260246000fd5b14610f6457600080fd5b80600460008463ffffffff1663ffffffff16815260200190815260200160002060020160146101000a81548160ff02191690836002811115610fcf577f4e487b7100000000000000000000000000000000000000000000000000000000600052602160045260246000fd5b02179055508163ffffffff167fab130106cad960e950d3b5ff9c896fdd5af7f3144699e12c2c8429afd4abd7ab8260405161100a9190614fa9565b60405180910390a25050565b61101e6140cc565b6000808363ffffffff1663ffffffff1681526020019081526020016000206040518060c00160405290816000820160009054906101000a900463ffffffff1663ffffffff1663ffffffff1681526020016000820160049054906101000a900463ffffffff1663ffffffff1663ffffffff1681526020016000820160089054906101000a900463ffffffff1663ffffffff1663ffffffff16815260200160008201600c9054906101000a900473ffffffffffffffffffffffffffffffffffffffff1673ffffffffffffffffffffffffffffffffffffffff1673ffffffffffffffffffffffffffffffffffffffff1681526020016001820160009054906101000a900460ff1615151515815260200160028201805461113a9061573e565b80601f01602080910402602001604051908101604052809291908181526020018280546111669061573e565b80156111b35780601f10611188576101008083540402835291602001916111b3565b820191906000526020600020905b81548152906001019060200180831161119657829003601f168201915b5050505050815250509050919050565b80600660006101000a81548173ffffffffffffffffffffffffffffffffffffffff021916908373ffffffffffffffffffffffffffffffffffffffff16021790555050565b61120f61412c565b600260008363ffffffff1663ffffffff1681526020019081526020016000206040518060800160405290816000820160009054906101000a900463ffffffff1663ffffffff1663ffffffff16815260200160018201805461126f9061573e565b80601f016020809104026020016040519081016040528092919081815260200182805461129b9061573e565b80156112e85780601f106112bd576101008083540402835291602001916112e8565b820191906000526020600020905b8154815290600101906020018083116112cb57829003601f168201915b505050505081526020016002820154815260200160038201805461130b9061573e565b80601f01602080910402602001604051908101604052809291908181526020018280546113379061573e565b80156113845780601f1061135957610100808354040283529160200191611384565b820191906000526020600020905b81548152906001019060200180831161136757829003601f168201915b5050505050815250509050919050565b60006020528060005260406000206000915090508060000160009054906101000a900463ffffffff16908060000160049054906101000a900463ffffffff16908060000160089054906101000a900463ffffffff169080600001600c9054906101000a900473ffffffffffffffffffffffffffffffffffffffff16908060010160009054906101000a900460ff16908060020180546114329061573e565b80601f016020809104026020016040519081016040528092919081815260200182805461145e9061573e565b80156114ab5780601f10611480576101008083540402835291602001916114ab565b820191906000526020600020905b81548152906001019060200180831161148e57829003601f168201915b5050505050905086565b600560009054906101000a900463ffffffff1681565b6114d361415a565b600160008363ffffffff1663ffffffff1681526020019081526020016000206040518060e00160405290816000820160009054906101000a900463ffffffff1663ffffffff1663ffffffff1681526020016001820180548060200260200160405190810160405280929190818152602001828054801561159e57602002820191906000526020600020906000905b82829054906101000a900463ffffffff1663ffffffff16815260200190600401906020826003010492830192600103820291508084116115615790505b505050505081526020016002820160009054906101000a900463ffffffff1663ffffffff1663ffffffff1681526020016002820160049054906101000a900463ffffffff1663ffffffff1663ffffffff1681526020016002820160089054906101000a900473ffffffffffffffffffffffffffffffffffffffff1673ffffffffffffffffffffffffffffffffffffffff1673ffffffffffffffffffffffffffffffffffffffff1681526020016003820180546116599061573e565b80601f01602080910402602001604051908101604052809291908181526020018280546116859061573e565b80156116d25780601f106116a7576101008083540402835291602001916116d2565b820191906000526020600020905b8154815290600101906020018083116116b557829003601f168201915b505050505081526020016004820180546116eb9061573e565b80601f01602080910402602001604051908101604052809291908181526020018280546117179061573e565b80156117645780601f1061173957610100808354040283529160200191611764565b820191906000526020600020905b81548152906001019060200180831161174757829003601f168201915b5050505050815250509050919050565b600660009054906101000a900473ffffffffffffffffffffffffffffffffffffffff1673ffffffffffffffffffffffffffffffffffffffff1663d1e47bb33360066040518363ffffffff1660e01b81526004016117d2929190614f65565b60206040518083038186803b1580156117ea57600080fd5b505afa1580156117fe573d6000803e3d6000fd5b505050506040513d601f19601f82011682018060405250810190611822919061467c565b611861576040517f08c379a00000000000000000000000000000000000000000000000000000000081526004016118589061504f565b60405180910390fd5b600160008363ffffffff1663ffffffff16815260200190815260200160002060020160009054906101000a900463ffffffff1663ffffffff168163ffffffff1611156118ac57600080fd5b6000600160008463ffffffff1663ffffffff16815260200190815260200160002060020160049054906101000a900463ffffffff16826118ec919061557a565b9050600082600160008663ffffffff1663ffffffff16815260200190815260200160002060020160009054906101000a900463ffffffff1661192e91906155b8565b905080600160008663ffffffff1663ffffffff16815260200190815260200160002060020160006101000a81548163ffffffff021916908363ffffffff1602179055506005600081819054906101000a900463ffffffff168092919061199390615770565b91906101000a81548163ffffffff021916908363ffffffff16021790555050604051806101800160405280600560009054906101000a900463ffffffff1663ffffffff1681526020018563ffffffff1681526020018463ffffffff1681526020018363ffffffff16815260200160001515815260200160006001811115611a43577f4e487b7100000000000000000000000000000000000000000000000000000000600052602160045260246000fd5b8152602001600160008763ffffffff1663ffffffff16815260200190815260200160002060020160089054906101000a900473ffffffffffffffffffffffffffffffffffffffff1673ffffffffffffffffffffffffffffffffffffffff1681526020013373ffffffffffffffffffffffffffffffffffffffff16815260200160006002811115611afc577f4e487b7100000000000000000000000000000000000000000000000000000000600052602160045260246000fd5b8152602001600015158152602001600015158152602001600073ffffffffffffffffffffffffffffffffffffffff1681525060046000600560009054906101000a900463ffffffff1663ffffffff1663ffffffff16815260200190815260200160002060008201518160000160006101000a81548163ffffffff021916908363ffffffff16021790555060208201518160000160046101000a81548163ffffffff021916908363ffffffff16021790555060408201518160000160086101000a81548163ffffffff021916908363ffffffff160217905550606082015181600001600c6101000a81548163ffffffff021916908363ffffffff16021790555060808201518160000160106101000a81548160ff02191690831515021790555060a08201518160000160116101000a81548160ff02191690836001811115611c6c577f4e487b7100000000000000000000000000000000000000000000000000000000600052602160045260246000fd5b021790555060c08201518160010160006101000a81548173ffffffffffffffffffffffffffffffffffffffff021916908373ffffffffffffffffffffffffffffffffffffffff16021790555060e08201518160020160006101000a81548173ffffffffffffffffffffffffffffffffffffffff021916908373ffffffffffffffffffffffffffffffffffffffff1602179055506101008201518160020160146101000a81548160ff02191690836002811115611d51577f4e487b7100000000000000000000000000000000000000000000000000000000600052602160045260246000fd5b02179055506101208201518160020160156101000a81548160ff0219169083151502179055506101408201518160020160166101000a81548160ff0219169083151502179055506101608201518160030160006101000a81548173ffffffffffffffffffffffffffffffffffffffff021916908373ffffffffffffffffffffffffffffffffffffffff1602179055509050503373ffffffffffffffffffffffffffffffffffffffff167fa0e84f4dba1ea97bb938c4d3ff9475e68dacbd58f3086c672b0605ad53d76dc185604051611e299190615133565b60405180910390a250505050565b6005600c9054906101000a900460ff1615611e5157600080fd5b80600660006101000a81548173ffffffffffffffffffffffffffffffffffffffff021916908373ffffffffffffffffffffffffffffffffffffffff16021790555060016005600c6101000a81548160ff02191690831515021790555050565b611eb86141bf565b600460008363ffffffff1663ffffffff168152602001908152602001600020604051806101800160405290816000820160009054906101000a900463ffffffff1663ffffffff1663ffffffff1681526020016000820160049054906101000a900463ffffffff1663ffffffff1663ffffffff1681526020016000820160089054906101000a900463ffffffff1663ffffffff1663ffffffff16815260200160008201600c9054906101000a900463ffffffff1663ffffffff1663ffffffff1681526020016000820160109054906101000a900460ff161515151581526020016000820160119054906101000a900460ff166001811115611fe1577f4e487b7100000000000000000000000000000000000000000000000000000000600052602160045260246000fd5b6001811115612019577f4e487b7100000000000000000000000000000000000000000000000000000000600052602160045260246000fd5b81526020016001820160009054906101000a900473ffffffffffffffffffffffffffffffffffffffff1673ffffffffffffffffffffffffffffffffffffffff1673ffffffffffffffffffffffffffffffffffffffff1681526020016002820160009054906101000a900473ffffffffffffffffffffffffffffffffffffffff1673ffffffffffffffffffffffffffffffffffffffff1673ffffffffffffffffffffffffffffffffffffffff1681526020016002820160149054906101000a900460ff166002811115612114577f4e487b7100000000000000000000000000000000000000000000000000000000600052602160045260246000fd5b600281111561214c577f4e487b7100000000000000000000000000000000000000000000000000000000600052602160045260246000fd5b81526020016002820160159054906101000a900460ff161515151581526020016002820160169054906101000a900460ff161515151581526020016003820160009054906101000a900473ffffffffffffffffffffffffffffffffffffffff1673ffffffffffffffffffffffffffffffffffffffff1673ffffffffffffffffffffffffffffffffffffffff16815250509050919050565b600560089054906101000a900463ffffffff1681565b60046020528060005260406000206000915090508060000160009054906101000a900463ffffffff16908060000160049054906101000a900463ffffffff16908060000160089054906101000a900463ffffffff169080600001600c9054906101000a900463ffffffff16908060000160109054906101000a900460ff16908060000160119054906101000a900460ff16908060010160009054906101000a900473ffffffffffffffffffffffffffffffffffffffff16908060020160009054906101000a900473ffffffffffffffffffffffffffffffffffffffff16908060020160149054906101000a900460ff16908060020160159054906101000a900460ff16908060020160169054906101000a900460ff16908060030160009054906101000a900473ffffffffffffffffffffffffffffffffffffffff1690508c565b60036020528060005260406000206000915090508060000160009054906101000a900463ffffffff16908060000160049054906101000a900473ffffffffffffffffffffffffffffffffffffffff16908060010160009054906101000a900473ffffffffffffffffffffffffffffffffffffffff16908060010160149054906101000a900463ffffffff16908060010160189054906101000a900460ff16908060020154908060030180546123ee9061573e565b80601f016020809104026020016040519081016040528092919081815260200182805461241a9061573e565b80156124675780601f1061243c57610100808354040283529160200191612467565b820191906000526020600020905b81548152906001019060200180831161244a57829003601f168201915b5050505050905087565b6000600560009054906101000a900463ffffffff16905090565b600660009054906101000a900473ffffffffffffffffffffffffffffffffffffffff1673ffffffffffffffffffffffffffffffffffffffff1663d1e47bb33360056040518363ffffffff1660e01b81526004016124e9929190614f65565b60206040518083038186803b15801561250157600080fd5b505afa158015612515573d6000803e3d6000fd5b505050506040513d601f19601f82011682018060405250810190612539919061467c565b612578576040517f08c379a000000000000000000000000000000000000000000000000000000000815260040161256f9061506f565b60405180910390fd5b600560009054906101000a900463ffffffff1663ffffffff168263ffffffff1611156125a357600080fd5b3373ffffffffffffffffffffffffffffffffffffffff16600460008463ffffffff1663ffffffff16815260200190815260200160002060030160009054906101000a900473ffffffffffffffffffffffffffffffffffffffff1673ffffffffffffffffffffffffffffffffffffffff161461261d57600080fd5b80600460008463ffffffff1663ffffffff16815260200190815260200160002060000160116101000a81548160ff02191690836001811115612688577f4e487b7100000000000000000000000000000000000000000000000000000000600052602160045260246000fd5b02179055508163ffffffff167ff84820c84ecbec116ee0604a91f0bec4a5d5926d8d5189a13f57fc30951d4b91826040516126c39190614fc4565b60405180910390a25050565b6000600560009054906101000a900463ffffffff16905090565b600660009054906101000a900473ffffffffffffffffffffffffffffffffffffffff1681565b600660009054906101000a900473ffffffffffffffffffffffffffffffffffffffff1673ffffffffffffffffffffffffffffffffffffffff1663d1e47bb33360036040518363ffffffff1660e01b815260040161276d929190614f65565b60206040518083038186803b15801561278557600080fd5b505afa158015612799573d6000803e3d6000fd5b505050506040513d601f19601f820116820180604052508101906127bd919061467c565b6127fc576040517f08c379a00000000000000000000000000000000000000000000000000000000081526004016127f39061502f565b60405180910390fd5b6000835167ffffffffffffffff81111561283f577f4e487b7100000000000000000000000000000000000000000000000000000000600052604160045260246000fd5b60405190808252806020026020018201604052801561286d5781602001602082028036833780820191505090505b5090506000805b85518163ffffffff161015612bab57600560049054906101000a900463ffffffff1663ffffffff16868263ffffffff16815181106128db577f4e487b7100000000000000000000000000000000000000000000000000000000600052603260045260246000fd5b602002602001015163ffffffff1611156128f457600080fd5b6000806000888463ffffffff1681518110612938577f4e487b7100000000000000000000000000000000000000000000000000000000600052603260045260246000fd5b602002602001015163ffffffff1663ffffffff1681526020019081526020016000206040518060c00160405290816000820160009054906101000a900463ffffffff1663ffffffff1663ffffffff1681526020016000820160049054906101000a900463ffffffff1663ffffffff1663ffffffff1681526020016000820160089054906101000a900463ffffffff1663ffffffff1663ffffffff16815260200160008201600c9054906101000a900473ffffffffffffffffffffffffffffffffffffffff1673ffffffffffffffffffffffffffffffffffffffff1673ffffffffffffffffffffffffffffffffffffffff1681526020016001820160009054906101000a900460ff16151515158152602001600282018054612a589061573e565b80601f0160208091040260200160405190810160405280929190818152602001828054612a849061573e565b8015612ad15780601f10612aa657610100808354040283529160200191612ad1565b820191906000526020600020905b815481529060010190602001808311612ab457829003601f168201915b50505050508152505090508060200151848363ffffffff1681518110612b20577f4e487b7100000000000000000000000000000000000000000000000000000000600052603260045260246000fd5b602002602001019063ffffffff16908163ffffffff1681525050806040015183612b4a9190615540565b92503373ffffffffffffffffffffffffffffffffffffffff16816060015173ffffffffffffffffffffffffffffffffffffffff1614612b8857600080fd5b806080015115612b9757600080fd5b508080612ba390615770565b915050612874565b506005600881819054906101000a900463ffffffff1680929190612bce90615770565b91906101000a81548163ffffffff021916908363ffffffff1602179055505060005b85518163ffffffff161015612c92576001600080888463ffffffff1681518110612c43577f4e487b7100000000000000000000000000000000000000000000000000000000600052603260045260246000fd5b602002602001015163ffffffff1663ffffffff16815260200190815260200160002060010160006101000a81548160ff0219169083151502179055508080612c8a90615770565b915050612bf0565b506040518060e00160405280600560089054906101000a900463ffffffff1663ffffffff1681526020018381526020018263ffffffff1681526020018463ffffffff1681526020013373ffffffffffffffffffffffffffffffffffffffff1681526020018581526020016040518060200160405280600081525081525060016000600560089054906101000a900463ffffffff1663ffffffff1663ffffffff16815260200190815260200160002060008201518160000160006101000a81548163ffffffff021916908363ffffffff1602179055506020820151816001019080519060200190612d839291906142f0565b5060408201518160020160006101000a81548163ffffffff021916908363ffffffff16021790555060608201518160020160046101000a81548163ffffffff021916908363ffffffff16021790555060808201518160020160086101000a81548173ffffffffffffffffffffffffffffffffffffffff021916908373ffffffffffffffffffffffffffffffffffffffff16021790555060a0820151816003019080519060200190612e359291906143a0565b5060c0820151816004019080519060200190612e529291906143a0565b509050503373ffffffffffffffffffffffffffffffffffffffff167f499d3f5837e61d77a364db177a5e0ba2d02b9a2316f1264fffa374d94a9a12b1600560089054906101000a900463ffffffff168386604051612eb293929190615285565b60405180910390a25050505050565b60016020528060005260406000206000915090508060000160009054906101000a900463ffffffff16908060020160009054906101000a900463ffffffff16908060020160049054906101000a900463ffffffff16908060020160089054906101000a900473ffffffffffffffffffffffffffffffffffffffff1690806003018054612f4c9061573e565b80601f0160208091040260200160405190810160405280929190818152602001828054612f789061573e565b8015612fc55780601f10612f9a57610100808354040283529160200191612fc5565b820191906000526020600020905b815481529060010190602001808311612fa857829003601f168201915b505050505090806004018054612fda9061573e565b80601f01602080910402602001604051908101604052809291908181526020018280546130069061573e565b80156130535780601f1061302857610100808354040283529160200191613053565b820191906000526020600020905b81548152906001019060200180831161303657829003601f168201915b5050505050905086565b6005600481819054906101000a900463ffffffff168092919061307f90615770565b91906101000a81548163ffffffff021916908363ffffffff160217905550506040518060c00160405280600560049054906101000a900463ffffffff1663ffffffff1681526020018463ffffffff1681526020018363ffffffff1681526020018273ffffffffffffffffffffffffffffffffffffffff16815260200160001515815260200160405180602001604052806000815250815250600080600560049054906101000a900463ffffffff1663ffffffff1663ffffffff16815260200190815260200160002060008201518160000160006101000a81548163ffffffff021916908363ffffffff16021790555060208201518160000160046101000a81548163ffffffff021916908363ffffffff16021790555060408201518160000160086101000a81548163ffffffff021916908363ffffffff160217905550606082015181600001600c6101000a81548173ffffffffffffffffffffffffffffffffffffffff021916908373ffffffffffffffffffffffffffffffffffffffff16021790555060808201518160010160006101000a81548160ff02191690831515021790555060a082015181600201908051906020019061323f9291906143a0565b50905050600560049054906101000a900463ffffffff1663ffffffff167f3d078b1c3921ddadb756791c1a070b903bcb0cd941a1df4de6eed059fb6e06db838560405161328d92919061525c565b60405180910390a2505050565b600660009054906101000a900473ffffffffffffffffffffffffffffffffffffffff1673ffffffffffffffffffffffffffffffffffffffff1663d1e47bb33360066040518363ffffffff1660e01b81526004016132f8929190614f65565b60206040518083038186803b15801561331057600080fd5b505afa158015613324573d6000803e3d6000fd5b505050506040513d601f19601f82011682018060405250810190613348919061467c565b613387576040517f08c379a000000000000000000000000000000000000000000000000000000000815260040161337e9061504f565b60405180910390fd5b600560009054906101000a900463ffffffff1663ffffffff168263ffffffff1611156133e8576040517f08c379a00000000000000000000000000000000000000000000000000000000081526004016133df9061500f565b60405180910390fd5b80600460008463ffffffff1663ffffffff16815260200190815260200160002060020160156101000a81548160ff0219169083151502179055505050565b600660009054906101000a900473ffffffffffffffffffffffffffffffffffffffff1673ffffffffffffffffffffffffffffffffffffffff1663d1e47bb33360056040518363ffffffff1660e01b8152600401613484929190614f65565b60206040518083038186803b15801561349c57600080fd5b505afa1580156134b0573d6000803e3d6000fd5b505050506040513d601f19601f820116820180604052508101906134d4919061467c565b613513576040517f08c379a000000000000000000000000000000000000000000000000000000000815260040161350a9061506f565b60405180910390fd5b600560009054906101000a900463ffffffff1663ffffffff168263ffffffff16111561353e57600080fd5b600460008363ffffffff1663ffffffff16815260200190815260200160002060020160169054906101000a900460ff161561357857600080fd5b6001600460008463ffffffff1663ffffffff16815260200190815260200160002060020160166101000a81548160ff02191690831515021790555060405180608001604052808363ffffffff16815260200182815260200142815260200160405180602001604052806000815250815250600260008463ffffffff1663ffffffff16815260200190815260200160002060008201518160000160006101000a81548163ffffffff021916908363ffffffff160217905550602082015181600101908051906020019061364b9291906143a0565b506040820151816002015560608201518160030190805190602001906136729291906143a0565b509050508163ffffffff167f85a6dd7e3bffc328a15679316ce7c104a56122ec56d15beab290adac6fceda1882426040516136ae929190614fdf565b60405180910390a25050565b600660009054906101000a900473ffffffffffffffffffffffffffffffffffffffff1673ffffffffffffffffffffffffffffffffffffffff1663d1e47bb33360066040518363ffffffff1660e01b8152600401613718929190614f65565b60206040518083038186803b15801561373057600080fd5b505afa158015613744573d6000803e3d6000fd5b505050506040513d601f19601f82011682018060405250810190613768919061467c565b6137a7576040517f08c379a000000000000000000000000000000000000000000000000000000000815260040161379e9061504f565b60405180910390fd5b600060016000600460008763ffffffff1663ffffffff16815260200190815260200160002060000160049054906101000a900463ffffffff1663ffffffff1663ffffffff1681526020019081526020016000206040518060e00160405290816000820160009054906101000a900463ffffffff1663ffffffff1663ffffffff168152602001600182018054806020026020016040519081016040528092919081815260200182805480156138a657602002820191906000526020600020906000905b82829054906101000a900463ffffffff1663ffffffff16815260200190600401906020826003010492830192600103820291508084116138695790505b505050505081526020016002820160009054906101000a900463ffffffff1663ffffffff1663ffffffff1681526020016002820160049054906101000a900463ffffffff1663ffffffff1663ffffffff1681526020016002820160089054906101000a900473ffffffffffffffffffffffffffffffffffffffff1673ffffffffffffffffffffffffffffffffffffffff1673ffffffffffffffffffffffffffffffffffffffff1681526020016003820180546139619061573e565b80601f016020809104026020016040519081016040528092919081815260200182805461398d9061573e565b80156139da5780601f106139af576101008083540402835291602001916139da565b820191906000526020600020905b8154815290600101906020018083116139bd57829003601f168201915b505050505081526020016004820180546139f39061573e565b80601f0160208091040260200160405190810160405280929190818152602001828054613a1f9061573e565b8015613a6c5780601f10613a4157610100808354040283529160200191613a6c565b820191906000526020600020905b815481529060010190602001808311613a4f57829003601f168201915b5050505050815250509050600460008563ffffffff1663ffffffff168152602001908152602001600020600001600c9054906101000a900463ffffffff1663ffffffff168363ffffffff1614613ac157600080fd5b600460008563ffffffff1663ffffffff16815260200190815260200160002060000160109054906101000a900460ff1615613afb57600080fd5b60016002811115613b35577f4e487b7100000000000000000000000000000000000000000000000000000000600052602160045260246000fd5b600460008663ffffffff1663ffffffff16815260200190815260200160002060020160149054906101000a900460ff166002811115613b9d577f4e487b7100000000000000000000000000000000000000000000000000000000600052602160045260246000fd5b14613ba757600080fd5b6001600460008663ffffffff1663ffffffff16815260200190815260200160002060000160106101000a81548160ff0219169083151502179055506040518060e001604052808563ffffffff1681526020013373ffffffffffffffffffffffffffffffffffffffff168152602001600460008763ffffffff1663ffffffff16815260200190815260200160002060010160009054906101000a900473ffffffffffffffffffffffffffffffffffffffff1673ffffffffffffffffffffffffffffffffffffffff1681526020018463ffffffff168152602001836002811115613cb8577f4e487b7100000000000000000000000000000000000000000000000000000000600052602160045260246000fd5b815260200142815260200160405180602001604052806000815250815250600360008663ffffffff1663ffffffff16815260200190815260200160002060008201518160000160006101000a81548163ffffffff021916908363ffffffff16021790555060208201518160000160046101000a81548173ffffffffffffffffffffffffffffffffffffffff021916908373ffffffffffffffffffffffffffffffffffffffff16021790555060408201518160010160006101000a81548173ffffffffffffffffffffffffffffffffffffffff021916908373ffffffffffffffffffffffffffffffffffffffff16021790555060608201518160010160146101000a81548163ffffffff021916908363ffffffff16021790555060808201518160010160186101000a81548160ff02191690836002811115613e22577f4e487b7100000000000000000000000000000000000000000000000000000000600052602160045260246000fd5b021790555060a0820151816002015560c0820151816003019080519060200190613e4d9291906143a0565b50905050806000015163ffffffff167fd9f037670aada9b07156110dd936887c158e5cd6f7932663cc64ef336e44cf9f85338686604051613e9194939291906151c4565b60405180910390a250505050565b600560049054906101000a900463ffffffff1681565b60026020528060005260406000206000915090508060000160009054906101000a900463ffffffff1690806001018054613eee9061573e565b80601f0160208091040260200160405190810160405280929190818152602001828054613f1a9061573e565b8015613f675780601f10613f3c57610100808354040283529160200191613f67565b820191906000526020600020905b815481529060010190602001808311613f4a57829003601f168201915b505050505090806002015490806003018054613f829061573e565b80601f0160208091040260200160405190810160405280929190818152602001828054613fae9061573e565b8015613ffb5780601f10613fd057610100808354040283529160200191613ffb565b820191906000526020600020905b815481529060010190602001808311613fde57829003601f168201915b5050505050905084565b6000600560009054906101000a900463ffffffff16905090565b6040518060e00160405280600063ffffffff168152602001600073ffffffffffffffffffffffffffffffffffffffff168152602001600073ffffffffffffffffffffffffffffffffffffffff168152602001600063ffffffff168152602001600060028111156140b8577f4e487b7100000000000000000000000000000000000000000000000000000000600052602160045260246000fd5b815260200160008152602001606081525090565b6040518060c00160405280600063ffffffff168152602001600063ffffffff168152602001600063ffffffff168152602001600073ffffffffffffffffffffffffffffffffffffffff168152602001600015158152602001606081525090565b6040518060800160405280600063ffffffff1681526020016060815260200160008152602001606081525090565b6040518060e00160405280600063ffffffff16815260200160608152602001600063ffffffff168152602001600063ffffffff168152602001600073ffffffffffffffffffffffffffffffffffffffff16815260200160608152602001606081525090565b604051806101800160405280600063ffffffff168152602001600063ffffffff168152602001600063ffffffff168152602001600063ffffffff16815260200160001515815260200160006001811115614242577f4e487b7100000000000000000000000000000000000000000000000000000000600052602160045260246000fd5b8152602001600073ffffffffffffffffffffffffffffffffffffffff168152602001600073ffffffffffffffffffffffffffffffffffffffff168152602001600060028111156142bb577f4e487b7100000000000000000000000000000000000000000000000000000000600052602160045260246000fd5b8152602001600015158152602001600015158152602001600073ffffffffffffffffffffffffffffffffffffffff1681525090565b8280548282559060005260206000209060070160089004810192821561438f5791602002820160005b8382111561435d57835183826101000a81548163ffffffff021916908363ffffffff1602179055509260200192600401602081600301049283019260010302614319565b801561438d5782816101000a81549063ffffffff021916905560040160208160030104928301926001030261435d565b505b50905061439c9190614426565b5090565b8280546143ac9061573e565b90600052602060002090601f0160209004810192826143ce5760008555614415565b82601f106143e757805160ff1916838001178555614415565b82800160010185558215614415579182015b828111156144145782518255916020019190600101906143f9565b5b5090506144229190614426565b5090565b5b8082111561443f576000816000905550600101614427565b5090565b60006144566144518461547e565b61544d565b9050808382526020820190508285602086028201111561447557600080fd5b60005b858110156144a5578161448b88826145bf565b845260208401935060208301925050600181019050614478565b5050509392505050565b60006144c26144bd846154aa565b61544d565b9050828152602081018484840111156144da57600080fd5b6144e58482856156fc565b509392505050565b6000813590506144fc816158ba565b92915050565b600082601f83011261451357600080fd5b8135614523848260208601614443565b91505092915050565b60008135905061453b816158d1565b92915050565b600081519050614550816158d1565b92915050565b600081359050614565816158e8565b92915050565b60008135905061457a816158f8565b92915050565b60008135905061458f81615908565b92915050565b600082601f8301126145a657600080fd5b81356145b68482602086016144af565b91505092915050565b6000813590506145ce81615918565b92915050565b6000602082840312156145e657600080fd5b60006145f4848285016144ed565b91505092915050565b60008060006060848603121561461257600080fd5b600084013567ffffffffffffffff81111561462c57600080fd5b61463886828701614502565b935050602084013567ffffffffffffffff81111561465557600080fd5b61466186828701614595565b9250506040614672868287016145bf565b9150509250925092565b60006020828403121561468e57600080fd5b600061469c84828501614541565b91505092915050565b6000602082840312156146b757600080fd5b60006146c5848285016145bf565b91505092915050565b600080604083850312156146e157600080fd5b60006146ef858286016145bf565b9250506020614700858286016144ed565b9150509250929050565b6000806040838503121561471d57600080fd5b600061472b858286016145bf565b925050602061473c8582860161452c565b9150509250929050565b6000806040838503121561475957600080fd5b6000614767858286016145bf565b92505060206147788582860161456b565b9150509250929050565b6000806040838503121561479557600080fd5b60006147a3858286016145bf565b92505060206147b485828601614580565b9150509250929050565b600080604083850312156147d157600080fd5b60006147df858286016145bf565b925050602083013567ffffffffffffffff8111156147fc57600080fd5b61480885828601614595565b9150509250929050565b6000806040838503121561482557600080fd5b6000614833858286016145bf565b9250506020614844858286016145bf565b9150509250929050565b60008060006060848603121561486357600080fd5b6000614871868287016145bf565b9350506020614882868287016145bf565b9250506040614893868287016144ed565b9150509250925092565b6000806000606084860312156148b257600080fd5b60006148c0868287016145bf565b93505060206148d1868287016145bf565b92505060406148e286828701614556565b9150509250925092565b60006148f88383614f47565b60208301905092915050565b61490d816155ec565b82525050565b61491c816155ec565b82525050565b600061492d826154ea565b614937818561550d565b9350614942836154da565b8060005b8381101561497357815161495a88826148ec565b975061496583615500565b925050600181019050614946565b5085935050505092915050565b614989816155fe565b82525050565b614998816155fe565b82525050565b6149a781615690565b82525050565b6149b6816156b4565b82525050565b6149c5816156b4565b82525050565b6149d4816156c6565b82525050565b6149e3816156d8565b82525050565b6149f2816156d8565b82525050565b614a01816156ea565b82525050565b614a10816156ea565b82525050565b6000614a21826154f5565b614a2b818561551e565b9350614a3b81856020860161570b565b614a4481615859565b840191505092915050565b6000614a5a826154f5565b614a64818561552f565b9350614a7481856020860161570b565b614a7d81615859565b840191505092915050565b6000614a9560198361552f565b91507f4c6120636f6d6d616e6465206e27657869737465207061732e000000000000006000830152602082019050919050565b6000614ad560228361552f565b91507f4e6f6e206175746f726973653a207365756c656d656e7420436f6c6c6563746560008301527f75720000000000000000000000000000000000000000000000000000000000006020830152604082019050919050565b6000614b3b60238361552f565b91507f4e6f6e206175746f726973653a207365756c656d656e74204578706f7274617460008301527f65757200000000000000000000000000000000000000000000000000000000006020830152604082019050919050565b6000614ba160248361552f565b91507f4e6f6e206175746f726973653a207365756c656d656e74205472616e73706f7260008301527f74657572000000000000000000000000000000000000000000000000000000006020830152604082019050919050565b61018082016000820151614c116000850182614f47565b506020820151614c246020850182614f47565b506040820151614c376040850182614f47565b506060820151614c4a6060850182614f47565b506080820151614c5d6080850182614980565b5060a0820151614c7060a08501826149f8565b5060c0820151614c8360c0850182614904565b5060e0820151614c9660e0850182614904565b50610100820151614cab6101008501826149da565b50610120820151614cc0610120850182614980565b50610140820151614cd5610140850182614980565b50610160820151614cea610160850182614904565b50505050565b6000608083016000830151614d086000860182614f47565b5060208301518482036020860152614d208282614a16565b9150506040830151614d356040860182614f29565b5060608301518482036060860152614d4d8282614a16565b9150508091505092915050565b600060e083016000830151614d726000860182614f47565b5060208301518482036020860152614d8a8282614922565b9150506040830151614d9f6040860182614f47565b506060830151614db26060860182614f47565b506080830151614dc56080860182614904565b5060a083015184820360a0860152614ddd8282614a16565b91505060c083015184820360c0860152614df78282614a16565b9150508091505092915050565b600060e083016000830151614e1c6000860182614f47565b506020830151614e2f6020860182614904565b506040830151614e426040860182614904565b506060830151614e556060860182614f47565b506080830151614e6860808601826149ad565b5060a0830151614e7b60a0860182614f29565b5060c083015184820360c0860152614e938282614a16565b9150508091505092915050565b600060c083016000830151614eb86000860182614f47565b506020830151614ecb6020860182614f47565b506040830151614ede6040860182614f47565b506060830151614ef16060860182614904565b506080830151614f046080860182614980565b5060a083015184820360a0860152614f1c8282614a16565b9150508091505092915050565b614f3281615676565b82525050565b614f4181615676565b82525050565b614f5081615680565b82525050565b614f5f81615680565b82525050565b6000604082019050614f7a6000830185614913565b614f8760208301846149cb565b9392505050565b6000602082019050614fa3600083018461499e565b92915050565b6000602082019050614fbe60008301846149e9565b92915050565b6000602082019050614fd96000830184614a07565b92915050565b60006040820190508181036000830152614ff98185614a4f565b90506150086020830184614f38565b9392505050565b6000602082019050818103600083015261502881614a88565b9050919050565b6000602082019050818103600083015261504881614ac8565b9050919050565b6000602082019050818103600083015261506881614b2e565b9050919050565b6000602082019050818103600083015261508881614b94565b9050919050565b6000610180820190506150a56000830184614bfa565b92915050565b600060208201905081810360008301526150c58184614cf0565b905092915050565b600060208201905081810360008301526150e78184614d5a565b905092915050565b600060208201905081810360008301526151098184614e04565b905092915050565b6000602082019050818103600083015261512b8184614ea0565b905092915050565b60006020820190506151486000830184614f56565b92915050565b600060e082019050615163600083018a614f56565b6151706020830189614913565b61517d6040830188614913565b61518a6060830187614f56565b61519760808301866149bc565b6151a460a0830185614f38565b81810360c08301526151b68184614a4f565b905098975050505050505050565b60006080820190506151d96000830187614f56565b6151e66020830186614913565b6151f36040830185614f56565b61520060608301846149bc565b95945050505050565b600060808201905061521e6000830187614f56565b81810360208301526152308186614a4f565b905061523f6040830185614f38565b81810360608301526152518184614a4f565b905095945050505050565b60006040820190506152716000830185614f56565b61527e6020830184614f56565b9392505050565b600060608201905061529a6000830186614f56565b6152a76020830185614f56565b6152b46040830184614f56565b949350505050565b600060c0820190506152d16000830189614f56565b6152de6020830188614f56565b6152eb6040830187614f56565b6152f86060830186614913565b615305608083018561498f565b81810360a08301526153178184614a4f565b9050979650505050505050565b600060c0820190506153396000830189614f56565b6153466020830188614f56565b6153536040830187614f56565b6153606060830186614913565b81810360808301526153728185614a4f565b905081810360a08301526153868184614a4f565b9050979650505050505050565b6000610180820190506153a9600083018f614f56565b6153b6602083018e614f56565b6153c3604083018d614f56565b6153d0606083018c614f56565b6153dd608083018b61498f565b6153ea60a083018a614a07565b6153f760c0830189614913565b61540460e0830188614913565b6154126101008301876149e9565b61542061012083018661498f565b61542e61014083018561498f565b61543c610160830184614913565b9d9c50505050505050505050505050565b6000604051905081810181811067ffffffffffffffff821117156154745761547361582a565b5b8060405250919050565b600067ffffffffffffffff8211156154995761549861582a565b5b602082029050602081019050919050565b600067ffffffffffffffff8211156154c5576154c461582a565b5b601f19601f8301169050602081019050919050565b6000819050602082019050919050565b600081519050919050565b600081519050919050565b6000602082019050919050565b600082825260208201905092915050565b600082825260208201905092915050565b600082825260208201905092915050565b600061554b82615680565b915061555683615680565b92508263ffffffff0382111561556f5761556e61579d565b5b828201905092915050565b600061558582615680565b915061559083615680565b92508163ffffffff04831182151516156155ad576155ac61579d565b5b828202905092915050565b60006155c382615680565b91506155ce83615680565b9250828210156155e1576155e061579d565b5b828203905092915050565b60006155f782615656565b9050919050565b60008115159050919050565b60008190506156188261586a565b919050565b600081905061562b8261587e565b919050565b600081905061563e82615892565b919050565b6000819050615651826158a6565b919050565b600073ffffffffffffffffffffffffffffffffffffffff82169050919050565b6000819050919050565b600063ffffffff82169050919050565b600061569b826156a2565b9050919050565b60006156ad82615656565b9050919050565b60006156bf8261560a565b9050919050565b60006156d18261561d565b9050919050565b60006156e382615630565b9050919050565b60006156f582615643565b9050919050565b82818337600083830152505050565b60005b8381101561572957808201518184015260208101905061570e565b83811115615738576000848401525b50505050565b6000600282049050600182168061575657607f821691505b6020821081141561576a576157696157fb565b5b50919050565b600061577b82615680565b915063ffffffff8214156157925761579161579d565b5b600182019050919050565b7f4e487b7100000000000000000000000000000000000000000000000000000000600052601160045260246000fd5b7f4e487b7100000000000000000000000000000000000000000000000000000000600052602160045260246000fd5b7f4e487b7100000000000000000000000000000000000000000000000000000000600052602260045260246000fd5b7f4e487b7100000000000000000000000000000000000000000000000000000000600052604160045260246000fd5b6000601f19601f8301169050919050565b6003811061587b5761587a6157cc565b5b50565b6008811061588f5761588e6157cc565b5b50565b600381106158a3576158a26157cc565b5b50565b600281106158b7576158b66157cc565b5b50565b6158c3816155ec565b81146158ce57600080fd5b50565b6158da816155fe565b81146158e557600080fd5b50565b600381106158f557600080fd5b50565b6003811061590557600080fd5b50565b6002811061591557600080fd5b50565b61592181615680565b811461592c57600080fd5b5056fea2646970667358221220361b2eaef6a799f3f5ff09f078e31d0e04e96e76e4bfe84a18f293ebe7b160b064736f6c63430008000033",
  "linkReferences": {},
  "deployedLinkReferences": {}
}