{
  "_format": "hh-sol-artifact-1",
  "contractName": "CollecteurExportateur",
  "sourceName": "contracts/CollecteurExportateur.sol",
  "abi": [
    {
      "inputs": [
        {
          "internalType": "address",
          "name": "_gestionnaireActeurs",
          "type": "address"
        }
      ],
      "stateMutability": "nonpayable",
      "type": "constructor"
    },
    {
      "anonymous": false,
      "inputs": [
        {
          "indexed": true,
          "internalType": "address",
          "name": "exportateur",
          "type": "address"
        },
        {
          "indexed": false,
          "internalType": "uint32",
          "name": "idProduit",
          "type": "uint32"
        }
      ],
      "name": "CommandePasser",
      "type": "event"
    },
    {
      "anonymous": false,
      "inputs": [
        {
          "indexed": true,
          "internalType": "uint32",
          "name": "idProduit",
          "type": "uint32"
        },
        {
          "indexed": false,
          "internalType": "uint32",
          "name": "idCondition",
          "type": "uint32"
        },
        {
          "indexed": false,
          "internalType": "string",
          "name": "temperature",
          "type": "string"
        },
        {
          "indexed": false,
          "internalType": "string",
          "name": "humidite",
          "type": "string"
        },
        {
          "indexed": false,
          "internalType": "uint256",
          "name": "timestamp",
          "type": "uint256"
        }
      ],
      "name": "ConditionEnregistree",
      "type": "event"
    },
    {
      "anonymous": false,
      "inputs": [
        {
          "indexed": true,
          "internalType": "uint32",
          "name": "idProduit",
          "type": "uint32"
        },
        {
          "indexed": false,
          "internalType": "uint32",
          "name": "idPaiement",
          "type": "uint32"
        },
        {
          "indexed": false,
          "internalType": "address",
          "name": "payeur",
          "type": "address"
        },
        {
          "indexed": false,
          "internalType": "uint32",
          "name": "montant",
          "type": "uint32"
        },
        {
          "indexed": false,
          "internalType": "enum StructLib.ModePaiement",
          "name": "mode",
          "type": "uint8"
        }
      ],
      "name": "PaiementEffectue",
      "type": "event"
    },
    {
      "anonymous": false,
      "inputs": [
        {
          "indexed": true,
          "internalType": "uint32",
          "name": "idProduit",
          "type": "uint32"
        },
        {
          "indexed": false,
          "internalType": "string",
          "name": "nom",
          "type": "string"
        },
        {
          "indexed": false,
          "internalType": "uint32",
          "name": "quantite",
          "type": "uint32"
        },
        {
          "indexed": false,
          "internalType": "uint32",
          "name": "prix",
          "type": "uint32"
        },
        {
          "indexed": false,
          "internalType": "uint32",
          "name": "idRecolte",
          "type": "uint32"
        },
        {
          "indexed": false,
          "internalType": "string",
          "name": "dateRecolte",
          "type": "string"
        },
        {
          "indexed": false,
          "internalType": "string",
          "name": "certificatPhytosanitaire",
          "type": "string"
        }
      ],
      "name": "ProduitAjoute",
      "type": "event"
    },
    {
      "anonymous": false,
      "inputs": [
        {
          "indexed": true,
          "internalType": "uint32",
          "name": "idProduit",
          "type": "uint32"
        },
        {
          "indexed": false,
          "internalType": "bool",
          "name": "valide",
          "type": "bool"
        }
      ],
      "name": "ProduitValide",
      "type": "event"
    },
    {
      "anonymous": false,
      "inputs": [
        {
          "indexed": true,
          "internalType": "uint32",
          "name": "idProduit",
          "type": "uint32"
        },
        {
          "indexed": false,
          "internalType": "enum StructLib.StatutTransport",
          "name": "statut",
          "type": "uint8"
        }
      ],
      "name": "StatutTransportMisAJour",
      "type": "event"
    },
    {
      "stateMutability": "payable",
      "type": "fallback"
    },
    {
      "inputs": [
        {
          "internalType": "uint32",
          "name": "_idRecolte",
          "type": "uint32"
        },
        {
          "internalType": "uint32",
          "name": "_quantite",
          "type": "uint32"
        },
        {
          "internalType": "uint32",
          "name": "_prix",
          "type": "uint32"
        },
        {
          "internalType": "address",
          "name": "_collecteur",
          "type": "address"
        },
        {
          "internalType": "string",
          "name": "_nomProduit",
          "type": "string"
        },
        {
          "internalType": "string",
          "name": "_dateRecolte",
          "type": "string"
        },
        {
          "internalType": "string",
          "name": "_certificatPhytosanitaire",
          "type": "string"
        }
      ],
      "name": "ajouterProduit",
      "outputs": [],
      "stateMutability": "nonpayable",
      "type": "function"
    },
    {
      "inputs": [
        {
          "internalType": "uint32",
          "name": "",
          "type": "uint32"
        }
      ],
      "name": "commandes",
      "outputs": [
        {
          "internalType": "uint32",
          "name": "id",
          "type": "uint32"
        },
        {
          "internalType": "uint32",
          "name": "idProduit",
          "type": "uint32"
        },
        {
          "internalType": "uint32",
          "name": "quantite",
          "type": "uint32"
        },
        {
          "internalType": "uint32",
          "name": "prix",
          "type": "uint32"
        },
        {
          "internalType": "bool",
          "name": "payer",
          "type": "bool"
        },
        {
          "internalType": "enum StructLib.StatutTransport",
          "name": "statutTransport",
          "type": "uint8"
        },
        {
          "internalType": "address",
          "name": "collecteur",
          "type": "address"
        },
        {
          "internalType": "address",
          "name": "exportateur",
          "type": "address"
        }
      ],
      "stateMutability": "view",
      "type": "function"
    },
    {
      "inputs": [],
      "name": "compteurCommandes",
      "outputs": [
        {
          "internalType": "uint32",
          "name": "",
          "type": "uint32"
        }
      ],
      "stateMutability": "view",
      "type": "function"
    },
    {
      "inputs": [],
      "name": "compteurConditions",
      "outputs": [
        {
          "internalType": "uint32",
          "name": "",
          "type": "uint32"
        }
      ],
      "stateMutability": "view",
      "type": "function"
    },
    {
      "inputs": [],
      "name": "compteurPaiements",
      "outputs": [
        {
          "internalType": "uint32",
          "name": "",
          "type": "uint32"
        }
      ],
      "stateMutability": "view",
      "type": "function"
    },
    {
      "inputs": [],
      "name": "compteurProduits",
      "outputs": [
        {
          "internalType": "uint32",
          "name": "",
          "type": "uint32"
        }
      ],
      "stateMutability": "view",
      "type": "function"
    },
    {
      "inputs": [
        {
          "internalType": "uint32",
          "name": "",
          "type": "uint32"
        }
      ],
      "name": "conditions",
      "outputs": [
        {
          "internalType": "uint32",
          "name": "id",
          "type": "uint32"
        },
        {
          "internalType": "string",
          "name": "temperature",
          "type": "string"
        },
        {
          "internalType": "string",
          "name": "humidite",
          "type": "string"
        },
        {
          "internalType": "uint256",
          "name": "timestamp",
          "type": "uint256"
        }
      ],
      "stateMutability": "view",
      "type": "function"
    },
    {
      "inputs": [
        {
          "internalType": "uint32",
          "name": "_idCommande",
          "type": "uint32"
        },
        {
          "internalType": "uint32",
          "name": "_montant",
          "type": "uint32"
        },
        {
          "internalType": "enum StructLib.ModePaiement",
          "name": "_mode",
          "type": "uint8"
        }
      ],
      "name": "effectuerPaiement",
      "outputs": [],
      "stateMutability": "payable",
      "type": "function"
    },
    {
      "inputs": [
        {
          "internalType": "uint32",
          "name": "_idCommande",
          "type": "uint32"
        },
        {
          "internalType": "string",
          "name": "_temperature",
          "type": "string"
        },
        {
          "internalType": "string",
          "name": "_humidite",
          "type": "string"
        }
      ],
      "name": "enregistrerCondition",
      "outputs": [],
      "stateMutability": "nonpayable",
      "type": "function"
    },
    {
      "inputs": [],
      "name": "gestionnaireActeurs",
      "outputs": [
        {
          "internalType": "contract GestionnaireActeurs",
          "name": "",
          "type": "address"
        }
      ],
      "stateMutability": "view",
      "type": "function"
    },
    {
      "inputs": [
        {
          "internalType": "uint32",
          "name": "id",
          "type": "uint32"
        }
      ],
      "name": "getCommande",
      "outputs": [
        {
          "components": [
            {
              "internalType": "uint32",
              "name": "id",
              "type": "uint32"
            },
            {
              "internalType": "uint32",
              "name": "idProduit",
              "type": "uint32"
            },
            {
              "internalType": "uint32",
              "name": "quantite",
              "type": "uint32"
            },
            {
              "internalType": "uint32",
              "name": "prix",
              "type": "uint32"
            },
            {
              "internalType": "bool",
              "name": "payer",
              "type": "bool"
            },
            {
              "internalType": "enum StructLib.StatutTransport",
              "name": "statutTransport",
              "type": "uint8"
            },
            {
              "internalType": "address",
              "name": "collecteur",
              "type": "address"
            },
            {
              "internalType": "address",
              "name": "exportateur",
              "type": "address"
            }
          ],
          "internalType": "struct StructLib.CommandeProduit",
          "name": "",
          "type": "tuple"
        }
      ],
      "stateMutability": "view",
      "type": "function"
    },
    {
      "inputs": [],
      "name": "getCompteurCommande",
      "outputs": [
        {
          "internalType": "uint32",
          "name": "",
          "type": "uint32"
        }
      ],
      "stateMutability": "view",
      "type": "function"
    },
    {
      "inputs": [],
      "name": "getCompteurCondition",
      "outputs": [
        {
          "internalType": "uint32",
          "name": "",
          "type": "uint32"
        }
      ],
      "stateMutability": "view",
      "type": "function"
    },
    {
      "inputs": [],
      "name": "getCompteurPaiement",
      "outputs": [
        {
          "internalType": "uint32",
          "name": "",
          "type": "uint32"
        }
      ],
      "stateMutability": "view",
      "type": "function"
    },
    {
      "inputs": [],
      "name": "getCompteurProduit",
      "outputs": [
        {
          "internalType": "uint32",
          "name": "",
          "type": "uint32"
        }
      ],
      "stateMutability": "view",
      "type": "function"
    },
    {
      "inputs": [
        {
          "internalType": "uint32",
          "name": "id",
          "type": "uint32"
        }
      ],
      "name": "getCondition",
      "outputs": [
        {
          "components": [
            {
              "internalType": "uint32",
              "name": "id",
              "type": "uint32"
            },
            {
              "internalType": "string",
              "name": "temperature",
              "type": "string"
            },
            {
              "internalType": "string",
              "name": "humidite",
              "type": "string"
            },
            {
              "internalType": "uint256",
              "name": "timestamp",
              "type": "uint256"
            }
          ],
          "internalType": "struct StructLib.EnregistrementCondition",
          "name": "",
          "type": "tuple"
        }
      ],
      "stateMutability": "view",
      "type": "function"
    },
    {
      "inputs": [
        {
          "internalType": "uint32",
          "name": "id",
          "type": "uint32"
        }
      ],
      "name": "getPaiement",
      "outputs": [
        {
          "components": [
            {
              "internalType": "uint32",
              "name": "id",
              "type": "uint32"
            },
            {
              "internalType": "address",
              "name": "payeur",
              "type": "address"
            },
            {
              "internalType": "address",
              "name": "vendeur",
              "type": "address"
            },
            {
              "internalType": "uint32",
              "name": "montant",
              "type": "uint32"
            },
            {
              "internalType": "enum StructLib.ModePaiement",
              "name": "mode",
              "type": "uint8"
            },
            {
              "internalType": "uint256",
              "name": "timestamp",
              "type": "uint256"
            }
          ],
          "internalType": "struct StructLib.Paiement",
          "name": "",
          "type": "tuple"
        }
      ],
      "stateMutability": "view",
      "type": "function"
    },
    {
      "inputs": [
        {
          "internalType": "uint32",
          "name": "id",
          "type": "uint32"
        }
      ],
      "name": "getProduit",
      "outputs": [
        {
          "components": [
            {
              "internalType": "uint32",
              "name": "id",
              "type": "uint32"
            },
            {
              "internalType": "uint32",
              "name": "idRecolte",
              "type": "uint32"
            },
            {
              "internalType": "string",
              "name": "nom",
              "type": "string"
            },
            {
              "internalType": "uint32",
              "name": "quantite",
              "type": "uint32"
            },
            {
              "internalType": "uint32",
              "name": "prixUnit",
              "type": "uint32"
            },
            {
              "internalType": "enum StructLib.StatutProduit",
              "name": "statut",
              "type": "uint8"
            },
            {
              "internalType": "string",
              "name": "dateRecolte",
              "type": "string"
            },
            {
              "internalType": "string",
              "name": "certificatPhytosanitaire",
              "type": "string"
            },
            {
              "internalType": "address",
              "name": "collecteur",
              "type": "address"
            }
          ],
          "internalType": "struct StructLib.Produit",
          "name": "",
          "type": "tuple"
        }
      ],
      "stateMutability": "view",
      "type": "function"
    },
    {
      "inputs": [
        {
          "internalType": "uint32",
          "name": "_idCommande",
          "type": "uint32"
        },
        {
          "internalType": "enum StructLib.StatutTransport",
          "name": "_statut",
          "type": "uint8"
        }
      ],
      "name": "mettreAJourStatutTransport",
      "outputs": [],
      "stateMutability": "nonpayable",
      "type": "function"
    },
    {
      "inputs": [
        {
          "internalType": "uint32",
          "name": "",
          "type": "uint32"
        }
      ],
      "name": "paiements",
      "outputs": [
        {
          "internalType": "uint32",
          "name": "id",
          "type": "uint32"
        },
        {
          "internalType": "address",
          "name": "payeur",
          "type": "address"
        },
        {
          "internalType": "address",
          "name": "vendeur",
          "type": "address"
        },
        {
          "internalType": "uint32",
          "name": "montant",
          "type": "uint32"
        },
        {
          "internalType": "enum StructLib.ModePaiement",
          "name": "mode",
          "type": "uint8"
        },
        {
          "internalType": "uint256",
          "name": "timestamp",
          "type": "uint256"
        }
      ],
      "stateMutability": "view",
      "type": "function"
    },
    {
      "inputs": [
        {
          "internalType": "uint32",
          "name": "idProduit",
          "type": "uint32"
        },
        {
          "internalType": "uint32",
          "name": "_quantite",
          "type": "uint32"
        }
      ],
      "name": "passerCommande",
      "outputs": [],
      "stateMutability": "nonpayable",
      "type": "function"
    },
    {
      "inputs": [
        {
          "internalType": "uint32",
          "name": "",
          "type": "uint32"
        }
      ],
      "name": "produits",
      "outputs": [
        {
          "internalType": "uint32",
          "name": "id",
          "type": "uint32"
        },
        {
          "internalType": "uint32",
          "name": "idRecolte",
          "type": "uint32"
        },
        {
          "internalType": "string",
          "name": "nom",
          "type": "string"
        },
        {
          "internalType": "uint32",
          "name": "quantite",
          "type": "uint32"
        },
        {
          "internalType": "uint32",
          "name": "prixUnit",
          "type": "uint32"
        },
        {
          "internalType": "enum StructLib.StatutProduit",
          "name": "statut",
          "type": "uint8"
        },
        {
          "internalType": "string",
          "name": "dateRecolte",
          "type": "string"
        },
        {
          "internalType": "string",
          "name": "certificatPhytosanitaire",
          "type": "string"
        },
        {
          "internalType": "address",
          "name": "collecteur",
          "type": "address"
        }
      ],
      "stateMutability": "view",
      "type": "function"
    },
    {
      "inputs": [
        {
          "internalType": "address",
          "name": "_addr",
          "type": "address"
        }
      ],
      "name": "setGestionnaireActeurs",
      "outputs": [],
      "stateMutability": "nonpayable",
      "type": "function"
    },
    {
      "inputs": [
        {
          "internalType": "uint32",
          "name": "_idProduit",
          "type": "uint32"
        },
        {
          "internalType": "uint32",
          "name": "_prix",
          "type": "uint32"
        }
      ],
      "name": "setPriceProduit",
      "outputs": [],
      "stateMutability": "nonpayable",
      "type": "function"
    },
    {
      "inputs": [
        {
          "internalType": "uint32",
          "name": "_idProduit",
          "type": "uint32"
        },
        {
          "internalType": "bool",
          "name": "_valide",
          "type": "bool"
        }
      ],
      "name": "validerProduit",
      "outputs": [],
      "stateMutability": "nonpayable",
      "type": "function"
    },
    {
      "stateMutability": "payable",
      "type": "receive"
    }
  ],
  "bytecode": "0x60806040523480156200001157600080fd5b506040516200494a3803806200494a833981810160405281019062000037919062000096565b80600560006101000a81548173ffffffffffffffffffffffffffffffffffffffff021916908373ffffffffffffffffffffffffffffffffffffffff1602179055505062000110565b6000815190506200009081620000f6565b92915050565b600060208284031215620000a957600080fd5b6000620000b9848285016200007f565b91505092915050565b6000620000cf82620000d6565b9050919050565b600073ffffffffffffffffffffffffffffffffffffffff82169050919050565b6200010181620000c2565b81146200010d57600080fd5b50565b61482a80620001206000396000f3fe60806040526004361061016a5760003560e01c80636f3fd6c5116100d15780639e942cd41161008a578063e6cab64c11610064578063e6cab64c1461057e578063edd131631461059a578063f6980cc9146105c5578063fdccf4331461060557610171565b80639e942cd4146104ff578063c47744ff1461052a578063cd3df1ed1461055357610171565b80636f3fd6c5146103d15780637babcffa146104155780638777654f146104575780638a16156e1461048257806393c2f9b4146104ab5780639aed4540146104d657610171565b806341fae4db1161012357806341fae4db146102935780634851ca82146102d0578063488dee20146103155780634dafb501146103405780635293ea5114610369578063687112e2146103a657610171565b806301197018146101735780630b215e641461019e57806315a3374c146101db578063243ae82c14610204578063369064b91461022d5780633e7a60491461026a57610171565b3661017157005b005b34801561017f57600080fd5b50610188610630565b604051610195919061418d565b60405180910390f35b3480156101aa57600080fd5b506101c560048036038101906101c0919061357d565b610648565b6040516101d29190614150565b60405180910390f35b3480156101e757600080fd5b5061020260048036038101906101fd919061369d565b61080a565b005b34801561021057600080fd5b5061022b600480360381019061022691906135a6565b6109ea565b005b34801561023957600080fd5b50610254600480360381019061024f919061357d565b610ce6565b604051610261919061416b565b60405180910390f35b34801561027657600080fd5b50610291600480360381019061028c919061352b565b61104a565b005b34801561029f57600080fd5b506102ba60048036038101906102b5919061357d565b61108e565b6040516102c7919061412e565b60405180910390f35b3480156102dc57600080fd5b506102f760048036038101906102f2919061357d565b61121b565b60405161030c999897969594939291906142a1565b60405180910390f35b34801561032157600080fd5b5061032a61146e565b604051610337919061418d565b60405180910390f35b34801561034c57600080fd5b506103676004803603810190610362919061369d565b611484565b005b34801561037557600080fd5b50610390600480360381019061038b919061357d565b611a29565b60405161039d9190614112565b60405180910390f35b3480156103b257600080fd5b506103bb611c49565b6040516103c8919061418d565b60405180910390f35b3480156103dd57600080fd5b506103f860048036038101906103f3919061357d565b611c5f565b60405161040c989796959493929190614343565b60405180910390f35b34801561042157600080fd5b5061043c6004803603810190610437919061357d565b611d41565b60405161044e969594939291906141a8565b60405180910390f35b34801561046357600080fd5b5061046c611dea565b604051610479919061418d565b60405180910390f35b34801561048e57600080fd5b506104a960048036038101906104a491906135e2565b611e04565b005b3480156104b757600080fd5b506104c0612004565b6040516104cd919061418d565b60405180910390f35b3480156104e257600080fd5b506104fd60048036038101906104f89190613728565b61201e565b005b34801561050b57600080fd5b50610514612338565b6040516105219190613f26565b60405180910390f35b34801561053657600080fd5b50610551600480360381019061054c919061361e565b61235e565b005b34801561055f57600080fd5b5061056861260e565b604051610575919061418d565b60405180910390f35b610598600480360381019061059391906136d9565b612624565b005b3480156105a657600080fd5b506105af612fdb565b6040516105bc919061418d565b60405180910390f35b3480156105d157600080fd5b506105ec60048036038101906105e7919061357d565b612fef565b6040516105fc949392919061424e565b60405180910390f35b34801561061157600080fd5b5061061a61313f565b604051610627919061418d565b60405180910390f35b600060048054906101000a900463ffffffff16905090565b610650613159565b600260008363ffffffff1663ffffffff1681526020019081526020016000206040518060c00160405290816000820160009054906101000a900463ffffffff1663ffffffff1663ffffffff1681526020016000820160049054906101000a900473ffffffffffffffffffffffffffffffffffffffff1673ffffffffffffffffffffffffffffffffffffffff1673ffffffffffffffffffffffffffffffffffffffff1681526020016001820160009054906101000a900473ffffffffffffffffffffffffffffffffffffffff1673ffffffffffffffffffffffffffffffffffffffff1673ffffffffffffffffffffffffffffffffffffffff1681526020016001820160149054906101000a900463ffffffff1663ffffffff1663ffffffff1681526020016001820160189054906101000a900460ff1660028111156107bd577f4e487b7100000000000000000000000000000000000000000000000000000000600052602160045260246000fd5b60028111156107f5577f4e487b7100000000000000000000000000000000000000000000000000000000600052602160045260246000fd5b81526020016002820154815250509050919050565b600560009054906101000a900473ffffffffffffffffffffffffffffffffffffffff1673ffffffffffffffffffffffffffffffffffffffff1663d1e47bb33360036040518363ffffffff1660e01b8152600401610868929190613ee2565b60206040518083038186803b15801561088057600080fd5b505afa158015610894573d6000803e3d6000fd5b505050506040513d601f19601f820116820180604052508101906108b89190613554565b6108f7576040517f08c379a00000000000000000000000000000000000000000000000000000000081526004016108ee906140b2565b60405180910390fd5b3373ffffffffffffffffffffffffffffffffffffffff166000808463ffffffff1663ffffffff16815260200190815260200160002060050160009054906101000a900473ffffffffffffffffffffffffffffffffffffffff1673ffffffffffffffffffffffffffffffffffffffff16146109a6576040517f08c379a000000000000000000000000000000000000000000000000000000000815260040161099d90614032565b60405180910390fd5b806000808463ffffffff1663ffffffff16815260200190815260200160002060020160046101000a81548163ffffffff021916908363ffffffff1602179055505050565b600560009054906101000a900473ffffffffffffffffffffffffffffffffffffffff1673ffffffffffffffffffffffffffffffffffffffff1663d1e47bb33360066040518363ffffffff1660e01b8152600401610a48929190613ee2565b60206040518083038186803b158015610a6057600080fd5b505afa158015610a74573d6000803e3d6000fd5b505050506040513d601f19601f82011682018060405250810190610a989190613554565b610ad7576040517f08c379a0000000000000000000000000000000000000000000000000000000008152600401610ace906140d2565b60405180910390fd5b60006002811115610b11577f4e487b7100000000000000000000000000000000000000000000000000000000600052602160045260246000fd5b6000808463ffffffff1663ffffffff16815260200190815260200160002060020160089054906101000a900460ff166002811115610b78577f4e487b7100000000000000000000000000000000000000000000000000000000600052602160045260246000fd5b14610bb8576040517f08c379a0000000000000000000000000000000000000000000000000000000008152600401610baf90614012565b60405180910390fd5b8015610c335760016000808463ffffffff1663ffffffff16815260200190815260200160002060020160086101000a81548160ff02191690836002811115610c29577f4e487b7100000000000000000000000000000000000000000000000000000000600052602160045260246000fd5b0217905550610ca4565b60026000808463ffffffff1663ffffffff16815260200190815260200160002060020160086101000a81548160ff02191690836002811115610c9e577f4e487b7100000000000000000000000000000000000000000000000000000000600052602160045260246000fd5b02179055505b8163ffffffff167f0162415f7fa3e8fd622f197aee84dcd4f88f8194b8755bca9c2a885bc4332c9182604051610cda9190613f0b565b60405180910390a25050565b610cee6131ff565b6000808363ffffffff1663ffffffff168152602001908152602001600020604051806101200160405290816000820160009054906101000a900463ffffffff1663ffffffff1663ffffffff1681526020016000820160049054906101000a900463ffffffff1663ffffffff1663ffffffff168152602001600182018054610d7490614613565b80601f0160208091040260200160405190810160405280929190818152602001828054610da090614613565b8015610ded5780601f10610dc257610100808354040283529160200191610ded565b820191906000526020600020905b815481529060010190602001808311610dd057829003601f168201915b505050505081526020016002820160009054906101000a900463ffffffff1663ffffffff1663ffffffff1681526020016002820160049054906101000a900463ffffffff1663ffffffff1663ffffffff1681526020016002820160089054906101000a900460ff166002811115610e8d577f4e487b7100000000000000000000000000000000000000000000000000000000600052602160045260246000fd5b6002811115610ec5577f4e487b7100000000000000000000000000000000000000000000000000000000600052602160045260246000fd5b8152602001600382018054610ed990614613565b80601f0160208091040260200160405190810160405280929190818152602001828054610f0590614613565b8015610f525780601f10610f2757610100808354040283529160200191610f52565b820191906000526020600020905b815481529060010190602001808311610f3557829003601f168201915b50505050508152602001600482018054610f6b90614613565b80601f0160208091040260200160405190810160405280929190818152602001828054610f9790614613565b8015610fe45780601f10610fb957610100808354040283529160200191610fe4565b820191906000526020600020905b815481529060010190602001808311610fc757829003601f168201915b505050505081526020016005820160009054906101000a900473ffffffffffffffffffffffffffffffffffffffff1673ffffffffffffffffffffffffffffffffffffffff1673ffffffffffffffffffffffffffffffffffffffff16815250509050919050565b80600560006101000a81548173ffffffffffffffffffffffffffffffffffffffff021916908373ffffffffffffffffffffffffffffffffffffffff16021790555050565b6110966132b1565b600160008363ffffffff1663ffffffff1681526020019081526020016000206040518060800160405290816000820160009054906101000a900463ffffffff1663ffffffff1663ffffffff1681526020016001820180546110f690614613565b80601f016020809104026020016040519081016040528092919081815260200182805461112290614613565b801561116f5780601f106111445761010080835404028352916020019161116f565b820191906000526020600020905b81548152906001019060200180831161115257829003601f168201915b5050505050815260200160028201805461118890614613565b80601f01602080910402602001604051908101604052809291908181526020018280546111b490614613565b80156112015780601f106111d657610100808354040283529160200191611201565b820191906000526020600020905b8154815290600101906020018083116111e457829003601f168201915b505050505081526020016003820154815250509050919050565b60006020528060005260406000206000915090508060000160009054906101000a900463ffffffff16908060000160049054906101000a900463ffffffff169080600101805461126a90614613565b80601f016020809104026020016040519081016040528092919081815260200182805461129690614613565b80156112e35780601f106112b8576101008083540402835291602001916112e3565b820191906000526020600020905b8154815290600101906020018083116112c657829003601f168201915b5050505050908060020160009054906101000a900463ffffffff16908060020160049054906101000a900463ffffffff16908060020160089054906101000a900460ff169080600301805461133790614613565b80601f016020809104026020016040519081016040528092919081815260200182805461136390614613565b80156113b05780601f10611385576101008083540402835291602001916113b0565b820191906000526020600020905b81548152906001019060200180831161139357829003601f168201915b5050505050908060040180546113c590614613565b80601f01602080910402602001604051908101604052809291908181526020018280546113f190614613565b801561143e5780601f106114135761010080835404028352916020019161143e565b820191906000526020600020905b81548152906001019060200180831161142157829003601f168201915b5050505050908060050160009054906101000a900473ffffffffffffffffffffffffffffffffffffffff16905089565b600460009054906101000a900463ffffffff1681565b600560009054906101000a900473ffffffffffffffffffffffffffffffffffffffff1673ffffffffffffffffffffffffffffffffffffffff1663d1e47bb33360066040518363ffffffff1660e01b81526004016114e2929190613ee2565b60206040518083038186803b1580156114fa57600080fd5b505afa15801561150e573d6000803e3d6000fd5b505050506040513d601f19601f820116820180604052508101906115329190613554565b611571576040517f08c379a0000000000000000000000000000000000000000000000000000000008152600401611568906140d2565b60405180910390fd5b6000808363ffffffff1663ffffffff16815260200190815260200160002060020160009054906101000a900463ffffffff1663ffffffff168163ffffffff1611156115f1576040517f08c379a00000000000000000000000000000000000000000000000000000000081526004016115e890614092565b60405180910390fd5b60008060008463ffffffff1663ffffffff16815260200190815260200160002060020160049054906101000a900463ffffffff1682611630919061444f565b90506000826000808663ffffffff1663ffffffff16815260200190815260200160002060020160009054906101000a900463ffffffff16611671919061448d565b9050806000808663ffffffff1663ffffffff16815260200190815260200160002060020160006101000a81548163ffffffff021916908363ffffffff1602179055506004600081819054906101000a900463ffffffff16809291906116d590614645565b91906101000a81548163ffffffff021916908363ffffffff16021790555050604051806101000160405280600460009054906101000a900463ffffffff1663ffffffff1681526020018563ffffffff1681526020018463ffffffff1681526020018363ffffffff16815260200160001515815260200160006001811115611785577f4e487b7100000000000000000000000000000000000000000000000000000000600052602160045260246000fd5b81526020016000808763ffffffff1663ffffffff16815260200190815260200160002060050160009054906101000a900473ffffffffffffffffffffffffffffffffffffffff1673ffffffffffffffffffffffffffffffffffffffff1681526020013373ffffffffffffffffffffffffffffffffffffffff1681525060036000600460009054906101000a900463ffffffff1663ffffffff1663ffffffff16815260200190815260200160002060008201518160000160006101000a81548163ffffffff021916908363ffffffff16021790555060208201518160000160046101000a81548163ffffffff021916908363ffffffff16021790555060408201518160000160086101000a81548163ffffffff021916908363ffffffff160217905550606082015181600001600c6101000a81548163ffffffff021916908363ffffffff16021790555060808201518160000160106101000a81548160ff02191690831515021790555060a08201518160000160116101000a81548160ff0219169083600181111561193f577f4e487b7100000000000000000000000000000000000000000000000000000000600052602160045260246000fd5b021790555060c08201518160010160006101000a81548173ffffffffffffffffffffffffffffffffffffffff021916908373ffffffffffffffffffffffffffffffffffffffff16021790555060e08201518160020160006101000a81548173ffffffffffffffffffffffffffffffffffffffff021916908373ffffffffffffffffffffffffffffffffffffffff1602179055509050503373ffffffffffffffffffffffffffffffffffffffff167fa0e84f4dba1ea97bb938c4d3ff9475e68dacbd58f3086c672b0605ad53d76dc185604051611a1b919061418d565b60405180910390a250505050565b611a316132df565b600360008363ffffffff1663ffffffff168152602001908152602001600020604051806101000160405290816000820160009054906101000a900463ffffffff1663ffffffff1663ffffffff1681526020016000820160049054906101000a900463ffffffff1663ffffffff1663ffffffff1681526020016000820160089054906101000a900463ffffffff1663ffffffff1663ffffffff16815260200160008201600c9054906101000a900463ffffffff1663ffffffff1663ffffffff1681526020016000820160109054906101000a900460ff161515151581526020016000820160119054906101000a900460ff166001811115611b5a577f4e487b7100000000000000000000000000000000000000000000000000000000600052602160045260246000fd5b6001811115611b92577f4e487b7100000000000000000000000000000000000000000000000000000000600052602160045260246000fd5b81526020016001820160009054906101000a900473ffffffffffffffffffffffffffffffffffffffff1673ffffffffffffffffffffffffffffffffffffffff1673ffffffffffffffffffffffffffffffffffffffff1681526020016002820160009054906101000a900473ffffffffffffffffffffffffffffffffffffffff1673ffffffffffffffffffffffffffffffffffffffff1673ffffffffffffffffffffffffffffffffffffffff16815250509050919050565b600460089054906101000a900463ffffffff1681565b60036020528060005260406000206000915090508060000160009054906101000a900463ffffffff16908060000160049054906101000a900463ffffffff16908060000160089054906101000a900463ffffffff169080600001600c9054906101000a900463ffffffff16908060000160109054906101000a900460ff16908060000160119054906101000a900460ff16908060010160009054906101000a900473ffffffffffffffffffffffffffffffffffffffff16908060020160009054906101000a900473ffffffffffffffffffffffffffffffffffffffff16905088565b60026020528060005260406000206000915090508060000160009054906101000a900463ffffffff16908060000160049054906101000a900473ffffffffffffffffffffffffffffffffffffffff16908060010160009054906101000a900473ffffffffffffffffffffffffffffffffffffffff16908060010160149054906101000a900463ffffffff16908060010160189054906101000a900460ff16908060020154905086565b6000600460009054906101000a900463ffffffff16905090565b600560009054906101000a900473ffffffffffffffffffffffffffffffffffffffff1673ffffffffffffffffffffffffffffffffffffffff1663d1e47bb33360056040518363ffffffff1660e01b8152600401611e62929190613ee2565b60206040518083038186803b158015611e7a57600080fd5b505afa158015611e8e573d6000803e3d6000fd5b505050506040513d601f19601f82011682018060405250810190611eb29190613554565b611ef1576040517f08c379a0000000000000000000000000000000000000000000000000000000008152600401611ee8906140f2565b60405180910390fd5b600460009054906101000a900463ffffffff1663ffffffff168263ffffffff161115611f52576040517f08c379a0000000000000000000000000000000000000000000000000000000008152600401611f4990613fd2565b60405180910390fd5b80600360008463ffffffff1663ffffffff16815260200190815260200160002060000160116101000a81548160ff02191690836001811115611fbd577f4e487b7100000000000000000000000000000000000000000000000000000000600052602160045260246000fd5b02179055508163ffffffff167ff84820c84ecbec116ee0604a91f0bec4a5d5926d8d5189a13f57fc30951d4b9182604051611ff89190613f41565b60405180910390a25050565b6000600460089054906101000a900463ffffffff16905090565b60048081819054906101000a900463ffffffff168092919061203f90614645565b91906101000a81548163ffffffff021916908363ffffffff1602179055505060405180610120016040528060048054906101000a900463ffffffff1663ffffffff1681526020018863ffffffff1681526020018481526020018763ffffffff1681526020018663ffffffff168152602001600060028111156120ea577f4e487b7100000000000000000000000000000000000000000000000000000000600052602160045260246000fd5b81526020018381526020018281526020018573ffffffffffffffffffffffffffffffffffffffff1681525060008060048054906101000a900463ffffffff1663ffffffff1663ffffffff16815260200190815260200160002060008201518160000160006101000a81548163ffffffff021916908363ffffffff16021790555060208201518160000160046101000a81548163ffffffff021916908363ffffffff16021790555060408201518160010190805190602001906121ad9291906133a2565b5060608201518160020160006101000a81548163ffffffff021916908363ffffffff16021790555060808201518160020160046101000a81548163ffffffff021916908363ffffffff16021790555060a08201518160020160086101000a81548160ff0219169083600281111561224d577f4e487b7100000000000000000000000000000000000000000000000000000000600052602160045260246000fd5b021790555060c082015181600301908051906020019061226e9291906133a2565b5060e082015181600401908051906020019061228b9291906133a2565b506101008201518160050160006101000a81548173ffffffffffffffffffffffffffffffffffffffff021916908373ffffffffffffffffffffffffffffffffffffffff16021790555090505060048054906101000a900463ffffffff1663ffffffff167fae4e6a533354fae499eff08fce0d52e10ef7c27a1743662362463f06382e8e1d8488888b878760405161232796959493929190613f5c565b60405180910390a250505050505050565b600560009054906101000a900473ffffffffffffffffffffffffffffffffffffffff1681565b600560009054906101000a900473ffffffffffffffffffffffffffffffffffffffff1673ffffffffffffffffffffffffffffffffffffffff1663d1e47bb33360056040518363ffffffff1660e01b81526004016123bc929190613ee2565b60206040518083038186803b1580156123d457600080fd5b505afa1580156123e8573d6000803e3d6000fd5b505050506040513d601f19601f8201168201806040525081019061240c9190613554565b61244b576040517f08c379a0000000000000000000000000000000000000000000000000000000008152600401612442906140f2565b60405180910390fd5b600460009054906101000a900463ffffffff1663ffffffff168363ffffffff1611156124ac576040517f08c379a00000000000000000000000000000000000000000000000000000000081526004016124a390613fd2565b60405180910390fd5b6004600881819054906101000a900463ffffffff16809291906124ce90614645565b91906101000a81548163ffffffff021916908363ffffffff160217905550506040518060800160405280600460089054906101000a900463ffffffff1663ffffffff16815260200183815260200182815260200142815250600160008563ffffffff1663ffffffff16815260200190815260200160002060008201518160000160006101000a81548163ffffffff021916908363ffffffff16021790555060208201518160010190805190602001906125889291906133a2565b5060408201518160020190805190602001906125a59291906133a2565b50606082015181600301559050508263ffffffff167fa2effbfc7f8ff62ea4b874b57c26eb8951f95a078bf527463389d9b2d4ce175d600460089054906101000a900463ffffffff16848442604051612601949392919061424e565b60405180910390a2505050565b6004600c9054906101000a900463ffffffff1681565b600560009054906101000a900473ffffffffffffffffffffffffffffffffffffffff1673ffffffffffffffffffffffffffffffffffffffff1663d1e47bb33360066040518363ffffffff1660e01b8152600401612682929190613ee2565b60206040518083038186803b15801561269a57600080fd5b505afa1580156126ae573d6000803e3d6000fd5b505050506040513d601f19601f820116820180604052508101906126d29190613554565b612711576040517f08c379a0000000000000000000000000000000000000000000000000000000008152600401612708906140d2565b60405180910390fd5b6000806000600360008763ffffffff1663ffffffff16815260200190815260200160002060000160049054906101000a900463ffffffff1663ffffffff1663ffffffff168152602001908152602001600020604051806101200160405290816000820160009054906101000a900463ffffffff1663ffffffff1663ffffffff1681526020016000820160049054906101000a900463ffffffff1663ffffffff1663ffffffff1681526020016001820180546127cb90614613565b80601f01602080910402602001604051908101604052809291908181526020018280546127f790614613565b80156128445780601f1061281957610100808354040283529160200191612844565b820191906000526020600020905b81548152906001019060200180831161282757829003601f168201915b505050505081526020016002820160009054906101000a900463ffffffff1663ffffffff1663ffffffff1681526020016002820160049054906101000a900463ffffffff1663ffffffff1663ffffffff1681526020016002820160089054906101000a900460ff1660028111156128e4577f4e487b7100000000000000000000000000000000000000000000000000000000600052602160045260246000fd5b600281111561291c577f4e487b7100000000000000000000000000000000000000000000000000000000600052602160045260246000fd5b815260200160038201805461293090614613565b80601f016020809104026020016040519081016040528092919081815260200182805461295c90614613565b80156129a95780601f1061297e576101008083540402835291602001916129a9565b820191906000526020600020905b81548152906001019060200180831161298c57829003601f168201915b505050505081526020016004820180546129c290614613565b80601f01602080910402602001604051908101604052809291908181526020018280546129ee90614613565b8015612a3b5780601f10612a1057610100808354040283529160200191612a3b565b820191906000526020600020905b815481529060010190602001808311612a1e57829003601f168201915b505050505081526020016005820160009054906101000a900473ffffffffffffffffffffffffffffffffffffffff1673ffffffffffffffffffffffffffffffffffffffff1673ffffffffffffffffffffffffffffffffffffffff1681525050905060016002811115612ad6577f4e487b7100000000000000000000000000000000000000000000000000000000600052602160045260246000fd5b8160a001516002811115612b13577f4e487b7100000000000000000000000000000000000000000000000000000000600052602160045260246000fd5b14612b53576040517f08c379a0000000000000000000000000000000000000000000000000000000008152600401612b4a90614072565b60405180910390fd5b600360008563ffffffff1663ffffffff16815260200190815260200160002060000160089054906101000a900463ffffffff168160800151612b95919061444f565b63ffffffff163414612bdc576040517f08c379a0000000000000000000000000000000000000000000000000000000008152600401612bd390613ff2565b60405180910390fd5b600360008563ffffffff1663ffffffff16815260200190815260200160002060000160109054906101000a900460ff1615612c4c576040517f08c379a0000000000000000000000000000000000000000000000000000000008152600401612c4390614052565b60405180910390fd5b6001600360008663ffffffff1663ffffffff16815260200190815260200160002060000160106101000a81548160ff0219169083151502179055506004600c81819054906101000a900463ffffffff1680929190612ca990614645565b91906101000a81548163ffffffff021916908363ffffffff160217905550506040518060c001604052806004600c9054906101000a900463ffffffff1663ffffffff1681526020013373ffffffffffffffffffffffffffffffffffffffff168152602001600360008763ffffffff1663ffffffff16815260200190815260200160002060010160009054906101000a900473ffffffffffffffffffffffffffffffffffffffff1673ffffffffffffffffffffffffffffffffffffffff1681526020018463ffffffff168152602001836002811115612db0577f4e487b7100000000000000000000000000000000000000000000000000000000600052602160045260246000fd5b815260200142815250600260006004600c9054906101000a900463ffffffff1663ffffffff1663ffffffff16815260200190815260200160002060008201518160000160006101000a81548163ffffffff021916908363ffffffff16021790555060208201518160000160046101000a81548173ffffffffffffffffffffffffffffffffffffffff021916908373ffffffffffffffffffffffffffffffffffffffff16021790555060408201518160010160006101000a81548173ffffffffffffffffffffffffffffffffffffffff021916908373ffffffffffffffffffffffffffffffffffffffff16021790555060608201518160010160146101000a81548163ffffffff021916908363ffffffff16021790555060808201518160010160186101000a81548160ff02191690836002811115612f17577f4e487b7100000000000000000000000000000000000000000000000000000000600052602160045260246000fd5b021790555060a08201518160020155905050806000015163ffffffff167fd9f037670aada9b07156110dd936887c158e5cd6f7932663cc64ef336e44cf9f6004600c9054906101000a900463ffffffff16338686604051612f7b9493929190614209565b60405180910390a2600081610100015190508073ffffffffffffffffffffffffffffffffffffffff166108fc349081150290604051600060405180830381858888f19350505050158015612fd3573d6000803e3d6000fd5b505050505050565b60048054906101000a900463ffffffff1681565b60016020528060005260406000206000915090508060000160009054906101000a900463ffffffff169080600101805461302890614613565b80601f016020809104026020016040519081016040528092919081815260200182805461305490614613565b80156130a15780601f10613076576101008083540402835291602001916130a1565b820191906000526020600020905b81548152906001019060200180831161308457829003601f168201915b5050505050908060020180546130b690614613565b80601f01602080910402602001604051908101604052809291908181526020018280546130e290614613565b801561312f5780601f106131045761010080835404028352916020019161312f565b820191906000526020600020905b81548152906001019060200180831161311257829003601f168201915b5050505050908060030154905084565b60006004600c9054906101000a900463ffffffff16905090565b6040518060c00160405280600063ffffffff168152602001600073ffffffffffffffffffffffffffffffffffffffff168152602001600073ffffffffffffffffffffffffffffffffffffffff168152602001600063ffffffff168152602001600060028111156131f2577f4e487b7100000000000000000000000000000000000000000000000000000000600052602160045260246000fd5b8152602001600081525090565b604051806101200160405280600063ffffffff168152602001600063ffffffff16815260200160608152602001600063ffffffff168152602001600063ffffffff16815260200160006002811115613280577f4e487b7100000000000000000000000000000000000000000000000000000000600052602160045260246000fd5b81526020016060815260200160608152602001600073ffffffffffffffffffffffffffffffffffffffff1681525090565b6040518060800160405280600063ffffffff1681526020016060815260200160608152602001600081525090565b604051806101000160405280600063ffffffff168152602001600063ffffffff168152602001600063ffffffff168152602001600063ffffffff16815260200160001515815260200160006001811115613362577f4e487b7100000000000000000000000000000000000000000000000000000000600052602160045260246000fd5b8152602001600073ffffffffffffffffffffffffffffffffffffffff168152602001600073ffffffffffffffffffffffffffffffffffffffff1681525090565b8280546133ae90614613565b90600052602060002090601f0160209004810192826133d05760008555613417565b82601f106133e957805160ff1916838001178555613417565b82800160010185558215613417579182015b828111156134165782518255916020019190600101906133fb565b5b5090506134249190613428565b5090565b5b80821115613441576000816000905550600101613429565b5090565b6000613458613453846143f2565b6143c1565b90508281526020810184848401111561347057600080fd5b61347b8482856145d1565b509392505050565b6000813590506134928161478f565b92915050565b6000813590506134a7816147a6565b92915050565b6000815190506134bc816147a6565b92915050565b6000813590506134d1816147bd565b92915050565b6000813590506134e6816147cd565b92915050565b600082601f8301126134fd57600080fd5b813561350d848260208601613445565b91505092915050565b600081359050613525816147dd565b92915050565b60006020828403121561353d57600080fd5b600061354b84828501613483565b91505092915050565b60006020828403121561356657600080fd5b6000613574848285016134ad565b91505092915050565b60006020828403121561358f57600080fd5b600061359d84828501613516565b91505092915050565b600080604083850312156135b957600080fd5b60006135c785828601613516565b92505060206135d885828601613498565b9150509250929050565b600080604083850312156135f557600080fd5b600061360385828601613516565b9250506020613614858286016134d7565b9150509250929050565b60008060006060848603121561363357600080fd5b600061364186828701613516565b935050602084013567ffffffffffffffff81111561365e57600080fd5b61366a868287016134ec565b925050604084013567ffffffffffffffff81111561368757600080fd5b613693868287016134ec565b9150509250925092565b600080604083850312156136b057600080fd5b60006136be85828601613516565b92505060206136cf85828601613516565b9150509250929050565b6000806000606084860312156136ee57600080fd5b60006136fc86828701613516565b935050602061370d86828701613516565b925050604061371e868287016134c2565b9150509250925092565b600080600080600080600060e0888a03121561374357600080fd5b60006137518a828b01613516565b97505060206137628a828b01613516565b96505060406137738a828b01613516565b95505060606137848a828b01613483565b945050608088013567ffffffffffffffff8111156137a157600080fd5b6137ad8a828b016134ec565b93505060a088013567ffffffffffffffff8111156137ca57600080fd5b6137d68a828b016134ec565b92505060c088013567ffffffffffffffff8111156137f357600080fd5b6137ff8a828b016134ec565b91505092959891949750929550565b613817816144c1565b82525050565b613826816144c1565b82525050565b613835816144d3565b82525050565b613844816144d3565b82525050565b61385381614565565b82525050565b61386281614589565b82525050565b61387181614589565b82525050565b6138808161459b565b82525050565b61388f816145ad565b82525050565b61389e816145ad565b82525050565b6138ad816145bf565b82525050565b6138bc816145bf565b82525050565b60006138cd82614422565b6138d7818561442d565b93506138e78185602086016145e0565b6138f08161472e565b840191505092915050565b600061390682614422565b613910818561443e565b93506139208185602086016145e0565b6139298161472e565b840191505092915050565b600061394160198361443e565b91507f4c6120636f6d6d616e6465206e27657869737465207061732e000000000000006000830152602082019050919050565b600061398160118361443e565b91507f4d6f6e74616e7420696e636f72726563740000000000000000000000000000006000830152602082019050919050565b60006139c160138361443e565b91507f50726f647569742064656a6120747261697465000000000000000000000000006000830152602082019050919050565b6000613a01602a8361443e565b91507f566f7573206e2765746573207061732070726f7072696574616972652064652060008301527f63652070726f64756974000000000000000000000000000000000000000000006020830152604082019050919050565b6000613a6760138361443e565b91507f436f6d6d616e64652064656a61207061796572000000000000000000000000006000830152602082019050919050565b6000613aa760128361443e565b91507f50726f64756974206e6f6e2076616c69646500000000000000000000000000006000830152602082019050919050565b6000613ae760118361443e565b91507f5175616e7469746520696e76616c6964650000000000000000000000000000006000830152602082019050919050565b6000613b2760228361443e565b91507f4e6f6e206175746f726973653a207365756c656d656e7420436f6c6c6563746560008301527f75720000000000000000000000000000000000000000000000000000000000006020830152604082019050919050565b6000613b8d60238361443e565b91507f4e6f6e206175746f726973653a207365756c656d656e74204578706f7274617460008301527f65757200000000000000000000000000000000000000000000000000000000006020830152604082019050919050565b6000613bf360248361443e565b91507f4e6f6e206175746f726973653a207365756c656d656e74205472616e73706f7260008301527f74657572000000000000000000000000000000000000000000000000000000006020830152604082019050919050565b61010082016000820151613c636000850182613ec4565b506020820151613c766020850182613ec4565b506040820151613c896040850182613ec4565b506060820151613c9c6060850182613ec4565b506080820151613caf608085018261382c565b5060a0820151613cc260a08501826138a4565b5060c0820151613cd560c085018261380e565b5060e0820151613ce860e085018261380e565b50505050565b6000608083016000830151613d066000860182613ec4565b5060208301518482036020860152613d1e82826138c2565b91505060408301518482036040860152613d3882826138c2565b9150506060830151613d4d6060860182613ea6565b508091505092915050565b60c082016000820151613d6e6000850182613ec4565b506020820151613d81602085018261380e565b506040820151613d94604085018261380e565b506060820151613da76060850182613ec4565b506080820151613dba6080850182613859565b5060a0820151613dcd60a0850182613ea6565b50505050565b600061012083016000830151613dec6000860182613ec4565b506020830151613dff6020860182613ec4565b5060408301518482036040860152613e1782826138c2565b9150506060830151613e2c6060860182613ec4565b506080830151613e3f6080860182613ec4565b5060a0830151613e5260a0860182613886565b5060c083015184820360c0860152613e6a82826138c2565b91505060e083015184820360e0860152613e8482826138c2565b915050610100830151613e9b61010086018261380e565b508091505092915050565b613eaf8161454b565b82525050565b613ebe8161454b565b82525050565b613ecd81614555565b82525050565b613edc81614555565b82525050565b6000604082019050613ef7600083018561381d565b613f046020830184613877565b9392505050565b6000602082019050613f20600083018461383b565b92915050565b6000602082019050613f3b600083018461384a565b92915050565b6000602082019050613f5660008301846138b3565b92915050565b600060c0820190508181036000830152613f7681896138fb565b9050613f856020830188613ed3565b613f926040830187613ed3565b613f9f6060830186613ed3565b8181036080830152613fb181856138fb565b905081810360a0830152613fc581846138fb565b9050979650505050505050565b60006020820190508181036000830152613feb81613934565b9050919050565b6000602082019050818103600083015261400b81613974565b9050919050565b6000602082019050818103600083015261402b816139b4565b9050919050565b6000602082019050818103600083015261404b816139f4565b9050919050565b6000602082019050818103600083015261406b81613a5a565b9050919050565b6000602082019050818103600083015261408b81613a9a565b9050919050565b600060208201905081810360008301526140ab81613ada565b9050919050565b600060208201905081810360008301526140cb81613b1a565b9050919050565b600060208201905081810360008301526140eb81613b80565b9050919050565b6000602082019050818103600083015261410b81613be6565b9050919050565b6000610100820190506141286000830184613c4c565b92915050565b600060208201905081810360008301526141488184613cee565b905092915050565b600060c0820190506141656000830184613d58565b92915050565b600060208201905081810360008301526141858184613dd3565b905092915050565b60006020820190506141a26000830184613ed3565b92915050565b600060c0820190506141bd6000830189613ed3565b6141ca602083018861381d565b6141d7604083018761381d565b6141e46060830186613ed3565b6141f16080830185613868565b6141fe60a0830184613eb5565b979650505050505050565b600060808201905061421e6000830187613ed3565b61422b602083018661381d565b6142386040830185613ed3565b6142456060830184613868565b95945050505050565b60006080820190506142636000830187613ed3565b818103602083015261427581866138fb565b9050818103604083015261428981856138fb565b90506142986060830184613eb5565b95945050505050565b6000610120820190506142b7600083018c613ed3565b6142c4602083018b613ed3565b81810360408301526142d6818a6138fb565b90506142e56060830189613ed3565b6142f26080830188613ed3565b6142ff60a0830187613895565b81810360c083015261431181866138fb565b905081810360e083015261432581856138fb565b905061433561010083018461381d565b9a9950505050505050505050565b600061010082019050614359600083018b613ed3565b614366602083018a613ed3565b6143736040830189613ed3565b6143806060830188613ed3565b61438d608083018761383b565b61439a60a08301866138b3565b6143a760c083018561381d565b6143b460e083018461381d565b9998505050505050505050565b6000604051905081810181811067ffffffffffffffff821117156143e8576143e76146ff565b5b8060405250919050565b600067ffffffffffffffff82111561440d5761440c6146ff565b5b601f19601f8301169050602081019050919050565b600081519050919050565b600082825260208201905092915050565b600082825260208201905092915050565b600061445a82614555565b915061446583614555565b92508163ffffffff048311821515161561448257614481614672565b5b828202905092915050565b600061449882614555565b91506144a383614555565b9250828210156144b6576144b5614672565b5b828203905092915050565b60006144cc8261452b565b9050919050565b60008115159050919050565b60008190506144ed8261473f565b919050565b600081905061450082614753565b919050565b600081905061451382614767565b919050565b60008190506145268261477b565b919050565b600073ffffffffffffffffffffffffffffffffffffffff82169050919050565b6000819050919050565b600063ffffffff82169050919050565b600061457082614577565b9050919050565b60006145828261452b565b9050919050565b6000614594826144df565b9050919050565b60006145a6826144f2565b9050919050565b60006145b882614505565b9050919050565b60006145ca82614518565b9050919050565b82818337600083830152505050565b60005b838110156145fe5780820151818401526020810190506145e3565b8381111561460d576000848401525b50505050565b6000600282049050600182168061462b57607f821691505b6020821081141561463f5761463e6146d0565b5b50919050565b600061465082614555565b915063ffffffff82141561466757614666614672565b5b600182019050919050565b7f4e487b7100000000000000000000000000000000000000000000000000000000600052601160045260246000fd5b7f4e487b7100000000000000000000000000000000000000000000000000000000600052602160045260246000fd5b7f4e487b7100000000000000000000000000000000000000000000000000000000600052602260045260246000fd5b7f4e487b7100000000000000000000000000000000000000000000000000000000600052604160045260246000fd5b6000601f19601f8301169050919050565b600381106147505761474f6146a1565b5b50565b60088110614764576147636146a1565b5b50565b60038110614778576147776146a1565b5b50565b6002811061478c5761478b6146a1565b5b50565b614798816144c1565b81146147a357600080fd5b50565b6147af816144d3565b81146147ba57600080fd5b50565b600381106147ca57600080fd5b50565b600281106147da57600080fd5b50565b6147e681614555565b81146147f157600080fd5b5056fea264697066735822122039424169ed916ead8b47e9039b0915d4372c8b48a0172db8ca76c1176f57f1e064736f6c63430008000033",
  "linkReferences": {},
  "deployedLinkReferences": {}
}