{
  "_format": "hh-sol-artifact-1",
  "contractName": "CollecteurProducteur",
  "sourceName": "contracts/CollecteurProducteur.sol",
  "abi": [
    {
      "anonymous": false,
      "inputs": [
        {
          "indexed": true,
          "internalType": "uint32",
          "name": "idProduit",
          "type": "uint32"
        },
        {
          "indexed": false,
          "internalType": "uint32",
          "name": "idCondition",
          "type": "uint32"
        },
        {
          "indexed": false,
          "internalType": "string",
          "name": "cid",
          "type": "string"
        },
        {
          "indexed": false,
          "internalType": "uint256",
          "name": "timestamp",
          "type": "uint256"
        },
        {
          "indexed": false,
          "internalType": "address",
          "name": "transporteur",
          "type": "address"
        }
      ],
      "name": "ConditionEnregistree",
      "type": "event"
    },
    {
      "anonymous": false,
      "inputs": [
        {
          "indexed": true,
          "internalType": "uint32",
          "name": "idCommande",
          "type": "uint32"
        },
        {
          "indexed": false,
          "internalType": "enum StructLib.StatutTransport",
          "name": "statut",
          "type": "uint8"
        },
        {
          "indexed": false,
          "internalType": "address",
          "name": "transporteur",
          "type": "address"
        }
      ],
      "name": "StatutTransportMisAJour",
      "type": "event"
    },
    {
      "anonymous": false,
      "inputs": [
        {
          "indexed": true,
          "internalType": "uint32",
          "name": "idCommande",
          "type": "uint32"
        },
        {
          "indexed": false,
          "internalType": "bool",
          "name": "status",
          "type": "bool"
        }
      ],
      "name": "ValidationCommandeRecolte",
      "type": "event"
    },
    {
      "inputs": [
        {
          "internalType": "uint32",
          "name": "_idRecolte",
          "type": "uint32"
        },
        {
          "internalType": "string",
          "name": "_hash",
          "type": "string"
        }
      ],
      "name": "ajoutHashMerkleRecolte",
      "outputs": [],
      "stateMutability": "nonpayable",
      "type": "function"
    },
    {
      "inputs": [
        {
          "internalType": "uint32[]",
          "name": "_idParcelles",
          "type": "uint32[]"
        },
        {
          "internalType": "uint32",
          "name": "_quantite",
          "type": "uint32"
        },
        {
          "internalType": "uint32",
          "name": "_prix",
          "type": "uint32"
        },
        {
          "internalType": "string",
          "name": "_cid",
          "type": "string"
        }
      ],
      "name": "ajoutRecolte",
      "outputs": [],
      "stateMutability": "nonpayable",
      "type": "function"
    },
    {
      "inputs": [
        {
          "internalType": "uint32",
          "name": "_idRecolte",
          "type": "uint32"
        },
        {
          "internalType": "string",
          "name": "_certificat",
          "type": "string"
        }
      ],
      "name": "certifieRecolte",
      "outputs": [],
      "stateMutability": "nonpayable",
      "type": "function"
    },
    {
      "inputs": [
        {
          "internalType": "uint32",
          "name": "",
          "type": "uint32"
        }
      ],
      "name": "commandes",
      "outputs": [
        {
          "internalType": "uint32",
          "name": "id",
          "type": "uint32"
        },
        {
          "internalType": "uint32",
          "name": "idRecolte",
          "type": "uint32"
        },
        {
          "internalType": "uint32",
          "name": "quantite",
          "type": "uint32"
        },
        {
          "internalType": "uint32",
          "name": "prix",
          "type": "uint32"
        },
        {
          "internalType": "bool",
          "name": "payer",
          "type": "bool"
        },
        {
          "internalType": "enum StructLib.StatutTransport",
          "name": "statutTransport",
          "type": "uint8"
        },
        {
          "internalType": "address",
          "name": "producteur",
          "type": "address"
        },
        {
          "internalType": "address",
          "name": "collecteur",
          "type": "address"
        },
        {
          "internalType": "enum StructLib.StatutProduit",
          "name": "statutRecolte",
          "type": "uint8"
        },
        {
          "internalType": "string",
          "name": "hashMerkle",
          "type": "string"
        }
      ],
      "stateMutability": "view",
      "type": "function"
    },
    {
      "inputs": [],
      "name": "compteurCommandes",
      "outputs": [
        {
          "internalType": "uint32",
          "name": "",
          "type": "uint32"
        }
      ],
      "stateMutability": "view",
      "type": "function"
    },
    {
      "inputs": [],
      "name": "compteurConditions",
      "outputs": [
        {
          "internalType": "uint32",
          "name": "",
          "type": "uint32"
        }
      ],
      "stateMutability": "view",
      "type": "function"
    },
    {
      "inputs": [],
      "name": "compteurPaiements",
      "outputs": [
        {
          "internalType": "uint32",
          "name": "",
          "type": "uint32"
        }
      ],
      "stateMutability": "view",
      "type": "function"
    },
    {
      "inputs": [],
      "name": "compteurRecoltes",
      "outputs": [
        {
          "internalType": "uint32",
          "name": "",
          "type": "uint32"
        }
      ],
      "stateMutability": "view",
      "type": "function"
    },
    {
      "inputs": [
        {
          "internalType": "uint32",
          "name": "",
          "type": "uint32"
        }
      ],
      "name": "conditions",
      "outputs": [
        {
          "internalType": "uint32",
          "name": "id",
          "type": "uint32"
        },
        {
          "internalType": "string",
          "name": "cid",
          "type": "string"
        },
        {
          "internalType": "uint256",
          "name": "timestamp",
          "type": "uint256"
        },
        {
          "internalType": "string",
          "name": "hashMerkle",
          "type": "string"
        }
      ],
      "stateMutability": "view",
      "type": "function"
    },
    {
      "inputs": [
        {
          "internalType": "uint32",
          "name": "_idCommande",
          "type": "uint32"
        },
        {
          "internalType": "uint32",
          "name": "_montant",
          "type": "uint32"
        },
        {
          "internalType": "enum StructLib.ModePaiement",
          "name": "_mode",
          "type": "uint8"
        }
      ],
      "name": "effectuerPaiementVersProducteur",
      "outputs": [],
      "stateMutability": "payable",
      "type": "function"
    },
    {
      "inputs": [
        {
          "internalType": "uint32",
          "name": "_idCommande",
          "type": "uint32"
        },
        {
          "internalType": "string",
          "name": "_cid",
          "type": "string"
        }
      ],
      "name": "enregistrerCondition",
      "outputs": [],
      "stateMutability": "nonpayable",
      "type": "function"
    },
    {
      "inputs": [],
      "name": "gestionnaireActeurs",
      "outputs": [
        {
          "internalType": "contract GestionnaireActeurs",
          "name": "",
          "type": "address"
        }
      ],
      "stateMutability": "view",
      "type": "function"
    },
    {
      "inputs": [
        {
          "internalType": "uint32",
          "name": "_id",
          "type": "uint32"
        }
      ],
      "name": "getCommande",
      "outputs": [
        {
          "components": [
            {
              "internalType": "uint32",
              "name": "id",
              "type": "uint32"
            },
            {
              "internalType": "uint32",
              "name": "idRecolte",
              "type": "uint32"
            },
            {
              "internalType": "uint32",
              "name": "quantite",
              "type": "uint32"
            },
            {
              "internalType": "uint32",
              "name": "prix",
              "type": "uint32"
            },
            {
              "internalType": "bool",
              "name": "payer",
              "type": "bool"
            },
            {
              "internalType": "enum StructLib.StatutTransport",
              "name": "statutTransport",
              "type": "uint8"
            },
            {
              "internalType": "address",
              "name": "producteur",
              "type": "address"
            },
            {
              "internalType": "address",
              "name": "collecteur",
              "type": "address"
            },
            {
              "internalType": "enum StructLib.StatutProduit",
              "name": "statutRecolte",
              "type": "uint8"
            },
            {
              "internalType": "string",
              "name": "hashMerkle",
              "type": "string"
            }
          ],
          "internalType": "struct StructLib.CommandeRecolte",
          "name": "",
          "type": "tuple"
        }
      ],
      "stateMutability": "view",
      "type": "function"
    },
    {
      "inputs": [],
      "name": "getCompteurCommandes",
      "outputs": [
        {
          "internalType": "uint32",
          "name": "",
          "type": "uint32"
        }
      ],
      "stateMutability": "view",
      "type": "function"
    },
    {
      "inputs": [],
      "name": "getCompteurPaiments",
      "outputs": [
        {
          "internalType": "uint32",
          "name": "",
          "type": "uint32"
        }
      ],
      "stateMutability": "view",
      "type": "function"
    },
    {
      "inputs": [],
      "name": "getCompteurRecoltes",
      "outputs": [
        {
          "internalType": "uint32",
          "name": "",
          "type": "uint32"
        }
      ],
      "stateMutability": "view",
      "type": "function"
    },
    {
      "inputs": [
        {
          "internalType": "uint32",
          "name": "_id",
          "type": "uint32"
        }
      ],
      "name": "getPaiement",
      "outputs": [
        {
          "components": [
            {
              "internalType": "uint32",
              "name": "id",
              "type": "uint32"
            },
            {
              "internalType": "address",
              "name": "payeur",
              "type": "address"
            },
            {
              "internalType": "address",
              "name": "vendeur",
              "type": "address"
            },
            {
              "internalType": "uint32",
              "name": "montant",
              "type": "uint32"
            },
            {
              "internalType": "enum StructLib.ModePaiement",
              "name": "mode",
              "type": "uint8"
            },
            {
              "internalType": "uint256",
              "name": "timestamp",
              "type": "uint256"
            },
            {
              "internalType": "string",
              "name": "hashMerkle",
              "type": "string"
            }
          ],
          "internalType": "struct StructLib.Paiement",
          "name": "",
          "type": "tuple"
        }
      ],
      "stateMutability": "view",
      "type": "function"
    },
    {
      "inputs": [
        {
          "internalType": "uint32",
          "name": "_idRecolte",
          "type": "uint32"
        }
      ],
      "name": "getRecolte",
      "outputs": [
        {
          "components": [
            {
              "internalType": "uint32",
              "name": "id",
              "type": "uint32"
            },
            {
              "internalType": "uint32[]",
              "name": "idParcelle",
              "type": "uint32[]"
            },
            {
              "internalType": "uint32",
              "name": "quantite",
              "type": "uint32"
            },
            {
              "internalType": "uint32",
              "name": "prixUnit",
              "type": "uint32"
            },
            {
              "internalType": "bool",
              "name": "certifie",
              "type": "bool"
            },
            {
              "internalType": "string",
              "name": "certificatPhytosanitaire",
              "type": "string"
            },
            {
              "internalType": "address",
              "name": "producteur",
              "type": "address"
            },
            {
              "internalType": "string",
              "name": "hashMerkle",
              "type": "string"
            },
            {
              "internalType": "string",
              "name": "cid",
              "type": "string"
            }
          ],
          "internalType": "struct StructLib.Recolte",
          "name": "",
          "type": "tuple"
        }
      ],
      "stateMutability": "view",
      "type": "function"
    },
    {
      "inputs": [
        {
          "internalType": "address",
          "name": "_addrCE",
          "type": "address"
        },
        {
          "internalType": "address",
          "name": "_gestionnaireActeurs",
          "type": "address"
        },
        {
          "internalType": "address",
          "name": "_producteurEnPhaseCulture",
          "type": "address"
        }
      ],
      "name": "initialiser",
      "outputs": [],
      "stateMutability": "nonpayable",
      "type": "function"
    },
    {
      "inputs": [
        {
          "internalType": "uint32",
          "name": "_idCommande",
          "type": "uint32"
        },
        {
          "internalType": "enum StructLib.StatutTransport",
          "name": "_statut",
          "type": "uint8"
        }
      ],
      "name": "mettreAJourStatutTransport",
      "outputs": [],
      "stateMutability": "nonpayable",
      "type": "function"
    },
    {
      "inputs": [
        {
          "internalType": "uint32",
          "name": "",
          "type": "uint32"
        }
      ],
      "name": "paiements",
      "outputs": [
        {
          "internalType": "uint32",
          "name": "id",
          "type": "uint32"
        },
        {
          "internalType": "address",
          "name": "payeur",
          "type": "address"
        },
        {
          "internalType": "address",
          "name": "vendeur",
          "type": "address"
        },
        {
          "internalType": "uint32",
          "name": "montant",
          "type": "uint32"
        },
        {
          "internalType": "enum StructLib.ModePaiement",
          "name": "mode",
          "type": "uint8"
        },
        {
          "internalType": "uint256",
          "name": "timestamp",
          "type": "uint256"
        },
        {
          "internalType": "string",
          "name": "hashMerkle",
          "type": "string"
        }
      ],
      "stateMutability": "view",
      "type": "function"
    },
    {
      "inputs": [
        {
          "internalType": "uint32",
          "name": "_idRecolte",
          "type": "uint32"
        },
        {
          "internalType": "uint32",
          "name": "_quantite",
          "type": "uint32"
        }
      ],
      "name": "passerCommandeVersProducteur",
      "outputs": [],
      "stateMutability": "nonpayable",
      "type": "function"
    },
    {
      "inputs": [],
      "name": "producteurEnPhaseCulture",
      "outputs": [
        {
          "internalType": "contract ProducteurEnPhaseCulture",
          "name": "",
          "type": "address"
        }
      ],
      "stateMutability": "view",
      "type": "function"
    },
    {
      "inputs": [
        {
          "internalType": "uint32",
          "name": "",
          "type": "uint32"
        }
      ],
      "name": "recoltes",
      "outputs": [
        {
          "internalType": "uint32",
          "name": "id",
          "type": "uint32"
        },
        {
          "internalType": "uint32",
          "name": "quantite",
          "type": "uint32"
        },
        {
          "internalType": "uint32",
          "name": "prixUnit",
          "type": "uint32"
        },
        {
          "internalType": "bool",
          "name": "certifie",
          "type": "bool"
        },
        {
          "internalType": "string",
          "name": "certificatPhytosanitaire",
          "type": "string"
        },
        {
          "internalType": "address",
          "name": "producteur",
          "type": "address"
        },
        {
          "internalType": "string",
          "name": "hashMerkle",
          "type": "string"
        },
        {
          "internalType": "string",
          "name": "cid",
          "type": "string"
        }
      ],
      "stateMutability": "view",
      "type": "function"
    },
    {
      "inputs": [
        {
          "internalType": "address",
          "name": "_addr",
          "type": "address"
        }
      ],
      "name": "setGestionnaireActeurs",
      "outputs": [],
      "stateMutability": "nonpayable",
      "type": "function"
    },
    {
      "inputs": [
        {
          "internalType": "address",
          "name": "_addr",
          "type": "address"
        }
      ],
      "name": "setModuleCE",
      "outputs": [],
      "stateMutability": "nonpayable",
      "type": "function"
    },
    {
      "inputs": [
        {
          "internalType": "address",
          "name": "_addr",
          "type": "address"
        }
      ],
      "name": "setProducteurEnPhaseCulture",
      "outputs": [],
      "stateMutability": "nonpayable",
      "type": "function"
    },
    {
      "inputs": [
        {
          "internalType": "uint32",
          "name": "_idCommande",
          "type": "uint32"
        },
        {
          "internalType": "bool",
          "name": "_valide",
          "type": "bool"
        }
      ],
      "name": "validerCommandeRecolte",
      "outputs": [],
      "stateMutability": "nonpayable",
      "type": "function"
    }
  ],
  "bytecode": "0x608060405234801561001057600080fd5b50615afb80620000216000396000f3fe6080604052600436106101b75760003560e01c806384342842116100ec578063cd3df1ed1161008a578063e550ef9911610064578063e550ef9914610613578063f1b7e5a81461063c578063f6980cc914610665578063fd643101146106a5576101b7565b8063cd3df1ed14610594578063cd60462b146105bf578063d84e632d146105ea576101b7565b80639e942cd4116100c65780639e942cd4146104cf578063b38d3aea146104fa578063b5fe20761461053e578063cb39487614610569576101b7565b806384342842146104545780638a16156e1461047d5780639d75741d146104a6576101b7565b806350346b0b116101595780636ad267d3116101335780636ad267d3146103865780636f3fd6c5146103af5780637babcffa146103f55780638428d54314610438576101b7565b806350346b0b146102f35780635293ea511461031e578063687112e21461035b576101b7565b8063257687e611610195578063257687e61461024d5780632d5b3658146102765780633e7a60491461029f578063488dee20146102c8576101b7565b80630b215e64146101bc578063182b03bc146101f957806319f1c29014610222575b600080fd5b3480156101c857600080fd5b506101e360048036038101906101de919061447f565b6106e2565b6040516101f09190615328565b60405180910390f35b34801561020557600080fd5b50610220600480360381019061021b9190614382565b610936565b005b34801561022e57600080fd5b50610237610f50565b604051610244919061536c565b60405180910390f35b34801561025957600080fd5b50610274600480360381019061026f919061430a565b610f6a565b005b34801561028257600080fd5b5061029d6004803603810190610298919061459d565b610fae565b005b3480156102ab57600080fd5b506102c660048036038101906102c1919061430a565b6118ff565b005b3480156102d457600080fd5b506102dd611943565b6040516102ea919061536c565b60405180910390f35b3480156102ff57600080fd5b50610308611957565b6040516103159190615062565b60405180910390f35b34801561032a57600080fd5b506103456004803603810190610340919061447f565b61197d565b6040516103529190615306565b60405180910390f35b34801561036757600080fd5b50610370611cb6565b60405161037d919061536c565b60405180910390f35b34801561039257600080fd5b506103ad60048036038101906103a89190614549565b611ccc565b005b3480156103bb57600080fd5b506103d660048036038101906103d1919061447f565b611d67565b6040516103ec9a99989796959493929190615566565b60405180910390f35b34801561040157600080fd5b5061041c6004803603810190610417919061447f565b611eea565b60405161042f9796959493929190615387565b60405180910390f35b610452600480360381019061044d91906145d9565b612021565b005b34801561046057600080fd5b5061047b600480360381019061047691906144d1565b612959565b005b34801561048957600080fd5b506104a4600480360381019061049f919061450d565b612d38565b005b3480156104b257600080fd5b506104cd60048036038101906104c89190614549565b612f38565b005b3480156104db57600080fd5b506104e461313f565b6040516104f19190615047565b60405180910390f35b34801561050657600080fd5b50610521600480360381019061051c919061447f565b613165565b6040516105359897969594939291906154d3565b60405180910390f35b34801561054a57600080fd5b506105536133a2565b604051610560919061536c565b60405180910390f35b34801561057557600080fd5b5061057e6133ba565b60405161058b919061536c565b60405180910390f35b3480156105a057600080fd5b506105a96133d0565b6040516105b6919061536c565b60405180910390f35b3480156105cb57600080fd5b506105d46133e6565b6040516105e1919061536c565b60405180910390f35b3480156105f657600080fd5b50610611600480360381019061060c919061430a565b613400565b005b34801561061f57600080fd5b5061063a60048036038101906106359190614549565b613444565b005b34801561064857600080fd5b50610663600480360381019061065e9190614333565b613700565b005b34801561067157600080fd5b5061068c6004803603810190610687919061447f565b613833565b60405161069c9493929190615449565b60405180910390f35b3480156106b157600080fd5b506106cc60048036038101906106c7919061447f565b613983565b6040516106d9919061534a565b60405180910390f35b6106ea613cd9565b600260008363ffffffff1663ffffffff1681526020019081526020016000206040518060e00160405290816000820160009054906101000a900463ffffffff1663ffffffff1663ffffffff1681526020016000820160049054906101000a900473ffffffffffffffffffffffffffffffffffffffff1673ffffffffffffffffffffffffffffffffffffffff1673ffffffffffffffffffffffffffffffffffffffff1681526020016001820160009054906101000a900473ffffffffffffffffffffffffffffffffffffffff1673ffffffffffffffffffffffffffffffffffffffff1673ffffffffffffffffffffffffffffffffffffffff1681526020016001820160149054906101000a900463ffffffff1663ffffffff1663ffffffff1681526020016001820160189054906101000a900460ff166002811115610857577f4e487b7100000000000000000000000000000000000000000000000000000000600052602160045260246000fd5b600281111561088f577f4e487b7100000000000000000000000000000000000000000000000000000000600052602160045260246000fd5b8152602001600282015481526020016003820180546108ad906158e4565b80601f01602080910402602001604051908101604052809291908181526020018280546108d9906158e4565b80156109265780601f106108fb57610100808354040283529160200191610926565b820191906000526020600020905b81548152906001019060200180831161090957829003601f168201915b5050505050815250509050919050565b600660009054906101000a900473ffffffffffffffffffffffffffffffffffffffff1673ffffffffffffffffffffffffffffffffffffffff1663d1e47bb33360006040518363ffffffff1660e01b8152600401610994929190615003565b60206040518083038186803b1580156109ac57600080fd5b505afa1580156109c0573d6000803e3d6000fd5b505050506040513d601f19601f820116820180604052508101906109e49190614415565b610a23576040517f08c379a0000000000000000000000000000000000000000000000000000000008152600401610a1a906150c6565b60405180910390fd5b60005b84518163ffffffff161015610ce957600760009054906101000a900473ffffffffffffffffffffffffffffffffffffffff1673ffffffffffffffffffffffffffffffffffffffff166331686f416040518163ffffffff1660e01b815260040160206040518083038186803b158015610a9d57600080fd5b505afa158015610ab1573d6000803e3d6000fd5b505050506040513d601f19601f82011682018060405250810190610ad591906144a8565b63ffffffff16858263ffffffff1681518110610b1a577f4e487b7100000000000000000000000000000000000000000000000000000000600052603260045260246000fd5b602002602001015163ffffffff161115610b69576040517f08c379a0000000000000000000000000000000000000000000000000000000008152600401610b60906151e6565b60405180910390fd5b6000600760009054906101000a900473ffffffffffffffffffffffffffffffffffffffff1673ffffffffffffffffffffffffffffffffffffffff1663421b3e08878463ffffffff1681518110610be8577f4e487b7100000000000000000000000000000000000000000000000000000000600052603260045260246000fd5b60200260200101516040518263ffffffff1660e01b8152600401610c0c919061536c565b60006040518083038186803b158015610c2457600080fd5b505afa158015610c38573d6000803e3d6000fd5b505050506040513d6000823e3d601f19601f82011682018060405250810190610c61919061443e565b90503373ffffffffffffffffffffffffffffffffffffffff16816020015173ffffffffffffffffffffffffffffffffffffffff1614610cd5576040517f08c379a0000000000000000000000000000000000000000000000000000000008152600401610ccc90615186565b60405180910390fd5b508080610ce190615916565b915050610a26565b506004600081819054906101000a900463ffffffff1680929190610d0c90615916565b91906101000a81548163ffffffff021916908363ffffffff16021790555050604051806101200160405280600460009054906101000a900463ffffffff1663ffffffff1681526020018581526020018463ffffffff1681526020018363ffffffff1681526020016000151581526020016040518060200160405280600081525081526020013373ffffffffffffffffffffffffffffffffffffffff16815260200160405180602001604052806000815250815260200182815250600080600460009054906101000a900463ffffffff1663ffffffff1663ffffffff16815260200190815260200160002060008201518160000160006101000a81548163ffffffff021916908363ffffffff1602179055506020820151816001019080519060200190610e39929190613d86565b5060408201518160020160006101000a81548163ffffffff021916908363ffffffff16021790555060608201518160020160046101000a81548163ffffffff021916908363ffffffff16021790555060808201518160020160086101000a81548160ff02191690831515021790555060a0820151816003019080519060200190610ec4929190613e36565b5060c08201518160040160006101000a81548173ffffffffffffffffffffffffffffffffffffffff021916908373ffffffffffffffffffffffffffffffffffffffff16021790555060e0820151816005019080519060200190610f28929190613e36565b50610100820151816006019080519060200190610f46929190613e36565b5090505050505050565b6000600460089054906101000a900463ffffffff16905090565b80600760006101000a81548173ffffffffffffffffffffffffffffffffffffffff021916908373ffffffffffffffffffffffffffffffffffffffff16021790555050565b600660009054906101000a900473ffffffffffffffffffffffffffffffffffffffff1673ffffffffffffffffffffffffffffffffffffffff1663d1e47bb33360036040518363ffffffff1660e01b815260040161100c929190615003565b60206040518083038186803b15801561102457600080fd5b505afa158015611038573d6000803e3d6000fd5b505050506040513d601f19601f8201168201806040525081019061105c9190614415565b61109b576040517f08c379a0000000000000000000000000000000000000000000000000000000008152600401611092906152a6565b60405180910390fd5b60008060008463ffffffff1663ffffffff168152602001908152602001600020604051806101200160405290816000820160009054906101000a900463ffffffff1663ffffffff1663ffffffff1681526020016001820180548060200260200160405190810160405280929190818152602001828054801561116857602002820191906000526020600020906000905b82829054906101000a900463ffffffff1663ffffffff168152602001906004019060208260030104928301926001038202915080841161112b5790505b505050505081526020016002820160009054906101000a900463ffffffff1663ffffffff1663ffffffff1681526020016002820160049054906101000a900463ffffffff1663ffffffff1663ffffffff1681526020016002820160089054906101000a900460ff161515151581526020016003820180546111e8906158e4565b80601f0160208091040260200160405190810160405280929190818152602001828054611214906158e4565b80156112615780601f1061123657610100808354040283529160200191611261565b820191906000526020600020905b81548152906001019060200180831161124457829003601f168201915b505050505081526020016004820160009054906101000a900473ffffffffffffffffffffffffffffffffffffffff1673ffffffffffffffffffffffffffffffffffffffff1673ffffffffffffffffffffffffffffffffffffffff1681526020016005820180546112d0906158e4565b80601f01602080910402602001604051908101604052809291908181526020018280546112fc906158e4565b80156113495780601f1061131e57610100808354040283529160200191611349565b820191906000526020600020905b81548152906001019060200180831161132c57829003601f168201915b50505050508152602001600682018054611362906158e4565b80601f016020809104026020016040519081016040528092919081815260200182805461138e906158e4565b80156113db5780601f106113b0576101008083540402835291602001916113db565b820191906000526020600020905b8154815290600101906020018083116113be57829003601f168201915b5050505050815250509050806080015161142a576040517f08c379a0000000000000000000000000000000000000000000000000000000008152600401611421906151a6565b60405180910390fd5b600460009054906101000a900463ffffffff1663ffffffff168363ffffffff16111561148b576040517f08c379a000000000000000000000000000000000000000000000000000000000815260040161148290615206565b60405180910390fd5b806040015163ffffffff168263ffffffff1611156114de576040517f08c379a00000000000000000000000000000000000000000000000000000000081526004016114d590615266565b60405180910390fd5b816000808563ffffffff1663ffffffff16815260200190815260200160002060020160008282829054906101000a900463ffffffff1661151e919061573a565b92506101000a81548163ffffffff021916908363ffffffff16021790555060048081819054906101000a900463ffffffff168092919061155d90615916565b91906101000a81548163ffffffff021916908363ffffffff16021790555050600082826060015161158e91906156fc565b905060405180610140016040528060048054906101000a900463ffffffff1663ffffffff1681526020018563ffffffff1681526020018463ffffffff1681526020018263ffffffff1681526020016000151581526020016000600181111561161f577f4e487b7100000000000000000000000000000000000000000000000000000000600052602160045260246000fd5b81526020018360c0015173ffffffffffffffffffffffffffffffffffffffff1681526020013373ffffffffffffffffffffffffffffffffffffffff1681526020016000600281111561169a577f4e487b7100000000000000000000000000000000000000000000000000000000600052602160045260246000fd5b8152602001604051806020016040528060008152508152506001600060048054906101000a900463ffffffff1663ffffffff1663ffffffff16815260200190815260200160002060008201518160000160006101000a81548163ffffffff021916908363ffffffff16021790555060208201518160000160046101000a81548163ffffffff021916908363ffffffff16021790555060408201518160000160086101000a81548163ffffffff021916908363ffffffff160217905550606082015181600001600c6101000a81548163ffffffff021916908363ffffffff16021790555060808201518160000160106101000a81548160ff02191690831515021790555060a08201518160000160116101000a81548160ff021916908360018111156117ee577f4e487b7100000000000000000000000000000000000000000000000000000000600052602160045260246000fd5b021790555060c08201518160010160006101000a81548173ffffffffffffffffffffffffffffffffffffffff021916908373ffffffffffffffffffffffffffffffffffffffff16021790555060e08201518160020160006101000a81548173ffffffffffffffffffffffffffffffffffffffff021916908373ffffffffffffffffffffffffffffffffffffffff1602179055506101008201518160020160146101000a81548160ff021916908360028111156118d3577f4e487b7100000000000000000000000000000000000000000000000000000000600052602160045260246000fd5b02179055506101208201518160030190805190602001906118f5929190613e36565b5090505050505050565b80600660006101000a81548173ffffffffffffffffffffffffffffffffffffffff021916908373ffffffffffffffffffffffffffffffffffffffff16021790555050565b60048054906101000a900463ffffffff1681565b600760009054906101000a900473ffffffffffffffffffffffffffffffffffffffff1681565b611985613ebc565b600160008363ffffffff1663ffffffff168152602001908152602001600020604051806101400160405290816000820160009054906101000a900463ffffffff1663ffffffff1663ffffffff1681526020016000820160049054906101000a900463ffffffff1663ffffffff1663ffffffff1681526020016000820160089054906101000a900463ffffffff1663ffffffff1663ffffffff16815260200160008201600c9054906101000a900463ffffffff1663ffffffff1663ffffffff1681526020016000820160109054906101000a900460ff161515151581526020016000820160119054906101000a900460ff166001811115611aae577f4e487b7100000000000000000000000000000000000000000000000000000000600052602160045260246000fd5b6001811115611ae6577f4e487b7100000000000000000000000000000000000000000000000000000000600052602160045260246000fd5b81526020016001820160009054906101000a900473ffffffffffffffffffffffffffffffffffffffff1673ffffffffffffffffffffffffffffffffffffffff1673ffffffffffffffffffffffffffffffffffffffff1681526020016002820160009054906101000a900473ffffffffffffffffffffffffffffffffffffffff1673ffffffffffffffffffffffffffffffffffffffff1673ffffffffffffffffffffffffffffffffffffffff1681526020016002820160149054906101000a900460ff166002811115611be1577f4e487b7100000000000000000000000000000000000000000000000000000000600052602160045260246000fd5b6002811115611c19577f4e487b7100000000000000000000000000000000000000000000000000000000600052602160045260246000fd5b8152602001600382018054611c2d906158e4565b80601f0160208091040260200160405190810160405280929190818152602001828054611c59906158e4565b8015611ca65780601f10611c7b57610100808354040283529160200191611ca6565b820191906000526020600020905b815481529060010190602001808311611c8957829003601f168201915b5050505050815250509050919050565b6004600c9054906101000a900463ffffffff1681565b600460009054906101000a900463ffffffff1663ffffffff168263ffffffff161115611d2d576040517f08c379a0000000000000000000000000000000000000000000000000000000008152600401611d24906150a6565b60405180910390fd5b806000808463ffffffff1663ffffffff1681526020019081526020016000206005019080519060200190611d62929190613e36565b505050565b60016020528060005260406000206000915090508060000160009054906101000a900463ffffffff16908060000160049054906101000a900463ffffffff16908060000160089054906101000a900463ffffffff169080600001600c9054906101000a900463ffffffff16908060000160109054906101000a900460ff16908060000160119054906101000a900460ff16908060010160009054906101000a900473ffffffffffffffffffffffffffffffffffffffff16908060020160009054906101000a900473ffffffffffffffffffffffffffffffffffffffff16908060020160149054906101000a900460ff1690806003018054611e67906158e4565b80601f0160208091040260200160405190810160405280929190818152602001828054611e93906158e4565b8015611ee05780601f10611eb557610100808354040283529160200191611ee0565b820191906000526020600020905b815481529060010190602001808311611ec357829003601f168201915b505050505090508a565b60026020528060005260406000206000915090508060000160009054906101000a900463ffffffff16908060000160049054906101000a900473ffffffffffffffffffffffffffffffffffffffff16908060010160009054906101000a900473ffffffffffffffffffffffffffffffffffffffff16908060010160149054906101000a900463ffffffff16908060010160189054906101000a900460ff1690806002015490806003018054611f9e906158e4565b80601f0160208091040260200160405190810160405280929190818152602001828054611fca906158e4565b80156120175780601f10611fec57610100808354040283529160200191612017565b820191906000526020600020905b815481529060010190602001808311611ffa57829003601f168201915b5050505050905087565b600660009054906101000a900473ffffffffffffffffffffffffffffffffffffffff1673ffffffffffffffffffffffffffffffffffffffff1663d1e47bb33360036040518363ffffffff1660e01b815260040161207f929190615003565b60206040518083038186803b15801561209757600080fd5b505afa1580156120ab573d6000803e3d6000fd5b505050506040513d601f19601f820116820180604052508101906120cf9190614415565b61210e576040517f08c379a0000000000000000000000000000000000000000000000000000000008152600401612105906152a6565b60405180910390fd5b6000600160008563ffffffff1663ffffffff168152602001908152602001600020604051806101400160405290816000820160009054906101000a900463ffffffff1663ffffffff1663ffffffff1681526020016000820160049054906101000a900463ffffffff1663ffffffff1663ffffffff1681526020016000820160089054906101000a900463ffffffff1663ffffffff1663ffffffff16815260200160008201600c9054906101000a900463ffffffff1663ffffffff1663ffffffff1681526020016000820160109054906101000a900460ff161515151581526020016000820160119054906101000a900460ff166001811115612239577f4e487b7100000000000000000000000000000000000000000000000000000000600052602160045260246000fd5b6001811115612271577f4e487b7100000000000000000000000000000000000000000000000000000000600052602160045260246000fd5b81526020016001820160009054906101000a900473ffffffffffffffffffffffffffffffffffffffff1673ffffffffffffffffffffffffffffffffffffffff1673ffffffffffffffffffffffffffffffffffffffff1681526020016002820160009054906101000a900473ffffffffffffffffffffffffffffffffffffffff1673ffffffffffffffffffffffffffffffffffffffff1673ffffffffffffffffffffffffffffffffffffffff1681526020016002820160149054906101000a900460ff16600281111561236c577f4e487b7100000000000000000000000000000000000000000000000000000000600052602160045260246000fd5b60028111156123a4577f4e487b7100000000000000000000000000000000000000000000000000000000600052602160045260246000fd5b81526020016003820180546123b8906158e4565b80601f01602080910402602001604051908101604052809291908181526020018280546123e4906158e4565b80156124315780601f1061240657610100808354040283529160200191612431565b820191906000526020600020905b81548152906001019060200180831161241457829003601f168201915b505050505081525050905060048054906101000a900463ffffffff1663ffffffff168463ffffffff16111561249b576040517f08c379a000000000000000000000000000000000000000000000000000000000815260040161249290615106565b60405180910390fd5b8060800151156124e0576040517f08c379a00000000000000000000000000000000000000000000000000000000081526004016124d790615246565b60405180910390fd5b806060015163ffffffff168363ffffffff1614612532576040517f08c379a0000000000000000000000000000000000000000000000000000000008152600401612529906150e6565b60405180910390fd5b6001600281111561256c577f4e487b7100000000000000000000000000000000000000000000000000000000600052602160045260246000fd5b81610100015160028111156125aa577f4e487b7100000000000000000000000000000000000000000000000000000000600052602160045260246000fd5b146125ea576040517f08c379a00000000000000000000000000000000000000000000000000000000081526004016125e190615286565b60405180910390fd5b600560009054906101000a900473ffffffffffffffffffffffffffffffffffffffff1673ffffffffffffffffffffffffffffffffffffffff1663c1f73cfa82602001518360400151336040518463ffffffff1660e01b81526004016126519392919061549c565b600060405180830381600087803b15801561266b57600080fd5b505af115801561267f573d6000803e3d6000fd5b5050505060018060008663ffffffff1663ffffffff16815260200190815260200160002060000160106101000a81548160ff0219169083151502179055506004600881819054906101000a900463ffffffff16809291906126df90615916565b91906101000a81548163ffffffff021916908363ffffffff160217905550506040518060e00160405280600460089054906101000a900463ffffffff1663ffffffff1681526020013373ffffffffffffffffffffffffffffffffffffffff1681526020018260c0015173ffffffffffffffffffffffffffffffffffffffff1681526020018463ffffffff1681526020018360028111156127a8577f4e487b7100000000000000000000000000000000000000000000000000000000600052602160045260246000fd5b81526020014281526020016040518060200160405280600081525081525060026000600460089054906101000a900463ffffffff1663ffffffff1663ffffffff16815260200190815260200160002060008201518160000160006101000a81548163ffffffff021916908363ffffffff16021790555060208201518160000160046101000a81548173ffffffffffffffffffffffffffffffffffffffff021916908373ffffffffffffffffffffffffffffffffffffffff16021790555060408201518160010160006101000a81548173ffffffffffffffffffffffffffffffffffffffff021916908373ffffffffffffffffffffffffffffffffffffffff16021790555060608201518160010160146101000a81548163ffffffff021916908363ffffffff16021790555060808201518160010160186101000a81548160ff02191690836002811115612924577f4e487b7100000000000000000000000000000000000000000000000000000000600052602160045260246000fd5b021790555060a0820151816002015560c082015181600301908051906020019061294f929190613e36565b5090505050505050565b600660009054906101000a900473ffffffffffffffffffffffffffffffffffffffff1673ffffffffffffffffffffffffffffffffffffffff1663d1e47bb33360036040518363ffffffff1660e01b81526004016129b7929190615003565b60206040518083038186803b1580156129cf57600080fd5b505afa1580156129e3573d6000803e3d6000fd5b505050506040513d601f19601f82011682018060405250810190612a079190614415565b612a46576040517f08c379a0000000000000000000000000000000000000000000000000000000008152600401612a3d906152a6565b60405180910390fd5b600180811115612a7f577f4e487b7100000000000000000000000000000000000000000000000000000000600052602160045260246000fd5b600160008463ffffffff1663ffffffff16815260200190815260200160002060000160119054906101000a900460ff166001811115612ae7577f4e487b7100000000000000000000000000000000000000000000000000000000600052602160045260246000fd5b14612b27576040517f08c379a0000000000000000000000000000000000000000000000000000000008152600401612b1e90615146565b60405180910390fd5b60006002811115612b61577f4e487b7100000000000000000000000000000000000000000000000000000000600052602160045260246000fd5b600160008463ffffffff1663ffffffff16815260200190815260200160002060020160149054906101000a900460ff166002811115612bc9577f4e487b7100000000000000000000000000000000000000000000000000000000600052602160045260246000fd5b14612c09576040517f08c379a0000000000000000000000000000000000000000000000000000000008152600401612c00906151c6565b60405180910390fd5b8015612c845760018060008463ffffffff1663ffffffff16815260200190815260200160002060020160146101000a81548160ff02191690836002811115612c7a577f4e487b7100000000000000000000000000000000000000000000000000000000600052602160045260246000fd5b0217905550612cf6565b6002600160008463ffffffff1663ffffffff16815260200190815260200160002060020160146101000a81548160ff02191690836002811115612cf0577f4e487b7100000000000000000000000000000000000000000000000000000000600052602160045260246000fd5b02179055505b8163ffffffff167f1df7b2ecf94baf358d5ffc6f43b2769c0b74ac06ff426c80d5eb4106388cb5de82604051612d2c919061502c565b60405180910390a25050565b600660009054906101000a900473ffffffffffffffffffffffffffffffffffffffff1673ffffffffffffffffffffffffffffffffffffffff1663d1e47bb33360056040518363ffffffff1660e01b8152600401612d96929190615003565b60206040518083038186803b158015612dae57600080fd5b505afa158015612dc2573d6000803e3d6000fd5b505050506040513d601f19601f82011682018060405250810190612de69190614415565b612e25576040517f08c379a0000000000000000000000000000000000000000000000000000000008152600401612e1c906152e6565b60405180910390fd5b60048054906101000a900463ffffffff1663ffffffff168263ffffffff161115612e84576040517f08c379a0000000000000000000000000000000000000000000000000000000008152600401612e7b90615166565b60405180910390fd5b80600160008463ffffffff1663ffffffff16815260200190815260200160002060000160116101000a81548160ff02191690836001811115612eef577f4e487b7100000000000000000000000000000000000000000000000000000000600052602160045260246000fd5b02179055508163ffffffff167fdf2375389a03dd9f2d36dff2466341955c40fe075e8b33507857bd82908a52698233604051612f2c92919061507d565b60405180910390a25050565b600660009054906101000a900473ffffffffffffffffffffffffffffffffffffffff1673ffffffffffffffffffffffffffffffffffffffff1663d1e47bb33360026040518363ffffffff1660e01b8152600401612f96929190615003565b60206040518083038186803b158015612fae57600080fd5b505afa158015612fc2573d6000803e3d6000fd5b505050506040513d601f19601f82011682018060405250810190612fe69190614415565b613025576040517f08c379a000000000000000000000000000000000000000000000000000000000815260040161301c90615126565b60405180910390fd5b600460009054906101000a900463ffffffff1663ffffffff168263ffffffff161115613086576040517f08c379a000000000000000000000000000000000000000000000000000000000815260040161307d90615206565b60405180910390fd5b6000815114156130cb576040517f08c379a00000000000000000000000000000000000000000000000000000000081526004016130c290615226565b60405180910390fd5b60016000808463ffffffff1663ffffffff16815260200190815260200160002060020160086101000a81548160ff021916908315150217905550806000808463ffffffff1663ffffffff168152602001908152602001600020600301908051906020019061313a929190613e36565b505050565b600660009054906101000a900473ffffffffffffffffffffffffffffffffffffffff1681565b60006020528060005260406000206000915090508060000160009054906101000a900463ffffffff16908060020160009054906101000a900463ffffffff16908060020160049054906101000a900463ffffffff16908060020160089054906101000a900460ff16908060030180546131dd906158e4565b80601f0160208091040260200160405190810160405280929190818152602001828054613209906158e4565b80156132565780601f1061322b57610100808354040283529160200191613256565b820191906000526020600020905b81548152906001019060200180831161323957829003601f168201915b5050505050908060040160009054906101000a900473ffffffffffffffffffffffffffffffffffffffff1690806005018054613291906158e4565b80601f01602080910402602001604051908101604052809291908181526020018280546132bd906158e4565b801561330a5780601f106132df5761010080835404028352916020019161330a565b820191906000526020600020905b8154815290600101906020018083116132ed57829003601f168201915b50505050509080600601805461331f906158e4565b80601f016020809104026020016040519081016040528092919081815260200182805461334b906158e4565b80156133985780601f1061336d57610100808354040283529160200191613398565b820191906000526020600020905b81548152906001019060200180831161337b57829003601f168201915b5050505050905088565b600060048054906101000a900463ffffffff16905090565b600460009054906101000a900463ffffffff1681565b600460089054906101000a900463ffffffff1681565b6000600460009054906101000a900463ffffffff16905090565b80600560006101000a81548173ffffffffffffffffffffffffffffffffffffffff021916908373ffffffffffffffffffffffffffffffffffffffff16021790555050565b600660009054906101000a900473ffffffffffffffffffffffffffffffffffffffff1673ffffffffffffffffffffffffffffffffffffffff1663d1e47bb33360056040518363ffffffff1660e01b81526004016134a2929190615003565b60206040518083038186803b1580156134ba57600080fd5b505afa1580156134ce573d6000803e3d6000fd5b505050506040513d601f19601f820116820180604052508101906134f29190614415565b613531576040517f08c379a0000000000000000000000000000000000000000000000000000000008152600401613528906152e6565b60405180910390fd5b60048054906101000a900463ffffffff1663ffffffff168263ffffffff161115613590576040517f08c379a000000000000000000000000000000000000000000000000000000000815260040161358790615166565b60405180910390fd5b6004600c81819054906101000a900463ffffffff16809291906135b290615916565b91906101000a81548163ffffffff021916908363ffffffff1602179055505060405180608001604052806004600c9054906101000a900463ffffffff1663ffffffff16815260200182815260200142815260200160405180602001604052806000815250815250600360008463ffffffff1663ffffffff16815260200190815260200160002060008201518160000160006101000a81548163ffffffff021916908363ffffffff160217905550602082015181600101908051906020019061367b929190613e36565b506040820151816002015560608201518160030190805190602001906136a2929190613e36565b509050508163ffffffff167f696e1ec8827a44ba5ad6a67bfb539312f102633592f290e020053585fb21dd2d6004600c9054906101000a900463ffffffff168342336040516136f494939291906153fd565b60405180910390a25050565b600760149054906101000a900460ff1615613750576040517f08c379a0000000000000000000000000000000000000000000000000000000008152600401613747906152c6565b60405180910390fd5b82600560006101000a81548173ffffffffffffffffffffffffffffffffffffffff021916908373ffffffffffffffffffffffffffffffffffffffff16021790555081600660006101000a81548173ffffffffffffffffffffffffffffffffffffffff021916908373ffffffffffffffffffffffffffffffffffffffff16021790555080600760006101000a81548173ffffffffffffffffffffffffffffffffffffffff021916908373ffffffffffffffffffffffffffffffffffffffff1602179055506001600760146101000a81548160ff021916908315150217905550505050565b60036020528060005260406000206000915090508060000160009054906101000a900463ffffffff169080600101805461386c906158e4565b80601f0160208091040260200160405190810160405280929190818152602001828054613898906158e4565b80156138e55780601f106138ba576101008083540402835291602001916138e5565b820191906000526020600020905b8154815290600101906020018083116138c857829003601f168201915b505050505090806002015490806003018054613900906158e4565b80601f016020809104026020016040519081016040528092919081815260200182805461392c906158e4565b80156139795780601f1061394e57610100808354040283529160200191613979565b820191906000526020600020905b81548152906001019060200180831161395c57829003601f168201915b5050505050905084565b61398b613fc5565b6000808363ffffffff1663ffffffff168152602001908152602001600020604051806101200160405290816000820160009054906101000a900463ffffffff1663ffffffff1663ffffffff16815260200160018201805480602002602001604051908101604052809291908181526020018280548015613a5657602002820191906000526020600020906000905b82829054906101000a900463ffffffff1663ffffffff1681526020019060040190602082600301049283019260010382029150808411613a195790505b505050505081526020016002820160009054906101000a900463ffffffff1663ffffffff1663ffffffff1681526020016002820160049054906101000a900463ffffffff1663ffffffff1663ffffffff1681526020016002820160089054906101000a900460ff16151515158152602001600382018054613ad6906158e4565b80601f0160208091040260200160405190810160405280929190818152602001828054613b02906158e4565b8015613b4f5780601f10613b2457610100808354040283529160200191613b4f565b820191906000526020600020905b815481529060010190602001808311613b3257829003601f168201915b505050505081526020016004820160009054906101000a900473ffffffffffffffffffffffffffffffffffffffff1673ffffffffffffffffffffffffffffffffffffffff1673ffffffffffffffffffffffffffffffffffffffff168152602001600582018054613bbe906158e4565b80601f0160208091040260200160405190810160405280929190818152602001828054613bea906158e4565b8015613c375780601f10613c0c57610100808354040283529160200191613c37565b820191906000526020600020905b815481529060010190602001808311613c1a57829003601f168201915b50505050508152602001600682018054613c50906158e4565b80601f0160208091040260200160405190810160405280929190818152602001828054613c7c906158e4565b8015613cc95780601f10613c9e57610100808354040283529160200191613cc9565b820191906000526020600020905b815481529060010190602001808311613cac57829003601f168201915b5050505050815250509050919050565b6040518060e00160405280600063ffffffff168152602001600073ffffffffffffffffffffffffffffffffffffffff168152602001600073ffffffffffffffffffffffffffffffffffffffff168152602001600063ffffffff16815260200160006002811115613d72577f4e487b7100000000000000000000000000000000000000000000000000000000600052602160045260246000fd5b815260200160008152602001606081525090565b82805482825590600052602060002090600701600890048101928215613e255791602002820160005b83821115613df357835183826101000a81548163ffffffff021916908363ffffffff1602179055509260200192600401602081600301049283019260010302613daf565b8015613e235782816101000a81549063ffffffff0219169055600401602081600301049283019260010302613df3565b505b509050613e32919061403b565b5090565b828054613e42906158e4565b90600052602060002090601f016020900481019282613e645760008555613eab565b82601f10613e7d57805160ff1916838001178555613eab565b82800160010185558215613eab579182015b82811115613eaa578251825591602001919060010190613e8f565b5b509050613eb8919061403b565b5090565b604051806101400160405280600063ffffffff168152602001600063ffffffff168152602001600063ffffffff168152602001600063ffffffff16815260200160001515815260200160006001811115613f3f577f4e487b7100000000000000000000000000000000000000000000000000000000600052602160045260246000fd5b8152602001600073ffffffffffffffffffffffffffffffffffffffff168152602001600073ffffffffffffffffffffffffffffffffffffffff16815260200160006002811115613fb8577f4e487b7100000000000000000000000000000000000000000000000000000000600052602160045260246000fd5b8152602001606081525090565b604051806101200160405280600063ffffffff16815260200160608152602001600063ffffffff168152602001600063ffffffff16815260200160001515815260200160608152602001600073ffffffffffffffffffffffffffffffffffffffff16815260200160608152602001606081525090565b5b8082111561405457600081600090555060010161403c565b5090565b600061406b6140668461563a565b615609565b9050808382526020820190508285602086028201111561408a57600080fd5b60005b858110156140ba57816140a088826142e0565b84526020840193506020830192505060018101905061408d565b5050509392505050565b60006140d76140d284615666565b615609565b9050828152602081018484840111156140ef57600080fd5b6140fa8482856158a2565b509392505050565b600061411561411084615666565b615609565b90508281526020810184848401111561412d57600080fd5b6141388482856158b1565b509392505050565b60008135905061414f81615a60565b92915050565b60008151905061416481615a60565b92915050565b600082601f83011261417b57600080fd5b813561418b848260208601614058565b91505092915050565b6000813590506141a381615a77565b92915050565b6000815190506141b881615a77565b92915050565b6000813590506141cd81615a8e565b92915050565b6000813590506141e281615a9e565b92915050565b600082601f8301126141f957600080fd5b81356142098482602086016140c4565b91505092915050565b600082601f83011261422357600080fd5b8151614233848260208601614102565b91505092915050565b60006080828403121561424e57600080fd5b6142586080615609565b90506000614268848285016142f5565b600083015250602061427c84828501614155565b602083015250604082015167ffffffffffffffff81111561429c57600080fd5b6142a884828501614212565b604083015250606082015167ffffffffffffffff8111156142c857600080fd5b6142d484828501614212565b60608301525092915050565b6000813590506142ef81615aae565b92915050565b60008151905061430481615aae565b92915050565b60006020828403121561431c57600080fd5b600061432a84828501614140565b91505092915050565b60008060006060848603121561434857600080fd5b600061435686828701614140565b935050602061436786828701614140565b925050604061437886828701614140565b9150509250925092565b6000806000806080858703121561439857600080fd5b600085013567ffffffffffffffff8111156143b257600080fd5b6143be8782880161416a565b94505060206143cf878288016142e0565b93505060406143e0878288016142e0565b925050606085013567ffffffffffffffff8111156143fd57600080fd5b614409878288016141e8565b91505092959194509250565b60006020828403121561442757600080fd5b6000614435848285016141a9565b91505092915050565b60006020828403121561445057600080fd5b600082015167ffffffffffffffff81111561446a57600080fd5b6144768482850161423c565b91505092915050565b60006020828403121561449157600080fd5b600061449f848285016142e0565b91505092915050565b6000602082840312156144ba57600080fd5b60006144c8848285016142f5565b91505092915050565b600080604083850312156144e457600080fd5b60006144f2858286016142e0565b925050602061450385828601614194565b9150509250929050565b6000806040838503121561452057600080fd5b600061452e858286016142e0565b925050602061453f858286016141d3565b9150509250929050565b6000806040838503121561455c57600080fd5b600061456a858286016142e0565b925050602083013567ffffffffffffffff81111561458757600080fd5b614593858286016141e8565b9150509250929050565b600080604083850312156145b057600080fd5b60006145be858286016142e0565b92505060206145cf858286016142e0565b9150509250929050565b6000806000606084860312156145ee57600080fd5b60006145fc868287016142e0565b935050602061460d868287016142e0565b925050604061461e868287016141be565b9150509250925092565b60006146348383614fe5565b60208301905092915050565b6146498161576e565b82525050565b6146588161576e565b82525050565b6000614669826156a6565b61467381856156c9565b935061467e83615696565b8060005b838110156146af5781516146968882614628565b97506146a1836156bc565b925050600181019050614682565b5085935050505092915050565b6146c581615780565b82525050565b6146d481615780565b82525050565b6146e381615812565b82525050565b6146f281615836565b82525050565b6147018161585a565b82525050565b6147108161585a565b82525050565b61471f8161586c565b82525050565b61472e8161587e565b82525050565b61473d8161587e565b82525050565b61474c81615890565b82525050565b61475b81615890565b82525050565b600061476c826156b1565b61477681856156da565b93506147868185602086016158b1565b61478f816159ff565b840191505092915050565b60006147a5826156b1565b6147af81856156eb565b93506147bf8185602086016158b1565b6147c8816159ff565b840191505092915050565b60006147e06015836156eb565b91507f5265636f6c7465206e6f6e206578697374616e742e00000000000000000000006000830152602082019050919050565b60006148206022836156eb565b91507f4e6f6e206175746f726973653a207365756c656d656e742050726f647563746560008301527f75720000000000000000000000000000000000000000000000000000000000006020830152604082019050919050565b6000614886600e836156eb565b91507f5072697820696e636f72726563740000000000000000000000000000000000006000830152602082019050919050565b60006148c66015836156eb565b91507f436f6d6d616e6465206e6f6e206578697374616e7400000000000000000000006000830152602082019050919050565b60006149066025836156eb565b91507f4e6f6e206175746f726973653a207365756c656d656e7420436572746966696360008301527f61746575720000000000000000000000000000000000000000000000000000006020830152604082019050919050565b600061496c601b836156eb565b91507f436f6d6d616e64652070617320656e636f7265206172726976657200000000006000830152602082019050919050565b60006149ac6019836156eb565b91507f4c6120636f6d6d616e6465206e27657869737465207061732e000000000000006000830152602082019050919050565b60006149ec6028836156eb565b91507f566f7573206e27657374207061732070726f707269657461697265206475207060008301527f617263656c6c652e0000000000000000000000000000000000000000000000006020830152604082019050919050565b6000614a526014836156eb565b91507f5265636f6c7465206e6f6e2063657274696669650000000000000000000000006000830152602082019050919050565b6000614a926016836156eb565b91507f436f6d6d616e64652064656a6120747261697465722e000000000000000000006000830152602082019050919050565b6000614ad26016836156eb565b91507f50617263656c6c65206e6f6e206578697374616e742e000000000000000000006000830152602082019050919050565b6000614b126014836156eb565b91507f5265636f6c7465206e6f6e206578697374616e740000000000000000000000006000830152602082019050919050565b6000614b52600f836156eb565b91507f43657274696669636174207669646500000000000000000000000000000000006000830152602082019050919050565b6000614b926013836156eb565b91507f436f6d6d616e64652064656a61207061796572000000000000000000000000006000830152602082019050919050565b6000614bd26036836156eb565b91507f5175616e746974652074726f70206772616e642070617220726170706f72742060008301527f6175207175616e7469746520646973706f6e69626c65000000000000000000006020830152604082019050919050565b6000614c386014836156eb565b91507f50726f64756974206e6f6e2076616c696465722e0000000000000000000000006000830152602082019050919050565b6000614c786022836156eb565b91507f4e6f6e206175746f726973653a207365756c656d656e7420436f6c6c6563746560008301527f75720000000000000000000000000000000000000000000000000000000000006020830152604082019050919050565b6000614cde601a836156eb565b91507f436f6e747261742064656a6120696e697469616c6973657220210000000000006000830152602082019050919050565b6000614d1e6024836156eb565b91507f4e6f6e206175746f726973653a207365756c656d656e74205472616e73706f7260008301527f74657572000000000000000000000000000000000000000000000000000000006020830152604082019050919050565b600061014083016000830151614d906000860182614fe5565b506020830151614da36020860182614fe5565b506040830151614db66040860182614fe5565b506060830151614dc96060860182614fe5565b506080830151614ddc60808601826146bc565b5060a0830151614def60a0860182614743565b5060c0830151614e0260c0860182614640565b5060e0830151614e1560e0860182614640565b50610100830151614e2a610100860182614725565b50610120830151848203610120860152614e448282614761565b9150508091505092915050565b600060e083016000830151614e696000860182614fe5565b506020830151614e7c6020860182614640565b506040830151614e8f6040860182614640565b506060830151614ea26060860182614fe5565b506080830151614eb560808601826146f8565b5060a0830151614ec860a0860182614fc7565b5060c083015184820360c0860152614ee08282614761565b9150508091505092915050565b600061012083016000830151614f066000860182614fe5565b5060208301518482036020860152614f1e828261465e565b9150506040830151614f336040860182614fe5565b506060830151614f466060860182614fe5565b506080830151614f5960808601826146bc565b5060a083015184820360a0860152614f718282614761565b91505060c0830151614f8660c0860182614640565b5060e083015184820360e0860152614f9e8282614761565b915050610100830151848203610100860152614fba8282614761565b9150508091505092915050565b614fd0816157f8565b82525050565b614fdf816157f8565b82525050565b614fee81615802565b82525050565b614ffd81615802565b82525050565b6000604082019050615018600083018561464f565b6150256020830184614716565b9392505050565b600060208201905061504160008301846146cb565b92915050565b600060208201905061505c60008301846146da565b92915050565b600060208201905061507760008301846146e9565b92915050565b60006040820190506150926000830185614752565b61509f602083018461464f565b9392505050565b600060208201905081810360008301526150bf816147d3565b9050919050565b600060208201905081810360008301526150df81614813565b9050919050565b600060208201905081810360008301526150ff81614879565b9050919050565b6000602082019050818103600083015261511f816148b9565b9050919050565b6000602082019050818103600083015261513f816148f9565b9050919050565b6000602082019050818103600083015261515f8161495f565b9050919050565b6000602082019050818103600083015261517f8161499f565b9050919050565b6000602082019050818103600083015261519f816149df565b9050919050565b600060208201905081810360008301526151bf81614a45565b9050919050565b600060208201905081810360008301526151df81614a85565b9050919050565b600060208201905081810360008301526151ff81614ac5565b9050919050565b6000602082019050818103600083015261521f81614b05565b9050919050565b6000602082019050818103600083015261523f81614b45565b9050919050565b6000602082019050818103600083015261525f81614b85565b9050919050565b6000602082019050818103600083015261527f81614bc5565b9050919050565b6000602082019050818103600083015261529f81614c2b565b9050919050565b600060208201905081810360008301526152bf81614c6b565b9050919050565b600060208201905081810360008301526152df81614cd1565b9050919050565b600060208201905081810360008301526152ff81614d11565b9050919050565b600060208201905081810360008301526153208184614d77565b905092915050565b600060208201905081810360008301526153428184614e51565b905092915050565b600060208201905081810360008301526153648184614eed565b905092915050565b60006020820190506153816000830184614ff4565b92915050565b600060e08201905061539c600083018a614ff4565b6153a9602083018961464f565b6153b6604083018861464f565b6153c36060830187614ff4565b6153d06080830186614707565b6153dd60a0830185614fd6565b81810360c08301526153ef818461479a565b905098975050505050505050565b60006080820190506154126000830187614ff4565b8181036020830152615424818661479a565b90506154336040830185614fd6565b615440606083018461464f565b95945050505050565b600060808201905061545e6000830187614ff4565b8181036020830152615470818661479a565b905061547f6040830185614fd6565b8181036060830152615491818461479a565b905095945050505050565b60006060820190506154b16000830186614ff4565b6154be6020830185614ff4565b6154cb604083018461464f565b949350505050565b6000610100820190506154e9600083018b614ff4565b6154f6602083018a614ff4565b6155036040830189614ff4565b61551060608301886146cb565b8181036080830152615522818761479a565b905061553160a083018661464f565b81810360c0830152615543818561479a565b905081810360e0830152615557818461479a565b90509998505050505050505050565b60006101408201905061557c600083018d614ff4565b615589602083018c614ff4565b615596604083018b614ff4565b6155a3606083018a614ff4565b6155b060808301896146cb565b6155bd60a0830188614752565b6155ca60c083018761464f565b6155d760e083018661464f565b6155e5610100830185614734565b8181036101208301526155f8818461479a565b90509b9a5050505050505050505050565b6000604051905081810181811067ffffffffffffffff821117156156305761562f6159d0565b5b8060405250919050565b600067ffffffffffffffff821115615655576156546159d0565b5b602082029050602081019050919050565b600067ffffffffffffffff821115615681576156806159d0565b5b601f19601f8301169050602081019050919050565b6000819050602082019050919050565b600081519050919050565b600081519050919050565b6000602082019050919050565b600082825260208201905092915050565b600082825260208201905092915050565b600082825260208201905092915050565b600061570782615802565b915061571283615802565b92508163ffffffff048311821515161561572f5761572e615943565b5b828202905092915050565b600061574582615802565b915061575083615802565b92508282101561576357615762615943565b5b828203905092915050565b6000615779826157d8565b9050919050565b60008115159050919050565b600081905061579a82615a10565b919050565b60008190506157ad82615a24565b919050565b60008190506157c082615a38565b919050565b60008190506157d382615a4c565b919050565b600073ffffffffffffffffffffffffffffffffffffffff82169050919050565b6000819050919050565b600063ffffffff82169050919050565b600061581d82615824565b9050919050565b600061582f826157d8565b9050919050565b600061584182615848565b9050919050565b6000615853826157d8565b9050919050565b60006158658261578c565b9050919050565b60006158778261579f565b9050919050565b6000615889826157b2565b9050919050565b600061589b826157c5565b9050919050565b82818337600083830152505050565b60005b838110156158cf5780820151818401526020810190506158b4565b838111156158de576000848401525b50505050565b600060028204905060018216806158fc57607f821691505b602082108114156159105761590f6159a1565b5b50919050565b600061592182615802565b915063ffffffff82141561593857615937615943565b5b600182019050919050565b7f4e487b7100000000000000000000000000000000000000000000000000000000600052601160045260246000fd5b7f4e487b7100000000000000000000000000000000000000000000000000000000600052602160045260246000fd5b7f4e487b7100000000000000000000000000000000000000000000000000000000600052602260045260246000fd5b7f4e487b7100000000000000000000000000000000000000000000000000000000600052604160045260246000fd5b6000601f19601f8301169050919050565b60038110615a2157615a20615972565b5b50565b60088110615a3557615a34615972565b5b50565b60038110615a4957615a48615972565b5b50565b60028110615a5d57615a5c615972565b5b50565b615a698161576e565b8114615a7457600080fd5b50565b615a8081615780565b8114615a8b57600080fd5b50565b60038110615a9b57600080fd5b50565b60028110615aab57600080fd5b50565b615ab781615802565b8114615ac257600080fd5b5056fea2646970667358221220f69e76b6e0a96acd31bc673987c626d710e3af7f8d7c479712e3aa1d2ed7046064736f6c63430008000033",
  "linkReferences": {},
  "deployedLinkReferences": {}
}