{
  "_format": "hh-sol-artifact-1",
  "contractName": "CollecteurExportateur",
  "sourceName": "contracts/CollecteurExportateur.sol",
  "abi": [
    {
      "inputs": [
        {
          "internalType": "address",
          "name": "_gestionnaireActeurs",
          "type": "address"
        }
      ],
      "stateMutability": "nonpayable",
      "type": "constructor"
    },
    {
      "anonymous": false,
      "inputs": [
        {
          "indexed": true,
          "internalType": "address",
          "name": "exportateur",
          "type": "address"
        },
        {
          "indexed": false,
          "internalType": "uint32",
          "name": "idProduit",
          "type": "uint32"
        }
      ],
      "name": "CommandePasser",
      "type": "event"
    },
    {
      "anonymous": false,
      "inputs": [
        {
          "indexed": true,
          "internalType": "uint32",
          "name": "idProduit",
          "type": "uint32"
        },
        {
          "indexed": false,
          "internalType": "uint32",
          "name": "idCondition",
          "type": "uint32"
        },
        {
          "indexed": false,
          "internalType": "string",
          "name": "temperature",
          "type": "string"
        },
        {
          "indexed": false,
          "internalType": "string",
          "name": "humidite",
          "type": "string"
        },
        {
          "indexed": false,
          "internalType": "uint256",
          "name": "timestamp",
          "type": "uint256"
        }
      ],
      "name": "ConditionEnregistree",
      "type": "event"
    },
    {
      "anonymous": false,
      "inputs": [
        {
          "indexed": true,
          "internalType": "uint32",
          "name": "idProduit",
          "type": "uint32"
        },
        {
          "indexed": false,
          "internalType": "uint32",
          "name": "idPaiement",
          "type": "uint32"
        },
        {
          "indexed": false,
          "internalType": "address",
          "name": "payeur",
          "type": "address"
        },
        {
          "indexed": false,
          "internalType": "uint32",
          "name": "montant",
          "type": "uint32"
        },
        {
          "indexed": false,
          "internalType": "enum StructLib.ModePaiement",
          "name": "mode",
          "type": "uint8"
        }
      ],
      "name": "PaiementEffectue",
      "type": "event"
    },
    {
      "anonymous": false,
      "inputs": [
        {
          "indexed": true,
          "internalType": "uint32",
          "name": "idProduit",
          "type": "uint32"
        },
        {
          "indexed": false,
          "internalType": "string",
          "name": "nom",
          "type": "string"
        },
        {
          "indexed": false,
          "internalType": "uint32",
          "name": "quantite",
          "type": "uint32"
        },
        {
          "indexed": false,
          "internalType": "uint32",
          "name": "prix",
          "type": "uint32"
        },
        {
          "indexed": false,
          "internalType": "uint32",
          "name": "idRecolte",
          "type": "uint32"
        },
        {
          "indexed": false,
          "internalType": "string",
          "name": "dateRecolte",
          "type": "string"
        },
        {
          "indexed": false,
          "internalType": "string",
          "name": "certificatPhytosanitaire",
          "type": "string"
        }
      ],
      "name": "ProduitAjoute",
      "type": "event"
    },
    {
      "anonymous": false,
      "inputs": [
        {
          "indexed": true,
          "internalType": "uint32",
          "name": "idProduit",
          "type": "uint32"
        },
        {
          "indexed": false,
          "internalType": "bool",
          "name": "valide",
          "type": "bool"
        }
      ],
      "name": "ProduitValide",
      "type": "event"
    },
    {
      "anonymous": false,
      "inputs": [
        {
          "indexed": true,
          "internalType": "uint32",
          "name": "idProduit",
          "type": "uint32"
        },
        {
          "indexed": false,
          "internalType": "enum StructLib.StatutTransport",
          "name": "statut",
          "type": "uint8"
        }
      ],
      "name": "StatutTransportMisAJour",
      "type": "event"
    },
    {
      "stateMutability": "payable",
      "type": "fallback"
    },
    {
      "inputs": [
        {
          "internalType": "uint32",
          "name": "_idRecolte",
          "type": "uint32"
        },
        {
          "internalType": "uint32",
          "name": "_quantite",
          "type": "uint32"
        },
        {
          "internalType": "uint32",
          "name": "_prix",
          "type": "uint32"
        },
        {
          "internalType": "address",
          "name": "_collecteur",
          "type": "address"
        },
        {
          "internalType": "string",
          "name": "_nomProduit",
          "type": "string"
        },
        {
          "internalType": "string",
          "name": "_dateRecolte",
          "type": "string"
        },
        {
          "internalType": "string",
          "name": "_certificatPhytosanitaire",
          "type": "string"
        }
      ],
      "name": "ajouterProduit",
      "outputs": [],
      "stateMutability": "nonpayable",
      "type": "function"
    },
    {
      "inputs": [
        {
          "internalType": "uint32",
          "name": "",
          "type": "uint32"
        }
      ],
      "name": "commandes",
      "outputs": [
        {
          "internalType": "uint32",
          "name": "id",
          "type": "uint32"
        },
        {
          "internalType": "uint32",
          "name": "idProduit",
          "type": "uint32"
        },
        {
          "internalType": "uint32",
          "name": "quantite",
          "type": "uint32"
        },
        {
          "internalType": "uint32",
          "name": "prix",
          "type": "uint32"
        },
        {
          "internalType": "bool",
          "name": "payer",
          "type": "bool"
        },
        {
          "internalType": "enum StructLib.StatutTransport",
          "name": "statutTransport",
          "type": "uint8"
        },
        {
          "internalType": "address",
          "name": "collecteur",
          "type": "address"
        },
        {
          "internalType": "address",
          "name": "exportateur",
          "type": "address"
        }
      ],
      "stateMutability": "view",
      "type": "function"
    },
    {
      "inputs": [],
      "name": "compteurCommandes",
      "outputs": [
        {
          "internalType": "uint32",
          "name": "",
          "type": "uint32"
        }
      ],
      "stateMutability": "view",
      "type": "function"
    },
    {
      "inputs": [],
      "name": "compteurConditions",
      "outputs": [
        {
          "internalType": "uint32",
          "name": "",
          "type": "uint32"
        }
      ],
      "stateMutability": "view",
      "type": "function"
    },
    {
      "inputs": [],
      "name": "compteurPaiements",
      "outputs": [
        {
          "internalType": "uint32",
          "name": "",
          "type": "uint32"
        }
      ],
      "stateMutability": "view",
      "type": "function"
    },
    {
      "inputs": [],
      "name": "compteurProduits",
      "outputs": [
        {
          "internalType": "uint32",
          "name": "",
          "type": "uint32"
        }
      ],
      "stateMutability": "view",
      "type": "function"
    },
    {
      "inputs": [
        {
          "internalType": "uint32",
          "name": "",
          "type": "uint32"
        }
      ],
      "name": "conditions",
      "outputs": [
        {
          "internalType": "uint32",
          "name": "id",
          "type": "uint32"
        },
        {
          "internalType": "string",
          "name": "temperature",
          "type": "string"
        },
        {
          "internalType": "string",
          "name": "humidite",
          "type": "string"
        },
        {
          "internalType": "uint256",
          "name": "timestamp",
          "type": "uint256"
        }
      ],
      "stateMutability": "view",
      "type": "function"
    },
    {
      "inputs": [
        {
          "internalType": "uint32",
          "name": "_idCommande",
          "type": "uint32"
        },
        {
          "internalType": "uint32",
          "name": "_montant",
          "type": "uint32"
        },
        {
          "internalType": "enum StructLib.ModePaiement",
          "name": "_mode",
          "type": "uint8"
        }
      ],
      "name": "effectuerPaiement",
      "outputs": [],
      "stateMutability": "payable",
      "type": "function"
    },
    {
      "inputs": [
        {
          "internalType": "uint32",
          "name": "_idCommande",
          "type": "uint32"
        },
        {
          "internalType": "string",
          "name": "_temperature",
          "type": "string"
        },
        {
          "internalType": "string",
          "name": "_humidite",
          "type": "string"
        }
      ],
      "name": "enregistrerCondition",
      "outputs": [],
      "stateMutability": "nonpayable",
      "type": "function"
    },
    {
      "inputs": [],
      "name": "gestionnaireActeurs",
      "outputs": [
        {
          "internalType": "contract GestionnaireActeurs",
          "name": "",
          "type": "address"
        }
      ],
      "stateMutability": "view",
      "type": "function"
    },
    {
      "inputs": [
        {
          "internalType": "address",
          "name": "addr",
          "type": "address"
        }
      ],
      "name": "getActeur",
      "outputs": [
        {
          "components": [
            {
              "internalType": "address",
              "name": "addr",
              "type": "address"
            },
            {
              "internalType": "enum StructLib.Role",
              "name": "role",
              "type": "uint8"
            }
          ],
          "internalType": "struct StructLib.Acteur",
          "name": "",
          "type": "tuple"
        }
      ],
      "stateMutability": "view",
      "type": "function"
    },
    {
      "inputs": [
        {
          "internalType": "uint32",
          "name": "id",
          "type": "uint32"
        }
      ],
      "name": "getCommande",
      "outputs": [
        {
          "components": [
            {
              "internalType": "uint32",
              "name": "id",
              "type": "uint32"
            },
            {
              "internalType": "uint32",
              "name": "idProduit",
              "type": "uint32"
            },
            {
              "internalType": "uint32",
              "name": "quantite",
              "type": "uint32"
            },
            {
              "internalType": "uint32",
              "name": "prix",
              "type": "uint32"
            },
            {
              "internalType": "bool",
              "name": "payer",
              "type": "bool"
            },
            {
              "internalType": "enum StructLib.StatutTransport",
              "name": "statutTransport",
              "type": "uint8"
            },
            {
              "internalType": "address",
              "name": "collecteur",
              "type": "address"
            },
            {
              "internalType": "address",
              "name": "exportateur",
              "type": "address"
            }
          ],
          "internalType": "struct StructLib.CommandeProduit",
          "name": "",
          "type": "tuple"
        }
      ],
      "stateMutability": "view",
      "type": "function"
    },
    {
      "inputs": [],
      "name": "getCompteurCommande",
      "outputs": [
        {
          "internalType": "uint32",
          "name": "",
          "type": "uint32"
        }
      ],
      "stateMutability": "view",
      "type": "function"
    },
    {
      "inputs": [],
      "name": "getCompteurCondition",
      "outputs": [
        {
          "internalType": "uint32",
          "name": "",
          "type": "uint32"
        }
      ],
      "stateMutability": "view",
      "type": "function"
    },
    {
      "inputs": [],
      "name": "getCompteurPaiement",
      "outputs": [
        {
          "internalType": "uint32",
          "name": "",
          "type": "uint32"
        }
      ],
      "stateMutability": "view",
      "type": "function"
    },
    {
      "inputs": [],
      "name": "getCompteurProduit",
      "outputs": [
        {
          "internalType": "uint32",
          "name": "",
          "type": "uint32"
        }
      ],
      "stateMutability": "view",
      "type": "function"
    },
    {
      "inputs": [
        {
          "internalType": "uint32",
          "name": "id",
          "type": "uint32"
        }
      ],
      "name": "getCondition",
      "outputs": [
        {
          "components": [
            {
              "internalType": "uint32",
              "name": "id",
              "type": "uint32"
            },
            {
              "internalType": "string",
              "name": "temperature",
              "type": "string"
            },
            {
              "internalType": "string",
              "name": "humidite",
              "type": "string"
            },
            {
              "internalType": "uint256",
              "name": "timestamp",
              "type": "uint256"
            }
          ],
          "internalType": "struct StructLib.EnregistrementCondition",
          "name": "",
          "type": "tuple"
        }
      ],
      "stateMutability": "view",
      "type": "function"
    },
    {
      "inputs": [
        {
          "internalType": "uint32",
          "name": "id",
          "type": "uint32"
        }
      ],
      "name": "getPaiement",
      "outputs": [
        {
          "components": [
            {
              "internalType": "uint32",
              "name": "id",
              "type": "uint32"
            },
            {
              "internalType": "address",
              "name": "payeur",
              "type": "address"
            },
            {
              "internalType": "address",
              "name": "vendeur",
              "type": "address"
            },
            {
              "internalType": "uint32",
              "name": "montant",
              "type": "uint32"
            },
            {
              "internalType": "enum StructLib.ModePaiement",
              "name": "mode",
              "type": "uint8"
            },
            {
              "internalType": "uint256",
              "name": "timestamp",
              "type": "uint256"
            }
          ],
          "internalType": "struct StructLib.Paiement",
          "name": "",
          "type": "tuple"
        }
      ],
      "stateMutability": "view",
      "type": "function"
    },
    {
      "inputs": [
        {
          "internalType": "uint32",
          "name": "id",
          "type": "uint32"
        }
      ],
      "name": "getProduit",
      "outputs": [
        {
          "components": [
            {
              "internalType": "uint32",
              "name": "id",
              "type": "uint32"
            },
            {
              "internalType": "uint32",
              "name": "idRecolte",
              "type": "uint32"
            },
            {
              "internalType": "string",
              "name": "nom",
              "type": "string"
            },
            {
              "internalType": "uint32",
              "name": "quantite",
              "type": "uint32"
            },
            {
              "internalType": "uint32",
              "name": "prixUnit",
              "type": "uint32"
            },
            {
              "internalType": "enum StructLib.StatutProduit",
              "name": "statut",
              "type": "uint8"
            },
            {
              "internalType": "string",
              "name": "dateRecolte",
              "type": "string"
            },
            {
              "internalType": "string",
              "name": "certificatPhytosanitaire",
              "type": "string"
            },
            {
              "internalType": "address",
              "name": "collecteur",
              "type": "address"
            }
          ],
          "internalType": "struct StructLib.Produit",
          "name": "",
          "type": "tuple"
        }
      ],
      "stateMutability": "view",
      "type": "function"
    },
    {
      "inputs": [
        {
          "internalType": "uint32",
          "name": "_idCommande",
          "type": "uint32"
        },
        {
          "internalType": "enum StructLib.StatutTransport",
          "name": "_statut",
          "type": "uint8"
        }
      ],
      "name": "mettreAJourStatutTransport",
      "outputs": [],
      "stateMutability": "nonpayable",
      "type": "function"
    },
    {
      "inputs": [
        {
          "internalType": "uint32",
          "name": "",
          "type": "uint32"
        }
      ],
      "name": "paiements",
      "outputs": [
        {
          "internalType": "uint32",
          "name": "id",
          "type": "uint32"
        },
        {
          "internalType": "address",
          "name": "payeur",
          "type": "address"
        },
        {
          "internalType": "address",
          "name": "vendeur",
          "type": "address"
        },
        {
          "internalType": "uint32",
          "name": "montant",
          "type": "uint32"
        },
        {
          "internalType": "enum StructLib.ModePaiement",
          "name": "mode",
          "type": "uint8"
        },
        {
          "internalType": "uint256",
          "name": "timestamp",
          "type": "uint256"
        }
      ],
      "stateMutability": "view",
      "type": "function"
    },
    {
      "inputs": [
        {
          "internalType": "uint32",
          "name": "idProduit",
          "type": "uint32"
        },
        {
          "internalType": "uint32",
          "name": "_quantite",
          "type": "uint32"
        }
      ],
      "name": "passerCommande",
      "outputs": [],
      "stateMutability": "nonpayable",
      "type": "function"
    },
    {
      "inputs": [
        {
          "internalType": "uint32",
          "name": "",
          "type": "uint32"
        }
      ],
      "name": "produits",
      "outputs": [
        {
          "internalType": "uint32",
          "name": "id",
          "type": "uint32"
        },
        {
          "internalType": "uint32",
          "name": "idRecolte",
          "type": "uint32"
        },
        {
          "internalType": "string",
          "name": "nom",
          "type": "string"
        },
        {
          "internalType": "uint32",
          "name": "quantite",
          "type": "uint32"
        },
        {
          "internalType": "uint32",
          "name": "prixUnit",
          "type": "uint32"
        },
        {
          "internalType": "enum StructLib.StatutProduit",
          "name": "statut",
          "type": "uint8"
        },
        {
          "internalType": "string",
          "name": "dateRecolte",
          "type": "string"
        },
        {
          "internalType": "string",
          "name": "certificatPhytosanitaire",
          "type": "string"
        },
        {
          "internalType": "address",
          "name": "collecteur",
          "type": "address"
        }
      ],
      "stateMutability": "view",
      "type": "function"
    },
    {
      "inputs": [
        {
          "internalType": "address",
          "name": "_addr",
          "type": "address"
        }
      ],
      "name": "setGestionnaireActeurs",
      "outputs": [],
      "stateMutability": "nonpayable",
      "type": "function"
    },
    {
      "inputs": [
        {
          "internalType": "uint32",
          "name": "_idProduit",
          "type": "uint32"
        },
        {
          "internalType": "uint32",
          "name": "_prix",
          "type": "uint32"
        }
      ],
      "name": "setPriceProduit",
      "outputs": [],
      "stateMutability": "nonpayable",
      "type": "function"
    },
    {
      "inputs": [
        {
          "internalType": "uint32",
          "name": "_idProduit",
          "type": "uint32"
        },
        {
          "internalType": "bool",
          "name": "_valide",
          "type": "bool"
        }
      ],
      "name": "validerProduit",
      "outputs": [],
      "stateMutability": "nonpayable",
      "type": "function"
    },
    {
      "stateMutability": "payable",
      "type": "receive"
    }
  ],
  "bytecode": "0x60806040523480156200001157600080fd5b5060405162004f0338038062004f03833981810160405281019062000037919062000096565b80600560006101000a81548173ffffffffffffffffffffffffffffffffffffffff021916908373ffffffffffffffffffffffffffffffffffffffff1602179055505062000110565b6000815190506200009081620000f6565b92915050565b600060208284031215620000a957600080fd5b6000620000b9848285016200007f565b91505092915050565b6000620000cf82620000d6565b9050919050565b600073ffffffffffffffffffffffffffffffffffffffff82169050919050565b6200010181620000c2565b81146200010d57600080fd5b50565b614de380620001206000396000f3fe6080604052600436106101855760003560e01c80637babcffa116100d1578063c47744ff1161008a578063edd1316311610064578063edd13163146105b5578063f6980cc9146105e0578063fdccf43314610620578063fe32398a1461064b5761018c565b8063c47744ff14610545578063cd3df1ed1461056e578063e6cab64c146105995761018c565b80637babcffa146104305780638777654f146104725780638a16156e1461049d57806393c2f9b4146104c65780639aed4540146104f15780639e942cd41461051a5761018c565b806341fae4db1161013e5780634dafb501116101185780634dafb5011461035b5780635293ea5114610384578063687112e2146103c15780636f3fd6c5146103ec5761018c565b806341fae4db146102ae5780634851ca82146102eb578063488dee20146103305761018c565b8063011970181461018e5780630b215e64146101b957806315a3374c146101f6578063243ae82c1461021f578063369064b9146102485780633e7a6049146102855761018c565b3661018c57005b005b34801561019a57600080fd5b506101a3610688565b6040516101b091906146e3565b60405180910390f35b3480156101c557600080fd5b506101e060048036038101906101db9190613a5f565b6106a0565b6040516101ed91906146a6565b60405180910390f35b34801561020257600080fd5b5061021d60048036038101906102189190613b7f565b610862565b005b34801561022b57600080fd5b5061024660048036038101906102419190613a88565b610a42565b005b34801561025457600080fd5b5061026f600480360381019061026a9190613a5f565b610d3e565b60405161027c91906146c1565b60405180910390f35b34801561029157600080fd5b506102ac60048036038101906102a79190613875565b6110a2565b005b3480156102ba57600080fd5b506102d560048036038101906102d09190613a5f565b6110e6565b6040516102e29190614684565b60405180910390f35b3480156102f757600080fd5b50610312600480360381019061030d9190613a5f565b611273565b604051610327999897969594939291906147f7565b60405180910390f35b34801561033c57600080fd5b506103456114c6565b60405161035291906146e3565b60405180910390f35b34801561036757600080fd5b50610382600480360381019061037d9190613b7f565b6114dc565b005b34801561039057600080fd5b506103ab60048036038101906103a69190613a5f565b611a81565b6040516103b89190614668565b60405180910390f35b3480156103cd57600080fd5b506103d6611ca1565b6040516103e391906146e3565b60405180910390f35b3480156103f857600080fd5b50610413600480360381019061040e9190613a5f565b611cb7565b604051610427989796959493929190614899565b60405180910390f35b34801561043c57600080fd5b5061045760048036038101906104529190613a5f565b611d99565b604051610469969594939291906146fe565b60405180910390f35b34801561047e57600080fd5b50610487611e42565b60405161049491906146e3565b60405180910390f35b3480156104a957600080fd5b506104c460048036038101906104bf9190613ac4565b611e5c565b005b3480156104d257600080fd5b506104db61205c565b6040516104e891906146e3565b60405180910390f35b3480156104fd57600080fd5b5061051860048036038101906105139190613c0a565b612076565b005b34801561052657600080fd5b5061052f612390565b60405161053c9190614461565b60405180910390f35b34801561055157600080fd5b5061056c60048036038101906105679190613b00565b6123b6565b005b34801561057a57600080fd5b50610583612666565b60405161059091906146e3565b60405180910390f35b6105b360048036038101906105ae9190613bbb565b61267c565b005b3480156105c157600080fd5b506105ca613033565b6040516105d791906146e3565b60405180910390f35b3480156105ec57600080fd5b5061060760048036038101906106029190613a5f565b613047565b60405161061794939291906147a4565b60405180910390f35b34801561062c57600080fd5b50610635613197565b60405161064291906146e3565b60405180910390f35b34801561065757600080fd5b50610672600480360381019061066d9190613875565b6131b1565b60405161067f919061464d565b60405180910390f35b600060048054906101000a900463ffffffff16905090565b6106a86132e9565b600260008363ffffffff1663ffffffff1681526020019081526020016000206040518060c00160405290816000820160009054906101000a900463ffffffff1663ffffffff1663ffffffff1681526020016000820160049054906101000a900473ffffffffffffffffffffffffffffffffffffffff1673ffffffffffffffffffffffffffffffffffffffff1673ffffffffffffffffffffffffffffffffffffffff1681526020016001820160009054906101000a900473ffffffffffffffffffffffffffffffffffffffff1673ffffffffffffffffffffffffffffffffffffffff1673ffffffffffffffffffffffffffffffffffffffff1681526020016001820160149054906101000a900463ffffffff1663ffffffff1663ffffffff1681526020016001820160189054906101000a900460ff166002811115610815577f4e487b7100000000000000000000000000000000000000000000000000000000600052602160045260246000fd5b600281111561084d577f4e487b7100000000000000000000000000000000000000000000000000000000600052602160045260246000fd5b81526020016002820154815250509050919050565b600560009054906101000a900473ffffffffffffffffffffffffffffffffffffffff1673ffffffffffffffffffffffffffffffffffffffff1663d1e47bb33360036040518363ffffffff1660e01b81526004016108c092919061441d565b60206040518083038186803b1580156108d857600080fd5b505afa1580156108ec573d6000803e3d6000fd5b505050506040513d601f19601f82011682018060405250810190610910919061389e565b61094f576040517f08c379a0000000000000000000000000000000000000000000000000000000008152600401610946906145ed565b60405180910390fd5b3373ffffffffffffffffffffffffffffffffffffffff166000808463ffffffff1663ffffffff16815260200190815260200160002060050160009054906101000a900473ffffffffffffffffffffffffffffffffffffffff1673ffffffffffffffffffffffffffffffffffffffff16146109fe576040517f08c379a00000000000000000000000000000000000000000000000000000000081526004016109f59061456d565b60405180910390fd5b806000808463ffffffff1663ffffffff16815260200190815260200160002060020160046101000a81548163ffffffff021916908363ffffffff1602179055505050565b600560009054906101000a900473ffffffffffffffffffffffffffffffffffffffff1673ffffffffffffffffffffffffffffffffffffffff1663d1e47bb33360066040518363ffffffff1660e01b8152600401610aa092919061441d565b60206040518083038186803b158015610ab857600080fd5b505afa158015610acc573d6000803e3d6000fd5b505050506040513d601f19601f82011682018060405250810190610af0919061389e565b610b2f576040517f08c379a0000000000000000000000000000000000000000000000000000000008152600401610b269061460d565b60405180910390fd5b60006002811115610b69577f4e487b7100000000000000000000000000000000000000000000000000000000600052602160045260246000fd5b6000808463ffffffff1663ffffffff16815260200190815260200160002060020160089054906101000a900460ff166002811115610bd0577f4e487b7100000000000000000000000000000000000000000000000000000000600052602160045260246000fd5b14610c10576040517f08c379a0000000000000000000000000000000000000000000000000000000008152600401610c079061454d565b60405180910390fd5b8015610c8b5760016000808463ffffffff1663ffffffff16815260200190815260200160002060020160086101000a81548160ff02191690836002811115610c81577f4e487b7100000000000000000000000000000000000000000000000000000000600052602160045260246000fd5b0217905550610cfc565b60026000808463ffffffff1663ffffffff16815260200190815260200160002060020160086101000a81548160ff02191690836002811115610cf6577f4e487b7100000000000000000000000000000000000000000000000000000000600052602160045260246000fd5b02179055505b8163ffffffff167f0162415f7fa3e8fd622f197aee84dcd4f88f8194b8755bca9c2a885bc4332c9182604051610d329190614446565b60405180910390a25050565b610d4661338f565b6000808363ffffffff1663ffffffff168152602001908152602001600020604051806101200160405290816000820160009054906101000a900463ffffffff1663ffffffff1663ffffffff1681526020016000820160049054906101000a900463ffffffff1663ffffffff1663ffffffff168152602001600182018054610dcc90614b95565b80601f0160208091040260200160405190810160405280929190818152602001828054610df890614b95565b8015610e455780601f10610e1a57610100808354040283529160200191610e45565b820191906000526020600020905b815481529060010190602001808311610e2857829003601f168201915b505050505081526020016002820160009054906101000a900463ffffffff1663ffffffff1663ffffffff1681526020016002820160049054906101000a900463ffffffff1663ffffffff1663ffffffff1681526020016002820160089054906101000a900460ff166002811115610ee5577f4e487b7100000000000000000000000000000000000000000000000000000000600052602160045260246000fd5b6002811115610f1d577f4e487b7100000000000000000000000000000000000000000000000000000000600052602160045260246000fd5b8152602001600382018054610f3190614b95565b80601f0160208091040260200160405190810160405280929190818152602001828054610f5d90614b95565b8015610faa5780601f10610f7f57610100808354040283529160200191610faa565b820191906000526020600020905b815481529060010190602001808311610f8d57829003601f168201915b50505050508152602001600482018054610fc390614b95565b80601f0160208091040260200160405190810160405280929190818152602001828054610fef90614b95565b801561103c5780601f106110115761010080835404028352916020019161103c565b820191906000526020600020905b81548152906001019060200180831161101f57829003601f168201915b505050505081526020016005820160009054906101000a900473ffffffffffffffffffffffffffffffffffffffff1673ffffffffffffffffffffffffffffffffffffffff1673ffffffffffffffffffffffffffffffffffffffff16815250509050919050565b80600560006101000a81548173ffffffffffffffffffffffffffffffffffffffff021916908373ffffffffffffffffffffffffffffffffffffffff16021790555050565b6110ee613441565b600160008363ffffffff1663ffffffff1681526020019081526020016000206040518060800160405290816000820160009054906101000a900463ffffffff1663ffffffff1663ffffffff16815260200160018201805461114e90614b95565b80601f016020809104026020016040519081016040528092919081815260200182805461117a90614b95565b80156111c75780601f1061119c576101008083540402835291602001916111c7565b820191906000526020600020905b8154815290600101906020018083116111aa57829003601f168201915b505050505081526020016002820180546111e090614b95565b80601f016020809104026020016040519081016040528092919081815260200182805461120c90614b95565b80156112595780601f1061122e57610100808354040283529160200191611259565b820191906000526020600020905b81548152906001019060200180831161123c57829003601f168201915b505050505081526020016003820154815250509050919050565b60006020528060005260406000206000915090508060000160009054906101000a900463ffffffff16908060000160049054906101000a900463ffffffff16908060010180546112c290614b95565b80601f01602080910402602001604051908101604052809291908181526020018280546112ee90614b95565b801561133b5780601f106113105761010080835404028352916020019161133b565b820191906000526020600020905b81548152906001019060200180831161131e57829003601f168201915b5050505050908060020160009054906101000a900463ffffffff16908060020160049054906101000a900463ffffffff16908060020160089054906101000a900460ff169080600301805461138f90614b95565b80601f01602080910402602001604051908101604052809291908181526020018280546113bb90614b95565b80156114085780601f106113dd57610100808354040283529160200191611408565b820191906000526020600020905b8154815290600101906020018083116113eb57829003601f168201915b50505050509080600401805461141d90614b95565b80601f016020809104026020016040519081016040528092919081815260200182805461144990614b95565b80156114965780601f1061146b57610100808354040283529160200191611496565b820191906000526020600020905b81548152906001019060200180831161147957829003601f168201915b5050505050908060050160009054906101000a900473ffffffffffffffffffffffffffffffffffffffff16905089565b600460009054906101000a900463ffffffff1681565b600560009054906101000a900473ffffffffffffffffffffffffffffffffffffffff1673ffffffffffffffffffffffffffffffffffffffff1663d1e47bb33360066040518363ffffffff1660e01b815260040161153a92919061441d565b60206040518083038186803b15801561155257600080fd5b505afa158015611566573d6000803e3d6000fd5b505050506040513d601f19601f8201168201806040525081019061158a919061389e565b6115c9576040517f08c379a00000000000000000000000000000000000000000000000000000000081526004016115c09061460d565b60405180910390fd5b6000808363ffffffff1663ffffffff16815260200190815260200160002060020160009054906101000a900463ffffffff1663ffffffff168163ffffffff161115611649576040517f08c379a0000000000000000000000000000000000000000000000000000000008152600401611640906145cd565b60405180910390fd5b60008060008463ffffffff1663ffffffff16815260200190815260200160002060020160049054906101000a900463ffffffff168261168891906149d1565b90506000826000808663ffffffff1663ffffffff16815260200190815260200160002060020160009054906101000a900463ffffffff166116c99190614a0f565b9050806000808663ffffffff1663ffffffff16815260200190815260200160002060020160006101000a81548163ffffffff021916908363ffffffff1602179055506004600081819054906101000a900463ffffffff168092919061172d90614bc7565b91906101000a81548163ffffffff021916908363ffffffff16021790555050604051806101000160405280600460009054906101000a900463ffffffff1663ffffffff1681526020018563ffffffff1681526020018463ffffffff1681526020018363ffffffff168152602001600015158152602001600060018111156117dd577f4e487b7100000000000000000000000000000000000000000000000000000000600052602160045260246000fd5b81526020016000808763ffffffff1663ffffffff16815260200190815260200160002060050160009054906101000a900473ffffffffffffffffffffffffffffffffffffffff1673ffffffffffffffffffffffffffffffffffffffff1681526020013373ffffffffffffffffffffffffffffffffffffffff1681525060036000600460009054906101000a900463ffffffff1663ffffffff1663ffffffff16815260200190815260200160002060008201518160000160006101000a81548163ffffffff021916908363ffffffff16021790555060208201518160000160046101000a81548163ffffffff021916908363ffffffff16021790555060408201518160000160086101000a81548163ffffffff021916908363ffffffff160217905550606082015181600001600c6101000a81548163ffffffff021916908363ffffffff16021790555060808201518160000160106101000a81548160ff02191690831515021790555060a08201518160000160116101000a81548160ff02191690836001811115611997577f4e487b7100000000000000000000000000000000000000000000000000000000600052602160045260246000fd5b021790555060c08201518160010160006101000a81548173ffffffffffffffffffffffffffffffffffffffff021916908373ffffffffffffffffffffffffffffffffffffffff16021790555060e08201518160020160006101000a81548173ffffffffffffffffffffffffffffffffffffffff021916908373ffffffffffffffffffffffffffffffffffffffff1602179055509050503373ffffffffffffffffffffffffffffffffffffffff167fa0e84f4dba1ea97bb938c4d3ff9475e68dacbd58f3086c672b0605ad53d76dc185604051611a7391906146e3565b60405180910390a250505050565b611a8961346f565b600360008363ffffffff1663ffffffff168152602001908152602001600020604051806101000160405290816000820160009054906101000a900463ffffffff1663ffffffff1663ffffffff1681526020016000820160049054906101000a900463ffffffff1663ffffffff1663ffffffff1681526020016000820160089054906101000a900463ffffffff1663ffffffff1663ffffffff16815260200160008201600c9054906101000a900463ffffffff1663ffffffff1663ffffffff1681526020016000820160109054906101000a900460ff161515151581526020016000820160119054906101000a900460ff166001811115611bb2577f4e487b7100000000000000000000000000000000000000000000000000000000600052602160045260246000fd5b6001811115611bea577f4e487b7100000000000000000000000000000000000000000000000000000000600052602160045260246000fd5b81526020016001820160009054906101000a900473ffffffffffffffffffffffffffffffffffffffff1673ffffffffffffffffffffffffffffffffffffffff1673ffffffffffffffffffffffffffffffffffffffff1681526020016002820160009054906101000a900473ffffffffffffffffffffffffffffffffffffffff1673ffffffffffffffffffffffffffffffffffffffff1673ffffffffffffffffffffffffffffffffffffffff16815250509050919050565b600460089054906101000a900463ffffffff1681565b60036020528060005260406000206000915090508060000160009054906101000a900463ffffffff16908060000160049054906101000a900463ffffffff16908060000160089054906101000a900463ffffffff169080600001600c9054906101000a900463ffffffff16908060000160109054906101000a900460ff16908060000160119054906101000a900460ff16908060010160009054906101000a900473ffffffffffffffffffffffffffffffffffffffff16908060020160009054906101000a900473ffffffffffffffffffffffffffffffffffffffff16905088565b60026020528060005260406000206000915090508060000160009054906101000a900463ffffffff16908060000160049054906101000a900473ffffffffffffffffffffffffffffffffffffffff16908060010160009054906101000a900473ffffffffffffffffffffffffffffffffffffffff16908060010160149054906101000a900463ffffffff16908060010160189054906101000a900460ff16908060020154905086565b6000600460009054906101000a900463ffffffff16905090565b600560009054906101000a900473ffffffffffffffffffffffffffffffffffffffff1673ffffffffffffffffffffffffffffffffffffffff1663d1e47bb33360056040518363ffffffff1660e01b8152600401611eba92919061441d565b60206040518083038186803b158015611ed257600080fd5b505afa158015611ee6573d6000803e3d6000fd5b505050506040513d601f19601f82011682018060405250810190611f0a919061389e565b611f49576040517f08c379a0000000000000000000000000000000000000000000000000000000008152600401611f409061462d565b60405180910390fd5b600460009054906101000a900463ffffffff1663ffffffff168263ffffffff161115611faa576040517f08c379a0000000000000000000000000000000000000000000000000000000008152600401611fa19061450d565b60405180910390fd5b80600360008463ffffffff1663ffffffff16815260200190815260200160002060000160116101000a81548160ff02191690836001811115612015577f4e487b7100000000000000000000000000000000000000000000000000000000600052602160045260246000fd5b02179055508163ffffffff167ff84820c84ecbec116ee0604a91f0bec4a5d5926d8d5189a13f57fc30951d4b9182604051612050919061447c565b60405180910390a25050565b6000600460089054906101000a900463ffffffff16905090565b60048081819054906101000a900463ffffffff168092919061209790614bc7565b91906101000a81548163ffffffff021916908363ffffffff1602179055505060405180610120016040528060048054906101000a900463ffffffff1663ffffffff1681526020018863ffffffff1681526020018481526020018763ffffffff1681526020018663ffffffff16815260200160006002811115612142577f4e487b7100000000000000000000000000000000000000000000000000000000600052602160045260246000fd5b81526020018381526020018281526020018573ffffffffffffffffffffffffffffffffffffffff1681525060008060048054906101000a900463ffffffff1663ffffffff1663ffffffff16815260200190815260200160002060008201518160000160006101000a81548163ffffffff021916908363ffffffff16021790555060208201518160000160046101000a81548163ffffffff021916908363ffffffff1602179055506040820151816001019080519060200190612205929190613532565b5060608201518160020160006101000a81548163ffffffff021916908363ffffffff16021790555060808201518160020160046101000a81548163ffffffff021916908363ffffffff16021790555060a08201518160020160086101000a81548160ff021916908360028111156122a5577f4e487b7100000000000000000000000000000000000000000000000000000000600052602160045260246000fd5b021790555060c08201518160030190805190602001906122c6929190613532565b5060e08201518160040190805190602001906122e3929190613532565b506101008201518160050160006101000a81548173ffffffffffffffffffffffffffffffffffffffff021916908373ffffffffffffffffffffffffffffffffffffffff16021790555090505060048054906101000a900463ffffffff1663ffffffff167fae4e6a533354fae499eff08fce0d52e10ef7c27a1743662362463f06382e8e1d8488888b878760405161237f96959493929190614497565b60405180910390a250505050505050565b600560009054906101000a900473ffffffffffffffffffffffffffffffffffffffff1681565b600560009054906101000a900473ffffffffffffffffffffffffffffffffffffffff1673ffffffffffffffffffffffffffffffffffffffff1663d1e47bb33360056040518363ffffffff1660e01b815260040161241492919061441d565b60206040518083038186803b15801561242c57600080fd5b505afa158015612440573d6000803e3d6000fd5b505050506040513d601f19601f82011682018060405250810190612464919061389e565b6124a3576040517f08c379a000000000000000000000000000000000000000000000000000000000815260040161249a9061462d565b60405180910390fd5b600460009054906101000a900463ffffffff1663ffffffff168363ffffffff161115612504576040517f08c379a00000000000000000000000000000000000000000000000000000000081526004016124fb9061450d565b60405180910390fd5b6004600881819054906101000a900463ffffffff168092919061252690614bc7565b91906101000a81548163ffffffff021916908363ffffffff160217905550506040518060800160405280600460089054906101000a900463ffffffff1663ffffffff16815260200183815260200182815260200142815250600160008563ffffffff1663ffffffff16815260200190815260200160002060008201518160000160006101000a81548163ffffffff021916908363ffffffff16021790555060208201518160010190805190602001906125e0929190613532565b5060408201518160020190805190602001906125fd929190613532565b50606082015181600301559050508263ffffffff167fa2effbfc7f8ff62ea4b874b57c26eb8951f95a078bf527463389d9b2d4ce175d600460089054906101000a900463ffffffff1684844260405161265994939291906147a4565b60405180910390a2505050565b6004600c9054906101000a900463ffffffff1681565b600560009054906101000a900473ffffffffffffffffffffffffffffffffffffffff1673ffffffffffffffffffffffffffffffffffffffff1663d1e47bb33360066040518363ffffffff1660e01b81526004016126da92919061441d565b60206040518083038186803b1580156126f257600080fd5b505afa158015612706573d6000803e3d6000fd5b505050506040513d601f19601f8201168201806040525081019061272a919061389e565b612769576040517f08c379a00000000000000000000000000000000000000000000000000000000081526004016127609061460d565b60405180910390fd5b6000806000600360008763ffffffff1663ffffffff16815260200190815260200160002060000160049054906101000a900463ffffffff1663ffffffff1663ffffffff168152602001908152602001600020604051806101200160405290816000820160009054906101000a900463ffffffff1663ffffffff1663ffffffff1681526020016000820160049054906101000a900463ffffffff1663ffffffff1663ffffffff16815260200160018201805461282390614b95565b80601f016020809104026020016040519081016040528092919081815260200182805461284f90614b95565b801561289c5780601f106128715761010080835404028352916020019161289c565b820191906000526020600020905b81548152906001019060200180831161287f57829003601f168201915b505050505081526020016002820160009054906101000a900463ffffffff1663ffffffff1663ffffffff1681526020016002820160049054906101000a900463ffffffff1663ffffffff1663ffffffff1681526020016002820160089054906101000a900460ff16600281111561293c577f4e487b7100000000000000000000000000000000000000000000000000000000600052602160045260246000fd5b6002811115612974577f4e487b7100000000000000000000000000000000000000000000000000000000600052602160045260246000fd5b815260200160038201805461298890614b95565b80601f01602080910402602001604051908101604052809291908181526020018280546129b490614b95565b8015612a015780601f106129d657610100808354040283529160200191612a01565b820191906000526020600020905b8154815290600101906020018083116129e457829003601f168201915b50505050508152602001600482018054612a1a90614b95565b80601f0160208091040260200160405190810160405280929190818152602001828054612a4690614b95565b8015612a935780601f10612a6857610100808354040283529160200191612a93565b820191906000526020600020905b815481529060010190602001808311612a7657829003601f168201915b505050505081526020016005820160009054906101000a900473ffffffffffffffffffffffffffffffffffffffff1673ffffffffffffffffffffffffffffffffffffffff1673ffffffffffffffffffffffffffffffffffffffff1681525050905060016002811115612b2e577f4e487b7100000000000000000000000000000000000000000000000000000000600052602160045260246000fd5b8160a001516002811115612b6b577f4e487b7100000000000000000000000000000000000000000000000000000000600052602160045260246000fd5b14612bab576040517f08c379a0000000000000000000000000000000000000000000000000000000008152600401612ba2906145ad565b60405180910390fd5b600360008563ffffffff1663ffffffff16815260200190815260200160002060000160089054906101000a900463ffffffff168160800151612bed91906149d1565b63ffffffff163414612c34576040517f08c379a0000000000000000000000000000000000000000000000000000000008152600401612c2b9061452d565b60405180910390fd5b600360008563ffffffff1663ffffffff16815260200190815260200160002060000160109054906101000a900460ff1615612ca4576040517f08c379a0000000000000000000000000000000000000000000000000000000008152600401612c9b9061458d565b60405180910390fd5b6001600360008663ffffffff1663ffffffff16815260200190815260200160002060000160106101000a81548160ff0219169083151502179055506004600c81819054906101000a900463ffffffff1680929190612d0190614bc7565b91906101000a81548163ffffffff021916908363ffffffff160217905550506040518060c001604052806004600c9054906101000a900463ffffffff1663ffffffff1681526020013373ffffffffffffffffffffffffffffffffffffffff168152602001600360008763ffffffff1663ffffffff16815260200190815260200160002060010160009054906101000a900473ffffffffffffffffffffffffffffffffffffffff1673ffffffffffffffffffffffffffffffffffffffff1681526020018463ffffffff168152602001836002811115612e08577f4e487b7100000000000000000000000000000000000000000000000000000000600052602160045260246000fd5b815260200142815250600260006004600c9054906101000a900463ffffffff1663ffffffff1663ffffffff16815260200190815260200160002060008201518160000160006101000a81548163ffffffff021916908363ffffffff16021790555060208201518160000160046101000a81548173ffffffffffffffffffffffffffffffffffffffff021916908373ffffffffffffffffffffffffffffffffffffffff16021790555060408201518160010160006101000a81548173ffffffffffffffffffffffffffffffffffffffff021916908373ffffffffffffffffffffffffffffffffffffffff16021790555060608201518160010160146101000a81548163ffffffff021916908363ffffffff16021790555060808201518160010160186101000a81548160ff02191690836002811115612f6f577f4e487b7100000000000000000000000000000000000000000000000000000000600052602160045260246000fd5b021790555060a08201518160020155905050806000015163ffffffff167fd9f037670aada9b07156110dd936887c158e5cd6f7932663cc64ef336e44cf9f6004600c9054906101000a900463ffffffff16338686604051612fd3949392919061475f565b60405180910390a2600081610100015190508073ffffffffffffffffffffffffffffffffffffffff166108fc349081150290604051600060405180830381858888f1935050505015801561302b573d6000803e3d6000fd5b505050505050565b60048054906101000a900463ffffffff1681565b60016020528060005260406000206000915090508060000160009054906101000a900463ffffffff169080600101805461308090614b95565b80601f01602080910402602001604051908101604052809291908181526020018280546130ac90614b95565b80156130f95780601f106130ce576101008083540402835291602001916130f9565b820191906000526020600020905b8154815290600101906020018083116130dc57829003601f168201915b50505050509080600201805461310e90614b95565b80601f016020809104026020016040519081016040528092919081815260200182805461313a90614b95565b80156131875780601f1061315c57610100808354040283529160200191613187565b820191906000526020600020905b81548152906001019060200180831161316a57829003601f168201915b5050505050908060030154905084565b60006004600c9054906101000a900463ffffffff16905090565b6131b96135b8565b6000806000600560009054906101000a900473ffffffffffffffffffffffffffffffffffffffff1673ffffffffffffffffffffffffffffffffffffffff1663d2df06d7866040518263ffffffff1660e01b81526004016132199190614402565b60006040518083038186803b15801561323157600080fd5b505afa158015613245573d6000803e3d6000fd5b505050506040513d6000823e3d601f19601f8201168201806040525081019061326e91906138c7565b505050505050505092509250925060405180604001604052808673ffffffffffffffffffffffffffffffffffffffff1681526020018360078111156132dc577f4e487b7100000000000000000000000000000000000000000000000000000000600052602160045260246000fd5b8152509350505050919050565b6040518060c00160405280600063ffffffff168152602001600073ffffffffffffffffffffffffffffffffffffffff168152602001600073ffffffffffffffffffffffffffffffffffffffff168152602001600063ffffffff16815260200160006002811115613382577f4e487b7100000000000000000000000000000000000000000000000000000000600052602160045260246000fd5b8152602001600081525090565b604051806101200160405280600063ffffffff168152602001600063ffffffff16815260200160608152602001600063ffffffff168152602001600063ffffffff16815260200160006002811115613410577f4e487b7100000000000000000000000000000000000000000000000000000000600052602160045260246000fd5b81526020016060815260200160608152602001600073ffffffffffffffffffffffffffffffffffffffff1681525090565b6040518060800160405280600063ffffffff1681526020016060815260200160608152602001600081525090565b604051806101000160405280600063ffffffff168152602001600063ffffffff168152602001600063ffffffff168152602001600063ffffffff168152602001600015158152602001600060018111156134f2577f4e487b7100000000000000000000000000000000000000000000000000000000600052602160045260246000fd5b8152602001600073ffffffffffffffffffffffffffffffffffffffff168152602001600073ffffffffffffffffffffffffffffffffffffffff1681525090565b82805461353e90614b95565b90600052602060002090601f01602090048101928261356057600085556135a7565b82601f1061357957805160ff19168380011785556135a7565b828001600101855582156135a7579182015b828111156135a657825182559160200191906001019061358b565b5b5090506135b49190613620565b5090565b6040518060400160405280600073ffffffffffffffffffffffffffffffffffffffff1681526020016000600781111561361a577f4e487b7100000000000000000000000000000000000000000000000000000000600052602160045260246000fd5b81525090565b5b80821115613639576000816000905550600101613621565b5090565b600061365061364b84614948565b614917565b9050808382526020820190508285602086028201111561366f57600080fd5b60005b8581101561369f5781613685888261373a565b845260208401935060208301925050600181019050613672565b5050509392505050565b60006136bc6136b784614974565b614917565b9050828152602081018484840111156136d457600080fd5b6136df848285614b53565b509392505050565b60006136fa6136f584614974565b614917565b90508281526020810184848401111561371257600080fd5b61371d848285614b62565b509392505050565b60008135905061373481614d11565b92915050565b60008151905061374981614d11565b92915050565b600082601f83011261376057600080fd5b815161377084826020860161363d565b91505092915050565b60008135905061378881614d28565b92915050565b60008151905061379d81614d28565b92915050565b6000813590506137b281614d3f565b92915050565b6000815190506137c781614d4f565b92915050565b6000813590506137dc81614d5f565b92915050565b6000815190506137f181614d6f565b92915050565b600082601f83011261380857600080fd5b81356138188482602086016136a9565b91505092915050565b600082601f83011261383257600080fd5b81516138428482602086016136e7565b91505092915050565b60008151905061385a81614d7f565b92915050565b60008135905061386f81614d96565b92915050565b60006020828403121561388757600080fd5b600061389584828501613725565b91505092915050565b6000602082840312156138b057600080fd5b60006138be8482850161378e565b91505092915050565b60008060008060008060008060008060006101608c8e0312156138e957600080fd5b60008c015167ffffffffffffffff81111561390357600080fd5b61390f8e828f01613821565b9b505060206139208e828f016137b8565b9a505060406139318e828f0161378e565b99505060606139428e828f016137e2565b98505060808c015167ffffffffffffffff81111561395f57600080fd5b61396b8e828f01613821565b97505060a08c015167ffffffffffffffff81111561398857600080fd5b6139948e828f01613821565b96505060c08c015167ffffffffffffffff8111156139b157600080fd5b6139bd8e828f01613821565b95505060e08c015167ffffffffffffffff8111156139da57600080fd5b6139e68e828f01613821565b9450506101008c015167ffffffffffffffff811115613a0457600080fd5b613a108e828f01613821565b935050610120613a228e828f0161384b565b9250506101408c015167ffffffffffffffff811115613a4057600080fd5b613a4c8e828f0161374f565b9150509295989b509295989b9093969950565b600060208284031215613a7157600080fd5b6000613a7f84828501613860565b91505092915050565b60008060408385031215613a9b57600080fd5b6000613aa985828601613860565b9250506020613aba85828601613779565b9150509250929050565b60008060408385031215613ad757600080fd5b6000613ae585828601613860565b9250506020613af6858286016137cd565b9150509250929050565b600080600060608486031215613b1557600080fd5b6000613b2386828701613860565b935050602084013567ffffffffffffffff811115613b4057600080fd5b613b4c868287016137f7565b925050604084013567ffffffffffffffff811115613b6957600080fd5b613b75868287016137f7565b9150509250925092565b60008060408385031215613b9257600080fd5b6000613ba085828601613860565b9250506020613bb185828601613860565b9150509250929050565b600080600060608486031215613bd057600080fd5b6000613bde86828701613860565b9350506020613bef86828701613860565b9250506040613c00868287016137a3565b9150509250925092565b600080600080600080600060e0888a031215613c2557600080fd5b6000613c338a828b01613860565b9750506020613c448a828b01613860565b9650506040613c558a828b01613860565b9550506060613c668a828b01613725565b945050608088013567ffffffffffffffff811115613c8357600080fd5b613c8f8a828b016137f7565b93505060a088013567ffffffffffffffff811115613cac57600080fd5b613cb88a828b016137f7565b92505060c088013567ffffffffffffffff811115613cd557600080fd5b613ce18a828b016137f7565b91505092959891949750929550565b613cf981614a43565b82525050565b613d0881614a43565b82525050565b613d1781614a55565b82525050565b613d2681614a55565b82525050565b613d3581614ae7565b82525050565b613d4481614b0b565b82525050565b613d5381614b0b565b82525050565b613d6281614b1d565b82525050565b613d7181614b1d565b82525050565b613d8081614b2f565b82525050565b613d8f81614b2f565b82525050565b613d9e81614b41565b82525050565b613dad81614b41565b82525050565b6000613dbe826149a4565b613dc881856149af565b9350613dd8818560208601614b62565b613de181614cb0565b840191505092915050565b6000613df7826149a4565b613e0181856149c0565b9350613e11818560208601614b62565b613e1a81614cb0565b840191505092915050565b6000613e326019836149c0565b91507f4c6120636f6d6d616e6465206e27657869737465207061732e000000000000006000830152602082019050919050565b6000613e726011836149c0565b91507f4d6f6e74616e7420696e636f72726563740000000000000000000000000000006000830152602082019050919050565b6000613eb26013836149c0565b91507f50726f647569742064656a6120747261697465000000000000000000000000006000830152602082019050919050565b6000613ef2602a836149c0565b91507f566f7573206e2765746573207061732070726f7072696574616972652064652060008301527f63652070726f64756974000000000000000000000000000000000000000000006020830152604082019050919050565b6000613f586013836149c0565b91507f436f6d6d616e64652064656a61207061796572000000000000000000000000006000830152602082019050919050565b6000613f986012836149c0565b91507f50726f64756974206e6f6e2076616c69646500000000000000000000000000006000830152602082019050919050565b6000613fd86011836149c0565b91507f5175616e7469746520696e76616c6964650000000000000000000000000000006000830152602082019050919050565b60006140186022836149c0565b91507f4e6f6e206175746f726973653a207365756c656d656e7420436f6c6c6563746560008301527f75720000000000000000000000000000000000000000000000000000000000006020830152604082019050919050565b600061407e6023836149c0565b91507f4e6f6e206175746f726973653a207365756c656d656e74204578706f7274617460008301527f65757200000000000000000000000000000000000000000000000000000000006020830152604082019050919050565b60006140e46024836149c0565b91507f4e6f6e206175746f726973653a207365756c656d656e74205472616e73706f7260008301527f74657572000000000000000000000000000000000000000000000000000000006020830152604082019050919050565b6040820160008201516141536000850182613cf0565b5060208201516141666020850182613d59565b50505050565b6101008201600082015161418360008501826143e4565b50602082015161419660208501826143e4565b5060408201516141a960408501826143e4565b5060608201516141bc60608501826143e4565b5060808201516141cf6080850182613d0e565b5060a08201516141e260a0850182613d95565b5060c08201516141f560c0850182613cf0565b5060e082015161420860e0850182613cf0565b50505050565b600060808301600083015161422660008601826143e4565b506020830151848203602086015261423e8282613db3565b915050604083015184820360408601526142588282613db3565b915050606083015161426d60608601826143c6565b508091505092915050565b60c08201600082015161428e60008501826143e4565b5060208201516142a16020850182613cf0565b5060408201516142b46040850182613cf0565b5060608201516142c760608501826143e4565b5060808201516142da6080850182613d3b565b5060a08201516142ed60a08501826143c6565b50505050565b60006101208301600083015161430c60008601826143e4565b50602083015161431f60208601826143e4565b50604083015184820360408601526143378282613db3565b915050606083015161434c60608601826143e4565b50608083015161435f60808601826143e4565b5060a083015161437260a0860182613d77565b5060c083015184820360c086015261438a8282613db3565b91505060e083015184820360e08601526143a48282613db3565b9150506101008301516143bb610100860182613cf0565b508091505092915050565b6143cf81614acd565b82525050565b6143de81614acd565b82525050565b6143ed81614ad7565b82525050565b6143fc81614ad7565b82525050565b60006020820190506144176000830184613cff565b92915050565b60006040820190506144326000830185613cff565b61443f6020830184613d68565b9392505050565b600060208201905061445b6000830184613d1d565b92915050565b60006020820190506144766000830184613d2c565b92915050565b60006020820190506144916000830184613da4565b92915050565b600060c08201905081810360008301526144b18189613dec565b90506144c060208301886143f3565b6144cd60408301876143f3565b6144da60608301866143f3565b81810360808301526144ec8185613dec565b905081810360a08301526145008184613dec565b9050979650505050505050565b6000602082019050818103600083015261452681613e25565b9050919050565b6000602082019050818103600083015261454681613e65565b9050919050565b6000602082019050818103600083015261456681613ea5565b9050919050565b6000602082019050818103600083015261458681613ee5565b9050919050565b600060208201905081810360008301526145a681613f4b565b9050919050565b600060208201905081810360008301526145c681613f8b565b9050919050565b600060208201905081810360008301526145e681613fcb565b9050919050565b600060208201905081810360008301526146068161400b565b9050919050565b6000602082019050818103600083015261462681614071565b9050919050565b60006020820190508181036000830152614646816140d7565b9050919050565b6000604082019050614662600083018461413d565b92915050565b60006101008201905061467e600083018461416c565b92915050565b6000602082019050818103600083015261469e818461420e565b905092915050565b600060c0820190506146bb6000830184614278565b92915050565b600060208201905081810360008301526146db81846142f3565b905092915050565b60006020820190506146f860008301846143f3565b92915050565b600060c08201905061471360008301896143f3565b6147206020830188613cff565b61472d6040830187613cff565b61473a60608301866143f3565b6147476080830185613d4a565b61475460a08301846143d5565b979650505050505050565b600060808201905061477460008301876143f3565b6147816020830186613cff565b61478e60408301856143f3565b61479b6060830184613d4a565b95945050505050565b60006080820190506147b960008301876143f3565b81810360208301526147cb8186613dec565b905081810360408301526147df8185613dec565b90506147ee60608301846143d5565b95945050505050565b60006101208201905061480d600083018c6143f3565b61481a602083018b6143f3565b818103604083015261482c818a613dec565b905061483b60608301896143f3565b61484860808301886143f3565b61485560a0830187613d86565b81810360c08301526148678186613dec565b905081810360e083015261487b8185613dec565b905061488b610100830184613cff565b9a9950505050505050505050565b6000610100820190506148af600083018b6143f3565b6148bc602083018a6143f3565b6148c960408301896143f3565b6148d660608301886143f3565b6148e36080830187613d1d565b6148f060a0830186613da4565b6148fd60c0830185613cff565b61490a60e0830184613cff565b9998505050505050505050565b6000604051905081810181811067ffffffffffffffff8211171561493e5761493d614c81565b5b8060405250919050565b600067ffffffffffffffff82111561496357614962614c81565b5b602082029050602081019050919050565b600067ffffffffffffffff82111561498f5761498e614c81565b5b601f19601f8301169050602081019050919050565b600081519050919050565b600082825260208201905092915050565b600082825260208201905092915050565b60006149dc82614ad7565b91506149e783614ad7565b92508163ffffffff0483118215151615614a0457614a03614bf4565b5b828202905092915050565b6000614a1a82614ad7565b9150614a2583614ad7565b925082821015614a3857614a37614bf4565b5b828203905092915050565b6000614a4e82614aad565b9050919050565b60008115159050919050565b6000819050614a6f82614cc1565b919050565b6000819050614a8282614cd5565b919050565b6000819050614a9582614ce9565b919050565b6000819050614aa882614cfd565b919050565b600073ffffffffffffffffffffffffffffffffffffffff82169050919050565b6000819050919050565b600063ffffffff82169050919050565b6000614af282614af9565b9050919050565b6000614b0482614aad565b9050919050565b6000614b1682614a61565b9050919050565b6000614b2882614a74565b9050919050565b6000614b3a82614a87565b9050919050565b6000614b4c82614a9a565b9050919050565b82818337600083830152505050565b60005b83811015614b80578082015181840152602081019050614b65565b83811115614b8f576000848401525b50505050565b60006002820490506001821680614bad57607f821691505b60208210811415614bc157614bc0614c52565b5b50919050565b6000614bd282614ad7565b915063ffffffff821415614be957614be8614bf4565b5b600182019050919050565b7f4e487b7100000000000000000000000000000000000000000000000000000000600052601160045260246000fd5b7f4e487b7100000000000000000000000000000000000000000000000000000000600052602160045260246000fd5b7f4e487b7100000000000000000000000000000000000000000000000000000000600052602260045260246000fd5b7f4e487b7100000000000000000000000000000000000000000000000000000000600052604160045260246000fd5b6000601f19601f8301169050919050565b60038110614cd257614cd1614c23565b5b50565b60088110614ce657614ce5614c23565b5b50565b60038110614cfa57614cf9614c23565b5b50565b60028110614d0e57614d0d614c23565b5b50565b614d1a81614a43565b8114614d2557600080fd5b50565b614d3181614a55565b8114614d3c57600080fd5b50565b60038110614d4c57600080fd5b50565b60088110614d5c57600080fd5b50565b60028110614d6c57600080fd5b50565b60028110614d7c57600080fd5b50565b614d8881614acd565b8114614d9357600080fd5b50565b614d9f81614ad7565b8114614daa57600080fd5b5056fea26469706673582212200b0033d7c2975ba487a6d7b1c3366ce25896a1d936be3db7a4d12a971164d47d64736f6c63430008000033",
  "linkReferences": {},
  "deployedLinkReferences": {}
}