{
  "_format": "hh-sol-artifact-1",
  "contractName": "CollecteurProducteur",
  "sourceName": "contracts/CollecteurProducteur.sol",
  "abi": [
    {
      "anonymous": false,
      "inputs": [
        {
          "indexed": true,
          "internalType": "uint32",
          "name": "idProduit",
          "type": "uint32"
        },
        {
          "indexed": false,
          "internalType": "string",
          "name": "cid",
          "type": "string"
        },
        {
          "indexed": false,
          "internalType": "uint256",
          "name": "timestamp",
          "type": "uint256"
        },
        {
          "indexed": false,
          "internalType": "address",
          "name": "transporteur",
          "type": "address"
        }
      ],
      "name": "ConditionEnregistree",
      "type": "event"
    },
    {
      "anonymous": false,
      "inputs": [
        {
          "indexed": true,
          "internalType": "uint32",
          "name": "idCommande",
          "type": "uint32"
        },
        {
          "indexed": false,
          "internalType": "bool",
          "name": "status",
          "type": "bool"
        }
      ],
      "name": "ValidationCommandeRecolte",
      "type": "event"
    },
    {
      "inputs": [
        {
          "internalType": "uint32[]",
          "name": "_idParcelles",
          "type": "uint32[]"
        },
        {
          "internalType": "uint32",
          "name": "_quantite",
          "type": "uint32"
        },
        {
          "internalType": "uint32",
          "name": "_prix",
          "type": "uint32"
        },
        {
          "internalType": "string",
          "name": "_cid",
          "type": "string"
        }
      ],
      "name": "ajoutRecolte",
      "outputs": [],
      "stateMutability": "nonpayable",
      "type": "function"
    },
    {
      "inputs": [
        {
          "internalType": "uint32",
          "name": "_idRecolte",
          "type": "uint32"
        },
        {
          "internalType": "string",
          "name": "_certificat",
          "type": "string"
        }
      ],
      "name": "certifieRecolte",
      "outputs": [],
      "stateMutability": "nonpayable",
      "type": "function"
    },
    {
      "inputs": [
        {
          "internalType": "uint32",
          "name": "idCommande",
          "type": "uint32"
        },
        {
          "internalType": "address",
          "name": "transporteur",
          "type": "address"
        }
      ],
      "name": "choisirTransporteurCommandeRecolte",
      "outputs": [],
      "stateMutability": "nonpayable",
      "type": "function"
    },
    {
      "inputs": [
        {
          "internalType": "uint32",
          "name": "",
          "type": "uint32"
        }
      ],
      "name": "commandes",
      "outputs": [
        {
          "internalType": "uint32",
          "name": "id",
          "type": "uint32"
        },
        {
          "internalType": "uint32",
          "name": "idRecolte",
          "type": "uint32"
        },
        {
          "internalType": "uint32",
          "name": "quantite",
          "type": "uint32"
        },
        {
          "internalType": "uint32",
          "name": "prix",
          "type": "uint32"
        },
        {
          "internalType": "bool",
          "name": "payer",
          "type": "bool"
        },
        {
          "internalType": "enum StructLib.StatutTransport",
          "name": "statutTransport",
          "type": "uint8"
        },
        {
          "internalType": "address",
          "name": "producteur",
          "type": "address"
        },
        {
          "internalType": "address",
          "name": "collecteur",
          "type": "address"
        },
        {
          "internalType": "enum StructLib.StatutProduit",
          "name": "statutRecolte",
          "type": "uint8"
        },
        {
          "internalType": "bool",
          "name": "enregistrerCondition",
          "type": "bool"
        },
        {
          "internalType": "address",
          "name": "transporteur",
          "type": "address"
        }
      ],
      "stateMutability": "view",
      "type": "function"
    },
    {
      "inputs": [],
      "name": "compteurCommandes",
      "outputs": [
        {
          "internalType": "uint32",
          "name": "",
          "type": "uint32"
        }
      ],
      "stateMutability": "view",
      "type": "function"
    },
    {
      "inputs": [],
      "name": "compteurRecoltes",
      "outputs": [
        {
          "internalType": "uint32",
          "name": "",
          "type": "uint32"
        }
      ],
      "stateMutability": "view",
      "type": "function"
    },
    {
      "inputs": [
        {
          "internalType": "uint32",
          "name": "",
          "type": "uint32"
        }
      ],
      "name": "conditions",
      "outputs": [
        {
          "internalType": "uint32",
          "name": "id",
          "type": "uint32"
        },
        {
          "internalType": "string",
          "name": "cid",
          "type": "string"
        },
        {
          "internalType": "uint256",
          "name": "timestamp",
          "type": "uint256"
        },
        {
          "internalType": "string",
          "name": "hashMerkle",
          "type": "string"
        }
      ],
      "stateMutability": "view",
      "type": "function"
    },
    {
      "inputs": [
        {
          "internalType": "uint32",
          "name": "_idCommande",
          "type": "uint32"
        },
        {
          "internalType": "uint32",
          "name": "_montant",
          "type": "uint32"
        },
        {
          "internalType": "enum StructLib.ModePaiement",
          "name": "_mode",
          "type": "uint8"
        }
      ],
      "name": "effectuerPaiementVersProducteur",
      "outputs": [],
      "stateMutability": "payable",
      "type": "function"
    },
    {
      "inputs": [
        {
          "internalType": "uint32",
          "name": "_idCommande",
          "type": "uint32"
        },
        {
          "internalType": "string",
          "name": "_cid",
          "type": "string"
        }
      ],
      "name": "enregistrerCondition",
      "outputs": [],
      "stateMutability": "nonpayable",
      "type": "function"
    },
    {
      "inputs": [],
      "name": "gestionnaireActeurs",
      "outputs": [
        {
          "internalType": "contract GestionnaireActeurs",
          "name": "",
          "type": "address"
        }
      ],
      "stateMutability": "view",
      "type": "function"
    },
    {
      "inputs": [
        {
          "internalType": "uint32",
          "name": "_id",
          "type": "uint32"
        }
      ],
      "name": "getCommande",
      "outputs": [
        {
          "components": [
            {
              "internalType": "uint32",
              "name": "id",
              "type": "uint32"
            },
            {
              "internalType": "uint32",
              "name": "idRecolte",
              "type": "uint32"
            },
            {
              "internalType": "uint32",
              "name": "quantite",
              "type": "uint32"
            },
            {
              "internalType": "uint32",
              "name": "prix",
              "type": "uint32"
            },
            {
              "internalType": "bool",
              "name": "payer",
              "type": "bool"
            },
            {
              "internalType": "enum StructLib.StatutTransport",
              "name": "statutTransport",
              "type": "uint8"
            },
            {
              "internalType": "address",
              "name": "producteur",
              "type": "address"
            },
            {
              "internalType": "address",
              "name": "collecteur",
              "type": "address"
            },
            {
              "internalType": "enum StructLib.StatutProduit",
              "name": "statutRecolte",
              "type": "uint8"
            },
            {
              "internalType": "bool",
              "name": "enregistrerCondition",
              "type": "bool"
            },
            {
              "internalType": "address",
              "name": "transporteur",
              "type": "address"
            }
          ],
          "internalType": "struct StructLib.CommandeRecolte",
          "name": "",
          "type": "tuple"
        }
      ],
      "stateMutability": "view",
      "type": "function"
    },
    {
      "inputs": [],
      "name": "getCompteurCommandes",
      "outputs": [
        {
          "internalType": "uint32",
          "name": "",
          "type": "uint32"
        }
      ],
      "stateMutability": "view",
      "type": "function"
    },
    {
      "inputs": [],
      "name": "getCompteurPaiments",
      "outputs": [
        {
          "internalType": "uint32",
          "name": "",
          "type": "uint32"
        }
      ],
      "stateMutability": "view",
      "type": "function"
    },
    {
      "inputs": [],
      "name": "getCompteurRecoltes",
      "outputs": [
        {
          "internalType": "uint32",
          "name": "",
          "type": "uint32"
        }
      ],
      "stateMutability": "view",
      "type": "function"
    },
    {
      "inputs": [
        {
          "internalType": "uint32",
          "name": "_idCommande",
          "type": "uint32"
        }
      ],
      "name": "getConditionTransport",
      "outputs": [
        {
          "components": [
            {
              "internalType": "uint32",
              "name": "id",
              "type": "uint32"
            },
            {
              "internalType": "string",
              "name": "cid",
              "type": "string"
            },
            {
              "internalType": "uint256",
              "name": "timestamp",
              "type": "uint256"
            },
            {
              "internalType": "string",
              "name": "hashMerkle",
              "type": "string"
            }
          ],
          "internalType": "struct StructLib.EnregistrementCondition",
          "name": "",
          "type": "tuple"
        }
      ],
      "stateMutability": "view",
      "type": "function"
    },
    {
      "inputs": [
        {
          "internalType": "uint32",
          "name": "_id",
          "type": "uint32"
        }
      ],
      "name": "getPaiement",
      "outputs": [
        {
          "components": [
            {
              "internalType": "uint32",
              "name": "id",
              "type": "uint32"
            },
            {
              "internalType": "address",
              "name": "payeur",
              "type": "address"
            },
            {
              "internalType": "address",
              "name": "vendeur",
              "type": "address"
            },
            {
              "internalType": "uint32",
              "name": "montant",
              "type": "uint32"
            },
            {
              "internalType": "enum StructLib.ModePaiement",
              "name": "mode",
              "type": "uint8"
            },
            {
              "internalType": "uint256",
              "name": "timestamp",
              "type": "uint256"
            },
            {
              "internalType": "string",
              "name": "hashMerkle",
              "type": "string"
            }
          ],
          "internalType": "struct StructLib.Paiement",
          "name": "",
          "type": "tuple"
        }
      ],
      "stateMutability": "view",
      "type": "function"
    },
    {
      "inputs": [
        {
          "internalType": "uint32",
          "name": "_idRecolte",
          "type": "uint32"
        }
      ],
      "name": "getRecolte",
      "outputs": [
        {
          "components": [
            {
              "internalType": "uint32",
              "name": "id",
              "type": "uint32"
            },
            {
              "internalType": "uint32[]",
              "name": "idParcelle",
              "type": "uint32[]"
            },
            {
              "internalType": "uint32",
              "name": "quantite",
              "type": "uint32"
            },
            {
              "internalType": "uint32",
              "name": "prixUnit",
              "type": "uint32"
            },
            {
              "internalType": "bool",
              "name": "certifie",
              "type": "bool"
            },
            {
              "internalType": "string",
              "name": "certificatPhytosanitaire",
              "type": "string"
            },
            {
              "internalType": "address",
              "name": "producteur",
              "type": "address"
            },
            {
              "internalType": "bytes32",
              "name": "hashMerkle",
              "type": "bytes32"
            },
            {
              "internalType": "string",
              "name": "cid",
              "type": "string"
            }
          ],
          "internalType": "struct StructLib.Recolte",
          "name": "",
          "type": "tuple"
        }
      ],
      "stateMutability": "view",
      "type": "function"
    },
    {
      "inputs": [
        {
          "internalType": "address",
          "name": "_addrCE",
          "type": "address"
        },
        {
          "internalType": "address",
          "name": "_gestionnaireActeurs",
          "type": "address"
        },
        {
          "internalType": "address",
          "name": "_producteurEnPhaseCulture",
          "type": "address"
        }
      ],
      "name": "initialiser",
      "outputs": [],
      "stateMutability": "nonpayable",
      "type": "function"
    },
    {
      "inputs": [
        {
          "internalType": "uint32",
          "name": "_idCommande",
          "type": "uint32"
        },
        {
          "internalType": "enum StructLib.StatutTransport",
          "name": "_statut",
          "type": "uint8"
        }
      ],
      "name": "mettreAJourStatutTransport",
      "outputs": [],
      "stateMutability": "nonpayable",
      "type": "function"
    },
    {
      "inputs": [
        {
          "internalType": "uint32",
          "name": "",
          "type": "uint32"
        }
      ],
      "name": "paiements",
      "outputs": [
        {
          "internalType": "uint32",
          "name": "id",
          "type": "uint32"
        },
        {
          "internalType": "address",
          "name": "payeur",
          "type": "address"
        },
        {
          "internalType": "address",
          "name": "vendeur",
          "type": "address"
        },
        {
          "internalType": "uint32",
          "name": "montant",
          "type": "uint32"
        },
        {
          "internalType": "enum StructLib.ModePaiement",
          "name": "mode",
          "type": "uint8"
        },
        {
          "internalType": "uint256",
          "name": "timestamp",
          "type": "uint256"
        },
        {
          "internalType": "string",
          "name": "hashMerkle",
          "type": "string"
        }
      ],
      "stateMutability": "view",
      "type": "function"
    },
    {
      "inputs": [
        {
          "internalType": "uint32",
          "name": "_idRecolte",
          "type": "uint32"
        },
        {
          "internalType": "uint32",
          "name": "_quantite",
          "type": "uint32"
        }
      ],
      "name": "passerCommandeVersProducteur",
      "outputs": [],
      "stateMutability": "nonpayable",
      "type": "function"
    },
    {
      "inputs": [],
      "name": "producteurEnPhaseCulture",
      "outputs": [
        {
          "internalType": "contract IProducteur",
          "name": "",
          "type": "address"
        }
      ],
      "stateMutability": "view",
      "type": "function"
    },
    {
      "inputs": [
        {
          "internalType": "uint32",
          "name": "",
          "type": "uint32"
        }
      ],
      "name": "recoltes",
      "outputs": [
        {
          "internalType": "uint32",
          "name": "id",
          "type": "uint32"
        },
        {
          "internalType": "uint32",
          "name": "quantite",
          "type": "uint32"
        },
        {
          "internalType": "uint32",
          "name": "prixUnit",
          "type": "uint32"
        },
        {
          "internalType": "bool",
          "name": "certifie",
          "type": "bool"
        },
        {
          "internalType": "string",
          "name": "certificatPhytosanitaire",
          "type": "string"
        },
        {
          "internalType": "address",
          "name": "producteur",
          "type": "address"
        },
        {
          "internalType": "bytes32",
          "name": "hashMerkle",
          "type": "bytes32"
        },
        {
          "internalType": "string",
          "name": "cid",
          "type": "string"
        }
      ],
      "stateMutability": "view",
      "type": "function"
    },
    {
      "inputs": [
        {
          "internalType": "address",
          "name": "_addr",
          "type": "address"
        }
      ],
      "name": "setGestionnaireActeurs",
      "outputs": [],
      "stateMutability": "nonpayable",
      "type": "function"
    },
    {
      "inputs": [
        {
          "internalType": "address",
          "name": "_addr",
          "type": "address"
        }
      ],
      "name": "setModuleCE",
      "outputs": [],
      "stateMutability": "nonpayable",
      "type": "function"
    },
    {
      "inputs": [
        {
          "internalType": "address",
          "name": "_addr",
          "type": "address"
        }
      ],
      "name": "setProducteurEnPhaseCulture",
      "outputs": [],
      "stateMutability": "nonpayable",
      "type": "function"
    },
    {
      "inputs": [
        {
          "internalType": "uint32",
          "name": "_idCommande",
          "type": "uint32"
        },
        {
          "internalType": "bool",
          "name": "_valide",
          "type": "bool"
        }
      ],
      "name": "validerCommandeRecolte",
      "outputs": [],
      "stateMutability": "nonpayable",
      "type": "function"
    }
  ],
  "bytecode": "0x608060405234801561001057600080fd5b50615a2c80620000216000396000f3fe60806040526004361061019c5760003560e01c806384342842116100ec578063cb3948761161008a578063e550ef9911610064578063e550ef99146105e0578063f1b7e5a814610609578063f6980cc914610632578063fd643101146106725761019c565b8063cb39487614610561578063cd60462b1461058c578063d84e632d146105b75761019c565b80639e942cd4116100c65780639e942cd41461049e578063b38d3aea146104c9578063b3df2a151461050d578063b5fe2076146105365761019c565b806384342842146104235780638a16156e1461044c5780639d75741d146104755761019c565b80633e7a6049116101595780635293ea51116101335780635293ea51146103405780636f3fd6c51461037d5780637babcffa146103c45780638428d543146104075761019c565b80633e7a6049146102c1578063488dee20146102ea57806350346b0b146103155761019c565b80630b215e64146101a1578063182b03bc146101de57806319c04d0e1461020757806319f1c29014610244578063257687e61461026f5780632d5b365814610298575b600080fd5b3480156101ad57600080fd5b506101c860048036038101906101c39190614522565b6106af565b6040516101d59190615205565b60405180910390f35b3480156101ea57600080fd5b5061020560048036038101906102009190614425565b610903565b005b34801561021357600080fd5b5061022e60048036038101906102299190614522565b610f31565b60405161023b91906151e3565b60405180910390f35b34801561025057600080fd5b506102596110be565b6040516102669190615249565b60405180910390f35b34801561027b57600080fd5b50610296600480360381019061029191906143ad565b6110d6565b005b3480156102a457600080fd5b506102bf60048036038101906102ba919061467c565b61111a565b005b3480156102cd57600080fd5b506102e860048036038101906102e391906143ad565b6119d5565b005b3480156102f657600080fd5b506102ff611a19565b60405161030c9190615249565b60405180910390f35b34801561032157600080fd5b5061032a611a2d565b604051610337919061502e565b60405180910390f35b34801561034c57600080fd5b5061036760048036038101906103629190614522565b611a53565b60405161037491906151c7565b60405180910390f35b34801561038957600080fd5b506103a4600480360381019061039f9190614522565b611d6b565b6040516103bb9b9a999897969594939291906153fe565b60405180910390f35b3480156103d057600080fd5b506103eb60048036038101906103e69190614522565b611e99565b6040516103fe9796959493929190615264565b60405180910390f35b610421600480360381019061041c91906146b8565b611fd0565b005b34801561042f57600080fd5b5061044a600480360381019061044591906145b0565b6127e8565b005b34801561045857600080fd5b50610473600480360381019061046e91906145ec565b612bbc565b005b34801561048157600080fd5b5061049c60048036038101906104979190614628565b612dfa565b005b3480156104aa57600080fd5b506104b3613003565b6040516104c09190615013565b60405180910390f35b3480156104d557600080fd5b506104f060048036038101906104eb9190614522565b613029565b604051610504989796959493929190615372565b60405180910390f35b34801561051957600080fd5b50610534600480360381019061052f9190614574565b6131de565b005b34801561054257600080fd5b5061054b61340b565b6040516105589190615249565b60405180910390f35b34801561056d57600080fd5b50610576613423565b6040516105839190615249565b60405180910390f35b34801561059857600080fd5b506105a1613439565b6040516105ae9190615249565b60405180910390f35b3480156105c357600080fd5b506105de60048036038101906105d991906143ad565b613453565b005b3480156105ec57600080fd5b5061060760048036038101906106029190614628565b613497565b005b34801561061557600080fd5b50610630600480360381019061062b91906143d6565b6137de565b005b34801561063e57600080fd5b5061065960048036038101906106549190614522565b613911565b60405161066994939291906152da565b60405180910390f35b34801561067e57600080fd5b5061069960048036038101906106949190614522565b613a61565b6040516106a69190615227565b60405180910390f35b6106b7613d2f565b600260008363ffffffff1663ffffffff1681526020019081526020016000206040518060e00160405290816000820160009054906101000a900463ffffffff1663ffffffff1663ffffffff1681526020016000820160049054906101000a900473ffffffffffffffffffffffffffffffffffffffff1673ffffffffffffffffffffffffffffffffffffffff1673ffffffffffffffffffffffffffffffffffffffff1681526020016001820160009054906101000a900473ffffffffffffffffffffffffffffffffffffffff1673ffffffffffffffffffffffffffffffffffffffff1673ffffffffffffffffffffffffffffffffffffffff1681526020016001820160149054906101000a900463ffffffff1663ffffffff1663ffffffff1681526020016001820160189054906101000a900460ff166002811115610824577f4e487b7100000000000000000000000000000000000000000000000000000000600052602160045260246000fd5b600281111561085c577f4e487b7100000000000000000000000000000000000000000000000000000000600052602160045260246000fd5b81526020016002820154815260200160038201805461087a906157a4565b80601f01602080910402602001604051908101604052809291908181526020018280546108a6906157a4565b80156108f35780601f106108c8576101008083540402835291602001916108f3565b820191906000526020600020905b8154815290600101906020018083116108d657829003601f168201915b5050505050815250509050919050565b600560009054906101000a900473ffffffffffffffffffffffffffffffffffffffff1673ffffffffffffffffffffffffffffffffffffffff1663d1e47bb33360006040518363ffffffff1660e01b8152600401610961929190614fcf565b60206040518083038186803b15801561097957600080fd5b505afa15801561098d573d6000803e3d6000fd5b505050506040513d601f19601f820116820180604052508101906109b191906144b8565b6109f0576040517f08c379a00000000000000000000000000000000000000000000000000000000081526004016109e790615187565b60405180910390fd5b60005b84518163ffffffff161015610cb657600660009054906101000a900473ffffffffffffffffffffffffffffffffffffffff1673ffffffffffffffffffffffffffffffffffffffff166331686f416040518163ffffffff1660e01b815260040160206040518083038186803b158015610a6a57600080fd5b505afa158015610a7e573d6000803e3d6000fd5b505050506040513d601f19601f82011682018060405250810190610aa2919061454b565b63ffffffff16858263ffffffff1681518110610ae7577f4e487b7100000000000000000000000000000000000000000000000000000000600052603260045260246000fd5b602002602001015163ffffffff161115610b36576040517f08c379a0000000000000000000000000000000000000000000000000000000008152600401610b2d90615127565b60405180910390fd5b6000600660009054906101000a900473ffffffffffffffffffffffffffffffffffffffff1673ffffffffffffffffffffffffffffffffffffffff1663421b3e08878463ffffffff1681518110610bb5577f4e487b7100000000000000000000000000000000000000000000000000000000600052603260045260246000fd5b60200260200101516040518263ffffffff1660e01b8152600401610bd99190615249565b60006040518083038186803b158015610bf157600080fd5b505afa158015610c05573d6000803e3d6000fd5b505050506040513d6000823e3d601f19601f82011682018060405250810190610c2e91906144e1565b90503373ffffffffffffffffffffffffffffffffffffffff16816020015173ffffffffffffffffffffffffffffffffffffffff1614610ca2576040517f08c379a0000000000000000000000000000000000000000000000000000000008152600401610c9990615107565b60405180910390fd5b508080610cae906157d6565b9150506109f3565b506004600081819054906101000a900463ffffffff1680929190610cd9906157d6565b91906101000a81548163ffffffff021916908363ffffffff160217905550506000848484843342604051602001610d1596959493929190614f67565b604051602081830303815290604052805190602001209050604051806101200160405280600460009054906101000a900463ffffffff1663ffffffff1681526020018681526020018563ffffffff1681526020018463ffffffff1681526020016000151581526020016040518060200160405280600081525081526020013373ffffffffffffffffffffffffffffffffffffffff16815260200182815260200183815250600080600460009054906101000a900463ffffffff1663ffffffff1663ffffffff16815260200190815260200160002060008201518160000160006101000a81548163ffffffff021916908363ffffffff1602179055506020820151816001019080519060200190610e2c929190613ddc565b5060408201518160020160006101000a81548163ffffffff021916908363ffffffff16021790555060608201518160020160046101000a81548163ffffffff021916908363ffffffff16021790555060808201518160020160086101000a81548160ff02191690831515021790555060a0820151816003019080519060200190610eb7929190613e8c565b5060c08201518160040160006101000a81548173ffffffffffffffffffffffffffffffffffffffff021916908373ffffffffffffffffffffffffffffffffffffffff16021790555060e08201518160050155610100820151816006019080519060200190610f26929190613e8c565b509050505050505050565b610f39613f12565b600360008363ffffffff1663ffffffff1681526020019081526020016000206040518060800160405290816000820160009054906101000a900463ffffffff1663ffffffff1663ffffffff168152602001600182018054610f99906157a4565b80601f0160208091040260200160405190810160405280929190818152602001828054610fc5906157a4565b80156110125780601f10610fe757610100808354040283529160200191611012565b820191906000526020600020905b815481529060010190602001808311610ff557829003601f168201915b5050505050815260200160028201548152602001600382018054611035906157a4565b80601f0160208091040260200160405190810160405280929190818152602001828054611061906157a4565b80156110ae5780601f10611083576101008083540402835291602001916110ae565b820191906000526020600020905b81548152906001019060200180831161109157829003601f168201915b5050505050815250509050919050565b600060048054906101000a900463ffffffff16905090565b80600660006101000a81548173ffffffffffffffffffffffffffffffffffffffff021916908373ffffffffffffffffffffffffffffffffffffffff16021790555050565b600560009054906101000a900473ffffffffffffffffffffffffffffffffffffffff1673ffffffffffffffffffffffffffffffffffffffff1663d1e47bb33360036040518363ffffffff1660e01b8152600401611178929190614fcf565b60206040518083038186803b15801561119057600080fd5b505afa1580156111a4573d6000803e3d6000fd5b505050506040513d601f19601f820116820180604052508101906111c891906144b8565b611207576040517f08c379a00000000000000000000000000000000000000000000000000000000081526004016111fe906150e7565b60405180910390fd5b81600460009054906101000a900463ffffffff1663ffffffff168163ffffffff161115611269576040517f08c379a000000000000000000000000000000000000000000000000000000000815260040161126090615147565b60405180910390fd5b60008060008563ffffffff1663ffffffff168152602001908152602001600020604051806101200160405290816000820160009054906101000a900463ffffffff1663ffffffff1663ffffffff1681526020016001820180548060200260200160405190810160405280929190818152602001828054801561133657602002820191906000526020600020906000905b82829054906101000a900463ffffffff1663ffffffff16815260200190600401906020826003010492830192600103820291508084116112f95790505b505050505081526020016002820160009054906101000a900463ffffffff1663ffffffff1663ffffffff1681526020016002820160049054906101000a900463ffffffff1663ffffffff1663ffffffff1681526020016002820160089054906101000a900460ff161515151581526020016003820180546113b6906157a4565b80601f01602080910402602001604051908101604052809291908181526020018280546113e2906157a4565b801561142f5780601f106114045761010080835404028352916020019161142f565b820191906000526020600020905b81548152906001019060200180831161141257829003601f168201915b505050505081526020016004820160009054906101000a900473ffffffffffffffffffffffffffffffffffffffff1673ffffffffffffffffffffffffffffffffffffffff1673ffffffffffffffffffffffffffffffffffffffff168152602001600582015481526020016006820180546114a8906157a4565b80601f01602080910402602001604051908101604052809291908181526020018280546114d4906157a4565b80156115215780601f106114f657610100808354040283529160200191611521565b820191906000526020600020905b81548152906001019060200180831161150457829003601f168201915b5050505050815250509050806080015161153a57600080fd5b806040015163ffffffff168363ffffffff16111561155757600080fd5b826000808663ffffffff1663ffffffff16815260200190815260200160002060020160008282829054906101000a900463ffffffff1661159791906155f0565b92506101000a81548163ffffffff021916908363ffffffff16021790555060048081819054906101000a900463ffffffff16809291906115d6906157d6565b91906101000a81548163ffffffff021916908363ffffffff16021790555050600083826060015161160791906155b2565b905060405180610160016040528060048054906101000a900463ffffffff1663ffffffff1681526020018663ffffffff1681526020018563ffffffff1681526020018263ffffffff16815260200160001515815260200160006001811115611698577f4e487b7100000000000000000000000000000000000000000000000000000000600052602160045260246000fd5b81526020018360c0015173ffffffffffffffffffffffffffffffffffffffff1681526020013373ffffffffffffffffffffffffffffffffffffffff16815260200160006002811115611713577f4e487b7100000000000000000000000000000000000000000000000000000000600052602160045260246000fd5b8152602001600115158152602001600073ffffffffffffffffffffffffffffffffffffffff168152506001600060048054906101000a900463ffffffff1663ffffffff1663ffffffff16815260200190815260200160002060008201518160000160006101000a81548163ffffffff021916908363ffffffff16021790555060208201518160000160046101000a81548163ffffffff021916908363ffffffff16021790555060408201518160000160086101000a81548163ffffffff021916908363ffffffff160217905550606082015181600001600c6101000a81548163ffffffff021916908363ffffffff16021790555060808201518160000160106101000a81548160ff02191690831515021790555060a08201518160000160116101000a81548160ff02191690836001811115611878577f4e487b7100000000000000000000000000000000000000000000000000000000600052602160045260246000fd5b021790555060c08201518160010160006101000a81548173ffffffffffffffffffffffffffffffffffffffff021916908373ffffffffffffffffffffffffffffffffffffffff16021790555060e08201518160020160006101000a81548173ffffffffffffffffffffffffffffffffffffffff021916908373ffffffffffffffffffffffffffffffffffffffff1602179055506101008201518160020160146101000a81548160ff0219169083600281111561195d577f4e487b7100000000000000000000000000000000000000000000000000000000600052602160045260246000fd5b02179055506101208201518160020160156101000a81548160ff0219169083151502179055506101408201518160030160006101000a81548173ffffffffffffffffffffffffffffffffffffffff021916908373ffffffffffffffffffffffffffffffffffffffff1602179055509050505050505050565b80600560006101000a81548173ffffffffffffffffffffffffffffffffffffffff021916908373ffffffffffffffffffffffffffffffffffffffff16021790555050565b60048054906101000a900463ffffffff1681565b600660009054906101000a900473ffffffffffffffffffffffffffffffffffffffff1681565b611a5b613f40565b600160008363ffffffff1663ffffffff168152602001908152602001600020604051806101600160405290816000820160009054906101000a900463ffffffff1663ffffffff1663ffffffff1681526020016000820160049054906101000a900463ffffffff1663ffffffff1663ffffffff1681526020016000820160089054906101000a900463ffffffff1663ffffffff1663ffffffff16815260200160008201600c9054906101000a900463ffffffff1663ffffffff1663ffffffff1681526020016000820160109054906101000a900460ff161515151581526020016000820160119054906101000a900460ff166001811115611b84577f4e487b7100000000000000000000000000000000000000000000000000000000600052602160045260246000fd5b6001811115611bbc577f4e487b7100000000000000000000000000000000000000000000000000000000600052602160045260246000fd5b81526020016001820160009054906101000a900473ffffffffffffffffffffffffffffffffffffffff1673ffffffffffffffffffffffffffffffffffffffff1673ffffffffffffffffffffffffffffffffffffffff1681526020016002820160009054906101000a900473ffffffffffffffffffffffffffffffffffffffff1673ffffffffffffffffffffffffffffffffffffffff1673ffffffffffffffffffffffffffffffffffffffff1681526020016002820160149054906101000a900460ff166002811115611cb7577f4e487b7100000000000000000000000000000000000000000000000000000000600052602160045260246000fd5b6002811115611cef577f4e487b7100000000000000000000000000000000000000000000000000000000600052602160045260246000fd5b81526020016002820160159054906101000a900460ff161515151581526020016003820160009054906101000a900473ffffffffffffffffffffffffffffffffffffffff1673ffffffffffffffffffffffffffffffffffffffff1673ffffffffffffffffffffffffffffffffffffffff16815250509050919050565b60016020528060005260406000206000915090508060000160009054906101000a900463ffffffff16908060000160049054906101000a900463ffffffff16908060000160089054906101000a900463ffffffff169080600001600c9054906101000a900463ffffffff16908060000160109054906101000a900460ff16908060000160119054906101000a900460ff16908060010160009054906101000a900473ffffffffffffffffffffffffffffffffffffffff16908060020160009054906101000a900473ffffffffffffffffffffffffffffffffffffffff16908060020160149054906101000a900460ff16908060020160159054906101000a900460ff16908060030160009054906101000a900473ffffffffffffffffffffffffffffffffffffffff1690508b565b60026020528060005260406000206000915090508060000160009054906101000a900463ffffffff16908060000160049054906101000a900473ffffffffffffffffffffffffffffffffffffffff16908060010160009054906101000a900473ffffffffffffffffffffffffffffffffffffffff16908060010160149054906101000a900463ffffffff16908060010160189054906101000a900460ff1690806002015490806003018054611f4d906157a4565b80601f0160208091040260200160405190810160405280929190818152602001828054611f79906157a4565b8015611fc65780601f10611f9b57610100808354040283529160200191611fc6565b820191906000526020600020905b815481529060010190602001808311611fa957829003601f168201915b5050505050905087565b600560009054906101000a900473ffffffffffffffffffffffffffffffffffffffff1673ffffffffffffffffffffffffffffffffffffffff1663d1e47bb33360036040518363ffffffff1660e01b815260040161202e929190614fcf565b60206040518083038186803b15801561204657600080fd5b505afa15801561205a573d6000803e3d6000fd5b505050506040513d601f19601f8201168201806040525081019061207e91906144b8565b6120bd576040517f08c379a00000000000000000000000000000000000000000000000000000000081526004016120b4906150e7565b60405180910390fd5b8260048054906101000a900463ffffffff1663ffffffff168163ffffffff16111561211d576040517f08c379a0000000000000000000000000000000000000000000000000000000008152600401612114906150a7565b60405180910390fd5b6000600160008663ffffffff1663ffffffff168152602001908152602001600020604051806101600160405290816000820160009054906101000a900463ffffffff1663ffffffff1663ffffffff1681526020016000820160049054906101000a900463ffffffff1663ffffffff1663ffffffff1681526020016000820160089054906101000a900463ffffffff1663ffffffff1663ffffffff16815260200160008201600c9054906101000a900463ffffffff1663ffffffff1663ffffffff1681526020016000820160109054906101000a900460ff161515151581526020016000820160119054906101000a900460ff166001811115612248577f4e487b7100000000000000000000000000000000000000000000000000000000600052602160045260246000fd5b6001811115612280577f4e487b7100000000000000000000000000000000000000000000000000000000600052602160045260246000fd5b81526020016001820160009054906101000a900473ffffffffffffffffffffffffffffffffffffffff1673ffffffffffffffffffffffffffffffffffffffff1673ffffffffffffffffffffffffffffffffffffffff1681526020016002820160009054906101000a900473ffffffffffffffffffffffffffffffffffffffff1673ffffffffffffffffffffffffffffffffffffffff1673ffffffffffffffffffffffffffffffffffffffff1681526020016002820160149054906101000a900460ff16600281111561237b577f4e487b7100000000000000000000000000000000000000000000000000000000600052602160045260246000fd5b60028111156123b3577f4e487b7100000000000000000000000000000000000000000000000000000000600052602160045260246000fd5b81526020016002820160159054906101000a900460ff161515151581526020016003820160009054906101000a900473ffffffffffffffffffffffffffffffffffffffff1673ffffffffffffffffffffffffffffffffffffffff1673ffffffffffffffffffffffffffffffffffffffff1681525050905080608001511561243957600080fd5b806060015163ffffffff168463ffffffff161461245557600080fd5b6001600281111561248f577f4e487b7100000000000000000000000000000000000000000000000000000000600052602160045260246000fd5b81610100015160028111156124cd577f4e487b7100000000000000000000000000000000000000000000000000000000600052602160045260246000fd5b146124d757600080fd5b600460089054906101000a900473ffffffffffffffffffffffffffffffffffffffff1673ffffffffffffffffffffffffffffffffffffffff166389c1ca53826000015183602001518460400151336040518563ffffffff1660e01b8152600401612544949392919061532d565b600060405180830381600087803b15801561255e57600080fd5b505af1158015612572573d6000803e3d6000fd5b5050505060018060008763ffffffff1663ffffffff16815260200190815260200160002060000160106101000a81548160ff0219169083151502179055506040518060e001604052808663ffffffff1681526020013373ffffffffffffffffffffffffffffffffffffffff1681526020018260c0015173ffffffffffffffffffffffffffffffffffffffff1681526020018563ffffffff168152602001846002811115612648577f4e487b7100000000000000000000000000000000000000000000000000000000600052602160045260246000fd5b815260200142815260200160405180602001604052806000815250815250600260008763ffffffff1663ffffffff16815260200190815260200160002060008201518160000160006101000a81548163ffffffff021916908363ffffffff16021790555060208201518160000160046101000a81548173ffffffffffffffffffffffffffffffffffffffff021916908373ffffffffffffffffffffffffffffffffffffffff16021790555060408201518160010160006101000a81548173ffffffffffffffffffffffffffffffffffffffff021916908373ffffffffffffffffffffffffffffffffffffffff16021790555060608201518160010160146101000a81548163ffffffff021916908363ffffffff16021790555060808201518160010160186101000a81548160ff021916908360028111156127b2577f4e487b7100000000000000000000000000000000000000000000000000000000600052602160045260246000fd5b021790555060a0820151816002015560c08201518160030190805190602001906127dd929190613e8c565b509050505050505050565b600560009054906101000a900473ffffffffffffffffffffffffffffffffffffffff1673ffffffffffffffffffffffffffffffffffffffff1663d1e47bb33360036040518363ffffffff1660e01b8152600401612846929190614fcf565b60206040518083038186803b15801561285e57600080fd5b505afa158015612872573d6000803e3d6000fd5b505050506040513d601f19601f8201168201806040525081019061289691906144b8565b6128d5576040517f08c379a00000000000000000000000000000000000000000000000000000000081526004016128cc906150e7565b60405180910390fd5b8160048054906101000a900463ffffffff1663ffffffff168163ffffffff161115612935576040517f08c379a000000000000000000000000000000000000000000000000000000000815260040161292c906150a7565b60405180910390fd5b60018081111561296e577f4e487b7100000000000000000000000000000000000000000000000000000000600052602160045260246000fd5b600160008563ffffffff1663ffffffff16815260200190815260200160002060000160119054906101000a900460ff1660018111156129d6577f4e487b7100000000000000000000000000000000000000000000000000000000600052602160045260246000fd5b146129e057600080fd5b60006002811115612a1a577f4e487b7100000000000000000000000000000000000000000000000000000000600052602160045260246000fd5b600160008563ffffffff1663ffffffff16815260200190815260200160002060020160149054906101000a900460ff166002811115612a82577f4e487b7100000000000000000000000000000000000000000000000000000000600052602160045260246000fd5b14612a8c57600080fd5b8115612b075760018060008563ffffffff1663ffffffff16815260200190815260200160002060020160146101000a81548160ff02191690836002811115612afd577f4e487b7100000000000000000000000000000000000000000000000000000000600052602160045260246000fd5b0217905550612b79565b6002600160008563ffffffff1663ffffffff16815260200190815260200160002060020160146101000a81548160ff02191690836002811115612b73577f4e487b7100000000000000000000000000000000000000000000000000000000600052602160045260246000fd5b02179055505b8263ffffffff167f1df7b2ecf94baf358d5ffc6f43b2769c0b74ac06ff426c80d5eb4106388cb5de83604051612baf9190614ff8565b60405180910390a2505050565b600560009054906101000a900473ffffffffffffffffffffffffffffffffffffffff1673ffffffffffffffffffffffffffffffffffffffff1663d1e47bb33360056040518363ffffffff1660e01b8152600401612c1a929190614fcf565b60206040518083038186803b158015612c3257600080fd5b505afa158015612c46573d6000803e3d6000fd5b505050506040513d601f19601f82011682018060405250810190612c6a91906144b8565b612ca9576040517f08c379a0000000000000000000000000000000000000000000000000000000008152600401612ca0906150c7565b60405180910390fd5b8160048054906101000a900463ffffffff1663ffffffff168163ffffffff161115612d09576040517f08c379a0000000000000000000000000000000000000000000000000000000008152600401612d00906150a7565b60405180910390fd5b823373ffffffffffffffffffffffffffffffffffffffff16600160008363ffffffff1663ffffffff16815260200190815260200160002060030160009054906101000a900473ffffffffffffffffffffffffffffffffffffffff1673ffffffffffffffffffffffffffffffffffffffff1614612d8457600080fd5b82600160008663ffffffff1663ffffffff16815260200190815260200160002060000160116101000a81548160ff02191690836001811115612def577f4e487b7100000000000000000000000000000000000000000000000000000000600052602160045260246000fd5b021790555050505050565b600560009054906101000a900473ffffffffffffffffffffffffffffffffffffffff1673ffffffffffffffffffffffffffffffffffffffff1663d1e47bb33360026040518363ffffffff1660e01b8152600401612e58929190614fcf565b60206040518083038186803b158015612e7057600080fd5b505afa158015612e84573d6000803e3d6000fd5b505050506040513d601f19601f82011682018060405250810190612ea891906144b8565b612ee7576040517f08c379a0000000000000000000000000000000000000000000000000000000008152600401612ede90615087565b60405180910390fd5b81600460009054906101000a900463ffffffff1663ffffffff168163ffffffff161115612f49576040517f08c379a0000000000000000000000000000000000000000000000000000000008152600401612f4090615147565b60405180910390fd5b600082511415612f8e576040517f08c379a0000000000000000000000000000000000000000000000000000000008152600401612f8590615167565b60405180910390fd5b60016000808563ffffffff1663ffffffff16815260200190815260200160002060020160086101000a81548160ff021916908315150217905550816000808563ffffffff1663ffffffff1681526020019081526020016000206003019080519060200190612ffd929190613e8c565b50505050565b600560009054906101000a900473ffffffffffffffffffffffffffffffffffffffff1681565b60006020528060005260406000206000915090508060000160009054906101000a900463ffffffff16908060020160009054906101000a900463ffffffff16908060020160049054906101000a900463ffffffff16908060020160089054906101000a900460ff16908060030180546130a1906157a4565b80601f01602080910402602001604051908101604052809291908181526020018280546130cd906157a4565b801561311a5780601f106130ef5761010080835404028352916020019161311a565b820191906000526020600020905b8154815290600101906020018083116130fd57829003601f168201915b5050505050908060040160009054906101000a900473ffffffffffffffffffffffffffffffffffffffff169080600501549080600601805461315b906157a4565b80601f0160208091040260200160405190810160405280929190818152602001828054613187906157a4565b80156131d45780601f106131a9576101008083540402835291602001916131d4565b820191906000526020600020905b8154815290600101906020018083116131b757829003601f168201915b5050505050905088565b600560009054906101000a900473ffffffffffffffffffffffffffffffffffffffff1673ffffffffffffffffffffffffffffffffffffffff1663d1e47bb33360036040518363ffffffff1660e01b815260040161323c929190614fcf565b60206040518083038186803b15801561325457600080fd5b505afa158015613268573d6000803e3d6000fd5b505050506040513d601f19601f8201168201806040525081019061328c91906144b8565b6132cb576040517f08c379a00000000000000000000000000000000000000000000000000000000081526004016132c2906150e7565b60405180910390fd5b8160048054906101000a900463ffffffff1663ffffffff168163ffffffff16111561332b576040517f08c379a0000000000000000000000000000000000000000000000000000000008152600401613322906150a7565b60405180910390fd5b3373ffffffffffffffffffffffffffffffffffffffff16600160008563ffffffff1663ffffffff16815260200190815260200160002060020160009054906101000a900473ffffffffffffffffffffffffffffffffffffffff1673ffffffffffffffffffffffffffffffffffffffff16146133a557600080fd5b81600160008563ffffffff1663ffffffff16815260200190815260200160002060030160006101000a81548173ffffffffffffffffffffffffffffffffffffffff021916908373ffffffffffffffffffffffffffffffffffffffff160217905550505050565b600060048054906101000a900463ffffffff16905090565b600460009054906101000a900463ffffffff1681565b6000600460009054906101000a900463ffffffff16905090565b80600460086101000a81548173ffffffffffffffffffffffffffffffffffffffff021916908373ffffffffffffffffffffffffffffffffffffffff16021790555050565b600560009054906101000a900473ffffffffffffffffffffffffffffffffffffffff1673ffffffffffffffffffffffffffffffffffffffff1663d1e47bb33360056040518363ffffffff1660e01b81526004016134f5929190614fcf565b60206040518083038186803b15801561350d57600080fd5b505afa158015613521573d6000803e3d6000fd5b505050506040513d601f19601f8201168201806040525081019061354591906144b8565b613584576040517f08c379a000000000000000000000000000000000000000000000000000000000815260040161357b906150c7565b60405180910390fd5b8160048054906101000a900463ffffffff1663ffffffff168163ffffffff1611156135e4576040517f08c379a00000000000000000000000000000000000000000000000000000000081526004016135db906150a7565b60405180910390fd5b823373ffffffffffffffffffffffffffffffffffffffff16600160008363ffffffff1663ffffffff16815260200190815260200160002060030160009054906101000a900473ffffffffffffffffffffffffffffffffffffffff1673ffffffffffffffffffffffffffffffffffffffff161461365f57600080fd5b600160008563ffffffff1663ffffffff16815260200190815260200160002060020160159054906101000a900460ff161561369957600080fd5b60018060008663ffffffff1663ffffffff16815260200190815260200160002060020160156101000a81548160ff02191690831515021790555060405180608001604052808563ffffffff16815260200184815260200142815260200160405180602001604052806000815250815250600360008663ffffffff1663ffffffff16815260200190815260200160002060008201518160000160006101000a81548163ffffffff021916908363ffffffff160217905550602082015181600101908051906020019061376b929190613e8c565b50604082015181600201556060820151816003019080519060200190613792929190613e8c565b509050508363ffffffff167fbcbce0994790c925173de558389c26cc831b555df7ed8b14077b3811069cec578442336040516137d093929190615049565b60405180910390a250505050565b600660149054906101000a900460ff161561382e576040517f08c379a0000000000000000000000000000000000000000000000000000000008152600401613825906151a7565b60405180910390fd5b82600460086101000a81548173ffffffffffffffffffffffffffffffffffffffff021916908373ffffffffffffffffffffffffffffffffffffffff16021790555081600560006101000a81548173ffffffffffffffffffffffffffffffffffffffff021916908373ffffffffffffffffffffffffffffffffffffffff16021790555080600660006101000a81548173ffffffffffffffffffffffffffffffffffffffff021916908373ffffffffffffffffffffffffffffffffffffffff1602179055506001600660146101000a81548160ff021916908315150217905550505050565b60036020528060005260406000206000915090508060000160009054906101000a900463ffffffff169080600101805461394a906157a4565b80601f0160208091040260200160405190810160405280929190818152602001828054613976906157a4565b80156139c35780601f10613998576101008083540402835291602001916139c3565b820191906000526020600020905b8154815290600101906020018083116139a657829003601f168201915b5050505050908060020154908060030180546139de906157a4565b80601f0160208091040260200160405190810160405280929190818152602001828054613a0a906157a4565b8015613a575780601f10613a2c57610100808354040283529160200191613a57565b820191906000526020600020905b815481529060010190602001808311613a3a57829003601f168201915b5050505050905084565b613a69614068565b6000808363ffffffff1663ffffffff168152602001908152602001600020604051806101200160405290816000820160009054906101000a900463ffffffff1663ffffffff1663ffffffff16815260200160018201805480602002602001604051908101604052809291908181526020018280548015613b3457602002820191906000526020600020906000905b82829054906101000a900463ffffffff1663ffffffff1681526020019060040190602082600301049283019260010382029150808411613af75790505b505050505081526020016002820160009054906101000a900463ffffffff1663ffffffff1663ffffffff1681526020016002820160049054906101000a900463ffffffff1663ffffffff1663ffffffff1681526020016002820160089054906101000a900460ff16151515158152602001600382018054613bb4906157a4565b80601f0160208091040260200160405190810160405280929190818152602001828054613be0906157a4565b8015613c2d5780601f10613c0257610100808354040283529160200191613c2d565b820191906000526020600020905b815481529060010190602001808311613c1057829003601f168201915b505050505081526020016004820160009054906101000a900473ffffffffffffffffffffffffffffffffffffffff1673ffffffffffffffffffffffffffffffffffffffff1673ffffffffffffffffffffffffffffffffffffffff16815260200160058201548152602001600682018054613ca6906157a4565b80601f0160208091040260200160405190810160405280929190818152602001828054613cd2906157a4565b8015613d1f5780601f10613cf457610100808354040283529160200191613d1f565b820191906000526020600020905b815481529060010190602001808311613d0257829003601f168201915b5050505050815250509050919050565b6040518060e00160405280600063ffffffff168152602001600073ffffffffffffffffffffffffffffffffffffffff168152602001600073ffffffffffffffffffffffffffffffffffffffff168152602001600063ffffffff16815260200160006002811115613dc8577f4e487b7100000000000000000000000000000000000000000000000000000000600052602160045260246000fd5b815260200160008152602001606081525090565b82805482825590600052602060002090600701600890048101928215613e7b5791602002820160005b83821115613e4957835183826101000a81548163ffffffff021916908363ffffffff1602179055509260200192600401602081600301049283019260010302613e05565b8015613e795782816101000a81549063ffffffff0219169055600401602081600301049283019260010302613e49565b505b509050613e8891906140e1565b5090565b828054613e98906157a4565b90600052602060002090601f016020900481019282613eba5760008555613f01565b82601f10613ed357805160ff1916838001178555613f01565b82800160010185558215613f01579182015b82811115613f00578251825591602001919060010190613ee5565b5b509050613f0e91906140e1565b5090565b6040518060800160405280600063ffffffff1681526020016060815260200160008152602001606081525090565b604051806101600160405280600063ffffffff168152602001600063ffffffff168152602001600063ffffffff168152602001600063ffffffff16815260200160001515815260200160006001811115613fc3577f4e487b7100000000000000000000000000000000000000000000000000000000600052602160045260246000fd5b8152602001600073ffffffffffffffffffffffffffffffffffffffff168152602001600073ffffffffffffffffffffffffffffffffffffffff1681526020016000600281111561403c577f4e487b7100000000000000000000000000000000000000000000000000000000600052602160045260246000fd5b8152602001600015158152602001600073ffffffffffffffffffffffffffffffffffffffff1681525090565b604051806101200160405280600063ffffffff16815260200160608152602001600063ffffffff168152602001600063ffffffff16815260200160001515815260200160608152602001600073ffffffffffffffffffffffffffffffffffffffff16815260200160008019168152602001606081525090565b5b808211156140fa5760008160009055506001016140e2565b5090565b600061411161410c846154da565b6154a9565b9050808382526020820190508285602086028201111561413057600080fd5b60005b8581101561416057816141468882614383565b845260208401935060208301925050600181019050614133565b5050509392505050565b600061417d61417884615506565b6154a9565b90508281526020810184848401111561419557600080fd5b6141a0848285615762565b509392505050565b60006141bb6141b684615506565b6154a9565b9050828152602081018484840111156141d357600080fd5b6141de848285615771565b509392505050565b6000813590506141f58161597a565b92915050565b60008151905061420a8161597a565b92915050565b600082601f83011261422157600080fd5b81356142318482602086016140fe565b91505092915050565b60008135905061424981615991565b92915050565b60008151905061425e81615991565b92915050565b600081519050614273816159a8565b92915050565b600081359050614288816159bf565b92915050565b60008135905061429d816159cf565b92915050565b600082601f8301126142b457600080fd5b81356142c484826020860161416a565b91505092915050565b600082601f8301126142de57600080fd5b81516142ee8482602086016141a8565b91505092915050565b60006080828403121561430957600080fd5b61431360806154a9565b9050600061432384828501614398565b6000830152506020614337848285016141fb565b602083015250604082015167ffffffffffffffff81111561435757600080fd5b614363848285016142cd565b604083015250606061437784828501614264565b60608301525092915050565b600081359050614392816159df565b92915050565b6000815190506143a7816159df565b92915050565b6000602082840312156143bf57600080fd5b60006143cd848285016141e6565b91505092915050565b6000806000606084860312156143eb57600080fd5b60006143f9868287016141e6565b935050602061440a868287016141e6565b925050604061441b868287016141e6565b9150509250925092565b6000806000806080858703121561443b57600080fd5b600085013567ffffffffffffffff81111561445557600080fd5b61446187828801614210565b945050602061447287828801614383565b935050604061448387828801614383565b925050606085013567ffffffffffffffff8111156144a057600080fd5b6144ac878288016142a3565b91505092959194509250565b6000602082840312156144ca57600080fd5b60006144d88482850161424f565b91505092915050565b6000602082840312156144f357600080fd5b600082015167ffffffffffffffff81111561450d57600080fd5b614519848285016142f7565b91505092915050565b60006020828403121561453457600080fd5b600061454284828501614383565b91505092915050565b60006020828403121561455d57600080fd5b600061456b84828501614398565b91505092915050565b6000806040838503121561458757600080fd5b600061459585828601614383565b92505060206145a6858286016141e6565b9150509250929050565b600080604083850312156145c357600080fd5b60006145d185828601614383565b92505060206145e28582860161423a565b9150509250929050565b600080604083850312156145ff57600080fd5b600061460d85828601614383565b925050602061461e8582860161428e565b9150509250929050565b6000806040838503121561463b57600080fd5b600061464985828601614383565b925050602083013567ffffffffffffffff81111561466657600080fd5b614672858286016142a3565b9150509250929050565b6000806040838503121561468f57600080fd5b600061469d85828601614383565b92505060206146ae85828601614383565b9150509250929050565b6000806000606084860312156146cd57600080fd5b60006146db86828701614383565b93505060206146ec86828701614383565b92505060406146fd86828701614279565b9150509250925092565b60006147138383614f23565b60208301905092915050565b600061472b8383614f41565b60208301905092915050565b61474081615624565b82525050565b61474f81615624565b82525050565b61476661476182615624565b615803565b82525050565b600061477782615546565b6147818185615569565b935061478c83615536565b8060005b838110156147bd5781516147a48882614707565b97506147af8361555c565b925050600181019050614790565b5085935050505092915050565b60006147d582615546565b6147df818561557a565b93506147ea83615536565b8060005b8381101561481b578151614802888261471f565b975061480d8361555c565b9250506001810190506147ee565b5085935050505092915050565b61483181615636565b82525050565b61484081615636565b82525050565b61484f81615642565b82525050565b61485e81615642565b82525050565b61486d816156d2565b82525050565b61487c816156f6565b82525050565b61488b8161571a565b82525050565b61489a8161571a565b82525050565b6148a98161572c565b82525050565b6148b88161573e565b82525050565b6148c78161573e565b82525050565b6148d681615750565b82525050565b6148e581615750565b82525050565b60006148f682615551565b6149008185615585565b9350614910818560208601615771565b614919816158ff565b840191505092915050565b600061492f82615551565b6149398185615596565b9350614949818560208601615771565b614952816158ff565b840191505092915050565b600061496882615551565b61497281856155a7565b9350614982818560208601615771565b80840191505092915050565b600061499b601783615596565b91507f7365756c656d656e7420436572746966696361746575720000000000000000006000830152602082019050919050565b60006149db601583615596565b91507f436f6d6d616e6465206e6f6e206578697374616e7400000000000000000000006000830152602082019050919050565b6000614a1b601683615596565b91507f7365756c656d656e74205472616e73706f7274657572000000000000000000006000830152602082019050919050565b6000614a5b601483615596565b91507f7365756c656d656e7420436f6c6c6563746575720000000000000000000000006000830152602082019050919050565b6000614a9b602883615596565b91507f566f7573206e27657374207061732070726f707269657461697265206475207060008301527f617263656c6c652e0000000000000000000000000000000000000000000000006020830152604082019050919050565b6000614b01601683615596565b91507f50617263656c6c65206e6f6e206578697374616e742e000000000000000000006000830152602082019050919050565b6000614b41601483615596565b91507f5265636f6c7465206e6f6e206578697374616e740000000000000000000000006000830152602082019050919050565b6000614b81600f83615596565b91507f43657274696669636174207669646500000000000000000000000000000000006000830152602082019050919050565b6000614bc1601483615596565b91507f7365756c656d656e742050726f647563746575720000000000000000000000006000830152602082019050919050565b6000614c01601a83615596565b91507f436f6e747261742064656a6120696e697469616c6973657220210000000000006000830152602082019050919050565b61016082016000820151614c4b6000850182614f23565b506020820151614c5e6020850182614f23565b506040820151614c716040850182614f23565b506060820151614c846060850182614f23565b506080820151614c976080850182614828565b5060a0820151614caa60a08501826148cd565b5060c0820151614cbd60c0850182614737565b5060e0820151614cd060e0850182614737565b50610100820151614ce56101008501826148af565b50610120820151614cfa610120850182614828565b50610140820151614d0f610140850182614737565b50505050565b6000608083016000830151614d2d6000860182614f23565b5060208301518482036020860152614d4582826148eb565b9150506040830151614d5a6040860182614eee565b5060608301518482036060860152614d7282826148eb565b9150508091505092915050565b600060e083016000830151614d976000860182614f23565b506020830151614daa6020860182614737565b506040830151614dbd6040860182614737565b506060830151614dd06060860182614f23565b506080830151614de36080860182614882565b5060a0830151614df660a0860182614eee565b5060c083015184820360c0860152614e0e82826148eb565b9150508091505092915050565b600061012083016000830151614e346000860182614f23565b5060208301518482036020860152614e4c828261476c565b9150506040830151614e616040860182614f23565b506060830151614e746060860182614f23565b506080830151614e876080860182614828565b5060a083015184820360a0860152614e9f82826148eb565b91505060c0830151614eb460c0860182614737565b5060e0830151614ec760e0860182614846565b50610100830151848203610100860152614ee182826148eb565b9150508091505092915050565b614ef7816156b8565b82525050565b614f06816156b8565b82525050565b614f1d614f18826156b8565b615827565b82525050565b614f2c816156c2565b82525050565b614f3b816156c2565b82525050565b614f4a816156c2565b82525050565b614f61614f5c826156c2565b615831565b82525050565b6000614f7382896147ca565b9150614f7f8288614f50565b600482019150614f8f8287614f50565b600482019150614f9f828661495d565b9150614fab8285614755565b601482019150614fbb8284614f0c565b602082019150819050979650505050505050565b6000604082019050614fe46000830185614746565b614ff160208301846148a0565b9392505050565b600060208201905061500d6000830184614837565b92915050565b60006020820190506150286000830184614864565b92915050565b60006020820190506150436000830184614873565b92915050565b600060608201905081810360008301526150638186614924565b90506150726020830185614efd565b61507f6040830184614746565b949350505050565b600060208201905081810360008301526150a08161498e565b9050919050565b600060208201905081810360008301526150c0816149ce565b9050919050565b600060208201905081810360008301526150e081614a0e565b9050919050565b6000602082019050818103600083015261510081614a4e565b9050919050565b6000602082019050818103600083015261512081614a8e565b9050919050565b6000602082019050818103600083015261514081614af4565b9050919050565b6000602082019050818103600083015261516081614b34565b9050919050565b6000602082019050818103600083015261518081614b74565b9050919050565b600060208201905081810360008301526151a081614bb4565b9050919050565b600060208201905081810360008301526151c081614bf4565b9050919050565b6000610160820190506151dd6000830184614c34565b92915050565b600060208201905081810360008301526151fd8184614d15565b905092915050565b6000602082019050818103600083015261521f8184614d7f565b905092915050565b600060208201905081810360008301526152418184614e1b565b905092915050565b600060208201905061525e6000830184614f32565b92915050565b600060e082019050615279600083018a614f32565b6152866020830189614746565b6152936040830188614746565b6152a06060830187614f32565b6152ad6080830186614891565b6152ba60a0830185614efd565b81810360c08301526152cc8184614924565b905098975050505050505050565b60006080820190506152ef6000830187614f32565b81810360208301526153018186614924565b90506153106040830185614efd565b81810360608301526153228184614924565b905095945050505050565b60006080820190506153426000830187614f32565b61534f6020830186614f32565b61535c6040830185614f32565b6153696060830184614746565b95945050505050565b600061010082019050615388600083018b614f32565b615395602083018a614f32565b6153a26040830189614f32565b6153af6060830188614837565b81810360808301526153c18187614924565b90506153d060a0830186614746565b6153dd60c0830185614855565b81810360e08301526153ef8184614924565b90509998505050505050505050565b600061016082019050615414600083018e614f32565b615421602083018d614f32565b61542e604083018c614f32565b61543b606083018b614f32565b615448608083018a614837565b61545560a08301896148dc565b61546260c0830188614746565b61546f60e0830187614746565b61547d6101008301866148be565b61548b610120830185614837565b615499610140830184614746565b9c9b505050505050505050505050565b6000604051905081810181811067ffffffffffffffff821117156154d0576154cf6158d0565b5b8060405250919050565b600067ffffffffffffffff8211156154f5576154f46158d0565b5b602082029050602081019050919050565b600067ffffffffffffffff821115615521576155206158d0565b5b601f19601f8301169050602081019050919050565b6000819050602082019050919050565b600081519050919050565b600081519050919050565b6000602082019050919050565b600082825260208201905092915050565b600081905092915050565b600082825260208201905092915050565b600082825260208201905092915050565b600081905092915050565b60006155bd826156c2565b91506155c8836156c2565b92508163ffffffff04831182151516156155e5576155e4615843565b5b828202905092915050565b60006155fb826156c2565b9150615606836156c2565b92508282101561561957615618615843565b5b828203905092915050565b600061562f82615698565b9050919050565b60008115159050919050565b6000819050919050565b600081905061565a8261592a565b919050565b600081905061566d8261593e565b919050565b600081905061568082615952565b919050565b600081905061569382615966565b919050565b600073ffffffffffffffffffffffffffffffffffffffff82169050919050565b6000819050919050565b600063ffffffff82169050919050565b60006156dd826156e4565b9050919050565b60006156ef82615698565b9050919050565b600061570182615708565b9050919050565b600061571382615698565b9050919050565b60006157258261564c565b9050919050565b60006157378261565f565b9050919050565b600061574982615672565b9050919050565b600061575b82615685565b9050919050565b82818337600083830152505050565b60005b8381101561578f578082015181840152602081019050615774565b8381111561579e576000848401525b50505050565b600060028204905060018216806157bc57607f821691505b602082108114156157d0576157cf6158a1565b5b50919050565b60006157e1826156c2565b915063ffffffff8214156157f8576157f7615843565b5b600182019050919050565b600061580e82615815565b9050919050565b60006158208261591d565b9050919050565b6000819050919050565b600061583c82615910565b9050919050565b7f4e487b7100000000000000000000000000000000000000000000000000000000600052601160045260246000fd5b7f4e487b7100000000000000000000000000000000000000000000000000000000600052602160045260246000fd5b7f4e487b7100000000000000000000000000000000000000000000000000000000600052602260045260246000fd5b7f4e487b7100000000000000000000000000000000000000000000000000000000600052604160045260246000fd5b6000601f19601f8301169050919050565b60008160e01b9050919050565b60008160601b9050919050565b6003811061593b5761593a615872565b5b50565b6008811061594f5761594e615872565b5b50565b6003811061596357615962615872565b5b50565b6002811061597757615976615872565b5b50565b61598381615624565b811461598e57600080fd5b50565b61599a81615636565b81146159a557600080fd5b50565b6159b181615642565b81146159bc57600080fd5b50565b600381106159cc57600080fd5b50565b600281106159dc57600080fd5b50565b6159e8816156c2565b81146159f357600080fd5b5056fea2646970667358221220531281efc4f5ac0b165bf25fd9b70d16e48f174d3cd8e0db1885ecf8c4aa6e4464736f6c63430008000033",
  "linkReferences": {},
  "deployedLinkReferences": {}
}