{
  "_format": "hh-sol-artifact-1",
  "contractName": "CollecteurProducteur",
  "sourceName": "contracts/CollecteurProducteur.sol",
  "abi": [
    {
      "inputs": [
        {
          "internalType": "address",
          "name": "_addrCE",
          "type": "address"
        },
        {
          "internalType": "address",
          "name": "_producteur",
          "type": "address"
        }
      ],
      "stateMutability": "nonpayable",
      "type": "constructor"
    },
    {
      "inputs": [
        {
          "internalType": "uint32",
          "name": "_idParcelle",
          "type": "uint32"
        },
        {
          "internalType": "uint32",
          "name": "_quantite",
          "type": "uint32"
        },
        {
          "internalType": "uint32",
          "name": "_prix",
          "type": "uint32"
        },
        {
          "internalType": "string",
          "name": "_dateRecolte",
          "type": "string"
        },
        {
          "internalType": "string",
          "name": "_nomProduit",
          "type": "string"
        }
      ],
      "name": "ajoutRecolte",
      "outputs": [],
      "stateMutability": "nonpayable",
      "type": "function"
    },
    {
      "inputs": [
        {
          "internalType": "uint32",
          "name": "_idRecolte",
          "type": "uint32"
        },
        {
          "internalType": "string",
          "name": "_certificat",
          "type": "string"
        }
      ],
      "name": "certifieRecolte",
      "outputs": [],
      "stateMutability": "nonpayable",
      "type": "function"
    },
    {
      "inputs": [
        {
          "internalType": "uint32",
          "name": "",
          "type": "uint32"
        }
      ],
      "name": "commandes",
      "outputs": [
        {
          "internalType": "uint32",
          "name": "id",
          "type": "uint32"
        },
        {
          "internalType": "uint32",
          "name": "idRecolte",
          "type": "uint32"
        },
        {
          "internalType": "uint32",
          "name": "quantite",
          "type": "uint32"
        },
        {
          "internalType": "uint32",
          "name": "prix",
          "type": "uint32"
        },
        {
          "internalType": "bool",
          "name": "payer",
          "type": "bool"
        },
        {
          "internalType": "enum StructLib.StatutTransport",
          "name": "statutTransport",
          "type": "uint8"
        },
        {
          "internalType": "address",
          "name": "producteur",
          "type": "address"
        },
        {
          "internalType": "address",
          "name": "collecteur",
          "type": "address"
        }
      ],
      "stateMutability": "view",
      "type": "function"
    },
    {
      "inputs": [],
      "name": "compteurCommandes",
      "outputs": [
        {
          "internalType": "uint32",
          "name": "",
          "type": "uint32"
        }
      ],
      "stateMutability": "view",
      "type": "function"
    },
    {
      "inputs": [],
      "name": "compteurPaiements",
      "outputs": [
        {
          "internalType": "uint32",
          "name": "",
          "type": "uint32"
        }
      ],
      "stateMutability": "view",
      "type": "function"
    },
    {
      "inputs": [],
      "name": "compteurRecoltes",
      "outputs": [
        {
          "internalType": "uint32",
          "name": "",
          "type": "uint32"
        }
      ],
      "stateMutability": "view",
      "type": "function"
    },
    {
      "inputs": [
        {
          "internalType": "uint32",
          "name": "_idCommande",
          "type": "uint32"
        },
        {
          "internalType": "uint32",
          "name": "_montant",
          "type": "uint32"
        },
        {
          "internalType": "enum StructLib.ModePaiement",
          "name": "_mode",
          "type": "uint8"
        }
      ],
      "name": "effectuerPaiementVersProducteur",
      "outputs": [],
      "stateMutability": "payable",
      "type": "function"
    },
    {
      "inputs": [
        {
          "internalType": "uint32",
          "name": "_id",
          "type": "uint32"
        }
      ],
      "name": "getCommande",
      "outputs": [
        {
          "components": [
            {
              "internalType": "uint32",
              "name": "id",
              "type": "uint32"
            },
            {
              "internalType": "uint32",
              "name": "idRecolte",
              "type": "uint32"
            },
            {
              "internalType": "uint32",
              "name": "quantite",
              "type": "uint32"
            },
            {
              "internalType": "uint32",
              "name": "prix",
              "type": "uint32"
            },
            {
              "internalType": "bool",
              "name": "payer",
              "type": "bool"
            },
            {
              "internalType": "enum StructLib.StatutTransport",
              "name": "statutTransport",
              "type": "uint8"
            },
            {
              "internalType": "address",
              "name": "producteur",
              "type": "address"
            },
            {
              "internalType": "address",
              "name": "collecteur",
              "type": "address"
            }
          ],
          "internalType": "struct StructLib.CommandeRecolte",
          "name": "",
          "type": "tuple"
        }
      ],
      "stateMutability": "view",
      "type": "function"
    },
    {
      "inputs": [],
      "name": "getCompteurCommandes",
      "outputs": [
        {
          "internalType": "uint32",
          "name": "",
          "type": "uint32"
        }
      ],
      "stateMutability": "view",
      "type": "function"
    },
    {
      "inputs": [],
      "name": "getCompteurPaiments",
      "outputs": [
        {
          "internalType": "uint32",
          "name": "",
          "type": "uint32"
        }
      ],
      "stateMutability": "view",
      "type": "function"
    },
    {
      "inputs": [],
      "name": "getCompteurRecoltes",
      "outputs": [
        {
          "internalType": "uint32",
          "name": "",
          "type": "uint32"
        }
      ],
      "stateMutability": "view",
      "type": "function"
    },
    {
      "inputs": [
        {
          "internalType": "uint32",
          "name": "_id",
          "type": "uint32"
        }
      ],
      "name": "getPaiement",
      "outputs": [
        {
          "components": [
            {
              "internalType": "uint32",
              "name": "id",
              "type": "uint32"
            },
            {
              "internalType": "address",
              "name": "payeur",
              "type": "address"
            },
            {
              "internalType": "address",
              "name": "vendeur",
              "type": "address"
            },
            {
              "internalType": "uint32",
              "name": "montant",
              "type": "uint32"
            },
            {
              "internalType": "enum StructLib.ModePaiement",
              "name": "mode",
              "type": "uint8"
            },
            {
              "internalType": "uint256",
              "name": "timestamp",
              "type": "uint256"
            }
          ],
          "internalType": "struct StructLib.Paiement",
          "name": "",
          "type": "tuple"
        }
      ],
      "stateMutability": "view",
      "type": "function"
    },
    {
      "inputs": [
        {
          "internalType": "uint32",
          "name": "_idRecolte",
          "type": "uint32"
        }
      ],
      "name": "getRecolte",
      "outputs": [
        {
          "components": [
            {
              "internalType": "uint32",
              "name": "id",
              "type": "uint32"
            },
            {
              "internalType": "uint32",
              "name": "idParcelle",
              "type": "uint32"
            },
            {
              "internalType": "uint32",
              "name": "quantite",
              "type": "uint32"
            },
            {
              "internalType": "uint32",
              "name": "prixUnit",
              "type": "uint32"
            },
            {
              "internalType": "bool",
              "name": "certifie",
              "type": "bool"
            },
            {
              "internalType": "string",
              "name": "certificatPhytosanitaire",
              "type": "string"
            },
            {
              "internalType": "string",
              "name": "dateRecolte",
              "type": "string"
            },
            {
              "internalType": "address",
              "name": "producteur",
              "type": "address"
            },
            {
              "internalType": "string",
              "name": "nomProduit",
              "type": "string"
            }
          ],
          "internalType": "struct StructLib.Recolte",
          "name": "",
          "type": "tuple"
        }
      ],
      "stateMutability": "view",
      "type": "function"
    },
    {
      "inputs": [
        {
          "internalType": "uint32",
          "name": "",
          "type": "uint32"
        }
      ],
      "name": "paiements",
      "outputs": [
        {
          "internalType": "uint32",
          "name": "id",
          "type": "uint32"
        },
        {
          "internalType": "address",
          "name": "payeur",
          "type": "address"
        },
        {
          "internalType": "address",
          "name": "vendeur",
          "type": "address"
        },
        {
          "internalType": "uint32",
          "name": "montant",
          "type": "uint32"
        },
        {
          "internalType": "enum StructLib.ModePaiement",
          "name": "mode",
          "type": "uint8"
        },
        {
          "internalType": "uint256",
          "name": "timestamp",
          "type": "uint256"
        }
      ],
      "stateMutability": "view",
      "type": "function"
    },
    {
      "inputs": [
        {
          "internalType": "uint32",
          "name": "_idRecolte",
          "type": "uint32"
        },
        {
          "internalType": "uint32",
          "name": "_quantite",
          "type": "uint32"
        }
      ],
      "name": "passerCommandeVersProducteur",
      "outputs": [],
      "stateMutability": "nonpayable",
      "type": "function"
    },
    {
      "inputs": [
        {
          "internalType": "uint32",
          "name": "",
          "type": "uint32"
        }
      ],
      "name": "recoltes",
      "outputs": [
        {
          "internalType": "uint32",
          "name": "id",
          "type": "uint32"
        },
        {
          "internalType": "uint32",
          "name": "idParcelle",
          "type": "uint32"
        },
        {
          "internalType": "uint32",
          "name": "quantite",
          "type": "uint32"
        },
        {
          "internalType": "uint32",
          "name": "prixUnit",
          "type": "uint32"
        },
        {
          "internalType": "bool",
          "name": "certifie",
          "type": "bool"
        },
        {
          "internalType": "string",
          "name": "certificatPhytosanitaire",
          "type": "string"
        },
        {
          "internalType": "string",
          "name": "dateRecolte",
          "type": "string"
        },
        {
          "internalType": "address",
          "name": "producteur",
          "type": "address"
        },
        {
          "internalType": "string",
          "name": "nomProduit",
          "type": "string"
        }
      ],
      "stateMutability": "view",
      "type": "function"
    },
    {
      "inputs": [
        {
          "internalType": "address",
          "name": "_addr",
          "type": "address"
        }
      ],
      "name": "setModuleCE",
      "outputs": [],
      "stateMutability": "nonpayable",
      "type": "function"
    },
    {
      "inputs": [
        {
          "internalType": "address",
          "name": "_addr",
          "type": "address"
        }
      ],
      "name": "setModuleProducteur",
      "outputs": [],
      "stateMutability": "nonpayable",
      "type": "function"
    }
  ],
  "bytecode": "0x60806040523480156200001157600080fd5b5060405162004980380380620049808339818101604052810190620000379190620000d8565b81600560046101000a81548173ffffffffffffffffffffffffffffffffffffffff021916908373ffffffffffffffffffffffffffffffffffffffff16021790555080600660006101000a81548173ffffffffffffffffffffffffffffffffffffffff021916908373ffffffffffffffffffffffffffffffffffffffff160217905550505062000167565b600081519050620000d2816200014d565b92915050565b60008060408385031215620000ec57600080fd5b6000620000fc85828601620000c1565b92505060206200010f85828601620000c1565b9150509250929050565b600062000126826200012d565b9050919050565b600073ffffffffffffffffffffffffffffffffffffffff82169050919050565b620001588162000119565b81146200016457600080fd5b50565b61480980620001776000396000f3fe6080604052600436106101095760003560e01c80638428d54311610095578063cb39487611610064578063cb39487614610394578063cd3df1ed146103bf578063cd60462b146103ea578063d84e632d14610415578063fd6431011461043e57610109565b80638428d543146102df5780639d75741d146102fb578063b38d3aea14610324578063b5fe20761461036957610109565b8063488dee20116100dc578063488dee20146101c85780635293ea51146101f357806364372fae146102305780636f3fd6c5146102595780637babcffa1461029d57610109565b80630b215e641461010e57806319f1c2901461014b5780632d5b3658146101765780634383fca11461019f575b600080fd5b34801561011a57600080fd5b506101356004803603810190610130919061369f565b61047b565b6040516101429190614102565b60405180910390f35b34801561015757600080fd5b5061016061063d565b60405161016d919061413f565b60405180910390f35b34801561018257600080fd5b5061019d60048036038101906101989190613745565b610657565b005b3480156101ab57600080fd5b506101c660048036038101906101c191906137d0565b610ef9565b005b3480156101d457600080fd5b506101dd6114d6565b6040516101ea919061413f565b60405180910390f35b3480156101ff57600080fd5b5061021a6004803603810190610215919061369f565b6114ec565b60405161022791906140e6565b60405180910390f35b34801561023c57600080fd5b506102576004803603810190610252919061360c565b61170c565b005b34801561026557600080fd5b50610280600480360381019061027b919061369f565b611750565b60405161029498979695949392919061423f565b60405180910390f35b3480156102a957600080fd5b506102c460048036038101906102bf919061369f565b611832565b6040516102d69695949392919061415a565b60405180910390f35b6102f960048036038101906102f49190613781565b6118db565b005b34801561030757600080fd5b50610322600480360381019061031d91906136f1565b612344565b005b34801561033057600080fd5b5061034b6004803603810190610346919061369f565b6125be565b604051610360999897969594939291906142bd565b60405180910390f35b34801561037557600080fd5b5061037e612811565b60405161038b919061413f565b60405180910390f35b3480156103a057600080fd5b506103a961282b565b6040516103b6919061413f565b60405180910390f35b3480156103cb57600080fd5b506103d4612841565b6040516103e1919061413f565b60405180910390f35b3480156103f657600080fd5b506103ff612857565b60405161040c919061413f565b60405180910390f35b34801561042157600080fd5b5061043c6004803603810190610437919061360c565b612871565b005b34801561044a57600080fd5b506104656004803603810190610460919061369f565b6128b5565b604051610472919061411d565b60405180910390f35b610483612bad565b600260008363ffffffff1663ffffffff1681526020019081526020016000206040518060c00160405290816000820160009054906101000a900463ffffffff1663ffffffff1663ffffffff1681526020016000820160049054906101000a900473ffffffffffffffffffffffffffffffffffffffff1673ffffffffffffffffffffffffffffffffffffffff1673ffffffffffffffffffffffffffffffffffffffff1681526020016001820160009054906101000a900473ffffffffffffffffffffffffffffffffffffffff1673ffffffffffffffffffffffffffffffffffffffff1673ffffffffffffffffffffffffffffffffffffffff1681526020016001820160149054906101000a900463ffffffff1663ffffffff1663ffffffff1681526020016001820160189054906101000a900460ff1660028111156105f0577f4e487b7100000000000000000000000000000000000000000000000000000000600052602160045260246000fd5b6002811115610628577f4e487b7100000000000000000000000000000000000000000000000000000000600052602160045260246000fd5b81526020016002820154815250509050919050565b6000600360009054906101000a900463ffffffff16905090565b60036006811115610691577f4e487b7100000000000000000000000000000000000000000000000000000000600052602160045260246000fd5b600660009054906101000a900473ffffffffffffffffffffffffffffffffffffffff1673ffffffffffffffffffffffffffffffffffffffff1663fe32398a336040518263ffffffff1660e01b81526004016106ec9190613f4b565b604080518083038186803b15801561070357600080fd5b505afa158015610717573d6000803e3d6000fd5b505050506040513d601f19601f8201168201806040525081019061073b9190613635565b602001516006811115610777577f4e487b7100000000000000000000000000000000000000000000000000000000600052602160045260246000fd5b146107b7576040517f08c379a00000000000000000000000000000000000000000000000000000000081526004016107ae906140c6565b60405180910390fd5b60008060008463ffffffff1663ffffffff168152602001908152602001600020604051806101200160405290816000820160009054906101000a900463ffffffff1663ffffffff1663ffffffff1681526020016000820160049054906101000a900463ffffffff1663ffffffff1663ffffffff1681526020016000820160089054906101000a900463ffffffff1663ffffffff1663ffffffff16815260200160008201600c9054906101000a900463ffffffff1663ffffffff1663ffffffff1681526020016000820160109054906101000a900460ff161515151581526020016001820180546108a6906145f3565b80601f01602080910402602001604051908101604052809291908181526020018280546108d2906145f3565b801561091f5780601f106108f45761010080835404028352916020019161091f565b820191906000526020600020905b81548152906001019060200180831161090257829003601f168201915b50505050508152602001600282018054610938906145f3565b80601f0160208091040260200160405190810160405280929190818152602001828054610964906145f3565b80156109b15780601f10610986576101008083540402835291602001916109b1565b820191906000526020600020905b81548152906001019060200180831161099457829003601f168201915b505050505081526020016003820160009054906101000a900473ffffffffffffffffffffffffffffffffffffffff1673ffffffffffffffffffffffffffffffffffffffff1673ffffffffffffffffffffffffffffffffffffffff168152602001600482018054610a20906145f3565b80601f0160208091040260200160405190810160405280929190818152602001828054610a4c906145f3565b8015610a995780601f10610a6e57610100808354040283529160200191610a99565b820191906000526020600020905b815481529060010190602001808311610a7c57829003601f168201915b50505050508152505090508060800151610ae8576040517f08c379a0000000000000000000000000000000000000000000000000000000008152600401610adf90614006565b60405180910390fd5b600160009054906101000a900463ffffffff1663ffffffff168363ffffffff161115610b49576040517f08c379a0000000000000000000000000000000000000000000000000000000008152600401610b4090614046565b60405180910390fd5b806040015163ffffffff168263ffffffff161115610b9c576040517f08c379a0000000000000000000000000000000000000000000000000000000008152600401610b93906140a6565b60405180910390fd5b816000808563ffffffff1663ffffffff16815260200190815260200160002060000160088282829054906101000a900463ffffffff16610bdc91906144db565b92506101000a81548163ffffffff021916908363ffffffff1602179055506005600081819054906101000a900463ffffffff1680929190610c1c90614625565b91906101000a81548163ffffffff021916908363ffffffff160217905550506000828260600151610c4d919061449d565b9050604051806101000160405280600560009054906101000a900463ffffffff1663ffffffff1681526020018563ffffffff1681526020018463ffffffff1681526020018263ffffffff16815260200160001515815260200160006001811115610ce0577f4e487b7100000000000000000000000000000000000000000000000000000000600052602160045260246000fd5b81526020018360e0015173ffffffffffffffffffffffffffffffffffffffff1681526020013373ffffffffffffffffffffffffffffffffffffffff1681525060046000600560009054906101000a900463ffffffff1663ffffffff1663ffffffff16815260200190815260200160002060008201518160000160006101000a81548163ffffffff021916908363ffffffff16021790555060208201518160000160046101000a81548163ffffffff021916908363ffffffff16021790555060408201518160000160086101000a81548163ffffffff021916908363ffffffff160217905550606082015181600001600c6101000a81548163ffffffff021916908363ffffffff16021790555060808201518160000160106101000a81548160ff02191690831515021790555060a08201518160000160116101000a81548160ff02191690836001811115610e5d577f4e487b7100000000000000000000000000000000000000000000000000000000600052602160045260246000fd5b021790555060c08201518160010160006101000a81548173ffffffffffffffffffffffffffffffffffffffff021916908373ffffffffffffffffffffffffffffffffffffffff16021790555060e08201518160020160006101000a81548173ffffffffffffffffffffffffffffffffffffffff021916908373ffffffffffffffffffffffffffffffffffffffff16021790555090505050505050565b60006006811115610f33577f4e487b7100000000000000000000000000000000000000000000000000000000600052602160045260246000fd5b600660009054906101000a900473ffffffffffffffffffffffffffffffffffffffff1673ffffffffffffffffffffffffffffffffffffffff1663fe32398a336040518263ffffffff1660e01b8152600401610f8e9190613f4b565b604080518083038186803b158015610fa557600080fd5b505afa158015610fb9573d6000803e3d6000fd5b505050506040513d601f19601f82011682018060405250810190610fdd9190613635565b602001516006811115611019577f4e487b7100000000000000000000000000000000000000000000000000000000600052602160045260246000fd5b14611059576040517f08c379a000000000000000000000000000000000000000000000000000000000815260040161105090613f66565b60405180910390fd5b6000600660009054906101000a900473ffffffffffffffffffffffffffffffffffffffff1673ffffffffffffffffffffffffffffffffffffffff1663421b3e08876040518263ffffffff1660e01b81526004016110b6919061413f565b60006040518083038186803b1580156110ce57600080fd5b505afa1580156110e2573d6000803e3d6000fd5b505050506040513d6000823e3d601f19601f8201168201806040525081019061110b919061365e565b9050600660009054906101000a900473ffffffffffffffffffffffffffffffffffffffff1673ffffffffffffffffffffffffffffffffffffffff166331686f416040518163ffffffff1660e01b815260040160206040518083038186803b15801561117557600080fd5b505afa158015611189573d6000803e3d6000fd5b505050506040513d601f19601f820116820180604052508101906111ad91906136c8565b63ffffffff168663ffffffff1611156111fb576040517f08c379a00000000000000000000000000000000000000000000000000000000081526004016111f290613fe6565b60405180910390fd5b3373ffffffffffffffffffffffffffffffffffffffff16816020015173ffffffffffffffffffffffffffffffffffffffff161461126d576040517f08c379a000000000000000000000000000000000000000000000000000000000815260040161126490614026565b60405180910390fd5b6001600081819054906101000a900463ffffffff168092919061128f90614625565b91906101000a81548163ffffffff021916908363ffffffff16021790555050604051806101200160405280600160009054906101000a900463ffffffff1663ffffffff1681526020018763ffffffff1681526020018663ffffffff1681526020018563ffffffff1681526020016000151581526020016040518060200160405280600081525081526020018481526020013373ffffffffffffffffffffffffffffffffffffffff16815260200183815250600080600160009054906101000a900463ffffffff1663ffffffff1663ffffffff16815260200190815260200160002060008201518160000160006101000a81548163ffffffff021916908363ffffffff16021790555060208201518160000160046101000a81548163ffffffff021916908363ffffffff16021790555060408201518160000160086101000a81548163ffffffff021916908363ffffffff160217905550606082015181600001600c6101000a81548163ffffffff021916908363ffffffff16021790555060808201518160000160106101000a81548160ff02191690831515021790555060a0820151816001019080519060200190611448929190612c53565b5060c0820151816002019080519060200190611465929190612c53565b5060e08201518160030160006101000a81548173ffffffffffffffffffffffffffffffffffffffff021916908373ffffffffffffffffffffffffffffffffffffffff1602179055506101008201518160040190805190602001906114ca929190612c53565b50905050505050505050565b600560009054906101000a900463ffffffff1681565b6114f4612cd9565b600460008363ffffffff1663ffffffff168152602001908152602001600020604051806101000160405290816000820160009054906101000a900463ffffffff1663ffffffff1663ffffffff1681526020016000820160049054906101000a900463ffffffff1663ffffffff1663ffffffff1681526020016000820160089054906101000a900463ffffffff1663ffffffff1663ffffffff16815260200160008201600c9054906101000a900463ffffffff1663ffffffff1663ffffffff1681526020016000820160109054906101000a900460ff161515151581526020016000820160119054906101000a900460ff16600181111561161d577f4e487b7100000000000000000000000000000000000000000000000000000000600052602160045260246000fd5b6001811115611655577f4e487b7100000000000000000000000000000000000000000000000000000000600052602160045260246000fd5b81526020016001820160009054906101000a900473ffffffffffffffffffffffffffffffffffffffff1673ffffffffffffffffffffffffffffffffffffffff1673ffffffffffffffffffffffffffffffffffffffff1681526020016002820160009054906101000a900473ffffffffffffffffffffffffffffffffffffffff1673ffffffffffffffffffffffffffffffffffffffff1673ffffffffffffffffffffffffffffffffffffffff16815250509050919050565b80600660006101000a81548173ffffffffffffffffffffffffffffffffffffffff021916908373ffffffffffffffffffffffffffffffffffffffff16021790555050565b60046020528060005260406000206000915090508060000160009054906101000a900463ffffffff16908060000160049054906101000a900463ffffffff16908060000160089054906101000a900463ffffffff169080600001600c9054906101000a900463ffffffff16908060000160109054906101000a900460ff16908060000160119054906101000a900460ff16908060010160009054906101000a900473ffffffffffffffffffffffffffffffffffffffff16908060020160009054906101000a900473ffffffffffffffffffffffffffffffffffffffff16905088565b60026020528060005260406000206000915090508060000160009054906101000a900463ffffffff16908060000160049054906101000a900473ffffffffffffffffffffffffffffffffffffffff16908060010160009054906101000a900473ffffffffffffffffffffffffffffffffffffffff16908060010160149054906101000a900463ffffffff16908060010160189054906101000a900460ff16908060020154905086565b60036006811115611915577f4e487b7100000000000000000000000000000000000000000000000000000000600052602160045260246000fd5b600660009054906101000a900473ffffffffffffffffffffffffffffffffffffffff1673ffffffffffffffffffffffffffffffffffffffff1663fe32398a336040518263ffffffff1660e01b81526004016119709190613f4b565b604080518083038186803b15801561198757600080fd5b505afa15801561199b573d6000803e3d6000fd5b505050506040513d601f19601f820116820180604052508101906119bf9190613635565b6020015160068111156119fb577f4e487b7100000000000000000000000000000000000000000000000000000000600052602160045260246000fd5b14611a3b576040517f08c379a0000000000000000000000000000000000000000000000000000000008152600401611a32906140c6565b60405180910390fd5b6000600460008563ffffffff1663ffffffff168152602001908152602001600020604051806101000160405290816000820160009054906101000a900463ffffffff1663ffffffff1663ffffffff1681526020016000820160049054906101000a900463ffffffff1663ffffffff1663ffffffff1681526020016000820160089054906101000a900463ffffffff1663ffffffff1663ffffffff16815260200160008201600c9054906101000a900463ffffffff1663ffffffff1663ffffffff1681526020016000820160109054906101000a900460ff161515151581526020016000820160119054906101000a900460ff166001811115611b66577f4e487b7100000000000000000000000000000000000000000000000000000000600052602160045260246000fd5b6001811115611b9e577f4e487b7100000000000000000000000000000000000000000000000000000000600052602160045260246000fd5b81526020016001820160009054906101000a900473ffffffffffffffffffffffffffffffffffffffff1673ffffffffffffffffffffffffffffffffffffffff1673ffffffffffffffffffffffffffffffffffffffff1681526020016002820160009054906101000a900473ffffffffffffffffffffffffffffffffffffffff1673ffffffffffffffffffffffffffffffffffffffff1673ffffffffffffffffffffffffffffffffffffffff168152505090506000806000836020015163ffffffff1663ffffffff168152602001908152602001600020604051806101200160405290816000820160009054906101000a900463ffffffff1663ffffffff1663ffffffff1681526020016000820160049054906101000a900463ffffffff1663ffffffff1663ffffffff1681526020016000820160089054906101000a900463ffffffff1663ffffffff1663ffffffff16815260200160008201600c9054906101000a900463ffffffff1663ffffffff1663ffffffff1681526020016000820160109054906101000a900460ff16151515158152602001600182018054611d43906145f3565b80601f0160208091040260200160405190810160405280929190818152602001828054611d6f906145f3565b8015611dbc5780601f10611d9157610100808354040283529160200191611dbc565b820191906000526020600020905b815481529060010190602001808311611d9f57829003601f168201915b50505050508152602001600282018054611dd5906145f3565b80601f0160208091040260200160405190810160405280929190818152602001828054611e01906145f3565b8015611e4e5780601f10611e2357610100808354040283529160200191611e4e565b820191906000526020600020905b815481529060010190602001808311611e3157829003601f168201915b505050505081526020016003820160009054906101000a900473ffffffffffffffffffffffffffffffffffffffff1673ffffffffffffffffffffffffffffffffffffffff1673ffffffffffffffffffffffffffffffffffffffff168152602001600482018054611ebd906145f3565b80601f0160208091040260200160405190810160405280929190818152602001828054611ee9906145f3565b8015611f365780601f10611f0b57610100808354040283529160200191611f36565b820191906000526020600020905b815481529060010190602001808311611f1957829003601f168201915b5050505050815250509050600560009054906101000a900463ffffffff1663ffffffff168563ffffffff161115611fa2576040517f08c379a0000000000000000000000000000000000000000000000000000000008152600401611f9990613fa6565b60405180910390fd5b816080015115611fe7576040517f08c379a0000000000000000000000000000000000000000000000000000000008152600401611fde90614086565b60405180910390fd5b816060015163ffffffff168463ffffffff1614612039576040517f08c379a000000000000000000000000000000000000000000000000000000000815260040161203090613f86565b60405180910390fd5b600560049054906101000a900473ffffffffffffffffffffffffffffffffffffffff1673ffffffffffffffffffffffffffffffffffffffff16639aed4540836020015184604001518460600151338661010001518760c001518860a001516040518863ffffffff1660e01b81526004016120b997969594939291906141bb565b600060405180830381600087803b1580156120d357600080fd5b505af11580156120e7573d6000803e3d6000fd5b505050506003600081819054906101000a900463ffffffff168092919061210d90614625565b91906101000a81548163ffffffff021916908363ffffffff160217905550506040518060c00160405280600360009054906101000a900463ffffffff1663ffffffff1681526020013373ffffffffffffffffffffffffffffffffffffffff1681526020018360c0015173ffffffffffffffffffffffffffffffffffffffff1681526020018563ffffffff1681526020018460028111156121d6577f4e487b7100000000000000000000000000000000000000000000000000000000600052602160045260246000fd5b815260200142815250600260008763ffffffff1663ffffffff16815260200190815260200160002060008201518160000160006101000a81548163ffffffff021916908363ffffffff16021790555060208201518160000160046101000a81548173ffffffffffffffffffffffffffffffffffffffff021916908373ffffffffffffffffffffffffffffffffffffffff16021790555060408201518160010160006101000a81548173ffffffffffffffffffffffffffffffffffffffff021916908373ffffffffffffffffffffffffffffffffffffffff16021790555060608201518160010160146101000a81548163ffffffff021916908363ffffffff16021790555060808201518160010160186101000a81548160ff0219169083600281111561232b577f4e487b7100000000000000000000000000000000000000000000000000000000600052602160045260246000fd5b021790555060a082015181600201559050505050505050565b6002600681111561237e577f4e487b7100000000000000000000000000000000000000000000000000000000600052602160045260246000fd5b600660009054906101000a900473ffffffffffffffffffffffffffffffffffffffff1673ffffffffffffffffffffffffffffffffffffffff1663fe32398a336040518263ffffffff1660e01b81526004016123d99190613f4b565b604080518083038186803b1580156123f057600080fd5b505afa158015612404573d6000803e3d6000fd5b505050506040513d601f19601f820116820180604052508101906124289190613635565b602001516006811115612464577f4e487b7100000000000000000000000000000000000000000000000000000000600052602160045260246000fd5b146124a4576040517f08c379a000000000000000000000000000000000000000000000000000000000815260040161249b90613fc6565b60405180910390fd5b600160009054906101000a900463ffffffff1663ffffffff168263ffffffff161115612505576040517f08c379a00000000000000000000000000000000000000000000000000000000081526004016124fc90614046565b60405180910390fd5b60008151141561254a576040517f08c379a000000000000000000000000000000000000000000000000000000000815260040161254190614066565b60405180910390fd5b60016000808463ffffffff1663ffffffff16815260200190815260200160002060000160106101000a81548160ff021916908315150217905550806000808463ffffffff1663ffffffff16815260200190815260200160002060010190805190602001906125b9929190612c53565b505050565b60006020528060005260406000206000915090508060000160009054906101000a900463ffffffff16908060000160049054906101000a900463ffffffff16908060000160089054906101000a900463ffffffff169080600001600c9054906101000a900463ffffffff16908060000160109054906101000a900460ff169080600101805461264c906145f3565b80601f0160208091040260200160405190810160405280929190818152602001828054612678906145f3565b80156126c55780601f1061269a576101008083540402835291602001916126c5565b820191906000526020600020905b8154815290600101906020018083116126a857829003601f168201915b5050505050908060020180546126da906145f3565b80601f0160208091040260200160405190810160405280929190818152602001828054612706906145f3565b80156127535780601f1061272857610100808354040283529160200191612753565b820191906000526020600020905b81548152906001019060200180831161273657829003601f168201915b5050505050908060030160009054906101000a900473ffffffffffffffffffffffffffffffffffffffff169080600401805461278e906145f3565b80601f01602080910402602001604051908101604052809291908181526020018280546127ba906145f3565b80156128075780601f106127dc57610100808354040283529160200191612807565b820191906000526020600020905b8154815290600101906020018083116127ea57829003601f168201915b5050505050905089565b6000600560009054906101000a900463ffffffff16905090565b600160009054906101000a900463ffffffff1681565b600360009054906101000a900463ffffffff1681565b6000600160009054906101000a900463ffffffff16905090565b80600560046101000a81548173ffffffffffffffffffffffffffffffffffffffff021916908373ffffffffffffffffffffffffffffffffffffffff16021790555050565b6128bd612d9c565b6000808363ffffffff1663ffffffff168152602001908152602001600020604051806101200160405290816000820160009054906101000a900463ffffffff1663ffffffff1663ffffffff1681526020016000820160049054906101000a900463ffffffff1663ffffffff1663ffffffff1681526020016000820160089054906101000a900463ffffffff1663ffffffff1663ffffffff16815260200160008201600c9054906101000a900463ffffffff1663ffffffff1663ffffffff1681526020016000820160109054906101000a900460ff161515151581526020016001820180546129aa906145f3565b80601f01602080910402602001604051908101604052809291908181526020018280546129d6906145f3565b8015612a235780601f106129f857610100808354040283529160200191612a23565b820191906000526020600020905b815481529060010190602001808311612a0657829003601f168201915b50505050508152602001600282018054612a3c906145f3565b80601f0160208091040260200160405190810160405280929190818152602001828054612a68906145f3565b8015612ab55780601f10612a8a57610100808354040283529160200191612ab5565b820191906000526020600020905b815481529060010190602001808311612a9857829003601f168201915b505050505081526020016003820160009054906101000a900473ffffffffffffffffffffffffffffffffffffffff1673ffffffffffffffffffffffffffffffffffffffff1673ffffffffffffffffffffffffffffffffffffffff168152602001600482018054612b24906145f3565b80601f0160208091040260200160405190810160405280929190818152602001828054612b50906145f3565b8015612b9d5780601f10612b7257610100808354040283529160200191612b9d565b820191906000526020600020905b815481529060010190602001808311612b8057829003601f168201915b5050505050815250509050919050565b6040518060c00160405280600063ffffffff168152602001600073ffffffffffffffffffffffffffffffffffffffff168152602001600073ffffffffffffffffffffffffffffffffffffffff168152602001600063ffffffff16815260200160006002811115612c46577f4e487b7100000000000000000000000000000000000000000000000000000000600052602160045260246000fd5b8152602001600081525090565b828054612c5f906145f3565b90600052602060002090601f016020900481019282612c815760008555612cc8565b82601f10612c9a57805160ff1916838001178555612cc8565b82800160010185558215612cc8579182015b82811115612cc7578251825591602001919060010190612cac565b5b509050612cd59190612e18565b5090565b604051806101000160405280600063ffffffff168152602001600063ffffffff168152602001600063ffffffff168152602001600063ffffffff16815260200160001515815260200160006001811115612d5c577f4e487b7100000000000000000000000000000000000000000000000000000000600052602160045260246000fd5b8152602001600073ffffffffffffffffffffffffffffffffffffffff168152602001600073ffffffffffffffffffffffffffffffffffffffff1681525090565b604051806101200160405280600063ffffffff168152602001600063ffffffff168152602001600063ffffffff168152602001600063ffffffff1681526020016000151581526020016060815260200160608152602001600073ffffffffffffffffffffffffffffffffffffffff168152602001606081525090565b5b80821115612e31576000816000905550600101612e19565b5090565b6000612e48612e4384614390565b61435f565b9050808382526020820190508260005b85811015612e885781518501612e6e8882613175565b845260208401935060208301925050600181019050612e58565b5050509392505050565b6000612ea5612ea0846143bc565b61435f565b9050808382526020820190508260005b85811015612ee55781518501612ecb88826131eb565b845260208401935060208301925050600181019050612eb5565b5050509392505050565b6000612f02612efd846143e8565b61435f565b9050808382526020820190508260005b85811015612f425781518501612f28888261328f565b845260208401935060208301925050600181019050612f12565b5050509392505050565b6000612f5f612f5a84614414565b61435f565b9050808382526020820190508260005b85811015612f9f5781518501612f85888261331b565b845260208401935060208301925050600181019050612f6f565b5050509392505050565b6000612fbc612fb784614440565b61435f565b905082815260208101848484011115612fd457600080fd5b612fdf8482856145b1565b509392505050565b6000612ffa612ff584614440565b61435f565b90508281526020810184848401111561301257600080fd5b61301d8482856145c0565b509392505050565b60008135905061303481614747565b92915050565b60008151905061304981614747565b92915050565b600082601f83011261306057600080fd5b8151613070848260208601612e35565b91505092915050565b600082601f83011261308a57600080fd5b815161309a848260208601612e92565b91505092915050565b600082601f8301126130b457600080fd5b81516130c4848260208601612eef565b91505092915050565b600082601f8301126130de57600080fd5b81516130ee848260208601612f4c565b91505092915050565b6000815190506131068161475e565b92915050565b60008151905061311b81614775565b92915050565b60008135905061313081614785565b92915050565b60008151905061314581614795565b92915050565b600082601f83011261315c57600080fd5b813561316c848260208601612fa9565b91505092915050565b600082601f83011261318657600080fd5b8151613196848260208601612fe7565b91505092915050565b6000604082840312156131b157600080fd5b6131bb604061435f565b905060006131cb8482850161303a565b60008301525060206131df84828501613136565b60208301525092915050565b6000608082840312156131fd57600080fd5b613207608061435f565b90506000613217848285016135f7565b600083015250602082015167ffffffffffffffff81111561323757600080fd5b61324384828501613175565b602083015250604082015167ffffffffffffffff81111561326357600080fd5b61326f84828501613175565b6040830152506060613283848285016135cd565b60608301525092915050565b6000608082840312156132a157600080fd5b6132ab608061435f565b905060006132bb848285016135f7565b60008301525060206132cf8482850161303a565b602083015250604082015167ffffffffffffffff8111156132ef57600080fd5b6132fb84828501613175565b604083015250606061330f848285016135cd565b60608301525092915050565b60006060828403121561332d57600080fd5b613337606061435f565b9050600082015167ffffffffffffffff81111561335357600080fd5b61335f84828501613175565b6000830152506020613373848285016135f7565b6020830152506040613387848285016130f7565b60408301525092915050565b60006101c082840312156133a657600080fd5b6133b16101c061435f565b905060006133c1848285016135f7565b60008301525060206133d58482850161303a565b602083015250604082015167ffffffffffffffff8111156133f557600080fd5b61340184828501613175565b604083015250606082015167ffffffffffffffff81111561342157600080fd5b61342d84828501613175565b6060830152506080613441848285016130f7565b60808301525060a06134558482850161310c565b60a08301525060c082015167ffffffffffffffff81111561347557600080fd5b61348184828501613175565b60c08301525060e082015167ffffffffffffffff8111156134a157600080fd5b6134ad84828501613175565b60e08301525061010082015167ffffffffffffffff8111156134ce57600080fd5b6134da8482850161304f565b6101008301525061012082015167ffffffffffffffff8111156134fc57600080fd5b613508848285016130cd565b6101208301525061014082015167ffffffffffffffff81111561352a57600080fd5b613536848285016130a3565b6101408301525061016082015167ffffffffffffffff81111561355857600080fd5b61356484828501613079565b6101608301525061018082015167ffffffffffffffff81111561358657600080fd5b61359284828501613175565b610180830152506101a082015167ffffffffffffffff8111156135b457600080fd5b6135c084828501613175565b6101a08301525092915050565b6000815190506135dc816147a5565b92915050565b6000813590506135f1816147bc565b92915050565b600081519050613606816147bc565b92915050565b60006020828403121561361e57600080fd5b600061362c84828501613025565b91505092915050565b60006040828403121561364757600080fd5b60006136558482850161319f565b91505092915050565b60006020828403121561367057600080fd5b600082015167ffffffffffffffff81111561368a57600080fd5b61369684828501613393565b91505092915050565b6000602082840312156136b157600080fd5b60006136bf848285016135e2565b91505092915050565b6000602082840312156136da57600080fd5b60006136e8848285016135f7565b91505092915050565b6000806040838503121561370457600080fd5b6000613712858286016135e2565b925050602083013567ffffffffffffffff81111561372f57600080fd5b61373b8582860161314b565b9150509250929050565b6000806040838503121561375857600080fd5b6000613766858286016135e2565b9250506020613777858286016135e2565b9150509250929050565b60008060006060848603121561379657600080fd5b60006137a4868287016135e2565b93505060206137b5868287016135e2565b92505060406137c686828701613121565b9150509250925092565b600080600080600060a086880312156137e857600080fd5b60006137f6888289016135e2565b9550506020613807888289016135e2565b9450506040613818888289016135e2565b935050606086013567ffffffffffffffff81111561383557600080fd5b6138418882890161314b565b925050608086013567ffffffffffffffff81111561385e57600080fd5b61386a8882890161314b565b9150509295509295909350565b6138808161450f565b82525050565b61388f8161450f565b82525050565b61389e81614521565b82525050565b6138ad81614521565b82525050565b6138bc8161458d565b82525050565b6138cb8161458d565b82525050565b6138da8161459f565b82525050565b6138e98161459f565b82525050565b60006138fa82614470565b613904818561447b565b93506139148185602086016145c0565b61391d8161470e565b840191505092915050565b600061393382614470565b61393d818561448c565b935061394d8185602086016145c0565b6139568161470e565b840191505092915050565b600061396e60228361448c565b91507f4e6f6e206175746f726973653a207365756c656d656e742050726f647563746560008301527f75720000000000000000000000000000000000000000000000000000000000006020830152604082019050919050565b60006139d4600e8361448c565b91507f5072697820696e636f72726563740000000000000000000000000000000000006000830152602082019050919050565b6000613a1460158361448c565b91507f436f6d6d616e6465206e6f6e206578697374616e7400000000000000000000006000830152602082019050919050565b6000613a5460258361448c565b91507f4e6f6e206175746f726973653a207365756c656d656e7420436572746966696360008301527f61746575720000000000000000000000000000000000000000000000000000006020830152604082019050919050565b6000613aba60158361448c565b91507f50617263656c6c65206e6f6e206578697374616e7400000000000000000000006000830152602082019050919050565b6000613afa60148361448c565b91507f5265636f6c7465206e6f6e2063657274696669650000000000000000000000006000830152602082019050919050565b6000613b3a602c8361448c565b91507f566f7573206e2765746573207061732070726f7072696574616972652064652060008301527f63652070617263656c6c6c6500000000000000000000000000000000000000006020830152604082019050919050565b6000613ba060148361448c565b91507f5265636f6c7465206e6f6e206578697374616e740000000000000000000000006000830152602082019050919050565b6000613be0600f8361448c565b91507f43657274696669636174207669646500000000000000000000000000000000006000830152602082019050919050565b6000613c2060138361448c565b91507f436f6d6d616e64652064656a61207061796572000000000000000000000000006000830152602082019050919050565b6000613c6060368361448c565b91507f5175616e746974652074726f70206772616e642070617220726170706f72742060008301527f6175207175616e7469746520646973706f6e69626c65000000000000000000006020830152604082019050919050565b6000613cc660228361448c565b91507f4e6f6e206175746f726973653a207365756c656d656e7420436f6c6c6563746560008301527f75720000000000000000000000000000000000000000000000000000000000006020830152604082019050919050565b61010082016000820151613d366000850182613f2d565b506020820151613d496020850182613f2d565b506040820151613d5c6040850182613f2d565b506060820151613d6f6060850182613f2d565b506080820151613d826080850182613895565b5060a0820151613d9560a08501826138d1565b5060c0820151613da860c0850182613877565b5060e0820151613dbb60e0850182613877565b50505050565b60c082016000820151613dd76000850182613f2d565b506020820151613dea6020850182613877565b506040820151613dfd6040850182613877565b506060820151613e106060850182613f2d565b506080820151613e2360808501826138b3565b5060a0820151613e3660a0850182613f0f565b50505050565b600061012083016000830151613e556000860182613f2d565b506020830151613e686020860182613f2d565b506040830151613e7b6040860182613f2d565b506060830151613e8e6060860182613f2d565b506080830151613ea16080860182613895565b5060a083015184820360a0860152613eb982826138ef565b91505060c083015184820360c0860152613ed382826138ef565b91505060e0830151613ee860e0860182613877565b50610100830151848203610100860152613f0282826138ef565b9150508091505092915050565b613f1881614573565b82525050565b613f2781614573565b82525050565b613f368161457d565b82525050565b613f458161457d565b82525050565b6000602082019050613f606000830184613886565b92915050565b60006020820190508181036000830152613f7f81613961565b9050919050565b60006020820190508181036000830152613f9f816139c7565b9050919050565b60006020820190508181036000830152613fbf81613a07565b9050919050565b60006020820190508181036000830152613fdf81613a47565b9050919050565b60006020820190508181036000830152613fff81613aad565b9050919050565b6000602082019050818103600083015261401f81613aed565b9050919050565b6000602082019050818103600083015261403f81613b2d565b9050919050565b6000602082019050818103600083015261405f81613b93565b9050919050565b6000602082019050818103600083015261407f81613bd3565b9050919050565b6000602082019050818103600083015261409f81613c13565b9050919050565b600060208201905081810360008301526140bf81613c53565b9050919050565b600060208201905081810360008301526140df81613cb9565b9050919050565b6000610100820190506140fc6000830184613d1f565b92915050565b600060c0820190506141176000830184613dc1565b92915050565b600060208201905081810360008301526141378184613e3c565b905092915050565b60006020820190506141546000830184613f3c565b92915050565b600060c08201905061416f6000830189613f3c565b61417c6020830188613886565b6141896040830187613886565b6141966060830186613f3c565b6141a360808301856138c2565b6141b060a0830184613f1e565b979650505050505050565b600060e0820190506141d0600083018a613f3c565b6141dd6020830189613f3c565b6141ea6040830188613f3c565b6141f76060830187613886565b81810360808301526142098186613928565b905081810360a083015261421d8185613928565b905081810360c08301526142318184613928565b905098975050505050505050565b600061010082019050614255600083018b613f3c565b614262602083018a613f3c565b61426f6040830189613f3c565b61427c6060830188613f3c565b61428960808301876138a4565b61429660a08301866138e0565b6142a360c0830185613886565b6142b060e0830184613886565b9998505050505050505050565b6000610120820190506142d3600083018c613f3c565b6142e0602083018b613f3c565b6142ed604083018a613f3c565b6142fa6060830189613f3c565b61430760808301886138a4565b81810360a08301526143198187613928565b905081810360c083015261432d8186613928565b905061433c60e0830185613886565b81810361010083015261434f8184613928565b90509a9950505050505050505050565b6000604051905081810181811067ffffffffffffffff82111715614386576143856146df565b5b8060405250919050565b600067ffffffffffffffff8211156143ab576143aa6146df565b5b602082029050602081019050919050565b600067ffffffffffffffff8211156143d7576143d66146df565b5b602082029050602081019050919050565b600067ffffffffffffffff821115614403576144026146df565b5b602082029050602081019050919050565b600067ffffffffffffffff82111561442f5761442e6146df565b5b602082029050602081019050919050565b600067ffffffffffffffff82111561445b5761445a6146df565b5b601f19601f8301169050602081019050919050565b600081519050919050565b600082825260208201905092915050565b600082825260208201905092915050565b60006144a88261457d565b91506144b38361457d565b92508163ffffffff04831182151516156144d0576144cf614652565b5b828202905092915050565b60006144e68261457d565b91506144f18361457d565b92508282101561450457614503614652565b5b828203905092915050565b600061451a82614553565b9050919050565b60008115159050919050565b600081905061453b8261471f565b919050565b600081905061454e82614733565b919050565b600073ffffffffffffffffffffffffffffffffffffffff82169050919050565b6000819050919050565b600063ffffffff82169050919050565b60006145988261452d565b9050919050565b60006145aa82614540565b9050919050565b82818337600083830152505050565b60005b838110156145de5780820151818401526020810190506145c3565b838111156145ed576000848401525b50505050565b6000600282049050600182168061460b57607f821691505b6020821081141561461f5761461e6146b0565b5b50919050565b60006146308261457d565b915063ffffffff82141561464757614646614652565b5b600182019050919050565b7f4e487b7100000000000000000000000000000000000000000000000000000000600052601160045260246000fd5b7f4e487b7100000000000000000000000000000000000000000000000000000000600052602160045260246000fd5b7f4e487b7100000000000000000000000000000000000000000000000000000000600052602260045260246000fd5b7f4e487b7100000000000000000000000000000000000000000000000000000000600052604160045260246000fd5b6000601f19601f8301169050919050565b600381106147305761472f614681565b5b50565b6002811061474457614743614681565b5b50565b6147508161450f565b811461475b57600080fd5b50565b61476781614521565b811461477257600080fd5b50565b6004811061478257600080fd5b50565b6003811061479257600080fd5b50565b600781106147a257600080fd5b50565b6147ae81614573565b81146147b957600080fd5b50565b6147c58161457d565b81146147d057600080fd5b5056fea2646970667358221220608fd3958c06df0c7123707c7bb7441bd832878b0c2caf34e739a4968929948c64736f6c63430008000033",
  "linkReferences": {},
  "deployedLinkReferences": {}
}