{
  "_format": "hh-sol-artifact-1",
  "contractName": "CollecteurExportateur",
  "sourceName": "contracts/CollecteurExportateur.sol",
  "abi": [
    {
      "anonymous": false,
      "inputs": [
        {
          "indexed": true,
          "internalType": "address",
          "name": "exportateur",
          "type": "address"
        },
        {
          "indexed": false,
          "internalType": "uint32",
          "name": "idProduit",
          "type": "uint32"
        }
      ],
      "name": "CommandePasser",
      "type": "event"
    },
    {
      "anonymous": false,
      "inputs": [
        {
          "indexed": true,
          "internalType": "uint32",
          "name": "idProduit",
          "type": "uint32"
        },
        {
          "indexed": false,
          "internalType": "uint32",
          "name": "idCondition",
          "type": "uint32"
        },
        {
          "indexed": false,
          "internalType": "string",
          "name": "temperature",
          "type": "string"
        },
        {
          "indexed": false,
          "internalType": "string",
          "name": "humidite",
          "type": "string"
        },
        {
          "indexed": false,
          "internalType": "uint256",
          "name": "timestamp",
          "type": "uint256"
        }
      ],
      "name": "ConditionEnregistree",
      "type": "event"
    },
    {
      "anonymous": false,
      "inputs": [
        {
          "indexed": true,
          "internalType": "uint32",
          "name": "idProduit",
          "type": "uint32"
        },
        {
          "indexed": false,
          "internalType": "uint32",
          "name": "idPaiement",
          "type": "uint32"
        },
        {
          "indexed": false,
          "internalType": "address",
          "name": "payeur",
          "type": "address"
        },
        {
          "indexed": false,
          "internalType": "uint32",
          "name": "montant",
          "type": "uint32"
        },
        {
          "indexed": false,
          "internalType": "enum StructLib.ModePaiement",
          "name": "mode",
          "type": "uint8"
        }
      ],
      "name": "PaiementEffectue",
      "type": "event"
    },
    {
      "anonymous": false,
      "inputs": [
        {
          "indexed": true,
          "internalType": "uint32",
          "name": "idProduit",
          "type": "uint32"
        },
        {
          "indexed": false,
          "internalType": "string",
          "name": "nom",
          "type": "string"
        },
        {
          "indexed": false,
          "internalType": "uint32",
          "name": "quantite",
          "type": "uint32"
        },
        {
          "indexed": false,
          "internalType": "uint32",
          "name": "prix",
          "type": "uint32"
        },
        {
          "indexed": false,
          "internalType": "uint32",
          "name": "idRecolte",
          "type": "uint32"
        },
        {
          "indexed": false,
          "internalType": "string",
          "name": "dateRecolte",
          "type": "string"
        },
        {
          "indexed": false,
          "internalType": "string",
          "name": "certificatPhytosanitaire",
          "type": "string"
        }
      ],
      "name": "ProduitAjoute",
      "type": "event"
    },
    {
      "anonymous": false,
      "inputs": [
        {
          "indexed": true,
          "internalType": "uint32",
          "name": "idProduit",
          "type": "uint32"
        },
        {
          "indexed": false,
          "internalType": "bool",
          "name": "valide",
          "type": "bool"
        }
      ],
      "name": "ProduitValide",
      "type": "event"
    },
    {
      "anonymous": false,
      "inputs": [
        {
          "indexed": true,
          "internalType": "uint32",
          "name": "idProduit",
          "type": "uint32"
        },
        {
          "indexed": false,
          "internalType": "enum StructLib.StatutTransport",
          "name": "statut",
          "type": "uint8"
        }
      ],
      "name": "StatutTransportMisAJour",
      "type": "event"
    },
    {
      "stateMutability": "payable",
      "type": "fallback"
    },
    {
      "inputs": [
        {
          "internalType": "uint32",
          "name": "_idRecolte",
          "type": "uint32"
        },
        {
          "internalType": "uint32",
          "name": "_quantite",
          "type": "uint32"
        },
        {
          "internalType": "uint32",
          "name": "_prix",
          "type": "uint32"
        },
        {
          "internalType": "address",
          "name": "_collecteur",
          "type": "address"
        },
        {
          "internalType": "string",
          "name": "_nomProduit",
          "type": "string"
        },
        {
          "internalType": "string",
          "name": "_dateRecolte",
          "type": "string"
        },
        {
          "internalType": "string",
          "name": "_certificatPhytosanitaire",
          "type": "string"
        }
      ],
      "name": "ajouterProduit",
      "outputs": [],
      "stateMutability": "nonpayable",
      "type": "function"
    },
    {
      "inputs": [
        {
          "internalType": "uint32",
          "name": "",
          "type": "uint32"
        }
      ],
      "name": "commandes",
      "outputs": [
        {
          "internalType": "uint32",
          "name": "id",
          "type": "uint32"
        },
        {
          "internalType": "uint32",
          "name": "idProduit",
          "type": "uint32"
        },
        {
          "internalType": "uint32",
          "name": "quantite",
          "type": "uint32"
        },
        {
          "internalType": "uint32",
          "name": "prix",
          "type": "uint32"
        },
        {
          "internalType": "bool",
          "name": "payer",
          "type": "bool"
        },
        {
          "internalType": "enum StructLib.StatutTransport",
          "name": "statutTransport",
          "type": "uint8"
        },
        {
          "internalType": "address",
          "name": "collecteur",
          "type": "address"
        },
        {
          "internalType": "address",
          "name": "exportateur",
          "type": "address"
        }
      ],
      "stateMutability": "view",
      "type": "function"
    },
    {
      "inputs": [],
      "name": "compteurCommandes",
      "outputs": [
        {
          "internalType": "uint32",
          "name": "",
          "type": "uint32"
        }
      ],
      "stateMutability": "view",
      "type": "function"
    },
    {
      "inputs": [],
      "name": "compteurConditions",
      "outputs": [
        {
          "internalType": "uint32",
          "name": "",
          "type": "uint32"
        }
      ],
      "stateMutability": "view",
      "type": "function"
    },
    {
      "inputs": [],
      "name": "compteurPaiements",
      "outputs": [
        {
          "internalType": "uint32",
          "name": "",
          "type": "uint32"
        }
      ],
      "stateMutability": "view",
      "type": "function"
    },
    {
      "inputs": [],
      "name": "compteurProduits",
      "outputs": [
        {
          "internalType": "uint32",
          "name": "",
          "type": "uint32"
        }
      ],
      "stateMutability": "view",
      "type": "function"
    },
    {
      "inputs": [
        {
          "internalType": "uint32",
          "name": "",
          "type": "uint32"
        }
      ],
      "name": "conditions",
      "outputs": [
        {
          "internalType": "uint32",
          "name": "id",
          "type": "uint32"
        },
        {
          "internalType": "string",
          "name": "temperature",
          "type": "string"
        },
        {
          "internalType": "string",
          "name": "humidite",
          "type": "string"
        },
        {
          "internalType": "uint256",
          "name": "timestamp",
          "type": "uint256"
        }
      ],
      "stateMutability": "view",
      "type": "function"
    },
    {
      "inputs": [
        {
          "internalType": "uint32",
          "name": "_idCommande",
          "type": "uint32"
        },
        {
          "internalType": "uint32",
          "name": "_montant",
          "type": "uint32"
        },
        {
          "internalType": "enum StructLib.ModePaiement",
          "name": "_mode",
          "type": "uint8"
        }
      ],
      "name": "effectuerPaiement",
      "outputs": [],
      "stateMutability": "payable",
      "type": "function"
    },
    {
      "inputs": [
        {
          "internalType": "uint32",
          "name": "_idCommande",
          "type": "uint32"
        },
        {
          "internalType": "string",
          "name": "_temperature",
          "type": "string"
        },
        {
          "internalType": "string",
          "name": "_humidite",
          "type": "string"
        }
      ],
      "name": "enregistrerCondition",
      "outputs": [],
      "stateMutability": "nonpayable",
      "type": "function"
    },
    {
      "inputs": [],
      "name": "gestionnaireActeurs",
      "outputs": [
        {
          "internalType": "contract GestionnaireActeurs",
          "name": "",
          "type": "address"
        }
      ],
      "stateMutability": "view",
      "type": "function"
    },
    {
      "inputs": [
        {
          "internalType": "uint32",
          "name": "id",
          "type": "uint32"
        }
      ],
      "name": "getCommande",
      "outputs": [
        {
          "components": [
            {
              "internalType": "uint32",
              "name": "id",
              "type": "uint32"
            },
            {
              "internalType": "uint32",
              "name": "idProduit",
              "type": "uint32"
            },
            {
              "internalType": "uint32",
              "name": "quantite",
              "type": "uint32"
            },
            {
              "internalType": "uint32",
              "name": "prix",
              "type": "uint32"
            },
            {
              "internalType": "bool",
              "name": "payer",
              "type": "bool"
            },
            {
              "internalType": "enum StructLib.StatutTransport",
              "name": "statutTransport",
              "type": "uint8"
            },
            {
              "internalType": "address",
              "name": "collecteur",
              "type": "address"
            },
            {
              "internalType": "address",
              "name": "exportateur",
              "type": "address"
            }
          ],
          "internalType": "struct StructLib.CommandeProduit",
          "name": "",
          "type": "tuple"
        }
      ],
      "stateMutability": "view",
      "type": "function"
    },
    {
      "inputs": [],
      "name": "getCompteurCommande",
      "outputs": [
        {
          "internalType": "uint32",
          "name": "",
          "type": "uint32"
        }
      ],
      "stateMutability": "view",
      "type": "function"
    },
    {
      "inputs": [],
      "name": "getCompteurCondition",
      "outputs": [
        {
          "internalType": "uint32",
          "name": "",
          "type": "uint32"
        }
      ],
      "stateMutability": "view",
      "type": "function"
    },
    {
      "inputs": [],
      "name": "getCompteurPaiement",
      "outputs": [
        {
          "internalType": "uint32",
          "name": "",
          "type": "uint32"
        }
      ],
      "stateMutability": "view",
      "type": "function"
    },
    {
      "inputs": [],
      "name": "getCompteurProduit",
      "outputs": [
        {
          "internalType": "uint32",
          "name": "",
          "type": "uint32"
        }
      ],
      "stateMutability": "view",
      "type": "function"
    },
    {
      "inputs": [
        {
          "internalType": "uint32",
          "name": "id",
          "type": "uint32"
        }
      ],
      "name": "getCondition",
      "outputs": [
        {
          "components": [
            {
              "internalType": "uint32",
              "name": "id",
              "type": "uint32"
            },
            {
              "internalType": "string",
              "name": "temperature",
              "type": "string"
            },
            {
              "internalType": "string",
              "name": "humidite",
              "type": "string"
            },
            {
              "internalType": "uint256",
              "name": "timestamp",
              "type": "uint256"
            }
          ],
          "internalType": "struct StructLib.EnregistrementCondition",
          "name": "",
          "type": "tuple"
        }
      ],
      "stateMutability": "view",
      "type": "function"
    },
    {
      "inputs": [
        {
          "internalType": "uint32",
          "name": "id",
          "type": "uint32"
        }
      ],
      "name": "getPaiement",
      "outputs": [
        {
          "components": [
            {
              "internalType": "uint32",
              "name": "id",
              "type": "uint32"
            },
            {
              "internalType": "address",
              "name": "payeur",
              "type": "address"
            },
            {
              "internalType": "address",
              "name": "vendeur",
              "type": "address"
            },
            {
              "internalType": "uint32",
              "name": "montant",
              "type": "uint32"
            },
            {
              "internalType": "enum StructLib.ModePaiement",
              "name": "mode",
              "type": "uint8"
            },
            {
              "internalType": "uint256",
              "name": "timestamp",
              "type": "uint256"
            }
          ],
          "internalType": "struct StructLib.Paiement",
          "name": "",
          "type": "tuple"
        }
      ],
      "stateMutability": "view",
      "type": "function"
    },
    {
      "inputs": [
        {
          "internalType": "uint32",
          "name": "id",
          "type": "uint32"
        }
      ],
      "name": "getProduit",
      "outputs": [
        {
          "components": [
            {
              "internalType": "uint32",
              "name": "id",
              "type": "uint32"
            },
            {
              "internalType": "uint32",
              "name": "idRecolte",
              "type": "uint32"
            },
            {
              "internalType": "string",
              "name": "nom",
              "type": "string"
            },
            {
              "internalType": "uint32",
              "name": "quantite",
              "type": "uint32"
            },
            {
              "internalType": "uint32",
              "name": "prixUnit",
              "type": "uint32"
            },
            {
              "internalType": "enum StructLib.StatutProduit",
              "name": "statut",
              "type": "uint8"
            },
            {
              "internalType": "string",
              "name": "dateRecolte",
              "type": "string"
            },
            {
              "internalType": "string",
              "name": "certificatPhytosanitaire",
              "type": "string"
            },
            {
              "internalType": "address",
              "name": "collecteur",
              "type": "address"
            }
          ],
          "internalType": "struct StructLib.Produit",
          "name": "",
          "type": "tuple"
        }
      ],
      "stateMutability": "view",
      "type": "function"
    },
    {
      "inputs": [
        {
          "internalType": "address",
          "name": "_gestionnaireActeurs",
          "type": "address"
        }
      ],
      "name": "initialiser",
      "outputs": [],
      "stateMutability": "nonpayable",
      "type": "function"
    },
    {
      "inputs": [
        {
          "internalType": "uint32",
          "name": "_idCommande",
          "type": "uint32"
        },
        {
          "internalType": "enum StructLib.StatutTransport",
          "name": "_statut",
          "type": "uint8"
        }
      ],
      "name": "mettreAJourStatutTransport",
      "outputs": [],
      "stateMutability": "nonpayable",
      "type": "function"
    },
    {
      "inputs": [
        {
          "internalType": "uint32",
          "name": "",
          "type": "uint32"
        }
      ],
      "name": "paiements",
      "outputs": [
        {
          "internalType": "uint32",
          "name": "id",
          "type": "uint32"
        },
        {
          "internalType": "address",
          "name": "payeur",
          "type": "address"
        },
        {
          "internalType": "address",
          "name": "vendeur",
          "type": "address"
        },
        {
          "internalType": "uint32",
          "name": "montant",
          "type": "uint32"
        },
        {
          "internalType": "enum StructLib.ModePaiement",
          "name": "mode",
          "type": "uint8"
        },
        {
          "internalType": "uint256",
          "name": "timestamp",
          "type": "uint256"
        }
      ],
      "stateMutability": "view",
      "type": "function"
    },
    {
      "inputs": [
        {
          "internalType": "uint32",
          "name": "idProduit",
          "type": "uint32"
        },
        {
          "internalType": "uint32",
          "name": "_quantite",
          "type": "uint32"
        }
      ],
      "name": "passerCommande",
      "outputs": [],
      "stateMutability": "nonpayable",
      "type": "function"
    },
    {
      "inputs": [
        {
          "internalType": "uint32",
          "name": "",
          "type": "uint32"
        }
      ],
      "name": "produits",
      "outputs": [
        {
          "internalType": "uint32",
          "name": "id",
          "type": "uint32"
        },
        {
          "internalType": "uint32",
          "name": "idRecolte",
          "type": "uint32"
        },
        {
          "internalType": "string",
          "name": "nom",
          "type": "string"
        },
        {
          "internalType": "uint32",
          "name": "quantite",
          "type": "uint32"
        },
        {
          "internalType": "uint32",
          "name": "prixUnit",
          "type": "uint32"
        },
        {
          "internalType": "enum StructLib.StatutProduit",
          "name": "statut",
          "type": "uint8"
        },
        {
          "internalType": "string",
          "name": "dateRecolte",
          "type": "string"
        },
        {
          "internalType": "string",
          "name": "certificatPhytosanitaire",
          "type": "string"
        },
        {
          "internalType": "address",
          "name": "collecteur",
          "type": "address"
        }
      ],
      "stateMutability": "view",
      "type": "function"
    },
    {
      "inputs": [
        {
          "internalType": "address",
          "name": "_addr",
          "type": "address"
        }
      ],
      "name": "setGestionnaireActeurs",
      "outputs": [],
      "stateMutability": "nonpayable",
      "type": "function"
    },
    {
      "inputs": [
        {
          "internalType": "uint32",
          "name": "_idProduit",
          "type": "uint32"
        },
        {
          "internalType": "uint32",
          "name": "_prix",
          "type": "uint32"
        }
      ],
      "name": "setPriceProduit",
      "outputs": [],
      "stateMutability": "nonpayable",
      "type": "function"
    },
    {
      "inputs": [
        {
          "internalType": "uint32",
          "name": "_idProduit",
          "type": "uint32"
        },
        {
          "internalType": "bool",
          "name": "_valide",
          "type": "bool"
        }
      ],
      "name": "validerProduit",
      "outputs": [],
      "stateMutability": "nonpayable",
      "type": "function"
    },
    {
      "stateMutability": "payable",
      "type": "receive"
    }
  ],
  "bytecode": "0x608060405234801561001057600080fd5b5061497d806100206000396000f3fe6080604052600436106101855760003560e01c80636f3fd6c5116100d15780639e942cd41161008a578063e6cab64c11610064578063e6cab64c146105c2578063edd13163146105de578063f6980cc914610609578063fdccf433146106495761018c565b80639e942cd414610543578063c47744ff1461056e578063cd3df1ed146105975761018c565b80636f3fd6c5146104155780637babcffa146104595780638777654f1461049b5780638a16156e146104c657806393c2f9b4146104ef5780639aed45401461051a5761018c565b806341fae4db1161013e5780634dafb501116101185780634dafb5011461035b5780634fbdf4fe146103845780635293ea51146103ad578063687112e2146103ea5761018c565b806341fae4db146102ae5780634851ca82146102eb578063488dee20146103305761018c565b8063011970181461018e5780630b215e64146101b957806315a3374c146101f6578063243ae82c1461021f578063369064b9146102485780633e7a6049146102855761018c565b3661018c57005b005b34801561019a57600080fd5b506101a3610674565b6040516101b091906142e0565b60405180910390f35b3480156101c557600080fd5b506101e060048036038101906101db9190613670565b61068c565b6040516101ed91906142a3565b60405180910390f35b34801561020257600080fd5b5061021d60048036038101906102189190613790565b61084e565b005b34801561022b57600080fd5b5061024660048036038101906102419190613699565b610a2e565b005b34801561025457600080fd5b5061026f600480360381019061026a9190613670565b610d2a565b60405161027c91906142be565b60405180910390f35b34801561029157600080fd5b506102ac60048036038101906102a7919061361e565b61108e565b005b3480156102ba57600080fd5b506102d560048036038101906102d09190613670565b6110d2565b6040516102e29190614281565b60405180910390f35b3480156102f757600080fd5b50610312600480360381019061030d9190613670565b61125f565b604051610327999897969594939291906143f4565b60405180910390f35b34801561033c57600080fd5b506103456114b2565b60405161035291906142e0565b60405180910390f35b34801561036757600080fd5b50610382600480360381019061037d9190613790565b6114c8565b005b34801561039057600080fd5b506103ab60048036038101906103a6919061361e565b611a6d565b005b3480156103b957600080fd5b506103d460048036038101906103cf9190613670565b611b1c565b6040516103e19190614265565b60405180910390f35b3480156103f657600080fd5b506103ff611d3c565b60405161040c91906142e0565b60405180910390f35b34801561042157600080fd5b5061043c60048036038101906104379190613670565b611d52565b604051610450989796959493929190614496565b60405180910390f35b34801561046557600080fd5b50610480600480360381019061047b9190613670565b611e34565b604051610492969594939291906142fb565b60405180910390f35b3480156104a757600080fd5b506104b0611edd565b6040516104bd91906142e0565b60405180910390f35b3480156104d257600080fd5b506104ed60048036038101906104e891906136d5565b611ef7565b005b3480156104fb57600080fd5b506105046120f7565b60405161051191906142e0565b60405180910390f35b34801561052657600080fd5b50610541600480360381019061053c919061381b565b612111565b005b34801561054f57600080fd5b5061055861242b565b6040516105659190614059565b60405180910390f35b34801561057a57600080fd5b5061059560048036038101906105909190613711565b612451565b005b3480156105a357600080fd5b506105ac612701565b6040516105b991906142e0565b60405180910390f35b6105dc60048036038101906105d791906137cc565b612717565b005b3480156105ea57600080fd5b506105f36130ce565b60405161060091906142e0565b60405180910390f35b34801561061557600080fd5b50610630600480360381019061062b9190613670565b6130e2565b60405161064094939291906143a1565b60405180910390f35b34801561065557600080fd5b5061065e613232565b60405161066b91906142e0565b60405180910390f35b600060048054906101000a900463ffffffff16905090565b61069461324c565b600260008363ffffffff1663ffffffff1681526020019081526020016000206040518060c00160405290816000820160009054906101000a900463ffffffff1663ffffffff1663ffffffff1681526020016000820160049054906101000a900473ffffffffffffffffffffffffffffffffffffffff1673ffffffffffffffffffffffffffffffffffffffff1673ffffffffffffffffffffffffffffffffffffffff1681526020016001820160009054906101000a900473ffffffffffffffffffffffffffffffffffffffff1673ffffffffffffffffffffffffffffffffffffffff1673ffffffffffffffffffffffffffffffffffffffff1681526020016001820160149054906101000a900463ffffffff1663ffffffff1663ffffffff1681526020016001820160189054906101000a900460ff166002811115610801577f4e487b7100000000000000000000000000000000000000000000000000000000600052602160045260246000fd5b6002811115610839577f4e487b7100000000000000000000000000000000000000000000000000000000600052602160045260246000fd5b81526020016002820154815250509050919050565b600560009054906101000a900473ffffffffffffffffffffffffffffffffffffffff1673ffffffffffffffffffffffffffffffffffffffff1663d1e47bb33360036040518363ffffffff1660e01b81526004016108ac929190614015565b60206040518083038186803b1580156108c457600080fd5b505afa1580156108d8573d6000803e3d6000fd5b505050506040513d601f19601f820116820180604052508101906108fc9190613647565b61093b576040517f08c379a0000000000000000000000000000000000000000000000000000000008152600401610932906141e5565b60405180910390fd5b3373ffffffffffffffffffffffffffffffffffffffff166000808463ffffffff1663ffffffff16815260200190815260200160002060050160009054906101000a900473ffffffffffffffffffffffffffffffffffffffff1673ffffffffffffffffffffffffffffffffffffffff16146109ea576040517f08c379a00000000000000000000000000000000000000000000000000000000081526004016109e190614165565b60405180910390fd5b806000808463ffffffff1663ffffffff16815260200190815260200160002060020160046101000a81548163ffffffff021916908363ffffffff1602179055505050565b600560009054906101000a900473ffffffffffffffffffffffffffffffffffffffff1673ffffffffffffffffffffffffffffffffffffffff1663d1e47bb33360066040518363ffffffff1660e01b8152600401610a8c929190614015565b60206040518083038186803b158015610aa457600080fd5b505afa158015610ab8573d6000803e3d6000fd5b505050506040513d601f19601f82011682018060405250810190610adc9190613647565b610b1b576040517f08c379a0000000000000000000000000000000000000000000000000000000008152600401610b1290614225565b60405180910390fd5b60006002811115610b55577f4e487b7100000000000000000000000000000000000000000000000000000000600052602160045260246000fd5b6000808463ffffffff1663ffffffff16815260200190815260200160002060020160089054906101000a900460ff166002811115610bbc577f4e487b7100000000000000000000000000000000000000000000000000000000600052602160045260246000fd5b14610bfc576040517f08c379a0000000000000000000000000000000000000000000000000000000008152600401610bf390614145565b60405180910390fd5b8015610c775760016000808463ffffffff1663ffffffff16815260200190815260200160002060020160086101000a81548160ff02191690836002811115610c6d577f4e487b7100000000000000000000000000000000000000000000000000000000600052602160045260246000fd5b0217905550610ce8565b60026000808463ffffffff1663ffffffff16815260200190815260200160002060020160086101000a81548160ff02191690836002811115610ce2577f4e487b7100000000000000000000000000000000000000000000000000000000600052602160045260246000fd5b02179055505b8163ffffffff167f0162415f7fa3e8fd622f197aee84dcd4f88f8194b8755bca9c2a885bc4332c9182604051610d1e919061403e565b60405180910390a25050565b610d326132f2565b6000808363ffffffff1663ffffffff168152602001908152602001600020604051806101200160405290816000820160009054906101000a900463ffffffff1663ffffffff1663ffffffff1681526020016000820160049054906101000a900463ffffffff1663ffffffff1663ffffffff168152602001600182018054610db890614766565b80601f0160208091040260200160405190810160405280929190818152602001828054610de490614766565b8015610e315780601f10610e0657610100808354040283529160200191610e31565b820191906000526020600020905b815481529060010190602001808311610e1457829003601f168201915b505050505081526020016002820160009054906101000a900463ffffffff1663ffffffff1663ffffffff1681526020016002820160049054906101000a900463ffffffff1663ffffffff1663ffffffff1681526020016002820160089054906101000a900460ff166002811115610ed1577f4e487b7100000000000000000000000000000000000000000000000000000000600052602160045260246000fd5b6002811115610f09577f4e487b7100000000000000000000000000000000000000000000000000000000600052602160045260246000fd5b8152602001600382018054610f1d90614766565b80601f0160208091040260200160405190810160405280929190818152602001828054610f4990614766565b8015610f965780601f10610f6b57610100808354040283529160200191610f96565b820191906000526020600020905b815481529060010190602001808311610f7957829003601f168201915b50505050508152602001600482018054610faf90614766565b80601f0160208091040260200160405190810160405280929190818152602001828054610fdb90614766565b80156110285780601f10610ffd57610100808354040283529160200191611028565b820191906000526020600020905b81548152906001019060200180831161100b57829003601f168201915b505050505081526020016005820160009054906101000a900473ffffffffffffffffffffffffffffffffffffffff1673ffffffffffffffffffffffffffffffffffffffff1673ffffffffffffffffffffffffffffffffffffffff16815250509050919050565b80600560006101000a81548173ffffffffffffffffffffffffffffffffffffffff021916908373ffffffffffffffffffffffffffffffffffffffff16021790555050565b6110da6133a4565b600160008363ffffffff1663ffffffff1681526020019081526020016000206040518060800160405290816000820160009054906101000a900463ffffffff1663ffffffff1663ffffffff16815260200160018201805461113a90614766565b80601f016020809104026020016040519081016040528092919081815260200182805461116690614766565b80156111b35780601f10611188576101008083540402835291602001916111b3565b820191906000526020600020905b81548152906001019060200180831161119657829003601f168201915b505050505081526020016002820180546111cc90614766565b80601f01602080910402602001604051908101604052809291908181526020018280546111f890614766565b80156112455780601f1061121a57610100808354040283529160200191611245565b820191906000526020600020905b81548152906001019060200180831161122857829003601f168201915b505050505081526020016003820154815250509050919050565b60006020528060005260406000206000915090508060000160009054906101000a900463ffffffff16908060000160049054906101000a900463ffffffff16908060010180546112ae90614766565b80601f01602080910402602001604051908101604052809291908181526020018280546112da90614766565b80156113275780601f106112fc57610100808354040283529160200191611327565b820191906000526020600020905b81548152906001019060200180831161130a57829003601f168201915b5050505050908060020160009054906101000a900463ffffffff16908060020160049054906101000a900463ffffffff16908060020160089054906101000a900460ff169080600301805461137b90614766565b80601f01602080910402602001604051908101604052809291908181526020018280546113a790614766565b80156113f45780601f106113c9576101008083540402835291602001916113f4565b820191906000526020600020905b8154815290600101906020018083116113d757829003601f168201915b50505050509080600401805461140990614766565b80601f016020809104026020016040519081016040528092919081815260200182805461143590614766565b80156114825780601f1061145757610100808354040283529160200191611482565b820191906000526020600020905b81548152906001019060200180831161146557829003601f168201915b5050505050908060050160009054906101000a900473ffffffffffffffffffffffffffffffffffffffff16905089565b600460009054906101000a900463ffffffff1681565b600560009054906101000a900473ffffffffffffffffffffffffffffffffffffffff1673ffffffffffffffffffffffffffffffffffffffff1663d1e47bb33360066040518363ffffffff1660e01b8152600401611526929190614015565b60206040518083038186803b15801561153e57600080fd5b505afa158015611552573d6000803e3d6000fd5b505050506040513d601f19601f820116820180604052508101906115769190613647565b6115b5576040517f08c379a00000000000000000000000000000000000000000000000000000000081526004016115ac90614225565b60405180910390fd5b6000808363ffffffff1663ffffffff16815260200190815260200160002060020160009054906101000a900463ffffffff1663ffffffff168163ffffffff161115611635576040517f08c379a000000000000000000000000000000000000000000000000000000000815260040161162c906141c5565b60405180910390fd5b60008060008463ffffffff1663ffffffff16815260200190815260200160002060020160049054906101000a900463ffffffff168261167491906145a2565b90506000826000808663ffffffff1663ffffffff16815260200190815260200160002060020160009054906101000a900463ffffffff166116b591906145e0565b9050806000808663ffffffff1663ffffffff16815260200190815260200160002060020160006101000a81548163ffffffff021916908363ffffffff1602179055506004600081819054906101000a900463ffffffff168092919061171990614798565b91906101000a81548163ffffffff021916908363ffffffff16021790555050604051806101000160405280600460009054906101000a900463ffffffff1663ffffffff1681526020018563ffffffff1681526020018463ffffffff1681526020018363ffffffff168152602001600015158152602001600060018111156117c9577f4e487b7100000000000000000000000000000000000000000000000000000000600052602160045260246000fd5b81526020016000808763ffffffff1663ffffffff16815260200190815260200160002060050160009054906101000a900473ffffffffffffffffffffffffffffffffffffffff1673ffffffffffffffffffffffffffffffffffffffff1681526020013373ffffffffffffffffffffffffffffffffffffffff1681525060036000600460009054906101000a900463ffffffff1663ffffffff1663ffffffff16815260200190815260200160002060008201518160000160006101000a81548163ffffffff021916908363ffffffff16021790555060208201518160000160046101000a81548163ffffffff021916908363ffffffff16021790555060408201518160000160086101000a81548163ffffffff021916908363ffffffff160217905550606082015181600001600c6101000a81548163ffffffff021916908363ffffffff16021790555060808201518160000160106101000a81548160ff02191690831515021790555060a08201518160000160116101000a81548160ff02191690836001811115611983577f4e487b7100000000000000000000000000000000000000000000000000000000600052602160045260246000fd5b021790555060c08201518160010160006101000a81548173ffffffffffffffffffffffffffffffffffffffff021916908373ffffffffffffffffffffffffffffffffffffffff16021790555060e08201518160020160006101000a81548173ffffffffffffffffffffffffffffffffffffffff021916908373ffffffffffffffffffffffffffffffffffffffff1602179055509050503373ffffffffffffffffffffffffffffffffffffffff167fa0e84f4dba1ea97bb938c4d3ff9475e68dacbd58f3086c672b0605ad53d76dc185604051611a5f91906142e0565b60405180910390a250505050565b600460109054906101000a900460ff1615611abd576040517f08c379a0000000000000000000000000000000000000000000000000000000008152600401611ab490614205565b60405180910390fd5b80600560006101000a81548173ffffffffffffffffffffffffffffffffffffffff021916908373ffffffffffffffffffffffffffffffffffffffff1602179055506001600460106101000a81548160ff02191690831515021790555050565b611b246133d2565b600360008363ffffffff1663ffffffff168152602001908152602001600020604051806101000160405290816000820160009054906101000a900463ffffffff1663ffffffff1663ffffffff1681526020016000820160049054906101000a900463ffffffff1663ffffffff1663ffffffff1681526020016000820160089054906101000a900463ffffffff1663ffffffff1663ffffffff16815260200160008201600c9054906101000a900463ffffffff1663ffffffff1663ffffffff1681526020016000820160109054906101000a900460ff161515151581526020016000820160119054906101000a900460ff166001811115611c4d577f4e487b7100000000000000000000000000000000000000000000000000000000600052602160045260246000fd5b6001811115611c85577f4e487b7100000000000000000000000000000000000000000000000000000000600052602160045260246000fd5b81526020016001820160009054906101000a900473ffffffffffffffffffffffffffffffffffffffff1673ffffffffffffffffffffffffffffffffffffffff1673ffffffffffffffffffffffffffffffffffffffff1681526020016002820160009054906101000a900473ffffffffffffffffffffffffffffffffffffffff1673ffffffffffffffffffffffffffffffffffffffff1673ffffffffffffffffffffffffffffffffffffffff16815250509050919050565b600460089054906101000a900463ffffffff1681565b60036020528060005260406000206000915090508060000160009054906101000a900463ffffffff16908060000160049054906101000a900463ffffffff16908060000160089054906101000a900463ffffffff169080600001600c9054906101000a900463ffffffff16908060000160109054906101000a900460ff16908060000160119054906101000a900460ff16908060010160009054906101000a900473ffffffffffffffffffffffffffffffffffffffff16908060020160009054906101000a900473ffffffffffffffffffffffffffffffffffffffff16905088565b60026020528060005260406000206000915090508060000160009054906101000a900463ffffffff16908060000160049054906101000a900473ffffffffffffffffffffffffffffffffffffffff16908060010160009054906101000a900473ffffffffffffffffffffffffffffffffffffffff16908060010160149054906101000a900463ffffffff16908060010160189054906101000a900460ff16908060020154905086565b6000600460009054906101000a900463ffffffff16905090565b600560009054906101000a900473ffffffffffffffffffffffffffffffffffffffff1673ffffffffffffffffffffffffffffffffffffffff1663d1e47bb33360056040518363ffffffff1660e01b8152600401611f55929190614015565b60206040518083038186803b158015611f6d57600080fd5b505afa158015611f81573d6000803e3d6000fd5b505050506040513d601f19601f82011682018060405250810190611fa59190613647565b611fe4576040517f08c379a0000000000000000000000000000000000000000000000000000000008152600401611fdb90614245565b60405180910390fd5b600460009054906101000a900463ffffffff1663ffffffff168263ffffffff161115612045576040517f08c379a000000000000000000000000000000000000000000000000000000000815260040161203c90614105565b60405180910390fd5b80600360008463ffffffff1663ffffffff16815260200190815260200160002060000160116101000a81548160ff021916908360018111156120b0577f4e487b7100000000000000000000000000000000000000000000000000000000600052602160045260246000fd5b02179055508163ffffffff167ff84820c84ecbec116ee0604a91f0bec4a5d5926d8d5189a13f57fc30951d4b91826040516120eb9190614074565b60405180910390a25050565b6000600460089054906101000a900463ffffffff16905090565b60048081819054906101000a900463ffffffff168092919061213290614798565b91906101000a81548163ffffffff021916908363ffffffff1602179055505060405180610120016040528060048054906101000a900463ffffffff1663ffffffff1681526020018863ffffffff1681526020018481526020018763ffffffff1681526020018663ffffffff168152602001600060028111156121dd577f4e487b7100000000000000000000000000000000000000000000000000000000600052602160045260246000fd5b81526020018381526020018281526020018573ffffffffffffffffffffffffffffffffffffffff1681525060008060048054906101000a900463ffffffff1663ffffffff1663ffffffff16815260200190815260200160002060008201518160000160006101000a81548163ffffffff021916908363ffffffff16021790555060208201518160000160046101000a81548163ffffffff021916908363ffffffff16021790555060408201518160010190805190602001906122a0929190613495565b5060608201518160020160006101000a81548163ffffffff021916908363ffffffff16021790555060808201518160020160046101000a81548163ffffffff021916908363ffffffff16021790555060a08201518160020160086101000a81548160ff02191690836002811115612340577f4e487b7100000000000000000000000000000000000000000000000000000000600052602160045260246000fd5b021790555060c0820151816003019080519060200190612361929190613495565b5060e082015181600401908051906020019061237e929190613495565b506101008201518160050160006101000a81548173ffffffffffffffffffffffffffffffffffffffff021916908373ffffffffffffffffffffffffffffffffffffffff16021790555090505060048054906101000a900463ffffffff1663ffffffff167fae4e6a533354fae499eff08fce0d52e10ef7c27a1743662362463f06382e8e1d8488888b878760405161241a9695949392919061408f565b60405180910390a250505050505050565b600560009054906101000a900473ffffffffffffffffffffffffffffffffffffffff1681565b600560009054906101000a900473ffffffffffffffffffffffffffffffffffffffff1673ffffffffffffffffffffffffffffffffffffffff1663d1e47bb33360056040518363ffffffff1660e01b81526004016124af929190614015565b60206040518083038186803b1580156124c757600080fd5b505afa1580156124db573d6000803e3d6000fd5b505050506040513d601f19601f820116820180604052508101906124ff9190613647565b61253e576040517f08c379a000000000000000000000000000000000000000000000000000000000815260040161253590614245565b60405180910390fd5b600460009054906101000a900463ffffffff1663ffffffff168363ffffffff16111561259f576040517f08c379a000000000000000000000000000000000000000000000000000000000815260040161259690614105565b60405180910390fd5b6004600881819054906101000a900463ffffffff16809291906125c190614798565b91906101000a81548163ffffffff021916908363ffffffff160217905550506040518060800160405280600460089054906101000a900463ffffffff1663ffffffff16815260200183815260200182815260200142815250600160008563ffffffff1663ffffffff16815260200190815260200160002060008201518160000160006101000a81548163ffffffff021916908363ffffffff160217905550602082015181600101908051906020019061267b929190613495565b506040820151816002019080519060200190612698929190613495565b50606082015181600301559050508263ffffffff167fa2effbfc7f8ff62ea4b874b57c26eb8951f95a078bf527463389d9b2d4ce175d600460089054906101000a900463ffffffff168484426040516126f494939291906143a1565b60405180910390a2505050565b6004600c9054906101000a900463ffffffff1681565b600560009054906101000a900473ffffffffffffffffffffffffffffffffffffffff1673ffffffffffffffffffffffffffffffffffffffff1663d1e47bb33360066040518363ffffffff1660e01b8152600401612775929190614015565b60206040518083038186803b15801561278d57600080fd5b505afa1580156127a1573d6000803e3d6000fd5b505050506040513d601f19601f820116820180604052508101906127c59190613647565b612804576040517f08c379a00000000000000000000000000000000000000000000000000000000081526004016127fb90614225565b60405180910390fd5b6000806000600360008763ffffffff1663ffffffff16815260200190815260200160002060000160049054906101000a900463ffffffff1663ffffffff1663ffffffff168152602001908152602001600020604051806101200160405290816000820160009054906101000a900463ffffffff1663ffffffff1663ffffffff1681526020016000820160049054906101000a900463ffffffff1663ffffffff1663ffffffff1681526020016001820180546128be90614766565b80601f01602080910402602001604051908101604052809291908181526020018280546128ea90614766565b80156129375780601f1061290c57610100808354040283529160200191612937565b820191906000526020600020905b81548152906001019060200180831161291a57829003601f168201915b505050505081526020016002820160009054906101000a900463ffffffff1663ffffffff1663ffffffff1681526020016002820160049054906101000a900463ffffffff1663ffffffff1663ffffffff1681526020016002820160089054906101000a900460ff1660028111156129d7577f4e487b7100000000000000000000000000000000000000000000000000000000600052602160045260246000fd5b6002811115612a0f577f4e487b7100000000000000000000000000000000000000000000000000000000600052602160045260246000fd5b8152602001600382018054612a2390614766565b80601f0160208091040260200160405190810160405280929190818152602001828054612a4f90614766565b8015612a9c5780601f10612a7157610100808354040283529160200191612a9c565b820191906000526020600020905b815481529060010190602001808311612a7f57829003601f168201915b50505050508152602001600482018054612ab590614766565b80601f0160208091040260200160405190810160405280929190818152602001828054612ae190614766565b8015612b2e5780601f10612b0357610100808354040283529160200191612b2e565b820191906000526020600020905b815481529060010190602001808311612b1157829003601f168201915b505050505081526020016005820160009054906101000a900473ffffffffffffffffffffffffffffffffffffffff1673ffffffffffffffffffffffffffffffffffffffff1673ffffffffffffffffffffffffffffffffffffffff1681525050905060016002811115612bc9577f4e487b7100000000000000000000000000000000000000000000000000000000600052602160045260246000fd5b8160a001516002811115612c06577f4e487b7100000000000000000000000000000000000000000000000000000000600052602160045260246000fd5b14612c46576040517f08c379a0000000000000000000000000000000000000000000000000000000008152600401612c3d906141a5565b60405180910390fd5b600360008563ffffffff1663ffffffff16815260200190815260200160002060000160089054906101000a900463ffffffff168160800151612c8891906145a2565b63ffffffff163414612ccf576040517f08c379a0000000000000000000000000000000000000000000000000000000008152600401612cc690614125565b60405180910390fd5b600360008563ffffffff1663ffffffff16815260200190815260200160002060000160109054906101000a900460ff1615612d3f576040517f08c379a0000000000000000000000000000000000000000000000000000000008152600401612d3690614185565b60405180910390fd5b6001600360008663ffffffff1663ffffffff16815260200190815260200160002060000160106101000a81548160ff0219169083151502179055506004600c81819054906101000a900463ffffffff1680929190612d9c90614798565b91906101000a81548163ffffffff021916908363ffffffff160217905550506040518060c001604052806004600c9054906101000a900463ffffffff1663ffffffff1681526020013373ffffffffffffffffffffffffffffffffffffffff168152602001600360008763ffffffff1663ffffffff16815260200190815260200160002060010160009054906101000a900473ffffffffffffffffffffffffffffffffffffffff1673ffffffffffffffffffffffffffffffffffffffff1681526020018463ffffffff168152602001836002811115612ea3577f4e487b7100000000000000000000000000000000000000000000000000000000600052602160045260246000fd5b815260200142815250600260006004600c9054906101000a900463ffffffff1663ffffffff1663ffffffff16815260200190815260200160002060008201518160000160006101000a81548163ffffffff021916908363ffffffff16021790555060208201518160000160046101000a81548173ffffffffffffffffffffffffffffffffffffffff021916908373ffffffffffffffffffffffffffffffffffffffff16021790555060408201518160010160006101000a81548173ffffffffffffffffffffffffffffffffffffffff021916908373ffffffffffffffffffffffffffffffffffffffff16021790555060608201518160010160146101000a81548163ffffffff021916908363ffffffff16021790555060808201518160010160186101000a81548160ff0219169083600281111561300a577f4e487b7100000000000000000000000000000000000000000000000000000000600052602160045260246000fd5b021790555060a08201518160020155905050806000015163ffffffff167fd9f037670aada9b07156110dd936887c158e5cd6f7932663cc64ef336e44cf9f6004600c9054906101000a900463ffffffff1633868660405161306e949392919061435c565b60405180910390a2600081610100015190508073ffffffffffffffffffffffffffffffffffffffff166108fc349081150290604051600060405180830381858888f193505050501580156130c6573d6000803e3d6000fd5b505050505050565b60048054906101000a900463ffffffff1681565b60016020528060005260406000206000915090508060000160009054906101000a900463ffffffff169080600101805461311b90614766565b80601f016020809104026020016040519081016040528092919081815260200182805461314790614766565b80156131945780601f1061316957610100808354040283529160200191613194565b820191906000526020600020905b81548152906001019060200180831161317757829003601f168201915b5050505050908060020180546131a990614766565b80601f01602080910402602001604051908101604052809291908181526020018280546131d590614766565b80156132225780601f106131f757610100808354040283529160200191613222565b820191906000526020600020905b81548152906001019060200180831161320557829003601f168201915b5050505050908060030154905084565b60006004600c9054906101000a900463ffffffff16905090565b6040518060c00160405280600063ffffffff168152602001600073ffffffffffffffffffffffffffffffffffffffff168152602001600073ffffffffffffffffffffffffffffffffffffffff168152602001600063ffffffff168152602001600060028111156132e5577f4e487b7100000000000000000000000000000000000000000000000000000000600052602160045260246000fd5b8152602001600081525090565b604051806101200160405280600063ffffffff168152602001600063ffffffff16815260200160608152602001600063ffffffff168152602001600063ffffffff16815260200160006002811115613373577f4e487b7100000000000000000000000000000000000000000000000000000000600052602160045260246000fd5b81526020016060815260200160608152602001600073ffffffffffffffffffffffffffffffffffffffff1681525090565b6040518060800160405280600063ffffffff1681526020016060815260200160608152602001600081525090565b604051806101000160405280600063ffffffff168152602001600063ffffffff168152602001600063ffffffff168152602001600063ffffffff16815260200160001515815260200160006001811115613455577f4e487b7100000000000000000000000000000000000000000000000000000000600052602160045260246000fd5b8152602001600073ffffffffffffffffffffffffffffffffffffffff168152602001600073ffffffffffffffffffffffffffffffffffffffff1681525090565b8280546134a190614766565b90600052602060002090601f0160209004810192826134c3576000855561350a565b82601f106134dc57805160ff191683800117855561350a565b8280016001018555821561350a579182015b828111156135095782518255916020019190600101906134ee565b5b509050613517919061351b565b5090565b5b8082111561353457600081600090555060010161351c565b5090565b600061354b61354684614545565b614514565b90508281526020810184848401111561356357600080fd5b61356e848285614724565b509392505050565b600081359050613585816148e2565b92915050565b60008135905061359a816148f9565b92915050565b6000815190506135af816148f9565b92915050565b6000813590506135c481614910565b92915050565b6000813590506135d981614920565b92915050565b600082601f8301126135f057600080fd5b8135613600848260208601613538565b91505092915050565b60008135905061361881614930565b92915050565b60006020828403121561363057600080fd5b600061363e84828501613576565b91505092915050565b60006020828403121561365957600080fd5b6000613667848285016135a0565b91505092915050565b60006020828403121561368257600080fd5b600061369084828501613609565b91505092915050565b600080604083850312156136ac57600080fd5b60006136ba85828601613609565b92505060206136cb8582860161358b565b9150509250929050565b600080604083850312156136e857600080fd5b60006136f685828601613609565b9250506020613707858286016135ca565b9150509250929050565b60008060006060848603121561372657600080fd5b600061373486828701613609565b935050602084013567ffffffffffffffff81111561375157600080fd5b61375d868287016135df565b925050604084013567ffffffffffffffff81111561377a57600080fd5b613786868287016135df565b9150509250925092565b600080604083850312156137a357600080fd5b60006137b185828601613609565b92505060206137c285828601613609565b9150509250929050565b6000806000606084860312156137e157600080fd5b60006137ef86828701613609565b935050602061380086828701613609565b9250506040613811868287016135b5565b9150509250925092565b600080600080600080600060e0888a03121561383657600080fd5b60006138448a828b01613609565b97505060206138558a828b01613609565b96505060406138668a828b01613609565b95505060606138778a828b01613576565b945050608088013567ffffffffffffffff81111561389457600080fd5b6138a08a828b016135df565b93505060a088013567ffffffffffffffff8111156138bd57600080fd5b6138c98a828b016135df565b92505060c088013567ffffffffffffffff8111156138e657600080fd5b6138f28a828b016135df565b91505092959891949750929550565b61390a81614614565b82525050565b61391981614614565b82525050565b61392881614626565b82525050565b61393781614626565b82525050565b613946816146b8565b82525050565b613955816146dc565b82525050565b613964816146dc565b82525050565b613973816146ee565b82525050565b61398281614700565b82525050565b61399181614700565b82525050565b6139a081614712565b82525050565b6139af81614712565b82525050565b60006139c082614575565b6139ca8185614580565b93506139da818560208601614733565b6139e381614881565b840191505092915050565b60006139f982614575565b613a038185614591565b9350613a13818560208601614733565b613a1c81614881565b840191505092915050565b6000613a34601983614591565b91507f4c6120636f6d6d616e6465206e27657869737465207061732e000000000000006000830152602082019050919050565b6000613a74601183614591565b91507f4d6f6e74616e7420696e636f72726563740000000000000000000000000000006000830152602082019050919050565b6000613ab4601383614591565b91507f50726f647569742064656a6120747261697465000000000000000000000000006000830152602082019050919050565b6000613af4602a83614591565b91507f566f7573206e2765746573207061732070726f7072696574616972652064652060008301527f63652070726f64756974000000000000000000000000000000000000000000006020830152604082019050919050565b6000613b5a601383614591565b91507f436f6d6d616e64652064656a61207061796572000000000000000000000000006000830152602082019050919050565b6000613b9a601283614591565b91507f50726f64756974206e6f6e2076616c69646500000000000000000000000000006000830152602082019050919050565b6000613bda601183614591565b91507f5175616e7469746520696e76616c6964650000000000000000000000000000006000830152602082019050919050565b6000613c1a602283614591565b91507f4e6f6e206175746f726973653a207365756c656d656e7420436f6c6c6563746560008301527f75720000000000000000000000000000000000000000000000000000000000006020830152604082019050919050565b6000613c80601a83614591565b91507f436f6e747261742064656a6120696e697469616c6973657220210000000000006000830152602082019050919050565b6000613cc0602383614591565b91507f4e6f6e206175746f726973653a207365756c656d656e74204578706f7274617460008301527f65757200000000000000000000000000000000000000000000000000000000006020830152604082019050919050565b6000613d26602483614591565b91507f4e6f6e206175746f726973653a207365756c656d656e74205472616e73706f7260008301527f74657572000000000000000000000000000000000000000000000000000000006020830152604082019050919050565b61010082016000820151613d966000850182613ff7565b506020820151613da96020850182613ff7565b506040820151613dbc6040850182613ff7565b506060820151613dcf6060850182613ff7565b506080820151613de2608085018261391f565b5060a0820151613df560a0850182613997565b5060c0820151613e0860c0850182613901565b5060e0820151613e1b60e0850182613901565b50505050565b6000608083016000830151613e396000860182613ff7565b5060208301518482036020860152613e5182826139b5565b91505060408301518482036040860152613e6b82826139b5565b9150506060830151613e806060860182613fd9565b508091505092915050565b60c082016000820151613ea16000850182613ff7565b506020820151613eb46020850182613901565b506040820151613ec76040850182613901565b506060820151613eda6060850182613ff7565b506080820151613eed608085018261394c565b5060a0820151613f0060a0850182613fd9565b50505050565b600061012083016000830151613f1f6000860182613ff7565b506020830151613f326020860182613ff7565b5060408301518482036040860152613f4a82826139b5565b9150506060830151613f5f6060860182613ff7565b506080830151613f726080860182613ff7565b5060a0830151613f8560a0860182613979565b5060c083015184820360c0860152613f9d82826139b5565b91505060e083015184820360e0860152613fb782826139b5565b915050610100830151613fce610100860182613901565b508091505092915050565b613fe28161469e565b82525050565b613ff18161469e565b82525050565b614000816146a8565b82525050565b61400f816146a8565b82525050565b600060408201905061402a6000830185613910565b614037602083018461396a565b9392505050565b6000602082019050614053600083018461392e565b92915050565b600060208201905061406e600083018461393d565b92915050565b600060208201905061408960008301846139a6565b92915050565b600060c08201905081810360008301526140a981896139ee565b90506140b86020830188614006565b6140c56040830187614006565b6140d26060830186614006565b81810360808301526140e481856139ee565b905081810360a08301526140f881846139ee565b9050979650505050505050565b6000602082019050818103600083015261411e81613a27565b9050919050565b6000602082019050818103600083015261413e81613a67565b9050919050565b6000602082019050818103600083015261415e81613aa7565b9050919050565b6000602082019050818103600083015261417e81613ae7565b9050919050565b6000602082019050818103600083015261419e81613b4d565b9050919050565b600060208201905081810360008301526141be81613b8d565b9050919050565b600060208201905081810360008301526141de81613bcd565b9050919050565b600060208201905081810360008301526141fe81613c0d565b9050919050565b6000602082019050818103600083015261421e81613c73565b9050919050565b6000602082019050818103600083015261423e81613cb3565b9050919050565b6000602082019050818103600083015261425e81613d19565b9050919050565b60006101008201905061427b6000830184613d7f565b92915050565b6000602082019050818103600083015261429b8184613e21565b905092915050565b600060c0820190506142b86000830184613e8b565b92915050565b600060208201905081810360008301526142d88184613f06565b905092915050565b60006020820190506142f56000830184614006565b92915050565b600060c0820190506143106000830189614006565b61431d6020830188613910565b61432a6040830187613910565b6143376060830186614006565b614344608083018561395b565b61435160a0830184613fe8565b979650505050505050565b60006080820190506143716000830187614006565b61437e6020830186613910565b61438b6040830185614006565b614398606083018461395b565b95945050505050565b60006080820190506143b66000830187614006565b81810360208301526143c881866139ee565b905081810360408301526143dc81856139ee565b90506143eb6060830184613fe8565b95945050505050565b60006101208201905061440a600083018c614006565b614417602083018b614006565b8181036040830152614429818a6139ee565b90506144386060830189614006565b6144456080830188614006565b61445260a0830187613988565b81810360c083015261446481866139ee565b905081810360e083015261447881856139ee565b9050614488610100830184613910565b9a9950505050505050505050565b6000610100820190506144ac600083018b614006565b6144b9602083018a614006565b6144c66040830189614006565b6144d36060830188614006565b6144e0608083018761392e565b6144ed60a08301866139a6565b6144fa60c0830185613910565b61450760e0830184613910565b9998505050505050505050565b6000604051905081810181811067ffffffffffffffff8211171561453b5761453a614852565b5b8060405250919050565b600067ffffffffffffffff8211156145605761455f614852565b5b601f19601f8301169050602081019050919050565b600081519050919050565b600082825260208201905092915050565b600082825260208201905092915050565b60006145ad826146a8565b91506145b8836146a8565b92508163ffffffff04831182151516156145d5576145d46147c5565b5b828202905092915050565b60006145eb826146a8565b91506145f6836146a8565b925082821015614609576146086147c5565b5b828203905092915050565b600061461f8261467e565b9050919050565b60008115159050919050565b600081905061464082614892565b919050565b6000819050614653826148a6565b919050565b6000819050614666826148ba565b919050565b6000819050614679826148ce565b919050565b600073ffffffffffffffffffffffffffffffffffffffff82169050919050565b6000819050919050565b600063ffffffff82169050919050565b60006146c3826146ca565b9050919050565b60006146d58261467e565b9050919050565b60006146e782614632565b9050919050565b60006146f982614645565b9050919050565b600061470b82614658565b9050919050565b600061471d8261466b565b9050919050565b82818337600083830152505050565b60005b83811015614751578082015181840152602081019050614736565b83811115614760576000848401525b50505050565b6000600282049050600182168061477e57607f821691505b6020821081141561479257614791614823565b5b50919050565b60006147a3826146a8565b915063ffffffff8214156147ba576147b96147c5565b5b600182019050919050565b7f4e487b7100000000000000000000000000000000000000000000000000000000600052601160045260246000fd5b7f4e487b7100000000000000000000000000000000000000000000000000000000600052602160045260246000fd5b7f4e487b7100000000000000000000000000000000000000000000000000000000600052602260045260246000fd5b7f4e487b7100000000000000000000000000000000000000000000000000000000600052604160045260246000fd5b6000601f19601f8301169050919050565b600381106148a3576148a26147f4565b5b50565b600881106148b7576148b66147f4565b5b50565b600381106148cb576148ca6147f4565b5b50565b600281106148df576148de6147f4565b5b50565b6148eb81614614565b81146148f657600080fd5b50565b61490281614626565b811461490d57600080fd5b50565b6003811061491d57600080fd5b50565b6002811061492d57600080fd5b50565b614939816146a8565b811461494457600080fd5b5056fea2646970667358221220851f33cef787bbb84c70d34c9b6c8f01204ba4cbdbbb48182df812365862486764736f6c63430008000033",
  "linkReferences": {},
  "deployedLinkReferences": {}
}