{
  "_format": "hh-sol-artifact-1",
  "contractName": "CollecteurExportateur",
  "sourceName": "contracts/CollecteurExportateur.sol",
  "abi": [
    {
      "anonymous": false,
      "inputs": [
        {
          "indexed": true,
          "internalType": "address",
          "name": "exportateur",
          "type": "address"
        },
        {
          "indexed": false,
          "internalType": "uint32",
          "name": "idProduit",
          "type": "uint32"
        }
      ],
      "name": "CommandePasser",
      "type": "event"
    },
    {
      "anonymous": false,
      "inputs": [
        {
          "indexed": true,
          "internalType": "uint32",
          "name": "idProduit",
          "type": "uint32"
        },
        {
          "indexed": false,
          "internalType": "uint32",
          "name": "idCondition",
          "type": "uint32"
        },
        {
          "indexed": false,
          "internalType": "string",
          "name": "temperature",
          "type": "string"
        },
        {
          "indexed": false,
          "internalType": "string",
          "name": "humidite",
          "type": "string"
        },
        {
          "indexed": false,
          "internalType": "uint256",
          "name": "timestamp",
          "type": "uint256"
        }
      ],
      "name": "ConditionEnregistree",
      "type": "event"
    },
    {
      "anonymous": false,
      "inputs": [
        {
          "indexed": true,
          "internalType": "uint32",
          "name": "idProduit",
          "type": "uint32"
        },
        {
          "indexed": false,
          "internalType": "uint32",
          "name": "idPaiement",
          "type": "uint32"
        },
        {
          "indexed": false,
          "internalType": "address",
          "name": "payeur",
          "type": "address"
        },
        {
          "indexed": false,
          "internalType": "uint32",
          "name": "montant",
          "type": "uint32"
        },
        {
          "indexed": false,
          "internalType": "enum StructLib.ModePaiement",
          "name": "mode",
          "type": "uint8"
        }
      ],
      "name": "PaiementEffectue",
      "type": "event"
    },
    {
      "anonymous": false,
      "inputs": [
        {
          "indexed": true,
          "internalType": "uint32",
          "name": "idProduit",
          "type": "uint32"
        },
        {
          "indexed": false,
          "internalType": "string",
          "name": "nom",
          "type": "string"
        },
        {
          "indexed": false,
          "internalType": "uint32",
          "name": "quantite",
          "type": "uint32"
        },
        {
          "indexed": false,
          "internalType": "uint32",
          "name": "prix",
          "type": "uint32"
        },
        {
          "indexed": false,
          "internalType": "uint32",
          "name": "idRecolte",
          "type": "uint32"
        },
        {
          "indexed": false,
          "internalType": "string",
          "name": "dateRecolte",
          "type": "string"
        },
        {
          "indexed": false,
          "internalType": "string",
          "name": "certificatPhytosanitaire",
          "type": "string"
        }
      ],
      "name": "ProduitAjoute",
      "type": "event"
    },
    {
      "anonymous": false,
      "inputs": [
        {
          "indexed": true,
          "internalType": "uint32",
          "name": "idProduit",
          "type": "uint32"
        },
        {
          "indexed": false,
          "internalType": "bool",
          "name": "valide",
          "type": "bool"
        }
      ],
      "name": "ProduitValide",
      "type": "event"
    },
    {
      "anonymous": false,
      "inputs": [
        {
          "indexed": true,
          "internalType": "uint32",
          "name": "idProduit",
          "type": "uint32"
        },
        {
          "indexed": false,
          "internalType": "enum StructLib.StatutTransport",
          "name": "statut",
          "type": "uint8"
        }
      ],
      "name": "StatutTransportMisAJour",
      "type": "event"
    },
    {
      "stateMutability": "payable",
      "type": "fallback"
    },
    {
      "inputs": [
        {
          "internalType": "uint32",
          "name": "_idRecolte",
          "type": "uint32"
        },
        {
          "internalType": "uint32",
          "name": "_quantite",
          "type": "uint32"
        },
        {
          "internalType": "uint32",
          "name": "_prix",
          "type": "uint32"
        },
        {
          "internalType": "address",
          "name": "_collecteur",
          "type": "address"
        },
        {
          "internalType": "string",
          "name": "_nomProduit",
          "type": "string"
        },
        {
          "internalType": "string",
          "name": "_dateRecolte",
          "type": "string"
        },
        {
          "internalType": "string",
          "name": "_certificatPhytosanitaire",
          "type": "string"
        }
      ],
      "name": "ajouterProduit",
      "outputs": [],
      "stateMutability": "nonpayable",
      "type": "function"
    },
    {
      "inputs": [
        {
          "internalType": "uint32",
          "name": "",
          "type": "uint32"
        }
      ],
      "name": "commandes",
      "outputs": [
        {
          "internalType": "uint32",
          "name": "id",
          "type": "uint32"
        },
        {
          "internalType": "uint32",
          "name": "idProduit",
          "type": "uint32"
        },
        {
          "internalType": "uint32",
          "name": "quantite",
          "type": "uint32"
        },
        {
          "internalType": "uint32",
          "name": "prix",
          "type": "uint32"
        },
        {
          "internalType": "bool",
          "name": "payer",
          "type": "bool"
        },
        {
          "internalType": "enum StructLib.StatutTransport",
          "name": "statutTransport",
          "type": "uint8"
        },
        {
          "internalType": "address",
          "name": "collecteur",
          "type": "address"
        },
        {
          "internalType": "address",
          "name": "exportateur",
          "type": "address"
        }
      ],
      "stateMutability": "view",
      "type": "function"
    },
    {
      "inputs": [],
      "name": "compteurCommandes",
      "outputs": [
        {
          "internalType": "uint32",
          "name": "",
          "type": "uint32"
        }
      ],
      "stateMutability": "view",
      "type": "function"
    },
    {
      "inputs": [],
      "name": "compteurConditions",
      "outputs": [
        {
          "internalType": "uint32",
          "name": "",
          "type": "uint32"
        }
      ],
      "stateMutability": "view",
      "type": "function"
    },
    {
      "inputs": [],
      "name": "compteurPaiements",
      "outputs": [
        {
          "internalType": "uint32",
          "name": "",
          "type": "uint32"
        }
      ],
      "stateMutability": "view",
      "type": "function"
    },
    {
      "inputs": [],
      "name": "compteurProduits",
      "outputs": [
        {
          "internalType": "uint32",
          "name": "",
          "type": "uint32"
        }
      ],
      "stateMutability": "view",
      "type": "function"
    },
    {
      "inputs": [
        {
          "internalType": "uint32",
          "name": "",
          "type": "uint32"
        }
      ],
      "name": "conditions",
      "outputs": [
        {
          "internalType": "uint32",
          "name": "id",
          "type": "uint32"
        },
        {
          "internalType": "string",
          "name": "temperature",
          "type": "string"
        },
        {
          "internalType": "string",
          "name": "humidite",
          "type": "string"
        },
        {
          "internalType": "uint256",
          "name": "timestamp",
          "type": "uint256"
        }
      ],
      "stateMutability": "view",
      "type": "function"
    },
    {
      "inputs": [
        {
          "internalType": "uint32",
          "name": "_idCommande",
          "type": "uint32"
        },
        {
          "internalType": "uint32",
          "name": "_montant",
          "type": "uint32"
        },
        {
          "internalType": "enum StructLib.ModePaiement",
          "name": "_mode",
          "type": "uint8"
        }
      ],
      "name": "effectuerPaiement",
      "outputs": [],
      "stateMutability": "payable",
      "type": "function"
    },
    {
      "inputs": [
        {
          "internalType": "uint32",
          "name": "_idCommande",
          "type": "uint32"
        },
        {
          "internalType": "string",
          "name": "_temperature",
          "type": "string"
        },
        {
          "internalType": "string",
          "name": "_humidite",
          "type": "string"
        }
      ],
      "name": "enregistrerCondition",
      "outputs": [],
      "stateMutability": "nonpayable",
      "type": "function"
    },
    {
      "inputs": [],
      "name": "gestionnaireActeurs",
      "outputs": [
        {
          "internalType": "contract GestionnaireActeurs",
          "name": "",
          "type": "address"
        }
      ],
      "stateMutability": "view",
      "type": "function"
    },
    {
      "inputs": [
        {
          "internalType": "uint32",
          "name": "id",
          "type": "uint32"
        }
      ],
      "name": "getCommande",
      "outputs": [
        {
          "components": [
            {
              "internalType": "uint32",
              "name": "id",
              "type": "uint32"
            },
            {
              "internalType": "uint32",
              "name": "idProduit",
              "type": "uint32"
            },
            {
              "internalType": "uint32",
              "name": "quantite",
              "type": "uint32"
            },
            {
              "internalType": "uint32",
              "name": "prix",
              "type": "uint32"
            },
            {
              "internalType": "bool",
              "name": "payer",
              "type": "bool"
            },
            {
              "internalType": "enum StructLib.StatutTransport",
              "name": "statutTransport",
              "type": "uint8"
            },
            {
              "internalType": "address",
              "name": "collecteur",
              "type": "address"
            },
            {
              "internalType": "address",
              "name": "exportateur",
              "type": "address"
            }
          ],
          "internalType": "struct StructLib.CommandeProduit",
          "name": "",
          "type": "tuple"
        }
      ],
      "stateMutability": "view",
      "type": "function"
    },
    {
      "inputs": [],
      "name": "getCompteurCommande",
      "outputs": [
        {
          "internalType": "uint32",
          "name": "",
          "type": "uint32"
        }
      ],
      "stateMutability": "view",
      "type": "function"
    },
    {
      "inputs": [],
      "name": "getCompteurCondition",
      "outputs": [
        {
          "internalType": "uint32",
          "name": "",
          "type": "uint32"
        }
      ],
      "stateMutability": "view",
      "type": "function"
    },
    {
      "inputs": [],
      "name": "getCompteurPaiement",
      "outputs": [
        {
          "internalType": "uint32",
          "name": "",
          "type": "uint32"
        }
      ],
      "stateMutability": "view",
      "type": "function"
    },
    {
      "inputs": [],
      "name": "getCompteurProduit",
      "outputs": [
        {
          "internalType": "uint32",
          "name": "",
          "type": "uint32"
        }
      ],
      "stateMutability": "view",
      "type": "function"
    },
    {
      "inputs": [
        {
          "internalType": "uint32",
          "name": "id",
          "type": "uint32"
        }
      ],
      "name": "getCondition",
      "outputs": [
        {
          "components": [
            {
              "internalType": "uint32",
              "name": "id",
              "type": "uint32"
            },
            {
              "internalType": "string",
              "name": "temperature",
              "type": "string"
            },
            {
              "internalType": "string",
              "name": "humidite",
              "type": "string"
            },
            {
              "internalType": "uint256",
              "name": "timestamp",
              "type": "uint256"
            }
          ],
          "internalType": "struct StructLib.EnregistrementCondition",
          "name": "",
          "type": "tuple"
        }
      ],
      "stateMutability": "view",
      "type": "function"
    },
    {
      "inputs": [
        {
          "internalType": "uint32",
          "name": "id",
          "type": "uint32"
        }
      ],
      "name": "getPaiement",
      "outputs": [
        {
          "components": [
            {
              "internalType": "uint32",
              "name": "id",
              "type": "uint32"
            },
            {
              "internalType": "address",
              "name": "payeur",
              "type": "address"
            },
            {
              "internalType": "address",
              "name": "vendeur",
              "type": "address"
            },
            {
              "internalType": "uint32",
              "name": "montant",
              "type": "uint32"
            },
            {
              "internalType": "enum StructLib.ModePaiement",
              "name": "mode",
              "type": "uint8"
            },
            {
              "internalType": "uint256",
              "name": "timestamp",
              "type": "uint256"
            }
          ],
          "internalType": "struct StructLib.Paiement",
          "name": "",
          "type": "tuple"
        }
      ],
      "stateMutability": "view",
      "type": "function"
    },
    {
      "inputs": [
        {
          "internalType": "uint32",
          "name": "id",
          "type": "uint32"
        }
      ],
      "name": "getProduit",
      "outputs": [
        {
          "components": [
            {
              "internalType": "uint32",
              "name": "id",
              "type": "uint32"
            },
            {
              "internalType": "uint32",
              "name": "idRecolte",
              "type": "uint32"
            },
            {
              "internalType": "string",
              "name": "nom",
              "type": "string"
            },
            {
              "internalType": "uint32",
              "name": "quantite",
              "type": "uint32"
            },
            {
              "internalType": "uint32",
              "name": "prixUnit",
              "type": "uint32"
            },
            {
              "internalType": "string",
              "name": "dateRecolte",
              "type": "string"
            },
            {
              "internalType": "string",
              "name": "certificatPhytosanitaire",
              "type": "string"
            },
            {
              "internalType": "address",
              "name": "collecteur",
              "type": "address"
            }
          ],
          "internalType": "struct StructLib.Produit",
          "name": "",
          "type": "tuple"
        }
      ],
      "stateMutability": "view",
      "type": "function"
    },
    {
      "inputs": [
        {
          "internalType": "address",
          "name": "_gestionnaireActeurs",
          "type": "address"
        }
      ],
      "name": "initialiser",
      "outputs": [],
      "stateMutability": "nonpayable",
      "type": "function"
    },
    {
      "inputs": [
        {
          "internalType": "uint32",
          "name": "_idCommande",
          "type": "uint32"
        },
        {
          "internalType": "enum StructLib.StatutTransport",
          "name": "_statut",
          "type": "uint8"
        }
      ],
      "name": "mettreAJourStatutTransport",
      "outputs": [],
      "stateMutability": "nonpayable",
      "type": "function"
    },
    {
      "inputs": [
        {
          "internalType": "uint32",
          "name": "",
          "type": "uint32"
        }
      ],
      "name": "paiements",
      "outputs": [
        {
          "internalType": "uint32",
          "name": "id",
          "type": "uint32"
        },
        {
          "internalType": "address",
          "name": "payeur",
          "type": "address"
        },
        {
          "internalType": "address",
          "name": "vendeur",
          "type": "address"
        },
        {
          "internalType": "uint32",
          "name": "montant",
          "type": "uint32"
        },
        {
          "internalType": "enum StructLib.ModePaiement",
          "name": "mode",
          "type": "uint8"
        },
        {
          "internalType": "uint256",
          "name": "timestamp",
          "type": "uint256"
        }
      ],
      "stateMutability": "view",
      "type": "function"
    },
    {
      "inputs": [
        {
          "internalType": "uint32",
          "name": "idProduit",
          "type": "uint32"
        },
        {
          "internalType": "uint32",
          "name": "_quantite",
          "type": "uint32"
        }
      ],
      "name": "passerCommande",
      "outputs": [],
      "stateMutability": "nonpayable",
      "type": "function"
    },
    {
      "inputs": [
        {
          "internalType": "uint32",
          "name": "",
          "type": "uint32"
        }
      ],
      "name": "produits",
      "outputs": [
        {
          "internalType": "uint32",
          "name": "id",
          "type": "uint32"
        },
        {
          "internalType": "uint32",
          "name": "idRecolte",
          "type": "uint32"
        },
        {
          "internalType": "string",
          "name": "nom",
          "type": "string"
        },
        {
          "internalType": "uint32",
          "name": "quantite",
          "type": "uint32"
        },
        {
          "internalType": "uint32",
          "name": "prixUnit",
          "type": "uint32"
        },
        {
          "internalType": "string",
          "name": "dateRecolte",
          "type": "string"
        },
        {
          "internalType": "string",
          "name": "certificatPhytosanitaire",
          "type": "string"
        },
        {
          "internalType": "address",
          "name": "collecteur",
          "type": "address"
        }
      ],
      "stateMutability": "view",
      "type": "function"
    },
    {
      "inputs": [
        {
          "internalType": "address",
          "name": "_addr",
          "type": "address"
        }
      ],
      "name": "setGestionnaireActeurs",
      "outputs": [],
      "stateMutability": "nonpayable",
      "type": "function"
    },
    {
      "inputs": [
        {
          "internalType": "uint32",
          "name": "_idProduit",
          "type": "uint32"
        },
        {
          "internalType": "uint32",
          "name": "_prix",
          "type": "uint32"
        }
      ],
      "name": "setPriceProduit",
      "outputs": [],
      "stateMutability": "nonpayable",
      "type": "function"
    },
    {
      "stateMutability": "payable",
      "type": "receive"
    }
  ],
  "bytecode": "0x608060405234801561001057600080fd5b506141d8806100206000396000f3fe60806040526004361061016a5760003560e01c80636f3fd6c5116100d15780639e942cd41161008a578063e6cab64c11610064578063e6cab64c1461057d578063edd1316314610599578063f6980cc9146105c4578063fdccf4331461060457610171565b80639e942cd4146104fe578063c47744ff14610529578063cd3df1ed1461055257610171565b80636f3fd6c5146103d05780637babcffa146104145780638777654f146104565780638a16156e1461048157806393c2f9b4146104aa5780639aed4540146104d557610171565b80634851ca82116101235780634851ca82146102a7578063488dee20146102eb5780634dafb501146103165780634fbdf4fe1461033f5780635293ea5114610368578063687112e2146103a557610171565b806301197018146101735780630b215e641461019e57806315a3374c146101db578063369064b9146102045780633e7a60491461024157806341fae4db1461026a57610171565b3661017157005b005b34801561017f57600080fd5b5061018861062f565b6040516101959190613b83565b60405180910390f35b3480156101aa57600080fd5b506101c560048036038101906101c0919061305d565b610647565b6040516101d29190613b46565b60405180910390f35b3480156101e757600080fd5b5061020260048036038101906101fd9190613141565b610809565b005b34801561021057600080fd5b5061022b6004803603810190610226919061305d565b6109e9565b6040516102389190613b61565b60405180910390f35b34801561024d57600080fd5b506102686004803603810190610263919061300b565b610cc6565b005b34801561027657600080fd5b50610291600480360381019061028c919061305d565b610d0a565b60405161029e9190613b24565b60405180910390f35b3480156102b357600080fd5b506102ce60048036038101906102c9919061305d565b610e97565b6040516102e2989796959493929190613c97565b60405180910390f35b3480156102f757600080fd5b506103006110d7565b60405161030d9190613b83565b60405180910390f35b34801561032257600080fd5b5061033d60048036038101906103389190613141565b6110ed565b005b34801561034b57600080fd5b506103666004803603810190610361919061300b565b611692565b005b34801561037457600080fd5b5061038f600480360381019061038a919061305d565b611741565b60405161039c9190613b08565b60405180910390f35b3480156103b157600080fd5b506103ba611961565b6040516103c79190613b83565b60405180910390f35b3480156103dc57600080fd5b506103f760048036038101906103f2919061305d565b611977565b60405161040b989796959493929190613d2a565b60405180910390f35b34801561042057600080fd5b5061043b6004803603810190610436919061305d565b611a59565b60405161044d96959493929190613b9e565b60405180910390f35b34801561046257600080fd5b5061046b611b02565b6040516104789190613b83565b60405180910390f35b34801561048d57600080fd5b506104a860048036038101906104a39190613086565b611b1c565b005b3480156104b657600080fd5b506104bf611d1c565b6040516104cc9190613b83565b60405180910390f35b3480156104e157600080fd5b506104fc60048036038101906104f791906131cc565b611d36565b005b34801561050a57600080fd5b50610513611fba565b604051610520919061393c565b60405180910390f35b34801561053557600080fd5b50610550600480360381019061054b91906130c2565b611fe0565b005b34801561055e57600080fd5b50610567612290565b6040516105749190613b83565b60405180910390f35b6105976004803603810190610592919061317d565b6122a6565b005b3480156105a557600080fd5b506105ae612b0f565b6040516105bb9190613b83565b60405180910390f35b3480156105d057600080fd5b506105eb60048036038101906105e6919061305d565b612b23565b6040516105fb9493929190613c44565b60405180910390f35b34801561061057600080fd5b50610619612c73565b6040516106269190613b83565b60405180910390f35b600060048054906101000a900463ffffffff16905090565b61064f612c8d565b600260008363ffffffff1663ffffffff1681526020019081526020016000206040518060c00160405290816000820160009054906101000a900463ffffffff1663ffffffff1663ffffffff1681526020016000820160049054906101000a900473ffffffffffffffffffffffffffffffffffffffff1673ffffffffffffffffffffffffffffffffffffffff1673ffffffffffffffffffffffffffffffffffffffff1681526020016001820160009054906101000a900473ffffffffffffffffffffffffffffffffffffffff1673ffffffffffffffffffffffffffffffffffffffff1673ffffffffffffffffffffffffffffffffffffffff1681526020016001820160149054906101000a900463ffffffff1663ffffffff1663ffffffff1681526020016001820160189054906101000a900460ff1660028111156107bc577f4e487b7100000000000000000000000000000000000000000000000000000000600052602160045260246000fd5b60028111156107f4577f4e487b7100000000000000000000000000000000000000000000000000000000600052602160045260246000fd5b81526020016002820154815250509050919050565b600560009054906101000a900473ffffffffffffffffffffffffffffffffffffffff1673ffffffffffffffffffffffffffffffffffffffff1663d1e47bb33360036040518363ffffffff1660e01b8152600401610867929190613913565b60206040518083038186803b15801561087f57600080fd5b505afa158015610893573d6000803e3d6000fd5b505050506040513d601f19601f820116820180604052508101906108b79190613034565b6108f6576040517f08c379a00000000000000000000000000000000000000000000000000000000081526004016108ed90613a88565b60405180910390fd5b3373ffffffffffffffffffffffffffffffffffffffff166000808463ffffffff1663ffffffff16815260200190815260200160002060050160009054906101000a900473ffffffffffffffffffffffffffffffffffffffff1673ffffffffffffffffffffffffffffffffffffffff16146109a5576040517f08c379a000000000000000000000000000000000000000000000000000000000815260040161099c90613a28565b60405180910390fd5b806000808463ffffffff1663ffffffff16815260200190815260200160002060020160046101000a81548163ffffffff021916908363ffffffff1602179055505050565b6109f1612d33565b6000808363ffffffff1663ffffffff168152602001908152602001600020604051806101000160405290816000820160009054906101000a900463ffffffff1663ffffffff1663ffffffff1681526020016000820160049054906101000a900463ffffffff1663ffffffff1663ffffffff168152602001600182018054610a7790613fd5565b80601f0160208091040260200160405190810160405280929190818152602001828054610aa390613fd5565b8015610af05780601f10610ac557610100808354040283529160200191610af0565b820191906000526020600020905b815481529060010190602001808311610ad357829003601f168201915b505050505081526020016002820160009054906101000a900463ffffffff1663ffffffff1663ffffffff1681526020016002820160049054906101000a900463ffffffff1663ffffffff1663ffffffff168152602001600382018054610b5590613fd5565b80601f0160208091040260200160405190810160405280929190818152602001828054610b8190613fd5565b8015610bce5780601f10610ba357610100808354040283529160200191610bce565b820191906000526020600020905b815481529060010190602001808311610bb157829003601f168201915b50505050508152602001600482018054610be790613fd5565b80601f0160208091040260200160405190810160405280929190818152602001828054610c1390613fd5565b8015610c605780601f10610c3557610100808354040283529160200191610c60565b820191906000526020600020905b815481529060010190602001808311610c4357829003601f168201915b505050505081526020016005820160009054906101000a900473ffffffffffffffffffffffffffffffffffffffff1673ffffffffffffffffffffffffffffffffffffffff1673ffffffffffffffffffffffffffffffffffffffff16815250509050919050565b80600560006101000a81548173ffffffffffffffffffffffffffffffffffffffff021916908373ffffffffffffffffffffffffffffffffffffffff16021790555050565b610d12612da6565b600160008363ffffffff1663ffffffff1681526020019081526020016000206040518060800160405290816000820160009054906101000a900463ffffffff1663ffffffff1663ffffffff168152602001600182018054610d7290613fd5565b80601f0160208091040260200160405190810160405280929190818152602001828054610d9e90613fd5565b8015610deb5780601f10610dc057610100808354040283529160200191610deb565b820191906000526020600020905b815481529060010190602001808311610dce57829003601f168201915b50505050508152602001600282018054610e0490613fd5565b80601f0160208091040260200160405190810160405280929190818152602001828054610e3090613fd5565b8015610e7d5780601f10610e5257610100808354040283529160200191610e7d565b820191906000526020600020905b815481529060010190602001808311610e6057829003601f168201915b505050505081526020016003820154815250509050919050565b60006020528060005260406000206000915090508060000160009054906101000a900463ffffffff16908060000160049054906101000a900463ffffffff1690806001018054610ee690613fd5565b80601f0160208091040260200160405190810160405280929190818152602001828054610f1290613fd5565b8015610f5f5780601f10610f3457610100808354040283529160200191610f5f565b820191906000526020600020905b815481529060010190602001808311610f4257829003601f168201915b5050505050908060020160009054906101000a900463ffffffff16908060020160049054906101000a900463ffffffff1690806003018054610fa090613fd5565b80601f0160208091040260200160405190810160405280929190818152602001828054610fcc90613fd5565b80156110195780601f10610fee57610100808354040283529160200191611019565b820191906000526020600020905b815481529060010190602001808311610ffc57829003601f168201915b50505050509080600401805461102e90613fd5565b80601f016020809104026020016040519081016040528092919081815260200182805461105a90613fd5565b80156110a75780601f1061107c576101008083540402835291602001916110a7565b820191906000526020600020905b81548152906001019060200180831161108a57829003601f168201915b5050505050908060050160009054906101000a900473ffffffffffffffffffffffffffffffffffffffff16905088565b600460009054906101000a900463ffffffff1681565b600560009054906101000a900473ffffffffffffffffffffffffffffffffffffffff1673ffffffffffffffffffffffffffffffffffffffff1663d1e47bb33360066040518363ffffffff1660e01b815260040161114b929190613913565b60206040518083038186803b15801561116357600080fd5b505afa158015611177573d6000803e3d6000fd5b505050506040513d601f19601f8201168201806040525081019061119b9190613034565b6111da576040517f08c379a00000000000000000000000000000000000000000000000000000000081526004016111d190613ac8565b60405180910390fd5b6000808363ffffffff1663ffffffff16815260200190815260200160002060020160009054906101000a900463ffffffff1663ffffffff168163ffffffff16111561125a576040517f08c379a000000000000000000000000000000000000000000000000000000000815260040161125190613a68565b60405180910390fd5b60008060008463ffffffff1663ffffffff16815260200190815260200160002060020160049054906101000a900463ffffffff16826112999190613e36565b90506000826000808663ffffffff1663ffffffff16815260200190815260200160002060020160009054906101000a900463ffffffff166112da9190613e74565b9050806000808663ffffffff1663ffffffff16815260200190815260200160002060020160006101000a81548163ffffffff021916908363ffffffff1602179055506004600081819054906101000a900463ffffffff168092919061133e90614007565b91906101000a81548163ffffffff021916908363ffffffff16021790555050604051806101000160405280600460009054906101000a900463ffffffff1663ffffffff1681526020018563ffffffff1681526020018463ffffffff1681526020018363ffffffff168152602001600015158152602001600060018111156113ee577f4e487b7100000000000000000000000000000000000000000000000000000000600052602160045260246000fd5b81526020016000808763ffffffff1663ffffffff16815260200190815260200160002060050160009054906101000a900473ffffffffffffffffffffffffffffffffffffffff1673ffffffffffffffffffffffffffffffffffffffff1681526020013373ffffffffffffffffffffffffffffffffffffffff1681525060036000600460009054906101000a900463ffffffff1663ffffffff1663ffffffff16815260200190815260200160002060008201518160000160006101000a81548163ffffffff021916908363ffffffff16021790555060208201518160000160046101000a81548163ffffffff021916908363ffffffff16021790555060408201518160000160086101000a81548163ffffffff021916908363ffffffff160217905550606082015181600001600c6101000a81548163ffffffff021916908363ffffffff16021790555060808201518160000160106101000a81548160ff02191690831515021790555060a08201518160000160116101000a81548160ff021916908360018111156115a8577f4e487b7100000000000000000000000000000000000000000000000000000000600052602160045260246000fd5b021790555060c08201518160010160006101000a81548173ffffffffffffffffffffffffffffffffffffffff021916908373ffffffffffffffffffffffffffffffffffffffff16021790555060e08201518160020160006101000a81548173ffffffffffffffffffffffffffffffffffffffff021916908373ffffffffffffffffffffffffffffffffffffffff1602179055509050503373ffffffffffffffffffffffffffffffffffffffff167fa0e84f4dba1ea97bb938c4d3ff9475e68dacbd58f3086c672b0605ad53d76dc1856040516116849190613b83565b60405180910390a250505050565b600460109054906101000a900460ff16156116e2576040517f08c379a00000000000000000000000000000000000000000000000000000000081526004016116d990613aa8565b60405180910390fd5b80600560006101000a81548173ffffffffffffffffffffffffffffffffffffffff021916908373ffffffffffffffffffffffffffffffffffffffff1602179055506001600460106101000a81548160ff02191690831515021790555050565b611749612dd4565b600360008363ffffffff1663ffffffff168152602001908152602001600020604051806101000160405290816000820160009054906101000a900463ffffffff1663ffffffff1663ffffffff1681526020016000820160049054906101000a900463ffffffff1663ffffffff1663ffffffff1681526020016000820160089054906101000a900463ffffffff1663ffffffff1663ffffffff16815260200160008201600c9054906101000a900463ffffffff1663ffffffff1663ffffffff1681526020016000820160109054906101000a900460ff161515151581526020016000820160119054906101000a900460ff166001811115611872577f4e487b7100000000000000000000000000000000000000000000000000000000600052602160045260246000fd5b60018111156118aa577f4e487b7100000000000000000000000000000000000000000000000000000000600052602160045260246000fd5b81526020016001820160009054906101000a900473ffffffffffffffffffffffffffffffffffffffff1673ffffffffffffffffffffffffffffffffffffffff1673ffffffffffffffffffffffffffffffffffffffff1681526020016002820160009054906101000a900473ffffffffffffffffffffffffffffffffffffffff1673ffffffffffffffffffffffffffffffffffffffff1673ffffffffffffffffffffffffffffffffffffffff16815250509050919050565b600460089054906101000a900463ffffffff1681565b60036020528060005260406000206000915090508060000160009054906101000a900463ffffffff16908060000160049054906101000a900463ffffffff16908060000160089054906101000a900463ffffffff169080600001600c9054906101000a900463ffffffff16908060000160109054906101000a900460ff16908060000160119054906101000a900460ff16908060010160009054906101000a900473ffffffffffffffffffffffffffffffffffffffff16908060020160009054906101000a900473ffffffffffffffffffffffffffffffffffffffff16905088565b60026020528060005260406000206000915090508060000160009054906101000a900463ffffffff16908060000160049054906101000a900473ffffffffffffffffffffffffffffffffffffffff16908060010160009054906101000a900473ffffffffffffffffffffffffffffffffffffffff16908060010160149054906101000a900463ffffffff16908060010160189054906101000a900460ff16908060020154905086565b6000600460009054906101000a900463ffffffff16905090565b600560009054906101000a900473ffffffffffffffffffffffffffffffffffffffff1673ffffffffffffffffffffffffffffffffffffffff1663d1e47bb33360056040518363ffffffff1660e01b8152600401611b7a929190613913565b60206040518083038186803b158015611b9257600080fd5b505afa158015611ba6573d6000803e3d6000fd5b505050506040513d601f19601f82011682018060405250810190611bca9190613034565b611c09576040517f08c379a0000000000000000000000000000000000000000000000000000000008152600401611c0090613ae8565b60405180910390fd5b600460009054906101000a900463ffffffff1663ffffffff168263ffffffff161115611c6a576040517f08c379a0000000000000000000000000000000000000000000000000000000008152600401611c61906139e8565b60405180910390fd5b80600360008463ffffffff1663ffffffff16815260200190815260200160002060000160116101000a81548160ff02191690836001811115611cd5577f4e487b7100000000000000000000000000000000000000000000000000000000600052602160045260246000fd5b02179055508163ffffffff167ff84820c84ecbec116ee0604a91f0bec4a5d5926d8d5189a13f57fc30951d4b9182604051611d109190613957565b60405180910390a25050565b6000600460089054906101000a900463ffffffff16905090565b60048081819054906101000a900463ffffffff1680929190611d5790614007565b91906101000a81548163ffffffff021916908363ffffffff1602179055505060405180610100016040528060048054906101000a900463ffffffff1663ffffffff1681526020018863ffffffff1681526020018481526020018763ffffffff1681526020018663ffffffff1681526020018381526020018281526020018573ffffffffffffffffffffffffffffffffffffffff1681525060008060048054906101000a900463ffffffff1663ffffffff1663ffffffff16815260200190815260200160002060008201518160000160006101000a81548163ffffffff021916908363ffffffff16021790555060208201518160000160046101000a81548163ffffffff021916908363ffffffff1602179055506040820151816001019080519060200190611e86929190612e97565b5060608201518160020160006101000a81548163ffffffff021916908363ffffffff16021790555060808201518160020160046101000a81548163ffffffff021916908363ffffffff16021790555060a0820151816003019080519060200190611ef1929190612e97565b5060c0820151816004019080519060200190611f0e929190612e97565b5060e08201518160050160006101000a81548173ffffffffffffffffffffffffffffffffffffffff021916908373ffffffffffffffffffffffffffffffffffffffff16021790555090505060048054906101000a900463ffffffff1663ffffffff167fae4e6a533354fae499eff08fce0d52e10ef7c27a1743662362463f06382e8e1d8488888b8787604051611fa996959493929190613972565b60405180910390a250505050505050565b600560009054906101000a900473ffffffffffffffffffffffffffffffffffffffff1681565b600560009054906101000a900473ffffffffffffffffffffffffffffffffffffffff1673ffffffffffffffffffffffffffffffffffffffff1663d1e47bb33360056040518363ffffffff1660e01b815260040161203e929190613913565b60206040518083038186803b15801561205657600080fd5b505afa15801561206a573d6000803e3d6000fd5b505050506040513d601f19601f8201168201806040525081019061208e9190613034565b6120cd576040517f08c379a00000000000000000000000000000000000000000000000000000000081526004016120c490613ae8565b60405180910390fd5b600460009054906101000a900463ffffffff1663ffffffff168363ffffffff16111561212e576040517f08c379a0000000000000000000000000000000000000000000000000000000008152600401612125906139e8565b60405180910390fd5b6004600881819054906101000a900463ffffffff168092919061215090614007565b91906101000a81548163ffffffff021916908363ffffffff160217905550506040518060800160405280600460089054906101000a900463ffffffff1663ffffffff16815260200183815260200182815260200142815250600160008563ffffffff1663ffffffff16815260200190815260200160002060008201518160000160006101000a81548163ffffffff021916908363ffffffff160217905550602082015181600101908051906020019061220a929190612e97565b506040820151816002019080519060200190612227929190612e97565b50606082015181600301559050508263ffffffff167fa2effbfc7f8ff62ea4b874b57c26eb8951f95a078bf527463389d9b2d4ce175d600460089054906101000a900463ffffffff168484426040516122839493929190613c44565b60405180910390a2505050565b6004600c9054906101000a900463ffffffff1681565b600560009054906101000a900473ffffffffffffffffffffffffffffffffffffffff1673ffffffffffffffffffffffffffffffffffffffff1663d1e47bb33360066040518363ffffffff1660e01b8152600401612304929190613913565b60206040518083038186803b15801561231c57600080fd5b505afa158015612330573d6000803e3d6000fd5b505050506040513d601f19601f820116820180604052508101906123549190613034565b612393576040517f08c379a000000000000000000000000000000000000000000000000000000000815260040161238a90613ac8565b60405180910390fd5b6000806000600360008763ffffffff1663ffffffff16815260200190815260200160002060000160049054906101000a900463ffffffff1663ffffffff1663ffffffff168152602001908152602001600020604051806101000160405290816000820160009054906101000a900463ffffffff1663ffffffff1663ffffffff1681526020016000820160049054906101000a900463ffffffff1663ffffffff1663ffffffff16815260200160018201805461244d90613fd5565b80601f016020809104026020016040519081016040528092919081815260200182805461247990613fd5565b80156124c65780601f1061249b576101008083540402835291602001916124c6565b820191906000526020600020905b8154815290600101906020018083116124a957829003601f168201915b505050505081526020016002820160009054906101000a900463ffffffff1663ffffffff1663ffffffff1681526020016002820160049054906101000a900463ffffffff1663ffffffff1663ffffffff16815260200160038201805461252b90613fd5565b80601f016020809104026020016040519081016040528092919081815260200182805461255790613fd5565b80156125a45780601f10612579576101008083540402835291602001916125a4565b820191906000526020600020905b81548152906001019060200180831161258757829003601f168201915b505050505081526020016004820180546125bd90613fd5565b80601f01602080910402602001604051908101604052809291908181526020018280546125e990613fd5565b80156126365780601f1061260b57610100808354040283529160200191612636565b820191906000526020600020905b81548152906001019060200180831161261957829003601f168201915b505050505081526020016005820160009054906101000a900473ffffffffffffffffffffffffffffffffffffffff1673ffffffffffffffffffffffffffffffffffffffff1673ffffffffffffffffffffffffffffffffffffffff16815250509050600360008563ffffffff1663ffffffff168152602001908152602001600020600001600c9054906101000a900463ffffffff1663ffffffff163414612711576040517f08c379a000000000000000000000000000000000000000000000000000000000815260040161270890613a08565b60405180910390fd5b600360008563ffffffff1663ffffffff16815260200190815260200160002060000160109054906101000a900460ff1615612781576040517f08c379a000000000000000000000000000000000000000000000000000000000815260040161277890613a48565b60405180910390fd5b6001600360008663ffffffff1663ffffffff16815260200190815260200160002060000160106101000a81548160ff0219169083151502179055506004600c81819054906101000a900463ffffffff16809291906127de90614007565b91906101000a81548163ffffffff021916908363ffffffff160217905550506040518060c001604052806004600c9054906101000a900463ffffffff1663ffffffff1681526020013373ffffffffffffffffffffffffffffffffffffffff168152602001600360008763ffffffff1663ffffffff16815260200190815260200160002060010160009054906101000a900473ffffffffffffffffffffffffffffffffffffffff1673ffffffffffffffffffffffffffffffffffffffff1681526020018463ffffffff1681526020018360028111156128e5577f4e487b7100000000000000000000000000000000000000000000000000000000600052602160045260246000fd5b815260200142815250600260006004600c9054906101000a900463ffffffff1663ffffffff1663ffffffff16815260200190815260200160002060008201518160000160006101000a81548163ffffffff021916908363ffffffff16021790555060208201518160000160046101000a81548173ffffffffffffffffffffffffffffffffffffffff021916908373ffffffffffffffffffffffffffffffffffffffff16021790555060408201518160010160006101000a81548173ffffffffffffffffffffffffffffffffffffffff021916908373ffffffffffffffffffffffffffffffffffffffff16021790555060608201518160010160146101000a81548163ffffffff021916908363ffffffff16021790555060808201518160010160186101000a81548160ff02191690836002811115612a4c577f4e487b7100000000000000000000000000000000000000000000000000000000600052602160045260246000fd5b021790555060a08201518160020155905050806000015163ffffffff167fd9f037670aada9b07156110dd936887c158e5cd6f7932663cc64ef336e44cf9f6004600c9054906101000a900463ffffffff16338686604051612ab09493929190613bff565b60405180910390a260008160e0015190508073ffffffffffffffffffffffffffffffffffffffff166108fc349081150290604051600060405180830381858888f19350505050158015612b07573d6000803e3d6000fd5b505050505050565b60048054906101000a900463ffffffff1681565b60016020528060005260406000206000915090508060000160009054906101000a900463ffffffff1690806001018054612b5c90613fd5565b80601f0160208091040260200160405190810160405280929190818152602001828054612b8890613fd5565b8015612bd55780601f10612baa57610100808354040283529160200191612bd5565b820191906000526020600020905b815481529060010190602001808311612bb857829003601f168201915b505050505090806002018054612bea90613fd5565b80601f0160208091040260200160405190810160405280929190818152602001828054612c1690613fd5565b8015612c635780601f10612c3857610100808354040283529160200191612c63565b820191906000526020600020905b815481529060010190602001808311612c4657829003601f168201915b5050505050908060030154905084565b60006004600c9054906101000a900463ffffffff16905090565b6040518060c00160405280600063ffffffff168152602001600073ffffffffffffffffffffffffffffffffffffffff168152602001600073ffffffffffffffffffffffffffffffffffffffff168152602001600063ffffffff16815260200160006002811115612d26577f4e487b7100000000000000000000000000000000000000000000000000000000600052602160045260246000fd5b8152602001600081525090565b604051806101000160405280600063ffffffff168152602001600063ffffffff16815260200160608152602001600063ffffffff168152602001600063ffffffff1681526020016060815260200160608152602001600073ffffffffffffffffffffffffffffffffffffffff1681525090565b6040518060800160405280600063ffffffff1681526020016060815260200160608152602001600081525090565b604051806101000160405280600063ffffffff168152602001600063ffffffff168152602001600063ffffffff168152602001600063ffffffff16815260200160001515815260200160006001811115612e57577f4e487b7100000000000000000000000000000000000000000000000000000000600052602160045260246000fd5b8152602001600073ffffffffffffffffffffffffffffffffffffffff168152602001600073ffffffffffffffffffffffffffffffffffffffff1681525090565b828054612ea390613fd5565b90600052602060002090601f016020900481019282612ec55760008555612f0c565b82601f10612ede57805160ff1916838001178555612f0c565b82800160010185558215612f0c579182015b82811115612f0b578251825591602001919060010190612ef0565b5b509050612f199190612f1d565b5090565b5b80821115612f36576000816000905550600101612f1e565b5090565b6000612f4d612f4884613dd9565b613da8565b905082815260208101848484011115612f6557600080fd5b612f70848285613f93565b509392505050565b600081359050612f878161413d565b92915050565b600081519050612f9c81614154565b92915050565b600081359050612fb18161416b565b92915050565b600081359050612fc68161417b565b92915050565b600082601f830112612fdd57600080fd5b8135612fed848260208601612f3a565b91505092915050565b6000813590506130058161418b565b92915050565b60006020828403121561301d57600080fd5b600061302b84828501612f78565b91505092915050565b60006020828403121561304657600080fd5b600061305484828501612f8d565b91505092915050565b60006020828403121561306f57600080fd5b600061307d84828501612ff6565b91505092915050565b6000806040838503121561309957600080fd5b60006130a785828601612ff6565b92505060206130b885828601612fb7565b9150509250929050565b6000806000606084860312156130d757600080fd5b60006130e586828701612ff6565b935050602084013567ffffffffffffffff81111561310257600080fd5b61310e86828701612fcc565b925050604084013567ffffffffffffffff81111561312b57600080fd5b61313786828701612fcc565b9150509250925092565b6000806040838503121561315457600080fd5b600061316285828601612ff6565b925050602061317385828601612ff6565b9150509250929050565b60008060006060848603121561319257600080fd5b60006131a086828701612ff6565b93505060206131b186828701612ff6565b92505060406131c286828701612fa2565b9150509250925092565b600080600080600080600060e0888a0312156131e757600080fd5b60006131f58a828b01612ff6565b97505060206132068a828b01612ff6565b96505060406132178a828b01612ff6565b95505060606132288a828b01612f78565b945050608088013567ffffffffffffffff81111561324557600080fd5b6132518a828b01612fcc565b93505060a088013567ffffffffffffffff81111561326e57600080fd5b61327a8a828b01612fcc565b92505060c088013567ffffffffffffffff81111561329757600080fd5b6132a38a828b01612fcc565b91505092959891949750929550565b6132bb81613ea8565b82525050565b6132ca81613ea8565b82525050565b6132d981613eba565b82525050565b6132e881613eba565b82525050565b6132f781613f39565b82525050565b61330681613f5d565b82525050565b61331581613f5d565b82525050565b61332481613f6f565b82525050565b61333381613f81565b82525050565b61334281613f81565b82525050565b600061335382613e09565b61335d8185613e14565b935061336d818560208601613fa2565b613376816140f0565b840191505092915050565b600061338c82613e09565b6133968185613e25565b93506133a6818560208601613fa2565b6133af816140f0565b840191505092915050565b60006133c7601983613e25565b91507f4c6120636f6d6d616e6465206e27657869737465207061732e000000000000006000830152602082019050919050565b6000613407601183613e25565b91507f4d6f6e74616e7420696e636f72726563740000000000000000000000000000006000830152602082019050919050565b6000613447602a83613e25565b91507f566f7573206e2765746573207061732070726f7072696574616972652064652060008301527f63652070726f64756974000000000000000000000000000000000000000000006020830152604082019050919050565b60006134ad601383613e25565b91507f436f6d6d616e64652064656a61207061796572000000000000000000000000006000830152602082019050919050565b60006134ed601183613e25565b91507f5175616e7469746520696e76616c6964650000000000000000000000000000006000830152602082019050919050565b600061352d602283613e25565b91507f4e6f6e206175746f726973653a207365756c656d656e7420436f6c6c6563746560008301527f75720000000000000000000000000000000000000000000000000000000000006020830152604082019050919050565b6000613593601a83613e25565b91507f436f6e747261742064656a6120696e697469616c6973657220210000000000006000830152602082019050919050565b60006135d3602383613e25565b91507f4e6f6e206175746f726973653a207365756c656d656e74204578706f7274617460008301527f65757200000000000000000000000000000000000000000000000000000000006020830152604082019050919050565b6000613639602483613e25565b91507f4e6f6e206175746f726973653a207365756c656d656e74205472616e73706f7260008301527f74657572000000000000000000000000000000000000000000000000000000006020830152604082019050919050565b610100820160008201516136a960008501826138f5565b5060208201516136bc60208501826138f5565b5060408201516136cf60408501826138f5565b5060608201516136e260608501826138f5565b5060808201516136f560808501826132d0565b5060a082015161370860a085018261332a565b5060c082015161371b60c08501826132b2565b5060e082015161372e60e08501826132b2565b50505050565b600060808301600083015161374c60008601826138f5565b50602083015184820360208601526137648282613348565b9150506040830151848203604086015261377e8282613348565b915050606083015161379360608601826138d7565b508091505092915050565b60c0820160008201516137b460008501826138f5565b5060208201516137c760208501826132b2565b5060408201516137da60408501826132b2565b5060608201516137ed60608501826138f5565b50608082015161380060808501826132fd565b5060a082015161381360a08501826138d7565b50505050565b60006101008301600083015161383260008601826138f5565b50602083015161384560208601826138f5565b506040830151848203604086015261385d8282613348565b915050606083015161387260608601826138f5565b50608083015161388560808601826138f5565b5060a083015184820360a086015261389d8282613348565b91505060c083015184820360c08601526138b78282613348565b91505060e08301516138cc60e08601826132b2565b508091505092915050565b6138e081613f1f565b82525050565b6138ef81613f1f565b82525050565b6138fe81613f29565b82525050565b61390d81613f29565b82525050565b600060408201905061392860008301856132c1565b613935602083018461331b565b9392505050565b600060208201905061395160008301846132ee565b92915050565b600060208201905061396c6000830184613339565b92915050565b600060c082019050818103600083015261398c8189613381565b905061399b6020830188613904565b6139a86040830187613904565b6139b56060830186613904565b81810360808301526139c78185613381565b905081810360a08301526139db8184613381565b9050979650505050505050565b60006020820190508181036000830152613a01816133ba565b9050919050565b60006020820190508181036000830152613a21816133fa565b9050919050565b60006020820190508181036000830152613a418161343a565b9050919050565b60006020820190508181036000830152613a61816134a0565b9050919050565b60006020820190508181036000830152613a81816134e0565b9050919050565b60006020820190508181036000830152613aa181613520565b9050919050565b60006020820190508181036000830152613ac181613586565b9050919050565b60006020820190508181036000830152613ae1816135c6565b9050919050565b60006020820190508181036000830152613b018161362c565b9050919050565b600061010082019050613b1e6000830184613692565b92915050565b60006020820190508181036000830152613b3e8184613734565b905092915050565b600060c082019050613b5b600083018461379e565b92915050565b60006020820190508181036000830152613b7b8184613819565b905092915050565b6000602082019050613b986000830184613904565b92915050565b600060c082019050613bb36000830189613904565b613bc060208301886132c1565b613bcd60408301876132c1565b613bda6060830186613904565b613be7608083018561330c565b613bf460a08301846138e6565b979650505050505050565b6000608082019050613c146000830187613904565b613c2160208301866132c1565b613c2e6040830185613904565b613c3b606083018461330c565b95945050505050565b6000608082019050613c596000830187613904565b8181036020830152613c6b8186613381565b90508181036040830152613c7f8185613381565b9050613c8e60608301846138e6565b95945050505050565b600061010082019050613cad600083018b613904565b613cba602083018a613904565b8181036040830152613ccc8189613381565b9050613cdb6060830188613904565b613ce86080830187613904565b81810360a0830152613cfa8186613381565b905081810360c0830152613d0e8185613381565b9050613d1d60e08301846132c1565b9998505050505050505050565b600061010082019050613d40600083018b613904565b613d4d602083018a613904565b613d5a6040830189613904565b613d676060830188613904565b613d7460808301876132df565b613d8160a0830186613339565b613d8e60c08301856132c1565b613d9b60e08301846132c1565b9998505050505050505050565b6000604051905081810181811067ffffffffffffffff82111715613dcf57613dce6140c1565b5b8060405250919050565b600067ffffffffffffffff821115613df457613df36140c1565b5b601f19601f8301169050602081019050919050565b600081519050919050565b600082825260208201905092915050565b600082825260208201905092915050565b6000613e4182613f29565b9150613e4c83613f29565b92508163ffffffff0483118215151615613e6957613e68614034565b5b828202905092915050565b6000613e7f82613f29565b9150613e8a83613f29565b925082821015613e9d57613e9c614034565b5b828203905092915050565b6000613eb382613eff565b9050919050565b60008115159050919050565b6000819050613ed482614101565b919050565b6000819050613ee782614115565b919050565b6000819050613efa82614129565b919050565b600073ffffffffffffffffffffffffffffffffffffffff82169050919050565b6000819050919050565b600063ffffffff82169050919050565b6000613f4482613f4b565b9050919050565b6000613f5682613eff565b9050919050565b6000613f6882613ec6565b9050919050565b6000613f7a82613ed9565b9050919050565b6000613f8c82613eec565b9050919050565b82818337600083830152505050565b60005b83811015613fc0578082015181840152602081019050613fa5565b83811115613fcf576000848401525b50505050565b60006002820490506001821680613fed57607f821691505b6020821081141561400157614000614092565b5b50919050565b600061401282613f29565b915063ffffffff82141561402957614028614034565b5b600182019050919050565b7f4e487b7100000000000000000000000000000000000000000000000000000000600052601160045260246000fd5b7f4e487b7100000000000000000000000000000000000000000000000000000000600052602160045260246000fd5b7f4e487b7100000000000000000000000000000000000000000000000000000000600052602260045260246000fd5b7f4e487b7100000000000000000000000000000000000000000000000000000000600052604160045260246000fd5b6000601f19601f8301169050919050565b6003811061411257614111614063565b5b50565b6008811061412657614125614063565b5b50565b6002811061413a57614139614063565b5b50565b61414681613ea8565b811461415157600080fd5b50565b61415d81613eba565b811461416857600080fd5b50565b6003811061417857600080fd5b50565b6002811061418857600080fd5b50565b61419481613f29565b811461419f57600080fd5b5056fea264697066735822122084e2e20e832b95ffaf24a7828035384f641a86b3e7610ae6cfd3459875125ffb64736f6c63430008000033",
  "linkReferences": {},
  "deployedLinkReferences": {}
}