{
  "_format": "hh-sol-artifact-1",
  "contractName": "CollecteurProducteur",
  "sourceName": "contracts/CollecteurProducteur.sol",
  "abi": [
    {
      "inputs": [
        {
          "internalType": "uint32",
          "name": "_idParcelle",
          "type": "uint32"
        },
        {
          "internalType": "uint32",
          "name": "_quantite",
          "type": "uint32"
        },
        {
          "internalType": "uint32",
          "name": "_prix",
          "type": "uint32"
        },
        {
          "internalType": "string",
          "name": "_dateRecolte",
          "type": "string"
        },
        {
          "internalType": "string",
          "name": "_nomProduit",
          "type": "string"
        }
      ],
      "name": "ajoutRecolte",
      "outputs": [],
      "stateMutability": "nonpayable",
      "type": "function"
    },
    {
      "inputs": [
        {
          "internalType": "uint32",
          "name": "_idRecolte",
          "type": "uint32"
        },
        {
          "internalType": "string",
          "name": "_certificat",
          "type": "string"
        }
      ],
      "name": "certifieRecolte",
      "outputs": [],
      "stateMutability": "nonpayable",
      "type": "function"
    },
    {
      "inputs": [
        {
          "internalType": "uint32",
          "name": "",
          "type": "uint32"
        }
      ],
      "name": "commandes",
      "outputs": [
        {
          "internalType": "uint32",
          "name": "id",
          "type": "uint32"
        },
        {
          "internalType": "uint32",
          "name": "idRecolte",
          "type": "uint32"
        },
        {
          "internalType": "uint32",
          "name": "quantite",
          "type": "uint32"
        },
        {
          "internalType": "uint32",
          "name": "prix",
          "type": "uint32"
        },
        {
          "internalType": "bool",
          "name": "payer",
          "type": "bool"
        },
        {
          "internalType": "enum StructLib.StatutTransport",
          "name": "statutTransport",
          "type": "uint8"
        },
        {
          "internalType": "address",
          "name": "producteur",
          "type": "address"
        },
        {
          "internalType": "address",
          "name": "collecteur",
          "type": "address"
        }
      ],
      "stateMutability": "view",
      "type": "function"
    },
    {
      "inputs": [],
      "name": "compteurCommandes",
      "outputs": [
        {
          "internalType": "uint32",
          "name": "",
          "type": "uint32"
        }
      ],
      "stateMutability": "view",
      "type": "function"
    },
    {
      "inputs": [],
      "name": "compteurPaiements",
      "outputs": [
        {
          "internalType": "uint32",
          "name": "",
          "type": "uint32"
        }
      ],
      "stateMutability": "view",
      "type": "function"
    },
    {
      "inputs": [],
      "name": "compteurRecoltes",
      "outputs": [
        {
          "internalType": "uint32",
          "name": "",
          "type": "uint32"
        }
      ],
      "stateMutability": "view",
      "type": "function"
    },
    {
      "inputs": [
        {
          "internalType": "uint32",
          "name": "_idCommande",
          "type": "uint32"
        },
        {
          "internalType": "uint32",
          "name": "_montant",
          "type": "uint32"
        },
        {
          "internalType": "enum StructLib.ModePaiement",
          "name": "_mode",
          "type": "uint8"
        }
      ],
      "name": "effectuerPaiementVersProducteur",
      "outputs": [],
      "stateMutability": "payable",
      "type": "function"
    },
    {
      "inputs": [],
      "name": "gestionnaireActeurs",
      "outputs": [
        {
          "internalType": "contract GestionnaireActeurs",
          "name": "",
          "type": "address"
        }
      ],
      "stateMutability": "view",
      "type": "function"
    },
    {
      "inputs": [
        {
          "internalType": "uint32",
          "name": "_id",
          "type": "uint32"
        }
      ],
      "name": "getCommande",
      "outputs": [
        {
          "components": [
            {
              "internalType": "uint32",
              "name": "id",
              "type": "uint32"
            },
            {
              "internalType": "uint32",
              "name": "idRecolte",
              "type": "uint32"
            },
            {
              "internalType": "uint32",
              "name": "quantite",
              "type": "uint32"
            },
            {
              "internalType": "uint32",
              "name": "prix",
              "type": "uint32"
            },
            {
              "internalType": "bool",
              "name": "payer",
              "type": "bool"
            },
            {
              "internalType": "enum StructLib.StatutTransport",
              "name": "statutTransport",
              "type": "uint8"
            },
            {
              "internalType": "address",
              "name": "producteur",
              "type": "address"
            },
            {
              "internalType": "address",
              "name": "collecteur",
              "type": "address"
            }
          ],
          "internalType": "struct StructLib.CommandeRecolte",
          "name": "",
          "type": "tuple"
        }
      ],
      "stateMutability": "view",
      "type": "function"
    },
    {
      "inputs": [],
      "name": "getCompteurCommandes",
      "outputs": [
        {
          "internalType": "uint32",
          "name": "",
          "type": "uint32"
        }
      ],
      "stateMutability": "view",
      "type": "function"
    },
    {
      "inputs": [],
      "name": "getCompteurPaiments",
      "outputs": [
        {
          "internalType": "uint32",
          "name": "",
          "type": "uint32"
        }
      ],
      "stateMutability": "view",
      "type": "function"
    },
    {
      "inputs": [],
      "name": "getCompteurRecoltes",
      "outputs": [
        {
          "internalType": "uint32",
          "name": "",
          "type": "uint32"
        }
      ],
      "stateMutability": "view",
      "type": "function"
    },
    {
      "inputs": [
        {
          "internalType": "uint32",
          "name": "_id",
          "type": "uint32"
        }
      ],
      "name": "getPaiement",
      "outputs": [
        {
          "components": [
            {
              "internalType": "uint32",
              "name": "id",
              "type": "uint32"
            },
            {
              "internalType": "address",
              "name": "payeur",
              "type": "address"
            },
            {
              "internalType": "address",
              "name": "vendeur",
              "type": "address"
            },
            {
              "internalType": "uint32",
              "name": "montant",
              "type": "uint32"
            },
            {
              "internalType": "enum StructLib.ModePaiement",
              "name": "mode",
              "type": "uint8"
            },
            {
              "internalType": "uint256",
              "name": "timestamp",
              "type": "uint256"
            }
          ],
          "internalType": "struct StructLib.Paiement",
          "name": "",
          "type": "tuple"
        }
      ],
      "stateMutability": "view",
      "type": "function"
    },
    {
      "inputs": [
        {
          "internalType": "uint32",
          "name": "_idRecolte",
          "type": "uint32"
        }
      ],
      "name": "getRecolte",
      "outputs": [
        {
          "components": [
            {
              "internalType": "uint32",
              "name": "id",
              "type": "uint32"
            },
            {
              "internalType": "uint32",
              "name": "idParcelle",
              "type": "uint32"
            },
            {
              "internalType": "uint32",
              "name": "quantite",
              "type": "uint32"
            },
            {
              "internalType": "uint32",
              "name": "prixUnit",
              "type": "uint32"
            },
            {
              "internalType": "bool",
              "name": "certifie",
              "type": "bool"
            },
            {
              "internalType": "string",
              "name": "certificatPhytosanitaire",
              "type": "string"
            },
            {
              "internalType": "string",
              "name": "dateRecolte",
              "type": "string"
            },
            {
              "internalType": "address",
              "name": "producteur",
              "type": "address"
            },
            {
              "internalType": "string",
              "name": "nomProduit",
              "type": "string"
            }
          ],
          "internalType": "struct StructLib.Recolte",
          "name": "",
          "type": "tuple"
        }
      ],
      "stateMutability": "view",
      "type": "function"
    },
    {
      "inputs": [
        {
          "internalType": "address",
          "name": "_addrCE",
          "type": "address"
        },
        {
          "internalType": "address",
          "name": "_gestionnaireActeurs",
          "type": "address"
        },
        {
          "internalType": "address",
          "name": "_producteurEnPhaseCulture",
          "type": "address"
        }
      ],
      "name": "initialiser",
      "outputs": [],
      "stateMutability": "nonpayable",
      "type": "function"
    },
    {
      "inputs": [
        {
          "internalType": "uint32",
          "name": "",
          "type": "uint32"
        }
      ],
      "name": "paiements",
      "outputs": [
        {
          "internalType": "uint32",
          "name": "id",
          "type": "uint32"
        },
        {
          "internalType": "address",
          "name": "payeur",
          "type": "address"
        },
        {
          "internalType": "address",
          "name": "vendeur",
          "type": "address"
        },
        {
          "internalType": "uint32",
          "name": "montant",
          "type": "uint32"
        },
        {
          "internalType": "enum StructLib.ModePaiement",
          "name": "mode",
          "type": "uint8"
        },
        {
          "internalType": "uint256",
          "name": "timestamp",
          "type": "uint256"
        }
      ],
      "stateMutability": "view",
      "type": "function"
    },
    {
      "inputs": [
        {
          "internalType": "uint32",
          "name": "_idRecolte",
          "type": "uint32"
        },
        {
          "internalType": "uint32",
          "name": "_quantite",
          "type": "uint32"
        }
      ],
      "name": "passerCommandeVersProducteur",
      "outputs": [],
      "stateMutability": "nonpayable",
      "type": "function"
    },
    {
      "inputs": [],
      "name": "producteurEnPhaseCulture",
      "outputs": [
        {
          "internalType": "contract ProducteurEnPhaseCulture",
          "name": "",
          "type": "address"
        }
      ],
      "stateMutability": "view",
      "type": "function"
    },
    {
      "inputs": [
        {
          "internalType": "uint32",
          "name": "",
          "type": "uint32"
        }
      ],
      "name": "recoltes",
      "outputs": [
        {
          "internalType": "uint32",
          "name": "id",
          "type": "uint32"
        },
        {
          "internalType": "uint32",
          "name": "idParcelle",
          "type": "uint32"
        },
        {
          "internalType": "uint32",
          "name": "quantite",
          "type": "uint32"
        },
        {
          "internalType": "uint32",
          "name": "prixUnit",
          "type": "uint32"
        },
        {
          "internalType": "bool",
          "name": "certifie",
          "type": "bool"
        },
        {
          "internalType": "string",
          "name": "certificatPhytosanitaire",
          "type": "string"
        },
        {
          "internalType": "string",
          "name": "dateRecolte",
          "type": "string"
        },
        {
          "internalType": "address",
          "name": "producteur",
          "type": "address"
        },
        {
          "internalType": "string",
          "name": "nomProduit",
          "type": "string"
        }
      ],
      "stateMutability": "view",
      "type": "function"
    },
    {
      "inputs": [
        {
          "internalType": "address",
          "name": "_addr",
          "type": "address"
        }
      ],
      "name": "setGestionnaireActeurs",
      "outputs": [],
      "stateMutability": "nonpayable",
      "type": "function"
    },
    {
      "inputs": [
        {
          "internalType": "address",
          "name": "_addr",
          "type": "address"
        }
      ],
      "name": "setModuleCE",
      "outputs": [],
      "stateMutability": "nonpayable",
      "type": "function"
    },
    {
      "inputs": [
        {
          "internalType": "address",
          "name": "_addr",
          "type": "address"
        }
      ],
      "name": "setProducteurEnPhaseCulture",
      "outputs": [],
      "stateMutability": "nonpayable",
      "type": "function"
    }
  ],
  "bytecode": "0x608060405234801561001057600080fd5b50614a3f806100206000396000f3fe6080604052600436106101355760003560e01c80638428d543116100ab578063cb3948761161006f578063cb3948761461043f578063cd3df1ed1461046a578063cd60462b14610495578063d84e632d146104c0578063f1b7e5a8146104e9578063fd6431011461051257610135565b80638428d5431461035f5780639d75741d1461037b5780639e942cd4146103a4578063b38d3aea146103cf578063b5fe20761461041457610135565b80634383fca1116100fd5780634383fca11461021d578063488dee201461024657806350346b0b146102715780635293ea511461029c5780636f3fd6c5146102d95780637babcffa1461031d57610135565b80630b215e641461013a57806319f1c29014610177578063257687e6146101a25780632d5b3658146101cb5780633e7a6049146101f4575b600080fd5b34801561014657600080fd5b50610161600480360381019061015c9190613793565b61054f565b60405161016e91906142c7565b60405180910390f35b34801561018357600080fd5b5061018c610711565b6040516101999190614304565b60405180910390f35b3480156101ae57600080fd5b506101c960048036038101906101c491906136b1565b61072b565b005b3480156101d757600080fd5b506101f260048036038101906101ed9190613839565b61076f565b005b34801561020057600080fd5b5061021b600480360381019061021691906136b1565b610f9e565b005b34801561022957600080fd5b50610244600480360381019061023f91906138c4565b610fe2565b005b34801561025257600080fd5b5061025b61154c565b6040516102689190614304565b60405180910390f35b34801561027d57600080fd5b50610286611562565b60405161029391906140f0565b60405180910390f35b3480156102a857600080fd5b506102c360048036038101906102be9190613793565b611588565b6040516102d091906142ab565b60405180910390f35b3480156102e557600080fd5b5061030060048036038101906102fb9190613793565b6117a8565b604051610314989796959493929190614404565b60405180910390f35b34801561032957600080fd5b50610344600480360381019061033f9190613793565b61188a565b6040516103569695949392919061431f565b60405180910390f35b61037960048036038101906103749190613875565b611933565b005b34801561038757600080fd5b506103a2600480360381019061039d91906137e5565b612364565b005b3480156103b057600080fd5b506103b961256b565b6040516103c691906140d5565b60405180910390f35b3480156103db57600080fd5b506103f660048036038101906103f19190613793565b612591565b60405161040b99989796959493929190614482565b60405180910390f35b34801561042057600080fd5b506104296127e4565b6040516104369190614304565b60405180910390f35b34801561044b57600080fd5b506104546127fe565b6040516104619190614304565b60405180910390f35b34801561047657600080fd5b5061047f612814565b60405161048c9190614304565b60405180910390f35b3480156104a157600080fd5b506104aa61282a565b6040516104b79190614304565b60405180910390f35b3480156104cc57600080fd5b506104e760048036038101906104e291906136b1565b612844565b005b3480156104f557600080fd5b50610510600480360381019061050b91906136da565b612888565b005b34801561051e57600080fd5b5061053960048036038101906105349190613793565b6129bb565b60405161054691906142e2565b60405180910390f35b610557612cb3565b600260008363ffffffff1663ffffffff1681526020019081526020016000206040518060c00160405290816000820160009054906101000a900463ffffffff1663ffffffff1663ffffffff1681526020016000820160049054906101000a900473ffffffffffffffffffffffffffffffffffffffff1673ffffffffffffffffffffffffffffffffffffffff1673ffffffffffffffffffffffffffffffffffffffff1681526020016001820160009054906101000a900473ffffffffffffffffffffffffffffffffffffffff1673ffffffffffffffffffffffffffffffffffffffff1673ffffffffffffffffffffffffffffffffffffffff1681526020016001820160149054906101000a900463ffffffff1663ffffffff1663ffffffff1681526020016001820160189054906101000a900460ff1660028111156106c4577f4e487b7100000000000000000000000000000000000000000000000000000000600052602160045260246000fd5b60028111156106fc577f4e487b7100000000000000000000000000000000000000000000000000000000600052602160045260246000fd5b81526020016002820154815250509050919050565b6000600360009054906101000a900463ffffffff16905090565b80600760006101000a81548173ffffffffffffffffffffffffffffffffffffffff021916908373ffffffffffffffffffffffffffffffffffffffff16021790555050565b600660009054906101000a900473ffffffffffffffffffffffffffffffffffffffff1673ffffffffffffffffffffffffffffffffffffffff1663d1e47bb33360036040518363ffffffff1660e01b81526004016107cd9291906140ac565b60206040518083038186803b1580156107e557600080fd5b505afa1580156107f9573d6000803e3d6000fd5b505050506040513d601f19601f8201168201806040525081019061081d9190613729565b61085c576040517f08c379a00000000000000000000000000000000000000000000000000000000081526004016108539061426b565b60405180910390fd5b60008060008463ffffffff1663ffffffff168152602001908152602001600020604051806101200160405290816000820160009054906101000a900463ffffffff1663ffffffff1663ffffffff1681526020016000820160049054906101000a900463ffffffff1663ffffffff1663ffffffff1681526020016000820160089054906101000a900463ffffffff1663ffffffff1663ffffffff16815260200160008201600c9054906101000a900463ffffffff1663ffffffff1663ffffffff1681526020016000820160109054906101000a900460ff1615151515815260200160018201805461094b90614825565b80601f016020809104026020016040519081016040528092919081815260200182805461097790614825565b80156109c45780601f10610999576101008083540402835291602001916109c4565b820191906000526020600020905b8154815290600101906020018083116109a757829003601f168201915b505050505081526020016002820180546109dd90614825565b80601f0160208091040260200160405190810160405280929190818152602001828054610a0990614825565b8015610a565780601f10610a2b57610100808354040283529160200191610a56565b820191906000526020600020905b815481529060010190602001808311610a3957829003601f168201915b505050505081526020016003820160009054906101000a900473ffffffffffffffffffffffffffffffffffffffff1673ffffffffffffffffffffffffffffffffffffffff1673ffffffffffffffffffffffffffffffffffffffff168152602001600482018054610ac590614825565b80601f0160208091040260200160405190810160405280929190818152602001828054610af190614825565b8015610b3e5780601f10610b1357610100808354040283529160200191610b3e565b820191906000526020600020905b815481529060010190602001808311610b2157829003601f168201915b50505050508152505090508060800151610b8d576040517f08c379a0000000000000000000000000000000000000000000000000000000008152600401610b84906141ab565b60405180910390fd5b600160009054906101000a900463ffffffff1663ffffffff168363ffffffff161115610bee576040517f08c379a0000000000000000000000000000000000000000000000000000000008152600401610be5906141eb565b60405180910390fd5b806040015163ffffffff168263ffffffff161115610c41576040517f08c379a0000000000000000000000000000000000000000000000000000000008152600401610c389061424b565b60405180910390fd5b816000808563ffffffff1663ffffffff16815260200190815260200160002060000160088282829054906101000a900463ffffffff16610c8191906146a0565b92506101000a81548163ffffffff021916908363ffffffff1602179055506005600081819054906101000a900463ffffffff1680929190610cc190614857565b91906101000a81548163ffffffff021916908363ffffffff160217905550506000828260600151610cf29190614662565b9050604051806101000160405280600560009054906101000a900463ffffffff1663ffffffff1681526020018563ffffffff1681526020018463ffffffff1681526020018263ffffffff16815260200160001515815260200160006001811115610d85577f4e487b7100000000000000000000000000000000000000000000000000000000600052602160045260246000fd5b81526020018360e0015173ffffffffffffffffffffffffffffffffffffffff1681526020013373ffffffffffffffffffffffffffffffffffffffff1681525060046000600560009054906101000a900463ffffffff1663ffffffff1663ffffffff16815260200190815260200160002060008201518160000160006101000a81548163ffffffff021916908363ffffffff16021790555060208201518160000160046101000a81548163ffffffff021916908363ffffffff16021790555060408201518160000160086101000a81548163ffffffff021916908363ffffffff160217905550606082015181600001600c6101000a81548163ffffffff021916908363ffffffff16021790555060808201518160000160106101000a81548160ff02191690831515021790555060a08201518160000160116101000a81548160ff02191690836001811115610f02577f4e487b7100000000000000000000000000000000000000000000000000000000600052602160045260246000fd5b021790555060c08201518160010160006101000a81548173ffffffffffffffffffffffffffffffffffffffff021916908373ffffffffffffffffffffffffffffffffffffffff16021790555060e08201518160020160006101000a81548173ffffffffffffffffffffffffffffffffffffffff021916908373ffffffffffffffffffffffffffffffffffffffff16021790555090505050505050565b80600660006101000a81548173ffffffffffffffffffffffffffffffffffffffff021916908373ffffffffffffffffffffffffffffffffffffffff16021790555050565b600660009054906101000a900473ffffffffffffffffffffffffffffffffffffffff1673ffffffffffffffffffffffffffffffffffffffff1663d1e47bb33360006040518363ffffffff1660e01b81526004016110409291906140ac565b60206040518083038186803b15801561105857600080fd5b505afa15801561106c573d6000803e3d6000fd5b505050506040513d601f19601f820116820180604052508101906110909190613729565b6110cf576040517f08c379a00000000000000000000000000000000000000000000000000000000081526004016110c69061410b565b60405180910390fd5b6000600760009054906101000a900473ffffffffffffffffffffffffffffffffffffffff1673ffffffffffffffffffffffffffffffffffffffff1663421b3e08876040518263ffffffff1660e01b815260040161112c9190614304565b60006040518083038186803b15801561114457600080fd5b505afa158015611158573d6000803e3d6000fd5b505050506040513d6000823e3d601f19601f820116820180604052508101906111819190613752565b9050600760009054906101000a900473ffffffffffffffffffffffffffffffffffffffff1673ffffffffffffffffffffffffffffffffffffffff166331686f416040518163ffffffff1660e01b815260040160206040518083038186803b1580156111eb57600080fd5b505afa1580156111ff573d6000803e3d6000fd5b505050506040513d601f19601f8201168201806040525081019061122391906137bc565b63ffffffff168663ffffffff161115611271576040517f08c379a00000000000000000000000000000000000000000000000000000000081526004016112689061418b565b60405180910390fd5b3373ffffffffffffffffffffffffffffffffffffffff16816020015173ffffffffffffffffffffffffffffffffffffffff16146112e3576040517f08c379a00000000000000000000000000000000000000000000000000000000081526004016112da906141cb565b60405180910390fd5b6001600081819054906101000a900463ffffffff168092919061130590614857565b91906101000a81548163ffffffff021916908363ffffffff16021790555050604051806101200160405280600160009054906101000a900463ffffffff1663ffffffff1681526020018763ffffffff1681526020018663ffffffff1681526020018563ffffffff1681526020016000151581526020016040518060200160405280600081525081526020018481526020013373ffffffffffffffffffffffffffffffffffffffff16815260200183815250600080600160009054906101000a900463ffffffff1663ffffffff1663ffffffff16815260200190815260200160002060008201518160000160006101000a81548163ffffffff021916908363ffffffff16021790555060208201518160000160046101000a81548163ffffffff021916908363ffffffff16021790555060408201518160000160086101000a81548163ffffffff021916908363ffffffff160217905550606082015181600001600c6101000a81548163ffffffff021916908363ffffffff16021790555060808201518160000160106101000a81548160ff02191690831515021790555060a08201518160010190805190602001906114be929190612d59565b5060c08201518160020190805190602001906114db929190612d59565b5060e08201518160030160006101000a81548173ffffffffffffffffffffffffffffffffffffffff021916908373ffffffffffffffffffffffffffffffffffffffff160217905550610100820151816004019080519060200190611540929190612d59565b50905050505050505050565b600560009054906101000a900463ffffffff1681565b600760009054906101000a900473ffffffffffffffffffffffffffffffffffffffff1681565b611590612ddf565b600460008363ffffffff1663ffffffff168152602001908152602001600020604051806101000160405290816000820160009054906101000a900463ffffffff1663ffffffff1663ffffffff1681526020016000820160049054906101000a900463ffffffff1663ffffffff1663ffffffff1681526020016000820160089054906101000a900463ffffffff1663ffffffff1663ffffffff16815260200160008201600c9054906101000a900463ffffffff1663ffffffff1663ffffffff1681526020016000820160109054906101000a900460ff161515151581526020016000820160119054906101000a900460ff1660018111156116b9577f4e487b7100000000000000000000000000000000000000000000000000000000600052602160045260246000fd5b60018111156116f1577f4e487b7100000000000000000000000000000000000000000000000000000000600052602160045260246000fd5b81526020016001820160009054906101000a900473ffffffffffffffffffffffffffffffffffffffff1673ffffffffffffffffffffffffffffffffffffffff1673ffffffffffffffffffffffffffffffffffffffff1681526020016002820160009054906101000a900473ffffffffffffffffffffffffffffffffffffffff1673ffffffffffffffffffffffffffffffffffffffff1673ffffffffffffffffffffffffffffffffffffffff16815250509050919050565b60046020528060005260406000206000915090508060000160009054906101000a900463ffffffff16908060000160049054906101000a900463ffffffff16908060000160089054906101000a900463ffffffff169080600001600c9054906101000a900463ffffffff16908060000160109054906101000a900460ff16908060000160119054906101000a900460ff16908060010160009054906101000a900473ffffffffffffffffffffffffffffffffffffffff16908060020160009054906101000a900473ffffffffffffffffffffffffffffffffffffffff16905088565b60026020528060005260406000206000915090508060000160009054906101000a900463ffffffff16908060000160049054906101000a900473ffffffffffffffffffffffffffffffffffffffff16908060010160009054906101000a900473ffffffffffffffffffffffffffffffffffffffff16908060010160149054906101000a900463ffffffff16908060010160189054906101000a900460ff16908060020154905086565b600660009054906101000a900473ffffffffffffffffffffffffffffffffffffffff1673ffffffffffffffffffffffffffffffffffffffff1663d1e47bb33360036040518363ffffffff1660e01b81526004016119919291906140ac565b60206040518083038186803b1580156119a957600080fd5b505afa1580156119bd573d6000803e3d6000fd5b505050506040513d601f19601f820116820180604052508101906119e19190613729565b611a20576040517f08c379a0000000000000000000000000000000000000000000000000000000008152600401611a179061426b565b60405180910390fd5b6000600460008563ffffffff1663ffffffff168152602001908152602001600020604051806101000160405290816000820160009054906101000a900463ffffffff1663ffffffff1663ffffffff1681526020016000820160049054906101000a900463ffffffff1663ffffffff1663ffffffff1681526020016000820160089054906101000a900463ffffffff1663ffffffff1663ffffffff16815260200160008201600c9054906101000a900463ffffffff1663ffffffff1663ffffffff1681526020016000820160109054906101000a900460ff161515151581526020016000820160119054906101000a900460ff166001811115611b4b577f4e487b7100000000000000000000000000000000000000000000000000000000600052602160045260246000fd5b6001811115611b83577f4e487b7100000000000000000000000000000000000000000000000000000000600052602160045260246000fd5b81526020016001820160009054906101000a900473ffffffffffffffffffffffffffffffffffffffff1673ffffffffffffffffffffffffffffffffffffffff1673ffffffffffffffffffffffffffffffffffffffff1681526020016002820160009054906101000a900473ffffffffffffffffffffffffffffffffffffffff1673ffffffffffffffffffffffffffffffffffffffff1673ffffffffffffffffffffffffffffffffffffffff168152505090506000806000836020015163ffffffff1663ffffffff168152602001908152602001600020604051806101200160405290816000820160009054906101000a900463ffffffff1663ffffffff1663ffffffff1681526020016000820160049054906101000a900463ffffffff1663ffffffff1663ffffffff1681526020016000820160089054906101000a900463ffffffff1663ffffffff1663ffffffff16815260200160008201600c9054906101000a900463ffffffff1663ffffffff1663ffffffff1681526020016000820160109054906101000a900460ff16151515158152602001600182018054611d2890614825565b80601f0160208091040260200160405190810160405280929190818152602001828054611d5490614825565b8015611da15780601f10611d7657610100808354040283529160200191611da1565b820191906000526020600020905b815481529060010190602001808311611d8457829003601f168201915b50505050508152602001600282018054611dba90614825565b80601f0160208091040260200160405190810160405280929190818152602001828054611de690614825565b8015611e335780601f10611e0857610100808354040283529160200191611e33565b820191906000526020600020905b815481529060010190602001808311611e1657829003601f168201915b505050505081526020016003820160009054906101000a900473ffffffffffffffffffffffffffffffffffffffff1673ffffffffffffffffffffffffffffffffffffffff1673ffffffffffffffffffffffffffffffffffffffff168152602001600482018054611ea290614825565b80601f0160208091040260200160405190810160405280929190818152602001828054611ece90614825565b8015611f1b5780601f10611ef057610100808354040283529160200191611f1b565b820191906000526020600020905b815481529060010190602001808311611efe57829003601f168201915b5050505050815250509050600560009054906101000a900463ffffffff1663ffffffff168563ffffffff161115611f87576040517f08c379a0000000000000000000000000000000000000000000000000000000008152600401611f7e9061414b565b60405180910390fd5b816080015115611fcc576040517f08c379a0000000000000000000000000000000000000000000000000000000008152600401611fc39061422b565b60405180910390fd5b816060015163ffffffff168463ffffffff161461201e576040517f08c379a00000000000000000000000000000000000000000000000000000000081526004016120159061412b565b60405180910390fd5b600560049054906101000a900473ffffffffffffffffffffffffffffffffffffffff1673ffffffffffffffffffffffffffffffffffffffff16639aed4540836020015184604001518460600151338661010001518760c001518860a001516040518863ffffffff1660e01b815260040161209e9796959493929190614380565b600060405180830381600087803b1580156120b857600080fd5b505af11580156120cc573d6000803e3d6000fd5b505050506001600460008763ffffffff1663ffffffff16815260200190815260200160002060000160106101000a81548160ff0219169083151502179055506003600081819054906101000a900463ffffffff168092919061212d90614857565b91906101000a81548163ffffffff021916908363ffffffff160217905550506040518060c00160405280600360009054906101000a900463ffffffff1663ffffffff1681526020013373ffffffffffffffffffffffffffffffffffffffff1681526020018360c0015173ffffffffffffffffffffffffffffffffffffffff1681526020018563ffffffff1681526020018460028111156121f6577f4e487b7100000000000000000000000000000000000000000000000000000000600052602160045260246000fd5b815260200142815250600260008763ffffffff1663ffffffff16815260200190815260200160002060008201518160000160006101000a81548163ffffffff021916908363ffffffff16021790555060208201518160000160046101000a81548173ffffffffffffffffffffffffffffffffffffffff021916908373ffffffffffffffffffffffffffffffffffffffff16021790555060408201518160010160006101000a81548173ffffffffffffffffffffffffffffffffffffffff021916908373ffffffffffffffffffffffffffffffffffffffff16021790555060608201518160010160146101000a81548163ffffffff021916908363ffffffff16021790555060808201518160010160186101000a81548160ff0219169083600281111561234b577f4e487b7100000000000000000000000000000000000000000000000000000000600052602160045260246000fd5b021790555060a082015181600201559050505050505050565b600660009054906101000a900473ffffffffffffffffffffffffffffffffffffffff1673ffffffffffffffffffffffffffffffffffffffff1663d1e47bb33360026040518363ffffffff1660e01b81526004016123c29291906140ac565b60206040518083038186803b1580156123da57600080fd5b505afa1580156123ee573d6000803e3d6000fd5b505050506040513d601f19601f820116820180604052508101906124129190613729565b612451576040517f08c379a00000000000000000000000000000000000000000000000000000000081526004016124489061416b565b60405180910390fd5b600160009054906101000a900463ffffffff1663ffffffff168263ffffffff1611156124b2576040517f08c379a00000000000000000000000000000000000000000000000000000000081526004016124a9906141eb565b60405180910390fd5b6000815114156124f7576040517f08c379a00000000000000000000000000000000000000000000000000000000081526004016124ee9061420b565b60405180910390fd5b60016000808463ffffffff1663ffffffff16815260200190815260200160002060000160106101000a81548160ff021916908315150217905550806000808463ffffffff1663ffffffff1681526020019081526020016000206001019080519060200190612566929190612d59565b505050565b600660009054906101000a900473ffffffffffffffffffffffffffffffffffffffff1681565b60006020528060005260406000206000915090508060000160009054906101000a900463ffffffff16908060000160049054906101000a900463ffffffff16908060000160089054906101000a900463ffffffff169080600001600c9054906101000a900463ffffffff16908060000160109054906101000a900460ff169080600101805461261f90614825565b80601f016020809104026020016040519081016040528092919081815260200182805461264b90614825565b80156126985780601f1061266d57610100808354040283529160200191612698565b820191906000526020600020905b81548152906001019060200180831161267b57829003601f168201915b5050505050908060020180546126ad90614825565b80601f01602080910402602001604051908101604052809291908181526020018280546126d990614825565b80156127265780601f106126fb57610100808354040283529160200191612726565b820191906000526020600020905b81548152906001019060200180831161270957829003601f168201915b5050505050908060030160009054906101000a900473ffffffffffffffffffffffffffffffffffffffff169080600401805461276190614825565b80601f016020809104026020016040519081016040528092919081815260200182805461278d90614825565b80156127da5780601f106127af576101008083540402835291602001916127da565b820191906000526020600020905b8154815290600101906020018083116127bd57829003601f168201915b5050505050905089565b6000600560009054906101000a900463ffffffff16905090565b600160009054906101000a900463ffffffff1681565b600360009054906101000a900463ffffffff1681565b6000600160009054906101000a900463ffffffff16905090565b80600560046101000a81548173ffffffffffffffffffffffffffffffffffffffff021916908373ffffffffffffffffffffffffffffffffffffffff16021790555050565b600760149054906101000a900460ff16156128d8576040517f08c379a00000000000000000000000000000000000000000000000000000000081526004016128cf9061428b565b60405180910390fd5b82600560046101000a81548173ffffffffffffffffffffffffffffffffffffffff021916908373ffffffffffffffffffffffffffffffffffffffff16021790555081600660006101000a81548173ffffffffffffffffffffffffffffffffffffffff021916908373ffffffffffffffffffffffffffffffffffffffff16021790555080600760006101000a81548173ffffffffffffffffffffffffffffffffffffffff021916908373ffffffffffffffffffffffffffffffffffffffff1602179055506001600760146101000a81548160ff021916908315150217905550505050565b6129c3612ea2565b6000808363ffffffff1663ffffffff168152602001908152602001600020604051806101200160405290816000820160009054906101000a900463ffffffff1663ffffffff1663ffffffff1681526020016000820160049054906101000a900463ffffffff1663ffffffff1663ffffffff1681526020016000820160089054906101000a900463ffffffff1663ffffffff1663ffffffff16815260200160008201600c9054906101000a900463ffffffff1663ffffffff1663ffffffff1681526020016000820160109054906101000a900460ff16151515158152602001600182018054612ab090614825565b80601f0160208091040260200160405190810160405280929190818152602001828054612adc90614825565b8015612b295780601f10612afe57610100808354040283529160200191612b29565b820191906000526020600020905b815481529060010190602001808311612b0c57829003601f168201915b50505050508152602001600282018054612b4290614825565b80601f0160208091040260200160405190810160405280929190818152602001828054612b6e90614825565b8015612bbb5780601f10612b9057610100808354040283529160200191612bbb565b820191906000526020600020905b815481529060010190602001808311612b9e57829003601f168201915b505050505081526020016003820160009054906101000a900473ffffffffffffffffffffffffffffffffffffffff1673ffffffffffffffffffffffffffffffffffffffff1673ffffffffffffffffffffffffffffffffffffffff168152602001600482018054612c2a90614825565b80601f0160208091040260200160405190810160405280929190818152602001828054612c5690614825565b8015612ca35780601f10612c7857610100808354040283529160200191612ca3565b820191906000526020600020905b815481529060010190602001808311612c8657829003601f168201915b5050505050815250509050919050565b6040518060c00160405280600063ffffffff168152602001600073ffffffffffffffffffffffffffffffffffffffff168152602001600073ffffffffffffffffffffffffffffffffffffffff168152602001600063ffffffff16815260200160006002811115612d4c577f4e487b7100000000000000000000000000000000000000000000000000000000600052602160045260246000fd5b8152602001600081525090565b828054612d6590614825565b90600052602060002090601f016020900481019282612d875760008555612dce565b82601f10612da057805160ff1916838001178555612dce565b82800160010185558215612dce579182015b82811115612dcd578251825591602001919060010190612db2565b5b509050612ddb9190612f1e565b5090565b604051806101000160405280600063ffffffff168152602001600063ffffffff168152602001600063ffffffff168152602001600063ffffffff16815260200160001515815260200160006001811115612e62577f4e487b7100000000000000000000000000000000000000000000000000000000600052602160045260246000fd5b8152602001600073ffffffffffffffffffffffffffffffffffffffff168152602001600073ffffffffffffffffffffffffffffffffffffffff1681525090565b604051806101200160405280600063ffffffff168152602001600063ffffffff168152602001600063ffffffff168152602001600063ffffffff1681526020016000151581526020016060815260200160608152602001600073ffffffffffffffffffffffffffffffffffffffff168152602001606081525090565b5b80821115612f37576000816000905550600101612f1f565b5090565b6000612f4e612f4984614555565b614524565b9050808382526020820190508260005b85811015612f8e5781518501612f748882613266565b845260208401935060208301925050600181019050612f5e565b5050509392505050565b6000612fab612fa684614581565b614524565b9050808382526020820190508260005b85811015612feb5781518501612fd18882613290565b845260208401935060208301925050600181019050612fbb565b5050509392505050565b6000613008613003846145ad565b614524565b9050808382526020820190508260005b85811015613048578151850161302e8882613334565b845260208401935060208301925050600181019050613018565b5050509392505050565b6000613065613060846145d9565b614524565b9050808382526020820190508260005b858110156130a5578151850161308b88826133c0565b845260208401935060208301925050600181019050613075565b5050509392505050565b60006130c26130bd84614605565b614524565b9050828152602081018484840111156130da57600080fd5b6130e58482856147e3565b509392505050565b60006131006130fb84614605565b614524565b90508281526020810184848401111561311857600080fd5b6131238482856147f2565b509392505050565b60008135905061313a8161498d565b92915050565b60008151905061314f8161498d565b92915050565b600082601f83011261316657600080fd5b8151613176848260208601612f3b565b91505092915050565b600082601f83011261319057600080fd5b81516131a0848260208601612f98565b91505092915050565b600082601f8301126131ba57600080fd5b81516131ca848260208601612ff5565b91505092915050565b600082601f8301126131e457600080fd5b81516131f4848260208601613052565b91505092915050565b60008151905061320c816149a4565b92915050565b600081519050613221816149bb565b92915050565b600081359050613236816149cb565b92915050565b600082601f83011261324d57600080fd5b813561325d8482602086016130af565b91505092915050565b600082601f83011261327757600080fd5b81516132878482602086016130ed565b91505092915050565b6000608082840312156132a257600080fd5b6132ac6080614524565b905060006132bc8482850161369c565b600083015250602082015167ffffffffffffffff8111156132dc57600080fd5b6132e884828501613266565b602083015250604082015167ffffffffffffffff81111561330857600080fd5b61331484828501613266565b604083015250606061332884828501613672565b60608301525092915050565b60006080828403121561334657600080fd5b6133506080614524565b905060006133608482850161369c565b600083015250602061337484828501613140565b602083015250604082015167ffffffffffffffff81111561339457600080fd5b6133a084828501613266565b60408301525060606133b484828501613672565b60608301525092915050565b6000606082840312156133d257600080fd5b6133dc6060614524565b9050600082015167ffffffffffffffff8111156133f857600080fd5b61340484828501613266565b60008301525060206134188482850161369c565b602083015250604061342c848285016131fd565b60408301525092915050565b60006101c0828403121561344b57600080fd5b6134566101c0614524565b905060006134668482850161369c565b600083015250602061347a84828501613140565b602083015250604082015167ffffffffffffffff81111561349a57600080fd5b6134a684828501613266565b604083015250606082015167ffffffffffffffff8111156134c657600080fd5b6134d284828501613266565b60608301525060806134e6848285016131fd565b60808301525060a06134fa84828501613212565b60a08301525060c082015167ffffffffffffffff81111561351a57600080fd5b61352684828501613266565b60c08301525060e082015167ffffffffffffffff81111561354657600080fd5b61355284828501613266565b60e08301525061010082015167ffffffffffffffff81111561357357600080fd5b61357f84828501613155565b6101008301525061012082015167ffffffffffffffff8111156135a157600080fd5b6135ad848285016131d3565b6101208301525061014082015167ffffffffffffffff8111156135cf57600080fd5b6135db848285016131a9565b6101408301525061016082015167ffffffffffffffff8111156135fd57600080fd5b6136098482850161317f565b6101608301525061018082015167ffffffffffffffff81111561362b57600080fd5b61363784828501613266565b610180830152506101a082015167ffffffffffffffff81111561365957600080fd5b61366584828501613266565b6101a08301525092915050565b600081519050613681816149db565b92915050565b600081359050613696816149f2565b92915050565b6000815190506136ab816149f2565b92915050565b6000602082840312156136c357600080fd5b60006136d18482850161312b565b91505092915050565b6000806000606084860312156136ef57600080fd5b60006136fd8682870161312b565b935050602061370e8682870161312b565b925050604061371f8682870161312b565b9150509250925092565b60006020828403121561373b57600080fd5b6000613749848285016131fd565b91505092915050565b60006020828403121561376457600080fd5b600082015167ffffffffffffffff81111561377e57600080fd5b61378a84828501613438565b91505092915050565b6000602082840312156137a557600080fd5b60006137b384828501613687565b91505092915050565b6000602082840312156137ce57600080fd5b60006137dc8482850161369c565b91505092915050565b600080604083850312156137f857600080fd5b600061380685828601613687565b925050602083013567ffffffffffffffff81111561382357600080fd5b61382f8582860161323c565b9150509250929050565b6000806040838503121561384c57600080fd5b600061385a85828601613687565b925050602061386b85828601613687565b9150509250929050565b60008060006060848603121561388a57600080fd5b600061389886828701613687565b93505060206138a986828701613687565b92505060406138ba86828701613227565b9150509250925092565b600080600080600060a086880312156138dc57600080fd5b60006138ea88828901613687565b95505060206138fb88828901613687565b945050604061390c88828901613687565b935050606086013567ffffffffffffffff81111561392957600080fd5b6139358882890161323c565b925050608086013567ffffffffffffffff81111561395257600080fd5b61395e8882890161323c565b9150509295509295909350565b613974816146d4565b82525050565b613983816146d4565b82525050565b613992816146e6565b82525050565b6139a1816146e6565b82525050565b6139b081614765565b82525050565b6139bf81614789565b82525050565b6139ce816147ad565b82525050565b6139dd816147ad565b82525050565b6139ec816147bf565b82525050565b6139fb816147d1565b82525050565b613a0a816147d1565b82525050565b6000613a1b82614635565b613a258185614640565b9350613a358185602086016147f2565b613a3e81614940565b840191505092915050565b6000613a5482614635565b613a5e8185614651565b9350613a6e8185602086016147f2565b613a7781614940565b840191505092915050565b6000613a8f602283614651565b91507f4e6f6e206175746f726973653a207365756c656d656e742050726f647563746560008301527f75720000000000000000000000000000000000000000000000000000000000006020830152604082019050919050565b6000613af5600e83614651565b91507f5072697820696e636f72726563740000000000000000000000000000000000006000830152602082019050919050565b6000613b35601583614651565b91507f436f6d6d616e6465206e6f6e206578697374616e7400000000000000000000006000830152602082019050919050565b6000613b75602583614651565b91507f4e6f6e206175746f726973653a207365756c656d656e7420436572746966696360008301527f61746575720000000000000000000000000000000000000000000000000000006020830152604082019050919050565b6000613bdb601583614651565b91507f50617263656c6c65206e6f6e206578697374616e7400000000000000000000006000830152602082019050919050565b6000613c1b601483614651565b91507f5265636f6c7465206e6f6e2063657274696669650000000000000000000000006000830152602082019050919050565b6000613c5b602c83614651565b91507f566f7573206e2765746573207061732070726f7072696574616972652064652060008301527f63652070617263656c6c6c6500000000000000000000000000000000000000006020830152604082019050919050565b6000613cc1601483614651565b91507f5265636f6c7465206e6f6e206578697374616e740000000000000000000000006000830152602082019050919050565b6000613d01600f83614651565b91507f43657274696669636174207669646500000000000000000000000000000000006000830152602082019050919050565b6000613d41601383614651565b91507f436f6d6d616e64652064656a61207061796572000000000000000000000000006000830152602082019050919050565b6000613d81603683614651565b91507f5175616e746974652074726f70206772616e642070617220726170706f72742060008301527f6175207175616e7469746520646973706f6e69626c65000000000000000000006020830152604082019050919050565b6000613de7602283614651565b91507f4e6f6e206175746f726973653a207365756c656d656e7420436f6c6c6563746560008301527f75720000000000000000000000000000000000000000000000000000000000006020830152604082019050919050565b6000613e4d601a83614651565b91507f436f6e747261742064656a6120696e697469616c6973657220210000000000006000830152602082019050919050565b61010082016000820151613e97600085018261408e565b506020820151613eaa602085018261408e565b506040820151613ebd604085018261408e565b506060820151613ed0606085018261408e565b506080820151613ee36080850182613989565b5060a0820151613ef660a08501826139f2565b5060c0820151613f0960c085018261396b565b5060e0820151613f1c60e085018261396b565b50505050565b60c082016000820151613f38600085018261408e565b506020820151613f4b602085018261396b565b506040820151613f5e604085018261396b565b506060820151613f71606085018261408e565b506080820151613f8460808501826139c5565b5060a0820151613f9760a0850182614070565b50505050565b600061012083016000830151613fb6600086018261408e565b506020830151613fc9602086018261408e565b506040830151613fdc604086018261408e565b506060830151613fef606086018261408e565b5060808301516140026080860182613989565b5060a083015184820360a086015261401a8282613a10565b91505060c083015184820360c08601526140348282613a10565b91505060e083015161404960e086018261396b565b506101008301518482036101008601526140638282613a10565b9150508091505092915050565b6140798161474b565b82525050565b6140888161474b565b82525050565b61409781614755565b82525050565b6140a681614755565b82525050565b60006040820190506140c1600083018561397a565b6140ce60208301846139e3565b9392505050565b60006020820190506140ea60008301846139a7565b92915050565b600060208201905061410560008301846139b6565b92915050565b6000602082019050818103600083015261412481613a82565b9050919050565b6000602082019050818103600083015261414481613ae8565b9050919050565b6000602082019050818103600083015261416481613b28565b9050919050565b6000602082019050818103600083015261418481613b68565b9050919050565b600060208201905081810360008301526141a481613bce565b9050919050565b600060208201905081810360008301526141c481613c0e565b9050919050565b600060208201905081810360008301526141e481613c4e565b9050919050565b6000602082019050818103600083015261420481613cb4565b9050919050565b6000602082019050818103600083015261422481613cf4565b9050919050565b6000602082019050818103600083015261424481613d34565b9050919050565b6000602082019050818103600083015261426481613d74565b9050919050565b6000602082019050818103600083015261428481613dda565b9050919050565b600060208201905081810360008301526142a481613e40565b9050919050565b6000610100820190506142c16000830184613e80565b92915050565b600060c0820190506142dc6000830184613f22565b92915050565b600060208201905081810360008301526142fc8184613f9d565b905092915050565b6000602082019050614319600083018461409d565b92915050565b600060c082019050614334600083018961409d565b614341602083018861397a565b61434e604083018761397a565b61435b606083018661409d565b61436860808301856139d4565b61437560a083018461407f565b979650505050505050565b600060e082019050614395600083018a61409d565b6143a2602083018961409d565b6143af604083018861409d565b6143bc606083018761397a565b81810360808301526143ce8186613a49565b905081810360a08301526143e28185613a49565b905081810360c08301526143f68184613a49565b905098975050505050505050565b60006101008201905061441a600083018b61409d565b614427602083018a61409d565b614434604083018961409d565b614441606083018861409d565b61444e6080830187613998565b61445b60a0830186613a01565b61446860c083018561397a565b61447560e083018461397a565b9998505050505050505050565b600061012082019050614498600083018c61409d565b6144a5602083018b61409d565b6144b2604083018a61409d565b6144bf606083018961409d565b6144cc6080830188613998565b81810360a08301526144de8187613a49565b905081810360c08301526144f28186613a49565b905061450160e083018561397a565b8181036101008301526145148184613a49565b90509a9950505050505050505050565b6000604051905081810181811067ffffffffffffffff8211171561454b5761454a614911565b5b8060405250919050565b600067ffffffffffffffff8211156145705761456f614911565b5b602082029050602081019050919050565b600067ffffffffffffffff82111561459c5761459b614911565b5b602082029050602081019050919050565b600067ffffffffffffffff8211156145c8576145c7614911565b5b602082029050602081019050919050565b600067ffffffffffffffff8211156145f4576145f3614911565b5b602082029050602081019050919050565b600067ffffffffffffffff8211156146205761461f614911565b5b601f19601f8301169050602081019050919050565b600081519050919050565b600082825260208201905092915050565b600082825260208201905092915050565b600061466d82614755565b915061467883614755565b92508163ffffffff048311821515161561469557614694614884565b5b828202905092915050565b60006146ab82614755565b91506146b683614755565b9250828210156146c9576146c8614884565b5b828203905092915050565b60006146df8261472b565b9050919050565b60008115159050919050565b600081905061470082614951565b919050565b600081905061471382614965565b919050565b600081905061472682614979565b919050565b600073ffffffffffffffffffffffffffffffffffffffff82169050919050565b6000819050919050565b600063ffffffff82169050919050565b600061477082614777565b9050919050565b60006147828261472b565b9050919050565b60006147948261479b565b9050919050565b60006147a68261472b565b9050919050565b60006147b8826146f2565b9050919050565b60006147ca82614705565b9050919050565b60006147dc82614718565b9050919050565b82818337600083830152505050565b60005b838110156148105780820151818401526020810190506147f5565b8381111561481f576000848401525b50505050565b6000600282049050600182168061483d57607f821691505b60208210811415614851576148506148e2565b5b50919050565b600061486282614755565b915063ffffffff82141561487957614878614884565b5b600182019050919050565b7f4e487b7100000000000000000000000000000000000000000000000000000000600052601160045260246000fd5b7f4e487b7100000000000000000000000000000000000000000000000000000000600052602160045260246000fd5b7f4e487b7100000000000000000000000000000000000000000000000000000000600052602260045260246000fd5b7f4e487b7100000000000000000000000000000000000000000000000000000000600052604160045260246000fd5b6000601f19601f8301169050919050565b60038110614962576149616148b3565b5b50565b60088110614976576149756148b3565b5b50565b6002811061498a576149896148b3565b5b50565b614996816146d4565b81146149a157600080fd5b50565b6149ad816146e6565b81146149b857600080fd5b50565b600481106149c857600080fd5b50565b600381106149d857600080fd5b50565b6149e48161474b565b81146149ef57600080fd5b50565b6149fb81614755565b8114614a0657600080fd5b5056fea26469706673582212203ab0773f7eff3ebf7b423ff401669273a26f9b98fd3727583ffc5d256878f64064736f6c63430008000033",
  "linkReferences": {},
  "deployedLinkReferences": {}
}