{
  "_format": "hh-sol-artifact-1",
  "contractName": "CollecteurExportateurContrat",
  "sourceName": "contracts/CollecteurExportateurContractOK.sol",
  "abi": [
    {
      "inputs": [
        {
          "internalType": "address",
          "name": "_producteurEnPhaseCultureAddress",
          "type": "address"
        }
      ],
      "stateMutability": "nonpayable",
      "type": "constructor"
    },
    {
      "anonymous": false,
      "inputs": [
        {
          "indexed": true,
          "internalType": "address",
          "name": "acteur",
          "type": "address"
        },
        {
          "indexed": false,
          "internalType": "enum CollecteurExportateurContrat.Role",
          "name": "role",
          "type": "uint8"
        }
      ],
      "name": "ActeurEnregistre",
      "type": "event"
    },
    {
      "anonymous": false,
      "inputs": [
        {
          "indexed": true,
          "internalType": "address",
          "name": "exportateur",
          "type": "address"
        },
        {
          "indexed": false,
          "internalType": "uint256",
          "name": "idProduit",
          "type": "uint256"
        }
      ],
      "name": "CommandePasser",
      "type": "event"
    },
    {
      "anonymous": false,
      "inputs": [
        {
          "indexed": true,
          "internalType": "uint256",
          "name": "idProduit",
          "type": "uint256"
        },
        {
          "indexed": false,
          "internalType": "uint256",
          "name": "idCondition",
          "type": "uint256"
        },
        {
          "indexed": false,
          "internalType": "string",
          "name": "temperature",
          "type": "string"
        },
        {
          "indexed": false,
          "internalType": "string",
          "name": "humidite",
          "type": "string"
        },
        {
          "indexed": false,
          "internalType": "uint256",
          "name": "timestamp",
          "type": "uint256"
        }
      ],
      "name": "ConditionEnregistree",
      "type": "event"
    },
    {
      "anonymous": false,
      "inputs": [
        {
          "indexed": true,
          "internalType": "uint256",
          "name": "idProduit",
          "type": "uint256"
        },
        {
          "indexed": false,
          "internalType": "uint256",
          "name": "idPaiement",
          "type": "uint256"
        },
        {
          "indexed": false,
          "internalType": "address",
          "name": "payeur",
          "type": "address"
        },
        {
          "indexed": false,
          "internalType": "uint256",
          "name": "montant",
          "type": "uint256"
        },
        {
          "indexed": false,
          "internalType": "enum CollecteurExportateurContrat.ModePaiement",
          "name": "mode",
          "type": "uint8"
        }
      ],
      "name": "PaiementEffectue",
      "type": "event"
    },
    {
      "anonymous": false,
      "inputs": [
        {
          "indexed": true,
          "internalType": "uint256",
          "name": "idProduit",
          "type": "uint256"
        },
        {
          "indexed": false,
          "internalType": "string",
          "name": "nom",
          "type": "string"
        },
        {
          "indexed": false,
          "internalType": "uint256",
          "name": "quantite",
          "type": "uint256"
        },
        {
          "indexed": false,
          "internalType": "uint256",
          "name": "prix",
          "type": "uint256"
        },
        {
          "indexed": false,
          "internalType": "uint256",
          "name": "idParcelle",
          "type": "uint256"
        },
        {
          "indexed": false,
          "internalType": "string",
          "name": "dateRecolte",
          "type": "string"
        },
        {
          "indexed": false,
          "internalType": "string",
          "name": "certificatPhytosanitaire",
          "type": "string"
        }
      ],
      "name": "ProduitAjoute",
      "type": "event"
    },
    {
      "anonymous": false,
      "inputs": [
        {
          "indexed": true,
          "internalType": "uint256",
          "name": "idProduit",
          "type": "uint256"
        },
        {
          "indexed": false,
          "internalType": "bool",
          "name": "valide",
          "type": "bool"
        }
      ],
      "name": "ProduitValide",
      "type": "event"
    },
    {
      "anonymous": false,
      "inputs": [
        {
          "indexed": true,
          "internalType": "uint256",
          "name": "idProduit",
          "type": "uint256"
        },
        {
          "indexed": false,
          "internalType": "enum CollecteurExportateurContrat.StatutTransport",
          "name": "statut",
          "type": "uint8"
        }
      ],
      "name": "StatutTransportMisAJour",
      "type": "event"
    },
    {
      "stateMutability": "payable",
      "type": "fallback"
    },
    {
      "inputs": [
        {
          "internalType": "address",
          "name": "",
          "type": "address"
        }
      ],
      "name": "acteurs",
      "outputs": [
        {
          "internalType": "address",
          "name": "addr",
          "type": "address"
        },
        {
          "internalType": "enum CollecteurExportateurContrat.Role",
          "name": "role",
          "type": "uint8"
        }
      ],
      "stateMutability": "view",
      "type": "function"
    },
    {
      "inputs": [
        {
          "internalType": "uint256",
          "name": "_idParcelle",
          "type": "uint256"
        },
        {
          "internalType": "uint256",
          "name": "_quantite",
          "type": "uint256"
        },
        {
          "internalType": "uint256",
          "name": "_prix",
          "type": "uint256"
        }
      ],
      "name": "ajouterProduit",
      "outputs": [],
      "stateMutability": "nonpayable",
      "type": "function"
    },
    {
      "inputs": [
        {
          "internalType": "uint256",
          "name": "",
          "type": "uint256"
        }
      ],
      "name": "commandes",
      "outputs": [
        {
          "internalType": "uint256",
          "name": "id",
          "type": "uint256"
        },
        {
          "internalType": "uint256",
          "name": "idProduit",
          "type": "uint256"
        },
        {
          "internalType": "uint256",
          "name": "quantite",
          "type": "uint256"
        },
        {
          "internalType": "uint256",
          "name": "prix",
          "type": "uint256"
        },
        {
          "internalType": "bool",
          "name": "payer",
          "type": "bool"
        },
        {
          "internalType": "enum CollecteurExportateurContrat.StatutTransport",
          "name": "statutTransport",
          "type": "uint8"
        },
        {
          "internalType": "address",
          "name": "exportateur",
          "type": "address"
        }
      ],
      "stateMutability": "view",
      "type": "function"
    },
    {
      "inputs": [],
      "name": "compteurCommandes",
      "outputs": [
        {
          "internalType": "uint256",
          "name": "",
          "type": "uint256"
        }
      ],
      "stateMutability": "view",
      "type": "function"
    },
    {
      "inputs": [],
      "name": "compteurConditions",
      "outputs": [
        {
          "internalType": "uint256",
          "name": "",
          "type": "uint256"
        }
      ],
      "stateMutability": "view",
      "type": "function"
    },
    {
      "inputs": [],
      "name": "compteurPaiements",
      "outputs": [
        {
          "internalType": "uint256",
          "name": "",
          "type": "uint256"
        }
      ],
      "stateMutability": "view",
      "type": "function"
    },
    {
      "inputs": [],
      "name": "compteurProduits",
      "outputs": [
        {
          "internalType": "uint256",
          "name": "",
          "type": "uint256"
        }
      ],
      "stateMutability": "view",
      "type": "function"
    },
    {
      "inputs": [
        {
          "internalType": "uint256",
          "name": "",
          "type": "uint256"
        }
      ],
      "name": "conditions",
      "outputs": [
        {
          "internalType": "uint256",
          "name": "id",
          "type": "uint256"
        },
        {
          "internalType": "string",
          "name": "temperature",
          "type": "string"
        },
        {
          "internalType": "string",
          "name": "humidite",
          "type": "string"
        },
        {
          "internalType": "uint256",
          "name": "timestamp",
          "type": "uint256"
        }
      ],
      "stateMutability": "view",
      "type": "function"
    },
    {
      "inputs": [
        {
          "internalType": "uint256",
          "name": "_idCommande",
          "type": "uint256"
        },
        {
          "internalType": "uint256",
          "name": "_montant",
          "type": "uint256"
        },
        {
          "internalType": "enum CollecteurExportateurContrat.ModePaiement",
          "name": "_mode",
          "type": "uint8"
        }
      ],
      "name": "effectuerPaiement",
      "outputs": [],
      "stateMutability": "payable",
      "type": "function"
    },
    {
      "inputs": [
        {
          "internalType": "address",
          "name": "_acteur",
          "type": "address"
        },
        {
          "internalType": "enum CollecteurExportateurContrat.Role",
          "name": "_role",
          "type": "uint8"
        }
      ],
      "name": "enregistrerActeur",
      "outputs": [],
      "stateMutability": "nonpayable",
      "type": "function"
    },
    {
      "inputs": [
        {
          "internalType": "uint256",
          "name": "_idProduit",
          "type": "uint256"
        },
        {
          "internalType": "string",
          "name": "_temperature",
          "type": "string"
        },
        {
          "internalType": "string",
          "name": "_humidite",
          "type": "string"
        }
      ],
      "name": "enregistrerCondition",
      "outputs": [],
      "stateMutability": "nonpayable",
      "type": "function"
    },
    {
      "inputs": [
        {
          "internalType": "address",
          "name": "addr",
          "type": "address"
        }
      ],
      "name": "getActeur",
      "outputs": [
        {
          "components": [
            {
              "internalType": "address",
              "name": "addr",
              "type": "address"
            },
            {
              "internalType": "enum CollecteurExportateurContrat.Role",
              "name": "role",
              "type": "uint8"
            }
          ],
          "internalType": "struct CollecteurExportateurContrat.Acteur",
          "name": "",
          "type": "tuple"
        }
      ],
      "stateMutability": "view",
      "type": "function"
    },
    {
      "inputs": [
        {
          "internalType": "uint256",
          "name": "id",
          "type": "uint256"
        }
      ],
      "name": "getCommande",
      "outputs": [
        {
          "components": [
            {
              "internalType": "uint256",
              "name": "id",
              "type": "uint256"
            },
            {
              "internalType": "uint256",
              "name": "idProduit",
              "type": "uint256"
            },
            {
              "internalType": "uint256",
              "name": "quantite",
              "type": "uint256"
            },
            {
              "internalType": "uint256",
              "name": "prix",
              "type": "uint256"
            },
            {
              "internalType": "bool",
              "name": "payer",
              "type": "bool"
            },
            {
              "internalType": "enum CollecteurExportateurContrat.StatutTransport",
              "name": "statutTransport",
              "type": "uint8"
            },
            {
              "internalType": "address",
              "name": "exportateur",
              "type": "address"
            }
          ],
          "internalType": "struct CollecteurExportateurContrat.Commande",
          "name": "",
          "type": "tuple"
        }
      ],
      "stateMutability": "view",
      "type": "function"
    },
    {
      "inputs": [],
      "name": "getCompteurCommande",
      "outputs": [
        {
          "internalType": "uint256",
          "name": "",
          "type": "uint256"
        }
      ],
      "stateMutability": "view",
      "type": "function"
    },
    {
      "inputs": [],
      "name": "getCompteurCondition",
      "outputs": [
        {
          "internalType": "uint256",
          "name": "",
          "type": "uint256"
        }
      ],
      "stateMutability": "view",
      "type": "function"
    },
    {
      "inputs": [],
      "name": "getCompteurPaiement",
      "outputs": [
        {
          "internalType": "uint256",
          "name": "",
          "type": "uint256"
        }
      ],
      "stateMutability": "view",
      "type": "function"
    },
    {
      "inputs": [],
      "name": "getCompteurProduit",
      "outputs": [
        {
          "internalType": "uint256",
          "name": "",
          "type": "uint256"
        }
      ],
      "stateMutability": "view",
      "type": "function"
    },
    {
      "inputs": [
        {
          "internalType": "uint256",
          "name": "id",
          "type": "uint256"
        }
      ],
      "name": "getCondition",
      "outputs": [
        {
          "components": [
            {
              "internalType": "uint256",
              "name": "id",
              "type": "uint256"
            },
            {
              "internalType": "string",
              "name": "temperature",
              "type": "string"
            },
            {
              "internalType": "string",
              "name": "humidite",
              "type": "string"
            },
            {
              "internalType": "uint256",
              "name": "timestamp",
              "type": "uint256"
            }
          ],
          "internalType": "struct CollecteurExportateurContrat.EnregistrementCondition",
          "name": "",
          "type": "tuple"
        }
      ],
      "stateMutability": "view",
      "type": "function"
    },
    {
      "inputs": [
        {
          "internalType": "uint256",
          "name": "id",
          "type": "uint256"
        }
      ],
      "name": "getPaiement",
      "outputs": [
        {
          "components": [
            {
              "internalType": "uint256",
              "name": "id",
              "type": "uint256"
            },
            {
              "internalType": "address",
              "name": "payeur",
              "type": "address"
            },
            {
              "internalType": "uint256",
              "name": "montant",
              "type": "uint256"
            },
            {
              "internalType": "enum CollecteurExportateurContrat.ModePaiement",
              "name": "mode",
              "type": "uint8"
            },
            {
              "internalType": "uint256",
              "name": "timestamp",
              "type": "uint256"
            }
          ],
          "internalType": "struct CollecteurExportateurContrat.Paiement",
          "name": "",
          "type": "tuple"
        }
      ],
      "stateMutability": "view",
      "type": "function"
    },
    {
      "inputs": [
        {
          "internalType": "uint256",
          "name": "id",
          "type": "uint256"
        }
      ],
      "name": "getProduit",
      "outputs": [
        {
          "components": [
            {
              "internalType": "uint256",
              "name": "id",
              "type": "uint256"
            },
            {
              "internalType": "string",
              "name": "nom",
              "type": "string"
            },
            {
              "internalType": "uint256",
              "name": "quantite",
              "type": "uint256"
            },
            {
              "internalType": "uint256",
              "name": "prix",
              "type": "uint256"
            },
            {
              "internalType": "enum CollecteurExportateurContrat.StatutProduit",
              "name": "statut",
              "type": "uint8"
            },
            {
              "internalType": "uint256",
              "name": "idParcelle",
              "type": "uint256"
            },
            {
              "internalType": "string",
              "name": "dateRecolte",
              "type": "string"
            },
            {
              "internalType": "string",
              "name": "certificatPhytosanitaire",
              "type": "string"
            },
            {
              "internalType": "address",
              "name": "collecteur",
              "type": "address"
            }
          ],
          "internalType": "struct CollecteurExportateurContrat.Produit",
          "name": "",
          "type": "tuple"
        }
      ],
      "stateMutability": "view",
      "type": "function"
    },
    {
      "inputs": [
        {
          "internalType": "uint256",
          "name": "_idCommande",
          "type": "uint256"
        },
        {
          "internalType": "enum CollecteurExportateurContrat.StatutTransport",
          "name": "_statut",
          "type": "uint8"
        }
      ],
      "name": "mettreAJourStatutTransport",
      "outputs": [],
      "stateMutability": "nonpayable",
      "type": "function"
    },
    {
      "inputs": [
        {
          "internalType": "uint256",
          "name": "",
          "type": "uint256"
        }
      ],
      "name": "paiements",
      "outputs": [
        {
          "internalType": "uint256",
          "name": "id",
          "type": "uint256"
        },
        {
          "internalType": "address",
          "name": "payeur",
          "type": "address"
        },
        {
          "internalType": "uint256",
          "name": "montant",
          "type": "uint256"
        },
        {
          "internalType": "enum CollecteurExportateurContrat.ModePaiement",
          "name": "mode",
          "type": "uint8"
        },
        {
          "internalType": "uint256",
          "name": "timestamp",
          "type": "uint256"
        }
      ],
      "stateMutability": "view",
      "type": "function"
    },
    {
      "inputs": [
        {
          "internalType": "uint256",
          "name": "idProduit",
          "type": "uint256"
        },
        {
          "internalType": "uint256",
          "name": "_quantite",
          "type": "uint256"
        }
      ],
      "name": "passerCommande",
      "outputs": [],
      "stateMutability": "nonpayable",
      "type": "function"
    },
    {
      "inputs": [],
      "name": "producteurEnPhaseCultureAddress",
      "outputs": [
        {
          "internalType": "address",
          "name": "",
          "type": "address"
        }
      ],
      "stateMutability": "view",
      "type": "function"
    },
    {
      "inputs": [
        {
          "internalType": "uint256",
          "name": "",
          "type": "uint256"
        }
      ],
      "name": "produits",
      "outputs": [
        {
          "internalType": "uint256",
          "name": "id",
          "type": "uint256"
        },
        {
          "internalType": "string",
          "name": "nom",
          "type": "string"
        },
        {
          "internalType": "uint256",
          "name": "quantite",
          "type": "uint256"
        },
        {
          "internalType": "uint256",
          "name": "prix",
          "type": "uint256"
        },
        {
          "internalType": "enum CollecteurExportateurContrat.StatutProduit",
          "name": "statut",
          "type": "uint8"
        },
        {
          "internalType": "uint256",
          "name": "idParcelle",
          "type": "uint256"
        },
        {
          "internalType": "string",
          "name": "dateRecolte",
          "type": "string"
        },
        {
          "internalType": "string",
          "name": "certificatPhytosanitaire",
          "type": "string"
        },
        {
          "internalType": "address",
          "name": "collecteur",
          "type": "address"
        }
      ],
      "stateMutability": "view",
      "type": "function"
    },
    {
      "inputs": [
        {
          "internalType": "address",
          "name": "_addr",
          "type": "address"
        }
      ],
      "name": "setProducteurEnPhaseCultureAddress",
      "outputs": [],
      "stateMutability": "nonpayable",
      "type": "function"
    },
    {
      "inputs": [
        {
          "internalType": "uint256",
          "name": "_idProduit",
          "type": "uint256"
        },
        {
          "internalType": "bool",
          "name": "_valide",
          "type": "bool"
        }
      ],
      "name": "validerProduit",
      "outputs": [],
      "stateMutability": "nonpayable",
      "type": "function"
    },
    {
      "stateMutability": "payable",
      "type": "receive"
    }
  ],
  "bytecode": "0x60806040523480156200001157600080fd5b506040516200437738038062004377833981810160405281019062000037919062000096565b80600960006101000a81548173ffffffffffffffffffffffffffffffffffffffff021916908373ffffffffffffffffffffffffffffffffffffffff1602179055505062000110565b6000815190506200009081620000f6565b92915050565b600060208284031215620000a957600080fd5b6000620000b9848285016200007f565b91505092915050565b6000620000cf82620000d6565b9050919050565b600073ffffffffffffffffffffffffffffffffffffffff82169050919050565b6200010181620000c2565b81146200010d57600080fd5b50565b61425780620001206000396000f3fe6080604052600436106101a05760003560e01c8063a19bf093116100ec578063d305dc351161008a578063fdccf43311610064578063fdccf4331461060b578063fe32398a14610636578063fe71496b14610673578063ffd826d31461069c576101a7565b8063d305dc351461058e578063e7d89475146105b7578063edd13163146105e0576101a7565b8063c889bc67116100c6578063c889bc67146104ab578063cd3df1ed146104e8578063cf4d6a6a14610513578063d1aa5bbe14610550576101a7565b8063a19bf0931461042e578063b96cc76f14610459578063bb95f3b914610482576101a7565b806362ca1128116101595780638777654f116101335780638777654f1461035a57806391e5954c1461038557806393c2f9b4146103c65780639ca26214146103f1576101a7565b806362ca1128146102ad578063687112e2146102f25780637bf212f81461031d576101a7565b806301197018146101a957806302dccbc4146101d457806315e20529146101fd57806326c5000714610219578063487396f214610259578063488dee2014610282576101a7565b366101a757005b005b3480156101b557600080fd5b506101be6106df565b6040516101cb9190613bc3565b60405180910390f35b3480156101e057600080fd5b506101fb60048036038101906101f6919061313a565b6106e9565b005b6102176004803603810190610212919061326d565b6109d0565b005b34801561022557600080fd5b50610240600480360381019061023b9190613111565b611173565b6040516102509493929190613c76565b60405180910390f35b34801561026557600080fd5b50610280600480360381019061027b91906131b2565b6112b3565b005b34801561028e57600080fd5b50610297611498565b6040516102a49190613bc3565b60405180910390f35b3480156102b957600080fd5b506102d460048036038101906102cf9190613111565b61149e565b6040516102e999989796959493929190613cc9565b60405180910390f35b3480156102fe57600080fd5b506103076116b1565b6040516103149190613bc3565b60405180910390f35b34801561032957600080fd5b50610344600480360381019061033f9190613111565b6116b7565b6040516103519190613b64565b60405180910390f35b34801561036657600080fd5b5061036f61181c565b60405161037c9190613bc3565b60405180910390f35b34801561039157600080fd5b506103ac60048036038101906103a79190613111565b611826565b6040516103bd959493929190613c23565b60405180910390f35b3480156103d257600080fd5b506103db611889565b6040516103e89190613bc3565b60405180910390f35b3480156103fd57600080fd5b5061041860048036038101906104139190613111565b611893565b6040516104259190613ba1565b60405180910390f35b34801561043a57600080fd5b50610443611b7c565b6040516104509190613923565b60405180910390f35b34801561046557600080fd5b50610480600480360381019061047b9190612f8f565b611ba2565b005b34801561048e57600080fd5b506104a960048036038101906104a49190613176565b611d35565b005b3480156104b757600080fd5b506104d260048036038101906104cd9190613111565b611ed6565b6040516104df9190613b86565b60405180910390f35b3480156104f457600080fd5b506104fd611ffe565b60405161050a9190613bc3565b60405180910390f35b34801561051f57600080fd5b5061053a60048036038101906105359190613111565b612004565b6040516105479190613b49565b60405180910390f35b34801561055c57600080fd5b5061057760048036038101906105729190612f66565b612151565b60405161058592919061393e565b60405180910390f35b34801561059a57600080fd5b506105b560048036038101906105b09190613231565b6121a2565b005b3480156105c357600080fd5b506105de60048036038101906105d99190612f66565b612552565b005b3480156105ec57600080fd5b506105f5612596565b6040516106029190613bc3565b60405180910390f35b34801561061757600080fd5b5061062061259c565b60405161062d9190613bc3565b60405180910390f35b34801561064257600080fd5b5061065d60048036038101906106589190612f66565b6125a6565b60405161066a9190613b2e565b60405180910390f35b34801561067f57600080fd5b5061069a600480360381019061069591906132bc565b6126db565b005b3480156106a857600080fd5b506106c360048036038101906106be9190613111565b612ac5565b6040516106d69796959493929190613d6b565b60405180910390f35b6000600654905090565b600680811115610722577f4e487b7100000000000000000000000000000000000000000000000000000000600052602160045260246000fd5b6000803373ffffffffffffffffffffffffffffffffffffffff1673ffffffffffffffffffffffffffffffffffffffff16815260200190815260200160002060000160149054906101000a900460ff1660068111156107a9577f4e487b7100000000000000000000000000000000000000000000000000000000600052602160045260246000fd5b146107e9576040517f08c379a00000000000000000000000000000000000000000000000000000000081526004016107e090613aee565b60405180910390fd5b60006002811115610823577f4e487b7100000000000000000000000000000000000000000000000000000000600052602160045260246000fd5b6001600084815260200190815260200160002060040160009054906101000a900460ff16600281111561087f577f4e487b7100000000000000000000000000000000000000000000000000000000600052602160045260246000fd5b146108bf576040517f08c379a00000000000000000000000000000000000000000000000000000000081526004016108b690613a4e565b60405180910390fd5b801561092e57600180600084815260200190815260200160002060040160006101000a81548160ff02191690836002811115610924577f4e487b7100000000000000000000000000000000000000000000000000000000600052602160045260246000fd5b0217905550610994565b60026001600084815260200190815260200160002060040160006101000a81548160ff0219169083600281111561098e577f4e487b7100000000000000000000000000000000000000000000000000000000600052602160045260246000fd5b02179055505b817f40b060b3f7b6252dbdc35ea1e381d20a283b1e1a996cd701bde7b75ec12568f5826040516109c49190613967565b60405180910390a25050565b600680811115610a09577f4e487b7100000000000000000000000000000000000000000000000000000000600052602160045260246000fd5b6000803373ffffffffffffffffffffffffffffffffffffffff1673ffffffffffffffffffffffffffffffffffffffff16815260200190815260200160002060000160149054906101000a900460ff166006811115610a90577f4e487b7100000000000000000000000000000000000000000000000000000000600052602160045260246000fd5b14610ad0576040517f08c379a0000000000000000000000000000000000000000000000000000000008152600401610ac790613aee565b60405180910390fd5b600060016000600460008781526020019081526020016000206001015481526020019081526020016000206040518061012001604052908160008201548152602001600182018054610b2190614014565b80601f0160208091040260200160405190810160405280929190818152602001828054610b4d90614014565b8015610b9a5780601f10610b6f57610100808354040283529160200191610b9a565b820191906000526020600020905b815481529060010190602001808311610b7d57829003601f168201915b5050505050815260200160028201548152602001600382015481526020016004820160009054906101000a900460ff166002811115610c02577f4e487b7100000000000000000000000000000000000000000000000000000000600052602160045260246000fd5b6002811115610c3a577f4e487b7100000000000000000000000000000000000000000000000000000000600052602160045260246000fd5b815260200160058201548152602001600682018054610c5890614014565b80601f0160208091040260200160405190810160405280929190818152602001828054610c8490614014565b8015610cd15780601f10610ca657610100808354040283529160200191610cd1565b820191906000526020600020905b815481529060010190602001808311610cb457829003601f168201915b50505050508152602001600782018054610cea90614014565b80601f0160208091040260200160405190810160405280929190818152602001828054610d1690614014565b8015610d635780601f10610d3857610100808354040283529160200191610d63565b820191906000526020600020905b815481529060010190602001808311610d4657829003601f168201915b505050505081526020016008820160009054906101000a900473ffffffffffffffffffffffffffffffffffffffff1673ffffffffffffffffffffffffffffffffffffffff1673ffffffffffffffffffffffffffffffffffffffff1681525050905060016002811115610dfe577f4e487b7100000000000000000000000000000000000000000000000000000000600052602160045260246000fd5b81608001516002811115610e3b577f4e487b7100000000000000000000000000000000000000000000000000000000600052602160045260246000fd5b14610e7b576040517f08c379a0000000000000000000000000000000000000000000000000000000008152600401610e7290613a8e565b60405180910390fd5b60046000858152602001908152602001600020600201548160600151610ea19190613e68565b3414610ee2576040517f08c379a0000000000000000000000000000000000000000000000000000000008152600401610ed990613a2e565b60405180910390fd5b6004600085815260200190815260200160002060040160009054906101000a900460ff1615610f46576040517f08c379a0000000000000000000000000000000000000000000000000000000008152600401610f3d90613a6e565b60405180910390fd5b60016004600086815260200190815260200160002060040160006101000a81548160ff02191690831515021790555060086000815480929190610f8890614046565b91905055506040518060a0016040528060085481526020013373ffffffffffffffffffffffffffffffffffffffff168152602001848152602001836002811115610ffb577f4e487b7100000000000000000000000000000000000000000000000000000000600052602160045260246000fd5b8152602001428152506003600060085481526020019081526020016000206000820151816000015560208201518160010160006101000a81548173ffffffffffffffffffffffffffffffffffffffff021916908373ffffffffffffffffffffffffffffffffffffffff1602179055506040820151816002015560608201518160030160006101000a81548160ff021916908360028111156110c5577f4e487b7100000000000000000000000000000000000000000000000000000000600052602160045260246000fd5b02179055506080820151816004015590505080600001517f7cd7c5e6b4cabba2bd7f4c36f4a3e25931a4d1130f8745849d9225eacdd394fe6008543386866040516111139493929190613bde565b60405180910390a2600081610100015190508073ffffffffffffffffffffffffffffffffffffffff166108fc349081150290604051600060405180830381858888f1935050505015801561116b573d6000803e3d6000fd5b505050505050565b600260205280600052604060002060009150905080600001549080600101805461119c90614014565b80601f01602080910402602001604051908101604052809291908181526020018280546111c890614014565b80156112155780601f106111ea57610100808354040283529160200191611215565b820191906000526020600020905b8154815290600101906020018083116111f857829003601f168201915b50505050509080600201805461122a90614014565b80601f016020809104026020016040519081016040528092919081815260200182805461125690614014565b80156112a35780601f10611278576101008083540402835291602001916112a3565b820191906000526020600020905b81548152906001019060200180831161128657829003601f168201915b5050505050908060030154905084565b600560068111156112ed577f4e487b7100000000000000000000000000000000000000000000000000000000600052602160045260246000fd5b6000803373ffffffffffffffffffffffffffffffffffffffff1673ffffffffffffffffffffffffffffffffffffffff16815260200190815260200160002060000160149054906101000a900460ff166006811115611374577f4e487b7100000000000000000000000000000000000000000000000000000000600052602160045260246000fd5b146113b4576040517f08c379a00000000000000000000000000000000000000000000000000000000081526004016113ab90613b0e565b60405180910390fd5b600760008154809291906113c790614046565b9190505550604051806080016040528060075481526020018381526020018281526020014281525060026000858152602001908152602001600020600082015181600001556020820151816001019080519060200190611428929190612b41565b506040820151816002019080519060200190611445929190612b41565b5060608201518160030155905050827fa313df723389871f22ba2e986d3ad5724712c38a270e9ec008e6037c670862da60075484844260405161148b9493929190613c76565b60405180910390a2505050565b60055481565b60016020528060005260406000206000915090508060000154908060010180546114c790614014565b80601f01602080910402602001604051908101604052809291908181526020018280546114f390614014565b80156115405780601f1061151557610100808354040283529160200191611540565b820191906000526020600020905b81548152906001019060200180831161152357829003601f168201915b5050505050908060020154908060030154908060040160009054906101000a900460ff169080600501549080600601805461157a90614014565b80601f01602080910402602001604051908101604052809291908181526020018280546115a690614014565b80156115f35780601f106115c8576101008083540402835291602001916115f3565b820191906000526020600020905b8154815290600101906020018083116115d657829003601f168201915b50505050509080600701805461160890614014565b80601f016020809104026020016040519081016040528092919081815260200182805461163490614014565b80156116815780601f1061165657610100808354040283529160200191611681565b820191906000526020600020905b81548152906001019060200180831161166457829003601f168201915b5050505050908060080160009054906101000a900473ffffffffffffffffffffffffffffffffffffffff16905089565b60075481565b6116bf612bc7565b60026000838152602001908152602001600020604051806080016040529081600082015481526020016001820180546116f790614014565b80601f016020809104026020016040519081016040528092919081815260200182805461172390614014565b80156117705780601f1061174557610100808354040283529160200191611770565b820191906000526020600020905b81548152906001019060200180831161175357829003601f168201915b5050505050815260200160028201805461178990614014565b80601f01602080910402602001604051908101604052809291908181526020018280546117b590614014565b80156118025780601f106117d757610100808354040283529160200191611802565b820191906000526020600020905b8154815290600101906020018083116117e557829003601f168201915b505050505081526020016003820154815250509050919050565b6000600554905090565b60036020528060005260406000206000915090508060000154908060010160009054906101000a900473ffffffffffffffffffffffffffffffffffffffff16908060020154908060030160009054906101000a900460ff16908060040154905085565b6000600754905090565b61189b612bef565b6001600083815260200190815260200160002060405180610120016040529081600082015481526020016001820180546118d490614014565b80601f016020809104026020016040519081016040528092919081815260200182805461190090614014565b801561194d5780601f106119225761010080835404028352916020019161194d565b820191906000526020600020905b81548152906001019060200180831161193057829003601f168201915b5050505050815260200160028201548152602001600382015481526020016004820160009054906101000a900460ff1660028111156119b5577f4e487b7100000000000000000000000000000000000000000000000000000000600052602160045260246000fd5b60028111156119ed577f4e487b7100000000000000000000000000000000000000000000000000000000600052602160045260246000fd5b815260200160058201548152602001600682018054611a0b90614014565b80601f0160208091040260200160405190810160405280929190818152602001828054611a3790614014565b8015611a845780601f10611a5957610100808354040283529160200191611a84565b820191906000526020600020905b815481529060010190602001808311611a6757829003601f168201915b50505050508152602001600782018054611a9d90614014565b80601f0160208091040260200160405190810160405280929190818152602001828054611ac990614014565b8015611b165780601f10611aeb57610100808354040283529160200191611b16565b820191906000526020600020905b815481529060010190602001808311611af957829003601f168201915b505050505081526020016008820160009054906101000a900473ffffffffffffffffffffffffffffffffffffffff1673ffffffffffffffffffffffffffffffffffffffff1673ffffffffffffffffffffffffffffffffffffffff16815250509050919050565b600960009054906101000a900473ffffffffffffffffffffffffffffffffffffffff1681565b60405180604001604052808373ffffffffffffffffffffffffffffffffffffffff168152602001826006811115611c02577f4e487b7100000000000000000000000000000000000000000000000000000000600052602160045260246000fd5b8152506000808473ffffffffffffffffffffffffffffffffffffffff1673ffffffffffffffffffffffffffffffffffffffff16815260200190815260200160002060008201518160000160006101000a81548173ffffffffffffffffffffffffffffffffffffffff021916908373ffffffffffffffffffffffffffffffffffffffff16021790555060208201518160000160146101000a81548160ff02191690836006811115611cdb577f4e487b7100000000000000000000000000000000000000000000000000000000600052602160045260246000fd5b02179055509050508173ffffffffffffffffffffffffffffffffffffffff167fbd86914a2cea41efb2ef2e360c4375dceb3c2ec14c6876f40345126b9ac1f3cc82604051611d299190613982565b60405180910390a25050565b60056006811115611d6f577f4e487b7100000000000000000000000000000000000000000000000000000000600052602160045260246000fd5b6000803373ffffffffffffffffffffffffffffffffffffffff1673ffffffffffffffffffffffffffffffffffffffff16815260200190815260200160002060000160149054906101000a900460ff166006811115611df6577f4e487b7100000000000000000000000000000000000000000000000000000000600052602160045260246000fd5b14611e36576040517f08c379a0000000000000000000000000000000000000000000000000000000008152600401611e2d90613b0e565b60405180910390fd5b806004600084815260200190815260200160002060040160016101000a81548160ff02191690836001811115611e95577f4e487b7100000000000000000000000000000000000000000000000000000000600052602160045260246000fd5b0217905550817f26ac1a75b14d22a4bdc3531ce4b57293ccf9243488885dce5ceb2ebf2d24f93782604051611eca919061399d565b60405180910390a25050565b611ede612c89565b600360008381526020019081526020016000206040518060a0016040529081600082015481526020016001820160009054906101000a900473ffffffffffffffffffffffffffffffffffffffff1673ffffffffffffffffffffffffffffffffffffffff1673ffffffffffffffffffffffffffffffffffffffff168152602001600282015481526020016003820160009054906101000a900460ff166002811115611fb1577f4e487b7100000000000000000000000000000000000000000000000000000000600052602160045260246000fd5b6002811115611fe9577f4e487b7100000000000000000000000000000000000000000000000000000000600052602160045260246000fd5b81526020016004820154815250509050919050565b60085481565b61200c612d06565b600460008381526020019081526020016000206040518060e0016040529081600082015481526020016001820154815260200160028201548152602001600382015481526020016004820160009054906101000a900460ff161515151581526020016004820160019054906101000a900460ff1660018111156120b8577f4e487b7100000000000000000000000000000000000000000000000000000000600052602160045260246000fd5b60018111156120f0577f4e487b7100000000000000000000000000000000000000000000000000000000600052602160045260246000fd5b81526020016004820160029054906101000a900473ffffffffffffffffffffffffffffffffffffffff1673ffffffffffffffffffffffffffffffffffffffff1673ffffffffffffffffffffffffffffffffffffffff16815250509050919050565b60006020528060005260406000206000915090508060000160009054906101000a900473ffffffffffffffffffffffffffffffffffffffff16908060000160149054906101000a900460ff16905082565b6006808111156121db577f4e487b7100000000000000000000000000000000000000000000000000000000600052602160045260246000fd5b6000803373ffffffffffffffffffffffffffffffffffffffff1673ffffffffffffffffffffffffffffffffffffffff16815260200190815260200160002060000160149054906101000a900460ff166006811115612262577f4e487b7100000000000000000000000000000000000000000000000000000000600052602160045260246000fd5b146122a2576040517f08c379a000000000000000000000000000000000000000000000000000000000815260040161229990613aee565b60405180910390fd5b60016000838152602001908152602001600020600201548111156122fb576040517f08c379a00000000000000000000000000000000000000000000000000000000081526004016122f290613aae565b60405180910390fd5b600060016000848152602001908152602001600020600301548261231f9190613e68565b905060008260016000868152602001908152602001600020600201546123459190613ec2565b90508060016000868152602001908152602001600020600201819055506005600081548092919061237590614046565b91905055506040518060e001604052806005548152602001858152602001848152602001838152602001600015158152602001600060018111156123e2577f4e487b7100000000000000000000000000000000000000000000000000000000600052602160045260246000fd5b81526020013373ffffffffffffffffffffffffffffffffffffffff168152506004600060055481526020019081526020016000206000820151816000015560208201518160010155604082015181600201556060820151816003015560808201518160040160006101000a81548160ff02191690831515021790555060a08201518160040160016101000a81548160ff021916908360018111156124af577f4e487b7100000000000000000000000000000000000000000000000000000000600052602160045260246000fd5b021790555060c08201518160040160026101000a81548173ffffffffffffffffffffffffffffffffffffffff021916908373ffffffffffffffffffffffffffffffffffffffff1602179055509050503373ffffffffffffffffffffffffffffffffffffffff167fac67b1d913a02769b0d5b5c09600fcf53ccca6745557622305af0da92152d05a856040516125449190613bc3565b60405180910390a250505050565b80600960006101000a81548173ffffffffffffffffffffffffffffffffffffffff021916908373ffffffffffffffffffffffffffffffffffffffff16021790555050565b60065481565b6000600854905090565b6125ae612d93565b6000808373ffffffffffffffffffffffffffffffffffffffff1673ffffffffffffffffffffffffffffffffffffffff1681526020019081526020016000206040518060400160405290816000820160009054906101000a900473ffffffffffffffffffffffffffffffffffffffff1673ffffffffffffffffffffffffffffffffffffffff1673ffffffffffffffffffffffffffffffffffffffff1681526020016000820160149054906101000a900460ff166006811115612698577f4e487b7100000000000000000000000000000000000000000000000000000000600052602160045260246000fd5b60068111156126d0577f4e487b7100000000000000000000000000000000000000000000000000000000600052602160045260246000fd5b815250509050919050565b60036006811115612715577f4e487b7100000000000000000000000000000000000000000000000000000000600052602160045260246000fd5b6000803373ffffffffffffffffffffffffffffffffffffffff1673ffffffffffffffffffffffffffffffffffffffff16815260200190815260200160002060000160149054906101000a900460ff16600681111561279c577f4e487b7100000000000000000000000000000000000000000000000000000000600052602160045260246000fd5b146127dc576040517f08c379a00000000000000000000000000000000000000000000000000000000081526004016127d390613ace565b60405180910390fd5b6000806000600960009054906101000a900473ffffffffffffffffffffffffffffffffffffffff1673ffffffffffffffffffffffffffffffffffffffff16637f645273876040518263ffffffff1660e01b815260040161283c9190613bc3565b60006040518083038186803b15801561285457600080fd5b505afa158015612868573d6000803e3d6000fd5b505050506040513d6000823e3d601f19601f820116820180604052508101906128919190612fcb565b96509650965050505050600660008154809291906128ae90614046565b9190505550604051806101200160405280600654815260200184815260200186815260200185815260200160006002811115612913577f4e487b7100000000000000000000000000000000000000000000000000000000600052602160045260246000fd5b81526020018781526020018381526020018281526020013373ffffffffffffffffffffffffffffffffffffffff1681525060016000600654815260200190815260200160002060008201518160000155602082015181600101908051906020019061297f929190612b41565b50604082015181600201556060820151816003015560808201518160040160006101000a81548160ff021916908360028111156129e5577f4e487b7100000000000000000000000000000000000000000000000000000000600052602160045260246000fd5b021790555060a0820151816005015560c0820151816006019080519060200190612a10929190612b41565b5060e0820151816007019080519060200190612a2d929190612b41565b506101008201518160080160006101000a81548173ffffffffffffffffffffffffffffffffffffffff021916908373ffffffffffffffffffffffffffffffffffffffff1602179055509050506006547ff66885504dddadc35efd9cd98df3190adb9b2b9c7537390767c4ee806f4c0bbf8487878a8787604051612ab5969594939291906139b8565b60405180910390a2505050505050565b60046020528060005260406000206000915090508060000154908060010154908060020154908060030154908060040160009054906101000a900460ff16908060040160019054906101000a900460ff16908060040160029054906101000a900473ffffffffffffffffffffffffffffffffffffffff16905087565b828054612b4d90614014565b90600052602060002090601f016020900481019282612b6f5760008555612bb6565b82601f10612b8857805160ff1916838001178555612bb6565b82800160010185558215612bb6579182015b82811115612bb5578251825591602001919060010190612b9a565b5b509050612bc39190612dfb565b5090565b6040518060800160405280600081526020016060815260200160608152602001600081525090565b6040518061012001604052806000815260200160608152602001600081526020016000815260200160006002811115612c51577f4e487b7100000000000000000000000000000000000000000000000000000000600052602160045260246000fd5b8152602001600081526020016060815260200160608152602001600073ffffffffffffffffffffffffffffffffffffffff1681525090565b6040518060a0016040528060008152602001600073ffffffffffffffffffffffffffffffffffffffff1681526020016000815260200160006002811115612cf9577f4e487b7100000000000000000000000000000000000000000000000000000000600052602160045260246000fd5b8152602001600081525090565b6040518060e001604052806000815260200160008152602001600081526020016000815260200160001515815260200160006001811115612d70577f4e487b7100000000000000000000000000000000000000000000000000000000600052602160045260246000fd5b8152602001600073ffffffffffffffffffffffffffffffffffffffff1681525090565b6040518060400160405280600073ffffffffffffffffffffffffffffffffffffffff16815260200160006006811115612df5577f4e487b7100000000000000000000000000000000000000000000000000000000600052602160045260246000fd5b81525090565b5b80821115612e14576000816000905550600101612dfc565b5090565b6000612e2b612e2684613e0b565b613dda565b905082815260208101848484011115612e4357600080fd5b612e4e848285613fd2565b509392505050565b6000612e69612e6484613e0b565b613dda565b905082815260208101848484011115612e8157600080fd5b612e8c848285613fe1565b509392505050565b600081359050612ea3816141ac565b92915050565b600081359050612eb8816141c3565b92915050565b600081359050612ecd816141da565b92915050565b600081359050612ee2816141ea565b92915050565b600081359050612ef7816141fa565b92915050565b600082601f830112612f0e57600080fd5b8135612f1e848260208601612e18565b91505092915050565b600082601f830112612f3857600080fd5b8151612f48848260208601612e56565b91505092915050565b600081359050612f608161420a565b92915050565b600060208284031215612f7857600080fd5b6000612f8684828501612e94565b91505092915050565b60008060408385031215612fa257600080fd5b6000612fb085828601612e94565b9250506020612fc185828601612ed3565b9150509250929050565b600080600080600080600060e0888a031215612fe657600080fd5b600088015167ffffffffffffffff81111561300057600080fd5b61300c8a828b01612f27565b975050602088015167ffffffffffffffff81111561302957600080fd5b6130358a828b01612f27565b965050604088015167ffffffffffffffff81111561305257600080fd5b61305e8a828b01612f27565b955050606088015167ffffffffffffffff81111561307b57600080fd5b6130878a828b01612f27565b945050608088015167ffffffffffffffff8111156130a457600080fd5b6130b08a828b01612f27565b93505060a088015167ffffffffffffffff8111156130cd57600080fd5b6130d98a828b01612f27565b92505060c088015167ffffffffffffffff8111156130f657600080fd5b6131028a828b01612f27565b91505092959891949750929550565b60006020828403121561312357600080fd5b600061313184828501612f51565b91505092915050565b6000806040838503121561314d57600080fd5b600061315b85828601612f51565b925050602061316c85828601612ea9565b9150509250929050565b6000806040838503121561318957600080fd5b600061319785828601612f51565b92505060206131a885828601612ee8565b9150509250929050565b6000806000606084860312156131c757600080fd5b60006131d586828701612f51565b935050602084013567ffffffffffffffff8111156131f257600080fd5b6131fe86828701612efd565b925050604084013567ffffffffffffffff81111561321b57600080fd5b61322786828701612efd565b9150509250925092565b6000806040838503121561324457600080fd5b600061325285828601612f51565b925050602061326385828601612f51565b9150509250929050565b60008060006060848603121561328257600080fd5b600061329086828701612f51565b93505060206132a186828701612f51565b92505060406132b286828701612ebe565b9150509250925092565b6000806000606084860312156132d157600080fd5b60006132df86828701612f51565b93505060206132f086828701612f51565b925050604061330186828701612f51565b9150509250925092565b61331481613ef6565b82525050565b61332381613ef6565b82525050565b61333281613f08565b82525050565b61334181613f08565b82525050565b61335081613f8a565b82525050565b61335f81613f8a565b82525050565b61336e81613f9c565b82525050565b61337d81613f9c565b82525050565b61338c81613fae565b82525050565b61339b81613fae565b82525050565b6133aa81613fc0565b82525050565b6133b981613fc0565b82525050565b60006133ca82613e3b565b6133d48185613e46565b93506133e4818560208601613fe1565b6133ed8161414b565b840191505092915050565b600061340382613e3b565b61340d8185613e57565b935061341d818560208601613fe1565b6134268161414b565b840191505092915050565b600061343e601183613e57565b91507f4d6f6e74616e7420696e636f72726563740000000000000000000000000000006000830152602082019050919050565b600061347e601383613e57565b91507f50726f647569742064656a6120747261697465000000000000000000000000006000830152602082019050919050565b60006134be601383613e57565b91507f436f6d6d616e64652064656a61207061796572000000000000000000000000006000830152602082019050919050565b60006134fe601283613e57565b91507f50726f64756974206e6f6e2076616c69646500000000000000000000000000006000830152602082019050919050565b600061353e601183613e57565b91507f5175616e7469746520696e76616c6964650000000000000000000000000000006000830152602082019050919050565b600061357e602283613e57565b91507f4e6f6e206175746f726973653a207365756c656d656e7420436f6c6c6563746560008301527f75720000000000000000000000000000000000000000000000000000000000006020830152604082019050919050565b60006135e4602383613e57565b91507f4e6f6e206175746f726973653a207365756c656d656e74204578706f7274617460008301527f65757200000000000000000000000000000000000000000000000000000000006020830152604082019050919050565b600061364a602483613e57565b91507f4e6f6e206175746f726973653a207365756c656d656e74205472616e73706f7260008301527f74657572000000000000000000000000000000000000000000000000000000006020830152604082019050919050565b6040820160008201516136b9600085018261330b565b5060208201516136cc6020850182613365565b50505050565b60e0820160008201516136e86000850182613905565b5060208201516136fb6020850182613905565b50604082015161370e6040850182613905565b5060608201516137216060850182613905565b5060808201516137346080850182613329565b5060a082015161374760a08501826133a1565b5060c082015161375a60c085018261330b565b50505050565b60006080830160008301516137786000860182613905565b506020830151848203602086015261379082826133bf565b915050604083015184820360408601526137aa82826133bf565b91505060608301516137bf6060860182613905565b508091505092915050565b60a0820160008201516137e06000850182613905565b5060208201516137f3602085018261330b565b5060408201516138066040850182613905565b5060608201516138196060850182613347565b50608082015161382c6080850182613905565b50505050565b60006101208301600083015161384b6000860182613905565b506020830151848203602086015261386382826133bf565b91505060408301516138786040860182613905565b50606083015161388b6060860182613905565b50608083015161389e6080860182613383565b5060a08301516138b160a0860182613905565b5060c083015184820360c08601526138c982826133bf565b91505060e083015184820360e08601526138e382826133bf565b9150506101008301516138fa61010086018261330b565b508091505092915050565b61390e81613f80565b82525050565b61391d81613f80565b82525050565b6000602082019050613938600083018461331a565b92915050565b6000604082019050613953600083018561331a565b6139606020830184613374565b9392505050565b600060208201905061397c6000830184613338565b92915050565b60006020820190506139976000830184613374565b92915050565b60006020820190506139b260008301846133b0565b92915050565b600060c08201905081810360008301526139d281896133f8565b90506139e16020830188613914565b6139ee6040830187613914565b6139fb6060830186613914565b8181036080830152613a0d81856133f8565b905081810360a0830152613a2181846133f8565b9050979650505050505050565b60006020820190508181036000830152613a4781613431565b9050919050565b60006020820190508181036000830152613a6781613471565b9050919050565b60006020820190508181036000830152613a87816134b1565b9050919050565b60006020820190508181036000830152613aa7816134f1565b9050919050565b60006020820190508181036000830152613ac781613531565b9050919050565b60006020820190508181036000830152613ae781613571565b9050919050565b60006020820190508181036000830152613b07816135d7565b9050919050565b60006020820190508181036000830152613b278161363d565b9050919050565b6000604082019050613b4360008301846136a3565b92915050565b600060e082019050613b5e60008301846136d2565b92915050565b60006020820190508181036000830152613b7e8184613760565b905092915050565b600060a082019050613b9b60008301846137ca565b92915050565b60006020820190508181036000830152613bbb8184613832565b905092915050565b6000602082019050613bd86000830184613914565b92915050565b6000608082019050613bf36000830187613914565b613c00602083018661331a565b613c0d6040830185613914565b613c1a6060830184613356565b95945050505050565b600060a082019050613c386000830188613914565b613c45602083018761331a565b613c526040830186613914565b613c5f6060830185613356565b613c6c6080830184613914565b9695505050505050565b6000608082019050613c8b6000830187613914565b8181036020830152613c9d81866133f8565b90508181036040830152613cb181856133f8565b9050613cc06060830184613914565b95945050505050565b600061012082019050613cdf600083018c613914565b8181036020830152613cf1818b6133f8565b9050613d00604083018a613914565b613d0d6060830189613914565b613d1a6080830188613392565b613d2760a0830187613914565b81810360c0830152613d3981866133f8565b905081810360e0830152613d4d81856133f8565b9050613d5d61010083018461331a565b9a9950505050505050505050565b600060e082019050613d80600083018a613914565b613d8d6020830189613914565b613d9a6040830188613914565b613da76060830187613914565b613db46080830186613338565b613dc160a08301856133b0565b613dce60c083018461331a565b98975050505050505050565b6000604051905081810181811067ffffffffffffffff82111715613e0157613e0061411c565b5b8060405250919050565b600067ffffffffffffffff821115613e2657613e2561411c565b5b601f19601f8301169050602081019050919050565b600081519050919050565b600082825260208201905092915050565b600082825260208201905092915050565b6000613e7382613f80565b9150613e7e83613f80565b9250817fffffffffffffffffffffffffffffffffffffffffffffffffffffffffffffffff0483118215151615613eb757613eb661408f565b5b828202905092915050565b6000613ecd82613f80565b9150613ed883613f80565b925082821015613eeb57613eea61408f565b5b828203905092915050565b6000613f0182613f60565b9050919050565b60008115159050919050565b6000819050613f228261415c565b919050565b6000819050613f3582614170565b919050565b6000819050613f4882614184565b919050565b6000819050613f5b82614198565b919050565b600073ffffffffffffffffffffffffffffffffffffffff82169050919050565b6000819050919050565b6000613f9582613f14565b9050919050565b6000613fa782613f27565b9050919050565b6000613fb982613f3a565b9050919050565b6000613fcb82613f4d565b9050919050565b82818337600083830152505050565b60005b83811015613fff578082015181840152602081019050613fe4565b8381111561400e576000848401525b50505050565b6000600282049050600182168061402c57607f821691505b602082108114156140405761403f6140ed565b5b50919050565b600061405182613f80565b91507fffffffffffffffffffffffffffffffffffffffffffffffffffffffffffffffff8214156140845761408361408f565b5b600182019050919050565b7f4e487b7100000000000000000000000000000000000000000000000000000000600052601160045260246000fd5b7f4e487b7100000000000000000000000000000000000000000000000000000000600052602160045260246000fd5b7f4e487b7100000000000000000000000000000000000000000000000000000000600052602260045260246000fd5b7f4e487b7100000000000000000000000000000000000000000000000000000000600052604160045260246000fd5b6000601f19601f8301169050919050565b6003811061416d5761416c6140be565b5b50565b60078110614181576141806140be565b5b50565b60038110614195576141946140be565b5b50565b600281106141a9576141a86140be565b5b50565b6141b581613ef6565b81146141c057600080fd5b50565b6141cc81613f08565b81146141d757600080fd5b50565b600381106141e757600080fd5b50565b600781106141f757600080fd5b50565b6002811061420757600080fd5b50565b61421381613f80565b811461421e57600080fd5b5056fea264697066735822122055006e7bcd47a23bc2d66152b4dd597d9256b8d86a95e2052ce0ed9ae4967db564736f6c63430008000033",
  "linkReferences": {},
  "deployedLinkReferences": {}
}