{
  "_format": "hh-sol-artifact-1",
  "contractName": "CollecteurProducteur",
  "sourceName": "contracts/CollecteurProducteur.sol",
  "abi": [
    {
      "inputs": [
        {
          "internalType": "address",
          "name": "_addrCE",
          "type": "address"
        },
        {
          "internalType": "address",
          "name": "_gestionnaireActeurs",
          "type": "address"
        },
        {
          "internalType": "address",
          "name": "_producteurEnPhaseCulture",
          "type": "address"
        }
      ],
      "stateMutability": "nonpayable",
      "type": "constructor"
    },
    {
      "inputs": [
        {
          "internalType": "uint32",
          "name": "_idParcelle",
          "type": "uint32"
        },
        {
          "internalType": "uint32",
          "name": "_quantite",
          "type": "uint32"
        },
        {
          "internalType": "uint32",
          "name": "_prix",
          "type": "uint32"
        },
        {
          "internalType": "string",
          "name": "_dateRecolte",
          "type": "string"
        },
        {
          "internalType": "string",
          "name": "_nomProduit",
          "type": "string"
        }
      ],
      "name": "ajoutRecolte",
      "outputs": [],
      "stateMutability": "nonpayable",
      "type": "function"
    },
    {
      "inputs": [
        {
          "internalType": "uint32",
          "name": "_idRecolte",
          "type": "uint32"
        },
        {
          "internalType": "string",
          "name": "_certificat",
          "type": "string"
        }
      ],
      "name": "certifieRecolte",
      "outputs": [],
      "stateMutability": "nonpayable",
      "type": "function"
    },
    {
      "inputs": [
        {
          "internalType": "uint32",
          "name": "",
          "type": "uint32"
        }
      ],
      "name": "commandes",
      "outputs": [
        {
          "internalType": "uint32",
          "name": "id",
          "type": "uint32"
        },
        {
          "internalType": "uint32",
          "name": "idRecolte",
          "type": "uint32"
        },
        {
          "internalType": "uint32",
          "name": "quantite",
          "type": "uint32"
        },
        {
          "internalType": "uint32",
          "name": "prix",
          "type": "uint32"
        },
        {
          "internalType": "bool",
          "name": "payer",
          "type": "bool"
        },
        {
          "internalType": "enum StructLib.StatutTransport",
          "name": "statutTransport",
          "type": "uint8"
        },
        {
          "internalType": "address",
          "name": "producteur",
          "type": "address"
        },
        {
          "internalType": "address",
          "name": "collecteur",
          "type": "address"
        }
      ],
      "stateMutability": "view",
      "type": "function"
    },
    {
      "inputs": [],
      "name": "compteurCommandes",
      "outputs": [
        {
          "internalType": "uint32",
          "name": "",
          "type": "uint32"
        }
      ],
      "stateMutability": "view",
      "type": "function"
    },
    {
      "inputs": [],
      "name": "compteurPaiements",
      "outputs": [
        {
          "internalType": "uint32",
          "name": "",
          "type": "uint32"
        }
      ],
      "stateMutability": "view",
      "type": "function"
    },
    {
      "inputs": [],
      "name": "compteurRecoltes",
      "outputs": [
        {
          "internalType": "uint32",
          "name": "",
          "type": "uint32"
        }
      ],
      "stateMutability": "view",
      "type": "function"
    },
    {
      "inputs": [
        {
          "internalType": "uint32",
          "name": "_idCommande",
          "type": "uint32"
        },
        {
          "internalType": "uint32",
          "name": "_montant",
          "type": "uint32"
        },
        {
          "internalType": "enum StructLib.ModePaiement",
          "name": "_mode",
          "type": "uint8"
        }
      ],
      "name": "effectuerPaiementVersProducteur",
      "outputs": [],
      "stateMutability": "payable",
      "type": "function"
    },
    {
      "inputs": [],
      "name": "gestionnaireActeurs",
      "outputs": [
        {
          "internalType": "contract GestionnaireActeurs",
          "name": "",
          "type": "address"
        }
      ],
      "stateMutability": "view",
      "type": "function"
    },
    {
      "inputs": [
        {
          "internalType": "uint32",
          "name": "_id",
          "type": "uint32"
        }
      ],
      "name": "getCommande",
      "outputs": [
        {
          "components": [
            {
              "internalType": "uint32",
              "name": "id",
              "type": "uint32"
            },
            {
              "internalType": "uint32",
              "name": "idRecolte",
              "type": "uint32"
            },
            {
              "internalType": "uint32",
              "name": "quantite",
              "type": "uint32"
            },
            {
              "internalType": "uint32",
              "name": "prix",
              "type": "uint32"
            },
            {
              "internalType": "bool",
              "name": "payer",
              "type": "bool"
            },
            {
              "internalType": "enum StructLib.StatutTransport",
              "name": "statutTransport",
              "type": "uint8"
            },
            {
              "internalType": "address",
              "name": "producteur",
              "type": "address"
            },
            {
              "internalType": "address",
              "name": "collecteur",
              "type": "address"
            }
          ],
          "internalType": "struct StructLib.CommandeRecolte",
          "name": "",
          "type": "tuple"
        }
      ],
      "stateMutability": "view",
      "type": "function"
    },
    {
      "inputs": [],
      "name": "getCompteurCommandes",
      "outputs": [
        {
          "internalType": "uint32",
          "name": "",
          "type": "uint32"
        }
      ],
      "stateMutability": "view",
      "type": "function"
    },
    {
      "inputs": [],
      "name": "getCompteurPaiments",
      "outputs": [
        {
          "internalType": "uint32",
          "name": "",
          "type": "uint32"
        }
      ],
      "stateMutability": "view",
      "type": "function"
    },
    {
      "inputs": [],
      "name": "getCompteurRecoltes",
      "outputs": [
        {
          "internalType": "uint32",
          "name": "",
          "type": "uint32"
        }
      ],
      "stateMutability": "view",
      "type": "function"
    },
    {
      "inputs": [
        {
          "internalType": "uint32",
          "name": "_id",
          "type": "uint32"
        }
      ],
      "name": "getPaiement",
      "outputs": [
        {
          "components": [
            {
              "internalType": "uint32",
              "name": "id",
              "type": "uint32"
            },
            {
              "internalType": "address",
              "name": "payeur",
              "type": "address"
            },
            {
              "internalType": "address",
              "name": "vendeur",
              "type": "address"
            },
            {
              "internalType": "uint32",
              "name": "montant",
              "type": "uint32"
            },
            {
              "internalType": "enum StructLib.ModePaiement",
              "name": "mode",
              "type": "uint8"
            },
            {
              "internalType": "uint256",
              "name": "timestamp",
              "type": "uint256"
            }
          ],
          "internalType": "struct StructLib.Paiement",
          "name": "",
          "type": "tuple"
        }
      ],
      "stateMutability": "view",
      "type": "function"
    },
    {
      "inputs": [
        {
          "internalType": "uint32",
          "name": "_idRecolte",
          "type": "uint32"
        }
      ],
      "name": "getRecolte",
      "outputs": [
        {
          "components": [
            {
              "internalType": "uint32",
              "name": "id",
              "type": "uint32"
            },
            {
              "internalType": "uint32",
              "name": "idParcelle",
              "type": "uint32"
            },
            {
              "internalType": "uint32",
              "name": "quantite",
              "type": "uint32"
            },
            {
              "internalType": "uint32",
              "name": "prixUnit",
              "type": "uint32"
            },
            {
              "internalType": "bool",
              "name": "certifie",
              "type": "bool"
            },
            {
              "internalType": "string",
              "name": "certificatPhytosanitaire",
              "type": "string"
            },
            {
              "internalType": "string",
              "name": "dateRecolte",
              "type": "string"
            },
            {
              "internalType": "address",
              "name": "producteur",
              "type": "address"
            },
            {
              "internalType": "string",
              "name": "nomProduit",
              "type": "string"
            }
          ],
          "internalType": "struct StructLib.Recolte",
          "name": "",
          "type": "tuple"
        }
      ],
      "stateMutability": "view",
      "type": "function"
    },
    {
      "inputs": [
        {
          "internalType": "uint32",
          "name": "",
          "type": "uint32"
        }
      ],
      "name": "paiements",
      "outputs": [
        {
          "internalType": "uint32",
          "name": "id",
          "type": "uint32"
        },
        {
          "internalType": "address",
          "name": "payeur",
          "type": "address"
        },
        {
          "internalType": "address",
          "name": "vendeur",
          "type": "address"
        },
        {
          "internalType": "uint32",
          "name": "montant",
          "type": "uint32"
        },
        {
          "internalType": "enum StructLib.ModePaiement",
          "name": "mode",
          "type": "uint8"
        },
        {
          "internalType": "uint256",
          "name": "timestamp",
          "type": "uint256"
        }
      ],
      "stateMutability": "view",
      "type": "function"
    },
    {
      "inputs": [
        {
          "internalType": "uint32",
          "name": "_idRecolte",
          "type": "uint32"
        },
        {
          "internalType": "uint32",
          "name": "_quantite",
          "type": "uint32"
        }
      ],
      "name": "passerCommandeVersProducteur",
      "outputs": [],
      "stateMutability": "nonpayable",
      "type": "function"
    },
    {
      "inputs": [],
      "name": "producteurEnPhaseCulture",
      "outputs": [
        {
          "internalType": "contract ProducteurEnPhaseCulture",
          "name": "",
          "type": "address"
        }
      ],
      "stateMutability": "view",
      "type": "function"
    },
    {
      "inputs": [
        {
          "internalType": "uint32",
          "name": "",
          "type": "uint32"
        }
      ],
      "name": "recoltes",
      "outputs": [
        {
          "internalType": "uint32",
          "name": "id",
          "type": "uint32"
        },
        {
          "internalType": "uint32",
          "name": "idParcelle",
          "type": "uint32"
        },
        {
          "internalType": "uint32",
          "name": "quantite",
          "type": "uint32"
        },
        {
          "internalType": "uint32",
          "name": "prixUnit",
          "type": "uint32"
        },
        {
          "internalType": "bool",
          "name": "certifie",
          "type": "bool"
        },
        {
          "internalType": "string",
          "name": "certificatPhytosanitaire",
          "type": "string"
        },
        {
          "internalType": "string",
          "name": "dateRecolte",
          "type": "string"
        },
        {
          "internalType": "address",
          "name": "producteur",
          "type": "address"
        },
        {
          "internalType": "string",
          "name": "nomProduit",
          "type": "string"
        }
      ],
      "stateMutability": "view",
      "type": "function"
    },
    {
      "inputs": [
        {
          "internalType": "address",
          "name": "_addr",
          "type": "address"
        }
      ],
      "name": "setGestionnaireActeurs",
      "outputs": [],
      "stateMutability": "nonpayable",
      "type": "function"
    },
    {
      "inputs": [
        {
          "internalType": "address",
          "name": "_addr",
          "type": "address"
        }
      ],
      "name": "setModuleCE",
      "outputs": [],
      "stateMutability": "nonpayable",
      "type": "function"
    },
    {
      "inputs": [
        {
          "internalType": "address",
          "name": "_addr",
          "type": "address"
        }
      ],
      "name": "setProducteurEnPhaseCulture",
      "outputs": [],
      "stateMutability": "nonpayable",
      "type": "function"
    }
  ],
  "bytecode": "0x60806040523480156200001157600080fd5b50604051620049f7380380620049f783398181016040528101906200003791906200011a565b82600560046101000a81548173ffffffffffffffffffffffffffffffffffffffff021916908373ffffffffffffffffffffffffffffffffffffffff16021790555081600660006101000a81548173ffffffffffffffffffffffffffffffffffffffff021916908373ffffffffffffffffffffffffffffffffffffffff16021790555080600760006101000a81548173ffffffffffffffffffffffffffffffffffffffff021916908373ffffffffffffffffffffffffffffffffffffffff160217905550505050620001be565b6000815190506200011481620001a4565b92915050565b6000806000606084860312156200013057600080fd5b6000620001408682870162000103565b9350506020620001538682870162000103565b9250506040620001668682870162000103565b9150509250925092565b60006200017d8262000184565b9050919050565b600073ffffffffffffffffffffffffffffffffffffffff82169050919050565b620001af8162000170565b8114620001bb57600080fd5b50565b61482980620001ce6000396000f3fe60806040526004361061012a5760003560e01c80637babcffa116100ab578063b5fe20761161006f578063b5fe207614610409578063cb39487614610434578063cd3df1ed1461045f578063cd60462b1461048a578063d84e632d146104b5578063fd643101146104de5761012a565b80637babcffa146103125780638428d543146103545780639d75741d146103705780639e942cd414610399578063b38d3aea146103c45761012a565b80634383fca1116100f25780634383fca114610212578063488dee201461023b57806350346b0b146102665780635293ea51146102915780636f3fd6c5146102ce5761012a565b80630b215e641461012f57806319f1c2901461016c578063257687e6146101975780632d5b3658146101c05780633e7a6049146101e9575b600080fd5b34801561013b57600080fd5b50610156600480360381019061015191906135dd565b61051b565b60405161016391906140b1565b60405180910390f35b34801561017857600080fd5b506101816106dd565b60405161018e91906140ee565b60405180910390f35b3480156101a357600080fd5b506101be60048036038101906101b9919061354a565b6106f7565b005b3480156101cc57600080fd5b506101e760048036038101906101e29190613683565b61073b565b005b3480156101f557600080fd5b50610210600480360381019061020b919061354a565b610f6a565b005b34801561021e57600080fd5b506102396004803603810190610234919061370e565b610fae565b005b34801561024757600080fd5b50610250611518565b60405161025d91906140ee565b60405180910390f35b34801561027257600080fd5b5061027b61152e565b6040516102889190613efa565b60405180910390f35b34801561029d57600080fd5b506102b860048036038101906102b391906135dd565b611554565b6040516102c59190614095565b60405180910390f35b3480156102da57600080fd5b506102f560048036038101906102f091906135dd565b611774565b6040516103099897969594939291906141ee565b60405180910390f35b34801561031e57600080fd5b50610339600480360381019061033491906135dd565b611856565b60405161034b96959493929190614109565b60405180910390f35b61036e600480360381019061036991906136bf565b6118ff565b005b34801561037c57600080fd5b506103976004803603810190610392919061362f565b612330565b005b3480156103a557600080fd5b506103ae612537565b6040516103bb9190613edf565b60405180910390f35b3480156103d057600080fd5b506103eb60048036038101906103e691906135dd565b61255d565b6040516104009998979695949392919061426c565b60405180910390f35b34801561041557600080fd5b5061041e6127b0565b60405161042b91906140ee565b60405180910390f35b34801561044057600080fd5b506104496127ca565b60405161045691906140ee565b60405180910390f35b34801561046b57600080fd5b506104746127e0565b60405161048191906140ee565b60405180910390f35b34801561049657600080fd5b5061049f6127f6565b6040516104ac91906140ee565b60405180910390f35b3480156104c157600080fd5b506104dc60048036038101906104d7919061354a565b612810565b005b3480156104ea57600080fd5b50610505600480360381019061050091906135dd565b612854565b60405161051291906140cc565b60405180910390f35b610523612b4c565b600260008363ffffffff1663ffffffff1681526020019081526020016000206040518060c00160405290816000820160009054906101000a900463ffffffff1663ffffffff1663ffffffff1681526020016000820160049054906101000a900473ffffffffffffffffffffffffffffffffffffffff1673ffffffffffffffffffffffffffffffffffffffff1673ffffffffffffffffffffffffffffffffffffffff1681526020016001820160009054906101000a900473ffffffffffffffffffffffffffffffffffffffff1673ffffffffffffffffffffffffffffffffffffffff1673ffffffffffffffffffffffffffffffffffffffff1681526020016001820160149054906101000a900463ffffffff1663ffffffff1663ffffffff1681526020016001820160189054906101000a900460ff166002811115610690577f4e487b7100000000000000000000000000000000000000000000000000000000600052602160045260246000fd5b60028111156106c8577f4e487b7100000000000000000000000000000000000000000000000000000000600052602160045260246000fd5b81526020016002820154815250509050919050565b6000600360009054906101000a900463ffffffff16905090565b80600760006101000a81548173ffffffffffffffffffffffffffffffffffffffff021916908373ffffffffffffffffffffffffffffffffffffffff16021790555050565b600660009054906101000a900473ffffffffffffffffffffffffffffffffffffffff1673ffffffffffffffffffffffffffffffffffffffff1663d1e47bb33360036040518363ffffffff1660e01b8152600401610799929190613eb6565b60206040518083038186803b1580156107b157600080fd5b505afa1580156107c5573d6000803e3d6000fd5b505050506040513d601f19601f820116820180604052508101906107e99190613573565b610828576040517f08c379a000000000000000000000000000000000000000000000000000000000815260040161081f90614075565b60405180910390fd5b60008060008463ffffffff1663ffffffff168152602001908152602001600020604051806101200160405290816000820160009054906101000a900463ffffffff1663ffffffff1663ffffffff1681526020016000820160049054906101000a900463ffffffff1663ffffffff1663ffffffff1681526020016000820160089054906101000a900463ffffffff1663ffffffff1663ffffffff16815260200160008201600c9054906101000a900463ffffffff1663ffffffff1663ffffffff1681526020016000820160109054906101000a900460ff161515151581526020016001820180546109179061460f565b80601f01602080910402602001604051908101604052809291908181526020018280546109439061460f565b80156109905780601f1061096557610100808354040283529160200191610990565b820191906000526020600020905b81548152906001019060200180831161097357829003601f168201915b505050505081526020016002820180546109a99061460f565b80601f01602080910402602001604051908101604052809291908181526020018280546109d59061460f565b8015610a225780601f106109f757610100808354040283529160200191610a22565b820191906000526020600020905b815481529060010190602001808311610a0557829003601f168201915b505050505081526020016003820160009054906101000a900473ffffffffffffffffffffffffffffffffffffffff1673ffffffffffffffffffffffffffffffffffffffff1673ffffffffffffffffffffffffffffffffffffffff168152602001600482018054610a919061460f565b80601f0160208091040260200160405190810160405280929190818152602001828054610abd9061460f565b8015610b0a5780601f10610adf57610100808354040283529160200191610b0a565b820191906000526020600020905b815481529060010190602001808311610aed57829003601f168201915b50505050508152505090508060800151610b59576040517f08c379a0000000000000000000000000000000000000000000000000000000008152600401610b5090613fb5565b60405180910390fd5b600160009054906101000a900463ffffffff1663ffffffff168363ffffffff161115610bba576040517f08c379a0000000000000000000000000000000000000000000000000000000008152600401610bb190613ff5565b60405180910390fd5b806040015163ffffffff168263ffffffff161115610c0d576040517f08c379a0000000000000000000000000000000000000000000000000000000008152600401610c0490614055565b60405180910390fd5b816000808563ffffffff1663ffffffff16815260200190815260200160002060000160088282829054906101000a900463ffffffff16610c4d919061448a565b92506101000a81548163ffffffff021916908363ffffffff1602179055506005600081819054906101000a900463ffffffff1680929190610c8d90614641565b91906101000a81548163ffffffff021916908363ffffffff160217905550506000828260600151610cbe919061444c565b9050604051806101000160405280600560009054906101000a900463ffffffff1663ffffffff1681526020018563ffffffff1681526020018463ffffffff1681526020018263ffffffff16815260200160001515815260200160006001811115610d51577f4e487b7100000000000000000000000000000000000000000000000000000000600052602160045260246000fd5b81526020018360e0015173ffffffffffffffffffffffffffffffffffffffff1681526020013373ffffffffffffffffffffffffffffffffffffffff1681525060046000600560009054906101000a900463ffffffff1663ffffffff1663ffffffff16815260200190815260200160002060008201518160000160006101000a81548163ffffffff021916908363ffffffff16021790555060208201518160000160046101000a81548163ffffffff021916908363ffffffff16021790555060408201518160000160086101000a81548163ffffffff021916908363ffffffff160217905550606082015181600001600c6101000a81548163ffffffff021916908363ffffffff16021790555060808201518160000160106101000a81548160ff02191690831515021790555060a08201518160000160116101000a81548160ff02191690836001811115610ece577f4e487b7100000000000000000000000000000000000000000000000000000000600052602160045260246000fd5b021790555060c08201518160010160006101000a81548173ffffffffffffffffffffffffffffffffffffffff021916908373ffffffffffffffffffffffffffffffffffffffff16021790555060e08201518160020160006101000a81548173ffffffffffffffffffffffffffffffffffffffff021916908373ffffffffffffffffffffffffffffffffffffffff16021790555090505050505050565b80600660006101000a81548173ffffffffffffffffffffffffffffffffffffffff021916908373ffffffffffffffffffffffffffffffffffffffff16021790555050565b600660009054906101000a900473ffffffffffffffffffffffffffffffffffffffff1673ffffffffffffffffffffffffffffffffffffffff1663d1e47bb33360006040518363ffffffff1660e01b815260040161100c929190613eb6565b60206040518083038186803b15801561102457600080fd5b505afa158015611038573d6000803e3d6000fd5b505050506040513d601f19601f8201168201806040525081019061105c9190613573565b61109b576040517f08c379a000000000000000000000000000000000000000000000000000000000815260040161109290613f15565b60405180910390fd5b6000600760009054906101000a900473ffffffffffffffffffffffffffffffffffffffff1673ffffffffffffffffffffffffffffffffffffffff1663421b3e08876040518263ffffffff1660e01b81526004016110f891906140ee565b60006040518083038186803b15801561111057600080fd5b505afa158015611124573d6000803e3d6000fd5b505050506040513d6000823e3d601f19601f8201168201806040525081019061114d919061359c565b9050600760009054906101000a900473ffffffffffffffffffffffffffffffffffffffff1673ffffffffffffffffffffffffffffffffffffffff166331686f416040518163ffffffff1660e01b815260040160206040518083038186803b1580156111b757600080fd5b505afa1580156111cb573d6000803e3d6000fd5b505050506040513d601f19601f820116820180604052508101906111ef9190613606565b63ffffffff168663ffffffff16111561123d576040517f08c379a000000000000000000000000000000000000000000000000000000000815260040161123490613f95565b60405180910390fd5b3373ffffffffffffffffffffffffffffffffffffffff16816020015173ffffffffffffffffffffffffffffffffffffffff16146112af576040517f08c379a00000000000000000000000000000000000000000000000000000000081526004016112a690613fd5565b60405180910390fd5b6001600081819054906101000a900463ffffffff16809291906112d190614641565b91906101000a81548163ffffffff021916908363ffffffff16021790555050604051806101200160405280600160009054906101000a900463ffffffff1663ffffffff1681526020018763ffffffff1681526020018663ffffffff1681526020018563ffffffff1681526020016000151581526020016040518060200160405280600081525081526020018481526020013373ffffffffffffffffffffffffffffffffffffffff16815260200183815250600080600160009054906101000a900463ffffffff1663ffffffff1663ffffffff16815260200190815260200160002060008201518160000160006101000a81548163ffffffff021916908363ffffffff16021790555060208201518160000160046101000a81548163ffffffff021916908363ffffffff16021790555060408201518160000160086101000a81548163ffffffff021916908363ffffffff160217905550606082015181600001600c6101000a81548163ffffffff021916908363ffffffff16021790555060808201518160000160106101000a81548160ff02191690831515021790555060a082015181600101908051906020019061148a929190612bf2565b5060c08201518160020190805190602001906114a7929190612bf2565b5060e08201518160030160006101000a81548173ffffffffffffffffffffffffffffffffffffffff021916908373ffffffffffffffffffffffffffffffffffffffff16021790555061010082015181600401908051906020019061150c929190612bf2565b50905050505050505050565b600560009054906101000a900463ffffffff1681565b600760009054906101000a900473ffffffffffffffffffffffffffffffffffffffff1681565b61155c612c78565b600460008363ffffffff1663ffffffff168152602001908152602001600020604051806101000160405290816000820160009054906101000a900463ffffffff1663ffffffff1663ffffffff1681526020016000820160049054906101000a900463ffffffff1663ffffffff1663ffffffff1681526020016000820160089054906101000a900463ffffffff1663ffffffff1663ffffffff16815260200160008201600c9054906101000a900463ffffffff1663ffffffff1663ffffffff1681526020016000820160109054906101000a900460ff161515151581526020016000820160119054906101000a900460ff166001811115611685577f4e487b7100000000000000000000000000000000000000000000000000000000600052602160045260246000fd5b60018111156116bd577f4e487b7100000000000000000000000000000000000000000000000000000000600052602160045260246000fd5b81526020016001820160009054906101000a900473ffffffffffffffffffffffffffffffffffffffff1673ffffffffffffffffffffffffffffffffffffffff1673ffffffffffffffffffffffffffffffffffffffff1681526020016002820160009054906101000a900473ffffffffffffffffffffffffffffffffffffffff1673ffffffffffffffffffffffffffffffffffffffff1673ffffffffffffffffffffffffffffffffffffffff16815250509050919050565b60046020528060005260406000206000915090508060000160009054906101000a900463ffffffff16908060000160049054906101000a900463ffffffff16908060000160089054906101000a900463ffffffff169080600001600c9054906101000a900463ffffffff16908060000160109054906101000a900460ff16908060000160119054906101000a900460ff16908060010160009054906101000a900473ffffffffffffffffffffffffffffffffffffffff16908060020160009054906101000a900473ffffffffffffffffffffffffffffffffffffffff16905088565b60026020528060005260406000206000915090508060000160009054906101000a900463ffffffff16908060000160049054906101000a900473ffffffffffffffffffffffffffffffffffffffff16908060010160009054906101000a900473ffffffffffffffffffffffffffffffffffffffff16908060010160149054906101000a900463ffffffff16908060010160189054906101000a900460ff16908060020154905086565b600660009054906101000a900473ffffffffffffffffffffffffffffffffffffffff1673ffffffffffffffffffffffffffffffffffffffff1663d1e47bb33360036040518363ffffffff1660e01b815260040161195d929190613eb6565b60206040518083038186803b15801561197557600080fd5b505afa158015611989573d6000803e3d6000fd5b505050506040513d601f19601f820116820180604052508101906119ad9190613573565b6119ec576040517f08c379a00000000000000000000000000000000000000000000000000000000081526004016119e390614075565b60405180910390fd5b6000600460008563ffffffff1663ffffffff168152602001908152602001600020604051806101000160405290816000820160009054906101000a900463ffffffff1663ffffffff1663ffffffff1681526020016000820160049054906101000a900463ffffffff1663ffffffff1663ffffffff1681526020016000820160089054906101000a900463ffffffff1663ffffffff1663ffffffff16815260200160008201600c9054906101000a900463ffffffff1663ffffffff1663ffffffff1681526020016000820160109054906101000a900460ff161515151581526020016000820160119054906101000a900460ff166001811115611b17577f4e487b7100000000000000000000000000000000000000000000000000000000600052602160045260246000fd5b6001811115611b4f577f4e487b7100000000000000000000000000000000000000000000000000000000600052602160045260246000fd5b81526020016001820160009054906101000a900473ffffffffffffffffffffffffffffffffffffffff1673ffffffffffffffffffffffffffffffffffffffff1673ffffffffffffffffffffffffffffffffffffffff1681526020016002820160009054906101000a900473ffffffffffffffffffffffffffffffffffffffff1673ffffffffffffffffffffffffffffffffffffffff1673ffffffffffffffffffffffffffffffffffffffff168152505090506000806000836020015163ffffffff1663ffffffff168152602001908152602001600020604051806101200160405290816000820160009054906101000a900463ffffffff1663ffffffff1663ffffffff1681526020016000820160049054906101000a900463ffffffff1663ffffffff1663ffffffff1681526020016000820160089054906101000a900463ffffffff1663ffffffff1663ffffffff16815260200160008201600c9054906101000a900463ffffffff1663ffffffff1663ffffffff1681526020016000820160109054906101000a900460ff16151515158152602001600182018054611cf49061460f565b80601f0160208091040260200160405190810160405280929190818152602001828054611d209061460f565b8015611d6d5780601f10611d4257610100808354040283529160200191611d6d565b820191906000526020600020905b815481529060010190602001808311611d5057829003601f168201915b50505050508152602001600282018054611d869061460f565b80601f0160208091040260200160405190810160405280929190818152602001828054611db29061460f565b8015611dff5780601f10611dd457610100808354040283529160200191611dff565b820191906000526020600020905b815481529060010190602001808311611de257829003601f168201915b505050505081526020016003820160009054906101000a900473ffffffffffffffffffffffffffffffffffffffff1673ffffffffffffffffffffffffffffffffffffffff1673ffffffffffffffffffffffffffffffffffffffff168152602001600482018054611e6e9061460f565b80601f0160208091040260200160405190810160405280929190818152602001828054611e9a9061460f565b8015611ee75780601f10611ebc57610100808354040283529160200191611ee7565b820191906000526020600020905b815481529060010190602001808311611eca57829003601f168201915b5050505050815250509050600560009054906101000a900463ffffffff1663ffffffff168563ffffffff161115611f53576040517f08c379a0000000000000000000000000000000000000000000000000000000008152600401611f4a90613f55565b60405180910390fd5b816080015115611f98576040517f08c379a0000000000000000000000000000000000000000000000000000000008152600401611f8f90614035565b60405180910390fd5b816060015163ffffffff168463ffffffff1614611fea576040517f08c379a0000000000000000000000000000000000000000000000000000000008152600401611fe190613f35565b60405180910390fd5b600560049054906101000a900473ffffffffffffffffffffffffffffffffffffffff1673ffffffffffffffffffffffffffffffffffffffff16639aed4540836020015184604001518460600151338661010001518760c001518860a001516040518863ffffffff1660e01b815260040161206a979695949392919061416a565b600060405180830381600087803b15801561208457600080fd5b505af1158015612098573d6000803e3d6000fd5b505050506001600460008763ffffffff1663ffffffff16815260200190815260200160002060000160106101000a81548160ff0219169083151502179055506003600081819054906101000a900463ffffffff16809291906120f990614641565b91906101000a81548163ffffffff021916908363ffffffff160217905550506040518060c00160405280600360009054906101000a900463ffffffff1663ffffffff1681526020013373ffffffffffffffffffffffffffffffffffffffff1681526020018360c0015173ffffffffffffffffffffffffffffffffffffffff1681526020018563ffffffff1681526020018460028111156121c2577f4e487b7100000000000000000000000000000000000000000000000000000000600052602160045260246000fd5b815260200142815250600260008763ffffffff1663ffffffff16815260200190815260200160002060008201518160000160006101000a81548163ffffffff021916908363ffffffff16021790555060208201518160000160046101000a81548173ffffffffffffffffffffffffffffffffffffffff021916908373ffffffffffffffffffffffffffffffffffffffff16021790555060408201518160010160006101000a81548173ffffffffffffffffffffffffffffffffffffffff021916908373ffffffffffffffffffffffffffffffffffffffff16021790555060608201518160010160146101000a81548163ffffffff021916908363ffffffff16021790555060808201518160010160186101000a81548160ff02191690836002811115612317577f4e487b7100000000000000000000000000000000000000000000000000000000600052602160045260246000fd5b021790555060a082015181600201559050505050505050565b600660009054906101000a900473ffffffffffffffffffffffffffffffffffffffff1673ffffffffffffffffffffffffffffffffffffffff1663d1e47bb33360026040518363ffffffff1660e01b815260040161238e929190613eb6565b60206040518083038186803b1580156123a657600080fd5b505afa1580156123ba573d6000803e3d6000fd5b505050506040513d601f19601f820116820180604052508101906123de9190613573565b61241d576040517f08c379a000000000000000000000000000000000000000000000000000000000815260040161241490613f75565b60405180910390fd5b600160009054906101000a900463ffffffff1663ffffffff168263ffffffff16111561247e576040517f08c379a000000000000000000000000000000000000000000000000000000000815260040161247590613ff5565b60405180910390fd5b6000815114156124c3576040517f08c379a00000000000000000000000000000000000000000000000000000000081526004016124ba90614015565b60405180910390fd5b60016000808463ffffffff1663ffffffff16815260200190815260200160002060000160106101000a81548160ff021916908315150217905550806000808463ffffffff1663ffffffff1681526020019081526020016000206001019080519060200190612532929190612bf2565b505050565b600660009054906101000a900473ffffffffffffffffffffffffffffffffffffffff1681565b60006020528060005260406000206000915090508060000160009054906101000a900463ffffffff16908060000160049054906101000a900463ffffffff16908060000160089054906101000a900463ffffffff169080600001600c9054906101000a900463ffffffff16908060000160109054906101000a900460ff16908060010180546125eb9061460f565b80601f01602080910402602001604051908101604052809291908181526020018280546126179061460f565b80156126645780601f1061263957610100808354040283529160200191612664565b820191906000526020600020905b81548152906001019060200180831161264757829003601f168201915b5050505050908060020180546126799061460f565b80601f01602080910402602001604051908101604052809291908181526020018280546126a59061460f565b80156126f25780601f106126c7576101008083540402835291602001916126f2565b820191906000526020600020905b8154815290600101906020018083116126d557829003601f168201915b5050505050908060030160009054906101000a900473ffffffffffffffffffffffffffffffffffffffff169080600401805461272d9061460f565b80601f01602080910402602001604051908101604052809291908181526020018280546127599061460f565b80156127a65780601f1061277b576101008083540402835291602001916127a6565b820191906000526020600020905b81548152906001019060200180831161278957829003601f168201915b5050505050905089565b6000600560009054906101000a900463ffffffff16905090565b600160009054906101000a900463ffffffff1681565b600360009054906101000a900463ffffffff1681565b6000600160009054906101000a900463ffffffff16905090565b80600560046101000a81548173ffffffffffffffffffffffffffffffffffffffff021916908373ffffffffffffffffffffffffffffffffffffffff16021790555050565b61285c612d3b565b6000808363ffffffff1663ffffffff168152602001908152602001600020604051806101200160405290816000820160009054906101000a900463ffffffff1663ffffffff1663ffffffff1681526020016000820160049054906101000a900463ffffffff1663ffffffff1663ffffffff1681526020016000820160089054906101000a900463ffffffff1663ffffffff1663ffffffff16815260200160008201600c9054906101000a900463ffffffff1663ffffffff1663ffffffff1681526020016000820160109054906101000a900460ff161515151581526020016001820180546129499061460f565b80601f01602080910402602001604051908101604052809291908181526020018280546129759061460f565b80156129c25780601f10612997576101008083540402835291602001916129c2565b820191906000526020600020905b8154815290600101906020018083116129a557829003601f168201915b505050505081526020016002820180546129db9061460f565b80601f0160208091040260200160405190810160405280929190818152602001828054612a079061460f565b8015612a545780601f10612a2957610100808354040283529160200191612a54565b820191906000526020600020905b815481529060010190602001808311612a3757829003601f168201915b505050505081526020016003820160009054906101000a900473ffffffffffffffffffffffffffffffffffffffff1673ffffffffffffffffffffffffffffffffffffffff1673ffffffffffffffffffffffffffffffffffffffff168152602001600482018054612ac39061460f565b80601f0160208091040260200160405190810160405280929190818152602001828054612aef9061460f565b8015612b3c5780601f10612b1157610100808354040283529160200191612b3c565b820191906000526020600020905b815481529060010190602001808311612b1f57829003601f168201915b5050505050815250509050919050565b6040518060c00160405280600063ffffffff168152602001600073ffffffffffffffffffffffffffffffffffffffff168152602001600073ffffffffffffffffffffffffffffffffffffffff168152602001600063ffffffff16815260200160006002811115612be5577f4e487b7100000000000000000000000000000000000000000000000000000000600052602160045260246000fd5b8152602001600081525090565b828054612bfe9061460f565b90600052602060002090601f016020900481019282612c205760008555612c67565b82601f10612c3957805160ff1916838001178555612c67565b82800160010185558215612c67579182015b82811115612c66578251825591602001919060010190612c4b565b5b509050612c749190612db7565b5090565b604051806101000160405280600063ffffffff168152602001600063ffffffff168152602001600063ffffffff168152602001600063ffffffff16815260200160001515815260200160006001811115612cfb577f4e487b7100000000000000000000000000000000000000000000000000000000600052602160045260246000fd5b8152602001600073ffffffffffffffffffffffffffffffffffffffff168152602001600073ffffffffffffffffffffffffffffffffffffffff1681525090565b604051806101200160405280600063ffffffff168152602001600063ffffffff168152602001600063ffffffff168152602001600063ffffffff1681526020016000151581526020016060815260200160608152602001600073ffffffffffffffffffffffffffffffffffffffff168152602001606081525090565b5b80821115612dd0576000816000905550600101612db8565b5090565b6000612de7612de28461433f565b61430e565b9050808382526020820190508260005b85811015612e275781518501612e0d88826130ff565b845260208401935060208301925050600181019050612df7565b5050509392505050565b6000612e44612e3f8461436b565b61430e565b9050808382526020820190508260005b85811015612e845781518501612e6a8882613129565b845260208401935060208301925050600181019050612e54565b5050509392505050565b6000612ea1612e9c84614397565b61430e565b9050808382526020820190508260005b85811015612ee15781518501612ec788826131cd565b845260208401935060208301925050600181019050612eb1565b5050509392505050565b6000612efe612ef9846143c3565b61430e565b9050808382526020820190508260005b85811015612f3e5781518501612f248882613259565b845260208401935060208301925050600181019050612f0e565b5050509392505050565b6000612f5b612f56846143ef565b61430e565b905082815260208101848484011115612f7357600080fd5b612f7e8482856145cd565b509392505050565b6000612f99612f94846143ef565b61430e565b905082815260208101848484011115612fb157600080fd5b612fbc8482856145dc565b509392505050565b600081359050612fd381614777565b92915050565b600081519050612fe881614777565b92915050565b600082601f830112612fff57600080fd5b815161300f848260208601612dd4565b91505092915050565b600082601f83011261302957600080fd5b8151613039848260208601612e31565b91505092915050565b600082601f83011261305357600080fd5b8151613063848260208601612e8e565b91505092915050565b600082601f83011261307d57600080fd5b815161308d848260208601612eeb565b91505092915050565b6000815190506130a58161478e565b92915050565b6000815190506130ba816147a5565b92915050565b6000813590506130cf816147b5565b92915050565b600082601f8301126130e657600080fd5b81356130f6848260208601612f48565b91505092915050565b600082601f83011261311057600080fd5b8151613120848260208601612f86565b91505092915050565b60006080828403121561313b57600080fd5b613145608061430e565b9050600061315584828501613535565b600083015250602082015167ffffffffffffffff81111561317557600080fd5b613181848285016130ff565b602083015250604082015167ffffffffffffffff8111156131a157600080fd5b6131ad848285016130ff565b60408301525060606131c18482850161350b565b60608301525092915050565b6000608082840312156131df57600080fd5b6131e9608061430e565b905060006131f984828501613535565b600083015250602061320d84828501612fd9565b602083015250604082015167ffffffffffffffff81111561322d57600080fd5b613239848285016130ff565b604083015250606061324d8482850161350b565b60608301525092915050565b60006060828403121561326b57600080fd5b613275606061430e565b9050600082015167ffffffffffffffff81111561329157600080fd5b61329d848285016130ff565b60008301525060206132b184828501613535565b60208301525060406132c584828501613096565b60408301525092915050565b60006101c082840312156132e457600080fd5b6132ef6101c061430e565b905060006132ff84828501613535565b600083015250602061331384828501612fd9565b602083015250604082015167ffffffffffffffff81111561333357600080fd5b61333f848285016130ff565b604083015250606082015167ffffffffffffffff81111561335f57600080fd5b61336b848285016130ff565b606083015250608061337f84828501613096565b60808301525060a0613393848285016130ab565b60a08301525060c082015167ffffffffffffffff8111156133b357600080fd5b6133bf848285016130ff565b60c08301525060e082015167ffffffffffffffff8111156133df57600080fd5b6133eb848285016130ff565b60e08301525061010082015167ffffffffffffffff81111561340c57600080fd5b61341884828501612fee565b6101008301525061012082015167ffffffffffffffff81111561343a57600080fd5b6134468482850161306c565b6101208301525061014082015167ffffffffffffffff81111561346857600080fd5b61347484828501613042565b6101408301525061016082015167ffffffffffffffff81111561349657600080fd5b6134a284828501613018565b6101608301525061018082015167ffffffffffffffff8111156134c457600080fd5b6134d0848285016130ff565b610180830152506101a082015167ffffffffffffffff8111156134f257600080fd5b6134fe848285016130ff565b6101a08301525092915050565b60008151905061351a816147c5565b92915050565b60008135905061352f816147dc565b92915050565b600081519050613544816147dc565b92915050565b60006020828403121561355c57600080fd5b600061356a84828501612fc4565b91505092915050565b60006020828403121561358557600080fd5b600061359384828501613096565b91505092915050565b6000602082840312156135ae57600080fd5b600082015167ffffffffffffffff8111156135c857600080fd5b6135d4848285016132d1565b91505092915050565b6000602082840312156135ef57600080fd5b60006135fd84828501613520565b91505092915050565b60006020828403121561361857600080fd5b600061362684828501613535565b91505092915050565b6000806040838503121561364257600080fd5b600061365085828601613520565b925050602083013567ffffffffffffffff81111561366d57600080fd5b613679858286016130d5565b9150509250929050565b6000806040838503121561369657600080fd5b60006136a485828601613520565b92505060206136b585828601613520565b9150509250929050565b6000806000606084860312156136d457600080fd5b60006136e286828701613520565b93505060206136f386828701613520565b9250506040613704868287016130c0565b9150509250925092565b600080600080600060a0868803121561372657600080fd5b600061373488828901613520565b955050602061374588828901613520565b945050604061375688828901613520565b935050606086013567ffffffffffffffff81111561377357600080fd5b61377f888289016130d5565b925050608086013567ffffffffffffffff81111561379c57600080fd5b6137a8888289016130d5565b9150509295509295909350565b6137be816144be565b82525050565b6137cd816144be565b82525050565b6137dc816144d0565b82525050565b6137eb816144d0565b82525050565b6137fa8161454f565b82525050565b61380981614573565b82525050565b61381881614597565b82525050565b61382781614597565b82525050565b613836816145a9565b82525050565b613845816145bb565b82525050565b613854816145bb565b82525050565b60006138658261441f565b61386f818561442a565b935061387f8185602086016145dc565b6138888161472a565b840191505092915050565b600061389e8261441f565b6138a8818561443b565b93506138b88185602086016145dc565b6138c18161472a565b840191505092915050565b60006138d960228361443b565b91507f4e6f6e206175746f726973653a207365756c656d656e742050726f647563746560008301527f75720000000000000000000000000000000000000000000000000000000000006020830152604082019050919050565b600061393f600e8361443b565b91507f5072697820696e636f72726563740000000000000000000000000000000000006000830152602082019050919050565b600061397f60158361443b565b91507f436f6d6d616e6465206e6f6e206578697374616e7400000000000000000000006000830152602082019050919050565b60006139bf60258361443b565b91507f4e6f6e206175746f726973653a207365756c656d656e7420436572746966696360008301527f61746575720000000000000000000000000000000000000000000000000000006020830152604082019050919050565b6000613a2560158361443b565b91507f50617263656c6c65206e6f6e206578697374616e7400000000000000000000006000830152602082019050919050565b6000613a6560148361443b565b91507f5265636f6c7465206e6f6e2063657274696669650000000000000000000000006000830152602082019050919050565b6000613aa5602c8361443b565b91507f566f7573206e2765746573207061732070726f7072696574616972652064652060008301527f63652070617263656c6c6c6500000000000000000000000000000000000000006020830152604082019050919050565b6000613b0b60148361443b565b91507f5265636f6c7465206e6f6e206578697374616e740000000000000000000000006000830152602082019050919050565b6000613b4b600f8361443b565b91507f43657274696669636174207669646500000000000000000000000000000000006000830152602082019050919050565b6000613b8b60138361443b565b91507f436f6d6d616e64652064656a61207061796572000000000000000000000000006000830152602082019050919050565b6000613bcb60368361443b565b91507f5175616e746974652074726f70206772616e642070617220726170706f72742060008301527f6175207175616e7469746520646973706f6e69626c65000000000000000000006020830152604082019050919050565b6000613c3160228361443b565b91507f4e6f6e206175746f726973653a207365756c656d656e7420436f6c6c6563746560008301527f75720000000000000000000000000000000000000000000000000000000000006020830152604082019050919050565b61010082016000820151613ca16000850182613e98565b506020820151613cb46020850182613e98565b506040820151613cc76040850182613e98565b506060820151613cda6060850182613e98565b506080820151613ced60808501826137d3565b5060a0820151613d0060a085018261383c565b5060c0820151613d1360c08501826137b5565b5060e0820151613d2660e08501826137b5565b50505050565b60c082016000820151613d426000850182613e98565b506020820151613d5560208501826137b5565b506040820151613d6860408501826137b5565b506060820151613d7b6060850182613e98565b506080820151613d8e608085018261380f565b5060a0820151613da160a0850182613e7a565b50505050565b600061012083016000830151613dc06000860182613e98565b506020830151613dd36020860182613e98565b506040830151613de66040860182613e98565b506060830151613df96060860182613e98565b506080830151613e0c60808601826137d3565b5060a083015184820360a0860152613e24828261385a565b91505060c083015184820360c0860152613e3e828261385a565b91505060e0830151613e5360e08601826137b5565b50610100830151848203610100860152613e6d828261385a565b9150508091505092915050565b613e8381614535565b82525050565b613e9281614535565b82525050565b613ea18161453f565b82525050565b613eb08161453f565b82525050565b6000604082019050613ecb60008301856137c4565b613ed8602083018461382d565b9392505050565b6000602082019050613ef460008301846137f1565b92915050565b6000602082019050613f0f6000830184613800565b92915050565b60006020820190508181036000830152613f2e816138cc565b9050919050565b60006020820190508181036000830152613f4e81613932565b9050919050565b60006020820190508181036000830152613f6e81613972565b9050919050565b60006020820190508181036000830152613f8e816139b2565b9050919050565b60006020820190508181036000830152613fae81613a18565b9050919050565b60006020820190508181036000830152613fce81613a58565b9050919050565b60006020820190508181036000830152613fee81613a98565b9050919050565b6000602082019050818103600083015261400e81613afe565b9050919050565b6000602082019050818103600083015261402e81613b3e565b9050919050565b6000602082019050818103600083015261404e81613b7e565b9050919050565b6000602082019050818103600083015261406e81613bbe565b9050919050565b6000602082019050818103600083015261408e81613c24565b9050919050565b6000610100820190506140ab6000830184613c8a565b92915050565b600060c0820190506140c66000830184613d2c565b92915050565b600060208201905081810360008301526140e68184613da7565b905092915050565b60006020820190506141036000830184613ea7565b92915050565b600060c08201905061411e6000830189613ea7565b61412b60208301886137c4565b61413860408301876137c4565b6141456060830186613ea7565b614152608083018561381e565b61415f60a0830184613e89565b979650505050505050565b600060e08201905061417f600083018a613ea7565b61418c6020830189613ea7565b6141996040830188613ea7565b6141a660608301876137c4565b81810360808301526141b88186613893565b905081810360a08301526141cc8185613893565b905081810360c08301526141e08184613893565b905098975050505050505050565b600061010082019050614204600083018b613ea7565b614211602083018a613ea7565b61421e6040830189613ea7565b61422b6060830188613ea7565b61423860808301876137e2565b61424560a083018661384b565b61425260c08301856137c4565b61425f60e08301846137c4565b9998505050505050505050565b600061012082019050614282600083018c613ea7565b61428f602083018b613ea7565b61429c604083018a613ea7565b6142a96060830189613ea7565b6142b660808301886137e2565b81810360a08301526142c88187613893565b905081810360c08301526142dc8186613893565b90506142eb60e08301856137c4565b8181036101008301526142fe8184613893565b90509a9950505050505050505050565b6000604051905081810181811067ffffffffffffffff82111715614335576143346146fb565b5b8060405250919050565b600067ffffffffffffffff82111561435a576143596146fb565b5b602082029050602081019050919050565b600067ffffffffffffffff821115614386576143856146fb565b5b602082029050602081019050919050565b600067ffffffffffffffff8211156143b2576143b16146fb565b5b602082029050602081019050919050565b600067ffffffffffffffff8211156143de576143dd6146fb565b5b602082029050602081019050919050565b600067ffffffffffffffff82111561440a576144096146fb565b5b601f19601f8301169050602081019050919050565b600081519050919050565b600082825260208201905092915050565b600082825260208201905092915050565b60006144578261453f565b91506144628361453f565b92508163ffffffff048311821515161561447f5761447e61466e565b5b828202905092915050565b60006144958261453f565b91506144a08361453f565b9250828210156144b3576144b261466e565b5b828203905092915050565b60006144c982614515565b9050919050565b60008115159050919050565b60008190506144ea8261473b565b919050565b60008190506144fd8261474f565b919050565b600081905061451082614763565b919050565b600073ffffffffffffffffffffffffffffffffffffffff82169050919050565b6000819050919050565b600063ffffffff82169050919050565b600061455a82614561565b9050919050565b600061456c82614515565b9050919050565b600061457e82614585565b9050919050565b600061459082614515565b9050919050565b60006145a2826144dc565b9050919050565b60006145b4826144ef565b9050919050565b60006145c682614502565b9050919050565b82818337600083830152505050565b60005b838110156145fa5780820151818401526020810190506145df565b83811115614609576000848401525b50505050565b6000600282049050600182168061462757607f821691505b6020821081141561463b5761463a6146cc565b5b50919050565b600061464c8261453f565b915063ffffffff8214156146635761466261466e565b5b600182019050919050565b7f4e487b7100000000000000000000000000000000000000000000000000000000600052601160045260246000fd5b7f4e487b7100000000000000000000000000000000000000000000000000000000600052602160045260246000fd5b7f4e487b7100000000000000000000000000000000000000000000000000000000600052602260045260246000fd5b7f4e487b7100000000000000000000000000000000000000000000000000000000600052604160045260246000fd5b6000601f19601f8301169050919050565b6003811061474c5761474b61469d565b5b50565b600881106147605761475f61469d565b5b50565b600281106147745761477361469d565b5b50565b614780816144be565b811461478b57600080fd5b50565b614797816144d0565b81146147a257600080fd5b50565b600481106147b257600080fd5b50565b600381106147c257600080fd5b50565b6147ce81614535565b81146147d957600080fd5b50565b6147e58161453f565b81146147f057600080fd5b5056fea2646970667358221220520cd57b8fc14fb03d8f9a2019bb2f455653130bc0d4d7b64709c3ebccae912464736f6c63430008000033",
  "linkReferences": {},
  "deployedLinkReferences": {}
}