{
  "_format": "hh-sol-artifact-1",
  "contractName": "CollecteurExportateur",
  "sourceName": "contracts/CollecteurExportateur.sol",
  "abi": [
    {
      "anonymous": false,
      "inputs": [
        {
          "indexed": true,
          "internalType": "address",
          "name": "collecteur",
          "type": "address"
        },
        {
          "indexed": false,
          "internalType": "uint32",
          "name": "idLotProduit",
          "type": "uint32"
        },
        {
          "indexed": false,
          "internalType": "uint32",
          "name": "quantite",
          "type": "uint32"
        },
        {
          "indexed": false,
          "internalType": "uint32",
          "name": "prix",
          "type": "uint32"
        }
      ],
      "name": "AjoutLotProduit",
      "type": "event"
    },
    {
      "anonymous": false,
      "inputs": [
        {
          "indexed": true,
          "internalType": "address",
          "name": "exportateur",
          "type": "address"
        },
        {
          "indexed": false,
          "internalType": "uint32",
          "name": "idProduit",
          "type": "uint32"
        }
      ],
      "name": "CommandePasser",
      "type": "event"
    },
    {
      "anonymous": false,
      "inputs": [
        {
          "indexed": true,
          "internalType": "uint32",
          "name": "idProduit",
          "type": "uint32"
        },
        {
          "indexed": false,
          "internalType": "uint32",
          "name": "idCondition",
          "type": "uint32"
        },
        {
          "indexed": false,
          "internalType": "string",
          "name": "cid",
          "type": "string"
        },
        {
          "indexed": false,
          "internalType": "uint256",
          "name": "timestamp",
          "type": "uint256"
        }
      ],
      "name": "ConditionEnregistree",
      "type": "event"
    },
    {
      "anonymous": false,
      "inputs": [
        {
          "indexed": true,
          "internalType": "uint32",
          "name": "idProduit",
          "type": "uint32"
        },
        {
          "indexed": false,
          "internalType": "uint32",
          "name": "idPaiement",
          "type": "uint32"
        },
        {
          "indexed": false,
          "internalType": "address",
          "name": "payeur",
          "type": "address"
        },
        {
          "indexed": false,
          "internalType": "uint32",
          "name": "montant",
          "type": "uint32"
        },
        {
          "indexed": false,
          "internalType": "enum StructLib.ModePaiement",
          "name": "mode",
          "type": "uint8"
        }
      ],
      "name": "PaiementEffectue",
      "type": "event"
    },
    {
      "anonymous": false,
      "inputs": [
        {
          "indexed": true,
          "internalType": "uint32",
          "name": "idProduit",
          "type": "uint32"
        },
        {
          "indexed": false,
          "internalType": "uint32",
          "name": "quantite",
          "type": "uint32"
        },
        {
          "indexed": false,
          "internalType": "uint32",
          "name": "idRecolte",
          "type": "uint32"
        }
      ],
      "name": "ProduitAjoute",
      "type": "event"
    },
    {
      "anonymous": false,
      "inputs": [
        {
          "indexed": true,
          "internalType": "uint32",
          "name": "idProduit",
          "type": "uint32"
        },
        {
          "indexed": false,
          "internalType": "bool",
          "name": "valide",
          "type": "bool"
        }
      ],
      "name": "ProduitValide",
      "type": "event"
    },
    {
      "anonymous": false,
      "inputs": [
        {
          "indexed": true,
          "internalType": "uint32",
          "name": "idCommande",
          "type": "uint32"
        },
        {
          "indexed": false,
          "internalType": "enum StructLib.StatutProduit",
          "name": "status",
          "type": "uint8"
        }
      ],
      "name": "StatusCommandeMisAJour",
      "type": "event"
    },
    {
      "anonymous": false,
      "inputs": [
        {
          "indexed": true,
          "internalType": "uint32",
          "name": "idProduit",
          "type": "uint32"
        },
        {
          "indexed": false,
          "internalType": "enum StructLib.StatutTransport",
          "name": "statut",
          "type": "uint8"
        }
      ],
      "name": "StatutTransportMisAJour",
      "type": "event"
    },
    {
      "stateMutability": "payable",
      "type": "fallback"
    },
    {
      "inputs": [
        {
          "internalType": "uint32[]",
          "name": "_idProduits",
          "type": "uint32[]"
        },
        {
          "internalType": "string",
          "name": "_cid",
          "type": "string"
        },
        {
          "internalType": "uint32",
          "name": "_prix",
          "type": "uint32"
        }
      ],
      "name": "ajouterLotProduit",
      "outputs": [],
      "stateMutability": "nonpayable",
      "type": "function"
    },
    {
      "inputs": [
        {
          "internalType": "uint32",
          "name": "_idRecolte",
          "type": "uint32"
        },
        {
          "internalType": "uint32",
          "name": "_quantite",
          "type": "uint32"
        },
        {
          "internalType": "address",
          "name": "_collecteur",
          "type": "address"
        }
      ],
      "name": "ajouterProduit",
      "outputs": [],
      "stateMutability": "nonpayable",
      "type": "function"
    },
    {
      "inputs": [
        {
          "internalType": "uint32",
          "name": "",
          "type": "uint32"
        }
      ],
      "name": "commandes",
      "outputs": [
        {
          "internalType": "uint32",
          "name": "id",
          "type": "uint32"
        },
        {
          "internalType": "uint32",
          "name": "idLotProduit",
          "type": "uint32"
        },
        {
          "internalType": "uint32",
          "name": "quantite",
          "type": "uint32"
        },
        {
          "internalType": "uint32",
          "name": "prix",
          "type": "uint32"
        },
        {
          "internalType": "bool",
          "name": "payer",
          "type": "bool"
        },
        {
          "internalType": "enum StructLib.StatutTransport",
          "name": "statutTransport",
          "type": "uint8"
        },
        {
          "internalType": "address",
          "name": "collecteur",
          "type": "address"
        },
        {
          "internalType": "address",
          "name": "exportateur",
          "type": "address"
        },
        {
          "internalType": "enum StructLib.StatutProduit",
          "name": "statutProduit",
          "type": "uint8"
        },
        {
          "internalType": "string",
          "name": "hashMerkle",
          "type": "string"
        },
        {
          "internalType": "bool",
          "name": "enregistre",
          "type": "bool"
        }
      ],
      "stateMutability": "view",
      "type": "function"
    },
    {
      "inputs": [],
      "name": "compteurCommandes",
      "outputs": [
        {
          "internalType": "uint32",
          "name": "",
          "type": "uint32"
        }
      ],
      "stateMutability": "view",
      "type": "function"
    },
    {
      "inputs": [],
      "name": "compteurConditions",
      "outputs": [
        {
          "internalType": "uint32",
          "name": "",
          "type": "uint32"
        }
      ],
      "stateMutability": "view",
      "type": "function"
    },
    {
      "inputs": [],
      "name": "compteurLotProduits",
      "outputs": [
        {
          "internalType": "uint32",
          "name": "",
          "type": "uint32"
        }
      ],
      "stateMutability": "view",
      "type": "function"
    },
    {
      "inputs": [],
      "name": "compteurPaiements",
      "outputs": [
        {
          "internalType": "uint32",
          "name": "",
          "type": "uint32"
        }
      ],
      "stateMutability": "view",
      "type": "function"
    },
    {
      "inputs": [],
      "name": "compteurProduits",
      "outputs": [
        {
          "internalType": "uint32",
          "name": "",
          "type": "uint32"
        }
      ],
      "stateMutability": "view",
      "type": "function"
    },
    {
      "inputs": [
        {
          "internalType": "uint32",
          "name": "",
          "type": "uint32"
        }
      ],
      "name": "conditions",
      "outputs": [
        {
          "internalType": "uint32",
          "name": "id",
          "type": "uint32"
        },
        {
          "internalType": "string",
          "name": "cid",
          "type": "string"
        },
        {
          "internalType": "uint256",
          "name": "timestamp",
          "type": "uint256"
        },
        {
          "internalType": "string",
          "name": "hashMerkle",
          "type": "string"
        }
      ],
      "stateMutability": "view",
      "type": "function"
    },
    {
      "inputs": [
        {
          "internalType": "uint32",
          "name": "_idCommande",
          "type": "uint32"
        },
        {
          "internalType": "uint32",
          "name": "_montant",
          "type": "uint32"
        },
        {
          "internalType": "enum StructLib.ModePaiement",
          "name": "_mode",
          "type": "uint8"
        }
      ],
      "name": "effectuerPaiement",
      "outputs": [],
      "stateMutability": "payable",
      "type": "function"
    },
    {
      "inputs": [
        {
          "internalType": "uint32",
          "name": "_idCommande",
          "type": "uint32"
        },
        {
          "internalType": "bool",
          "name": "_enregistre",
          "type": "bool"
        }
      ],
      "name": "enregistrerCommande",
      "outputs": [],
      "stateMutability": "nonpayable",
      "type": "function"
    },
    {
      "inputs": [
        {
          "internalType": "uint32",
          "name": "_idCommande",
          "type": "uint32"
        },
        {
          "internalType": "string",
          "name": "_cid",
          "type": "string"
        }
      ],
      "name": "enregistrerCondition",
      "outputs": [],
      "stateMutability": "nonpayable",
      "type": "function"
    },
    {
      "inputs": [],
      "name": "gestionnaireActeurs",
      "outputs": [
        {
          "internalType": "contract GestionnaireActeurs",
          "name": "",
          "type": "address"
        }
      ],
      "stateMutability": "view",
      "type": "function"
    },
    {
      "inputs": [
        {
          "internalType": "uint32",
          "name": "id",
          "type": "uint32"
        }
      ],
      "name": "getCommande",
      "outputs": [
        {
          "components": [
            {
              "internalType": "uint32",
              "name": "id",
              "type": "uint32"
            },
            {
              "internalType": "uint32",
              "name": "idLotProduit",
              "type": "uint32"
            },
            {
              "internalType": "uint32",
              "name": "quantite",
              "type": "uint32"
            },
            {
              "internalType": "uint32",
              "name": "prix",
              "type": "uint32"
            },
            {
              "internalType": "bool",
              "name": "payer",
              "type": "bool"
            },
            {
              "internalType": "enum StructLib.StatutTransport",
              "name": "statutTransport",
              "type": "uint8"
            },
            {
              "internalType": "address",
              "name": "collecteur",
              "type": "address"
            },
            {
              "internalType": "address",
              "name": "exportateur",
              "type": "address"
            },
            {
              "internalType": "enum StructLib.StatutProduit",
              "name": "statutProduit",
              "type": "uint8"
            },
            {
              "internalType": "string",
              "name": "hashMerkle",
              "type": "string"
            },
            {
              "internalType": "bool",
              "name": "enregistre",
              "type": "bool"
            }
          ],
          "internalType": "struct StructLib.CommandeProduit",
          "name": "",
          "type": "tuple"
        }
      ],
      "stateMutability": "view",
      "type": "function"
    },
    {
      "inputs": [],
      "name": "getCompteurCommande",
      "outputs": [
        {
          "internalType": "uint32",
          "name": "",
          "type": "uint32"
        }
      ],
      "stateMutability": "view",
      "type": "function"
    },
    {
      "inputs": [],
      "name": "getCompteurCondition",
      "outputs": [
        {
          "internalType": "uint32",
          "name": "",
          "type": "uint32"
        }
      ],
      "stateMutability": "view",
      "type": "function"
    },
    {
      "inputs": [],
      "name": "getCompteurPaiement",
      "outputs": [
        {
          "internalType": "uint32",
          "name": "",
          "type": "uint32"
        }
      ],
      "stateMutability": "view",
      "type": "function"
    },
    {
      "inputs": [],
      "name": "getCompteurProduit",
      "outputs": [
        {
          "internalType": "uint32",
          "name": "",
          "type": "uint32"
        }
      ],
      "stateMutability": "view",
      "type": "function"
    },
    {
      "inputs": [
        {
          "internalType": "uint32",
          "name": "id",
          "type": "uint32"
        }
      ],
      "name": "getCondition",
      "outputs": [
        {
          "components": [
            {
              "internalType": "uint32",
              "name": "id",
              "type": "uint32"
            },
            {
              "internalType": "string",
              "name": "cid",
              "type": "string"
            },
            {
              "internalType": "uint256",
              "name": "timestamp",
              "type": "uint256"
            },
            {
              "internalType": "string",
              "name": "hashMerkle",
              "type": "string"
            }
          ],
          "internalType": "struct StructLib.EnregistrementCondition",
          "name": "",
          "type": "tuple"
        }
      ],
      "stateMutability": "view",
      "type": "function"
    },
    {
      "inputs": [
        {
          "internalType": "uint32",
          "name": "id",
          "type": "uint32"
        }
      ],
      "name": "getLotProduit",
      "outputs": [
        {
          "components": [
            {
              "internalType": "uint32",
              "name": "id",
              "type": "uint32"
            },
            {
              "internalType": "uint32[]",
              "name": "idRecolte",
              "type": "uint32[]"
            },
            {
              "internalType": "uint32",
              "name": "quantite",
              "type": "uint32"
            },
            {
              "internalType": "uint32",
              "name": "prix",
              "type": "uint32"
            },
            {
              "internalType": "address",
              "name": "collecteur",
              "type": "address"
            },
            {
              "internalType": "string",
              "name": "cid",
              "type": "string"
            },
            {
              "internalType": "string",
              "name": "hashMerkle",
              "type": "string"
            }
          ],
          "internalType": "struct StructLib.LotProduit",
          "name": "",
          "type": "tuple"
        }
      ],
      "stateMutability": "view",
      "type": "function"
    },
    {
      "inputs": [
        {
          "internalType": "uint32",
          "name": "id",
          "type": "uint32"
        }
      ],
      "name": "getPaiement",
      "outputs": [
        {
          "components": [
            {
              "internalType": "uint32",
              "name": "id",
              "type": "uint32"
            },
            {
              "internalType": "address",
              "name": "payeur",
              "type": "address"
            },
            {
              "internalType": "address",
              "name": "vendeur",
              "type": "address"
            },
            {
              "internalType": "uint32",
              "name": "montant",
              "type": "uint32"
            },
            {
              "internalType": "enum StructLib.ModePaiement",
              "name": "mode",
              "type": "uint8"
            },
            {
              "internalType": "uint256",
              "name": "timestamp",
              "type": "uint256"
            },
            {
              "internalType": "string",
              "name": "hashMerkle",
              "type": "string"
            }
          ],
          "internalType": "struct StructLib.Paiement",
          "name": "",
          "type": "tuple"
        }
      ],
      "stateMutability": "view",
      "type": "function"
    },
    {
      "inputs": [
        {
          "internalType": "uint32",
          "name": "id",
          "type": "uint32"
        }
      ],
      "name": "getProduit",
      "outputs": [
        {
          "components": [
            {
              "internalType": "uint32",
              "name": "id",
              "type": "uint32"
            },
            {
              "internalType": "uint32",
              "name": "idRecolte",
              "type": "uint32"
            },
            {
              "internalType": "uint32",
              "name": "quantite",
              "type": "uint32"
            },
            {
              "internalType": "address",
              "name": "collecteur",
              "type": "address"
            },
            {
              "internalType": "bool",
              "name": "enregistre",
              "type": "bool"
            },
            {
              "internalType": "string",
              "name": "hashMerkle",
              "type": "string"
            }
          ],
          "internalType": "struct StructLib.Produit",
          "name": "",
          "type": "tuple"
        }
      ],
      "stateMutability": "view",
      "type": "function"
    },
    {
      "inputs": [
        {
          "internalType": "address",
          "name": "_gestionnaireActeurs",
          "type": "address"
        }
      ],
      "name": "initialiser",
      "outputs": [],
      "stateMutability": "nonpayable",
      "type": "function"
    },
    {
      "inputs": [
        {
          "internalType": "uint32",
          "name": "",
          "type": "uint32"
        }
      ],
      "name": "lotProduits",
      "outputs": [
        {
          "internalType": "uint32",
          "name": "id",
          "type": "uint32"
        },
        {
          "internalType": "uint32",
          "name": "quantite",
          "type": "uint32"
        },
        {
          "internalType": "uint32",
          "name": "prix",
          "type": "uint32"
        },
        {
          "internalType": "address",
          "name": "collecteur",
          "type": "address"
        },
        {
          "internalType": "string",
          "name": "cid",
          "type": "string"
        },
        {
          "internalType": "string",
          "name": "hashMerkle",
          "type": "string"
        }
      ],
      "stateMutability": "view",
      "type": "function"
    },
    {
      "inputs": [
        {
          "internalType": "uint32",
          "name": "_idCommande",
          "type": "uint32"
        },
        {
          "internalType": "enum StructLib.StatutProduit",
          "name": "_status",
          "type": "uint8"
        }
      ],
      "name": "mettreAJourStatutCommande",
      "outputs": [],
      "stateMutability": "nonpayable",
      "type": "function"
    },
    {
      "inputs": [
        {
          "internalType": "uint32",
          "name": "_idCommande",
          "type": "uint32"
        },
        {
          "internalType": "enum StructLib.StatutTransport",
          "name": "_statut",
          "type": "uint8"
        }
      ],
      "name": "mettreAJourStatutTransport",
      "outputs": [],
      "stateMutability": "nonpayable",
      "type": "function"
    },
    {
      "inputs": [
        {
          "internalType": "uint32",
          "name": "",
          "type": "uint32"
        }
      ],
      "name": "paiements",
      "outputs": [
        {
          "internalType": "uint32",
          "name": "id",
          "type": "uint32"
        },
        {
          "internalType": "address",
          "name": "payeur",
          "type": "address"
        },
        {
          "internalType": "address",
          "name": "vendeur",
          "type": "address"
        },
        {
          "internalType": "uint32",
          "name": "montant",
          "type": "uint32"
        },
        {
          "internalType": "enum StructLib.ModePaiement",
          "name": "mode",
          "type": "uint8"
        },
        {
          "internalType": "uint256",
          "name": "timestamp",
          "type": "uint256"
        },
        {
          "internalType": "string",
          "name": "hashMerkle",
          "type": "string"
        }
      ],
      "stateMutability": "view",
      "type": "function"
    },
    {
      "inputs": [
        {
          "internalType": "uint32",
          "name": "_idLotProduit",
          "type": "uint32"
        },
        {
          "internalType": "uint32",
          "name": "_quantite",
          "type": "uint32"
        }
      ],
      "name": "passerCommande",
      "outputs": [],
      "stateMutability": "nonpayable",
      "type": "function"
    },
    {
      "inputs": [
        {
          "internalType": "uint32",
          "name": "",
          "type": "uint32"
        }
      ],
      "name": "produits",
      "outputs": [
        {
          "internalType": "uint32",
          "name": "id",
          "type": "uint32"
        },
        {
          "internalType": "uint32",
          "name": "idRecolte",
          "type": "uint32"
        },
        {
          "internalType": "uint32",
          "name": "quantite",
          "type": "uint32"
        },
        {
          "internalType": "address",
          "name": "collecteur",
          "type": "address"
        },
        {
          "internalType": "bool",
          "name": "enregistre",
          "type": "bool"
        },
        {
          "internalType": "string",
          "name": "hashMerkle",
          "type": "string"
        }
      ],
      "stateMutability": "view",
      "type": "function"
    },
    {
      "inputs": [
        {
          "internalType": "address",
          "name": "_addr",
          "type": "address"
        }
      ],
      "name": "setGestionnaireActeurs",
      "outputs": [],
      "stateMutability": "nonpayable",
      "type": "function"
    },
    {
      "inputs": [
        {
          "internalType": "uint32",
          "name": "_idLotProduit",
          "type": "uint32"
        },
        {
          "internalType": "uint32",
          "name": "_prix",
          "type": "uint32"
        }
      ],
      "name": "setPriceProduit",
      "outputs": [],
      "stateMutability": "nonpayable",
      "type": "function"
    },
    {
      "stateMutability": "payable",
      "type": "receive"
    }
  ],
  "bytecode": "0x608060405234801561001057600080fd5b50615ed580620000216000396000f3fe6080604052600436106101dc5760003560e01c80636f3fd6c511610102578063c1f73cfa11610095578063e6cab64c11610064578063e6cab64c14610716578063edd1316314610732578063f6980cc91461075d578063fdccf4331461079d576101e3565b8063c1f73cfa14610670578063c4c8d19414610699578063cd3df1ed146106c2578063e550ef99146106ed576101e3565b806393c2f9b4116100d157806393c2f9b4146105af5780639e942cd4146105da578063b9e91d7014610605578063ba9ba2401461062e576101e3565b80636f3fd6c5146104d15780637babcffa146105185780638777654f1461055b5780638a16156e14610586576101e3565b80634851ca821161017a5780634fbdf4fe116101495780634fbdf4fe146104155780635293ea511461043e578063687112e21461047b578063693dff1f146104a6576101e3565b80634851ca8214610342578063488dee201461038457806348d2cee0146103af5780634dafb501146103ec576101e3565b80632477b510116101b65780632477b51014610276578063369064b91461029f5780633e7a6049146102dc57806341fae4db14610305576101e3565b806301197018146101e55780630b215e641461021057806315a3374c1461024d576101e3565b366101e357005b005b3480156101f157600080fd5b506101fa6107c8565b604051610207919061566d565b60405180910390f35b34801561021c57600080fd5b50610237600480360381019061023291906147ba565b6107e2565b6040516102449190615629565b60405180910390f35b34801561025957600080fd5b50610274600480360381019061026f91906148eb565b610a36565b005b34801561028257600080fd5b5061029d6004803603810190610298919061481f565b610c79565b005b3480156102ab57600080fd5b506102c660048036038101906102c191906147ba565b610ef9565b6040516102d3919061564b565b60405180910390f35b3480156102e857600080fd5b5061030360048036038101906102fe91906146e9565b6110a6565b005b34801561031157600080fd5b5061032c600480360381019061032791906147ba565b6110ea565b60405161033991906155e5565b60405180910390f35b34801561034e57600080fd5b50610369600480360381019061036491906147ba565b611277565b60405161037b96959493929190615834565b60405180910390f35b34801561039057600080fd5b50610399611398565b6040516103a6919061566d565b60405180910390f35b3480156103bb57600080fd5b506103d660048036038101906103d191906147ba565b6113ae565b6040516103e39190615607565b60405180910390f35b3480156103f857600080fd5b50610413600480360381019061040e91906148eb565b611657565b005b34801561042157600080fd5b5061043c600480360381019061043791906146e9565b611cf4565b005b34801561044a57600080fd5b50610465600480360381019061046091906147ba565b611da3565b60405161047291906155c3565b60405180910390f35b34801561048757600080fd5b506104906120f7565b60405161049d919061566d565b60405180910390f35b3480156104b257600080fd5b506104bb61210d565b6040516104c8919061566d565b60405180910390f35b3480156104dd57600080fd5b506104f860048036038101906104f391906147ba565b612123565b60405161050f9b9a9998979695949392919061590b565b60405180910390f35b34801561052457600080fd5b5061053f600480360381019061053a91906147ba565b6122b9565b6040516105529796959493929190615688565b60405180910390f35b34801561056757600080fd5b506105706123f0565b60405161057d919061566d565b60405180910390f35b34801561059257600080fd5b506105ad60048036038101906105a8919061485b565b61240a565b005b3480156105bb57600080fd5b506105c461260a565b6040516105d1919061566d565b60405180910390f35b3480156105e657600080fd5b506105ef612624565b6040516105fc9190615392565b60405180910390f35b34801561061157600080fd5b5061062c60048036038101906106279190614712565b61264a565b005b34801561063a57600080fd5b50610655600480360381019061065091906147ba565b612e9e565b6040516106679695949392919061589c565b60405180910390f35b34801561067c57600080fd5b5061069760048036038101906106929190614927565b61303a565b005b3480156106a557600080fd5b506106c060048036038101906106bb91906147e3565b613277565b005b3480156106ce57600080fd5b506106d7613403565b6040516106e4919061566d565b60405180910390f35b3480156106f957600080fd5b50610714600480360381019061070f9190614897565b613419565b005b610730600480360381019061072b9190614976565b6136d5565b005b34801561073e57600080fd5b50610747613fd3565b604051610754919061566d565b60405180910390f35b34801561076957600080fd5b50610784600480360381019061077f91906147ba565b613fe9565b6040516107949493929190615781565b60405180910390f35b3480156107a957600080fd5b506107b2614139565b6040516107bf919061566d565b60405180910390f35b6000600560049054906101000a900463ffffffff16905090565b6107ea614153565b600360008363ffffffff1663ffffffff1681526020019081526020016000206040518060e00160405290816000820160009054906101000a900463ffffffff1663ffffffff1663ffffffff1681526020016000820160049054906101000a900473ffffffffffffffffffffffffffffffffffffffff1673ffffffffffffffffffffffffffffffffffffffff1673ffffffffffffffffffffffffffffffffffffffff1681526020016001820160009054906101000a900473ffffffffffffffffffffffffffffffffffffffff1673ffffffffffffffffffffffffffffffffffffffff1673ffffffffffffffffffffffffffffffffffffffff1681526020016001820160149054906101000a900463ffffffff1663ffffffff1663ffffffff1681526020016001820160189054906101000a900460ff166002811115610957577f4e487b7100000000000000000000000000000000000000000000000000000000600052602160045260246000fd5b600281111561098f577f4e487b7100000000000000000000000000000000000000000000000000000000600052602160045260246000fd5b8152602001600282015481526020016003820180546109ad90615cae565b80601f01602080910402602001604051908101604052809291908181526020018280546109d990615cae565b8015610a265780601f106109fb57610100808354040283529160200191610a26565b820191906000526020600020905b815481529060010190602001808311610a0957829003601f168201915b5050505050815250509050919050565b600660009054906101000a900473ffffffffffffffffffffffffffffffffffffffff1673ffffffffffffffffffffffffffffffffffffffff1663d1e47bb33360036040518363ffffffff1660e01b8152600401610a94929190615369565b60206040518083038186803b158015610aac57600080fd5b505afa158015610ac0573d6000803e3d6000fd5b505050506040513d601f19601f82011682018060405250810190610ae49190614791565b610b23576040517f08c379a0000000000000000000000000000000000000000000000000000000008152600401610b1a90615523565b60405180910390fd5b600560089054906101000a900463ffffffff1663ffffffff168263ffffffff161115610b84576040517f08c379a0000000000000000000000000000000000000000000000000000000008152600401610b7b906154e3565b60405180910390fd5b3373ffffffffffffffffffffffffffffffffffffffff16600160008463ffffffff1663ffffffff16815260200190815260200160002060020160089054906101000a900473ffffffffffffffffffffffffffffffffffffffff1673ffffffffffffffffffffffffffffffffffffffff1614610c34576040517f08c379a0000000000000000000000000000000000000000000000000000000008152600401610c2b906154a3565b60405180910390fd5b80600160008463ffffffff1663ffffffff16815260200190815260200160002060020160046101000a81548163ffffffff021916908363ffffffff1602179055505050565b600660009054906101000a900473ffffffffffffffffffffffffffffffffffffffff1673ffffffffffffffffffffffffffffffffffffffff1663d1e47bb33360066040518363ffffffff1660e01b8152600401610cd7929190615369565b60206040518083038186803b158015610cef57600080fd5b505afa158015610d03573d6000803e3d6000fd5b505050506040513d601f19601f82011682018060405250810190610d279190614791565b610d66576040517f08c379a0000000000000000000000000000000000000000000000000000000008152600401610d5d90615563565b60405180910390fd5b600180811115610d9f577f4e487b7100000000000000000000000000000000000000000000000000000000600052602160045260246000fd5b600460008463ffffffff1663ffffffff16815260200190815260200160002060000160119054906101000a900460ff166001811115610e07577f4e487b7100000000000000000000000000000000000000000000000000000000600052602160045260246000fd5b14610e47576040517f08c379a0000000000000000000000000000000000000000000000000000000008152600401610e3e90615403565b60405180910390fd5b80600460008463ffffffff1663ffffffff16815260200190815260200160002060020160146101000a81548160ff02191690836002811115610eb2577f4e487b7100000000000000000000000000000000000000000000000000000000600052602160045260246000fd5b02179055508163ffffffff167fab130106cad960e950d3b5ff9c896fdd5af7f3144699e12c2c8429afd4abd7ab82604051610eed91906153ad565b60405180910390a25050565b610f01614200565b6000808363ffffffff1663ffffffff1681526020019081526020016000206040518060c00160405290816000820160009054906101000a900463ffffffff1663ffffffff1663ffffffff1681526020016000820160049054906101000a900463ffffffff1663ffffffff1663ffffffff1681526020016000820160089054906101000a900463ffffffff1663ffffffff1663ffffffff16815260200160008201600c9054906101000a900473ffffffffffffffffffffffffffffffffffffffff1673ffffffffffffffffffffffffffffffffffffffff1673ffffffffffffffffffffffffffffffffffffffff1681526020016001820160009054906101000a900460ff1615151515815260200160028201805461101d90615cae565b80601f016020809104026020016040519081016040528092919081815260200182805461104990615cae565b80156110965780601f1061106b57610100808354040283529160200191611096565b820191906000526020600020905b81548152906001019060200180831161107957829003601f168201915b5050505050815250509050919050565b80600660006101000a81548173ffffffffffffffffffffffffffffffffffffffff021916908373ffffffffffffffffffffffffffffffffffffffff16021790555050565b6110f2614260565b600260008363ffffffff1663ffffffff1681526020019081526020016000206040518060800160405290816000820160009054906101000a900463ffffffff1663ffffffff1663ffffffff16815260200160018201805461115290615cae565b80601f016020809104026020016040519081016040528092919081815260200182805461117e90615cae565b80156111cb5780601f106111a0576101008083540402835291602001916111cb565b820191906000526020600020905b8154815290600101906020018083116111ae57829003601f168201915b50505050508152602001600282015481526020016003820180546111ee90615cae565b80601f016020809104026020016040519081016040528092919081815260200182805461121a90615cae565b80156112675780601f1061123c57610100808354040283529160200191611267565b820191906000526020600020905b81548152906001019060200180831161124a57829003601f168201915b5050505050815250509050919050565b60006020528060005260406000206000915090508060000160009054906101000a900463ffffffff16908060000160049054906101000a900463ffffffff16908060000160089054906101000a900463ffffffff169080600001600c9054906101000a900473ffffffffffffffffffffffffffffffffffffffff16908060010160009054906101000a900460ff169080600201805461131590615cae565b80601f016020809104026020016040519081016040528092919081815260200182805461134190615cae565b801561138e5780601f106113635761010080835404028352916020019161138e565b820191906000526020600020905b81548152906001019060200180831161137157829003601f168201915b5050505050905086565b600560009054906101000a900463ffffffff1681565b6113b661428e565b600160008363ffffffff1663ffffffff1681526020019081526020016000206040518060e00160405290816000820160009054906101000a900463ffffffff1663ffffffff1663ffffffff1681526020016001820180548060200260200160405190810160405280929190818152602001828054801561148157602002820191906000526020600020906000905b82829054906101000a900463ffffffff1663ffffffff16815260200190600401906020826003010492830192600103820291508084116114445790505b505050505081526020016002820160009054906101000a900463ffffffff1663ffffffff1663ffffffff1681526020016002820160049054906101000a900463ffffffff1663ffffffff1663ffffffff1681526020016002820160089054906101000a900473ffffffffffffffffffffffffffffffffffffffff1673ffffffffffffffffffffffffffffffffffffffff1673ffffffffffffffffffffffffffffffffffffffff16815260200160038201805461153c90615cae565b80601f016020809104026020016040519081016040528092919081815260200182805461156890615cae565b80156115b55780601f1061158a576101008083540402835291602001916115b5565b820191906000526020600020905b81548152906001019060200180831161159857829003601f168201915b505050505081526020016004820180546115ce90615cae565b80601f01602080910402602001604051908101604052809291908181526020018280546115fa90615cae565b80156116475780601f1061161c57610100808354040283529160200191611647565b820191906000526020600020905b81548152906001019060200180831161162a57829003601f168201915b5050505050815250509050919050565b600660009054906101000a900473ffffffffffffffffffffffffffffffffffffffff1673ffffffffffffffffffffffffffffffffffffffff1663d1e47bb33360066040518363ffffffff1660e01b81526004016116b5929190615369565b60206040518083038186803b1580156116cd57600080fd5b505afa1580156116e1573d6000803e3d6000fd5b505050506040513d601f19601f820116820180604052508101906117059190614791565b611744576040517f08c379a000000000000000000000000000000000000000000000000000000000815260040161173b90615563565b60405180910390fd5b600160008363ffffffff1663ffffffff16815260200190815260200160002060020160009054906101000a900463ffffffff1663ffffffff168163ffffffff1611156117c5576040517f08c379a00000000000000000000000000000000000000000000000000000000081526004016117bc90615503565b60405180910390fd5b6000600160008463ffffffff1663ffffffff16815260200190815260200160002060020160049054906101000a900463ffffffff16826118059190615aea565b9050600082600160008663ffffffff1663ffffffff16815260200190815260200160002060020160009054906101000a900463ffffffff166118479190615b28565b905080600160008663ffffffff1663ffffffff16815260200190815260200160002060020160006101000a81548163ffffffff021916908363ffffffff1602179055506005600081819054906101000a900463ffffffff16809291906118ac90615ce0565b91906101000a81548163ffffffff021916908363ffffffff16021790555050604051806101600160405280600560009054906101000a900463ffffffff1663ffffffff1681526020018563ffffffff1681526020018463ffffffff1681526020018363ffffffff1681526020016000151581526020016000600181111561195c577f4e487b7100000000000000000000000000000000000000000000000000000000600052602160045260246000fd5b8152602001600160008763ffffffff1663ffffffff16815260200190815260200160002060020160089054906101000a900473ffffffffffffffffffffffffffffffffffffffff1673ffffffffffffffffffffffffffffffffffffffff1681526020013373ffffffffffffffffffffffffffffffffffffffff16815260200160006002811115611a15577f4e487b7100000000000000000000000000000000000000000000000000000000600052602160045260246000fd5b81526020016040518060200160405280600081525081526020016000151581525060046000600560009054906101000a900463ffffffff1663ffffffff1663ffffffff16815260200190815260200160002060008201518160000160006101000a81548163ffffffff021916908363ffffffff16021790555060208201518160000160046101000a81548163ffffffff021916908363ffffffff16021790555060408201518160000160086101000a81548163ffffffff021916908363ffffffff160217905550606082015181600001600c6101000a81548163ffffffff021916908363ffffffff16021790555060808201518160000160106101000a81548160ff02191690831515021790555060a08201518160000160116101000a81548160ff02191690836001811115611b74577f4e487b7100000000000000000000000000000000000000000000000000000000600052602160045260246000fd5b021790555060c08201518160010160006101000a81548173ffffffffffffffffffffffffffffffffffffffff021916908373ffffffffffffffffffffffffffffffffffffffff16021790555060e08201518160020160006101000a81548173ffffffffffffffffffffffffffffffffffffffff021916908373ffffffffffffffffffffffffffffffffffffffff1602179055506101008201518160020160146101000a81548160ff02191690836002811115611c59577f4e487b7100000000000000000000000000000000000000000000000000000000600052602160045260246000fd5b0217905550610120820151816003019080519060200190611c7b9291906142f3565b506101408201518160040160006101000a81548160ff0219169083151502179055509050503373ffffffffffffffffffffffffffffffffffffffff167fa0e84f4dba1ea97bb938c4d3ff9475e68dacbd58f3086c672b0605ad53d76dc185604051611ce6919061566d565b60405180910390a250505050565b600560149054906101000a900460ff1615611d44576040517f08c379a0000000000000000000000000000000000000000000000000000000008152600401611d3b90615543565b60405180910390fd5b80600660006101000a81548173ffffffffffffffffffffffffffffffffffffffff021916908373ffffffffffffffffffffffffffffffffffffffff1602179055506001600560146101000a81548160ff02191690831515021790555050565b611dab614379565b600460008363ffffffff1663ffffffff168152602001908152602001600020604051806101600160405290816000820160009054906101000a900463ffffffff1663ffffffff1663ffffffff1681526020016000820160049054906101000a900463ffffffff1663ffffffff1663ffffffff1681526020016000820160089054906101000a900463ffffffff1663ffffffff1663ffffffff16815260200160008201600c9054906101000a900463ffffffff1663ffffffff1663ffffffff1681526020016000820160109054906101000a900460ff161515151581526020016000820160119054906101000a900460ff166001811115611ed4577f4e487b7100000000000000000000000000000000000000000000000000000000600052602160045260246000fd5b6001811115611f0c577f4e487b7100000000000000000000000000000000000000000000000000000000600052602160045260246000fd5b81526020016001820160009054906101000a900473ffffffffffffffffffffffffffffffffffffffff1673ffffffffffffffffffffffffffffffffffffffff1673ffffffffffffffffffffffffffffffffffffffff1681526020016002820160009054906101000a900473ffffffffffffffffffffffffffffffffffffffff1673ffffffffffffffffffffffffffffffffffffffff1673ffffffffffffffffffffffffffffffffffffffff1681526020016002820160149054906101000a900460ff166002811115612007577f4e487b7100000000000000000000000000000000000000000000000000000000600052602160045260246000fd5b600281111561203f577f4e487b7100000000000000000000000000000000000000000000000000000000600052602160045260246000fd5b815260200160038201805461205390615cae565b80601f016020809104026020016040519081016040528092919081815260200182805461207f90615cae565b80156120cc5780601f106120a1576101008083540402835291602001916120cc565b820191906000526020600020905b8154815290600101906020018083116120af57829003601f168201915b505050505081526020016004820160009054906101000a900460ff1615151515815250509050919050565b6005600c9054906101000a900463ffffffff1681565b600560089054906101000a900463ffffffff1681565b60046020528060005260406000206000915090508060000160009054906101000a900463ffffffff16908060000160049054906101000a900463ffffffff16908060000160089054906101000a900463ffffffff169080600001600c9054906101000a900463ffffffff16908060000160109054906101000a900460ff16908060000160119054906101000a900460ff16908060010160009054906101000a900473ffffffffffffffffffffffffffffffffffffffff16908060020160009054906101000a900473ffffffffffffffffffffffffffffffffffffffff16908060020160149054906101000a900460ff169080600301805461222390615cae565b80601f016020809104026020016040519081016040528092919081815260200182805461224f90615cae565b801561229c5780601f106122715761010080835404028352916020019161229c565b820191906000526020600020905b81548152906001019060200180831161227f57829003601f168201915b5050505050908060040160009054906101000a900460ff1690508b565b60036020528060005260406000206000915090508060000160009054906101000a900463ffffffff16908060000160049054906101000a900473ffffffffffffffffffffffffffffffffffffffff16908060010160009054906101000a900473ffffffffffffffffffffffffffffffffffffffff16908060010160149054906101000a900463ffffffff16908060010160189054906101000a900460ff169080600201549080600301805461236d90615cae565b80601f016020809104026020016040519081016040528092919081815260200182805461239990615cae565b80156123e65780601f106123bb576101008083540402835291602001916123e6565b820191906000526020600020905b8154815290600101906020018083116123c957829003601f168201915b5050505050905087565b6000600560009054906101000a900463ffffffff16905090565b600660009054906101000a900473ffffffffffffffffffffffffffffffffffffffff1673ffffffffffffffffffffffffffffffffffffffff1663d1e47bb33360056040518363ffffffff1660e01b8152600401612468929190615369565b60206040518083038186803b15801561248057600080fd5b505afa158015612494573d6000803e3d6000fd5b505050506040513d601f19601f820116820180604052508101906124b89190614791565b6124f7576040517f08c379a00000000000000000000000000000000000000000000000000000000081526004016124ee906155a3565b60405180910390fd5b600560009054906101000a900463ffffffff1663ffffffff168263ffffffff161115612558576040517f08c379a000000000000000000000000000000000000000000000000000000000815260040161254f90615443565b60405180910390fd5b80600460008463ffffffff1663ffffffff16815260200190815260200160002060000160116101000a81548160ff021916908360018111156125c3577f4e487b7100000000000000000000000000000000000000000000000000000000600052602160045260246000fd5b02179055508163ffffffff167ff84820c84ecbec116ee0604a91f0bec4a5d5926d8d5189a13f57fc30951d4b91826040516125fe91906153c8565b60405180910390a25050565b60006005600c9054906101000a900463ffffffff16905090565b600660009054906101000a900473ffffffffffffffffffffffffffffffffffffffff1681565b600660009054906101000a900473ffffffffffffffffffffffffffffffffffffffff1673ffffffffffffffffffffffffffffffffffffffff1663d1e47bb33360036040518363ffffffff1660e01b81526004016126a8929190615369565b60206040518083038186803b1580156126c057600080fd5b505afa1580156126d4573d6000803e3d6000fd5b505050506040513d601f19601f820116820180604052508101906126f89190614791565b612737576040517f08c379a000000000000000000000000000000000000000000000000000000000815260040161272e90615523565b60405180910390fd5b6000835167ffffffffffffffff81111561277a577f4e487b7100000000000000000000000000000000000000000000000000000000600052604160045260246000fd5b6040519080825280602002602001820160405280156127a85781602001602082028036833780820191505090505b5090506000805b85518163ffffffff161015612b8857600560049054906101000a900463ffffffff1663ffffffff16868263ffffffff1681518110612816577f4e487b7100000000000000000000000000000000000000000000000000000000600052603260045260246000fd5b602002602001015163ffffffff161115612865576040517f08c379a000000000000000000000000000000000000000000000000000000000815260040161285c90615583565b60405180910390fd5b6000806000888463ffffffff16815181106128a9577f4e487b7100000000000000000000000000000000000000000000000000000000600052603260045260246000fd5b602002602001015163ffffffff1663ffffffff1681526020019081526020016000206040518060c00160405290816000820160009054906101000a900463ffffffff1663ffffffff1663ffffffff1681526020016000820160049054906101000a900463ffffffff1663ffffffff1663ffffffff1681526020016000820160089054906101000a900463ffffffff1663ffffffff1663ffffffff16815260200160008201600c9054906101000a900473ffffffffffffffffffffffffffffffffffffffff1673ffffffffffffffffffffffffffffffffffffffff1673ffffffffffffffffffffffffffffffffffffffff1681526020016001820160009054906101000a900460ff161515151581526020016002820180546129c990615cae565b80601f01602080910402602001604051908101604052809291908181526020018280546129f590615cae565b8015612a425780601f10612a1757610100808354040283529160200191612a42565b820191906000526020600020905b815481529060010190602001808311612a2557829003601f168201915b50505050508152505090508060200151848363ffffffff1681518110612a91577f4e487b7100000000000000000000000000000000000000000000000000000000600052603260045260246000fd5b602002602001019063ffffffff16908163ffffffff1681525050806040015183612abb9190615ab0565b92503373ffffffffffffffffffffffffffffffffffffffff16816060015173ffffffffffffffffffffffffffffffffffffffff1614612b2f576040517f08c379a0000000000000000000000000000000000000000000000000000000008152600401612b26906153e3565b60405180910390fd5b806080015115612b74576040517f08c379a0000000000000000000000000000000000000000000000000000000008152600401612b6b90615483565b60405180910390fd5b508080612b8090615ce0565b9150506127af565b506005600881819054906101000a900463ffffffff1680929190612bab90615ce0565b91906101000a81548163ffffffff021916908363ffffffff1602179055505060005b85518163ffffffff161015612c6f576001600080888463ffffffff1681518110612c20577f4e487b7100000000000000000000000000000000000000000000000000000000600052603260045260246000fd5b602002602001015163ffffffff1663ffffffff16815260200190815260200160002060010160006101000a81548160ff0219169083151502179055508080612c6790615ce0565b915050612bcd565b506040518060e00160405280600560089054906101000a900463ffffffff1663ffffffff1681526020018381526020018263ffffffff1681526020018463ffffffff1681526020013373ffffffffffffffffffffffffffffffffffffffff1681526020018581526020016040518060200160405280600081525081525060016000600560089054906101000a900463ffffffff1663ffffffff1663ffffffff16815260200190815260200160002060008201518160000160006101000a81548163ffffffff021916908363ffffffff1602179055506020820151816001019080519060200190612d6092919061448b565b5060408201518160020160006101000a81548163ffffffff021916908363ffffffff16021790555060608201518160020160046101000a81548163ffffffff021916908363ffffffff16021790555060808201518160020160086101000a81548173ffffffffffffffffffffffffffffffffffffffff021916908373ffffffffffffffffffffffffffffffffffffffff16021790555060a0820151816003019080519060200190612e129291906142f3565b5060c0820151816004019080519060200190612e2f9291906142f3565b509050503373ffffffffffffffffffffffffffffffffffffffff167f499d3f5837e61d77a364db177a5e0ba2d02b9a2316f1264fffa374d94a9a12b1600560089054906101000a900463ffffffff168386604051612e8f939291906157fd565b60405180910390a25050505050565b60016020528060005260406000206000915090508060000160009054906101000a900463ffffffff16908060020160009054906101000a900463ffffffff16908060020160049054906101000a900463ffffffff16908060020160089054906101000a900473ffffffffffffffffffffffffffffffffffffffff1690806003018054612f2990615cae565b80601f0160208091040260200160405190810160405280929190818152602001828054612f5590615cae565b8015612fa25780601f10612f7757610100808354040283529160200191612fa2565b820191906000526020600020905b815481529060010190602001808311612f8557829003601f168201915b505050505090806004018054612fb790615cae565b80601f0160208091040260200160405190810160405280929190818152602001828054612fe390615cae565b80156130305780601f1061300557610100808354040283529160200191613030565b820191906000526020600020905b81548152906001019060200180831161301357829003601f168201915b5050505050905086565b6005600481819054906101000a900463ffffffff168092919061305c90615ce0565b91906101000a81548163ffffffff021916908363ffffffff160217905550506040518060c00160405280600560049054906101000a900463ffffffff1663ffffffff1681526020018463ffffffff1681526020018363ffffffff1681526020018273ffffffffffffffffffffffffffffffffffffffff16815260200160001515815260200160405180602001604052806000815250815250600080600560049054906101000a900463ffffffff1663ffffffff1663ffffffff16815260200190815260200160002060008201518160000160006101000a81548163ffffffff021916908363ffffffff16021790555060208201518160000160046101000a81548163ffffffff021916908363ffffffff16021790555060408201518160000160086101000a81548163ffffffff021916908363ffffffff160217905550606082015181600001600c6101000a81548173ffffffffffffffffffffffffffffffffffffffff021916908373ffffffffffffffffffffffffffffffffffffffff16021790555060808201518160010160006101000a81548160ff02191690831515021790555060a082015181600201908051906020019061321c9291906142f3565b50905050600560049054906101000a900463ffffffff1663ffffffff167f3d078b1c3921ddadb756791c1a070b903bcb0cd941a1df4de6eed059fb6e06db838560405161326a9291906157d4565b60405180910390a2505050565b600660009054906101000a900473ffffffffffffffffffffffffffffffffffffffff1673ffffffffffffffffffffffffffffffffffffffff1663d1e47bb33360066040518363ffffffff1660e01b81526004016132d5929190615369565b60206040518083038186803b1580156132ed57600080fd5b505afa158015613301573d6000803e3d6000fd5b505050506040513d601f19601f820116820180604052508101906133259190614791565b613364576040517f08c379a000000000000000000000000000000000000000000000000000000000815260040161335b90615563565b60405180910390fd5b600560009054906101000a900463ffffffff1663ffffffff168263ffffffff1611156133c5576040517f08c379a00000000000000000000000000000000000000000000000000000000081526004016133bc90615443565b60405180910390fd5b80600460008463ffffffff1663ffffffff16815260200190815260200160002060040160006101000a81548160ff0219169083151502179055505050565b600560109054906101000a900463ffffffff1681565b600660009054906101000a900473ffffffffffffffffffffffffffffffffffffffff1673ffffffffffffffffffffffffffffffffffffffff1663d1e47bb33360056040518363ffffffff1660e01b8152600401613477929190615369565b60206040518083038186803b15801561348f57600080fd5b505afa1580156134a3573d6000803e3d6000fd5b505050506040513d601f19601f820116820180604052508101906134c79190614791565b613506576040517f08c379a00000000000000000000000000000000000000000000000000000000081526004016134fd906155a3565b60405180910390fd5b600560009054906101000a900463ffffffff1663ffffffff168263ffffffff161115613567576040517f08c379a000000000000000000000000000000000000000000000000000000000815260040161355e90615443565b60405180910390fd5b6005600c81819054906101000a900463ffffffff168092919061358990615ce0565b91906101000a81548163ffffffff021916908363ffffffff1602179055505060405180608001604052806005600c9054906101000a900463ffffffff1663ffffffff16815260200182815260200142815260200160405180602001604052806000815250815250600260008463ffffffff1663ffffffff16815260200190815260200160002060008201518160000160006101000a81548163ffffffff021916908363ffffffff16021790555060208201518160010190805190602001906136529291906142f3565b506040820151816002015560608201518160030190805190602001906136799291906142f3565b509050508163ffffffff167f9ab17ec591b78d61af32f738c106f43e1d835ccc08eb5363d4e06886475d990f6005600c9054906101000a900463ffffffff1683426040516136c993929190615743565b60405180910390a25050565b600660009054906101000a900473ffffffffffffffffffffffffffffffffffffffff1673ffffffffffffffffffffffffffffffffffffffff1663d1e47bb33360066040518363ffffffff1660e01b8152600401613733929190615369565b60206040518083038186803b15801561374b57600080fd5b505afa15801561375f573d6000803e3d6000fd5b505050506040513d601f19601f820116820180604052508101906137839190614791565b6137c2576040517f08c379a00000000000000000000000000000000000000000000000000000000081526004016137b990615563565b60405180910390fd5b600060016000600460008763ffffffff1663ffffffff16815260200190815260200160002060000160049054906101000a900463ffffffff1663ffffffff1663ffffffff1681526020019081526020016000206040518060e00160405290816000820160009054906101000a900463ffffffff1663ffffffff1663ffffffff168152602001600182018054806020026020016040519081016040528092919081815260200182805480156138c157602002820191906000526020600020906000905b82829054906101000a900463ffffffff1663ffffffff16815260200190600401906020826003010492830192600103820291508084116138845790505b505050505081526020016002820160009054906101000a900463ffffffff1663ffffffff1663ffffffff1681526020016002820160049054906101000a900463ffffffff1663ffffffff1663ffffffff1681526020016002820160089054906101000a900473ffffffffffffffffffffffffffffffffffffffff1673ffffffffffffffffffffffffffffffffffffffff1673ffffffffffffffffffffffffffffffffffffffff16815260200160038201805461397c90615cae565b80601f01602080910402602001604051908101604052809291908181526020018280546139a890615cae565b80156139f55780601f106139ca576101008083540402835291602001916139f5565b820191906000526020600020905b8154815290600101906020018083116139d857829003601f168201915b50505050508152602001600482018054613a0e90615cae565b80601f0160208091040260200160405190810160405280929190818152602001828054613a3a90615cae565b8015613a875780601f10613a5c57610100808354040283529160200191613a87565b820191906000526020600020905b815481529060010190602001808311613a6a57829003601f168201915b5050505050815250509050600460008563ffffffff1663ffffffff168152602001908152602001600020600001600c9054906101000a900463ffffffff1663ffffffff168363ffffffff1614613b12576040517f08c379a0000000000000000000000000000000000000000000000000000000008152600401613b0990615463565b60405180910390fd5b600460008563ffffffff1663ffffffff16815260200190815260200160002060000160109054906101000a900460ff1615613b82576040517f08c379a0000000000000000000000000000000000000000000000000000000008152600401613b79906154c3565b60405180910390fd5b60016002811115613bbc577f4e487b7100000000000000000000000000000000000000000000000000000000600052602160045260246000fd5b600460008663ffffffff1663ffffffff16815260200190815260200160002060020160149054906101000a900460ff166002811115613c24577f4e487b7100000000000000000000000000000000000000000000000000000000600052602160045260246000fd5b14613c64576040517f08c379a0000000000000000000000000000000000000000000000000000000008152600401613c5b90615423565b60405180910390fd5b6001600460008663ffffffff1663ffffffff16815260200190815260200160002060000160106101000a81548160ff0219169083151502179055506005601081819054906101000a900463ffffffff1680929190613cc190615ce0565b91906101000a81548163ffffffff021916908363ffffffff160217905550506040518060e00160405280600560109054906101000a900463ffffffff1663ffffffff1681526020013373ffffffffffffffffffffffffffffffffffffffff168152602001600460008763ffffffff1663ffffffff16815260200190815260200160002060010160009054906101000a900473ffffffffffffffffffffffffffffffffffffffff1673ffffffffffffffffffffffffffffffffffffffff1681526020018463ffffffff168152602001836002811115613dc8577f4e487b7100000000000000000000000000000000000000000000000000000000600052602160045260246000fd5b81526020014281526020016040518060200160405280600081525081525060036000600560109054906101000a900463ffffffff1663ffffffff1663ffffffff16815260200190815260200160002060008201518160000160006101000a81548163ffffffff021916908363ffffffff16021790555060208201518160000160046101000a81548173ffffffffffffffffffffffffffffffffffffffff021916908373ffffffffffffffffffffffffffffffffffffffff16021790555060408201518160010160006101000a81548173ffffffffffffffffffffffffffffffffffffffff021916908373ffffffffffffffffffffffffffffffffffffffff16021790555060608201518160010160146101000a81548163ffffffff021916908363ffffffff16021790555060808201518160010160186101000a81548160ff02191690836002811115613f44577f4e487b7100000000000000000000000000000000000000000000000000000000600052602160045260246000fd5b021790555060a0820151816002015560c0820151816003019080519060200190613f6f9291906142f3565b50905050806000015163ffffffff167fd9f037670aada9b07156110dd936887c158e5cd6f7932663cc64ef336e44cf9f600560109054906101000a900463ffffffff16338686604051613fc594939291906156fe565b60405180910390a250505050565b600560049054906101000a900463ffffffff1681565b60026020528060005260406000206000915090508060000160009054906101000a900463ffffffff169080600101805461402290615cae565b80601f016020809104026020016040519081016040528092919081815260200182805461404e90615cae565b801561409b5780601f106140705761010080835404028352916020019161409b565b820191906000526020600020905b81548152906001019060200180831161407e57829003601f168201915b5050505050908060020154908060030180546140b690615cae565b80601f01602080910402602001604051908101604052809291908181526020018280546140e290615cae565b801561412f5780601f106141045761010080835404028352916020019161412f565b820191906000526020600020905b81548152906001019060200180831161411257829003601f168201915b5050505050905084565b6000600560109054906101000a900463ffffffff16905090565b6040518060e00160405280600063ffffffff168152602001600073ffffffffffffffffffffffffffffffffffffffff168152602001600073ffffffffffffffffffffffffffffffffffffffff168152602001600063ffffffff168152602001600060028111156141ec577f4e487b7100000000000000000000000000000000000000000000000000000000600052602160045260246000fd5b815260200160008152602001606081525090565b6040518060c00160405280600063ffffffff168152602001600063ffffffff168152602001600063ffffffff168152602001600073ffffffffffffffffffffffffffffffffffffffff168152602001600015158152602001606081525090565b6040518060800160405280600063ffffffff1681526020016060815260200160008152602001606081525090565b6040518060e00160405280600063ffffffff16815260200160608152602001600063ffffffff168152602001600063ffffffff168152602001600073ffffffffffffffffffffffffffffffffffffffff16815260200160608152602001606081525090565b8280546142ff90615cae565b90600052602060002090601f0160209004810192826143215760008555614368565b82601f1061433a57805160ff1916838001178555614368565b82800160010185558215614368579182015b8281111561436757825182559160200191906001019061434c565b5b509050614375919061453b565b5090565b604051806101600160405280600063ffffffff168152602001600063ffffffff168152602001600063ffffffff168152602001600063ffffffff168152602001600015158152602001600060018111156143fc577f4e487b7100000000000000000000000000000000000000000000000000000000600052602160045260246000fd5b8152602001600073ffffffffffffffffffffffffffffffffffffffff168152602001600073ffffffffffffffffffffffffffffffffffffffff16815260200160006002811115614475577f4e487b7100000000000000000000000000000000000000000000000000000000600052602160045260246000fd5b8152602001606081526020016000151581525090565b8280548282559060005260206000209060070160089004810192821561452a5791602002820160005b838211156144f857835183826101000a81548163ffffffff021916908363ffffffff16021790555092602001926004016020816003010492830192600103026144b4565b80156145285782816101000a81549063ffffffff02191690556004016020816003010492830192600103026144f8565b505b509050614537919061453b565b5090565b5b8082111561455457600081600090555060010161453c565b5090565b600061456b614566846159ee565b6159bd565b9050808382526020820190508285602086028201111561458a57600080fd5b60005b858110156145ba57816145a088826146d4565b84526020840193506020830192505060018101905061458d565b5050509392505050565b60006145d76145d284615a1a565b6159bd565b9050828152602081018484840111156145ef57600080fd5b6145fa848285615c6c565b509392505050565b60008135905061461181615e2a565b92915050565b600082601f83011261462857600080fd5b8135614638848260208601614558565b91505092915050565b60008135905061465081615e41565b92915050565b60008151905061466581615e41565b92915050565b60008135905061467a81615e58565b92915050565b60008135905061468f81615e68565b92915050565b6000813590506146a481615e78565b92915050565b600082601f8301126146bb57600080fd5b81356146cb8482602086016145c4565b91505092915050565b6000813590506146e381615e88565b92915050565b6000602082840312156146fb57600080fd5b600061470984828501614602565b91505092915050565b60008060006060848603121561472757600080fd5b600084013567ffffffffffffffff81111561474157600080fd5b61474d86828701614617565b935050602084013567ffffffffffffffff81111561476a57600080fd5b614776868287016146aa565b9250506040614787868287016146d4565b9150509250925092565b6000602082840312156147a357600080fd5b60006147b184828501614656565b91505092915050565b6000602082840312156147cc57600080fd5b60006147da848285016146d4565b91505092915050565b600080604083850312156147f657600080fd5b6000614804858286016146d4565b925050602061481585828601614641565b9150509250929050565b6000806040838503121561483257600080fd5b6000614840858286016146d4565b925050602061485185828601614680565b9150509250929050565b6000806040838503121561486e57600080fd5b600061487c858286016146d4565b925050602061488d85828601614695565b9150509250929050565b600080604083850312156148aa57600080fd5b60006148b8858286016146d4565b925050602083013567ffffffffffffffff8111156148d557600080fd5b6148e1858286016146aa565b9150509250929050565b600080604083850312156148fe57600080fd5b600061490c858286016146d4565b925050602061491d858286016146d4565b9150509250929050565b60008060006060848603121561493c57600080fd5b600061494a868287016146d4565b935050602061495b868287016146d4565b925050604061496c86828701614602565b9150509250925092565b60008060006060848603121561498b57600080fd5b6000614999868287016146d4565b93505060206149aa868287016146d4565b92505060406149bb8682870161466b565b9150509250925092565b60006149d1838361534b565b60208301905092915050565b6149e681615b5c565b82525050565b6149f581615b5c565b82525050565b6000614a0682615a5a565b614a108185615a7d565b9350614a1b83615a4a565b8060005b83811015614a4c578151614a3388826149c5565b9750614a3e83615a70565b925050600181019050614a1f565b5085935050505092915050565b614a6281615b6e565b82525050565b614a7181615b6e565b82525050565b614a8081615c00565b82525050565b614a8f81615c24565b82525050565b614a9e81615c24565b82525050565b614aad81615c36565b82525050565b614abc81615c48565b82525050565b614acb81615c48565b82525050565b614ada81615c5a565b82525050565b614ae981615c5a565b82525050565b6000614afa82615a65565b614b048185615a8e565b9350614b14818560208601615c7b565b614b1d81615dc9565b840191505092915050565b6000614b3382615a65565b614b3d8185615a9f565b9350614b4d818560208601615c7b565b614b5681615dc9565b840191505092915050565b6000614b6e602a83615a9f565b91507f566f7573206e27657374207061732070726f707269657461697265206465206360008301527f652070726f647569742e000000000000000000000000000000000000000000006020830152604082019050919050565b6000614bd4601a83615a9f565b91507f436f6d6d616e64652070617320656e636f7265206c697672652e0000000000006000830152602082019050919050565b6000614c14601583615a9f565b91507f436f6d6d616e6465206e6f6e2076616c696465722e00000000000000000000006000830152602082019050919050565b6000614c54601983615a9f565b91507f4c6120636f6d6d616e6465206e27657869737465207061732e000000000000006000830152602082019050919050565b6000614c94601183615a9f565b91507f4d6f6e74616e7420696e636f72726563740000000000000000000000000000006000830152602082019050919050565b6000614cd4602183615a9f565b91507f50726f647569742064656a6120656e726567697374726520636f6d6d65206c6f60008301527f74000000000000000000000000000000000000000000000000000000000000006020830152604082019050919050565b6000614d3a602a83615a9f565b91507f566f7573206e2765746573207061732070726f7072696574616972652064652060008301527f63652070726f64756974000000000000000000000000000000000000000000006020830152604082019050919050565b6000614da0601383615a9f565b91507f436f6d6d616e64652064656a61207061796572000000000000000000000000006000830152602082019050919050565b6000614de0600b83615a9f565b91507f496420696e636f726563740000000000000000000000000000000000000000006000830152602082019050919050565b6000614e20601183615a9f565b91507f5175616e7469746520696e76616c6964650000000000000000000000000000006000830152602082019050919050565b6000614e60602283615a9f565b91507f4e6f6e206175746f726973653a207365756c656d656e7420436f6c6c6563746560008301527f75720000000000000000000000000000000000000000000000000000000000006020830152604082019050919050565b6000614ec6601a83615a9f565b91507f436f6e747261742064656a6120696e697469616c6973657220210000000000006000830152602082019050919050565b6000614f06602383615a9f565b91507f4e6f6e206175746f726973653a207365756c656d656e74204578706f7274617460008301527f65757200000000000000000000000000000000000000000000000000000000006020830152604082019050919050565b6000614f6c601583615a9f565b91507f50726f64756974206e6f6e206578697374616e742e00000000000000000000006000830152602082019050919050565b6000614fac602483615a9f565b91507f4e6f6e206175746f726973653a207365756c656d656e74205472616e73706f7260008301527f74657572000000000000000000000000000000000000000000000000000000006020830152604082019050919050565b60006101608301600083015161501e600086018261534b565b506020830151615031602086018261534b565b506040830151615044604086018261534b565b506060830151615057606086018261534b565b50608083015161506a6080860182614a59565b5060a083015161507d60a0860182614ad1565b5060c083015161509060c08601826149dd565b5060e08301516150a360e08601826149dd565b506101008301516150b8610100860182614ab3565b506101208301518482036101208601526150d28282614aef565b9150506101408301516150e9610140860182614a59565b508091505092915050565b600060808301600083015161510c600086018261534b565b50602083015184820360208601526151248282614aef565b9150506040830151615139604086018261532d565b50606083015184820360608601526151518282614aef565b9150508091505092915050565b600060e083016000830151615176600086018261534b565b506020830151848203602086015261518e82826149fb565b91505060408301516151a3604086018261534b565b5060608301516151b6606086018261534b565b5060808301516151c960808601826149dd565b5060a083015184820360a08601526151e18282614aef565b91505060c083015184820360c08601526151fb8282614aef565b9150508091505092915050565b600060e083016000830151615220600086018261534b565b50602083015161523360208601826149dd565b50604083015161524660408601826149dd565b506060830151615259606086018261534b565b50608083015161526c6080860182614a86565b5060a083015161527f60a086018261532d565b5060c083015184820360c08601526152978282614aef565b9150508091505092915050565b600060c0830160008301516152bc600086018261534b565b5060208301516152cf602086018261534b565b5060408301516152e2604086018261534b565b5060608301516152f560608601826149dd565b5060808301516153086080860182614a59565b5060a083015184820360a08601526153208282614aef565b9150508091505092915050565b61533681615be6565b82525050565b61534581615be6565b82525050565b61535481615bf0565b82525050565b61536381615bf0565b82525050565b600060408201905061537e60008301856149ec565b61538b6020830184614aa4565b9392505050565b60006020820190506153a76000830184614a77565b92915050565b60006020820190506153c26000830184614ac2565b92915050565b60006020820190506153dd6000830184614ae0565b92915050565b600060208201905081810360008301526153fc81614b61565b9050919050565b6000602082019050818103600083015261541c81614bc7565b9050919050565b6000602082019050818103600083015261543c81614c07565b9050919050565b6000602082019050818103600083015261545c81614c47565b9050919050565b6000602082019050818103600083015261547c81614c87565b9050919050565b6000602082019050818103600083015261549c81614cc7565b9050919050565b600060208201905081810360008301526154bc81614d2d565b9050919050565b600060208201905081810360008301526154dc81614d93565b9050919050565b600060208201905081810360008301526154fc81614dd3565b9050919050565b6000602082019050818103600083015261551c81614e13565b9050919050565b6000602082019050818103600083015261553c81614e53565b9050919050565b6000602082019050818103600083015261555c81614eb9565b9050919050565b6000602082019050818103600083015261557c81614ef9565b9050919050565b6000602082019050818103600083015261559c81614f5f565b9050919050565b600060208201905081810360008301526155bc81614f9f565b9050919050565b600060208201905081810360008301526155dd8184615005565b905092915050565b600060208201905081810360008301526155ff81846150f4565b905092915050565b60006020820190508181036000830152615621818461515e565b905092915050565b600060208201905081810360008301526156438184615208565b905092915050565b6000602082019050818103600083015261566581846152a4565b905092915050565b6000602082019050615682600083018461535a565b92915050565b600060e08201905061569d600083018a61535a565b6156aa60208301896149ec565b6156b760408301886149ec565b6156c4606083018761535a565b6156d16080830186614a95565b6156de60a083018561533c565b81810360c08301526156f08184614b28565b905098975050505050505050565b6000608082019050615713600083018761535a565b61572060208301866149ec565b61572d604083018561535a565b61573a6060830184614a95565b95945050505050565b6000606082019050615758600083018661535a565b818103602083015261576a8185614b28565b9050615779604083018461533c565b949350505050565b6000608082019050615796600083018761535a565b81810360208301526157a88186614b28565b90506157b7604083018561533c565b81810360608301526157c98184614b28565b905095945050505050565b60006040820190506157e9600083018561535a565b6157f6602083018461535a565b9392505050565b6000606082019050615812600083018661535a565b61581f602083018561535a565b61582c604083018461535a565b949350505050565b600060c082019050615849600083018961535a565b615856602083018861535a565b615863604083018761535a565b61587060608301866149ec565b61587d6080830185614a68565b81810360a083015261588f8184614b28565b9050979650505050505050565b600060c0820190506158b1600083018961535a565b6158be602083018861535a565b6158cb604083018761535a565b6158d860608301866149ec565b81810360808301526158ea8185614b28565b905081810360a08301526158fe8184614b28565b9050979650505050505050565b600061016082019050615921600083018e61535a565b61592e602083018d61535a565b61593b604083018c61535a565b615948606083018b61535a565b615955608083018a614a68565b61596260a0830189614ae0565b61596f60c08301886149ec565b61597c60e08301876149ec565b61598a610100830186614ac2565b81810361012083015261599d8185614b28565b90506159ad610140830184614a68565b9c9b505050505050505050505050565b6000604051905081810181811067ffffffffffffffff821117156159e4576159e3615d9a565b5b8060405250919050565b600067ffffffffffffffff821115615a0957615a08615d9a565b5b602082029050602081019050919050565b600067ffffffffffffffff821115615a3557615a34615d9a565b5b601f19601f8301169050602081019050919050565b6000819050602082019050919050565b600081519050919050565b600081519050919050565b6000602082019050919050565b600082825260208201905092915050565b600082825260208201905092915050565b600082825260208201905092915050565b6000615abb82615bf0565b9150615ac683615bf0565b92508263ffffffff03821115615adf57615ade615d0d565b5b828201905092915050565b6000615af582615bf0565b9150615b0083615bf0565b92508163ffffffff0483118215151615615b1d57615b1c615d0d565b5b828202905092915050565b6000615b3382615bf0565b9150615b3e83615bf0565b925082821015615b5157615b50615d0d565b5b828203905092915050565b6000615b6782615bc6565b9050919050565b60008115159050919050565b6000819050615b8882615dda565b919050565b6000819050615b9b82615dee565b919050565b6000819050615bae82615e02565b919050565b6000819050615bc182615e16565b919050565b600073ffffffffffffffffffffffffffffffffffffffff82169050919050565b6000819050919050565b600063ffffffff82169050919050565b6000615c0b82615c12565b9050919050565b6000615c1d82615bc6565b9050919050565b6000615c2f82615b7a565b9050919050565b6000615c4182615b8d565b9050919050565b6000615c5382615ba0565b9050919050565b6000615c6582615bb3565b9050919050565b82818337600083830152505050565b60005b83811015615c99578082015181840152602081019050615c7e565b83811115615ca8576000848401525b50505050565b60006002820490506001821680615cc657607f821691505b60208210811415615cda57615cd9615d6b565b5b50919050565b6000615ceb82615bf0565b915063ffffffff821415615d0257615d01615d0d565b5b600182019050919050565b7f4e487b7100000000000000000000000000000000000000000000000000000000600052601160045260246000fd5b7f4e487b7100000000000000000000000000000000000000000000000000000000600052602160045260246000fd5b7f4e487b7100000000000000000000000000000000000000000000000000000000600052602260045260246000fd5b7f4e487b7100000000000000000000000000000000000000000000000000000000600052604160045260246000fd5b6000601f19601f8301169050919050565b60038110615deb57615dea615d3c565b5b50565b60088110615dff57615dfe615d3c565b5b50565b60038110615e1357615e12615d3c565b5b50565b60028110615e2757615e26615d3c565b5b50565b615e3381615b5c565b8114615e3e57600080fd5b50565b615e4a81615b6e565b8114615e5557600080fd5b50565b60038110615e6557600080fd5b50565b60038110615e7557600080fd5b50565b60028110615e8557600080fd5b50565b615e9181615bf0565b8114615e9c57600080fd5b5056fea26469706673582212200a6ac8a0c40d8572458fb632f0a704b343c1a3ca3203e1764b002e5662666a6e64736f6c63430008000033",
  "linkReferences": {},
  "deployedLinkReferences": {}
}