{
  "_format": "hh-sol-artifact-1",
  "contractName": "CollecteurExportateur",
  "sourceName": "contracts/CollecteurExportateur.sol",
  "abi": [
    {
      "anonymous": false,
      "inputs": [
        {
          "indexed": true,
          "internalType": "address",
          "name": "collecteur",
          "type": "address"
        },
        {
          "indexed": false,
          "internalType": "uint32",
          "name": "idLotProduit",
          "type": "uint32"
        },
        {
          "indexed": false,
          "internalType": "uint32",
          "name": "quantite",
          "type": "uint32"
        },
        {
          "indexed": false,
          "internalType": "uint32",
          "name": "prix",
          "type": "uint32"
        }
      ],
      "name": "AjoutLotProduit",
      "type": "event"
    },
    {
      "anonymous": false,
      "inputs": [
        {
          "indexed": true,
          "internalType": "address",
          "name": "exportateur",
          "type": "address"
        },
        {
          "indexed": false,
          "internalType": "uint32",
          "name": "idProduit",
          "type": "uint32"
        }
      ],
      "name": "CommandePasser",
      "type": "event"
    },
    {
      "anonymous": false,
      "inputs": [
        {
          "indexed": true,
          "internalType": "uint32",
          "name": "idProduit",
          "type": "uint32"
        },
        {
          "indexed": false,
          "internalType": "string",
          "name": "cid",
          "type": "string"
        },
        {
          "indexed": false,
          "internalType": "uint256",
          "name": "timestamp",
          "type": "uint256"
        }
      ],
      "name": "ConditionEnregistree",
      "type": "event"
    },
    {
      "anonymous": false,
      "inputs": [
        {
          "indexed": true,
          "internalType": "uint32",
          "name": "idProduit",
          "type": "uint32"
        },
        {
          "indexed": false,
          "internalType": "uint32",
          "name": "idPaiement",
          "type": "uint32"
        },
        {
          "indexed": false,
          "internalType": "address",
          "name": "payeur",
          "type": "address"
        },
        {
          "indexed": false,
          "internalType": "uint32",
          "name": "montant",
          "type": "uint32"
        },
        {
          "indexed": false,
          "internalType": "enum StructLib.ModePaiement",
          "name": "mode",
          "type": "uint8"
        }
      ],
      "name": "PaiementEffectue",
      "type": "event"
    },
    {
      "anonymous": false,
      "inputs": [
        {
          "indexed": true,
          "internalType": "uint32",
          "name": "idProduit",
          "type": "uint32"
        },
        {
          "indexed": false,
          "internalType": "uint32",
          "name": "quantite",
          "type": "uint32"
        },
        {
          "indexed": false,
          "internalType": "uint32",
          "name": "idRecolte",
          "type": "uint32"
        }
      ],
      "name": "ProduitAjoute",
      "type": "event"
    },
    {
      "anonymous": false,
      "inputs": [
        {
          "indexed": true,
          "internalType": "uint32",
          "name": "idProduit",
          "type": "uint32"
        },
        {
          "indexed": false,
          "internalType": "bool",
          "name": "valide",
          "type": "bool"
        }
      ],
      "name": "ProduitValide",
      "type": "event"
    },
    {
      "anonymous": false,
      "inputs": [
        {
          "indexed": true,
          "internalType": "uint32",
          "name": "idCommande",
          "type": "uint32"
        },
        {
          "indexed": false,
          "internalType": "enum StructLib.StatutProduit",
          "name": "status",
          "type": "uint8"
        }
      ],
      "name": "StatusCommandeMisAJour",
      "type": "event"
    },
    {
      "anonymous": false,
      "inputs": [
        {
          "indexed": true,
          "internalType": "uint32",
          "name": "idProduit",
          "type": "uint32"
        },
        {
          "indexed": false,
          "internalType": "enum StructLib.StatutTransport",
          "name": "statut",
          "type": "uint8"
        }
      ],
      "name": "StatutTransportMisAJour",
      "type": "event"
    },
    {
      "stateMutability": "payable",
      "type": "fallback"
    },
    {
      "inputs": [
        {
          "internalType": "uint32[]",
          "name": "_idProduits",
          "type": "uint32[]"
        },
        {
          "internalType": "string",
          "name": "_cid",
          "type": "string"
        },
        {
          "internalType": "uint32",
          "name": "_prix",
          "type": "uint32"
        }
      ],
      "name": "ajouterLotProduit",
      "outputs": [],
      "stateMutability": "nonpayable",
      "type": "function"
    },
    {
      "inputs": [
        {
          "internalType": "uint32",
          "name": "_idCommandeRecolte",
          "type": "uint32"
        },
        {
          "internalType": "uint32",
          "name": "_idRecolte",
          "type": "uint32"
        },
        {
          "internalType": "uint32",
          "name": "_quantite",
          "type": "uint32"
        },
        {
          "internalType": "address",
          "name": "_collecteur",
          "type": "address"
        }
      ],
      "name": "ajouterProduit",
      "outputs": [],
      "stateMutability": "nonpayable",
      "type": "function"
    },
    {
      "inputs": [
        {
          "internalType": "uint32",
          "name": "idCommande",
          "type": "uint32"
        },
        {
          "internalType": "address",
          "name": "transporteur",
          "type": "address"
        }
      ],
      "name": "choisirTransporteurCommandeProduit",
      "outputs": [],
      "stateMutability": "nonpayable",
      "type": "function"
    },
    {
      "inputs": [
        {
          "internalType": "uint32",
          "name": "",
          "type": "uint32"
        }
      ],
      "name": "commandes",
      "outputs": [
        {
          "internalType": "uint32",
          "name": "id",
          "type": "uint32"
        },
        {
          "internalType": "uint32",
          "name": "idLotProduit",
          "type": "uint32"
        },
        {
          "internalType": "uint32",
          "name": "quantite",
          "type": "uint32"
        },
        {
          "internalType": "uint32",
          "name": "prix",
          "type": "uint32"
        },
        {
          "internalType": "bool",
          "name": "payer",
          "type": "bool"
        },
        {
          "internalType": "enum StructLib.StatutTransport",
          "name": "statutTransport",
          "type": "uint8"
        },
        {
          "internalType": "address",
          "name": "collecteur",
          "type": "address"
        },
        {
          "internalType": "address",
          "name": "exportateur",
          "type": "address"
        },
        {
          "internalType": "enum StructLib.StatutProduit",
          "name": "statutProduit",
          "type": "uint8"
        },
        {
          "internalType": "bool",
          "name": "enregistre",
          "type": "bool"
        },
        {
          "internalType": "bool",
          "name": "enregistrerCondition",
          "type": "bool"
        },
        {
          "internalType": "address",
          "name": "transporteur",
          "type": "address"
        }
      ],
      "stateMutability": "view",
      "type": "function"
    },
    {
      "inputs": [],
      "name": "compteurCommandes",
      "outputs": [
        {
          "internalType": "uint32",
          "name": "",
          "type": "uint32"
        }
      ],
      "stateMutability": "view",
      "type": "function"
    },
    {
      "inputs": [],
      "name": "compteurLotProduits",
      "outputs": [
        {
          "internalType": "uint32",
          "name": "",
          "type": "uint32"
        }
      ],
      "stateMutability": "view",
      "type": "function"
    },
    {
      "inputs": [],
      "name": "compteurProduits",
      "outputs": [
        {
          "internalType": "uint32",
          "name": "",
          "type": "uint32"
        }
      ],
      "stateMutability": "view",
      "type": "function"
    },
    {
      "inputs": [
        {
          "internalType": "uint32",
          "name": "",
          "type": "uint32"
        }
      ],
      "name": "conditions",
      "outputs": [
        {
          "internalType": "uint32",
          "name": "id",
          "type": "uint32"
        },
        {
          "internalType": "string",
          "name": "cid",
          "type": "string"
        },
        {
          "internalType": "uint256",
          "name": "timestamp",
          "type": "uint256"
        },
        {
          "internalType": "string",
          "name": "hashMerkle",
          "type": "string"
        }
      ],
      "stateMutability": "view",
      "type": "function"
    },
    {
      "inputs": [
        {
          "internalType": "uint32",
          "name": "_idCommande",
          "type": "uint32"
        },
        {
          "internalType": "uint32",
          "name": "_montant",
          "type": "uint32"
        },
        {
          "internalType": "enum StructLib.ModePaiement",
          "name": "_mode",
          "type": "uint8"
        }
      ],
      "name": "effectuerPaiement",
      "outputs": [],
      "stateMutability": "payable",
      "type": "function"
    },
    {
      "inputs": [
        {
          "internalType": "uint32",
          "name": "_idCommande",
          "type": "uint32"
        },
        {
          "internalType": "bool",
          "name": "_enregistre",
          "type": "bool"
        }
      ],
      "name": "enregistrerCommande",
      "outputs": [],
      "stateMutability": "nonpayable",
      "type": "function"
    },
    {
      "inputs": [
        {
          "internalType": "uint32",
          "name": "_idCommande",
          "type": "uint32"
        },
        {
          "internalType": "string",
          "name": "_cid",
          "type": "string"
        }
      ],
      "name": "enregistrerCondition",
      "outputs": [],
      "stateMutability": "nonpayable",
      "type": "function"
    },
    {
      "inputs": [],
      "name": "gestionnaireActeurs",
      "outputs": [
        {
          "internalType": "contract GestionnaireActeurs",
          "name": "",
          "type": "address"
        }
      ],
      "stateMutability": "view",
      "type": "function"
    },
    {
      "inputs": [
        {
          "internalType": "uint32",
          "name": "id",
          "type": "uint32"
        }
      ],
      "name": "getCommande",
      "outputs": [
        {
          "components": [
            {
              "internalType": "uint32",
              "name": "id",
              "type": "uint32"
            },
            {
              "internalType": "uint32",
              "name": "idLotProduit",
              "type": "uint32"
            },
            {
              "internalType": "uint32",
              "name": "quantite",
              "type": "uint32"
            },
            {
              "internalType": "uint32",
              "name": "prix",
              "type": "uint32"
            },
            {
              "internalType": "bool",
              "name": "payer",
              "type": "bool"
            },
            {
              "internalType": "enum StructLib.StatutTransport",
              "name": "statutTransport",
              "type": "uint8"
            },
            {
              "internalType": "address",
              "name": "collecteur",
              "type": "address"
            },
            {
              "internalType": "address",
              "name": "exportateur",
              "type": "address"
            },
            {
              "internalType": "enum StructLib.StatutProduit",
              "name": "statutProduit",
              "type": "uint8"
            },
            {
              "internalType": "bool",
              "name": "enregistre",
              "type": "bool"
            },
            {
              "internalType": "bool",
              "name": "enregistrerCondition",
              "type": "bool"
            },
            {
              "internalType": "address",
              "name": "transporteur",
              "type": "address"
            }
          ],
          "internalType": "struct StructLib.CommandeProduit",
          "name": "",
          "type": "tuple"
        }
      ],
      "stateMutability": "view",
      "type": "function"
    },
    {
      "inputs": [],
      "name": "getCompteurCommande",
      "outputs": [
        {
          "internalType": "uint32",
          "name": "",
          "type": "uint32"
        }
      ],
      "stateMutability": "view",
      "type": "function"
    },
    {
      "inputs": [],
      "name": "getCompteurCondition",
      "outputs": [
        {
          "internalType": "uint32",
          "name": "",
          "type": "uint32"
        }
      ],
      "stateMutability": "view",
      "type": "function"
    },
    {
      "inputs": [],
      "name": "getCompteurPaiement",
      "outputs": [
        {
          "internalType": "uint32",
          "name": "",
          "type": "uint32"
        }
      ],
      "stateMutability": "view",
      "type": "function"
    },
    {
      "inputs": [],
      "name": "getCompteurProduit",
      "outputs": [
        {
          "internalType": "uint32",
          "name": "",
          "type": "uint32"
        }
      ],
      "stateMutability": "view",
      "type": "function"
    },
    {
      "inputs": [
        {
          "internalType": "uint32",
          "name": "id",
          "type": "uint32"
        }
      ],
      "name": "getCondition",
      "outputs": [
        {
          "components": [
            {
              "internalType": "uint32",
              "name": "id",
              "type": "uint32"
            },
            {
              "internalType": "string",
              "name": "cid",
              "type": "string"
            },
            {
              "internalType": "uint256",
              "name": "timestamp",
              "type": "uint256"
            },
            {
              "internalType": "string",
              "name": "hashMerkle",
              "type": "string"
            }
          ],
          "internalType": "struct StructLib.EnregistrementCondition",
          "name": "",
          "type": "tuple"
        }
      ],
      "stateMutability": "view",
      "type": "function"
    },
    {
      "inputs": [
        {
          "internalType": "uint32",
          "name": "id",
          "type": "uint32"
        }
      ],
      "name": "getLotProduit",
      "outputs": [
        {
          "components": [
            {
              "internalType": "uint32",
              "name": "id",
              "type": "uint32"
            },
            {
              "internalType": "uint32[]",
              "name": "idRecolte",
              "type": "uint32[]"
            },
            {
              "internalType": "uint32[]",
              "name": "idCommandeRecoltes",
              "type": "uint32[]"
            },
            {
              "internalType": "uint32",
              "name": "quantite",
              "type": "uint32"
            },
            {
              "internalType": "uint32",
              "name": "prix",
              "type": "uint32"
            },
            {
              "internalType": "address",
              "name": "collecteur",
              "type": "address"
            },
            {
              "internalType": "string",
              "name": "cid",
              "type": "string"
            },
            {
              "internalType": "bytes32",
              "name": "hashMerkle",
              "type": "bytes32"
            }
          ],
          "internalType": "struct StructLib.LotProduit",
          "name": "",
          "type": "tuple"
        }
      ],
      "stateMutability": "view",
      "type": "function"
    },
    {
      "inputs": [
        {
          "internalType": "uint32",
          "name": "id",
          "type": "uint32"
        }
      ],
      "name": "getPaiement",
      "outputs": [
        {
          "components": [
            {
              "internalType": "uint32",
              "name": "id",
              "type": "uint32"
            },
            {
              "internalType": "address",
              "name": "payeur",
              "type": "address"
            },
            {
              "internalType": "address",
              "name": "vendeur",
              "type": "address"
            },
            {
              "internalType": "uint32",
              "name": "montant",
              "type": "uint32"
            },
            {
              "internalType": "enum StructLib.ModePaiement",
              "name": "mode",
              "type": "uint8"
            },
            {
              "internalType": "uint256",
              "name": "timestamp",
              "type": "uint256"
            },
            {
              "internalType": "string",
              "name": "hashMerkle",
              "type": "string"
            }
          ],
          "internalType": "struct StructLib.Paiement",
          "name": "",
          "type": "tuple"
        }
      ],
      "stateMutability": "view",
      "type": "function"
    },
    {
      "inputs": [
        {
          "internalType": "uint32",
          "name": "id",
          "type": "uint32"
        }
      ],
      "name": "getProduit",
      "outputs": [
        {
          "components": [
            {
              "internalType": "uint32",
              "name": "id",
              "type": "uint32"
            },
            {
              "internalType": "uint32",
              "name": "idRecolte",
              "type": "uint32"
            },
            {
              "internalType": "uint32",
              "name": "idCommandeRecolte",
              "type": "uint32"
            },
            {
              "internalType": "uint32",
              "name": "quantite",
              "type": "uint32"
            },
            {
              "internalType": "address",
              "name": "collecteur",
              "type": "address"
            },
            {
              "internalType": "bool",
              "name": "enregistre",
              "type": "bool"
            }
          ],
          "internalType": "struct StructLib.Produit",
          "name": "",
          "type": "tuple"
        }
      ],
      "stateMutability": "view",
      "type": "function"
    },
    {
      "inputs": [
        {
          "internalType": "address",
          "name": "_gestionnaireActeurs",
          "type": "address"
        }
      ],
      "name": "initialiser",
      "outputs": [],
      "stateMutability": "nonpayable",
      "type": "function"
    },
    {
      "inputs": [
        {
          "internalType": "uint32",
          "name": "",
          "type": "uint32"
        }
      ],
      "name": "lotProduits",
      "outputs": [
        {
          "internalType": "uint32",
          "name": "id",
          "type": "uint32"
        },
        {
          "internalType": "uint32",
          "name": "quantite",
          "type": "uint32"
        },
        {
          "internalType": "uint32",
          "name": "prix",
          "type": "uint32"
        },
        {
          "internalType": "address",
          "name": "collecteur",
          "type": "address"
        },
        {
          "internalType": "string",
          "name": "cid",
          "type": "string"
        },
        {
          "internalType": "bytes32",
          "name": "hashMerkle",
          "type": "bytes32"
        }
      ],
      "stateMutability": "view",
      "type": "function"
    },
    {
      "inputs": [
        {
          "internalType": "uint32",
          "name": "_idCommande",
          "type": "uint32"
        },
        {
          "internalType": "enum StructLib.StatutProduit",
          "name": "_status",
          "type": "uint8"
        }
      ],
      "name": "mettreAJourStatutCommande",
      "outputs": [],
      "stateMutability": "nonpayable",
      "type": "function"
    },
    {
      "inputs": [
        {
          "internalType": "uint32",
          "name": "_idCommande",
          "type": "uint32"
        },
        {
          "internalType": "enum StructLib.StatutTransport",
          "name": "_statut",
          "type": "uint8"
        }
      ],
      "name": "mettreAJourStatutTransport",
      "outputs": [],
      "stateMutability": "nonpayable",
      "type": "function"
    },
    {
      "inputs": [
        {
          "internalType": "uint32",
          "name": "",
          "type": "uint32"
        }
      ],
      "name": "paiements",
      "outputs": [
        {
          "internalType": "uint32",
          "name": "id",
          "type": "uint32"
        },
        {
          "internalType": "address",
          "name": "payeur",
          "type": "address"
        },
        {
          "internalType": "address",
          "name": "vendeur",
          "type": "address"
        },
        {
          "internalType": "uint32",
          "name": "montant",
          "type": "uint32"
        },
        {
          "internalType": "enum StructLib.ModePaiement",
          "name": "mode",
          "type": "uint8"
        },
        {
          "internalType": "uint256",
          "name": "timestamp",
          "type": "uint256"
        },
        {
          "internalType": "string",
          "name": "hashMerkle",
          "type": "string"
        }
      ],
      "stateMutability": "view",
      "type": "function"
    },
    {
      "inputs": [
        {
          "internalType": "uint32",
          "name": "_idLotProduit",
          "type": "uint32"
        },
        {
          "internalType": "uint32",
          "name": "_quantite",
          "type": "uint32"
        }
      ],
      "name": "passerCommande",
      "outputs": [],
      "stateMutability": "nonpayable",
      "type": "function"
    },
    {
      "inputs": [
        {
          "internalType": "uint32",
          "name": "",
          "type": "uint32"
        }
      ],
      "name": "produits",
      "outputs": [
        {
          "internalType": "uint32",
          "name": "id",
          "type": "uint32"
        },
        {
          "internalType": "uint32",
          "name": "idRecolte",
          "type": "uint32"
        },
        {
          "internalType": "uint32",
          "name": "idCommandeRecolte",
          "type": "uint32"
        },
        {
          "internalType": "uint32",
          "name": "quantite",
          "type": "uint32"
        },
        {
          "internalType": "address",
          "name": "collecteur",
          "type": "address"
        },
        {
          "internalType": "bool",
          "name": "enregistre",
          "type": "bool"
        }
      ],
      "stateMutability": "view",
      "type": "function"
    },
    {
      "inputs": [
        {
          "internalType": "address",
          "name": "_addr",
          "type": "address"
        }
      ],
      "name": "setGestionnaireActeurs",
      "outputs": [],
      "stateMutability": "nonpayable",
      "type": "function"
    },
    {
      "inputs": [
        {
          "internalType": "uint32",
          "name": "_idLotProduit",
          "type": "uint32"
        },
        {
          "internalType": "uint32",
          "name": "_prix",
          "type": "uint32"
        }
      ],
      "name": "setPriceProduit",
      "outputs": [],
      "stateMutability": "nonpayable",
      "type": "function"
    },
    {
      "stateMutability": "payable",
      "type": "receive"
    }
  ],
  "bytecode": "0x608060405234801561001057600080fd5b50615a5880620000216000396000f3fe6080604052600436106101d05760003560e01c80636f3fd6c5116100f7578063b9e91d7011610095578063e6cab64c11610064578063e6cab64c146106de578063edd13163146106fa578063f6980cc914610725578063fdccf43314610765576101d7565b8063b9e91d7014610621578063ba9ba2401461064a578063c4c8d1941461068c578063e550ef99146106b5576101d7565b806389c1ca53116100d157806389c1ca53146105795780638a16156e146105a257806393c2f9b4146105cb5780639e942cd4146105f6576101d7565b80636f3fd6c5146104c35780637babcffa1461050b5780638777654f1461054e576101d7565b806341fae4db1161016f5780634dafb5011161013e5780634dafb501146104095780634fbdf4fe146104325780635293ea511461045b578063693dff1f14610498576101d7565b806341fae4db146103225780634851ca821461035f578063488dee20146103a157806348d2cee0146103cc576101d7565b806315a3374c116101ab57806315a3374c1461026a5780632477b51014610293578063369064b9146102bc5780633e7a6049146102f9576101d7565b806241fb4e146101d957806301197018146102025780630b215e641461022d576101d7565b366101d757005b005b3480156101e557600080fd5b5061020060048036038101906101fb919061460c565b610790565b005b34801561020e57600080fd5b50610217610987565b60405161022491906151d9565b60405180910390f35b34801561023957600080fd5b50610254600480360381019061024f91906145e3565b6109a1565b604051610261919061519c565b60405180910390f35b34801561027657600080fd5b50610291600480360381019061028c9190614750565b610bf5565b005b34801561029f57600080fd5b506102ba60048036038101906102b59190614684565b610dcc565b005b3480156102c857600080fd5b506102e360048036038101906102de91906145e3565b611016565b6040516102f091906151be565b60405180910390f35b34801561030557600080fd5b50610320600480360381019061031b9190614512565b611157565b005b34801561032e57600080fd5b50610349600480360381019061034491906145e3565b61119b565b6040516103569190615158565b60405180910390f35b34801561036b57600080fd5b50610386600480360381019061038191906145e3565b611328565b604051610398969594939291906153ca565b60405180910390f35b3480156103ad57600080fd5b506103b66113d1565b6040516103c391906151d9565b60405180910390f35b3480156103d857600080fd5b506103f360048036038101906103ee91906145e3565b6113e7565b604051610400919061517a565b60405180910390f35b34801561041557600080fd5b50610430600480360381019061042b9190614750565b61168d565b005b34801561043e57600080fd5b5061045960048036038101906104549190614512565b611d50565b005b34801561046757600080fd5b50610482600480360381019061047d91906145e3565b611dc9565b60405161048f919061513c565b60405180910390f35b3480156104a457600080fd5b506104ad6120fc565b6040516104ba91906151d9565b60405180910390f35b3480156104cf57600080fd5b506104ea60048036038101906104e591906145e3565b612112565b6040516105029c9b9a9998979695949392919061542b565b60405180910390f35b34801561051757600080fd5b50610532600480360381019061052d91906145e3565b612253565b60405161054597969594939291906151f4565b60405180910390f35b34801561055a57600080fd5b5061056361238a565b60405161057091906151d9565b60405180910390f35b34801561058557600080fd5b506105a0600480360381019061059b91906147db565b6123a4565b005b3480156105ae57600080fd5b506105c960048036038101906105c491906146c0565b6125e3565b005b3480156105d757600080fd5b506105e0612827565b6040516105ed91906151d9565b60405180910390f35b34801561060257600080fd5b5061060b612841565b604051610618919061503b565b60405180910390f35b34801561062d57600080fd5b506106486004803603810190610643919061453b565b612867565b005b34801561065657600080fd5b50610671600480360381019061066c91906145e3565b6130b6565b60405161068396959493929190615362565b60405180910390f35b34801561069857600080fd5b506106b360048036038101906106ae9190614648565b6131ca565b005b3480156106c157600080fd5b506106dc60048036038101906106d791906146fc565b613356565b005b6106f860048036038101906106f3919061478c565b6135ea565b005b34801561070657600080fd5b5061070f613dcc565b60405161071c91906151d9565b60405180910390f35b34801561073157600080fd5b5061074c600480360381019061074791906145e3565b613de2565b60405161075c94939291906152af565b60405180910390f35b34801561077157600080fd5b5061077a613f32565b60405161078791906151d9565b60405180910390f35b600660009054906101000a900473ffffffffffffffffffffffffffffffffffffffff1673ffffffffffffffffffffffffffffffffffffffff1663d1e47bb33360066040518363ffffffff1660e01b81526004016107ee929190615012565b60206040518083038186803b15801561080657600080fd5b505afa15801561081a573d6000803e3d6000fd5b505050506040513d601f19601f8201168201806040525081019061083e91906145ba565b61087d576040517f08c379a0000000000000000000000000000000000000000000000000000000008152600401610874906150fc565b60405180910390fd5b600560009054906101000a900463ffffffff1663ffffffff168263ffffffff1611156108a857600080fd5b3373ffffffffffffffffffffffffffffffffffffffff16600460008463ffffffff1663ffffffff16815260200190815260200160002060020160009054906101000a900473ffffffffffffffffffffffffffffffffffffffff1673ffffffffffffffffffffffffffffffffffffffff161461092257600080fd5b80600460008463ffffffff1663ffffffff16815260200190815260200160002060030160006101000a81548173ffffffffffffffffffffffffffffffffffffffff021916908373ffffffffffffffffffffffffffffffffffffffff1602179055505050565b6000600560049054906101000a900463ffffffff16905090565b6109a9613f4c565b600360008363ffffffff1663ffffffff1681526020019081526020016000206040518060e00160405290816000820160009054906101000a900463ffffffff1663ffffffff1663ffffffff1681526020016000820160049054906101000a900473ffffffffffffffffffffffffffffffffffffffff1673ffffffffffffffffffffffffffffffffffffffff1673ffffffffffffffffffffffffffffffffffffffff1681526020016001820160009054906101000a900473ffffffffffffffffffffffffffffffffffffffff1673ffffffffffffffffffffffffffffffffffffffff1673ffffffffffffffffffffffffffffffffffffffff1681526020016001820160149054906101000a900463ffffffff1663ffffffff1663ffffffff1681526020016001820160189054906101000a900460ff166002811115610b16577f4e487b7100000000000000000000000000000000000000000000000000000000600052602160045260246000fd5b6002811115610b4e577f4e487b7100000000000000000000000000000000000000000000000000000000600052602160045260246000fd5b815260200160028201548152602001600382018054610b6c906157f6565b80601f0160208091040260200160405190810160405280929190818152602001828054610b98906157f6565b8015610be55780601f10610bba57610100808354040283529160200191610be5565b820191906000526020600020905b815481529060010190602001808311610bc857829003601f168201915b5050505050815250509050919050565b600660009054906101000a900473ffffffffffffffffffffffffffffffffffffffff1673ffffffffffffffffffffffffffffffffffffffff1663d1e47bb33360036040518363ffffffff1660e01b8152600401610c53929190615012565b60206040518083038186803b158015610c6b57600080fd5b505afa158015610c7f573d6000803e3d6000fd5b505050506040513d601f19601f82011682018060405250810190610ca391906145ba565b610ce2576040517f08c379a0000000000000000000000000000000000000000000000000000000008152600401610cd9906150dc565b60405180910390fd5b600560089054906101000a900463ffffffff1663ffffffff168263ffffffff161115610d0d57600080fd5b3373ffffffffffffffffffffffffffffffffffffffff16600160008463ffffffff1663ffffffff16815260200190815260200160002060030160089054906101000a900473ffffffffffffffffffffffffffffffffffffffff1673ffffffffffffffffffffffffffffffffffffffff1614610d8757600080fd5b80600160008463ffffffff1663ffffffff16815260200190815260200160002060030160046101000a81548163ffffffff021916908363ffffffff1602179055505050565b600660009054906101000a900473ffffffffffffffffffffffffffffffffffffffff1673ffffffffffffffffffffffffffffffffffffffff1663d1e47bb33360066040518363ffffffff1660e01b8152600401610e2a929190615012565b60206040518083038186803b158015610e4257600080fd5b505afa158015610e56573d6000803e3d6000fd5b505050506040513d601f19601f82011682018060405250810190610e7a91906145ba565b610eb9576040517f08c379a0000000000000000000000000000000000000000000000000000000008152600401610eb0906150fc565b60405180910390fd5b600180811115610ef2577f4e487b7100000000000000000000000000000000000000000000000000000000600052602160045260246000fd5b600460008463ffffffff1663ffffffff16815260200190815260200160002060000160119054906101000a900460ff166001811115610f5a577f4e487b7100000000000000000000000000000000000000000000000000000000600052602160045260246000fd5b14610f6457600080fd5b80600460008463ffffffff1663ffffffff16815260200190815260200160002060020160146101000a81548160ff02191690836002811115610fcf577f4e487b7100000000000000000000000000000000000000000000000000000000600052602160045260246000fd5b02179055508163ffffffff167fab130106cad960e950d3b5ff9c896fdd5af7f3144699e12c2c8429afd4abd7ab8260405161100a9190615056565b60405180910390a25050565b61101e613ff9565b6000808363ffffffff1663ffffffff1681526020019081526020016000206040518060c00160405290816000820160009054906101000a900463ffffffff1663ffffffff1663ffffffff1681526020016000820160049054906101000a900463ffffffff1663ffffffff1663ffffffff1681526020016000820160089054906101000a900463ffffffff1663ffffffff1663ffffffff16815260200160008201600c9054906101000a900463ffffffff1663ffffffff1663ffffffff1681526020016001820160009054906101000a900473ffffffffffffffffffffffffffffffffffffffff1673ffffffffffffffffffffffffffffffffffffffff1673ffffffffffffffffffffffffffffffffffffffff1681526020016001820160149054906101000a900460ff1615151515815250509050919050565b80600660006101000a81548173ffffffffffffffffffffffffffffffffffffffff021916908373ffffffffffffffffffffffffffffffffffffffff16021790555050565b6111a361405f565b600260008363ffffffff1663ffffffff1681526020019081526020016000206040518060800160405290816000820160009054906101000a900463ffffffff1663ffffffff1663ffffffff168152602001600182018054611203906157f6565b80601f016020809104026020016040519081016040528092919081815260200182805461122f906157f6565b801561127c5780601f106112515761010080835404028352916020019161127c565b820191906000526020600020905b81548152906001019060200180831161125f57829003601f168201915b505050505081526020016002820154815260200160038201805461129f906157f6565b80601f01602080910402602001604051908101604052809291908181526020018280546112cb906157f6565b80156113185780601f106112ed57610100808354040283529160200191611318565b820191906000526020600020905b8154815290600101906020018083116112fb57829003601f168201915b5050505050815250509050919050565b60006020528060005260406000206000915090508060000160009054906101000a900463ffffffff16908060000160049054906101000a900463ffffffff16908060000160089054906101000a900463ffffffff169080600001600c9054906101000a900463ffffffff16908060010160009054906101000a900473ffffffffffffffffffffffffffffffffffffffff16908060010160149054906101000a900460ff16905086565b600560009054906101000a900463ffffffff1681565b6113ef61408d565b600160008363ffffffff1663ffffffff168152602001908152602001600020604051806101000160405290816000820160009054906101000a900463ffffffff1663ffffffff1663ffffffff168152602001600182018054806020026020016040519081016040528092919081815260200182805480156114bb57602002820191906000526020600020906000905b82829054906101000a900463ffffffff1663ffffffff168152602001906004019060208260030104928301926001038202915080841161147e5790505b505050505081526020016002820180548060200260200160405190810160405280929190818152602001828054801561153f57602002820191906000526020600020906000905b82829054906101000a900463ffffffff1663ffffffff16815260200190600401906020826003010492830192600103820291508084116115025790505b505050505081526020016003820160009054906101000a900463ffffffff1663ffffffff1663ffffffff1681526020016003820160049054906101000a900463ffffffff1663ffffffff1663ffffffff1681526020016003820160089054906101000a900473ffffffffffffffffffffffffffffffffffffffff1673ffffffffffffffffffffffffffffffffffffffff1673ffffffffffffffffffffffffffffffffffffffff1681526020016004820180546115fa906157f6565b80601f0160208091040260200160405190810160405280929190818152602001828054611626906157f6565b80156116735780601f1061164857610100808354040283529160200191611673565b820191906000526020600020905b81548152906001019060200180831161165657829003601f168201915b505050505081526020016005820154815250509050919050565b600660009054906101000a900473ffffffffffffffffffffffffffffffffffffffff1673ffffffffffffffffffffffffffffffffffffffff1663d1e47bb33360066040518363ffffffff1660e01b81526004016116eb929190615012565b60206040518083038186803b15801561170357600080fd5b505afa158015611717573d6000803e3d6000fd5b505050506040513d601f19601f8201168201806040525081019061173b91906145ba565b61177a576040517f08c379a0000000000000000000000000000000000000000000000000000000008152600401611771906150fc565b60405180910390fd5b600160008363ffffffff1663ffffffff16815260200190815260200160002060030160009054906101000a900463ffffffff1663ffffffff168163ffffffff1611156117c557600080fd5b6000600160008463ffffffff1663ffffffff16815260200190815260200160002060030160049054906101000a900463ffffffff16826118059190615628565b9050600082600160008663ffffffff1663ffffffff16815260200190815260200160002060030160009054906101000a900463ffffffff166118479190615666565b905080600160008663ffffffff1663ffffffff16815260200190815260200160002060030160006101000a81548163ffffffff021916908363ffffffff1602179055506005600081819054906101000a900463ffffffff16809291906118ac90615828565b91906101000a81548163ffffffff021916908363ffffffff16021790555050604051806101800160405280600560009054906101000a900463ffffffff1663ffffffff1681526020018563ffffffff1681526020018463ffffffff1681526020018363ffffffff1681526020016000151581526020016000600181111561195c577f4e487b7100000000000000000000000000000000000000000000000000000000600052602160045260246000fd5b8152602001600160008763ffffffff1663ffffffff16815260200190815260200160002060030160089054906101000a900473ffffffffffffffffffffffffffffffffffffffff1673ffffffffffffffffffffffffffffffffffffffff1681526020013373ffffffffffffffffffffffffffffffffffffffff16815260200160006002811115611a15577f4e487b7100000000000000000000000000000000000000000000000000000000600052602160045260246000fd5b8152602001600015158152602001600015158152602001600073ffffffffffffffffffffffffffffffffffffffff1681525060046000600560009054906101000a900463ffffffff1663ffffffff1663ffffffff16815260200190815260200160002060008201518160000160006101000a81548163ffffffff021916908363ffffffff16021790555060208201518160000160046101000a81548163ffffffff021916908363ffffffff16021790555060408201518160000160086101000a81548163ffffffff021916908363ffffffff160217905550606082015181600001600c6101000a81548163ffffffff021916908363ffffffff16021790555060808201518160000160106101000a81548160ff02191690831515021790555060a08201518160000160116101000a81548160ff02191690836001811115611b85577f4e487b7100000000000000000000000000000000000000000000000000000000600052602160045260246000fd5b021790555060c08201518160010160006101000a81548173ffffffffffffffffffffffffffffffffffffffff021916908373ffffffffffffffffffffffffffffffffffffffff16021790555060e08201518160020160006101000a81548173ffffffffffffffffffffffffffffffffffffffff021916908373ffffffffffffffffffffffffffffffffffffffff1602179055506101008201518160020160146101000a81548160ff02191690836002811115611c6a577f4e487b7100000000000000000000000000000000000000000000000000000000600052602160045260246000fd5b02179055506101208201518160020160156101000a81548160ff0219169083151502179055506101408201518160020160166101000a81548160ff0219169083151502179055506101608201518160030160006101000a81548173ffffffffffffffffffffffffffffffffffffffff021916908373ffffffffffffffffffffffffffffffffffffffff1602179055509050503373ffffffffffffffffffffffffffffffffffffffff167fa0e84f4dba1ea97bb938c4d3ff9475e68dacbd58f3086c672b0605ad53d76dc185604051611d4291906151d9565b60405180910390a250505050565b6005600c9054906101000a900460ff1615611d6a57600080fd5b80600660006101000a81548173ffffffffffffffffffffffffffffffffffffffff021916908373ffffffffffffffffffffffffffffffffffffffff16021790555060016005600c6101000a81548160ff02191690831515021790555050565b611dd16140fd565b600460008363ffffffff1663ffffffff168152602001908152602001600020604051806101800160405290816000820160009054906101000a900463ffffffff1663ffffffff1663ffffffff1681526020016000820160049054906101000a900463ffffffff1663ffffffff1663ffffffff1681526020016000820160089054906101000a900463ffffffff1663ffffffff1663ffffffff16815260200160008201600c9054906101000a900463ffffffff1663ffffffff1663ffffffff1681526020016000820160109054906101000a900460ff161515151581526020016000820160119054906101000a900460ff166001811115611efa577f4e487b7100000000000000000000000000000000000000000000000000000000600052602160045260246000fd5b6001811115611f32577f4e487b7100000000000000000000000000000000000000000000000000000000600052602160045260246000fd5b81526020016001820160009054906101000a900473ffffffffffffffffffffffffffffffffffffffff1673ffffffffffffffffffffffffffffffffffffffff1673ffffffffffffffffffffffffffffffffffffffff1681526020016002820160009054906101000a900473ffffffffffffffffffffffffffffffffffffffff1673ffffffffffffffffffffffffffffffffffffffff1673ffffffffffffffffffffffffffffffffffffffff1681526020016002820160149054906101000a900460ff16600281111561202d577f4e487b7100000000000000000000000000000000000000000000000000000000600052602160045260246000fd5b6002811115612065577f4e487b7100000000000000000000000000000000000000000000000000000000600052602160045260246000fd5b81526020016002820160159054906101000a900460ff161515151581526020016002820160169054906101000a900460ff161515151581526020016003820160009054906101000a900473ffffffffffffffffffffffffffffffffffffffff1673ffffffffffffffffffffffffffffffffffffffff1673ffffffffffffffffffffffffffffffffffffffff16815250509050919050565b600560089054906101000a900463ffffffff1681565b60046020528060005260406000206000915090508060000160009054906101000a900463ffffffff16908060000160049054906101000a900463ffffffff16908060000160089054906101000a900463ffffffff169080600001600c9054906101000a900463ffffffff16908060000160109054906101000a900460ff16908060000160119054906101000a900460ff16908060010160009054906101000a900473ffffffffffffffffffffffffffffffffffffffff16908060020160009054906101000a900473ffffffffffffffffffffffffffffffffffffffff16908060020160149054906101000a900460ff16908060020160159054906101000a900460ff16908060020160169054906101000a900460ff16908060030160009054906101000a900473ffffffffffffffffffffffffffffffffffffffff1690508c565b60036020528060005260406000206000915090508060000160009054906101000a900463ffffffff16908060000160049054906101000a900473ffffffffffffffffffffffffffffffffffffffff16908060010160009054906101000a900473ffffffffffffffffffffffffffffffffffffffff16908060010160149054906101000a900463ffffffff16908060010160189054906101000a900460ff1690806002015490806003018054612307906157f6565b80601f0160208091040260200160405190810160405280929190818152602001828054612333906157f6565b80156123805780601f1061235557610100808354040283529160200191612380565b820191906000526020600020905b81548152906001019060200180831161236357829003601f168201915b5050505050905087565b6000600560009054906101000a900463ffffffff16905090565b6005600481819054906101000a900463ffffffff16809291906123c690615828565b91906101000a81548163ffffffff021916908363ffffffff160217905550506040518060c00160405280600560049054906101000a900463ffffffff1663ffffffff1681526020018463ffffffff1681526020018563ffffffff1681526020018363ffffffff1681526020018273ffffffffffffffffffffffffffffffffffffffff16815260200160001515815250600080600560049054906101000a900463ffffffff1663ffffffff1663ffffffff16815260200190815260200160002060008201518160000160006101000a81548163ffffffff021916908363ffffffff16021790555060208201518160000160046101000a81548163ffffffff021916908363ffffffff16021790555060408201518160000160086101000a81548163ffffffff021916908363ffffffff160217905550606082015181600001600c6101000a81548163ffffffff021916908363ffffffff16021790555060808201518160010160006101000a81548173ffffffffffffffffffffffffffffffffffffffff021916908373ffffffffffffffffffffffffffffffffffffffff16021790555060a08201518160010160146101000a81548160ff021916908315150217905550905050600560049054906101000a900463ffffffff1663ffffffff167f3d078b1c3921ddadb756791c1a070b903bcb0cd941a1df4de6eed059fb6e06db83856040516125d5929190615302565b60405180910390a250505050565b600660009054906101000a900473ffffffffffffffffffffffffffffffffffffffff1673ffffffffffffffffffffffffffffffffffffffff1663d1e47bb33360056040518363ffffffff1660e01b8152600401612641929190615012565b60206040518083038186803b15801561265957600080fd5b505afa15801561266d573d6000803e3d6000fd5b505050506040513d601f19601f8201168201806040525081019061269191906145ba565b6126d0576040517f08c379a00000000000000000000000000000000000000000000000000000000081526004016126c79061511c565b60405180910390fd5b600560009054906101000a900463ffffffff1663ffffffff168263ffffffff1611156126fb57600080fd5b3373ffffffffffffffffffffffffffffffffffffffff16600460008463ffffffff1663ffffffff16815260200190815260200160002060030160009054906101000a900473ffffffffffffffffffffffffffffffffffffffff1673ffffffffffffffffffffffffffffffffffffffff161461277557600080fd5b80600460008463ffffffff1663ffffffff16815260200190815260200160002060000160116101000a81548160ff021916908360018111156127e0577f4e487b7100000000000000000000000000000000000000000000000000000000600052602160045260246000fd5b02179055508163ffffffff167ff84820c84ecbec116ee0604a91f0bec4a5d5926d8d5189a13f57fc30951d4b918260405161281b9190615071565b60405180910390a25050565b6000600560009054906101000a900463ffffffff16905090565b600660009054906101000a900473ffffffffffffffffffffffffffffffffffffffff1681565b600660009054906101000a900473ffffffffffffffffffffffffffffffffffffffff1673ffffffffffffffffffffffffffffffffffffffff1663d1e47bb33360036040518363ffffffff1660e01b81526004016128c5929190615012565b60206040518083038186803b1580156128dd57600080fd5b505afa1580156128f1573d6000803e3d6000fd5b505050506040513d601f19601f8201168201806040525081019061291591906145ba565b612954576040517f08c379a000000000000000000000000000000000000000000000000000000000815260040161294b906150dc565b60405180910390fd5b6000835167ffffffffffffffff811115612997577f4e487b7100000000000000000000000000000000000000000000000000000000600052604160045260246000fd5b6040519080825280602002602001820160405280156129c55781602001602082028036833780820191505090505b5090506000845167ffffffffffffffff811115612a0b577f4e487b7100000000000000000000000000000000000000000000000000000000600052604160045260246000fd5b604051908082528060200260200182016040528015612a395781602001602082028036833780820191505090505b5090506000805b86518163ffffffff161015612d6957600560049054906101000a900463ffffffff1663ffffffff16878263ffffffff1681518110612aa7577f4e487b7100000000000000000000000000000000000000000000000000000000600052603260045260246000fd5b602002602001015163ffffffff161115612ac057600080fd5b6000806000898463ffffffff1681518110612b04577f4e487b7100000000000000000000000000000000000000000000000000000000600052603260045260246000fd5b602002602001015163ffffffff1663ffffffff1681526020019081526020016000206040518060c00160405290816000820160009054906101000a900463ffffffff1663ffffffff1663ffffffff1681526020016000820160049054906101000a900463ffffffff1663ffffffff1663ffffffff1681526020016000820160089054906101000a900463ffffffff1663ffffffff1663ffffffff16815260200160008201600c9054906101000a900463ffffffff1663ffffffff1663ffffffff1681526020016001820160009054906101000a900473ffffffffffffffffffffffffffffffffffffffff1673ffffffffffffffffffffffffffffffffffffffff1673ffffffffffffffffffffffffffffffffffffffff1681526020016001820160149054906101000a900460ff16151515158152505090508060200151858363ffffffff1681518110612c80577f4e487b7100000000000000000000000000000000000000000000000000000000600052603260045260246000fd5b602002602001019063ffffffff16908163ffffffff16815250508060400151848363ffffffff1681518110612cde577f4e487b7100000000000000000000000000000000000000000000000000000000600052603260045260246000fd5b602002602001019063ffffffff16908163ffffffff1681525050806060015183612d0891906155ee565b92503373ffffffffffffffffffffffffffffffffffffffff16816080015173ffffffffffffffffffffffffffffffffffffffff1614612d4657600080fd5b8060a0015115612d5557600080fd5b508080612d6190615828565b915050612a40565b506005600881819054906101000a900463ffffffff1680929190612d8c90615828565b91906101000a81548163ffffffff021916908363ffffffff1602179055505060008533428686604051602001612dc6959493929190614fbf565b60405160208183030381529060405280519060200120905060005b87518163ffffffff161015612e835760016000808a8463ffffffff1681518110612e34577f4e487b7100000000000000000000000000000000000000000000000000000000600052603260045260246000fd5b602002602001015163ffffffff1663ffffffff16815260200190815260200160002060010160146101000a81548160ff0219169083151502179055508080612e7b90615828565b915050612de1565b50604051806101000160405280600560089054906101000a900463ffffffff1663ffffffff1681526020018581526020018481526020018363ffffffff1681526020018663ffffffff1681526020013373ffffffffffffffffffffffffffffffffffffffff1681526020018781526020018281525060016000600560089054906101000a900463ffffffff1663ffffffff1663ffffffff16815260200190815260200160002060008201518160000160006101000a81548163ffffffff021916908363ffffffff1602179055506020820151816001019080519060200190612f6c92919061422e565b506040820151816002019080519060200190612f8992919061422e565b5060608201518160030160006101000a81548163ffffffff021916908363ffffffff16021790555060808201518160030160046101000a81548163ffffffff021916908363ffffffff16021790555060a08201518160030160086101000a81548173ffffffffffffffffffffffffffffffffffffffff021916908373ffffffffffffffffffffffffffffffffffffffff16021790555060c082015181600401908051906020019061303b9291906142de565b5060e082015181600501559050503373ffffffffffffffffffffffffffffffffffffffff167f499d3f5837e61d77a364db177a5e0ba2d02b9a2316f1264fffa374d94a9a12b1600560089054906101000a900463ffffffff1684886040516130a59392919061532b565b60405180910390a250505050505050565b60016020528060005260406000206000915090508060000160009054906101000a900463ffffffff16908060030160009054906101000a900463ffffffff16908060030160049054906101000a900463ffffffff16908060030160089054906101000a900473ffffffffffffffffffffffffffffffffffffffff1690806004018054613141906157f6565b80601f016020809104026020016040519081016040528092919081815260200182805461316d906157f6565b80156131ba5780601f1061318f576101008083540402835291602001916131ba565b820191906000526020600020905b81548152906001019060200180831161319d57829003601f168201915b5050505050908060050154905086565b600660009054906101000a900473ffffffffffffffffffffffffffffffffffffffff1673ffffffffffffffffffffffffffffffffffffffff1663d1e47bb33360066040518363ffffffff1660e01b8152600401613228929190615012565b60206040518083038186803b15801561324057600080fd5b505afa158015613254573d6000803e3d6000fd5b505050506040513d601f19601f8201168201806040525081019061327891906145ba565b6132b7576040517f08c379a00000000000000000000000000000000000000000000000000000000081526004016132ae906150fc565b60405180910390fd5b600560009054906101000a900463ffffffff1663ffffffff168263ffffffff161115613318576040517f08c379a000000000000000000000000000000000000000000000000000000000815260040161330f906150bc565b60405180910390fd5b80600460008463ffffffff1663ffffffff16815260200190815260200160002060020160156101000a81548160ff0219169083151502179055505050565b600660009054906101000a900473ffffffffffffffffffffffffffffffffffffffff1673ffffffffffffffffffffffffffffffffffffffff1663d1e47bb33360056040518363ffffffff1660e01b81526004016133b4929190615012565b60206040518083038186803b1580156133cc57600080fd5b505afa1580156133e0573d6000803e3d6000fd5b505050506040513d601f19601f8201168201806040525081019061340491906145ba565b613443576040517f08c379a000000000000000000000000000000000000000000000000000000000815260040161343a9061511c565b60405180910390fd5b600560009054906101000a900463ffffffff1663ffffffff168263ffffffff16111561346e57600080fd5b600460008363ffffffff1663ffffffff16815260200190815260200160002060020160169054906101000a900460ff16156134a857600080fd5b6001600460008463ffffffff1663ffffffff16815260200190815260200160002060020160166101000a81548160ff02191690831515021790555060405180608001604052808363ffffffff16815260200182815260200142815260200160405180602001604052806000815250815250600260008463ffffffff1663ffffffff16815260200190815260200160002060008201518160000160006101000a81548163ffffffff021916908363ffffffff160217905550602082015181600101908051906020019061357b9291906142de565b506040820151816002015560608201518160030190805190602001906135a29291906142de565b509050508163ffffffff167f85a6dd7e3bffc328a15679316ce7c104a56122ec56d15beab290adac6fceda1882426040516135de92919061508c565b60405180910390a25050565b600660009054906101000a900473ffffffffffffffffffffffffffffffffffffffff1673ffffffffffffffffffffffffffffffffffffffff1663d1e47bb33360066040518363ffffffff1660e01b8152600401613648929190615012565b60206040518083038186803b15801561366057600080fd5b505afa158015613674573d6000803e3d6000fd5b505050506040513d601f19601f8201168201806040525081019061369891906145ba565b6136d7576040517f08c379a00000000000000000000000000000000000000000000000000000000081526004016136ce906150fc565b60405180910390fd5b600060016000600460008763ffffffff1663ffffffff16815260200190815260200160002060000160049054906101000a900463ffffffff1663ffffffff1663ffffffff168152602001908152602001600020604051806101000160405290816000820160009054906101000a900463ffffffff1663ffffffff1663ffffffff168152602001600182018054806020026020016040519081016040528092919081815260200182805480156137d757602002820191906000526020600020906000905b82829054906101000a900463ffffffff1663ffffffff168152602001906004019060208260030104928301926001038202915080841161379a5790505b505050505081526020016002820180548060200260200160405190810160405280929190818152602001828054801561385b57602002820191906000526020600020906000905b82829054906101000a900463ffffffff1663ffffffff168152602001906004019060208260030104928301926001038202915080841161381e5790505b505050505081526020016003820160009054906101000a900463ffffffff1663ffffffff1663ffffffff1681526020016003820160049054906101000a900463ffffffff1663ffffffff1663ffffffff1681526020016003820160089054906101000a900473ffffffffffffffffffffffffffffffffffffffff1673ffffffffffffffffffffffffffffffffffffffff1673ffffffffffffffffffffffffffffffffffffffff168152602001600482018054613916906157f6565b80601f0160208091040260200160405190810160405280929190818152602001828054613942906157f6565b801561398f5780601f106139645761010080835404028352916020019161398f565b820191906000526020600020905b81548152906001019060200180831161397257829003601f168201915b505050505081526020016005820154815250509050600460008563ffffffff1663ffffffff168152602001908152602001600020600001600c9054906101000a900463ffffffff1663ffffffff168363ffffffff16146139ee57600080fd5b600460008563ffffffff1663ffffffff16815260200190815260200160002060000160109054906101000a900460ff1615613a2857600080fd5b60016002811115613a62577f4e487b7100000000000000000000000000000000000000000000000000000000600052602160045260246000fd5b600460008663ffffffff1663ffffffff16815260200190815260200160002060020160149054906101000a900460ff166002811115613aca577f4e487b7100000000000000000000000000000000000000000000000000000000600052602160045260246000fd5b14613ad457600080fd5b6001600460008663ffffffff1663ffffffff16815260200190815260200160002060000160106101000a81548160ff0219169083151502179055506040518060e001604052808563ffffffff1681526020013373ffffffffffffffffffffffffffffffffffffffff168152602001600460008763ffffffff1663ffffffff16815260200190815260200160002060010160009054906101000a900473ffffffffffffffffffffffffffffffffffffffff1673ffffffffffffffffffffffffffffffffffffffff1681526020018463ffffffff168152602001836002811115613be5577f4e487b7100000000000000000000000000000000000000000000000000000000600052602160045260246000fd5b815260200142815260200160405180602001604052806000815250815250600360008663ffffffff1663ffffffff16815260200190815260200160002060008201518160000160006101000a81548163ffffffff021916908363ffffffff16021790555060208201518160000160046101000a81548173ffffffffffffffffffffffffffffffffffffffff021916908373ffffffffffffffffffffffffffffffffffffffff16021790555060408201518160010160006101000a81548173ffffffffffffffffffffffffffffffffffffffff021916908373ffffffffffffffffffffffffffffffffffffffff16021790555060608201518160010160146101000a81548163ffffffff021916908363ffffffff16021790555060808201518160010160186101000a81548160ff02191690836002811115613d4f577f4e487b7100000000000000000000000000000000000000000000000000000000600052602160045260246000fd5b021790555060a0820151816002015560c0820151816003019080519060200190613d7a9291906142de565b50905050806000015163ffffffff167fd9f037670aada9b07156110dd936887c158e5cd6f7932663cc64ef336e44cf9f85338686604051613dbe949392919061526a565b60405180910390a250505050565b600560049054906101000a900463ffffffff1681565b60026020528060005260406000206000915090508060000160009054906101000a900463ffffffff1690806001018054613e1b906157f6565b80601f0160208091040260200160405190810160405280929190818152602001828054613e47906157f6565b8015613e945780601f10613e6957610100808354040283529160200191613e94565b820191906000526020600020905b815481529060010190602001808311613e7757829003601f168201915b505050505090806002015490806003018054613eaf906157f6565b80601f0160208091040260200160405190810160405280929190818152602001828054613edb906157f6565b8015613f285780601f10613efd57610100808354040283529160200191613f28565b820191906000526020600020905b815481529060010190602001808311613f0b57829003601f168201915b5050505050905084565b6000600560009054906101000a900463ffffffff16905090565b6040518060e00160405280600063ffffffff168152602001600073ffffffffffffffffffffffffffffffffffffffff168152602001600073ffffffffffffffffffffffffffffffffffffffff168152602001600063ffffffff16815260200160006002811115613fe5577f4e487b7100000000000000000000000000000000000000000000000000000000600052602160045260246000fd5b815260200160008152602001606081525090565b6040518060c00160405280600063ffffffff168152602001600063ffffffff168152602001600063ffffffff168152602001600063ffffffff168152602001600073ffffffffffffffffffffffffffffffffffffffff1681526020016000151581525090565b6040518060800160405280600063ffffffff1681526020016060815260200160008152602001606081525090565b604051806101000160405280600063ffffffff1681526020016060815260200160608152602001600063ffffffff168152602001600063ffffffff168152602001600073ffffffffffffffffffffffffffffffffffffffff16815260200160608152602001600080191681525090565b604051806101800160405280600063ffffffff168152602001600063ffffffff168152602001600063ffffffff168152602001600063ffffffff16815260200160001515815260200160006001811115614180577f4e487b7100000000000000000000000000000000000000000000000000000000600052602160045260246000fd5b8152602001600073ffffffffffffffffffffffffffffffffffffffff168152602001600073ffffffffffffffffffffffffffffffffffffffff168152602001600060028111156141f9577f4e487b7100000000000000000000000000000000000000000000000000000000600052602160045260246000fd5b8152602001600015158152602001600015158152602001600073ffffffffffffffffffffffffffffffffffffffff1681525090565b828054828255906000526020600020906007016008900481019282156142cd5791602002820160005b8382111561429b57835183826101000a81548163ffffffff021916908363ffffffff1602179055509260200192600401602081600301049283019260010302614257565b80156142cb5782816101000a81549063ffffffff021916905560040160208160030104928301926001030261429b565b505b5090506142da9190614364565b5090565b8280546142ea906157f6565b90600052602060002090601f01602090048101928261430c5760008555614353565b82601f1061432557805160ff1916838001178555614353565b82800160010185558215614353579182015b82811115614352578251825591602001919060010190614337565b5b5090506143609190614364565b5090565b5b8082111561437d576000816000905550600101614365565b5090565b600061439461438f84615516565b6154e5565b905080838252602082019050828560208602820111156143b357600080fd5b60005b858110156143e357816143c988826144fd565b8452602084019350602083019250506001810190506143b6565b5050509392505050565b60006144006143fb84615542565b6154e5565b90508281526020810184848401111561441857600080fd5b6144238482856157b4565b509392505050565b60008135905061443a816159ad565b92915050565b600082601f83011261445157600080fd5b8135614461848260208601614381565b91505092915050565b600081359050614479816159c4565b92915050565b60008151905061448e816159c4565b92915050565b6000813590506144a3816159db565b92915050565b6000813590506144b8816159eb565b92915050565b6000813590506144cd816159fb565b92915050565b600082601f8301126144e457600080fd5b81356144f48482602086016143ed565b91505092915050565b60008135905061450c81615a0b565b92915050565b60006020828403121561452457600080fd5b60006145328482850161442b565b91505092915050565b60008060006060848603121561455057600080fd5b600084013567ffffffffffffffff81111561456a57600080fd5b61457686828701614440565b935050602084013567ffffffffffffffff81111561459357600080fd5b61459f868287016144d3565b92505060406145b0868287016144fd565b9150509250925092565b6000602082840312156145cc57600080fd5b60006145da8482850161447f565b91505092915050565b6000602082840312156145f557600080fd5b6000614603848285016144fd565b91505092915050565b6000806040838503121561461f57600080fd5b600061462d858286016144fd565b925050602061463e8582860161442b565b9150509250929050565b6000806040838503121561465b57600080fd5b6000614669858286016144fd565b925050602061467a8582860161446a565b9150509250929050565b6000806040838503121561469757600080fd5b60006146a5858286016144fd565b92505060206146b6858286016144a9565b9150509250929050565b600080604083850312156146d357600080fd5b60006146e1858286016144fd565b92505060206146f2858286016144be565b9150509250929050565b6000806040838503121561470f57600080fd5b600061471d858286016144fd565b925050602083013567ffffffffffffffff81111561473a57600080fd5b614746858286016144d3565b9150509250929050565b6000806040838503121561476357600080fd5b6000614771858286016144fd565b9250506020614782858286016144fd565b9150509250929050565b6000806000606084860312156147a157600080fd5b60006147af868287016144fd565b93505060206147c0868287016144fd565b92505060406147d186828701614494565b9150509250925092565b600080600080608085870312156147f157600080fd5b60006147ff878288016144fd565b9450506020614810878288016144fd565b9350506040614821878288016144fd565b92505060606148328782880161442b565b91505092959194509250565b600061484a8383614f92565b60208301905092915050565b60006148628383614fb0565b60208301905092915050565b6148778161569a565b82525050565b6148868161569a565b82525050565b61489d6148988261569a565b615855565b82525050565b60006148ae82615582565b6148b881856155a5565b93506148c383615572565b8060005b838110156148f45781516148db888261483e565b97506148e683615598565b9250506001810190506148c7565b5085935050505092915050565b600061490c82615582565b61491681856155b6565b935061492183615572565b8060005b838110156149525781516149398882614856565b975061494483615598565b925050600181019050614925565b5085935050505092915050565b614968816156ac565b82525050565b614977816156ac565b82525050565b614986816156b8565b82525050565b614995816156b8565b82525050565b6149a481615748565b82525050565b6149b38161576c565b82525050565b6149c28161576c565b82525050565b6149d18161577e565b82525050565b6149e081615790565b82525050565b6149ef81615790565b82525050565b6149fe816157a2565b82525050565b614a0d816157a2565b82525050565b6000614a1e8261558d565b614a2881856155c1565b9350614a388185602086016157c3565b614a418161593f565b840191505092915050565b6000614a578261558d565b614a6181856155d2565b9350614a718185602086016157c3565b614a7a8161593f565b840191505092915050565b6000614a908261558d565b614a9a81856155e3565b9350614aaa8185602086016157c3565b80840191505092915050565b6000614ac36019836155d2565b91507f4c6120636f6d6d616e6465206e27657869737465207061732e000000000000006000830152602082019050919050565b6000614b036022836155d2565b91507f4e6f6e206175746f726973653a207365756c656d656e7420436f6c6c6563746560008301527f75720000000000000000000000000000000000000000000000000000000000006020830152604082019050919050565b6000614b696023836155d2565b91507f4e6f6e206175746f726973653a207365756c656d656e74204578706f7274617460008301527f65757200000000000000000000000000000000000000000000000000000000006020830152604082019050919050565b6000614bcf6024836155d2565b91507f4e6f6e206175746f726973653a207365756c656d656e74205472616e73706f7260008301527f74657572000000000000000000000000000000000000000000000000000000006020830152604082019050919050565b61018082016000820151614c3f6000850182614f92565b506020820151614c526020850182614f92565b506040820151614c656040850182614f92565b506060820151614c786060850182614f92565b506080820151614c8b608085018261495f565b5060a0820151614c9e60a08501826149f5565b5060c0820151614cb160c085018261486e565b5060e0820151614cc460e085018261486e565b50610100820151614cd96101008501826149d7565b50610120820151614cee61012085018261495f565b50610140820151614d0361014085018261495f565b50610160820151614d1861016085018261486e565b50505050565b6000608083016000830151614d366000860182614f92565b5060208301518482036020860152614d4e8282614a13565b9150506040830151614d636040860182614f5d565b5060608301518482036060860152614d7b8282614a13565b9150508091505092915050565b600061010083016000830151614da16000860182614f92565b5060208301518482036020860152614db982826148a3565b91505060408301518482036040860152614dd382826148a3565b9150506060830151614de86060860182614f92565b506080830151614dfb6080860182614f92565b5060a0830151614e0e60a086018261486e565b5060c083015184820360c0860152614e268282614a13565b91505060e0830151614e3b60e086018261497d565b508091505092915050565b600060e083016000830151614e5e6000860182614f92565b506020830151614e71602086018261486e565b506040830151614e84604086018261486e565b506060830151614e976060860182614f92565b506080830151614eaa60808601826149aa565b5060a0830151614ebd60a0860182614f5d565b5060c083015184820360c0860152614ed58282614a13565b9150508091505092915050565b60c082016000820151614ef86000850182614f92565b506020820151614f0b6020850182614f92565b506040820151614f1e6040850182614f92565b506060820151614f316060850182614f92565b506080820151614f44608085018261486e565b5060a0820151614f5760a085018261495f565b50505050565b614f668161572e565b82525050565b614f758161572e565b82525050565b614f8c614f878261572e565b615879565b82525050565b614f9b81615738565b82525050565b614faa81615738565b82525050565b614fb981615738565b82525050565b6000614fcb8288614a85565b9150614fd7828761488c565b601482019150614fe78286614f7b565b602082019150614ff78285614901565b91506150038284614901565b91508190509695505050505050565b6000604082019050615027600083018561487d565b61503460208301846149c8565b9392505050565b6000602082019050615050600083018461499b565b92915050565b600060208201905061506b60008301846149e6565b92915050565b60006020820190506150866000830184614a04565b92915050565b600060408201905081810360008301526150a68185614a4c565b90506150b56020830184614f6c565b9392505050565b600060208201905081810360008301526150d581614ab6565b9050919050565b600060208201905081810360008301526150f581614af6565b9050919050565b6000602082019050818103600083015261511581614b5c565b9050919050565b6000602082019050818103600083015261513581614bc2565b9050919050565b6000610180820190506151526000830184614c28565b92915050565b600060208201905081810360008301526151728184614d1e565b905092915050565b600060208201905081810360008301526151948184614d88565b905092915050565b600060208201905081810360008301526151b68184614e46565b905092915050565b600060c0820190506151d36000830184614ee2565b92915050565b60006020820190506151ee6000830184614fa1565b92915050565b600060e082019050615209600083018a614fa1565b615216602083018961487d565b615223604083018861487d565b6152306060830187614fa1565b61523d60808301866149b9565b61524a60a0830185614f6c565b81810360c083015261525c8184614a4c565b905098975050505050505050565b600060808201905061527f6000830187614fa1565b61528c602083018661487d565b6152996040830185614fa1565b6152a660608301846149b9565b95945050505050565b60006080820190506152c46000830187614fa1565b81810360208301526152d68186614a4c565b90506152e56040830185614f6c565b81810360608301526152f78184614a4c565b905095945050505050565b60006040820190506153176000830185614fa1565b6153246020830184614fa1565b9392505050565b60006060820190506153406000830186614fa1565b61534d6020830185614fa1565b61535a6040830184614fa1565b949350505050565b600060c0820190506153776000830189614fa1565b6153846020830188614fa1565b6153916040830187614fa1565b61539e606083018661487d565b81810360808301526153b08185614a4c565b90506153bf60a083018461498c565b979650505050505050565b600060c0820190506153df6000830189614fa1565b6153ec6020830188614fa1565b6153f96040830187614fa1565b6154066060830186614fa1565b615413608083018561487d565b61542060a083018461496e565b979650505050505050565b600061018082019050615441600083018f614fa1565b61544e602083018e614fa1565b61545b604083018d614fa1565b615468606083018c614fa1565b615475608083018b61496e565b61548260a083018a614a04565b61548f60c083018961487d565b61549c60e083018861487d565b6154aa6101008301876149e6565b6154b861012083018661496e565b6154c661014083018561496e565b6154d461016083018461487d565b9d9c50505050505050505050505050565b6000604051905081810181811067ffffffffffffffff8211171561550c5761550b615910565b5b8060405250919050565b600067ffffffffffffffff82111561553157615530615910565b5b602082029050602081019050919050565b600067ffffffffffffffff82111561555d5761555c615910565b5b601f19601f8301169050602081019050919050565b6000819050602082019050919050565b600081519050919050565b600081519050919050565b6000602082019050919050565b600082825260208201905092915050565b600081905092915050565b600082825260208201905092915050565b600082825260208201905092915050565b600081905092915050565b60006155f982615738565b915061560483615738565b92508263ffffffff0382111561561d5761561c615883565b5b828201905092915050565b600061563382615738565b915061563e83615738565b92508163ffffffff048311821515161561565b5761565a615883565b5b828202905092915050565b600061567182615738565b915061567c83615738565b92508282101561568f5761568e615883565b5b828203905092915050565b60006156a58261570e565b9050919050565b60008115159050919050565b6000819050919050565b60008190506156d08261595d565b919050565b60008190506156e382615971565b919050565b60008190506156f682615985565b919050565b600081905061570982615999565b919050565b600073ffffffffffffffffffffffffffffffffffffffff82169050919050565b6000819050919050565b600063ffffffff82169050919050565b60006157538261575a565b9050919050565b60006157658261570e565b9050919050565b6000615777826156c2565b9050919050565b6000615789826156d5565b9050919050565b600061579b826156e8565b9050919050565b60006157ad826156fb565b9050919050565b82818337600083830152505050565b60005b838110156157e15780820151818401526020810190506157c6565b838111156157f0576000848401525b50505050565b6000600282049050600182168061580e57607f821691505b60208210811415615822576158216158e1565b5b50919050565b600061583382615738565b915063ffffffff82141561584a57615849615883565b5b600182019050919050565b600061586082615867565b9050919050565b600061587282615950565b9050919050565b6000819050919050565b7f4e487b7100000000000000000000000000000000000000000000000000000000600052601160045260246000fd5b7f4e487b7100000000000000000000000000000000000000000000000000000000600052602160045260246000fd5b7f4e487b7100000000000000000000000000000000000000000000000000000000600052602260045260246000fd5b7f4e487b7100000000000000000000000000000000000000000000000000000000600052604160045260246000fd5b6000601f19601f8301169050919050565b60008160601b9050919050565b6003811061596e5761596d6158b2565b5b50565b60088110615982576159816158b2565b5b50565b60038110615996576159956158b2565b5b50565b600281106159aa576159a96158b2565b5b50565b6159b68161569a565b81146159c157600080fd5b50565b6159cd816156ac565b81146159d857600080fd5b50565b600381106159e857600080fd5b50565b600381106159f857600080fd5b50565b60028110615a0857600080fd5b50565b615a1481615738565b8114615a1f57600080fd5b5056fea264697066735822122047beb4177d28c84d00ec8a537bc1da11fd7e060c3175b3761a8edb48eb38ebff64736f6c63430008000033",
  "linkReferences": {},
  "deployedLinkReferences": {}
}