{
  "_format": "hh-sol-artifact-1",
  "contractName": "CollecteurExportateurContrat",
  "sourceName": "contracts/CollecteurExportateurContractOK.sol",
  "abi": [
    {
      "inputs": [
        {
          "internalType": "address",
          "name": "_producteurEnPhaseCultureAddress",
          "type": "address"
        }
      ],
      "stateMutability": "nonpayable",
      "type": "constructor"
    },
    {
      "anonymous": false,
      "inputs": [
        {
          "indexed": true,
          "internalType": "address",
          "name": "acteur",
          "type": "address"
        },
        {
          "indexed": false,
          "internalType": "enum CollecteurExportateurContrat.Role",
          "name": "role",
          "type": "uint8"
        }
      ],
      "name": "ActeurEnregistre",
      "type": "event"
    },
    {
      "anonymous": false,
      "inputs": [
        {
          "indexed": true,
          "internalType": "address",
          "name": "exportateur",
          "type": "address"
        },
        {
          "indexed": false,
          "internalType": "uint256",
          "name": "idProduit",
          "type": "uint256"
        }
      ],
      "name": "CommandePasser",
      "type": "event"
    },
    {
      "anonymous": false,
      "inputs": [
        {
          "indexed": true,
          "internalType": "uint256",
          "name": "idProduit",
          "type": "uint256"
        },
        {
          "indexed": false,
          "internalType": "uint256",
          "name": "idCondition",
          "type": "uint256"
        },
        {
          "indexed": false,
          "internalType": "string",
          "name": "temperature",
          "type": "string"
        },
        {
          "indexed": false,
          "internalType": "string",
          "name": "humidite",
          "type": "string"
        },
        {
          "indexed": false,
          "internalType": "uint256",
          "name": "timestamp",
          "type": "uint256"
        }
      ],
      "name": "ConditionEnregistree",
      "type": "event"
    },
    {
      "anonymous": false,
      "inputs": [
        {
          "indexed": true,
          "internalType": "uint256",
          "name": "idProduit",
          "type": "uint256"
        },
        {
          "indexed": false,
          "internalType": "uint256",
          "name": "idPaiement",
          "type": "uint256"
        },
        {
          "indexed": false,
          "internalType": "address",
          "name": "payeur",
          "type": "address"
        },
        {
          "indexed": false,
          "internalType": "uint256",
          "name": "montant",
          "type": "uint256"
        },
        {
          "indexed": false,
          "internalType": "enum CollecteurExportateurContrat.ModePaiement",
          "name": "mode",
          "type": "uint8"
        }
      ],
      "name": "PaiementEffectue",
      "type": "event"
    },
    {
      "anonymous": false,
      "inputs": [
        {
          "indexed": true,
          "internalType": "uint256",
          "name": "idProduit",
          "type": "uint256"
        },
        {
          "indexed": false,
          "internalType": "string",
          "name": "nom",
          "type": "string"
        },
        {
          "indexed": false,
          "internalType": "uint256",
          "name": "quantite",
          "type": "uint256"
        },
        {
          "indexed": false,
          "internalType": "uint256",
          "name": "prix",
          "type": "uint256"
        },
        {
          "indexed": false,
          "internalType": "uint256",
          "name": "idParcelle",
          "type": "uint256"
        },
        {
          "indexed": false,
          "internalType": "string",
          "name": "dateRecolte",
          "type": "string"
        },
        {
          "indexed": false,
          "internalType": "string",
          "name": "certificatPhytosanitaire",
          "type": "string"
        }
      ],
      "name": "ProduitAjoute",
      "type": "event"
    },
    {
      "anonymous": false,
      "inputs": [
        {
          "indexed": true,
          "internalType": "uint256",
          "name": "idProduit",
          "type": "uint256"
        },
        {
          "indexed": false,
          "internalType": "bool",
          "name": "valide",
          "type": "bool"
        }
      ],
      "name": "ProduitValide",
      "type": "event"
    },
    {
      "anonymous": false,
      "inputs": [
        {
          "indexed": true,
          "internalType": "uint256",
          "name": "idProduit",
          "type": "uint256"
        },
        {
          "indexed": false,
          "internalType": "enum CollecteurExportateurContrat.StatutTransport",
          "name": "statut",
          "type": "uint8"
        }
      ],
      "name": "StatutTransportMisAJour",
      "type": "event"
    },
    {
      "inputs": [
        {
          "internalType": "address",
          "name": "",
          "type": "address"
        }
      ],
      "name": "acteurs",
      "outputs": [
        {
          "internalType": "address",
          "name": "addr",
          "type": "address"
        },
        {
          "internalType": "enum CollecteurExportateurContrat.Role",
          "name": "role",
          "type": "uint8"
        }
      ],
      "stateMutability": "view",
      "type": "function"
    },
    {
      "inputs": [
        {
          "internalType": "uint256",
          "name": "_idParcelle",
          "type": "uint256"
        },
        {
          "internalType": "uint256",
          "name": "_quantite",
          "type": "uint256"
        },
        {
          "internalType": "uint256",
          "name": "_prix",
          "type": "uint256"
        }
      ],
      "name": "ajouterProduit",
      "outputs": [],
      "stateMutability": "nonpayable",
      "type": "function"
    },
    {
      "inputs": [
        {
          "internalType": "uint256",
          "name": "",
          "type": "uint256"
        }
      ],
      "name": "commandes",
      "outputs": [
        {
          "internalType": "uint256",
          "name": "id",
          "type": "uint256"
        },
        {
          "internalType": "uint256",
          "name": "idProduit",
          "type": "uint256"
        },
        {
          "internalType": "uint256",
          "name": "quantite",
          "type": "uint256"
        },
        {
          "internalType": "uint256",
          "name": "prix",
          "type": "uint256"
        },
        {
          "internalType": "enum CollecteurExportateurContrat.StatutTransport",
          "name": "statutTransport",
          "type": "uint8"
        },
        {
          "components": [
            {
              "internalType": "address",
              "name": "addr",
              "type": "address"
            },
            {
              "internalType": "enum CollecteurExportateurContrat.Role",
              "name": "role",
              "type": "uint8"
            }
          ],
          "internalType": "struct CollecteurExportateurContrat.Acteur",
          "name": "exportateur",
          "type": "tuple"
        }
      ],
      "stateMutability": "view",
      "type": "function"
    },
    {
      "inputs": [],
      "name": "compteurCommandes",
      "outputs": [
        {
          "internalType": "uint256",
          "name": "",
          "type": "uint256"
        }
      ],
      "stateMutability": "view",
      "type": "function"
    },
    {
      "inputs": [],
      "name": "compteurConditions",
      "outputs": [
        {
          "internalType": "uint256",
          "name": "",
          "type": "uint256"
        }
      ],
      "stateMutability": "view",
      "type": "function"
    },
    {
      "inputs": [],
      "name": "compteurPaiements",
      "outputs": [
        {
          "internalType": "uint256",
          "name": "",
          "type": "uint256"
        }
      ],
      "stateMutability": "view",
      "type": "function"
    },
    {
      "inputs": [],
      "name": "compteurProduits",
      "outputs": [
        {
          "internalType": "uint256",
          "name": "",
          "type": "uint256"
        }
      ],
      "stateMutability": "view",
      "type": "function"
    },
    {
      "inputs": [
        {
          "internalType": "uint256",
          "name": "",
          "type": "uint256"
        }
      ],
      "name": "conditions",
      "outputs": [
        {
          "internalType": "uint256",
          "name": "id",
          "type": "uint256"
        },
        {
          "internalType": "string",
          "name": "temperature",
          "type": "string"
        },
        {
          "internalType": "string",
          "name": "humidite",
          "type": "string"
        },
        {
          "internalType": "uint256",
          "name": "timestamp",
          "type": "uint256"
        }
      ],
      "stateMutability": "view",
      "type": "function"
    },
    {
      "inputs": [
        {
          "internalType": "uint256",
          "name": "_idCommande",
          "type": "uint256"
        },
        {
          "internalType": "uint256",
          "name": "_montant",
          "type": "uint256"
        },
        {
          "internalType": "enum CollecteurExportateurContrat.ModePaiement",
          "name": "_mode",
          "type": "uint8"
        }
      ],
      "name": "effectuerPaiement",
      "outputs": [],
      "stateMutability": "payable",
      "type": "function"
    },
    {
      "inputs": [
        {
          "internalType": "address",
          "name": "_acteur",
          "type": "address"
        },
        {
          "internalType": "enum CollecteurExportateurContrat.Role",
          "name": "_role",
          "type": "uint8"
        }
      ],
      "name": "enregistrerActeur",
      "outputs": [],
      "stateMutability": "nonpayable",
      "type": "function"
    },
    {
      "inputs": [
        {
          "internalType": "uint256",
          "name": "_idProduit",
          "type": "uint256"
        },
        {
          "internalType": "string",
          "name": "_temperature",
          "type": "string"
        },
        {
          "internalType": "string",
          "name": "_humidite",
          "type": "string"
        }
      ],
      "name": "enregistrerCondition",
      "outputs": [],
      "stateMutability": "nonpayable",
      "type": "function"
    },
    {
      "inputs": [
        {
          "internalType": "address",
          "name": "_acteur",
          "type": "address"
        }
      ],
      "name": "getActeur",
      "outputs": [
        {
          "components": [
            {
              "internalType": "address",
              "name": "addr",
              "type": "address"
            },
            {
              "internalType": "enum CollecteurExportateurContrat.Role",
              "name": "role",
              "type": "uint8"
            }
          ],
          "internalType": "struct CollecteurExportateurContrat.Acteur",
          "name": "",
          "type": "tuple"
        }
      ],
      "stateMutability": "view",
      "type": "function"
    },
    {
      "inputs": [
        {
          "internalType": "uint256",
          "name": "_idCommande",
          "type": "uint256"
        },
        {
          "internalType": "enum CollecteurExportateurContrat.StatutTransport",
          "name": "_statut",
          "type": "uint8"
        }
      ],
      "name": "mettreAJourStatutTransport",
      "outputs": [],
      "stateMutability": "nonpayable",
      "type": "function"
    },
    {
      "inputs": [
        {
          "internalType": "uint256",
          "name": "",
          "type": "uint256"
        }
      ],
      "name": "paiements",
      "outputs": [
        {
          "internalType": "uint256",
          "name": "id",
          "type": "uint256"
        },
        {
          "internalType": "address",
          "name": "payeur",
          "type": "address"
        },
        {
          "internalType": "uint256",
          "name": "montant",
          "type": "uint256"
        },
        {
          "internalType": "enum CollecteurExportateurContrat.ModePaiement",
          "name": "mode",
          "type": "uint8"
        },
        {
          "internalType": "uint256",
          "name": "timestamp",
          "type": "uint256"
        }
      ],
      "stateMutability": "view",
      "type": "function"
    },
    {
      "inputs": [
        {
          "internalType": "uint256",
          "name": "idProduit",
          "type": "uint256"
        },
        {
          "internalType": "uint256",
          "name": "_quantite",
          "type": "uint256"
        }
      ],
      "name": "passerCommande",
      "outputs": [],
      "stateMutability": "nonpayable",
      "type": "function"
    },
    {
      "inputs": [],
      "name": "producteurEnPhaseCultureAddress",
      "outputs": [
        {
          "internalType": "address",
          "name": "",
          "type": "address"
        }
      ],
      "stateMutability": "view",
      "type": "function"
    },
    {
      "inputs": [
        {
          "internalType": "uint256",
          "name": "",
          "type": "uint256"
        }
      ],
      "name": "produits",
      "outputs": [
        {
          "internalType": "uint256",
          "name": "id",
          "type": "uint256"
        },
        {
          "internalType": "string",
          "name": "nom",
          "type": "string"
        },
        {
          "internalType": "uint256",
          "name": "quantite",
          "type": "uint256"
        },
        {
          "internalType": "uint256",
          "name": "prix",
          "type": "uint256"
        },
        {
          "internalType": "enum CollecteurExportateurContrat.StatutProduit",
          "name": "statut",
          "type": "uint8"
        },
        {
          "internalType": "uint256",
          "name": "idParcelle",
          "type": "uint256"
        },
        {
          "internalType": "string",
          "name": "dateRecolte",
          "type": "string"
        },
        {
          "internalType": "string",
          "name": "certificatPhytosanitaire",
          "type": "string"
        },
        {
          "internalType": "address",
          "name": "collecteur",
          "type": "address"
        }
      ],
      "stateMutability": "view",
      "type": "function"
    },
    {
      "inputs": [
        {
          "internalType": "uint256",
          "name": "_idProduit",
          "type": "uint256"
        },
        {
          "internalType": "bool",
          "name": "_valide",
          "type": "bool"
        }
      ],
      "name": "validerProduit",
      "outputs": [],
      "stateMutability": "nonpayable",
      "type": "function"
    }
  ],
  "bytecode": "0x60806040523480156200001157600080fd5b50604051620035da380380620035da833981810160405281019062000037919062000096565b80600960006101000a81548173ffffffffffffffffffffffffffffffffffffffff021916908373ffffffffffffffffffffffffffffffffffffffff1602179055505062000110565b6000815190506200009081620000f6565b92915050565b600060208284031215620000a957600080fd5b6000620000b9848285016200007f565b91505092915050565b6000620000cf82620000d6565b9050919050565b600073ffffffffffffffffffffffffffffffffffffffff82169050919050565b6200010181620000c2565b81146200010d57600080fd5b50565b6134ba80620001206000396000f3fe6080604052600436106101095760003560e01c8063b96cc76f11610095578063d305dc3511610064578063d305dc351461037e578063edd13163146103a7578063fe32398a146103d2578063fe71496b1461040f578063ffd826d31461043857610109565b8063b96cc76f146102c3578063bb95f3b9146102ec578063cd3df1ed14610315578063d1aa5bbe1461034057610109565b8063488dee20116100dc578063488dee20146101bc57806362ca1128146101e7578063687112e21461022c57806391e5954c14610257578063a19bf0931461029857610109565b806302dccbc41461010e57806315e205291461013757806326c5000714610153578063487396f214610193575b600080fd5b34801561011a57600080fd5b506101356004803603810190610130919061274d565b61047a565b005b610151600480360381019061014c9190612880565b610762565b005b34801561015f57600080fd5b5061017a60048036038101906101759190612724565b610e73565b60405161018a9493929190612ef8565b60405180910390f35b34801561019f57600080fd5b506101ba60048036038101906101b591906127c5565b610fb3565b005b3480156101c857600080fd5b506101d1611197565b6040516101de9190612e45565b60405180910390f35b3480156101f357600080fd5b5061020e60048036038101906102099190612724565b61119d565b60405161022399989796959493929190612f4b565b60405180910390f35b34801561023857600080fd5b506102416113b0565b60405161024e9190612e45565b60405180910390f35b34801561026357600080fd5b5061027e60048036038101906102799190612724565b6113b6565b60405161028f959493929190612ea5565b60405180910390f35b3480156102a457600080fd5b506102ad611419565b6040516102ba9190612c3f565b60405180910390f35b3480156102cf57600080fd5b506102ea60048036038101906102e591906125a2565b61143f565b005b3480156102f857600080fd5b50610313600480360381019061030e9190612789565b6115d2565b005b34801561032157600080fd5b5061032a611772565b6040516103379190612e45565b60405180910390f35b34801561034c57600080fd5b5061036760048036038101906103629190612579565b611778565b604051610375929190612c5a565b60405180910390f35b34801561038a57600080fd5b506103a560048036038101906103a09190612844565b6117c9565b005b3480156103b357600080fd5b506103bc611ccb565b6040516103c99190612e45565b60405180910390f35b3480156103de57600080fd5b506103f960048036038101906103f49190612579565b611cd1565b6040516104069190612e2a565b60405180910390f35b34801561041b57600080fd5b50610436600480360381019061043191906128cf565b611e06565b005b34801561044457600080fd5b5061045f600480360381019061045a9190612724565b6121f0565b60405161047196959493929190612fed565b60405180910390f35b600160028111156104b4577f4e487b7100000000000000000000000000000000000000000000000000000000600052602160045260246000fd5b6000803373ffffffffffffffffffffffffffffffffffffffff1673ffffffffffffffffffffffffffffffffffffffff16815260200190815260200160002060000160149054906101000a900460ff16600281111561053b577f4e487b7100000000000000000000000000000000000000000000000000000000600052602160045260246000fd5b1461057b576040517f08c379a000000000000000000000000000000000000000000000000000000000815260040161057290612dea565b60405180910390fd5b600060028111156105b5577f4e487b7100000000000000000000000000000000000000000000000000000000600052602160045260246000fd5b6001600084815260200190815260200160002060040160009054906101000a900460ff166002811115610611577f4e487b7100000000000000000000000000000000000000000000000000000000600052602160045260246000fd5b14610651576040517f08c379a000000000000000000000000000000000000000000000000000000000815260040161064890612d6a565b60405180910390fd5b80156106c057600180600084815260200190815260200160002060040160006101000a81548160ff021916908360028111156106b6577f4e487b7100000000000000000000000000000000000000000000000000000000600052602160045260246000fd5b0217905550610726565b60026001600084815260200190815260200160002060040160006101000a81548160ff02191690836002811115610720577f4e487b7100000000000000000000000000000000000000000000000000000000600052602160045260246000fd5b02179055505b817f40b060b3f7b6252dbdc35ea1e381d20a283b1e1a996cd701bde7b75ec12568f5826040516107569190612c83565b60405180910390a25050565b6001600281111561079c577f4e487b7100000000000000000000000000000000000000000000000000000000600052602160045260246000fd5b6000803373ffffffffffffffffffffffffffffffffffffffff1673ffffffffffffffffffffffffffffffffffffffff16815260200190815260200160002060000160149054906101000a900460ff166002811115610823577f4e487b7100000000000000000000000000000000000000000000000000000000600052602160045260246000fd5b14610863576040517f08c379a000000000000000000000000000000000000000000000000000000000815260040161085a90612dea565b60405180910390fd5b6000600160006004600087815260200190815260200160002060010154815260200190815260200160002060405180610120016040529081600082015481526020016001820180546108b490613277565b80601f01602080910402602001604051908101604052809291908181526020018280546108e090613277565b801561092d5780601f106109025761010080835404028352916020019161092d565b820191906000526020600020905b81548152906001019060200180831161091057829003601f168201915b5050505050815260200160028201548152602001600382015481526020016004820160009054906101000a900460ff166002811115610995577f4e487b7100000000000000000000000000000000000000000000000000000000600052602160045260246000fd5b60028111156109cd577f4e487b7100000000000000000000000000000000000000000000000000000000600052602160045260246000fd5b8152602001600582015481526020016006820180546109eb90613277565b80601f0160208091040260200160405190810160405280929190818152602001828054610a1790613277565b8015610a645780601f10610a3957610100808354040283529160200191610a64565b820191906000526020600020905b815481529060010190602001808311610a4757829003601f168201915b50505050508152602001600782018054610a7d90613277565b80601f0160208091040260200160405190810160405280929190818152602001828054610aa990613277565b8015610af65780601f10610acb57610100808354040283529160200191610af6565b820191906000526020600020905b815481529060010190602001808311610ad957829003601f168201915b505050505081526020016008820160009054906101000a900473ffffffffffffffffffffffffffffffffffffffff1673ffffffffffffffffffffffffffffffffffffffff1673ffffffffffffffffffffffffffffffffffffffff1681525050905060016002811115610b91577f4e487b7100000000000000000000000000000000000000000000000000000000600052602160045260246000fd5b81608001516002811115610bce577f4e487b7100000000000000000000000000000000000000000000000000000000600052602160045260246000fd5b14610c0e576040517f08c379a0000000000000000000000000000000000000000000000000000000008152600401610c0590612d8a565b60405180910390fd5b60046000858152602001908152602001600020600201548160600151610c3491906130cb565b3414610c75576040517f08c379a0000000000000000000000000000000000000000000000000000000008152600401610c6c90612d4a565b60405180910390fd5b60086000815480929190610c88906132a9565b91905055506040518060a0016040528060085481526020013373ffffffffffffffffffffffffffffffffffffffff168152602001848152602001836002811115610cfb577f4e487b7100000000000000000000000000000000000000000000000000000000600052602160045260246000fd5b8152602001428152506003600060085481526020019081526020016000206000820151816000015560208201518160010160006101000a81548173ffffffffffffffffffffffffffffffffffffffff021916908373ffffffffffffffffffffffffffffffffffffffff1602179055506040820151816002015560608201518160030160006101000a81548160ff02191690836002811115610dc5577f4e487b7100000000000000000000000000000000000000000000000000000000600052602160045260246000fd5b02179055506080820151816004015590505080600001517f7cd7c5e6b4cabba2bd7f4c36f4a3e25931a4d1130f8745849d9225eacdd394fe600854338686604051610e139493929190612e60565b60405180910390a2600081610100015190508073ffffffffffffffffffffffffffffffffffffffff166108fc349081150290604051600060405180830381858888f19350505050158015610e6b573d6000803e3d6000fd5b505050505050565b6002602052806000526040600020600091509050806000015490806001018054610e9c90613277565b80601f0160208091040260200160405190810160405280929190818152602001828054610ec890613277565b8015610f155780601f10610eea57610100808354040283529160200191610f15565b820191906000526020600020905b815481529060010190602001808311610ef857829003601f168201915b505050505090806002018054610f2a90613277565b80601f0160208091040260200160405190810160405280929190818152602001828054610f5690613277565b8015610fa35780601f10610f7857610100808354040283529160200191610fa3565b820191906000526020600020905b815481529060010190602001808311610f8657829003601f168201915b5050505050908060030154905084565b600280811115610fec577f4e487b7100000000000000000000000000000000000000000000000000000000600052602160045260246000fd5b6000803373ffffffffffffffffffffffffffffffffffffffff1673ffffffffffffffffffffffffffffffffffffffff16815260200190815260200160002060000160149054906101000a900460ff166002811115611073577f4e487b7100000000000000000000000000000000000000000000000000000000600052602160045260246000fd5b146110b3576040517f08c379a00000000000000000000000000000000000000000000000000000000081526004016110aa90612e0a565b60405180910390fd5b600760008154809291906110c6906132a9565b9190505550604051806080016040528060075481526020018381526020018281526020014281525060026000858152602001908152602001600020600082015181600001556020820151816001019080519060200190611127929190612320565b506040820151816002019080519060200190611144929190612320565b5060608201518160030155905050827fa313df723389871f22ba2e986d3ad5724712c38a270e9ec008e6037c670862da60075484844260405161118a9493929190612ef8565b60405180910390a2505050565b60055481565b60016020528060005260406000206000915090508060000154908060010180546111c690613277565b80601f01602080910402602001604051908101604052809291908181526020018280546111f290613277565b801561123f5780601f106112145761010080835404028352916020019161123f565b820191906000526020600020905b81548152906001019060200180831161122257829003601f168201915b5050505050908060020154908060030154908060040160009054906101000a900460ff169080600501549080600601805461127990613277565b80601f01602080910402602001604051908101604052809291908181526020018280546112a590613277565b80156112f25780601f106112c7576101008083540402835291602001916112f2565b820191906000526020600020905b8154815290600101906020018083116112d557829003601f168201915b50505050509080600701805461130790613277565b80601f016020809104026020016040519081016040528092919081815260200182805461133390613277565b80156113805780601f1061135557610100808354040283529160200191611380565b820191906000526020600020905b81548152906001019060200180831161136357829003601f168201915b5050505050908060080160009054906101000a900473ffffffffffffffffffffffffffffffffffffffff16905089565b60075481565b60036020528060005260406000206000915090508060000154908060010160009054906101000a900473ffffffffffffffffffffffffffffffffffffffff16908060020154908060030160009054906101000a900460ff16908060040154905085565b600960009054906101000a900473ffffffffffffffffffffffffffffffffffffffff1681565b60405180604001604052808373ffffffffffffffffffffffffffffffffffffffff16815260200182600281111561149f577f4e487b7100000000000000000000000000000000000000000000000000000000600052602160045260246000fd5b8152506000808473ffffffffffffffffffffffffffffffffffffffff1673ffffffffffffffffffffffffffffffffffffffff16815260200190815260200160002060008201518160000160006101000a81548173ffffffffffffffffffffffffffffffffffffffff021916908373ffffffffffffffffffffffffffffffffffffffff16021790555060208201518160000160146101000a81548160ff02191690836002811115611578577f4e487b7100000000000000000000000000000000000000000000000000000000600052602160045260246000fd5b02179055509050508173ffffffffffffffffffffffffffffffffffffffff167fbd86914a2cea41efb2ef2e360c4375dceb3c2ec14c6876f40345126b9ac1f3cc826040516115c69190612c9e565b60405180910390a25050565b60028081111561160b577f4e487b7100000000000000000000000000000000000000000000000000000000600052602160045260246000fd5b6000803373ffffffffffffffffffffffffffffffffffffffff1673ffffffffffffffffffffffffffffffffffffffff16815260200190815260200160002060000160149054906101000a900460ff166002811115611692577f4e487b7100000000000000000000000000000000000000000000000000000000600052602160045260246000fd5b146116d2576040517f08c379a00000000000000000000000000000000000000000000000000000000081526004016116c990612e0a565b60405180910390fd5b806004600084815260200190815260200160002060040160006101000a81548160ff02191690836001811115611731577f4e487b7100000000000000000000000000000000000000000000000000000000600052602160045260246000fd5b0217905550817f26ac1a75b14d22a4bdc3531ce4b57293ccf9243488885dce5ceb2ebf2d24f937826040516117669190612cb9565b60405180910390a25050565b60085481565b60006020528060005260406000206000915090508060000160009054906101000a900473ffffffffffffffffffffffffffffffffffffffff16908060000160149054906101000a900460ff16905082565b60016002811115611803577f4e487b7100000000000000000000000000000000000000000000000000000000600052602160045260246000fd5b6000803373ffffffffffffffffffffffffffffffffffffffff1673ffffffffffffffffffffffffffffffffffffffff16815260200190815260200160002060000160149054906101000a900460ff16600281111561188a577f4e487b7100000000000000000000000000000000000000000000000000000000600052602160045260246000fd5b146118ca576040517f08c379a00000000000000000000000000000000000000000000000000000000081526004016118c190612dea565b60405180910390fd5b6001600083815260200190815260200160002060020154811115611923576040517f08c379a000000000000000000000000000000000000000000000000000000000815260040161191a90612daa565b60405180910390fd5b600060016000848152602001908152602001600020600301548261194791906130cb565b905060008060003373ffffffffffffffffffffffffffffffffffffffff1673ffffffffffffffffffffffffffffffffffffffff1681526020019081526020016000206040518060400160405290816000820160009054906101000a900473ffffffffffffffffffffffffffffffffffffffff1673ffffffffffffffffffffffffffffffffffffffff1673ffffffffffffffffffffffffffffffffffffffff1681526020016000820160149054906101000a900460ff166002811115611a35577f4e487b7100000000000000000000000000000000000000000000000000000000600052602160045260246000fd5b6002811115611a6d577f4e487b7100000000000000000000000000000000000000000000000000000000600052602160045260246000fd5b8152505090506000836001600087815260200190815260200160002060020154611a979190613125565b905080600160008781526020019081526020016000206002018190555060056000815480929190611ac7906132a9565b91905055506040518060c00160405280600554815260200186815260200185815260200184815260200160006001811115611b2b577f4e487b7100000000000000000000000000000000000000000000000000000000600052602160045260246000fd5b8152602001838152506004600060055481526020019081526020016000206000820151816000015560208201518160010155604082015181600201556060820151816003015560808201518160040160006101000a81548160ff02191690836001811115611bc2577f4e487b7100000000000000000000000000000000000000000000000000000000600052602160045260246000fd5b021790555060a08201518160050160008201518160000160006101000a81548173ffffffffffffffffffffffffffffffffffffffff021916908373ffffffffffffffffffffffffffffffffffffffff16021790555060208201518160000160146101000a81548160ff02191690836002811115611c68577f4e487b7100000000000000000000000000000000000000000000000000000000600052602160045260246000fd5b02179055505050905050816000015173ffffffffffffffffffffffffffffffffffffffff167fac67b1d913a02769b0d5b5c09600fcf53ccca6745557622305af0da92152d05a86604051611cbc9190612e45565b60405180910390a25050505050565b60065481565b611cd96123a6565b6000808373ffffffffffffffffffffffffffffffffffffffff1673ffffffffffffffffffffffffffffffffffffffff1681526020019081526020016000206040518060400160405290816000820160009054906101000a900473ffffffffffffffffffffffffffffffffffffffff1673ffffffffffffffffffffffffffffffffffffffff1673ffffffffffffffffffffffffffffffffffffffff1681526020016000820160149054906101000a900460ff166002811115611dc3577f4e487b7100000000000000000000000000000000000000000000000000000000600052602160045260246000fd5b6002811115611dfb577f4e487b7100000000000000000000000000000000000000000000000000000000600052602160045260246000fd5b815250509050919050565b60006002811115611e40577f4e487b7100000000000000000000000000000000000000000000000000000000600052602160045260246000fd5b6000803373ffffffffffffffffffffffffffffffffffffffff1673ffffffffffffffffffffffffffffffffffffffff16815260200190815260200160002060000160149054906101000a900460ff166002811115611ec7577f4e487b7100000000000000000000000000000000000000000000000000000000600052602160045260246000fd5b14611f07576040517f08c379a0000000000000000000000000000000000000000000000000000000008152600401611efe90612dca565b60405180910390fd5b6000806000600960009054906101000a900473ffffffffffffffffffffffffffffffffffffffff1673ffffffffffffffffffffffffffffffffffffffff16637f645273876040518263ffffffff1660e01b8152600401611f679190612e45565b60006040518083038186803b158015611f7f57600080fd5b505afa158015611f93573d6000803e3d6000fd5b505050506040513d6000823e3d601f19601f82011682018060405250810190611fbc91906125de565b9650965096505050505060066000815480929190611fd9906132a9565b919050555060405180610120016040528060065481526020018481526020018681526020018581526020016000600281111561203e577f4e487b7100000000000000000000000000000000000000000000000000000000600052602160045260246000fd5b81526020018781526020018381526020018281526020013373ffffffffffffffffffffffffffffffffffffffff168152506001600060065481526020019081526020016000206000820151816000015560208201518160010190805190602001906120aa929190612320565b50604082015181600201556060820151816003015560808201518160040160006101000a81548160ff02191690836002811115612110577f4e487b7100000000000000000000000000000000000000000000000000000000600052602160045260246000fd5b021790555060a0820151816005015560c082015181600601908051906020019061213b929190612320565b5060e0820151816007019080519060200190612158929190612320565b506101008201518160080160006101000a81548173ffffffffffffffffffffffffffffffffffffffff021916908373ffffffffffffffffffffffffffffffffffffffff1602179055509050506006547ff66885504dddadc35efd9cd98df3190adb9b2b9c7537390767c4ee806f4c0bbf8487878a87876040516121e096959493929190612cd4565b60405180910390a2505050505050565b60046020528060005260406000206000915090508060000154908060010154908060020154908060030154908060040160009054906101000a900460ff1690806005016040518060400160405290816000820160009054906101000a900473ffffffffffffffffffffffffffffffffffffffff1673ffffffffffffffffffffffffffffffffffffffff1673ffffffffffffffffffffffffffffffffffffffff1681526020016000820160149054906101000a900460ff1660028111156122df577f4e487b7100000000000000000000000000000000000000000000000000000000600052602160045260246000fd5b6002811115612317577f4e487b7100000000000000000000000000000000000000000000000000000000600052602160045260246000fd5b81525050905086565b82805461232c90613277565b90600052602060002090601f01602090048101928261234e5760008555612395565b82601f1061236757805160ff1916838001178555612395565b82800160010185558215612395579182015b82811115612394578251825591602001919060010190612379565b5b5090506123a2919061240e565b5090565b6040518060400160405280600073ffffffffffffffffffffffffffffffffffffffff16815260200160006002811115612408577f4e487b7100000000000000000000000000000000000000000000000000000000600052602160045260246000fd5b81525090565b5b8082111561242757600081600090555060010161240f565b5090565b600061243e6124398461307f565b61304e565b90508281526020810184848401111561245657600080fd5b612461848285613235565b509392505050565b600061247c6124778461307f565b61304e565b90508281526020810184848401111561249457600080fd5b61249f848285613244565b509392505050565b6000813590506124b68161340f565b92915050565b6000813590506124cb81613426565b92915050565b6000813590506124e08161343d565b92915050565b6000813590506124f58161344d565b92915050565b60008135905061250a8161345d565b92915050565b600082601f83011261252157600080fd5b813561253184826020860161242b565b91505092915050565b600082601f83011261254b57600080fd5b815161255b848260208601612469565b91505092915050565b6000813590506125738161346d565b92915050565b60006020828403121561258b57600080fd5b6000612599848285016124a7565b91505092915050565b600080604083850312156125b557600080fd5b60006125c3858286016124a7565b92505060206125d4858286016124e6565b9150509250929050565b600080600080600080600060e0888a0312156125f957600080fd5b600088015167ffffffffffffffff81111561261357600080fd5b61261f8a828b0161253a565b975050602088015167ffffffffffffffff81111561263c57600080fd5b6126488a828b0161253a565b965050604088015167ffffffffffffffff81111561266557600080fd5b6126718a828b0161253a565b955050606088015167ffffffffffffffff81111561268e57600080fd5b61269a8a828b0161253a565b945050608088015167ffffffffffffffff8111156126b757600080fd5b6126c38a828b0161253a565b93505060a088015167ffffffffffffffff8111156126e057600080fd5b6126ec8a828b0161253a565b92505060c088015167ffffffffffffffff81111561270957600080fd5b6127158a828b0161253a565b91505092959891949750929550565b60006020828403121561273657600080fd5b600061274484828501612564565b91505092915050565b6000806040838503121561276057600080fd5b600061276e85828601612564565b925050602061277f858286016124bc565b9150509250929050565b6000806040838503121561279c57600080fd5b60006127aa85828601612564565b92505060206127bb858286016124fb565b9150509250929050565b6000806000606084860312156127da57600080fd5b60006127e886828701612564565b935050602084013567ffffffffffffffff81111561280557600080fd5b61281186828701612510565b925050604084013567ffffffffffffffff81111561282e57600080fd5b61283a86828701612510565b9150509250925092565b6000806040838503121561285757600080fd5b600061286585828601612564565b925050602061287685828601612564565b9150509250929050565b60008060006060848603121561289557600080fd5b60006128a386828701612564565b93505060206128b486828701612564565b92505060406128c5868287016124d1565b9150509250925092565b6000806000606084860312156128e457600080fd5b60006128f286828701612564565b935050602061290386828701612564565b925050604061291486828701612564565b9150509250925092565b61292781613159565b82525050565b61293681613159565b82525050565b6129458161316b565b82525050565b612954816131ed565b82525050565b612963816131ff565b82525050565b612972816131ff565b82525050565b61298181613211565b82525050565b61299081613223565b82525050565b60006129a1826130af565b6129ab81856130ba565b93506129bb818560208601613244565b6129c4816133ae565b840191505092915050565b60006129dc6011836130ba565b91507f4d6f6e74616e7420696e636f72726563740000000000000000000000000000006000830152602082019050919050565b6000612a1c6013836130ba565b91507f50726f647569742064656a6120747261697465000000000000000000000000006000830152602082019050919050565b6000612a5c6012836130ba565b91507f50726f64756974206e6f6e2076616c69646500000000000000000000000000006000830152602082019050919050565b6000612a9c6011836130ba565b91507f5175616e7469746520696e76616c6964650000000000000000000000000000006000830152602082019050919050565b6000612adc6022836130ba565b91507f4e6f6e206175746f726973653a207365756c656d656e7420436f6c6c6563746560008301527f75720000000000000000000000000000000000000000000000000000000000006020830152604082019050919050565b6000612b426023836130ba565b91507f4e6f6e206175746f726973653a207365756c656d656e74204578706f7274617460008301527f65757200000000000000000000000000000000000000000000000000000000006020830152604082019050919050565b6000612ba86024836130ba565b91507f4e6f6e206175746f726973653a207365756c656d656e74205472616e73706f7260008301527f74657572000000000000000000000000000000000000000000000000000000006020830152604082019050919050565b604082016000820151612c17600085018261291e565b506020820151612c2a602085018261295a565b50505050565b612c39816131e3565b82525050565b6000602082019050612c54600083018461292d565b92915050565b6000604082019050612c6f600083018561292d565b612c7c6020830184612969565b9392505050565b6000602082019050612c98600083018461293c565b92915050565b6000602082019050612cb36000830184612969565b92915050565b6000602082019050612cce6000830184612987565b92915050565b600060c0820190508181036000830152612cee8189612996565b9050612cfd6020830188612c30565b612d0a6040830187612c30565b612d176060830186612c30565b8181036080830152612d298185612996565b905081810360a0830152612d3d8184612996565b9050979650505050505050565b60006020820190508181036000830152612d63816129cf565b9050919050565b60006020820190508181036000830152612d8381612a0f565b9050919050565b60006020820190508181036000830152612da381612a4f565b9050919050565b60006020820190508181036000830152612dc381612a8f565b9050919050565b60006020820190508181036000830152612de381612acf565b9050919050565b60006020820190508181036000830152612e0381612b35565b9050919050565b60006020820190508181036000830152612e2381612b9b565b9050919050565b6000604082019050612e3f6000830184612c01565b92915050565b6000602082019050612e5a6000830184612c30565b92915050565b6000608082019050612e756000830187612c30565b612e82602083018661292d565b612e8f6040830185612c30565b612e9c606083018461294b565b95945050505050565b600060a082019050612eba6000830188612c30565b612ec7602083018761292d565b612ed46040830186612c30565b612ee1606083018561294b565b612eee6080830184612c30565b9695505050505050565b6000608082019050612f0d6000830187612c30565b8181036020830152612f1f8186612996565b90508181036040830152612f338185612996565b9050612f426060830184612c30565b95945050505050565b600061012082019050612f61600083018c612c30565b8181036020830152612f73818b612996565b9050612f82604083018a612c30565b612f8f6060830189612c30565b612f9c6080830188612978565b612fa960a0830187612c30565b81810360c0830152612fbb8186612996565b905081810360e0830152612fcf8185612996565b9050612fdf61010083018461292d565b9a9950505050505050505050565b600060e0820190506130026000830189612c30565b61300f6020830188612c30565b61301c6040830187612c30565b6130296060830186612c30565b6130366080830185612987565b61304360a0830184612c01565b979650505050505050565b6000604051905081810181811067ffffffffffffffff821117156130755761307461337f565b5b8060405250919050565b600067ffffffffffffffff82111561309a5761309961337f565b5b601f19601f8301169050602081019050919050565b600081519050919050565b600082825260208201905092915050565b60006130d6826131e3565b91506130e1836131e3565b9250817fffffffffffffffffffffffffffffffffffffffffffffffffffffffffffffffff048311821515161561311a576131196132f2565b5b828202905092915050565b6000613130826131e3565b915061313b836131e3565b92508282101561314e5761314d6132f2565b5b828203905092915050565b6000613164826131c3565b9050919050565b60008115159050919050565b6000819050613185826133bf565b919050565b6000819050613198826133d3565b919050565b60008190506131ab826133e7565b919050565b60008190506131be826133fb565b919050565b600073ffffffffffffffffffffffffffffffffffffffff82169050919050565b6000819050919050565b60006131f882613177565b9050919050565b600061320a8261318a565b9050919050565b600061321c8261319d565b9050919050565b600061322e826131b0565b9050919050565b82818337600083830152505050565b60005b83811015613262578082015181840152602081019050613247565b83811115613271576000848401525b50505050565b6000600282049050600182168061328f57607f821691505b602082108114156132a3576132a2613350565b5b50919050565b60006132b4826131e3565b91507fffffffffffffffffffffffffffffffffffffffffffffffffffffffffffffffff8214156132e7576132e66132f2565b5b600182019050919050565b7f4e487b7100000000000000000000000000000000000000000000000000000000600052601160045260246000fd5b7f4e487b7100000000000000000000000000000000000000000000000000000000600052602160045260246000fd5b7f4e487b7100000000000000000000000000000000000000000000000000000000600052602260045260246000fd5b7f4e487b7100000000000000000000000000000000000000000000000000000000600052604160045260246000fd5b6000601f19601f8301169050919050565b600381106133d0576133cf613321565b5b50565b600381106133e4576133e3613321565b5b50565b600381106133f8576133f7613321565b5b50565b6002811061340c5761340b613321565b5b50565b61341881613159565b811461342357600080fd5b50565b61342f8161316b565b811461343a57600080fd5b50565b6003811061344a57600080fd5b50565b6003811061345a57600080fd5b50565b6002811061346a57600080fd5b50565b613476816131e3565b811461348157600080fd5b5056fea26469706673582212206a85b5fa22c8c7a59df718173ab877f2153329d22ea5b7ce49b4f3cfa3914f1c64736f6c63430008000033",
  "linkReferences": {},
  "deployedLinkReferences": {}
}