{
  "_format": "hh-sol-artifact-1",
  "contractName": "CollecteurExportateurContrat",
  "sourceName": "contracts/CollecteurExportateurContractOK.sol",
  "abi": [
    {
      "inputs": [
        {
          "internalType": "address",
          "name": "_producteurEnPhaseCultureAddress",
          "type": "address"
        }
      ],
      "stateMutability": "nonpayable",
      "type": "constructor"
    },
    {
      "anonymous": false,
      "inputs": [
        {
          "indexed": true,
          "internalType": "address",
          "name": "acteur",
          "type": "address"
        },
        {
          "indexed": false,
          "internalType": "enum ProducteurEnPhaseCulture.Role",
          "name": "role",
          "type": "uint8"
        }
      ],
      "name": "ActeurEnregistre",
      "type": "event"
    },
    {
      "anonymous": false,
      "inputs": [
        {
          "indexed": true,
          "internalType": "address",
          "name": "exportateur",
          "type": "address"
        },
        {
          "indexed": false,
          "internalType": "uint256",
          "name": "idProduit",
          "type": "uint256"
        }
      ],
      "name": "CommandePasser",
      "type": "event"
    },
    {
      "anonymous": false,
      "inputs": [
        {
          "indexed": true,
          "internalType": "uint256",
          "name": "idProduit",
          "type": "uint256"
        },
        {
          "indexed": false,
          "internalType": "uint256",
          "name": "idCondition",
          "type": "uint256"
        },
        {
          "indexed": false,
          "internalType": "string",
          "name": "temperature",
          "type": "string"
        },
        {
          "indexed": false,
          "internalType": "string",
          "name": "humidite",
          "type": "string"
        },
        {
          "indexed": false,
          "internalType": "uint256",
          "name": "timestamp",
          "type": "uint256"
        }
      ],
      "name": "ConditionEnregistree",
      "type": "event"
    },
    {
      "anonymous": false,
      "inputs": [
        {
          "indexed": true,
          "internalType": "uint256",
          "name": "idProduit",
          "type": "uint256"
        },
        {
          "indexed": false,
          "internalType": "uint256",
          "name": "idPaiement",
          "type": "uint256"
        },
        {
          "indexed": false,
          "internalType": "address",
          "name": "payeur",
          "type": "address"
        },
        {
          "indexed": false,
          "internalType": "uint256",
          "name": "montant",
          "type": "uint256"
        },
        {
          "indexed": false,
          "internalType": "enum CollecteurExportateurContrat.ModePaiement",
          "name": "mode",
          "type": "uint8"
        }
      ],
      "name": "PaiementEffectue",
      "type": "event"
    },
    {
      "anonymous": false,
      "inputs": [
        {
          "indexed": true,
          "internalType": "uint256",
          "name": "idProduit",
          "type": "uint256"
        },
        {
          "indexed": false,
          "internalType": "string",
          "name": "nom",
          "type": "string"
        },
        {
          "indexed": false,
          "internalType": "uint256",
          "name": "quantite",
          "type": "uint256"
        },
        {
          "indexed": false,
          "internalType": "uint256",
          "name": "prix",
          "type": "uint256"
        },
        {
          "indexed": false,
          "internalType": "uint256",
          "name": "idParcelle",
          "type": "uint256"
        },
        {
          "indexed": false,
          "internalType": "string",
          "name": "dateRecolte",
          "type": "string"
        },
        {
          "indexed": false,
          "internalType": "string",
          "name": "certificatPhytosanitaire",
          "type": "string"
        }
      ],
      "name": "ProduitAjoute",
      "type": "event"
    },
    {
      "anonymous": false,
      "inputs": [
        {
          "indexed": true,
          "internalType": "uint256",
          "name": "idProduit",
          "type": "uint256"
        },
        {
          "indexed": false,
          "internalType": "bool",
          "name": "valide",
          "type": "bool"
        }
      ],
      "name": "ProduitValide",
      "type": "event"
    },
    {
      "anonymous": false,
      "inputs": [
        {
          "indexed": true,
          "internalType": "uint256",
          "name": "idProduit",
          "type": "uint256"
        },
        {
          "indexed": false,
          "internalType": "enum CollecteurExportateurContrat.StatutTransport",
          "name": "statut",
          "type": "uint8"
        }
      ],
      "name": "StatutTransportMisAJour",
      "type": "event"
    },
    {
      "stateMutability": "payable",
      "type": "fallback"
    },
    {
      "inputs": [
        {
          "internalType": "uint256",
          "name": "_idParcelle",
          "type": "uint256"
        },
        {
          "internalType": "uint256",
          "name": "_quantite",
          "type": "uint256"
        },
        {
          "internalType": "uint256",
          "name": "_prix",
          "type": "uint256"
        }
      ],
      "name": "ajouterProduit",
      "outputs": [],
      "stateMutability": "nonpayable",
      "type": "function"
    },
    {
      "inputs": [
        {
          "internalType": "uint256",
          "name": "",
          "type": "uint256"
        }
      ],
      "name": "commandes",
      "outputs": [
        {
          "internalType": "uint256",
          "name": "id",
          "type": "uint256"
        },
        {
          "internalType": "uint256",
          "name": "idProduit",
          "type": "uint256"
        },
        {
          "internalType": "uint256",
          "name": "quantite",
          "type": "uint256"
        },
        {
          "internalType": "uint256",
          "name": "prix",
          "type": "uint256"
        },
        {
          "internalType": "bool",
          "name": "payer",
          "type": "bool"
        },
        {
          "internalType": "enum CollecteurExportateurContrat.StatutTransport",
          "name": "statutTransport",
          "type": "uint8"
        },
        {
          "internalType": "address",
          "name": "exportateur",
          "type": "address"
        }
      ],
      "stateMutability": "view",
      "type": "function"
    },
    {
      "inputs": [],
      "name": "compteurCommandes",
      "outputs": [
        {
          "internalType": "uint256",
          "name": "",
          "type": "uint256"
        }
      ],
      "stateMutability": "view",
      "type": "function"
    },
    {
      "inputs": [],
      "name": "compteurConditions",
      "outputs": [
        {
          "internalType": "uint256",
          "name": "",
          "type": "uint256"
        }
      ],
      "stateMutability": "view",
      "type": "function"
    },
    {
      "inputs": [],
      "name": "compteurPaiements",
      "outputs": [
        {
          "internalType": "uint256",
          "name": "",
          "type": "uint256"
        }
      ],
      "stateMutability": "view",
      "type": "function"
    },
    {
      "inputs": [],
      "name": "compteurProduits",
      "outputs": [
        {
          "internalType": "uint256",
          "name": "",
          "type": "uint256"
        }
      ],
      "stateMutability": "view",
      "type": "function"
    },
    {
      "inputs": [
        {
          "internalType": "uint256",
          "name": "",
          "type": "uint256"
        }
      ],
      "name": "conditions",
      "outputs": [
        {
          "internalType": "uint256",
          "name": "id",
          "type": "uint256"
        },
        {
          "internalType": "string",
          "name": "temperature",
          "type": "string"
        },
        {
          "internalType": "string",
          "name": "humidite",
          "type": "string"
        },
        {
          "internalType": "uint256",
          "name": "timestamp",
          "type": "uint256"
        }
      ],
      "stateMutability": "view",
      "type": "function"
    },
    {
      "inputs": [
        {
          "internalType": "uint256",
          "name": "_idCommande",
          "type": "uint256"
        },
        {
          "internalType": "uint256",
          "name": "_montant",
          "type": "uint256"
        },
        {
          "internalType": "enum CollecteurExportateurContrat.ModePaiement",
          "name": "_mode",
          "type": "uint8"
        }
      ],
      "name": "effectuerPaiement",
      "outputs": [],
      "stateMutability": "payable",
      "type": "function"
    },
    {
      "inputs": [
        {
          "internalType": "uint256",
          "name": "_idProduit",
          "type": "uint256"
        },
        {
          "internalType": "string",
          "name": "_temperature",
          "type": "string"
        },
        {
          "internalType": "string",
          "name": "_humidite",
          "type": "string"
        }
      ],
      "name": "enregistrerCondition",
      "outputs": [],
      "stateMutability": "nonpayable",
      "type": "function"
    },
    {
      "inputs": [
        {
          "internalType": "address",
          "name": "addr",
          "type": "address"
        }
      ],
      "name": "getActeur",
      "outputs": [
        {
          "components": [
            {
              "internalType": "address",
              "name": "addr",
              "type": "address"
            },
            {
              "internalType": "enum ProducteurEnPhaseCulture.Role",
              "name": "role",
              "type": "uint8"
            }
          ],
          "internalType": "struct ProducteurEnPhaseCulture.Acteur",
          "name": "",
          "type": "tuple"
        }
      ],
      "stateMutability": "view",
      "type": "function"
    },
    {
      "inputs": [
        {
          "internalType": "uint256",
          "name": "id",
          "type": "uint256"
        }
      ],
      "name": "getCommande",
      "outputs": [
        {
          "components": [
            {
              "internalType": "uint256",
              "name": "id",
              "type": "uint256"
            },
            {
              "internalType": "uint256",
              "name": "idProduit",
              "type": "uint256"
            },
            {
              "internalType": "uint256",
              "name": "quantite",
              "type": "uint256"
            },
            {
              "internalType": "uint256",
              "name": "prix",
              "type": "uint256"
            },
            {
              "internalType": "bool",
              "name": "payer",
              "type": "bool"
            },
            {
              "internalType": "enum CollecteurExportateurContrat.StatutTransport",
              "name": "statutTransport",
              "type": "uint8"
            },
            {
              "internalType": "address",
              "name": "exportateur",
              "type": "address"
            }
          ],
          "internalType": "struct CollecteurExportateurContrat.Commande",
          "name": "",
          "type": "tuple"
        }
      ],
      "stateMutability": "view",
      "type": "function"
    },
    {
      "inputs": [],
      "name": "getCompteurCommande",
      "outputs": [
        {
          "internalType": "uint256",
          "name": "",
          "type": "uint256"
        }
      ],
      "stateMutability": "view",
      "type": "function"
    },
    {
      "inputs": [],
      "name": "getCompteurCondition",
      "outputs": [
        {
          "internalType": "uint256",
          "name": "",
          "type": "uint256"
        }
      ],
      "stateMutability": "view",
      "type": "function"
    },
    {
      "inputs": [],
      "name": "getCompteurPaiement",
      "outputs": [
        {
          "internalType": "uint256",
          "name": "",
          "type": "uint256"
        }
      ],
      "stateMutability": "view",
      "type": "function"
    },
    {
      "inputs": [],
      "name": "getCompteurProduit",
      "outputs": [
        {
          "internalType": "uint256",
          "name": "",
          "type": "uint256"
        }
      ],
      "stateMutability": "view",
      "type": "function"
    },
    {
      "inputs": [
        {
          "internalType": "uint256",
          "name": "id",
          "type": "uint256"
        }
      ],
      "name": "getCondition",
      "outputs": [
        {
          "components": [
            {
              "internalType": "uint256",
              "name": "id",
              "type": "uint256"
            },
            {
              "internalType": "string",
              "name": "temperature",
              "type": "string"
            },
            {
              "internalType": "string",
              "name": "humidite",
              "type": "string"
            },
            {
              "internalType": "uint256",
              "name": "timestamp",
              "type": "uint256"
            }
          ],
          "internalType": "struct CollecteurExportateurContrat.EnregistrementCondition",
          "name": "",
          "type": "tuple"
        }
      ],
      "stateMutability": "view",
      "type": "function"
    },
    {
      "inputs": [
        {
          "internalType": "uint256",
          "name": "id",
          "type": "uint256"
        }
      ],
      "name": "getPaiement",
      "outputs": [
        {
          "components": [
            {
              "internalType": "uint256",
              "name": "id",
              "type": "uint256"
            },
            {
              "internalType": "address",
              "name": "payeur",
              "type": "address"
            },
            {
              "internalType": "uint256",
              "name": "montant",
              "type": "uint256"
            },
            {
              "internalType": "enum CollecteurExportateurContrat.ModePaiement",
              "name": "mode",
              "type": "uint8"
            },
            {
              "internalType": "uint256",
              "name": "timestamp",
              "type": "uint256"
            }
          ],
          "internalType": "struct CollecteurExportateurContrat.Paiement",
          "name": "",
          "type": "tuple"
        }
      ],
      "stateMutability": "view",
      "type": "function"
    },
    {
      "inputs": [
        {
          "internalType": "uint256",
          "name": "id",
          "type": "uint256"
        }
      ],
      "name": "getProduit",
      "outputs": [
        {
          "components": [
            {
              "internalType": "uint256",
              "name": "id",
              "type": "uint256"
            },
            {
              "internalType": "string",
              "name": "nom",
              "type": "string"
            },
            {
              "internalType": "uint256",
              "name": "quantite",
              "type": "uint256"
            },
            {
              "internalType": "uint256",
              "name": "prix",
              "type": "uint256"
            },
            {
              "internalType": "enum CollecteurExportateurContrat.StatutProduit",
              "name": "statut",
              "type": "uint8"
            },
            {
              "internalType": "uint256",
              "name": "idParcelle",
              "type": "uint256"
            },
            {
              "internalType": "string",
              "name": "dateRecolte",
              "type": "string"
            },
            {
              "internalType": "string",
              "name": "certificatPhytosanitaire",
              "type": "string"
            },
            {
              "internalType": "address",
              "name": "collecteur",
              "type": "address"
            }
          ],
          "internalType": "struct CollecteurExportateurContrat.Produit",
          "name": "",
          "type": "tuple"
        }
      ],
      "stateMutability": "view",
      "type": "function"
    },
    {
      "inputs": [
        {
          "internalType": "uint256",
          "name": "_idCommande",
          "type": "uint256"
        },
        {
          "internalType": "enum CollecteurExportateurContrat.StatutTransport",
          "name": "_statut",
          "type": "uint8"
        }
      ],
      "name": "mettreAJourStatutTransport",
      "outputs": [],
      "stateMutability": "nonpayable",
      "type": "function"
    },
    {
      "inputs": [
        {
          "internalType": "uint256",
          "name": "",
          "type": "uint256"
        }
      ],
      "name": "paiements",
      "outputs": [
        {
          "internalType": "uint256",
          "name": "id",
          "type": "uint256"
        },
        {
          "internalType": "address",
          "name": "payeur",
          "type": "address"
        },
        {
          "internalType": "uint256",
          "name": "montant",
          "type": "uint256"
        },
        {
          "internalType": "enum CollecteurExportateurContrat.ModePaiement",
          "name": "mode",
          "type": "uint8"
        },
        {
          "internalType": "uint256",
          "name": "timestamp",
          "type": "uint256"
        }
      ],
      "stateMutability": "view",
      "type": "function"
    },
    {
      "inputs": [
        {
          "internalType": "uint256",
          "name": "idProduit",
          "type": "uint256"
        },
        {
          "internalType": "uint256",
          "name": "_quantite",
          "type": "uint256"
        }
      ],
      "name": "passerCommande",
      "outputs": [],
      "stateMutability": "nonpayable",
      "type": "function"
    },
    {
      "inputs": [],
      "name": "producteurEnPhaseCulture",
      "outputs": [
        {
          "internalType": "contract ProducteurEnPhaseCulture",
          "name": "",
          "type": "address"
        }
      ],
      "stateMutability": "view",
      "type": "function"
    },
    {
      "inputs": [
        {
          "internalType": "uint256",
          "name": "",
          "type": "uint256"
        }
      ],
      "name": "produits",
      "outputs": [
        {
          "internalType": "uint256",
          "name": "id",
          "type": "uint256"
        },
        {
          "internalType": "string",
          "name": "nom",
          "type": "string"
        },
        {
          "internalType": "uint256",
          "name": "quantite",
          "type": "uint256"
        },
        {
          "internalType": "uint256",
          "name": "prix",
          "type": "uint256"
        },
        {
          "internalType": "enum CollecteurExportateurContrat.StatutProduit",
          "name": "statut",
          "type": "uint8"
        },
        {
          "internalType": "uint256",
          "name": "idParcelle",
          "type": "uint256"
        },
        {
          "internalType": "string",
          "name": "dateRecolte",
          "type": "string"
        },
        {
          "internalType": "string",
          "name": "certificatPhytosanitaire",
          "type": "string"
        },
        {
          "internalType": "address",
          "name": "collecteur",
          "type": "address"
        }
      ],
      "stateMutability": "view",
      "type": "function"
    },
    {
      "inputs": [
        {
          "internalType": "address",
          "name": "_addr",
          "type": "address"
        }
      ],
      "name": "setProducteurEnPhaseCulture",
      "outputs": [],
      "stateMutability": "nonpayable",
      "type": "function"
    },
    {
      "inputs": [
        {
          "internalType": "uint256",
          "name": "_idProduit",
          "type": "uint256"
        },
        {
          "internalType": "bool",
          "name": "_valide",
          "type": "bool"
        }
      ],
      "name": "validerProduit",
      "outputs": [],
      "stateMutability": "nonpayable",
      "type": "function"
    },
    {
      "stateMutability": "payable",
      "type": "receive"
    }
  ],
  "bytecode": "0x60806040523480156200001157600080fd5b50604051620042f4380380620042f4833981810160405281019062000037919062000096565b80600860006101000a81548173ffffffffffffffffffffffffffffffffffffffff021916908373ffffffffffffffffffffffffffffffffffffffff1602179055505062000110565b6000815190506200009081620000f6565b92915050565b600060208284031215620000a957600080fd5b6000620000b9848285016200007f565b91505092915050565b6000620000cf82620000d6565b9050919050565b600073ffffffffffffffffffffffffffffffffffffffff82169050919050565b6200010181620000c2565b81146200010d57600080fd5b50565b6141d480620001206000396000f3fe60806040526004361061016a5760003560e01c806391e5954c116100d1578063cf4d6a6a1161008a578063fdccf43311610064578063fdccf4331461056e578063fe32398a14610599578063fe71496b146105d6578063ffd826d3146105ff57610171565b8063cf4d6a6a146104dd578063d305dc351461051a578063edd131631461054357610171565b806391e5954c146103a357806393c2f9b4146103e45780639ca262141461040f578063bb95f3b91461044c578063c889bc6714610475578063cd3df1ed146104b257610171565b8063488dee2011610123578063488dee201461027557806350346b0b146102a057806362ca1128146102cb578063687112e2146103105780637bf212f81461033b5780638777654f1461037857610171565b8063011970181461017357806302dccbc41461019e57806315e20529146101c7578063257687e6146101e357806326c500071461020c578063487396f21461024c57610171565b3661017157005b005b34801561017f57600080fd5b50610188610642565b6040516101959190613b1c565b60405180910390f35b3480156101aa57600080fd5b506101c560048036038101906101c091906130bc565b61064c565b005b6101e160048036038101906101dc91906131ef565b610990565b005b3480156101ef57600080fd5b5061020a60048036038101906102059190612efb565b611191565b005b34801561021857600080fd5b50610233600480360381019061022e9190613093565b6111d5565b6040516102439493929190613bcf565b60405180910390f35b34801561025857600080fd5b50610273600480360381019061026e9190613134565b611315565b005b34801561028157600080fd5b5061028a611559565b6040516102979190613b1c565b60405180910390f35b3480156102ac57600080fd5b506102b561155f565b6040516102c291906138db565b60405180910390f35b3480156102d757600080fd5b506102f260048036038101906102ed9190613093565b611585565b60405161030799989796959493929190613c22565b60405180910390f35b34801561031c57600080fd5b50610325611798565b6040516103329190613b1c565b60405180910390f35b34801561034757600080fd5b50610362600480360381019061035d9190613093565b61179e565b60405161036f9190613abd565b60405180910390f35b34801561038457600080fd5b5061038d611903565b60405161039a9190613b1c565b60405180910390f35b3480156103af57600080fd5b506103ca60048036038101906103c59190613093565b61190d565b6040516103db959493929190613b7c565b60405180910390f35b3480156103f057600080fd5b506103f9611970565b6040516104069190613b1c565b60405180910390f35b34801561041b57600080fd5b5061043660048036038101906104319190613093565b61197a565b6040516104439190613afa565b60405180910390f35b34801561045857600080fd5b50610473600480360381019061046e91906130f8565b611c62565b005b34801561048157600080fd5b5061049c60048036038101906104979190613093565b611e62565b6040516104a99190613adf565b60405180910390f35b3480156104be57600080fd5b506104c7611f8a565b6040516104d49190613b1c565b60405180910390f35b3480156104e957600080fd5b5061050460048036038101906104ff9190613093565b611f90565b6040516105119190613aa2565b60405180910390f35b34801561052657600080fd5b50610541600480360381019061053c91906131b3565b6120dd565b005b34801561054f57600080fd5b506105586124e8565b6040516105659190613b1c565b60405180910390f35b34801561057a57600080fd5b506105836124ee565b6040516105909190613b1c565b60405180910390f35b3480156105a557600080fd5b506105c060048036038101906105bb9190612efb565b6124f8565b6040516105cd9190613a87565b60405180910390f35b3480156105e257600080fd5b506105fd60048036038101906105f8919061323e565b6125b1565b005b34801561060b57600080fd5b5061062660048036038101906106219190613093565b6129f9565b6040516106399796959493929190613cc4565b60405180910390f35b6000600554905090565b600680811115610685577f4e487b7100000000000000000000000000000000000000000000000000000000600052602160045260246000fd5b600860009054906101000a900473ffffffffffffffffffffffffffffffffffffffff1673ffffffffffffffffffffffffffffffffffffffff1663fe32398a336040518263ffffffff1660e01b81526004016106e091906138a5565b604080518083038186803b1580156106f757600080fd5b505afa15801561070b573d6000803e3d6000fd5b505050506040513d601f19601f8201168201806040525081019061072f919061306a565b60200151600681111561076b577f4e487b7100000000000000000000000000000000000000000000000000000000600052602160045260246000fd5b146107ab576040517f08c379a00000000000000000000000000000000000000000000000000000000081526004016107a290613a47565b60405180910390fd5b600060028111156107e5577f4e487b7100000000000000000000000000000000000000000000000000000000600052602160045260246000fd5b60008084815260200190815260200160002060040160009054906101000a900460ff166002811115610840577f4e487b7100000000000000000000000000000000000000000000000000000000600052602160045260246000fd5b14610880576040517f08c379a0000000000000000000000000000000000000000000000000000000008152600401610877906139a7565b60405180910390fd5b80156108ef57600160008084815260200190815260200160002060040160006101000a81548160ff021916908360028111156108e5577f4e487b7100000000000000000000000000000000000000000000000000000000600052602160045260246000fd5b0217905550610954565b600260008084815260200190815260200160002060040160006101000a81548160ff0219169083600281111561094e577f4e487b7100000000000000000000000000000000000000000000000000000000600052602160045260246000fd5b02179055505b817f40b060b3f7b6252dbdc35ea1e381d20a283b1e1a996cd701bde7b75ec12568f58260405161098491906138c0565b60405180910390a25050565b6006808111156109c9577f4e487b7100000000000000000000000000000000000000000000000000000000600052602160045260246000fd5b600860009054906101000a900473ffffffffffffffffffffffffffffffffffffffff1673ffffffffffffffffffffffffffffffffffffffff1663fe32398a336040518263ffffffff1660e01b8152600401610a2491906138a5565b604080518083038186803b158015610a3b57600080fd5b505afa158015610a4f573d6000803e3d6000fd5b505050506040513d601f19601f82011682018060405250810190610a73919061306a565b602001516006811115610aaf577f4e487b7100000000000000000000000000000000000000000000000000000000600052602160045260246000fd5b14610aef576040517f08c379a0000000000000000000000000000000000000000000000000000000008152600401610ae690613a47565b60405180910390fd5b6000806000600360008781526020019081526020016000206001015481526020019081526020016000206040518061012001604052908160008201548152602001600182018054610b3f90613f91565b80601f0160208091040260200160405190810160405280929190818152602001828054610b6b90613f91565b8015610bb85780601f10610b8d57610100808354040283529160200191610bb8565b820191906000526020600020905b815481529060010190602001808311610b9b57829003601f168201915b5050505050815260200160028201548152602001600382015481526020016004820160009054906101000a900460ff166002811115610c20577f4e487b7100000000000000000000000000000000000000000000000000000000600052602160045260246000fd5b6002811115610c58577f4e487b7100000000000000000000000000000000000000000000000000000000600052602160045260246000fd5b815260200160058201548152602001600682018054610c7690613f91565b80601f0160208091040260200160405190810160405280929190818152602001828054610ca290613f91565b8015610cef5780601f10610cc457610100808354040283529160200191610cef565b820191906000526020600020905b815481529060010190602001808311610cd257829003601f168201915b50505050508152602001600782018054610d0890613f91565b80601f0160208091040260200160405190810160405280929190818152602001828054610d3490613f91565b8015610d815780601f10610d5657610100808354040283529160200191610d81565b820191906000526020600020905b815481529060010190602001808311610d6457829003601f168201915b505050505081526020016008820160009054906101000a900473ffffffffffffffffffffffffffffffffffffffff1673ffffffffffffffffffffffffffffffffffffffff1673ffffffffffffffffffffffffffffffffffffffff1681525050905060016002811115610e1c577f4e487b7100000000000000000000000000000000000000000000000000000000600052602160045260246000fd5b81608001516002811115610e59577f4e487b7100000000000000000000000000000000000000000000000000000000600052602160045260246000fd5b14610e99576040517f08c379a0000000000000000000000000000000000000000000000000000000008152600401610e90906139e7565b60405180910390fd5b60036000858152602001908152602001600020600201548160600151610ebf9190613dc1565b3414610f00576040517f08c379a0000000000000000000000000000000000000000000000000000000008152600401610ef790613987565b60405180910390fd5b6003600085815260200190815260200160002060040160009054906101000a900460ff1615610f64576040517f08c379a0000000000000000000000000000000000000000000000000000000008152600401610f5b906139c7565b60405180910390fd5b60016003600086815260200190815260200160002060040160006101000a81548160ff02191690831515021790555060076000815480929190610fa690613fc3565b91905055506040518060a0016040528060075481526020013373ffffffffffffffffffffffffffffffffffffffff168152602001848152602001836002811115611019577f4e487b7100000000000000000000000000000000000000000000000000000000600052602160045260246000fd5b8152602001428152506002600060075481526020019081526020016000206000820151816000015560208201518160010160006101000a81548173ffffffffffffffffffffffffffffffffffffffff021916908373ffffffffffffffffffffffffffffffffffffffff1602179055506040820151816002015560608201518160030160006101000a81548160ff021916908360028111156110e3577f4e487b7100000000000000000000000000000000000000000000000000000000600052602160045260246000fd5b02179055506080820151816004015590505080600001517f7cd7c5e6b4cabba2bd7f4c36f4a3e25931a4d1130f8745849d9225eacdd394fe6007543386866040516111319493929190613b37565b60405180910390a2600081610100015190508073ffffffffffffffffffffffffffffffffffffffff166108fc349081150290604051600060405180830381858888f19350505050158015611189573d6000803e3d6000fd5b505050505050565b80600860006101000a81548173ffffffffffffffffffffffffffffffffffffffff021916908373ffffffffffffffffffffffffffffffffffffffff16021790555050565b60016020528060005260406000206000915090508060000154908060010180546111fe90613f91565b80601f016020809104026020016040519081016040528092919081815260200182805461122a90613f91565b80156112775780601f1061124c57610100808354040283529160200191611277565b820191906000526020600020905b81548152906001019060200180831161125a57829003601f168201915b50505050509080600201805461128c90613f91565b80601f01602080910402602001604051908101604052809291908181526020018280546112b890613f91565b80156113055780601f106112da57610100808354040283529160200191611305565b820191906000526020600020905b8154815290600101906020018083116112e857829003601f168201915b5050505050908060030154905084565b6005600681111561134f577f4e487b7100000000000000000000000000000000000000000000000000000000600052602160045260246000fd5b600860009054906101000a900473ffffffffffffffffffffffffffffffffffffffff1673ffffffffffffffffffffffffffffffffffffffff1663fe32398a336040518263ffffffff1660e01b81526004016113aa91906138a5565b604080518083038186803b1580156113c157600080fd5b505afa1580156113d5573d6000803e3d6000fd5b505050506040513d601f19601f820116820180604052508101906113f9919061306a565b602001516006811115611435577f4e487b7100000000000000000000000000000000000000000000000000000000600052602160045260246000fd5b14611475576040517f08c379a000000000000000000000000000000000000000000000000000000000815260040161146c90613a67565b60405180910390fd5b6006600081548092919061148890613fc3565b91905055506040518060800160405280600654815260200183815260200182815260200142815250600160008581526020019081526020016000206000820151816000015560208201518160010190805190602001906114e9929190612a75565b506040820151816002019080519060200190611506929190612a75565b5060608201518160030155905050827fa313df723389871f22ba2e986d3ad5724712c38a270e9ec008e6037c670862da60065484844260405161154c9493929190613bcf565b60405180910390a2505050565b60045481565b600860009054906101000a900473ffffffffffffffffffffffffffffffffffffffff1681565b60006020528060005260406000206000915090508060000154908060010180546115ae90613f91565b80601f01602080910402602001604051908101604052809291908181526020018280546115da90613f91565b80156116275780601f106115fc57610100808354040283529160200191611627565b820191906000526020600020905b81548152906001019060200180831161160a57829003601f168201915b5050505050908060020154908060030154908060040160009054906101000a900460ff169080600501549080600601805461166190613f91565b80601f016020809104026020016040519081016040528092919081815260200182805461168d90613f91565b80156116da5780601f106116af576101008083540402835291602001916116da565b820191906000526020600020905b8154815290600101906020018083116116bd57829003601f168201915b5050505050908060070180546116ef90613f91565b80601f016020809104026020016040519081016040528092919081815260200182805461171b90613f91565b80156117685780601f1061173d57610100808354040283529160200191611768565b820191906000526020600020905b81548152906001019060200180831161174b57829003601f168201915b5050505050908060080160009054906101000a900473ffffffffffffffffffffffffffffffffffffffff16905089565b60065481565b6117a6612afb565b60016000838152602001908152602001600020604051806080016040529081600082015481526020016001820180546117de90613f91565b80601f016020809104026020016040519081016040528092919081815260200182805461180a90613f91565b80156118575780601f1061182c57610100808354040283529160200191611857565b820191906000526020600020905b81548152906001019060200180831161183a57829003601f168201915b5050505050815260200160028201805461187090613f91565b80601f016020809104026020016040519081016040528092919081815260200182805461189c90613f91565b80156118e95780601f106118be576101008083540402835291602001916118e9565b820191906000526020600020905b8154815290600101906020018083116118cc57829003601f168201915b505050505081526020016003820154815250509050919050565b6000600454905090565b60026020528060005260406000206000915090508060000154908060010160009054906101000a900473ffffffffffffffffffffffffffffffffffffffff16908060020154908060030160009054906101000a900460ff16908060040154905085565b6000600654905090565b611982612b23565b60008083815260200190815260200160002060405180610120016040529081600082015481526020016001820180546119ba90613f91565b80601f01602080910402602001604051908101604052809291908181526020018280546119e690613f91565b8015611a335780601f10611a0857610100808354040283529160200191611a33565b820191906000526020600020905b815481529060010190602001808311611a1657829003601f168201915b5050505050815260200160028201548152602001600382015481526020016004820160009054906101000a900460ff166002811115611a9b577f4e487b7100000000000000000000000000000000000000000000000000000000600052602160045260246000fd5b6002811115611ad3577f4e487b7100000000000000000000000000000000000000000000000000000000600052602160045260246000fd5b815260200160058201548152602001600682018054611af190613f91565b80601f0160208091040260200160405190810160405280929190818152602001828054611b1d90613f91565b8015611b6a5780601f10611b3f57610100808354040283529160200191611b6a565b820191906000526020600020905b815481529060010190602001808311611b4d57829003601f168201915b50505050508152602001600782018054611b8390613f91565b80601f0160208091040260200160405190810160405280929190818152602001828054611baf90613f91565b8015611bfc5780601f10611bd157610100808354040283529160200191611bfc565b820191906000526020600020905b815481529060010190602001808311611bdf57829003601f168201915b505050505081526020016008820160009054906101000a900473ffffffffffffffffffffffffffffffffffffffff1673ffffffffffffffffffffffffffffffffffffffff1673ffffffffffffffffffffffffffffffffffffffff16815250509050919050565b60056006811115611c9c577f4e487b7100000000000000000000000000000000000000000000000000000000600052602160045260246000fd5b600860009054906101000a900473ffffffffffffffffffffffffffffffffffffffff1673ffffffffffffffffffffffffffffffffffffffff1663fe32398a336040518263ffffffff1660e01b8152600401611cf791906138a5565b604080518083038186803b158015611d0e57600080fd5b505afa158015611d22573d6000803e3d6000fd5b505050506040513d601f19601f82011682018060405250810190611d46919061306a565b602001516006811115611d82577f4e487b7100000000000000000000000000000000000000000000000000000000600052602160045260246000fd5b14611dc2576040517f08c379a0000000000000000000000000000000000000000000000000000000008152600401611db990613a67565b60405180910390fd5b806003600084815260200190815260200160002060040160016101000a81548160ff02191690836001811115611e21577f4e487b7100000000000000000000000000000000000000000000000000000000600052602160045260246000fd5b0217905550817f26ac1a75b14d22a4bdc3531ce4b57293ccf9243488885dce5ceb2ebf2d24f93782604051611e5691906138f6565b60405180910390a25050565b611e6a612bbd565b600260008381526020019081526020016000206040518060a0016040529081600082015481526020016001820160009054906101000a900473ffffffffffffffffffffffffffffffffffffffff1673ffffffffffffffffffffffffffffffffffffffff1673ffffffffffffffffffffffffffffffffffffffff168152602001600282015481526020016003820160009054906101000a900460ff166002811115611f3d577f4e487b7100000000000000000000000000000000000000000000000000000000600052602160045260246000fd5b6002811115611f75577f4e487b7100000000000000000000000000000000000000000000000000000000600052602160045260246000fd5b81526020016004820154815250509050919050565b60075481565b611f98612c3a565b600360008381526020019081526020016000206040518060e0016040529081600082015481526020016001820154815260200160028201548152602001600382015481526020016004820160009054906101000a900460ff161515151581526020016004820160019054906101000a900460ff166001811115612044577f4e487b7100000000000000000000000000000000000000000000000000000000600052602160045260246000fd5b600181111561207c577f4e487b7100000000000000000000000000000000000000000000000000000000600052602160045260246000fd5b81526020016004820160029054906101000a900473ffffffffffffffffffffffffffffffffffffffff1673ffffffffffffffffffffffffffffffffffffffff1673ffffffffffffffffffffffffffffffffffffffff16815250509050919050565b600680811115612116577f4e487b7100000000000000000000000000000000000000000000000000000000600052602160045260246000fd5b600860009054906101000a900473ffffffffffffffffffffffffffffffffffffffff1673ffffffffffffffffffffffffffffffffffffffff1663fe32398a336040518263ffffffff1660e01b815260040161217191906138a5565b604080518083038186803b15801561218857600080fd5b505afa15801561219c573d6000803e3d6000fd5b505050506040513d601f19601f820116820180604052508101906121c0919061306a565b6020015160068111156121fc577f4e487b7100000000000000000000000000000000000000000000000000000000600052602160045260246000fd5b1461223c576040517f08c379a000000000000000000000000000000000000000000000000000000000815260040161223390613a47565b60405180910390fd5b60008083815260200190815260200160002060020154811115612294576040517f08c379a000000000000000000000000000000000000000000000000000000000815260040161228b90613a07565b60405180910390fd5b600080600084815260200190815260200160002060030154826122b79190613dc1565b9050600082600080868152602001908152602001600020600201546122dc9190613e1b565b905080600080868152602001908152602001600020600201819055506004600081548092919061230b90613fc3565b91905055506040518060e00160405280600454815260200185815260200184815260200183815260200160001515815260200160006001811115612378577f4e487b7100000000000000000000000000000000000000000000000000000000600052602160045260246000fd5b81526020013373ffffffffffffffffffffffffffffffffffffffff168152506003600060045481526020019081526020016000206000820151816000015560208201518160010155604082015181600201556060820151816003015560808201518160040160006101000a81548160ff02191690831515021790555060a08201518160040160016101000a81548160ff02191690836001811115612445577f4e487b7100000000000000000000000000000000000000000000000000000000600052602160045260246000fd5b021790555060c08201518160040160026101000a81548173ffffffffffffffffffffffffffffffffffffffff021916908373ffffffffffffffffffffffffffffffffffffffff1602179055509050503373ffffffffffffffffffffffffffffffffffffffff167fac67b1d913a02769b0d5b5c09600fcf53ccca6745557622305af0da92152d05a856040516124da9190613b1c565b60405180910390a250505050565b60055481565b6000600754905090565b612500612cc7565b600860009054906101000a900473ffffffffffffffffffffffffffffffffffffffff1673ffffffffffffffffffffffffffffffffffffffff1663fe32398a836040518263ffffffff1660e01b815260040161255b91906138a5565b604080518083038186803b15801561257257600080fd5b505afa158015612586573d6000803e3d6000fd5b505050506040513d601f19601f820116820180604052508101906125aa919061306a565b9050919050565b600360068111156125eb577f4e487b7100000000000000000000000000000000000000000000000000000000600052602160045260246000fd5b600860009054906101000a900473ffffffffffffffffffffffffffffffffffffffff1673ffffffffffffffffffffffffffffffffffffffff1663fe32398a336040518263ffffffff1660e01b815260040161264691906138a5565b604080518083038186803b15801561265d57600080fd5b505afa158015612671573d6000803e3d6000fd5b505050506040513d601f19601f82011682018060405250810190612695919061306a565b6020015160068111156126d1577f4e487b7100000000000000000000000000000000000000000000000000000000600052602160045260246000fd5b14612711576040517f08c379a000000000000000000000000000000000000000000000000000000000815260040161270890613a27565b60405180910390fd5b6000806000600860009054906101000a900473ffffffffffffffffffffffffffffffffffffffff1673ffffffffffffffffffffffffffffffffffffffff16637f645273876040518263ffffffff1660e01b81526004016127719190613b1c565b60006040518083038186803b15801561278957600080fd5b505afa15801561279d573d6000803e3d6000fd5b505050506040513d6000823e3d601f19601f820116820180604052508101906127c69190612f24565b96509650965050505050600560008154809291906127e390613fc3565b9190505550604051806101200160405280600554815260200184815260200186815260200185815260200160006002811115612848577f4e487b7100000000000000000000000000000000000000000000000000000000600052602160045260246000fd5b81526020018781526020018381526020018281526020013373ffffffffffffffffffffffffffffffffffffffff1681525060008060055481526020019081526020016000206000820151816000015560208201518160010190805190602001906128b3929190612a75565b50604082015181600201556060820151816003015560808201518160040160006101000a81548160ff02191690836002811115612919577f4e487b7100000000000000000000000000000000000000000000000000000000600052602160045260246000fd5b021790555060a0820151816005015560c0820151816006019080519060200190612944929190612a75565b5060e0820151816007019080519060200190612961929190612a75565b506101008201518160080160006101000a81548173ffffffffffffffffffffffffffffffffffffffff021916908373ffffffffffffffffffffffffffffffffffffffff1602179055509050506005547ff66885504dddadc35efd9cd98df3190adb9b2b9c7537390767c4ee806f4c0bbf8487878a87876040516129e996959493929190613911565b60405180910390a2505050505050565b60036020528060005260406000206000915090508060000154908060010154908060020154908060030154908060040160009054906101000a900460ff16908060040160019054906101000a900460ff16908060040160029054906101000a900473ffffffffffffffffffffffffffffffffffffffff16905087565b828054612a8190613f91565b90600052602060002090601f016020900481019282612aa35760008555612aea565b82601f10612abc57805160ff1916838001178555612aea565b82800160010185558215612aea579182015b82811115612ae9578251825591602001919060010190612ace565b5b509050612af79190612d2f565b5090565b6040518060800160405280600081526020016060815260200160608152602001600081525090565b6040518061012001604052806000815260200160608152602001600081526020016000815260200160006002811115612b85577f4e487b7100000000000000000000000000000000000000000000000000000000600052602160045260246000fd5b8152602001600081526020016060815260200160608152602001600073ffffffffffffffffffffffffffffffffffffffff1681525090565b6040518060a0016040528060008152602001600073ffffffffffffffffffffffffffffffffffffffff1681526020016000815260200160006002811115612c2d577f4e487b7100000000000000000000000000000000000000000000000000000000600052602160045260246000fd5b8152602001600081525090565b6040518060e001604052806000815260200160008152602001600081526020016000815260200160001515815260200160006001811115612ca4577f4e487b7100000000000000000000000000000000000000000000000000000000600052602160045260246000fd5b8152602001600073ffffffffffffffffffffffffffffffffffffffff1681525090565b6040518060400160405280600073ffffffffffffffffffffffffffffffffffffffff16815260200160006006811115612d29577f4e487b7100000000000000000000000000000000000000000000000000000000600052602160045260246000fd5b81525090565b5b80821115612d48576000816000905550600101612d30565b5090565b6000612d5f612d5a84613d64565b613d33565b905082815260208101848484011115612d7757600080fd5b612d82848285613f4f565b509392505050565b6000612d9d612d9884613d64565b613d33565b905082815260208101848484011115612db557600080fd5b612dc0848285613f5e565b509392505050565b600081359050612dd781614129565b92915050565b600081519050612dec81614129565b92915050565b600081359050612e0181614140565b92915050565b600081359050612e1681614157565b92915050565b600081519050612e2b81614167565b92915050565b600081359050612e4081614177565b92915050565b600082601f830112612e5757600080fd5b8135612e67848260208601612d4c565b91505092915050565b600082601f830112612e8157600080fd5b8151612e91848260208601612d8a565b91505092915050565b600060408284031215612eac57600080fd5b612eb66040613d33565b90506000612ec684828501612ddd565b6000830152506020612eda84828501612e1c565b60208301525092915050565b600081359050612ef581614187565b92915050565b600060208284031215612f0d57600080fd5b6000612f1b84828501612dc8565b91505092915050565b600080600080600080600060e0888a031215612f3f57600080fd5b600088015167ffffffffffffffff811115612f5957600080fd5b612f658a828b01612e70565b975050602088015167ffffffffffffffff811115612f8257600080fd5b612f8e8a828b01612e70565b965050604088015167ffffffffffffffff811115612fab57600080fd5b612fb78a828b01612e70565b955050606088015167ffffffffffffffff811115612fd457600080fd5b612fe08a828b01612e70565b945050608088015167ffffffffffffffff811115612ffd57600080fd5b6130098a828b01612e70565b93505060a088015167ffffffffffffffff81111561302657600080fd5b6130328a828b01612e70565b92505060c088015167ffffffffffffffff81111561304f57600080fd5b61305b8a828b01612e70565b91505092959891949750929550565b60006040828403121561307c57600080fd5b600061308a84828501612e9a565b91505092915050565b6000602082840312156130a557600080fd5b60006130b384828501612ee6565b91505092915050565b600080604083850312156130cf57600080fd5b60006130dd85828601612ee6565b92505060206130ee85828601612df2565b9150509250929050565b6000806040838503121561310b57600080fd5b600061311985828601612ee6565b925050602061312a85828601612e31565b9150509250929050565b60008060006060848603121561314957600080fd5b600061315786828701612ee6565b935050602084013567ffffffffffffffff81111561317457600080fd5b61318086828701612e46565b925050604084013567ffffffffffffffff81111561319d57600080fd5b6131a986828701612e46565b9150509250925092565b600080604083850312156131c657600080fd5b60006131d485828601612ee6565b92505060206131e585828601612ee6565b9150509250929050565b60008060006060848603121561320457600080fd5b600061321286828701612ee6565b935050602061322386828701612ee6565b925050604061323486828701612e07565b9150509250925092565b60008060006060848603121561325357600080fd5b600061326186828701612ee6565b935050602061327286828701612ee6565b925050604061328386828701612ee6565b9150509250925092565b61329681613e4f565b82525050565b6132a581613e4f565b82525050565b6132b481613e61565b82525050565b6132c381613e61565b82525050565b6132d281613ee3565b82525050565b6132e181613f07565b82525050565b6132f081613f07565b82525050565b6132ff81613f19565b82525050565b61330e81613f2b565b82525050565b61331d81613f2b565b82525050565b61332c81613f3d565b82525050565b61333b81613f3d565b82525050565b600061334c82613d94565b6133568185613d9f565b9350613366818560208601613f5e565b61336f816140c8565b840191505092915050565b600061338582613d94565b61338f8185613db0565b935061339f818560208601613f5e565b6133a8816140c8565b840191505092915050565b60006133c0601183613db0565b91507f4d6f6e74616e7420696e636f72726563740000000000000000000000000000006000830152602082019050919050565b6000613400601383613db0565b91507f50726f647569742064656a6120747261697465000000000000000000000000006000830152602082019050919050565b6000613440601383613db0565b91507f436f6d6d616e64652064656a61207061796572000000000000000000000000006000830152602082019050919050565b6000613480601283613db0565b91507f50726f64756974206e6f6e2076616c69646500000000000000000000000000006000830152602082019050919050565b60006134c0601183613db0565b91507f5175616e7469746520696e76616c6964650000000000000000000000000000006000830152602082019050919050565b6000613500602283613db0565b91507f4e6f6e206175746f726973653a207365756c656d656e7420436f6c6c6563746560008301527f75720000000000000000000000000000000000000000000000000000000000006020830152604082019050919050565b6000613566602383613db0565b91507f4e6f6e206175746f726973653a207365756c656d656e74204578706f7274617460008301527f65757200000000000000000000000000000000000000000000000000000000006020830152604082019050919050565b60006135cc602483613db0565b91507f4e6f6e206175746f726973653a207365756c656d656e74205472616e73706f7260008301527f74657572000000000000000000000000000000000000000000000000000000006020830152604082019050919050565b60408201600082015161363b600085018261328d565b50602082015161364e60208501826132f6565b50505050565b60e08201600082015161366a6000850182613887565b50602082015161367d6020850182613887565b5060408201516136906040850182613887565b5060608201516136a36060850182613887565b5060808201516136b660808501826132ab565b5060a08201516136c960a0850182613323565b5060c08201516136dc60c085018261328d565b50505050565b60006080830160008301516136fa6000860182613887565b50602083015184820360208601526137128282613341565b9150506040830151848203604086015261372c8282613341565b91505060608301516137416060860182613887565b508091505092915050565b60a0820160008201516137626000850182613887565b506020820151613775602085018261328d565b5060408201516137886040850182613887565b50606082015161379b60608501826132d8565b5060808201516137ae6080850182613887565b50505050565b6000610120830160008301516137cd6000860182613887565b50602083015184820360208601526137e58282613341565b91505060408301516137fa6040860182613887565b50606083015161380d6060860182613887565b5060808301516138206080860182613305565b5060a083015161383360a0860182613887565b5060c083015184820360c086015261384b8282613341565b91505060e083015184820360e08601526138658282613341565b91505061010083015161387c61010086018261328d565b508091505092915050565b61389081613ed9565b82525050565b61389f81613ed9565b82525050565b60006020820190506138ba600083018461329c565b92915050565b60006020820190506138d560008301846132ba565b92915050565b60006020820190506138f060008301846132c9565b92915050565b600060208201905061390b6000830184613332565b92915050565b600060c082019050818103600083015261392b818961337a565b905061393a6020830188613896565b6139476040830187613896565b6139546060830186613896565b8181036080830152613966818561337a565b905081810360a083015261397a818461337a565b9050979650505050505050565b600060208201905081810360008301526139a0816133b3565b9050919050565b600060208201905081810360008301526139c0816133f3565b9050919050565b600060208201905081810360008301526139e081613433565b9050919050565b60006020820190508181036000830152613a0081613473565b9050919050565b60006020820190508181036000830152613a20816134b3565b9050919050565b60006020820190508181036000830152613a40816134f3565b9050919050565b60006020820190508181036000830152613a6081613559565b9050919050565b60006020820190508181036000830152613a80816135bf565b9050919050565b6000604082019050613a9c6000830184613625565b92915050565b600060e082019050613ab76000830184613654565b92915050565b60006020820190508181036000830152613ad781846136e2565b905092915050565b600060a082019050613af4600083018461374c565b92915050565b60006020820190508181036000830152613b1481846137b4565b905092915050565b6000602082019050613b316000830184613896565b92915050565b6000608082019050613b4c6000830187613896565b613b59602083018661329c565b613b666040830185613896565b613b7360608301846132e7565b95945050505050565b600060a082019050613b916000830188613896565b613b9e602083018761329c565b613bab6040830186613896565b613bb860608301856132e7565b613bc56080830184613896565b9695505050505050565b6000608082019050613be46000830187613896565b8181036020830152613bf6818661337a565b90508181036040830152613c0a818561337a565b9050613c196060830184613896565b95945050505050565b600061012082019050613c38600083018c613896565b8181036020830152613c4a818b61337a565b9050613c59604083018a613896565b613c666060830189613896565b613c736080830188613314565b613c8060a0830187613896565b81810360c0830152613c92818661337a565b905081810360e0830152613ca6818561337a565b9050613cb661010083018461329c565b9a9950505050505050505050565b600060e082019050613cd9600083018a613896565b613ce66020830189613896565b613cf36040830188613896565b613d006060830187613896565b613d0d60808301866132ba565b613d1a60a0830185613332565b613d2760c083018461329c565b98975050505050505050565b6000604051905081810181811067ffffffffffffffff82111715613d5a57613d59614099565b5b8060405250919050565b600067ffffffffffffffff821115613d7f57613d7e614099565b5b601f19601f8301169050602081019050919050565b600081519050919050565b600082825260208201905092915050565b600082825260208201905092915050565b6000613dcc82613ed9565b9150613dd783613ed9565b9250817fffffffffffffffffffffffffffffffffffffffffffffffffffffffffffffffff0483118215151615613e1057613e0f61400c565b5b828202905092915050565b6000613e2682613ed9565b9150613e3183613ed9565b925082821015613e4457613e4361400c565b5b828203905092915050565b6000613e5a82613eb9565b9050919050565b60008115159050919050565b6000819050613e7b826140d9565b919050565b6000819050613e8e826140ed565b919050565b6000819050613ea182614101565b919050565b6000819050613eb482614115565b919050565b600073ffffffffffffffffffffffffffffffffffffffff82169050919050565b6000819050919050565b6000613eee82613ef5565b9050919050565b6000613f0082613eb9565b9050919050565b6000613f1282613e6d565b9050919050565b6000613f2482613e80565b9050919050565b6000613f3682613e93565b9050919050565b6000613f4882613ea6565b9050919050565b82818337600083830152505050565b60005b83811015613f7c578082015181840152602081019050613f61565b83811115613f8b576000848401525b50505050565b60006002820490506001821680613fa957607f821691505b60208210811415613fbd57613fbc61406a565b5b50919050565b6000613fce82613ed9565b91507fffffffffffffffffffffffffffffffffffffffffffffffffffffffffffffffff8214156140015761400061400c565b5b600182019050919050565b7f4e487b7100000000000000000000000000000000000000000000000000000000600052601160045260246000fd5b7f4e487b7100000000000000000000000000000000000000000000000000000000600052602160045260246000fd5b7f4e487b7100000000000000000000000000000000000000000000000000000000600052602260045260246000fd5b7f4e487b7100000000000000000000000000000000000000000000000000000000600052604160045260246000fd5b6000601f19601f8301169050919050565b600381106140ea576140e961403b565b5b50565b600781106140fe576140fd61403b565b5b50565b600381106141125761411161403b565b5b50565b600281106141265761412561403b565b5b50565b61413281613e4f565b811461413d57600080fd5b50565b61414981613e61565b811461415457600080fd5b50565b6003811061416457600080fd5b50565b6007811061417457600080fd5b50565b6002811061418457600080fd5b50565b61419081613ed9565b811461419b57600080fd5b5056fea2646970667358221220f820c7617594f83a252314d0b0e3026d2042c9c253ae6361cc3c205a30dadfcc64736f6c63430008000033",
  "linkReferences": {},
  "deployedLinkReferences": {}
}