{
  "_format": "hh-sol-artifact-1",
  "contractName": "CollecteurExportateur",
  "sourceName": "contracts/CollecteurExportateur.sol",
  "abi": [
    {
      "anonymous": false,
      "inputs": [
        {
          "indexed": true,
          "internalType": "address",
          "name": "collecteur",
          "type": "address"
        },
        {
          "indexed": false,
          "internalType": "uint32",
          "name": "idLotProduit",
          "type": "uint32"
        },
        {
          "indexed": false,
          "internalType": "uint32",
          "name": "quantite",
          "type": "uint32"
        },
        {
          "indexed": false,
          "internalType": "uint32",
          "name": "prix",
          "type": "uint32"
        }
      ],
      "name": "AjoutLotProduit",
      "type": "event"
    },
    {
      "anonymous": false,
      "inputs": [
        {
          "indexed": true,
          "internalType": "address",
          "name": "exportateur",
          "type": "address"
        },
        {
          "indexed": false,
          "internalType": "uint32",
          "name": "idProduit",
          "type": "uint32"
        }
      ],
      "name": "CommandePasser",
      "type": "event"
    },
    {
      "anonymous": false,
      "inputs": [
        {
          "indexed": true,
          "internalType": "uint32",
          "name": "idProduit",
          "type": "uint32"
        },
        {
          "indexed": false,
          "internalType": "string",
          "name": "cid",
          "type": "string"
        },
        {
          "indexed": false,
          "internalType": "uint256",
          "name": "timestamp",
          "type": "uint256"
        }
      ],
      "name": "ConditionEnregistree",
      "type": "event"
    },
    {
      "anonymous": false,
      "inputs": [
        {
          "indexed": true,
          "internalType": "uint32",
          "name": "idProduit",
          "type": "uint32"
        },
        {
          "indexed": false,
          "internalType": "uint32",
          "name": "idPaiement",
          "type": "uint32"
        },
        {
          "indexed": false,
          "internalType": "address",
          "name": "payeur",
          "type": "address"
        },
        {
          "indexed": false,
          "internalType": "uint32",
          "name": "montant",
          "type": "uint32"
        },
        {
          "indexed": false,
          "internalType": "enum StructLib.ModePaiement",
          "name": "mode",
          "type": "uint8"
        }
      ],
      "name": "PaiementEffectue",
      "type": "event"
    },
    {
      "anonymous": false,
      "inputs": [
        {
          "indexed": true,
          "internalType": "uint32",
          "name": "idProduit",
          "type": "uint32"
        },
        {
          "indexed": false,
          "internalType": "uint32",
          "name": "quantite",
          "type": "uint32"
        },
        {
          "indexed": false,
          "internalType": "uint32",
          "name": "idRecolte",
          "type": "uint32"
        }
      ],
      "name": "ProduitAjoute",
      "type": "event"
    },
    {
      "anonymous": false,
      "inputs": [
        {
          "indexed": true,
          "internalType": "uint32",
          "name": "idProduit",
          "type": "uint32"
        },
        {
          "indexed": false,
          "internalType": "bool",
          "name": "valide",
          "type": "bool"
        }
      ],
      "name": "ProduitValide",
      "type": "event"
    },
    {
      "anonymous": false,
      "inputs": [
        {
          "indexed": true,
          "internalType": "uint32",
          "name": "idCommande",
          "type": "uint32"
        },
        {
          "indexed": false,
          "internalType": "enum StructLib.StatutProduit",
          "name": "status",
          "type": "uint8"
        }
      ],
      "name": "StatusCommandeMisAJour",
      "type": "event"
    },
    {
      "anonymous": false,
      "inputs": [
        {
          "indexed": true,
          "internalType": "uint32",
          "name": "idProduit",
          "type": "uint32"
        },
        {
          "indexed": false,
          "internalType": "enum StructLib.StatutTransport",
          "name": "statut",
          "type": "uint8"
        }
      ],
      "name": "StatutTransportMisAJour",
      "type": "event"
    },
    {
      "stateMutability": "payable",
      "type": "fallback"
    },
    {
      "inputs": [
        {
          "internalType": "uint32[]",
          "name": "_idProduits",
          "type": "uint32[]"
        },
        {
          "internalType": "string",
          "name": "_cid",
          "type": "string"
        },
        {
          "internalType": "uint32",
          "name": "_prix",
          "type": "uint32"
        }
      ],
      "name": "ajouterLotProduit",
      "outputs": [],
      "stateMutability": "nonpayable",
      "type": "function"
    },
    {
      "inputs": [
        {
          "internalType": "uint32",
          "name": "_idCommandeRecolte",
          "type": "uint32"
        },
        {
          "internalType": "uint32",
          "name": "_idRecolte",
          "type": "uint32"
        },
        {
          "internalType": "uint32",
          "name": "_quantite",
          "type": "uint32"
        },
        {
          "internalType": "address",
          "name": "_collecteur",
          "type": "address"
        }
      ],
      "name": "ajouterProduit",
      "outputs": [],
      "stateMutability": "nonpayable",
      "type": "function"
    },
    {
      "inputs": [
        {
          "internalType": "uint32",
          "name": "idCommande",
          "type": "uint32"
        },
        {
          "internalType": "address",
          "name": "transporteur",
          "type": "address"
        }
      ],
      "name": "choisirTransporteurCommandeProduit",
      "outputs": [],
      "stateMutability": "nonpayable",
      "type": "function"
    },
    {
      "inputs": [
        {
          "internalType": "uint32",
          "name": "",
          "type": "uint32"
        }
      ],
      "name": "commandes",
      "outputs": [
        {
          "internalType": "uint32",
          "name": "id",
          "type": "uint32"
        },
        {
          "internalType": "uint32",
          "name": "idLotProduit",
          "type": "uint32"
        },
        {
          "internalType": "uint32",
          "name": "quantite",
          "type": "uint32"
        },
        {
          "internalType": "uint32",
          "name": "prix",
          "type": "uint32"
        },
        {
          "internalType": "bool",
          "name": "payer",
          "type": "bool"
        },
        {
          "internalType": "enum StructLib.StatutTransport",
          "name": "statutTransport",
          "type": "uint8"
        },
        {
          "internalType": "address",
          "name": "collecteur",
          "type": "address"
        },
        {
          "internalType": "address",
          "name": "exportateur",
          "type": "address"
        },
        {
          "internalType": "enum StructLib.StatutProduit",
          "name": "statutProduit",
          "type": "uint8"
        },
        {
          "internalType": "bool",
          "name": "enregistre",
          "type": "bool"
        },
        {
          "internalType": "bool",
          "name": "enregistrerCondition",
          "type": "bool"
        },
        {
          "internalType": "address",
          "name": "transporteur",
          "type": "address"
        }
      ],
      "stateMutability": "view",
      "type": "function"
    },
    {
      "inputs": [],
      "name": "compteurCommandes",
      "outputs": [
        {
          "internalType": "uint32",
          "name": "",
          "type": "uint32"
        }
      ],
      "stateMutability": "view",
      "type": "function"
    },
    {
      "inputs": [],
      "name": "compteurLotProduits",
      "outputs": [
        {
          "internalType": "uint32",
          "name": "",
          "type": "uint32"
        }
      ],
      "stateMutability": "view",
      "type": "function"
    },
    {
      "inputs": [],
      "name": "compteurProduits",
      "outputs": [
        {
          "internalType": "uint32",
          "name": "",
          "type": "uint32"
        }
      ],
      "stateMutability": "view",
      "type": "function"
    },
    {
      "inputs": [
        {
          "internalType": "uint32",
          "name": "",
          "type": "uint32"
        }
      ],
      "name": "conditions",
      "outputs": [
        {
          "internalType": "uint32",
          "name": "id",
          "type": "uint32"
        },
        {
          "internalType": "string",
          "name": "cid",
          "type": "string"
        },
        {
          "internalType": "uint256",
          "name": "timestamp",
          "type": "uint256"
        },
        {
          "internalType": "bytes32",
          "name": "hashMerkle",
          "type": "bytes32"
        }
      ],
      "stateMutability": "view",
      "type": "function"
    },
    {
      "inputs": [
        {
          "internalType": "uint32",
          "name": "_idCommande",
          "type": "uint32"
        },
        {
          "internalType": "uint32",
          "name": "_montant",
          "type": "uint32"
        },
        {
          "internalType": "enum StructLib.ModePaiement",
          "name": "_mode",
          "type": "uint8"
        }
      ],
      "name": "effectuerPaiement",
      "outputs": [],
      "stateMutability": "payable",
      "type": "function"
    },
    {
      "inputs": [
        {
          "internalType": "uint32",
          "name": "_idCommande",
          "type": "uint32"
        },
        {
          "internalType": "bool",
          "name": "_enregistre",
          "type": "bool"
        }
      ],
      "name": "enregistrerCommande",
      "outputs": [],
      "stateMutability": "nonpayable",
      "type": "function"
    },
    {
      "inputs": [
        {
          "internalType": "uint32",
          "name": "_idCommande",
          "type": "uint32"
        },
        {
          "internalType": "string",
          "name": "_cid",
          "type": "string"
        }
      ],
      "name": "enregistrerCondition",
      "outputs": [],
      "stateMutability": "nonpayable",
      "type": "function"
    },
    {
      "inputs": [],
      "name": "gestionnaireActeurs",
      "outputs": [
        {
          "internalType": "contract GestionnaireActeurs",
          "name": "",
          "type": "address"
        }
      ],
      "stateMutability": "view",
      "type": "function"
    },
    {
      "inputs": [
        {
          "internalType": "uint32",
          "name": "id",
          "type": "uint32"
        }
      ],
      "name": "getCommande",
      "outputs": [
        {
          "components": [
            {
              "internalType": "uint32",
              "name": "id",
              "type": "uint32"
            },
            {
              "internalType": "uint32",
              "name": "idLotProduit",
              "type": "uint32"
            },
            {
              "internalType": "uint32",
              "name": "quantite",
              "type": "uint32"
            },
            {
              "internalType": "uint32",
              "name": "prix",
              "type": "uint32"
            },
            {
              "internalType": "bool",
              "name": "payer",
              "type": "bool"
            },
            {
              "internalType": "enum StructLib.StatutTransport",
              "name": "statutTransport",
              "type": "uint8"
            },
            {
              "internalType": "address",
              "name": "collecteur",
              "type": "address"
            },
            {
              "internalType": "address",
              "name": "exportateur",
              "type": "address"
            },
            {
              "internalType": "enum StructLib.StatutProduit",
              "name": "statutProduit",
              "type": "uint8"
            },
            {
              "internalType": "bool",
              "name": "enregistre",
              "type": "bool"
            },
            {
              "internalType": "bool",
              "name": "enregistrerCondition",
              "type": "bool"
            },
            {
              "internalType": "address",
              "name": "transporteur",
              "type": "address"
            }
          ],
          "internalType": "struct StructLib.CommandeProduit",
          "name": "",
          "type": "tuple"
        }
      ],
      "stateMutability": "view",
      "type": "function"
    },
    {
      "inputs": [],
      "name": "getCompteurCommande",
      "outputs": [
        {
          "internalType": "uint32",
          "name": "",
          "type": "uint32"
        }
      ],
      "stateMutability": "view",
      "type": "function"
    },
    {
      "inputs": [],
      "name": "getCompteurCondition",
      "outputs": [
        {
          "internalType": "uint32",
          "name": "",
          "type": "uint32"
        }
      ],
      "stateMutability": "view",
      "type": "function"
    },
    {
      "inputs": [],
      "name": "getCompteurPaiement",
      "outputs": [
        {
          "internalType": "uint32",
          "name": "",
          "type": "uint32"
        }
      ],
      "stateMutability": "view",
      "type": "function"
    },
    {
      "inputs": [],
      "name": "getCompteurProduit",
      "outputs": [
        {
          "internalType": "uint32",
          "name": "",
          "type": "uint32"
        }
      ],
      "stateMutability": "view",
      "type": "function"
    },
    {
      "inputs": [
        {
          "internalType": "uint32",
          "name": "id",
          "type": "uint32"
        }
      ],
      "name": "getCondition",
      "outputs": [
        {
          "components": [
            {
              "internalType": "uint32",
              "name": "id",
              "type": "uint32"
            },
            {
              "internalType": "string",
              "name": "cid",
              "type": "string"
            },
            {
              "internalType": "uint256",
              "name": "timestamp",
              "type": "uint256"
            },
            {
              "internalType": "bytes32",
              "name": "hashMerkle",
              "type": "bytes32"
            }
          ],
          "internalType": "struct StructLib.EnregistrementCondition",
          "name": "",
          "type": "tuple"
        }
      ],
      "stateMutability": "view",
      "type": "function"
    },
    {
      "inputs": [
        {
          "internalType": "uint32",
          "name": "id",
          "type": "uint32"
        }
      ],
      "name": "getLotProduit",
      "outputs": [
        {
          "components": [
            {
              "internalType": "uint32",
              "name": "id",
              "type": "uint32"
            },
            {
              "internalType": "uint32[]",
              "name": "idRecolte",
              "type": "uint32[]"
            },
            {
              "internalType": "uint32[]",
              "name": "idCommandeRecoltes",
              "type": "uint32[]"
            },
            {
              "internalType": "uint32",
              "name": "quantite",
              "type": "uint32"
            },
            {
              "internalType": "uint32",
              "name": "prix",
              "type": "uint32"
            },
            {
              "internalType": "address",
              "name": "collecteur",
              "type": "address"
            },
            {
              "internalType": "string",
              "name": "cid",
              "type": "string"
            },
            {
              "internalType": "bytes32",
              "name": "hashMerkle",
              "type": "bytes32"
            }
          ],
          "internalType": "struct StructLib.LotProduit",
          "name": "",
          "type": "tuple"
        }
      ],
      "stateMutability": "view",
      "type": "function"
    },
    {
      "inputs": [
        {
          "internalType": "uint32",
          "name": "id",
          "type": "uint32"
        }
      ],
      "name": "getPaiement",
      "outputs": [
        {
          "components": [
            {
              "internalType": "uint32",
              "name": "id",
              "type": "uint32"
            },
            {
              "internalType": "address",
              "name": "payeur",
              "type": "address"
            },
            {
              "internalType": "address",
              "name": "vendeur",
              "type": "address"
            },
            {
              "internalType": "uint32",
              "name": "montant",
              "type": "uint32"
            },
            {
              "internalType": "enum StructLib.ModePaiement",
              "name": "mode",
              "type": "uint8"
            },
            {
              "internalType": "uint256",
              "name": "timestamp",
              "type": "uint256"
            },
            {
              "internalType": "string",
              "name": "hashMerkle",
              "type": "string"
            }
          ],
          "internalType": "struct StructLib.Paiement",
          "name": "",
          "type": "tuple"
        }
      ],
      "stateMutability": "view",
      "type": "function"
    },
    {
      "inputs": [
        {
          "internalType": "uint32",
          "name": "id",
          "type": "uint32"
        }
      ],
      "name": "getProduit",
      "outputs": [
        {
          "components": [
            {
              "internalType": "uint32",
              "name": "id",
              "type": "uint32"
            },
            {
              "internalType": "uint32",
              "name": "idRecolte",
              "type": "uint32"
            },
            {
              "internalType": "uint32",
              "name": "idCommandeRecolte",
              "type": "uint32"
            },
            {
              "internalType": "uint32",
              "name": "quantite",
              "type": "uint32"
            },
            {
              "internalType": "address",
              "name": "collecteur",
              "type": "address"
            },
            {
              "internalType": "bool",
              "name": "enregistre",
              "type": "bool"
            }
          ],
          "internalType": "struct StructLib.Produit",
          "name": "",
          "type": "tuple"
        }
      ],
      "stateMutability": "view",
      "type": "function"
    },
    {
      "inputs": [
        {
          "internalType": "address",
          "name": "_gestionnaireActeurs",
          "type": "address"
        }
      ],
      "name": "initialiser",
      "outputs": [],
      "stateMutability": "nonpayable",
      "type": "function"
    },
    {
      "inputs": [
        {
          "internalType": "uint32",
          "name": "",
          "type": "uint32"
        }
      ],
      "name": "lotProduits",
      "outputs": [
        {
          "internalType": "uint32",
          "name": "id",
          "type": "uint32"
        },
        {
          "internalType": "uint32",
          "name": "quantite",
          "type": "uint32"
        },
        {
          "internalType": "uint32",
          "name": "prix",
          "type": "uint32"
        },
        {
          "internalType": "address",
          "name": "collecteur",
          "type": "address"
        },
        {
          "internalType": "string",
          "name": "cid",
          "type": "string"
        },
        {
          "internalType": "bytes32",
          "name": "hashMerkle",
          "type": "bytes32"
        }
      ],
      "stateMutability": "view",
      "type": "function"
    },
    {
      "inputs": [
        {
          "internalType": "uint32",
          "name": "_idCommande",
          "type": "uint32"
        },
        {
          "internalType": "enum StructLib.StatutProduit",
          "name": "_status",
          "type": "uint8"
        }
      ],
      "name": "mettreAJourStatutCommande",
      "outputs": [],
      "stateMutability": "nonpayable",
      "type": "function"
    },
    {
      "inputs": [
        {
          "internalType": "uint32",
          "name": "_idCommande",
          "type": "uint32"
        },
        {
          "internalType": "enum StructLib.StatutTransport",
          "name": "_statut",
          "type": "uint8"
        }
      ],
      "name": "mettreAJourStatutTransport",
      "outputs": [],
      "stateMutability": "nonpayable",
      "type": "function"
    },
    {
      "inputs": [
        {
          "internalType": "uint32",
          "name": "",
          "type": "uint32"
        }
      ],
      "name": "paiements",
      "outputs": [
        {
          "internalType": "uint32",
          "name": "id",
          "type": "uint32"
        },
        {
          "internalType": "address",
          "name": "payeur",
          "type": "address"
        },
        {
          "internalType": "address",
          "name": "vendeur",
          "type": "address"
        },
        {
          "internalType": "uint32",
          "name": "montant",
          "type": "uint32"
        },
        {
          "internalType": "enum StructLib.ModePaiement",
          "name": "mode",
          "type": "uint8"
        },
        {
          "internalType": "uint256",
          "name": "timestamp",
          "type": "uint256"
        },
        {
          "internalType": "string",
          "name": "hashMerkle",
          "type": "string"
        }
      ],
      "stateMutability": "view",
      "type": "function"
    },
    {
      "inputs": [
        {
          "internalType": "uint32",
          "name": "_idLotProduit",
          "type": "uint32"
        },
        {
          "internalType": "uint32",
          "name": "_quantite",
          "type": "uint32"
        }
      ],
      "name": "passerCommande",
      "outputs": [],
      "stateMutability": "nonpayable",
      "type": "function"
    },
    {
      "inputs": [
        {
          "internalType": "uint32",
          "name": "",
          "type": "uint32"
        }
      ],
      "name": "produits",
      "outputs": [
        {
          "internalType": "uint32",
          "name": "id",
          "type": "uint32"
        },
        {
          "internalType": "uint32",
          "name": "idRecolte",
          "type": "uint32"
        },
        {
          "internalType": "uint32",
          "name": "idCommandeRecolte",
          "type": "uint32"
        },
        {
          "internalType": "uint32",
          "name": "quantite",
          "type": "uint32"
        },
        {
          "internalType": "address",
          "name": "collecteur",
          "type": "address"
        },
        {
          "internalType": "bool",
          "name": "enregistre",
          "type": "bool"
        }
      ],
      "stateMutability": "view",
      "type": "function"
    },
    {
      "inputs": [
        {
          "internalType": "address",
          "name": "_addr",
          "type": "address"
        }
      ],
      "name": "setGestionnaireActeurs",
      "outputs": [],
      "stateMutability": "nonpayable",
      "type": "function"
    },
    {
      "inputs": [
        {
          "internalType": "uint32",
          "name": "_idLotProduit",
          "type": "uint32"
        },
        {
          "internalType": "uint32",
          "name": "_prix",
          "type": "uint32"
        }
      ],
      "name": "setPriceProduit",
      "outputs": [],
      "stateMutability": "nonpayable",
      "type": "function"
    },
    {
      "stateMutability": "payable",
      "type": "receive"
    }
  ],
  "bytecode": "0x608060405234801561001057600080fd5b50615ac180620000216000396000f3fe6080604052600436106101d05760003560e01c80636f3fd6c5116100f7578063b9e91d7011610095578063e6cab64c11610064578063e6cab64c146106de578063edd13163146106fa578063f6980cc914610725578063fdccf43314610765576101d7565b8063b9e91d7014610621578063ba9ba2401461064a578063c4c8d1941461068c578063e550ef99146106b5576101d7565b806389c1ca53116100d157806389c1ca53146105795780638a16156e146105a257806393c2f9b4146105cb5780639e942cd4146105f6576101d7565b80636f3fd6c5146104c35780637babcffa1461050b5780638777654f1461054e576101d7565b806341fae4db1161016f5780634dafb5011161013e5780634dafb501146104095780634fbdf4fe146104325780635293ea511461045b578063693dff1f14610498576101d7565b806341fae4db146103225780634851ca821461035f578063488dee20146103a157806348d2cee0146103cc576101d7565b806315a3374c116101ab57806315a3374c1461026a5780632477b51014610293578063369064b9146102bc5780633e7a6049146102f9576101d7565b806241fb4e146101d957806301197018146102025780630b215e641461022d576101d7565b366101d757005b005b3480156101e557600080fd5b5061020060048036038101906101fb9190614603565b610790565b005b34801561020e57600080fd5b50610217610987565b604051610224919061522a565b60405180910390f35b34801561023957600080fd5b50610254600480360381019061024f91906145da565b6109a1565b60405161026191906151ed565b60405180910390f35b34801561027657600080fd5b50610291600480360381019061028c9190614747565b610bf5565b005b34801561029f57600080fd5b506102ba60048036038101906102b5919061467b565b610dcc565b005b3480156102c857600080fd5b506102e360048036038101906102de91906145da565b611016565b6040516102f0919061520f565b60405180910390f35b34801561030557600080fd5b50610320600480360381019061031b9190614509565b611157565b005b34801561032e57600080fd5b50610349600480360381019061034491906145da565b61119b565b60405161035691906151a9565b60405180910390f35b34801561036b57600080fd5b50610386600480360381019061038191906145da565b6112a0565b60405161039896959493929190615414565b60405180910390f35b3480156103ad57600080fd5b506103b6611349565b6040516103c3919061522a565b60405180910390f35b3480156103d857600080fd5b506103f360048036038101906103ee91906145da565b61135f565b60405161040091906151cb565b60405180910390f35b34801561041557600080fd5b50610430600480360381019061042b9190614747565b611605565b005b34801561043e57600080fd5b5061045960048036038101906104549190614509565b611cc8565b005b34801561046757600080fd5b50610482600480360381019061047d91906145da565b611d41565b60405161048f919061518d565b60405180910390f35b3480156104a457600080fd5b506104ad612074565b6040516104ba919061522a565b60405180910390f35b3480156104cf57600080fd5b506104ea60048036038101906104e591906145da565b61208a565b6040516105029c9b9a99989796959493929190615475565b60405180910390f35b34801561051757600080fd5b50610532600480360381019061052d91906145da565b6121cb565b6040516105459796959493929190615245565b60405180910390f35b34801561055a57600080fd5b50610563612302565b604051610570919061522a565b60405180910390f35b34801561058557600080fd5b506105a0600480360381019061059b91906147d2565b61231c565b005b3480156105ae57600080fd5b506105c960048036038101906105c491906146b7565b61255b565b005b3480156105d757600080fd5b506105e061279f565b6040516105ed919061522a565b60405180910390f35b34801561060257600080fd5b5061060b6127b9565b604051610618919061508c565b60405180910390f35b34801561062d57600080fd5b5061064860048036038101906106439190614532565b6127df565b005b34801561065657600080fd5b50610671600480360381019061066c91906145da565b61302e565b604051610683969594939291906153ac565b60405180910390f35b34801561069857600080fd5b506106b360048036038101906106ae919061463f565b613142565b005b3480156106c157600080fd5b506106dc60048036038101906106d791906146f3565b613348565b005b6106f860048036038101906106f39190614783565b613666565b005b34801561070657600080fd5b5061070f613e48565b60405161071c919061522a565b60405180910390f35b34801561073157600080fd5b5061074c600480360381019061074791906145da565b613e5e565b60405161075c9493929190615300565b60405180910390f35b34801561077157600080fd5b5061077a613f26565b604051610787919061522a565b60405180910390f35b600660009054906101000a900473ffffffffffffffffffffffffffffffffffffffff1673ffffffffffffffffffffffffffffffffffffffff1663d1e47bb33360066040518363ffffffff1660e01b81526004016107ee929190615063565b60206040518083038186803b15801561080657600080fd5b505afa15801561081a573d6000803e3d6000fd5b505050506040513d601f19601f8201168201806040525081019061083e91906145b1565b61087d576040517f08c379a00000000000000000000000000000000000000000000000000000000081526004016108749061514d565b60405180910390fd5b600560009054906101000a900463ffffffff1663ffffffff168263ffffffff1611156108a857600080fd5b3373ffffffffffffffffffffffffffffffffffffffff16600460008463ffffffff1663ffffffff16815260200190815260200160002060020160009054906101000a900473ffffffffffffffffffffffffffffffffffffffff1673ffffffffffffffffffffffffffffffffffffffff161461092257600080fd5b80600460008463ffffffff1663ffffffff16815260200190815260200160002060030160006101000a81548173ffffffffffffffffffffffffffffffffffffffff021916908373ffffffffffffffffffffffffffffffffffffffff1602179055505050565b6000600560049054906101000a900463ffffffff16905090565b6109a9613f40565b600360008363ffffffff1663ffffffff1681526020019081526020016000206040518060e00160405290816000820160009054906101000a900463ffffffff1663ffffffff1663ffffffff1681526020016000820160049054906101000a900473ffffffffffffffffffffffffffffffffffffffff1673ffffffffffffffffffffffffffffffffffffffff1673ffffffffffffffffffffffffffffffffffffffff1681526020016001820160009054906101000a900473ffffffffffffffffffffffffffffffffffffffff1673ffffffffffffffffffffffffffffffffffffffff1673ffffffffffffffffffffffffffffffffffffffff1681526020016001820160149054906101000a900463ffffffff1663ffffffff1663ffffffff1681526020016001820160189054906101000a900460ff166002811115610b16577f4e487b7100000000000000000000000000000000000000000000000000000000600052602160045260246000fd5b6002811115610b4e577f4e487b7100000000000000000000000000000000000000000000000000000000600052602160045260246000fd5b815260200160028201548152602001600382018054610b6c90615840565b80601f0160208091040260200160405190810160405280929190818152602001828054610b9890615840565b8015610be55780601f10610bba57610100808354040283529160200191610be5565b820191906000526020600020905b815481529060010190602001808311610bc857829003601f168201915b5050505050815250509050919050565b600660009054906101000a900473ffffffffffffffffffffffffffffffffffffffff1673ffffffffffffffffffffffffffffffffffffffff1663d1e47bb33360036040518363ffffffff1660e01b8152600401610c53929190615063565b60206040518083038186803b158015610c6b57600080fd5b505afa158015610c7f573d6000803e3d6000fd5b505050506040513d601f19601f82011682018060405250810190610ca391906145b1565b610ce2576040517f08c379a0000000000000000000000000000000000000000000000000000000008152600401610cd99061512d565b60405180910390fd5b600560089054906101000a900463ffffffff1663ffffffff168263ffffffff161115610d0d57600080fd5b3373ffffffffffffffffffffffffffffffffffffffff16600160008463ffffffff1663ffffffff16815260200190815260200160002060030160089054906101000a900473ffffffffffffffffffffffffffffffffffffffff1673ffffffffffffffffffffffffffffffffffffffff1614610d8757600080fd5b80600160008463ffffffff1663ffffffff16815260200190815260200160002060030160046101000a81548163ffffffff021916908363ffffffff1602179055505050565b600660009054906101000a900473ffffffffffffffffffffffffffffffffffffffff1673ffffffffffffffffffffffffffffffffffffffff1663d1e47bb33360066040518363ffffffff1660e01b8152600401610e2a929190615063565b60206040518083038186803b158015610e4257600080fd5b505afa158015610e56573d6000803e3d6000fd5b505050506040513d601f19601f82011682018060405250810190610e7a91906145b1565b610eb9576040517f08c379a0000000000000000000000000000000000000000000000000000000008152600401610eb09061514d565b60405180910390fd5b600180811115610ef2577f4e487b7100000000000000000000000000000000000000000000000000000000600052602160045260246000fd5b600460008463ffffffff1663ffffffff16815260200190815260200160002060000160119054906101000a900460ff166001811115610f5a577f4e487b7100000000000000000000000000000000000000000000000000000000600052602160045260246000fd5b14610f6457600080fd5b80600460008463ffffffff1663ffffffff16815260200190815260200160002060020160146101000a81548160ff02191690836002811115610fcf577f4e487b7100000000000000000000000000000000000000000000000000000000600052602160045260246000fd5b02179055508163ffffffff167fab130106cad960e950d3b5ff9c896fdd5af7f3144699e12c2c8429afd4abd7ab8260405161100a91906150a7565b60405180910390a25050565b61101e613fed565b6000808363ffffffff1663ffffffff1681526020019081526020016000206040518060c00160405290816000820160009054906101000a900463ffffffff1663ffffffff1663ffffffff1681526020016000820160049054906101000a900463ffffffff1663ffffffff1663ffffffff1681526020016000820160089054906101000a900463ffffffff1663ffffffff1663ffffffff16815260200160008201600c9054906101000a900463ffffffff1663ffffffff1663ffffffff1681526020016001820160009054906101000a900473ffffffffffffffffffffffffffffffffffffffff1673ffffffffffffffffffffffffffffffffffffffff1673ffffffffffffffffffffffffffffffffffffffff1681526020016001820160149054906101000a900460ff1615151515815250509050919050565b80600660006101000a81548173ffffffffffffffffffffffffffffffffffffffff021916908373ffffffffffffffffffffffffffffffffffffffff16021790555050565b6111a3614053565b600260008363ffffffff1663ffffffff1681526020019081526020016000206040518060800160405290816000820160009054906101000a900463ffffffff1663ffffffff1663ffffffff16815260200160018201805461120390615840565b80601f016020809104026020016040519081016040528092919081815260200182805461122f90615840565b801561127c5780601f106112515761010080835404028352916020019161127c565b820191906000526020600020905b81548152906001019060200180831161125f57829003601f168201915b50505050508152602001600282015481526020016003820154815250509050919050565b60006020528060005260406000206000915090508060000160009054906101000a900463ffffffff16908060000160049054906101000a900463ffffffff16908060000160089054906101000a900463ffffffff169080600001600c9054906101000a900463ffffffff16908060010160009054906101000a900473ffffffffffffffffffffffffffffffffffffffff16908060010160149054906101000a900460ff16905086565b600560009054906101000a900463ffffffff1681565b611367614084565b600160008363ffffffff1663ffffffff168152602001908152602001600020604051806101000160405290816000820160009054906101000a900463ffffffff1663ffffffff1663ffffffff1681526020016001820180548060200260200160405190810160405280929190818152602001828054801561143357602002820191906000526020600020906000905b82829054906101000a900463ffffffff1663ffffffff16815260200190600401906020826003010492830192600103820291508084116113f65790505b50505050508152602001600282018054806020026020016040519081016040528092919081815260200182805480156114b757602002820191906000526020600020906000905b82829054906101000a900463ffffffff1663ffffffff168152602001906004019060208260030104928301926001038202915080841161147a5790505b505050505081526020016003820160009054906101000a900463ffffffff1663ffffffff1663ffffffff1681526020016003820160049054906101000a900463ffffffff1663ffffffff1663ffffffff1681526020016003820160089054906101000a900473ffffffffffffffffffffffffffffffffffffffff1673ffffffffffffffffffffffffffffffffffffffff1673ffffffffffffffffffffffffffffffffffffffff16815260200160048201805461157290615840565b80601f016020809104026020016040519081016040528092919081815260200182805461159e90615840565b80156115eb5780601f106115c0576101008083540402835291602001916115eb565b820191906000526020600020905b8154815290600101906020018083116115ce57829003601f168201915b505050505081526020016005820154815250509050919050565b600660009054906101000a900473ffffffffffffffffffffffffffffffffffffffff1673ffffffffffffffffffffffffffffffffffffffff1663d1e47bb33360066040518363ffffffff1660e01b8152600401611663929190615063565b60206040518083038186803b15801561167b57600080fd5b505afa15801561168f573d6000803e3d6000fd5b505050506040513d601f19601f820116820180604052508101906116b391906145b1565b6116f2576040517f08c379a00000000000000000000000000000000000000000000000000000000081526004016116e99061514d565b60405180910390fd5b600160008363ffffffff1663ffffffff16815260200190815260200160002060030160009054906101000a900463ffffffff1663ffffffff168163ffffffff16111561173d57600080fd5b6000600160008463ffffffff1663ffffffff16815260200190815260200160002060030160049054906101000a900463ffffffff168261177d9190615672565b9050600082600160008663ffffffff1663ffffffff16815260200190815260200160002060030160009054906101000a900463ffffffff166117bf91906156b0565b905080600160008663ffffffff1663ffffffff16815260200190815260200160002060030160006101000a81548163ffffffff021916908363ffffffff1602179055506005600081819054906101000a900463ffffffff168092919061182490615872565b91906101000a81548163ffffffff021916908363ffffffff16021790555050604051806101800160405280600560009054906101000a900463ffffffff1663ffffffff1681526020018563ffffffff1681526020018463ffffffff1681526020018363ffffffff168152602001600015158152602001600060018111156118d4577f4e487b7100000000000000000000000000000000000000000000000000000000600052602160045260246000fd5b8152602001600160008763ffffffff1663ffffffff16815260200190815260200160002060030160089054906101000a900473ffffffffffffffffffffffffffffffffffffffff1673ffffffffffffffffffffffffffffffffffffffff1681526020013373ffffffffffffffffffffffffffffffffffffffff1681526020016000600281111561198d577f4e487b7100000000000000000000000000000000000000000000000000000000600052602160045260246000fd5b8152602001600015158152602001600015158152602001600073ffffffffffffffffffffffffffffffffffffffff1681525060046000600560009054906101000a900463ffffffff1663ffffffff1663ffffffff16815260200190815260200160002060008201518160000160006101000a81548163ffffffff021916908363ffffffff16021790555060208201518160000160046101000a81548163ffffffff021916908363ffffffff16021790555060408201518160000160086101000a81548163ffffffff021916908363ffffffff160217905550606082015181600001600c6101000a81548163ffffffff021916908363ffffffff16021790555060808201518160000160106101000a81548160ff02191690831515021790555060a08201518160000160116101000a81548160ff02191690836001811115611afd577f4e487b7100000000000000000000000000000000000000000000000000000000600052602160045260246000fd5b021790555060c08201518160010160006101000a81548173ffffffffffffffffffffffffffffffffffffffff021916908373ffffffffffffffffffffffffffffffffffffffff16021790555060e08201518160020160006101000a81548173ffffffffffffffffffffffffffffffffffffffff021916908373ffffffffffffffffffffffffffffffffffffffff1602179055506101008201518160020160146101000a81548160ff02191690836002811115611be2577f4e487b7100000000000000000000000000000000000000000000000000000000600052602160045260246000fd5b02179055506101208201518160020160156101000a81548160ff0219169083151502179055506101408201518160020160166101000a81548160ff0219169083151502179055506101608201518160030160006101000a81548173ffffffffffffffffffffffffffffffffffffffff021916908373ffffffffffffffffffffffffffffffffffffffff1602179055509050503373ffffffffffffffffffffffffffffffffffffffff167fa0e84f4dba1ea97bb938c4d3ff9475e68dacbd58f3086c672b0605ad53d76dc185604051611cba919061522a565b60405180910390a250505050565b6005600c9054906101000a900460ff1615611ce257600080fd5b80600660006101000a81548173ffffffffffffffffffffffffffffffffffffffff021916908373ffffffffffffffffffffffffffffffffffffffff16021790555060016005600c6101000a81548160ff02191690831515021790555050565b611d496140f4565b600460008363ffffffff1663ffffffff168152602001908152602001600020604051806101800160405290816000820160009054906101000a900463ffffffff1663ffffffff1663ffffffff1681526020016000820160049054906101000a900463ffffffff1663ffffffff1663ffffffff1681526020016000820160089054906101000a900463ffffffff1663ffffffff1663ffffffff16815260200160008201600c9054906101000a900463ffffffff1663ffffffff1663ffffffff1681526020016000820160109054906101000a900460ff161515151581526020016000820160119054906101000a900460ff166001811115611e72577f4e487b7100000000000000000000000000000000000000000000000000000000600052602160045260246000fd5b6001811115611eaa577f4e487b7100000000000000000000000000000000000000000000000000000000600052602160045260246000fd5b81526020016001820160009054906101000a900473ffffffffffffffffffffffffffffffffffffffff1673ffffffffffffffffffffffffffffffffffffffff1673ffffffffffffffffffffffffffffffffffffffff1681526020016002820160009054906101000a900473ffffffffffffffffffffffffffffffffffffffff1673ffffffffffffffffffffffffffffffffffffffff1673ffffffffffffffffffffffffffffffffffffffff1681526020016002820160149054906101000a900460ff166002811115611fa5577f4e487b7100000000000000000000000000000000000000000000000000000000600052602160045260246000fd5b6002811115611fdd577f4e487b7100000000000000000000000000000000000000000000000000000000600052602160045260246000fd5b81526020016002820160159054906101000a900460ff161515151581526020016002820160169054906101000a900460ff161515151581526020016003820160009054906101000a900473ffffffffffffffffffffffffffffffffffffffff1673ffffffffffffffffffffffffffffffffffffffff1673ffffffffffffffffffffffffffffffffffffffff16815250509050919050565b600560089054906101000a900463ffffffff1681565b60046020528060005260406000206000915090508060000160009054906101000a900463ffffffff16908060000160049054906101000a900463ffffffff16908060000160089054906101000a900463ffffffff169080600001600c9054906101000a900463ffffffff16908060000160109054906101000a900460ff16908060000160119054906101000a900460ff16908060010160009054906101000a900473ffffffffffffffffffffffffffffffffffffffff16908060020160009054906101000a900473ffffffffffffffffffffffffffffffffffffffff16908060020160149054906101000a900460ff16908060020160159054906101000a900460ff16908060020160169054906101000a900460ff16908060030160009054906101000a900473ffffffffffffffffffffffffffffffffffffffff1690508c565b60036020528060005260406000206000915090508060000160009054906101000a900463ffffffff16908060000160049054906101000a900473ffffffffffffffffffffffffffffffffffffffff16908060010160009054906101000a900473ffffffffffffffffffffffffffffffffffffffff16908060010160149054906101000a900463ffffffff16908060010160189054906101000a900460ff169080600201549080600301805461227f90615840565b80601f01602080910402602001604051908101604052809291908181526020018280546122ab90615840565b80156122f85780601f106122cd576101008083540402835291602001916122f8565b820191906000526020600020905b8154815290600101906020018083116122db57829003601f168201915b5050505050905087565b6000600560009054906101000a900463ffffffff16905090565b6005600481819054906101000a900463ffffffff168092919061233e90615872565b91906101000a81548163ffffffff021916908363ffffffff160217905550506040518060c00160405280600560049054906101000a900463ffffffff1663ffffffff1681526020018463ffffffff1681526020018563ffffffff1681526020018363ffffffff1681526020018273ffffffffffffffffffffffffffffffffffffffff16815260200160001515815250600080600560049054906101000a900463ffffffff1663ffffffff1663ffffffff16815260200190815260200160002060008201518160000160006101000a81548163ffffffff021916908363ffffffff16021790555060208201518160000160046101000a81548163ffffffff021916908363ffffffff16021790555060408201518160000160086101000a81548163ffffffff021916908363ffffffff160217905550606082015181600001600c6101000a81548163ffffffff021916908363ffffffff16021790555060808201518160010160006101000a81548173ffffffffffffffffffffffffffffffffffffffff021916908373ffffffffffffffffffffffffffffffffffffffff16021790555060a08201518160010160146101000a81548160ff021916908315150217905550905050600560049054906101000a900463ffffffff1663ffffffff167f3d078b1c3921ddadb756791c1a070b903bcb0cd941a1df4de6eed059fb6e06db838560405161254d92919061534c565b60405180910390a250505050565b600660009054906101000a900473ffffffffffffffffffffffffffffffffffffffff1673ffffffffffffffffffffffffffffffffffffffff1663d1e47bb33360056040518363ffffffff1660e01b81526004016125b9929190615063565b60206040518083038186803b1580156125d157600080fd5b505afa1580156125e5573d6000803e3d6000fd5b505050506040513d601f19601f8201168201806040525081019061260991906145b1565b612648576040517f08c379a000000000000000000000000000000000000000000000000000000000815260040161263f9061516d565b60405180910390fd5b600560009054906101000a900463ffffffff1663ffffffff168263ffffffff16111561267357600080fd5b3373ffffffffffffffffffffffffffffffffffffffff16600460008463ffffffff1663ffffffff16815260200190815260200160002060030160009054906101000a900473ffffffffffffffffffffffffffffffffffffffff1673ffffffffffffffffffffffffffffffffffffffff16146126ed57600080fd5b80600460008463ffffffff1663ffffffff16815260200190815260200160002060000160116101000a81548160ff02191690836001811115612758577f4e487b7100000000000000000000000000000000000000000000000000000000600052602160045260246000fd5b02179055508163ffffffff167ff84820c84ecbec116ee0604a91f0bec4a5d5926d8d5189a13f57fc30951d4b918260405161279391906150c2565b60405180910390a25050565b6000600560009054906101000a900463ffffffff16905090565b600660009054906101000a900473ffffffffffffffffffffffffffffffffffffffff1681565b600660009054906101000a900473ffffffffffffffffffffffffffffffffffffffff1673ffffffffffffffffffffffffffffffffffffffff1663d1e47bb33360036040518363ffffffff1660e01b815260040161283d929190615063565b60206040518083038186803b15801561285557600080fd5b505afa158015612869573d6000803e3d6000fd5b505050506040513d601f19601f8201168201806040525081019061288d91906145b1565b6128cc576040517f08c379a00000000000000000000000000000000000000000000000000000000081526004016128c39061512d565b60405180910390fd5b6000835167ffffffffffffffff81111561290f577f4e487b7100000000000000000000000000000000000000000000000000000000600052604160045260246000fd5b60405190808252806020026020018201604052801561293d5781602001602082028036833780820191505090505b5090506000845167ffffffffffffffff811115612983577f4e487b7100000000000000000000000000000000000000000000000000000000600052604160045260246000fd5b6040519080825280602002602001820160405280156129b15781602001602082028036833780820191505090505b5090506000805b86518163ffffffff161015612ce157600560049054906101000a900463ffffffff1663ffffffff16878263ffffffff1681518110612a1f577f4e487b7100000000000000000000000000000000000000000000000000000000600052603260045260246000fd5b602002602001015163ffffffff161115612a3857600080fd5b6000806000898463ffffffff1681518110612a7c577f4e487b7100000000000000000000000000000000000000000000000000000000600052603260045260246000fd5b602002602001015163ffffffff1663ffffffff1681526020019081526020016000206040518060c00160405290816000820160009054906101000a900463ffffffff1663ffffffff1663ffffffff1681526020016000820160049054906101000a900463ffffffff1663ffffffff1663ffffffff1681526020016000820160089054906101000a900463ffffffff1663ffffffff1663ffffffff16815260200160008201600c9054906101000a900463ffffffff1663ffffffff1663ffffffff1681526020016001820160009054906101000a900473ffffffffffffffffffffffffffffffffffffffff1673ffffffffffffffffffffffffffffffffffffffff1673ffffffffffffffffffffffffffffffffffffffff1681526020016001820160149054906101000a900460ff16151515158152505090508060200151858363ffffffff1681518110612bf8577f4e487b7100000000000000000000000000000000000000000000000000000000600052603260045260246000fd5b602002602001019063ffffffff16908163ffffffff16815250508060400151848363ffffffff1681518110612c56577f4e487b7100000000000000000000000000000000000000000000000000000000600052603260045260246000fd5b602002602001019063ffffffff16908163ffffffff1681525050806060015183612c809190615638565b92503373ffffffffffffffffffffffffffffffffffffffff16816080015173ffffffffffffffffffffffffffffffffffffffff1614612cbe57600080fd5b8060a0015115612ccd57600080fd5b508080612cd990615872565b9150506129b8565b506005600881819054906101000a900463ffffffff1680929190612d0490615872565b91906101000a81548163ffffffff021916908363ffffffff1602179055505060008533428686604051602001612d3e959493929190614fc6565b60405160208183030381529060405280519060200120905060005b87518163ffffffff161015612dfb5760016000808a8463ffffffff1681518110612dac577f4e487b7100000000000000000000000000000000000000000000000000000000600052603260045260246000fd5b602002602001015163ffffffff1663ffffffff16815260200190815260200160002060010160146101000a81548160ff0219169083151502179055508080612df390615872565b915050612d59565b50604051806101000160405280600560089054906101000a900463ffffffff1663ffffffff1681526020018581526020018481526020018363ffffffff1681526020018663ffffffff1681526020013373ffffffffffffffffffffffffffffffffffffffff1681526020018781526020018281525060016000600560089054906101000a900463ffffffff1663ffffffff1663ffffffff16815260200190815260200160002060008201518160000160006101000a81548163ffffffff021916908363ffffffff1602179055506020820151816001019080519060200190612ee4929190614225565b506040820151816002019080519060200190612f01929190614225565b5060608201518160030160006101000a81548163ffffffff021916908363ffffffff16021790555060808201518160030160046101000a81548163ffffffff021916908363ffffffff16021790555060a08201518160030160086101000a81548173ffffffffffffffffffffffffffffffffffffffff021916908373ffffffffffffffffffffffffffffffffffffffff16021790555060c0820151816004019080519060200190612fb39291906142d5565b5060e082015181600501559050503373ffffffffffffffffffffffffffffffffffffffff167f499d3f5837e61d77a364db177a5e0ba2d02b9a2316f1264fffa374d94a9a12b1600560089054906101000a900463ffffffff16848860405161301d93929190615375565b60405180910390a250505050505050565b60016020528060005260406000206000915090508060000160009054906101000a900463ffffffff16908060030160009054906101000a900463ffffffff16908060030160049054906101000a900463ffffffff16908060030160089054906101000a900473ffffffffffffffffffffffffffffffffffffffff16908060040180546130b990615840565b80601f01602080910402602001604051908101604052809291908181526020018280546130e590615840565b80156131325780601f1061310757610100808354040283529160200191613132565b820191906000526020600020905b81548152906001019060200180831161311557829003601f168201915b5050505050908060050154905086565b600660009054906101000a900473ffffffffffffffffffffffffffffffffffffffff1673ffffffffffffffffffffffffffffffffffffffff1663d1e47bb33360066040518363ffffffff1660e01b81526004016131a0929190615063565b60206040518083038186803b1580156131b857600080fd5b505afa1580156131cc573d6000803e3d6000fd5b505050506040513d601f19601f820116820180604052508101906131f091906145b1565b61322f576040517f08c379a00000000000000000000000000000000000000000000000000000000081526004016132269061514d565b60405180910390fd5b600560009054906101000a900463ffffffff1663ffffffff168263ffffffff161115613290576040517f08c379a00000000000000000000000000000000000000000000000000000000081526004016132879061510d565b60405180910390fd5b3373ffffffffffffffffffffffffffffffffffffffff16600460008463ffffffff1663ffffffff16815260200190815260200160002060020160009054906101000a900473ffffffffffffffffffffffffffffffffffffffff1673ffffffffffffffffffffffffffffffffffffffff161461330a57600080fd5b80600460008463ffffffff1663ffffffff16815260200190815260200160002060020160156101000a81548160ff0219169083151502179055505050565b600660009054906101000a900473ffffffffffffffffffffffffffffffffffffffff1673ffffffffffffffffffffffffffffffffffffffff1663d1e47bb33360056040518363ffffffff1660e01b81526004016133a6929190615063565b60206040518083038186803b1580156133be57600080fd5b505afa1580156133d2573d6000803e3d6000fd5b505050506040513d601f19601f820116820180604052508101906133f691906145b1565b613435576040517f08c379a000000000000000000000000000000000000000000000000000000000815260040161342c9061516d565b60405180910390fd5b600560009054906101000a900463ffffffff1663ffffffff168263ffffffff16111561346057600080fd5b600460008363ffffffff1663ffffffff16815260200190815260200160002060020160169054906101000a900460ff161561349a57600080fd5b3373ffffffffffffffffffffffffffffffffffffffff16600460008463ffffffff1663ffffffff16815260200190815260200160002060030160009054906101000a900473ffffffffffffffffffffffffffffffffffffffff1673ffffffffffffffffffffffffffffffffffffffff161461351457600080fd5b60008282334260405160200161352d9493929190615019565b6040516020818303038152906040528051906020012090506001600460008563ffffffff1663ffffffff16815260200190815260200160002060020160166101000a81548160ff02191690831515021790555060405180608001604052808463ffffffff16815260200183815260200142815260200182815250600260008563ffffffff1663ffffffff16815260200190815260200160002060008201518160000160006101000a81548163ffffffff021916908363ffffffff16021790555060208201518160010190805190602001906136099291906142d5565b5060408201518160020155606082015181600301559050508263ffffffff167f85a6dd7e3bffc328a15679316ce7c104a56122ec56d15beab290adac6fceda1883426040516136599291906150dd565b60405180910390a2505050565b600660009054906101000a900473ffffffffffffffffffffffffffffffffffffffff1673ffffffffffffffffffffffffffffffffffffffff1663d1e47bb33360066040518363ffffffff1660e01b81526004016136c4929190615063565b60206040518083038186803b1580156136dc57600080fd5b505afa1580156136f0573d6000803e3d6000fd5b505050506040513d601f19601f8201168201806040525081019061371491906145b1565b613753576040517f08c379a000000000000000000000000000000000000000000000000000000000815260040161374a9061514d565b60405180910390fd5b600060016000600460008763ffffffff1663ffffffff16815260200190815260200160002060000160049054906101000a900463ffffffff1663ffffffff1663ffffffff168152602001908152602001600020604051806101000160405290816000820160009054906101000a900463ffffffff1663ffffffff1663ffffffff1681526020016001820180548060200260200160405190810160405280929190818152602001828054801561385357602002820191906000526020600020906000905b82829054906101000a900463ffffffff1663ffffffff16815260200190600401906020826003010492830192600103820291508084116138165790505b50505050508152602001600282018054806020026020016040519081016040528092919081815260200182805480156138d757602002820191906000526020600020906000905b82829054906101000a900463ffffffff1663ffffffff168152602001906004019060208260030104928301926001038202915080841161389a5790505b505050505081526020016003820160009054906101000a900463ffffffff1663ffffffff1663ffffffff1681526020016003820160049054906101000a900463ffffffff1663ffffffff1663ffffffff1681526020016003820160089054906101000a900473ffffffffffffffffffffffffffffffffffffffff1673ffffffffffffffffffffffffffffffffffffffff1673ffffffffffffffffffffffffffffffffffffffff16815260200160048201805461399290615840565b80601f01602080910402602001604051908101604052809291908181526020018280546139be90615840565b8015613a0b5780601f106139e057610100808354040283529160200191613a0b565b820191906000526020600020905b8154815290600101906020018083116139ee57829003601f168201915b505050505081526020016005820154815250509050600460008563ffffffff1663ffffffff168152602001908152602001600020600001600c9054906101000a900463ffffffff1663ffffffff168363ffffffff1614613a6a57600080fd5b600460008563ffffffff1663ffffffff16815260200190815260200160002060000160109054906101000a900460ff1615613aa457600080fd5b60016002811115613ade577f4e487b7100000000000000000000000000000000000000000000000000000000600052602160045260246000fd5b600460008663ffffffff1663ffffffff16815260200190815260200160002060020160149054906101000a900460ff166002811115613b46577f4e487b7100000000000000000000000000000000000000000000000000000000600052602160045260246000fd5b14613b5057600080fd5b6001600460008663ffffffff1663ffffffff16815260200190815260200160002060000160106101000a81548160ff0219169083151502179055506040518060e001604052808563ffffffff1681526020013373ffffffffffffffffffffffffffffffffffffffff168152602001600460008763ffffffff1663ffffffff16815260200190815260200160002060010160009054906101000a900473ffffffffffffffffffffffffffffffffffffffff1673ffffffffffffffffffffffffffffffffffffffff1681526020018463ffffffff168152602001836002811115613c61577f4e487b7100000000000000000000000000000000000000000000000000000000600052602160045260246000fd5b815260200142815260200160405180602001604052806000815250815250600360008663ffffffff1663ffffffff16815260200190815260200160002060008201518160000160006101000a81548163ffffffff021916908363ffffffff16021790555060208201518160000160046101000a81548173ffffffffffffffffffffffffffffffffffffffff021916908373ffffffffffffffffffffffffffffffffffffffff16021790555060408201518160010160006101000a81548173ffffffffffffffffffffffffffffffffffffffff021916908373ffffffffffffffffffffffffffffffffffffffff16021790555060608201518160010160146101000a81548163ffffffff021916908363ffffffff16021790555060808201518160010160186101000a81548160ff02191690836002811115613dcb577f4e487b7100000000000000000000000000000000000000000000000000000000600052602160045260246000fd5b021790555060a0820151816002015560c0820151816003019080519060200190613df69291906142d5565b50905050806000015163ffffffff167fd9f037670aada9b07156110dd936887c158e5cd6f7932663cc64ef336e44cf9f85338686604051613e3a94939291906152bb565b60405180910390a250505050565b600560049054906101000a900463ffffffff1681565b60026020528060005260406000206000915090508060000160009054906101000a900463ffffffff1690806001018054613e9790615840565b80601f0160208091040260200160405190810160405280929190818152602001828054613ec390615840565b8015613f105780601f10613ee557610100808354040283529160200191613f10565b820191906000526020600020905b815481529060010190602001808311613ef357829003601f168201915b5050505050908060020154908060030154905084565b6000600560009054906101000a900463ffffffff16905090565b6040518060e00160405280600063ffffffff168152602001600073ffffffffffffffffffffffffffffffffffffffff168152602001600073ffffffffffffffffffffffffffffffffffffffff168152602001600063ffffffff16815260200160006002811115613fd9577f4e487b7100000000000000000000000000000000000000000000000000000000600052602160045260246000fd5b815260200160008152602001606081525090565b6040518060c00160405280600063ffffffff168152602001600063ffffffff168152602001600063ffffffff168152602001600063ffffffff168152602001600073ffffffffffffffffffffffffffffffffffffffff1681526020016000151581525090565b6040518060800160405280600063ffffffff1681526020016060815260200160008152602001600080191681525090565b604051806101000160405280600063ffffffff1681526020016060815260200160608152602001600063ffffffff168152602001600063ffffffff168152602001600073ffffffffffffffffffffffffffffffffffffffff16815260200160608152602001600080191681525090565b604051806101800160405280600063ffffffff168152602001600063ffffffff168152602001600063ffffffff168152602001600063ffffffff16815260200160001515815260200160006001811115614177577f4e487b7100000000000000000000000000000000000000000000000000000000600052602160045260246000fd5b8152602001600073ffffffffffffffffffffffffffffffffffffffff168152602001600073ffffffffffffffffffffffffffffffffffffffff168152602001600060028111156141f0577f4e487b7100000000000000000000000000000000000000000000000000000000600052602160045260246000fd5b8152602001600015158152602001600015158152602001600073ffffffffffffffffffffffffffffffffffffffff1681525090565b828054828255906000526020600020906007016008900481019282156142c45791602002820160005b8382111561429257835183826101000a81548163ffffffff021916908363ffffffff160217905550926020019260040160208160030104928301926001030261424e565b80156142c25782816101000a81549063ffffffff0219169055600401602081600301049283019260010302614292565b505b5090506142d1919061435b565b5090565b8280546142e190615840565b90600052602060002090601f016020900481019282614303576000855561434a565b82601f1061431c57805160ff191683800117855561434a565b8280016001018555821561434a579182015b8281111561434957825182559160200191906001019061432e565b5b509050614357919061435b565b5090565b5b8082111561437457600081600090555060010161435c565b5090565b600061438b61438684615560565b61552f565b905080838252602082019050828560208602820111156143aa57600080fd5b60005b858110156143da57816143c088826144f4565b8452602084019350602083019250506001810190506143ad565b5050509392505050565b60006143f76143f28461558c565b61552f565b90508281526020810184848401111561440f57600080fd5b61441a8482856157fe565b509392505050565b60008135905061443181615a16565b92915050565b600082601f83011261444857600080fd5b8135614458848260208601614378565b91505092915050565b60008135905061447081615a2d565b92915050565b60008151905061448581615a2d565b92915050565b60008135905061449a81615a44565b92915050565b6000813590506144af81615a54565b92915050565b6000813590506144c481615a64565b92915050565b600082601f8301126144db57600080fd5b81356144eb8482602086016143e4565b91505092915050565b60008135905061450381615a74565b92915050565b60006020828403121561451b57600080fd5b600061452984828501614422565b91505092915050565b60008060006060848603121561454757600080fd5b600084013567ffffffffffffffff81111561456157600080fd5b61456d86828701614437565b935050602084013567ffffffffffffffff81111561458a57600080fd5b614596868287016144ca565b92505060406145a7868287016144f4565b9150509250925092565b6000602082840312156145c357600080fd5b60006145d184828501614476565b91505092915050565b6000602082840312156145ec57600080fd5b60006145fa848285016144f4565b91505092915050565b6000806040838503121561461657600080fd5b6000614624858286016144f4565b925050602061463585828601614422565b9150509250929050565b6000806040838503121561465257600080fd5b6000614660858286016144f4565b925050602061467185828601614461565b9150509250929050565b6000806040838503121561468e57600080fd5b600061469c858286016144f4565b92505060206146ad858286016144a0565b9150509250929050565b600080604083850312156146ca57600080fd5b60006146d8858286016144f4565b92505060206146e9858286016144b5565b9150509250929050565b6000806040838503121561470657600080fd5b6000614714858286016144f4565b925050602083013567ffffffffffffffff81111561473157600080fd5b61473d858286016144ca565b9150509250929050565b6000806040838503121561475a57600080fd5b6000614768858286016144f4565b9250506020614779858286016144f4565b9150509250929050565b60008060006060848603121561479857600080fd5b60006147a6868287016144f4565b93505060206147b7868287016144f4565b92505060406147c88682870161448b565b9150509250925092565b600080600080608085870312156147e857600080fd5b60006147f6878288016144f4565b9450506020614807878288016144f4565b9350506040614818878288016144f4565b925050606061482987828801614422565b91505092959194509250565b60006148418383614f82565b60208301905092915050565b60006148598383614fa0565b60208301905092915050565b61486e816156e4565b82525050565b61487d816156e4565b82525050565b61489461488f826156e4565b61589f565b82525050565b60006148a5826155cc565b6148af81856155ef565b93506148ba836155bc565b8060005b838110156148eb5781516148d28882614835565b97506148dd836155e2565b9250506001810190506148be565b5085935050505092915050565b6000614903826155cc565b61490d8185615600565b9350614918836155bc565b8060005b83811015614949578151614930888261484d565b975061493b836155e2565b92505060018101905061491c565b5085935050505092915050565b61495f816156f6565b82525050565b61496e816156f6565b82525050565b61497d81615702565b82525050565b61498c81615702565b82525050565b61499b81615792565b82525050565b6149aa816157b6565b82525050565b6149b9816157b6565b82525050565b6149c8816157c8565b82525050565b6149d7816157da565b82525050565b6149e6816157da565b82525050565b6149f5816157ec565b82525050565b614a04816157ec565b82525050565b6000614a15826155d7565b614a1f818561560b565b9350614a2f81856020860161580d565b614a388161599b565b840191505092915050565b6000614a4e826155d7565b614a58818561561c565b9350614a6881856020860161580d565b614a718161599b565b840191505092915050565b6000614a87826155d7565b614a91818561562d565b9350614aa181856020860161580d565b80840191505092915050565b6000614aba60198361561c565b91507f4c6120636f6d6d616e6465206e27657869737465207061732e000000000000006000830152602082019050919050565b6000614afa60228361561c565b91507f4e6f6e206175746f726973653a207365756c656d656e7420436f6c6c6563746560008301527f75720000000000000000000000000000000000000000000000000000000000006020830152604082019050919050565b6000614b6060238361561c565b91507f4e6f6e206175746f726973653a207365756c656d656e74204578706f7274617460008301527f65757200000000000000000000000000000000000000000000000000000000006020830152604082019050919050565b6000614bc660248361561c565b91507f4e6f6e206175746f726973653a207365756c656d656e74205472616e73706f7260008301527f74657572000000000000000000000000000000000000000000000000000000006020830152604082019050919050565b61018082016000820151614c366000850182614f82565b506020820151614c496020850182614f82565b506040820151614c5c6040850182614f82565b506060820151614c6f6060850182614f82565b506080820151614c826080850182614956565b5060a0820151614c9560a08501826149ec565b5060c0820151614ca860c0850182614865565b5060e0820151614cbb60e0850182614865565b50610100820151614cd06101008501826149ce565b50610120820151614ce5610120850182614956565b50610140820151614cfa610140850182614956565b50610160820151614d0f610160850182614865565b50505050565b6000608083016000830151614d2d6000860182614f82565b5060208301518482036020860152614d458282614a0a565b9150506040830151614d5a6040860182614f4d565b506060830151614d6d6060860182614974565b508091505092915050565b600061010083016000830151614d916000860182614f82565b5060208301518482036020860152614da9828261489a565b91505060408301518482036040860152614dc3828261489a565b9150506060830151614dd86060860182614f82565b506080830151614deb6080860182614f82565b5060a0830151614dfe60a0860182614865565b5060c083015184820360c0860152614e168282614a0a565b91505060e0830151614e2b60e0860182614974565b508091505092915050565b600060e083016000830151614e4e6000860182614f82565b506020830151614e616020860182614865565b506040830151614e746040860182614865565b506060830151614e876060860182614f82565b506080830151614e9a60808601826149a1565b5060a0830151614ead60a0860182614f4d565b5060c083015184820360c0860152614ec58282614a0a565b9150508091505092915050565b60c082016000820151614ee86000850182614f82565b506020820151614efb6020850182614f82565b506040820151614f0e6040850182614f82565b506060820151614f216060850182614f82565b506080820151614f346080850182614865565b5060a0820151614f4760a0850182614956565b50505050565b614f5681615778565b82525050565b614f6581615778565b82525050565b614f7c614f7782615778565b6158c3565b82525050565b614f8b81615782565b82525050565b614f9a81615782565b82525050565b614fa981615782565b82525050565b614fc0614fbb82615782565b6158cd565b82525050565b6000614fd28288614a7c565b9150614fde8287614883565b601482019150614fee8286614f6b565b602082019150614ffe82856148f8565b915061500a82846148f8565b91508190509695505050505050565b60006150258287614faf565b6004820191506150358286614a7c565b91506150418285614883565b6014820191506150518284614f6b565b60208201915081905095945050505050565b60006040820190506150786000830185614874565b61508560208301846149bf565b9392505050565b60006020820190506150a16000830184614992565b92915050565b60006020820190506150bc60008301846149dd565b92915050565b60006020820190506150d760008301846149fb565b92915050565b600060408201905081810360008301526150f78185614a43565b90506151066020830184614f5c565b9392505050565b6000602082019050818103600083015261512681614aad565b9050919050565b6000602082019050818103600083015261514681614aed565b9050919050565b6000602082019050818103600083015261516681614b53565b9050919050565b6000602082019050818103600083015261518681614bb9565b9050919050565b6000610180820190506151a36000830184614c1f565b92915050565b600060208201905081810360008301526151c38184614d15565b905092915050565b600060208201905081810360008301526151e58184614d78565b905092915050565b600060208201905081810360008301526152078184614e36565b905092915050565b600060c0820190506152246000830184614ed2565b92915050565b600060208201905061523f6000830184614f91565b92915050565b600060e08201905061525a600083018a614f91565b6152676020830189614874565b6152746040830188614874565b6152816060830187614f91565b61528e60808301866149b0565b61529b60a0830185614f5c565b81810360c08301526152ad8184614a43565b905098975050505050505050565b60006080820190506152d06000830187614f91565b6152dd6020830186614874565b6152ea6040830185614f91565b6152f760608301846149b0565b95945050505050565b60006080820190506153156000830187614f91565b81810360208301526153278186614a43565b90506153366040830185614f5c565b6153436060830184614983565b95945050505050565b60006040820190506153616000830185614f91565b61536e6020830184614f91565b9392505050565b600060608201905061538a6000830186614f91565b6153976020830185614f91565b6153a46040830184614f91565b949350505050565b600060c0820190506153c16000830189614f91565b6153ce6020830188614f91565b6153db6040830187614f91565b6153e86060830186614874565b81810360808301526153fa8185614a43565b905061540960a0830184614983565b979650505050505050565b600060c0820190506154296000830189614f91565b6154366020830188614f91565b6154436040830187614f91565b6154506060830186614f91565b61545d6080830185614874565b61546a60a0830184614965565b979650505050505050565b60006101808201905061548b600083018f614f91565b615498602083018e614f91565b6154a5604083018d614f91565b6154b2606083018c614f91565b6154bf608083018b614965565b6154cc60a083018a6149fb565b6154d960c0830189614874565b6154e660e0830188614874565b6154f46101008301876149dd565b615502610120830186614965565b615510610140830185614965565b61551e610160830184614874565b9d9c50505050505050505050505050565b6000604051905081810181811067ffffffffffffffff821117156155565761555561596c565b5b8060405250919050565b600067ffffffffffffffff82111561557b5761557a61596c565b5b602082029050602081019050919050565b600067ffffffffffffffff8211156155a7576155a661596c565b5b601f19601f8301169050602081019050919050565b6000819050602082019050919050565b600081519050919050565b600081519050919050565b6000602082019050919050565b600082825260208201905092915050565b600081905092915050565b600082825260208201905092915050565b600082825260208201905092915050565b600081905092915050565b600061564382615782565b915061564e83615782565b92508263ffffffff03821115615667576156666158df565b5b828201905092915050565b600061567d82615782565b915061568883615782565b92508163ffffffff04831182151516156156a5576156a46158df565b5b828202905092915050565b60006156bb82615782565b91506156c683615782565b9250828210156156d9576156d86158df565b5b828203905092915050565b60006156ef82615758565b9050919050565b60008115159050919050565b6000819050919050565b600081905061571a826159c6565b919050565b600081905061572d826159da565b919050565b6000819050615740826159ee565b919050565b600081905061575382615a02565b919050565b600073ffffffffffffffffffffffffffffffffffffffff82169050919050565b6000819050919050565b600063ffffffff82169050919050565b600061579d826157a4565b9050919050565b60006157af82615758565b9050919050565b60006157c18261570c565b9050919050565b60006157d38261571f565b9050919050565b60006157e582615732565b9050919050565b60006157f782615745565b9050919050565b82818337600083830152505050565b60005b8381101561582b578082015181840152602081019050615810565b8381111561583a576000848401525b50505050565b6000600282049050600182168061585857607f821691505b6020821081141561586c5761586b61593d565b5b50919050565b600061587d82615782565b915063ffffffff821415615894576158936158df565b5b600182019050919050565b60006158aa826158b1565b9050919050565b60006158bc826159b9565b9050919050565b6000819050919050565b60006158d8826159ac565b9050919050565b7f4e487b7100000000000000000000000000000000000000000000000000000000600052601160045260246000fd5b7f4e487b7100000000000000000000000000000000000000000000000000000000600052602160045260246000fd5b7f4e487b7100000000000000000000000000000000000000000000000000000000600052602260045260246000fd5b7f4e487b7100000000000000000000000000000000000000000000000000000000600052604160045260246000fd5b6000601f19601f8301169050919050565b60008160e01b9050919050565b60008160601b9050919050565b600381106159d7576159d661590e565b5b50565b600881106159eb576159ea61590e565b5b50565b600381106159ff576159fe61590e565b5b50565b60028110615a1357615a1261590e565b5b50565b615a1f816156e4565b8114615a2a57600080fd5b50565b615a36816156f6565b8114615a4157600080fd5b50565b60038110615a5157600080fd5b50565b60038110615a6157600080fd5b50565b60028110615a7157600080fd5b50565b615a7d81615782565b8114615a8857600080fd5b5056fea26469706673582212201e3704dcf52a845c63a9a30758881bf5aa707f189c517652e1e47d524d6d617064736f6c63430008000033",
  "linkReferences": {},
  "deployedLinkReferences": {}
}