{
  "_format": "hh-sol-artifact-1",
  "contractName": "CollecteurExportateur",
  "sourceName": "contracts/CollecteurExportateur.sol",
  "abi": [
    {
      "anonymous": false,
      "inputs": [
        {
          "indexed": true,
          "internalType": "address",
          "name": "collecteur",
          "type": "address"
        },
        {
          "indexed": false,
          "internalType": "uint32",
          "name": "idLotProduit",
          "type": "uint32"
        },
        {
          "indexed": false,
          "internalType": "uint32",
          "name": "quantite",
          "type": "uint32"
        },
        {
          "indexed": false,
          "internalType": "uint32",
          "name": "prix",
          "type": "uint32"
        }
      ],
      "name": "AjoutLotProduit",
      "type": "event"
    },
    {
      "anonymous": false,
      "inputs": [
        {
          "indexed": true,
          "internalType": "address",
          "name": "exportateur",
          "type": "address"
        },
        {
          "indexed": false,
          "internalType": "uint32",
          "name": "idProduit",
          "type": "uint32"
        }
      ],
      "name": "CommandePasser",
      "type": "event"
    },
    {
      "anonymous": false,
      "inputs": [
        {
          "indexed": true,
          "internalType": "uint32",
          "name": "idProduit",
          "type": "uint32"
        },
        {
          "indexed": false,
          "internalType": "string",
          "name": "cid",
          "type": "string"
        },
        {
          "indexed": false,
          "internalType": "uint256",
          "name": "timestamp",
          "type": "uint256"
        }
      ],
      "name": "ConditionEnregistree",
      "type": "event"
    },
    {
      "anonymous": false,
      "inputs": [
        {
          "indexed": true,
          "internalType": "uint32",
          "name": "idProduit",
          "type": "uint32"
        },
        {
          "indexed": false,
          "internalType": "uint32",
          "name": "idPaiement",
          "type": "uint32"
        },
        {
          "indexed": false,
          "internalType": "address",
          "name": "payeur",
          "type": "address"
        },
        {
          "indexed": false,
          "internalType": "uint32",
          "name": "montant",
          "type": "uint32"
        },
        {
          "indexed": false,
          "internalType": "enum StructLib.ModePaiement",
          "name": "mode",
          "type": "uint8"
        }
      ],
      "name": "PaiementEffectue",
      "type": "event"
    },
    {
      "anonymous": false,
      "inputs": [
        {
          "indexed": true,
          "internalType": "uint32",
          "name": "idProduit",
          "type": "uint32"
        },
        {
          "indexed": false,
          "internalType": "uint32",
          "name": "quantite",
          "type": "uint32"
        },
        {
          "indexed": false,
          "internalType": "uint32",
          "name": "idRecolte",
          "type": "uint32"
        }
      ],
      "name": "ProduitAjoute",
      "type": "event"
    },
    {
      "anonymous": false,
      "inputs": [
        {
          "indexed": true,
          "internalType": "uint32",
          "name": "idProduit",
          "type": "uint32"
        },
        {
          "indexed": false,
          "internalType": "bool",
          "name": "valide",
          "type": "bool"
        }
      ],
      "name": "ProduitValide",
      "type": "event"
    },
    {
      "anonymous": false,
      "inputs": [
        {
          "indexed": true,
          "internalType": "uint32",
          "name": "idCommande",
          "type": "uint32"
        },
        {
          "indexed": false,
          "internalType": "enum StructLib.StatutProduit",
          "name": "status",
          "type": "uint8"
        }
      ],
      "name": "StatusCommandeMisAJour",
      "type": "event"
    },
    {
      "anonymous": false,
      "inputs": [
        {
          "indexed": true,
          "internalType": "uint32",
          "name": "idProduit",
          "type": "uint32"
        },
        {
          "indexed": false,
          "internalType": "enum StructLib.StatutTransport",
          "name": "statut",
          "type": "uint8"
        }
      ],
      "name": "StatutTransportMisAJour",
      "type": "event"
    },
    {
      "stateMutability": "payable",
      "type": "fallback"
    },
    {
      "inputs": [
        {
          "internalType": "uint32[]",
          "name": "_idProduits",
          "type": "uint32[]"
        },
        {
          "internalType": "string",
          "name": "_cid",
          "type": "string"
        },
        {
          "internalType": "uint32",
          "name": "_prix",
          "type": "uint32"
        }
      ],
      "name": "ajouterLotProduit",
      "outputs": [],
      "stateMutability": "nonpayable",
      "type": "function"
    },
    {
      "inputs": [
        {
          "internalType": "uint32",
          "name": "_idRecolte",
          "type": "uint32"
        },
        {
          "internalType": "uint32",
          "name": "_quantite",
          "type": "uint32"
        },
        {
          "internalType": "address",
          "name": "_collecteur",
          "type": "address"
        }
      ],
      "name": "ajouterProduit",
      "outputs": [],
      "stateMutability": "nonpayable",
      "type": "function"
    },
    {
      "inputs": [
        {
          "internalType": "uint32",
          "name": "",
          "type": "uint32"
        }
      ],
      "name": "commandes",
      "outputs": [
        {
          "internalType": "uint32",
          "name": "id",
          "type": "uint32"
        },
        {
          "internalType": "uint32",
          "name": "idLotProduit",
          "type": "uint32"
        },
        {
          "internalType": "uint32",
          "name": "quantite",
          "type": "uint32"
        },
        {
          "internalType": "uint32",
          "name": "prix",
          "type": "uint32"
        },
        {
          "internalType": "bool",
          "name": "payer",
          "type": "bool"
        },
        {
          "internalType": "enum StructLib.StatutTransport",
          "name": "statutTransport",
          "type": "uint8"
        },
        {
          "internalType": "address",
          "name": "collecteur",
          "type": "address"
        },
        {
          "internalType": "address",
          "name": "exportateur",
          "type": "address"
        },
        {
          "internalType": "enum StructLib.StatutProduit",
          "name": "statutProduit",
          "type": "uint8"
        },
        {
          "internalType": "string",
          "name": "hashMerkle",
          "type": "string"
        },
        {
          "internalType": "bool",
          "name": "enregistre",
          "type": "bool"
        },
        {
          "internalType": "bool",
          "name": "enregistrerCondition",
          "type": "bool"
        }
      ],
      "stateMutability": "view",
      "type": "function"
    },
    {
      "inputs": [],
      "name": "compteurCommandes",
      "outputs": [
        {
          "internalType": "uint32",
          "name": "",
          "type": "uint32"
        }
      ],
      "stateMutability": "view",
      "type": "function"
    },
    {
      "inputs": [],
      "name": "compteurLotProduits",
      "outputs": [
        {
          "internalType": "uint32",
          "name": "",
          "type": "uint32"
        }
      ],
      "stateMutability": "view",
      "type": "function"
    },
    {
      "inputs": [],
      "name": "compteurProduits",
      "outputs": [
        {
          "internalType": "uint32",
          "name": "",
          "type": "uint32"
        }
      ],
      "stateMutability": "view",
      "type": "function"
    },
    {
      "inputs": [
        {
          "internalType": "uint32",
          "name": "",
          "type": "uint32"
        }
      ],
      "name": "conditions",
      "outputs": [
        {
          "internalType": "uint32",
          "name": "id",
          "type": "uint32"
        },
        {
          "internalType": "string",
          "name": "cid",
          "type": "string"
        },
        {
          "internalType": "uint256",
          "name": "timestamp",
          "type": "uint256"
        },
        {
          "internalType": "string",
          "name": "hashMerkle",
          "type": "string"
        }
      ],
      "stateMutability": "view",
      "type": "function"
    },
    {
      "inputs": [
        {
          "internalType": "uint32",
          "name": "_idCommande",
          "type": "uint32"
        },
        {
          "internalType": "uint32",
          "name": "_montant",
          "type": "uint32"
        },
        {
          "internalType": "enum StructLib.ModePaiement",
          "name": "_mode",
          "type": "uint8"
        }
      ],
      "name": "effectuerPaiement",
      "outputs": [],
      "stateMutability": "payable",
      "type": "function"
    },
    {
      "inputs": [
        {
          "internalType": "uint32",
          "name": "_idCommande",
          "type": "uint32"
        },
        {
          "internalType": "bool",
          "name": "_enregistre",
          "type": "bool"
        }
      ],
      "name": "enregistrerCommande",
      "outputs": [],
      "stateMutability": "nonpayable",
      "type": "function"
    },
    {
      "inputs": [
        {
          "internalType": "uint32",
          "name": "_idCommande",
          "type": "uint32"
        },
        {
          "internalType": "string",
          "name": "_cid",
          "type": "string"
        }
      ],
      "name": "enregistrerCondition",
      "outputs": [],
      "stateMutability": "nonpayable",
      "type": "function"
    },
    {
      "inputs": [],
      "name": "gestionnaireActeurs",
      "outputs": [
        {
          "internalType": "contract GestionnaireActeurs",
          "name": "",
          "type": "address"
        }
      ],
      "stateMutability": "view",
      "type": "function"
    },
    {
      "inputs": [
        {
          "internalType": "uint32",
          "name": "id",
          "type": "uint32"
        }
      ],
      "name": "getCommande",
      "outputs": [
        {
          "components": [
            {
              "internalType": "uint32",
              "name": "id",
              "type": "uint32"
            },
            {
              "internalType": "uint32",
              "name": "idLotProduit",
              "type": "uint32"
            },
            {
              "internalType": "uint32",
              "name": "quantite",
              "type": "uint32"
            },
            {
              "internalType": "uint32",
              "name": "prix",
              "type": "uint32"
            },
            {
              "internalType": "bool",
              "name": "payer",
              "type": "bool"
            },
            {
              "internalType": "enum StructLib.StatutTransport",
              "name": "statutTransport",
              "type": "uint8"
            },
            {
              "internalType": "address",
              "name": "collecteur",
              "type": "address"
            },
            {
              "internalType": "address",
              "name": "exportateur",
              "type": "address"
            },
            {
              "internalType": "enum StructLib.StatutProduit",
              "name": "statutProduit",
              "type": "uint8"
            },
            {
              "internalType": "string",
              "name": "hashMerkle",
              "type": "string"
            },
            {
              "internalType": "bool",
              "name": "enregistre",
              "type": "bool"
            },
            {
              "internalType": "bool",
              "name": "enregistrerCondition",
              "type": "bool"
            }
          ],
          "internalType": "struct StructLib.CommandeProduit",
          "name": "",
          "type": "tuple"
        }
      ],
      "stateMutability": "view",
      "type": "function"
    },
    {
      "inputs": [],
      "name": "getCompteurCommande",
      "outputs": [
        {
          "internalType": "uint32",
          "name": "",
          "type": "uint32"
        }
      ],
      "stateMutability": "view",
      "type": "function"
    },
    {
      "inputs": [],
      "name": "getCompteurCondition",
      "outputs": [
        {
          "internalType": "uint32",
          "name": "",
          "type": "uint32"
        }
      ],
      "stateMutability": "view",
      "type": "function"
    },
    {
      "inputs": [],
      "name": "getCompteurPaiement",
      "outputs": [
        {
          "internalType": "uint32",
          "name": "",
          "type": "uint32"
        }
      ],
      "stateMutability": "view",
      "type": "function"
    },
    {
      "inputs": [],
      "name": "getCompteurProduit",
      "outputs": [
        {
          "internalType": "uint32",
          "name": "",
          "type": "uint32"
        }
      ],
      "stateMutability": "view",
      "type": "function"
    },
    {
      "inputs": [
        {
          "internalType": "uint32",
          "name": "id",
          "type": "uint32"
        }
      ],
      "name": "getCondition",
      "outputs": [
        {
          "components": [
            {
              "internalType": "uint32",
              "name": "id",
              "type": "uint32"
            },
            {
              "internalType": "string",
              "name": "cid",
              "type": "string"
            },
            {
              "internalType": "uint256",
              "name": "timestamp",
              "type": "uint256"
            },
            {
              "internalType": "string",
              "name": "hashMerkle",
              "type": "string"
            }
          ],
          "internalType": "struct StructLib.EnregistrementCondition",
          "name": "",
          "type": "tuple"
        }
      ],
      "stateMutability": "view",
      "type": "function"
    },
    {
      "inputs": [
        {
          "internalType": "uint32",
          "name": "id",
          "type": "uint32"
        }
      ],
      "name": "getLotProduit",
      "outputs": [
        {
          "components": [
            {
              "internalType": "uint32",
              "name": "id",
              "type": "uint32"
            },
            {
              "internalType": "uint32[]",
              "name": "idRecolte",
              "type": "uint32[]"
            },
            {
              "internalType": "uint32",
              "name": "quantite",
              "type": "uint32"
            },
            {
              "internalType": "uint32",
              "name": "prix",
              "type": "uint32"
            },
            {
              "internalType": "address",
              "name": "collecteur",
              "type": "address"
            },
            {
              "internalType": "string",
              "name": "cid",
              "type": "string"
            },
            {
              "internalType": "string",
              "name": "hashMerkle",
              "type": "string"
            }
          ],
          "internalType": "struct StructLib.LotProduit",
          "name": "",
          "type": "tuple"
        }
      ],
      "stateMutability": "view",
      "type": "function"
    },
    {
      "inputs": [
        {
          "internalType": "uint32",
          "name": "id",
          "type": "uint32"
        }
      ],
      "name": "getPaiement",
      "outputs": [
        {
          "components": [
            {
              "internalType": "uint32",
              "name": "id",
              "type": "uint32"
            },
            {
              "internalType": "address",
              "name": "payeur",
              "type": "address"
            },
            {
              "internalType": "address",
              "name": "vendeur",
              "type": "address"
            },
            {
              "internalType": "uint32",
              "name": "montant",
              "type": "uint32"
            },
            {
              "internalType": "enum StructLib.ModePaiement",
              "name": "mode",
              "type": "uint8"
            },
            {
              "internalType": "uint256",
              "name": "timestamp",
              "type": "uint256"
            },
            {
              "internalType": "string",
              "name": "hashMerkle",
              "type": "string"
            }
          ],
          "internalType": "struct StructLib.Paiement",
          "name": "",
          "type": "tuple"
        }
      ],
      "stateMutability": "view",
      "type": "function"
    },
    {
      "inputs": [
        {
          "internalType": "uint32",
          "name": "id",
          "type": "uint32"
        }
      ],
      "name": "getProduit",
      "outputs": [
        {
          "components": [
            {
              "internalType": "uint32",
              "name": "id",
              "type": "uint32"
            },
            {
              "internalType": "uint32",
              "name": "idRecolte",
              "type": "uint32"
            },
            {
              "internalType": "uint32",
              "name": "quantite",
              "type": "uint32"
            },
            {
              "internalType": "address",
              "name": "collecteur",
              "type": "address"
            },
            {
              "internalType": "bool",
              "name": "enregistre",
              "type": "bool"
            },
            {
              "internalType": "string",
              "name": "hashMerkle",
              "type": "string"
            }
          ],
          "internalType": "struct StructLib.Produit",
          "name": "",
          "type": "tuple"
        }
      ],
      "stateMutability": "view",
      "type": "function"
    },
    {
      "inputs": [
        {
          "internalType": "address",
          "name": "_gestionnaireActeurs",
          "type": "address"
        }
      ],
      "name": "initialiser",
      "outputs": [],
      "stateMutability": "nonpayable",
      "type": "function"
    },
    {
      "inputs": [
        {
          "internalType": "uint32",
          "name": "",
          "type": "uint32"
        }
      ],
      "name": "lotProduits",
      "outputs": [
        {
          "internalType": "uint32",
          "name": "id",
          "type": "uint32"
        },
        {
          "internalType": "uint32",
          "name": "quantite",
          "type": "uint32"
        },
        {
          "internalType": "uint32",
          "name": "prix",
          "type": "uint32"
        },
        {
          "internalType": "address",
          "name": "collecteur",
          "type": "address"
        },
        {
          "internalType": "string",
          "name": "cid",
          "type": "string"
        },
        {
          "internalType": "string",
          "name": "hashMerkle",
          "type": "string"
        }
      ],
      "stateMutability": "view",
      "type": "function"
    },
    {
      "inputs": [
        {
          "internalType": "uint32",
          "name": "_idCommande",
          "type": "uint32"
        },
        {
          "internalType": "enum StructLib.StatutProduit",
          "name": "_status",
          "type": "uint8"
        }
      ],
      "name": "mettreAJourStatutCommande",
      "outputs": [],
      "stateMutability": "nonpayable",
      "type": "function"
    },
    {
      "inputs": [
        {
          "internalType": "uint32",
          "name": "_idCommande",
          "type": "uint32"
        },
        {
          "internalType": "enum StructLib.StatutTransport",
          "name": "_statut",
          "type": "uint8"
        }
      ],
      "name": "mettreAJourStatutTransport",
      "outputs": [],
      "stateMutability": "nonpayable",
      "type": "function"
    },
    {
      "inputs": [
        {
          "internalType": "uint32",
          "name": "",
          "type": "uint32"
        }
      ],
      "name": "paiements",
      "outputs": [
        {
          "internalType": "uint32",
          "name": "id",
          "type": "uint32"
        },
        {
          "internalType": "address",
          "name": "payeur",
          "type": "address"
        },
        {
          "internalType": "address",
          "name": "vendeur",
          "type": "address"
        },
        {
          "internalType": "uint32",
          "name": "montant",
          "type": "uint32"
        },
        {
          "internalType": "enum StructLib.ModePaiement",
          "name": "mode",
          "type": "uint8"
        },
        {
          "internalType": "uint256",
          "name": "timestamp",
          "type": "uint256"
        },
        {
          "internalType": "string",
          "name": "hashMerkle",
          "type": "string"
        }
      ],
      "stateMutability": "view",
      "type": "function"
    },
    {
      "inputs": [
        {
          "internalType": "uint32",
          "name": "_idLotProduit",
          "type": "uint32"
        },
        {
          "internalType": "uint32",
          "name": "_quantite",
          "type": "uint32"
        }
      ],
      "name": "passerCommande",
      "outputs": [],
      "stateMutability": "nonpayable",
      "type": "function"
    },
    {
      "inputs": [
        {
          "internalType": "uint32",
          "name": "",
          "type": "uint32"
        }
      ],
      "name": "produits",
      "outputs": [
        {
          "internalType": "uint32",
          "name": "id",
          "type": "uint32"
        },
        {
          "internalType": "uint32",
          "name": "idRecolte",
          "type": "uint32"
        },
        {
          "internalType": "uint32",
          "name": "quantite",
          "type": "uint32"
        },
        {
          "internalType": "address",
          "name": "collecteur",
          "type": "address"
        },
        {
          "internalType": "bool",
          "name": "enregistre",
          "type": "bool"
        },
        {
          "internalType": "string",
          "name": "hashMerkle",
          "type": "string"
        }
      ],
      "stateMutability": "view",
      "type": "function"
    },
    {
      "inputs": [
        {
          "internalType": "address",
          "name": "_addr",
          "type": "address"
        }
      ],
      "name": "setGestionnaireActeurs",
      "outputs": [],
      "stateMutability": "nonpayable",
      "type": "function"
    },
    {
      "inputs": [
        {
          "internalType": "uint32",
          "name": "_idLotProduit",
          "type": "uint32"
        },
        {
          "internalType": "uint32",
          "name": "_prix",
          "type": "uint32"
        }
      ],
      "name": "setPriceProduit",
      "outputs": [],
      "stateMutability": "nonpayable",
      "type": "function"
    },
    {
      "stateMutability": "payable",
      "type": "receive"
    }
  ],
  "bytecode": "0x608060405234801561001057600080fd5b50615f0880620000216000396000f3fe6080604052600436106101c65760003560e01c80636f3fd6c5116100f7578063ba9ba24011610095578063e6cab64c11610064578063e6cab64c146106ab578063edd13163146106c7578063f6980cc9146106f2578063fdccf43314610732576101cd565b8063ba9ba240146105ee578063c1f73cfa14610630578063c4c8d19414610659578063e550ef9914610682576101cd565b80638a16156e116100d15780638a16156e1461054657806393c2f9b41461056f5780639e942cd41461059a578063b9e91d70146105c5576101cd565b80636f3fd6c5146104905780637babcffa146104d85780638777654f1461051b576101cd565b80634851ca82116101645780634dafb5011161013e5780634dafb501146103d65780634fbdf4fe146103ff5780635293ea5114610428578063693dff1f14610465576101cd565b80634851ca821461032c578063488dee201461036e57806348d2cee014610399576101cd565b80632477b510116101a05780632477b51014610260578063369064b9146102895780633e7a6049146102c657806341fae4db146102ef576101cd565b806301197018146101cf5780630b215e64146101fa57806315a3374c14610237576101cd565b366101cd57005b005b3480156101db57600080fd5b506101e461075d565b6040516101f191906156cf565b60405180910390f35b34801561020657600080fd5b50610221600480360381019061021c9190614751565b610777565b60405161022e919061568b565b60405180910390f35b34801561024357600080fd5b5061025e60048036038101906102599190614882565b6109cb565b005b34801561026c57600080fd5b50610287600480360381019061028291906147b6565b610c0e565b005b34801561029557600080fd5b506102b060048036038101906102ab9190614751565b610e8e565b6040516102bd91906156ad565b60405180910390f35b3480156102d257600080fd5b506102ed60048036038101906102e89190614680565b61103b565b005b3480156102fb57600080fd5b5061031660048036038101906103119190614751565b61107f565b6040516103239190615647565b60405180910390f35b34801561033857600080fd5b50610353600480360381019061034e9190614751565b61120c565b60405161036596959493929190615858565b60405180910390f35b34801561037a57600080fd5b5061038361132d565b60405161039091906156cf565b60405180910390f35b3480156103a557600080fd5b506103c060048036038101906103bb9190614751565b611343565b6040516103cd9190615669565b60405180910390f35b3480156103e257600080fd5b506103fd60048036038101906103f89190614882565b6115ec565b005b34801561040b57600080fd5b5061042660048036038101906104219190614680565b611cb3565b005b34801561043457600080fd5b5061044f600480360381019061044a9190614751565b611d62565b60405161045c9190615625565b60405180910390f35b34801561047157600080fd5b5061047a6120d1565b60405161048791906156cf565b60405180910390f35b34801561049c57600080fd5b506104b760048036038101906104b29190614751565b6120e7565b6040516104cf9c9b9a9998979695949392919061592f565b60405180910390f35b3480156104e457600080fd5b506104ff60048036038101906104fa9190614751565b612290565b60405161051297969594939291906156ea565b60405180910390f35b34801561052757600080fd5b506105306123c7565b60405161053d91906156cf565b60405180910390f35b34801561055257600080fd5b5061056d600480360381019061056891906147f2565b6123e1565b005b34801561057b57600080fd5b506105846125e1565b60405161059191906156cf565b60405180910390f35b3480156105a657600080fd5b506105af6125fb565b6040516105bc91906153a4565b60405180910390f35b3480156105d157600080fd5b506105ec60048036038101906105e791906146a9565b612621565b005b3480156105fa57600080fd5b5061061560048036038101906106109190614751565b612e75565b604051610627969594939291906158c0565b60405180910390f35b34801561063c57600080fd5b50610657600480360381019061065291906148be565b613011565b005b34801561066557600080fd5b50610680600480360381019061067b919061477a565b61324e565b005b34801561068e57600080fd5b506106a960048036038101906106a4919061482e565b6133da565b005b6106c560048036038101906106c0919061490d565b6136da565b005b3480156106d357600080fd5b506106dc613f61565b6040516106e991906156cf565b60405180910390f35b3480156106fe57600080fd5b5061071960048036038101906107149190614751565b613f77565b60405161072994939291906157a5565b60405180910390f35b34801561073e57600080fd5b506107476140c7565b60405161075491906156cf565b60405180910390f35b6000600560049054906101000a900463ffffffff16905090565b61077f6140e1565b600360008363ffffffff1663ffffffff1681526020019081526020016000206040518060e00160405290816000820160009054906101000a900463ffffffff1663ffffffff1663ffffffff1681526020016000820160049054906101000a900473ffffffffffffffffffffffffffffffffffffffff1673ffffffffffffffffffffffffffffffffffffffff1673ffffffffffffffffffffffffffffffffffffffff1681526020016001820160009054906101000a900473ffffffffffffffffffffffffffffffffffffffff1673ffffffffffffffffffffffffffffffffffffffff1673ffffffffffffffffffffffffffffffffffffffff1681526020016001820160149054906101000a900463ffffffff1663ffffffff1663ffffffff1681526020016001820160189054906101000a900460ff1660028111156108ec577f4e487b7100000000000000000000000000000000000000000000000000000000600052602160045260246000fd5b6002811115610924577f4e487b7100000000000000000000000000000000000000000000000000000000600052602160045260246000fd5b81526020016002820154815260200160038201805461094290615ce1565b80601f016020809104026020016040519081016040528092919081815260200182805461096e90615ce1565b80156109bb5780601f10610990576101008083540402835291602001916109bb565b820191906000526020600020905b81548152906001019060200180831161099e57829003601f168201915b5050505050815250509050919050565b600660009054906101000a900473ffffffffffffffffffffffffffffffffffffffff1673ffffffffffffffffffffffffffffffffffffffff1663d1e47bb33360036040518363ffffffff1660e01b8152600401610a2992919061537b565b60206040518083038186803b158015610a4157600080fd5b505afa158015610a55573d6000803e3d6000fd5b505050506040513d601f19601f82011682018060405250810190610a799190614728565b610ab8576040517f08c379a0000000000000000000000000000000000000000000000000000000008152600401610aaf90615585565b60405180910390fd5b600560089054906101000a900463ffffffff1663ffffffff168263ffffffff161115610b19576040517f08c379a0000000000000000000000000000000000000000000000000000000008152600401610b1090615545565b60405180910390fd5b3373ffffffffffffffffffffffffffffffffffffffff16600160008463ffffffff1663ffffffff16815260200190815260200160002060020160089054906101000a900473ffffffffffffffffffffffffffffffffffffffff1673ffffffffffffffffffffffffffffffffffffffff1614610bc9576040517f08c379a0000000000000000000000000000000000000000000000000000000008152600401610bc090615505565b60405180910390fd5b80600160008463ffffffff1663ffffffff16815260200190815260200160002060020160046101000a81548163ffffffff021916908363ffffffff1602179055505050565b600660009054906101000a900473ffffffffffffffffffffffffffffffffffffffff1673ffffffffffffffffffffffffffffffffffffffff1663d1e47bb33360066040518363ffffffff1660e01b8152600401610c6c92919061537b565b60206040518083038186803b158015610c8457600080fd5b505afa158015610c98573d6000803e3d6000fd5b505050506040513d601f19601f82011682018060405250810190610cbc9190614728565b610cfb576040517f08c379a0000000000000000000000000000000000000000000000000000000008152600401610cf2906155c5565b60405180910390fd5b600180811115610d34577f4e487b7100000000000000000000000000000000000000000000000000000000600052602160045260246000fd5b600460008463ffffffff1663ffffffff16815260200190815260200160002060000160119054906101000a900460ff166001811115610d9c577f4e487b7100000000000000000000000000000000000000000000000000000000600052602160045260246000fd5b14610ddc576040517f08c379a0000000000000000000000000000000000000000000000000000000008152600401610dd390615445565b60405180910390fd5b80600460008463ffffffff1663ffffffff16815260200190815260200160002060020160146101000a81548160ff02191690836002811115610e47577f4e487b7100000000000000000000000000000000000000000000000000000000600052602160045260246000fd5b02179055508163ffffffff167fab130106cad960e950d3b5ff9c896fdd5af7f3144699e12c2c8429afd4abd7ab82604051610e8291906153bf565b60405180910390a25050565b610e9661418e565b6000808363ffffffff1663ffffffff1681526020019081526020016000206040518060c00160405290816000820160009054906101000a900463ffffffff1663ffffffff1663ffffffff1681526020016000820160049054906101000a900463ffffffff1663ffffffff1663ffffffff1681526020016000820160089054906101000a900463ffffffff1663ffffffff1663ffffffff16815260200160008201600c9054906101000a900473ffffffffffffffffffffffffffffffffffffffff1673ffffffffffffffffffffffffffffffffffffffff1673ffffffffffffffffffffffffffffffffffffffff1681526020016001820160009054906101000a900460ff16151515158152602001600282018054610fb290615ce1565b80601f0160208091040260200160405190810160405280929190818152602001828054610fde90615ce1565b801561102b5780601f106110005761010080835404028352916020019161102b565b820191906000526020600020905b81548152906001019060200180831161100e57829003601f168201915b5050505050815250509050919050565b80600660006101000a81548173ffffffffffffffffffffffffffffffffffffffff021916908373ffffffffffffffffffffffffffffffffffffffff16021790555050565b6110876141ee565b600260008363ffffffff1663ffffffff1681526020019081526020016000206040518060800160405290816000820160009054906101000a900463ffffffff1663ffffffff1663ffffffff1681526020016001820180546110e790615ce1565b80601f016020809104026020016040519081016040528092919081815260200182805461111390615ce1565b80156111605780601f1061113557610100808354040283529160200191611160565b820191906000526020600020905b81548152906001019060200180831161114357829003601f168201915b505050505081526020016002820154815260200160038201805461118390615ce1565b80601f01602080910402602001604051908101604052809291908181526020018280546111af90615ce1565b80156111fc5780601f106111d1576101008083540402835291602001916111fc565b820191906000526020600020905b8154815290600101906020018083116111df57829003601f168201915b5050505050815250509050919050565b60006020528060005260406000206000915090508060000160009054906101000a900463ffffffff16908060000160049054906101000a900463ffffffff16908060000160089054906101000a900463ffffffff169080600001600c9054906101000a900473ffffffffffffffffffffffffffffffffffffffff16908060010160009054906101000a900460ff16908060020180546112aa90615ce1565b80601f01602080910402602001604051908101604052809291908181526020018280546112d690615ce1565b80156113235780601f106112f857610100808354040283529160200191611323565b820191906000526020600020905b81548152906001019060200180831161130657829003601f168201915b5050505050905086565b600560009054906101000a900463ffffffff1681565b61134b61421c565b600160008363ffffffff1663ffffffff1681526020019081526020016000206040518060e00160405290816000820160009054906101000a900463ffffffff1663ffffffff1663ffffffff1681526020016001820180548060200260200160405190810160405280929190818152602001828054801561141657602002820191906000526020600020906000905b82829054906101000a900463ffffffff1663ffffffff16815260200190600401906020826003010492830192600103820291508084116113d95790505b505050505081526020016002820160009054906101000a900463ffffffff1663ffffffff1663ffffffff1681526020016002820160049054906101000a900463ffffffff1663ffffffff1663ffffffff1681526020016002820160089054906101000a900473ffffffffffffffffffffffffffffffffffffffff1673ffffffffffffffffffffffffffffffffffffffff1673ffffffffffffffffffffffffffffffffffffffff1681526020016003820180546114d190615ce1565b80601f01602080910402602001604051908101604052809291908181526020018280546114fd90615ce1565b801561154a5780601f1061151f5761010080835404028352916020019161154a565b820191906000526020600020905b81548152906001019060200180831161152d57829003601f168201915b5050505050815260200160048201805461156390615ce1565b80601f016020809104026020016040519081016040528092919081815260200182805461158f90615ce1565b80156115dc5780601f106115b1576101008083540402835291602001916115dc565b820191906000526020600020905b8154815290600101906020018083116115bf57829003601f168201915b5050505050815250509050919050565b600660009054906101000a900473ffffffffffffffffffffffffffffffffffffffff1673ffffffffffffffffffffffffffffffffffffffff1663d1e47bb33360066040518363ffffffff1660e01b815260040161164a92919061537b565b60206040518083038186803b15801561166257600080fd5b505afa158015611676573d6000803e3d6000fd5b505050506040513d601f19601f8201168201806040525081019061169a9190614728565b6116d9576040517f08c379a00000000000000000000000000000000000000000000000000000000081526004016116d0906155c5565b60405180910390fd5b600160008363ffffffff1663ffffffff16815260200190815260200160002060020160009054906101000a900463ffffffff1663ffffffff168163ffffffff16111561175a576040517f08c379a000000000000000000000000000000000000000000000000000000000815260040161175190615565565b60405180910390fd5b6000600160008463ffffffff1663ffffffff16815260200190815260200160002060020160049054906101000a900463ffffffff168261179a9190615b1d565b9050600082600160008663ffffffff1663ffffffff16815260200190815260200160002060020160009054906101000a900463ffffffff166117dc9190615b5b565b905080600160008663ffffffff1663ffffffff16815260200190815260200160002060020160006101000a81548163ffffffff021916908363ffffffff1602179055506005600081819054906101000a900463ffffffff168092919061184190615d13565b91906101000a81548163ffffffff021916908363ffffffff16021790555050604051806101800160405280600560009054906101000a900463ffffffff1663ffffffff1681526020018563ffffffff1681526020018463ffffffff1681526020018363ffffffff168152602001600015158152602001600060018111156118f1577f4e487b7100000000000000000000000000000000000000000000000000000000600052602160045260246000fd5b8152602001600160008763ffffffff1663ffffffff16815260200190815260200160002060020160089054906101000a900473ffffffffffffffffffffffffffffffffffffffff1673ffffffffffffffffffffffffffffffffffffffff1681526020013373ffffffffffffffffffffffffffffffffffffffff168152602001600060028111156119aa577f4e487b7100000000000000000000000000000000000000000000000000000000600052602160045260246000fd5b81526020016040518060200160405280600081525081526020016000151581526020016000151581525060046000600560009054906101000a900463ffffffff1663ffffffff1663ffffffff16815260200190815260200160002060008201518160000160006101000a81548163ffffffff021916908363ffffffff16021790555060208201518160000160046101000a81548163ffffffff021916908363ffffffff16021790555060408201518160000160086101000a81548163ffffffff021916908363ffffffff160217905550606082015181600001600c6101000a81548163ffffffff021916908363ffffffff16021790555060808201518160000160106101000a81548160ff02191690831515021790555060a08201518160000160116101000a81548160ff02191690836001811115611b12577f4e487b7100000000000000000000000000000000000000000000000000000000600052602160045260246000fd5b021790555060c08201518160010160006101000a81548173ffffffffffffffffffffffffffffffffffffffff021916908373ffffffffffffffffffffffffffffffffffffffff16021790555060e08201518160020160006101000a81548173ffffffffffffffffffffffffffffffffffffffff021916908373ffffffffffffffffffffffffffffffffffffffff1602179055506101008201518160020160146101000a81548160ff02191690836002811115611bf7577f4e487b7100000000000000000000000000000000000000000000000000000000600052602160045260246000fd5b0217905550610120820151816003019080519060200190611c19929190614281565b506101408201518160040160006101000a81548160ff0219169083151502179055506101608201518160040160016101000a81548160ff0219169083151502179055509050503373ffffffffffffffffffffffffffffffffffffffff167fa0e84f4dba1ea97bb938c4d3ff9475e68dacbd58f3086c672b0605ad53d76dc185604051611ca591906156cf565b60405180910390a250505050565b6005600c9054906101000a900460ff1615611d03576040517f08c379a0000000000000000000000000000000000000000000000000000000008152600401611cfa906155a5565b60405180910390fd5b80600660006101000a81548173ffffffffffffffffffffffffffffffffffffffff021916908373ffffffffffffffffffffffffffffffffffffffff16021790555060016005600c6101000a81548160ff02191690831515021790555050565b611d6a614307565b600460008363ffffffff1663ffffffff168152602001908152602001600020604051806101800160405290816000820160009054906101000a900463ffffffff1663ffffffff1663ffffffff1681526020016000820160049054906101000a900463ffffffff1663ffffffff1663ffffffff1681526020016000820160089054906101000a900463ffffffff1663ffffffff1663ffffffff16815260200160008201600c9054906101000a900463ffffffff1663ffffffff1663ffffffff1681526020016000820160109054906101000a900460ff161515151581526020016000820160119054906101000a900460ff166001811115611e93577f4e487b7100000000000000000000000000000000000000000000000000000000600052602160045260246000fd5b6001811115611ecb577f4e487b7100000000000000000000000000000000000000000000000000000000600052602160045260246000fd5b81526020016001820160009054906101000a900473ffffffffffffffffffffffffffffffffffffffff1673ffffffffffffffffffffffffffffffffffffffff1673ffffffffffffffffffffffffffffffffffffffff1681526020016002820160009054906101000a900473ffffffffffffffffffffffffffffffffffffffff1673ffffffffffffffffffffffffffffffffffffffff1673ffffffffffffffffffffffffffffffffffffffff1681526020016002820160149054906101000a900460ff166002811115611fc6577f4e487b7100000000000000000000000000000000000000000000000000000000600052602160045260246000fd5b6002811115611ffe577f4e487b7100000000000000000000000000000000000000000000000000000000600052602160045260246000fd5b815260200160038201805461201290615ce1565b80601f016020809104026020016040519081016040528092919081815260200182805461203e90615ce1565b801561208b5780601f106120605761010080835404028352916020019161208b565b820191906000526020600020905b81548152906001019060200180831161206e57829003601f168201915b505050505081526020016004820160009054906101000a900460ff161515151581526020016004820160019054906101000a900460ff1615151515815250509050919050565b600560089054906101000a900463ffffffff1681565b60046020528060005260406000206000915090508060000160009054906101000a900463ffffffff16908060000160049054906101000a900463ffffffff16908060000160089054906101000a900463ffffffff169080600001600c9054906101000a900463ffffffff16908060000160109054906101000a900460ff16908060000160119054906101000a900460ff16908060010160009054906101000a900473ffffffffffffffffffffffffffffffffffffffff16908060020160009054906101000a900473ffffffffffffffffffffffffffffffffffffffff16908060020160149054906101000a900460ff16908060030180546121e790615ce1565b80601f016020809104026020016040519081016040528092919081815260200182805461221390615ce1565b80156122605780601f1061223557610100808354040283529160200191612260565b820191906000526020600020905b81548152906001019060200180831161224357829003601f168201915b5050505050908060040160009054906101000a900460ff16908060040160019054906101000a900460ff1690508c565b60036020528060005260406000206000915090508060000160009054906101000a900463ffffffff16908060000160049054906101000a900473ffffffffffffffffffffffffffffffffffffffff16908060010160009054906101000a900473ffffffffffffffffffffffffffffffffffffffff16908060010160149054906101000a900463ffffffff16908060010160189054906101000a900460ff169080600201549080600301805461234490615ce1565b80601f016020809104026020016040519081016040528092919081815260200182805461237090615ce1565b80156123bd5780601f10612392576101008083540402835291602001916123bd565b820191906000526020600020905b8154815290600101906020018083116123a057829003601f168201915b5050505050905087565b6000600560009054906101000a900463ffffffff16905090565b600660009054906101000a900473ffffffffffffffffffffffffffffffffffffffff1673ffffffffffffffffffffffffffffffffffffffff1663d1e47bb33360056040518363ffffffff1660e01b815260040161243f92919061537b565b60206040518083038186803b15801561245757600080fd5b505afa15801561246b573d6000803e3d6000fd5b505050506040513d601f19601f8201168201806040525081019061248f9190614728565b6124ce576040517f08c379a00000000000000000000000000000000000000000000000000000000081526004016124c590615605565b60405180910390fd5b600560009054906101000a900463ffffffff1663ffffffff168263ffffffff16111561252f576040517f08c379a000000000000000000000000000000000000000000000000000000000815260040161252690615485565b60405180910390fd5b80600460008463ffffffff1663ffffffff16815260200190815260200160002060000160116101000a81548160ff0219169083600181111561259a577f4e487b7100000000000000000000000000000000000000000000000000000000600052602160045260246000fd5b02179055508163ffffffff167ff84820c84ecbec116ee0604a91f0bec4a5d5926d8d5189a13f57fc30951d4b91826040516125d591906153da565b60405180910390a25050565b6000600560009054906101000a900463ffffffff16905090565b600660009054906101000a900473ffffffffffffffffffffffffffffffffffffffff1681565b600660009054906101000a900473ffffffffffffffffffffffffffffffffffffffff1673ffffffffffffffffffffffffffffffffffffffff1663d1e47bb33360036040518363ffffffff1660e01b815260040161267f92919061537b565b60206040518083038186803b15801561269757600080fd5b505afa1580156126ab573d6000803e3d6000fd5b505050506040513d601f19601f820116820180604052508101906126cf9190614728565b61270e576040517f08c379a000000000000000000000000000000000000000000000000000000000815260040161270590615585565b60405180910390fd5b6000835167ffffffffffffffff811115612751577f4e487b7100000000000000000000000000000000000000000000000000000000600052604160045260246000fd5b60405190808252806020026020018201604052801561277f5781602001602082028036833780820191505090505b5090506000805b85518163ffffffff161015612b5f57600560049054906101000a900463ffffffff1663ffffffff16868263ffffffff16815181106127ed577f4e487b7100000000000000000000000000000000000000000000000000000000600052603260045260246000fd5b602002602001015163ffffffff16111561283c576040517f08c379a0000000000000000000000000000000000000000000000000000000008152600401612833906155e5565b60405180910390fd5b6000806000888463ffffffff1681518110612880577f4e487b7100000000000000000000000000000000000000000000000000000000600052603260045260246000fd5b602002602001015163ffffffff1663ffffffff1681526020019081526020016000206040518060c00160405290816000820160009054906101000a900463ffffffff1663ffffffff1663ffffffff1681526020016000820160049054906101000a900463ffffffff1663ffffffff1663ffffffff1681526020016000820160089054906101000a900463ffffffff1663ffffffff1663ffffffff16815260200160008201600c9054906101000a900473ffffffffffffffffffffffffffffffffffffffff1673ffffffffffffffffffffffffffffffffffffffff1673ffffffffffffffffffffffffffffffffffffffff1681526020016001820160009054906101000a900460ff161515151581526020016002820180546129a090615ce1565b80601f01602080910402602001604051908101604052809291908181526020018280546129cc90615ce1565b8015612a195780601f106129ee57610100808354040283529160200191612a19565b820191906000526020600020905b8154815290600101906020018083116129fc57829003601f168201915b50505050508152505090508060200151848363ffffffff1681518110612a68577f4e487b7100000000000000000000000000000000000000000000000000000000600052603260045260246000fd5b602002602001019063ffffffff16908163ffffffff1681525050806040015183612a929190615ae3565b92503373ffffffffffffffffffffffffffffffffffffffff16816060015173ffffffffffffffffffffffffffffffffffffffff1614612b06576040517f08c379a0000000000000000000000000000000000000000000000000000000008152600401612afd90615425565b60405180910390fd5b806080015115612b4b576040517f08c379a0000000000000000000000000000000000000000000000000000000008152600401612b42906154e5565b60405180910390fd5b508080612b5790615d13565b915050612786565b506005600881819054906101000a900463ffffffff1680929190612b8290615d13565b91906101000a81548163ffffffff021916908363ffffffff1602179055505060005b85518163ffffffff161015612c46576001600080888463ffffffff1681518110612bf7577f4e487b7100000000000000000000000000000000000000000000000000000000600052603260045260246000fd5b602002602001015163ffffffff1663ffffffff16815260200190815260200160002060010160006101000a81548160ff0219169083151502179055508080612c3e90615d13565b915050612ba4565b506040518060e00160405280600560089054906101000a900463ffffffff1663ffffffff1681526020018381526020018263ffffffff1681526020018463ffffffff1681526020013373ffffffffffffffffffffffffffffffffffffffff1681526020018581526020016040518060200160405280600081525081525060016000600560089054906101000a900463ffffffff1663ffffffff1663ffffffff16815260200190815260200160002060008201518160000160006101000a81548163ffffffff021916908363ffffffff1602179055506020820151816001019080519060200190612d37929190614422565b5060408201518160020160006101000a81548163ffffffff021916908363ffffffff16021790555060608201518160020160046101000a81548163ffffffff021916908363ffffffff16021790555060808201518160020160086101000a81548173ffffffffffffffffffffffffffffffffffffffff021916908373ffffffffffffffffffffffffffffffffffffffff16021790555060a0820151816003019080519060200190612de9929190614281565b5060c0820151816004019080519060200190612e06929190614281565b509050503373ffffffffffffffffffffffffffffffffffffffff167f499d3f5837e61d77a364db177a5e0ba2d02b9a2316f1264fffa374d94a9a12b1600560089054906101000a900463ffffffff168386604051612e6693929190615821565b60405180910390a25050505050565b60016020528060005260406000206000915090508060000160009054906101000a900463ffffffff16908060020160009054906101000a900463ffffffff16908060020160049054906101000a900463ffffffff16908060020160089054906101000a900473ffffffffffffffffffffffffffffffffffffffff1690806003018054612f0090615ce1565b80601f0160208091040260200160405190810160405280929190818152602001828054612f2c90615ce1565b8015612f795780601f10612f4e57610100808354040283529160200191612f79565b820191906000526020600020905b815481529060010190602001808311612f5c57829003601f168201915b505050505090806004018054612f8e90615ce1565b80601f0160208091040260200160405190810160405280929190818152602001828054612fba90615ce1565b80156130075780601f10612fdc57610100808354040283529160200191613007565b820191906000526020600020905b815481529060010190602001808311612fea57829003601f168201915b5050505050905086565b6005600481819054906101000a900463ffffffff168092919061303390615d13565b91906101000a81548163ffffffff021916908363ffffffff160217905550506040518060c00160405280600560049054906101000a900463ffffffff1663ffffffff1681526020018463ffffffff1681526020018363ffffffff1681526020018273ffffffffffffffffffffffffffffffffffffffff16815260200160001515815260200160405180602001604052806000815250815250600080600560049054906101000a900463ffffffff1663ffffffff1663ffffffff16815260200190815260200160002060008201518160000160006101000a81548163ffffffff021916908363ffffffff16021790555060208201518160000160046101000a81548163ffffffff021916908363ffffffff16021790555060408201518160000160086101000a81548163ffffffff021916908363ffffffff160217905550606082015181600001600c6101000a81548173ffffffffffffffffffffffffffffffffffffffff021916908373ffffffffffffffffffffffffffffffffffffffff16021790555060808201518160010160006101000a81548160ff02191690831515021790555060a08201518160020190805190602001906131f3929190614281565b50905050600560049054906101000a900463ffffffff1663ffffffff167f3d078b1c3921ddadb756791c1a070b903bcb0cd941a1df4de6eed059fb6e06db83856040516132419291906157f8565b60405180910390a2505050565b600660009054906101000a900473ffffffffffffffffffffffffffffffffffffffff1673ffffffffffffffffffffffffffffffffffffffff1663d1e47bb33360066040518363ffffffff1660e01b81526004016132ac92919061537b565b60206040518083038186803b1580156132c457600080fd5b505afa1580156132d8573d6000803e3d6000fd5b505050506040513d601f19601f820116820180604052508101906132fc9190614728565b61333b576040517f08c379a0000000000000000000000000000000000000000000000000000000008152600401613332906155c5565b60405180910390fd5b600560009054906101000a900463ffffffff1663ffffffff168263ffffffff16111561339c576040517f08c379a000000000000000000000000000000000000000000000000000000000815260040161339390615485565b60405180910390fd5b80600460008463ffffffff1663ffffffff16815260200190815260200160002060040160006101000a81548160ff0219169083151502179055505050565b600660009054906101000a900473ffffffffffffffffffffffffffffffffffffffff1673ffffffffffffffffffffffffffffffffffffffff1663d1e47bb33360056040518363ffffffff1660e01b815260040161343892919061537b565b60206040518083038186803b15801561345057600080fd5b505afa158015613464573d6000803e3d6000fd5b505050506040513d601f19601f820116820180604052508101906134889190614728565b6134c7576040517f08c379a00000000000000000000000000000000000000000000000000000000081526004016134be90615605565b60405180910390fd5b600560009054906101000a900463ffffffff1663ffffffff168263ffffffff161115613528576040517f08c379a000000000000000000000000000000000000000000000000000000000815260040161351f90615485565b60405180910390fd5b600460008363ffffffff1663ffffffff16815260200190815260200160002060040160019054906101000a900460ff1615613598576040517f08c379a000000000000000000000000000000000000000000000000000000000815260040161358f906154c5565b60405180910390fd5b6001600460008463ffffffff1663ffffffff16815260200190815260200160002060040160016101000a81548160ff02191690831515021790555060405180608001604052808363ffffffff16815260200182815260200142815260200160405180602001604052806000815250815250600260008463ffffffff1663ffffffff16815260200190815260200160002060008201518160000160006101000a81548163ffffffff021916908363ffffffff160217905550602082015181600101908051906020019061366b929190614281565b50604082015181600201556060820151816003019080519060200190613692929190614281565b509050508163ffffffff167f85a6dd7e3bffc328a15679316ce7c104a56122ec56d15beab290adac6fceda1882426040516136ce9291906153f5565b60405180910390a25050565b600660009054906101000a900473ffffffffffffffffffffffffffffffffffffffff1673ffffffffffffffffffffffffffffffffffffffff1663d1e47bb33360066040518363ffffffff1660e01b815260040161373892919061537b565b60206040518083038186803b15801561375057600080fd5b505afa158015613764573d6000803e3d6000fd5b505050506040513d601f19601f820116820180604052508101906137889190614728565b6137c7576040517f08c379a00000000000000000000000000000000000000000000000000000000081526004016137be906155c5565b60405180910390fd5b600060016000600460008763ffffffff1663ffffffff16815260200190815260200160002060000160049054906101000a900463ffffffff1663ffffffff1663ffffffff1681526020019081526020016000206040518060e00160405290816000820160009054906101000a900463ffffffff1663ffffffff1663ffffffff168152602001600182018054806020026020016040519081016040528092919081815260200182805480156138c657602002820191906000526020600020906000905b82829054906101000a900463ffffffff1663ffffffff16815260200190600401906020826003010492830192600103820291508084116138895790505b505050505081526020016002820160009054906101000a900463ffffffff1663ffffffff1663ffffffff1681526020016002820160049054906101000a900463ffffffff1663ffffffff1663ffffffff1681526020016002820160089054906101000a900473ffffffffffffffffffffffffffffffffffffffff1673ffffffffffffffffffffffffffffffffffffffff1673ffffffffffffffffffffffffffffffffffffffff16815260200160038201805461398190615ce1565b80601f01602080910402602001604051908101604052809291908181526020018280546139ad90615ce1565b80156139fa5780601f106139cf576101008083540402835291602001916139fa565b820191906000526020600020905b8154815290600101906020018083116139dd57829003601f168201915b50505050508152602001600482018054613a1390615ce1565b80601f0160208091040260200160405190810160405280929190818152602001828054613a3f90615ce1565b8015613a8c5780601f10613a6157610100808354040283529160200191613a8c565b820191906000526020600020905b815481529060010190602001808311613a6f57829003601f168201915b5050505050815250509050600460008563ffffffff1663ffffffff168152602001908152602001600020600001600c9054906101000a900463ffffffff1663ffffffff168363ffffffff1614613b17576040517f08c379a0000000000000000000000000000000000000000000000000000000008152600401613b0e906154a5565b60405180910390fd5b600460008563ffffffff1663ffffffff16815260200190815260200160002060000160109054906101000a900460ff1615613b87576040517f08c379a0000000000000000000000000000000000000000000000000000000008152600401613b7e90615525565b60405180910390fd5b60016002811115613bc1577f4e487b7100000000000000000000000000000000000000000000000000000000600052602160045260246000fd5b600460008663ffffffff1663ffffffff16815260200190815260200160002060020160149054906101000a900460ff166002811115613c29577f4e487b7100000000000000000000000000000000000000000000000000000000600052602160045260246000fd5b14613c69576040517f08c379a0000000000000000000000000000000000000000000000000000000008152600401613c6090615465565b60405180910390fd5b6001600460008663ffffffff1663ffffffff16815260200190815260200160002060000160106101000a81548160ff0219169083151502179055506040518060e001604052808563ffffffff1681526020013373ffffffffffffffffffffffffffffffffffffffff168152602001600460008763ffffffff1663ffffffff16815260200190815260200160002060010160009054906101000a900473ffffffffffffffffffffffffffffffffffffffff1673ffffffffffffffffffffffffffffffffffffffff1681526020018463ffffffff168152602001836002811115613d7a577f4e487b7100000000000000000000000000000000000000000000000000000000600052602160045260246000fd5b815260200142815260200160405180602001604052806000815250815250600360008663ffffffff1663ffffffff16815260200190815260200160002060008201518160000160006101000a81548163ffffffff021916908363ffffffff16021790555060208201518160000160046101000a81548173ffffffffffffffffffffffffffffffffffffffff021916908373ffffffffffffffffffffffffffffffffffffffff16021790555060408201518160010160006101000a81548173ffffffffffffffffffffffffffffffffffffffff021916908373ffffffffffffffffffffffffffffffffffffffff16021790555060608201518160010160146101000a81548163ffffffff021916908363ffffffff16021790555060808201518160010160186101000a81548160ff02191690836002811115613ee4577f4e487b7100000000000000000000000000000000000000000000000000000000600052602160045260246000fd5b021790555060a0820151816002015560c0820151816003019080519060200190613f0f929190614281565b50905050806000015163ffffffff167fd9f037670aada9b07156110dd936887c158e5cd6f7932663cc64ef336e44cf9f85338686604051613f539493929190615760565b60405180910390a250505050565b600560049054906101000a900463ffffffff1681565b60026020528060005260406000206000915090508060000160009054906101000a900463ffffffff1690806001018054613fb090615ce1565b80601f0160208091040260200160405190810160405280929190818152602001828054613fdc90615ce1565b80156140295780601f10613ffe57610100808354040283529160200191614029565b820191906000526020600020905b81548152906001019060200180831161400c57829003601f168201915b50505050509080600201549080600301805461404490615ce1565b80601f016020809104026020016040519081016040528092919081815260200182805461407090615ce1565b80156140bd5780601f10614092576101008083540402835291602001916140bd565b820191906000526020600020905b8154815290600101906020018083116140a057829003601f168201915b5050505050905084565b6000600560009054906101000a900463ffffffff16905090565b6040518060e00160405280600063ffffffff168152602001600073ffffffffffffffffffffffffffffffffffffffff168152602001600073ffffffffffffffffffffffffffffffffffffffff168152602001600063ffffffff1681526020016000600281111561417a577f4e487b7100000000000000000000000000000000000000000000000000000000600052602160045260246000fd5b815260200160008152602001606081525090565b6040518060c00160405280600063ffffffff168152602001600063ffffffff168152602001600063ffffffff168152602001600073ffffffffffffffffffffffffffffffffffffffff168152602001600015158152602001606081525090565b6040518060800160405280600063ffffffff1681526020016060815260200160008152602001606081525090565b6040518060e00160405280600063ffffffff16815260200160608152602001600063ffffffff168152602001600063ffffffff168152602001600073ffffffffffffffffffffffffffffffffffffffff16815260200160608152602001606081525090565b82805461428d90615ce1565b90600052602060002090601f0160209004810192826142af57600085556142f6565b82601f106142c857805160ff19168380011785556142f6565b828001600101855582156142f6579182015b828111156142f55782518255916020019190600101906142da565b5b50905061430391906144d2565b5090565b604051806101800160405280600063ffffffff168152602001600063ffffffff168152602001600063ffffffff168152602001600063ffffffff1681526020016000151581526020016000600181111561438a577f4e487b7100000000000000000000000000000000000000000000000000000000600052602160045260246000fd5b8152602001600073ffffffffffffffffffffffffffffffffffffffff168152602001600073ffffffffffffffffffffffffffffffffffffffff16815260200160006002811115614403577f4e487b7100000000000000000000000000000000000000000000000000000000600052602160045260246000fd5b8152602001606081526020016000151581526020016000151581525090565b828054828255906000526020600020906007016008900481019282156144c15791602002820160005b8382111561448f57835183826101000a81548163ffffffff021916908363ffffffff160217905550926020019260040160208160030104928301926001030261444b565b80156144bf5782816101000a81549063ffffffff021916905560040160208160030104928301926001030261448f565b505b5090506144ce91906144d2565b5090565b5b808211156144eb5760008160009055506001016144d3565b5090565b60006145026144fd84615a21565b6159f0565b9050808382526020820190508285602086028201111561452157600080fd5b60005b858110156145515781614537888261466b565b845260208401935060208301925050600181019050614524565b5050509392505050565b600061456e61456984615a4d565b6159f0565b90508281526020810184848401111561458657600080fd5b614591848285615c9f565b509392505050565b6000813590506145a881615e5d565b92915050565b600082601f8301126145bf57600080fd5b81356145cf8482602086016144ef565b91505092915050565b6000813590506145e781615e74565b92915050565b6000815190506145fc81615e74565b92915050565b60008135905061461181615e8b565b92915050565b60008135905061462681615e9b565b92915050565b60008135905061463b81615eab565b92915050565b600082601f83011261465257600080fd5b813561466284826020860161455b565b91505092915050565b60008135905061467a81615ebb565b92915050565b60006020828403121561469257600080fd5b60006146a084828501614599565b91505092915050565b6000806000606084860312156146be57600080fd5b600084013567ffffffffffffffff8111156146d857600080fd5b6146e4868287016145ae565b935050602084013567ffffffffffffffff81111561470157600080fd5b61470d86828701614641565b925050604061471e8682870161466b565b9150509250925092565b60006020828403121561473a57600080fd5b6000614748848285016145ed565b91505092915050565b60006020828403121561476357600080fd5b60006147718482850161466b565b91505092915050565b6000806040838503121561478d57600080fd5b600061479b8582860161466b565b92505060206147ac858286016145d8565b9150509250929050565b600080604083850312156147c957600080fd5b60006147d78582860161466b565b92505060206147e885828601614617565b9150509250929050565b6000806040838503121561480557600080fd5b60006148138582860161466b565b92505060206148248582860161462c565b9150509250929050565b6000806040838503121561484157600080fd5b600061484f8582860161466b565b925050602083013567ffffffffffffffff81111561486c57600080fd5b61487885828601614641565b9150509250929050565b6000806040838503121561489557600080fd5b60006148a38582860161466b565b92505060206148b48582860161466b565b9150509250929050565b6000806000606084860312156148d357600080fd5b60006148e18682870161466b565b93505060206148f28682870161466b565b925050604061490386828701614599565b9150509250925092565b60008060006060848603121561492257600080fd5b60006149308682870161466b565b93505060206149418682870161466b565b925050604061495286828701614602565b9150509250925092565b6000614968838361535d565b60208301905092915050565b61497d81615b8f565b82525050565b61498c81615b8f565b82525050565b600061499d82615a8d565b6149a78185615ab0565b93506149b283615a7d565b8060005b838110156149e35781516149ca888261495c565b97506149d583615aa3565b9250506001810190506149b6565b5085935050505092915050565b6149f981615ba1565b82525050565b614a0881615ba1565b82525050565b614a1781615c33565b82525050565b614a2681615c57565b82525050565b614a3581615c57565b82525050565b614a4481615c69565b82525050565b614a5381615c7b565b82525050565b614a6281615c7b565b82525050565b614a7181615c8d565b82525050565b614a8081615c8d565b82525050565b6000614a9182615a98565b614a9b8185615ac1565b9350614aab818560208601615cae565b614ab481615dfc565b840191505092915050565b6000614aca82615a98565b614ad48185615ad2565b9350614ae4818560208601615cae565b614aed81615dfc565b840191505092915050565b6000614b05602a83615ad2565b91507f566f7573206e27657374207061732070726f707269657461697265206465206360008301527f652070726f647569742e000000000000000000000000000000000000000000006020830152604082019050919050565b6000614b6b601a83615ad2565b91507f436f6d6d616e64652070617320656e636f7265206c697672652e0000000000006000830152602082019050919050565b6000614bab601583615ad2565b91507f436f6d6d616e6465206e6f6e2076616c696465722e00000000000000000000006000830152602082019050919050565b6000614beb601983615ad2565b91507f4c6120636f6d6d616e6465206e27657869737465207061732e000000000000006000830152602082019050919050565b6000614c2b601183615ad2565b91507f4d6f6e74616e7420696e636f72726563740000000000000000000000000000006000830152602082019050919050565b6000614c6b602783615ad2565b91507f496c207920612064656a612064657320636f6e646974696f6e7320656e72656760008301527f6973747265722e000000000000000000000000000000000000000000000000006020830152604082019050919050565b6000614cd1602183615ad2565b91507f50726f647569742064656a6120656e726567697374726520636f6d6d65206c6f60008301527f74000000000000000000000000000000000000000000000000000000000000006020830152604082019050919050565b6000614d37602a83615ad2565b91507f566f7573206e2765746573207061732070726f7072696574616972652064652060008301527f63652070726f64756974000000000000000000000000000000000000000000006020830152604082019050919050565b6000614d9d601383615ad2565b91507f436f6d6d616e64652064656a61207061796572000000000000000000000000006000830152602082019050919050565b6000614ddd600b83615ad2565b91507f496420696e636f726563740000000000000000000000000000000000000000006000830152602082019050919050565b6000614e1d601183615ad2565b91507f5175616e7469746520696e76616c6964650000000000000000000000000000006000830152602082019050919050565b6000614e5d602283615ad2565b91507f4e6f6e206175746f726973653a207365756c656d656e7420436f6c6c6563746560008301527f75720000000000000000000000000000000000000000000000000000000000006020830152604082019050919050565b6000614ec3601a83615ad2565b91507f436f6e747261742064656a6120696e697469616c6973657220210000000000006000830152602082019050919050565b6000614f03602383615ad2565b91507f4e6f6e206175746f726973653a207365756c656d656e74204578706f7274617460008301527f65757200000000000000000000000000000000000000000000000000000000006020830152604082019050919050565b6000614f69601583615ad2565b91507f50726f64756974206e6f6e206578697374616e742e00000000000000000000006000830152602082019050919050565b6000614fa9602483615ad2565b91507f4e6f6e206175746f726973653a207365756c656d656e74205472616e73706f7260008301527f74657572000000000000000000000000000000000000000000000000000000006020830152604082019050919050565b60006101808301600083015161501b600086018261535d565b50602083015161502e602086018261535d565b506040830151615041604086018261535d565b506060830151615054606086018261535d565b50608083015161506760808601826149f0565b5060a083015161507a60a0860182614a68565b5060c083015161508d60c0860182614974565b5060e08301516150a060e0860182614974565b506101008301516150b5610100860182614a4a565b506101208301518482036101208601526150cf8282614a86565b9150506101408301516150e66101408601826149f0565b506101608301516150fb6101608601826149f0565b508091505092915050565b600060808301600083015161511e600086018261535d565b50602083015184820360208601526151368282614a86565b915050604083015161514b604086018261533f565b50606083015184820360608601526151638282614a86565b9150508091505092915050565b600060e083016000830151615188600086018261535d565b50602083015184820360208601526151a08282614992565b91505060408301516151b5604086018261535d565b5060608301516151c8606086018261535d565b5060808301516151db6080860182614974565b5060a083015184820360a08601526151f38282614a86565b91505060c083015184820360c086015261520d8282614a86565b9150508091505092915050565b600060e083016000830151615232600086018261535d565b5060208301516152456020860182614974565b5060408301516152586040860182614974565b50606083015161526b606086018261535d565b50608083015161527e6080860182614a1d565b5060a083015161529160a086018261533f565b5060c083015184820360c08601526152a98282614a86565b9150508091505092915050565b600060c0830160008301516152ce600086018261535d565b5060208301516152e1602086018261535d565b5060408301516152f4604086018261535d565b5060608301516153076060860182614974565b50608083015161531a60808601826149f0565b5060a083015184820360a08601526153328282614a86565b9150508091505092915050565b61534881615c19565b82525050565b61535781615c19565b82525050565b61536681615c23565b82525050565b61537581615c23565b82525050565b60006040820190506153906000830185614983565b61539d6020830184614a3b565b9392505050565b60006020820190506153b96000830184614a0e565b92915050565b60006020820190506153d46000830184614a59565b92915050565b60006020820190506153ef6000830184614a77565b92915050565b6000604082019050818103600083015261540f8185614abf565b905061541e602083018461534e565b9392505050565b6000602082019050818103600083015261543e81614af8565b9050919050565b6000602082019050818103600083015261545e81614b5e565b9050919050565b6000602082019050818103600083015261547e81614b9e565b9050919050565b6000602082019050818103600083015261549e81614bde565b9050919050565b600060208201905081810360008301526154be81614c1e565b9050919050565b600060208201905081810360008301526154de81614c5e565b9050919050565b600060208201905081810360008301526154fe81614cc4565b9050919050565b6000602082019050818103600083015261551e81614d2a565b9050919050565b6000602082019050818103600083015261553e81614d90565b9050919050565b6000602082019050818103600083015261555e81614dd0565b9050919050565b6000602082019050818103600083015261557e81614e10565b9050919050565b6000602082019050818103600083015261559e81614e50565b9050919050565b600060208201905081810360008301526155be81614eb6565b9050919050565b600060208201905081810360008301526155de81614ef6565b9050919050565b600060208201905081810360008301526155fe81614f5c565b9050919050565b6000602082019050818103600083015261561e81614f9c565b9050919050565b6000602082019050818103600083015261563f8184615002565b905092915050565b600060208201905081810360008301526156618184615106565b905092915050565b600060208201905081810360008301526156838184615170565b905092915050565b600060208201905081810360008301526156a5818461521a565b905092915050565b600060208201905081810360008301526156c781846152b6565b905092915050565b60006020820190506156e4600083018461536c565b92915050565b600060e0820190506156ff600083018a61536c565b61570c6020830189614983565b6157196040830188614983565b615726606083018761536c565b6157336080830186614a2c565b61574060a083018561534e565b81810360c08301526157528184614abf565b905098975050505050505050565b6000608082019050615775600083018761536c565b6157826020830186614983565b61578f604083018561536c565b61579c6060830184614a2c565b95945050505050565b60006080820190506157ba600083018761536c565b81810360208301526157cc8186614abf565b90506157db604083018561534e565b81810360608301526157ed8184614abf565b905095945050505050565b600060408201905061580d600083018561536c565b61581a602083018461536c565b9392505050565b6000606082019050615836600083018661536c565b615843602083018561536c565b615850604083018461536c565b949350505050565b600060c08201905061586d600083018961536c565b61587a602083018861536c565b615887604083018761536c565b6158946060830186614983565b6158a160808301856149ff565b81810360a08301526158b38184614abf565b9050979650505050505050565b600060c0820190506158d5600083018961536c565b6158e2602083018861536c565b6158ef604083018761536c565b6158fc6060830186614983565b818103608083015261590e8185614abf565b905081810360a08301526159228184614abf565b9050979650505050505050565b600061018082019050615945600083018f61536c565b615952602083018e61536c565b61595f604083018d61536c565b61596c606083018c61536c565b615979608083018b6149ff565b61598660a083018a614a77565b61599360c0830189614983565b6159a060e0830188614983565b6159ae610100830187614a59565b8181036101208301526159c18186614abf565b90506159d16101408301856149ff565b6159df6101608301846149ff565b9d9c50505050505050505050505050565b6000604051905081810181811067ffffffffffffffff82111715615a1757615a16615dcd565b5b8060405250919050565b600067ffffffffffffffff821115615a3c57615a3b615dcd565b5b602082029050602081019050919050565b600067ffffffffffffffff821115615a6857615a67615dcd565b5b601f19601f8301169050602081019050919050565b6000819050602082019050919050565b600081519050919050565b600081519050919050565b6000602082019050919050565b600082825260208201905092915050565b600082825260208201905092915050565b600082825260208201905092915050565b6000615aee82615c23565b9150615af983615c23565b92508263ffffffff03821115615b1257615b11615d40565b5b828201905092915050565b6000615b2882615c23565b9150615b3383615c23565b92508163ffffffff0483118215151615615b5057615b4f615d40565b5b828202905092915050565b6000615b6682615c23565b9150615b7183615c23565b925082821015615b8457615b83615d40565b5b828203905092915050565b6000615b9a82615bf9565b9050919050565b60008115159050919050565b6000819050615bbb82615e0d565b919050565b6000819050615bce82615e21565b919050565b6000819050615be182615e35565b919050565b6000819050615bf482615e49565b919050565b600073ffffffffffffffffffffffffffffffffffffffff82169050919050565b6000819050919050565b600063ffffffff82169050919050565b6000615c3e82615c45565b9050919050565b6000615c5082615bf9565b9050919050565b6000615c6282615bad565b9050919050565b6000615c7482615bc0565b9050919050565b6000615c8682615bd3565b9050919050565b6000615c9882615be6565b9050919050565b82818337600083830152505050565b60005b83811015615ccc578082015181840152602081019050615cb1565b83811115615cdb576000848401525b50505050565b60006002820490506001821680615cf957607f821691505b60208210811415615d0d57615d0c615d9e565b5b50919050565b6000615d1e82615c23565b915063ffffffff821415615d3557615d34615d40565b5b600182019050919050565b7f4e487b7100000000000000000000000000000000000000000000000000000000600052601160045260246000fd5b7f4e487b7100000000000000000000000000000000000000000000000000000000600052602160045260246000fd5b7f4e487b7100000000000000000000000000000000000000000000000000000000600052602260045260246000fd5b7f4e487b7100000000000000000000000000000000000000000000000000000000600052604160045260246000fd5b6000601f19601f8301169050919050565b60038110615e1e57615e1d615d6f565b5b50565b60088110615e3257615e31615d6f565b5b50565b60038110615e4657615e45615d6f565b5b50565b60028110615e5a57615e59615d6f565b5b50565b615e6681615b8f565b8114615e7157600080fd5b50565b615e7d81615ba1565b8114615e8857600080fd5b50565b60038110615e9857600080fd5b50565b60038110615ea857600080fd5b50565b60028110615eb857600080fd5b50565b615ec481615c23565b8114615ecf57600080fd5b5056fea264697066735822122004db93c6a003da0bbbb9443319341d52f8e4c37390f1f1caac7f2a4ef52704ab64736f6c63430008000033",
  "linkReferences": {},
  "deployedLinkReferences": {}
}