{
  "_format": "hh-sol-artifact-1",
  "contractName": "CollecteurProducteur",
  "sourceName": "contracts/CollecteurProducteur.sol",
  "abi": [
    {
      "anonymous": false,
      "inputs": [
        {
          "indexed": true,
          "internalType": "uint32",
          "name": "idProduit",
          "type": "uint32"
        },
        {
          "indexed": false,
          "internalType": "uint32",
          "name": "idCondition",
          "type": "uint32"
        },
        {
          "indexed": false,
          "internalType": "string",
          "name": "temperature",
          "type": "string"
        },
        {
          "indexed": false,
          "internalType": "string",
          "name": "humidite",
          "type": "string"
        },
        {
          "indexed": false,
          "internalType": "uint256",
          "name": "timestamp",
          "type": "uint256"
        },
        {
          "indexed": false,
          "internalType": "address",
          "name": "transporteur",
          "type": "address"
        }
      ],
      "name": "ConditionEnregistree",
      "type": "event"
    },
    {
      "anonymous": false,
      "inputs": [
        {
          "indexed": true,
          "internalType": "uint32",
          "name": "idCommande",
          "type": "uint32"
        },
        {
          "indexed": false,
          "internalType": "enum StructLib.StatutTransport",
          "name": "statut",
          "type": "uint8"
        },
        {
          "indexed": false,
          "internalType": "address",
          "name": "transporteur",
          "type": "address"
        }
      ],
      "name": "StatutTransportMisAJour",
      "type": "event"
    },
    {
      "anonymous": false,
      "inputs": [
        {
          "indexed": true,
          "internalType": "uint32",
          "name": "idCommande",
          "type": "uint32"
        },
        {
          "indexed": false,
          "internalType": "bool",
          "name": "status",
          "type": "bool"
        }
      ],
      "name": "ValidationCommandeRecolte",
      "type": "event"
    },
    {
      "inputs": [
        {
          "internalType": "uint32",
          "name": "_idParcelle",
          "type": "uint32"
        },
        {
          "internalType": "uint32",
          "name": "_quantite",
          "type": "uint32"
        },
        {
          "internalType": "uint32",
          "name": "_prix",
          "type": "uint32"
        },
        {
          "internalType": "string",
          "name": "_dateRecolte",
          "type": "string"
        },
        {
          "internalType": "string",
          "name": "_nomProduit",
          "type": "string"
        }
      ],
      "name": "ajoutRecolte",
      "outputs": [],
      "stateMutability": "nonpayable",
      "type": "function"
    },
    {
      "inputs": [
        {
          "internalType": "uint32",
          "name": "_idRecolte",
          "type": "uint32"
        },
        {
          "internalType": "string",
          "name": "_certificat",
          "type": "string"
        }
      ],
      "name": "certifieRecolte",
      "outputs": [],
      "stateMutability": "nonpayable",
      "type": "function"
    },
    {
      "inputs": [
        {
          "internalType": "uint32",
          "name": "",
          "type": "uint32"
        }
      ],
      "name": "commandes",
      "outputs": [
        {
          "internalType": "uint32",
          "name": "id",
          "type": "uint32"
        },
        {
          "internalType": "uint32",
          "name": "idRecolte",
          "type": "uint32"
        },
        {
          "internalType": "uint32",
          "name": "quantite",
          "type": "uint32"
        },
        {
          "internalType": "uint32",
          "name": "prix",
          "type": "uint32"
        },
        {
          "internalType": "bool",
          "name": "payer",
          "type": "bool"
        },
        {
          "internalType": "enum StructLib.StatutTransport",
          "name": "statutTransport",
          "type": "uint8"
        },
        {
          "internalType": "address",
          "name": "producteur",
          "type": "address"
        },
        {
          "internalType": "address",
          "name": "collecteur",
          "type": "address"
        },
        {
          "internalType": "enum StructLib.StatutProduit",
          "name": "statutRecolte",
          "type": "uint8"
        }
      ],
      "stateMutability": "view",
      "type": "function"
    },
    {
      "inputs": [],
      "name": "compteurCommandes",
      "outputs": [
        {
          "internalType": "uint32",
          "name": "",
          "type": "uint32"
        }
      ],
      "stateMutability": "view",
      "type": "function"
    },
    {
      "inputs": [],
      "name": "compteurConditions",
      "outputs": [
        {
          "internalType": "uint32",
          "name": "",
          "type": "uint32"
        }
      ],
      "stateMutability": "view",
      "type": "function"
    },
    {
      "inputs": [],
      "name": "compteurPaiements",
      "outputs": [
        {
          "internalType": "uint32",
          "name": "",
          "type": "uint32"
        }
      ],
      "stateMutability": "view",
      "type": "function"
    },
    {
      "inputs": [],
      "name": "compteurRecoltes",
      "outputs": [
        {
          "internalType": "uint32",
          "name": "",
          "type": "uint32"
        }
      ],
      "stateMutability": "view",
      "type": "function"
    },
    {
      "inputs": [
        {
          "internalType": "uint32",
          "name": "",
          "type": "uint32"
        }
      ],
      "name": "conditions",
      "outputs": [
        {
          "internalType": "uint32",
          "name": "id",
          "type": "uint32"
        },
        {
          "internalType": "string",
          "name": "temperature",
          "type": "string"
        },
        {
          "internalType": "string",
          "name": "humidite",
          "type": "string"
        },
        {
          "internalType": "uint256",
          "name": "timestamp",
          "type": "uint256"
        }
      ],
      "stateMutability": "view",
      "type": "function"
    },
    {
      "inputs": [
        {
          "internalType": "uint32",
          "name": "_idCommande",
          "type": "uint32"
        },
        {
          "internalType": "uint32",
          "name": "_montant",
          "type": "uint32"
        },
        {
          "internalType": "enum StructLib.ModePaiement",
          "name": "_mode",
          "type": "uint8"
        }
      ],
      "name": "effectuerPaiementVersProducteur",
      "outputs": [],
      "stateMutability": "payable",
      "type": "function"
    },
    {
      "inputs": [
        {
          "internalType": "uint32",
          "name": "_idCommande",
          "type": "uint32"
        },
        {
          "internalType": "string",
          "name": "_temperature",
          "type": "string"
        },
        {
          "internalType": "string",
          "name": "_humidite",
          "type": "string"
        }
      ],
      "name": "enregistrerCondition",
      "outputs": [],
      "stateMutability": "nonpayable",
      "type": "function"
    },
    {
      "inputs": [],
      "name": "gestionnaireActeurs",
      "outputs": [
        {
          "internalType": "contract GestionnaireActeurs",
          "name": "",
          "type": "address"
        }
      ],
      "stateMutability": "view",
      "type": "function"
    },
    {
      "inputs": [
        {
          "internalType": "uint32",
          "name": "_id",
          "type": "uint32"
        }
      ],
      "name": "getCommande",
      "outputs": [
        {
          "components": [
            {
              "internalType": "uint32",
              "name": "id",
              "type": "uint32"
            },
            {
              "internalType": "uint32",
              "name": "idRecolte",
              "type": "uint32"
            },
            {
              "internalType": "uint32",
              "name": "quantite",
              "type": "uint32"
            },
            {
              "internalType": "uint32",
              "name": "prix",
              "type": "uint32"
            },
            {
              "internalType": "bool",
              "name": "payer",
              "type": "bool"
            },
            {
              "internalType": "enum StructLib.StatutTransport",
              "name": "statutTransport",
              "type": "uint8"
            },
            {
              "internalType": "address",
              "name": "producteur",
              "type": "address"
            },
            {
              "internalType": "address",
              "name": "collecteur",
              "type": "address"
            },
            {
              "internalType": "enum StructLib.StatutProduit",
              "name": "statutRecolte",
              "type": "uint8"
            }
          ],
          "internalType": "struct StructLib.CommandeRecolte",
          "name": "",
          "type": "tuple"
        }
      ],
      "stateMutability": "view",
      "type": "function"
    },
    {
      "inputs": [],
      "name": "getCompteurCommandes",
      "outputs": [
        {
          "internalType": "uint32",
          "name": "",
          "type": "uint32"
        }
      ],
      "stateMutability": "view",
      "type": "function"
    },
    {
      "inputs": [],
      "name": "getCompteurPaiments",
      "outputs": [
        {
          "internalType": "uint32",
          "name": "",
          "type": "uint32"
        }
      ],
      "stateMutability": "view",
      "type": "function"
    },
    {
      "inputs": [],
      "name": "getCompteurRecoltes",
      "outputs": [
        {
          "internalType": "uint32",
          "name": "",
          "type": "uint32"
        }
      ],
      "stateMutability": "view",
      "type": "function"
    },
    {
      "inputs": [
        {
          "internalType": "uint32",
          "name": "_id",
          "type": "uint32"
        }
      ],
      "name": "getPaiement",
      "outputs": [
        {
          "components": [
            {
              "internalType": "uint32",
              "name": "id",
              "type": "uint32"
            },
            {
              "internalType": "address",
              "name": "payeur",
              "type": "address"
            },
            {
              "internalType": "address",
              "name": "vendeur",
              "type": "address"
            },
            {
              "internalType": "uint32",
              "name": "montant",
              "type": "uint32"
            },
            {
              "internalType": "enum StructLib.ModePaiement",
              "name": "mode",
              "type": "uint8"
            },
            {
              "internalType": "uint256",
              "name": "timestamp",
              "type": "uint256"
            }
          ],
          "internalType": "struct StructLib.Paiement",
          "name": "",
          "type": "tuple"
        }
      ],
      "stateMutability": "view",
      "type": "function"
    },
    {
      "inputs": [
        {
          "internalType": "uint32",
          "name": "_idRecolte",
          "type": "uint32"
        }
      ],
      "name": "getRecolte",
      "outputs": [
        {
          "components": [
            {
              "internalType": "uint32",
              "name": "id",
              "type": "uint32"
            },
            {
              "internalType": "uint32",
              "name": "idParcelle",
              "type": "uint32"
            },
            {
              "internalType": "uint32",
              "name": "quantite",
              "type": "uint32"
            },
            {
              "internalType": "uint32",
              "name": "prixUnit",
              "type": "uint32"
            },
            {
              "internalType": "bool",
              "name": "certifie",
              "type": "bool"
            },
            {
              "internalType": "string",
              "name": "certificatPhytosanitaire",
              "type": "string"
            },
            {
              "internalType": "string",
              "name": "dateRecolte",
              "type": "string"
            },
            {
              "internalType": "address",
              "name": "producteur",
              "type": "address"
            },
            {
              "internalType": "string",
              "name": "nomProduit",
              "type": "string"
            }
          ],
          "internalType": "struct StructLib.Recolte",
          "name": "",
          "type": "tuple"
        }
      ],
      "stateMutability": "view",
      "type": "function"
    },
    {
      "inputs": [
        {
          "internalType": "address",
          "name": "_addrCE",
          "type": "address"
        },
        {
          "internalType": "address",
          "name": "_gestionnaireActeurs",
          "type": "address"
        },
        {
          "internalType": "address",
          "name": "_producteurEnPhaseCulture",
          "type": "address"
        }
      ],
      "name": "initialiser",
      "outputs": [],
      "stateMutability": "nonpayable",
      "type": "function"
    },
    {
      "inputs": [
        {
          "internalType": "uint32",
          "name": "_idCommande",
          "type": "uint32"
        },
        {
          "internalType": "enum StructLib.StatutTransport",
          "name": "_statut",
          "type": "uint8"
        }
      ],
      "name": "mettreAJourStatutTransport",
      "outputs": [],
      "stateMutability": "nonpayable",
      "type": "function"
    },
    {
      "inputs": [
        {
          "internalType": "uint32",
          "name": "",
          "type": "uint32"
        }
      ],
      "name": "paiements",
      "outputs": [
        {
          "internalType": "uint32",
          "name": "id",
          "type": "uint32"
        },
        {
          "internalType": "address",
          "name": "payeur",
          "type": "address"
        },
        {
          "internalType": "address",
          "name": "vendeur",
          "type": "address"
        },
        {
          "internalType": "uint32",
          "name": "montant",
          "type": "uint32"
        },
        {
          "internalType": "enum StructLib.ModePaiement",
          "name": "mode",
          "type": "uint8"
        },
        {
          "internalType": "uint256",
          "name": "timestamp",
          "type": "uint256"
        }
      ],
      "stateMutability": "view",
      "type": "function"
    },
    {
      "inputs": [
        {
          "internalType": "uint32",
          "name": "_idRecolte",
          "type": "uint32"
        },
        {
          "internalType": "uint32",
          "name": "_quantite",
          "type": "uint32"
        }
      ],
      "name": "passerCommandeVersProducteur",
      "outputs": [],
      "stateMutability": "nonpayable",
      "type": "function"
    },
    {
      "inputs": [],
      "name": "producteurEnPhaseCulture",
      "outputs": [
        {
          "internalType": "contract ProducteurEnPhaseCulture",
          "name": "",
          "type": "address"
        }
      ],
      "stateMutability": "view",
      "type": "function"
    },
    {
      "inputs": [
        {
          "internalType": "uint32",
          "name": "",
          "type": "uint32"
        }
      ],
      "name": "recoltes",
      "outputs": [
        {
          "internalType": "uint32",
          "name": "id",
          "type": "uint32"
        },
        {
          "internalType": "uint32",
          "name": "idParcelle",
          "type": "uint32"
        },
        {
          "internalType": "uint32",
          "name": "quantite",
          "type": "uint32"
        },
        {
          "internalType": "uint32",
          "name": "prixUnit",
          "type": "uint32"
        },
        {
          "internalType": "bool",
          "name": "certifie",
          "type": "bool"
        },
        {
          "internalType": "string",
          "name": "certificatPhytosanitaire",
          "type": "string"
        },
        {
          "internalType": "string",
          "name": "dateRecolte",
          "type": "string"
        },
        {
          "internalType": "address",
          "name": "producteur",
          "type": "address"
        },
        {
          "internalType": "string",
          "name": "nomProduit",
          "type": "string"
        }
      ],
      "stateMutability": "view",
      "type": "function"
    },
    {
      "inputs": [
        {
          "internalType": "address",
          "name": "_addr",
          "type": "address"
        }
      ],
      "name": "setGestionnaireActeurs",
      "outputs": [],
      "stateMutability": "nonpayable",
      "type": "function"
    },
    {
      "inputs": [
        {
          "internalType": "address",
          "name": "_addr",
          "type": "address"
        }
      ],
      "name": "setModuleCE",
      "outputs": [],
      "stateMutability": "nonpayable",
      "type": "function"
    },
    {
      "inputs": [
        {
          "internalType": "address",
          "name": "_addr",
          "type": "address"
        }
      ],
      "name": "setProducteurEnPhaseCulture",
      "outputs": [],
      "stateMutability": "nonpayable",
      "type": "function"
    },
    {
      "inputs": [
        {
          "internalType": "uint32",
          "name": "_idCommande",
          "type": "uint32"
        },
        {
          "internalType": "bool",
          "name": "_valide",
          "type": "bool"
        }
      ],
      "name": "validerCommandeRecolte",
      "outputs": [],
      "stateMutability": "nonpayable",
      "type": "function"
    }
  ],
  "bytecode": "0x608060405234801561001057600080fd5b50615d4e80620000216000396000f3fe60806040526004361061019c5760003560e01c806384342842116100ec578063cb3948761161008a578063d84e632d11610064578063d84e632d146105ce578063f1b7e5a8146105f7578063f6980cc914610620578063fd643101146106605761019c565b8063cb3948761461054d578063cd3df1ed14610578578063cd60462b146105a35761019c565b80639e942cd4116100c65780639e942cd414610489578063b38d3aea146104b4578063b5fe2076146104f9578063c47744ff146105245761019c565b8063843428421461040e5780638a16156e146104375780639d75741d146104605761019c565b8063488dee2011610159578063687112e211610133578063687112e2146103405780636f3fd6c51461036b5780637babcffa146103b05780638428d543146103f25761019c565b8063488dee20146102ad57806350346b0b146102d85780635293ea51146103035761019c565b80630b215e64146101a157806319f1c290146101de578063257687e6146102095780632d5b3658146102325780633e7a60491461025b5780634383fca114610284575b600080fd5b3480156101ad57600080fd5b506101c860048036038101906101c39190614622565b61069d565b6040516101d591906154ca565b60405180910390f35b3480156101ea57600080fd5b506101f361085f565b6040516102009190615507565b60405180910390f35b34801561021557600080fd5b50610230600480360381019061022b9190614540565b610879565b005b34801561023e57600080fd5b50610259600480360381019061025491906147bf565b6108bd565b005b34801561026757600080fd5b50610282600480360381019061027d9190614540565b61117d565b005b34801561029057600080fd5b506102ab60048036038101906102a6919061484a565b6111c1565b005b3480156102b957600080fd5b506102c261172b565b6040516102cf9190615507565b60405180910390f35b3480156102e457600080fd5b506102ed61173f565b6040516102fa919061522a565b60405180910390f35b34801561030f57600080fd5b5061032a60048036038101906103259190614622565b611765565b60405161033791906154ae565b60405180910390f35b34801561034c57600080fd5b50610355611a0c565b6040516103629190615507565b60405180910390f35b34801561037757600080fd5b50610392600480360381019061038d9190614622565b611a22565b6040516103a7999897969594939291906156bb565b60405180910390f35b3480156103bc57600080fd5b506103d760048036038101906103d29190614622565b611b17565b6040516103e996959493929190615522565b60405180910390f35b61040c600480360381019061040791906147fb565b611bc0565b005b34801561041a57600080fd5b5061043560048036038101906104309190614674565b61272d565b005b34801561044357600080fd5b5061045e600480360381019061045991906146b0565b612b0c565b005b34801561046c57600080fd5b50610487600480360381019061048291906146ec565b612d0c565b005b34801561049557600080fd5b5061049e612f13565b6040516104ab919061520f565b60405180910390f35b3480156104c057600080fd5b506104db60048036038101906104d69190614622565b612f39565b6040516104f099989796959493929190615748565b60405180910390f35b34801561050557600080fd5b5061050e61318c565b60405161051b9190615507565b60405180910390f35b34801561053057600080fd5b5061054b60048036038101906105469190614740565b6131a4565b005b34801561055957600080fd5b50610562613454565b60405161056f9190615507565b60405180910390f35b34801561058457600080fd5b5061058d61346a565b60405161059a9190615507565b60405180910390f35b3480156105af57600080fd5b506105b8613480565b6040516105c59190615507565b60405180910390f35b3480156105da57600080fd5b506105f560048036038101906105f09190614540565b61349a565b005b34801561060357600080fd5b5061061e60048036038101906106199190614569565b6134de565b005b34801561062c57600080fd5b5061064760048036038101906106429190614622565b613611565b6040516106579493929190615583565b60405180910390f35b34801561066c57600080fd5b5061068760048036038101906106829190614622565b613761565b60405161069491906154e5565b60405180910390f35b6106a5613a59565b600260008363ffffffff1663ffffffff1681526020019081526020016000206040518060c00160405290816000820160009054906101000a900463ffffffff1663ffffffff1663ffffffff1681526020016000820160049054906101000a900473ffffffffffffffffffffffffffffffffffffffff1673ffffffffffffffffffffffffffffffffffffffff1673ffffffffffffffffffffffffffffffffffffffff1681526020016001820160009054906101000a900473ffffffffffffffffffffffffffffffffffffffff1673ffffffffffffffffffffffffffffffffffffffff1673ffffffffffffffffffffffffffffffffffffffff1681526020016001820160149054906101000a900463ffffffff1663ffffffff1663ffffffff1681526020016001820160189054906101000a900460ff166002811115610812577f4e487b7100000000000000000000000000000000000000000000000000000000600052602160045260246000fd5b600281111561084a577f4e487b7100000000000000000000000000000000000000000000000000000000600052602160045260246000fd5b81526020016002820154815250509050919050565b6000600460089054906101000a900463ffffffff16905090565b80600760006101000a81548173ffffffffffffffffffffffffffffffffffffffff021916908373ffffffffffffffffffffffffffffffffffffffff16021790555050565b600660009054906101000a900473ffffffffffffffffffffffffffffffffffffffff1673ffffffffffffffffffffffffffffffffffffffff1663d1e47bb33360036040518363ffffffff1660e01b815260040161091b9291906151cb565b60206040518083038186803b15801561093357600080fd5b505afa158015610947573d6000803e3d6000fd5b505050506040513d601f19601f8201168201806040525081019061096b91906145b8565b6109aa576040517f08c379a00000000000000000000000000000000000000000000000000000000081526004016109a19061544e565b60405180910390fd5b60008060008463ffffffff1663ffffffff168152602001908152602001600020604051806101200160405290816000820160009054906101000a900463ffffffff1663ffffffff1663ffffffff1681526020016000820160049054906101000a900463ffffffff1663ffffffff1663ffffffff1681526020016000820160089054906101000a900463ffffffff1663ffffffff1663ffffffff16815260200160008201600c9054906101000a900463ffffffff1663ffffffff1663ffffffff1681526020016000820160109054906101000a900460ff16151515158152602001600182018054610a9990615b10565b80601f0160208091040260200160405190810160405280929190818152602001828054610ac590615b10565b8015610b125780601f10610ae757610100808354040283529160200191610b12565b820191906000526020600020905b815481529060010190602001808311610af557829003601f168201915b50505050508152602001600282018054610b2b90615b10565b80601f0160208091040260200160405190810160405280929190818152602001828054610b5790615b10565b8015610ba45780601f10610b7957610100808354040283529160200191610ba4565b820191906000526020600020905b815481529060010190602001808311610b8757829003601f168201915b505050505081526020016003820160009054906101000a900473ffffffffffffffffffffffffffffffffffffffff1673ffffffffffffffffffffffffffffffffffffffff1673ffffffffffffffffffffffffffffffffffffffff168152602001600482018054610c1390615b10565b80601f0160208091040260200160405190810160405280929190818152602001828054610c3f90615b10565b8015610c8c5780601f10610c6157610100808354040283529160200191610c8c565b820191906000526020600020905b815481529060010190602001808311610c6f57829003601f168201915b50505050508152505090508060800151610cdb576040517f08c379a0000000000000000000000000000000000000000000000000000000008152600401610cd29061534e565b60405180910390fd5b600460009054906101000a900463ffffffff1663ffffffff168363ffffffff161115610d3c576040517f08c379a0000000000000000000000000000000000000000000000000000000008152600401610d33906153ae565b60405180910390fd5b806040015163ffffffff168263ffffffff161115610d8f576040517f08c379a0000000000000000000000000000000000000000000000000000000008152600401610d869061540e565b60405180910390fd5b816000808563ffffffff1663ffffffff16815260200190815260200160002060000160088282829054906101000a900463ffffffff16610dcf9190615966565b92506101000a81548163ffffffff021916908363ffffffff16021790555060048081819054906101000a900463ffffffff1680929190610e0e90615b42565b91906101000a81548163ffffffff021916908363ffffffff160217905550506000828260600151610e3f9190615928565b905060405180610120016040528060048054906101000a900463ffffffff1663ffffffff1681526020018563ffffffff1681526020018463ffffffff1681526020018263ffffffff16815260200160001515815260200160006001811115610ed0577f4e487b7100000000000000000000000000000000000000000000000000000000600052602160045260246000fd5b81526020018360e0015173ffffffffffffffffffffffffffffffffffffffff1681526020013373ffffffffffffffffffffffffffffffffffffffff16815260200160006002811115610f4b577f4e487b7100000000000000000000000000000000000000000000000000000000600052602160045260246000fd5b8152506001600060048054906101000a900463ffffffff1663ffffffff1663ffffffff16815260200190815260200160002060008201518160000160006101000a81548163ffffffff021916908363ffffffff16021790555060208201518160000160046101000a81548163ffffffff021916908363ffffffff16021790555060408201518160000160086101000a81548163ffffffff021916908363ffffffff160217905550606082015181600001600c6101000a81548163ffffffff021916908363ffffffff16021790555060808201518160000160106101000a81548160ff02191690831515021790555060a08201518160000160116101000a81548160ff0219169083600181111561108a577f4e487b7100000000000000000000000000000000000000000000000000000000600052602160045260246000fd5b021790555060c08201518160010160006101000a81548173ffffffffffffffffffffffffffffffffffffffff021916908373ffffffffffffffffffffffffffffffffffffffff16021790555060e08201518160020160006101000a81548173ffffffffffffffffffffffffffffffffffffffff021916908373ffffffffffffffffffffffffffffffffffffffff1602179055506101008201518160020160146101000a81548160ff0219169083600281111561116f577f4e487b7100000000000000000000000000000000000000000000000000000000600052602160045260246000fd5b021790555090505050505050565b80600660006101000a81548173ffffffffffffffffffffffffffffffffffffffff021916908373ffffffffffffffffffffffffffffffffffffffff16021790555050565b600660009054906101000a900473ffffffffffffffffffffffffffffffffffffffff1673ffffffffffffffffffffffffffffffffffffffff1663d1e47bb33360006040518363ffffffff1660e01b815260040161121f9291906151cb565b60206040518083038186803b15801561123757600080fd5b505afa15801561124b573d6000803e3d6000fd5b505050506040513d601f19601f8201168201806040525081019061126f91906145b8565b6112ae576040517f08c379a00000000000000000000000000000000000000000000000000000000081526004016112a59061526e565b60405180910390fd5b6000600760009054906101000a900473ffffffffffffffffffffffffffffffffffffffff1673ffffffffffffffffffffffffffffffffffffffff1663421b3e08876040518263ffffffff1660e01b815260040161130b9190615507565b60006040518083038186803b15801561132357600080fd5b505afa158015611337573d6000803e3d6000fd5b505050506040513d6000823e3d601f19601f8201168201806040525081019061136091906145e1565b9050600760009054906101000a900473ffffffffffffffffffffffffffffffffffffffff1673ffffffffffffffffffffffffffffffffffffffff166331686f416040518163ffffffff1660e01b815260040160206040518083038186803b1580156113ca57600080fd5b505afa1580156113de573d6000803e3d6000fd5b505050506040513d601f19601f82011682018060405250810190611402919061464b565b63ffffffff168663ffffffff161115611450576040517f08c379a00000000000000000000000000000000000000000000000000000000081526004016114479061532e565b60405180910390fd5b3373ffffffffffffffffffffffffffffffffffffffff16816020015173ffffffffffffffffffffffffffffffffffffffff16146114c2576040517f08c379a00000000000000000000000000000000000000000000000000000000081526004016114b99061538e565b60405180910390fd5b6004600081819054906101000a900463ffffffff16809291906114e490615b42565b91906101000a81548163ffffffff021916908363ffffffff16021790555050604051806101200160405280600460009054906101000a900463ffffffff1663ffffffff1681526020018763ffffffff1681526020018663ffffffff1681526020018563ffffffff1681526020016000151581526020016040518060200160405280600081525081526020018481526020013373ffffffffffffffffffffffffffffffffffffffff16815260200183815250600080600460009054906101000a900463ffffffff1663ffffffff1663ffffffff16815260200190815260200160002060008201518160000160006101000a81548163ffffffff021916908363ffffffff16021790555060208201518160000160046101000a81548163ffffffff021916908363ffffffff16021790555060408201518160000160086101000a81548163ffffffff021916908363ffffffff160217905550606082015181600001600c6101000a81548163ffffffff021916908363ffffffff16021790555060808201518160000160106101000a81548160ff02191690831515021790555060a082015181600101908051906020019061169d929190613aff565b5060c08201518160020190805190602001906116ba929190613aff565b5060e08201518160030160006101000a81548173ffffffffffffffffffffffffffffffffffffffff021916908373ffffffffffffffffffffffffffffffffffffffff16021790555061010082015181600401908051906020019061171f929190613aff565b50905050505050505050565b60048054906101000a900463ffffffff1681565b600760009054906101000a900473ffffffffffffffffffffffffffffffffffffffff1681565b61176d613b85565b600160008363ffffffff1663ffffffff168152602001908152602001600020604051806101200160405290816000820160009054906101000a900463ffffffff1663ffffffff1663ffffffff1681526020016000820160049054906101000a900463ffffffff1663ffffffff1663ffffffff1681526020016000820160089054906101000a900463ffffffff1663ffffffff1663ffffffff16815260200160008201600c9054906101000a900463ffffffff1663ffffffff1663ffffffff1681526020016000820160109054906101000a900460ff161515151581526020016000820160119054906101000a900460ff166001811115611896577f4e487b7100000000000000000000000000000000000000000000000000000000600052602160045260246000fd5b60018111156118ce577f4e487b7100000000000000000000000000000000000000000000000000000000600052602160045260246000fd5b81526020016001820160009054906101000a900473ffffffffffffffffffffffffffffffffffffffff1673ffffffffffffffffffffffffffffffffffffffff1673ffffffffffffffffffffffffffffffffffffffff1681526020016002820160009054906101000a900473ffffffffffffffffffffffffffffffffffffffff1673ffffffffffffffffffffffffffffffffffffffff1673ffffffffffffffffffffffffffffffffffffffff1681526020016002820160149054906101000a900460ff1660028111156119c9577f4e487b7100000000000000000000000000000000000000000000000000000000600052602160045260246000fd5b6002811115611a01577f4e487b7100000000000000000000000000000000000000000000000000000000600052602160045260246000fd5b815250509050919050565b6004600c9054906101000a900463ffffffff1681565b60016020528060005260406000206000915090508060000160009054906101000a900463ffffffff16908060000160049054906101000a900463ffffffff16908060000160089054906101000a900463ffffffff169080600001600c9054906101000a900463ffffffff16908060000160109054906101000a900460ff16908060000160119054906101000a900460ff16908060010160009054906101000a900473ffffffffffffffffffffffffffffffffffffffff16908060020160009054906101000a900473ffffffffffffffffffffffffffffffffffffffff16908060020160149054906101000a900460ff16905089565b60026020528060005260406000206000915090508060000160009054906101000a900463ffffffff16908060000160049054906101000a900473ffffffffffffffffffffffffffffffffffffffff16908060010160009054906101000a900473ffffffffffffffffffffffffffffffffffffffff16908060010160149054906101000a900463ffffffff16908060010160189054906101000a900460ff16908060020154905086565b600660009054906101000a900473ffffffffffffffffffffffffffffffffffffffff1673ffffffffffffffffffffffffffffffffffffffff1663d1e47bb33360036040518363ffffffff1660e01b8152600401611c1e9291906151cb565b60206040518083038186803b158015611c3657600080fd5b505afa158015611c4a573d6000803e3d6000fd5b505050506040513d601f19601f82011682018060405250810190611c6e91906145b8565b611cad576040517f08c379a0000000000000000000000000000000000000000000000000000000008152600401611ca49061544e565b60405180910390fd5b6000600160008563ffffffff1663ffffffff168152602001908152602001600020604051806101200160405290816000820160009054906101000a900463ffffffff1663ffffffff1663ffffffff1681526020016000820160049054906101000a900463ffffffff1663ffffffff1663ffffffff1681526020016000820160089054906101000a900463ffffffff1663ffffffff1663ffffffff16815260200160008201600c9054906101000a900463ffffffff1663ffffffff1663ffffffff1681526020016000820160109054906101000a900460ff161515151581526020016000820160119054906101000a900460ff166001811115611dd8577f4e487b7100000000000000000000000000000000000000000000000000000000600052602160045260246000fd5b6001811115611e10577f4e487b7100000000000000000000000000000000000000000000000000000000600052602160045260246000fd5b81526020016001820160009054906101000a900473ffffffffffffffffffffffffffffffffffffffff1673ffffffffffffffffffffffffffffffffffffffff1673ffffffffffffffffffffffffffffffffffffffff1681526020016002820160009054906101000a900473ffffffffffffffffffffffffffffffffffffffff1673ffffffffffffffffffffffffffffffffffffffff1673ffffffffffffffffffffffffffffffffffffffff1681526020016002820160149054906101000a900460ff166002811115611f0b577f4e487b7100000000000000000000000000000000000000000000000000000000600052602160045260246000fd5b6002811115611f43577f4e487b7100000000000000000000000000000000000000000000000000000000600052602160045260246000fd5b8152505090506000806000836020015163ffffffff1663ffffffff168152602001908152602001600020604051806101200160405290816000820160009054906101000a900463ffffffff1663ffffffff1663ffffffff1681526020016000820160049054906101000a900463ffffffff1663ffffffff1663ffffffff1681526020016000820160089054906101000a900463ffffffff1663ffffffff1663ffffffff16815260200160008201600c9054906101000a900463ffffffff1663ffffffff1663ffffffff1681526020016000820160109054906101000a900460ff1615151515815260200160018201805461203c90615b10565b80601f016020809104026020016040519081016040528092919081815260200182805461206890615b10565b80156120b55780601f1061208a576101008083540402835291602001916120b5565b820191906000526020600020905b81548152906001019060200180831161209857829003601f168201915b505050505081526020016002820180546120ce90615b10565b80601f01602080910402602001604051908101604052809291908181526020018280546120fa90615b10565b80156121475780601f1061211c57610100808354040283529160200191612147565b820191906000526020600020905b81548152906001019060200180831161212a57829003601f168201915b505050505081526020016003820160009054906101000a900473ffffffffffffffffffffffffffffffffffffffff1673ffffffffffffffffffffffffffffffffffffffff1673ffffffffffffffffffffffffffffffffffffffff1681526020016004820180546121b690615b10565b80601f01602080910402602001604051908101604052809291908181526020018280546121e290615b10565b801561222f5780601f106122045761010080835404028352916020019161222f565b820191906000526020600020905b81548152906001019060200180831161221257829003601f168201915b505050505081525050905060048054906101000a900463ffffffff1663ffffffff168563ffffffff161115612299576040517f08c379a0000000000000000000000000000000000000000000000000000000008152600401612290906152ae565b60405180910390fd5b8160800151156122de576040517f08c379a00000000000000000000000000000000000000000000000000000000081526004016122d5906153ee565b60405180910390fd5b816060015163ffffffff168463ffffffff1614612330576040517f08c379a00000000000000000000000000000000000000000000000000000000081526004016123279061528e565b60405180910390fd5b6001600281111561236a577f4e487b7100000000000000000000000000000000000000000000000000000000600052602160045260246000fd5b82610100015160028111156123a8577f4e487b7100000000000000000000000000000000000000000000000000000000600052602160045260246000fd5b146123e8576040517f08c379a00000000000000000000000000000000000000000000000000000000081526004016123df9061542e565b60405180910390fd5b600560009054906101000a900473ffffffffffffffffffffffffffffffffffffffff1673ffffffffffffffffffffffffffffffffffffffff16639aed4540836020015184604001518460600151338661010001518760c001518860a001516040518863ffffffff1660e01b81526004016124689796959493929190615637565b600060405180830381600087803b15801561248257600080fd5b505af1158015612496573d6000803e3d6000fd5b5050505060018060008763ffffffff1663ffffffff16815260200190815260200160002060000160106101000a81548160ff0219169083151502179055506004600881819054906101000a900463ffffffff16809291906124f690615b42565b91906101000a81548163ffffffff021916908363ffffffff160217905550506040518060c00160405280600460089054906101000a900463ffffffff1663ffffffff1681526020013373ffffffffffffffffffffffffffffffffffffffff1681526020018360c0015173ffffffffffffffffffffffffffffffffffffffff1681526020018563ffffffff1681526020018460028111156125bf577f4e487b7100000000000000000000000000000000000000000000000000000000600052602160045260246000fd5b815260200142815250600260008763ffffffff1663ffffffff16815260200190815260200160002060008201518160000160006101000a81548163ffffffff021916908363ffffffff16021790555060208201518160000160046101000a81548173ffffffffffffffffffffffffffffffffffffffff021916908373ffffffffffffffffffffffffffffffffffffffff16021790555060408201518160010160006101000a81548173ffffffffffffffffffffffffffffffffffffffff021916908373ffffffffffffffffffffffffffffffffffffffff16021790555060608201518160010160146101000a81548163ffffffff021916908363ffffffff16021790555060808201518160010160186101000a81548160ff02191690836002811115612714577f4e487b7100000000000000000000000000000000000000000000000000000000600052602160045260246000fd5b021790555060a082015181600201559050505050505050565b600660009054906101000a900473ffffffffffffffffffffffffffffffffffffffff1673ffffffffffffffffffffffffffffffffffffffff1663d1e47bb33360036040518363ffffffff1660e01b815260040161278b9291906151cb565b60206040518083038186803b1580156127a357600080fd5b505afa1580156127b7573d6000803e3d6000fd5b505050506040513d601f19601f820116820180604052508101906127db91906145b8565b61281a576040517f08c379a00000000000000000000000000000000000000000000000000000000081526004016128119061544e565b60405180910390fd5b600180811115612853577f4e487b7100000000000000000000000000000000000000000000000000000000600052602160045260246000fd5b600160008463ffffffff1663ffffffff16815260200190815260200160002060000160119054906101000a900460ff1660018111156128bb577f4e487b7100000000000000000000000000000000000000000000000000000000600052602160045260246000fd5b146128fb576040517f08c379a00000000000000000000000000000000000000000000000000000000081526004016128f2906152ee565b60405180910390fd5b60006002811115612935577f4e487b7100000000000000000000000000000000000000000000000000000000600052602160045260246000fd5b600160008463ffffffff1663ffffffff16815260200190815260200160002060020160149054906101000a900460ff16600281111561299d577f4e487b7100000000000000000000000000000000000000000000000000000000600052602160045260246000fd5b146129dd576040517f08c379a00000000000000000000000000000000000000000000000000000000081526004016129d49061536e565b60405180910390fd5b8015612a585760018060008463ffffffff1663ffffffff16815260200190815260200160002060020160146101000a81548160ff02191690836002811115612a4e577f4e487b7100000000000000000000000000000000000000000000000000000000600052602160045260246000fd5b0217905550612aca565b6002600160008463ffffffff1663ffffffff16815260200190815260200160002060020160146101000a81548160ff02191690836002811115612ac4577f4e487b7100000000000000000000000000000000000000000000000000000000600052602160045260246000fd5b02179055505b8163ffffffff167f1df7b2ecf94baf358d5ffc6f43b2769c0b74ac06ff426c80d5eb4106388cb5de82604051612b0091906151f4565b60405180910390a25050565b600660009054906101000a900473ffffffffffffffffffffffffffffffffffffffff1673ffffffffffffffffffffffffffffffffffffffff1663d1e47bb33360056040518363ffffffff1660e01b8152600401612b6a9291906151cb565b60206040518083038186803b158015612b8257600080fd5b505afa158015612b96573d6000803e3d6000fd5b505050506040513d601f19601f82011682018060405250810190612bba91906145b8565b612bf9576040517f08c379a0000000000000000000000000000000000000000000000000000000008152600401612bf09061548e565b60405180910390fd5b60048054906101000a900463ffffffff1663ffffffff168263ffffffff161115612c58576040517f08c379a0000000000000000000000000000000000000000000000000000000008152600401612c4f9061530e565b60405180910390fd5b80600160008463ffffffff1663ffffffff16815260200190815260200160002060000160116101000a81548160ff02191690836001811115612cc3577f4e487b7100000000000000000000000000000000000000000000000000000000600052602160045260246000fd5b02179055508163ffffffff167fdf2375389a03dd9f2d36dff2466341955c40fe075e8b33507857bd82908a52698233604051612d00929190615245565b60405180910390a25050565b600660009054906101000a900473ffffffffffffffffffffffffffffffffffffffff1673ffffffffffffffffffffffffffffffffffffffff1663d1e47bb33360026040518363ffffffff1660e01b8152600401612d6a9291906151cb565b60206040518083038186803b158015612d8257600080fd5b505afa158015612d96573d6000803e3d6000fd5b505050506040513d601f19601f82011682018060405250810190612dba91906145b8565b612df9576040517f08c379a0000000000000000000000000000000000000000000000000000000008152600401612df0906152ce565b60405180910390fd5b600460009054906101000a900463ffffffff1663ffffffff168263ffffffff161115612e5a576040517f08c379a0000000000000000000000000000000000000000000000000000000008152600401612e51906153ae565b60405180910390fd5b600081511415612e9f576040517f08c379a0000000000000000000000000000000000000000000000000000000008152600401612e96906153ce565b60405180910390fd5b60016000808463ffffffff1663ffffffff16815260200190815260200160002060000160106101000a81548160ff021916908315150217905550806000808463ffffffff1663ffffffff1681526020019081526020016000206001019080519060200190612f0e929190613aff565b505050565b600660009054906101000a900473ffffffffffffffffffffffffffffffffffffffff1681565b60006020528060005260406000206000915090508060000160009054906101000a900463ffffffff16908060000160049054906101000a900463ffffffff16908060000160089054906101000a900463ffffffff169080600001600c9054906101000a900463ffffffff16908060000160109054906101000a900460ff1690806001018054612fc790615b10565b80601f0160208091040260200160405190810160405280929190818152602001828054612ff390615b10565b80156130405780601f1061301557610100808354040283529160200191613040565b820191906000526020600020905b81548152906001019060200180831161302357829003601f168201915b50505050509080600201805461305590615b10565b80601f016020809104026020016040519081016040528092919081815260200182805461308190615b10565b80156130ce5780601f106130a3576101008083540402835291602001916130ce565b820191906000526020600020905b8154815290600101906020018083116130b157829003601f168201915b5050505050908060030160009054906101000a900473ffffffffffffffffffffffffffffffffffffffff169080600401805461310990615b10565b80601f016020809104026020016040519081016040528092919081815260200182805461313590615b10565b80156131825780601f1061315757610100808354040283529160200191613182565b820191906000526020600020905b81548152906001019060200180831161316557829003601f168201915b5050505050905089565b600060048054906101000a900463ffffffff16905090565b600660009054906101000a900473ffffffffffffffffffffffffffffffffffffffff1673ffffffffffffffffffffffffffffffffffffffff1663d1e47bb33360056040518363ffffffff1660e01b81526004016132029291906151cb565b60206040518083038186803b15801561321a57600080fd5b505afa15801561322e573d6000803e3d6000fd5b505050506040513d601f19601f8201168201806040525081019061325291906145b8565b613291576040517f08c379a00000000000000000000000000000000000000000000000000000000081526004016132889061548e565b60405180910390fd5b60048054906101000a900463ffffffff1663ffffffff168363ffffffff1611156132f0576040517f08c379a00000000000000000000000000000000000000000000000000000000081526004016132e79061530e565b60405180910390fd5b6004600c81819054906101000a900463ffffffff168092919061331290615b42565b91906101000a81548163ffffffff021916908363ffffffff1602179055505060405180608001604052806004600c9054906101000a900463ffffffff1663ffffffff16815260200183815260200182815260200142815250600360008563ffffffff1663ffffffff16815260200190815260200160002060008201518160000160006101000a81548163ffffffff021916908363ffffffff16021790555060208201518160010190805190602001906133cc929190613aff565b5060408201518160020190805190602001906133e9929190613aff565b50606082015181600301559050508263ffffffff167ff9e3d856b8aa4f36a575763841603fbaceaa3843b893904993d7c426c92beede6004600c9054906101000a900463ffffffff16848442336040516134479594939291906155d6565b60405180910390a2505050565b600460009054906101000a900463ffffffff1681565b600460089054906101000a900463ffffffff1681565b6000600460009054906101000a900463ffffffff16905090565b80600560006101000a81548173ffffffffffffffffffffffffffffffffffffffff021916908373ffffffffffffffffffffffffffffffffffffffff16021790555050565b600760149054906101000a900460ff161561352e576040517f08c379a00000000000000000000000000000000000000000000000000000000081526004016135259061546e565b60405180910390fd5b82600560006101000a81548173ffffffffffffffffffffffffffffffffffffffff021916908373ffffffffffffffffffffffffffffffffffffffff16021790555081600660006101000a81548173ffffffffffffffffffffffffffffffffffffffff021916908373ffffffffffffffffffffffffffffffffffffffff16021790555080600760006101000a81548173ffffffffffffffffffffffffffffffffffffffff021916908373ffffffffffffffffffffffffffffffffffffffff1602179055506001600760146101000a81548160ff021916908315150217905550505050565b60036020528060005260406000206000915090508060000160009054906101000a900463ffffffff169080600101805461364a90615b10565b80601f016020809104026020016040519081016040528092919081815260200182805461367690615b10565b80156136c35780601f10613698576101008083540402835291602001916136c3565b820191906000526020600020905b8154815290600101906020018083116136a657829003601f168201915b5050505050908060020180546136d890615b10565b80601f016020809104026020016040519081016040528092919081815260200182805461370490615b10565b80156137515780601f1061372657610100808354040283529160200191613751565b820191906000526020600020905b81548152906001019060200180831161373457829003601f168201915b5050505050908060030154905084565b613769613c87565b6000808363ffffffff1663ffffffff168152602001908152602001600020604051806101200160405290816000820160009054906101000a900463ffffffff1663ffffffff1663ffffffff1681526020016000820160049054906101000a900463ffffffff1663ffffffff1663ffffffff1681526020016000820160089054906101000a900463ffffffff1663ffffffff1663ffffffff16815260200160008201600c9054906101000a900463ffffffff1663ffffffff1663ffffffff1681526020016000820160109054906101000a900460ff1615151515815260200160018201805461385690615b10565b80601f016020809104026020016040519081016040528092919081815260200182805461388290615b10565b80156138cf5780601f106138a4576101008083540402835291602001916138cf565b820191906000526020600020905b8154815290600101906020018083116138b257829003601f168201915b505050505081526020016002820180546138e890615b10565b80601f016020809104026020016040519081016040528092919081815260200182805461391490615b10565b80156139615780601f1061393657610100808354040283529160200191613961565b820191906000526020600020905b81548152906001019060200180831161394457829003601f168201915b505050505081526020016003820160009054906101000a900473ffffffffffffffffffffffffffffffffffffffff1673ffffffffffffffffffffffffffffffffffffffff1673ffffffffffffffffffffffffffffffffffffffff1681526020016004820180546139d090615b10565b80601f01602080910402602001604051908101604052809291908181526020018280546139fc90615b10565b8015613a495780601f10613a1e57610100808354040283529160200191613a49565b820191906000526020600020905b815481529060010190602001808311613a2c57829003601f168201915b5050505050815250509050919050565b6040518060c00160405280600063ffffffff168152602001600073ffffffffffffffffffffffffffffffffffffffff168152602001600073ffffffffffffffffffffffffffffffffffffffff168152602001600063ffffffff16815260200160006002811115613af2577f4e487b7100000000000000000000000000000000000000000000000000000000600052602160045260246000fd5b8152602001600081525090565b828054613b0b90615b10565b90600052602060002090601f016020900481019282613b2d5760008555613b74565b82601f10613b4657805160ff1916838001178555613b74565b82800160010185558215613b74579182015b82811115613b73578251825591602001919060010190613b58565b5b509050613b819190613d03565b5090565b604051806101200160405280600063ffffffff168152602001600063ffffffff168152602001600063ffffffff168152602001600063ffffffff16815260200160001515815260200160006001811115613c08577f4e487b7100000000000000000000000000000000000000000000000000000000600052602160045260246000fd5b8152602001600073ffffffffffffffffffffffffffffffffffffffff168152602001600073ffffffffffffffffffffffffffffffffffffffff16815260200160006002811115613c81577f4e487b7100000000000000000000000000000000000000000000000000000000600052602160045260246000fd5b81525090565b604051806101200160405280600063ffffffff168152602001600063ffffffff168152602001600063ffffffff168152602001600063ffffffff1681526020016000151581526020016060815260200160608152602001600073ffffffffffffffffffffffffffffffffffffffff168152602001606081525090565b5b80821115613d1c576000816000905550600101613d04565b5090565b6000613d33613d2e8461581b565b6157ea565b9050808382526020820190508260005b85811015613d735781518501613d598882614075565b845260208401935060208301925050600181019050613d43565b5050509392505050565b6000613d90613d8b84615847565b6157ea565b9050808382526020820190508260005b85811015613dd05781518501613db6888261409f565b845260208401935060208301925050600181019050613da0565b5050509392505050565b6000613ded613de884615873565b6157ea565b9050808382526020820190508260005b85811015613e2d5781518501613e138882614143565b845260208401935060208301925050600181019050613dfd565b5050509392505050565b6000613e4a613e458461589f565b6157ea565b9050808382526020820190508260005b85811015613e8a5781518501613e7088826141cf565b845260208401935060208301925050600181019050613e5a565b5050509392505050565b6000613ea7613ea2846158cb565b6157ea565b905082815260208101848484011115613ebf57600080fd5b613eca848285615ace565b509392505050565b6000613ee5613ee0846158cb565b6157ea565b905082815260208101848484011115613efd57600080fd5b613f08848285615add565b509392505050565b600081359050613f1f81615c8c565b92915050565b600081519050613f3481615c8c565b92915050565b600082601f830112613f4b57600080fd5b8151613f5b848260208601613d20565b91505092915050565b600082601f830112613f7557600080fd5b8151613f85848260208601613d7d565b91505092915050565b600082601f830112613f9f57600080fd5b8151613faf848260208601613dda565b91505092915050565b600082601f830112613fc957600080fd5b8151613fd9848260208601613e37565b91505092915050565b600081359050613ff181615ca3565b92915050565b60008151905061400681615ca3565b92915050565b60008151905061401b81615cba565b92915050565b60008135905061403081615cca565b92915050565b60008135905061404581615cda565b92915050565b600082601f83011261405c57600080fd5b813561406c848260208601613e94565b91505092915050565b600082601f83011261408657600080fd5b8151614096848260208601613ed2565b91505092915050565b6000608082840312156140b157600080fd5b6140bb60806157ea565b905060006140cb8482850161452b565b600083015250602082015167ffffffffffffffff8111156140eb57600080fd5b6140f784828501614075565b602083015250604082015167ffffffffffffffff81111561411757600080fd5b61412384828501614075565b604083015250606061413784828501614501565b60608301525092915050565b60006080828403121561415557600080fd5b61415f60806157ea565b9050600061416f8482850161452b565b600083015250602061418384828501613f25565b602083015250604082015167ffffffffffffffff8111156141a357600080fd5b6141af84828501614075565b60408301525060606141c384828501614501565b60608301525092915050565b600060e082840312156141e157600080fd5b6141eb60e06157ea565b9050600082015167ffffffffffffffff81111561420757600080fd5b61421384828501614075565b60008301525060206142278482850161452b565b602083015250604061423b84828501613ff7565b604083015250606061424f8482850161452b565b606083015250608082015167ffffffffffffffff81111561426f57600080fd5b61427b84828501614075565b60808301525060a061428f84828501613f25565b60a08301525060c082015167ffffffffffffffff8111156142af57600080fd5b6142bb84828501614075565b60c08301525092915050565b60006101c082840312156142da57600080fd5b6142e56101c06157ea565b905060006142f58482850161452b565b600083015250602061430984828501613f25565b602083015250604082015167ffffffffffffffff81111561432957600080fd5b61433584828501614075565b604083015250606082015167ffffffffffffffff81111561435557600080fd5b61436184828501614075565b606083015250608061437584828501613ff7565b60808301525060a06143898482850161400c565b60a08301525060c082015167ffffffffffffffff8111156143a957600080fd5b6143b584828501614075565b60c08301525060e082015167ffffffffffffffff8111156143d557600080fd5b6143e184828501614075565b60e08301525061010082015167ffffffffffffffff81111561440257600080fd5b61440e84828501613f3a565b6101008301525061012082015167ffffffffffffffff81111561443057600080fd5b61443c84828501613fb8565b6101208301525061014082015167ffffffffffffffff81111561445e57600080fd5b61446a84828501613f8e565b6101408301525061016082015167ffffffffffffffff81111561448c57600080fd5b61449884828501613f64565b6101608301525061018082015167ffffffffffffffff8111156144ba57600080fd5b6144c684828501614075565b610180830152506101a082015167ffffffffffffffff8111156144e857600080fd5b6144f484828501614075565b6101a08301525092915050565b60008151905061451081615cea565b92915050565b60008135905061452581615d01565b92915050565b60008151905061453a81615d01565b92915050565b60006020828403121561455257600080fd5b600061456084828501613f10565b91505092915050565b60008060006060848603121561457e57600080fd5b600061458c86828701613f10565b935050602061459d86828701613f10565b92505060406145ae86828701613f10565b9150509250925092565b6000602082840312156145ca57600080fd5b60006145d884828501613ff7565b91505092915050565b6000602082840312156145f357600080fd5b600082015167ffffffffffffffff81111561460d57600080fd5b614619848285016142c7565b91505092915050565b60006020828403121561463457600080fd5b600061464284828501614516565b91505092915050565b60006020828403121561465d57600080fd5b600061466b8482850161452b565b91505092915050565b6000806040838503121561468757600080fd5b600061469585828601614516565b92505060206146a685828601613fe2565b9150509250929050565b600080604083850312156146c357600080fd5b60006146d185828601614516565b92505060206146e285828601614036565b9150509250929050565b600080604083850312156146ff57600080fd5b600061470d85828601614516565b925050602083013567ffffffffffffffff81111561472a57600080fd5b6147368582860161404b565b9150509250929050565b60008060006060848603121561475557600080fd5b600061476386828701614516565b935050602084013567ffffffffffffffff81111561478057600080fd5b61478c8682870161404b565b925050604084013567ffffffffffffffff8111156147a957600080fd5b6147b58682870161404b565b9150509250925092565b600080604083850312156147d257600080fd5b60006147e085828601614516565b92505060206147f185828601614516565b9150509250929050565b60008060006060848603121561481057600080fd5b600061481e86828701614516565b935050602061482f86828701614516565b925050604061484086828701614021565b9150509250925092565b600080600080600060a0868803121561486257600080fd5b600061487088828901614516565b955050602061488188828901614516565b945050604061489288828901614516565b935050606086013567ffffffffffffffff8111156148af57600080fd5b6148bb8882890161404b565b925050608086013567ffffffffffffffff8111156148d857600080fd5b6148e48882890161404b565b9150509295509295909350565b6148fa8161599a565b82525050565b6149098161599a565b82525050565b614918816159ac565b82525050565b614927816159ac565b82525050565b61493681615a3e565b82525050565b61494581615a62565b82525050565b61495481615a86565b82525050565b61496381615a86565b82525050565b61497281615a98565b82525050565b61498181615aaa565b82525050565b61499081615aaa565b82525050565b61499f81615abc565b82525050565b6149ae81615abc565b82525050565b60006149bf826158fb565b6149c98185615906565b93506149d9818560208601615add565b6149e281615c2b565b840191505092915050565b60006149f8826158fb565b614a028185615917565b9350614a12818560208601615add565b614a1b81615c2b565b840191505092915050565b6000614a33602283615917565b91507f4e6f6e206175746f726973653a207365756c656d656e742050726f647563746560008301527f75720000000000000000000000000000000000000000000000000000000000006020830152604082019050919050565b6000614a99600e83615917565b91507f5072697820696e636f72726563740000000000000000000000000000000000006000830152602082019050919050565b6000614ad9601583615917565b91507f436f6d6d616e6465206e6f6e206578697374616e7400000000000000000000006000830152602082019050919050565b6000614b19602583615917565b91507f4e6f6e206175746f726973653a207365756c656d656e7420436572746966696360008301527f61746575720000000000000000000000000000000000000000000000000000006020830152604082019050919050565b6000614b7f601b83615917565b91507f436f6d6d616e64652070617320656e636f7265206172726976657200000000006000830152602082019050919050565b6000614bbf601983615917565b91507f4c6120636f6d6d616e6465206e27657869737465207061732e000000000000006000830152602082019050919050565b6000614bff601583615917565b91507f50617263656c6c65206e6f6e206578697374616e7400000000000000000000006000830152602082019050919050565b6000614c3f601483615917565b91507f5265636f6c7465206e6f6e2063657274696669650000000000000000000000006000830152602082019050919050565b6000614c7f601683615917565b91507f436f6d6d616e64652064656a6120747261697465722e000000000000000000006000830152602082019050919050565b6000614cbf602c83615917565b91507f566f7573206e2765746573207061732070726f7072696574616972652064652060008301527f63652070617263656c6c6c6500000000000000000000000000000000000000006020830152604082019050919050565b6000614d25601483615917565b91507f5265636f6c7465206e6f6e206578697374616e740000000000000000000000006000830152602082019050919050565b6000614d65600f83615917565b91507f43657274696669636174207669646500000000000000000000000000000000006000830152602082019050919050565b6000614da5601383615917565b91507f436f6d6d616e64652064656a61207061796572000000000000000000000000006000830152602082019050919050565b6000614de5603683615917565b91507f5175616e746974652074726f70206772616e642070617220726170706f72742060008301527f6175207175616e7469746520646973706f6e69626c65000000000000000000006020830152604082019050919050565b6000614e4b600f83615917565b91507f50726f647569742072656a6574657200000000000000000000000000000000006000830152602082019050919050565b6000614e8b602283615917565b91507f4e6f6e206175746f726973653a207365756c656d656e7420436f6c6c6563746560008301527f75720000000000000000000000000000000000000000000000000000000000006020830152604082019050919050565b6000614ef1601a83615917565b91507f436f6e747261742064656a6120696e697469616c6973657220210000000000006000830152602082019050919050565b6000614f31602483615917565b91507f4e6f6e206175746f726973653a207365756c656d656e74205472616e73706f7260008301527f74657572000000000000000000000000000000000000000000000000000000006020830152604082019050919050565b61012082016000820151614fa160008501826151ad565b506020820151614fb460208501826151ad565b506040820151614fc760408501826151ad565b506060820151614fda60608501826151ad565b506080820151614fed608085018261490f565b5060a082015161500060a0850182614996565b5060c082015161501360c08501826148f1565b5060e082015161502660e08501826148f1565b5061010082015161503b610100850182614978565b50505050565b60c08201600082015161505760008501826151ad565b50602082015161506a60208501826148f1565b50604082015161507d60408501826148f1565b50606082015161509060608501826151ad565b5060808201516150a3608085018261494b565b5060a08201516150b660a085018261518f565b50505050565b6000610120830160008301516150d560008601826151ad565b5060208301516150e860208601826151ad565b5060408301516150fb60408601826151ad565b50606083015161510e60608601826151ad565b506080830151615121608086018261490f565b5060a083015184820360a086015261513982826149b4565b91505060c083015184820360c086015261515382826149b4565b91505060e083015161516860e08601826148f1565b5061010083015184820361010086015261518282826149b4565b9150508091505092915050565b61519881615a24565b82525050565b6151a781615a24565b82525050565b6151b681615a2e565b82525050565b6151c581615a2e565b82525050565b60006040820190506151e06000830185614900565b6151ed6020830184614969565b9392505050565b6000602082019050615209600083018461491e565b92915050565b6000602082019050615224600083018461492d565b92915050565b600060208201905061523f600083018461493c565b92915050565b600060408201905061525a60008301856149a5565b6152676020830184614900565b9392505050565b6000602082019050818103600083015261528781614a26565b9050919050565b600060208201905081810360008301526152a781614a8c565b9050919050565b600060208201905081810360008301526152c781614acc565b9050919050565b600060208201905081810360008301526152e781614b0c565b9050919050565b6000602082019050818103600083015261530781614b72565b9050919050565b6000602082019050818103600083015261532781614bb2565b9050919050565b6000602082019050818103600083015261534781614bf2565b9050919050565b6000602082019050818103600083015261536781614c32565b9050919050565b6000602082019050818103600083015261538781614c72565b9050919050565b600060208201905081810360008301526153a781614cb2565b9050919050565b600060208201905081810360008301526153c781614d18565b9050919050565b600060208201905081810360008301526153e781614d58565b9050919050565b6000602082019050818103600083015261540781614d98565b9050919050565b6000602082019050818103600083015261542781614dd8565b9050919050565b6000602082019050818103600083015261544781614e3e565b9050919050565b6000602082019050818103600083015261546781614e7e565b9050919050565b6000602082019050818103600083015261548781614ee4565b9050919050565b600060208201905081810360008301526154a781614f24565b9050919050565b6000610120820190506154c46000830184614f8a565b92915050565b600060c0820190506154df6000830184615041565b92915050565b600060208201905081810360008301526154ff81846150bc565b905092915050565b600060208201905061551c60008301846151bc565b92915050565b600060c08201905061553760008301896151bc565b6155446020830188614900565b6155516040830187614900565b61555e60608301866151bc565b61556b608083018561495a565b61557860a083018461519e565b979650505050505050565b600060808201905061559860008301876151bc565b81810360208301526155aa81866149ed565b905081810360408301526155be81856149ed565b90506155cd606083018461519e565b95945050505050565b600060a0820190506155eb60008301886151bc565b81810360208301526155fd81876149ed565b9050818103604083015261561181866149ed565b9050615620606083018561519e565b61562d6080830184614900565b9695505050505050565b600060e08201905061564c600083018a6151bc565b61565960208301896151bc565b61566660408301886151bc565b6156736060830187614900565b818103608083015261568581866149ed565b905081810360a083015261569981856149ed565b905081810360c08301526156ad81846149ed565b905098975050505050505050565b6000610120820190506156d1600083018c6151bc565b6156de602083018b6151bc565b6156eb604083018a6151bc565b6156f860608301896151bc565b615705608083018861491e565b61571260a08301876149a5565b61571f60c0830186614900565b61572c60e0830185614900565b61573a610100830184614987565b9a9950505050505050505050565b60006101208201905061575e600083018c6151bc565b61576b602083018b6151bc565b615778604083018a6151bc565b61578560608301896151bc565b615792608083018861491e565b81810360a08301526157a481876149ed565b905081810360c08301526157b881866149ed565b90506157c760e0830185614900565b8181036101008301526157da81846149ed565b90509a9950505050505050505050565b6000604051905081810181811067ffffffffffffffff8211171561581157615810615bfc565b5b8060405250919050565b600067ffffffffffffffff82111561583657615835615bfc565b5b602082029050602081019050919050565b600067ffffffffffffffff82111561586257615861615bfc565b5b602082029050602081019050919050565b600067ffffffffffffffff82111561588e5761588d615bfc565b5b602082029050602081019050919050565b600067ffffffffffffffff8211156158ba576158b9615bfc565b5b602082029050602081019050919050565b600067ffffffffffffffff8211156158e6576158e5615bfc565b5b601f19601f8301169050602081019050919050565b600081519050919050565b600082825260208201905092915050565b600082825260208201905092915050565b600061593382615a2e565b915061593e83615a2e565b92508163ffffffff048311821515161561595b5761595a615b6f565b5b828202905092915050565b600061597182615a2e565b915061597c83615a2e565b92508282101561598f5761598e615b6f565b5b828203905092915050565b60006159a582615a04565b9050919050565b60008115159050919050565b60008190506159c682615c3c565b919050565b60008190506159d982615c50565b919050565b60008190506159ec82615c64565b919050565b60008190506159ff82615c78565b919050565b600073ffffffffffffffffffffffffffffffffffffffff82169050919050565b6000819050919050565b600063ffffffff82169050919050565b6000615a4982615a50565b9050919050565b6000615a5b82615a04565b9050919050565b6000615a6d82615a74565b9050919050565b6000615a7f82615a04565b9050919050565b6000615a91826159b8565b9050919050565b6000615aa3826159cb565b9050919050565b6000615ab5826159de565b9050919050565b6000615ac7826159f1565b9050919050565b82818337600083830152505050565b60005b83811015615afb578082015181840152602081019050615ae0565b83811115615b0a576000848401525b50505050565b60006002820490506001821680615b2857607f821691505b60208210811415615b3c57615b3b615bcd565b5b50919050565b6000615b4d82615a2e565b915063ffffffff821415615b6457615b63615b6f565b5b600182019050919050565b7f4e487b7100000000000000000000000000000000000000000000000000000000600052601160045260246000fd5b7f4e487b7100000000000000000000000000000000000000000000000000000000600052602160045260246000fd5b7f4e487b7100000000000000000000000000000000000000000000000000000000600052602260045260246000fd5b7f4e487b7100000000000000000000000000000000000000000000000000000000600052604160045260246000fd5b6000601f19601f8301169050919050565b60038110615c4d57615c4c615b9e565b5b50565b60088110615c6157615c60615b9e565b5b50565b60038110615c7557615c74615b9e565b5b50565b60028110615c8957615c88615b9e565b5b50565b615c958161599a565b8114615ca057600080fd5b50565b615cac816159ac565b8114615cb757600080fd5b50565b60048110615cc757600080fd5b50565b60038110615cd757600080fd5b50565b60028110615ce757600080fd5b50565b615cf381615a24565b8114615cfe57600080fd5b50565b615d0a81615a2e565b8114615d1557600080fd5b5056fea26469706673582212203ca15f6957b08495872c534dd90c697db6133efcb81fe65f413ae2a26f2258d664736f6c63430008000033",
  "linkReferences": {},
  "deployedLinkReferences": {}
}