{
  "_format": "hh-sol-artifact-1",
  "contractName": "CollecteurProducteur",
  "sourceName": "contracts/CollecteurProducteur.sol",
  "abi": [
    {
      "anonymous": false,
      "inputs": [
        {
          "indexed": true,
          "internalType": "uint32",
          "name": "idProduit",
          "type": "uint32"
        },
        {
          "indexed": false,
          "internalType": "uint32",
          "name": "idCondition",
          "type": "uint32"
        },
        {
          "indexed": false,
          "internalType": "string",
          "name": "temperature",
          "type": "string"
        },
        {
          "indexed": false,
          "internalType": "string",
          "name": "humidite",
          "type": "string"
        },
        {
          "indexed": false,
          "internalType": "uint256",
          "name": "timestamp",
          "type": "uint256"
        },
        {
          "indexed": false,
          "internalType": "address",
          "name": "transporteur",
          "type": "address"
        }
      ],
      "name": "ConditionEnregistree",
      "type": "event"
    },
    {
      "anonymous": false,
      "inputs": [
        {
          "indexed": true,
          "internalType": "uint32",
          "name": "idCommande",
          "type": "uint32"
        },
        {
          "indexed": false,
          "internalType": "enum StructLib.StatutTransport",
          "name": "statut",
          "type": "uint8"
        },
        {
          "indexed": false,
          "internalType": "address",
          "name": "transporteur",
          "type": "address"
        }
      ],
      "name": "StatutTransportMisAJour",
      "type": "event"
    },
    {
      "inputs": [
        {
          "internalType": "uint32",
          "name": "_idParcelle",
          "type": "uint32"
        },
        {
          "internalType": "uint32",
          "name": "_quantite",
          "type": "uint32"
        },
        {
          "internalType": "uint32",
          "name": "_prix",
          "type": "uint32"
        },
        {
          "internalType": "string",
          "name": "_dateRecolte",
          "type": "string"
        },
        {
          "internalType": "string",
          "name": "_nomProduit",
          "type": "string"
        }
      ],
      "name": "ajoutRecolte",
      "outputs": [],
      "stateMutability": "nonpayable",
      "type": "function"
    },
    {
      "inputs": [
        {
          "internalType": "uint32",
          "name": "_idRecolte",
          "type": "uint32"
        },
        {
          "internalType": "string",
          "name": "_certificat",
          "type": "string"
        }
      ],
      "name": "certifieRecolte",
      "outputs": [],
      "stateMutability": "nonpayable",
      "type": "function"
    },
    {
      "inputs": [
        {
          "internalType": "uint32",
          "name": "",
          "type": "uint32"
        }
      ],
      "name": "commandes",
      "outputs": [
        {
          "internalType": "uint32",
          "name": "id",
          "type": "uint32"
        },
        {
          "internalType": "uint32",
          "name": "idRecolte",
          "type": "uint32"
        },
        {
          "internalType": "uint32",
          "name": "quantite",
          "type": "uint32"
        },
        {
          "internalType": "uint32",
          "name": "prix",
          "type": "uint32"
        },
        {
          "internalType": "bool",
          "name": "payer",
          "type": "bool"
        },
        {
          "internalType": "enum StructLib.StatutTransport",
          "name": "statutTransport",
          "type": "uint8"
        },
        {
          "internalType": "address",
          "name": "producteur",
          "type": "address"
        },
        {
          "internalType": "address",
          "name": "collecteur",
          "type": "address"
        }
      ],
      "stateMutability": "view",
      "type": "function"
    },
    {
      "inputs": [],
      "name": "compteurCommandes",
      "outputs": [
        {
          "internalType": "uint32",
          "name": "",
          "type": "uint32"
        }
      ],
      "stateMutability": "view",
      "type": "function"
    },
    {
      "inputs": [],
      "name": "compteurConditions",
      "outputs": [
        {
          "internalType": "uint32",
          "name": "",
          "type": "uint32"
        }
      ],
      "stateMutability": "view",
      "type": "function"
    },
    {
      "inputs": [],
      "name": "compteurPaiements",
      "outputs": [
        {
          "internalType": "uint32",
          "name": "",
          "type": "uint32"
        }
      ],
      "stateMutability": "view",
      "type": "function"
    },
    {
      "inputs": [],
      "name": "compteurRecoltes",
      "outputs": [
        {
          "internalType": "uint32",
          "name": "",
          "type": "uint32"
        }
      ],
      "stateMutability": "view",
      "type": "function"
    },
    {
      "inputs": [
        {
          "internalType": "uint32",
          "name": "",
          "type": "uint32"
        }
      ],
      "name": "conditions",
      "outputs": [
        {
          "internalType": "uint32",
          "name": "id",
          "type": "uint32"
        },
        {
          "internalType": "string",
          "name": "temperature",
          "type": "string"
        },
        {
          "internalType": "string",
          "name": "humidite",
          "type": "string"
        },
        {
          "internalType": "uint256",
          "name": "timestamp",
          "type": "uint256"
        }
      ],
      "stateMutability": "view",
      "type": "function"
    },
    {
      "inputs": [
        {
          "internalType": "uint32",
          "name": "_idCommande",
          "type": "uint32"
        },
        {
          "internalType": "uint32",
          "name": "_montant",
          "type": "uint32"
        },
        {
          "internalType": "enum StructLib.ModePaiement",
          "name": "_mode",
          "type": "uint8"
        }
      ],
      "name": "effectuerPaiementVersProducteur",
      "outputs": [],
      "stateMutability": "payable",
      "type": "function"
    },
    {
      "inputs": [
        {
          "internalType": "uint32",
          "name": "_idCommande",
          "type": "uint32"
        },
        {
          "internalType": "string",
          "name": "_temperature",
          "type": "string"
        },
        {
          "internalType": "string",
          "name": "_humidite",
          "type": "string"
        }
      ],
      "name": "enregistrerCondition",
      "outputs": [],
      "stateMutability": "nonpayable",
      "type": "function"
    },
    {
      "inputs": [],
      "name": "gestionnaireActeurs",
      "outputs": [
        {
          "internalType": "contract GestionnaireActeurs",
          "name": "",
          "type": "address"
        }
      ],
      "stateMutability": "view",
      "type": "function"
    },
    {
      "inputs": [
        {
          "internalType": "uint32",
          "name": "_id",
          "type": "uint32"
        }
      ],
      "name": "getCommande",
      "outputs": [
        {
          "components": [
            {
              "internalType": "uint32",
              "name": "id",
              "type": "uint32"
            },
            {
              "internalType": "uint32",
              "name": "idRecolte",
              "type": "uint32"
            },
            {
              "internalType": "uint32",
              "name": "quantite",
              "type": "uint32"
            },
            {
              "internalType": "uint32",
              "name": "prix",
              "type": "uint32"
            },
            {
              "internalType": "bool",
              "name": "payer",
              "type": "bool"
            },
            {
              "internalType": "enum StructLib.StatutTransport",
              "name": "statutTransport",
              "type": "uint8"
            },
            {
              "internalType": "address",
              "name": "producteur",
              "type": "address"
            },
            {
              "internalType": "address",
              "name": "collecteur",
              "type": "address"
            }
          ],
          "internalType": "struct StructLib.CommandeRecolte",
          "name": "",
          "type": "tuple"
        }
      ],
      "stateMutability": "view",
      "type": "function"
    },
    {
      "inputs": [],
      "name": "getCompteurCommandes",
      "outputs": [
        {
          "internalType": "uint32",
          "name": "",
          "type": "uint32"
        }
      ],
      "stateMutability": "view",
      "type": "function"
    },
    {
      "inputs": [],
      "name": "getCompteurPaiments",
      "outputs": [
        {
          "internalType": "uint32",
          "name": "",
          "type": "uint32"
        }
      ],
      "stateMutability": "view",
      "type": "function"
    },
    {
      "inputs": [],
      "name": "getCompteurRecoltes",
      "outputs": [
        {
          "internalType": "uint32",
          "name": "",
          "type": "uint32"
        }
      ],
      "stateMutability": "view",
      "type": "function"
    },
    {
      "inputs": [
        {
          "internalType": "uint32",
          "name": "_id",
          "type": "uint32"
        }
      ],
      "name": "getPaiement",
      "outputs": [
        {
          "components": [
            {
              "internalType": "uint32",
              "name": "id",
              "type": "uint32"
            },
            {
              "internalType": "address",
              "name": "payeur",
              "type": "address"
            },
            {
              "internalType": "address",
              "name": "vendeur",
              "type": "address"
            },
            {
              "internalType": "uint32",
              "name": "montant",
              "type": "uint32"
            },
            {
              "internalType": "enum StructLib.ModePaiement",
              "name": "mode",
              "type": "uint8"
            },
            {
              "internalType": "uint256",
              "name": "timestamp",
              "type": "uint256"
            }
          ],
          "internalType": "struct StructLib.Paiement",
          "name": "",
          "type": "tuple"
        }
      ],
      "stateMutability": "view",
      "type": "function"
    },
    {
      "inputs": [
        {
          "internalType": "uint32",
          "name": "_idRecolte",
          "type": "uint32"
        }
      ],
      "name": "getRecolte",
      "outputs": [
        {
          "components": [
            {
              "internalType": "uint32",
              "name": "id",
              "type": "uint32"
            },
            {
              "internalType": "uint32",
              "name": "idParcelle",
              "type": "uint32"
            },
            {
              "internalType": "uint32",
              "name": "quantite",
              "type": "uint32"
            },
            {
              "internalType": "uint32",
              "name": "prixUnit",
              "type": "uint32"
            },
            {
              "internalType": "bool",
              "name": "certifie",
              "type": "bool"
            },
            {
              "internalType": "string",
              "name": "certificatPhytosanitaire",
              "type": "string"
            },
            {
              "internalType": "string",
              "name": "dateRecolte",
              "type": "string"
            },
            {
              "internalType": "address",
              "name": "producteur",
              "type": "address"
            },
            {
              "internalType": "string",
              "name": "nomProduit",
              "type": "string"
            }
          ],
          "internalType": "struct StructLib.Recolte",
          "name": "",
          "type": "tuple"
        }
      ],
      "stateMutability": "view",
      "type": "function"
    },
    {
      "inputs": [
        {
          "internalType": "address",
          "name": "_addrCE",
          "type": "address"
        },
        {
          "internalType": "address",
          "name": "_gestionnaireActeurs",
          "type": "address"
        },
        {
          "internalType": "address",
          "name": "_producteurEnPhaseCulture",
          "type": "address"
        }
      ],
      "name": "initialiser",
      "outputs": [],
      "stateMutability": "nonpayable",
      "type": "function"
    },
    {
      "inputs": [
        {
          "internalType": "uint32",
          "name": "_idCommande",
          "type": "uint32"
        },
        {
          "internalType": "enum StructLib.StatutTransport",
          "name": "_statut",
          "type": "uint8"
        }
      ],
      "name": "mettreAJourStatutTransport",
      "outputs": [],
      "stateMutability": "nonpayable",
      "type": "function"
    },
    {
      "inputs": [
        {
          "internalType": "uint32",
          "name": "",
          "type": "uint32"
        }
      ],
      "name": "paiements",
      "outputs": [
        {
          "internalType": "uint32",
          "name": "id",
          "type": "uint32"
        },
        {
          "internalType": "address",
          "name": "payeur",
          "type": "address"
        },
        {
          "internalType": "address",
          "name": "vendeur",
          "type": "address"
        },
        {
          "internalType": "uint32",
          "name": "montant",
          "type": "uint32"
        },
        {
          "internalType": "enum StructLib.ModePaiement",
          "name": "mode",
          "type": "uint8"
        },
        {
          "internalType": "uint256",
          "name": "timestamp",
          "type": "uint256"
        }
      ],
      "stateMutability": "view",
      "type": "function"
    },
    {
      "inputs": [
        {
          "internalType": "uint32",
          "name": "_idRecolte",
          "type": "uint32"
        },
        {
          "internalType": "uint32",
          "name": "_quantite",
          "type": "uint32"
        }
      ],
      "name": "passerCommandeVersProducteur",
      "outputs": [],
      "stateMutability": "nonpayable",
      "type": "function"
    },
    {
      "inputs": [],
      "name": "producteurEnPhaseCulture",
      "outputs": [
        {
          "internalType": "contract ProducteurEnPhaseCulture",
          "name": "",
          "type": "address"
        }
      ],
      "stateMutability": "view",
      "type": "function"
    },
    {
      "inputs": [
        {
          "internalType": "uint32",
          "name": "",
          "type": "uint32"
        }
      ],
      "name": "recoltes",
      "outputs": [
        {
          "internalType": "uint32",
          "name": "id",
          "type": "uint32"
        },
        {
          "internalType": "uint32",
          "name": "idParcelle",
          "type": "uint32"
        },
        {
          "internalType": "uint32",
          "name": "quantite",
          "type": "uint32"
        },
        {
          "internalType": "uint32",
          "name": "prixUnit",
          "type": "uint32"
        },
        {
          "internalType": "bool",
          "name": "certifie",
          "type": "bool"
        },
        {
          "internalType": "string",
          "name": "certificatPhytosanitaire",
          "type": "string"
        },
        {
          "internalType": "string",
          "name": "dateRecolte",
          "type": "string"
        },
        {
          "internalType": "address",
          "name": "producteur",
          "type": "address"
        },
        {
          "internalType": "string",
          "name": "nomProduit",
          "type": "string"
        }
      ],
      "stateMutability": "view",
      "type": "function"
    },
    {
      "inputs": [
        {
          "internalType": "address",
          "name": "_addr",
          "type": "address"
        }
      ],
      "name": "setGestionnaireActeurs",
      "outputs": [],
      "stateMutability": "nonpayable",
      "type": "function"
    },
    {
      "inputs": [
        {
          "internalType": "address",
          "name": "_addr",
          "type": "address"
        }
      ],
      "name": "setModuleCE",
      "outputs": [],
      "stateMutability": "nonpayable",
      "type": "function"
    },
    {
      "inputs": [
        {
          "internalType": "address",
          "name": "_addr",
          "type": "address"
        }
      ],
      "name": "setProducteurEnPhaseCulture",
      "outputs": [],
      "stateMutability": "nonpayable",
      "type": "function"
    }
  ],
  "bytecode": "0x608060405234801561001057600080fd5b506153f5806100206000396000f3fe6080604052600436106101815760003560e01c80638a16156e116100d1578063cb3948761161008a578063d84e632d11610064578063d84e632d14610589578063f1b7e5a8146105b2578063f6980cc9146105db578063fd6431011461061b57610181565b8063cb39487614610508578063cd3df1ed14610533578063cd60462b1461055e57610181565b80638a16156e146103f25780639d75741d1461041b5780639e942cd414610444578063b38d3aea1461046f578063b5fe2076146104b4578063c47744ff146104df57610181565b8063488dee201161013e578063687112e211610118578063687112e2146103255780636f3fd6c5146103505780637babcffa146103945780638428d543146103d657610181565b8063488dee201461029257806350346b0b146102bd5780635293ea51146102e857610181565b80630b215e641461018657806319f1c290146101c3578063257687e6146101ee5780632d5b3658146102175780633e7a6049146102405780634383fca114610269575b600080fd5b34801561019257600080fd5b506101ad60048036038101906101a89190613ebb565b610658565b6040516101ba9190614bb9565b60405180910390f35b3480156101cf57600080fd5b506101d861081a565b6040516101e59190614bf6565b60405180910390f35b3480156101fa57600080fd5b5061021560048036038101906102109190613dd9565b610834565b005b34801561022357600080fd5b5061023e6004803603810190610239919061401c565b610878565b005b34801561024c57600080fd5b5061026760048036038101906102629190613dd9565b6110a2565b005b34801561027557600080fd5b50610290600480360381019061028b91906140a7565b6110e6565b005b34801561029e57600080fd5b506102a7611650565b6040516102b49190614bf6565b60405180910390f35b3480156102c957600080fd5b506102d2611664565b6040516102df9190614979565b60405180910390f35b3480156102f457600080fd5b5061030f600480360381019061030a9190613ebb565b61168a565b60405161031c9190614b9d565b60405180910390f35b34801561033157600080fd5b5061033a6118aa565b6040516103479190614bf6565b60405180910390f35b34801561035c57600080fd5b5061037760048036038101906103729190613ebb565b6118c0565b60405161038b989796959493929190614daa565b60405180910390f35b3480156103a057600080fd5b506103bb60048036038101906103b69190613ebb565b6119a2565b6040516103cd96959493929190614c11565b60405180910390f35b6103f060048036038101906103eb9190614058565b611a4b565b005b3480156103fe57600080fd5b5061041960048036038101906104149190613f0d565b612479565b005b34801561042757600080fd5b50610442600480360381019061043d9190613f49565b612679565b005b34801561045057600080fd5b50610459612880565b604051610466919061495e565b60405180910390f35b34801561047b57600080fd5b5061049660048036038101906104919190613ebb565b6128a6565b6040516104ab99989796959493929190614e28565b60405180910390f35b3480156104c057600080fd5b506104c9612af9565b6040516104d69190614bf6565b60405180910390f35b3480156104eb57600080fd5b5061050660048036038101906105019190613f9d565b612b11565b005b34801561051457600080fd5b5061051d612dc1565b60405161052a9190614bf6565b60405180910390f35b34801561053f57600080fd5b50610548612dd7565b6040516105559190614bf6565b60405180910390f35b34801561056a57600080fd5b50610573612ded565b6040516105809190614bf6565b60405180910390f35b34801561059557600080fd5b506105b060048036038101906105ab9190613dd9565b612e07565b005b3480156105be57600080fd5b506105d960048036038101906105d49190613e02565b612e4b565b005b3480156105e757600080fd5b5061060260048036038101906105fd9190613ebb565b612f7e565b6040516106129493929190614c72565b60405180910390f35b34801561062757600080fd5b50610642600480360381019061063d9190613ebb565b6130ce565b60405161064f9190614bd4565b60405180910390f35b6106606133c6565b600260008363ffffffff1663ffffffff1681526020019081526020016000206040518060c00160405290816000820160009054906101000a900463ffffffff1663ffffffff1663ffffffff1681526020016000820160049054906101000a900473ffffffffffffffffffffffffffffffffffffffff1673ffffffffffffffffffffffffffffffffffffffff1673ffffffffffffffffffffffffffffffffffffffff1681526020016001820160009054906101000a900473ffffffffffffffffffffffffffffffffffffffff1673ffffffffffffffffffffffffffffffffffffffff1673ffffffffffffffffffffffffffffffffffffffff1681526020016001820160149054906101000a900463ffffffff1663ffffffff1663ffffffff1681526020016001820160189054906101000a900460ff1660028111156107cd577f4e487b7100000000000000000000000000000000000000000000000000000000600052602160045260246000fd5b6002811115610805577f4e487b7100000000000000000000000000000000000000000000000000000000600052602160045260246000fd5b81526020016002820154815250509050919050565b6000600460089054906101000a900463ffffffff16905090565b80600760006101000a81548173ffffffffffffffffffffffffffffffffffffffff021916908373ffffffffffffffffffffffffffffffffffffffff16021790555050565b600660009054906101000a900473ffffffffffffffffffffffffffffffffffffffff1673ffffffffffffffffffffffffffffffffffffffff1663d1e47bb33360036040518363ffffffff1660e01b81526004016108d6929190614935565b60206040518083038186803b1580156108ee57600080fd5b505afa158015610902573d6000803e3d6000fd5b505050506040513d601f19601f820116820180604052508101906109269190613e51565b610965576040517f08c379a000000000000000000000000000000000000000000000000000000000815260040161095c90614b3d565b60405180910390fd5b60008060008463ffffffff1663ffffffff168152602001908152602001600020604051806101200160405290816000820160009054906101000a900463ffffffff1663ffffffff1663ffffffff1681526020016000820160049054906101000a900463ffffffff1663ffffffff1663ffffffff1681526020016000820160089054906101000a900463ffffffff1663ffffffff1663ffffffff16815260200160008201600c9054906101000a900463ffffffff1663ffffffff1663ffffffff1681526020016000820160109054906101000a900460ff16151515158152602001600182018054610a54906151cb565b80601f0160208091040260200160405190810160405280929190818152602001828054610a80906151cb565b8015610acd5780601f10610aa257610100808354040283529160200191610acd565b820191906000526020600020905b815481529060010190602001808311610ab057829003601f168201915b50505050508152602001600282018054610ae6906151cb565b80601f0160208091040260200160405190810160405280929190818152602001828054610b12906151cb565b8015610b5f5780601f10610b3457610100808354040283529160200191610b5f565b820191906000526020600020905b815481529060010190602001808311610b4257829003601f168201915b505050505081526020016003820160009054906101000a900473ffffffffffffffffffffffffffffffffffffffff1673ffffffffffffffffffffffffffffffffffffffff1673ffffffffffffffffffffffffffffffffffffffff168152602001600482018054610bce906151cb565b80601f0160208091040260200160405190810160405280929190818152602001828054610bfa906151cb565b8015610c475780601f10610c1c57610100808354040283529160200191610c47565b820191906000526020600020905b815481529060010190602001808311610c2a57829003601f168201915b50505050508152505090508060800151610c96576040517f08c379a0000000000000000000000000000000000000000000000000000000008152600401610c8d90614a7d565b60405180910390fd5b600460009054906101000a900463ffffffff1663ffffffff168363ffffffff161115610cf7576040517f08c379a0000000000000000000000000000000000000000000000000000000008152600401610cee90614abd565b60405180910390fd5b806040015163ffffffff168263ffffffff161115610d4a576040517f08c379a0000000000000000000000000000000000000000000000000000000008152600401610d4190614b1d565b60405180910390fd5b816000808563ffffffff1663ffffffff16815260200190815260200160002060000160088282829054906101000a900463ffffffff16610d8a9190615046565b92506101000a81548163ffffffff021916908363ffffffff16021790555060048081819054906101000a900463ffffffff1680929190610dc9906151fd565b91906101000a81548163ffffffff021916908363ffffffff160217905550506000828260600151610dfa9190615008565b905060405180610100016040528060048054906101000a900463ffffffff1663ffffffff1681526020018563ffffffff1681526020018463ffffffff1681526020018263ffffffff16815260200160001515815260200160006001811115610e8b577f4e487b7100000000000000000000000000000000000000000000000000000000600052602160045260246000fd5b81526020018360e0015173ffffffffffffffffffffffffffffffffffffffff1681526020013373ffffffffffffffffffffffffffffffffffffffff168152506001600060048054906101000a900463ffffffff1663ffffffff1663ffffffff16815260200190815260200160002060008201518160000160006101000a81548163ffffffff021916908363ffffffff16021790555060208201518160000160046101000a81548163ffffffff021916908363ffffffff16021790555060408201518160000160086101000a81548163ffffffff021916908363ffffffff160217905550606082015181600001600c6101000a81548163ffffffff021916908363ffffffff16021790555060808201518160000160106101000a81548160ff02191690831515021790555060a08201518160000160116101000a81548160ff02191690836001811115611006577f4e487b7100000000000000000000000000000000000000000000000000000000600052602160045260246000fd5b021790555060c08201518160010160006101000a81548173ffffffffffffffffffffffffffffffffffffffff021916908373ffffffffffffffffffffffffffffffffffffffff16021790555060e08201518160020160006101000a81548173ffffffffffffffffffffffffffffffffffffffff021916908373ffffffffffffffffffffffffffffffffffffffff16021790555090505050505050565b80600660006101000a81548173ffffffffffffffffffffffffffffffffffffffff021916908373ffffffffffffffffffffffffffffffffffffffff16021790555050565b600660009054906101000a900473ffffffffffffffffffffffffffffffffffffffff1673ffffffffffffffffffffffffffffffffffffffff1663d1e47bb33360006040518363ffffffff1660e01b8152600401611144929190614935565b60206040518083038186803b15801561115c57600080fd5b505afa158015611170573d6000803e3d6000fd5b505050506040513d601f19601f820116820180604052508101906111949190613e51565b6111d3576040517f08c379a00000000000000000000000000000000000000000000000000000000081526004016111ca906149bd565b60405180910390fd5b6000600760009054906101000a900473ffffffffffffffffffffffffffffffffffffffff1673ffffffffffffffffffffffffffffffffffffffff1663421b3e08876040518263ffffffff1660e01b81526004016112309190614bf6565b60006040518083038186803b15801561124857600080fd5b505afa15801561125c573d6000803e3d6000fd5b505050506040513d6000823e3d601f19601f820116820180604052508101906112859190613e7a565b9050600760009054906101000a900473ffffffffffffffffffffffffffffffffffffffff1673ffffffffffffffffffffffffffffffffffffffff166331686f416040518163ffffffff1660e01b815260040160206040518083038186803b1580156112ef57600080fd5b505afa158015611303573d6000803e3d6000fd5b505050506040513d601f19601f820116820180604052508101906113279190613ee4565b63ffffffff168663ffffffff161115611375576040517f08c379a000000000000000000000000000000000000000000000000000000000815260040161136c90614a5d565b60405180910390fd5b3373ffffffffffffffffffffffffffffffffffffffff16816020015173ffffffffffffffffffffffffffffffffffffffff16146113e7576040517f08c379a00000000000000000000000000000000000000000000000000000000081526004016113de90614a9d565b60405180910390fd5b6004600081819054906101000a900463ffffffff1680929190611409906151fd565b91906101000a81548163ffffffff021916908363ffffffff16021790555050604051806101200160405280600460009054906101000a900463ffffffff1663ffffffff1681526020018763ffffffff1681526020018663ffffffff1681526020018563ffffffff1681526020016000151581526020016040518060200160405280600081525081526020018481526020013373ffffffffffffffffffffffffffffffffffffffff16815260200183815250600080600460009054906101000a900463ffffffff1663ffffffff1663ffffffff16815260200190815260200160002060008201518160000160006101000a81548163ffffffff021916908363ffffffff16021790555060208201518160000160046101000a81548163ffffffff021916908363ffffffff16021790555060408201518160000160086101000a81548163ffffffff021916908363ffffffff160217905550606082015181600001600c6101000a81548163ffffffff021916908363ffffffff16021790555060808201518160000160106101000a81548160ff02191690831515021790555060a08201518160010190805190602001906115c292919061346c565b5060c08201518160020190805190602001906115df92919061346c565b5060e08201518160030160006101000a81548173ffffffffffffffffffffffffffffffffffffffff021916908373ffffffffffffffffffffffffffffffffffffffff16021790555061010082015181600401908051906020019061164492919061346c565b50905050505050505050565b60048054906101000a900463ffffffff1681565b600760009054906101000a900473ffffffffffffffffffffffffffffffffffffffff1681565b6116926134f2565b600160008363ffffffff1663ffffffff168152602001908152602001600020604051806101000160405290816000820160009054906101000a900463ffffffff1663ffffffff1663ffffffff1681526020016000820160049054906101000a900463ffffffff1663ffffffff1663ffffffff1681526020016000820160089054906101000a900463ffffffff1663ffffffff1663ffffffff16815260200160008201600c9054906101000a900463ffffffff1663ffffffff1663ffffffff1681526020016000820160109054906101000a900460ff161515151581526020016000820160119054906101000a900460ff1660018111156117bb577f4e487b7100000000000000000000000000000000000000000000000000000000600052602160045260246000fd5b60018111156117f3577f4e487b7100000000000000000000000000000000000000000000000000000000600052602160045260246000fd5b81526020016001820160009054906101000a900473ffffffffffffffffffffffffffffffffffffffff1673ffffffffffffffffffffffffffffffffffffffff1673ffffffffffffffffffffffffffffffffffffffff1681526020016002820160009054906101000a900473ffffffffffffffffffffffffffffffffffffffff1673ffffffffffffffffffffffffffffffffffffffff1673ffffffffffffffffffffffffffffffffffffffff16815250509050919050565b6004600c9054906101000a900463ffffffff1681565b60016020528060005260406000206000915090508060000160009054906101000a900463ffffffff16908060000160049054906101000a900463ffffffff16908060000160089054906101000a900463ffffffff169080600001600c9054906101000a900463ffffffff16908060000160109054906101000a900460ff16908060000160119054906101000a900460ff16908060010160009054906101000a900473ffffffffffffffffffffffffffffffffffffffff16908060020160009054906101000a900473ffffffffffffffffffffffffffffffffffffffff16905088565b60026020528060005260406000206000915090508060000160009054906101000a900463ffffffff16908060000160049054906101000a900473ffffffffffffffffffffffffffffffffffffffff16908060010160009054906101000a900473ffffffffffffffffffffffffffffffffffffffff16908060010160149054906101000a900463ffffffff16908060010160189054906101000a900460ff16908060020154905086565b600660009054906101000a900473ffffffffffffffffffffffffffffffffffffffff1673ffffffffffffffffffffffffffffffffffffffff1663d1e47bb33360036040518363ffffffff1660e01b8152600401611aa9929190614935565b60206040518083038186803b158015611ac157600080fd5b505afa158015611ad5573d6000803e3d6000fd5b505050506040513d601f19601f82011682018060405250810190611af99190613e51565b611b38576040517f08c379a0000000000000000000000000000000000000000000000000000000008152600401611b2f90614b3d565b60405180910390fd5b6000600160008563ffffffff1663ffffffff168152602001908152602001600020604051806101000160405290816000820160009054906101000a900463ffffffff1663ffffffff1663ffffffff1681526020016000820160049054906101000a900463ffffffff1663ffffffff1663ffffffff1681526020016000820160089054906101000a900463ffffffff1663ffffffff1663ffffffff16815260200160008201600c9054906101000a900463ffffffff1663ffffffff1663ffffffff1681526020016000820160109054906101000a900460ff161515151581526020016000820160119054906101000a900460ff166001811115611c63577f4e487b7100000000000000000000000000000000000000000000000000000000600052602160045260246000fd5b6001811115611c9b577f4e487b7100000000000000000000000000000000000000000000000000000000600052602160045260246000fd5b81526020016001820160009054906101000a900473ffffffffffffffffffffffffffffffffffffffff1673ffffffffffffffffffffffffffffffffffffffff1673ffffffffffffffffffffffffffffffffffffffff1681526020016002820160009054906101000a900473ffffffffffffffffffffffffffffffffffffffff1673ffffffffffffffffffffffffffffffffffffffff1673ffffffffffffffffffffffffffffffffffffffff168152505090506000806000836020015163ffffffff1663ffffffff168152602001908152602001600020604051806101200160405290816000820160009054906101000a900463ffffffff1663ffffffff1663ffffffff1681526020016000820160049054906101000a900463ffffffff1663ffffffff1663ffffffff1681526020016000820160089054906101000a900463ffffffff1663ffffffff1663ffffffff16815260200160008201600c9054906101000a900463ffffffff1663ffffffff1663ffffffff1681526020016000820160109054906101000a900460ff16151515158152602001600182018054611e40906151cb565b80601f0160208091040260200160405190810160405280929190818152602001828054611e6c906151cb565b8015611eb95780601f10611e8e57610100808354040283529160200191611eb9565b820191906000526020600020905b815481529060010190602001808311611e9c57829003601f168201915b50505050508152602001600282018054611ed2906151cb565b80601f0160208091040260200160405190810160405280929190818152602001828054611efe906151cb565b8015611f4b5780601f10611f2057610100808354040283529160200191611f4b565b820191906000526020600020905b815481529060010190602001808311611f2e57829003601f168201915b505050505081526020016003820160009054906101000a900473ffffffffffffffffffffffffffffffffffffffff1673ffffffffffffffffffffffffffffffffffffffff1673ffffffffffffffffffffffffffffffffffffffff168152602001600482018054611fba906151cb565b80601f0160208091040260200160405190810160405280929190818152602001828054611fe6906151cb565b80156120335780601f1061200857610100808354040283529160200191612033565b820191906000526020600020905b81548152906001019060200180831161201657829003601f168201915b505050505081525050905060048054906101000a900463ffffffff1663ffffffff168563ffffffff16111561209d576040517f08c379a0000000000000000000000000000000000000000000000000000000008152600401612094906149fd565b60405180910390fd5b8160800151156120e2576040517f08c379a00000000000000000000000000000000000000000000000000000000081526004016120d990614afd565b60405180910390fd5b816060015163ffffffff168463ffffffff1614612134576040517f08c379a000000000000000000000000000000000000000000000000000000000815260040161212b906149dd565b60405180910390fd5b600560009054906101000a900473ffffffffffffffffffffffffffffffffffffffff1673ffffffffffffffffffffffffffffffffffffffff16639aed4540836020015184604001518460600151338661010001518760c001518860a001516040518863ffffffff1660e01b81526004016121b49796959493929190614d26565b600060405180830381600087803b1580156121ce57600080fd5b505af11580156121e2573d6000803e3d6000fd5b5050505060018060008763ffffffff1663ffffffff16815260200190815260200160002060000160106101000a81548160ff0219169083151502179055506004600881819054906101000a900463ffffffff1680929190612242906151fd565b91906101000a81548163ffffffff021916908363ffffffff160217905550506040518060c00160405280600460089054906101000a900463ffffffff1663ffffffff1681526020013373ffffffffffffffffffffffffffffffffffffffff1681526020018360c0015173ffffffffffffffffffffffffffffffffffffffff1681526020018563ffffffff16815260200184600281111561230b577f4e487b7100000000000000000000000000000000000000000000000000000000600052602160045260246000fd5b815260200142815250600260008763ffffffff1663ffffffff16815260200190815260200160002060008201518160000160006101000a81548163ffffffff021916908363ffffffff16021790555060208201518160000160046101000a81548173ffffffffffffffffffffffffffffffffffffffff021916908373ffffffffffffffffffffffffffffffffffffffff16021790555060408201518160010160006101000a81548173ffffffffffffffffffffffffffffffffffffffff021916908373ffffffffffffffffffffffffffffffffffffffff16021790555060608201518160010160146101000a81548163ffffffff021916908363ffffffff16021790555060808201518160010160186101000a81548160ff02191690836002811115612460577f4e487b7100000000000000000000000000000000000000000000000000000000600052602160045260246000fd5b021790555060a082015181600201559050505050505050565b600660009054906101000a900473ffffffffffffffffffffffffffffffffffffffff1673ffffffffffffffffffffffffffffffffffffffff1663d1e47bb33360056040518363ffffffff1660e01b81526004016124d7929190614935565b60206040518083038186803b1580156124ef57600080fd5b505afa158015612503573d6000803e3d6000fd5b505050506040513d601f19601f820116820180604052508101906125279190613e51565b612566576040517f08c379a000000000000000000000000000000000000000000000000000000000815260040161255d90614b7d565b60405180910390fd5b60048054906101000a900463ffffffff1663ffffffff168263ffffffff1611156125c5576040517f08c379a00000000000000000000000000000000000000000000000000000000081526004016125bc90614a3d565b60405180910390fd5b80600160008463ffffffff1663ffffffff16815260200190815260200160002060000160116101000a81548160ff02191690836001811115612630577f4e487b7100000000000000000000000000000000000000000000000000000000600052602160045260246000fd5b02179055508163ffffffff167fdf2375389a03dd9f2d36dff2466341955c40fe075e8b33507857bd82908a5269823360405161266d929190614994565b60405180910390a25050565b600660009054906101000a900473ffffffffffffffffffffffffffffffffffffffff1673ffffffffffffffffffffffffffffffffffffffff1663d1e47bb33360026040518363ffffffff1660e01b81526004016126d7929190614935565b60206040518083038186803b1580156126ef57600080fd5b505afa158015612703573d6000803e3d6000fd5b505050506040513d601f19601f820116820180604052508101906127279190613e51565b612766576040517f08c379a000000000000000000000000000000000000000000000000000000000815260040161275d90614a1d565b60405180910390fd5b600460009054906101000a900463ffffffff1663ffffffff168263ffffffff1611156127c7576040517f08c379a00000000000000000000000000000000000000000000000000000000081526004016127be90614abd565b60405180910390fd5b60008151141561280c576040517f08c379a000000000000000000000000000000000000000000000000000000000815260040161280390614add565b60405180910390fd5b60016000808463ffffffff1663ffffffff16815260200190815260200160002060000160106101000a81548160ff021916908315150217905550806000808463ffffffff1663ffffffff168152602001908152602001600020600101908051906020019061287b92919061346c565b505050565b600660009054906101000a900473ffffffffffffffffffffffffffffffffffffffff1681565b60006020528060005260406000206000915090508060000160009054906101000a900463ffffffff16908060000160049054906101000a900463ffffffff16908060000160089054906101000a900463ffffffff169080600001600c9054906101000a900463ffffffff16908060000160109054906101000a900460ff1690806001018054612934906151cb565b80601f0160208091040260200160405190810160405280929190818152602001828054612960906151cb565b80156129ad5780601f10612982576101008083540402835291602001916129ad565b820191906000526020600020905b81548152906001019060200180831161299057829003601f168201915b5050505050908060020180546129c2906151cb565b80601f01602080910402602001604051908101604052809291908181526020018280546129ee906151cb565b8015612a3b5780601f10612a1057610100808354040283529160200191612a3b565b820191906000526020600020905b815481529060010190602001808311612a1e57829003601f168201915b5050505050908060030160009054906101000a900473ffffffffffffffffffffffffffffffffffffffff1690806004018054612a76906151cb565b80601f0160208091040260200160405190810160405280929190818152602001828054612aa2906151cb565b8015612aef5780601f10612ac457610100808354040283529160200191612aef565b820191906000526020600020905b815481529060010190602001808311612ad257829003601f168201915b5050505050905089565b600060048054906101000a900463ffffffff16905090565b600660009054906101000a900473ffffffffffffffffffffffffffffffffffffffff1673ffffffffffffffffffffffffffffffffffffffff1663d1e47bb33360056040518363ffffffff1660e01b8152600401612b6f929190614935565b60206040518083038186803b158015612b8757600080fd5b505afa158015612b9b573d6000803e3d6000fd5b505050506040513d601f19601f82011682018060405250810190612bbf9190613e51565b612bfe576040517f08c379a0000000000000000000000000000000000000000000000000000000008152600401612bf590614b7d565b60405180910390fd5b60048054906101000a900463ffffffff1663ffffffff168363ffffffff161115612c5d576040517f08c379a0000000000000000000000000000000000000000000000000000000008152600401612c5490614a3d565b60405180910390fd5b6004600c81819054906101000a900463ffffffff1680929190612c7f906151fd565b91906101000a81548163ffffffff021916908363ffffffff1602179055505060405180608001604052806004600c9054906101000a900463ffffffff1663ffffffff16815260200183815260200182815260200142815250600360008563ffffffff1663ffffffff16815260200190815260200160002060008201518160000160006101000a81548163ffffffff021916908363ffffffff1602179055506020820151816001019080519060200190612d3992919061346c565b506040820151816002019080519060200190612d5692919061346c565b50606082015181600301559050508263ffffffff167ff9e3d856b8aa4f36a575763841603fbaceaa3843b893904993d7c426c92beede6004600c9054906101000a900463ffffffff1684844233604051612db4959493929190614cc5565b60405180910390a2505050565b600460009054906101000a900463ffffffff1681565b600460089054906101000a900463ffffffff1681565b6000600460009054906101000a900463ffffffff16905090565b80600560006101000a81548173ffffffffffffffffffffffffffffffffffffffff021916908373ffffffffffffffffffffffffffffffffffffffff16021790555050565b600760149054906101000a900460ff1615612e9b576040517f08c379a0000000000000000000000000000000000000000000000000000000008152600401612e9290614b5d565b60405180910390fd5b82600560006101000a81548173ffffffffffffffffffffffffffffffffffffffff021916908373ffffffffffffffffffffffffffffffffffffffff16021790555081600660006101000a81548173ffffffffffffffffffffffffffffffffffffffff021916908373ffffffffffffffffffffffffffffffffffffffff16021790555080600760006101000a81548173ffffffffffffffffffffffffffffffffffffffff021916908373ffffffffffffffffffffffffffffffffffffffff1602179055506001600760146101000a81548160ff021916908315150217905550505050565b60036020528060005260406000206000915090508060000160009054906101000a900463ffffffff1690806001018054612fb7906151cb565b80601f0160208091040260200160405190810160405280929190818152602001828054612fe3906151cb565b80156130305780601f1061300557610100808354040283529160200191613030565b820191906000526020600020905b81548152906001019060200180831161301357829003601f168201915b505050505090806002018054613045906151cb565b80601f0160208091040260200160405190810160405280929190818152602001828054613071906151cb565b80156130be5780601f10613093576101008083540402835291602001916130be565b820191906000526020600020905b8154815290600101906020018083116130a157829003601f168201915b5050505050908060030154905084565b6130d66135b5565b6000808363ffffffff1663ffffffff168152602001908152602001600020604051806101200160405290816000820160009054906101000a900463ffffffff1663ffffffff1663ffffffff1681526020016000820160049054906101000a900463ffffffff1663ffffffff1663ffffffff1681526020016000820160089054906101000a900463ffffffff1663ffffffff1663ffffffff16815260200160008201600c9054906101000a900463ffffffff1663ffffffff1663ffffffff1681526020016000820160109054906101000a900460ff161515151581526020016001820180546131c3906151cb565b80601f01602080910402602001604051908101604052809291908181526020018280546131ef906151cb565b801561323c5780601f106132115761010080835404028352916020019161323c565b820191906000526020600020905b81548152906001019060200180831161321f57829003601f168201915b50505050508152602001600282018054613255906151cb565b80601f0160208091040260200160405190810160405280929190818152602001828054613281906151cb565b80156132ce5780601f106132a3576101008083540402835291602001916132ce565b820191906000526020600020905b8154815290600101906020018083116132b157829003601f168201915b505050505081526020016003820160009054906101000a900473ffffffffffffffffffffffffffffffffffffffff1673ffffffffffffffffffffffffffffffffffffffff1673ffffffffffffffffffffffffffffffffffffffff16815260200160048201805461333d906151cb565b80601f0160208091040260200160405190810160405280929190818152602001828054613369906151cb565b80156133b65780601f1061338b576101008083540402835291602001916133b6565b820191906000526020600020905b81548152906001019060200180831161339957829003601f168201915b5050505050815250509050919050565b6040518060c00160405280600063ffffffff168152602001600073ffffffffffffffffffffffffffffffffffffffff168152602001600073ffffffffffffffffffffffffffffffffffffffff168152602001600063ffffffff1681526020016000600281111561345f577f4e487b7100000000000000000000000000000000000000000000000000000000600052602160045260246000fd5b8152602001600081525090565b828054613478906151cb565b90600052602060002090601f01602090048101928261349a57600085556134e1565b82601f106134b357805160ff19168380011785556134e1565b828001600101855582156134e1579182015b828111156134e05782518255916020019190600101906134c5565b5b5090506134ee9190613631565b5090565b604051806101000160405280600063ffffffff168152602001600063ffffffff168152602001600063ffffffff168152602001600063ffffffff16815260200160001515815260200160006001811115613575577f4e487b7100000000000000000000000000000000000000000000000000000000600052602160045260246000fd5b8152602001600073ffffffffffffffffffffffffffffffffffffffff168152602001600073ffffffffffffffffffffffffffffffffffffffff1681525090565b604051806101200160405280600063ffffffff168152602001600063ffffffff168152602001600063ffffffff168152602001600063ffffffff1681526020016000151581526020016060815260200160608152602001600073ffffffffffffffffffffffffffffffffffffffff168152602001606081525090565b5b8082111561364a576000816000905550600101613632565b5090565b600061366161365c84614efb565b614eca565b9050808382526020820190508260005b858110156136a15781518501613687888261398e565b845260208401935060208301925050600181019050613671565b5050509392505050565b60006136be6136b984614f27565b614eca565b9050808382526020820190508260005b858110156136fe57815185016136e488826139b8565b8452602084019350602083019250506001810190506136ce565b5050509392505050565b600061371b61371684614f53565b614eca565b9050808382526020820190508260005b8581101561375b57815185016137418882613a5c565b84526020840193506020830192505060018101905061372b565b5050509392505050565b600061377861377384614f7f565b614eca565b9050808382526020820190508260005b858110156137b8578151850161379e8882613ae8565b845260208401935060208301925050600181019050613788565b5050509392505050565b60006137d56137d084614fab565b614eca565b9050828152602081018484840111156137ed57600080fd5b6137f8848285615189565b509392505050565b600061381361380e84614fab565b614eca565b90508281526020810184848401111561382b57600080fd5b613836848285615198565b509392505050565b60008135905061384d81615333565b92915050565b60008151905061386281615333565b92915050565b600082601f83011261387957600080fd5b815161388984826020860161364e565b91505092915050565b600082601f8301126138a357600080fd5b81516138b38482602086016136ab565b91505092915050565b600082601f8301126138cd57600080fd5b81516138dd848260208601613708565b91505092915050565b600082601f8301126138f757600080fd5b8151613907848260208601613765565b91505092915050565b60008151905061391f8161534a565b92915050565b60008151905061393481615361565b92915050565b60008135905061394981615371565b92915050565b60008135905061395e81615381565b92915050565b600082601f83011261397557600080fd5b81356139858482602086016137c2565b91505092915050565b600082601f83011261399f57600080fd5b81516139af848260208601613800565b91505092915050565b6000608082840312156139ca57600080fd5b6139d46080614eca565b905060006139e484828501613dc4565b600083015250602082015167ffffffffffffffff811115613a0457600080fd5b613a108482850161398e565b602083015250604082015167ffffffffffffffff811115613a3057600080fd5b613a3c8482850161398e565b6040830152506060613a5084828501613d9a565b60608301525092915050565b600060808284031215613a6e57600080fd5b613a786080614eca565b90506000613a8884828501613dc4565b6000830152506020613a9c84828501613853565b602083015250604082015167ffffffffffffffff811115613abc57600080fd5b613ac88482850161398e565b6040830152506060613adc84828501613d9a565b60608301525092915050565b600060608284031215613afa57600080fd5b613b046060614eca565b9050600082015167ffffffffffffffff811115613b2057600080fd5b613b2c8482850161398e565b6000830152506020613b4084828501613dc4565b6020830152506040613b5484828501613910565b60408301525092915050565b60006101c08284031215613b7357600080fd5b613b7e6101c0614eca565b90506000613b8e84828501613dc4565b6000830152506020613ba284828501613853565b602083015250604082015167ffffffffffffffff811115613bc257600080fd5b613bce8482850161398e565b604083015250606082015167ffffffffffffffff811115613bee57600080fd5b613bfa8482850161398e565b6060830152506080613c0e84828501613910565b60808301525060a0613c2284828501613925565b60a08301525060c082015167ffffffffffffffff811115613c4257600080fd5b613c4e8482850161398e565b60c08301525060e082015167ffffffffffffffff811115613c6e57600080fd5b613c7a8482850161398e565b60e08301525061010082015167ffffffffffffffff811115613c9b57600080fd5b613ca784828501613868565b6101008301525061012082015167ffffffffffffffff811115613cc957600080fd5b613cd5848285016138e6565b6101208301525061014082015167ffffffffffffffff811115613cf757600080fd5b613d03848285016138bc565b6101408301525061016082015167ffffffffffffffff811115613d2557600080fd5b613d3184828501613892565b6101608301525061018082015167ffffffffffffffff811115613d5357600080fd5b613d5f8482850161398e565b610180830152506101a082015167ffffffffffffffff811115613d8157600080fd5b613d8d8482850161398e565b6101a08301525092915050565b600081519050613da981615391565b92915050565b600081359050613dbe816153a8565b92915050565b600081519050613dd3816153a8565b92915050565b600060208284031215613deb57600080fd5b6000613df98482850161383e565b91505092915050565b600080600060608486031215613e1757600080fd5b6000613e258682870161383e565b9350506020613e368682870161383e565b9250506040613e478682870161383e565b9150509250925092565b600060208284031215613e6357600080fd5b6000613e7184828501613910565b91505092915050565b600060208284031215613e8c57600080fd5b600082015167ffffffffffffffff811115613ea657600080fd5b613eb284828501613b60565b91505092915050565b600060208284031215613ecd57600080fd5b6000613edb84828501613daf565b91505092915050565b600060208284031215613ef657600080fd5b6000613f0484828501613dc4565b91505092915050565b60008060408385031215613f2057600080fd5b6000613f2e85828601613daf565b9250506020613f3f8582860161394f565b9150509250929050565b60008060408385031215613f5c57600080fd5b6000613f6a85828601613daf565b925050602083013567ffffffffffffffff811115613f8757600080fd5b613f9385828601613964565b9150509250929050565b600080600060608486031215613fb257600080fd5b6000613fc086828701613daf565b935050602084013567ffffffffffffffff811115613fdd57600080fd5b613fe986828701613964565b925050604084013567ffffffffffffffff81111561400657600080fd5b61401286828701613964565b9150509250925092565b6000806040838503121561402f57600080fd5b600061403d85828601613daf565b925050602061404e85828601613daf565b9150509250929050565b60008060006060848603121561406d57600080fd5b600061407b86828701613daf565b935050602061408c86828701613daf565b925050604061409d8682870161393a565b9150509250925092565b600080600080600060a086880312156140bf57600080fd5b60006140cd88828901613daf565b95505060206140de88828901613daf565b94505060406140ef88828901613daf565b935050606086013567ffffffffffffffff81111561410c57600080fd5b61411888828901613964565b925050608086013567ffffffffffffffff81111561413557600080fd5b61414188828901613964565b9150509295509295909350565b6141578161507a565b82525050565b6141668161507a565b82525050565b6141758161508c565b82525050565b6141848161508c565b82525050565b6141938161510b565b82525050565b6141a28161512f565b82525050565b6141b181615153565b82525050565b6141c081615153565b82525050565b6141cf81615165565b82525050565b6141de81615177565b82525050565b6141ed81615177565b82525050565b60006141fe82614fdb565b6142088185614fe6565b9350614218818560208601615198565b614221816152e6565b840191505092915050565b600061423782614fdb565b6142418185614ff7565b9350614251818560208601615198565b61425a816152e6565b840191505092915050565b6000614272602283614ff7565b91507f4e6f6e206175746f726973653a207365756c656d656e742050726f647563746560008301527f75720000000000000000000000000000000000000000000000000000000000006020830152604082019050919050565b60006142d8600e83614ff7565b91507f5072697820696e636f72726563740000000000000000000000000000000000006000830152602082019050919050565b6000614318601583614ff7565b91507f436f6d6d616e6465206e6f6e206578697374616e7400000000000000000000006000830152602082019050919050565b6000614358602583614ff7565b91507f4e6f6e206175746f726973653a207365756c656d656e7420436572746966696360008301527f61746575720000000000000000000000000000000000000000000000000000006020830152604082019050919050565b60006143be601983614ff7565b91507f4c6120636f6d6d616e6465206e27657869737465207061732e000000000000006000830152602082019050919050565b60006143fe601583614ff7565b91507f50617263656c6c65206e6f6e206578697374616e7400000000000000000000006000830152602082019050919050565b600061443e601483614ff7565b91507f5265636f6c7465206e6f6e2063657274696669650000000000000000000000006000830152602082019050919050565b600061447e602c83614ff7565b91507f566f7573206e2765746573207061732070726f7072696574616972652064652060008301527f63652070617263656c6c6c6500000000000000000000000000000000000000006020830152604082019050919050565b60006144e4601483614ff7565b91507f5265636f6c7465206e6f6e206578697374616e740000000000000000000000006000830152602082019050919050565b6000614524600f83614ff7565b91507f43657274696669636174207669646500000000000000000000000000000000006000830152602082019050919050565b6000614564601383614ff7565b91507f436f6d6d616e64652064656a61207061796572000000000000000000000000006000830152602082019050919050565b60006145a4603683614ff7565b91507f5175616e746974652074726f70206772616e642070617220726170706f72742060008301527f6175207175616e7469746520646973706f6e69626c65000000000000000000006020830152604082019050919050565b600061460a602283614ff7565b91507f4e6f6e206175746f726973653a207365756c656d656e7420436f6c6c6563746560008301527f75720000000000000000000000000000000000000000000000000000000000006020830152604082019050919050565b6000614670601a83614ff7565b91507f436f6e747261742064656a6120696e697469616c6973657220210000000000006000830152602082019050919050565b60006146b0602483614ff7565b91507f4e6f6e206175746f726973653a207365756c656d656e74205472616e73706f7260008301527f74657572000000000000000000000000000000000000000000000000000000006020830152604082019050919050565b610100820160008201516147206000850182614917565b5060208201516147336020850182614917565b5060408201516147466040850182614917565b5060608201516147596060850182614917565b50608082015161476c608085018261416c565b5060a082015161477f60a08501826141d5565b5060c082015161479260c085018261414e565b5060e08201516147a560e085018261414e565b50505050565b60c0820160008201516147c16000850182614917565b5060208201516147d4602085018261414e565b5060408201516147e7604085018261414e565b5060608201516147fa6060850182614917565b50608082015161480d60808501826141a8565b5060a082015161482060a08501826148f9565b50505050565b60006101208301600083015161483f6000860182614917565b5060208301516148526020860182614917565b5060408301516148656040860182614917565b5060608301516148786060860182614917565b50608083015161488b608086018261416c565b5060a083015184820360a08601526148a382826141f3565b91505060c083015184820360c08601526148bd82826141f3565b91505060e08301516148d260e086018261414e565b506101008301518482036101008601526148ec82826141f3565b9150508091505092915050565b614902816150f1565b82525050565b614911816150f1565b82525050565b614920816150fb565b82525050565b61492f816150fb565b82525050565b600060408201905061494a600083018561415d565b61495760208301846141c6565b9392505050565b6000602082019050614973600083018461418a565b92915050565b600060208201905061498e6000830184614199565b92915050565b60006040820190506149a960008301856141e4565b6149b6602083018461415d565b9392505050565b600060208201905081810360008301526149d681614265565b9050919050565b600060208201905081810360008301526149f6816142cb565b9050919050565b60006020820190508181036000830152614a168161430b565b9050919050565b60006020820190508181036000830152614a368161434b565b9050919050565b60006020820190508181036000830152614a56816143b1565b9050919050565b60006020820190508181036000830152614a76816143f1565b9050919050565b60006020820190508181036000830152614a9681614431565b9050919050565b60006020820190508181036000830152614ab681614471565b9050919050565b60006020820190508181036000830152614ad6816144d7565b9050919050565b60006020820190508181036000830152614af681614517565b9050919050565b60006020820190508181036000830152614b1681614557565b9050919050565b60006020820190508181036000830152614b3681614597565b9050919050565b60006020820190508181036000830152614b56816145fd565b9050919050565b60006020820190508181036000830152614b7681614663565b9050919050565b60006020820190508181036000830152614b96816146a3565b9050919050565b600061010082019050614bb36000830184614709565b92915050565b600060c082019050614bce60008301846147ab565b92915050565b60006020820190508181036000830152614bee8184614826565b905092915050565b6000602082019050614c0b6000830184614926565b92915050565b600060c082019050614c266000830189614926565b614c33602083018861415d565b614c40604083018761415d565b614c4d6060830186614926565b614c5a60808301856141b7565b614c6760a0830184614908565b979650505050505050565b6000608082019050614c876000830187614926565b8181036020830152614c99818661422c565b90508181036040830152614cad818561422c565b9050614cbc6060830184614908565b95945050505050565b600060a082019050614cda6000830188614926565b8181036020830152614cec818761422c565b90508181036040830152614d00818661422c565b9050614d0f6060830185614908565b614d1c608083018461415d565b9695505050505050565b600060e082019050614d3b600083018a614926565b614d486020830189614926565b614d556040830188614926565b614d62606083018761415d565b8181036080830152614d74818661422c565b905081810360a0830152614d88818561422c565b905081810360c0830152614d9c818461422c565b905098975050505050505050565b600061010082019050614dc0600083018b614926565b614dcd602083018a614926565b614dda6040830189614926565b614de76060830188614926565b614df4608083018761417b565b614e0160a08301866141e4565b614e0e60c083018561415d565b614e1b60e083018461415d565b9998505050505050505050565b600061012082019050614e3e600083018c614926565b614e4b602083018b614926565b614e58604083018a614926565b614e656060830189614926565b614e72608083018861417b565b81810360a0830152614e84818761422c565b905081810360c0830152614e98818661422c565b9050614ea760e083018561415d565b818103610100830152614eba818461422c565b90509a9950505050505050505050565b6000604051905081810181811067ffffffffffffffff82111715614ef157614ef06152b7565b5b8060405250919050565b600067ffffffffffffffff821115614f1657614f156152b7565b5b602082029050602081019050919050565b600067ffffffffffffffff821115614f4257614f416152b7565b5b602082029050602081019050919050565b600067ffffffffffffffff821115614f6e57614f6d6152b7565b5b602082029050602081019050919050565b600067ffffffffffffffff821115614f9a57614f996152b7565b5b602082029050602081019050919050565b600067ffffffffffffffff821115614fc657614fc56152b7565b5b601f19601f8301169050602081019050919050565b600081519050919050565b600082825260208201905092915050565b600082825260208201905092915050565b6000615013826150fb565b915061501e836150fb565b92508163ffffffff048311821515161561503b5761503a61522a565b5b828202905092915050565b6000615051826150fb565b915061505c836150fb565b92508282101561506f5761506e61522a565b5b828203905092915050565b6000615085826150d1565b9050919050565b60008115159050919050565b60008190506150a6826152f7565b919050565b60008190506150b98261530b565b919050565b60008190506150cc8261531f565b919050565b600073ffffffffffffffffffffffffffffffffffffffff82169050919050565b6000819050919050565b600063ffffffff82169050919050565b60006151168261511d565b9050919050565b6000615128826150d1565b9050919050565b600061513a82615141565b9050919050565b600061514c826150d1565b9050919050565b600061515e82615098565b9050919050565b6000615170826150ab565b9050919050565b6000615182826150be565b9050919050565b82818337600083830152505050565b60005b838110156151b657808201518184015260208101905061519b565b838111156151c5576000848401525b50505050565b600060028204905060018216806151e357607f821691505b602082108114156151f7576151f6615288565b5b50919050565b6000615208826150fb565b915063ffffffff82141561521f5761521e61522a565b5b600182019050919050565b7f4e487b7100000000000000000000000000000000000000000000000000000000600052601160045260246000fd5b7f4e487b7100000000000000000000000000000000000000000000000000000000600052602160045260246000fd5b7f4e487b7100000000000000000000000000000000000000000000000000000000600052602260045260246000fd5b7f4e487b7100000000000000000000000000000000000000000000000000000000600052604160045260246000fd5b6000601f19601f8301169050919050565b6003811061530857615307615259565b5b50565b6008811061531c5761531b615259565b5b50565b600281106153305761532f615259565b5b50565b61533c8161507a565b811461534757600080fd5b50565b6153538161508c565b811461535e57600080fd5b50565b6004811061536e57600080fd5b50565b6003811061537e57600080fd5b50565b6002811061538e57600080fd5b50565b61539a816150f1565b81146153a557600080fd5b50565b6153b1816150fb565b81146153bc57600080fd5b5056fea2646970667358221220e215dfc600b30ef4d085d62b33c562ec2aadab249df48977189c8e97f563e61864736f6c63430008000033",
  "linkReferences": {},
  "deployedLinkReferences": {}
}