{
  "_format": "hh-sol-artifact-1",
  "contractName": "CollecteurProducteur",
  "sourceName": "contracts/CollecteurProducteur.sol",
  "abi": [
    {
      "anonymous": false,
      "inputs": [
        {
          "indexed": true,
          "internalType": "uint32",
          "name": "idProduit",
          "type": "uint32"
        },
        {
          "indexed": false,
          "internalType": "string",
          "name": "cid",
          "type": "string"
        },
        {
          "indexed": false,
          "internalType": "uint256",
          "name": "timestamp",
          "type": "uint256"
        },
        {
          "indexed": false,
          "internalType": "address",
          "name": "transporteur",
          "type": "address"
        }
      ],
      "name": "ConditionEnregistree",
      "type": "event"
    },
    {
      "anonymous": false,
      "inputs": [
        {
          "indexed": true,
          "internalType": "uint32",
          "name": "idCommande",
          "type": "uint32"
        },
        {
          "indexed": false,
          "internalType": "bool",
          "name": "status",
          "type": "bool"
        }
      ],
      "name": "ValidationCommandeRecolte",
      "type": "event"
    },
    {
      "inputs": [
        {
          "internalType": "uint32[]",
          "name": "_idParcelles",
          "type": "uint32[]"
        },
        {
          "internalType": "uint32",
          "name": "_quantite",
          "type": "uint32"
        },
        {
          "internalType": "uint32",
          "name": "_prix",
          "type": "uint32"
        },
        {
          "internalType": "string",
          "name": "_cid",
          "type": "string"
        }
      ],
      "name": "ajoutRecolte",
      "outputs": [],
      "stateMutability": "nonpayable",
      "type": "function"
    },
    {
      "inputs": [
        {
          "internalType": "uint32",
          "name": "_idRecolte",
          "type": "uint32"
        },
        {
          "internalType": "string",
          "name": "_certificat",
          "type": "string"
        }
      ],
      "name": "certifieRecolte",
      "outputs": [],
      "stateMutability": "nonpayable",
      "type": "function"
    },
    {
      "inputs": [
        {
          "internalType": "uint32",
          "name": "idCommande",
          "type": "uint32"
        },
        {
          "internalType": "address",
          "name": "transporteur",
          "type": "address"
        }
      ],
      "name": "choisirTransporteurCommandeRecolte",
      "outputs": [],
      "stateMutability": "nonpayable",
      "type": "function"
    },
    {
      "inputs": [
        {
          "internalType": "uint32",
          "name": "",
          "type": "uint32"
        }
      ],
      "name": "commandes",
      "outputs": [
        {
          "internalType": "uint32",
          "name": "id",
          "type": "uint32"
        },
        {
          "internalType": "uint32",
          "name": "idRecolte",
          "type": "uint32"
        },
        {
          "internalType": "uint32",
          "name": "quantite",
          "type": "uint32"
        },
        {
          "internalType": "uint32",
          "name": "prix",
          "type": "uint32"
        },
        {
          "internalType": "bool",
          "name": "payer",
          "type": "bool"
        },
        {
          "internalType": "enum StructLib.StatutTransport",
          "name": "statutTransport",
          "type": "uint8"
        },
        {
          "internalType": "address",
          "name": "producteur",
          "type": "address"
        },
        {
          "internalType": "address",
          "name": "collecteur",
          "type": "address"
        },
        {
          "internalType": "enum StructLib.StatutProduit",
          "name": "statutRecolte",
          "type": "uint8"
        },
        {
          "internalType": "string",
          "name": "hashMerkle",
          "type": "string"
        },
        {
          "internalType": "bool",
          "name": "enregistrerCondition",
          "type": "bool"
        },
        {
          "internalType": "address",
          "name": "transporteur",
          "type": "address"
        }
      ],
      "stateMutability": "view",
      "type": "function"
    },
    {
      "inputs": [],
      "name": "compteurCommandes",
      "outputs": [
        {
          "internalType": "uint32",
          "name": "",
          "type": "uint32"
        }
      ],
      "stateMutability": "view",
      "type": "function"
    },
    {
      "inputs": [],
      "name": "compteurRecoltes",
      "outputs": [
        {
          "internalType": "uint32",
          "name": "",
          "type": "uint32"
        }
      ],
      "stateMutability": "view",
      "type": "function"
    },
    {
      "inputs": [
        {
          "internalType": "uint32",
          "name": "",
          "type": "uint32"
        }
      ],
      "name": "conditions",
      "outputs": [
        {
          "internalType": "uint32",
          "name": "id",
          "type": "uint32"
        },
        {
          "internalType": "string",
          "name": "cid",
          "type": "string"
        },
        {
          "internalType": "uint256",
          "name": "timestamp",
          "type": "uint256"
        },
        {
          "internalType": "string",
          "name": "hashMerkle",
          "type": "string"
        }
      ],
      "stateMutability": "view",
      "type": "function"
    },
    {
      "inputs": [
        {
          "internalType": "uint32",
          "name": "_idCommande",
          "type": "uint32"
        },
        {
          "internalType": "uint32",
          "name": "_montant",
          "type": "uint32"
        },
        {
          "internalType": "enum StructLib.ModePaiement",
          "name": "_mode",
          "type": "uint8"
        }
      ],
      "name": "effectuerPaiementVersProducteur",
      "outputs": [],
      "stateMutability": "payable",
      "type": "function"
    },
    {
      "inputs": [
        {
          "internalType": "uint32",
          "name": "_idCommande",
          "type": "uint32"
        },
        {
          "internalType": "string",
          "name": "_cid",
          "type": "string"
        }
      ],
      "name": "enregistrerCondition",
      "outputs": [],
      "stateMutability": "nonpayable",
      "type": "function"
    },
    {
      "inputs": [],
      "name": "gestionnaireActeurs",
      "outputs": [
        {
          "internalType": "contract GestionnaireActeurs",
          "name": "",
          "type": "address"
        }
      ],
      "stateMutability": "view",
      "type": "function"
    },
    {
      "inputs": [
        {
          "internalType": "uint32",
          "name": "_id",
          "type": "uint32"
        }
      ],
      "name": "getCommande",
      "outputs": [
        {
          "components": [
            {
              "internalType": "uint32",
              "name": "id",
              "type": "uint32"
            },
            {
              "internalType": "uint32",
              "name": "idRecolte",
              "type": "uint32"
            },
            {
              "internalType": "uint32",
              "name": "quantite",
              "type": "uint32"
            },
            {
              "internalType": "uint32",
              "name": "prix",
              "type": "uint32"
            },
            {
              "internalType": "bool",
              "name": "payer",
              "type": "bool"
            },
            {
              "internalType": "enum StructLib.StatutTransport",
              "name": "statutTransport",
              "type": "uint8"
            },
            {
              "internalType": "address",
              "name": "producteur",
              "type": "address"
            },
            {
              "internalType": "address",
              "name": "collecteur",
              "type": "address"
            },
            {
              "internalType": "enum StructLib.StatutProduit",
              "name": "statutRecolte",
              "type": "uint8"
            },
            {
              "internalType": "string",
              "name": "hashMerkle",
              "type": "string"
            },
            {
              "internalType": "bool",
              "name": "enregistrerCondition",
              "type": "bool"
            },
            {
              "internalType": "address",
              "name": "transporteur",
              "type": "address"
            }
          ],
          "internalType": "struct StructLib.CommandeRecolte",
          "name": "",
          "type": "tuple"
        }
      ],
      "stateMutability": "view",
      "type": "function"
    },
    {
      "inputs": [],
      "name": "getCompteurCommandes",
      "outputs": [
        {
          "internalType": "uint32",
          "name": "",
          "type": "uint32"
        }
      ],
      "stateMutability": "view",
      "type": "function"
    },
    {
      "inputs": [],
      "name": "getCompteurPaiments",
      "outputs": [
        {
          "internalType": "uint32",
          "name": "",
          "type": "uint32"
        }
      ],
      "stateMutability": "view",
      "type": "function"
    },
    {
      "inputs": [],
      "name": "getCompteurRecoltes",
      "outputs": [
        {
          "internalType": "uint32",
          "name": "",
          "type": "uint32"
        }
      ],
      "stateMutability": "view",
      "type": "function"
    },
    {
      "inputs": [
        {
          "internalType": "uint32",
          "name": "_idCommande",
          "type": "uint32"
        }
      ],
      "name": "getConditionTransport",
      "outputs": [
        {
          "components": [
            {
              "internalType": "uint32",
              "name": "id",
              "type": "uint32"
            },
            {
              "internalType": "string",
              "name": "cid",
              "type": "string"
            },
            {
              "internalType": "uint256",
              "name": "timestamp",
              "type": "uint256"
            },
            {
              "internalType": "string",
              "name": "hashMerkle",
              "type": "string"
            }
          ],
          "internalType": "struct StructLib.EnregistrementCondition",
          "name": "",
          "type": "tuple"
        }
      ],
      "stateMutability": "view",
      "type": "function"
    },
    {
      "inputs": [
        {
          "internalType": "uint32",
          "name": "_id",
          "type": "uint32"
        }
      ],
      "name": "getPaiement",
      "outputs": [
        {
          "components": [
            {
              "internalType": "uint32",
              "name": "id",
              "type": "uint32"
            },
            {
              "internalType": "address",
              "name": "payeur",
              "type": "address"
            },
            {
              "internalType": "address",
              "name": "vendeur",
              "type": "address"
            },
            {
              "internalType": "uint32",
              "name": "montant",
              "type": "uint32"
            },
            {
              "internalType": "enum StructLib.ModePaiement",
              "name": "mode",
              "type": "uint8"
            },
            {
              "internalType": "uint256",
              "name": "timestamp",
              "type": "uint256"
            },
            {
              "internalType": "string",
              "name": "hashMerkle",
              "type": "string"
            }
          ],
          "internalType": "struct StructLib.Paiement",
          "name": "",
          "type": "tuple"
        }
      ],
      "stateMutability": "view",
      "type": "function"
    },
    {
      "inputs": [
        {
          "internalType": "uint32",
          "name": "_idRecolte",
          "type": "uint32"
        }
      ],
      "name": "getRecolte",
      "outputs": [
        {
          "components": [
            {
              "internalType": "uint32",
              "name": "id",
              "type": "uint32"
            },
            {
              "internalType": "uint32[]",
              "name": "idParcelle",
              "type": "uint32[]"
            },
            {
              "internalType": "uint32",
              "name": "quantite",
              "type": "uint32"
            },
            {
              "internalType": "uint32",
              "name": "prixUnit",
              "type": "uint32"
            },
            {
              "internalType": "bool",
              "name": "certifie",
              "type": "bool"
            },
            {
              "internalType": "string",
              "name": "certificatPhytosanitaire",
              "type": "string"
            },
            {
              "internalType": "address",
              "name": "producteur",
              "type": "address"
            },
            {
              "internalType": "bytes32",
              "name": "hashMerkle",
              "type": "bytes32"
            },
            {
              "internalType": "string",
              "name": "cid",
              "type": "string"
            }
          ],
          "internalType": "struct StructLib.Recolte",
          "name": "",
          "type": "tuple"
        }
      ],
      "stateMutability": "view",
      "type": "function"
    },
    {
      "inputs": [
        {
          "internalType": "address",
          "name": "_addrCE",
          "type": "address"
        },
        {
          "internalType": "address",
          "name": "_gestionnaireActeurs",
          "type": "address"
        },
        {
          "internalType": "address",
          "name": "_producteurEnPhaseCulture",
          "type": "address"
        }
      ],
      "name": "initialiser",
      "outputs": [],
      "stateMutability": "nonpayable",
      "type": "function"
    },
    {
      "inputs": [
        {
          "internalType": "uint32",
          "name": "_idCommande",
          "type": "uint32"
        },
        {
          "internalType": "enum StructLib.StatutTransport",
          "name": "_statut",
          "type": "uint8"
        }
      ],
      "name": "mettreAJourStatutTransport",
      "outputs": [],
      "stateMutability": "nonpayable",
      "type": "function"
    },
    {
      "inputs": [
        {
          "internalType": "uint32",
          "name": "",
          "type": "uint32"
        }
      ],
      "name": "paiements",
      "outputs": [
        {
          "internalType": "uint32",
          "name": "id",
          "type": "uint32"
        },
        {
          "internalType": "address",
          "name": "payeur",
          "type": "address"
        },
        {
          "internalType": "address",
          "name": "vendeur",
          "type": "address"
        },
        {
          "internalType": "uint32",
          "name": "montant",
          "type": "uint32"
        },
        {
          "internalType": "enum StructLib.ModePaiement",
          "name": "mode",
          "type": "uint8"
        },
        {
          "internalType": "uint256",
          "name": "timestamp",
          "type": "uint256"
        },
        {
          "internalType": "string",
          "name": "hashMerkle",
          "type": "string"
        }
      ],
      "stateMutability": "view",
      "type": "function"
    },
    {
      "inputs": [
        {
          "internalType": "uint32",
          "name": "_idRecolte",
          "type": "uint32"
        },
        {
          "internalType": "uint32",
          "name": "_quantite",
          "type": "uint32"
        }
      ],
      "name": "passerCommandeVersProducteur",
      "outputs": [],
      "stateMutability": "nonpayable",
      "type": "function"
    },
    {
      "inputs": [],
      "name": "producteurEnPhaseCulture",
      "outputs": [
        {
          "internalType": "contract IProducteur",
          "name": "",
          "type": "address"
        }
      ],
      "stateMutability": "view",
      "type": "function"
    },
    {
      "inputs": [
        {
          "internalType": "uint32",
          "name": "",
          "type": "uint32"
        }
      ],
      "name": "recoltes",
      "outputs": [
        {
          "internalType": "uint32",
          "name": "id",
          "type": "uint32"
        },
        {
          "internalType": "uint32",
          "name": "quantite",
          "type": "uint32"
        },
        {
          "internalType": "uint32",
          "name": "prixUnit",
          "type": "uint32"
        },
        {
          "internalType": "bool",
          "name": "certifie",
          "type": "bool"
        },
        {
          "internalType": "string",
          "name": "certificatPhytosanitaire",
          "type": "string"
        },
        {
          "internalType": "address",
          "name": "producteur",
          "type": "address"
        },
        {
          "internalType": "bytes32",
          "name": "hashMerkle",
          "type": "bytes32"
        },
        {
          "internalType": "string",
          "name": "cid",
          "type": "string"
        }
      ],
      "stateMutability": "view",
      "type": "function"
    },
    {
      "inputs": [
        {
          "internalType": "address",
          "name": "_addr",
          "type": "address"
        }
      ],
      "name": "setGestionnaireActeurs",
      "outputs": [],
      "stateMutability": "nonpayable",
      "type": "function"
    },
    {
      "inputs": [
        {
          "internalType": "address",
          "name": "_addr",
          "type": "address"
        }
      ],
      "name": "setModuleCE",
      "outputs": [],
      "stateMutability": "nonpayable",
      "type": "function"
    },
    {
      "inputs": [
        {
          "internalType": "address",
          "name": "_addr",
          "type": "address"
        }
      ],
      "name": "setProducteurEnPhaseCulture",
      "outputs": [],
      "stateMutability": "nonpayable",
      "type": "function"
    },
    {
      "inputs": [
        {
          "internalType": "uint32",
          "name": "_idCommande",
          "type": "uint32"
        },
        {
          "internalType": "bool",
          "name": "_valide",
          "type": "bool"
        }
      ],
      "name": "validerCommandeRecolte",
      "outputs": [],
      "stateMutability": "nonpayable",
      "type": "function"
    }
  ],
  "bytecode": "0x608060405234801561001057600080fd5b50615c4480620000216000396000f3fe60806040526004361061019c5760003560e01c806384342842116100ec578063cb3948761161008a578063e550ef9911610064578063e550ef99146105e1578063f1b7e5a81461060a578063f6980cc914610633578063fd643101146106735761019c565b8063cb39487614610562578063cd60462b1461058d578063d84e632d146105b85761019c565b80639e942cd4116100c65780639e942cd41461049f578063b38d3aea146104ca578063b3df2a151461050e578063b5fe2076146105375761019c565b806384342842146104245780638a16156e1461044d5780639d75741d146104765761019c565b80633e7a6049116101595780635293ea51116101335780635293ea51146103405780636f3fd6c51461037d5780637babcffa146103c55780638428d543146104085761019c565b80633e7a6049146102c1578063488dee20146102ea57806350346b0b146103155761019c565b80630b215e64146101a1578063182b03bc146101de57806319c04d0e1461020757806319f1c29014610244578063257687e61461026f5780632d5b365814610298575b600080fd5b3480156101ad57600080fd5b506101c860048036038101906101c39190614709565b6106b0565b6040516101d59190615415565b60405180910390f35b3480156101ea57600080fd5b506102056004803603810190610200919061460c565b610904565b005b34801561021357600080fd5b5061022e60048036038101906102299190614709565b610f32565b60405161023b91906153f3565b60405180910390f35b34801561025057600080fd5b506102596110bf565b6040516102669190615459565b60405180910390f35b34801561027b57600080fd5b5061029660048036038101906102919190614594565b6110d7565b005b3480156102a457600080fd5b506102bf60048036038101906102ba9190614863565b61111b565b005b3480156102cd57600080fd5b506102e860048036038101906102e39190614594565b611a09565b005b3480156102f657600080fd5b506102ff611a4d565b60405161030c9190615459565b60405180910390f35b34801561032157600080fd5b5061032a611a61565b6040516103379190615238565b60405180910390f35b34801561034c57600080fd5b5061036760048036038101906103629190614709565b611a87565b60405161037491906153d1565b60405180910390f35b34801561038957600080fd5b506103a4600480360381019061039f9190614709565b611e31565b6040516103bc9c9b9a99989796959493929190615600565b60405180910390f35b3480156103d157600080fd5b506103ec60048036038101906103e79190614709565b611fed565b6040516103ff9796959493929190615474565b60405180910390f35b610422600480360381019061041d919061489f565b612124565b005b34801561043057600080fd5b5061044b60048036038101906104469190614797565b6129c8565b005b34801561045957600080fd5b50610474600480360381019061046f91906147d3565b612d9c565b005b34801561048257600080fd5b5061049d6004803603810190610498919061480f565b612fda565b005b3480156104ab57600080fd5b506104b46131e3565b6040516104c1919061521d565b60405180910390f35b3480156104d657600080fd5b506104f160048036038101906104ec9190614709565b613209565b604051610505989796959493929190615574565b60405180910390f35b34801561051a57600080fd5b506105356004803603810190610530919061475b565b6133be565b005b34801561054357600080fd5b5061054c6135eb565b6040516105599190615459565b60405180910390f35b34801561056e57600080fd5b50610577613603565b6040516105849190615459565b60405180910390f35b34801561059957600080fd5b506105a2613619565b6040516105af9190615459565b60405180910390f35b3480156105c457600080fd5b506105df60048036038101906105da9190614594565b613633565b005b3480156105ed57600080fd5b506106086004803603810190610603919061480f565b613677565b005b34801561061657600080fd5b50610631600480360381019061062c91906145bd565b6139be565b005b34801561063f57600080fd5b5061065a60048036038101906106559190614709565b613af1565b60405161066a94939291906154ea565b60405180910390f35b34801561067f57600080fd5b5061069a60048036038101906106959190614709565b613c41565b6040516106a79190615437565b60405180910390f35b6106b8613f0f565b600260008363ffffffff1663ffffffff1681526020019081526020016000206040518060e00160405290816000820160009054906101000a900463ffffffff1663ffffffff1663ffffffff1681526020016000820160049054906101000a900473ffffffffffffffffffffffffffffffffffffffff1673ffffffffffffffffffffffffffffffffffffffff1673ffffffffffffffffffffffffffffffffffffffff1681526020016001820160009054906101000a900473ffffffffffffffffffffffffffffffffffffffff1673ffffffffffffffffffffffffffffffffffffffff1673ffffffffffffffffffffffffffffffffffffffff1681526020016001820160149054906101000a900463ffffffff1663ffffffff1663ffffffff1681526020016001820160189054906101000a900460ff166002811115610825577f4e487b7100000000000000000000000000000000000000000000000000000000600052602160045260246000fd5b600281111561085d577f4e487b7100000000000000000000000000000000000000000000000000000000600052602160045260246000fd5b81526020016002820154815260200160038201805461087b906159bc565b80601f01602080910402602001604051908101604052809291908181526020018280546108a7906159bc565b80156108f45780601f106108c9576101008083540402835291602001916108f4565b820191906000526020600020905b8154815290600101906020018083116108d757829003601f168201915b5050505050815250509050919050565b600560009054906101000a900473ffffffffffffffffffffffffffffffffffffffff1673ffffffffffffffffffffffffffffffffffffffff1663d1e47bb33360006040518363ffffffff1660e01b81526004016109629291906151d9565b60206040518083038186803b15801561097a57600080fd5b505afa15801561098e573d6000803e3d6000fd5b505050506040513d601f19601f820116820180604052508101906109b2919061469f565b6109f1576040517f08c379a00000000000000000000000000000000000000000000000000000000081526004016109e890615391565b60405180910390fd5b60005b84518163ffffffff161015610cb757600660009054906101000a900473ffffffffffffffffffffffffffffffffffffffff1673ffffffffffffffffffffffffffffffffffffffff166331686f416040518163ffffffff1660e01b815260040160206040518083038186803b158015610a6b57600080fd5b505afa158015610a7f573d6000803e3d6000fd5b505050506040513d601f19601f82011682018060405250810190610aa39190614732565b63ffffffff16858263ffffffff1681518110610ae8577f4e487b7100000000000000000000000000000000000000000000000000000000600052603260045260246000fd5b602002602001015163ffffffff161115610b37576040517f08c379a0000000000000000000000000000000000000000000000000000000008152600401610b2e90615331565b60405180910390fd5b6000600660009054906101000a900473ffffffffffffffffffffffffffffffffffffffff1673ffffffffffffffffffffffffffffffffffffffff1663421b3e08878463ffffffff1681518110610bb6577f4e487b7100000000000000000000000000000000000000000000000000000000600052603260045260246000fd5b60200260200101516040518263ffffffff1660e01b8152600401610bda9190615459565b60006040518083038186803b158015610bf257600080fd5b505afa158015610c06573d6000803e3d6000fd5b505050506040513d6000823e3d601f19601f82011682018060405250810190610c2f91906146c8565b90503373ffffffffffffffffffffffffffffffffffffffff16816020015173ffffffffffffffffffffffffffffffffffffffff1614610ca3576040517f08c379a0000000000000000000000000000000000000000000000000000000008152600401610c9a90615311565b60405180910390fd5b508080610caf906159ee565b9150506109f4565b506004600081819054906101000a900463ffffffff1680929190610cda906159ee565b91906101000a81548163ffffffff021916908363ffffffff160217905550506000848484843342604051602001610d1696959493929190615171565b604051602081830303815290604052805190602001209050604051806101200160405280600460009054906101000a900463ffffffff1663ffffffff1681526020018681526020018563ffffffff1681526020018463ffffffff1681526020016000151581526020016040518060200160405280600081525081526020013373ffffffffffffffffffffffffffffffffffffffff16815260200182815260200183815250600080600460009054906101000a900463ffffffff1663ffffffff1663ffffffff16815260200190815260200160002060008201518160000160006101000a81548163ffffffff021916908363ffffffff1602179055506020820151816001019080519060200190610e2d929190613fbc565b5060408201518160020160006101000a81548163ffffffff021916908363ffffffff16021790555060608201518160020160046101000a81548163ffffffff021916908363ffffffff16021790555060808201518160020160086101000a81548160ff02191690831515021790555060a0820151816003019080519060200190610eb892919061406c565b5060c08201518160040160006101000a81548173ffffffffffffffffffffffffffffffffffffffff021916908373ffffffffffffffffffffffffffffffffffffffff16021790555060e08201518160050155610100820151816006019080519060200190610f2792919061406c565b509050505050505050565b610f3a6140f2565b600360008363ffffffff1663ffffffff1681526020019081526020016000206040518060800160405290816000820160009054906101000a900463ffffffff1663ffffffff1663ffffffff168152602001600182018054610f9a906159bc565b80601f0160208091040260200160405190810160405280929190818152602001828054610fc6906159bc565b80156110135780601f10610fe857610100808354040283529160200191611013565b820191906000526020600020905b815481529060010190602001808311610ff657829003601f168201915b5050505050815260200160028201548152602001600382018054611036906159bc565b80601f0160208091040260200160405190810160405280929190818152602001828054611062906159bc565b80156110af5780601f10611084576101008083540402835291602001916110af565b820191906000526020600020905b81548152906001019060200180831161109257829003601f168201915b5050505050815250509050919050565b600060048054906101000a900463ffffffff16905090565b80600660006101000a81548173ffffffffffffffffffffffffffffffffffffffff021916908373ffffffffffffffffffffffffffffffffffffffff16021790555050565b600560009054906101000a900473ffffffffffffffffffffffffffffffffffffffff1673ffffffffffffffffffffffffffffffffffffffff1663d1e47bb33360036040518363ffffffff1660e01b81526004016111799291906151d9565b60206040518083038186803b15801561119157600080fd5b505afa1580156111a5573d6000803e3d6000fd5b505050506040513d601f19601f820116820180604052508101906111c9919061469f565b611208576040517f08c379a00000000000000000000000000000000000000000000000000000000081526004016111ff906152f1565b60405180910390fd5b81600460009054906101000a900463ffffffff1663ffffffff168163ffffffff16111561126a576040517f08c379a000000000000000000000000000000000000000000000000000000000815260040161126190615351565b60405180910390fd5b60008060008563ffffffff1663ffffffff168152602001908152602001600020604051806101200160405290816000820160009054906101000a900463ffffffff1663ffffffff1663ffffffff1681526020016001820180548060200260200160405190810160405280929190818152602001828054801561133757602002820191906000526020600020906000905b82829054906101000a900463ffffffff1663ffffffff16815260200190600401906020826003010492830192600103820291508084116112fa5790505b505050505081526020016002820160009054906101000a900463ffffffff1663ffffffff1663ffffffff1681526020016002820160049054906101000a900463ffffffff1663ffffffff1663ffffffff1681526020016002820160089054906101000a900460ff161515151581526020016003820180546113b7906159bc565b80601f01602080910402602001604051908101604052809291908181526020018280546113e3906159bc565b80156114305780601f1061140557610100808354040283529160200191611430565b820191906000526020600020905b81548152906001019060200180831161141357829003601f168201915b505050505081526020016004820160009054906101000a900473ffffffffffffffffffffffffffffffffffffffff1673ffffffffffffffffffffffffffffffffffffffff1673ffffffffffffffffffffffffffffffffffffffff168152602001600582015481526020016006820180546114a9906159bc565b80601f01602080910402602001604051908101604052809291908181526020018280546114d5906159bc565b80156115225780601f106114f757610100808354040283529160200191611522565b820191906000526020600020905b81548152906001019060200180831161150557829003601f168201915b5050505050815250509050806080015161153b57600080fd5b806040015163ffffffff168363ffffffff16111561155857600080fd5b826000808663ffffffff1663ffffffff16815260200190815260200160002060020160008282829054906101000a900463ffffffff166115989190615808565b92506101000a81548163ffffffff021916908363ffffffff16021790555060048081819054906101000a900463ffffffff16809291906115d7906159ee565b91906101000a81548163ffffffff021916908363ffffffff16021790555050600083826060015161160891906157ca565b905060405180610180016040528060048054906101000a900463ffffffff1663ffffffff1681526020018663ffffffff1681526020018563ffffffff1681526020018263ffffffff16815260200160001515815260200160006001811115611699577f4e487b7100000000000000000000000000000000000000000000000000000000600052602160045260246000fd5b81526020018360c0015173ffffffffffffffffffffffffffffffffffffffff1681526020013373ffffffffffffffffffffffffffffffffffffffff16815260200160006002811115611714577f4e487b7100000000000000000000000000000000000000000000000000000000600052602160045260246000fd5b8152602001604051806020016040528060008152508152602001600115158152602001600073ffffffffffffffffffffffffffffffffffffffff168152506001600060048054906101000a900463ffffffff1663ffffffff1663ffffffff16815260200190815260200160002060008201518160000160006101000a81548163ffffffff021916908363ffffffff16021790555060208201518160000160046101000a81548163ffffffff021916908363ffffffff16021790555060408201518160000160086101000a81548163ffffffff021916908363ffffffff160217905550606082015181600001600c6101000a81548163ffffffff021916908363ffffffff16021790555060808201518160000160106101000a81548160ff02191690831515021790555060a08201518160000160116101000a81548160ff0219169083600181111561188e577f4e487b7100000000000000000000000000000000000000000000000000000000600052602160045260246000fd5b021790555060c08201518160010160006101000a81548173ffffffffffffffffffffffffffffffffffffffff021916908373ffffffffffffffffffffffffffffffffffffffff16021790555060e08201518160020160006101000a81548173ffffffffffffffffffffffffffffffffffffffff021916908373ffffffffffffffffffffffffffffffffffffffff1602179055506101008201518160020160146101000a81548160ff02191690836002811115611973577f4e487b7100000000000000000000000000000000000000000000000000000000600052602160045260246000fd5b021790555061012082015181600301908051906020019061199592919061406c565b506101408201518160040160006101000a81548160ff0219169083151502179055506101608201518160040160016101000a81548173ffffffffffffffffffffffffffffffffffffffff021916908373ffffffffffffffffffffffffffffffffffffffff1602179055509050505050505050565b80600560006101000a81548173ffffffffffffffffffffffffffffffffffffffff021916908373ffffffffffffffffffffffffffffffffffffffff16021790555050565b60048054906101000a900463ffffffff1681565b600660009054906101000a900473ffffffffffffffffffffffffffffffffffffffff1681565b611a8f614120565b600160008363ffffffff1663ffffffff168152602001908152602001600020604051806101800160405290816000820160009054906101000a900463ffffffff1663ffffffff1663ffffffff1681526020016000820160049054906101000a900463ffffffff1663ffffffff1663ffffffff1681526020016000820160089054906101000a900463ffffffff1663ffffffff1663ffffffff16815260200160008201600c9054906101000a900463ffffffff1663ffffffff1663ffffffff1681526020016000820160109054906101000a900460ff161515151581526020016000820160119054906101000a900460ff166001811115611bb8577f4e487b7100000000000000000000000000000000000000000000000000000000600052602160045260246000fd5b6001811115611bf0577f4e487b7100000000000000000000000000000000000000000000000000000000600052602160045260246000fd5b81526020016001820160009054906101000a900473ffffffffffffffffffffffffffffffffffffffff1673ffffffffffffffffffffffffffffffffffffffff1673ffffffffffffffffffffffffffffffffffffffff1681526020016002820160009054906101000a900473ffffffffffffffffffffffffffffffffffffffff1673ffffffffffffffffffffffffffffffffffffffff1673ffffffffffffffffffffffffffffffffffffffff1681526020016002820160149054906101000a900460ff166002811115611ceb577f4e487b7100000000000000000000000000000000000000000000000000000000600052602160045260246000fd5b6002811115611d23577f4e487b7100000000000000000000000000000000000000000000000000000000600052602160045260246000fd5b8152602001600382018054611d37906159bc565b80601f0160208091040260200160405190810160405280929190818152602001828054611d63906159bc565b8015611db05780601f10611d8557610100808354040283529160200191611db0565b820191906000526020600020905b815481529060010190602001808311611d9357829003601f168201915b505050505081526020016004820160009054906101000a900460ff161515151581526020016004820160019054906101000a900473ffffffffffffffffffffffffffffffffffffffff1673ffffffffffffffffffffffffffffffffffffffff1673ffffffffffffffffffffffffffffffffffffffff16815250509050919050565b60016020528060005260406000206000915090508060000160009054906101000a900463ffffffff16908060000160049054906101000a900463ffffffff16908060000160089054906101000a900463ffffffff169080600001600c9054906101000a900463ffffffff16908060000160109054906101000a900460ff16908060000160119054906101000a900460ff16908060010160009054906101000a900473ffffffffffffffffffffffffffffffffffffffff16908060020160009054906101000a900473ffffffffffffffffffffffffffffffffffffffff16908060020160149054906101000a900460ff1690806003018054611f31906159bc565b80601f0160208091040260200160405190810160405280929190818152602001828054611f5d906159bc565b8015611faa5780601f10611f7f57610100808354040283529160200191611faa565b820191906000526020600020905b815481529060010190602001808311611f8d57829003601f168201915b5050505050908060040160009054906101000a900460ff16908060040160019054906101000a900473ffffffffffffffffffffffffffffffffffffffff1690508c565b60026020528060005260406000206000915090508060000160009054906101000a900463ffffffff16908060000160049054906101000a900473ffffffffffffffffffffffffffffffffffffffff16908060010160009054906101000a900473ffffffffffffffffffffffffffffffffffffffff16908060010160149054906101000a900463ffffffff16908060010160189054906101000a900460ff16908060020154908060030180546120a1906159bc565b80601f01602080910402602001604051908101604052809291908181526020018280546120cd906159bc565b801561211a5780601f106120ef5761010080835404028352916020019161211a565b820191906000526020600020905b8154815290600101906020018083116120fd57829003601f168201915b5050505050905087565b600560009054906101000a900473ffffffffffffffffffffffffffffffffffffffff1673ffffffffffffffffffffffffffffffffffffffff1663d1e47bb33360036040518363ffffffff1660e01b81526004016121829291906151d9565b60206040518083038186803b15801561219a57600080fd5b505afa1580156121ae573d6000803e3d6000fd5b505050506040513d601f19601f820116820180604052508101906121d2919061469f565b612211576040517f08c379a0000000000000000000000000000000000000000000000000000000008152600401612208906152f1565b60405180910390fd5b8260048054906101000a900463ffffffff1663ffffffff168163ffffffff161115612271576040517f08c379a0000000000000000000000000000000000000000000000000000000008152600401612268906152b1565b60405180910390fd5b6000600160008663ffffffff1663ffffffff168152602001908152602001600020604051806101800160405290816000820160009054906101000a900463ffffffff1663ffffffff1663ffffffff1681526020016000820160049054906101000a900463ffffffff1663ffffffff1663ffffffff1681526020016000820160089054906101000a900463ffffffff1663ffffffff1663ffffffff16815260200160008201600c9054906101000a900463ffffffff1663ffffffff1663ffffffff1681526020016000820160109054906101000a900460ff161515151581526020016000820160119054906101000a900460ff16600181111561239c577f4e487b7100000000000000000000000000000000000000000000000000000000600052602160045260246000fd5b60018111156123d4577f4e487b7100000000000000000000000000000000000000000000000000000000600052602160045260246000fd5b81526020016001820160009054906101000a900473ffffffffffffffffffffffffffffffffffffffff1673ffffffffffffffffffffffffffffffffffffffff1673ffffffffffffffffffffffffffffffffffffffff1681526020016002820160009054906101000a900473ffffffffffffffffffffffffffffffffffffffff1673ffffffffffffffffffffffffffffffffffffffff1673ffffffffffffffffffffffffffffffffffffffff1681526020016002820160149054906101000a900460ff1660028111156124cf577f4e487b7100000000000000000000000000000000000000000000000000000000600052602160045260246000fd5b6002811115612507577f4e487b7100000000000000000000000000000000000000000000000000000000600052602160045260246000fd5b815260200160038201805461251b906159bc565b80601f0160208091040260200160405190810160405280929190818152602001828054612547906159bc565b80156125945780601f1061256957610100808354040283529160200191612594565b820191906000526020600020905b81548152906001019060200180831161257757829003601f168201915b505050505081526020016004820160009054906101000a900460ff161515151581526020016004820160019054906101000a900473ffffffffffffffffffffffffffffffffffffffff1673ffffffffffffffffffffffffffffffffffffffff1673ffffffffffffffffffffffffffffffffffffffff1681525050905080608001511561261f57600080fd5b806060015163ffffffff168463ffffffff161461263b57600080fd5b60016002811115612675577f4e487b7100000000000000000000000000000000000000000000000000000000600052602160045260246000fd5b81610100015160028111156126b3577f4e487b7100000000000000000000000000000000000000000000000000000000600052602160045260246000fd5b146126bd57600080fd5b600460089054906101000a900473ffffffffffffffffffffffffffffffffffffffff1673ffffffffffffffffffffffffffffffffffffffff1663c1f73cfa82602001518360400151336040518463ffffffff1660e01b81526004016127249392919061553d565b600060405180830381600087803b15801561273e57600080fd5b505af1158015612752573d6000803e3d6000fd5b5050505060018060008763ffffffff1663ffffffff16815260200190815260200160002060000160106101000a81548160ff0219169083151502179055506040518060e001604052808663ffffffff1681526020013373ffffffffffffffffffffffffffffffffffffffff1681526020018260c0015173ffffffffffffffffffffffffffffffffffffffff1681526020018563ffffffff168152602001846002811115612828577f4e487b7100000000000000000000000000000000000000000000000000000000600052602160045260246000fd5b815260200142815260200160405180602001604052806000815250815250600260008763ffffffff1663ffffffff16815260200190815260200160002060008201518160000160006101000a81548163ffffffff021916908363ffffffff16021790555060208201518160000160046101000a81548173ffffffffffffffffffffffffffffffffffffffff021916908373ffffffffffffffffffffffffffffffffffffffff16021790555060408201518160010160006101000a81548173ffffffffffffffffffffffffffffffffffffffff021916908373ffffffffffffffffffffffffffffffffffffffff16021790555060608201518160010160146101000a81548163ffffffff021916908363ffffffff16021790555060808201518160010160186101000a81548160ff02191690836002811115612992577f4e487b7100000000000000000000000000000000000000000000000000000000600052602160045260246000fd5b021790555060a0820151816002015560c08201518160030190805190602001906129bd92919061406c565b509050505050505050565b600560009054906101000a900473ffffffffffffffffffffffffffffffffffffffff1673ffffffffffffffffffffffffffffffffffffffff1663d1e47bb33360036040518363ffffffff1660e01b8152600401612a269291906151d9565b60206040518083038186803b158015612a3e57600080fd5b505afa158015612a52573d6000803e3d6000fd5b505050506040513d601f19601f82011682018060405250810190612a76919061469f565b612ab5576040517f08c379a0000000000000000000000000000000000000000000000000000000008152600401612aac906152f1565b60405180910390fd5b8160048054906101000a900463ffffffff1663ffffffff168163ffffffff161115612b15576040517f08c379a0000000000000000000000000000000000000000000000000000000008152600401612b0c906152b1565b60405180910390fd5b600180811115612b4e577f4e487b7100000000000000000000000000000000000000000000000000000000600052602160045260246000fd5b600160008563ffffffff1663ffffffff16815260200190815260200160002060000160119054906101000a900460ff166001811115612bb6577f4e487b7100000000000000000000000000000000000000000000000000000000600052602160045260246000fd5b14612bc057600080fd5b60006002811115612bfa577f4e487b7100000000000000000000000000000000000000000000000000000000600052602160045260246000fd5b600160008563ffffffff1663ffffffff16815260200190815260200160002060020160149054906101000a900460ff166002811115612c62577f4e487b7100000000000000000000000000000000000000000000000000000000600052602160045260246000fd5b14612c6c57600080fd5b8115612ce75760018060008563ffffffff1663ffffffff16815260200190815260200160002060020160146101000a81548160ff02191690836002811115612cdd577f4e487b7100000000000000000000000000000000000000000000000000000000600052602160045260246000fd5b0217905550612d59565b6002600160008563ffffffff1663ffffffff16815260200190815260200160002060020160146101000a81548160ff02191690836002811115612d53577f4e487b7100000000000000000000000000000000000000000000000000000000600052602160045260246000fd5b02179055505b8263ffffffff167f1df7b2ecf94baf358d5ffc6f43b2769c0b74ac06ff426c80d5eb4106388cb5de83604051612d8f9190615202565b60405180910390a2505050565b600560009054906101000a900473ffffffffffffffffffffffffffffffffffffffff1673ffffffffffffffffffffffffffffffffffffffff1663d1e47bb33360056040518363ffffffff1660e01b8152600401612dfa9291906151d9565b60206040518083038186803b158015612e1257600080fd5b505afa158015612e26573d6000803e3d6000fd5b505050506040513d601f19601f82011682018060405250810190612e4a919061469f565b612e89576040517f08c379a0000000000000000000000000000000000000000000000000000000008152600401612e80906152d1565b60405180910390fd5b8160048054906101000a900463ffffffff1663ffffffff168163ffffffff161115612ee9576040517f08c379a0000000000000000000000000000000000000000000000000000000008152600401612ee0906152b1565b60405180910390fd5b823373ffffffffffffffffffffffffffffffffffffffff16600160008363ffffffff1663ffffffff16815260200190815260200160002060040160019054906101000a900473ffffffffffffffffffffffffffffffffffffffff1673ffffffffffffffffffffffffffffffffffffffff1614612f6457600080fd5b82600160008663ffffffff1663ffffffff16815260200190815260200160002060000160116101000a81548160ff02191690836001811115612fcf577f4e487b7100000000000000000000000000000000000000000000000000000000600052602160045260246000fd5b021790555050505050565b600560009054906101000a900473ffffffffffffffffffffffffffffffffffffffff1673ffffffffffffffffffffffffffffffffffffffff1663d1e47bb33360026040518363ffffffff1660e01b81526004016130389291906151d9565b60206040518083038186803b15801561305057600080fd5b505afa158015613064573d6000803e3d6000fd5b505050506040513d601f19601f82011682018060405250810190613088919061469f565b6130c7576040517f08c379a00000000000000000000000000000000000000000000000000000000081526004016130be90615291565b60405180910390fd5b81600460009054906101000a900463ffffffff1663ffffffff168163ffffffff161115613129576040517f08c379a000000000000000000000000000000000000000000000000000000000815260040161312090615351565b60405180910390fd5b60008251141561316e576040517f08c379a000000000000000000000000000000000000000000000000000000000815260040161316590615371565b60405180910390fd5b60016000808563ffffffff1663ffffffff16815260200190815260200160002060020160086101000a81548160ff021916908315150217905550816000808563ffffffff1663ffffffff16815260200190815260200160002060030190805190602001906131dd92919061406c565b50505050565b600560009054906101000a900473ffffffffffffffffffffffffffffffffffffffff1681565b60006020528060005260406000206000915090508060000160009054906101000a900463ffffffff16908060020160009054906101000a900463ffffffff16908060020160049054906101000a900463ffffffff16908060020160089054906101000a900460ff1690806003018054613281906159bc565b80601f01602080910402602001604051908101604052809291908181526020018280546132ad906159bc565b80156132fa5780601f106132cf576101008083540402835291602001916132fa565b820191906000526020600020905b8154815290600101906020018083116132dd57829003601f168201915b5050505050908060040160009054906101000a900473ffffffffffffffffffffffffffffffffffffffff169080600501549080600601805461333b906159bc565b80601f0160208091040260200160405190810160405280929190818152602001828054613367906159bc565b80156133b45780601f10613389576101008083540402835291602001916133b4565b820191906000526020600020905b81548152906001019060200180831161339757829003601f168201915b5050505050905088565b600560009054906101000a900473ffffffffffffffffffffffffffffffffffffffff1673ffffffffffffffffffffffffffffffffffffffff1663d1e47bb33360036040518363ffffffff1660e01b815260040161341c9291906151d9565b60206040518083038186803b15801561343457600080fd5b505afa158015613448573d6000803e3d6000fd5b505050506040513d601f19601f8201168201806040525081019061346c919061469f565b6134ab576040517f08c379a00000000000000000000000000000000000000000000000000000000081526004016134a2906152f1565b60405180910390fd5b8160048054906101000a900463ffffffff1663ffffffff168163ffffffff16111561350b576040517f08c379a0000000000000000000000000000000000000000000000000000000008152600401613502906152b1565b60405180910390fd5b3373ffffffffffffffffffffffffffffffffffffffff16600160008563ffffffff1663ffffffff16815260200190815260200160002060020160009054906101000a900473ffffffffffffffffffffffffffffffffffffffff1673ffffffffffffffffffffffffffffffffffffffff161461358557600080fd5b81600160008563ffffffff1663ffffffff16815260200190815260200160002060040160016101000a81548173ffffffffffffffffffffffffffffffffffffffff021916908373ffffffffffffffffffffffffffffffffffffffff160217905550505050565b600060048054906101000a900463ffffffff16905090565b600460009054906101000a900463ffffffff1681565b6000600460009054906101000a900463ffffffff16905090565b80600460086101000a81548173ffffffffffffffffffffffffffffffffffffffff021916908373ffffffffffffffffffffffffffffffffffffffff16021790555050565b600560009054906101000a900473ffffffffffffffffffffffffffffffffffffffff1673ffffffffffffffffffffffffffffffffffffffff1663d1e47bb33360056040518363ffffffff1660e01b81526004016136d59291906151d9565b60206040518083038186803b1580156136ed57600080fd5b505afa158015613701573d6000803e3d6000fd5b505050506040513d601f19601f82011682018060405250810190613725919061469f565b613764576040517f08c379a000000000000000000000000000000000000000000000000000000000815260040161375b906152d1565b60405180910390fd5b8160048054906101000a900463ffffffff1663ffffffff168163ffffffff1611156137c4576040517f08c379a00000000000000000000000000000000000000000000000000000000081526004016137bb906152b1565b60405180910390fd5b823373ffffffffffffffffffffffffffffffffffffffff16600160008363ffffffff1663ffffffff16815260200190815260200160002060040160019054906101000a900473ffffffffffffffffffffffffffffffffffffffff1673ffffffffffffffffffffffffffffffffffffffff161461383f57600080fd5b600160008563ffffffff1663ffffffff16815260200190815260200160002060040160009054906101000a900460ff161561387957600080fd5b60018060008663ffffffff1663ffffffff16815260200190815260200160002060040160006101000a81548160ff02191690831515021790555060405180608001604052808563ffffffff16815260200184815260200142815260200160405180602001604052806000815250815250600360008663ffffffff1663ffffffff16815260200190815260200160002060008201518160000160006101000a81548163ffffffff021916908363ffffffff160217905550602082015181600101908051906020019061394b92919061406c565b5060408201518160020155606082015181600301908051906020019061397292919061406c565b509050508363ffffffff167fbcbce0994790c925173de558389c26cc831b555df7ed8b14077b3811069cec578442336040516139b093929190615253565b60405180910390a250505050565b600660149054906101000a900460ff1615613a0e576040517f08c379a0000000000000000000000000000000000000000000000000000000008152600401613a05906153b1565b60405180910390fd5b82600460086101000a81548173ffffffffffffffffffffffffffffffffffffffff021916908373ffffffffffffffffffffffffffffffffffffffff16021790555081600560006101000a81548173ffffffffffffffffffffffffffffffffffffffff021916908373ffffffffffffffffffffffffffffffffffffffff16021790555080600660006101000a81548173ffffffffffffffffffffffffffffffffffffffff021916908373ffffffffffffffffffffffffffffffffffffffff1602179055506001600660146101000a81548160ff021916908315150217905550505050565b60036020528060005260406000206000915090508060000160009054906101000a900463ffffffff1690806001018054613b2a906159bc565b80601f0160208091040260200160405190810160405280929190818152602001828054613b56906159bc565b8015613ba35780601f10613b7857610100808354040283529160200191613ba3565b820191906000526020600020905b815481529060010190602001808311613b8657829003601f168201915b505050505090806002015490806003018054613bbe906159bc565b80601f0160208091040260200160405190810160405280929190818152602001828054613bea906159bc565b8015613c375780601f10613c0c57610100808354040283529160200191613c37565b820191906000526020600020905b815481529060010190602001808311613c1a57829003601f168201915b5050505050905084565b613c4961424f565b6000808363ffffffff1663ffffffff168152602001908152602001600020604051806101200160405290816000820160009054906101000a900463ffffffff1663ffffffff1663ffffffff16815260200160018201805480602002602001604051908101604052809291908181526020018280548015613d1457602002820191906000526020600020906000905b82829054906101000a900463ffffffff1663ffffffff1681526020019060040190602082600301049283019260010382029150808411613cd75790505b505050505081526020016002820160009054906101000a900463ffffffff1663ffffffff1663ffffffff1681526020016002820160049054906101000a900463ffffffff1663ffffffff1663ffffffff1681526020016002820160089054906101000a900460ff16151515158152602001600382018054613d94906159bc565b80601f0160208091040260200160405190810160405280929190818152602001828054613dc0906159bc565b8015613e0d5780601f10613de257610100808354040283529160200191613e0d565b820191906000526020600020905b815481529060010190602001808311613df057829003601f168201915b505050505081526020016004820160009054906101000a900473ffffffffffffffffffffffffffffffffffffffff1673ffffffffffffffffffffffffffffffffffffffff1673ffffffffffffffffffffffffffffffffffffffff16815260200160058201548152602001600682018054613e86906159bc565b80601f0160208091040260200160405190810160405280929190818152602001828054613eb2906159bc565b8015613eff5780601f10613ed457610100808354040283529160200191613eff565b820191906000526020600020905b815481529060010190602001808311613ee257829003601f168201915b5050505050815250509050919050565b6040518060e00160405280600063ffffffff168152602001600073ffffffffffffffffffffffffffffffffffffffff168152602001600073ffffffffffffffffffffffffffffffffffffffff168152602001600063ffffffff16815260200160006002811115613fa8577f4e487b7100000000000000000000000000000000000000000000000000000000600052602160045260246000fd5b815260200160008152602001606081525090565b8280548282559060005260206000209060070160089004810192821561405b5791602002820160005b8382111561402957835183826101000a81548163ffffffff021916908363ffffffff1602179055509260200192600401602081600301049283019260010302613fe5565b80156140595782816101000a81549063ffffffff0219169055600401602081600301049283019260010302614029565b505b50905061406891906142c8565b5090565b828054614078906159bc565b90600052602060002090601f01602090048101928261409a57600085556140e1565b82601f106140b357805160ff19168380011785556140e1565b828001600101855582156140e1579182015b828111156140e05782518255916020019190600101906140c5565b5b5090506140ee91906142c8565b5090565b6040518060800160405280600063ffffffff1681526020016060815260200160008152602001606081525090565b604051806101800160405280600063ffffffff168152602001600063ffffffff168152602001600063ffffffff168152602001600063ffffffff168152602001600015158152602001600060018111156141a3577f4e487b7100000000000000000000000000000000000000000000000000000000600052602160045260246000fd5b8152602001600073ffffffffffffffffffffffffffffffffffffffff168152602001600073ffffffffffffffffffffffffffffffffffffffff1681526020016000600281111561421c577f4e487b7100000000000000000000000000000000000000000000000000000000600052602160045260246000fd5b815260200160608152602001600015158152602001600073ffffffffffffffffffffffffffffffffffffffff1681525090565b604051806101200160405280600063ffffffff16815260200160608152602001600063ffffffff168152602001600063ffffffff16815260200160001515815260200160608152602001600073ffffffffffffffffffffffffffffffffffffffff16815260200160008019168152602001606081525090565b5b808211156142e15760008160009055506001016142c9565b5090565b60006142f86142f3846156f2565b6156c1565b9050808382526020820190508285602086028201111561431757600080fd5b60005b85811015614347578161432d888261456a565b84526020840193506020830192505060018101905061431a565b5050509392505050565b600061436461435f8461571e565b6156c1565b90508281526020810184848401111561437c57600080fd5b61438784828561597a565b509392505050565b60006143a261439d8461571e565b6156c1565b9050828152602081018484840111156143ba57600080fd5b6143c5848285615989565b509392505050565b6000813590506143dc81615b92565b92915050565b6000815190506143f181615b92565b92915050565b600082601f83011261440857600080fd5b81356144188482602086016142e5565b91505092915050565b60008135905061443081615ba9565b92915050565b60008151905061444581615ba9565b92915050565b60008151905061445a81615bc0565b92915050565b60008135905061446f81615bd7565b92915050565b60008135905061448481615be7565b92915050565b600082601f83011261449b57600080fd5b81356144ab848260208601614351565b91505092915050565b600082601f8301126144c557600080fd5b81516144d584826020860161438f565b91505092915050565b6000608082840312156144f057600080fd5b6144fa60806156c1565b9050600061450a8482850161457f565b600083015250602061451e848285016143e2565b602083015250604082015167ffffffffffffffff81111561453e57600080fd5b61454a848285016144b4565b604083015250606061455e8482850161444b565b60608301525092915050565b60008135905061457981615bf7565b92915050565b60008151905061458e81615bf7565b92915050565b6000602082840312156145a657600080fd5b60006145b4848285016143cd565b91505092915050565b6000806000606084860312156145d257600080fd5b60006145e0868287016143cd565b93505060206145f1868287016143cd565b9250506040614602868287016143cd565b9150509250925092565b6000806000806080858703121561462257600080fd5b600085013567ffffffffffffffff81111561463c57600080fd5b614648878288016143f7565b94505060206146598782880161456a565b935050604061466a8782880161456a565b925050606085013567ffffffffffffffff81111561468757600080fd5b6146938782880161448a565b91505092959194509250565b6000602082840312156146b157600080fd5b60006146bf84828501614436565b91505092915050565b6000602082840312156146da57600080fd5b600082015167ffffffffffffffff8111156146f457600080fd5b614700848285016144de565b91505092915050565b60006020828403121561471b57600080fd5b60006147298482850161456a565b91505092915050565b60006020828403121561474457600080fd5b60006147528482850161457f565b91505092915050565b6000806040838503121561476e57600080fd5b600061477c8582860161456a565b925050602061478d858286016143cd565b9150509250929050565b600080604083850312156147aa57600080fd5b60006147b88582860161456a565b92505060206147c985828601614421565b9150509250929050565b600080604083850312156147e657600080fd5b60006147f48582860161456a565b925050602061480585828601614475565b9150509250929050565b6000806040838503121561482257600080fd5b60006148308582860161456a565b925050602083013567ffffffffffffffff81111561484d57600080fd5b6148598582860161448a565b9150509250929050565b6000806040838503121561487657600080fd5b60006148848582860161456a565b92505060206148958582860161456a565b9150509250929050565b6000806000606084860312156148b457600080fd5b60006148c28682870161456a565b93505060206148d38682870161456a565b92505060406148e486828701614460565b9150509250925092565b60006148fa838361512d565b60208301905092915050565b6000614912838361514b565b60208301905092915050565b6149278161583c565b82525050565b6149368161583c565b82525050565b61494d6149488261583c565b615a1b565b82525050565b600061495e8261575e565b6149688185615781565b93506149738361574e565b8060005b838110156149a457815161498b88826148ee565b975061499683615774565b925050600181019050614977565b5085935050505092915050565b60006149bc8261575e565b6149c68185615792565b93506149d18361574e565b8060005b83811015614a025781516149e98882614906565b97506149f483615774565b9250506001810190506149d5565b5085935050505092915050565b614a188161584e565b82525050565b614a278161584e565b82525050565b614a368161585a565b82525050565b614a458161585a565b82525050565b614a54816158ea565b82525050565b614a638161590e565b82525050565b614a7281615932565b82525050565b614a8181615932565b82525050565b614a9081615944565b82525050565b614a9f81615956565b82525050565b614aae81615956565b82525050565b614abd81615968565b82525050565b614acc81615968565b82525050565b6000614add82615769565b614ae7818561579d565b9350614af7818560208601615989565b614b0081615b17565b840191505092915050565b6000614b1682615769565b614b2081856157ae565b9350614b30818560208601615989565b614b3981615b17565b840191505092915050565b6000614b4f82615769565b614b5981856157bf565b9350614b69818560208601615989565b80840191505092915050565b6000614b826017836157ae565b91507f7365756c656d656e7420436572746966696361746575720000000000000000006000830152602082019050919050565b6000614bc26015836157ae565b91507f436f6d6d616e6465206e6f6e206578697374616e7400000000000000000000006000830152602082019050919050565b6000614c026016836157ae565b91507f7365756c656d656e74205472616e73706f7274657572000000000000000000006000830152602082019050919050565b6000614c426014836157ae565b91507f7365756c656d656e7420436f6c6c6563746575720000000000000000000000006000830152602082019050919050565b6000614c826028836157ae565b91507f566f7573206e27657374207061732070726f707269657461697265206475207060008301527f617263656c6c652e0000000000000000000000000000000000000000000000006020830152604082019050919050565b6000614ce86016836157ae565b91507f50617263656c6c65206e6f6e206578697374616e742e000000000000000000006000830152602082019050919050565b6000614d286014836157ae565b91507f5265636f6c7465206e6f6e206578697374616e740000000000000000000000006000830152602082019050919050565b6000614d68600f836157ae565b91507f43657274696669636174207669646500000000000000000000000000000000006000830152602082019050919050565b6000614da86014836157ae565b91507f7365756c656d656e742050726f647563746575720000000000000000000000006000830152602082019050919050565b6000614de8601a836157ae565b91507f436f6e747261742064656a6120696e697469616c6973657220210000000000006000830152602082019050919050565b600061018083016000830151614e34600086018261512d565b506020830151614e47602086018261512d565b506040830151614e5a604086018261512d565b506060830151614e6d606086018261512d565b506080830151614e806080860182614a0f565b5060a0830151614e9360a0860182614ab4565b5060c0830151614ea660c086018261491e565b5060e0830151614eb960e086018261491e565b50610100830151614ece610100860182614a96565b50610120830151848203610120860152614ee88282614ad2565b915050610140830151614eff610140860182614a0f565b50610160830151614f1461016086018261491e565b508091505092915050565b6000608083016000830151614f37600086018261512d565b5060208301518482036020860152614f4f8282614ad2565b9150506040830151614f6460408601826150f8565b5060608301518482036060860152614f7c8282614ad2565b9150508091505092915050565b600060e083016000830151614fa1600086018261512d565b506020830151614fb4602086018261491e565b506040830151614fc7604086018261491e565b506060830151614fda606086018261512d565b506080830151614fed6080860182614a69565b5060a083015161500060a08601826150f8565b5060c083015184820360c08601526150188282614ad2565b9150508091505092915050565b60006101208301600083015161503e600086018261512d565b50602083015184820360208601526150568282614953565b915050604083015161506b604086018261512d565b50606083015161507e606086018261512d565b5060808301516150916080860182614a0f565b5060a083015184820360a08601526150a98282614ad2565b91505060c08301516150be60c086018261491e565b5060e08301516150d160e0860182614a2d565b506101008301518482036101008601526150eb8282614ad2565b9150508091505092915050565b615101816158d0565b82525050565b615110816158d0565b82525050565b615127615122826158d0565b615a3f565b82525050565b615136816158da565b82525050565b615145816158da565b82525050565b615154816158da565b82525050565b61516b615166826158da565b615a49565b82525050565b600061517d82896149b1565b9150615189828861515a565b600482019150615199828761515a565b6004820191506151a98286614b44565b91506151b5828561493c565b6014820191506151c58284615116565b602082019150819050979650505050505050565b60006040820190506151ee600083018561492d565b6151fb6020830184614a87565b9392505050565b60006020820190506152176000830184614a1e565b92915050565b60006020820190506152326000830184614a4b565b92915050565b600060208201905061524d6000830184614a5a565b92915050565b6000606082019050818103600083015261526d8186614b0b565b905061527c6020830185615107565b615289604083018461492d565b949350505050565b600060208201905081810360008301526152aa81614b75565b9050919050565b600060208201905081810360008301526152ca81614bb5565b9050919050565b600060208201905081810360008301526152ea81614bf5565b9050919050565b6000602082019050818103600083015261530a81614c35565b9050919050565b6000602082019050818103600083015261532a81614c75565b9050919050565b6000602082019050818103600083015261534a81614cdb565b9050919050565b6000602082019050818103600083015261536a81614d1b565b9050919050565b6000602082019050818103600083015261538a81614d5b565b9050919050565b600060208201905081810360008301526153aa81614d9b565b9050919050565b600060208201905081810360008301526153ca81614ddb565b9050919050565b600060208201905081810360008301526153eb8184614e1b565b905092915050565b6000602082019050818103600083015261540d8184614f1f565b905092915050565b6000602082019050818103600083015261542f8184614f89565b905092915050565b600060208201905081810360008301526154518184615025565b905092915050565b600060208201905061546e600083018461513c565b92915050565b600060e082019050615489600083018a61513c565b615496602083018961492d565b6154a3604083018861492d565b6154b0606083018761513c565b6154bd6080830186614a78565b6154ca60a0830185615107565b81810360c08301526154dc8184614b0b565b905098975050505050505050565b60006080820190506154ff600083018761513c565b81810360208301526155118186614b0b565b90506155206040830185615107565b81810360608301526155328184614b0b565b905095945050505050565b6000606082019050615552600083018661513c565b61555f602083018561513c565b61556c604083018461492d565b949350505050565b60006101008201905061558a600083018b61513c565b615597602083018a61513c565b6155a4604083018961513c565b6155b16060830188614a1e565b81810360808301526155c38187614b0b565b90506155d260a083018661492d565b6155df60c0830185614a3c565b81810360e08301526155f18184614b0b565b90509998505050505050505050565b600061018082019050615616600083018f61513c565b615623602083018e61513c565b615630604083018d61513c565b61563d606083018c61513c565b61564a608083018b614a1e565b61565760a083018a614ac3565b61566460c083018961492d565b61567160e083018861492d565b61567f610100830187614aa5565b8181036101208301526156928186614b0b565b90506156a2610140830185614a1e565b6156b061016083018461492d565b9d9c50505050505050505050505050565b6000604051905081810181811067ffffffffffffffff821117156156e8576156e7615ae8565b5b8060405250919050565b600067ffffffffffffffff82111561570d5761570c615ae8565b5b602082029050602081019050919050565b600067ffffffffffffffff82111561573957615738615ae8565b5b601f19601f8301169050602081019050919050565b6000819050602082019050919050565b600081519050919050565b600081519050919050565b6000602082019050919050565b600082825260208201905092915050565b600081905092915050565b600082825260208201905092915050565b600082825260208201905092915050565b600081905092915050565b60006157d5826158da565b91506157e0836158da565b92508163ffffffff04831182151516156157fd576157fc615a5b565b5b828202905092915050565b6000615813826158da565b915061581e836158da565b92508282101561583157615830615a5b565b5b828203905092915050565b6000615847826158b0565b9050919050565b60008115159050919050565b6000819050919050565b600081905061587282615b42565b919050565b600081905061588582615b56565b919050565b600081905061589882615b6a565b919050565b60008190506158ab82615b7e565b919050565b600073ffffffffffffffffffffffffffffffffffffffff82169050919050565b6000819050919050565b600063ffffffff82169050919050565b60006158f5826158fc565b9050919050565b6000615907826158b0565b9050919050565b600061591982615920565b9050919050565b600061592b826158b0565b9050919050565b600061593d82615864565b9050919050565b600061594f82615877565b9050919050565b60006159618261588a565b9050919050565b60006159738261589d565b9050919050565b82818337600083830152505050565b60005b838110156159a757808201518184015260208101905061598c565b838111156159b6576000848401525b50505050565b600060028204905060018216806159d457607f821691505b602082108114156159e8576159e7615ab9565b5b50919050565b60006159f9826158da565b915063ffffffff821415615a1057615a0f615a5b565b5b600182019050919050565b6000615a2682615a2d565b9050919050565b6000615a3882615b35565b9050919050565b6000819050919050565b6000615a5482615b28565b9050919050565b7f4e487b7100000000000000000000000000000000000000000000000000000000600052601160045260246000fd5b7f4e487b7100000000000000000000000000000000000000000000000000000000600052602160045260246000fd5b7f4e487b7100000000000000000000000000000000000000000000000000000000600052602260045260246000fd5b7f4e487b7100000000000000000000000000000000000000000000000000000000600052604160045260246000fd5b6000601f19601f8301169050919050565b60008160e01b9050919050565b60008160601b9050919050565b60038110615b5357615b52615a8a565b5b50565b60088110615b6757615b66615a8a565b5b50565b60038110615b7b57615b7a615a8a565b5b50565b60028110615b8f57615b8e615a8a565b5b50565b615b9b8161583c565b8114615ba657600080fd5b50565b615bb28161584e565b8114615bbd57600080fd5b50565b615bc98161585a565b8114615bd457600080fd5b50565b60038110615be457600080fd5b50565b60028110615bf457600080fd5b50565b615c00816158da565b8114615c0b57600080fd5b5056fea264697066735822122045fed0235cf74b3817f2c403f7424e25a3ba82fbda34e679ad008ee94ee78ff664736f6c63430008000033",
  "linkReferences": {},
  "deployedLinkReferences": {}
}