{
  "_format": "hh-sol-artifact-1",
  "contractName": "CollecteurProducteur",
  "sourceName": "contracts/CollecteurProducteur.sol",
  "abi": [
    {
      "anonymous": false,
      "inputs": [
        {
          "indexed": true,
          "internalType": "uint32",
          "name": "idProduit",
          "type": "uint32"
        },
        {
          "indexed": false,
          "internalType": "string",
          "name": "cid",
          "type": "string"
        },
        {
          "indexed": false,
          "internalType": "uint256",
          "name": "timestamp",
          "type": "uint256"
        },
        {
          "indexed": false,
          "internalType": "address",
          "name": "transporteur",
          "type": "address"
        }
      ],
      "name": "ConditionEnregistree",
      "type": "event"
    },
    {
      "anonymous": false,
      "inputs": [
        {
          "indexed": true,
          "internalType": "uint32",
          "name": "idCommande",
          "type": "uint32"
        },
        {
          "indexed": false,
          "internalType": "bool",
          "name": "status",
          "type": "bool"
        }
      ],
      "name": "ValidationCommandeRecolte",
      "type": "event"
    },
    {
      "inputs": [
        {
          "internalType": "uint32[]",
          "name": "_idParcelles",
          "type": "uint32[]"
        },
        {
          "internalType": "uint32",
          "name": "_quantite",
          "type": "uint32"
        },
        {
          "internalType": "uint32",
          "name": "_prix",
          "type": "uint32"
        },
        {
          "internalType": "string",
          "name": "_cid",
          "type": "string"
        }
      ],
      "name": "ajoutRecolte",
      "outputs": [],
      "stateMutability": "nonpayable",
      "type": "function"
    },
    {
      "inputs": [
        {
          "internalType": "uint32",
          "name": "_idRecolte",
          "type": "uint32"
        },
        {
          "internalType": "string",
          "name": "_certificat",
          "type": "string"
        }
      ],
      "name": "certifieRecolte",
      "outputs": [],
      "stateMutability": "nonpayable",
      "type": "function"
    },
    {
      "inputs": [
        {
          "internalType": "uint32",
          "name": "idCommande",
          "type": "uint32"
        },
        {
          "internalType": "address",
          "name": "transporteur",
          "type": "address"
        }
      ],
      "name": "choisirTransporteurCommandeRecolte",
      "outputs": [],
      "stateMutability": "nonpayable",
      "type": "function"
    },
    {
      "inputs": [
        {
          "internalType": "uint32",
          "name": "",
          "type": "uint32"
        }
      ],
      "name": "commandes",
      "outputs": [
        {
          "internalType": "uint32",
          "name": "id",
          "type": "uint32"
        },
        {
          "internalType": "uint32",
          "name": "idRecolte",
          "type": "uint32"
        },
        {
          "internalType": "uint32",
          "name": "quantite",
          "type": "uint32"
        },
        {
          "internalType": "uint32",
          "name": "prix",
          "type": "uint32"
        },
        {
          "internalType": "bool",
          "name": "payer",
          "type": "bool"
        },
        {
          "internalType": "enum StructLib.StatutTransport",
          "name": "statutTransport",
          "type": "uint8"
        },
        {
          "internalType": "address",
          "name": "producteur",
          "type": "address"
        },
        {
          "internalType": "address",
          "name": "collecteur",
          "type": "address"
        },
        {
          "internalType": "enum StructLib.StatutProduit",
          "name": "statutRecolte",
          "type": "uint8"
        },
        {
          "internalType": "bool",
          "name": "enregistrerCondition",
          "type": "bool"
        },
        {
          "internalType": "address",
          "name": "transporteur",
          "type": "address"
        }
      ],
      "stateMutability": "view",
      "type": "function"
    },
    {
      "inputs": [],
      "name": "compteurCommandes",
      "outputs": [
        {
          "internalType": "uint32",
          "name": "",
          "type": "uint32"
        }
      ],
      "stateMutability": "view",
      "type": "function"
    },
    {
      "inputs": [],
      "name": "compteurRecoltes",
      "outputs": [
        {
          "internalType": "uint32",
          "name": "",
          "type": "uint32"
        }
      ],
      "stateMutability": "view",
      "type": "function"
    },
    {
      "inputs": [
        {
          "internalType": "uint32",
          "name": "",
          "type": "uint32"
        }
      ],
      "name": "conditions",
      "outputs": [
        {
          "internalType": "uint32",
          "name": "id",
          "type": "uint32"
        },
        {
          "internalType": "string",
          "name": "cid",
          "type": "string"
        },
        {
          "internalType": "uint256",
          "name": "timestamp",
          "type": "uint256"
        },
        {
          "internalType": "bytes32",
          "name": "hashMerkle",
          "type": "bytes32"
        }
      ],
      "stateMutability": "view",
      "type": "function"
    },
    {
      "inputs": [
        {
          "internalType": "uint32",
          "name": "_idCommande",
          "type": "uint32"
        },
        {
          "internalType": "uint32",
          "name": "_montant",
          "type": "uint32"
        },
        {
          "internalType": "enum StructLib.ModePaiement",
          "name": "_mode",
          "type": "uint8"
        }
      ],
      "name": "effectuerPaiementVersProducteur",
      "outputs": [],
      "stateMutability": "payable",
      "type": "function"
    },
    {
      "inputs": [
        {
          "internalType": "uint32",
          "name": "_idCommande",
          "type": "uint32"
        },
        {
          "internalType": "string",
          "name": "_cid",
          "type": "string"
        }
      ],
      "name": "enregistrerCondition",
      "outputs": [],
      "stateMutability": "nonpayable",
      "type": "function"
    },
    {
      "inputs": [],
      "name": "gestionnaireActeurs",
      "outputs": [
        {
          "internalType": "contract GestionnaireActeurs",
          "name": "",
          "type": "address"
        }
      ],
      "stateMutability": "view",
      "type": "function"
    },
    {
      "inputs": [
        {
          "internalType": "uint32",
          "name": "_id",
          "type": "uint32"
        }
      ],
      "name": "getCommande",
      "outputs": [
        {
          "components": [
            {
              "internalType": "uint32",
              "name": "id",
              "type": "uint32"
            },
            {
              "internalType": "uint32",
              "name": "idRecolte",
              "type": "uint32"
            },
            {
              "internalType": "uint32",
              "name": "quantite",
              "type": "uint32"
            },
            {
              "internalType": "uint32",
              "name": "prix",
              "type": "uint32"
            },
            {
              "internalType": "bool",
              "name": "payer",
              "type": "bool"
            },
            {
              "internalType": "enum StructLib.StatutTransport",
              "name": "statutTransport",
              "type": "uint8"
            },
            {
              "internalType": "address",
              "name": "producteur",
              "type": "address"
            },
            {
              "internalType": "address",
              "name": "collecteur",
              "type": "address"
            },
            {
              "internalType": "enum StructLib.StatutProduit",
              "name": "statutRecolte",
              "type": "uint8"
            },
            {
              "internalType": "bool",
              "name": "enregistrerCondition",
              "type": "bool"
            },
            {
              "internalType": "address",
              "name": "transporteur",
              "type": "address"
            }
          ],
          "internalType": "struct StructLib.CommandeRecolte",
          "name": "",
          "type": "tuple"
        }
      ],
      "stateMutability": "view",
      "type": "function"
    },
    {
      "inputs": [],
      "name": "getCompteurCommandes",
      "outputs": [
        {
          "internalType": "uint32",
          "name": "",
          "type": "uint32"
        }
      ],
      "stateMutability": "view",
      "type": "function"
    },
    {
      "inputs": [],
      "name": "getCompteurPaiments",
      "outputs": [
        {
          "internalType": "uint32",
          "name": "",
          "type": "uint32"
        }
      ],
      "stateMutability": "view",
      "type": "function"
    },
    {
      "inputs": [],
      "name": "getCompteurRecoltes",
      "outputs": [
        {
          "internalType": "uint32",
          "name": "",
          "type": "uint32"
        }
      ],
      "stateMutability": "view",
      "type": "function"
    },
    {
      "inputs": [
        {
          "internalType": "uint32",
          "name": "_idCommande",
          "type": "uint32"
        }
      ],
      "name": "getConditionTransport",
      "outputs": [
        {
          "components": [
            {
              "internalType": "uint32",
              "name": "id",
              "type": "uint32"
            },
            {
              "internalType": "string",
              "name": "cid",
              "type": "string"
            },
            {
              "internalType": "uint256",
              "name": "timestamp",
              "type": "uint256"
            },
            {
              "internalType": "bytes32",
              "name": "hashMerkle",
              "type": "bytes32"
            }
          ],
          "internalType": "struct StructLib.EnregistrementCondition",
          "name": "",
          "type": "tuple"
        }
      ],
      "stateMutability": "view",
      "type": "function"
    },
    {
      "inputs": [
        {
          "internalType": "uint32",
          "name": "_id",
          "type": "uint32"
        }
      ],
      "name": "getPaiement",
      "outputs": [
        {
          "components": [
            {
              "internalType": "uint32",
              "name": "id",
              "type": "uint32"
            },
            {
              "internalType": "address",
              "name": "payeur",
              "type": "address"
            },
            {
              "internalType": "address",
              "name": "vendeur",
              "type": "address"
            },
            {
              "internalType": "uint32",
              "name": "montant",
              "type": "uint32"
            },
            {
              "internalType": "enum StructLib.ModePaiement",
              "name": "mode",
              "type": "uint8"
            },
            {
              "internalType": "uint256",
              "name": "timestamp",
              "type": "uint256"
            },
            {
              "internalType": "string",
              "name": "hashMerkle",
              "type": "string"
            }
          ],
          "internalType": "struct StructLib.Paiement",
          "name": "",
          "type": "tuple"
        }
      ],
      "stateMutability": "view",
      "type": "function"
    },
    {
      "inputs": [
        {
          "internalType": "uint32",
          "name": "_idRecolte",
          "type": "uint32"
        }
      ],
      "name": "getRecolte",
      "outputs": [
        {
          "components": [
            {
              "internalType": "uint32",
              "name": "id",
              "type": "uint32"
            },
            {
              "internalType": "uint32[]",
              "name": "idParcelle",
              "type": "uint32[]"
            },
            {
              "internalType": "uint32",
              "name": "quantite",
              "type": "uint32"
            },
            {
              "internalType": "uint32",
              "name": "prixUnit",
              "type": "uint32"
            },
            {
              "internalType": "bool",
              "name": "certifie",
              "type": "bool"
            },
            {
              "internalType": "string",
              "name": "certificatPhytosanitaire",
              "type": "string"
            },
            {
              "internalType": "address",
              "name": "producteur",
              "type": "address"
            },
            {
              "internalType": "bytes32",
              "name": "hashMerkle",
              "type": "bytes32"
            },
            {
              "internalType": "string",
              "name": "cid",
              "type": "string"
            }
          ],
          "internalType": "struct StructLib.Recolte",
          "name": "",
          "type": "tuple"
        }
      ],
      "stateMutability": "view",
      "type": "function"
    },
    {
      "inputs": [
        {
          "internalType": "address",
          "name": "_addrCE",
          "type": "address"
        },
        {
          "internalType": "address",
          "name": "_gestionnaireActeurs",
          "type": "address"
        },
        {
          "internalType": "address",
          "name": "_producteurEnPhaseCulture",
          "type": "address"
        }
      ],
      "name": "initialiser",
      "outputs": [],
      "stateMutability": "nonpayable",
      "type": "function"
    },
    {
      "inputs": [
        {
          "internalType": "uint32",
          "name": "_idCommande",
          "type": "uint32"
        },
        {
          "internalType": "enum StructLib.StatutTransport",
          "name": "_statut",
          "type": "uint8"
        }
      ],
      "name": "mettreAJourStatutTransport",
      "outputs": [],
      "stateMutability": "nonpayable",
      "type": "function"
    },
    {
      "inputs": [
        {
          "internalType": "uint32",
          "name": "idRecolte",
          "type": "uint32"
        },
        {
          "internalType": "uint32",
          "name": "newPrix",
          "type": "uint32"
        }
      ],
      "name": "modifierPrixRecolte",
      "outputs": [],
      "stateMutability": "nonpayable",
      "type": "function"
    },
    {
      "inputs": [
        {
          "internalType": "uint32",
          "name": "",
          "type": "uint32"
        }
      ],
      "name": "paiements",
      "outputs": [
        {
          "internalType": "uint32",
          "name": "id",
          "type": "uint32"
        },
        {
          "internalType": "address",
          "name": "payeur",
          "type": "address"
        },
        {
          "internalType": "address",
          "name": "vendeur",
          "type": "address"
        },
        {
          "internalType": "uint32",
          "name": "montant",
          "type": "uint32"
        },
        {
          "internalType": "enum StructLib.ModePaiement",
          "name": "mode",
          "type": "uint8"
        },
        {
          "internalType": "uint256",
          "name": "timestamp",
          "type": "uint256"
        },
        {
          "internalType": "string",
          "name": "hashMerkle",
          "type": "string"
        }
      ],
      "stateMutability": "view",
      "type": "function"
    },
    {
      "inputs": [
        {
          "internalType": "uint32",
          "name": "_idRecolte",
          "type": "uint32"
        },
        {
          "internalType": "uint32",
          "name": "_quantite",
          "type": "uint32"
        }
      ],
      "name": "passerCommandeVersProducteur",
      "outputs": [],
      "stateMutability": "nonpayable",
      "type": "function"
    },
    {
      "inputs": [],
      "name": "producteurEnPhaseCulture",
      "outputs": [
        {
          "internalType": "contract IProducteur",
          "name": "",
          "type": "address"
        }
      ],
      "stateMutability": "view",
      "type": "function"
    },
    {
      "inputs": [
        {
          "internalType": "uint32",
          "name": "",
          "type": "uint32"
        }
      ],
      "name": "recoltes",
      "outputs": [
        {
          "internalType": "uint32",
          "name": "id",
          "type": "uint32"
        },
        {
          "internalType": "uint32",
          "name": "quantite",
          "type": "uint32"
        },
        {
          "internalType": "uint32",
          "name": "prixUnit",
          "type": "uint32"
        },
        {
          "internalType": "bool",
          "name": "certifie",
          "type": "bool"
        },
        {
          "internalType": "string",
          "name": "certificatPhytosanitaire",
          "type": "string"
        },
        {
          "internalType": "address",
          "name": "producteur",
          "type": "address"
        },
        {
          "internalType": "bytes32",
          "name": "hashMerkle",
          "type": "bytes32"
        },
        {
          "internalType": "string",
          "name": "cid",
          "type": "string"
        }
      ],
      "stateMutability": "view",
      "type": "function"
    },
    {
      "inputs": [
        {
          "internalType": "address",
          "name": "_addr",
          "type": "address"
        }
      ],
      "name": "setGestionnaireActeurs",
      "outputs": [],
      "stateMutability": "nonpayable",
      "type": "function"
    },
    {
      "inputs": [
        {
          "internalType": "address",
          "name": "_addr",
          "type": "address"
        }
      ],
      "name": "setModuleCE",
      "outputs": [],
      "stateMutability": "nonpayable",
      "type": "function"
    },
    {
      "inputs": [
        {
          "internalType": "address",
          "name": "_addr",
          "type": "address"
        }
      ],
      "name": "setProducteurEnPhaseCulture",
      "outputs": [],
      "stateMutability": "nonpayable",
      "type": "function"
    },
    {
      "inputs": [
        {
          "internalType": "uint32",
          "name": "_idCommande",
          "type": "uint32"
        },
        {
          "internalType": "bool",
          "name": "_valide",
          "type": "bool"
        }
      ],
      "name": "validerCommandeRecolte",
      "outputs": [],
      "stateMutability": "nonpayable",
      "type": "function"
    }
  ],
  "bytecode": "0x608060405234801561001057600080fd5b50615d5d80620000216000396000f3fe6080604052600436106101b75760003560e01c806384342842116100ec578063cb3948761161008a578063e550ef9911610064578063e550ef9914610624578063f1b7e5a81461064d578063f6980cc914610676578063fd643101146106b6576101b7565b8063cb394876146105a5578063cd60462b146105d0578063d84e632d146105fb576101b7565b80639e942cd4116100c65780639e942cd4146104e2578063b38d3aea1461050d578063b3df2a1514610551578063b5fe20761461057a576101b7565b806384342842146104675780638a16156e146104905780639d75741d146104b9576101b7565b80633e7a6049116101595780635293ea51116101335780635293ea51146103845780636f3fd6c5146103c15780637babcffa146104085780638428d5431461044b576101b7565b80633e7a604914610305578063488dee201461032e57806350346b0b14610359576101b7565b806319c04d0e1161019557806319c04d0e1461024b57806319f1c29014610288578063257687e6146102b35780632d5b3658146102dc576101b7565b80630b215e64146101bc578063182b03bc146101f9578063191cc98314610222575b600080fd5b3480156101c857600080fd5b506101e360048036038101906101de9190614791565b6106f3565b6040516101f0919061553d565b60405180910390f35b34801561020557600080fd5b50610220600480360381019061021b9190614694565b610947565b005b34801561022e57600080fd5b50610249600480360381019061024491906148eb565b610f75565b005b34801561025757600080fd5b50610272600480360381019061026d9190614791565b611182565b60405161027f919061551b565b60405180910390f35b34801561029457600080fd5b5061029d611287565b6040516102aa9190615581565b60405180910390f35b3480156102bf57600080fd5b506102da60048036038101906102d5919061461c565b61129f565b005b3480156102e857600080fd5b5061030360048036038101906102fe91906148eb565b6112e3565b005b34801561031157600080fd5b5061032c6004803603810190610327919061461c565b611b9e565b005b34801561033a57600080fd5b50610343611be2565b6040516103509190615581565b60405180910390f35b34801561036557600080fd5b5061036e611bf6565b60405161037b9190615346565b60405180910390f35b34801561039057600080fd5b506103ab60048036038101906103a69190614791565b611c1c565b6040516103b891906154ff565b60405180910390f35b3480156103cd57600080fd5b506103e860048036038101906103e39190614791565b611f34565b6040516103ff9b9a9998979695949392919061572f565b60405180910390f35b34801561041457600080fd5b5061042f600480360381019061042a9190614791565b612062565b604051610442979695949392919061559c565b60405180910390f35b61046560048036038101906104609190614927565b612199565b005b34801561047357600080fd5b5061048e6004803603810190610489919061481f565b6129b1565b005b34801561049c57600080fd5b506104b760048036038101906104b2919061485b565b612d85565b005b3480156104c557600080fd5b506104e060048036038101906104db9190614897565b613032565b005b3480156104ee57600080fd5b506104f761323b565b604051610504919061532b565b60405180910390f35b34801561051957600080fd5b50610534600480360381019061052f9190614791565b613261565b6040516105489897969594939291906156a3565b60405180910390f35b34801561055d57600080fd5b50610578600480360381019061057391906147e3565b613416565b005b34801561058657600080fd5b5061058f613643565b60405161059c9190615581565b60405180910390f35b3480156105b157600080fd5b506105ba61365b565b6040516105c79190615581565b60405180910390f35b3480156105dc57600080fd5b506105e5613671565b6040516105f29190615581565b60405180910390f35b34801561060757600080fd5b50610622600480360381019061061d919061461c565b61368b565b005b34801561063057600080fd5b5061064b60048036038101906106469190614897565b6136cf565b005b34801561065957600080fd5b50610674600480360381019061066f9190614645565b613ad2565b005b34801561068257600080fd5b5061069d60048036038101906106989190614791565b613c05565b6040516106ad9493929190615612565b60405180910390f35b3480156106c257600080fd5b506106dd60048036038101906106d89190614791565b613ccd565b6040516106ea919061555f565b60405180910390f35b6106fb613f9b565b600260008363ffffffff1663ffffffff1681526020019081526020016000206040518060e00160405290816000820160009054906101000a900463ffffffff1663ffffffff1663ffffffff1681526020016000820160049054906101000a900473ffffffffffffffffffffffffffffffffffffffff1673ffffffffffffffffffffffffffffffffffffffff1673ffffffffffffffffffffffffffffffffffffffff1681526020016001820160009054906101000a900473ffffffffffffffffffffffffffffffffffffffff1673ffffffffffffffffffffffffffffffffffffffff1673ffffffffffffffffffffffffffffffffffffffff1681526020016001820160149054906101000a900463ffffffff1663ffffffff1663ffffffff1681526020016001820160189054906101000a900460ff166002811115610868577f4e487b7100000000000000000000000000000000000000000000000000000000600052602160045260246000fd5b60028111156108a0577f4e487b7100000000000000000000000000000000000000000000000000000000600052602160045260246000fd5b8152602001600282015481526020016003820180546108be90615ad5565b80601f01602080910402602001604051908101604052809291908181526020018280546108ea90615ad5565b80156109375780601f1061090c57610100808354040283529160200191610937565b820191906000526020600020905b81548152906001019060200180831161091a57829003601f168201915b5050505050815250509050919050565b600560009054906101000a900473ffffffffffffffffffffffffffffffffffffffff1673ffffffffffffffffffffffffffffffffffffffff1663d1e47bb33360006040518363ffffffff1660e01b81526004016109a59291906152e7565b60206040518083038186803b1580156109bd57600080fd5b505afa1580156109d1573d6000803e3d6000fd5b505050506040513d601f19601f820116820180604052508101906109f59190614727565b610a34576040517f08c379a0000000000000000000000000000000000000000000000000000000008152600401610a2b906154bf565b60405180910390fd5b60005b84518163ffffffff161015610cfa57600660009054906101000a900473ffffffffffffffffffffffffffffffffffffffff1673ffffffffffffffffffffffffffffffffffffffff166331686f416040518163ffffffff1660e01b815260040160206040518083038186803b158015610aae57600080fd5b505afa158015610ac2573d6000803e3d6000fd5b505050506040513d601f19601f82011682018060405250810190610ae691906147ba565b63ffffffff16858263ffffffff1681518110610b2b577f4e487b7100000000000000000000000000000000000000000000000000000000600052603260045260246000fd5b602002602001015163ffffffff161115610b7a576040517f08c379a0000000000000000000000000000000000000000000000000000000008152600401610b719061543f565b60405180910390fd5b6000600660009054906101000a900473ffffffffffffffffffffffffffffffffffffffff1673ffffffffffffffffffffffffffffffffffffffff1663421b3e08878463ffffffff1681518110610bf9577f4e487b7100000000000000000000000000000000000000000000000000000000600052603260045260246000fd5b60200260200101516040518263ffffffff1660e01b8152600401610c1d9190615581565b60006040518083038186803b158015610c3557600080fd5b505afa158015610c49573d6000803e3d6000fd5b505050506040513d6000823e3d601f19601f82011682018060405250810190610c729190614750565b90503373ffffffffffffffffffffffffffffffffffffffff16816020015173ffffffffffffffffffffffffffffffffffffffff1614610ce6576040517f08c379a0000000000000000000000000000000000000000000000000000000008152600401610cdd9061541f565b60405180910390fd5b508080610cf290615b07565b915050610a37565b506004600081819054906101000a900463ffffffff1680929190610d1d90615b07565b91906101000a81548163ffffffff021916908363ffffffff160217905550506000848484843342604051602001610d5996959493929190615235565b604051602081830303815290604052805190602001209050604051806101200160405280600460009054906101000a900463ffffffff1663ffffffff1681526020018681526020018563ffffffff1681526020018463ffffffff1681526020016000151581526020016040518060200160405280600081525081526020013373ffffffffffffffffffffffffffffffffffffffff16815260200182815260200183815250600080600460009054906101000a900463ffffffff1663ffffffff1663ffffffff16815260200190815260200160002060008201518160000160006101000a81548163ffffffff021916908363ffffffff1602179055506020820151816001019080519060200190610e70929190614048565b5060408201518160020160006101000a81548163ffffffff021916908363ffffffff16021790555060608201518160020160046101000a81548163ffffffff021916908363ffffffff16021790555060808201518160020160086101000a81548160ff02191690831515021790555060a0820151816003019080519060200190610efb9291906140f8565b5060c08201518160040160006101000a81548173ffffffffffffffffffffffffffffffffffffffff021916908373ffffffffffffffffffffffffffffffffffffffff16021790555060e08201518160050155610100820151816006019080519060200190610f6a9291906140f8565b509050505050505050565b600560009054906101000a900473ffffffffffffffffffffffffffffffffffffffff1673ffffffffffffffffffffffffffffffffffffffff1663d1e47bb33360006040518363ffffffff1660e01b8152600401610fd39291906152e7565b60206040518083038186803b158015610feb57600080fd5b505afa158015610fff573d6000803e3d6000fd5b505050506040513d601f19601f820116820180604052508101906110239190614727565b611062576040517f08c379a0000000000000000000000000000000000000000000000000000000008152600401611059906154bf565b60405180910390fd5b81600460009054906101000a900463ffffffff1663ffffffff168163ffffffff1611156110c4576040517f08c379a00000000000000000000000000000000000000000000000000000000081526004016110bb9061547f565b60405180910390fd5b3373ffffffffffffffffffffffffffffffffffffffff166000808563ffffffff1663ffffffff16815260200190815260200160002060040160009054906101000a900473ffffffffffffffffffffffffffffffffffffffff1673ffffffffffffffffffffffffffffffffffffffff161461113d57600080fd5b816000808563ffffffff1663ffffffff16815260200190815260200160002060020160046101000a81548163ffffffff021916908363ffffffff160217905550505050565b61118a61417e565b600360008363ffffffff1663ffffffff1681526020019081526020016000206040518060800160405290816000820160009054906101000a900463ffffffff1663ffffffff1663ffffffff1681526020016001820180546111ea90615ad5565b80601f016020809104026020016040519081016040528092919081815260200182805461121690615ad5565b80156112635780601f1061123857610100808354040283529160200191611263565b820191906000526020600020905b81548152906001019060200180831161124657829003601f168201915b50505050508152602001600282015481526020016003820154815250509050919050565b600060048054906101000a900463ffffffff16905090565b80600660006101000a81548173ffffffffffffffffffffffffffffffffffffffff021916908373ffffffffffffffffffffffffffffffffffffffff16021790555050565b600560009054906101000a900473ffffffffffffffffffffffffffffffffffffffff1673ffffffffffffffffffffffffffffffffffffffff1663d1e47bb33360036040518363ffffffff1660e01b81526004016113419291906152e7565b60206040518083038186803b15801561135957600080fd5b505afa15801561136d573d6000803e3d6000fd5b505050506040513d601f19601f820116820180604052508101906113919190614727565b6113d0576040517f08c379a00000000000000000000000000000000000000000000000000000000081526004016113c7906153ff565b60405180910390fd5b81600460009054906101000a900463ffffffff1663ffffffff168163ffffffff161115611432576040517f08c379a00000000000000000000000000000000000000000000000000000000081526004016114299061547f565b60405180910390fd5b60008060008563ffffffff1663ffffffff168152602001908152602001600020604051806101200160405290816000820160009054906101000a900463ffffffff1663ffffffff1663ffffffff168152602001600182018054806020026020016040519081016040528092919081815260200182805480156114ff57602002820191906000526020600020906000905b82829054906101000a900463ffffffff1663ffffffff16815260200190600401906020826003010492830192600103820291508084116114c25790505b505050505081526020016002820160009054906101000a900463ffffffff1663ffffffff1663ffffffff1681526020016002820160049054906101000a900463ffffffff1663ffffffff1663ffffffff1681526020016002820160089054906101000a900460ff1615151515815260200160038201805461157f90615ad5565b80601f01602080910402602001604051908101604052809291908181526020018280546115ab90615ad5565b80156115f85780601f106115cd576101008083540402835291602001916115f8565b820191906000526020600020905b8154815290600101906020018083116115db57829003601f168201915b505050505081526020016004820160009054906101000a900473ffffffffffffffffffffffffffffffffffffffff1673ffffffffffffffffffffffffffffffffffffffff1673ffffffffffffffffffffffffffffffffffffffff1681526020016005820154815260200160068201805461167190615ad5565b80601f016020809104026020016040519081016040528092919081815260200182805461169d90615ad5565b80156116ea5780601f106116bf576101008083540402835291602001916116ea565b820191906000526020600020905b8154815290600101906020018083116116cd57829003601f168201915b5050505050815250509050806080015161170357600080fd5b806040015163ffffffff168363ffffffff16111561172057600080fd5b826000808663ffffffff1663ffffffff16815260200190815260200160002060020160008282829054906101000a900463ffffffff166117609190615921565b92506101000a81548163ffffffff021916908363ffffffff16021790555060048081819054906101000a900463ffffffff168092919061179f90615b07565b91906101000a81548163ffffffff021916908363ffffffff1602179055505060008382606001516117d091906158e3565b905060405180610160016040528060048054906101000a900463ffffffff1663ffffffff1681526020018663ffffffff1681526020018563ffffffff1681526020018263ffffffff16815260200160001515815260200160006001811115611861577f4e487b7100000000000000000000000000000000000000000000000000000000600052602160045260246000fd5b81526020018360c0015173ffffffffffffffffffffffffffffffffffffffff1681526020013373ffffffffffffffffffffffffffffffffffffffff168152602001600060028111156118dc577f4e487b7100000000000000000000000000000000000000000000000000000000600052602160045260246000fd5b8152602001600015158152602001600073ffffffffffffffffffffffffffffffffffffffff168152506001600060048054906101000a900463ffffffff1663ffffffff1663ffffffff16815260200190815260200160002060008201518160000160006101000a81548163ffffffff021916908363ffffffff16021790555060208201518160000160046101000a81548163ffffffff021916908363ffffffff16021790555060408201518160000160086101000a81548163ffffffff021916908363ffffffff160217905550606082015181600001600c6101000a81548163ffffffff021916908363ffffffff16021790555060808201518160000160106101000a81548160ff02191690831515021790555060a08201518160000160116101000a81548160ff02191690836001811115611a41577f4e487b7100000000000000000000000000000000000000000000000000000000600052602160045260246000fd5b021790555060c08201518160010160006101000a81548173ffffffffffffffffffffffffffffffffffffffff021916908373ffffffffffffffffffffffffffffffffffffffff16021790555060e08201518160020160006101000a81548173ffffffffffffffffffffffffffffffffffffffff021916908373ffffffffffffffffffffffffffffffffffffffff1602179055506101008201518160020160146101000a81548160ff02191690836002811115611b26577f4e487b7100000000000000000000000000000000000000000000000000000000600052602160045260246000fd5b02179055506101208201518160020160156101000a81548160ff0219169083151502179055506101408201518160030160006101000a81548173ffffffffffffffffffffffffffffffffffffffff021916908373ffffffffffffffffffffffffffffffffffffffff1602179055509050505050505050565b80600560006101000a81548173ffffffffffffffffffffffffffffffffffffffff021916908373ffffffffffffffffffffffffffffffffffffffff16021790555050565b60048054906101000a900463ffffffff1681565b600660009054906101000a900473ffffffffffffffffffffffffffffffffffffffff1681565b611c246141af565b600160008363ffffffff1663ffffffff168152602001908152602001600020604051806101600160405290816000820160009054906101000a900463ffffffff1663ffffffff1663ffffffff1681526020016000820160049054906101000a900463ffffffff1663ffffffff1663ffffffff1681526020016000820160089054906101000a900463ffffffff1663ffffffff1663ffffffff16815260200160008201600c9054906101000a900463ffffffff1663ffffffff1663ffffffff1681526020016000820160109054906101000a900460ff161515151581526020016000820160119054906101000a900460ff166001811115611d4d577f4e487b7100000000000000000000000000000000000000000000000000000000600052602160045260246000fd5b6001811115611d85577f4e487b7100000000000000000000000000000000000000000000000000000000600052602160045260246000fd5b81526020016001820160009054906101000a900473ffffffffffffffffffffffffffffffffffffffff1673ffffffffffffffffffffffffffffffffffffffff1673ffffffffffffffffffffffffffffffffffffffff1681526020016002820160009054906101000a900473ffffffffffffffffffffffffffffffffffffffff1673ffffffffffffffffffffffffffffffffffffffff1673ffffffffffffffffffffffffffffffffffffffff1681526020016002820160149054906101000a900460ff166002811115611e80577f4e487b7100000000000000000000000000000000000000000000000000000000600052602160045260246000fd5b6002811115611eb8577f4e487b7100000000000000000000000000000000000000000000000000000000600052602160045260246000fd5b81526020016002820160159054906101000a900460ff161515151581526020016003820160009054906101000a900473ffffffffffffffffffffffffffffffffffffffff1673ffffffffffffffffffffffffffffffffffffffff1673ffffffffffffffffffffffffffffffffffffffff16815250509050919050565b60016020528060005260406000206000915090508060000160009054906101000a900463ffffffff16908060000160049054906101000a900463ffffffff16908060000160089054906101000a900463ffffffff169080600001600c9054906101000a900463ffffffff16908060000160109054906101000a900460ff16908060000160119054906101000a900460ff16908060010160009054906101000a900473ffffffffffffffffffffffffffffffffffffffff16908060020160009054906101000a900473ffffffffffffffffffffffffffffffffffffffff16908060020160149054906101000a900460ff16908060020160159054906101000a900460ff16908060030160009054906101000a900473ffffffffffffffffffffffffffffffffffffffff1690508b565b60026020528060005260406000206000915090508060000160009054906101000a900463ffffffff16908060000160049054906101000a900473ffffffffffffffffffffffffffffffffffffffff16908060010160009054906101000a900473ffffffffffffffffffffffffffffffffffffffff16908060010160149054906101000a900463ffffffff16908060010160189054906101000a900460ff169080600201549080600301805461211690615ad5565b80601f016020809104026020016040519081016040528092919081815260200182805461214290615ad5565b801561218f5780601f106121645761010080835404028352916020019161218f565b820191906000526020600020905b81548152906001019060200180831161217257829003601f168201915b5050505050905087565b600560009054906101000a900473ffffffffffffffffffffffffffffffffffffffff1673ffffffffffffffffffffffffffffffffffffffff1663d1e47bb33360036040518363ffffffff1660e01b81526004016121f79291906152e7565b60206040518083038186803b15801561220f57600080fd5b505afa158015612223573d6000803e3d6000fd5b505050506040513d601f19601f820116820180604052508101906122479190614727565b612286576040517f08c379a000000000000000000000000000000000000000000000000000000000815260040161227d906153ff565b60405180910390fd5b8260048054906101000a900463ffffffff1663ffffffff168163ffffffff1611156122e6576040517f08c379a00000000000000000000000000000000000000000000000000000000081526004016122dd906153bf565b60405180910390fd5b6000600160008663ffffffff1663ffffffff168152602001908152602001600020604051806101600160405290816000820160009054906101000a900463ffffffff1663ffffffff1663ffffffff1681526020016000820160049054906101000a900463ffffffff1663ffffffff1663ffffffff1681526020016000820160089054906101000a900463ffffffff1663ffffffff1663ffffffff16815260200160008201600c9054906101000a900463ffffffff1663ffffffff1663ffffffff1681526020016000820160109054906101000a900460ff161515151581526020016000820160119054906101000a900460ff166001811115612411577f4e487b7100000000000000000000000000000000000000000000000000000000600052602160045260246000fd5b6001811115612449577f4e487b7100000000000000000000000000000000000000000000000000000000600052602160045260246000fd5b81526020016001820160009054906101000a900473ffffffffffffffffffffffffffffffffffffffff1673ffffffffffffffffffffffffffffffffffffffff1673ffffffffffffffffffffffffffffffffffffffff1681526020016002820160009054906101000a900473ffffffffffffffffffffffffffffffffffffffff1673ffffffffffffffffffffffffffffffffffffffff1673ffffffffffffffffffffffffffffffffffffffff1681526020016002820160149054906101000a900460ff166002811115612544577f4e487b7100000000000000000000000000000000000000000000000000000000600052602160045260246000fd5b600281111561257c577f4e487b7100000000000000000000000000000000000000000000000000000000600052602160045260246000fd5b81526020016002820160159054906101000a900460ff161515151581526020016003820160009054906101000a900473ffffffffffffffffffffffffffffffffffffffff1673ffffffffffffffffffffffffffffffffffffffff1673ffffffffffffffffffffffffffffffffffffffff1681525050905080608001511561260257600080fd5b806060015163ffffffff168463ffffffff161461261e57600080fd5b60016002811115612658577f4e487b7100000000000000000000000000000000000000000000000000000000600052602160045260246000fd5b8161010001516002811115612696577f4e487b7100000000000000000000000000000000000000000000000000000000600052602160045260246000fd5b146126a057600080fd5b600460089054906101000a900473ffffffffffffffffffffffffffffffffffffffff1673ffffffffffffffffffffffffffffffffffffffff166389c1ca53826000015183602001518460400151336040518563ffffffff1660e01b815260040161270d949392919061565e565b600060405180830381600087803b15801561272757600080fd5b505af115801561273b573d6000803e3d6000fd5b5050505060018060008763ffffffff1663ffffffff16815260200190815260200160002060000160106101000a81548160ff0219169083151502179055506040518060e001604052808663ffffffff1681526020013373ffffffffffffffffffffffffffffffffffffffff1681526020018260c0015173ffffffffffffffffffffffffffffffffffffffff1681526020018563ffffffff168152602001846002811115612811577f4e487b7100000000000000000000000000000000000000000000000000000000600052602160045260246000fd5b815260200142815260200160405180602001604052806000815250815250600260008763ffffffff1663ffffffff16815260200190815260200160002060008201518160000160006101000a81548163ffffffff021916908363ffffffff16021790555060208201518160000160046101000a81548173ffffffffffffffffffffffffffffffffffffffff021916908373ffffffffffffffffffffffffffffffffffffffff16021790555060408201518160010160006101000a81548173ffffffffffffffffffffffffffffffffffffffff021916908373ffffffffffffffffffffffffffffffffffffffff16021790555060608201518160010160146101000a81548163ffffffff021916908363ffffffff16021790555060808201518160010160186101000a81548160ff0219169083600281111561297b577f4e487b7100000000000000000000000000000000000000000000000000000000600052602160045260246000fd5b021790555060a0820151816002015560c08201518160030190805190602001906129a69291906140f8565b509050505050505050565b600560009054906101000a900473ffffffffffffffffffffffffffffffffffffffff1673ffffffffffffffffffffffffffffffffffffffff1663d1e47bb33360036040518363ffffffff1660e01b8152600401612a0f9291906152e7565b60206040518083038186803b158015612a2757600080fd5b505afa158015612a3b573d6000803e3d6000fd5b505050506040513d601f19601f82011682018060405250810190612a5f9190614727565b612a9e576040517f08c379a0000000000000000000000000000000000000000000000000000000008152600401612a95906153ff565b60405180910390fd5b8160048054906101000a900463ffffffff1663ffffffff168163ffffffff161115612afe576040517f08c379a0000000000000000000000000000000000000000000000000000000008152600401612af5906153bf565b60405180910390fd5b600180811115612b37577f4e487b7100000000000000000000000000000000000000000000000000000000600052602160045260246000fd5b600160008563ffffffff1663ffffffff16815260200190815260200160002060000160119054906101000a900460ff166001811115612b9f577f4e487b7100000000000000000000000000000000000000000000000000000000600052602160045260246000fd5b14612ba957600080fd5b60006002811115612be3577f4e487b7100000000000000000000000000000000000000000000000000000000600052602160045260246000fd5b600160008563ffffffff1663ffffffff16815260200190815260200160002060020160149054906101000a900460ff166002811115612c4b577f4e487b7100000000000000000000000000000000000000000000000000000000600052602160045260246000fd5b14612c5557600080fd5b8115612cd05760018060008563ffffffff1663ffffffff16815260200190815260200160002060020160146101000a81548160ff02191690836002811115612cc6577f4e487b7100000000000000000000000000000000000000000000000000000000600052602160045260246000fd5b0217905550612d42565b6002600160008563ffffffff1663ffffffff16815260200190815260200160002060020160146101000a81548160ff02191690836002811115612d3c577f4e487b7100000000000000000000000000000000000000000000000000000000600052602160045260246000fd5b02179055505b8263ffffffff167f1df7b2ecf94baf358d5ffc6f43b2769c0b74ac06ff426c80d5eb4106388cb5de83604051612d789190615310565b60405180910390a2505050565b600560009054906101000a900473ffffffffffffffffffffffffffffffffffffffff1673ffffffffffffffffffffffffffffffffffffffff1663d1e47bb33360056040518363ffffffff1660e01b8152600401612de39291906152e7565b60206040518083038186803b158015612dfb57600080fd5b505afa158015612e0f573d6000803e3d6000fd5b505050506040513d601f19601f82011682018060405250810190612e339190614727565b612e72576040517f08c379a0000000000000000000000000000000000000000000000000000000008152600401612e69906153df565b60405180910390fd5b8160048054906101000a900463ffffffff1663ffffffff168163ffffffff161115612ed2576040517f08c379a0000000000000000000000000000000000000000000000000000000008152600401612ec9906153bf565b60405180910390fd5b823373ffffffffffffffffffffffffffffffffffffffff16600160008363ffffffff1663ffffffff16815260200190815260200160002060030160009054906101000a900473ffffffffffffffffffffffffffffffffffffffff1673ffffffffffffffffffffffffffffffffffffffff1614612f4d57600080fd5b600160008563ffffffff1663ffffffff16815260200190815260200160002060020160159054906101000a900460ff16612fbc576040517f08c379a0000000000000000000000000000000000000000000000000000000008152600401612fb39061545f565b60405180910390fd5b82600160008663ffffffff1663ffffffff16815260200190815260200160002060000160116101000a81548160ff02191690836001811115613027577f4e487b7100000000000000000000000000000000000000000000000000000000600052602160045260246000fd5b021790555050505050565b600560009054906101000a900473ffffffffffffffffffffffffffffffffffffffff1673ffffffffffffffffffffffffffffffffffffffff1663d1e47bb33360026040518363ffffffff1660e01b81526004016130909291906152e7565b60206040518083038186803b1580156130a857600080fd5b505afa1580156130bc573d6000803e3d6000fd5b505050506040513d601f19601f820116820180604052508101906130e09190614727565b61311f576040517f08c379a00000000000000000000000000000000000000000000000000000000081526004016131169061539f565b60405180910390fd5b81600460009054906101000a900463ffffffff1663ffffffff168163ffffffff161115613181576040517f08c379a00000000000000000000000000000000000000000000000000000000081526004016131789061547f565b60405180910390fd5b6000825114156131c6576040517f08c379a00000000000000000000000000000000000000000000000000000000081526004016131bd9061549f565b60405180910390fd5b60016000808563ffffffff1663ffffffff16815260200190815260200160002060020160086101000a81548160ff021916908315150217905550816000808563ffffffff1663ffffffff16815260200190815260200160002060030190805190602001906132359291906140f8565b50505050565b600560009054906101000a900473ffffffffffffffffffffffffffffffffffffffff1681565b60006020528060005260406000206000915090508060000160009054906101000a900463ffffffff16908060020160009054906101000a900463ffffffff16908060020160049054906101000a900463ffffffff16908060020160089054906101000a900460ff16908060030180546132d990615ad5565b80601f016020809104026020016040519081016040528092919081815260200182805461330590615ad5565b80156133525780601f1061332757610100808354040283529160200191613352565b820191906000526020600020905b81548152906001019060200180831161333557829003601f168201915b5050505050908060040160009054906101000a900473ffffffffffffffffffffffffffffffffffffffff169080600501549080600601805461339390615ad5565b80601f01602080910402602001604051908101604052809291908181526020018280546133bf90615ad5565b801561340c5780601f106133e15761010080835404028352916020019161340c565b820191906000526020600020905b8154815290600101906020018083116133ef57829003601f168201915b5050505050905088565b600560009054906101000a900473ffffffffffffffffffffffffffffffffffffffff1673ffffffffffffffffffffffffffffffffffffffff1663d1e47bb33360036040518363ffffffff1660e01b81526004016134749291906152e7565b60206040518083038186803b15801561348c57600080fd5b505afa1580156134a0573d6000803e3d6000fd5b505050506040513d601f19601f820116820180604052508101906134c49190614727565b613503576040517f08c379a00000000000000000000000000000000000000000000000000000000081526004016134fa906153ff565b60405180910390fd5b8160048054906101000a900463ffffffff1663ffffffff168163ffffffff161115613563576040517f08c379a000000000000000000000000000000000000000000000000000000000815260040161355a906153bf565b60405180910390fd5b3373ffffffffffffffffffffffffffffffffffffffff16600160008563ffffffff1663ffffffff16815260200190815260200160002060020160009054906101000a900473ffffffffffffffffffffffffffffffffffffffff1673ffffffffffffffffffffffffffffffffffffffff16146135dd57600080fd5b81600160008563ffffffff1663ffffffff16815260200190815260200160002060030160006101000a81548173ffffffffffffffffffffffffffffffffffffffff021916908373ffffffffffffffffffffffffffffffffffffffff160217905550505050565b600060048054906101000a900463ffffffff16905090565b600460009054906101000a900463ffffffff1681565b6000600460009054906101000a900463ffffffff16905090565b80600460086101000a81548173ffffffffffffffffffffffffffffffffffffffff021916908373ffffffffffffffffffffffffffffffffffffffff16021790555050565b600560009054906101000a900473ffffffffffffffffffffffffffffffffffffffff1673ffffffffffffffffffffffffffffffffffffffff1663d1e47bb33360056040518363ffffffff1660e01b815260040161372d9291906152e7565b60206040518083038186803b15801561374557600080fd5b505afa158015613759573d6000803e3d6000fd5b505050506040513d601f19601f8201168201806040525081019061377d9190614727565b6137bc576040517f08c379a00000000000000000000000000000000000000000000000000000000081526004016137b3906153df565b60405180910390fd5b8160048054906101000a900463ffffffff1663ffffffff168163ffffffff16111561381c576040517f08c379a0000000000000000000000000000000000000000000000000000000008152600401613813906153bf565b60405180910390fd5b823373ffffffffffffffffffffffffffffffffffffffff16600160008363ffffffff1663ffffffff16815260200190815260200160002060030160009054906101000a900473ffffffffffffffffffffffffffffffffffffffff1673ffffffffffffffffffffffffffffffffffffffff161461389757600080fd5b600160008563ffffffff1663ffffffff16815260200190815260200160002060020160159054906101000a900460ff16156138d157600080fd5b60018081111561390a577f4e487b7100000000000000000000000000000000000000000000000000000000600052602160045260246000fd5b600160008663ffffffff1663ffffffff16815260200190815260200160002060000160119054906101000a900460ff166001811115613972577f4e487b7100000000000000000000000000000000000000000000000000000000600052602160045260246000fd5b141561397d57600080fd5b60018060008663ffffffff1663ffffffff16815260200190815260200160002060020160156101000a81548160ff0219169083151502179055506000848433426040516020016139d0949392919061529d565b60405160208183030381529060405280519060200120905060405180608001604052808663ffffffff16815260200185815260200142815260200182815250600360008763ffffffff1663ffffffff16815260200190815260200160002060008201518160000160006101000a81548163ffffffff021916908363ffffffff1602179055506020820151816001019080519060200190613a719291906140f8565b5060408201518160020155606082015181600301559050508463ffffffff167fbcbce0994790c925173de558389c26cc831b555df7ed8b14077b3811069cec57854233604051613ac393929190615361565b60405180910390a25050505050565b600660149054906101000a900460ff1615613b22576040517f08c379a0000000000000000000000000000000000000000000000000000000008152600401613b19906154df565b60405180910390fd5b82600460086101000a81548173ffffffffffffffffffffffffffffffffffffffff021916908373ffffffffffffffffffffffffffffffffffffffff16021790555081600560006101000a81548173ffffffffffffffffffffffffffffffffffffffff021916908373ffffffffffffffffffffffffffffffffffffffff16021790555080600660006101000a81548173ffffffffffffffffffffffffffffffffffffffff021916908373ffffffffffffffffffffffffffffffffffffffff1602179055506001600660146101000a81548160ff021916908315150217905550505050565b60036020528060005260406000206000915090508060000160009054906101000a900463ffffffff1690806001018054613c3e90615ad5565b80601f0160208091040260200160405190810160405280929190818152602001828054613c6a90615ad5565b8015613cb75780601f10613c8c57610100808354040283529160200191613cb7565b820191906000526020600020905b815481529060010190602001808311613c9a57829003601f168201915b5050505050908060020154908060030154905084565b613cd56142d7565b6000808363ffffffff1663ffffffff168152602001908152602001600020604051806101200160405290816000820160009054906101000a900463ffffffff1663ffffffff1663ffffffff16815260200160018201805480602002602001604051908101604052809291908181526020018280548015613da057602002820191906000526020600020906000905b82829054906101000a900463ffffffff1663ffffffff1681526020019060040190602082600301049283019260010382029150808411613d635790505b505050505081526020016002820160009054906101000a900463ffffffff1663ffffffff1663ffffffff1681526020016002820160049054906101000a900463ffffffff1663ffffffff1663ffffffff1681526020016002820160089054906101000a900460ff16151515158152602001600382018054613e2090615ad5565b80601f0160208091040260200160405190810160405280929190818152602001828054613e4c90615ad5565b8015613e995780601f10613e6e57610100808354040283529160200191613e99565b820191906000526020600020905b815481529060010190602001808311613e7c57829003601f168201915b505050505081526020016004820160009054906101000a900473ffffffffffffffffffffffffffffffffffffffff1673ffffffffffffffffffffffffffffffffffffffff1673ffffffffffffffffffffffffffffffffffffffff16815260200160058201548152602001600682018054613f1290615ad5565b80601f0160208091040260200160405190810160405280929190818152602001828054613f3e90615ad5565b8015613f8b5780601f10613f6057610100808354040283529160200191613f8b565b820191906000526020600020905b815481529060010190602001808311613f6e57829003601f168201915b5050505050815250509050919050565b6040518060e00160405280600063ffffffff168152602001600073ffffffffffffffffffffffffffffffffffffffff168152602001600073ffffffffffffffffffffffffffffffffffffffff168152602001600063ffffffff16815260200160006002811115614034577f4e487b7100000000000000000000000000000000000000000000000000000000600052602160045260246000fd5b815260200160008152602001606081525090565b828054828255906000526020600020906007016008900481019282156140e75791602002820160005b838211156140b557835183826101000a81548163ffffffff021916908363ffffffff1602179055509260200192600401602081600301049283019260010302614071565b80156140e55782816101000a81549063ffffffff02191690556004016020816003010492830192600103026140b5565b505b5090506140f49190614350565b5090565b82805461410490615ad5565b90600052602060002090601f016020900481019282614126576000855561416d565b82601f1061413f57805160ff191683800117855561416d565b8280016001018555821561416d579182015b8281111561416c578251825591602001919060010190614151565b5b50905061417a9190614350565b5090565b6040518060800160405280600063ffffffff1681526020016060815260200160008152602001600080191681525090565b604051806101600160405280600063ffffffff168152602001600063ffffffff168152602001600063ffffffff168152602001600063ffffffff16815260200160001515815260200160006001811115614232577f4e487b7100000000000000000000000000000000000000000000000000000000600052602160045260246000fd5b8152602001600073ffffffffffffffffffffffffffffffffffffffff168152602001600073ffffffffffffffffffffffffffffffffffffffff168152602001600060028111156142ab577f4e487b7100000000000000000000000000000000000000000000000000000000600052602160045260246000fd5b8152602001600015158152602001600073ffffffffffffffffffffffffffffffffffffffff1681525090565b604051806101200160405280600063ffffffff16815260200160608152602001600063ffffffff168152602001600063ffffffff16815260200160001515815260200160608152602001600073ffffffffffffffffffffffffffffffffffffffff16815260200160008019168152602001606081525090565b5b80821115614369576000816000905550600101614351565b5090565b600061438061437b8461580b565b6157da565b9050808382526020820190508285602086028201111561439f57600080fd5b60005b858110156143cf57816143b588826145f2565b8452602084019350602083019250506001810190506143a2565b5050509392505050565b60006143ec6143e784615837565b6157da565b90508281526020810184848401111561440457600080fd5b61440f848285615a93565b509392505050565b600061442a61442584615837565b6157da565b90508281526020810184848401111561444257600080fd5b61444d848285615aa2565b509392505050565b60008135905061446481615cab565b92915050565b60008151905061447981615cab565b92915050565b600082601f83011261449057600080fd5b81356144a084826020860161436d565b91505092915050565b6000813590506144b881615cc2565b92915050565b6000815190506144cd81615cc2565b92915050565b6000815190506144e281615cd9565b92915050565b6000813590506144f781615cf0565b92915050565b60008135905061450c81615d00565b92915050565b600082601f83011261452357600080fd5b81356145338482602086016143d9565b91505092915050565b600082601f83011261454d57600080fd5b815161455d848260208601614417565b91505092915050565b60006080828403121561457857600080fd5b61458260806157da565b9050600061459284828501614607565b60008301525060206145a68482850161446a565b602083015250604082015167ffffffffffffffff8111156145c657600080fd5b6145d28482850161453c565b60408301525060606145e6848285016144d3565b60608301525092915050565b60008135905061460181615d10565b92915050565b60008151905061461681615d10565b92915050565b60006020828403121561462e57600080fd5b600061463c84828501614455565b91505092915050565b60008060006060848603121561465a57600080fd5b600061466886828701614455565b935050602061467986828701614455565b925050604061468a86828701614455565b9150509250925092565b600080600080608085870312156146aa57600080fd5b600085013567ffffffffffffffff8111156146c457600080fd5b6146d08782880161447f565b94505060206146e1878288016145f2565b93505060406146f2878288016145f2565b925050606085013567ffffffffffffffff81111561470f57600080fd5b61471b87828801614512565b91505092959194509250565b60006020828403121561473957600080fd5b6000614747848285016144be565b91505092915050565b60006020828403121561476257600080fd5b600082015167ffffffffffffffff81111561477c57600080fd5b61478884828501614566565b91505092915050565b6000602082840312156147a357600080fd5b60006147b1848285016145f2565b91505092915050565b6000602082840312156147cc57600080fd5b60006147da84828501614607565b91505092915050565b600080604083850312156147f657600080fd5b6000614804858286016145f2565b925050602061481585828601614455565b9150509250929050565b6000806040838503121561483257600080fd5b6000614840858286016145f2565b9250506020614851858286016144a9565b9150509250929050565b6000806040838503121561486e57600080fd5b600061487c858286016145f2565b925050602061488d858286016144fd565b9150509250929050565b600080604083850312156148aa57600080fd5b60006148b8858286016145f2565b925050602083013567ffffffffffffffff8111156148d557600080fd5b6148e185828601614512565b9150509250929050565b600080604083850312156148fe57600080fd5b600061490c858286016145f2565b925050602061491d858286016145f2565b9150509250929050565b60008060006060848603121561493c57600080fd5b600061494a868287016145f2565b935050602061495b868287016145f2565b925050604061496c868287016144e8565b9150509250925092565b600061498283836151f1565b60208301905092915050565b600061499a838361520f565b60208301905092915050565b6149af81615955565b82525050565b6149be81615955565b82525050565b6149d56149d082615955565b615b34565b82525050565b60006149e682615877565b6149f0818561589a565b93506149fb83615867565b8060005b83811015614a2c578151614a138882614976565b9750614a1e8361588d565b9250506001810190506149ff565b5085935050505092915050565b6000614a4482615877565b614a4e81856158ab565b9350614a5983615867565b8060005b83811015614a8a578151614a71888261498e565b9750614a7c8361588d565b925050600181019050614a5d565b5085935050505092915050565b614aa081615967565b82525050565b614aaf81615967565b82525050565b614abe81615973565b82525050565b614acd81615973565b82525050565b614adc81615a03565b82525050565b614aeb81615a27565b82525050565b614afa81615a4b565b82525050565b614b0981615a4b565b82525050565b614b1881615a5d565b82525050565b614b2781615a6f565b82525050565b614b3681615a6f565b82525050565b614b4581615a81565b82525050565b614b5481615a81565b82525050565b6000614b6582615882565b614b6f81856158b6565b9350614b7f818560208601615aa2565b614b8881615c30565b840191505092915050565b6000614b9e82615882565b614ba881856158c7565b9350614bb8818560208601615aa2565b614bc181615c30565b840191505092915050565b6000614bd782615882565b614be181856158d8565b9350614bf1818560208601615aa2565b80840191505092915050565b6000614c0a6017836158c7565b91507f7365756c656d656e7420436572746966696361746575720000000000000000006000830152602082019050919050565b6000614c4a6015836158c7565b91507f436f6d6d616e6465206e6f6e206578697374616e7400000000000000000000006000830152602082019050919050565b6000614c8a6016836158c7565b91507f7365756c656d656e74205472616e73706f7274657572000000000000000000006000830152602082019050919050565b6000614cca6014836158c7565b91507f7365756c656d656e7420436f6c6c6563746575720000000000000000000000006000830152602082019050919050565b6000614d0a6028836158c7565b91507f566f7573206e27657374207061732070726f707269657461697265206475207060008301527f617263656c6c652e0000000000000000000000000000000000000000000000006020830152604082019050919050565b6000614d706016836158c7565b91507f50617263656c6c65206e6f6e206578697374616e742e000000000000000000006000830152602082019050919050565b6000614db06022836158c7565b91507f436f6e646974696f6e207472616e73706f7274206e6f6e20656e72656769737460008301527f65720000000000000000000000000000000000000000000000000000000000006020830152604082019050919050565b6000614e166014836158c7565b91507f5265636f6c7465206e6f6e206578697374616e740000000000000000000000006000830152602082019050919050565b6000614e56600f836158c7565b91507f43657274696669636174207669646500000000000000000000000000000000006000830152602082019050919050565b6000614e966014836158c7565b91507f7365756c656d656e742050726f647563746575720000000000000000000000006000830152602082019050919050565b6000614ed6601a836158c7565b91507f436f6e747261742064656a6120696e697469616c6973657220210000000000006000830152602082019050919050565b61016082016000820151614f2060008501826151f1565b506020820151614f3360208501826151f1565b506040820151614f4660408501826151f1565b506060820151614f5960608501826151f1565b506080820151614f6c6080850182614a97565b5060a0820151614f7f60a0850182614b3c565b5060c0820151614f9260c08501826149a6565b5060e0820151614fa560e08501826149a6565b50610100820151614fba610100850182614b1e565b50610120820151614fcf610120850182614a97565b50610140820151614fe46101408501826149a6565b50505050565b600060808301600083015161500260008601826151f1565b506020830151848203602086015261501a8282614b5a565b915050604083015161502f60408601826151bc565b5060608301516150426060860182614ab5565b508091505092915050565b600060e08301600083015161506560008601826151f1565b50602083015161507860208601826149a6565b50604083015161508b60408601826149a6565b50606083015161509e60608601826151f1565b5060808301516150b16080860182614af1565b5060a08301516150c460a08601826151bc565b5060c083015184820360c08601526150dc8282614b5a565b9150508091505092915050565b60006101208301600083015161510260008601826151f1565b506020830151848203602086015261511a82826149db565b915050604083015161512f60408601826151f1565b50606083015161514260608601826151f1565b5060808301516151556080860182614a97565b5060a083015184820360a086015261516d8282614b5a565b91505060c083015161518260c08601826149a6565b5060e083015161519560e0860182614ab5565b506101008301518482036101008601526151af8282614b5a565b9150508091505092915050565b6151c5816159e9565b82525050565b6151d4816159e9565b82525050565b6151eb6151e6826159e9565b615b58565b82525050565b6151fa816159f3565b82525050565b615209816159f3565b82525050565b615218816159f3565b82525050565b61522f61522a826159f3565b615b62565b82525050565b60006152418289614a39565b915061524d828861521e565b60048201915061525d828761521e565b60048201915061526d8286614bcc565b915061527982856149c4565b60148201915061528982846151da565b602082019150819050979650505050505050565b60006152a9828761521e565b6004820191506152b98286614bcc565b91506152c582856149c4565b6014820191506152d582846151da565b60208201915081905095945050505050565b60006040820190506152fc60008301856149b5565b6153096020830184614b0f565b9392505050565b60006020820190506153256000830184614aa6565b92915050565b60006020820190506153406000830184614ad3565b92915050565b600060208201905061535b6000830184614ae2565b92915050565b6000606082019050818103600083015261537b8186614b93565b905061538a60208301856151cb565b61539760408301846149b5565b949350505050565b600060208201905081810360008301526153b881614bfd565b9050919050565b600060208201905081810360008301526153d881614c3d565b9050919050565b600060208201905081810360008301526153f881614c7d565b9050919050565b6000602082019050818103600083015261541881614cbd565b9050919050565b6000602082019050818103600083015261543881614cfd565b9050919050565b6000602082019050818103600083015261545881614d63565b9050919050565b6000602082019050818103600083015261547881614da3565b9050919050565b6000602082019050818103600083015261549881614e09565b9050919050565b600060208201905081810360008301526154b881614e49565b9050919050565b600060208201905081810360008301526154d881614e89565b9050919050565b600060208201905081810360008301526154f881614ec9565b9050919050565b6000610160820190506155156000830184614f09565b92915050565b600060208201905081810360008301526155358184614fea565b905092915050565b60006020820190508181036000830152615557818461504d565b905092915050565b6000602082019050818103600083015261557981846150e9565b905092915050565b60006020820190506155966000830184615200565b92915050565b600060e0820190506155b1600083018a615200565b6155be60208301896149b5565b6155cb60408301886149b5565b6155d86060830187615200565b6155e56080830186614b00565b6155f260a08301856151cb565b81810360c08301526156048184614b93565b905098975050505050505050565b60006080820190506156276000830187615200565b81810360208301526156398186614b93565b905061564860408301856151cb565b6156556060830184614ac4565b95945050505050565b60006080820190506156736000830187615200565b6156806020830186615200565b61568d6040830185615200565b61569a60608301846149b5565b95945050505050565b6000610100820190506156b9600083018b615200565b6156c6602083018a615200565b6156d36040830189615200565b6156e06060830188614aa6565b81810360808301526156f28187614b93565b905061570160a08301866149b5565b61570e60c0830185614ac4565b81810360e08301526157208184614b93565b90509998505050505050505050565b600061016082019050615745600083018e615200565b615752602083018d615200565b61575f604083018c615200565b61576c606083018b615200565b615779608083018a614aa6565b61578660a0830189614b4b565b61579360c08301886149b5565b6157a060e08301876149b5565b6157ae610100830186614b2d565b6157bc610120830185614aa6565b6157ca6101408301846149b5565b9c9b505050505050505050505050565b6000604051905081810181811067ffffffffffffffff8211171561580157615800615c01565b5b8060405250919050565b600067ffffffffffffffff82111561582657615825615c01565b5b602082029050602081019050919050565b600067ffffffffffffffff82111561585257615851615c01565b5b601f19601f8301169050602081019050919050565b6000819050602082019050919050565b600081519050919050565b600081519050919050565b6000602082019050919050565b600082825260208201905092915050565b600081905092915050565b600082825260208201905092915050565b600082825260208201905092915050565b600081905092915050565b60006158ee826159f3565b91506158f9836159f3565b92508163ffffffff048311821515161561591657615915615b74565b5b828202905092915050565b600061592c826159f3565b9150615937836159f3565b92508282101561594a57615949615b74565b5b828203905092915050565b6000615960826159c9565b9050919050565b60008115159050919050565b6000819050919050565b600081905061598b82615c5b565b919050565b600081905061599e82615c6f565b919050565b60008190506159b182615c83565b919050565b60008190506159c482615c97565b919050565b600073ffffffffffffffffffffffffffffffffffffffff82169050919050565b6000819050919050565b600063ffffffff82169050919050565b6000615a0e82615a15565b9050919050565b6000615a20826159c9565b9050919050565b6000615a3282615a39565b9050919050565b6000615a44826159c9565b9050919050565b6000615a568261597d565b9050919050565b6000615a6882615990565b9050919050565b6000615a7a826159a3565b9050919050565b6000615a8c826159b6565b9050919050565b82818337600083830152505050565b60005b83811015615ac0578082015181840152602081019050615aa5565b83811115615acf576000848401525b50505050565b60006002820490506001821680615aed57607f821691505b60208210811415615b0157615b00615bd2565b5b50919050565b6000615b12826159f3565b915063ffffffff821415615b2957615b28615b74565b5b600182019050919050565b6000615b3f82615b46565b9050919050565b6000615b5182615c4e565b9050919050565b6000819050919050565b6000615b6d82615c41565b9050919050565b7f4e487b7100000000000000000000000000000000000000000000000000000000600052601160045260246000fd5b7f4e487b7100000000000000000000000000000000000000000000000000000000600052602160045260246000fd5b7f4e487b7100000000000000000000000000000000000000000000000000000000600052602260045260246000fd5b7f4e487b7100000000000000000000000000000000000000000000000000000000600052604160045260246000fd5b6000601f19601f8301169050919050565b60008160e01b9050919050565b60008160601b9050919050565b60038110615c6c57615c6b615ba3565b5b50565b60088110615c8057615c7f615ba3565b5b50565b60038110615c9457615c93615ba3565b5b50565b60028110615ca857615ca7615ba3565b5b50565b615cb481615955565b8114615cbf57600080fd5b50565b615ccb81615967565b8114615cd657600080fd5b50565b615ce281615973565b8114615ced57600080fd5b50565b60038110615cfd57600080fd5b50565b60028110615d0d57600080fd5b50565b615d19816159f3565b8114615d2457600080fd5b5056fea2646970667358221220502c894e19c12fdfa1d25201170e31358c89c9c2208d184284f38a74e185ea3164736f6c63430008000033",
  "linkReferences": {},
  "deployedLinkReferences": {}
}