{
  "_format": "hh-sol-artifact-1",
  "contractName": "CollecteurExportateurContrat",
  "sourceName": "contracts/CollecteurExportateurContractOK.sol",
  "abi": [
    {
      "inputs": [
        {
          "internalType": "address",
          "name": "_producteurEnPhaseCultureAddress",
          "type": "address"
        }
      ],
      "stateMutability": "nonpayable",
      "type": "constructor"
    },
    {
      "anonymous": false,
      "inputs": [
        {
          "indexed": true,
          "internalType": "address",
          "name": "exportateur",
          "type": "address"
        },
        {
          "indexed": false,
          "internalType": "uint32",
          "name": "idProduit",
          "type": "uint32"
        }
      ],
      "name": "CommandePasser",
      "type": "event"
    },
    {
      "anonymous": false,
      "inputs": [
        {
          "indexed": true,
          "internalType": "uint32",
          "name": "idProduit",
          "type": "uint32"
        },
        {
          "indexed": false,
          "internalType": "uint32",
          "name": "idCondition",
          "type": "uint32"
        },
        {
          "indexed": false,
          "internalType": "string",
          "name": "temperature",
          "type": "string"
        },
        {
          "indexed": false,
          "internalType": "string",
          "name": "humidite",
          "type": "string"
        },
        {
          "indexed": false,
          "internalType": "uint256",
          "name": "timestamp",
          "type": "uint256"
        }
      ],
      "name": "ConditionEnregistree",
      "type": "event"
    },
    {
      "anonymous": false,
      "inputs": [
        {
          "indexed": true,
          "internalType": "uint32",
          "name": "idProduit",
          "type": "uint32"
        },
        {
          "indexed": false,
          "internalType": "uint32",
          "name": "idPaiement",
          "type": "uint32"
        },
        {
          "indexed": false,
          "internalType": "address",
          "name": "payeur",
          "type": "address"
        },
        {
          "indexed": false,
          "internalType": "uint32",
          "name": "montant",
          "type": "uint32"
        },
        {
          "indexed": false,
          "internalType": "enum StructLib.ModePaiement",
          "name": "mode",
          "type": "uint8"
        }
      ],
      "name": "PaiementEffectue",
      "type": "event"
    },
    {
      "anonymous": false,
      "inputs": [
        {
          "indexed": true,
          "internalType": "uint32",
          "name": "idProduit",
          "type": "uint32"
        },
        {
          "indexed": false,
          "internalType": "string",
          "name": "nom",
          "type": "string"
        },
        {
          "indexed": false,
          "internalType": "uint32",
          "name": "quantite",
          "type": "uint32"
        },
        {
          "indexed": false,
          "internalType": "uint32",
          "name": "prix",
          "type": "uint32"
        },
        {
          "indexed": false,
          "internalType": "uint32",
          "name": "idRecolte",
          "type": "uint32"
        },
        {
          "indexed": false,
          "internalType": "string",
          "name": "dateRecolte",
          "type": "string"
        },
        {
          "indexed": false,
          "internalType": "string",
          "name": "certificatPhytosanitaire",
          "type": "string"
        }
      ],
      "name": "ProduitAjoute",
      "type": "event"
    },
    {
      "anonymous": false,
      "inputs": [
        {
          "indexed": true,
          "internalType": "uint32",
          "name": "idProduit",
          "type": "uint32"
        },
        {
          "indexed": false,
          "internalType": "bool",
          "name": "valide",
          "type": "bool"
        }
      ],
      "name": "ProduitValide",
      "type": "event"
    },
    {
      "anonymous": false,
      "inputs": [
        {
          "indexed": true,
          "internalType": "uint32",
          "name": "idProduit",
          "type": "uint32"
        },
        {
          "indexed": false,
          "internalType": "enum StructLib.StatutTransport",
          "name": "statut",
          "type": "uint8"
        }
      ],
      "name": "StatutTransportMisAJour",
      "type": "event"
    },
    {
      "stateMutability": "payable",
      "type": "fallback"
    },
    {
      "inputs": [
        {
          "internalType": "uint32",
          "name": "_idRecolte",
          "type": "uint32"
        },
        {
          "internalType": "uint32",
          "name": "_quantite",
          "type": "uint32"
        },
        {
          "internalType": "uint32",
          "name": "_prix",
          "type": "uint32"
        },
        {
          "internalType": "address",
          "name": "_collecteur",
          "type": "address"
        },
        {
          "internalType": "string",
          "name": "_nomProduit",
          "type": "string"
        },
        {
          "internalType": "string",
          "name": "_dateRecolte",
          "type": "string"
        },
        {
          "internalType": "string",
          "name": "_certificatPhytosanitaire",
          "type": "string"
        }
      ],
      "name": "ajouterProduit",
      "outputs": [],
      "stateMutability": "nonpayable",
      "type": "function"
    },
    {
      "inputs": [
        {
          "internalType": "uint32",
          "name": "",
          "type": "uint32"
        }
      ],
      "name": "commandes",
      "outputs": [
        {
          "internalType": "uint32",
          "name": "id",
          "type": "uint32"
        },
        {
          "internalType": "uint32",
          "name": "idProduit",
          "type": "uint32"
        },
        {
          "internalType": "uint32",
          "name": "quantite",
          "type": "uint32"
        },
        {
          "internalType": "uint32",
          "name": "prix",
          "type": "uint32"
        },
        {
          "internalType": "bool",
          "name": "payer",
          "type": "bool"
        },
        {
          "internalType": "enum StructLib.StatutTransport",
          "name": "statutTransport",
          "type": "uint8"
        },
        {
          "internalType": "address",
          "name": "collecteur",
          "type": "address"
        },
        {
          "internalType": "address",
          "name": "exportateur",
          "type": "address"
        }
      ],
      "stateMutability": "view",
      "type": "function"
    },
    {
      "inputs": [],
      "name": "compteurCommandes",
      "outputs": [
        {
          "internalType": "uint32",
          "name": "",
          "type": "uint32"
        }
      ],
      "stateMutability": "view",
      "type": "function"
    },
    {
      "inputs": [],
      "name": "compteurConditions",
      "outputs": [
        {
          "internalType": "uint32",
          "name": "",
          "type": "uint32"
        }
      ],
      "stateMutability": "view",
      "type": "function"
    },
    {
      "inputs": [],
      "name": "compteurPaiements",
      "outputs": [
        {
          "internalType": "uint32",
          "name": "",
          "type": "uint32"
        }
      ],
      "stateMutability": "view",
      "type": "function"
    },
    {
      "inputs": [],
      "name": "compteurProduits",
      "outputs": [
        {
          "internalType": "uint32",
          "name": "",
          "type": "uint32"
        }
      ],
      "stateMutability": "view",
      "type": "function"
    },
    {
      "inputs": [
        {
          "internalType": "uint32",
          "name": "",
          "type": "uint32"
        }
      ],
      "name": "conditions",
      "outputs": [
        {
          "internalType": "uint32",
          "name": "id",
          "type": "uint32"
        },
        {
          "internalType": "string",
          "name": "temperature",
          "type": "string"
        },
        {
          "internalType": "string",
          "name": "humidite",
          "type": "string"
        },
        {
          "internalType": "uint256",
          "name": "timestamp",
          "type": "uint256"
        }
      ],
      "stateMutability": "view",
      "type": "function"
    },
    {
      "inputs": [
        {
          "internalType": "uint32",
          "name": "_idCommande",
          "type": "uint32"
        },
        {
          "internalType": "uint32",
          "name": "_montant",
          "type": "uint32"
        },
        {
          "internalType": "enum StructLib.ModePaiement",
          "name": "_mode",
          "type": "uint8"
        }
      ],
      "name": "effectuerPaiement",
      "outputs": [],
      "stateMutability": "payable",
      "type": "function"
    },
    {
      "inputs": [
        {
          "internalType": "uint32",
          "name": "_idCommande",
          "type": "uint32"
        },
        {
          "internalType": "string",
          "name": "_temperature",
          "type": "string"
        },
        {
          "internalType": "string",
          "name": "_humidite",
          "type": "string"
        }
      ],
      "name": "enregistrerCondition",
      "outputs": [],
      "stateMutability": "nonpayable",
      "type": "function"
    },
    {
      "inputs": [
        {
          "internalType": "address",
          "name": "addr",
          "type": "address"
        }
      ],
      "name": "getActeur",
      "outputs": [
        {
          "components": [
            {
              "internalType": "address",
              "name": "addr",
              "type": "address"
            },
            {
              "internalType": "enum StructLib.Role",
              "name": "role",
              "type": "uint8"
            }
          ],
          "internalType": "struct StructLib.Acteur",
          "name": "",
          "type": "tuple"
        }
      ],
      "stateMutability": "view",
      "type": "function"
    },
    {
      "inputs": [
        {
          "internalType": "uint32",
          "name": "id",
          "type": "uint32"
        }
      ],
      "name": "getCommande",
      "outputs": [
        {
          "components": [
            {
              "internalType": "uint32",
              "name": "id",
              "type": "uint32"
            },
            {
              "internalType": "uint32",
              "name": "idProduit",
              "type": "uint32"
            },
            {
              "internalType": "uint32",
              "name": "quantite",
              "type": "uint32"
            },
            {
              "internalType": "uint32",
              "name": "prix",
              "type": "uint32"
            },
            {
              "internalType": "bool",
              "name": "payer",
              "type": "bool"
            },
            {
              "internalType": "enum StructLib.StatutTransport",
              "name": "statutTransport",
              "type": "uint8"
            },
            {
              "internalType": "address",
              "name": "collecteur",
              "type": "address"
            },
            {
              "internalType": "address",
              "name": "exportateur",
              "type": "address"
            }
          ],
          "internalType": "struct StructLib.CommandeProduit",
          "name": "",
          "type": "tuple"
        }
      ],
      "stateMutability": "view",
      "type": "function"
    },
    {
      "inputs": [],
      "name": "getCompteurCommande",
      "outputs": [
        {
          "internalType": "uint32",
          "name": "",
          "type": "uint32"
        }
      ],
      "stateMutability": "view",
      "type": "function"
    },
    {
      "inputs": [],
      "name": "getCompteurCondition",
      "outputs": [
        {
          "internalType": "uint32",
          "name": "",
          "type": "uint32"
        }
      ],
      "stateMutability": "view",
      "type": "function"
    },
    {
      "inputs": [],
      "name": "getCompteurPaiement",
      "outputs": [
        {
          "internalType": "uint32",
          "name": "",
          "type": "uint32"
        }
      ],
      "stateMutability": "view",
      "type": "function"
    },
    {
      "inputs": [],
      "name": "getCompteurProduit",
      "outputs": [
        {
          "internalType": "uint32",
          "name": "",
          "type": "uint32"
        }
      ],
      "stateMutability": "view",
      "type": "function"
    },
    {
      "inputs": [
        {
          "internalType": "uint32",
          "name": "id",
          "type": "uint32"
        }
      ],
      "name": "getCondition",
      "outputs": [
        {
          "components": [
            {
              "internalType": "uint32",
              "name": "id",
              "type": "uint32"
            },
            {
              "internalType": "string",
              "name": "temperature",
              "type": "string"
            },
            {
              "internalType": "string",
              "name": "humidite",
              "type": "string"
            },
            {
              "internalType": "uint256",
              "name": "timestamp",
              "type": "uint256"
            }
          ],
          "internalType": "struct StructLib.EnregistrementCondition",
          "name": "",
          "type": "tuple"
        }
      ],
      "stateMutability": "view",
      "type": "function"
    },
    {
      "inputs": [
        {
          "internalType": "uint32",
          "name": "id",
          "type": "uint32"
        }
      ],
      "name": "getPaiement",
      "outputs": [
        {
          "components": [
            {
              "internalType": "uint32",
              "name": "id",
              "type": "uint32"
            },
            {
              "internalType": "address",
              "name": "payeur",
              "type": "address"
            },
            {
              "internalType": "address",
              "name": "vendeur",
              "type": "address"
            },
            {
              "internalType": "uint32",
              "name": "montant",
              "type": "uint32"
            },
            {
              "internalType": "enum StructLib.ModePaiement",
              "name": "mode",
              "type": "uint8"
            },
            {
              "internalType": "uint256",
              "name": "timestamp",
              "type": "uint256"
            }
          ],
          "internalType": "struct StructLib.Paiement",
          "name": "",
          "type": "tuple"
        }
      ],
      "stateMutability": "view",
      "type": "function"
    },
    {
      "inputs": [
        {
          "internalType": "uint32",
          "name": "id",
          "type": "uint32"
        }
      ],
      "name": "getProduit",
      "outputs": [
        {
          "components": [
            {
              "internalType": "uint32",
              "name": "id",
              "type": "uint32"
            },
            {
              "internalType": "uint32",
              "name": "idRecolte",
              "type": "uint32"
            },
            {
              "internalType": "string",
              "name": "nom",
              "type": "string"
            },
            {
              "internalType": "uint32",
              "name": "quantite",
              "type": "uint32"
            },
            {
              "internalType": "uint32",
              "name": "prixUnit",
              "type": "uint32"
            },
            {
              "internalType": "enum StructLib.StatutProduit",
              "name": "statut",
              "type": "uint8"
            },
            {
              "internalType": "string",
              "name": "dateRecolte",
              "type": "string"
            },
            {
              "internalType": "string",
              "name": "certificatPhytosanitaire",
              "type": "string"
            },
            {
              "internalType": "address",
              "name": "collecteur",
              "type": "address"
            }
          ],
          "internalType": "struct StructLib.Produit",
          "name": "",
          "type": "tuple"
        }
      ],
      "stateMutability": "view",
      "type": "function"
    },
    {
      "inputs": [
        {
          "internalType": "uint32",
          "name": "_idCommande",
          "type": "uint32"
        },
        {
          "internalType": "enum StructLib.StatutTransport",
          "name": "_statut",
          "type": "uint8"
        }
      ],
      "name": "mettreAJourStatutTransport",
      "outputs": [],
      "stateMutability": "nonpayable",
      "type": "function"
    },
    {
      "inputs": [
        {
          "internalType": "uint32",
          "name": "",
          "type": "uint32"
        }
      ],
      "name": "paiements",
      "outputs": [
        {
          "internalType": "uint32",
          "name": "id",
          "type": "uint32"
        },
        {
          "internalType": "address",
          "name": "payeur",
          "type": "address"
        },
        {
          "internalType": "address",
          "name": "vendeur",
          "type": "address"
        },
        {
          "internalType": "uint32",
          "name": "montant",
          "type": "uint32"
        },
        {
          "internalType": "enum StructLib.ModePaiement",
          "name": "mode",
          "type": "uint8"
        },
        {
          "internalType": "uint256",
          "name": "timestamp",
          "type": "uint256"
        }
      ],
      "stateMutability": "view",
      "type": "function"
    },
    {
      "inputs": [
        {
          "internalType": "uint32",
          "name": "idProduit",
          "type": "uint32"
        },
        {
          "internalType": "uint32",
          "name": "_quantite",
          "type": "uint32"
        }
      ],
      "name": "passerCommande",
      "outputs": [],
      "stateMutability": "nonpayable",
      "type": "function"
    },
    {
      "inputs": [],
      "name": "producteurEnPhaseCulture",
      "outputs": [
        {
          "internalType": "contract ProducteurEnPhaseCulture",
          "name": "",
          "type": "address"
        }
      ],
      "stateMutability": "view",
      "type": "function"
    },
    {
      "inputs": [
        {
          "internalType": "uint32",
          "name": "",
          "type": "uint32"
        }
      ],
      "name": "produits",
      "outputs": [
        {
          "internalType": "uint32",
          "name": "id",
          "type": "uint32"
        },
        {
          "internalType": "uint32",
          "name": "idRecolte",
          "type": "uint32"
        },
        {
          "internalType": "string",
          "name": "nom",
          "type": "string"
        },
        {
          "internalType": "uint32",
          "name": "quantite",
          "type": "uint32"
        },
        {
          "internalType": "uint32",
          "name": "prixUnit",
          "type": "uint32"
        },
        {
          "internalType": "enum StructLib.StatutProduit",
          "name": "statut",
          "type": "uint8"
        },
        {
          "internalType": "string",
          "name": "dateRecolte",
          "type": "string"
        },
        {
          "internalType": "string",
          "name": "certificatPhytosanitaire",
          "type": "string"
        },
        {
          "internalType": "address",
          "name": "collecteur",
          "type": "address"
        }
      ],
      "stateMutability": "view",
      "type": "function"
    },
    {
      "inputs": [
        {
          "internalType": "uint32",
          "name": "_idProduit",
          "type": "uint32"
        },
        {
          "internalType": "uint32",
          "name": "_prix",
          "type": "uint32"
        }
      ],
      "name": "setPriceProduit",
      "outputs": [],
      "stateMutability": "nonpayable",
      "type": "function"
    },
    {
      "inputs": [
        {
          "internalType": "address",
          "name": "_addr",
          "type": "address"
        }
      ],
      "name": "setProducteurEnPhaseCulture",
      "outputs": [],
      "stateMutability": "nonpayable",
      "type": "function"
    },
    {
      "inputs": [
        {
          "internalType": "uint32",
          "name": "_idProduit",
          "type": "uint32"
        },
        {
          "internalType": "bool",
          "name": "_valide",
          "type": "bool"
        }
      ],
      "name": "validerProduit",
      "outputs": [],
      "stateMutability": "nonpayable",
      "type": "function"
    },
    {
      "stateMutability": "payable",
      "type": "receive"
    }
  ],
  "bytecode": "0x60806040523480156200001157600080fd5b5060405162004e1f38038062004e1f833981810160405281019062000037919062000096565b80600560006101000a81548173ffffffffffffffffffffffffffffffffffffffff021916908373ffffffffffffffffffffffffffffffffffffffff1602179055505062000110565b6000815190506200009081620000f6565b92915050565b600060208284031215620000a957600080fd5b6000620000b9848285016200007f565b91505092915050565b6000620000cf82620000d6565b9050919050565b600073ffffffffffffffffffffffffffffffffffffffff82169050919050565b6200010181620000c2565b81146200010d57600080fd5b50565b614cff80620001206000396000f3fe6080604052600436106101855760003560e01c80636f3fd6c5116100d1578063c47744ff1161008a578063edd1316311610064578063edd13163146105b5578063f6980cc9146105e0578063fdccf43314610620578063fe32398a1461064b5761018c565b8063c47744ff14610545578063cd3df1ed1461056e578063e6cab64c146105995761018c565b80636f3fd6c5146104175780637babcffa1461045b5780638777654f1461049d5780638a16156e146104c857806393c2f9b4146104f15780639aed45401461051c5761018c565b806341fae4db1161013e5780634dafb501116101185780634dafb5011461035b57806350346b0b146103845780635293ea51146103af578063687112e2146103ec5761018c565b806341fae4db146102ae5780634851ca82146102eb578063488dee20146103305761018c565b8063011970181461018e5780630b215e64146101b957806315a3374c146101f6578063243ae82c1461021f578063257687e614610248578063369064b9146102715761018c565b3661018c57005b005b34801561019a57600080fd5b506101a3610688565b6040516101b09190614652565b60405180910390f35b3480156101c557600080fd5b506101e060048036038101906101db9190613a06565b6106a0565b6040516101ed9190614615565b60405180910390f35b34801561020257600080fd5b5061021d60048036038101906102189190613b26565b610862565b005b34801561022b57600080fd5b5061024660048036038101906102419190613a2f565b610ab5565b005b34801561025457600080fd5b5061026f600480360381019061026a91906139b4565b610e23565b005b34801561027d57600080fd5b5061029860048036038101906102939190613a06565b610e67565b6040516102a59190614630565b60405180910390f35b3480156102ba57600080fd5b506102d560048036038101906102d09190613a06565b6111cb565b6040516102e291906145f3565b60405180910390f35b3480156102f757600080fd5b50610312600480360381019061030d9190613a06565b611358565b60405161032799989796959493929190614766565b60405180910390f35b34801561033c57600080fd5b506103456115ab565b6040516103529190614652565b60405180910390f35b34801561036757600080fd5b50610382600480360381019061037d9190613b26565b6115c1565b005b34801561039057600080fd5b50610399611bd8565b6040516103a691906143d0565b60405180910390f35b3480156103bb57600080fd5b506103d660048036038101906103d19190613a06565b611bfe565b6040516103e391906145d7565b60405180910390f35b3480156103f857600080fd5b50610401611e1e565b60405161040e9190614652565b60405180910390f35b34801561042357600080fd5b5061043e60048036038101906104399190613a06565b611e34565b604051610452989796959493929190614808565b60405180910390f35b34801561046757600080fd5b50610482600480360381019061047d9190613a06565b611f16565b6040516104949695949392919061466d565b60405180910390f35b3480156104a957600080fd5b506104b2611fbf565b6040516104bf9190614652565b60405180910390f35b3480156104d457600080fd5b506104ef60048036038101906104ea9190613a6b565b611fd9565b005b3480156104fd57600080fd5b5061050661224c565b6040516105139190614652565b60405180910390f35b34801561052857600080fd5b50610543600480360381019061053e9190613bb1565b612266565b005b34801561055157600080fd5b5061056c60048036038101906105679190613aa7565b612580565b005b34801561057a57600080fd5b506105836128a3565b6040516105909190614652565b60405180910390f35b6105b360048036038101906105ae9190613b62565b6128b9565b005b3480156105c157600080fd5b506105ca6132e2565b6040516105d79190614652565b60405180910390f35b3480156105ec57600080fd5b5061060760048036038101906106029190613a06565b6132f6565b6040516106179493929190614713565b60405180910390f35b34801561062c57600080fd5b50610635613446565b6040516106429190614652565b60405180910390f35b34801561065757600080fd5b50610672600480360381019061066d91906139b4565b613460565b60405161067f91906145bc565b60405180910390f35b600060048054906101000a900463ffffffff16905090565b6106a8613519565b600260008363ffffffff1663ffffffff1681526020019081526020016000206040518060c00160405290816000820160009054906101000a900463ffffffff1663ffffffff1663ffffffff1681526020016000820160049054906101000a900473ffffffffffffffffffffffffffffffffffffffff1673ffffffffffffffffffffffffffffffffffffffff1673ffffffffffffffffffffffffffffffffffffffff1681526020016001820160009054906101000a900473ffffffffffffffffffffffffffffffffffffffff1673ffffffffffffffffffffffffffffffffffffffff1673ffffffffffffffffffffffffffffffffffffffff1681526020016001820160149054906101000a900463ffffffff1663ffffffff1663ffffffff1681526020016001820160189054906101000a900460ff166002811115610815577f4e487b7100000000000000000000000000000000000000000000000000000000600052602160045260246000fd5b600281111561084d577f4e487b7100000000000000000000000000000000000000000000000000000000600052602160045260246000fd5b81526020016002820154815250509050919050565b6003600681111561089c577f4e487b7100000000000000000000000000000000000000000000000000000000600052602160045260246000fd5b600560009054906101000a900473ffffffffffffffffffffffffffffffffffffffff1673ffffffffffffffffffffffffffffffffffffffff1663fe32398a336040518263ffffffff1660e01b81526004016108f7919061439a565b604080518083038186803b15801561090e57600080fd5b505afa158015610922573d6000803e3d6000fd5b505050506040513d601f19601f8201168201806040525081019061094691906139dd565b602001516006811115610982577f4e487b7100000000000000000000000000000000000000000000000000000000600052602160045260246000fd5b146109c2576040517f08c379a00000000000000000000000000000000000000000000000000000000081526004016109b99061455c565b60405180910390fd5b3373ffffffffffffffffffffffffffffffffffffffff166000808463ffffffff1663ffffffff16815260200190815260200160002060050160009054906101000a900473ffffffffffffffffffffffffffffffffffffffff1673ffffffffffffffffffffffffffffffffffffffff1614610a71576040517f08c379a0000000000000000000000000000000000000000000000000000000008152600401610a68906144dc565b60405180910390fd5b806000808463ffffffff1663ffffffff16815260200190815260200160002060020160046101000a81548163ffffffff021916908363ffffffff1602179055505050565b600680811115610aee577f4e487b7100000000000000000000000000000000000000000000000000000000600052602160045260246000fd5b600560009054906101000a900473ffffffffffffffffffffffffffffffffffffffff1673ffffffffffffffffffffffffffffffffffffffff1663fe32398a336040518263ffffffff1660e01b8152600401610b49919061439a565b604080518083038186803b158015610b6057600080fd5b505afa158015610b74573d6000803e3d6000fd5b505050506040513d601f19601f82011682018060405250810190610b9891906139dd565b602001516006811115610bd4577f4e487b7100000000000000000000000000000000000000000000000000000000600052602160045260246000fd5b14610c14576040517f08c379a0000000000000000000000000000000000000000000000000000000008152600401610c0b9061457c565b60405180910390fd5b60006002811115610c4e577f4e487b7100000000000000000000000000000000000000000000000000000000600052602160045260246000fd5b6000808463ffffffff1663ffffffff16815260200190815260200160002060020160089054906101000a900460ff166002811115610cb5577f4e487b7100000000000000000000000000000000000000000000000000000000600052602160045260246000fd5b14610cf5576040517f08c379a0000000000000000000000000000000000000000000000000000000008152600401610cec906144bc565b60405180910390fd5b8015610d705760016000808463ffffffff1663ffffffff16815260200190815260200160002060020160086101000a81548160ff02191690836002811115610d66577f4e487b7100000000000000000000000000000000000000000000000000000000600052602160045260246000fd5b0217905550610de1565b60026000808463ffffffff1663ffffffff16815260200190815260200160002060020160086101000a81548160ff02191690836002811115610ddb577f4e487b7100000000000000000000000000000000000000000000000000000000600052602160045260246000fd5b02179055505b8163ffffffff167f0162415f7fa3e8fd622f197aee84dcd4f88f8194b8755bca9c2a885bc4332c9182604051610e1791906143b5565b60405180910390a25050565b80600560006101000a81548173ffffffffffffffffffffffffffffffffffffffff021916908373ffffffffffffffffffffffffffffffffffffffff16021790555050565b610e6f6135bf565b6000808363ffffffff1663ffffffff168152602001908152602001600020604051806101200160405290816000820160009054906101000a900463ffffffff1663ffffffff1663ffffffff1681526020016000820160049054906101000a900463ffffffff1663ffffffff1663ffffffff168152602001600182018054610ef590614ad8565b80601f0160208091040260200160405190810160405280929190818152602001828054610f2190614ad8565b8015610f6e5780601f10610f4357610100808354040283529160200191610f6e565b820191906000526020600020905b815481529060010190602001808311610f5157829003601f168201915b505050505081526020016002820160009054906101000a900463ffffffff1663ffffffff1663ffffffff1681526020016002820160049054906101000a900463ffffffff1663ffffffff1663ffffffff1681526020016002820160089054906101000a900460ff16600281111561100e577f4e487b7100000000000000000000000000000000000000000000000000000000600052602160045260246000fd5b6002811115611046577f4e487b7100000000000000000000000000000000000000000000000000000000600052602160045260246000fd5b815260200160038201805461105a90614ad8565b80601f016020809104026020016040519081016040528092919081815260200182805461108690614ad8565b80156110d35780601f106110a8576101008083540402835291602001916110d3565b820191906000526020600020905b8154815290600101906020018083116110b657829003601f168201915b505050505081526020016004820180546110ec90614ad8565b80601f016020809104026020016040519081016040528092919081815260200182805461111890614ad8565b80156111655780601f1061113a57610100808354040283529160200191611165565b820191906000526020600020905b81548152906001019060200180831161114857829003601f168201915b505050505081526020016005820160009054906101000a900473ffffffffffffffffffffffffffffffffffffffff1673ffffffffffffffffffffffffffffffffffffffff1673ffffffffffffffffffffffffffffffffffffffff16815250509050919050565b6111d3613671565b600160008363ffffffff1663ffffffff1681526020019081526020016000206040518060800160405290816000820160009054906101000a900463ffffffff1663ffffffff1663ffffffff16815260200160018201805461123390614ad8565b80601f016020809104026020016040519081016040528092919081815260200182805461125f90614ad8565b80156112ac5780601f10611281576101008083540402835291602001916112ac565b820191906000526020600020905b81548152906001019060200180831161128f57829003601f168201915b505050505081526020016002820180546112c590614ad8565b80601f01602080910402602001604051908101604052809291908181526020018280546112f190614ad8565b801561133e5780601f106113135761010080835404028352916020019161133e565b820191906000526020600020905b81548152906001019060200180831161132157829003601f168201915b505050505081526020016003820154815250509050919050565b60006020528060005260406000206000915090508060000160009054906101000a900463ffffffff16908060000160049054906101000a900463ffffffff16908060010180546113a790614ad8565b80601f01602080910402602001604051908101604052809291908181526020018280546113d390614ad8565b80156114205780601f106113f557610100808354040283529160200191611420565b820191906000526020600020905b81548152906001019060200180831161140357829003601f168201915b5050505050908060020160009054906101000a900463ffffffff16908060020160049054906101000a900463ffffffff16908060020160089054906101000a900460ff169080600301805461147490614ad8565b80601f01602080910402602001604051908101604052809291908181526020018280546114a090614ad8565b80156114ed5780601f106114c2576101008083540402835291602001916114ed565b820191906000526020600020905b8154815290600101906020018083116114d057829003601f168201915b50505050509080600401805461150290614ad8565b80601f016020809104026020016040519081016040528092919081815260200182805461152e90614ad8565b801561157b5780601f106115505761010080835404028352916020019161157b565b820191906000526020600020905b81548152906001019060200180831161155e57829003601f168201915b5050505050908060050160009054906101000a900473ffffffffffffffffffffffffffffffffffffffff16905089565b600460009054906101000a900463ffffffff1681565b6006808111156115fa577f4e487b7100000000000000000000000000000000000000000000000000000000600052602160045260246000fd5b600560009054906101000a900473ffffffffffffffffffffffffffffffffffffffff1673ffffffffffffffffffffffffffffffffffffffff1663fe32398a336040518263ffffffff1660e01b8152600401611655919061439a565b604080518083038186803b15801561166c57600080fd5b505afa158015611680573d6000803e3d6000fd5b505050506040513d601f19601f820116820180604052508101906116a491906139dd565b6020015160068111156116e0577f4e487b7100000000000000000000000000000000000000000000000000000000600052602160045260246000fd5b14611720576040517f08c379a00000000000000000000000000000000000000000000000000000000081526004016117179061457c565b60405180910390fd5b6000808363ffffffff1663ffffffff16815260200190815260200160002060020160009054906101000a900463ffffffff1663ffffffff168163ffffffff1611156117a0576040517f08c379a00000000000000000000000000000000000000000000000000000000081526004016117979061453c565b60405180910390fd5b60008060008463ffffffff1663ffffffff16815260200190815260200160002060020160049054906101000a900463ffffffff16826117df9190614914565b90506000826000808663ffffffff1663ffffffff16815260200190815260200160002060020160009054906101000a900463ffffffff166118209190614952565b9050806000808663ffffffff1663ffffffff16815260200190815260200160002060020160006101000a81548163ffffffff021916908363ffffffff1602179055506004600081819054906101000a900463ffffffff168092919061188490614b0a565b91906101000a81548163ffffffff021916908363ffffffff16021790555050604051806101000160405280600460009054906101000a900463ffffffff1663ffffffff1681526020018563ffffffff1681526020018463ffffffff1681526020018363ffffffff16815260200160001515815260200160006001811115611934577f4e487b7100000000000000000000000000000000000000000000000000000000600052602160045260246000fd5b81526020016000808763ffffffff1663ffffffff16815260200190815260200160002060050160009054906101000a900473ffffffffffffffffffffffffffffffffffffffff1673ffffffffffffffffffffffffffffffffffffffff1681526020013373ffffffffffffffffffffffffffffffffffffffff1681525060036000600460009054906101000a900463ffffffff1663ffffffff1663ffffffff16815260200190815260200160002060008201518160000160006101000a81548163ffffffff021916908363ffffffff16021790555060208201518160000160046101000a81548163ffffffff021916908363ffffffff16021790555060408201518160000160086101000a81548163ffffffff021916908363ffffffff160217905550606082015181600001600c6101000a81548163ffffffff021916908363ffffffff16021790555060808201518160000160106101000a81548160ff02191690831515021790555060a08201518160000160116101000a81548160ff02191690836001811115611aee577f4e487b7100000000000000000000000000000000000000000000000000000000600052602160045260246000fd5b021790555060c08201518160010160006101000a81548173ffffffffffffffffffffffffffffffffffffffff021916908373ffffffffffffffffffffffffffffffffffffffff16021790555060e08201518160020160006101000a81548173ffffffffffffffffffffffffffffffffffffffff021916908373ffffffffffffffffffffffffffffffffffffffff1602179055509050503373ffffffffffffffffffffffffffffffffffffffff167fa0e84f4dba1ea97bb938c4d3ff9475e68dacbd58f3086c672b0605ad53d76dc185604051611bca9190614652565b60405180910390a250505050565b600560009054906101000a900473ffffffffffffffffffffffffffffffffffffffff1681565b611c0661369f565b600360008363ffffffff1663ffffffff168152602001908152602001600020604051806101000160405290816000820160009054906101000a900463ffffffff1663ffffffff1663ffffffff1681526020016000820160049054906101000a900463ffffffff1663ffffffff1663ffffffff1681526020016000820160089054906101000a900463ffffffff1663ffffffff1663ffffffff16815260200160008201600c9054906101000a900463ffffffff1663ffffffff1663ffffffff1681526020016000820160109054906101000a900460ff161515151581526020016000820160119054906101000a900460ff166001811115611d2f577f4e487b7100000000000000000000000000000000000000000000000000000000600052602160045260246000fd5b6001811115611d67577f4e487b7100000000000000000000000000000000000000000000000000000000600052602160045260246000fd5b81526020016001820160009054906101000a900473ffffffffffffffffffffffffffffffffffffffff1673ffffffffffffffffffffffffffffffffffffffff1673ffffffffffffffffffffffffffffffffffffffff1681526020016002820160009054906101000a900473ffffffffffffffffffffffffffffffffffffffff1673ffffffffffffffffffffffffffffffffffffffff1673ffffffffffffffffffffffffffffffffffffffff16815250509050919050565b600460089054906101000a900463ffffffff1681565b60036020528060005260406000206000915090508060000160009054906101000a900463ffffffff16908060000160049054906101000a900463ffffffff16908060000160089054906101000a900463ffffffff169080600001600c9054906101000a900463ffffffff16908060000160109054906101000a900460ff16908060000160119054906101000a900460ff16908060010160009054906101000a900473ffffffffffffffffffffffffffffffffffffffff16908060020160009054906101000a900473ffffffffffffffffffffffffffffffffffffffff16905088565b60026020528060005260406000206000915090508060000160009054906101000a900463ffffffff16908060000160049054906101000a900473ffffffffffffffffffffffffffffffffffffffff16908060010160009054906101000a900473ffffffffffffffffffffffffffffffffffffffff16908060010160149054906101000a900463ffffffff16908060010160189054906101000a900460ff16908060020154905086565b6000600460009054906101000a900463ffffffff16905090565b60056006811115612013577f4e487b7100000000000000000000000000000000000000000000000000000000600052602160045260246000fd5b600560009054906101000a900473ffffffffffffffffffffffffffffffffffffffff1673ffffffffffffffffffffffffffffffffffffffff1663fe32398a336040518263ffffffff1660e01b815260040161206e919061439a565b604080518083038186803b15801561208557600080fd5b505afa158015612099573d6000803e3d6000fd5b505050506040513d601f19601f820116820180604052508101906120bd91906139dd565b6020015160068111156120f9577f4e487b7100000000000000000000000000000000000000000000000000000000600052602160045260246000fd5b14612139576040517f08c379a00000000000000000000000000000000000000000000000000000000081526004016121309061459c565b60405180910390fd5b600460009054906101000a900463ffffffff1663ffffffff168263ffffffff16111561219a576040517f08c379a00000000000000000000000000000000000000000000000000000000081526004016121919061447c565b60405180910390fd5b80600360008463ffffffff1663ffffffff16815260200190815260200160002060000160116101000a81548160ff02191690836001811115612205577f4e487b7100000000000000000000000000000000000000000000000000000000600052602160045260246000fd5b02179055508163ffffffff167ff84820c84ecbec116ee0604a91f0bec4a5d5926d8d5189a13f57fc30951d4b918260405161224091906143eb565b60405180910390a25050565b6000600460089054906101000a900463ffffffff16905090565b60048081819054906101000a900463ffffffff168092919061228790614b0a565b91906101000a81548163ffffffff021916908363ffffffff1602179055505060405180610120016040528060048054906101000a900463ffffffff1663ffffffff1681526020018863ffffffff1681526020018481526020018763ffffffff1681526020018663ffffffff16815260200160006002811115612332577f4e487b7100000000000000000000000000000000000000000000000000000000600052602160045260246000fd5b81526020018381526020018281526020018573ffffffffffffffffffffffffffffffffffffffff1681525060008060048054906101000a900463ffffffff1663ffffffff1663ffffffff16815260200190815260200160002060008201518160000160006101000a81548163ffffffff021916908363ffffffff16021790555060208201518160000160046101000a81548163ffffffff021916908363ffffffff16021790555060408201518160010190805190602001906123f5929190613762565b5060608201518160020160006101000a81548163ffffffff021916908363ffffffff16021790555060808201518160020160046101000a81548163ffffffff021916908363ffffffff16021790555060a08201518160020160086101000a81548160ff02191690836002811115612495577f4e487b7100000000000000000000000000000000000000000000000000000000600052602160045260246000fd5b021790555060c08201518160030190805190602001906124b6929190613762565b5060e08201518160040190805190602001906124d3929190613762565b506101008201518160050160006101000a81548173ffffffffffffffffffffffffffffffffffffffff021916908373ffffffffffffffffffffffffffffffffffffffff16021790555090505060048054906101000a900463ffffffff1663ffffffff167fae4e6a533354fae499eff08fce0d52e10ef7c27a1743662362463f06382e8e1d8488888b878760405161256f96959493929190614406565b60405180910390a250505050505050565b600560068111156125ba577f4e487b7100000000000000000000000000000000000000000000000000000000600052602160045260246000fd5b600560009054906101000a900473ffffffffffffffffffffffffffffffffffffffff1673ffffffffffffffffffffffffffffffffffffffff1663fe32398a336040518263ffffffff1660e01b8152600401612615919061439a565b604080518083038186803b15801561262c57600080fd5b505afa158015612640573d6000803e3d6000fd5b505050506040513d601f19601f8201168201806040525081019061266491906139dd565b6020015160068111156126a0577f4e487b7100000000000000000000000000000000000000000000000000000000600052602160045260246000fd5b146126e0576040517f08c379a00000000000000000000000000000000000000000000000000000000081526004016126d79061459c565b60405180910390fd5b600460009054906101000a900463ffffffff1663ffffffff168363ffffffff161115612741576040517f08c379a00000000000000000000000000000000000000000000000000000000081526004016127389061447c565b60405180910390fd5b6004600881819054906101000a900463ffffffff168092919061276390614b0a565b91906101000a81548163ffffffff021916908363ffffffff160217905550506040518060800160405280600460089054906101000a900463ffffffff1663ffffffff16815260200183815260200182815260200142815250600160008563ffffffff1663ffffffff16815260200190815260200160002060008201518160000160006101000a81548163ffffffff021916908363ffffffff160217905550602082015181600101908051906020019061281d929190613762565b50604082015181600201908051906020019061283a929190613762565b50606082015181600301559050508263ffffffff167fa2effbfc7f8ff62ea4b874b57c26eb8951f95a078bf527463389d9b2d4ce175d600460089054906101000a900463ffffffff168484426040516128969493929190614713565b60405180910390a2505050565b6004600c9054906101000a900463ffffffff1681565b6006808111156128f2577f4e487b7100000000000000000000000000000000000000000000000000000000600052602160045260246000fd5b600560009054906101000a900473ffffffffffffffffffffffffffffffffffffffff1673ffffffffffffffffffffffffffffffffffffffff1663fe32398a336040518263ffffffff1660e01b815260040161294d919061439a565b604080518083038186803b15801561296457600080fd5b505afa158015612978573d6000803e3d6000fd5b505050506040513d601f19601f8201168201806040525081019061299c91906139dd565b6020015160068111156129d8577f4e487b7100000000000000000000000000000000000000000000000000000000600052602160045260246000fd5b14612a18576040517f08c379a0000000000000000000000000000000000000000000000000000000008152600401612a0f9061457c565b60405180910390fd5b6000806000600360008763ffffffff1663ffffffff16815260200190815260200160002060000160049054906101000a900463ffffffff1663ffffffff1663ffffffff168152602001908152602001600020604051806101200160405290816000820160009054906101000a900463ffffffff1663ffffffff1663ffffffff1681526020016000820160049054906101000a900463ffffffff1663ffffffff1663ffffffff168152602001600182018054612ad290614ad8565b80601f0160208091040260200160405190810160405280929190818152602001828054612afe90614ad8565b8015612b4b5780601f10612b2057610100808354040283529160200191612b4b565b820191906000526020600020905b815481529060010190602001808311612b2e57829003601f168201915b505050505081526020016002820160009054906101000a900463ffffffff1663ffffffff1663ffffffff1681526020016002820160049054906101000a900463ffffffff1663ffffffff1663ffffffff1681526020016002820160089054906101000a900460ff166002811115612beb577f4e487b7100000000000000000000000000000000000000000000000000000000600052602160045260246000fd5b6002811115612c23577f4e487b7100000000000000000000000000000000000000000000000000000000600052602160045260246000fd5b8152602001600382018054612c3790614ad8565b80601f0160208091040260200160405190810160405280929190818152602001828054612c6390614ad8565b8015612cb05780601f10612c8557610100808354040283529160200191612cb0565b820191906000526020600020905b815481529060010190602001808311612c9357829003601f168201915b50505050508152602001600482018054612cc990614ad8565b80601f0160208091040260200160405190810160405280929190818152602001828054612cf590614ad8565b8015612d425780601f10612d1757610100808354040283529160200191612d42565b820191906000526020600020905b815481529060010190602001808311612d2557829003601f168201915b505050505081526020016005820160009054906101000a900473ffffffffffffffffffffffffffffffffffffffff1673ffffffffffffffffffffffffffffffffffffffff1673ffffffffffffffffffffffffffffffffffffffff1681525050905060016002811115612ddd577f4e487b7100000000000000000000000000000000000000000000000000000000600052602160045260246000fd5b8160a001516002811115612e1a577f4e487b7100000000000000000000000000000000000000000000000000000000600052602160045260246000fd5b14612e5a576040517f08c379a0000000000000000000000000000000000000000000000000000000008152600401612e519061451c565b60405180910390fd5b600360008563ffffffff1663ffffffff16815260200190815260200160002060000160089054906101000a900463ffffffff168160800151612e9c9190614914565b63ffffffff163414612ee3576040517f08c379a0000000000000000000000000000000000000000000000000000000008152600401612eda9061449c565b60405180910390fd5b600360008563ffffffff1663ffffffff16815260200190815260200160002060000160109054906101000a900460ff1615612f53576040517f08c379a0000000000000000000000000000000000000000000000000000000008152600401612f4a906144fc565b60405180910390fd5b6001600360008663ffffffff1663ffffffff16815260200190815260200160002060000160106101000a81548160ff0219169083151502179055506004600c81819054906101000a900463ffffffff1680929190612fb090614b0a565b91906101000a81548163ffffffff021916908363ffffffff160217905550506040518060c001604052806004600c9054906101000a900463ffffffff1663ffffffff1681526020013373ffffffffffffffffffffffffffffffffffffffff168152602001600360008763ffffffff1663ffffffff16815260200190815260200160002060010160009054906101000a900473ffffffffffffffffffffffffffffffffffffffff1673ffffffffffffffffffffffffffffffffffffffff1681526020018463ffffffff1681526020018360028111156130b7577f4e487b7100000000000000000000000000000000000000000000000000000000600052602160045260246000fd5b815260200142815250600260006004600c9054906101000a900463ffffffff1663ffffffff1663ffffffff16815260200190815260200160002060008201518160000160006101000a81548163ffffffff021916908363ffffffff16021790555060208201518160000160046101000a81548173ffffffffffffffffffffffffffffffffffffffff021916908373ffffffffffffffffffffffffffffffffffffffff16021790555060408201518160010160006101000a81548173ffffffffffffffffffffffffffffffffffffffff021916908373ffffffffffffffffffffffffffffffffffffffff16021790555060608201518160010160146101000a81548163ffffffff021916908363ffffffff16021790555060808201518160010160186101000a81548160ff0219169083600281111561321e577f4e487b7100000000000000000000000000000000000000000000000000000000600052602160045260246000fd5b021790555060a08201518160020155905050806000015163ffffffff167fd9f037670aada9b07156110dd936887c158e5cd6f7932663cc64ef336e44cf9f6004600c9054906101000a900463ffffffff1633868660405161328294939291906146ce565b60405180910390a2600081610100015190508073ffffffffffffffffffffffffffffffffffffffff166108fc349081150290604051600060405180830381858888f193505050501580156132da573d6000803e3d6000fd5b505050505050565b60048054906101000a900463ffffffff1681565b60016020528060005260406000206000915090508060000160009054906101000a900463ffffffff169080600101805461332f90614ad8565b80601f016020809104026020016040519081016040528092919081815260200182805461335b90614ad8565b80156133a85780601f1061337d576101008083540402835291602001916133a8565b820191906000526020600020905b81548152906001019060200180831161338b57829003601f168201915b5050505050908060020180546133bd90614ad8565b80601f01602080910402602001604051908101604052809291908181526020018280546133e990614ad8565b80156134365780601f1061340b57610100808354040283529160200191613436565b820191906000526020600020905b81548152906001019060200180831161341957829003601f168201915b5050505050908060030154905084565b60006004600c9054906101000a900463ffffffff16905090565b6134686137e8565b600560009054906101000a900473ffffffffffffffffffffffffffffffffffffffff1673ffffffffffffffffffffffffffffffffffffffff1663fe32398a836040518263ffffffff1660e01b81526004016134c3919061439a565b604080518083038186803b1580156134da57600080fd5b505afa1580156134ee573d6000803e3d6000fd5b505050506040513d601f19601f8201168201806040525081019061351291906139dd565b9050919050565b6040518060c00160405280600063ffffffff168152602001600073ffffffffffffffffffffffffffffffffffffffff168152602001600073ffffffffffffffffffffffffffffffffffffffff168152602001600063ffffffff168152602001600060028111156135b2577f4e487b7100000000000000000000000000000000000000000000000000000000600052602160045260246000fd5b8152602001600081525090565b604051806101200160405280600063ffffffff168152602001600063ffffffff16815260200160608152602001600063ffffffff168152602001600063ffffffff16815260200160006002811115613640577f4e487b7100000000000000000000000000000000000000000000000000000000600052602160045260246000fd5b81526020016060815260200160608152602001600073ffffffffffffffffffffffffffffffffffffffff1681525090565b6040518060800160405280600063ffffffff1681526020016060815260200160608152602001600081525090565b604051806101000160405280600063ffffffff168152602001600063ffffffff168152602001600063ffffffff168152602001600063ffffffff16815260200160001515815260200160006001811115613722577f4e487b7100000000000000000000000000000000000000000000000000000000600052602160045260246000fd5b8152602001600073ffffffffffffffffffffffffffffffffffffffff168152602001600073ffffffffffffffffffffffffffffffffffffffff1681525090565b82805461376e90614ad8565b90600052602060002090601f01602090048101928261379057600085556137d7565b82601f106137a957805160ff19168380011785556137d7565b828001600101855582156137d7579182015b828111156137d65782518255916020019190600101906137bb565b5b5090506137e49190613850565b5090565b6040518060400160405280600073ffffffffffffffffffffffffffffffffffffffff1681526020016000600681111561384a577f4e487b7100000000000000000000000000000000000000000000000000000000600052602160045260246000fd5b81525090565b5b80821115613869576000816000905550600101613851565b5090565b600061388061387b846148b7565b614886565b90508281526020810184848401111561389857600080fd5b6138a3848285614a96565b509392505050565b6000813590506138ba81614c54565b92915050565b6000815190506138cf81614c54565b92915050565b6000813590506138e481614c6b565b92915050565b6000813590506138f981614c82565b92915050565b60008151905061390e81614c92565b92915050565b60008135905061392381614ca2565b92915050565b600082601f83011261393a57600080fd5b813561394a84826020860161386d565b91505092915050565b60006040828403121561396557600080fd5b61396f6040614886565b9050600061397f848285016138c0565b6000830152506020613993848285016138ff565b60208301525092915050565b6000813590506139ae81614cb2565b92915050565b6000602082840312156139c657600080fd5b60006139d4848285016138ab565b91505092915050565b6000604082840312156139ef57600080fd5b60006139fd84828501613953565b91505092915050565b600060208284031215613a1857600080fd5b6000613a268482850161399f565b91505092915050565b60008060408385031215613a4257600080fd5b6000613a508582860161399f565b9250506020613a61858286016138d5565b9150509250929050565b60008060408385031215613a7e57600080fd5b6000613a8c8582860161399f565b9250506020613a9d85828601613914565b9150509250929050565b600080600060608486031215613abc57600080fd5b6000613aca8682870161399f565b935050602084013567ffffffffffffffff811115613ae757600080fd5b613af386828701613929565b925050604084013567ffffffffffffffff811115613b1057600080fd5b613b1c86828701613929565b9150509250925092565b60008060408385031215613b3957600080fd5b6000613b478582860161399f565b9250506020613b588582860161399f565b9150509250929050565b600080600060608486031215613b7757600080fd5b6000613b858682870161399f565b9350506020613b968682870161399f565b9250506040613ba7868287016138ea565b9150509250925092565b600080600080600080600060e0888a031215613bcc57600080fd5b6000613bda8a828b0161399f565b9750506020613beb8a828b0161399f565b9650506040613bfc8a828b0161399f565b9550506060613c0d8a828b016138ab565b945050608088013567ffffffffffffffff811115613c2a57600080fd5b613c368a828b01613929565b93505060a088013567ffffffffffffffff811115613c5357600080fd5b613c5f8a828b01613929565b92505060c088013567ffffffffffffffff811115613c7c57600080fd5b613c888a828b01613929565b91505092959891949750929550565b613ca081614986565b82525050565b613caf81614986565b82525050565b613cbe81614998565b82525050565b613ccd81614998565b82525050565b613cdc81614a2a565b82525050565b613ceb81614a4e565b82525050565b613cfa81614a4e565b82525050565b613d0981614a60565b82525050565b613d1881614a72565b82525050565b613d2781614a72565b82525050565b613d3681614a84565b82525050565b613d4581614a84565b82525050565b6000613d56826148e7565b613d6081856148f2565b9350613d70818560208601614aa5565b613d7981614bf3565b840191505092915050565b6000613d8f826148e7565b613d998185614903565b9350613da9818560208601614aa5565b613db281614bf3565b840191505092915050565b6000613dca601983614903565b91507f4c6120636f6d6d616e6465206e27657869737465207061732e000000000000006000830152602082019050919050565b6000613e0a601183614903565b91507f4d6f6e74616e7420696e636f72726563740000000000000000000000000000006000830152602082019050919050565b6000613e4a601383614903565b91507f50726f647569742064656a6120747261697465000000000000000000000000006000830152602082019050919050565b6000613e8a602a83614903565b91507f566f7573206e2765746573207061732070726f7072696574616972652064652060008301527f63652070726f64756974000000000000000000000000000000000000000000006020830152604082019050919050565b6000613ef0601383614903565b91507f436f6d6d616e64652064656a61207061796572000000000000000000000000006000830152602082019050919050565b6000613f30601283614903565b91507f50726f64756974206e6f6e2076616c69646500000000000000000000000000006000830152602082019050919050565b6000613f70601183614903565b91507f5175616e7469746520696e76616c6964650000000000000000000000000000006000830152602082019050919050565b6000613fb0602283614903565b91507f4e6f6e206175746f726973653a207365756c656d656e7420436f6c6c6563746560008301527f75720000000000000000000000000000000000000000000000000000000000006020830152604082019050919050565b6000614016602383614903565b91507f4e6f6e206175746f726973653a207365756c656d656e74204578706f7274617460008301527f65757200000000000000000000000000000000000000000000000000000000006020830152604082019050919050565b600061407c602483614903565b91507f4e6f6e206175746f726973653a207365756c656d656e74205472616e73706f7260008301527f74657572000000000000000000000000000000000000000000000000000000006020830152604082019050919050565b6040820160008201516140eb6000850182613c97565b5060208201516140fe6020850182613d00565b50505050565b6101008201600082015161411b600085018261437c565b50602082015161412e602085018261437c565b506040820151614141604085018261437c565b506060820151614154606085018261437c565b5060808201516141676080850182613cb5565b5060a082015161417a60a0850182613d2d565b5060c082015161418d60c0850182613c97565b5060e08201516141a060e0850182613c97565b50505050565b60006080830160008301516141be600086018261437c565b50602083015184820360208601526141d68282613d4b565b915050604083015184820360408601526141f08282613d4b565b9150506060830151614205606086018261435e565b508091505092915050565b60c082016000820151614226600085018261437c565b5060208201516142396020850182613c97565b50604082015161424c6040850182613c97565b50606082015161425f606085018261437c565b5060808201516142726080850182613ce2565b5060a082015161428560a085018261435e565b50505050565b6000610120830160008301516142a4600086018261437c565b5060208301516142b7602086018261437c565b50604083015184820360408601526142cf8282613d4b565b91505060608301516142e4606086018261437c565b5060808301516142f7608086018261437c565b5060a083015161430a60a0860182613d0f565b5060c083015184820360c08601526143228282613d4b565b91505060e083015184820360e086015261433c8282613d4b565b915050610100830151614353610100860182613c97565b508091505092915050565b61436781614a10565b82525050565b61437681614a10565b82525050565b61438581614a1a565b82525050565b61439481614a1a565b82525050565b60006020820190506143af6000830184613ca6565b92915050565b60006020820190506143ca6000830184613cc4565b92915050565b60006020820190506143e56000830184613cd3565b92915050565b60006020820190506144006000830184613d3c565b92915050565b600060c08201905081810360008301526144208189613d84565b905061442f602083018861438b565b61443c604083018761438b565b614449606083018661438b565b818103608083015261445b8185613d84565b905081810360a083015261446f8184613d84565b9050979650505050505050565b6000602082019050818103600083015261449581613dbd565b9050919050565b600060208201905081810360008301526144b581613dfd565b9050919050565b600060208201905081810360008301526144d581613e3d565b9050919050565b600060208201905081810360008301526144f581613e7d565b9050919050565b6000602082019050818103600083015261451581613ee3565b9050919050565b6000602082019050818103600083015261453581613f23565b9050919050565b6000602082019050818103600083015261455581613f63565b9050919050565b6000602082019050818103600083015261457581613fa3565b9050919050565b6000602082019050818103600083015261459581614009565b9050919050565b600060208201905081810360008301526145b58161406f565b9050919050565b60006040820190506145d160008301846140d5565b92915050565b6000610100820190506145ed6000830184614104565b92915050565b6000602082019050818103600083015261460d81846141a6565b905092915050565b600060c08201905061462a6000830184614210565b92915050565b6000602082019050818103600083015261464a818461428b565b905092915050565b6000602082019050614667600083018461438b565b92915050565b600060c082019050614682600083018961438b565b61468f6020830188613ca6565b61469c6040830187613ca6565b6146a9606083018661438b565b6146b66080830185613cf1565b6146c360a083018461436d565b979650505050505050565b60006080820190506146e3600083018761438b565b6146f06020830186613ca6565b6146fd604083018561438b565b61470a6060830184613cf1565b95945050505050565b6000608082019050614728600083018761438b565b818103602083015261473a8186613d84565b9050818103604083015261474e8185613d84565b905061475d606083018461436d565b95945050505050565b60006101208201905061477c600083018c61438b565b614789602083018b61438b565b818103604083015261479b818a613d84565b90506147aa606083018961438b565b6147b7608083018861438b565b6147c460a0830187613d1e565b81810360c08301526147d68186613d84565b905081810360e08301526147ea8185613d84565b90506147fa610100830184613ca6565b9a9950505050505050505050565b60006101008201905061481e600083018b61438b565b61482b602083018a61438b565b614838604083018961438b565b614845606083018861438b565b6148526080830187613cc4565b61485f60a0830186613d3c565b61486c60c0830185613ca6565b61487960e0830184613ca6565b9998505050505050505050565b6000604051905081810181811067ffffffffffffffff821117156148ad576148ac614bc4565b5b8060405250919050565b600067ffffffffffffffff8211156148d2576148d1614bc4565b5b601f19601f8301169050602081019050919050565b600081519050919050565b600082825260208201905092915050565b600082825260208201905092915050565b600061491f82614a1a565b915061492a83614a1a565b92508163ffffffff048311821515161561494757614946614b37565b5b828202905092915050565b600061495d82614a1a565b915061496883614a1a565b92508282101561497b5761497a614b37565b5b828203905092915050565b6000614991826149f0565b9050919050565b60008115159050919050565b60008190506149b282614c04565b919050565b60008190506149c582614c18565b919050565b60008190506149d882614c2c565b919050565b60008190506149eb82614c40565b919050565b600073ffffffffffffffffffffffffffffffffffffffff82169050919050565b6000819050919050565b600063ffffffff82169050919050565b6000614a3582614a3c565b9050919050565b6000614a47826149f0565b9050919050565b6000614a59826149a4565b9050919050565b6000614a6b826149b7565b9050919050565b6000614a7d826149ca565b9050919050565b6000614a8f826149dd565b9050919050565b82818337600083830152505050565b60005b83811015614ac3578082015181840152602081019050614aa8565b83811115614ad2576000848401525b50505050565b60006002820490506001821680614af057607f821691505b60208210811415614b0457614b03614b95565b5b50919050565b6000614b1582614a1a565b915063ffffffff821415614b2c57614b2b614b37565b5b600182019050919050565b7f4e487b7100000000000000000000000000000000000000000000000000000000600052601160045260246000fd5b7f4e487b7100000000000000000000000000000000000000000000000000000000600052602160045260246000fd5b7f4e487b7100000000000000000000000000000000000000000000000000000000600052602260045260246000fd5b7f4e487b7100000000000000000000000000000000000000000000000000000000600052604160045260246000fd5b6000601f19601f8301169050919050565b60038110614c1557614c14614b66565b5b50565b60078110614c2957614c28614b66565b5b50565b60038110614c3d57614c3c614b66565b5b50565b60028110614c5157614c50614b66565b5b50565b614c5d81614986565b8114614c6857600080fd5b50565b614c7481614998565b8114614c7f57600080fd5b50565b60038110614c8f57600080fd5b50565b60078110614c9f57600080fd5b50565b60028110614caf57600080fd5b50565b614cbb81614a1a565b8114614cc657600080fd5b5056fea2646970667358221220dce5efadba67b757d01ad8a32fc807dce031f7c38653cf3f8ea2f4c04768acb264736f6c63430008000033",
  "linkReferences": {},
  "deployedLinkReferences": {}
}