{
  "_format": "hh-sol-artifact-1",
  "contractName": "CollecteurExportateurContrat",
  "sourceName": "contracts/CollecteurExportateurContractOK.sol",
  "abi": [
    {
      "inputs": [
        {
          "internalType": "address",
          "name": "_producteurEnPhaseCultureAddress",
          "type": "address"
        }
      ],
      "stateMutability": "nonpayable",
      "type": "constructor"
    },
    {
      "anonymous": false,
      "inputs": [
        {
          "indexed": true,
          "internalType": "address",
          "name": "acteur",
          "type": "address"
        },
        {
          "indexed": false,
          "internalType": "enum CollecteurExportateurContrat.Role",
          "name": "role",
          "type": "uint8"
        }
      ],
      "name": "ActeurEnregistre",
      "type": "event"
    },
    {
      "anonymous": false,
      "inputs": [
        {
          "indexed": true,
          "internalType": "address",
          "name": "exportateur",
          "type": "address"
        },
        {
          "indexed": false,
          "internalType": "uint256",
          "name": "idProduit",
          "type": "uint256"
        }
      ],
      "name": "CommandePasser",
      "type": "event"
    },
    {
      "anonymous": false,
      "inputs": [
        {
          "indexed": true,
          "internalType": "uint256",
          "name": "idProduit",
          "type": "uint256"
        },
        {
          "indexed": false,
          "internalType": "uint256",
          "name": "idCondition",
          "type": "uint256"
        },
        {
          "indexed": false,
          "internalType": "string",
          "name": "temperature",
          "type": "string"
        },
        {
          "indexed": false,
          "internalType": "string",
          "name": "humidite",
          "type": "string"
        },
        {
          "indexed": false,
          "internalType": "uint256",
          "name": "timestamp",
          "type": "uint256"
        }
      ],
      "name": "ConditionEnregistree",
      "type": "event"
    },
    {
      "anonymous": false,
      "inputs": [
        {
          "indexed": true,
          "internalType": "uint256",
          "name": "idProduit",
          "type": "uint256"
        },
        {
          "indexed": false,
          "internalType": "uint256",
          "name": "idPaiement",
          "type": "uint256"
        },
        {
          "indexed": false,
          "internalType": "address",
          "name": "payeur",
          "type": "address"
        },
        {
          "indexed": false,
          "internalType": "uint256",
          "name": "montant",
          "type": "uint256"
        },
        {
          "indexed": false,
          "internalType": "enum CollecteurExportateurContrat.ModePaiement",
          "name": "mode",
          "type": "uint8"
        }
      ],
      "name": "PaiementEffectue",
      "type": "event"
    },
    {
      "anonymous": false,
      "inputs": [
        {
          "indexed": true,
          "internalType": "uint256",
          "name": "idProduit",
          "type": "uint256"
        },
        {
          "indexed": false,
          "internalType": "string",
          "name": "nom",
          "type": "string"
        },
        {
          "indexed": false,
          "internalType": "uint256",
          "name": "quantite",
          "type": "uint256"
        },
        {
          "indexed": false,
          "internalType": "uint256",
          "name": "prix",
          "type": "uint256"
        },
        {
          "indexed": false,
          "internalType": "uint256",
          "name": "idParcelle",
          "type": "uint256"
        },
        {
          "indexed": false,
          "internalType": "string",
          "name": "dateRecolte",
          "type": "string"
        },
        {
          "indexed": false,
          "internalType": "string",
          "name": "certificatPhytosanitaire",
          "type": "string"
        }
      ],
      "name": "ProduitAjoute",
      "type": "event"
    },
    {
      "anonymous": false,
      "inputs": [
        {
          "indexed": true,
          "internalType": "uint256",
          "name": "idProduit",
          "type": "uint256"
        },
        {
          "indexed": false,
          "internalType": "bool",
          "name": "valide",
          "type": "bool"
        }
      ],
      "name": "ProduitValide",
      "type": "event"
    },
    {
      "anonymous": false,
      "inputs": [
        {
          "indexed": true,
          "internalType": "uint256",
          "name": "idProduit",
          "type": "uint256"
        },
        {
          "indexed": false,
          "internalType": "enum CollecteurExportateurContrat.StatutTransport",
          "name": "statut",
          "type": "uint8"
        }
      ],
      "name": "StatutTransportMisAJour",
      "type": "event"
    },
    {
      "stateMutability": "payable",
      "type": "fallback"
    },
    {
      "inputs": [
        {
          "internalType": "address",
          "name": "",
          "type": "address"
        }
      ],
      "name": "acteurs",
      "outputs": [
        {
          "internalType": "address",
          "name": "addr",
          "type": "address"
        },
        {
          "internalType": "enum CollecteurExportateurContrat.Role",
          "name": "role",
          "type": "uint8"
        }
      ],
      "stateMutability": "view",
      "type": "function"
    },
    {
      "inputs": [
        {
          "internalType": "uint256",
          "name": "_idParcelle",
          "type": "uint256"
        },
        {
          "internalType": "uint256",
          "name": "_quantite",
          "type": "uint256"
        },
        {
          "internalType": "uint256",
          "name": "_prix",
          "type": "uint256"
        }
      ],
      "name": "ajouterProduit",
      "outputs": [],
      "stateMutability": "nonpayable",
      "type": "function"
    },
    {
      "inputs": [
        {
          "internalType": "uint256",
          "name": "",
          "type": "uint256"
        }
      ],
      "name": "commandes",
      "outputs": [
        {
          "internalType": "uint256",
          "name": "id",
          "type": "uint256"
        },
        {
          "internalType": "uint256",
          "name": "idProduit",
          "type": "uint256"
        },
        {
          "internalType": "uint256",
          "name": "quantite",
          "type": "uint256"
        },
        {
          "internalType": "uint256",
          "name": "prix",
          "type": "uint256"
        },
        {
          "internalType": "bool",
          "name": "payer",
          "type": "bool"
        },
        {
          "internalType": "enum CollecteurExportateurContrat.StatutTransport",
          "name": "statutTransport",
          "type": "uint8"
        },
        {
          "internalType": "address",
          "name": "exportateur",
          "type": "address"
        }
      ],
      "stateMutability": "view",
      "type": "function"
    },
    {
      "inputs": [],
      "name": "compteurCommandes",
      "outputs": [
        {
          "internalType": "uint256",
          "name": "",
          "type": "uint256"
        }
      ],
      "stateMutability": "view",
      "type": "function"
    },
    {
      "inputs": [],
      "name": "compteurConditions",
      "outputs": [
        {
          "internalType": "uint256",
          "name": "",
          "type": "uint256"
        }
      ],
      "stateMutability": "view",
      "type": "function"
    },
    {
      "inputs": [],
      "name": "compteurPaiements",
      "outputs": [
        {
          "internalType": "uint256",
          "name": "",
          "type": "uint256"
        }
      ],
      "stateMutability": "view",
      "type": "function"
    },
    {
      "inputs": [],
      "name": "compteurProduits",
      "outputs": [
        {
          "internalType": "uint256",
          "name": "",
          "type": "uint256"
        }
      ],
      "stateMutability": "view",
      "type": "function"
    },
    {
      "inputs": [
        {
          "internalType": "uint256",
          "name": "",
          "type": "uint256"
        }
      ],
      "name": "conditions",
      "outputs": [
        {
          "internalType": "uint256",
          "name": "id",
          "type": "uint256"
        },
        {
          "internalType": "string",
          "name": "temperature",
          "type": "string"
        },
        {
          "internalType": "string",
          "name": "humidite",
          "type": "string"
        },
        {
          "internalType": "uint256",
          "name": "timestamp",
          "type": "uint256"
        }
      ],
      "stateMutability": "view",
      "type": "function"
    },
    {
      "inputs": [
        {
          "internalType": "uint256",
          "name": "_idCommande",
          "type": "uint256"
        },
        {
          "internalType": "uint256",
          "name": "_montant",
          "type": "uint256"
        },
        {
          "internalType": "enum CollecteurExportateurContrat.ModePaiement",
          "name": "_mode",
          "type": "uint8"
        }
      ],
      "name": "effectuerPaiement",
      "outputs": [],
      "stateMutability": "payable",
      "type": "function"
    },
    {
      "inputs": [
        {
          "internalType": "address",
          "name": "_acteur",
          "type": "address"
        },
        {
          "internalType": "enum CollecteurExportateurContrat.Role",
          "name": "_role",
          "type": "uint8"
        }
      ],
      "name": "enregistrerActeur",
      "outputs": [],
      "stateMutability": "nonpayable",
      "type": "function"
    },
    {
      "inputs": [
        {
          "internalType": "uint256",
          "name": "_idProduit",
          "type": "uint256"
        },
        {
          "internalType": "string",
          "name": "_temperature",
          "type": "string"
        },
        {
          "internalType": "string",
          "name": "_humidite",
          "type": "string"
        }
      ],
      "name": "enregistrerCondition",
      "outputs": [],
      "stateMutability": "nonpayable",
      "type": "function"
    },
    {
      "inputs": [
        {
          "internalType": "address",
          "name": "_acteur",
          "type": "address"
        }
      ],
      "name": "getActeur",
      "outputs": [
        {
          "components": [
            {
              "internalType": "address",
              "name": "addr",
              "type": "address"
            },
            {
              "internalType": "enum CollecteurExportateurContrat.Role",
              "name": "role",
              "type": "uint8"
            }
          ],
          "internalType": "struct CollecteurExportateurContrat.Acteur",
          "name": "",
          "type": "tuple"
        }
      ],
      "stateMutability": "view",
      "type": "function"
    },
    {
      "inputs": [
        {
          "internalType": "uint256",
          "name": "_idCommande",
          "type": "uint256"
        },
        {
          "internalType": "enum CollecteurExportateurContrat.StatutTransport",
          "name": "_statut",
          "type": "uint8"
        }
      ],
      "name": "mettreAJourStatutTransport",
      "outputs": [],
      "stateMutability": "nonpayable",
      "type": "function"
    },
    {
      "inputs": [
        {
          "internalType": "uint256",
          "name": "",
          "type": "uint256"
        }
      ],
      "name": "paiements",
      "outputs": [
        {
          "internalType": "uint256",
          "name": "id",
          "type": "uint256"
        },
        {
          "internalType": "address",
          "name": "payeur",
          "type": "address"
        },
        {
          "internalType": "uint256",
          "name": "montant",
          "type": "uint256"
        },
        {
          "internalType": "enum CollecteurExportateurContrat.ModePaiement",
          "name": "mode",
          "type": "uint8"
        },
        {
          "internalType": "uint256",
          "name": "timestamp",
          "type": "uint256"
        }
      ],
      "stateMutability": "view",
      "type": "function"
    },
    {
      "inputs": [
        {
          "internalType": "uint256",
          "name": "idProduit",
          "type": "uint256"
        },
        {
          "internalType": "uint256",
          "name": "_quantite",
          "type": "uint256"
        }
      ],
      "name": "passerCommande",
      "outputs": [],
      "stateMutability": "nonpayable",
      "type": "function"
    },
    {
      "inputs": [],
      "name": "producteurEnPhaseCultureAddress",
      "outputs": [
        {
          "internalType": "address",
          "name": "",
          "type": "address"
        }
      ],
      "stateMutability": "view",
      "type": "function"
    },
    {
      "inputs": [
        {
          "internalType": "uint256",
          "name": "",
          "type": "uint256"
        }
      ],
      "name": "produits",
      "outputs": [
        {
          "internalType": "uint256",
          "name": "id",
          "type": "uint256"
        },
        {
          "internalType": "string",
          "name": "nom",
          "type": "string"
        },
        {
          "internalType": "uint256",
          "name": "quantite",
          "type": "uint256"
        },
        {
          "internalType": "uint256",
          "name": "prix",
          "type": "uint256"
        },
        {
          "internalType": "enum CollecteurExportateurContrat.StatutProduit",
          "name": "statut",
          "type": "uint8"
        },
        {
          "internalType": "uint256",
          "name": "idParcelle",
          "type": "uint256"
        },
        {
          "internalType": "string",
          "name": "dateRecolte",
          "type": "string"
        },
        {
          "internalType": "string",
          "name": "certificatPhytosanitaire",
          "type": "string"
        },
        {
          "internalType": "address",
          "name": "collecteur",
          "type": "address"
        }
      ],
      "stateMutability": "view",
      "type": "function"
    },
    {
      "inputs": [
        {
          "internalType": "uint256",
          "name": "_idProduit",
          "type": "uint256"
        },
        {
          "internalType": "bool",
          "name": "_valide",
          "type": "bool"
        }
      ],
      "name": "validerProduit",
      "outputs": [],
      "stateMutability": "nonpayable",
      "type": "function"
    },
    {
      "stateMutability": "payable",
      "type": "receive"
    }
  ],
  "bytecode": "0x60806040523480156200001157600080fd5b50604051620034de380380620034de833981810160405281019062000037919062000096565b80600960006101000a81548173ffffffffffffffffffffffffffffffffffffffff021916908373ffffffffffffffffffffffffffffffffffffffff1602179055505062000110565b6000815190506200009081620000f6565b92915050565b600060208284031215620000a957600080fd5b6000620000b9848285016200007f565b91505092915050565b6000620000cf82620000d6565b9050919050565b600073ffffffffffffffffffffffffffffffffffffffff82169050919050565b6200010181620000c2565b81146200010d57600080fd5b50565b6133be80620001206000396000f3fe60806040526004361061010d5760003560e01c8063b96cc76f11610095578063d305dc3511610064578063d305dc3514610386578063edd13163146103af578063fe32398a146103da578063fe71496b14610417578063ffd826d31461044057610114565b8063b96cc76f146102cb578063bb95f3b9146102f4578063cd3df1ed1461031d578063d1aa5bbe1461034857610114565b8063488dee20116100dc578063488dee20146101c457806362ca1128146101ef578063687112e21461023457806391e5954c1461025f578063a19bf093146102a057610114565b806302dccbc41461011657806315e205291461013f57806326c500071461015b578063487396f21461019b57610114565b3661011457005b005b34801561012257600080fd5b5061013d600480360381019061013891906125e3565b610483565b005b61015960048036038101906101549190612716565b61076a565b005b34801561016757600080fd5b50610182600480360381019061017d91906125ba565b610f0d565b6040516101929493929190612dee565b60405180910390f35b3480156101a757600080fd5b506101c260048036038101906101bd919061265b565b61104d565b005b3480156101d057600080fd5b506101d9611232565b6040516101e69190612d3b565b60405180910390f35b3480156101fb57600080fd5b50610216600480360381019061021191906125ba565b611238565b60405161022b99989796959493929190612e41565b60405180910390f35b34801561024057600080fd5b5061024961144b565b6040516102569190612d3b565b60405180910390f35b34801561026b57600080fd5b50610286600480360381019061028191906125ba565b611451565b604051610297959493929190612d9b565b60405180910390f35b3480156102ac57600080fd5b506102b56114b4565b6040516102c29190612b15565b60405180910390f35b3480156102d757600080fd5b506102f260048036038101906102ed9190612438565b6114da565b005b34801561030057600080fd5b5061031b6004803603810190610316919061261f565b61166d565b005b34801561032957600080fd5b5061033261180e565b60405161033f9190612d3b565b60405180910390f35b34801561035457600080fd5b5061036f600480360381019061036a919061240f565b611814565b60405161037d929190612b30565b60405180910390f35b34801561039257600080fd5b506103ad60048036038101906103a891906126da565b611865565b005b3480156103bb57600080fd5b506103c4611c15565b6040516103d19190612d3b565b60405180910390f35b3480156103e657600080fd5b5061040160048036038101906103fc919061240f565b611c1b565b60405161040e9190612d20565b60405180910390f35b34801561042357600080fd5b5061043e60048036038101906104399190612765565b611d50565b005b34801561044c57600080fd5b50610467600480360381019061046291906125ba565b61213a565b60405161047a9796959493929190612ee3565b60405180910390f35b6006808111156104bc577f4e487b7100000000000000000000000000000000000000000000000000000000600052602160045260246000fd5b6000803373ffffffffffffffffffffffffffffffffffffffff1673ffffffffffffffffffffffffffffffffffffffff16815260200190815260200160002060000160149054906101000a900460ff166006811115610543577f4e487b7100000000000000000000000000000000000000000000000000000000600052602160045260246000fd5b14610583576040517f08c379a000000000000000000000000000000000000000000000000000000000815260040161057a90612ce0565b60405180910390fd5b600060028111156105bd577f4e487b7100000000000000000000000000000000000000000000000000000000600052602160045260246000fd5b6001600084815260200190815260200160002060040160009054906101000a900460ff166002811115610619577f4e487b7100000000000000000000000000000000000000000000000000000000600052602160045260246000fd5b14610659576040517f08c379a000000000000000000000000000000000000000000000000000000000815260040161065090612c40565b60405180910390fd5b80156106c857600180600084815260200190815260200160002060040160006101000a81548160ff021916908360028111156106be577f4e487b7100000000000000000000000000000000000000000000000000000000600052602160045260246000fd5b021790555061072e565b60026001600084815260200190815260200160002060040160006101000a81548160ff02191690836002811115610728577f4e487b7100000000000000000000000000000000000000000000000000000000600052602160045260246000fd5b02179055505b817f40b060b3f7b6252dbdc35ea1e381d20a283b1e1a996cd701bde7b75ec12568f58260405161075e9190612b59565b60405180910390a25050565b6006808111156107a3577f4e487b7100000000000000000000000000000000000000000000000000000000600052602160045260246000fd5b6000803373ffffffffffffffffffffffffffffffffffffffff1673ffffffffffffffffffffffffffffffffffffffff16815260200190815260200160002060000160149054906101000a900460ff16600681111561082a577f4e487b7100000000000000000000000000000000000000000000000000000000600052602160045260246000fd5b1461086a576040517f08c379a000000000000000000000000000000000000000000000000000000000815260040161086190612ce0565b60405180910390fd5b6000600160006004600087815260200190815260200160002060010154815260200190815260200160002060405180610120016040529081600082015481526020016001820180546108bb9061317b565b80601f01602080910402602001604051908101604052809291908181526020018280546108e79061317b565b80156109345780601f1061090957610100808354040283529160200191610934565b820191906000526020600020905b81548152906001019060200180831161091757829003601f168201915b5050505050815260200160028201548152602001600382015481526020016004820160009054906101000a900460ff16600281111561099c577f4e487b7100000000000000000000000000000000000000000000000000000000600052602160045260246000fd5b60028111156109d4577f4e487b7100000000000000000000000000000000000000000000000000000000600052602160045260246000fd5b8152602001600582015481526020016006820180546109f29061317b565b80601f0160208091040260200160405190810160405280929190818152602001828054610a1e9061317b565b8015610a6b5780601f10610a4057610100808354040283529160200191610a6b565b820191906000526020600020905b815481529060010190602001808311610a4e57829003601f168201915b50505050508152602001600782018054610a849061317b565b80601f0160208091040260200160405190810160405280929190818152602001828054610ab09061317b565b8015610afd5780601f10610ad257610100808354040283529160200191610afd565b820191906000526020600020905b815481529060010190602001808311610ae057829003601f168201915b505050505081526020016008820160009054906101000a900473ffffffffffffffffffffffffffffffffffffffff1673ffffffffffffffffffffffffffffffffffffffff1673ffffffffffffffffffffffffffffffffffffffff1681525050905060016002811115610b98577f4e487b7100000000000000000000000000000000000000000000000000000000600052602160045260246000fd5b81608001516002811115610bd5577f4e487b7100000000000000000000000000000000000000000000000000000000600052602160045260246000fd5b14610c15576040517f08c379a0000000000000000000000000000000000000000000000000000000008152600401610c0c90612c80565b60405180910390fd5b60046000858152602001908152602001600020600201548160600151610c3b9190612fcf565b3414610c7c576040517f08c379a0000000000000000000000000000000000000000000000000000000008152600401610c7390612c20565b60405180910390fd5b6004600085815260200190815260200160002060040160009054906101000a900460ff1615610ce0576040517f08c379a0000000000000000000000000000000000000000000000000000000008152600401610cd790612c60565b60405180910390fd5b60016004600086815260200190815260200160002060040160006101000a81548160ff02191690831515021790555060086000815480929190610d22906131ad565b91905055506040518060a0016040528060085481526020013373ffffffffffffffffffffffffffffffffffffffff168152602001848152602001836002811115610d95577f4e487b7100000000000000000000000000000000000000000000000000000000600052602160045260246000fd5b8152602001428152506003600060085481526020019081526020016000206000820151816000015560208201518160010160006101000a81548173ffffffffffffffffffffffffffffffffffffffff021916908373ffffffffffffffffffffffffffffffffffffffff1602179055506040820151816002015560608201518160030160006101000a81548160ff02191690836002811115610e5f577f4e487b7100000000000000000000000000000000000000000000000000000000600052602160045260246000fd5b02179055506080820151816004015590505080600001517f7cd7c5e6b4cabba2bd7f4c36f4a3e25931a4d1130f8745849d9225eacdd394fe600854338686604051610ead9493929190612d56565b60405180910390a2600081610100015190508073ffffffffffffffffffffffffffffffffffffffff166108fc349081150290604051600060405180830381858888f19350505050158015610f05573d6000803e3d6000fd5b505050505050565b6002602052806000526040600020600091509050806000015490806001018054610f369061317b565b80601f0160208091040260200160405190810160405280929190818152602001828054610f629061317b565b8015610faf5780601f10610f8457610100808354040283529160200191610faf565b820191906000526020600020905b815481529060010190602001808311610f9257829003601f168201915b505050505090806002018054610fc49061317b565b80601f0160208091040260200160405190810160405280929190818152602001828054610ff09061317b565b801561103d5780601f106110125761010080835404028352916020019161103d565b820191906000526020600020905b81548152906001019060200180831161102057829003601f168201915b5050505050908060030154905084565b60056006811115611087577f4e487b7100000000000000000000000000000000000000000000000000000000600052602160045260246000fd5b6000803373ffffffffffffffffffffffffffffffffffffffff1673ffffffffffffffffffffffffffffffffffffffff16815260200190815260200160002060000160149054906101000a900460ff16600681111561110e577f4e487b7100000000000000000000000000000000000000000000000000000000600052602160045260246000fd5b1461114e576040517f08c379a000000000000000000000000000000000000000000000000000000000815260040161114590612d00565b60405180910390fd5b60076000815480929190611161906131ad565b91905055506040518060800160405280600754815260200183815260200182815260200142815250600260008581526020019081526020016000206000820151816000015560208201518160010190805190602001906111c29291906121b6565b5060408201518160020190805190602001906111df9291906121b6565b5060608201518160030155905050827fa313df723389871f22ba2e986d3ad5724712c38a270e9ec008e6037c670862da6007548484426040516112259493929190612dee565b60405180910390a2505050565b60055481565b60016020528060005260406000206000915090508060000154908060010180546112619061317b565b80601f016020809104026020016040519081016040528092919081815260200182805461128d9061317b565b80156112da5780601f106112af576101008083540402835291602001916112da565b820191906000526020600020905b8154815290600101906020018083116112bd57829003601f168201915b5050505050908060020154908060030154908060040160009054906101000a900460ff16908060050154908060060180546113149061317b565b80601f01602080910402602001604051908101604052809291908181526020018280546113409061317b565b801561138d5780601f106113625761010080835404028352916020019161138d565b820191906000526020600020905b81548152906001019060200180831161137057829003601f168201915b5050505050908060070180546113a29061317b565b80601f01602080910402602001604051908101604052809291908181526020018280546113ce9061317b565b801561141b5780601f106113f05761010080835404028352916020019161141b565b820191906000526020600020905b8154815290600101906020018083116113fe57829003601f168201915b5050505050908060080160009054906101000a900473ffffffffffffffffffffffffffffffffffffffff16905089565b60075481565b60036020528060005260406000206000915090508060000154908060010160009054906101000a900473ffffffffffffffffffffffffffffffffffffffff16908060020154908060030160009054906101000a900460ff16908060040154905085565b600960009054906101000a900473ffffffffffffffffffffffffffffffffffffffff1681565b60405180604001604052808373ffffffffffffffffffffffffffffffffffffffff16815260200182600681111561153a577f4e487b7100000000000000000000000000000000000000000000000000000000600052602160045260246000fd5b8152506000808473ffffffffffffffffffffffffffffffffffffffff1673ffffffffffffffffffffffffffffffffffffffff16815260200190815260200160002060008201518160000160006101000a81548173ffffffffffffffffffffffffffffffffffffffff021916908373ffffffffffffffffffffffffffffffffffffffff16021790555060208201518160000160146101000a81548160ff02191690836006811115611613577f4e487b7100000000000000000000000000000000000000000000000000000000600052602160045260246000fd5b02179055509050508173ffffffffffffffffffffffffffffffffffffffff167fbd86914a2cea41efb2ef2e360c4375dceb3c2ec14c6876f40345126b9ac1f3cc826040516116619190612b74565b60405180910390a25050565b600560068111156116a7577f4e487b7100000000000000000000000000000000000000000000000000000000600052602160045260246000fd5b6000803373ffffffffffffffffffffffffffffffffffffffff1673ffffffffffffffffffffffffffffffffffffffff16815260200190815260200160002060000160149054906101000a900460ff16600681111561172e577f4e487b7100000000000000000000000000000000000000000000000000000000600052602160045260246000fd5b1461176e576040517f08c379a000000000000000000000000000000000000000000000000000000000815260040161176590612d00565b60405180910390fd5b806004600084815260200190815260200160002060040160016101000a81548160ff021916908360018111156117cd577f4e487b7100000000000000000000000000000000000000000000000000000000600052602160045260246000fd5b0217905550817f26ac1a75b14d22a4bdc3531ce4b57293ccf9243488885dce5ceb2ebf2d24f937826040516118029190612b8f565b60405180910390a25050565b60085481565b60006020528060005260406000206000915090508060000160009054906101000a900473ffffffffffffffffffffffffffffffffffffffff16908060000160149054906101000a900460ff16905082565b60068081111561189e577f4e487b7100000000000000000000000000000000000000000000000000000000600052602160045260246000fd5b6000803373ffffffffffffffffffffffffffffffffffffffff1673ffffffffffffffffffffffffffffffffffffffff16815260200190815260200160002060000160149054906101000a900460ff166006811115611925577f4e487b7100000000000000000000000000000000000000000000000000000000600052602160045260246000fd5b14611965576040517f08c379a000000000000000000000000000000000000000000000000000000000815260040161195c90612ce0565b60405180910390fd5b60016000838152602001908152602001600020600201548111156119be576040517f08c379a00000000000000000000000000000000000000000000000000000000081526004016119b590612ca0565b60405180910390fd5b60006001600084815260200190815260200160002060030154826119e29190612fcf565b90506000826001600086815260200190815260200160002060020154611a089190613029565b905080600160008681526020019081526020016000206002018190555060056000815480929190611a38906131ad565b91905055506040518060e00160405280600554815260200185815260200184815260200183815260200160001515815260200160006001811115611aa5577f4e487b7100000000000000000000000000000000000000000000000000000000600052602160045260246000fd5b81526020013373ffffffffffffffffffffffffffffffffffffffff168152506004600060055481526020019081526020016000206000820151816000015560208201518160010155604082015181600201556060820151816003015560808201518160040160006101000a81548160ff02191690831515021790555060a08201518160040160016101000a81548160ff02191690836001811115611b72577f4e487b7100000000000000000000000000000000000000000000000000000000600052602160045260246000fd5b021790555060c08201518160040160026101000a81548173ffffffffffffffffffffffffffffffffffffffff021916908373ffffffffffffffffffffffffffffffffffffffff1602179055509050503373ffffffffffffffffffffffffffffffffffffffff167fac67b1d913a02769b0d5b5c09600fcf53ccca6745557622305af0da92152d05a85604051611c079190612d3b565b60405180910390a250505050565b60065481565b611c2361223c565b6000808373ffffffffffffffffffffffffffffffffffffffff1673ffffffffffffffffffffffffffffffffffffffff1681526020019081526020016000206040518060400160405290816000820160009054906101000a900473ffffffffffffffffffffffffffffffffffffffff1673ffffffffffffffffffffffffffffffffffffffff1673ffffffffffffffffffffffffffffffffffffffff1681526020016000820160149054906101000a900460ff166006811115611d0d577f4e487b7100000000000000000000000000000000000000000000000000000000600052602160045260246000fd5b6006811115611d45577f4e487b7100000000000000000000000000000000000000000000000000000000600052602160045260246000fd5b815250509050919050565b60036006811115611d8a577f4e487b7100000000000000000000000000000000000000000000000000000000600052602160045260246000fd5b6000803373ffffffffffffffffffffffffffffffffffffffff1673ffffffffffffffffffffffffffffffffffffffff16815260200190815260200160002060000160149054906101000a900460ff166006811115611e11577f4e487b7100000000000000000000000000000000000000000000000000000000600052602160045260246000fd5b14611e51576040517f08c379a0000000000000000000000000000000000000000000000000000000008152600401611e4890612cc0565b60405180910390fd5b6000806000600960009054906101000a900473ffffffffffffffffffffffffffffffffffffffff1673ffffffffffffffffffffffffffffffffffffffff16637f645273876040518263ffffffff1660e01b8152600401611eb19190612d3b565b60006040518083038186803b158015611ec957600080fd5b505afa158015611edd573d6000803e3d6000fd5b505050506040513d6000823e3d601f19601f82011682018060405250810190611f069190612474565b9650965096505050505060066000815480929190611f23906131ad565b9190505550604051806101200160405280600654815260200184815260200186815260200185815260200160006002811115611f88577f4e487b7100000000000000000000000000000000000000000000000000000000600052602160045260246000fd5b81526020018781526020018381526020018281526020013373ffffffffffffffffffffffffffffffffffffffff16815250600160006006548152602001908152602001600020600082015181600001556020820151816001019080519060200190611ff49291906121b6565b50604082015181600201556060820151816003015560808201518160040160006101000a81548160ff0219169083600281111561205a577f4e487b7100000000000000000000000000000000000000000000000000000000600052602160045260246000fd5b021790555060a0820151816005015560c08201518160060190805190602001906120859291906121b6565b5060e08201518160070190805190602001906120a29291906121b6565b506101008201518160080160006101000a81548173ffffffffffffffffffffffffffffffffffffffff021916908373ffffffffffffffffffffffffffffffffffffffff1602179055509050506006547ff66885504dddadc35efd9cd98df3190adb9b2b9c7537390767c4ee806f4c0bbf8487878a878760405161212a96959493929190612baa565b60405180910390a2505050505050565b60046020528060005260406000206000915090508060000154908060010154908060020154908060030154908060040160009054906101000a900460ff16908060040160019054906101000a900460ff16908060040160029054906101000a900473ffffffffffffffffffffffffffffffffffffffff16905087565b8280546121c29061317b565b90600052602060002090601f0160209004810192826121e4576000855561222b565b82601f106121fd57805160ff191683800117855561222b565b8280016001018555821561222b579182015b8281111561222a57825182559160200191906001019061220f565b5b50905061223891906122a4565b5090565b6040518060400160405280600073ffffffffffffffffffffffffffffffffffffffff1681526020016000600681111561229e577f4e487b7100000000000000000000000000000000000000000000000000000000600052602160045260246000fd5b81525090565b5b808211156122bd5760008160009055506001016122a5565b5090565b60006122d46122cf84612f83565b612f52565b9050828152602081018484840111156122ec57600080fd5b6122f7848285613139565b509392505050565b600061231261230d84612f83565b612f52565b90508281526020810184848401111561232a57600080fd5b612335848285613148565b509392505050565b60008135905061234c81613313565b92915050565b6000813590506123618161332a565b92915050565b60008135905061237681613341565b92915050565b60008135905061238b81613351565b92915050565b6000813590506123a081613361565b92915050565b600082601f8301126123b757600080fd5b81356123c78482602086016122c1565b91505092915050565b600082601f8301126123e157600080fd5b81516123f18482602086016122ff565b91505092915050565b60008135905061240981613371565b92915050565b60006020828403121561242157600080fd5b600061242f8482850161233d565b91505092915050565b6000806040838503121561244b57600080fd5b60006124598582860161233d565b925050602061246a8582860161237c565b9150509250929050565b600080600080600080600060e0888a03121561248f57600080fd5b600088015167ffffffffffffffff8111156124a957600080fd5b6124b58a828b016123d0565b975050602088015167ffffffffffffffff8111156124d257600080fd5b6124de8a828b016123d0565b965050604088015167ffffffffffffffff8111156124fb57600080fd5b6125078a828b016123d0565b955050606088015167ffffffffffffffff81111561252457600080fd5b6125308a828b016123d0565b945050608088015167ffffffffffffffff81111561254d57600080fd5b6125598a828b016123d0565b93505060a088015167ffffffffffffffff81111561257657600080fd5b6125828a828b016123d0565b92505060c088015167ffffffffffffffff81111561259f57600080fd5b6125ab8a828b016123d0565b91505092959891949750929550565b6000602082840312156125cc57600080fd5b60006125da848285016123fa565b91505092915050565b600080604083850312156125f657600080fd5b6000612604858286016123fa565b925050602061261585828601612352565b9150509250929050565b6000806040838503121561263257600080fd5b6000612640858286016123fa565b925050602061265185828601612391565b9150509250929050565b60008060006060848603121561267057600080fd5b600061267e868287016123fa565b935050602084013567ffffffffffffffff81111561269b57600080fd5b6126a7868287016123a6565b925050604084013567ffffffffffffffff8111156126c457600080fd5b6126d0868287016123a6565b9150509250925092565b600080604083850312156126ed57600080fd5b60006126fb858286016123fa565b925050602061270c858286016123fa565b9150509250929050565b60008060006060848603121561272b57600080fd5b6000612739868287016123fa565b935050602061274a868287016123fa565b925050604061275b86828701612367565b9150509250925092565b60008060006060848603121561277a57600080fd5b6000612788868287016123fa565b9350506020612799868287016123fa565b92505060406127aa868287016123fa565b9150509250925092565b6127bd8161305d565b82525050565b6127cc8161305d565b82525050565b6127db8161306f565b82525050565b6127ea816130f1565b82525050565b6127f981613103565b82525050565b61280881613103565b82525050565b61281781613115565b82525050565b61282681613127565b82525050565b600061283782612fb3565b6128418185612fbe565b9350612851818560208601613148565b61285a816132b2565b840191505092915050565b6000612872601183612fbe565b91507f4d6f6e74616e7420696e636f72726563740000000000000000000000000000006000830152602082019050919050565b60006128b2601383612fbe565b91507f50726f647569742064656a6120747261697465000000000000000000000000006000830152602082019050919050565b60006128f2601383612fbe565b91507f436f6d6d616e64652064656a61207061796572000000000000000000000000006000830152602082019050919050565b6000612932601283612fbe565b91507f50726f64756974206e6f6e2076616c69646500000000000000000000000000006000830152602082019050919050565b6000612972601183612fbe565b91507f5175616e7469746520696e76616c6964650000000000000000000000000000006000830152602082019050919050565b60006129b2602283612fbe565b91507f4e6f6e206175746f726973653a207365756c656d656e7420436f6c6c6563746560008301527f75720000000000000000000000000000000000000000000000000000000000006020830152604082019050919050565b6000612a18602383612fbe565b91507f4e6f6e206175746f726973653a207365756c656d656e74204578706f7274617460008301527f65757200000000000000000000000000000000000000000000000000000000006020830152604082019050919050565b6000612a7e602483612fbe565b91507f4e6f6e206175746f726973653a207365756c656d656e74205472616e73706f7260008301527f74657572000000000000000000000000000000000000000000000000000000006020830152604082019050919050565b604082016000820151612aed60008501826127b4565b506020820151612b0060208501826127f0565b50505050565b612b0f816130e7565b82525050565b6000602082019050612b2a60008301846127c3565b92915050565b6000604082019050612b4560008301856127c3565b612b5260208301846127ff565b9392505050565b6000602082019050612b6e60008301846127d2565b92915050565b6000602082019050612b8960008301846127ff565b92915050565b6000602082019050612ba4600083018461281d565b92915050565b600060c0820190508181036000830152612bc4818961282c565b9050612bd36020830188612b06565b612be06040830187612b06565b612bed6060830186612b06565b8181036080830152612bff818561282c565b905081810360a0830152612c13818461282c565b9050979650505050505050565b60006020820190508181036000830152612c3981612865565b9050919050565b60006020820190508181036000830152612c59816128a5565b9050919050565b60006020820190508181036000830152612c79816128e5565b9050919050565b60006020820190508181036000830152612c9981612925565b9050919050565b60006020820190508181036000830152612cb981612965565b9050919050565b60006020820190508181036000830152612cd9816129a5565b9050919050565b60006020820190508181036000830152612cf981612a0b565b9050919050565b60006020820190508181036000830152612d1981612a71565b9050919050565b6000604082019050612d356000830184612ad7565b92915050565b6000602082019050612d506000830184612b06565b92915050565b6000608082019050612d6b6000830187612b06565b612d7860208301866127c3565b612d856040830185612b06565b612d9260608301846127e1565b95945050505050565b600060a082019050612db06000830188612b06565b612dbd60208301876127c3565b612dca6040830186612b06565b612dd760608301856127e1565b612de46080830184612b06565b9695505050505050565b6000608082019050612e036000830187612b06565b8181036020830152612e15818661282c565b90508181036040830152612e29818561282c565b9050612e386060830184612b06565b95945050505050565b600061012082019050612e57600083018c612b06565b8181036020830152612e69818b61282c565b9050612e78604083018a612b06565b612e856060830189612b06565b612e92608083018861280e565b612e9f60a0830187612b06565b81810360c0830152612eb1818661282c565b905081810360e0830152612ec5818561282c565b9050612ed56101008301846127c3565b9a9950505050505050505050565b600060e082019050612ef8600083018a612b06565b612f056020830189612b06565b612f126040830188612b06565b612f1f6060830187612b06565b612f2c60808301866127d2565b612f3960a083018561281d565b612f4660c08301846127c3565b98975050505050505050565b6000604051905081810181811067ffffffffffffffff82111715612f7957612f78613283565b5b8060405250919050565b600067ffffffffffffffff821115612f9e57612f9d613283565b5b601f19601f8301169050602081019050919050565b600081519050919050565b600082825260208201905092915050565b6000612fda826130e7565b9150612fe5836130e7565b9250817fffffffffffffffffffffffffffffffffffffffffffffffffffffffffffffffff048311821515161561301e5761301d6131f6565b5b828202905092915050565b6000613034826130e7565b915061303f836130e7565b925082821015613052576130516131f6565b5b828203905092915050565b6000613068826130c7565b9050919050565b60008115159050919050565b6000819050613089826132c3565b919050565b600081905061309c826132d7565b919050565b60008190506130af826132eb565b919050565b60008190506130c2826132ff565b919050565b600073ffffffffffffffffffffffffffffffffffffffff82169050919050565b6000819050919050565b60006130fc8261307b565b9050919050565b600061310e8261308e565b9050919050565b6000613120826130a1565b9050919050565b6000613132826130b4565b9050919050565b82818337600083830152505050565b60005b8381101561316657808201518184015260208101905061314b565b83811115613175576000848401525b50505050565b6000600282049050600182168061319357607f821691505b602082108114156131a7576131a6613254565b5b50919050565b60006131b8826130e7565b91507fffffffffffffffffffffffffffffffffffffffffffffffffffffffffffffffff8214156131eb576131ea6131f6565b5b600182019050919050565b7f4e487b7100000000000000000000000000000000000000000000000000000000600052601160045260246000fd5b7f4e487b7100000000000000000000000000000000000000000000000000000000600052602160045260246000fd5b7f4e487b7100000000000000000000000000000000000000000000000000000000600052602260045260246000fd5b7f4e487b7100000000000000000000000000000000000000000000000000000000600052604160045260246000fd5b6000601f19601f8301169050919050565b600381106132d4576132d3613225565b5b50565b600781106132e8576132e7613225565b5b50565b600381106132fc576132fb613225565b5b50565b600281106133105761330f613225565b5b50565b61331c8161305d565b811461332757600080fd5b50565b6133338161306f565b811461333e57600080fd5b50565b6003811061334e57600080fd5b50565b6007811061335e57600080fd5b50565b6002811061336e57600080fd5b50565b61337a816130e7565b811461338557600080fd5b5056fea264697066735822122080d6340ec4e81fedbca05daa37a36fd93a2d3fb9ab4f2f9bc87b09020fa67f5664736f6c63430008000033",
  "linkReferences": {},
  "deployedLinkReferences": {}
}