{
  "_format": "hh-sol-artifact-1",
  "contractName": "CollecteurExportateur",
  "sourceName": "contracts/CollecteurExportateur.sol",
  "abi": [
    {
      "anonymous": false,
      "inputs": [
        {
          "indexed": true,
          "internalType": "address",
          "name": "collecteur",
          "type": "address"
        },
        {
          "indexed": false,
          "internalType": "uint32",
          "name": "idLotProduit",
          "type": "uint32"
        },
        {
          "indexed": false,
          "internalType": "uint32",
          "name": "quantite",
          "type": "uint32"
        },
        {
          "indexed": false,
          "internalType": "uint32",
          "name": "prix",
          "type": "uint32"
        }
      ],
      "name": "AjoutLotProduit",
      "type": "event"
    },
    {
      "anonymous": false,
      "inputs": [
        {
          "indexed": true,
          "internalType": "address",
          "name": "exportateur",
          "type": "address"
        },
        {
          "indexed": false,
          "internalType": "uint32",
          "name": "idProduit",
          "type": "uint32"
        }
      ],
      "name": "CommandePasser",
      "type": "event"
    },
    {
      "anonymous": false,
      "inputs": [
        {
          "indexed": true,
          "internalType": "uint32",
          "name": "idProduit",
          "type": "uint32"
        },
        {
          "indexed": false,
          "internalType": "uint32",
          "name": "idCondition",
          "type": "uint32"
        },
        {
          "indexed": false,
          "internalType": "string",
          "name": "cid",
          "type": "string"
        },
        {
          "indexed": false,
          "internalType": "uint256",
          "name": "timestamp",
          "type": "uint256"
        }
      ],
      "name": "ConditionEnregistree",
      "type": "event"
    },
    {
      "anonymous": false,
      "inputs": [
        {
          "indexed": true,
          "internalType": "uint32",
          "name": "idProduit",
          "type": "uint32"
        },
        {
          "indexed": false,
          "internalType": "uint32",
          "name": "idPaiement",
          "type": "uint32"
        },
        {
          "indexed": false,
          "internalType": "address",
          "name": "payeur",
          "type": "address"
        },
        {
          "indexed": false,
          "internalType": "uint32",
          "name": "montant",
          "type": "uint32"
        },
        {
          "indexed": false,
          "internalType": "enum StructLib.ModePaiement",
          "name": "mode",
          "type": "uint8"
        }
      ],
      "name": "PaiementEffectue",
      "type": "event"
    },
    {
      "anonymous": false,
      "inputs": [
        {
          "indexed": true,
          "internalType": "uint32",
          "name": "idProduit",
          "type": "uint32"
        },
        {
          "indexed": false,
          "internalType": "uint32",
          "name": "quantite",
          "type": "uint32"
        },
        {
          "indexed": false,
          "internalType": "uint32",
          "name": "idRecolte",
          "type": "uint32"
        }
      ],
      "name": "ProduitAjoute",
      "type": "event"
    },
    {
      "anonymous": false,
      "inputs": [
        {
          "indexed": true,
          "internalType": "uint32",
          "name": "idProduit",
          "type": "uint32"
        },
        {
          "indexed": false,
          "internalType": "bool",
          "name": "valide",
          "type": "bool"
        }
      ],
      "name": "ProduitValide",
      "type": "event"
    },
    {
      "anonymous": false,
      "inputs": [
        {
          "indexed": true,
          "internalType": "uint32",
          "name": "idCommande",
          "type": "uint32"
        },
        {
          "indexed": false,
          "internalType": "enum StructLib.StatutProduit",
          "name": "status",
          "type": "uint8"
        }
      ],
      "name": "StatusCommandeMisAJour",
      "type": "event"
    },
    {
      "anonymous": false,
      "inputs": [
        {
          "indexed": true,
          "internalType": "uint32",
          "name": "idProduit",
          "type": "uint32"
        },
        {
          "indexed": false,
          "internalType": "enum StructLib.StatutTransport",
          "name": "statut",
          "type": "uint8"
        }
      ],
      "name": "StatutTransportMisAJour",
      "type": "event"
    },
    {
      "stateMutability": "payable",
      "type": "fallback"
    },
    {
      "inputs": [
        {
          "internalType": "uint32[]",
          "name": "_idProduits",
          "type": "uint32[]"
        },
        {
          "internalType": "string",
          "name": "_cid",
          "type": "string"
        },
        {
          "internalType": "uint32",
          "name": "_prix",
          "type": "uint32"
        }
      ],
      "name": "ajouterLotProduit",
      "outputs": [],
      "stateMutability": "nonpayable",
      "type": "function"
    },
    {
      "inputs": [
        {
          "internalType": "uint32",
          "name": "_idRecolte",
          "type": "uint32"
        },
        {
          "internalType": "uint32",
          "name": "_quantite",
          "type": "uint32"
        },
        {
          "internalType": "address",
          "name": "_collecteur",
          "type": "address"
        }
      ],
      "name": "ajouterProduit",
      "outputs": [],
      "stateMutability": "nonpayable",
      "type": "function"
    },
    {
      "inputs": [
        {
          "internalType": "uint32",
          "name": "",
          "type": "uint32"
        }
      ],
      "name": "commandes",
      "outputs": [
        {
          "internalType": "uint32",
          "name": "id",
          "type": "uint32"
        },
        {
          "internalType": "uint32",
          "name": "idLotProduit",
          "type": "uint32"
        },
        {
          "internalType": "uint32",
          "name": "quantite",
          "type": "uint32"
        },
        {
          "internalType": "uint32",
          "name": "prix",
          "type": "uint32"
        },
        {
          "internalType": "bool",
          "name": "payer",
          "type": "bool"
        },
        {
          "internalType": "enum StructLib.StatutTransport",
          "name": "statutTransport",
          "type": "uint8"
        },
        {
          "internalType": "address",
          "name": "collecteur",
          "type": "address"
        },
        {
          "internalType": "address",
          "name": "exportateur",
          "type": "address"
        },
        {
          "internalType": "enum StructLib.StatutProduit",
          "name": "statutProduit",
          "type": "uint8"
        },
        {
          "internalType": "string",
          "name": "hashMerkle",
          "type": "string"
        }
      ],
      "stateMutability": "view",
      "type": "function"
    },
    {
      "inputs": [],
      "name": "compteurCommandes",
      "outputs": [
        {
          "internalType": "uint32",
          "name": "",
          "type": "uint32"
        }
      ],
      "stateMutability": "view",
      "type": "function"
    },
    {
      "inputs": [],
      "name": "compteurConditions",
      "outputs": [
        {
          "internalType": "uint32",
          "name": "",
          "type": "uint32"
        }
      ],
      "stateMutability": "view",
      "type": "function"
    },
    {
      "inputs": [],
      "name": "compteurLotProduits",
      "outputs": [
        {
          "internalType": "uint32",
          "name": "",
          "type": "uint32"
        }
      ],
      "stateMutability": "view",
      "type": "function"
    },
    {
      "inputs": [],
      "name": "compteurPaiements",
      "outputs": [
        {
          "internalType": "uint32",
          "name": "",
          "type": "uint32"
        }
      ],
      "stateMutability": "view",
      "type": "function"
    },
    {
      "inputs": [],
      "name": "compteurProduits",
      "outputs": [
        {
          "internalType": "uint32",
          "name": "",
          "type": "uint32"
        }
      ],
      "stateMutability": "view",
      "type": "function"
    },
    {
      "inputs": [
        {
          "internalType": "uint32",
          "name": "",
          "type": "uint32"
        }
      ],
      "name": "conditions",
      "outputs": [
        {
          "internalType": "uint32",
          "name": "id",
          "type": "uint32"
        },
        {
          "internalType": "string",
          "name": "cid",
          "type": "string"
        },
        {
          "internalType": "uint256",
          "name": "timestamp",
          "type": "uint256"
        },
        {
          "internalType": "string",
          "name": "hashMerkle",
          "type": "string"
        }
      ],
      "stateMutability": "view",
      "type": "function"
    },
    {
      "inputs": [
        {
          "internalType": "uint32",
          "name": "_idCommande",
          "type": "uint32"
        },
        {
          "internalType": "uint32",
          "name": "_montant",
          "type": "uint32"
        },
        {
          "internalType": "enum StructLib.ModePaiement",
          "name": "_mode",
          "type": "uint8"
        }
      ],
      "name": "effectuerPaiement",
      "outputs": [],
      "stateMutability": "payable",
      "type": "function"
    },
    {
      "inputs": [
        {
          "internalType": "uint32",
          "name": "_idCommande",
          "type": "uint32"
        },
        {
          "internalType": "string",
          "name": "_cid",
          "type": "string"
        }
      ],
      "name": "enregistrerCondition",
      "outputs": [],
      "stateMutability": "nonpayable",
      "type": "function"
    },
    {
      "inputs": [],
      "name": "gestionnaireActeurs",
      "outputs": [
        {
          "internalType": "contract GestionnaireActeurs",
          "name": "",
          "type": "address"
        }
      ],
      "stateMutability": "view",
      "type": "function"
    },
    {
      "inputs": [
        {
          "internalType": "uint32",
          "name": "id",
          "type": "uint32"
        }
      ],
      "name": "getCommande",
      "outputs": [
        {
          "components": [
            {
              "internalType": "uint32",
              "name": "id",
              "type": "uint32"
            },
            {
              "internalType": "uint32",
              "name": "idLotProduit",
              "type": "uint32"
            },
            {
              "internalType": "uint32",
              "name": "quantite",
              "type": "uint32"
            },
            {
              "internalType": "uint32",
              "name": "prix",
              "type": "uint32"
            },
            {
              "internalType": "bool",
              "name": "payer",
              "type": "bool"
            },
            {
              "internalType": "enum StructLib.StatutTransport",
              "name": "statutTransport",
              "type": "uint8"
            },
            {
              "internalType": "address",
              "name": "collecteur",
              "type": "address"
            },
            {
              "internalType": "address",
              "name": "exportateur",
              "type": "address"
            },
            {
              "internalType": "enum StructLib.StatutProduit",
              "name": "statutProduit",
              "type": "uint8"
            },
            {
              "internalType": "string",
              "name": "hashMerkle",
              "type": "string"
            }
          ],
          "internalType": "struct StructLib.CommandeProduit",
          "name": "",
          "type": "tuple"
        }
      ],
      "stateMutability": "view",
      "type": "function"
    },
    {
      "inputs": [],
      "name": "getCompteurCommande",
      "outputs": [
        {
          "internalType": "uint32",
          "name": "",
          "type": "uint32"
        }
      ],
      "stateMutability": "view",
      "type": "function"
    },
    {
      "inputs": [],
      "name": "getCompteurCondition",
      "outputs": [
        {
          "internalType": "uint32",
          "name": "",
          "type": "uint32"
        }
      ],
      "stateMutability": "view",
      "type": "function"
    },
    {
      "inputs": [],
      "name": "getCompteurPaiement",
      "outputs": [
        {
          "internalType": "uint32",
          "name": "",
          "type": "uint32"
        }
      ],
      "stateMutability": "view",
      "type": "function"
    },
    {
      "inputs": [],
      "name": "getCompteurProduit",
      "outputs": [
        {
          "internalType": "uint32",
          "name": "",
          "type": "uint32"
        }
      ],
      "stateMutability": "view",
      "type": "function"
    },
    {
      "inputs": [
        {
          "internalType": "uint32",
          "name": "id",
          "type": "uint32"
        }
      ],
      "name": "getCondition",
      "outputs": [
        {
          "components": [
            {
              "internalType": "uint32",
              "name": "id",
              "type": "uint32"
            },
            {
              "internalType": "string",
              "name": "cid",
              "type": "string"
            },
            {
              "internalType": "uint256",
              "name": "timestamp",
              "type": "uint256"
            },
            {
              "internalType": "string",
              "name": "hashMerkle",
              "type": "string"
            }
          ],
          "internalType": "struct StructLib.EnregistrementCondition",
          "name": "",
          "type": "tuple"
        }
      ],
      "stateMutability": "view",
      "type": "function"
    },
    {
      "inputs": [
        {
          "internalType": "uint32",
          "name": "id",
          "type": "uint32"
        }
      ],
      "name": "getLotProduit",
      "outputs": [
        {
          "components": [
            {
              "internalType": "uint32",
              "name": "id",
              "type": "uint32"
            },
            {
              "internalType": "uint32[]",
              "name": "idRecolte",
              "type": "uint32[]"
            },
            {
              "internalType": "uint32",
              "name": "quantite",
              "type": "uint32"
            },
            {
              "internalType": "uint32",
              "name": "prix",
              "type": "uint32"
            },
            {
              "internalType": "address",
              "name": "collecteur",
              "type": "address"
            },
            {
              "internalType": "string",
              "name": "cid",
              "type": "string"
            },
            {
              "internalType": "string",
              "name": "hashMerkle",
              "type": "string"
            }
          ],
          "internalType": "struct StructLib.LotProduit",
          "name": "",
          "type": "tuple"
        }
      ],
      "stateMutability": "view",
      "type": "function"
    },
    {
      "inputs": [
        {
          "internalType": "uint32",
          "name": "id",
          "type": "uint32"
        }
      ],
      "name": "getPaiement",
      "outputs": [
        {
          "components": [
            {
              "internalType": "uint32",
              "name": "id",
              "type": "uint32"
            },
            {
              "internalType": "address",
              "name": "payeur",
              "type": "address"
            },
            {
              "internalType": "address",
              "name": "vendeur",
              "type": "address"
            },
            {
              "internalType": "uint32",
              "name": "montant",
              "type": "uint32"
            },
            {
              "internalType": "enum StructLib.ModePaiement",
              "name": "mode",
              "type": "uint8"
            },
            {
              "internalType": "uint256",
              "name": "timestamp",
              "type": "uint256"
            },
            {
              "internalType": "string",
              "name": "hashMerkle",
              "type": "string"
            }
          ],
          "internalType": "struct StructLib.Paiement",
          "name": "",
          "type": "tuple"
        }
      ],
      "stateMutability": "view",
      "type": "function"
    },
    {
      "inputs": [
        {
          "internalType": "uint32",
          "name": "id",
          "type": "uint32"
        }
      ],
      "name": "getProduit",
      "outputs": [
        {
          "components": [
            {
              "internalType": "uint32",
              "name": "id",
              "type": "uint32"
            },
            {
              "internalType": "uint32",
              "name": "idRecolte",
              "type": "uint32"
            },
            {
              "internalType": "uint32",
              "name": "quantite",
              "type": "uint32"
            },
            {
              "internalType": "address",
              "name": "collecteur",
              "type": "address"
            },
            {
              "internalType": "bool",
              "name": "enregistre",
              "type": "bool"
            },
            {
              "internalType": "string",
              "name": "hashMerkle",
              "type": "string"
            }
          ],
          "internalType": "struct StructLib.Produit",
          "name": "",
          "type": "tuple"
        }
      ],
      "stateMutability": "view",
      "type": "function"
    },
    {
      "inputs": [
        {
          "internalType": "address",
          "name": "_gestionnaireActeurs",
          "type": "address"
        }
      ],
      "name": "initialiser",
      "outputs": [],
      "stateMutability": "nonpayable",
      "type": "function"
    },
    {
      "inputs": [
        {
          "internalType": "uint32",
          "name": "",
          "type": "uint32"
        }
      ],
      "name": "lotProduits",
      "outputs": [
        {
          "internalType": "uint32",
          "name": "id",
          "type": "uint32"
        },
        {
          "internalType": "uint32",
          "name": "quantite",
          "type": "uint32"
        },
        {
          "internalType": "uint32",
          "name": "prix",
          "type": "uint32"
        },
        {
          "internalType": "address",
          "name": "collecteur",
          "type": "address"
        },
        {
          "internalType": "string",
          "name": "cid",
          "type": "string"
        },
        {
          "internalType": "string",
          "name": "hashMerkle",
          "type": "string"
        }
      ],
      "stateMutability": "view",
      "type": "function"
    },
    {
      "inputs": [
        {
          "internalType": "uint32",
          "name": "_idCommande",
          "type": "uint32"
        },
        {
          "internalType": "enum StructLib.StatutProduit",
          "name": "_status",
          "type": "uint8"
        }
      ],
      "name": "mettreAJourStatutCommande",
      "outputs": [],
      "stateMutability": "nonpayable",
      "type": "function"
    },
    {
      "inputs": [
        {
          "internalType": "uint32",
          "name": "_idCommande",
          "type": "uint32"
        },
        {
          "internalType": "enum StructLib.StatutTransport",
          "name": "_statut",
          "type": "uint8"
        }
      ],
      "name": "mettreAJourStatutTransport",
      "outputs": [],
      "stateMutability": "nonpayable",
      "type": "function"
    },
    {
      "inputs": [
        {
          "internalType": "uint32",
          "name": "",
          "type": "uint32"
        }
      ],
      "name": "paiements",
      "outputs": [
        {
          "internalType": "uint32",
          "name": "id",
          "type": "uint32"
        },
        {
          "internalType": "address",
          "name": "payeur",
          "type": "address"
        },
        {
          "internalType": "address",
          "name": "vendeur",
          "type": "address"
        },
        {
          "internalType": "uint32",
          "name": "montant",
          "type": "uint32"
        },
        {
          "internalType": "enum StructLib.ModePaiement",
          "name": "mode",
          "type": "uint8"
        },
        {
          "internalType": "uint256",
          "name": "timestamp",
          "type": "uint256"
        },
        {
          "internalType": "string",
          "name": "hashMerkle",
          "type": "string"
        }
      ],
      "stateMutability": "view",
      "type": "function"
    },
    {
      "inputs": [
        {
          "internalType": "uint32",
          "name": "_idLotProduit",
          "type": "uint32"
        },
        {
          "internalType": "uint32",
          "name": "_quantite",
          "type": "uint32"
        }
      ],
      "name": "passerCommande",
      "outputs": [],
      "stateMutability": "nonpayable",
      "type": "function"
    },
    {
      "inputs": [
        {
          "internalType": "uint32",
          "name": "",
          "type": "uint32"
        }
      ],
      "name": "produits",
      "outputs": [
        {
          "internalType": "uint32",
          "name": "id",
          "type": "uint32"
        },
        {
          "internalType": "uint32",
          "name": "idRecolte",
          "type": "uint32"
        },
        {
          "internalType": "uint32",
          "name": "quantite",
          "type": "uint32"
        },
        {
          "internalType": "address",
          "name": "collecteur",
          "type": "address"
        },
        {
          "internalType": "bool",
          "name": "enregistre",
          "type": "bool"
        },
        {
          "internalType": "string",
          "name": "hashMerkle",
          "type": "string"
        }
      ],
      "stateMutability": "view",
      "type": "function"
    },
    {
      "inputs": [
        {
          "internalType": "address",
          "name": "_addr",
          "type": "address"
        }
      ],
      "name": "setGestionnaireActeurs",
      "outputs": [],
      "stateMutability": "nonpayable",
      "type": "function"
    },
    {
      "inputs": [
        {
          "internalType": "uint32",
          "name": "_idLotProduit",
          "type": "uint32"
        },
        {
          "internalType": "uint32",
          "name": "_prix",
          "type": "uint32"
        }
      ],
      "name": "setPriceProduit",
      "outputs": [],
      "stateMutability": "nonpayable",
      "type": "function"
    },
    {
      "stateMutability": "payable",
      "type": "receive"
    }
  ],
  "bytecode": "0x608060405234801561001057600080fd5b50615b7d80620000216000396000f3fe6080604052600436106101d15760003560e01c80636f3fd6c5116100f7578063ba9ba24011610095578063e6cab64c11610064578063e6cab64c146106e1578063edd13163146106fd578063f6980cc914610728578063fdccf43314610768576101d8565b8063ba9ba24014610622578063c1f73cfa14610664578063cd3df1ed1461068d578063e550ef99146106b8576101d8565b80638a16156e116100d15780638a16156e1461057a57806393c2f9b4146105a35780639e942cd4146105ce578063b9e91d70146105f9576101d8565b80636f3fd6c5146104c65780637babcffa1461050c5780638777654f1461054f576101d8565b80634851ca821161016f5780634fbdf4fe1161013e5780634fbdf4fe1461040a5780635293ea5114610433578063687112e214610470578063693dff1f1461049b576101d8565b80634851ca8214610337578063488dee201461037957806348d2cee0146103a45780634dafb501146103e1576101d8565b80632477b510116101ab5780632477b5101461026b578063369064b9146102945780633e7a6049146102d157806341fae4db146102fa576101d8565b806301197018146101da5780630b215e641461020557806315a3374c14610242576101d8565b366101d857005b005b3480156101e657600080fd5b506101ef610793565b6040516101fc9190615324565b60405180910390f35b34801561021157600080fd5b5061022c60048036038101906102279190614522565b6107ad565b60405161023991906152e0565b60405180910390f35b34801561024e57600080fd5b5061026960048036038101906102649190614617565b610a01565b005b34801561027757600080fd5b50610292600480360381019061028d919061454b565b610be3565b005b3480156102a057600080fd5b506102bb60048036038101906102b69190614522565b610e63565b6040516102c89190615302565b60405180910390f35b3480156102dd57600080fd5b506102f860048036038101906102f39190614451565b611010565b005b34801561030657600080fd5b50610321600480360381019061031c9190614522565b611054565b60405161032e919061529c565b60405180910390f35b34801561034357600080fd5b5061035e60048036038101906103599190614522565b6111e1565b604051610370969594939291906154eb565b60405180910390f35b34801561038557600080fd5b5061038e611302565b60405161039b9190615324565b60405180910390f35b3480156103b057600080fd5b506103cb60048036038101906103c69190614522565b611318565b6040516103d891906152be565b60405180910390f35b3480156103ed57600080fd5b5061040860048036038101906104039190614617565b6115c1565b005b34801561041657600080fd5b50610431600480360381019061042c9190614451565b611c34565b005b34801561043f57600080fd5b5061045a60048036038101906104559190614522565b611ce3565b604051610467919061527a565b60405180910390f35b34801561047c57600080fd5b5061048561201c565b6040516104929190615324565b60405180910390f35b3480156104a757600080fd5b506104b0612032565b6040516104bd9190615324565b60405180910390f35b3480156104d257600080fd5b506104ed60048036038101906104e89190614522565b612048565b6040516105039a999897969594939291906155c2565b60405180910390f35b34801561051857600080fd5b50610533600480360381019061052e9190614522565b6121cb565b604051610546979695949392919061533f565b60405180910390f35b34801561055b57600080fd5b50610564612302565b6040516105719190615324565b60405180910390f35b34801561058657600080fd5b506105a1600480360381019061059c9190614587565b61231c565b005b3480156105af57600080fd5b506105b861251c565b6040516105c59190615324565b60405180910390f35b3480156105da57600080fd5b506105e3612536565b6040516105f09190615069565b60405180910390f35b34801561060557600080fd5b50610620600480360381019061061b919061447a565b61255c565b005b34801561062e57600080fd5b5061064960048036038101906106449190614522565b612db0565b60405161065b96959493929190615553565b60405180910390f35b34801561067057600080fd5b5061068b60048036038101906106869190614653565b612f4c565b005b34801561069957600080fd5b506106a2613189565b6040516106af9190615324565b60405180910390f35b3480156106c457600080fd5b506106df60048036038101906106da91906145c3565b61319f565b005b6106fb60048036038101906106f691906146a2565b61345b565b005b34801561070957600080fd5b50610712613d59565b60405161071f9190615324565b60405180910390f35b34801561073457600080fd5b5061074f600480360381019061074a9190614522565b613d6f565b60405161075f9493929190615438565b60405180910390f35b34801561077457600080fd5b5061077d613ebf565b60405161078a9190615324565b60405180910390f35b6000600560049054906101000a900463ffffffff16905090565b6107b5613ed9565b600360008363ffffffff1663ffffffff1681526020019081526020016000206040518060e00160405290816000820160009054906101000a900463ffffffff1663ffffffff1663ffffffff1681526020016000820160049054906101000a900473ffffffffffffffffffffffffffffffffffffffff1673ffffffffffffffffffffffffffffffffffffffff1673ffffffffffffffffffffffffffffffffffffffff1681526020016001820160009054906101000a900473ffffffffffffffffffffffffffffffffffffffff1673ffffffffffffffffffffffffffffffffffffffff1673ffffffffffffffffffffffffffffffffffffffff1681526020016001820160149054906101000a900463ffffffff1663ffffffff1663ffffffff1681526020016001820160189054906101000a900460ff166002811115610922577f4e487b7100000000000000000000000000000000000000000000000000000000600052602160045260246000fd5b600281111561095a577f4e487b7100000000000000000000000000000000000000000000000000000000600052602160045260246000fd5b81526020016002820154815260200160038201805461097890615956565b80601f01602080910402602001604051908101604052809291908181526020018280546109a490615956565b80156109f15780601f106109c6576101008083540402835291602001916109f1565b820191906000526020600020905b8154815290600101906020018083116109d457829003601f168201915b5050505050815250509050919050565b600660009054906101000a900473ffffffffffffffffffffffffffffffffffffffff1673ffffffffffffffffffffffffffffffffffffffff1663d1e47bb33360036040518363ffffffff1660e01b8152600401610a5f929190615040565b60206040518083038186803b158015610a7757600080fd5b505afa158015610a8b573d6000803e3d6000fd5b505050506040513d601f19601f82011682018060405250810190610aaf91906144f9565b610aee576040517f08c379a0000000000000000000000000000000000000000000000000000000008152600401610ae5906151da565b60405180910390fd5b3373ffffffffffffffffffffffffffffffffffffffff16600160008463ffffffff1663ffffffff16815260200190815260200160002060020160089054906101000a900473ffffffffffffffffffffffffffffffffffffffff1673ffffffffffffffffffffffffffffffffffffffff1614610b9e576040517f08c379a0000000000000000000000000000000000000000000000000000000008152600401610b959061517a565b60405180910390fd5b80600160008463ffffffff1663ffffffff16815260200190815260200160002060020160046101000a81548163ffffffff021916908363ffffffff1602179055505050565b600660009054906101000a900473ffffffffffffffffffffffffffffffffffffffff1673ffffffffffffffffffffffffffffffffffffffff1663d1e47bb33360066040518363ffffffff1660e01b8152600401610c41929190615040565b60206040518083038186803b158015610c5957600080fd5b505afa158015610c6d573d6000803e3d6000fd5b505050506040513d601f19601f82011682018060405250810190610c9191906144f9565b610cd0576040517f08c379a0000000000000000000000000000000000000000000000000000000008152600401610cc79061521a565b60405180910390fd5b600180811115610d09577f4e487b7100000000000000000000000000000000000000000000000000000000600052602160045260246000fd5b600460008463ffffffff1663ffffffff16815260200190815260200160002060000160119054906101000a900460ff166001811115610d71577f4e487b7100000000000000000000000000000000000000000000000000000000600052602160045260246000fd5b14610db1576040517f08c379a0000000000000000000000000000000000000000000000000000000008152600401610da8906150da565b60405180910390fd5b80600460008463ffffffff1663ffffffff16815260200190815260200160002060020160146101000a81548160ff02191690836002811115610e1c577f4e487b7100000000000000000000000000000000000000000000000000000000600052602160045260246000fd5b02179055508163ffffffff167fab130106cad960e950d3b5ff9c896fdd5af7f3144699e12c2c8429afd4abd7ab82604051610e579190615084565b60405180910390a25050565b610e6b613f86565b6000808363ffffffff1663ffffffff1681526020019081526020016000206040518060c00160405290816000820160009054906101000a900463ffffffff1663ffffffff1663ffffffff1681526020016000820160049054906101000a900463ffffffff1663ffffffff1663ffffffff1681526020016000820160089054906101000a900463ffffffff1663ffffffff1663ffffffff16815260200160008201600c9054906101000a900473ffffffffffffffffffffffffffffffffffffffff1673ffffffffffffffffffffffffffffffffffffffff1673ffffffffffffffffffffffffffffffffffffffff1681526020016001820160009054906101000a900460ff16151515158152602001600282018054610f8790615956565b80601f0160208091040260200160405190810160405280929190818152602001828054610fb390615956565b80156110005780601f10610fd557610100808354040283529160200191611000565b820191906000526020600020905b815481529060010190602001808311610fe357829003601f168201915b5050505050815250509050919050565b80600660006101000a81548173ffffffffffffffffffffffffffffffffffffffff021916908373ffffffffffffffffffffffffffffffffffffffff16021790555050565b61105c613fe6565b600260008363ffffffff1663ffffffff1681526020019081526020016000206040518060800160405290816000820160009054906101000a900463ffffffff1663ffffffff1663ffffffff1681526020016001820180546110bc90615956565b80601f01602080910402602001604051908101604052809291908181526020018280546110e890615956565b80156111355780601f1061110a57610100808354040283529160200191611135565b820191906000526020600020905b81548152906001019060200180831161111857829003601f168201915b505050505081526020016002820154815260200160038201805461115890615956565b80601f016020809104026020016040519081016040528092919081815260200182805461118490615956565b80156111d15780601f106111a6576101008083540402835291602001916111d1565b820191906000526020600020905b8154815290600101906020018083116111b457829003601f168201915b5050505050815250509050919050565b60006020528060005260406000206000915090508060000160009054906101000a900463ffffffff16908060000160049054906101000a900463ffffffff16908060000160089054906101000a900463ffffffff169080600001600c9054906101000a900473ffffffffffffffffffffffffffffffffffffffff16908060010160009054906101000a900460ff169080600201805461127f90615956565b80601f01602080910402602001604051908101604052809291908181526020018280546112ab90615956565b80156112f85780601f106112cd576101008083540402835291602001916112f8565b820191906000526020600020905b8154815290600101906020018083116112db57829003601f168201915b5050505050905086565b600560009054906101000a900463ffffffff1681565b611320614014565b600160008363ffffffff1663ffffffff1681526020019081526020016000206040518060e00160405290816000820160009054906101000a900463ffffffff1663ffffffff1663ffffffff168152602001600182018054806020026020016040519081016040528092919081815260200182805480156113eb57602002820191906000526020600020906000905b82829054906101000a900463ffffffff1663ffffffff16815260200190600401906020826003010492830192600103820291508084116113ae5790505b505050505081526020016002820160009054906101000a900463ffffffff1663ffffffff1663ffffffff1681526020016002820160049054906101000a900463ffffffff1663ffffffff1663ffffffff1681526020016002820160089054906101000a900473ffffffffffffffffffffffffffffffffffffffff1673ffffffffffffffffffffffffffffffffffffffff1673ffffffffffffffffffffffffffffffffffffffff1681526020016003820180546114a690615956565b80601f01602080910402602001604051908101604052809291908181526020018280546114d290615956565b801561151f5780601f106114f45761010080835404028352916020019161151f565b820191906000526020600020905b81548152906001019060200180831161150257829003601f168201915b5050505050815260200160048201805461153890615956565b80601f016020809104026020016040519081016040528092919081815260200182805461156490615956565b80156115b15780601f10611586576101008083540402835291602001916115b1565b820191906000526020600020905b81548152906001019060200180831161159457829003601f168201915b5050505050815250509050919050565b600660009054906101000a900473ffffffffffffffffffffffffffffffffffffffff1673ffffffffffffffffffffffffffffffffffffffff1663d1e47bb33360066040518363ffffffff1660e01b815260040161161f929190615040565b60206040518083038186803b15801561163757600080fd5b505afa15801561164b573d6000803e3d6000fd5b505050506040513d601f19601f8201168201806040525081019061166f91906144f9565b6116ae576040517f08c379a00000000000000000000000000000000000000000000000000000000081526004016116a59061521a565b60405180910390fd5b600160008363ffffffff1663ffffffff16815260200190815260200160002060020160009054906101000a900463ffffffff1663ffffffff168163ffffffff16111561172f576040517f08c379a0000000000000000000000000000000000000000000000000000000008152600401611726906151ba565b60405180910390fd5b6000600160008463ffffffff1663ffffffff16815260200190815260200160002060020160049054906101000a900463ffffffff168261176f9190615792565b9050600082600160008663ffffffff1663ffffffff16815260200190815260200160002060020160009054906101000a900463ffffffff166117b191906157d0565b905080600160008663ffffffff1663ffffffff16815260200190815260200160002060020160006101000a81548163ffffffff021916908363ffffffff1602179055506005600081819054906101000a900463ffffffff168092919061181690615988565b91906101000a81548163ffffffff021916908363ffffffff16021790555050604051806101400160405280600560009054906101000a900463ffffffff1663ffffffff1681526020018563ffffffff1681526020018463ffffffff1681526020018363ffffffff168152602001600015158152602001600060018111156118c6577f4e487b7100000000000000000000000000000000000000000000000000000000600052602160045260246000fd5b8152602001600160008763ffffffff1663ffffffff16815260200190815260200160002060020160089054906101000a900473ffffffffffffffffffffffffffffffffffffffff1673ffffffffffffffffffffffffffffffffffffffff1681526020013373ffffffffffffffffffffffffffffffffffffffff1681526020016000600281111561197f577f4e487b7100000000000000000000000000000000000000000000000000000000600052602160045260246000fd5b81526020016040518060200160405280600081525081525060046000600560009054906101000a900463ffffffff1663ffffffff1663ffffffff16815260200190815260200160002060008201518160000160006101000a81548163ffffffff021916908363ffffffff16021790555060208201518160000160046101000a81548163ffffffff021916908363ffffffff16021790555060408201518160000160086101000a81548163ffffffff021916908363ffffffff160217905550606082015181600001600c6101000a81548163ffffffff021916908363ffffffff16021790555060808201518160000160106101000a81548160ff02191690831515021790555060a08201518160000160116101000a81548160ff02191690836001811115611ad5577f4e487b7100000000000000000000000000000000000000000000000000000000600052602160045260246000fd5b021790555060c08201518160010160006101000a81548173ffffffffffffffffffffffffffffffffffffffff021916908373ffffffffffffffffffffffffffffffffffffffff16021790555060e08201518160020160006101000a81548173ffffffffffffffffffffffffffffffffffffffff021916908373ffffffffffffffffffffffffffffffffffffffff1602179055506101008201518160020160146101000a81548160ff02191690836002811115611bba577f4e487b7100000000000000000000000000000000000000000000000000000000600052602160045260246000fd5b0217905550610120820151816003019080519060200190611bdc929190614079565b509050503373ffffffffffffffffffffffffffffffffffffffff167fa0e84f4dba1ea97bb938c4d3ff9475e68dacbd58f3086c672b0605ad53d76dc185604051611c269190615324565b60405180910390a250505050565b600560149054906101000a900460ff1615611c84576040517f08c379a0000000000000000000000000000000000000000000000000000000008152600401611c7b906151fa565b60405180910390fd5b80600660006101000a81548173ffffffffffffffffffffffffffffffffffffffff021916908373ffffffffffffffffffffffffffffffffffffffff1602179055506001600560146101000a81548160ff02191690831515021790555050565b611ceb6140ff565b600460008363ffffffff1663ffffffff168152602001908152602001600020604051806101400160405290816000820160009054906101000a900463ffffffff1663ffffffff1663ffffffff1681526020016000820160049054906101000a900463ffffffff1663ffffffff1663ffffffff1681526020016000820160089054906101000a900463ffffffff1663ffffffff1663ffffffff16815260200160008201600c9054906101000a900463ffffffff1663ffffffff1663ffffffff1681526020016000820160109054906101000a900460ff161515151581526020016000820160119054906101000a900460ff166001811115611e14577f4e487b7100000000000000000000000000000000000000000000000000000000600052602160045260246000fd5b6001811115611e4c577f4e487b7100000000000000000000000000000000000000000000000000000000600052602160045260246000fd5b81526020016001820160009054906101000a900473ffffffffffffffffffffffffffffffffffffffff1673ffffffffffffffffffffffffffffffffffffffff1673ffffffffffffffffffffffffffffffffffffffff1681526020016002820160009054906101000a900473ffffffffffffffffffffffffffffffffffffffff1673ffffffffffffffffffffffffffffffffffffffff1673ffffffffffffffffffffffffffffffffffffffff1681526020016002820160149054906101000a900460ff166002811115611f47577f4e487b7100000000000000000000000000000000000000000000000000000000600052602160045260246000fd5b6002811115611f7f577f4e487b7100000000000000000000000000000000000000000000000000000000600052602160045260246000fd5b8152602001600382018054611f9390615956565b80601f0160208091040260200160405190810160405280929190818152602001828054611fbf90615956565b801561200c5780601f10611fe15761010080835404028352916020019161200c565b820191906000526020600020905b815481529060010190602001808311611fef57829003601f168201915b5050505050815250509050919050565b6005600c9054906101000a900463ffffffff1681565b600560089054906101000a900463ffffffff1681565b60046020528060005260406000206000915090508060000160009054906101000a900463ffffffff16908060000160049054906101000a900463ffffffff16908060000160089054906101000a900463ffffffff169080600001600c9054906101000a900463ffffffff16908060000160109054906101000a900460ff16908060000160119054906101000a900460ff16908060010160009054906101000a900473ffffffffffffffffffffffffffffffffffffffff16908060020160009054906101000a900473ffffffffffffffffffffffffffffffffffffffff16908060020160149054906101000a900460ff169080600301805461214890615956565b80601f016020809104026020016040519081016040528092919081815260200182805461217490615956565b80156121c15780601f10612196576101008083540402835291602001916121c1565b820191906000526020600020905b8154815290600101906020018083116121a457829003601f168201915b505050505090508a565b60036020528060005260406000206000915090508060000160009054906101000a900463ffffffff16908060000160049054906101000a900473ffffffffffffffffffffffffffffffffffffffff16908060010160009054906101000a900473ffffffffffffffffffffffffffffffffffffffff16908060010160149054906101000a900463ffffffff16908060010160189054906101000a900460ff169080600201549080600301805461227f90615956565b80601f01602080910402602001604051908101604052809291908181526020018280546122ab90615956565b80156122f85780601f106122cd576101008083540402835291602001916122f8565b820191906000526020600020905b8154815290600101906020018083116122db57829003601f168201915b5050505050905087565b6000600560009054906101000a900463ffffffff16905090565b600660009054906101000a900473ffffffffffffffffffffffffffffffffffffffff1673ffffffffffffffffffffffffffffffffffffffff1663d1e47bb33360056040518363ffffffff1660e01b815260040161237a929190615040565b60206040518083038186803b15801561239257600080fd5b505afa1580156123a6573d6000803e3d6000fd5b505050506040513d601f19601f820116820180604052508101906123ca91906144f9565b612409576040517f08c379a00000000000000000000000000000000000000000000000000000000081526004016124009061525a565b60405180910390fd5b600560009054906101000a900463ffffffff1663ffffffff168263ffffffff16111561246a576040517f08c379a00000000000000000000000000000000000000000000000000000000081526004016124619061511a565b60405180910390fd5b80600460008463ffffffff1663ffffffff16815260200190815260200160002060000160116101000a81548160ff021916908360018111156124d5577f4e487b7100000000000000000000000000000000000000000000000000000000600052602160045260246000fd5b02179055508163ffffffff167ff84820c84ecbec116ee0604a91f0bec4a5d5926d8d5189a13f57fc30951d4b9182604051612510919061509f565b60405180910390a25050565b60006005600c9054906101000a900463ffffffff16905090565b600660009054906101000a900473ffffffffffffffffffffffffffffffffffffffff1681565b600660009054906101000a900473ffffffffffffffffffffffffffffffffffffffff1673ffffffffffffffffffffffffffffffffffffffff1663d1e47bb33360036040518363ffffffff1660e01b81526004016125ba929190615040565b60206040518083038186803b1580156125d257600080fd5b505afa1580156125e6573d6000803e3d6000fd5b505050506040513d601f19601f8201168201806040525081019061260a91906144f9565b612649576040517f08c379a0000000000000000000000000000000000000000000000000000000008152600401612640906151da565b60405180910390fd5b6000835167ffffffffffffffff81111561268c577f4e487b7100000000000000000000000000000000000000000000000000000000600052604160045260246000fd5b6040519080825280602002602001820160405280156126ba5781602001602082028036833780820191505090505b5090506000805b85518163ffffffff161015612a9a57600560049054906101000a900463ffffffff1663ffffffff16868263ffffffff1681518110612728577f4e487b7100000000000000000000000000000000000000000000000000000000600052603260045260246000fd5b602002602001015163ffffffff161115612777576040517f08c379a000000000000000000000000000000000000000000000000000000000815260040161276e9061523a565b60405180910390fd5b6000806000888463ffffffff16815181106127bb577f4e487b7100000000000000000000000000000000000000000000000000000000600052603260045260246000fd5b602002602001015163ffffffff1663ffffffff1681526020019081526020016000206040518060c00160405290816000820160009054906101000a900463ffffffff1663ffffffff1663ffffffff1681526020016000820160049054906101000a900463ffffffff1663ffffffff1663ffffffff1681526020016000820160089054906101000a900463ffffffff1663ffffffff1663ffffffff16815260200160008201600c9054906101000a900473ffffffffffffffffffffffffffffffffffffffff1673ffffffffffffffffffffffffffffffffffffffff1673ffffffffffffffffffffffffffffffffffffffff1681526020016001820160009054906101000a900460ff161515151581526020016002820180546128db90615956565b80601f016020809104026020016040519081016040528092919081815260200182805461290790615956565b80156129545780601f1061292957610100808354040283529160200191612954565b820191906000526020600020905b81548152906001019060200180831161293757829003601f168201915b50505050508152505090508060200151848363ffffffff16815181106129a3577f4e487b7100000000000000000000000000000000000000000000000000000000600052603260045260246000fd5b602002602001019063ffffffff16908163ffffffff16815250508060400151836129cd9190615758565b92503373ffffffffffffffffffffffffffffffffffffffff16816060015173ffffffffffffffffffffffffffffffffffffffff1614612a41576040517f08c379a0000000000000000000000000000000000000000000000000000000008152600401612a38906150ba565b60405180910390fd5b806080015115612a86576040517f08c379a0000000000000000000000000000000000000000000000000000000008152600401612a7d9061515a565b60405180910390fd5b508080612a9290615988565b9150506126c1565b506005600881819054906101000a900463ffffffff1680929190612abd90615988565b91906101000a81548163ffffffff021916908363ffffffff1602179055505060005b85518163ffffffff161015612b81576001600080888463ffffffff1681518110612b32577f4e487b7100000000000000000000000000000000000000000000000000000000600052603260045260246000fd5b602002602001015163ffffffff1663ffffffff16815260200190815260200160002060010160006101000a81548160ff0219169083151502179055508080612b7990615988565b915050612adf565b506040518060e00160405280600560089054906101000a900463ffffffff1663ffffffff1681526020018381526020018263ffffffff1681526020018463ffffffff1681526020013373ffffffffffffffffffffffffffffffffffffffff1681526020018581526020016040518060200160405280600081525081525060016000600560089054906101000a900463ffffffff1663ffffffff1663ffffffff16815260200190815260200160002060008201518160000160006101000a81548163ffffffff021916908363ffffffff1602179055506020820151816001019080519060200190612c72929190614208565b5060408201518160020160006101000a81548163ffffffff021916908363ffffffff16021790555060608201518160020160046101000a81548163ffffffff021916908363ffffffff16021790555060808201518160020160086101000a81548173ffffffffffffffffffffffffffffffffffffffff021916908373ffffffffffffffffffffffffffffffffffffffff16021790555060a0820151816003019080519060200190612d24929190614079565b5060c0820151816004019080519060200190612d41929190614079565b509050503373ffffffffffffffffffffffffffffffffffffffff167f499d3f5837e61d77a364db177a5e0ba2d02b9a2316f1264fffa374d94a9a12b1600560089054906101000a900463ffffffff168386604051612da1939291906154b4565b60405180910390a25050505050565b60016020528060005260406000206000915090508060000160009054906101000a900463ffffffff16908060020160009054906101000a900463ffffffff16908060020160049054906101000a900463ffffffff16908060020160089054906101000a900473ffffffffffffffffffffffffffffffffffffffff1690806003018054612e3b90615956565b80601f0160208091040260200160405190810160405280929190818152602001828054612e6790615956565b8015612eb45780601f10612e8957610100808354040283529160200191612eb4565b820191906000526020600020905b815481529060010190602001808311612e9757829003601f168201915b505050505090806004018054612ec990615956565b80601f0160208091040260200160405190810160405280929190818152602001828054612ef590615956565b8015612f425780601f10612f1757610100808354040283529160200191612f42565b820191906000526020600020905b815481529060010190602001808311612f2557829003601f168201915b5050505050905086565b6005600481819054906101000a900463ffffffff1680929190612f6e90615988565b91906101000a81548163ffffffff021916908363ffffffff160217905550506040518060c00160405280600560049054906101000a900463ffffffff1663ffffffff1681526020018463ffffffff1681526020018363ffffffff1681526020018273ffffffffffffffffffffffffffffffffffffffff16815260200160001515815260200160405180602001604052806000815250815250600080600560049054906101000a900463ffffffff1663ffffffff1663ffffffff16815260200190815260200160002060008201518160000160006101000a81548163ffffffff021916908363ffffffff16021790555060208201518160000160046101000a81548163ffffffff021916908363ffffffff16021790555060408201518160000160086101000a81548163ffffffff021916908363ffffffff160217905550606082015181600001600c6101000a81548173ffffffffffffffffffffffffffffffffffffffff021916908373ffffffffffffffffffffffffffffffffffffffff16021790555060808201518160010160006101000a81548160ff02191690831515021790555060a082015181600201908051906020019061312e929190614079565b50905050600560049054906101000a900463ffffffff1663ffffffff167f3d078b1c3921ddadb756791c1a070b903bcb0cd941a1df4de6eed059fb6e06db838560405161317c92919061548b565b60405180910390a2505050565b600560109054906101000a900463ffffffff1681565b600660009054906101000a900473ffffffffffffffffffffffffffffffffffffffff1673ffffffffffffffffffffffffffffffffffffffff1663d1e47bb33360056040518363ffffffff1660e01b81526004016131fd929190615040565b60206040518083038186803b15801561321557600080fd5b505afa158015613229573d6000803e3d6000fd5b505050506040513d601f19601f8201168201806040525081019061324d91906144f9565b61328c576040517f08c379a00000000000000000000000000000000000000000000000000000000081526004016132839061525a565b60405180910390fd5b600560009054906101000a900463ffffffff1663ffffffff168263ffffffff1611156132ed576040517f08c379a00000000000000000000000000000000000000000000000000000000081526004016132e49061511a565b60405180910390fd5b6005600c81819054906101000a900463ffffffff168092919061330f90615988565b91906101000a81548163ffffffff021916908363ffffffff1602179055505060405180608001604052806005600c9054906101000a900463ffffffff1663ffffffff16815260200182815260200142815260200160405180602001604052806000815250815250600260008463ffffffff1663ffffffff16815260200190815260200160002060008201518160000160006101000a81548163ffffffff021916908363ffffffff16021790555060208201518160010190805190602001906133d8929190614079565b506040820151816002015560608201518160030190805190602001906133ff929190614079565b509050508163ffffffff167f9ab17ec591b78d61af32f738c106f43e1d835ccc08eb5363d4e06886475d990f6005600c9054906101000a900463ffffffff16834260405161344f939291906153fa565b60405180910390a25050565b600660009054906101000a900473ffffffffffffffffffffffffffffffffffffffff1673ffffffffffffffffffffffffffffffffffffffff1663d1e47bb33360066040518363ffffffff1660e01b81526004016134b9929190615040565b60206040518083038186803b1580156134d157600080fd5b505afa1580156134e5573d6000803e3d6000fd5b505050506040513d601f19601f8201168201806040525081019061350991906144f9565b613548576040517f08c379a000000000000000000000000000000000000000000000000000000000815260040161353f9061521a565b60405180910390fd5b600060016000600460008763ffffffff1663ffffffff16815260200190815260200160002060000160049054906101000a900463ffffffff1663ffffffff1663ffffffff1681526020019081526020016000206040518060e00160405290816000820160009054906101000a900463ffffffff1663ffffffff1663ffffffff1681526020016001820180548060200260200160405190810160405280929190818152602001828054801561364757602002820191906000526020600020906000905b82829054906101000a900463ffffffff1663ffffffff168152602001906004019060208260030104928301926001038202915080841161360a5790505b505050505081526020016002820160009054906101000a900463ffffffff1663ffffffff1663ffffffff1681526020016002820160049054906101000a900463ffffffff1663ffffffff1663ffffffff1681526020016002820160089054906101000a900473ffffffffffffffffffffffffffffffffffffffff1673ffffffffffffffffffffffffffffffffffffffff1673ffffffffffffffffffffffffffffffffffffffff16815260200160038201805461370290615956565b80601f016020809104026020016040519081016040528092919081815260200182805461372e90615956565b801561377b5780601f106137505761010080835404028352916020019161377b565b820191906000526020600020905b81548152906001019060200180831161375e57829003601f168201915b5050505050815260200160048201805461379490615956565b80601f01602080910402602001604051908101604052809291908181526020018280546137c090615956565b801561380d5780601f106137e25761010080835404028352916020019161380d565b820191906000526020600020905b8154815290600101906020018083116137f057829003601f168201915b5050505050815250509050600460008563ffffffff1663ffffffff168152602001908152602001600020600001600c9054906101000a900463ffffffff1663ffffffff168363ffffffff1614613898576040517f08c379a000000000000000000000000000000000000000000000000000000000815260040161388f9061513a565b60405180910390fd5b600460008563ffffffff1663ffffffff16815260200190815260200160002060000160109054906101000a900460ff1615613908576040517f08c379a00000000000000000000000000000000000000000000000000000000081526004016138ff9061519a565b60405180910390fd5b60016002811115613942577f4e487b7100000000000000000000000000000000000000000000000000000000600052602160045260246000fd5b600460008663ffffffff1663ffffffff16815260200190815260200160002060020160149054906101000a900460ff1660028111156139aa577f4e487b7100000000000000000000000000000000000000000000000000000000600052602160045260246000fd5b146139ea576040517f08c379a00000000000000000000000000000000000000000000000000000000081526004016139e1906150fa565b60405180910390fd5b6001600460008663ffffffff1663ffffffff16815260200190815260200160002060000160106101000a81548160ff0219169083151502179055506005601081819054906101000a900463ffffffff1680929190613a4790615988565b91906101000a81548163ffffffff021916908363ffffffff160217905550506040518060e00160405280600560109054906101000a900463ffffffff1663ffffffff1681526020013373ffffffffffffffffffffffffffffffffffffffff168152602001600460008763ffffffff1663ffffffff16815260200190815260200160002060010160009054906101000a900473ffffffffffffffffffffffffffffffffffffffff1673ffffffffffffffffffffffffffffffffffffffff1681526020018463ffffffff168152602001836002811115613b4e577f4e487b7100000000000000000000000000000000000000000000000000000000600052602160045260246000fd5b81526020014281526020016040518060200160405280600081525081525060036000600560109054906101000a900463ffffffff1663ffffffff1663ffffffff16815260200190815260200160002060008201518160000160006101000a81548163ffffffff021916908363ffffffff16021790555060208201518160000160046101000a81548173ffffffffffffffffffffffffffffffffffffffff021916908373ffffffffffffffffffffffffffffffffffffffff16021790555060408201518160010160006101000a81548173ffffffffffffffffffffffffffffffffffffffff021916908373ffffffffffffffffffffffffffffffffffffffff16021790555060608201518160010160146101000a81548163ffffffff021916908363ffffffff16021790555060808201518160010160186101000a81548160ff02191690836002811115613cca577f4e487b7100000000000000000000000000000000000000000000000000000000600052602160045260246000fd5b021790555060a0820151816002015560c0820151816003019080519060200190613cf5929190614079565b50905050806000015163ffffffff167fd9f037670aada9b07156110dd936887c158e5cd6f7932663cc64ef336e44cf9f600560109054906101000a900463ffffffff16338686604051613d4b94939291906153b5565b60405180910390a250505050565b600560049054906101000a900463ffffffff1681565b60026020528060005260406000206000915090508060000160009054906101000a900463ffffffff1690806001018054613da890615956565b80601f0160208091040260200160405190810160405280929190818152602001828054613dd490615956565b8015613e215780601f10613df657610100808354040283529160200191613e21565b820191906000526020600020905b815481529060010190602001808311613e0457829003601f168201915b505050505090806002015490806003018054613e3c90615956565b80601f0160208091040260200160405190810160405280929190818152602001828054613e6890615956565b8015613eb55780601f10613e8a57610100808354040283529160200191613eb5565b820191906000526020600020905b815481529060010190602001808311613e9857829003601f168201915b5050505050905084565b6000600560109054906101000a900463ffffffff16905090565b6040518060e00160405280600063ffffffff168152602001600073ffffffffffffffffffffffffffffffffffffffff168152602001600073ffffffffffffffffffffffffffffffffffffffff168152602001600063ffffffff16815260200160006002811115613f72577f4e487b7100000000000000000000000000000000000000000000000000000000600052602160045260246000fd5b815260200160008152602001606081525090565b6040518060c00160405280600063ffffffff168152602001600063ffffffff168152602001600063ffffffff168152602001600073ffffffffffffffffffffffffffffffffffffffff168152602001600015158152602001606081525090565b6040518060800160405280600063ffffffff1681526020016060815260200160008152602001606081525090565b6040518060e00160405280600063ffffffff16815260200160608152602001600063ffffffff168152602001600063ffffffff168152602001600073ffffffffffffffffffffffffffffffffffffffff16815260200160608152602001606081525090565b82805461408590615956565b90600052602060002090601f0160209004810192826140a757600085556140ee565b82601f106140c057805160ff19168380011785556140ee565b828001600101855582156140ee579182015b828111156140ed5782518255916020019190600101906140d2565b5b5090506140fb91906142b8565b5090565b604051806101400160405280600063ffffffff168152602001600063ffffffff168152602001600063ffffffff168152602001600063ffffffff16815260200160001515815260200160006001811115614182577f4e487b7100000000000000000000000000000000000000000000000000000000600052602160045260246000fd5b8152602001600073ffffffffffffffffffffffffffffffffffffffff168152602001600073ffffffffffffffffffffffffffffffffffffffff168152602001600060028111156141fb577f4e487b7100000000000000000000000000000000000000000000000000000000600052602160045260246000fd5b8152602001606081525090565b828054828255906000526020600020906007016008900481019282156142a75791602002820160005b8382111561427557835183826101000a81548163ffffffff021916908363ffffffff1602179055509260200192600401602081600301049283019260010302614231565b80156142a55782816101000a81549063ffffffff0219169055600401602081600301049283019260010302614275565b505b5090506142b491906142b8565b5090565b5b808211156142d15760008160009055506001016142b9565b5090565b60006142e86142e384615696565b615665565b9050808382526020820190508285602086028201111561430757600080fd5b60005b85811015614337578161431d888261443c565b84526020840193506020830192505060018101905061430a565b5050509392505050565b600061435461434f846156c2565b615665565b90508281526020810184848401111561436c57600080fd5b614377848285615914565b509392505050565b60008135905061438e81615ad2565b92915050565b600082601f8301126143a557600080fd5b81356143b58482602086016142d5565b91505092915050565b6000815190506143cd81615ae9565b92915050565b6000813590506143e281615b00565b92915050565b6000813590506143f781615b10565b92915050565b60008135905061440c81615b20565b92915050565b600082601f83011261442357600080fd5b8135614433848260208601614341565b91505092915050565b60008135905061444b81615b30565b92915050565b60006020828403121561446357600080fd5b60006144718482850161437f565b91505092915050565b60008060006060848603121561448f57600080fd5b600084013567ffffffffffffffff8111156144a957600080fd5b6144b586828701614394565b935050602084013567ffffffffffffffff8111156144d257600080fd5b6144de86828701614412565b92505060406144ef8682870161443c565b9150509250925092565b60006020828403121561450b57600080fd5b6000614519848285016143be565b91505092915050565b60006020828403121561453457600080fd5b60006145428482850161443c565b91505092915050565b6000806040838503121561455e57600080fd5b600061456c8582860161443c565b925050602061457d858286016143e8565b9150509250929050565b6000806040838503121561459a57600080fd5b60006145a88582860161443c565b92505060206145b9858286016143fd565b9150509250929050565b600080604083850312156145d657600080fd5b60006145e48582860161443c565b925050602083013567ffffffffffffffff81111561460157600080fd5b61460d85828601614412565b9150509250929050565b6000806040838503121561462a57600080fd5b60006146388582860161443c565b92505060206146498582860161443c565b9150509250929050565b60008060006060848603121561466857600080fd5b60006146768682870161443c565b93505060206146878682870161443c565b92505060406146988682870161437f565b9150509250925092565b6000806000606084860312156146b757600080fd5b60006146c58682870161443c565b93505060206146d68682870161443c565b92505060406146e7868287016143d3565b9150509250925092565b60006146fd8383615022565b60208301905092915050565b61471281615804565b82525050565b61472181615804565b82525050565b600061473282615702565b61473c8185615725565b9350614747836156f2565b8060005b8381101561477857815161475f88826146f1565b975061476a83615718565b92505060018101905061474b565b5085935050505092915050565b61478e81615816565b82525050565b61479d81615816565b82525050565b6147ac816158a8565b82525050565b6147bb816158cc565b82525050565b6147ca816158cc565b82525050565b6147d9816158de565b82525050565b6147e8816158f0565b82525050565b6147f7816158f0565b82525050565b61480681615902565b82525050565b61481581615902565b82525050565b60006148268261570d565b6148308185615736565b9350614840818560208601615923565b61484981615a71565b840191505092915050565b600061485f8261570d565b6148698185615747565b9350614879818560208601615923565b61488281615a71565b840191505092915050565b600061489a602a83615747565b91507f566f7573206e27657374207061732070726f707269657461697265206465206360008301527f652070726f647569742e000000000000000000000000000000000000000000006020830152604082019050919050565b6000614900601a83615747565b91507f436f6d6d616e64652070617320656e636f7265206c697672652e0000000000006000830152602082019050919050565b6000614940601583615747565b91507f436f6d6d616e6465206e6f6e2076616c696465722e00000000000000000000006000830152602082019050919050565b6000614980601983615747565b91507f4c6120636f6d6d616e6465206e27657869737465207061732e000000000000006000830152602082019050919050565b60006149c0601183615747565b91507f4d6f6e74616e7420696e636f72726563740000000000000000000000000000006000830152602082019050919050565b6000614a00602183615747565b91507f50726f647569742064656a6120656e726567697374726520636f6d6d65206c6f60008301527f74000000000000000000000000000000000000000000000000000000000000006020830152604082019050919050565b6000614a66602a83615747565b91507f566f7573206e2765746573207061732070726f7072696574616972652064652060008301527f63652070726f64756974000000000000000000000000000000000000000000006020830152604082019050919050565b6000614acc601383615747565b91507f436f6d6d616e64652064656a61207061796572000000000000000000000000006000830152602082019050919050565b6000614b0c601183615747565b91507f5175616e7469746520696e76616c6964650000000000000000000000000000006000830152602082019050919050565b6000614b4c602283615747565b91507f4e6f6e206175746f726973653a207365756c656d656e7420436f6c6c6563746560008301527f75720000000000000000000000000000000000000000000000000000000000006020830152604082019050919050565b6000614bb2601a83615747565b91507f436f6e747261742064656a6120696e697469616c6973657220210000000000006000830152602082019050919050565b6000614bf2602383615747565b91507f4e6f6e206175746f726973653a207365756c656d656e74204578706f7274617460008301527f65757200000000000000000000000000000000000000000000000000000000006020830152604082019050919050565b6000614c58601583615747565b91507f50726f64756974206e6f6e206578697374616e742e00000000000000000000006000830152602082019050919050565b6000614c98602483615747565b91507f4e6f6e206175746f726973653a207365756c656d656e74205472616e73706f7260008301527f74657572000000000000000000000000000000000000000000000000000000006020830152604082019050919050565b600061014083016000830151614d0a6000860182615022565b506020830151614d1d6020860182615022565b506040830151614d306040860182615022565b506060830151614d436060860182615022565b506080830151614d566080860182614785565b5060a0830151614d6960a08601826147fd565b5060c0830151614d7c60c0860182614709565b5060e0830151614d8f60e0860182614709565b50610100830151614da46101008601826147df565b50610120830151848203610120860152614dbe828261481b565b9150508091505092915050565b6000608083016000830151614de36000860182615022565b5060208301518482036020860152614dfb828261481b565b9150506040830151614e106040860182615004565b5060608301518482036060860152614e28828261481b565b9150508091505092915050565b600060e083016000830151614e4d6000860182615022565b5060208301518482036020860152614e658282614727565b9150506040830151614e7a6040860182615022565b506060830151614e8d6060860182615022565b506080830151614ea06080860182614709565b5060a083015184820360a0860152614eb8828261481b565b91505060c083015184820360c0860152614ed2828261481b565b9150508091505092915050565b600060e083016000830151614ef76000860182615022565b506020830151614f0a6020860182614709565b506040830151614f1d6040860182614709565b506060830151614f306060860182615022565b506080830151614f4360808601826147b2565b5060a0830151614f5660a0860182615004565b5060c083015184820360c0860152614f6e828261481b565b9150508091505092915050565b600060c083016000830151614f936000860182615022565b506020830151614fa66020860182615022565b506040830151614fb96040860182615022565b506060830151614fcc6060860182614709565b506080830151614fdf6080860182614785565b5060a083015184820360a0860152614ff7828261481b565b9150508091505092915050565b61500d8161588e565b82525050565b61501c8161588e565b82525050565b61502b81615898565b82525050565b61503a81615898565b82525050565b60006040820190506150556000830185614718565b61506260208301846147d0565b9392505050565b600060208201905061507e60008301846147a3565b92915050565b600060208201905061509960008301846147ee565b92915050565b60006020820190506150b4600083018461480c565b92915050565b600060208201905081810360008301526150d38161488d565b9050919050565b600060208201905081810360008301526150f3816148f3565b9050919050565b6000602082019050818103600083015261511381614933565b9050919050565b6000602082019050818103600083015261513381614973565b9050919050565b60006020820190508181036000830152615153816149b3565b9050919050565b60006020820190508181036000830152615173816149f3565b9050919050565b6000602082019050818103600083015261519381614a59565b9050919050565b600060208201905081810360008301526151b381614abf565b9050919050565b600060208201905081810360008301526151d381614aff565b9050919050565b600060208201905081810360008301526151f381614b3f565b9050919050565b6000602082019050818103600083015261521381614ba5565b9050919050565b6000602082019050818103600083015261523381614be5565b9050919050565b6000602082019050818103600083015261525381614c4b565b9050919050565b6000602082019050818103600083015261527381614c8b565b9050919050565b600060208201905081810360008301526152948184614cf1565b905092915050565b600060208201905081810360008301526152b68184614dcb565b905092915050565b600060208201905081810360008301526152d88184614e35565b905092915050565b600060208201905081810360008301526152fa8184614edf565b905092915050565b6000602082019050818103600083015261531c8184614f7b565b905092915050565b60006020820190506153396000830184615031565b92915050565b600060e082019050615354600083018a615031565b6153616020830189614718565b61536e6040830188614718565b61537b6060830187615031565b61538860808301866147c1565b61539560a0830185615013565b81810360c08301526153a78184614854565b905098975050505050505050565b60006080820190506153ca6000830187615031565b6153d76020830186614718565b6153e46040830185615031565b6153f160608301846147c1565b95945050505050565b600060608201905061540f6000830186615031565b81810360208301526154218185614854565b90506154306040830184615013565b949350505050565b600060808201905061544d6000830187615031565b818103602083015261545f8186614854565b905061546e6040830185615013565b81810360608301526154808184614854565b905095945050505050565b60006040820190506154a06000830185615031565b6154ad6020830184615031565b9392505050565b60006060820190506154c96000830186615031565b6154d66020830185615031565b6154e36040830184615031565b949350505050565b600060c0820190506155006000830189615031565b61550d6020830188615031565b61551a6040830187615031565b6155276060830186614718565b6155346080830185614794565b81810360a08301526155468184614854565b9050979650505050505050565b600060c0820190506155686000830189615031565b6155756020830188615031565b6155826040830187615031565b61558f6060830186614718565b81810360808301526155a18185614854565b905081810360a08301526155b58184614854565b9050979650505050505050565b6000610140820190506155d8600083018d615031565b6155e5602083018c615031565b6155f2604083018b615031565b6155ff606083018a615031565b61560c6080830189614794565b61561960a083018861480c565b61562660c0830187614718565b61563360e0830186614718565b6156416101008301856147ee565b8181036101208301526156548184614854565b90509b9a5050505050505050505050565b6000604051905081810181811067ffffffffffffffff8211171561568c5761568b615a42565b5b8060405250919050565b600067ffffffffffffffff8211156156b1576156b0615a42565b5b602082029050602081019050919050565b600067ffffffffffffffff8211156156dd576156dc615a42565b5b601f19601f8301169050602081019050919050565b6000819050602082019050919050565b600081519050919050565b600081519050919050565b6000602082019050919050565b600082825260208201905092915050565b600082825260208201905092915050565b600082825260208201905092915050565b600061576382615898565b915061576e83615898565b92508263ffffffff03821115615787576157866159b5565b5b828201905092915050565b600061579d82615898565b91506157a883615898565b92508163ffffffff04831182151516156157c5576157c46159b5565b5b828202905092915050565b60006157db82615898565b91506157e683615898565b9250828210156157f9576157f86159b5565b5b828203905092915050565b600061580f8261586e565b9050919050565b60008115159050919050565b600081905061583082615a82565b919050565b600081905061584382615a96565b919050565b600081905061585682615aaa565b919050565b600081905061586982615abe565b919050565b600073ffffffffffffffffffffffffffffffffffffffff82169050919050565b6000819050919050565b600063ffffffff82169050919050565b60006158b3826158ba565b9050919050565b60006158c58261586e565b9050919050565b60006158d782615822565b9050919050565b60006158e982615835565b9050919050565b60006158fb82615848565b9050919050565b600061590d8261585b565b9050919050565b82818337600083830152505050565b60005b83811015615941578082015181840152602081019050615926565b83811115615950576000848401525b50505050565b6000600282049050600182168061596e57607f821691505b6020821081141561598257615981615a13565b5b50919050565b600061599382615898565b915063ffffffff8214156159aa576159a96159b5565b5b600182019050919050565b7f4e487b7100000000000000000000000000000000000000000000000000000000600052601160045260246000fd5b7f4e487b7100000000000000000000000000000000000000000000000000000000600052602160045260246000fd5b7f4e487b7100000000000000000000000000000000000000000000000000000000600052602260045260246000fd5b7f4e487b7100000000000000000000000000000000000000000000000000000000600052604160045260246000fd5b6000601f19601f8301169050919050565b60038110615a9357615a926159e4565b5b50565b60088110615aa757615aa66159e4565b5b50565b60038110615abb57615aba6159e4565b5b50565b60028110615acf57615ace6159e4565b5b50565b615adb81615804565b8114615ae657600080fd5b50565b615af281615816565b8114615afd57600080fd5b50565b60038110615b0d57600080fd5b50565b60038110615b1d57600080fd5b50565b60028110615b2d57600080fd5b50565b615b3981615898565b8114615b4457600080fd5b5056fea2646970667358221220963280c369edd285ea3b465e6156b275e3cb64b325f71e87d0f04ae83c0b5c3764736f6c63430008000033",
  "linkReferences": {},
  "deployedLinkReferences": {}
}