{
  "_format": "hh-sol-artifact-1",
  "contractName": "CollecteurExportateur",
  "sourceName": "contracts/CollecteurExportateur.sol",
  "abi": [
    {
      "anonymous": false,
      "inputs": [
        {
          "indexed": true,
          "internalType": "address",
          "name": "collecteur",
          "type": "address"
        },
        {
          "indexed": false,
          "internalType": "uint32",
          "name": "idLotProduit",
          "type": "uint32"
        },
        {
          "indexed": false,
          "internalType": "uint32",
          "name": "quantite",
          "type": "uint32"
        },
        {
          "indexed": false,
          "internalType": "uint32",
          "name": "prix",
          "type": "uint32"
        }
      ],
      "name": "AjoutLotProduit",
      "type": "event"
    },
    {
      "anonymous": false,
      "inputs": [
        {
          "indexed": true,
          "internalType": "address",
          "name": "exportateur",
          "type": "address"
        },
        {
          "indexed": false,
          "internalType": "uint32",
          "name": "idProduit",
          "type": "uint32"
        }
      ],
      "name": "CommandePasser",
      "type": "event"
    },
    {
      "anonymous": false,
      "inputs": [
        {
          "indexed": true,
          "internalType": "uint32",
          "name": "idProduit",
          "type": "uint32"
        },
        {
          "indexed": false,
          "internalType": "string",
          "name": "cid",
          "type": "string"
        },
        {
          "indexed": false,
          "internalType": "uint256",
          "name": "timestamp",
          "type": "uint256"
        }
      ],
      "name": "ConditionEnregistree",
      "type": "event"
    },
    {
      "anonymous": false,
      "inputs": [
        {
          "indexed": true,
          "internalType": "uint32",
          "name": "idProduit",
          "type": "uint32"
        },
        {
          "indexed": false,
          "internalType": "uint32",
          "name": "idPaiement",
          "type": "uint32"
        },
        {
          "indexed": false,
          "internalType": "address",
          "name": "payeur",
          "type": "address"
        },
        {
          "indexed": false,
          "internalType": "uint32",
          "name": "montant",
          "type": "uint32"
        },
        {
          "indexed": false,
          "internalType": "enum StructLib.ModePaiement",
          "name": "mode",
          "type": "uint8"
        }
      ],
      "name": "PaiementEffectue",
      "type": "event"
    },
    {
      "anonymous": false,
      "inputs": [
        {
          "indexed": true,
          "internalType": "uint32",
          "name": "idProduit",
          "type": "uint32"
        },
        {
          "indexed": false,
          "internalType": "uint32",
          "name": "quantite",
          "type": "uint32"
        },
        {
          "indexed": false,
          "internalType": "uint32",
          "name": "idRecolte",
          "type": "uint32"
        }
      ],
      "name": "ProduitAjoute",
      "type": "event"
    },
    {
      "anonymous": false,
      "inputs": [
        {
          "indexed": true,
          "internalType": "uint32",
          "name": "idProduit",
          "type": "uint32"
        },
        {
          "indexed": false,
          "internalType": "bool",
          "name": "valide",
          "type": "bool"
        }
      ],
      "name": "ProduitValide",
      "type": "event"
    },
    {
      "anonymous": false,
      "inputs": [
        {
          "indexed": true,
          "internalType": "uint32",
          "name": "idCommande",
          "type": "uint32"
        },
        {
          "indexed": false,
          "internalType": "enum StructLib.StatutProduit",
          "name": "status",
          "type": "uint8"
        }
      ],
      "name": "StatusCommandeMisAJour",
      "type": "event"
    },
    {
      "anonymous": false,
      "inputs": [
        {
          "indexed": true,
          "internalType": "uint32",
          "name": "idProduit",
          "type": "uint32"
        },
        {
          "indexed": false,
          "internalType": "enum StructLib.StatutTransport",
          "name": "statut",
          "type": "uint8"
        }
      ],
      "name": "StatutTransportMisAJour",
      "type": "event"
    },
    {
      "stateMutability": "payable",
      "type": "fallback"
    },
    {
      "inputs": [
        {
          "internalType": "uint32[]",
          "name": "_idProduits",
          "type": "uint32[]"
        },
        {
          "internalType": "string",
          "name": "_cid",
          "type": "string"
        },
        {
          "internalType": "uint32",
          "name": "_prix",
          "type": "uint32"
        }
      ],
      "name": "ajouterLotProduit",
      "outputs": [],
      "stateMutability": "nonpayable",
      "type": "function"
    },
    {
      "inputs": [
        {
          "internalType": "uint32",
          "name": "_idCommandeRecolte",
          "type": "uint32"
        },
        {
          "internalType": "uint32",
          "name": "_idRecolte",
          "type": "uint32"
        },
        {
          "internalType": "uint32",
          "name": "_quantite",
          "type": "uint32"
        },
        {
          "internalType": "address",
          "name": "_collecteur",
          "type": "address"
        }
      ],
      "name": "ajouterProduit",
      "outputs": [],
      "stateMutability": "nonpayable",
      "type": "function"
    },
    {
      "inputs": [
        {
          "internalType": "uint32",
          "name": "idCommande",
          "type": "uint32"
        },
        {
          "internalType": "address",
          "name": "transporteur",
          "type": "address"
        }
      ],
      "name": "choisirTransporteurCommandeProduit",
      "outputs": [],
      "stateMutability": "nonpayable",
      "type": "function"
    },
    {
      "inputs": [
        {
          "internalType": "uint32",
          "name": "",
          "type": "uint32"
        }
      ],
      "name": "commandes",
      "outputs": [
        {
          "internalType": "uint32",
          "name": "id",
          "type": "uint32"
        },
        {
          "internalType": "uint32",
          "name": "idLotProduit",
          "type": "uint32"
        },
        {
          "internalType": "uint32",
          "name": "quantite",
          "type": "uint32"
        },
        {
          "internalType": "uint32",
          "name": "prix",
          "type": "uint32"
        },
        {
          "internalType": "bool",
          "name": "payer",
          "type": "bool"
        },
        {
          "internalType": "enum StructLib.StatutTransport",
          "name": "statutTransport",
          "type": "uint8"
        },
        {
          "internalType": "address",
          "name": "collecteur",
          "type": "address"
        },
        {
          "internalType": "address",
          "name": "exportateur",
          "type": "address"
        },
        {
          "internalType": "enum StructLib.StatutProduit",
          "name": "statutProduit",
          "type": "uint8"
        },
        {
          "internalType": "bool",
          "name": "enregistre",
          "type": "bool"
        },
        {
          "internalType": "bool",
          "name": "enregistrerCondition",
          "type": "bool"
        },
        {
          "internalType": "address",
          "name": "transporteur",
          "type": "address"
        }
      ],
      "stateMutability": "view",
      "type": "function"
    },
    {
      "inputs": [],
      "name": "compteurCommandes",
      "outputs": [
        {
          "internalType": "uint32",
          "name": "",
          "type": "uint32"
        }
      ],
      "stateMutability": "view",
      "type": "function"
    },
    {
      "inputs": [],
      "name": "compteurLotProduits",
      "outputs": [
        {
          "internalType": "uint32",
          "name": "",
          "type": "uint32"
        }
      ],
      "stateMutability": "view",
      "type": "function"
    },
    {
      "inputs": [],
      "name": "compteurProduits",
      "outputs": [
        {
          "internalType": "uint32",
          "name": "",
          "type": "uint32"
        }
      ],
      "stateMutability": "view",
      "type": "function"
    },
    {
      "inputs": [
        {
          "internalType": "uint32",
          "name": "",
          "type": "uint32"
        }
      ],
      "name": "conditions",
      "outputs": [
        {
          "internalType": "uint32",
          "name": "id",
          "type": "uint32"
        },
        {
          "internalType": "string",
          "name": "cid",
          "type": "string"
        },
        {
          "internalType": "uint256",
          "name": "timestamp",
          "type": "uint256"
        },
        {
          "internalType": "bytes32",
          "name": "hashMerkle",
          "type": "bytes32"
        }
      ],
      "stateMutability": "view",
      "type": "function"
    },
    {
      "inputs": [
        {
          "internalType": "uint32",
          "name": "_idCommande",
          "type": "uint32"
        },
        {
          "internalType": "uint32",
          "name": "_montant",
          "type": "uint32"
        },
        {
          "internalType": "enum StructLib.ModePaiement",
          "name": "_mode",
          "type": "uint8"
        }
      ],
      "name": "effectuerPaiement",
      "outputs": [],
      "stateMutability": "payable",
      "type": "function"
    },
    {
      "inputs": [
        {
          "internalType": "uint32",
          "name": "_idCommande",
          "type": "uint32"
        },
        {
          "internalType": "bool",
          "name": "_enregistre",
          "type": "bool"
        },
        {
          "internalType": "address",
          "name": "_appelleur",
          "type": "address"
        }
      ],
      "name": "enregistrerCommande",
      "outputs": [],
      "stateMutability": "nonpayable",
      "type": "function"
    },
    {
      "inputs": [
        {
          "internalType": "uint32",
          "name": "_idCommande",
          "type": "uint32"
        },
        {
          "internalType": "string",
          "name": "_cid",
          "type": "string"
        }
      ],
      "name": "enregistrerCondition",
      "outputs": [],
      "stateMutability": "nonpayable",
      "type": "function"
    },
    {
      "inputs": [],
      "name": "gestionnaireActeurs",
      "outputs": [
        {
          "internalType": "contract GestionnaireActeurs",
          "name": "",
          "type": "address"
        }
      ],
      "stateMutability": "view",
      "type": "function"
    },
    {
      "inputs": [
        {
          "internalType": "uint32",
          "name": "id",
          "type": "uint32"
        }
      ],
      "name": "getCommande",
      "outputs": [
        {
          "components": [
            {
              "internalType": "uint32",
              "name": "id",
              "type": "uint32"
            },
            {
              "internalType": "uint32",
              "name": "idLotProduit",
              "type": "uint32"
            },
            {
              "internalType": "uint32",
              "name": "quantite",
              "type": "uint32"
            },
            {
              "internalType": "uint32",
              "name": "prix",
              "type": "uint32"
            },
            {
              "internalType": "bool",
              "name": "payer",
              "type": "bool"
            },
            {
              "internalType": "enum StructLib.StatutTransport",
              "name": "statutTransport",
              "type": "uint8"
            },
            {
              "internalType": "address",
              "name": "collecteur",
              "type": "address"
            },
            {
              "internalType": "address",
              "name": "exportateur",
              "type": "address"
            },
            {
              "internalType": "enum StructLib.StatutProduit",
              "name": "statutProduit",
              "type": "uint8"
            },
            {
              "internalType": "bool",
              "name": "enregistre",
              "type": "bool"
            },
            {
              "internalType": "bool",
              "name": "enregistrerCondition",
              "type": "bool"
            },
            {
              "internalType": "address",
              "name": "transporteur",
              "type": "address"
            }
          ],
          "internalType": "struct StructLib.CommandeProduit",
          "name": "",
          "type": "tuple"
        }
      ],
      "stateMutability": "view",
      "type": "function"
    },
    {
      "inputs": [],
      "name": "getCompteurCommande",
      "outputs": [
        {
          "internalType": "uint32",
          "name": "",
          "type": "uint32"
        }
      ],
      "stateMutability": "view",
      "type": "function"
    },
    {
      "inputs": [],
      "name": "getCompteurCondition",
      "outputs": [
        {
          "internalType": "uint32",
          "name": "",
          "type": "uint32"
        }
      ],
      "stateMutability": "view",
      "type": "function"
    },
    {
      "inputs": [],
      "name": "getCompteurPaiement",
      "outputs": [
        {
          "internalType": "uint32",
          "name": "",
          "type": "uint32"
        }
      ],
      "stateMutability": "view",
      "type": "function"
    },
    {
      "inputs": [],
      "name": "getCompteurProduit",
      "outputs": [
        {
          "internalType": "uint32",
          "name": "",
          "type": "uint32"
        }
      ],
      "stateMutability": "view",
      "type": "function"
    },
    {
      "inputs": [
        {
          "internalType": "uint32",
          "name": "id",
          "type": "uint32"
        }
      ],
      "name": "getCondition",
      "outputs": [
        {
          "components": [
            {
              "internalType": "uint32",
              "name": "id",
              "type": "uint32"
            },
            {
              "internalType": "string",
              "name": "cid",
              "type": "string"
            },
            {
              "internalType": "uint256",
              "name": "timestamp",
              "type": "uint256"
            },
            {
              "internalType": "bytes32",
              "name": "hashMerkle",
              "type": "bytes32"
            }
          ],
          "internalType": "struct StructLib.EnregistrementCondition",
          "name": "",
          "type": "tuple"
        }
      ],
      "stateMutability": "view",
      "type": "function"
    },
    {
      "inputs": [
        {
          "internalType": "uint32",
          "name": "id",
          "type": "uint32"
        }
      ],
      "name": "getLotProduit",
      "outputs": [
        {
          "components": [
            {
              "internalType": "uint32",
              "name": "id",
              "type": "uint32"
            },
            {
              "internalType": "uint32[]",
              "name": "idRecolte",
              "type": "uint32[]"
            },
            {
              "internalType": "uint32[]",
              "name": "idCommandeRecoltes",
              "type": "uint32[]"
            },
            {
              "internalType": "uint32",
              "name": "quantite",
              "type": "uint32"
            },
            {
              "internalType": "uint32",
              "name": "prix",
              "type": "uint32"
            },
            {
              "internalType": "address",
              "name": "collecteur",
              "type": "address"
            },
            {
              "internalType": "string",
              "name": "cid",
              "type": "string"
            },
            {
              "internalType": "bytes32",
              "name": "hashMerkle",
              "type": "bytes32"
            }
          ],
          "internalType": "struct StructLib.LotProduit",
          "name": "",
          "type": "tuple"
        }
      ],
      "stateMutability": "view",
      "type": "function"
    },
    {
      "inputs": [
        {
          "internalType": "uint32",
          "name": "id",
          "type": "uint32"
        }
      ],
      "name": "getPaiement",
      "outputs": [
        {
          "components": [
            {
              "internalType": "uint32",
              "name": "id",
              "type": "uint32"
            },
            {
              "internalType": "address",
              "name": "payeur",
              "type": "address"
            },
            {
              "internalType": "address",
              "name": "vendeur",
              "type": "address"
            },
            {
              "internalType": "uint32",
              "name": "montant",
              "type": "uint32"
            },
            {
              "internalType": "enum StructLib.ModePaiement",
              "name": "mode",
              "type": "uint8"
            },
            {
              "internalType": "uint256",
              "name": "timestamp",
              "type": "uint256"
            },
            {
              "internalType": "string",
              "name": "hashMerkle",
              "type": "string"
            }
          ],
          "internalType": "struct StructLib.Paiement",
          "name": "",
          "type": "tuple"
        }
      ],
      "stateMutability": "view",
      "type": "function"
    },
    {
      "inputs": [
        {
          "internalType": "uint32",
          "name": "id",
          "type": "uint32"
        }
      ],
      "name": "getProduit",
      "outputs": [
        {
          "components": [
            {
              "internalType": "uint32",
              "name": "id",
              "type": "uint32"
            },
            {
              "internalType": "uint32",
              "name": "idRecolte",
              "type": "uint32"
            },
            {
              "internalType": "uint32",
              "name": "idCommandeRecolte",
              "type": "uint32"
            },
            {
              "internalType": "uint32",
              "name": "quantite",
              "type": "uint32"
            },
            {
              "internalType": "address",
              "name": "collecteur",
              "type": "address"
            },
            {
              "internalType": "bool",
              "name": "enregistre",
              "type": "bool"
            }
          ],
          "internalType": "struct StructLib.Produit",
          "name": "",
          "type": "tuple"
        }
      ],
      "stateMutability": "view",
      "type": "function"
    },
    {
      "inputs": [
        {
          "internalType": "address",
          "name": "_gestionnaireActeurs",
          "type": "address"
        }
      ],
      "name": "initialiser",
      "outputs": [],
      "stateMutability": "nonpayable",
      "type": "function"
    },
    {
      "inputs": [
        {
          "internalType": "uint32",
          "name": "",
          "type": "uint32"
        }
      ],
      "name": "lotProduits",
      "outputs": [
        {
          "internalType": "uint32",
          "name": "id",
          "type": "uint32"
        },
        {
          "internalType": "uint32",
          "name": "quantite",
          "type": "uint32"
        },
        {
          "internalType": "uint32",
          "name": "prix",
          "type": "uint32"
        },
        {
          "internalType": "address",
          "name": "collecteur",
          "type": "address"
        },
        {
          "internalType": "string",
          "name": "cid",
          "type": "string"
        },
        {
          "internalType": "bytes32",
          "name": "hashMerkle",
          "type": "bytes32"
        }
      ],
      "stateMutability": "view",
      "type": "function"
    },
    {
      "inputs": [
        {
          "internalType": "uint32",
          "name": "_idCommande",
          "type": "uint32"
        },
        {
          "internalType": "enum StructLib.StatutProduit",
          "name": "_status",
          "type": "uint8"
        }
      ],
      "name": "mettreAJourStatutCommande",
      "outputs": [],
      "stateMutability": "nonpayable",
      "type": "function"
    },
    {
      "inputs": [
        {
          "internalType": "uint32",
          "name": "_idCommande",
          "type": "uint32"
        },
        {
          "internalType": "enum StructLib.StatutTransport",
          "name": "_statut",
          "type": "uint8"
        }
      ],
      "name": "mettreAJourStatutTransport",
      "outputs": [],
      "stateMutability": "nonpayable",
      "type": "function"
    },
    {
      "inputs": [
        {
          "internalType": "uint32",
          "name": "",
          "type": "uint32"
        }
      ],
      "name": "paiements",
      "outputs": [
        {
          "internalType": "uint32",
          "name": "id",
          "type": "uint32"
        },
        {
          "internalType": "address",
          "name": "payeur",
          "type": "address"
        },
        {
          "internalType": "address",
          "name": "vendeur",
          "type": "address"
        },
        {
          "internalType": "uint32",
          "name": "montant",
          "type": "uint32"
        },
        {
          "internalType": "enum StructLib.ModePaiement",
          "name": "mode",
          "type": "uint8"
        },
        {
          "internalType": "uint256",
          "name": "timestamp",
          "type": "uint256"
        },
        {
          "internalType": "string",
          "name": "hashMerkle",
          "type": "string"
        }
      ],
      "stateMutability": "view",
      "type": "function"
    },
    {
      "inputs": [
        {
          "internalType": "uint32",
          "name": "_idLotProduit",
          "type": "uint32"
        },
        {
          "internalType": "uint32",
          "name": "_quantite",
          "type": "uint32"
        }
      ],
      "name": "passerCommande",
      "outputs": [],
      "stateMutability": "nonpayable",
      "type": "function"
    },
    {
      "inputs": [
        {
          "internalType": "uint32",
          "name": "",
          "type": "uint32"
        }
      ],
      "name": "produits",
      "outputs": [
        {
          "internalType": "uint32",
          "name": "id",
          "type": "uint32"
        },
        {
          "internalType": "uint32",
          "name": "idRecolte",
          "type": "uint32"
        },
        {
          "internalType": "uint32",
          "name": "idCommandeRecolte",
          "type": "uint32"
        },
        {
          "internalType": "uint32",
          "name": "quantite",
          "type": "uint32"
        },
        {
          "internalType": "address",
          "name": "collecteur",
          "type": "address"
        },
        {
          "internalType": "bool",
          "name": "enregistre",
          "type": "bool"
        }
      ],
      "stateMutability": "view",
      "type": "function"
    },
    {
      "inputs": [
        {
          "internalType": "address",
          "name": "_addr",
          "type": "address"
        }
      ],
      "name": "setGestionnaireActeurs",
      "outputs": [],
      "stateMutability": "nonpayable",
      "type": "function"
    },
    {
      "inputs": [
        {
          "internalType": "uint32",
          "name": "_idLotProduit",
          "type": "uint32"
        },
        {
          "internalType": "uint32",
          "name": "_prix",
          "type": "uint32"
        }
      ],
      "name": "setPriceProduit",
      "outputs": [],
      "stateMutability": "nonpayable",
      "type": "function"
    },
    {
      "stateMutability": "payable",
      "type": "receive"
    }
  ],
  "bytecode": "0x608060405234801561001057600080fd5b50615bb280620000216000396000f3fe6080604052600436106101d05760003560e01c80636f3fd6c5116100f75780639f86734011610095578063e6cab64c11610064578063e6cab64c146106de578063edd13163146106fa578063f6980cc914610725578063fdccf43314610765576101d7565b80639f86734014610621578063b9e91d701461064a578063ba9ba24014610673578063e550ef99146106b5576101d7565b806389c1ca53116100d157806389c1ca53146105795780638a16156e146105a257806393c2f9b4146105cb5780639e942cd4146105f6576101d7565b80636f3fd6c5146104c35780637babcffa1461050b5780638777654f1461054e576101d7565b806341fae4db1161016f5780634dafb5011161013e5780634dafb501146104095780634fbdf4fe146104325780635293ea511461045b578063693dff1f14610498576101d7565b806341fae4db146103225780634851ca821461035f578063488dee20146103a157806348d2cee0146103cc576101d7565b806315a3374c116101ab57806315a3374c1461026a5780632477b51014610293578063369064b9146102bc5780633e7a6049146102f9576101d7565b806241fb4e146101d957806301197018146102025780630b215e641461022d576101d7565b366101d757005b005b3480156101e557600080fd5b5061020060048036038101906101fb91906146e1565b610790565b005b34801561020e57600080fd5b50610217610987565b604051610224919061531b565b60405180910390f35b34801561023957600080fd5b50610254600480360381019061024f91906146b8565b6109a1565b60405161026191906152de565b60405180910390f35b34801561027657600080fd5b50610291600480360381019061028c9190614838565b610bf5565b005b34801561029f57600080fd5b506102ba60048036038101906102b5919061476c565b610dcc565b005b3480156102c857600080fd5b506102e360048036038101906102de91906146b8565b611016565b6040516102f09190615300565b60405180910390f35b34801561030557600080fd5b50610320600480360381019061031b91906145e7565b611157565b005b34801561032e57600080fd5b50610349600480360381019061034491906146b8565b61119b565b604051610356919061529a565b60405180910390f35b34801561036b57600080fd5b50610386600480360381019061038191906146b8565b6112a0565b60405161039896959493929190615505565b60405180910390f35b3480156103ad57600080fd5b506103b6611349565b6040516103c3919061531b565b60405180910390f35b3480156103d857600080fd5b506103f360048036038101906103ee91906146b8565b61135f565b60405161040091906152bc565b60405180910390f35b34801561041557600080fd5b50610430600480360381019061042b9190614838565b611605565b005b34801561043e57600080fd5b50610459600480360381019061045491906145e7565b611e92565b005b34801561046757600080fd5b50610482600480360381019061047d91906146b8565b611f0b565b60405161048f919061527e565b60405180910390f35b3480156104a457600080fd5b506104ad61223e565b6040516104ba919061531b565b60405180910390f35b3480156104cf57600080fd5b506104ea60048036038101906104e591906146b8565b612254565b6040516105029c9b9a99989796959493929190615566565b60405180910390f35b34801561051757600080fd5b50610532600480360381019061052d91906146b8565b612395565b6040516105459796959493929190615336565b60405180910390f35b34801561055a57600080fd5b506105636124cc565b604051610570919061531b565b60405180910390f35b34801561058557600080fd5b506105a0600480360381019061059b91906148c3565b6124e6565b005b3480156105ae57600080fd5b506105c960048036038101906105c491906147a8565b612725565b005b3480156105d757600080fd5b506105e0612969565b6040516105ed919061531b565b60405180910390f35b34801561060257600080fd5b5061060b612983565b604051610618919061517d565b60405180910390f35b34801561062d57600080fd5b506106486004803603810190610643919061471d565b6129a9565b005b34801561065657600080fd5b50610671600480360381019061066c9190614610565b612ac3565b005b34801561067f57600080fd5b5061069a600480360381019061069591906146b8565b613312565b6040516106ac9695949392919061549d565b60405180910390f35b3480156106c157600080fd5b506106dc60048036038101906106d791906147e4565b613426565b005b6106f860048036038101906106f39190614874565b613744565b005b34801561070657600080fd5b5061070f613f26565b60405161071c919061531b565b60405180910390f35b34801561073157600080fd5b5061074c600480360381019061074791906146b8565b613f3c565b60405161075c94939291906153f1565b60405180910390f35b34801561077157600080fd5b5061077a614004565b604051610787919061531b565b60405180910390f35b600660009054906101000a900473ffffffffffffffffffffffffffffffffffffffff1673ffffffffffffffffffffffffffffffffffffffff1663d1e47bb33360066040518363ffffffff1660e01b81526004016107ee929190615154565b60206040518083038186803b15801561080657600080fd5b505afa15801561081a573d6000803e3d6000fd5b505050506040513d601f19601f8201168201806040525081019061083e919061468f565b61087d576040517f08c379a00000000000000000000000000000000000000000000000000000000081526004016108749061523e565b60405180910390fd5b600560009054906101000a900463ffffffff1663ffffffff168263ffffffff1611156108a857600080fd5b3373ffffffffffffffffffffffffffffffffffffffff16600460008463ffffffff1663ffffffff16815260200190815260200160002060020160009054906101000a900473ffffffffffffffffffffffffffffffffffffffff1673ffffffffffffffffffffffffffffffffffffffff161461092257600080fd5b80600460008463ffffffff1663ffffffff16815260200190815260200160002060030160006101000a81548173ffffffffffffffffffffffffffffffffffffffff021916908373ffffffffffffffffffffffffffffffffffffffff1602179055505050565b6000600560049054906101000a900463ffffffff16905090565b6109a961401e565b600360008363ffffffff1663ffffffff1681526020019081526020016000206040518060e00160405290816000820160009054906101000a900463ffffffff1663ffffffff1663ffffffff1681526020016000820160049054906101000a900473ffffffffffffffffffffffffffffffffffffffff1673ffffffffffffffffffffffffffffffffffffffff1673ffffffffffffffffffffffffffffffffffffffff1681526020016001820160009054906101000a900473ffffffffffffffffffffffffffffffffffffffff1673ffffffffffffffffffffffffffffffffffffffff1673ffffffffffffffffffffffffffffffffffffffff1681526020016001820160149054906101000a900463ffffffff1663ffffffff1663ffffffff1681526020016001820160189054906101000a900460ff166002811115610b16577f4e487b7100000000000000000000000000000000000000000000000000000000600052602160045260246000fd5b6002811115610b4e577f4e487b7100000000000000000000000000000000000000000000000000000000600052602160045260246000fd5b815260200160028201548152602001600382018054610b6c90615931565b80601f0160208091040260200160405190810160405280929190818152602001828054610b9890615931565b8015610be55780601f10610bba57610100808354040283529160200191610be5565b820191906000526020600020905b815481529060010190602001808311610bc857829003601f168201915b5050505050815250509050919050565b600660009054906101000a900473ffffffffffffffffffffffffffffffffffffffff1673ffffffffffffffffffffffffffffffffffffffff1663d1e47bb33360036040518363ffffffff1660e01b8152600401610c53929190615154565b60206040518083038186803b158015610c6b57600080fd5b505afa158015610c7f573d6000803e3d6000fd5b505050506040513d601f19601f82011682018060405250810190610ca3919061468f565b610ce2576040517f08c379a0000000000000000000000000000000000000000000000000000000008152600401610cd99061521e565b60405180910390fd5b600560089054906101000a900463ffffffff1663ffffffff168263ffffffff161115610d0d57600080fd5b3373ffffffffffffffffffffffffffffffffffffffff16600160008463ffffffff1663ffffffff16815260200190815260200160002060030160089054906101000a900473ffffffffffffffffffffffffffffffffffffffff1673ffffffffffffffffffffffffffffffffffffffff1614610d8757600080fd5b80600160008463ffffffff1663ffffffff16815260200190815260200160002060030160046101000a81548163ffffffff021916908363ffffffff1602179055505050565b600660009054906101000a900473ffffffffffffffffffffffffffffffffffffffff1673ffffffffffffffffffffffffffffffffffffffff1663d1e47bb33360066040518363ffffffff1660e01b8152600401610e2a929190615154565b60206040518083038186803b158015610e4257600080fd5b505afa158015610e56573d6000803e3d6000fd5b505050506040513d601f19601f82011682018060405250810190610e7a919061468f565b610eb9576040517f08c379a0000000000000000000000000000000000000000000000000000000008152600401610eb09061523e565b60405180910390fd5b600180811115610ef2577f4e487b7100000000000000000000000000000000000000000000000000000000600052602160045260246000fd5b600460008463ffffffff1663ffffffff16815260200190815260200160002060000160119054906101000a900460ff166001811115610f5a577f4e487b7100000000000000000000000000000000000000000000000000000000600052602160045260246000fd5b14610f6457600080fd5b80600460008463ffffffff1663ffffffff16815260200190815260200160002060020160146101000a81548160ff02191690836002811115610fcf577f4e487b7100000000000000000000000000000000000000000000000000000000600052602160045260246000fd5b02179055508163ffffffff167fab130106cad960e950d3b5ff9c896fdd5af7f3144699e12c2c8429afd4abd7ab8260405161100a9190615198565b60405180910390a25050565b61101e6140cb565b6000808363ffffffff1663ffffffff1681526020019081526020016000206040518060c00160405290816000820160009054906101000a900463ffffffff1663ffffffff1663ffffffff1681526020016000820160049054906101000a900463ffffffff1663ffffffff1663ffffffff1681526020016000820160089054906101000a900463ffffffff1663ffffffff1663ffffffff16815260200160008201600c9054906101000a900463ffffffff1663ffffffff1663ffffffff1681526020016001820160009054906101000a900473ffffffffffffffffffffffffffffffffffffffff1673ffffffffffffffffffffffffffffffffffffffff1673ffffffffffffffffffffffffffffffffffffffff1681526020016001820160149054906101000a900460ff1615151515815250509050919050565b80600660006101000a81548173ffffffffffffffffffffffffffffffffffffffff021916908373ffffffffffffffffffffffffffffffffffffffff16021790555050565b6111a3614131565b600260008363ffffffff1663ffffffff1681526020019081526020016000206040518060800160405290816000820160009054906101000a900463ffffffff1663ffffffff1663ffffffff16815260200160018201805461120390615931565b80601f016020809104026020016040519081016040528092919081815260200182805461122f90615931565b801561127c5780601f106112515761010080835404028352916020019161127c565b820191906000526020600020905b81548152906001019060200180831161125f57829003601f168201915b50505050508152602001600282015481526020016003820154815250509050919050565b60006020528060005260406000206000915090508060000160009054906101000a900463ffffffff16908060000160049054906101000a900463ffffffff16908060000160089054906101000a900463ffffffff169080600001600c9054906101000a900463ffffffff16908060010160009054906101000a900473ffffffffffffffffffffffffffffffffffffffff16908060010160149054906101000a900460ff16905086565b600560009054906101000a900463ffffffff1681565b611367614162565b600160008363ffffffff1663ffffffff168152602001908152602001600020604051806101000160405290816000820160009054906101000a900463ffffffff1663ffffffff1663ffffffff1681526020016001820180548060200260200160405190810160405280929190818152602001828054801561143357602002820191906000526020600020906000905b82829054906101000a900463ffffffff1663ffffffff16815260200190600401906020826003010492830192600103820291508084116113f65790505b50505050508152602001600282018054806020026020016040519081016040528092919081815260200182805480156114b757602002820191906000526020600020906000905b82829054906101000a900463ffffffff1663ffffffff168152602001906004019060208260030104928301926001038202915080841161147a5790505b505050505081526020016003820160009054906101000a900463ffffffff1663ffffffff1663ffffffff1681526020016003820160049054906101000a900463ffffffff1663ffffffff1663ffffffff1681526020016003820160089054906101000a900473ffffffffffffffffffffffffffffffffffffffff1673ffffffffffffffffffffffffffffffffffffffff1673ffffffffffffffffffffffffffffffffffffffff16815260200160048201805461157290615931565b80601f016020809104026020016040519081016040528092919081815260200182805461159e90615931565b80156115eb5780601f106115c0576101008083540402835291602001916115eb565b820191906000526020600020905b8154815290600101906020018083116115ce57829003601f168201915b505050505081526020016005820154815250509050919050565b600660009054906101000a900473ffffffffffffffffffffffffffffffffffffffff1673ffffffffffffffffffffffffffffffffffffffff1663d1e47bb33360066040518363ffffffff1660e01b8152600401611663929190615154565b60206040518083038186803b15801561167b57600080fd5b505afa15801561168f573d6000803e3d6000fd5b505050506040513d601f19601f820116820180604052508101906116b3919061468f565b6116f2576040517f08c379a00000000000000000000000000000000000000000000000000000000081526004016116e99061523e565b60405180910390fd5b600160008363ffffffff1663ffffffff16815260200190815260200160002060030160009054906101000a900463ffffffff1663ffffffff168163ffffffff16111561173d57600080fd5b6000600160008463ffffffff1663ffffffff16815260200190815260200160002060030160049054906101000a900463ffffffff168261177d9190615763565b9050600082600160008663ffffffff1663ffffffff16815260200190815260200160002060030160009054906101000a900463ffffffff166117bf91906157a1565b905080600160008663ffffffff1663ffffffff16815260200190815260200160002060030160006101000a81548163ffffffff021916908363ffffffff1602179055506005600081819054906101000a900463ffffffff168092919061182490615963565b91906101000a81548163ffffffff021916908363ffffffff16021790555050604051806101800160405280600560009054906101000a900463ffffffff1663ffffffff1681526020018563ffffffff1681526020018463ffffffff1681526020018363ffffffff168152602001600015158152602001600060018111156118d4577f4e487b7100000000000000000000000000000000000000000000000000000000600052602160045260246000fd5b8152602001600160008763ffffffff1663ffffffff16815260200190815260200160002060030160089054906101000a900473ffffffffffffffffffffffffffffffffffffffff1673ffffffffffffffffffffffffffffffffffffffff1681526020013373ffffffffffffffffffffffffffffffffffffffff1681526020016000600281111561198d577f4e487b7100000000000000000000000000000000000000000000000000000000600052602160045260246000fd5b8152602001600015158152602001600015158152602001600073ffffffffffffffffffffffffffffffffffffffff1681525060046000600560009054906101000a900463ffffffff1663ffffffff1663ffffffff16815260200190815260200160002060008201518160000160006101000a81548163ffffffff021916908363ffffffff16021790555060208201518160000160046101000a81548163ffffffff021916908363ffffffff16021790555060408201518160000160086101000a81548163ffffffff021916908363ffffffff160217905550606082015181600001600c6101000a81548163ffffffff021916908363ffffffff16021790555060808201518160000160106101000a81548160ff02191690831515021790555060a08201518160000160116101000a81548160ff02191690836001811115611afd577f4e487b7100000000000000000000000000000000000000000000000000000000600052602160045260246000fd5b021790555060c08201518160010160006101000a81548173ffffffffffffffffffffffffffffffffffffffff021916908373ffffffffffffffffffffffffffffffffffffffff16021790555060e08201518160020160006101000a81548173ffffffffffffffffffffffffffffffffffffffff021916908373ffffffffffffffffffffffffffffffffffffffff1602179055506101008201518160020160146101000a81548160ff02191690836002811115611be2577f4e487b7100000000000000000000000000000000000000000000000000000000600052602160045260246000fd5b02179055506101208201518160020160156101000a81548160ff0219169083151502179055506101408201518160020160166101000a81548160ff0219169083151502179055506101608201518160030160006101000a81548173ffffffffffffffffffffffffffffffffffffffff021916908373ffffffffffffffffffffffffffffffffffffffff1602179055509050503373ffffffffffffffffffffffffffffffffffffffff16600160008663ffffffff1663ffffffff16815260200190815260200160002060030160089054906101000a900473ffffffffffffffffffffffffffffffffffffffff1673ffffffffffffffffffffffffffffffffffffffff161415611e3e57600160046000600560009054906101000a900463ffffffff1663ffffffff1663ffffffff16815260200190815260200160002060000160116101000a81548160ff02191690836001811115611d68577f4e487b7100000000000000000000000000000000000000000000000000000000600052602160045260246000fd5b0217905550600160046000600560009054906101000a900463ffffffff1663ffffffff1663ffffffff16815260200190815260200160002060020160146101000a81548160ff02191690836002811115611deb577f4e487b7100000000000000000000000000000000000000000000000000000000600052602160045260246000fd5b0217905550600160046000600560009054906101000a900463ffffffff1663ffffffff1663ffffffff16815260200190815260200160002060000160106101000a81548160ff0219169083151502179055505b3373ffffffffffffffffffffffffffffffffffffffff167fa0e84f4dba1ea97bb938c4d3ff9475e68dacbd58f3086c672b0605ad53d76dc185604051611e84919061531b565b60405180910390a250505050565b6005600c9054906101000a900460ff1615611eac57600080fd5b80600660006101000a81548173ffffffffffffffffffffffffffffffffffffffff021916908373ffffffffffffffffffffffffffffffffffffffff16021790555060016005600c6101000a81548160ff02191690831515021790555050565b611f136141d2565b600460008363ffffffff1663ffffffff168152602001908152602001600020604051806101800160405290816000820160009054906101000a900463ffffffff1663ffffffff1663ffffffff1681526020016000820160049054906101000a900463ffffffff1663ffffffff1663ffffffff1681526020016000820160089054906101000a900463ffffffff1663ffffffff1663ffffffff16815260200160008201600c9054906101000a900463ffffffff1663ffffffff1663ffffffff1681526020016000820160109054906101000a900460ff161515151581526020016000820160119054906101000a900460ff16600181111561203c577f4e487b7100000000000000000000000000000000000000000000000000000000600052602160045260246000fd5b6001811115612074577f4e487b7100000000000000000000000000000000000000000000000000000000600052602160045260246000fd5b81526020016001820160009054906101000a900473ffffffffffffffffffffffffffffffffffffffff1673ffffffffffffffffffffffffffffffffffffffff1673ffffffffffffffffffffffffffffffffffffffff1681526020016002820160009054906101000a900473ffffffffffffffffffffffffffffffffffffffff1673ffffffffffffffffffffffffffffffffffffffff1673ffffffffffffffffffffffffffffffffffffffff1681526020016002820160149054906101000a900460ff16600281111561216f577f4e487b7100000000000000000000000000000000000000000000000000000000600052602160045260246000fd5b60028111156121a7577f4e487b7100000000000000000000000000000000000000000000000000000000600052602160045260246000fd5b81526020016002820160159054906101000a900460ff161515151581526020016002820160169054906101000a900460ff161515151581526020016003820160009054906101000a900473ffffffffffffffffffffffffffffffffffffffff1673ffffffffffffffffffffffffffffffffffffffff1673ffffffffffffffffffffffffffffffffffffffff16815250509050919050565b600560089054906101000a900463ffffffff1681565b60046020528060005260406000206000915090508060000160009054906101000a900463ffffffff16908060000160049054906101000a900463ffffffff16908060000160089054906101000a900463ffffffff169080600001600c9054906101000a900463ffffffff16908060000160109054906101000a900460ff16908060000160119054906101000a900460ff16908060010160009054906101000a900473ffffffffffffffffffffffffffffffffffffffff16908060020160009054906101000a900473ffffffffffffffffffffffffffffffffffffffff16908060020160149054906101000a900460ff16908060020160159054906101000a900460ff16908060020160169054906101000a900460ff16908060030160009054906101000a900473ffffffffffffffffffffffffffffffffffffffff1690508c565b60036020528060005260406000206000915090508060000160009054906101000a900463ffffffff16908060000160049054906101000a900473ffffffffffffffffffffffffffffffffffffffff16908060010160009054906101000a900473ffffffffffffffffffffffffffffffffffffffff16908060010160149054906101000a900463ffffffff16908060010160189054906101000a900460ff169080600201549080600301805461244990615931565b80601f016020809104026020016040519081016040528092919081815260200182805461247590615931565b80156124c25780601f10612497576101008083540402835291602001916124c2565b820191906000526020600020905b8154815290600101906020018083116124a557829003601f168201915b5050505050905087565b6000600560009054906101000a900463ffffffff16905090565b6005600481819054906101000a900463ffffffff168092919061250890615963565b91906101000a81548163ffffffff021916908363ffffffff160217905550506040518060c00160405280600560049054906101000a900463ffffffff1663ffffffff1681526020018463ffffffff1681526020018563ffffffff1681526020018363ffffffff1681526020018273ffffffffffffffffffffffffffffffffffffffff16815260200160001515815250600080600560049054906101000a900463ffffffff1663ffffffff1663ffffffff16815260200190815260200160002060008201518160000160006101000a81548163ffffffff021916908363ffffffff16021790555060208201518160000160046101000a81548163ffffffff021916908363ffffffff16021790555060408201518160000160086101000a81548163ffffffff021916908363ffffffff160217905550606082015181600001600c6101000a81548163ffffffff021916908363ffffffff16021790555060808201518160010160006101000a81548173ffffffffffffffffffffffffffffffffffffffff021916908373ffffffffffffffffffffffffffffffffffffffff16021790555060a08201518160010160146101000a81548160ff021916908315150217905550905050600560049054906101000a900463ffffffff1663ffffffff167f3d078b1c3921ddadb756791c1a070b903bcb0cd941a1df4de6eed059fb6e06db838560405161271792919061543d565b60405180910390a250505050565b600660009054906101000a900473ffffffffffffffffffffffffffffffffffffffff1673ffffffffffffffffffffffffffffffffffffffff1663d1e47bb33360056040518363ffffffff1660e01b8152600401612783929190615154565b60206040518083038186803b15801561279b57600080fd5b505afa1580156127af573d6000803e3d6000fd5b505050506040513d601f19601f820116820180604052508101906127d3919061468f565b612812576040517f08c379a00000000000000000000000000000000000000000000000000000000081526004016128099061525e565b60405180910390fd5b600560009054906101000a900463ffffffff1663ffffffff168263ffffffff16111561283d57600080fd5b3373ffffffffffffffffffffffffffffffffffffffff16600460008463ffffffff1663ffffffff16815260200190815260200160002060030160009054906101000a900473ffffffffffffffffffffffffffffffffffffffff1673ffffffffffffffffffffffffffffffffffffffff16146128b757600080fd5b80600460008463ffffffff1663ffffffff16815260200190815260200160002060000160116101000a81548160ff02191690836001811115612922577f4e487b7100000000000000000000000000000000000000000000000000000000600052602160045260246000fd5b02179055508163ffffffff167ff84820c84ecbec116ee0604a91f0bec4a5d5926d8d5189a13f57fc30951d4b918260405161295d91906151b3565b60405180910390a25050565b6000600560009054906101000a900463ffffffff16905090565b600660009054906101000a900473ffffffffffffffffffffffffffffffffffffffff1681565b600560009054906101000a900463ffffffff1663ffffffff168363ffffffff161115612a0a576040517f08c379a0000000000000000000000000000000000000000000000000000000008152600401612a01906151fe565b60405180910390fd5b8073ffffffffffffffffffffffffffffffffffffffff16600460008563ffffffff1663ffffffff16815260200190815260200160002060020160009054906101000a900473ffffffffffffffffffffffffffffffffffffffff1673ffffffffffffffffffffffffffffffffffffffff1614612a8457600080fd5b81600460008563ffffffff1663ffffffff16815260200190815260200160002060020160156101000a81548160ff021916908315150217905550505050565b600660009054906101000a900473ffffffffffffffffffffffffffffffffffffffff1673ffffffffffffffffffffffffffffffffffffffff1663d1e47bb33360036040518363ffffffff1660e01b8152600401612b21929190615154565b60206040518083038186803b158015612b3957600080fd5b505afa158015612b4d573d6000803e3d6000fd5b505050506040513d601f19601f82011682018060405250810190612b71919061468f565b612bb0576040517f08c379a0000000000000000000000000000000000000000000000000000000008152600401612ba79061521e565b60405180910390fd5b6000835167ffffffffffffffff811115612bf3577f4e487b7100000000000000000000000000000000000000000000000000000000600052604160045260246000fd5b604051908082528060200260200182016040528015612c215781602001602082028036833780820191505090505b5090506000845167ffffffffffffffff811115612c67577f4e487b7100000000000000000000000000000000000000000000000000000000600052604160045260246000fd5b604051908082528060200260200182016040528015612c955781602001602082028036833780820191505090505b5090506000805b86518163ffffffff161015612fc557600560049054906101000a900463ffffffff1663ffffffff16878263ffffffff1681518110612d03577f4e487b7100000000000000000000000000000000000000000000000000000000600052603260045260246000fd5b602002602001015163ffffffff161115612d1c57600080fd5b6000806000898463ffffffff1681518110612d60577f4e487b7100000000000000000000000000000000000000000000000000000000600052603260045260246000fd5b602002602001015163ffffffff1663ffffffff1681526020019081526020016000206040518060c00160405290816000820160009054906101000a900463ffffffff1663ffffffff1663ffffffff1681526020016000820160049054906101000a900463ffffffff1663ffffffff1663ffffffff1681526020016000820160089054906101000a900463ffffffff1663ffffffff1663ffffffff16815260200160008201600c9054906101000a900463ffffffff1663ffffffff1663ffffffff1681526020016001820160009054906101000a900473ffffffffffffffffffffffffffffffffffffffff1673ffffffffffffffffffffffffffffffffffffffff1673ffffffffffffffffffffffffffffffffffffffff1681526020016001820160149054906101000a900460ff16151515158152505090508060200151858363ffffffff1681518110612edc577f4e487b7100000000000000000000000000000000000000000000000000000000600052603260045260246000fd5b602002602001019063ffffffff16908163ffffffff16815250508060400151848363ffffffff1681518110612f3a577f4e487b7100000000000000000000000000000000000000000000000000000000600052603260045260246000fd5b602002602001019063ffffffff16908163ffffffff1681525050806060015183612f649190615729565b92503373ffffffffffffffffffffffffffffffffffffffff16816080015173ffffffffffffffffffffffffffffffffffffffff1614612fa257600080fd5b8060a0015115612fb157600080fd5b508080612fbd90615963565b915050612c9c565b506005600881819054906101000a900463ffffffff1680929190612fe890615963565b91906101000a81548163ffffffff021916908363ffffffff16021790555050600085334286866040516020016130229594939291906150b7565b60405160208183030381529060405280519060200120905060005b87518163ffffffff1610156130df5760016000808a8463ffffffff1681518110613090577f4e487b7100000000000000000000000000000000000000000000000000000000600052603260045260246000fd5b602002602001015163ffffffff1663ffffffff16815260200190815260200160002060010160146101000a81548160ff02191690831515021790555080806130d790615963565b91505061303d565b50604051806101000160405280600560089054906101000a900463ffffffff1663ffffffff1681526020018581526020018481526020018363ffffffff1681526020018663ffffffff1681526020013373ffffffffffffffffffffffffffffffffffffffff1681526020018781526020018281525060016000600560089054906101000a900463ffffffff1663ffffffff1663ffffffff16815260200190815260200160002060008201518160000160006101000a81548163ffffffff021916908363ffffffff16021790555060208201518160010190805190602001906131c8929190614303565b5060408201518160020190805190602001906131e5929190614303565b5060608201518160030160006101000a81548163ffffffff021916908363ffffffff16021790555060808201518160030160046101000a81548163ffffffff021916908363ffffffff16021790555060a08201518160030160086101000a81548173ffffffffffffffffffffffffffffffffffffffff021916908373ffffffffffffffffffffffffffffffffffffffff16021790555060c08201518160040190805190602001906132979291906143b3565b5060e082015181600501559050503373ffffffffffffffffffffffffffffffffffffffff167f499d3f5837e61d77a364db177a5e0ba2d02b9a2316f1264fffa374d94a9a12b1600560089054906101000a900463ffffffff16848860405161330193929190615466565b60405180910390a250505050505050565b60016020528060005260406000206000915090508060000160009054906101000a900463ffffffff16908060030160009054906101000a900463ffffffff16908060030160049054906101000a900463ffffffff16908060030160089054906101000a900473ffffffffffffffffffffffffffffffffffffffff169080600401805461339d90615931565b80601f01602080910402602001604051908101604052809291908181526020018280546133c990615931565b80156134165780601f106133eb57610100808354040283529160200191613416565b820191906000526020600020905b8154815290600101906020018083116133f957829003601f168201915b5050505050908060050154905086565b600660009054906101000a900473ffffffffffffffffffffffffffffffffffffffff1673ffffffffffffffffffffffffffffffffffffffff1663d1e47bb33360056040518363ffffffff1660e01b8152600401613484929190615154565b60206040518083038186803b15801561349c57600080fd5b505afa1580156134b0573d6000803e3d6000fd5b505050506040513d601f19601f820116820180604052508101906134d4919061468f565b613513576040517f08c379a000000000000000000000000000000000000000000000000000000000815260040161350a9061525e565b60405180910390fd5b600560009054906101000a900463ffffffff1663ffffffff168263ffffffff16111561353e57600080fd5b600460008363ffffffff1663ffffffff16815260200190815260200160002060020160169054906101000a900460ff161561357857600080fd5b3373ffffffffffffffffffffffffffffffffffffffff16600460008463ffffffff1663ffffffff16815260200190815260200160002060030160009054906101000a900473ffffffffffffffffffffffffffffffffffffffff1673ffffffffffffffffffffffffffffffffffffffff16146135f257600080fd5b60008282334260405160200161360b949392919061510a565b6040516020818303038152906040528051906020012090506001600460008563ffffffff1663ffffffff16815260200190815260200160002060020160166101000a81548160ff02191690831515021790555060405180608001604052808463ffffffff16815260200183815260200142815260200182815250600260008563ffffffff1663ffffffff16815260200190815260200160002060008201518160000160006101000a81548163ffffffff021916908363ffffffff16021790555060208201518160010190805190602001906136e79291906143b3565b5060408201518160020155606082015181600301559050508263ffffffff167f85a6dd7e3bffc328a15679316ce7c104a56122ec56d15beab290adac6fceda1883426040516137379291906151ce565b60405180910390a2505050565b600660009054906101000a900473ffffffffffffffffffffffffffffffffffffffff1673ffffffffffffffffffffffffffffffffffffffff1663d1e47bb33360066040518363ffffffff1660e01b81526004016137a2929190615154565b60206040518083038186803b1580156137ba57600080fd5b505afa1580156137ce573d6000803e3d6000fd5b505050506040513d601f19601f820116820180604052508101906137f2919061468f565b613831576040517f08c379a00000000000000000000000000000000000000000000000000000000081526004016138289061523e565b60405180910390fd5b600060016000600460008763ffffffff1663ffffffff16815260200190815260200160002060000160049054906101000a900463ffffffff1663ffffffff1663ffffffff168152602001908152602001600020604051806101000160405290816000820160009054906101000a900463ffffffff1663ffffffff1663ffffffff1681526020016001820180548060200260200160405190810160405280929190818152602001828054801561393157602002820191906000526020600020906000905b82829054906101000a900463ffffffff1663ffffffff16815260200190600401906020826003010492830192600103820291508084116138f45790505b50505050508152602001600282018054806020026020016040519081016040528092919081815260200182805480156139b557602002820191906000526020600020906000905b82829054906101000a900463ffffffff1663ffffffff16815260200190600401906020826003010492830192600103820291508084116139785790505b505050505081526020016003820160009054906101000a900463ffffffff1663ffffffff1663ffffffff1681526020016003820160049054906101000a900463ffffffff1663ffffffff1663ffffffff1681526020016003820160089054906101000a900473ffffffffffffffffffffffffffffffffffffffff1673ffffffffffffffffffffffffffffffffffffffff1673ffffffffffffffffffffffffffffffffffffffff168152602001600482018054613a7090615931565b80601f0160208091040260200160405190810160405280929190818152602001828054613a9c90615931565b8015613ae95780601f10613abe57610100808354040283529160200191613ae9565b820191906000526020600020905b815481529060010190602001808311613acc57829003601f168201915b505050505081526020016005820154815250509050600460008563ffffffff1663ffffffff168152602001908152602001600020600001600c9054906101000a900463ffffffff1663ffffffff168363ffffffff1614613b4857600080fd5b600460008563ffffffff1663ffffffff16815260200190815260200160002060000160109054906101000a900460ff1615613b8257600080fd5b60016002811115613bbc577f4e487b7100000000000000000000000000000000000000000000000000000000600052602160045260246000fd5b600460008663ffffffff1663ffffffff16815260200190815260200160002060020160149054906101000a900460ff166002811115613c24577f4e487b7100000000000000000000000000000000000000000000000000000000600052602160045260246000fd5b14613c2e57600080fd5b6001600460008663ffffffff1663ffffffff16815260200190815260200160002060000160106101000a81548160ff0219169083151502179055506040518060e001604052808563ffffffff1681526020013373ffffffffffffffffffffffffffffffffffffffff168152602001600460008763ffffffff1663ffffffff16815260200190815260200160002060010160009054906101000a900473ffffffffffffffffffffffffffffffffffffffff1673ffffffffffffffffffffffffffffffffffffffff1681526020018463ffffffff168152602001836002811115613d3f577f4e487b7100000000000000000000000000000000000000000000000000000000600052602160045260246000fd5b815260200142815260200160405180602001604052806000815250815250600360008663ffffffff1663ffffffff16815260200190815260200160002060008201518160000160006101000a81548163ffffffff021916908363ffffffff16021790555060208201518160000160046101000a81548173ffffffffffffffffffffffffffffffffffffffff021916908373ffffffffffffffffffffffffffffffffffffffff16021790555060408201518160010160006101000a81548173ffffffffffffffffffffffffffffffffffffffff021916908373ffffffffffffffffffffffffffffffffffffffff16021790555060608201518160010160146101000a81548163ffffffff021916908363ffffffff16021790555060808201518160010160186101000a81548160ff02191690836002811115613ea9577f4e487b7100000000000000000000000000000000000000000000000000000000600052602160045260246000fd5b021790555060a0820151816002015560c0820151816003019080519060200190613ed49291906143b3565b50905050806000015163ffffffff167fd9f037670aada9b07156110dd936887c158e5cd6f7932663cc64ef336e44cf9f85338686604051613f1894939291906153ac565b60405180910390a250505050565b600560049054906101000a900463ffffffff1681565b60026020528060005260406000206000915090508060000160009054906101000a900463ffffffff1690806001018054613f7590615931565b80601f0160208091040260200160405190810160405280929190818152602001828054613fa190615931565b8015613fee5780601f10613fc357610100808354040283529160200191613fee565b820191906000526020600020905b815481529060010190602001808311613fd157829003601f168201915b5050505050908060020154908060030154905084565b6000600560009054906101000a900463ffffffff16905090565b6040518060e00160405280600063ffffffff168152602001600073ffffffffffffffffffffffffffffffffffffffff168152602001600073ffffffffffffffffffffffffffffffffffffffff168152602001600063ffffffff168152602001600060028111156140b7577f4e487b7100000000000000000000000000000000000000000000000000000000600052602160045260246000fd5b815260200160008152602001606081525090565b6040518060c00160405280600063ffffffff168152602001600063ffffffff168152602001600063ffffffff168152602001600063ffffffff168152602001600073ffffffffffffffffffffffffffffffffffffffff1681526020016000151581525090565b6040518060800160405280600063ffffffff1681526020016060815260200160008152602001600080191681525090565b604051806101000160405280600063ffffffff1681526020016060815260200160608152602001600063ffffffff168152602001600063ffffffff168152602001600073ffffffffffffffffffffffffffffffffffffffff16815260200160608152602001600080191681525090565b604051806101800160405280600063ffffffff168152602001600063ffffffff168152602001600063ffffffff168152602001600063ffffffff16815260200160001515815260200160006001811115614255577f4e487b7100000000000000000000000000000000000000000000000000000000600052602160045260246000fd5b8152602001600073ffffffffffffffffffffffffffffffffffffffff168152602001600073ffffffffffffffffffffffffffffffffffffffff168152602001600060028111156142ce577f4e487b7100000000000000000000000000000000000000000000000000000000600052602160045260246000fd5b8152602001600015158152602001600015158152602001600073ffffffffffffffffffffffffffffffffffffffff1681525090565b828054828255906000526020600020906007016008900481019282156143a25791602002820160005b8382111561437057835183826101000a81548163ffffffff021916908363ffffffff160217905550926020019260040160208160030104928301926001030261432c565b80156143a05782816101000a81549063ffffffff0219169055600401602081600301049283019260010302614370565b505b5090506143af9190614439565b5090565b8280546143bf90615931565b90600052602060002090601f0160209004810192826143e15760008555614428565b82601f106143fa57805160ff1916838001178555614428565b82800160010185558215614428579182015b8281111561442757825182559160200191906001019061440c565b5b5090506144359190614439565b5090565b5b8082111561445257600081600090555060010161443a565b5090565b600061446961446484615651565b615620565b9050808382526020820190508285602086028201111561448857600080fd5b60005b858110156144b8578161449e88826145d2565b84526020840193506020830192505060018101905061448b565b5050509392505050565b60006144d56144d08461567d565b615620565b9050828152602081018484840111156144ed57600080fd5b6144f88482856158ef565b509392505050565b60008135905061450f81615b07565b92915050565b600082601f83011261452657600080fd5b8135614536848260208601614456565b91505092915050565b60008135905061454e81615b1e565b92915050565b60008151905061456381615b1e565b92915050565b60008135905061457881615b35565b92915050565b60008135905061458d81615b45565b92915050565b6000813590506145a281615b55565b92915050565b600082601f8301126145b957600080fd5b81356145c98482602086016144c2565b91505092915050565b6000813590506145e181615b65565b92915050565b6000602082840312156145f957600080fd5b600061460784828501614500565b91505092915050565b60008060006060848603121561462557600080fd5b600084013567ffffffffffffffff81111561463f57600080fd5b61464b86828701614515565b935050602084013567ffffffffffffffff81111561466857600080fd5b614674868287016145a8565b9250506040614685868287016145d2565b9150509250925092565b6000602082840312156146a157600080fd5b60006146af84828501614554565b91505092915050565b6000602082840312156146ca57600080fd5b60006146d8848285016145d2565b91505092915050565b600080604083850312156146f457600080fd5b6000614702858286016145d2565b925050602061471385828601614500565b9150509250929050565b60008060006060848603121561473257600080fd5b6000614740868287016145d2565b93505060206147518682870161453f565b925050604061476286828701614500565b9150509250925092565b6000806040838503121561477f57600080fd5b600061478d858286016145d2565b925050602061479e8582860161457e565b9150509250929050565b600080604083850312156147bb57600080fd5b60006147c9858286016145d2565b92505060206147da85828601614593565b9150509250929050565b600080604083850312156147f757600080fd5b6000614805858286016145d2565b925050602083013567ffffffffffffffff81111561482257600080fd5b61482e858286016145a8565b9150509250929050565b6000806040838503121561484b57600080fd5b6000614859858286016145d2565b925050602061486a858286016145d2565b9150509250929050565b60008060006060848603121561488957600080fd5b6000614897868287016145d2565b93505060206148a8868287016145d2565b92505060406148b986828701614569565b9150509250925092565b600080600080608085870312156148d957600080fd5b60006148e7878288016145d2565b94505060206148f8878288016145d2565b9350506040614909878288016145d2565b925050606061491a87828801614500565b91505092959194509250565b60006149328383615073565b60208301905092915050565b600061494a8383615091565b60208301905092915050565b61495f816157d5565b82525050565b61496e816157d5565b82525050565b614985614980826157d5565b615990565b82525050565b6000614996826156bd565b6149a081856156e0565b93506149ab836156ad565b8060005b838110156149dc5781516149c38882614926565b97506149ce836156d3565b9250506001810190506149af565b5085935050505092915050565b60006149f4826156bd565b6149fe81856156f1565b9350614a09836156ad565b8060005b83811015614a3a578151614a21888261493e565b9750614a2c836156d3565b925050600181019050614a0d565b5085935050505092915050565b614a50816157e7565b82525050565b614a5f816157e7565b82525050565b614a6e816157f3565b82525050565b614a7d816157f3565b82525050565b614a8c81615883565b82525050565b614a9b816158a7565b82525050565b614aaa816158a7565b82525050565b614ab9816158b9565b82525050565b614ac8816158cb565b82525050565b614ad7816158cb565b82525050565b614ae6816158dd565b82525050565b614af5816158dd565b82525050565b6000614b06826156c8565b614b1081856156fc565b9350614b208185602086016158fe565b614b2981615a8c565b840191505092915050565b6000614b3f826156c8565b614b49818561570d565b9350614b598185602086016158fe565b614b6281615a8c565b840191505092915050565b6000614b78826156c8565b614b82818561571e565b9350614b928185602086016158fe565b80840191505092915050565b6000614bab60198361570d565b91507f4c6120636f6d6d616e6465206e27657869737465207061732e000000000000006000830152602082019050919050565b6000614beb60228361570d565b91507f4e6f6e206175746f726973653a207365756c656d656e7420436f6c6c6563746560008301527f75720000000000000000000000000000000000000000000000000000000000006020830152604082019050919050565b6000614c5160238361570d565b91507f4e6f6e206175746f726973653a207365756c656d656e74204578706f7274617460008301527f65757200000000000000000000000000000000000000000000000000000000006020830152604082019050919050565b6000614cb760248361570d565b91507f4e6f6e206175746f726973653a207365756c656d656e74205472616e73706f7260008301527f74657572000000000000000000000000000000000000000000000000000000006020830152604082019050919050565b61018082016000820151614d276000850182615073565b506020820151614d3a6020850182615073565b506040820151614d4d6040850182615073565b506060820151614d606060850182615073565b506080820151614d736080850182614a47565b5060a0820151614d8660a0850182614add565b5060c0820151614d9960c0850182614956565b5060e0820151614dac60e0850182614956565b50610100820151614dc1610100850182614abf565b50610120820151614dd6610120850182614a47565b50610140820151614deb610140850182614a47565b50610160820151614e00610160850182614956565b50505050565b6000608083016000830151614e1e6000860182615073565b5060208301518482036020860152614e368282614afb565b9150506040830151614e4b604086018261503e565b506060830151614e5e6060860182614a65565b508091505092915050565b600061010083016000830151614e826000860182615073565b5060208301518482036020860152614e9a828261498b565b91505060408301518482036040860152614eb4828261498b565b9150506060830151614ec96060860182615073565b506080830151614edc6080860182615073565b5060a0830151614eef60a0860182614956565b5060c083015184820360c0860152614f078282614afb565b91505060e0830151614f1c60e0860182614a65565b508091505092915050565b600060e083016000830151614f3f6000860182615073565b506020830151614f526020860182614956565b506040830151614f656040860182614956565b506060830151614f786060860182615073565b506080830151614f8b6080860182614a92565b5060a0830151614f9e60a086018261503e565b5060c083015184820360c0860152614fb68282614afb565b9150508091505092915050565b60c082016000820151614fd96000850182615073565b506020820151614fec6020850182615073565b506040820151614fff6040850182615073565b5060608201516150126060850182615073565b5060808201516150256080850182614956565b5060a082015161503860a0850182614a47565b50505050565b61504781615869565b82525050565b61505681615869565b82525050565b61506d61506882615869565b6159b4565b82525050565b61507c81615873565b82525050565b61508b81615873565b82525050565b61509a81615873565b82525050565b6150b16150ac82615873565b6159be565b82525050565b60006150c38288614b6d565b91506150cf8287614974565b6014820191506150df828661505c565b6020820191506150ef82856149e9565b91506150fb82846149e9565b91508190509695505050505050565b600061511682876150a0565b6004820191506151268286614b6d565b91506151328285614974565b601482019150615142828461505c565b60208201915081905095945050505050565b60006040820190506151696000830185614965565b6151766020830184614ab0565b9392505050565b60006020820190506151926000830184614a83565b92915050565b60006020820190506151ad6000830184614ace565b92915050565b60006020820190506151c86000830184614aec565b92915050565b600060408201905081810360008301526151e88185614b34565b90506151f7602083018461504d565b9392505050565b6000602082019050818103600083015261521781614b9e565b9050919050565b6000602082019050818103600083015261523781614bde565b9050919050565b6000602082019050818103600083015261525781614c44565b9050919050565b6000602082019050818103600083015261527781614caa565b9050919050565b6000610180820190506152946000830184614d10565b92915050565b600060208201905081810360008301526152b48184614e06565b905092915050565b600060208201905081810360008301526152d68184614e69565b905092915050565b600060208201905081810360008301526152f88184614f27565b905092915050565b600060c0820190506153156000830184614fc3565b92915050565b60006020820190506153306000830184615082565b92915050565b600060e08201905061534b600083018a615082565b6153586020830189614965565b6153656040830188614965565b6153726060830187615082565b61537f6080830186614aa1565b61538c60a083018561504d565b81810360c083015261539e8184614b34565b905098975050505050505050565b60006080820190506153c16000830187615082565b6153ce6020830186614965565b6153db6040830185615082565b6153e86060830184614aa1565b95945050505050565b60006080820190506154066000830187615082565b81810360208301526154188186614b34565b9050615427604083018561504d565b6154346060830184614a74565b95945050505050565b60006040820190506154526000830185615082565b61545f6020830184615082565b9392505050565b600060608201905061547b6000830186615082565b6154886020830185615082565b6154956040830184615082565b949350505050565b600060c0820190506154b26000830189615082565b6154bf6020830188615082565b6154cc6040830187615082565b6154d96060830186614965565b81810360808301526154eb8185614b34565b90506154fa60a0830184614a74565b979650505050505050565b600060c08201905061551a6000830189615082565b6155276020830188615082565b6155346040830187615082565b6155416060830186615082565b61554e6080830185614965565b61555b60a0830184614a56565b979650505050505050565b60006101808201905061557c600083018f615082565b615589602083018e615082565b615596604083018d615082565b6155a3606083018c615082565b6155b0608083018b614a56565b6155bd60a083018a614aec565b6155ca60c0830189614965565b6155d760e0830188614965565b6155e5610100830187614ace565b6155f3610120830186614a56565b615601610140830185614a56565b61560f610160830184614965565b9d9c50505050505050505050505050565b6000604051905081810181811067ffffffffffffffff8211171561564757615646615a5d565b5b8060405250919050565b600067ffffffffffffffff82111561566c5761566b615a5d565b5b602082029050602081019050919050565b600067ffffffffffffffff82111561569857615697615a5d565b5b601f19601f8301169050602081019050919050565b6000819050602082019050919050565b600081519050919050565b600081519050919050565b6000602082019050919050565b600082825260208201905092915050565b600081905092915050565b600082825260208201905092915050565b600082825260208201905092915050565b600081905092915050565b600061573482615873565b915061573f83615873565b92508263ffffffff03821115615758576157576159d0565b5b828201905092915050565b600061576e82615873565b915061577983615873565b92508163ffffffff0483118215151615615796576157956159d0565b5b828202905092915050565b60006157ac82615873565b91506157b783615873565b9250828210156157ca576157c96159d0565b5b828203905092915050565b60006157e082615849565b9050919050565b60008115159050919050565b6000819050919050565b600081905061580b82615ab7565b919050565b600081905061581e82615acb565b919050565b600081905061583182615adf565b919050565b600081905061584482615af3565b919050565b600073ffffffffffffffffffffffffffffffffffffffff82169050919050565b6000819050919050565b600063ffffffff82169050919050565b600061588e82615895565b9050919050565b60006158a082615849565b9050919050565b60006158b2826157fd565b9050919050565b60006158c482615810565b9050919050565b60006158d682615823565b9050919050565b60006158e882615836565b9050919050565b82818337600083830152505050565b60005b8381101561591c578082015181840152602081019050615901565b8381111561592b576000848401525b50505050565b6000600282049050600182168061594957607f821691505b6020821081141561595d5761595c615a2e565b5b50919050565b600061596e82615873565b915063ffffffff821415615985576159846159d0565b5b600182019050919050565b600061599b826159a2565b9050919050565b60006159ad82615aaa565b9050919050565b6000819050919050565b60006159c982615a9d565b9050919050565b7f4e487b7100000000000000000000000000000000000000000000000000000000600052601160045260246000fd5b7f4e487b7100000000000000000000000000000000000000000000000000000000600052602160045260246000fd5b7f4e487b7100000000000000000000000000000000000000000000000000000000600052602260045260246000fd5b7f4e487b7100000000000000000000000000000000000000000000000000000000600052604160045260246000fd5b6000601f19601f8301169050919050565b60008160e01b9050919050565b60008160601b9050919050565b60038110615ac857615ac76159ff565b5b50565b60088110615adc57615adb6159ff565b5b50565b60038110615af057615aef6159ff565b5b50565b60028110615b0457615b036159ff565b5b50565b615b10816157d5565b8114615b1b57600080fd5b50565b615b27816157e7565b8114615b3257600080fd5b50565b60038110615b4257600080fd5b50565b60038110615b5257600080fd5b50565b60028110615b6257600080fd5b50565b615b6e81615873565b8114615b7957600080fd5b5056fea26469706673582212204b5314b5e79f6b39a3ddb044513d849767d0558d0ee2c0fb97ad84c7d655af7364736f6c63430008000033",
  "linkReferences": {},
  "deployedLinkReferences": {}
}