{
  "_format": "hh-sol-artifact-1",
  "contractName": "ContratProxy",
  "sourceName": "contracts/contratProxy.sol",
  "abi": [
    {
      "inputs": [
        {
          "internalType": "address",
          "name": "_implementation",
          "type": "address"
        }
      ],
      "stateMutability": "nonpayable",
      "type": "constructor"
    },
    {
      "stateMutability": "payable",
      "type": "fallback"
    },
    {
      "inputs": [],
      "name": "implementation",
      "outputs": [
        {
          "internalType": "address",
          "name": "",
          "type": "address"
        }
      ],
      "stateMutability": "view",
      "type": "function"
    },
    {
      "inputs": [
        {
          "internalType": "address",
          "name": "_newImplementation",
          "type": "address"
        }
      ],
      "name": "updateImplementation",
      "outputs": [],
      "stateMutability": "nonpayable",
      "type": "function"
    },
    {
      "stateMutability": "payable",
      "type": "receive"
    }
  ],
  "bytecode": "0x608060405234801561001057600080fd5b506040516104123803806104128339818101604052810190610032919061008d565b806000806101000a81548173ffffffffffffffffffffffffffffffffffffffff021916908373ffffffffffffffffffffffffffffffffffffffff160217905550506100ff565b600081519050610087816100e8565b92915050565b60006020828403121561009f57600080fd5b60006100ad84828501610078565b91505092915050565b60006100c1826100c8565b9050919050565b600073ffffffffffffffffffffffffffffffffffffffff82169050919050565b6100f1816100b6565b81146100fc57600080fd5b50565b6103048061010e6000396000f3fe60806040526004361061002d5760003560e01c8063025b22bc146100f15780635c60da1b1461011a57610034565b3661003457005b60008060009054906101000a900473ffffffffffffffffffffffffffffffffffffffff169050600073ffffffffffffffffffffffffffffffffffffffff168173ffffffffffffffffffffffffffffffffffffffff1614156100ca576040517f08c379a00000000000000000000000000000000000000000000000000000000081526004016100c190610254565b60405180910390fd5b60405136600082376000803683855af43d806000843e81600081146100ed578184f35b8184fd5b3480156100fd57600080fd5b50610118600480360381019061011391906101c1565b610145565b005b34801561012657600080fd5b5061012f610188565b60405161013c9190610239565b60405180910390f35b806000806101000a81548173ffffffffffffffffffffffffffffffffffffffff021916908373ffffffffffffffffffffffffffffffffffffffff16021790555050565b60008054906101000a900473ffffffffffffffffffffffffffffffffffffffff1681565b6000813590506101bb816102b7565b92915050565b6000602082840312156101d357600080fd5b60006101e1848285016101ac565b91505092915050565b6101f381610285565b82525050565b6000610206601f83610274565b91507f496d706c656d656e746174696f6e20636f6e7472616374206e6f7420736574006000830152602082019050919050565b600060208201905061024e60008301846101ea565b92915050565b6000602082019050818103600083015261026d816101f9565b9050919050565b600082825260208201905092915050565b600061029082610297565b9050919050565b600073ffffffffffffffffffffffffffffffffffffffff82169050919050565b6102c081610285565b81146102cb57600080fd5b5056fea264697066735822122048a3ab1c0b064ac5d5e7e81cc63c87b5a1e82d500298945844626a3bd99341a864736f6c63430008000033",
  "linkReferences": {},
  "deployedLinkReferences": {}
}