{
  "_format": "hh-sol-artifact-1",
  "contractName": "ContratProxy",
  "sourceName": "contracts/contratProxy.sol",
  "abi": [
    {
      "inputs": [
        {
          "internalType": "address",
          "name": "_implementation",
          "type": "address"
        }
      ],
      "stateMutability": "nonpayable",
      "type": "constructor"
    },
    {
      "stateMutability": "payable",
      "type": "fallback"
    },
    {
      "inputs": [
        {
          "internalType": "address",
          "name": "_newImpl",
          "type": "address"
        }
      ],
      "name": "updateImplementation",
      "outputs": [],
      "stateMutability": "nonpayable",
      "type": "function"
    },
    {
      "stateMutability": "payable",
      "type": "receive"
    }
  ],
  "bytecode": "0x608060405234801561001057600080fd5b5060405161038438038061038483398181016040528101906100329190610070565b807f360894a13ba1a3210667c828492db98dca3e2076cc3735a920a3ca505d382bbc55506100e2565b60008151905061006a816100cb565b92915050565b60006020828403121561008257600080fd5b60006100908482850161005b565b91505092915050565b60006100a4826100ab565b9050919050565b600073ffffffffffffffffffffffffffffffffffffffff82169050919050565b6100d481610099565b81146100df57600080fd5b50565b610293806100f16000396000f3fe6080604052600436106100225760003560e01c8063025b22bc146100a057610029565b3661002957005b7f360894a13ba1a3210667c828492db98dca3e2076cc3735a920a3ca505d382bbc548061007a577f4e6f496d706c000000000000000000000000000000000000000000000000000060005260066000fd5b3660008037600080366000845af43d6000803e806000811461009b573d6000f35b3d6000fd5b3480156100ac57600080fd5b506100c760048036038101906100c2919061017a565b6100c9565b005b60008173ffffffffffffffffffffffffffffffffffffffff16803b806020016040519081016040528181526000908060200190933c511161013f576040517f08c379a0000000000000000000000000000000000000000000000000000000008152600401610136906101e3565b60405180910390fd5b807f360894a13ba1a3210667c828492db98dca3e2076cc3735a920a3ca505d382bbc5550565b60008135905061017481610246565b92915050565b60006020828403121561018c57600080fd5b600061019a84828501610165565b91505092915050565b60006101b0600f83610203565b91507f496e76616c6964206164647265737300000000000000000000000000000000006000830152602082019050919050565b600060208201905081810360008301526101fc816101a3565b9050919050565b600082825260208201905092915050565b600061021f82610226565b9050919050565b600073ffffffffffffffffffffffffffffffffffffffff82169050919050565b61024f81610214565b811461025a57600080fd5b5056fea2646970667358221220058724fcd71d4a448eb3e9909af222c54bb7742cdaaac834a883b8f46e06de9b64736f6c63430008000033",
  "linkReferences": {},
  "deployedLinkReferences": {}
}