{
  "_format": "hh-sol-artifact-1",
  "contractName": "ExportateurClient",
  "sourceName": "contracts/ExportateurClient.sol",
  "abi": [
    {
      "anonymous": false,
      "inputs": [
        {
          "indexed": true,
          "internalType": "address",
          "name": "exportateur",
          "type": "address"
        },
        {
          "indexed": false,
          "internalType": "uint32",
          "name": "idArticle",
          "type": "uint32"
        },
        {
          "indexed": false,
          "internalType": "uint32",
          "name": "quantite",
          "type": "uint32"
        },
        {
          "indexed": false,
          "internalType": "uint32",
          "name": "prix",
          "type": "uint32"
        }
      ],
      "name": "AjoutArticle",
      "type": "event"
    },
    {
      "stateMutability": "payable",
      "type": "fallback"
    },
    {
      "inputs": [
        {
          "internalType": "uint32[]",
          "name": "_idCommandeProduits",
          "type": "uint32[]"
        },
        {
          "internalType": "uint32",
          "name": "_prix",
          "type": "uint32"
        },
        {
          "internalType": "string",
          "name": "_cid",
          "type": "string"
        },
        {
          "internalType": "string",
          "name": "_hashMerkle",
          "type": "string"
        }
      ],
      "name": "ajoutArticle",
      "outputs": [],
      "stateMutability": "nonpayable",
      "type": "function"
    },
    {
      "inputs": [
        {
          "internalType": "uint32",
          "name": "",
          "type": "uint32"
        }
      ],
      "name": "articles",
      "outputs": [
        {
          "internalType": "uint32",
          "name": "id",
          "type": "uint32"
        },
        {
          "internalType": "string",
          "name": "ref",
          "type": "string"
        },
        {
          "internalType": "uint32",
          "name": "quantite",
          "type": "uint32"
        },
        {
          "internalType": "uint32",
          "name": "prix",
          "type": "uint32"
        },
        {
          "internalType": "address",
          "name": "exportateur",
          "type": "address"
        },
        {
          "internalType": "string",
          "name": "cid",
          "type": "string"
        },
        {
          "internalType": "string",
          "name": "hashMerkle",
          "type": "string"
        }
      ],
      "stateMutability": "view",
      "type": "function"
    },
    {
      "inputs": [],
      "name": "collecteurExportateur",
      "outputs": [
        {
          "internalType": "contract CollecteurExportateur",
          "name": "",
          "type": "address"
        }
      ],
      "stateMutability": "view",
      "type": "function"
    },
    {
      "inputs": [],
      "name": "compteurArticles",
      "outputs": [
        {
          "internalType": "uint32",
          "name": "",
          "type": "uint32"
        }
      ],
      "stateMutability": "view",
      "type": "function"
    },
    {
      "inputs": [],
      "name": "gestionnaireActeurs",
      "outputs": [
        {
          "internalType": "contract GestionnaireActeurs",
          "name": "",
          "type": "address"
        }
      ],
      "stateMutability": "view",
      "type": "function"
    },
    {
      "inputs": [
        {
          "internalType": "uint32",
          "name": "id",
          "type": "uint32"
        }
      ],
      "name": "getArticle",
      "outputs": [
        {
          "components": [
            {
              "internalType": "uint32",
              "name": "id",
              "type": "uint32"
            },
            {
              "internalType": "string",
              "name": "ref",
              "type": "string"
            },
            {
              "internalType": "uint32[]",
              "name": "idLotProduit",
              "type": "uint32[]"
            },
            {
              "internalType": "uint32",
              "name": "quantite",
              "type": "uint32"
            },
            {
              "internalType": "uint32",
              "name": "prix",
              "type": "uint32"
            },
            {
              "internalType": "address",
              "name": "exportateur",
              "type": "address"
            },
            {
              "internalType": "string",
              "name": "cid",
              "type": "string"
            },
            {
              "internalType": "string",
              "name": "hashMerkle",
              "type": "string"
            }
          ],
          "internalType": "struct StructLib.Article",
          "name": "",
          "type": "tuple"
        }
      ],
      "stateMutability": "view",
      "type": "function"
    },
    {
      "inputs": [],
      "name": "getCompteurArticles",
      "outputs": [
        {
          "internalType": "uint32",
          "name": "",
          "type": "uint32"
        }
      ],
      "stateMutability": "view",
      "type": "function"
    },
    {
      "inputs": [
        {
          "internalType": "address",
          "name": "_gestionnaireActeurs",
          "type": "address"
        },
        {
          "internalType": "address payable",
          "name": "_collecteurExportateur",
          "type": "address"
        }
      ],
      "name": "initialiser",
      "outputs": [],
      "stateMutability": "nonpayable",
      "type": "function"
    },
    {
      "inputs": [
        {
          "internalType": "address payable",
          "name": "_addr",
          "type": "address"
        }
      ],
      "name": "setCollecteurExportateur",
      "outputs": [],
      "stateMutability": "nonpayable",
      "type": "function"
    },
    {
      "inputs": [
        {
          "internalType": "address",
          "name": "_addr",
          "type": "address"
        }
      ],
      "name": "setGestionnaireActeurs",
      "outputs": [],
      "stateMutability": "nonpayable",
      "type": "function"
    },
    {
      "inputs": [
        {
          "internalType": "uint32",
          "name": "_idArticle",
          "type": "uint32"
        },
        {
          "internalType": "uint32",
          "name": "_prix",
          "type": "uint32"
        }
      ],
      "name": "setPriceArticle",
      "outputs": [],
      "stateMutability": "nonpayable",
      "type": "function"
    },
    {
      "stateMutability": "payable",
      "type": "receive"
    }
  ],
  "bytecode": "0x608060405234801561001057600080fd5b50612be1806100206000396000f3fe6080604052600436106100a05760003560e01c8063704cdb7e11610064578063704cdb7e146101a4578063771c4a51146101cd57806380844fba146101f857806382b9ca46146102215780639e942cd41461024c578063eb072cd414610277576100a7565b80632cb0d412146100a957806337a43847146100ec5780633e7a6049146101295780634a13dac7146101525780634bb43c351461017b576100a7565b366100a757005b005b3480156100b557600080fd5b506100d060048036038101906100cb9190611e3e565b6102a2565b6040516100e39796959493929190612568565b60405180910390f35b3480156100f857600080fd5b50610113600480360381019061010e9190611e3e565b6104cc565b6040516101209190612502565b60405180910390f35b34801561013557600080fd5b50610150600480360381019061014b9190611c9b565b610807565b005b34801561015e57600080fd5b5061017960048036038101906101749190611d29565b61084b565b005b34801561018757600080fd5b506101a2600480360381019061019d9190611cc4565b611055565b005b3480156101b057600080fd5b506101cb60048036038101906101c69190611e67565b611099565b005b3480156101d957600080fd5b506101e26113c6565b6040516101ef9190612524565b60405180910390f35b34801561020457600080fd5b5061021f600480360381019061021a9190611ced565b6113e0565b005b34801561022d57600080fd5b506102366114d0565b6040516102439190612524565b60405180910390f35b34801561025857600080fd5b506102616114e6565b60405161026e9190612407565b60405180910390f35b34801561028357600080fd5b5061028c61150c565b60405161029991906123ec565b60405180910390f35b60006020528060005260406000206000915090508060000160009054906101000a900463ffffffff16908060010180546102db90612977565b80601f016020809104026020016040519081016040528092919081815260200182805461030790612977565b80156103545780601f1061032957610100808354040283529160200191610354565b820191906000526020600020905b81548152906001019060200180831161033757829003601f168201915b5050505050908060030160009054906101000a900463ffffffff16908060030160049054906101000a900463ffffffff16908060030160089054906101000a900473ffffffffffffffffffffffffffffffffffffffff16908060040180546103bb90612977565b80601f01602080910402602001604051908101604052809291908181526020018280546103e790612977565b80156104345780601f1061040957610100808354040283529160200191610434565b820191906000526020600020905b81548152906001019060200180831161041757829003601f168201915b50505050509080600501805461044990612977565b80601f016020809104026020016040519081016040528092919081815260200182805461047590612977565b80156104c25780601f10610497576101008083540402835291602001916104c2565b820191906000526020600020905b8154815290600101906020018083116104a557829003601f168201915b5050505050905087565b6104d4611797565b6000808363ffffffff1663ffffffff168152602001908152602001600020604051806101000160405290816000820160009054906101000a900463ffffffff1663ffffffff1663ffffffff16815260200160018201805461053490612977565b80601f016020809104026020016040519081016040528092919081815260200182805461056090612977565b80156105ad5780601f10610582576101008083540402835291602001916105ad565b820191906000526020600020905b81548152906001019060200180831161059057829003601f168201915b505050505081526020016002820180548060200260200160405190810160405280929190818152602001828054801561063157602002820191906000526020600020906000905b82829054906101000a900463ffffffff1663ffffffff16815260200190600401906020826003010492830192600103820291508084116105f45790505b505050505081526020016003820160009054906101000a900463ffffffff1663ffffffff1663ffffffff1681526020016003820160049054906101000a900463ffffffff1663ffffffff1663ffffffff1681526020016003820160089054906101000a900473ffffffffffffffffffffffffffffffffffffffff1673ffffffffffffffffffffffffffffffffffffffff1673ffffffffffffffffffffffffffffffffffffffff1681526020016004820180546106ec90612977565b80601f016020809104026020016040519081016040528092919081815260200182805461071890612977565b80156107655780601f1061073a57610100808354040283529160200191610765565b820191906000526020600020905b81548152906001019060200180831161074857829003601f168201915b5050505050815260200160058201805461077e90612977565b80601f01602080910402602001604051908101604052809291908181526020018280546107aa90612977565b80156107f75780601f106107cc576101008083540402835291602001916107f7565b820191906000526020600020905b8154815290600101906020018083116107da57829003601f168201915b5050505050815250509050919050565b80600160056101000a81548173ffffffffffffffffffffffffffffffffffffffff021916908373ffffffffffffffffffffffffffffffffffffffff16021790555050565b600160059054906101000a900473ffffffffffffffffffffffffffffffffffffffff1673ffffffffffffffffffffffffffffffffffffffff1663d1e47bb33360066040518363ffffffff1660e01b81526004016108a99291906123c3565b60206040518083038186803b1580156108c157600080fd5b505afa1580156108d5573d6000803e3d6000fd5b505050506040513d601f19601f820116820180604052508101906108f99190611dd4565b610938576040517f08c379a000000000000000000000000000000000000000000000000000000000815260040161092f906124e2565b60405180910390fd5b600160059054906101000a900473ffffffffffffffffffffffffffffffffffffffff1673ffffffffffffffffffffffffffffffffffffffff16639f7d7f4533306040518363ffffffff1660e01b815260040161099592919061239a565b60206040518083038186803b1580156109ad57600080fd5b505afa1580156109c1573d6000803e3d6000fd5b505050506040513d601f19601f820116820180604052508101906109e59190611dd4565b610a24576040517f08c379a0000000000000000000000000000000000000000000000000000000008152600401610a1b90612482565b60405180910390fd5b6000845167ffffffffffffffff811115610a67577f4e487b7100000000000000000000000000000000000000000000000000000000600052604160045260246000fd5b604051908082528060200260200182016040528015610a955781602001602082028036833780820191505090505b5090506000805b8651811015610ccd576000600260009054906101000a900473ffffffffffffffffffffffffffffffffffffffff1673ffffffffffffffffffffffffffffffffffffffff16635293ea51898481518110610b1e577f4e487b7100000000000000000000000000000000000000000000000000000000600052603260045260246000fd5b60200260200101516040518263ffffffff1660e01b8152600401610b429190612524565b60006040518083038186803b158015610b5a57600080fd5b505afa158015610b6e573d6000803e3d6000fd5b505050506040513d6000823e3d601f19601f82011682018060405250810190610b979190611dfd565b90508060200151848381518110610bd7577f4e487b7100000000000000000000000000000000000000000000000000000000600052603260045260246000fd5b602002602001019063ffffffff16908163ffffffff1681525050806040015183610c019190612721565b92508060800151610c47576040517f08c379a0000000000000000000000000000000000000000000000000000000008152600401610c3e906124a2565b60405180910390fd5b3373ffffffffffffffffffffffffffffffffffffffff168160e0015173ffffffffffffffffffffffffffffffffffffffff1614610cb9576040517f08c379a0000000000000000000000000000000000000000000000000000000008152600401610cb090612422565b60405180910390fd5b508080610cc5906129a9565b915050610a9c565b506001600081819054906101000a900463ffffffff1680929190610cf0906129f2565b91906101000a81548163ffffffff021916908363ffffffff1602179055505060005b86518163ffffffff161015610e0a57600260009054906101000a900473ffffffffffffffffffffffffffffffffffffffff1673ffffffffffffffffffffffffffffffffffffffff1663c4c8d194888363ffffffff1681518110610d9e577f4e487b7100000000000000000000000000000000000000000000000000000000600052603260045260246000fd5b602002602001015160016040518363ffffffff1660e01b8152600401610dc592919061253f565b600060405180830381600087803b158015610ddf57600080fd5b505af1158015610df3573d6000803e3d6000fd5b505050508080610e02906129f2565b915050610d12565b50604051806101000160405280600160009054906101000a900463ffffffff1663ffffffff168152602001610e3d611532565b81526020018381526020018263ffffffff1681526020018663ffffffff1681526020013373ffffffffffffffffffffffffffffffffffffffff16815260200185815260200184815250600080600160009054906101000a900463ffffffff1663ffffffff1663ffffffff16815260200190815260200160002060008201518160000160006101000a81548163ffffffff021916908363ffffffff1602179055506020820151816001019080519060200190610ef9929190611804565b506040820151816002019080519060200190610f1692919061188a565b5060608201518160030160006101000a81548163ffffffff021916908363ffffffff16021790555060808201518160030160046101000a81548163ffffffff021916908363ffffffff16021790555060a08201518160030160086101000a81548173ffffffffffffffffffffffffffffffffffffffff021916908373ffffffffffffffffffffffffffffffffffffffff16021790555060c0820151816004019080519060200190610fc8929190611804565b5060e0820151816005019080519060200190610fe5929190611804565b509050503373ffffffffffffffffffffffffffffffffffffffff167fac99a946d149ad7965440d306b135d791a1b84bf070e7ed1400131a45233426a600160009054906101000a900463ffffffff168388604051611045939291906125ec565b60405180910390a2505050505050565b80600260006101000a81548173ffffffffffffffffffffffffffffffffffffffff021916908373ffffffffffffffffffffffffffffffffffffffff16021790555050565b600160059054906101000a900473ffffffffffffffffffffffffffffffffffffffff1673ffffffffffffffffffffffffffffffffffffffff1663d1e47bb33360066040518363ffffffff1660e01b81526004016110f79291906123c3565b60206040518083038186803b15801561110f57600080fd5b505afa158015611123573d6000803e3d6000fd5b505050506040513d601f19601f820116820180604052508101906111479190611dd4565b611186576040517f08c379a000000000000000000000000000000000000000000000000000000000815260040161117d906124e2565b60405180910390fd5b600160059054906101000a900473ffffffffffffffffffffffffffffffffffffffff1673ffffffffffffffffffffffffffffffffffffffff16639f7d7f4533306040518363ffffffff1660e01b81526004016111e392919061239a565b60206040518083038186803b1580156111fb57600080fd5b505afa15801561120f573d6000803e3d6000fd5b505050506040513d601f19601f820116820180604052508101906112339190611dd4565b611272576040517f08c379a000000000000000000000000000000000000000000000000000000000815260040161126990612482565b60405180910390fd5b600160009054906101000a900463ffffffff1663ffffffff168263ffffffff1611156112d3576040517f08c379a00000000000000000000000000000000000000000000000000000000081526004016112ca90612442565b60405180910390fd5b3373ffffffffffffffffffffffffffffffffffffffff166000808463ffffffff1663ffffffff16815260200190815260200160002060030160089054906101000a900473ffffffffffffffffffffffffffffffffffffffff1673ffffffffffffffffffffffffffffffffffffffff1614611382576040517f08c379a000000000000000000000000000000000000000000000000000000000815260040161137990612462565b60405180910390fd5b806000808463ffffffff1663ffffffff16815260200190815260200160002060030160046101000a81548163ffffffff021916908363ffffffff1602179055505050565b6000600160009054906101000a900463ffffffff16905090565b600160049054906101000a900460ff1615611430576040517f08c379a0000000000000000000000000000000000000000000000000000000008152600401611427906124c2565b60405180910390fd5b81600160056101000a81548173ffffffffffffffffffffffffffffffffffffffff021916908373ffffffffffffffffffffffffffffffffffffffff16021790555080600260006101000a81548173ffffffffffffffffffffffffffffffffffffffff021916908373ffffffffffffffffffffffffffffffffffffffff16021790555060018060046101000a81548160ff0219169083151502179055505050565b600160009054906101000a900463ffffffff1681565b600160059054906101000a900473ffffffffffffffffffffffffffffffffffffffff1681565b600260009054906101000a900473ffffffffffffffffffffffffffffffffffffffff1681565b606060018060008282829054906101000a900463ffffffff166115559190612721565b92506101000a81548163ffffffff021916908363ffffffff16021790555061157c426115c2565b61159d600160009054906101000a900463ffffffff1663ffffffff166115c2565b6040516020016115ae92919061236b565b604051602081830303815290604052905090565b6060600082141561160a576040518060400160405280600181526020017f30000000000000000000000000000000000000000000000000000000000000008152509050611792565b600082905060005b6000821461163c578080611625906129a9565b915050600a826116359190612792565b9150611612565b60008167ffffffffffffffff81111561167e577f4e487b7100000000000000000000000000000000000000000000000000000000600052604160045260246000fd5b6040519080825280601f01601f1916602001820160405280156116b05781602001600182028036833780820191505090505b50905060008290505b6000861461178a576001816116ce919061281d565b90506000600a80886116e09190612792565b6116ea91906127c3565b876116f5919061281d565b6030611701919061275b565b905060008160f81b905080848481518110611745577f4e487b7100000000000000000000000000000000000000000000000000000000600052603260045260246000fd5b60200101907effffffffffffffffffffffffffffffffffffffffffffffffffffffffffffff1916908160001a905350600a886117819190612792565b975050506116b9565b819450505050505b919050565b604051806101000160405280600063ffffffff1681526020016060815260200160608152602001600063ffffffff168152602001600063ffffffff168152602001600073ffffffffffffffffffffffffffffffffffffffff16815260200160608152602001606081525090565b82805461181090612977565b90600052602060002090601f0160209004810192826118325760008555611879565b82601f1061184b57805160ff1916838001178555611879565b82800160010185558215611879579182015b8281111561187857825182559160200191906001019061185d565b5b509050611886919061193a565b5090565b828054828255906000526020600020906007016008900481019282156119295791602002820160005b838211156118f757835183826101000a81548163ffffffff021916908363ffffffff16021790555092602001926004016020816003010492830192600103026118b3565b80156119275782816101000a81549063ffffffff02191690556004016020816003010492830192600103026118f7565b505b509050611936919061193a565b5090565b5b8082111561195357600081600090555060010161193b565b5090565b600061196a61196584612654565b612623565b9050808382526020820190508285602086028201111561198957600080fd5b60005b858110156119b9578161199f8882611c71565b84526020840193506020830192505060018101905061198c565b5050509392505050565b60006119d66119d184612680565b612623565b9050828152602081018484840111156119ee57600080fd5b6119f9848285612935565b509392505050565b6000611a14611a0f84612680565b612623565b905082815260208101848484011115611a2c57600080fd5b611a37848285612944565b509392505050565b600081359050611a4e81612b2f565b92915050565b600081519050611a6381612b2f565b92915050565b600081359050611a7881612b46565b92915050565b600082601f830112611a8f57600080fd5b8135611a9f848260208601611957565b91505092915050565b600081519050611ab781612b5d565b92915050565b600081519050611acc81612b74565b92915050565b600081519050611ae181612b84565b92915050565b600082601f830112611af857600080fd5b8135611b088482602086016119c3565b91505092915050565b600082601f830112611b2257600080fd5b8151611b32848260208601611a01565b91505092915050565b60006101808284031215611b4e57600080fd5b611b59610180612623565b90506000611b6984828501611c86565b6000830152506020611b7d84828501611c86565b6020830152506040611b9184828501611c86565b6040830152506060611ba584828501611c86565b6060830152506080611bb984828501611aa8565b60808301525060a0611bcd84828501611ad2565b60a08301525060c0611be184828501611a54565b60c08301525060e0611bf584828501611a54565b60e083015250610100611c0a84828501611abd565b6101008301525061012082015167ffffffffffffffff811115611c2c57600080fd5b611c3884828501611b11565b61012083015250610140611c4e84828501611aa8565b61014083015250610160611c6484828501611aa8565b6101608301525092915050565b600081359050611c8081612b94565b92915050565b600081519050611c9581612b94565b92915050565b600060208284031215611cad57600080fd5b6000611cbb84828501611a3f565b91505092915050565b600060208284031215611cd657600080fd5b6000611ce484828501611a69565b91505092915050565b60008060408385031215611d0057600080fd5b6000611d0e85828601611a3f565b9250506020611d1f85828601611a69565b9150509250929050565b60008060008060808587031215611d3f57600080fd5b600085013567ffffffffffffffff811115611d5957600080fd5b611d6587828801611a7e565b9450506020611d7687828801611c71565b935050604085013567ffffffffffffffff811115611d9357600080fd5b611d9f87828801611ae7565b925050606085013567ffffffffffffffff811115611dbc57600080fd5b611dc887828801611ae7565b91505092959194509250565b600060208284031215611de657600080fd5b6000611df484828501611aa8565b91505092915050565b600060208284031215611e0f57600080fd5b600082015167ffffffffffffffff811115611e2957600080fd5b611e3584828501611b3b565b91505092915050565b600060208284031215611e5057600080fd5b6000611e5e84828501611c71565b91505092915050565b60008060408385031215611e7a57600080fd5b6000611e8885828601611c71565b9250506020611e9985828601611c71565b9150509250929050565b6000611eaf838361234d565b60208301905092915050565b611ec481612851565b82525050565b611ed381612851565b82525050565b6000611ee4826126c0565b611eee81856126e3565b9350611ef9836126b0565b8060005b83811015611f2a578151611f118882611ea3565b9750611f1c836126d6565b925050600181019050611efd565b5085935050505092915050565b611f4081612875565b82525050565b611f4f816128db565b82525050565b611f5e816128ff565b82525050565b611f6d81612923565b82525050565b6000611f7e826126cb565b611f8881856126f4565b9350611f98818560208601612944565b611fa181612b0a565b840191505092915050565b6000611fb7826126cb565b611fc18185612705565b9350611fd1818560208601612944565b611fda81612b0a565b840191505092915050565b6000611ff0826126cb565b611ffa8185612716565b935061200a818560208601612944565b80840191505092915050565b6000612023601c83612705565b91507f566f7573206e27657374207061732070726f7072696574616972652e000000006000830152602082019050919050565b6000612063600383612716565b91507f41525400000000000000000000000000000000000000000000000000000000006000830152600382019050919050565b60006120a3600c83612705565b91507f496420696e636f727265637400000000000000000000000000000000000000006000830152602082019050919050565b60006120e3602d83612705565b91507f566f7573206e2765746573207061732070726f7072696574616972652064652060008301527f63657474652061727469636c65000000000000000000000000000000000000006020830152604082019050919050565b6000612149602183612705565b91507f4e6f6e206175746f726973653a20636f6e74726174206e6f6e2064656c65677560008301527f65000000000000000000000000000000000000000000000000000000000000006020830152604082019050919050565b60006121af601383612705565b91507f436f6d6d616e6465206e6f6e2070617965722e000000000000000000000000006000830152602082019050919050565b60006121ef601a83612705565b91507f436f6e747261742064656a6120696e697469616c6973657220210000000000006000830152602082019050919050565b600061222f602383612705565b91507f4e6f6e206175746f726973653a207365756c656d656e74204578706f7274617460008301527f65757200000000000000000000000000000000000000000000000000000000006020830152604082019050919050565b6000610100830160008301516122a1600086018261234d565b50602083015184820360208601526122b98282611f73565b915050604083015184820360408601526122d38282611ed9565b91505060608301516122e8606086018261234d565b5060808301516122fb608086018261234d565b5060a083015161230e60a0860182611ebb565b5060c083015184820360c08601526123268282611f73565b91505060e083015184820360e08601526123408282611f73565b9150508091505092915050565b612356816128be565b82525050565b612365816128be565b82525050565b600061237682612056565b91506123828285611fe5565b915061238e8284611fe5565b91508190509392505050565b60006040820190506123af6000830185611eca565b6123bc6020830184611eca565b9392505050565b60006040820190506123d86000830185611eca565b6123e56020830184611f64565b9392505050565b60006020820190506124016000830184611f46565b92915050565b600060208201905061241c6000830184611f55565b92915050565b6000602082019050818103600083015261243b81612016565b9050919050565b6000602082019050818103600083015261245b81612096565b9050919050565b6000602082019050818103600083015261247b816120d6565b9050919050565b6000602082019050818103600083015261249b8161213c565b9050919050565b600060208201905081810360008301526124bb816121a2565b9050919050565b600060208201905081810360008301526124db816121e2565b9050919050565b600060208201905081810360008301526124fb81612222565b9050919050565b6000602082019050818103600083015261251c8184612288565b905092915050565b6000602082019050612539600083018461235c565b92915050565b6000604082019050612554600083018561235c565b6125616020830184611f37565b9392505050565b600060e08201905061257d600083018a61235c565b818103602083015261258f8189611fac565b905061259e604083018861235c565b6125ab606083018761235c565b6125b86080830186611eca565b81810360a08301526125ca8185611fac565b905081810360c08301526125de8184611fac565b905098975050505050505050565b6000606082019050612601600083018661235c565b61260e602083018561235c565b61261b604083018461235c565b949350505050565b6000604051905081810181811067ffffffffffffffff8211171561264a57612649612adb565b5b8060405250919050565b600067ffffffffffffffff82111561266f5761266e612adb565b5b602082029050602081019050919050565b600067ffffffffffffffff82111561269b5761269a612adb565b5b601f19601f8301169050602081019050919050565b6000819050602082019050919050565b600081519050919050565b600081519050919050565b6000602082019050919050565b600082825260208201905092915050565b600082825260208201905092915050565b600082825260208201905092915050565b600081905092915050565b600061272c826128be565b9150612737836128be565b92508263ffffffff038211156127505761274f612a1f565b5b828201905092915050565b6000612766826128ce565b9150612771836128ce565b92508260ff0382111561278757612786612a1f565b5b828201905092915050565b600061279d826128b4565b91506127a8836128b4565b9250826127b8576127b7612a4e565b5b828204905092915050565b60006127ce826128b4565b91506127d9836128b4565b9250817fffffffffffffffffffffffffffffffffffffffffffffffffffffffffffffffff048311821515161561281257612811612a1f565b5b828202905092915050565b6000612828826128b4565b9150612833836128b4565b92508282101561284657612845612a1f565b5b828203905092915050565b600061285c82612894565b9050919050565b600061286e82612894565b9050919050565b60008115159050919050565b600081905061288f82612b1b565b919050565b600073ffffffffffffffffffffffffffffffffffffffff82169050919050565b6000819050919050565b600063ffffffff82169050919050565b600060ff82169050919050565b60006128e6826128ed565b9050919050565b60006128f882612894565b9050919050565b600061290a82612911565b9050919050565b600061291c82612894565b9050919050565b600061292e82612881565b9050919050565b82818337600083830152505050565b60005b83811015612962578082015181840152602081019050612947565b83811115612971576000848401525b50505050565b6000600282049050600182168061298f57607f821691505b602082108114156129a3576129a2612aac565b5b50919050565b60006129b4826128b4565b91507fffffffffffffffffffffffffffffffffffffffffffffffffffffffffffffffff8214156129e7576129e6612a1f565b5b600182019050919050565b60006129fd826128be565b915063ffffffff821415612a1457612a13612a1f565b5b600182019050919050565b7f4e487b7100000000000000000000000000000000000000000000000000000000600052601160045260246000fd5b7f4e487b7100000000000000000000000000000000000000000000000000000000600052601260045260246000fd5b7f4e487b7100000000000000000000000000000000000000000000000000000000600052602160045260246000fd5b7f4e487b7100000000000000000000000000000000000000000000000000000000600052602260045260246000fd5b7f4e487b7100000000000000000000000000000000000000000000000000000000600052604160045260246000fd5b6000601f19601f8301169050919050565b60088110612b2c57612b2b612a7d565b5b50565b612b3881612851565b8114612b4357600080fd5b50565b612b4f81612863565b8114612b5a57600080fd5b50565b612b6681612875565b8114612b7157600080fd5b50565b60038110612b8157600080fd5b50565b60028110612b9157600080fd5b50565b612b9d816128be565b8114612ba857600080fd5b5056fea264697066735822122001c5b8097ea7efb70f8a1cff18e4385d0461c68bc7a830bf8a09298530907cd264736f6c63430008000033",
  "linkReferences": {},
  "deployedLinkReferences": {}
}