{
  "_format": "hh-sol-artifact-1",
  "contractName": "ExportateurClient",
  "sourceName": "contracts/ExportateurClient.sol",
  "abi": [
    {
      "anonymous": false,
      "inputs": [
        {
          "indexed": true,
          "internalType": "address",
          "name": "exportateur",
          "type": "address"
        },
        {
          "indexed": false,
          "internalType": "uint32",
          "name": "idArticle",
          "type": "uint32"
        },
        {
          "indexed": false,
          "internalType": "uint32",
          "name": "quantite",
          "type": "uint32"
        },
        {
          "indexed": false,
          "internalType": "uint32",
          "name": "prix",
          "type": "uint32"
        }
      ],
      "name": "AjoutArticle",
      "type": "event"
    },
    {
      "anonymous": false,
      "inputs": [
        {
          "indexed": true,
          "internalType": "address",
          "name": "certificateur",
          "type": "address"
        },
        {
          "indexed": false,
          "internalType": "uint32",
          "name": "idArticle",
          "type": "uint32"
        },
        {
          "indexed": false,
          "internalType": "bytes32",
          "name": "cidCertificat",
          "type": "bytes32"
        }
      ],
      "name": "CertifierArticle",
      "type": "event"
    },
    {
      "stateMutability": "payable",
      "type": "fallback"
    },
    {
      "inputs": [
        {
          "internalType": "uint32[]",
          "name": "_idCommandeProduits",
          "type": "uint32[]"
        },
        {
          "internalType": "uint32",
          "name": "_prix",
          "type": "uint32"
        },
        {
          "internalType": "string",
          "name": "_cid",
          "type": "string"
        },
        {
          "internalType": "bytes32",
          "name": "_rootMerkle",
          "type": "bytes32"
        }
      ],
      "name": "ajoutArticle",
      "outputs": [],
      "stateMutability": "nonpayable",
      "type": "function"
    },
    {
      "inputs": [
        {
          "internalType": "uint32",
          "name": "",
          "type": "uint32"
        }
      ],
      "name": "articles",
      "outputs": [
        {
          "internalType": "uint32",
          "name": "id",
          "type": "uint32"
        },
        {
          "internalType": "string",
          "name": "ref",
          "type": "string"
        },
        {
          "internalType": "uint32",
          "name": "quantite",
          "type": "uint32"
        },
        {
          "internalType": "uint32",
          "name": "prix",
          "type": "uint32"
        },
        {
          "internalType": "address",
          "name": "exportateur",
          "type": "address"
        },
        {
          "internalType": "string",
          "name": "cid",
          "type": "string"
        },
        {
          "internalType": "bytes32",
          "name": "rootMerkle",
          "type": "bytes32"
        },
        {
          "internalType": "bool",
          "name": "certifier",
          "type": "bool"
        },
        {
          "internalType": "bytes32",
          "name": "cidCertificat",
          "type": "bytes32"
        }
      ],
      "stateMutability": "view",
      "type": "function"
    },
    {
      "inputs": [
        {
          "internalType": "uint32",
          "name": "_idArticle",
          "type": "uint32"
        },
        {
          "internalType": "bytes32",
          "name": "_cidCertificat",
          "type": "bytes32"
        }
      ],
      "name": "certifierArticle",
      "outputs": [],
      "stateMutability": "nonpayable",
      "type": "function"
    },
    {
      "inputs": [],
      "name": "collecteurExportateur",
      "outputs": [
        {
          "internalType": "contract CollecteurExportateur",
          "name": "",
          "type": "address"
        }
      ],
      "stateMutability": "view",
      "type": "function"
    },
    {
      "inputs": [],
      "name": "compteurArticles",
      "outputs": [
        {
          "internalType": "uint32",
          "name": "",
          "type": "uint32"
        }
      ],
      "stateMutability": "view",
      "type": "function"
    },
    {
      "inputs": [],
      "name": "gestionnaireActeurs",
      "outputs": [
        {
          "internalType": "contract GestionnaireActeurs",
          "name": "",
          "type": "address"
        }
      ],
      "stateMutability": "view",
      "type": "function"
    },
    {
      "inputs": [
        {
          "internalType": "uint32",
          "name": "id",
          "type": "uint32"
        }
      ],
      "name": "getArticle",
      "outputs": [
        {
          "components": [
            {
              "internalType": "uint32",
              "name": "id",
              "type": "uint32"
            },
            {
              "internalType": "string",
              "name": "ref",
              "type": "string"
            },
            {
              "internalType": "uint32[]",
              "name": "idCommandeProduit",
              "type": "uint32[]"
            },
            {
              "internalType": "uint32",
              "name": "quantite",
              "type": "uint32"
            },
            {
              "internalType": "uint32",
              "name": "prix",
              "type": "uint32"
            },
            {
              "internalType": "address",
              "name": "exportateur",
              "type": "address"
            },
            {
              "internalType": "string",
              "name": "cid",
              "type": "string"
            },
            {
              "internalType": "bytes32",
              "name": "rootMerkle",
              "type": "bytes32"
            },
            {
              "internalType": "bool",
              "name": "certifier",
              "type": "bool"
            },
            {
              "internalType": "bytes32",
              "name": "cidCertificat",
              "type": "bytes32"
            }
          ],
          "internalType": "struct StructLib.Article",
          "name": "",
          "type": "tuple"
        }
      ],
      "stateMutability": "view",
      "type": "function"
    },
    {
      "inputs": [
        {
          "internalType": "string",
          "name": "_reference",
          "type": "string"
        }
      ],
      "name": "getArticleByReference",
      "outputs": [
        {
          "components": [
            {
              "internalType": "uint32",
              "name": "id",
              "type": "uint32"
            },
            {
              "internalType": "string",
              "name": "ref",
              "type": "string"
            },
            {
              "internalType": "uint32[]",
              "name": "idCommandeProduit",
              "type": "uint32[]"
            },
            {
              "internalType": "uint32",
              "name": "quantite",
              "type": "uint32"
            },
            {
              "internalType": "uint32",
              "name": "prix",
              "type": "uint32"
            },
            {
              "internalType": "address",
              "name": "exportateur",
              "type": "address"
            },
            {
              "internalType": "string",
              "name": "cid",
              "type": "string"
            },
            {
              "internalType": "bytes32",
              "name": "rootMerkle",
              "type": "bytes32"
            },
            {
              "internalType": "bool",
              "name": "certifier",
              "type": "bool"
            },
            {
              "internalType": "bytes32",
              "name": "cidCertificat",
              "type": "bytes32"
            }
          ],
          "internalType": "struct StructLib.Article",
          "name": "",
          "type": "tuple"
        }
      ],
      "stateMutability": "view",
      "type": "function"
    },
    {
      "inputs": [],
      "name": "getCompteurArticles",
      "outputs": [
        {
          "internalType": "uint32",
          "name": "",
          "type": "uint32"
        }
      ],
      "stateMutability": "view",
      "type": "function"
    },
    {
      "inputs": [
        {
          "internalType": "address",
          "name": "_gestionnaireActeurs",
          "type": "address"
        },
        {
          "internalType": "address payable",
          "name": "_collecteurExportateur",
          "type": "address"
        }
      ],
      "name": "initialiser",
      "outputs": [],
      "stateMutability": "nonpayable",
      "type": "function"
    },
    {
      "inputs": [
        {
          "internalType": "address payable",
          "name": "_addr",
          "type": "address"
        }
      ],
      "name": "setCollecteurExportateur",
      "outputs": [],
      "stateMutability": "nonpayable",
      "type": "function"
    },
    {
      "inputs": [
        {
          "internalType": "address",
          "name": "_addr",
          "type": "address"
        }
      ],
      "name": "setGestionnaireActeurs",
      "outputs": [],
      "stateMutability": "nonpayable",
      "type": "function"
    },
    {
      "inputs": [
        {
          "internalType": "uint32",
          "name": "_idArticle",
          "type": "uint32"
        },
        {
          "internalType": "uint32",
          "name": "_prix",
          "type": "uint32"
        }
      ],
      "name": "setPriceArticle",
      "outputs": [],
      "stateMutability": "nonpayable",
      "type": "function"
    },
    {
      "stateMutability": "payable",
      "type": "receive"
    }
  ],
  "bytecode": "0x608060405234801561001057600080fd5b506132dc806100206000396000f3fe6080604052600436106100c65760003560e01c806380844fba1161007f5780639e942cd4116100595780639e942cd414610288578063cad4ed52146102b3578063eb072cd4146102dc578063ff8c6f2814610307576100cd565b806380844fba146101f757806382b9ca4614610220578063899986a01461024b576100cd565b80632cb0d412146100cf57806337a43847146101145780633e7a6049146101515780634bb43c351461017a578063704cdb7e146101a3578063771c4a51146101cc576100cd565b366100cd57005b005b3480156100db57600080fd5b506100f660048036038101906100f191906122c9565b610330565b60405161010b99989796959493929190612c2b565b60405180910390f35b34801561012057600080fd5b5061013b600480360381019061013691906122c9565b6104eb565b6040516101489190612b9c565b60405180910390f35b34801561015d57600080fd5b5061017860048036038101906101739190612114565b6107c3565b005b34801561018657600080fd5b506101a1600480360381019061019c919061213d565b610807565b005b3480156101af57600080fd5b506101ca60048036038101906101c5919061232e565b61084b565b005b3480156101d857600080fd5b506101e1610b78565b6040516101ee9190612bbe565b60405180910390f35b34801561020357600080fd5b5061021e60048036038101906102199190612166565b610b92565b005b34801561022c57600080fd5b50610235610c83565b6040516102429190612bbe565b60405180910390f35b34801561025757600080fd5b50610272600480360381019061026d919061225e565b610c99565b60405161027f9190612b9c565b60405180910390f35b34801561029457600080fd5b5061029d610fef565b6040516102aa9190612a41565b60405180910390f35b3480156102bf57600080fd5b506102da60048036038101906102d591906122f2565b611015565b005b3480156102e857600080fd5b506102f161121a565b6040516102fe9190612a26565b60405180910390f35b34801561031357600080fd5b5061032e600480360381019061032991906121a2565b611240565b005b60006020528060005260406000206000915090508060000160009054906101000a900463ffffffff16908060010180546103699061305b565b80601f01602080910402602001604051908101604052809291908181526020018280546103959061305b565b80156103e25780601f106103b7576101008083540402835291602001916103e2565b820191906000526020600020905b8154815290600101906020018083116103c557829003601f168201915b5050505050908060030160009054906101000a900463ffffffff16908060030160049054906101000a900463ffffffff16908060030160089054906101000a900473ffffffffffffffffffffffffffffffffffffffff16908060040180546104499061305b565b80601f01602080910402602001604051908101604052809291908181526020018280546104759061305b565b80156104c25780601f10610497576101008083540402835291602001916104c2565b820191906000526020600020905b8154815290600101906020018083116104a557829003601f168201915b5050505050908060050154908060060160009054906101000a900460ff16908060070154905089565b6104f3611c65565b6000808363ffffffff1663ffffffff168152602001908152602001600020604051806101400160405290816000820160009054906101000a900463ffffffff1663ffffffff1663ffffffff1681526020016001820180546105539061305b565b80601f016020809104026020016040519081016040528092919081815260200182805461057f9061305b565b80156105cc5780601f106105a1576101008083540402835291602001916105cc565b820191906000526020600020905b8154815290600101906020018083116105af57829003601f168201915b505050505081526020016002820180548060200260200160405190810160405280929190818152602001828054801561065057602002820191906000526020600020906000905b82829054906101000a900463ffffffff1663ffffffff16815260200190600401906020826003010492830192600103820291508084116106135790505b505050505081526020016003820160009054906101000a900463ffffffff1663ffffffff1663ffffffff1681526020016003820160049054906101000a900463ffffffff1663ffffffff1663ffffffff1681526020016003820160089054906101000a900473ffffffffffffffffffffffffffffffffffffffff1673ffffffffffffffffffffffffffffffffffffffff1673ffffffffffffffffffffffffffffffffffffffff16815260200160048201805461070b9061305b565b80601f01602080910402602001604051908101604052809291908181526020018280546107379061305b565b80156107845780601f1061075957610100808354040283529160200191610784565b820191906000526020600020905b81548152906001019060200180831161076757829003601f168201915b50505050508152602001600582015481526020016006820160009054906101000a900460ff161515151581526020016007820154815250509050919050565b80600260056101000a81548173ffffffffffffffffffffffffffffffffffffffff021916908373ffffffffffffffffffffffffffffffffffffffff16021790555050565b80600360006101000a81548173ffffffffffffffffffffffffffffffffffffffff021916908373ffffffffffffffffffffffffffffffffffffffff16021790555050565b600260059054906101000a900473ffffffffffffffffffffffffffffffffffffffff1673ffffffffffffffffffffffffffffffffffffffff1663d1e47bb33360066040518363ffffffff1660e01b81526004016108a99291906129fd565b60206040518083038186803b1580156108c157600080fd5b505afa1580156108d5573d6000803e3d6000fd5b505050506040513d601f19601f820116820180604052508101906108f99190612235565b610938576040517f08c379a000000000000000000000000000000000000000000000000000000000815260040161092f90612b7c565b60405180910390fd5b600260059054906101000a900473ffffffffffffffffffffffffffffffffffffffff1673ffffffffffffffffffffffffffffffffffffffff16639f7d7f4533306040518363ffffffff1660e01b81526004016109959291906129d4565b60206040518083038186803b1580156109ad57600080fd5b505afa1580156109c1573d6000803e3d6000fd5b505050506040513d601f19601f820116820180604052508101906109e59190612235565b610a24576040517f08c379a0000000000000000000000000000000000000000000000000000000008152600401610a1b90612afc565b60405180910390fd5b600260009054906101000a900463ffffffff1663ffffffff168263ffffffff161115610a85576040517f08c379a0000000000000000000000000000000000000000000000000000000008152600401610a7c90612abc565b60405180910390fd5b3373ffffffffffffffffffffffffffffffffffffffff166000808463ffffffff1663ffffffff16815260200190815260200160002060030160089054906101000a900473ffffffffffffffffffffffffffffffffffffffff1673ffffffffffffffffffffffffffffffffffffffff1614610b34576040517f08c379a0000000000000000000000000000000000000000000000000000000008152600401610b2b90612adc565b60405180910390fd5b806000808463ffffffff1663ffffffff16815260200190815260200160002060030160046101000a81548163ffffffff021916908363ffffffff1602179055505050565b6000600260009054906101000a900463ffffffff16905090565b600260049054906101000a900460ff1615610be2576040517f08c379a0000000000000000000000000000000000000000000000000000000008152600401610bd990612b5c565b60405180910390fd5b81600260056101000a81548173ffffffffffffffffffffffffffffffffffffffff021916908373ffffffffffffffffffffffffffffffffffffffff16021790555080600360006101000a81548173ffffffffffffffffffffffffffffffffffffffff021916908373ffffffffffffffffffffffffffffffffffffffff1602179055506001600260046101000a81548160ff0219169083151502179055505050565b600260009054906101000a900463ffffffff1681565b610ca1611c65565b6000600183604051610cb3919061298e565b908152602001604051809103902060009054906101000a900463ffffffff16905060008163ffffffff161415610d1e576040517f08c379a0000000000000000000000000000000000000000000000000000000008152600401610d1590612b1c565b60405180910390fd5b6000808263ffffffff1663ffffffff168152602001908152602001600020604051806101400160405290816000820160009054906101000a900463ffffffff1663ffffffff1663ffffffff168152602001600182018054610d7e9061305b565b80601f0160208091040260200160405190810160405280929190818152602001828054610daa9061305b565b8015610df75780601f10610dcc57610100808354040283529160200191610df7565b820191906000526020600020905b815481529060010190602001808311610dda57829003601f168201915b5050505050815260200160028201805480602002602001604051908101604052809291908181526020018280548015610e7b57602002820191906000526020600020906000905b82829054906101000a900463ffffffff1663ffffffff1681526020019060040190602082600301049283019260010382029150808411610e3e5790505b505050505081526020016003820160009054906101000a900463ffffffff1663ffffffff1663ffffffff1681526020016003820160049054906101000a900463ffffffff1663ffffffff1663ffffffff1681526020016003820160089054906101000a900473ffffffffffffffffffffffffffffffffffffffff1673ffffffffffffffffffffffffffffffffffffffff1673ffffffffffffffffffffffffffffffffffffffff168152602001600482018054610f369061305b565b80601f0160208091040260200160405190810160405280929190818152602001828054610f629061305b565b8015610faf5780601f10610f8457610100808354040283529160200191610faf565b820191906000526020600020905b815481529060010190602001808311610f9257829003601f168201915b50505050508152602001600582015481526020016006820160009054906101000a900460ff16151515158152602001600782015481525050915050919050565b600260059054906101000a900473ffffffffffffffffffffffffffffffffffffffff1681565b600260059054906101000a900473ffffffffffffffffffffffffffffffffffffffff1673ffffffffffffffffffffffffffffffffffffffff1663d1e47bb33360026040518363ffffffff1660e01b81526004016110739291906129fd565b60206040518083038186803b15801561108b57600080fd5b505afa15801561109f573d6000803e3d6000fd5b505050506040513d601f19601f820116820180604052508101906110c39190612235565b611102576040517f08c379a00000000000000000000000000000000000000000000000000000000081526004016110f990612a9c565b60405180910390fd5b600260009054906101000a900463ffffffff1663ffffffff168263ffffffff16111561112d57600080fd5b6000808363ffffffff1663ffffffff16815260200190815260200160002060060160009054906101000a900460ff161561116657600080fd5b60016000808463ffffffff1663ffffffff16815260200190815260200160002060060160006101000a81548160ff021916908315150217905550806000808463ffffffff1663ffffffff168152602001908152602001600020600701819055503373ffffffffffffffffffffffffffffffffffffffff167f42f918b0ad9f72db50eeae844fd35928427a61706b8cc1338de7c002631edab0838360405161120e929190612c02565b60405180910390a25050565b600360009054906101000a900473ffffffffffffffffffffffffffffffffffffffff1681565b600260059054906101000a900473ffffffffffffffffffffffffffffffffffffffff1673ffffffffffffffffffffffffffffffffffffffff1663d1e47bb33360066040518363ffffffff1660e01b815260040161129e9291906129fd565b60206040518083038186803b1580156112b657600080fd5b505afa1580156112ca573d6000803e3d6000fd5b505050506040513d601f19601f820116820180604052508101906112ee9190612235565b61132d576040517f08c379a000000000000000000000000000000000000000000000000000000000815260040161132490612b7c565b60405180910390fd5b600260059054906101000a900473ffffffffffffffffffffffffffffffffffffffff1673ffffffffffffffffffffffffffffffffffffffff16639f7d7f4533306040518363ffffffff1660e01b815260040161138a9291906129d4565b60206040518083038186803b1580156113a257600080fd5b505afa1580156113b6573d6000803e3d6000fd5b505050506040513d601f19601f820116820180604052508101906113da9190612235565b611419576040517f08c379a000000000000000000000000000000000000000000000000000000000815260040161141090612afc565b60405180910390fd5b6000805b8551811015611638576000600360009054906101000a900473ffffffffffffffffffffffffffffffffffffffff1673ffffffffffffffffffffffffffffffffffffffff16635293ea5188848151811061149f577f4e487b7100000000000000000000000000000000000000000000000000000000600052603260045260246000fd5b60200260200101516040518263ffffffff1660e01b81526004016114c39190612bbe565b6101806040518083038186803b1580156114dc57600080fd5b505afa1580156114f0573d6000803e3d6000fd5b505050506040513d601f19601f82011682018060405250810190611514919061229f565b90508060400151836115269190612dfb565b9250806080015161156c576040517f08c379a000000000000000000000000000000000000000000000000000000000815260040161156390612b3c565b60405180910390fd5b3373ffffffffffffffffffffffffffffffffffffffff168160e0015173ffffffffffffffffffffffffffffffffffffffff16146115de576040517f08c379a00000000000000000000000000000000000000000000000000000000081526004016115d590612a7c565b60405180910390fd5b80610120015115611624576040517f08c379a000000000000000000000000000000000000000000000000000000000815260040161161b90612a5c565b60405180910390fd5b5080806116309061308d565b91505061141d565b506002600081819054906101000a900463ffffffff168092919061165b906130d6565b91906101000a81548163ffffffff021916908363ffffffff1602179055505060005b85518163ffffffff16101561177557600360009054906101000a900473ffffffffffffffffffffffffffffffffffffffff1673ffffffffffffffffffffffffffffffffffffffff1663c4c8d194878363ffffffff1681518110611709577f4e487b7100000000000000000000000000000000000000000000000000000000600052603260045260246000fd5b602002602001015160016040518363ffffffff1660e01b8152600401611730929190612bd9565b600060405180830381600087803b15801561174a57600080fd5b505af115801561175e573d6000803e3d6000fd5b50505050808061176d906130d6565b91505061167d565b506000611780611a3f565b9050604051806101400160405280600260009054906101000a900463ffffffff1663ffffffff1681526020018281526020018781526020018363ffffffff1681526020018663ffffffff1681526020013373ffffffffffffffffffffffffffffffffffffffff1681526020018581526020018481526020016000151581526020016000801b815250600080600260009054906101000a900463ffffffff1663ffffffff1663ffffffff16815260200190815260200160002060008201518160000160006101000a81548163ffffffff021916908363ffffffff160217905550602082015181600101908051906020019061187b929190611ce8565b506040820151816002019080519060200190611898929190611d6e565b5060608201518160030160006101000a81548163ffffffff021916908363ffffffff16021790555060808201518160030160046101000a81548163ffffffff021916908363ffffffff16021790555060a08201518160030160086101000a81548173ffffffffffffffffffffffffffffffffffffffff021916908373ffffffffffffffffffffffffffffffffffffffff16021790555060c082015181600401908051906020019061194a929190611ce8565b5060e082015181600501556101008201518160060160006101000a81548160ff0219169083151502179055506101208201518160070155905050600260009054906101000a900463ffffffff166001826040516119a7919061298e565b908152602001604051809103902060006101000a81548163ffffffff021916908363ffffffff1602179055503373ffffffffffffffffffffffffffffffffffffffff167fac99a946d149ad7965440d306b135d791a1b84bf070e7ed1400131a45233426a600260009054906101000a900463ffffffff168488604051611a2f93929190612cc6565b60405180910390a2505050505050565b6060611a4a42611a90565b611a6b600260009054906101000a900463ffffffff1663ffffffff16611a90565b604051602001611a7c9291906129a5565b604051602081830303815290604052905090565b60606000821415611ad8576040518060400160405280600181526020017f30000000000000000000000000000000000000000000000000000000000000008152509050611c60565b600082905060005b60008214611b0a578080611af39061308d565b915050600a82611b039190612e6c565b9150611ae0565b60008167ffffffffffffffff811115611b4c577f4e487b7100000000000000000000000000000000000000000000000000000000600052604160045260246000fd5b6040519080825280601f01601f191660200182016040528015611b7e5781602001600182028036833780820191505090505b50905060008290505b60008614611c5857600181611b9c9190612ef7565b90506000600a8088611bae9190612e6c565b611bb89190612e9d565b87611bc39190612ef7565b6030611bcf9190612e35565b905060008160f81b905080848481518110611c13577f4e487b7100000000000000000000000000000000000000000000000000000000600052603260045260246000fd5b60200101907effffffffffffffffffffffffffffffffffffffffffffffffffffffffffffff1916908160001a905350600a88611c4f9190612e6c565b97505050611b87565b819450505050505b919050565b604051806101400160405280600063ffffffff1681526020016060815260200160608152602001600063ffffffff168152602001600063ffffffff168152602001600073ffffffffffffffffffffffffffffffffffffffff1681526020016060815260200160008019168152602001600015158152602001600080191681525090565b828054611cf49061305b565b90600052602060002090601f016020900481019282611d165760008555611d5d565b82601f10611d2f57805160ff1916838001178555611d5d565b82800160010185558215611d5d579182015b82811115611d5c578251825591602001919060010190611d41565b5b509050611d6a9190611e1e565b5090565b82805482825590600052602060002090600701600890048101928215611e0d5791602002820160005b83821115611ddb57835183826101000a81548163ffffffff021916908363ffffffff1602179055509260200192600401602081600301049283019260010302611d97565b8015611e0b5782816101000a81549063ffffffff0219169055600401602081600301049283019260010302611ddb565b505b509050611e1a9190611e1e565b5090565b5b80821115611e37576000816000905550600101611e1f565b5090565b6000611e4e611e4984612d2e565b612cfd565b90508083825260208201905082856020860282011115611e6d57600080fd5b60005b85811015611e9d5781611e8388826120ea565b845260208401935060208301925050600181019050611e70565b5050509392505050565b6000611eba611eb584612d5a565b612cfd565b905082815260208101848484011115611ed257600080fd5b611edd848285613019565b509392505050565b600081359050611ef481613213565b92915050565b600081519050611f0981613213565b92915050565b600081359050611f1e8161322a565b92915050565b600082601f830112611f3557600080fd5b8135611f45848260208601611e3b565b91505092915050565b600081519050611f5d81613241565b92915050565b600081359050611f7281613258565b92915050565b600081519050611f878161326f565b92915050565b600081519050611f9c8161327f565b92915050565b600082601f830112611fb357600080fd5b8135611fc3848260208601611ea7565b91505092915050565b60006101808284031215611fdf57600080fd5b611fea610180612cfd565b90506000611ffa848285016120ff565b600083015250602061200e848285016120ff565b6020830152506040612022848285016120ff565b6040830152506060612036848285016120ff565b606083015250608061204a84828501611f4e565b60808301525060a061205e84828501611f8d565b60a08301525060c061207284828501611efa565b60c08301525060e061208684828501611efa565b60e08301525061010061209b84828501611f78565b610100830152506101206120b184828501611f4e565b610120830152506101406120c784828501611f4e565b610140830152506101606120dd84828501611efa565b6101608301525092915050565b6000813590506120f98161328f565b92915050565b60008151905061210e8161328f565b92915050565b60006020828403121561212657600080fd5b600061213484828501611ee5565b91505092915050565b60006020828403121561214f57600080fd5b600061215d84828501611f0f565b91505092915050565b6000806040838503121561217957600080fd5b600061218785828601611ee5565b925050602061219885828601611f0f565b9150509250929050565b600080600080608085870312156121b857600080fd5b600085013567ffffffffffffffff8111156121d257600080fd5b6121de87828801611f24565b94505060206121ef878288016120ea565b935050604085013567ffffffffffffffff81111561220c57600080fd5b61221887828801611fa2565b925050606061222987828801611f63565b91505092959194509250565b60006020828403121561224757600080fd5b600061225584828501611f4e565b91505092915050565b60006020828403121561227057600080fd5b600082013567ffffffffffffffff81111561228a57600080fd5b61229684828501611fa2565b91505092915050565b600061018082840312156122b257600080fd5b60006122c084828501611fcc565b91505092915050565b6000602082840312156122db57600080fd5b60006122e9848285016120ea565b91505092915050565b6000806040838503121561230557600080fd5b6000612313858286016120ea565b925050602061232485828601611f63565b9150509250929050565b6000806040838503121561234157600080fd5b600061234f858286016120ea565b9250506020612360858286016120ea565b9150509250929050565b60006123768383612970565b60208301905092915050565b61238b81612f2b565b82525050565b61239a81612f2b565b82525050565b60006123ab82612d9a565b6123b58185612dbd565b93506123c083612d8a565b8060005b838110156123f15781516123d8888261236a565b97506123e383612db0565b9250506001810190506123c4565b5085935050505092915050565b61240781612f4f565b82525050565b61241681612f4f565b82525050565b61242581612f5b565b82525050565b61243481612f5b565b82525050565b61244381612fbf565b82525050565b61245281612fe3565b82525050565b61246181613007565b82525050565b600061247282612da5565b61247c8185612dce565b935061248c818560208601613028565b612495816131ee565b840191505092915050565b60006124ab82612da5565b6124b58185612ddf565b93506124c5818560208601613028565b6124ce816131ee565b840191505092915050565b60006124e482612da5565b6124ee8185612df0565b93506124fe818560208601613028565b80840191505092915050565b6000612517601a83612ddf565b91507f636f6d6d616e64652064656a6120656e7265676973747265722e0000000000006000830152602082019050919050565b6000612557601c83612ddf565b91507f566f7573206e27657374207061732070726f7072696574616972652e000000006000830152602082019050919050565b6000612597602583612ddf565b91507f4e6f6e206175746f726973653a207365756c656d656e7420436572746966696360008301527f61746575720000000000000000000000000000000000000000000000000000006020830152604082019050919050565b60006125fd600383612df0565b91507f41525400000000000000000000000000000000000000000000000000000000006000830152600382019050919050565b600061263d600c83612ddf565b91507f496420696e636f727265637400000000000000000000000000000000000000006000830152602082019050919050565b600061267d602d83612ddf565b91507f566f7573206e2765746573207061732070726f7072696574616972652064652060008301527f63657474652061727469636c65000000000000000000000000000000000000006020830152604082019050919050565b60006126e3602183612ddf565b91507f4e6f6e206175746f726973653a20636f6e74726174206e6f6e2064656c65677560008301527f65000000000000000000000000000000000000000000000000000000000000006020830152604082019050919050565b6000612749602983612ddf565b91507f5265666572656e636520696e76616c696465206f752061727469636c6520696e60008301527f6578697374616e742e00000000000000000000000000000000000000000000006020830152604082019050919050565b60006127af601383612ddf565b91507f436f6d6d616e6465206e6f6e2070617965722e000000000000000000000000006000830152602082019050919050565b60006127ef601a83612ddf565b91507f436f6e747261742064656a6120696e697469616c6973657220210000000000006000830152602082019050919050565b600061282f602383612ddf565b91507f4e6f6e206175746f726973653a207365756c656d656e74204578706f7274617460008301527f65757200000000000000000000000000000000000000000000000000000000006020830152604082019050919050565b6000610140830160008301516128a16000860182612970565b50602083015184820360208601526128b98282612467565b915050604083015184820360408601526128d382826123a0565b91505060608301516128e86060860182612970565b5060808301516128fb6080860182612970565b5060a083015161290e60a0860182612382565b5060c083015184820360c08601526129268282612467565b91505060e083015161293b60e086018261241c565b506101008301516129506101008601826123fe565b5061012083015161296561012086018261241c565b508091505092915050565b61297981612fa2565b82525050565b61298881612fa2565b82525050565b600061299a82846124d9565b915081905092915050565b60006129b0826125f0565b91506129bc82856124d9565b91506129c882846124d9565b91508190509392505050565b60006040820190506129e96000830185612391565b6129f66020830184612391565b9392505050565b6000604082019050612a126000830185612391565b612a1f6020830184612458565b9392505050565b6000602082019050612a3b600083018461243a565b92915050565b6000602082019050612a566000830184612449565b92915050565b60006020820190508181036000830152612a758161250a565b9050919050565b60006020820190508181036000830152612a958161254a565b9050919050565b60006020820190508181036000830152612ab58161258a565b9050919050565b60006020820190508181036000830152612ad581612630565b9050919050565b60006020820190508181036000830152612af581612670565b9050919050565b60006020820190508181036000830152612b15816126d6565b9050919050565b60006020820190508181036000830152612b358161273c565b9050919050565b60006020820190508181036000830152612b55816127a2565b9050919050565b60006020820190508181036000830152612b75816127e2565b9050919050565b60006020820190508181036000830152612b9581612822565b9050919050565b60006020820190508181036000830152612bb68184612888565b905092915050565b6000602082019050612bd3600083018461297f565b92915050565b6000604082019050612bee600083018561297f565b612bfb602083018461240d565b9392505050565b6000604082019050612c17600083018561297f565b612c24602083018461242b565b9392505050565b600061012082019050612c41600083018c61297f565b8181036020830152612c53818b6124a0565b9050612c62604083018a61297f565b612c6f606083018961297f565b612c7c6080830188612391565b81810360a0830152612c8e81876124a0565b9050612c9d60c083018661242b565b612caa60e083018561240d565b612cb861010083018461242b565b9a9950505050505050505050565b6000606082019050612cdb600083018661297f565b612ce8602083018561297f565b612cf5604083018461297f565b949350505050565b6000604051905081810181811067ffffffffffffffff82111715612d2457612d236131bf565b5b8060405250919050565b600067ffffffffffffffff821115612d4957612d486131bf565b5b602082029050602081019050919050565b600067ffffffffffffffff821115612d7557612d746131bf565b5b601f19601f8301169050602081019050919050565b6000819050602082019050919050565b600081519050919050565b600081519050919050565b6000602082019050919050565b600082825260208201905092915050565b600082825260208201905092915050565b600082825260208201905092915050565b600081905092915050565b6000612e0682612fa2565b9150612e1183612fa2565b92508263ffffffff03821115612e2a57612e29613103565b5b828201905092915050565b6000612e4082612fb2565b9150612e4b83612fb2565b92508260ff03821115612e6157612e60613103565b5b828201905092915050565b6000612e7782612f98565b9150612e8283612f98565b925082612e9257612e91613132565b5b828204905092915050565b6000612ea882612f98565b9150612eb383612f98565b9250817fffffffffffffffffffffffffffffffffffffffffffffffffffffffffffffffff0483118215151615612eec57612eeb613103565b5b828202905092915050565b6000612f0282612f98565b9150612f0d83612f98565b925082821015612f2057612f1f613103565b5b828203905092915050565b6000612f3682612f78565b9050919050565b6000612f4882612f78565b9050919050565b60008115159050919050565b6000819050919050565b6000819050612f73826131ff565b919050565b600073ffffffffffffffffffffffffffffffffffffffff82169050919050565b6000819050919050565b600063ffffffff82169050919050565b600060ff82169050919050565b6000612fca82612fd1565b9050919050565b6000612fdc82612f78565b9050919050565b6000612fee82612ff5565b9050919050565b600061300082612f78565b9050919050565b600061301282612f65565b9050919050565b82818337600083830152505050565b60005b8381101561304657808201518184015260208101905061302b565b83811115613055576000848401525b50505050565b6000600282049050600182168061307357607f821691505b6020821081141561308757613086613190565b5b50919050565b600061309882612f98565b91507fffffffffffffffffffffffffffffffffffffffffffffffffffffffffffffffff8214156130cb576130ca613103565b5b600182019050919050565b60006130e182612fa2565b915063ffffffff8214156130f8576130f7613103565b5b600182019050919050565b7f4e487b7100000000000000000000000000000000000000000000000000000000600052601160045260246000fd5b7f4e487b7100000000000000000000000000000000000000000000000000000000600052601260045260246000fd5b7f4e487b7100000000000000000000000000000000000000000000000000000000600052602160045260246000fd5b7f4e487b7100000000000000000000000000000000000000000000000000000000600052602260045260246000fd5b7f4e487b7100000000000000000000000000000000000000000000000000000000600052604160045260246000fd5b6000601f19601f8301169050919050565b600881106132105761320f613161565b5b50565b61321c81612f2b565b811461322757600080fd5b50565b61323381612f3d565b811461323e57600080fd5b50565b61324a81612f4f565b811461325557600080fd5b50565b61326181612f5b565b811461326c57600080fd5b50565b6003811061327c57600080fd5b50565b6002811061328c57600080fd5b50565b61329881612fa2565b81146132a357600080fd5b5056fea26469706673582212208b8a08f5f43ee96fbaf2287cf0a94153cb19d123b6e088cefa9a41b10d0c456764736f6c63430008000033",
  "linkReferences": {},
  "deployedLinkReferences": {}
}