{
  "_format": "hh-sol-artifact-1",
  "contractName": "ExportateurClient",
  "sourceName": "contracts/ExportateurClient.sol",
  "abi": [
    {
      "anonymous": false,
      "inputs": [
        {
          "indexed": true,
          "internalType": "address",
          "name": "exportateur",
          "type": "address"
        },
        {
          "indexed": false,
          "internalType": "uint32",
          "name": "idArticle",
          "type": "uint32"
        },
        {
          "indexed": false,
          "internalType": "uint32",
          "name": "quantite",
          "type": "uint32"
        },
        {
          "indexed": false,
          "internalType": "uint32",
          "name": "prix",
          "type": "uint32"
        }
      ],
      "name": "AjoutArticle",
      "type": "event"
    },
    {
      "anonymous": false,
      "inputs": [
        {
          "indexed": true,
          "internalType": "address",
          "name": "certificateur",
          "type": "address"
        },
        {
          "indexed": false,
          "internalType": "uint32",
          "name": "idArticle",
          "type": "uint32"
        },
        {
          "indexed": false,
          "internalType": "bytes32",
          "name": "cidCertificat",
          "type": "bytes32"
        }
      ],
      "name": "CertifierArticle",
      "type": "event"
    },
    {
      "stateMutability": "payable",
      "type": "fallback"
    },
    {
      "inputs": [
        {
          "internalType": "uint32[]",
          "name": "_idCommandeProduits",
          "type": "uint32[]"
        },
        {
          "internalType": "uint32",
          "name": "_prix",
          "type": "uint32"
        },
        {
          "internalType": "string",
          "name": "_cid",
          "type": "string"
        },
        {
          "internalType": "bytes32",
          "name": "_rootMerkle",
          "type": "bytes32"
        }
      ],
      "name": "ajoutArticle",
      "outputs": [],
      "stateMutability": "nonpayable",
      "type": "function"
    },
    {
      "inputs": [
        {
          "internalType": "uint32",
          "name": "",
          "type": "uint32"
        }
      ],
      "name": "articles",
      "outputs": [
        {
          "internalType": "uint32",
          "name": "id",
          "type": "uint32"
        },
        {
          "internalType": "string",
          "name": "ref",
          "type": "string"
        },
        {
          "internalType": "uint32",
          "name": "quantite",
          "type": "uint32"
        },
        {
          "internalType": "uint32",
          "name": "prix",
          "type": "uint32"
        },
        {
          "internalType": "address",
          "name": "exportateur",
          "type": "address"
        },
        {
          "internalType": "string",
          "name": "cid",
          "type": "string"
        },
        {
          "internalType": "bytes32",
          "name": "rootMerkle",
          "type": "bytes32"
        },
        {
          "internalType": "bool",
          "name": "certifier",
          "type": "bool"
        },
        {
          "internalType": "bytes32",
          "name": "cidCertificat",
          "type": "bytes32"
        }
      ],
      "stateMutability": "view",
      "type": "function"
    },
    {
      "inputs": [
        {
          "internalType": "uint32",
          "name": "_idArticle",
          "type": "uint32"
        },
        {
          "internalType": "bytes32",
          "name": "_cidCertificat",
          "type": "bytes32"
        }
      ],
      "name": "certifierArticle",
      "outputs": [],
      "stateMutability": "nonpayable",
      "type": "function"
    },
    {
      "inputs": [],
      "name": "collecteurExportateur",
      "outputs": [
        {
          "internalType": "contract CollecteurExportateur",
          "name": "",
          "type": "address"
        }
      ],
      "stateMutability": "view",
      "type": "function"
    },
    {
      "inputs": [],
      "name": "compteurArticles",
      "outputs": [
        {
          "internalType": "uint32",
          "name": "",
          "type": "uint32"
        }
      ],
      "stateMutability": "view",
      "type": "function"
    },
    {
      "inputs": [],
      "name": "gestionnaireActeurs",
      "outputs": [
        {
          "internalType": "contract GestionnaireActeurs",
          "name": "",
          "type": "address"
        }
      ],
      "stateMutability": "view",
      "type": "function"
    },
    {
      "inputs": [
        {
          "internalType": "uint32",
          "name": "id",
          "type": "uint32"
        }
      ],
      "name": "getArticle",
      "outputs": [
        {
          "components": [
            {
              "internalType": "uint32",
              "name": "id",
              "type": "uint32"
            },
            {
              "internalType": "string",
              "name": "ref",
              "type": "string"
            },
            {
              "internalType": "uint32[]",
              "name": "idCommandeProduit",
              "type": "uint32[]"
            },
            {
              "internalType": "uint32",
              "name": "quantite",
              "type": "uint32"
            },
            {
              "internalType": "uint32",
              "name": "prix",
              "type": "uint32"
            },
            {
              "internalType": "address",
              "name": "exportateur",
              "type": "address"
            },
            {
              "internalType": "string",
              "name": "cid",
              "type": "string"
            },
            {
              "internalType": "bytes32",
              "name": "rootMerkle",
              "type": "bytes32"
            },
            {
              "internalType": "bool",
              "name": "certifier",
              "type": "bool"
            },
            {
              "internalType": "bytes32",
              "name": "cidCertificat",
              "type": "bytes32"
            }
          ],
          "internalType": "struct StructLib.Article",
          "name": "",
          "type": "tuple"
        }
      ],
      "stateMutability": "view",
      "type": "function"
    },
    {
      "inputs": [
        {
          "internalType": "string",
          "name": "_reference",
          "type": "string"
        }
      ],
      "name": "getArticleByReference",
      "outputs": [
        {
          "components": [
            {
              "internalType": "uint32",
              "name": "id",
              "type": "uint32"
            },
            {
              "internalType": "string",
              "name": "ref",
              "type": "string"
            },
            {
              "internalType": "uint32[]",
              "name": "idCommandeProduit",
              "type": "uint32[]"
            },
            {
              "internalType": "uint32",
              "name": "quantite",
              "type": "uint32"
            },
            {
              "internalType": "uint32",
              "name": "prix",
              "type": "uint32"
            },
            {
              "internalType": "address",
              "name": "exportateur",
              "type": "address"
            },
            {
              "internalType": "string",
              "name": "cid",
              "type": "string"
            },
            {
              "internalType": "bytes32",
              "name": "rootMerkle",
              "type": "bytes32"
            },
            {
              "internalType": "bool",
              "name": "certifier",
              "type": "bool"
            },
            {
              "internalType": "bytes32",
              "name": "cidCertificat",
              "type": "bytes32"
            }
          ],
          "internalType": "struct StructLib.Article",
          "name": "",
          "type": "tuple"
        }
      ],
      "stateMutability": "view",
      "type": "function"
    },
    {
      "inputs": [],
      "name": "getCompteurArticles",
      "outputs": [
        {
          "internalType": "uint32",
          "name": "",
          "type": "uint32"
        }
      ],
      "stateMutability": "view",
      "type": "function"
    },
    {
      "inputs": [
        {
          "internalType": "address",
          "name": "_gestionnaireActeurs",
          "type": "address"
        },
        {
          "internalType": "address payable",
          "name": "_collecteurExportateur",
          "type": "address"
        }
      ],
      "name": "initialiser",
      "outputs": [],
      "stateMutability": "nonpayable",
      "type": "function"
    },
    {
      "inputs": [
        {
          "internalType": "address payable",
          "name": "_addr",
          "type": "address"
        }
      ],
      "name": "setCollecteurExportateur",
      "outputs": [],
      "stateMutability": "nonpayable",
      "type": "function"
    },
    {
      "inputs": [
        {
          "internalType": "address",
          "name": "_addr",
          "type": "address"
        }
      ],
      "name": "setGestionnaireActeurs",
      "outputs": [],
      "stateMutability": "nonpayable",
      "type": "function"
    },
    {
      "inputs": [
        {
          "internalType": "uint32",
          "name": "_idArticle",
          "type": "uint32"
        },
        {
          "internalType": "uint32",
          "name": "_prix",
          "type": "uint32"
        }
      ],
      "name": "setPriceArticle",
      "outputs": [],
      "stateMutability": "nonpayable",
      "type": "function"
    },
    {
      "stateMutability": "payable",
      "type": "receive"
    }
  ],
  "bytecode": "0x608060405234801561001057600080fd5b506132ec806100206000396000f3fe6080604052600436106100c65760003560e01c806380844fba1161007f5780639e942cd4116100595780639e942cd414610288578063cad4ed52146102b3578063eb072cd4146102dc578063ff8c6f2814610307576100cd565b806380844fba146101f757806382b9ca4614610220578063899986a01461024b576100cd565b80632cb0d412146100cf57806337a43847146101145780633e7a6049146101515780634bb43c351461017a578063704cdb7e146101a3578063771c4a51146101cc576100cd565b366100cd57005b005b3480156100db57600080fd5b506100f660048036038101906100f191906122cb565b610330565b60405161010b99989796959493929190612c3b565b60405180910390f35b34801561012057600080fd5b5061013b600480360381019061013691906122cb565b6104eb565b6040516101489190612b9e565b60405180910390f35b34801561015d57600080fd5b5061017860048036038101906101739190612116565b6107c3565b005b34801561018657600080fd5b506101a1600480360381019061019c919061213f565b610807565b005b3480156101af57600080fd5b506101ca60048036038101906101c59190612330565b61084b565b005b3480156101d857600080fd5b506101e1610b78565b6040516101ee9190612bc0565b60405180910390f35b34801561020357600080fd5b5061021e60048036038101906102199190612168565b610b92565b005b34801561022c57600080fd5b50610235610c83565b6040516102429190612bc0565b60405180910390f35b34801561025757600080fd5b50610272600480360381019061026d9190612260565b610c99565b60405161027f9190612b9e565b60405180910390f35b34801561029457600080fd5b5061029d610fef565b6040516102aa9190612a43565b60405180910390f35b3480156102bf57600080fd5b506102da60048036038101906102d591906122f4565b611015565b005b3480156102e857600080fd5b506102f161121a565b6040516102fe9190612a28565b60405180910390f35b34801561031357600080fd5b5061032e600480360381019061032991906121a4565b611240565b005b60006020528060005260406000206000915090508060000160009054906101000a900463ffffffff16908060010180546103699061306b565b80601f01602080910402602001604051908101604052809291908181526020018280546103959061306b565b80156103e25780601f106103b7576101008083540402835291602001916103e2565b820191906000526020600020905b8154815290600101906020018083116103c557829003601f168201915b5050505050908060030160009054906101000a900463ffffffff16908060030160049054906101000a900463ffffffff16908060030160089054906101000a900473ffffffffffffffffffffffffffffffffffffffff16908060040180546104499061306b565b80601f01602080910402602001604051908101604052809291908181526020018280546104759061306b565b80156104c25780601f10610497576101008083540402835291602001916104c2565b820191906000526020600020905b8154815290600101906020018083116104a557829003601f168201915b5050505050908060050154908060060160009054906101000a900460ff16908060070154905089565b6104f3611c67565b6000808363ffffffff1663ffffffff168152602001908152602001600020604051806101400160405290816000820160009054906101000a900463ffffffff1663ffffffff1663ffffffff1681526020016001820180546105539061306b565b80601f016020809104026020016040519081016040528092919081815260200182805461057f9061306b565b80156105cc5780601f106105a1576101008083540402835291602001916105cc565b820191906000526020600020905b8154815290600101906020018083116105af57829003601f168201915b505050505081526020016002820180548060200260200160405190810160405280929190818152602001828054801561065057602002820191906000526020600020906000905b82829054906101000a900463ffffffff1663ffffffff16815260200190600401906020826003010492830192600103820291508084116106135790505b505050505081526020016003820160009054906101000a900463ffffffff1663ffffffff1663ffffffff1681526020016003820160049054906101000a900463ffffffff1663ffffffff1663ffffffff1681526020016003820160089054906101000a900473ffffffffffffffffffffffffffffffffffffffff1673ffffffffffffffffffffffffffffffffffffffff1673ffffffffffffffffffffffffffffffffffffffff16815260200160048201805461070b9061306b565b80601f01602080910402602001604051908101604052809291908181526020018280546107379061306b565b80156107845780601f1061075957610100808354040283529160200191610784565b820191906000526020600020905b81548152906001019060200180831161076757829003601f168201915b50505050508152602001600582015481526020016006820160009054906101000a900460ff161515151581526020016007820154815250509050919050565b80600260056101000a81548173ffffffffffffffffffffffffffffffffffffffff021916908373ffffffffffffffffffffffffffffffffffffffff16021790555050565b80600360006101000a81548173ffffffffffffffffffffffffffffffffffffffff021916908373ffffffffffffffffffffffffffffffffffffffff16021790555050565b600260059054906101000a900473ffffffffffffffffffffffffffffffffffffffff1673ffffffffffffffffffffffffffffffffffffffff1663d1e47bb33360066040518363ffffffff1660e01b81526004016108a99291906129ff565b60206040518083038186803b1580156108c157600080fd5b505afa1580156108d5573d6000803e3d6000fd5b505050506040513d601f19601f820116820180604052508101906108f99190612237565b610938576040517f08c379a000000000000000000000000000000000000000000000000000000000815260040161092f90612b7e565b60405180910390fd5b600260059054906101000a900473ffffffffffffffffffffffffffffffffffffffff1673ffffffffffffffffffffffffffffffffffffffff16639f7d7f4533306040518363ffffffff1660e01b81526004016109959291906129d6565b60206040518083038186803b1580156109ad57600080fd5b505afa1580156109c1573d6000803e3d6000fd5b505050506040513d601f19601f820116820180604052508101906109e59190612237565b610a24576040517f08c379a0000000000000000000000000000000000000000000000000000000008152600401610a1b90612afe565b60405180910390fd5b600260009054906101000a900463ffffffff1663ffffffff168263ffffffff161115610a85576040517f08c379a0000000000000000000000000000000000000000000000000000000008152600401610a7c90612abe565b60405180910390fd5b3373ffffffffffffffffffffffffffffffffffffffff166000808463ffffffff1663ffffffff16815260200190815260200160002060030160089054906101000a900473ffffffffffffffffffffffffffffffffffffffff1673ffffffffffffffffffffffffffffffffffffffff1614610b34576040517f08c379a0000000000000000000000000000000000000000000000000000000008152600401610b2b90612ade565b60405180910390fd5b806000808463ffffffff1663ffffffff16815260200190815260200160002060030160046101000a81548163ffffffff021916908363ffffffff1602179055505050565b6000600260009054906101000a900463ffffffff16905090565b600260049054906101000a900460ff1615610be2576040517f08c379a0000000000000000000000000000000000000000000000000000000008152600401610bd990612b5e565b60405180910390fd5b81600260056101000a81548173ffffffffffffffffffffffffffffffffffffffff021916908373ffffffffffffffffffffffffffffffffffffffff16021790555080600360006101000a81548173ffffffffffffffffffffffffffffffffffffffff021916908373ffffffffffffffffffffffffffffffffffffffff1602179055506001600260046101000a81548160ff0219169083151502179055505050565b600260009054906101000a900463ffffffff1681565b610ca1611c67565b6000600183604051610cb39190612990565b908152602001604051809103902060009054906101000a900463ffffffff16905060008163ffffffff161415610d1e576040517f08c379a0000000000000000000000000000000000000000000000000000000008152600401610d1590612b1e565b60405180910390fd5b6000808263ffffffff1663ffffffff168152602001908152602001600020604051806101400160405290816000820160009054906101000a900463ffffffff1663ffffffff1663ffffffff168152602001600182018054610d7e9061306b565b80601f0160208091040260200160405190810160405280929190818152602001828054610daa9061306b565b8015610df75780601f10610dcc57610100808354040283529160200191610df7565b820191906000526020600020905b815481529060010190602001808311610dda57829003601f168201915b5050505050815260200160028201805480602002602001604051908101604052809291908181526020018280548015610e7b57602002820191906000526020600020906000905b82829054906101000a900463ffffffff1663ffffffff1681526020019060040190602082600301049283019260010382029150808411610e3e5790505b505050505081526020016003820160009054906101000a900463ffffffff1663ffffffff1663ffffffff1681526020016003820160049054906101000a900463ffffffff1663ffffffff1663ffffffff1681526020016003820160089054906101000a900473ffffffffffffffffffffffffffffffffffffffff1673ffffffffffffffffffffffffffffffffffffffff1673ffffffffffffffffffffffffffffffffffffffff168152602001600482018054610f369061306b565b80601f0160208091040260200160405190810160405280929190818152602001828054610f629061306b565b8015610faf5780601f10610f8457610100808354040283529160200191610faf565b820191906000526020600020905b815481529060010190602001808311610f9257829003601f168201915b50505050508152602001600582015481526020016006820160009054906101000a900460ff16151515158152602001600782015481525050915050919050565b600260059054906101000a900473ffffffffffffffffffffffffffffffffffffffff1681565b600260059054906101000a900473ffffffffffffffffffffffffffffffffffffffff1673ffffffffffffffffffffffffffffffffffffffff1663d1e47bb33360026040518363ffffffff1660e01b81526004016110739291906129ff565b60206040518083038186803b15801561108b57600080fd5b505afa15801561109f573d6000803e3d6000fd5b505050506040513d601f19601f820116820180604052508101906110c39190612237565b611102576040517f08c379a00000000000000000000000000000000000000000000000000000000081526004016110f990612a9e565b60405180910390fd5b600260009054906101000a900463ffffffff1663ffffffff168263ffffffff16111561112d57600080fd5b6000808363ffffffff1663ffffffff16815260200190815260200160002060060160009054906101000a900460ff161561116657600080fd5b60016000808463ffffffff1663ffffffff16815260200190815260200160002060060160006101000a81548160ff021916908315150217905550806000808463ffffffff1663ffffffff168152602001908152602001600020600701819055503373ffffffffffffffffffffffffffffffffffffffff167f42f918b0ad9f72db50eeae844fd35928427a61706b8cc1338de7c002631edab0838360405161120e929190612c12565b60405180910390a25050565b600360009054906101000a900473ffffffffffffffffffffffffffffffffffffffff1681565b600260059054906101000a900473ffffffffffffffffffffffffffffffffffffffff1673ffffffffffffffffffffffffffffffffffffffff1663d1e47bb33360066040518363ffffffff1660e01b815260040161129e9291906129ff565b60206040518083038186803b1580156112b657600080fd5b505afa1580156112ca573d6000803e3d6000fd5b505050506040513d601f19601f820116820180604052508101906112ee9190612237565b61132d576040517f08c379a000000000000000000000000000000000000000000000000000000000815260040161132490612b7e565b60405180910390fd5b600260059054906101000a900473ffffffffffffffffffffffffffffffffffffffff1673ffffffffffffffffffffffffffffffffffffffff16639f7d7f4533306040518363ffffffff1660e01b815260040161138a9291906129d6565b60206040518083038186803b1580156113a257600080fd5b505afa1580156113b6573d6000803e3d6000fd5b505050506040513d601f19601f820116820180604052508101906113da9190612237565b611419576040517f08c379a000000000000000000000000000000000000000000000000000000000815260040161141090612afe565b60405180910390fd5b6000805b8551811015611638576000600360009054906101000a900473ffffffffffffffffffffffffffffffffffffffff1673ffffffffffffffffffffffffffffffffffffffff16635293ea5188848151811061149f577f4e487b7100000000000000000000000000000000000000000000000000000000600052603260045260246000fd5b60200260200101516040518263ffffffff1660e01b81526004016114c39190612bc0565b6101806040518083038186803b1580156114dc57600080fd5b505afa1580156114f0573d6000803e3d6000fd5b505050506040513d601f19601f8201168201806040525081019061151491906122a1565b90508060400151836115269190612e0b565b9250806080015161156c576040517f08c379a000000000000000000000000000000000000000000000000000000000815260040161156390612b3e565b60405180910390fd5b3373ffffffffffffffffffffffffffffffffffffffff168160e0015173ffffffffffffffffffffffffffffffffffffffff16146115de576040517f08c379a00000000000000000000000000000000000000000000000000000000081526004016115d590612a7e565b60405180910390fd5b80610120015115611624576040517f08c379a000000000000000000000000000000000000000000000000000000000815260040161161b90612a5e565b60405180910390fd5b5080806116309061309d565b91505061141d565b506002600081819054906101000a900463ffffffff168092919061165b906130e6565b91906101000a81548163ffffffff021916908363ffffffff1602179055505060005b85518163ffffffff16101561177757600360009054906101000a900473ffffffffffffffffffffffffffffffffffffffff1673ffffffffffffffffffffffffffffffffffffffff16639f867340878363ffffffff1681518110611709577f4e487b7100000000000000000000000000000000000000000000000000000000600052603260045260246000fd5b60200260200101516001336040518463ffffffff1660e01b815260040161173293929190612bdb565b600060405180830381600087803b15801561174c57600080fd5b505af1158015611760573d6000803e3d6000fd5b50505050808061176f906130e6565b91505061167d565b506000611782611a41565b9050604051806101400160405280600260009054906101000a900463ffffffff1663ffffffff1681526020018281526020018781526020018363ffffffff1681526020018663ffffffff1681526020013373ffffffffffffffffffffffffffffffffffffffff1681526020018581526020018481526020016000151581526020016000801b815250600080600260009054906101000a900463ffffffff1663ffffffff1663ffffffff16815260200190815260200160002060008201518160000160006101000a81548163ffffffff021916908363ffffffff160217905550602082015181600101908051906020019061187d929190611cea565b50604082015181600201908051906020019061189a929190611d70565b5060608201518160030160006101000a81548163ffffffff021916908363ffffffff16021790555060808201518160030160046101000a81548163ffffffff021916908363ffffffff16021790555060a08201518160030160086101000a81548173ffffffffffffffffffffffffffffffffffffffff021916908373ffffffffffffffffffffffffffffffffffffffff16021790555060c082015181600401908051906020019061194c929190611cea565b5060e082015181600501556101008201518160060160006101000a81548160ff0219169083151502179055506101208201518160070155905050600260009054906101000a900463ffffffff166001826040516119a99190612990565b908152602001604051809103902060006101000a81548163ffffffff021916908363ffffffff1602179055503373ffffffffffffffffffffffffffffffffffffffff167fac99a946d149ad7965440d306b135d791a1b84bf070e7ed1400131a45233426a600260009054906101000a900463ffffffff168488604051611a3193929190612cd6565b60405180910390a2505050505050565b6060611a4c42611a92565b611a6d600260009054906101000a900463ffffffff1663ffffffff16611a92565b604051602001611a7e9291906129a7565b604051602081830303815290604052905090565b60606000821415611ada576040518060400160405280600181526020017f30000000000000000000000000000000000000000000000000000000000000008152509050611c62565b600082905060005b60008214611b0c578080611af59061309d565b915050600a82611b059190612e7c565b9150611ae2565b60008167ffffffffffffffff811115611b4e577f4e487b7100000000000000000000000000000000000000000000000000000000600052604160045260246000fd5b6040519080825280601f01601f191660200182016040528015611b805781602001600182028036833780820191505090505b50905060008290505b60008614611c5a57600181611b9e9190612f07565b90506000600a8088611bb09190612e7c565b611bba9190612ead565b87611bc59190612f07565b6030611bd19190612e45565b905060008160f81b905080848481518110611c15577f4e487b7100000000000000000000000000000000000000000000000000000000600052603260045260246000fd5b60200101907effffffffffffffffffffffffffffffffffffffffffffffffffffffffffffff1916908160001a905350600a88611c519190612e7c565b97505050611b89565b819450505050505b919050565b604051806101400160405280600063ffffffff1681526020016060815260200160608152602001600063ffffffff168152602001600063ffffffff168152602001600073ffffffffffffffffffffffffffffffffffffffff1681526020016060815260200160008019168152602001600015158152602001600080191681525090565b828054611cf69061306b565b90600052602060002090601f016020900481019282611d185760008555611d5f565b82601f10611d3157805160ff1916838001178555611d5f565b82800160010185558215611d5f579182015b82811115611d5e578251825591602001919060010190611d43565b5b509050611d6c9190611e20565b5090565b82805482825590600052602060002090600701600890048101928215611e0f5791602002820160005b83821115611ddd57835183826101000a81548163ffffffff021916908363ffffffff1602179055509260200192600401602081600301049283019260010302611d99565b8015611e0d5782816101000a81549063ffffffff0219169055600401602081600301049283019260010302611ddd565b505b509050611e1c9190611e20565b5090565b5b80821115611e39576000816000905550600101611e21565b5090565b6000611e50611e4b84612d3e565b612d0d565b90508083825260208201905082856020860282011115611e6f57600080fd5b60005b85811015611e9f5781611e8588826120ec565b845260208401935060208301925050600181019050611e72565b5050509392505050565b6000611ebc611eb784612d6a565b612d0d565b905082815260208101848484011115611ed457600080fd5b611edf848285613029565b509392505050565b600081359050611ef681613223565b92915050565b600081519050611f0b81613223565b92915050565b600081359050611f208161323a565b92915050565b600082601f830112611f3757600080fd5b8135611f47848260208601611e3d565b91505092915050565b600081519050611f5f81613251565b92915050565b600081359050611f7481613268565b92915050565b600081519050611f898161327f565b92915050565b600081519050611f9e8161328f565b92915050565b600082601f830112611fb557600080fd5b8135611fc5848260208601611ea9565b91505092915050565b60006101808284031215611fe157600080fd5b611fec610180612d0d565b90506000611ffc84828501612101565b600083015250602061201084828501612101565b602083015250604061202484828501612101565b604083015250606061203884828501612101565b606083015250608061204c84828501611f50565b60808301525060a061206084828501611f8f565b60a08301525060c061207484828501611efc565b60c08301525060e061208884828501611efc565b60e08301525061010061209d84828501611f7a565b610100830152506101206120b384828501611f50565b610120830152506101406120c984828501611f50565b610140830152506101606120df84828501611efc565b6101608301525092915050565b6000813590506120fb8161329f565b92915050565b6000815190506121108161329f565b92915050565b60006020828403121561212857600080fd5b600061213684828501611ee7565b91505092915050565b60006020828403121561215157600080fd5b600061215f84828501611f11565b91505092915050565b6000806040838503121561217b57600080fd5b600061218985828601611ee7565b925050602061219a85828601611f11565b9150509250929050565b600080600080608085870312156121ba57600080fd5b600085013567ffffffffffffffff8111156121d457600080fd5b6121e087828801611f26565b94505060206121f1878288016120ec565b935050604085013567ffffffffffffffff81111561220e57600080fd5b61221a87828801611fa4565b925050606061222b87828801611f65565b91505092959194509250565b60006020828403121561224957600080fd5b600061225784828501611f50565b91505092915050565b60006020828403121561227257600080fd5b600082013567ffffffffffffffff81111561228c57600080fd5b61229884828501611fa4565b91505092915050565b600061018082840312156122b457600080fd5b60006122c284828501611fce565b91505092915050565b6000602082840312156122dd57600080fd5b60006122eb848285016120ec565b91505092915050565b6000806040838503121561230757600080fd5b6000612315858286016120ec565b925050602061232685828601611f65565b9150509250929050565b6000806040838503121561234357600080fd5b6000612351858286016120ec565b9250506020612362858286016120ec565b9150509250929050565b60006123788383612972565b60208301905092915050565b61238d81612f3b565b82525050565b61239c81612f3b565b82525050565b60006123ad82612daa565b6123b78185612dcd565b93506123c283612d9a565b8060005b838110156123f35781516123da888261236c565b97506123e583612dc0565b9250506001810190506123c6565b5085935050505092915050565b61240981612f5f565b82525050565b61241881612f5f565b82525050565b61242781612f6b565b82525050565b61243681612f6b565b82525050565b61244581612fcf565b82525050565b61245481612ff3565b82525050565b61246381613017565b82525050565b600061247482612db5565b61247e8185612dde565b935061248e818560208601613038565b612497816131fe565b840191505092915050565b60006124ad82612db5565b6124b78185612def565b93506124c7818560208601613038565b6124d0816131fe565b840191505092915050565b60006124e682612db5565b6124f08185612e00565b9350612500818560208601613038565b80840191505092915050565b6000612519601a83612def565b91507f636f6d6d616e64652064656a6120656e7265676973747265722e0000000000006000830152602082019050919050565b6000612559601c83612def565b91507f566f7573206e27657374207061732070726f7072696574616972652e000000006000830152602082019050919050565b6000612599602583612def565b91507f4e6f6e206175746f726973653a207365756c656d656e7420436572746966696360008301527f61746575720000000000000000000000000000000000000000000000000000006020830152604082019050919050565b60006125ff600383612e00565b91507f41525400000000000000000000000000000000000000000000000000000000006000830152600382019050919050565b600061263f600c83612def565b91507f496420696e636f727265637400000000000000000000000000000000000000006000830152602082019050919050565b600061267f602d83612def565b91507f566f7573206e2765746573207061732070726f7072696574616972652064652060008301527f63657474652061727469636c65000000000000000000000000000000000000006020830152604082019050919050565b60006126e5602183612def565b91507f4e6f6e206175746f726973653a20636f6e74726174206e6f6e2064656c65677560008301527f65000000000000000000000000000000000000000000000000000000000000006020830152604082019050919050565b600061274b602983612def565b91507f5265666572656e636520696e76616c696465206f752061727469636c6520696e60008301527f6578697374616e742e00000000000000000000000000000000000000000000006020830152604082019050919050565b60006127b1601383612def565b91507f436f6d6d616e6465206e6f6e2070617965722e000000000000000000000000006000830152602082019050919050565b60006127f1601a83612def565b91507f436f6e747261742064656a6120696e697469616c6973657220210000000000006000830152602082019050919050565b6000612831602383612def565b91507f4e6f6e206175746f726973653a207365756c656d656e74204578706f7274617460008301527f65757200000000000000000000000000000000000000000000000000000000006020830152604082019050919050565b6000610140830160008301516128a36000860182612972565b50602083015184820360208601526128bb8282612469565b915050604083015184820360408601526128d582826123a2565b91505060608301516128ea6060860182612972565b5060808301516128fd6080860182612972565b5060a083015161291060a0860182612384565b5060c083015184820360c08601526129288282612469565b91505060e083015161293d60e086018261241e565b50610100830151612952610100860182612400565b5061012083015161296761012086018261241e565b508091505092915050565b61297b81612fb2565b82525050565b61298a81612fb2565b82525050565b600061299c82846124db565b915081905092915050565b60006129b2826125f2565b91506129be82856124db565b91506129ca82846124db565b91508190509392505050565b60006040820190506129eb6000830185612393565b6129f86020830184612393565b9392505050565b6000604082019050612a146000830185612393565b612a21602083018461245a565b9392505050565b6000602082019050612a3d600083018461243c565b92915050565b6000602082019050612a58600083018461244b565b92915050565b60006020820190508181036000830152612a778161250c565b9050919050565b60006020820190508181036000830152612a978161254c565b9050919050565b60006020820190508181036000830152612ab78161258c565b9050919050565b60006020820190508181036000830152612ad781612632565b9050919050565b60006020820190508181036000830152612af781612672565b9050919050565b60006020820190508181036000830152612b17816126d8565b9050919050565b60006020820190508181036000830152612b378161273e565b9050919050565b60006020820190508181036000830152612b57816127a4565b9050919050565b60006020820190508181036000830152612b77816127e4565b9050919050565b60006020820190508181036000830152612b9781612824565b9050919050565b60006020820190508181036000830152612bb8818461288a565b905092915050565b6000602082019050612bd56000830184612981565b92915050565b6000606082019050612bf06000830186612981565b612bfd602083018561240f565b612c0a6040830184612393565b949350505050565b6000604082019050612c276000830185612981565b612c34602083018461242d565b9392505050565b600061012082019050612c51600083018c612981565b8181036020830152612c63818b6124a2565b9050612c72604083018a612981565b612c7f6060830189612981565b612c8c6080830188612393565b81810360a0830152612c9e81876124a2565b9050612cad60c083018661242d565b612cba60e083018561240f565b612cc861010083018461242d565b9a9950505050505050505050565b6000606082019050612ceb6000830186612981565b612cf86020830185612981565b612d056040830184612981565b949350505050565b6000604051905081810181811067ffffffffffffffff82111715612d3457612d336131cf565b5b8060405250919050565b600067ffffffffffffffff821115612d5957612d586131cf565b5b602082029050602081019050919050565b600067ffffffffffffffff821115612d8557612d846131cf565b5b601f19601f8301169050602081019050919050565b6000819050602082019050919050565b600081519050919050565b600081519050919050565b6000602082019050919050565b600082825260208201905092915050565b600082825260208201905092915050565b600082825260208201905092915050565b600081905092915050565b6000612e1682612fb2565b9150612e2183612fb2565b92508263ffffffff03821115612e3a57612e39613113565b5b828201905092915050565b6000612e5082612fc2565b9150612e5b83612fc2565b92508260ff03821115612e7157612e70613113565b5b828201905092915050565b6000612e8782612fa8565b9150612e9283612fa8565b925082612ea257612ea1613142565b5b828204905092915050565b6000612eb882612fa8565b9150612ec383612fa8565b9250817fffffffffffffffffffffffffffffffffffffffffffffffffffffffffffffffff0483118215151615612efc57612efb613113565b5b828202905092915050565b6000612f1282612fa8565b9150612f1d83612fa8565b925082821015612f3057612f2f613113565b5b828203905092915050565b6000612f4682612f88565b9050919050565b6000612f5882612f88565b9050919050565b60008115159050919050565b6000819050919050565b6000819050612f838261320f565b919050565b600073ffffffffffffffffffffffffffffffffffffffff82169050919050565b6000819050919050565b600063ffffffff82169050919050565b600060ff82169050919050565b6000612fda82612fe1565b9050919050565b6000612fec82612f88565b9050919050565b6000612ffe82613005565b9050919050565b600061301082612f88565b9050919050565b600061302282612f75565b9050919050565b82818337600083830152505050565b60005b8381101561305657808201518184015260208101905061303b565b83811115613065576000848401525b50505050565b6000600282049050600182168061308357607f821691505b60208210811415613097576130966131a0565b5b50919050565b60006130a882612fa8565b91507fffffffffffffffffffffffffffffffffffffffffffffffffffffffffffffffff8214156130db576130da613113565b5b600182019050919050565b60006130f182612fb2565b915063ffffffff82141561310857613107613113565b5b600182019050919050565b7f4e487b7100000000000000000000000000000000000000000000000000000000600052601160045260246000fd5b7f4e487b7100000000000000000000000000000000000000000000000000000000600052601260045260246000fd5b7f4e487b7100000000000000000000000000000000000000000000000000000000600052602160045260246000fd5b7f4e487b7100000000000000000000000000000000000000000000000000000000600052602260045260246000fd5b7f4e487b7100000000000000000000000000000000000000000000000000000000600052604160045260246000fd5b6000601f19601f8301169050919050565b600881106132205761321f613171565b5b50565b61322c81612f3b565b811461323757600080fd5b50565b61324381612f4d565b811461324e57600080fd5b50565b61325a81612f5f565b811461326557600080fd5b50565b61327181612f6b565b811461327c57600080fd5b50565b6003811061328c57600080fd5b50565b6002811061329c57600080fd5b50565b6132a881612fb2565b81146132b357600080fd5b5056fea2646970667358221220fba1f1d1733438b0a3fe6160d68845c3329db7a858364ee9c0822b92b425badf64736f6c63430008000033",
  "linkReferences": {},
  "deployedLinkReferences": {}
}