{
  "_format": "hh-sol-artifact-1",
  "contractName": "ExportateurClient",
  "sourceName": "contracts/ExportateurClient.sol",
  "abi": [
    {
      "anonymous": false,
      "inputs": [
        {
          "indexed": true,
          "internalType": "address",
          "name": "exportateur",
          "type": "address"
        },
        {
          "indexed": false,
          "internalType": "uint32",
          "name": "idArticle",
          "type": "uint32"
        },
        {
          "indexed": false,
          "internalType": "uint32",
          "name": "quantite",
          "type": "uint32"
        },
        {
          "indexed": false,
          "internalType": "uint32",
          "name": "prix",
          "type": "uint32"
        }
      ],
      "name": "AjoutArticle",
      "type": "event"
    },
    {
      "stateMutability": "payable",
      "type": "fallback"
    },
    {
      "inputs": [
        {
          "internalType": "uint32[]",
          "name": "_idCommandeProduits",
          "type": "uint32[]"
        },
        {
          "internalType": "uint32",
          "name": "_prix",
          "type": "uint32"
        },
        {
          "internalType": "string",
          "name": "_cid",
          "type": "string"
        },
        {
          "internalType": "string",
          "name": "_hashMerkle",
          "type": "string"
        }
      ],
      "name": "ajoutArticle",
      "outputs": [],
      "stateMutability": "nonpayable",
      "type": "function"
    },
    {
      "inputs": [
        {
          "internalType": "uint32",
          "name": "",
          "type": "uint32"
        }
      ],
      "name": "articles",
      "outputs": [
        {
          "internalType": "uint32",
          "name": "id",
          "type": "uint32"
        },
        {
          "internalType": "string",
          "name": "ref",
          "type": "string"
        },
        {
          "internalType": "uint32",
          "name": "quantite",
          "type": "uint32"
        },
        {
          "internalType": "uint32",
          "name": "prix",
          "type": "uint32"
        },
        {
          "internalType": "address",
          "name": "exportateur",
          "type": "address"
        },
        {
          "internalType": "string",
          "name": "cid",
          "type": "string"
        },
        {
          "internalType": "string",
          "name": "hashMerkle",
          "type": "string"
        }
      ],
      "stateMutability": "view",
      "type": "function"
    },
    {
      "inputs": [],
      "name": "collecteurExportateur",
      "outputs": [
        {
          "internalType": "contract CollecteurExportateur",
          "name": "",
          "type": "address"
        }
      ],
      "stateMutability": "view",
      "type": "function"
    },
    {
      "inputs": [],
      "name": "compteurArticles",
      "outputs": [
        {
          "internalType": "uint32",
          "name": "",
          "type": "uint32"
        }
      ],
      "stateMutability": "view",
      "type": "function"
    },
    {
      "inputs": [],
      "name": "gestionnaireActeurs",
      "outputs": [
        {
          "internalType": "contract GestionnaireActeurs",
          "name": "",
          "type": "address"
        }
      ],
      "stateMutability": "view",
      "type": "function"
    },
    {
      "inputs": [
        {
          "internalType": "uint32",
          "name": "id",
          "type": "uint32"
        }
      ],
      "name": "getArticle",
      "outputs": [
        {
          "components": [
            {
              "internalType": "uint32",
              "name": "id",
              "type": "uint32"
            },
            {
              "internalType": "string",
              "name": "ref",
              "type": "string"
            },
            {
              "internalType": "uint32[]",
              "name": "idLotProduit",
              "type": "uint32[]"
            },
            {
              "internalType": "uint32",
              "name": "quantite",
              "type": "uint32"
            },
            {
              "internalType": "uint32",
              "name": "prix",
              "type": "uint32"
            },
            {
              "internalType": "address",
              "name": "exportateur",
              "type": "address"
            },
            {
              "internalType": "string",
              "name": "cid",
              "type": "string"
            },
            {
              "internalType": "string",
              "name": "hashMerkle",
              "type": "string"
            }
          ],
          "internalType": "struct StructLib.Article",
          "name": "",
          "type": "tuple"
        }
      ],
      "stateMutability": "view",
      "type": "function"
    },
    {
      "inputs": [],
      "name": "getCompteurArticles",
      "outputs": [
        {
          "internalType": "uint32",
          "name": "",
          "type": "uint32"
        }
      ],
      "stateMutability": "view",
      "type": "function"
    },
    {
      "inputs": [
        {
          "internalType": "address",
          "name": "_gestionnaireActeurs",
          "type": "address"
        },
        {
          "internalType": "address payable",
          "name": "_collecteurExportateur",
          "type": "address"
        }
      ],
      "name": "initialiser",
      "outputs": [],
      "stateMutability": "nonpayable",
      "type": "function"
    },
    {
      "inputs": [
        {
          "internalType": "address payable",
          "name": "_addr",
          "type": "address"
        }
      ],
      "name": "setCollecteurExportateur",
      "outputs": [],
      "stateMutability": "nonpayable",
      "type": "function"
    },
    {
      "inputs": [
        {
          "internalType": "address",
          "name": "_addr",
          "type": "address"
        }
      ],
      "name": "setGestionnaireActeurs",
      "outputs": [],
      "stateMutability": "nonpayable",
      "type": "function"
    },
    {
      "inputs": [
        {
          "internalType": "uint32",
          "name": "_idArticle",
          "type": "uint32"
        },
        {
          "internalType": "uint32",
          "name": "_prix",
          "type": "uint32"
        }
      ],
      "name": "setPriceArticle",
      "outputs": [],
      "stateMutability": "nonpayable",
      "type": "function"
    },
    {
      "stateMutability": "payable",
      "type": "receive"
    }
  ],
  "bytecode": "0x608060405234801561001057600080fd5b50612944806100206000396000f3fe6080604052600436106100a05760003560e01c8063704cdb7e11610064578063704cdb7e146101a4578063771c4a51146101cd57806380844fba146101f857806382b9ca46146102215780639e942cd41461024c578063eb072cd414610277576100a7565b80632cb0d412146100a957806337a43847146100ec5780633e7a6049146101295780634a13dac7146101525780634bb43c351461017b576100a7565b366100a757005b005b3480156100b557600080fd5b506100d060048036038101906100cb9190611c50565b6102a2565b6040516100e397969594939291906122cb565b60405180910390f35b3480156100f857600080fd5b50610113600480360381019061010e9190611c50565b6104cc565b6040516101209190612265565b60405180910390f35b34801561013557600080fd5b50610150600480360381019061014b9190611aad565b610807565b005b34801561015e57600080fd5b5061017960048036038101906101749190611b3b565b61084b565b005b34801561018757600080fd5b506101a2600480360381019061019d9190611ad6565b610f69565b005b3480156101b057600080fd5b506101cb60048036038101906101c69190611c79565b610fad565b005b3480156101d957600080fd5b506101e26111ee565b6040516101ef9190612287565b60405180910390f35b34801561020457600080fd5b5061021f600480360381019061021a9190611aff565b611208565b005b34801561022d57600080fd5b506102366112f8565b6040516102439190612287565b60405180910390f35b34801561025857600080fd5b5061026161130e565b60405161026e919061218a565b60405180910390f35b34801561028357600080fd5b5061028c611334565b604051610299919061216f565b60405180910390f35b60006020528060005260406000206000915090508060000160009054906101000a900463ffffffff16908060010180546102db906126da565b80601f0160208091040260200160405190810160405280929190818152602001828054610307906126da565b80156103545780601f1061032957610100808354040283529160200191610354565b820191906000526020600020905b81548152906001019060200180831161033757829003601f168201915b5050505050908060030160009054906101000a900463ffffffff16908060030160049054906101000a900463ffffffff16908060030160089054906101000a900473ffffffffffffffffffffffffffffffffffffffff16908060040180546103bb906126da565b80601f01602080910402602001604051908101604052809291908181526020018280546103e7906126da565b80156104345780601f1061040957610100808354040283529160200191610434565b820191906000526020600020905b81548152906001019060200180831161041757829003601f168201915b505050505090806005018054610449906126da565b80601f0160208091040260200160405190810160405280929190818152602001828054610475906126da565b80156104c25780601f10610497576101008083540402835291602001916104c2565b820191906000526020600020905b8154815290600101906020018083116104a557829003601f168201915b5050505050905087565b6104d46115bf565b6000808363ffffffff1663ffffffff168152602001908152602001600020604051806101000160405290816000820160009054906101000a900463ffffffff1663ffffffff1663ffffffff168152602001600182018054610534906126da565b80601f0160208091040260200160405190810160405280929190818152602001828054610560906126da565b80156105ad5780601f10610582576101008083540402835291602001916105ad565b820191906000526020600020905b81548152906001019060200180831161059057829003601f168201915b505050505081526020016002820180548060200260200160405190810160405280929190818152602001828054801561063157602002820191906000526020600020906000905b82829054906101000a900463ffffffff1663ffffffff16815260200190600401906020826003010492830192600103820291508084116105f45790505b505050505081526020016003820160009054906101000a900463ffffffff1663ffffffff1663ffffffff1681526020016003820160049054906101000a900463ffffffff1663ffffffff1663ffffffff1681526020016003820160089054906101000a900473ffffffffffffffffffffffffffffffffffffffff1673ffffffffffffffffffffffffffffffffffffffff1673ffffffffffffffffffffffffffffffffffffffff1681526020016004820180546106ec906126da565b80601f0160208091040260200160405190810160405280929190818152602001828054610718906126da565b80156107655780601f1061073a57610100808354040283529160200191610765565b820191906000526020600020905b81548152906001019060200180831161074857829003601f168201915b5050505050815260200160058201805461077e906126da565b80601f01602080910402602001604051908101604052809291908181526020018280546107aa906126da565b80156107f75780601f106107cc576101008083540402835291602001916107f7565b820191906000526020600020905b8154815290600101906020018083116107da57829003601f168201915b5050505050815250509050919050565b80600160056101000a81548173ffffffffffffffffffffffffffffffffffffffff021916908373ffffffffffffffffffffffffffffffffffffffff16021790555050565b600160059054906101000a900473ffffffffffffffffffffffffffffffffffffffff1673ffffffffffffffffffffffffffffffffffffffff1663d1e47bb33360066040518363ffffffff1660e01b81526004016108a9929190612146565b60206040518083038186803b1580156108c157600080fd5b505afa1580156108d5573d6000803e3d6000fd5b505050506040513d601f19601f820116820180604052508101906108f99190611be6565b610938576040517f08c379a000000000000000000000000000000000000000000000000000000000815260040161092f90612245565b60405180910390fd5b6000845167ffffffffffffffff81111561097b577f4e487b7100000000000000000000000000000000000000000000000000000000600052604160045260246000fd5b6040519080825280602002602001820160405280156109a95781602001602082028036833780820191505090505b5090506000805b8651811015610be1576000600260009054906101000a900473ffffffffffffffffffffffffffffffffffffffff1673ffffffffffffffffffffffffffffffffffffffff16635293ea51898481518110610a32577f4e487b7100000000000000000000000000000000000000000000000000000000600052603260045260246000fd5b60200260200101516040518263ffffffff1660e01b8152600401610a569190612287565b60006040518083038186803b158015610a6e57600080fd5b505afa158015610a82573d6000803e3d6000fd5b505050506040513d6000823e3d601f19601f82011682018060405250810190610aab9190611c0f565b90508060200151848381518110610aeb577f4e487b7100000000000000000000000000000000000000000000000000000000600052603260045260246000fd5b602002602001019063ffffffff16908163ffffffff1681525050806040015183610b159190612484565b92508060800151610b5b576040517f08c379a0000000000000000000000000000000000000000000000000000000008152600401610b5290612205565b60405180910390fd5b3373ffffffffffffffffffffffffffffffffffffffff168160e0015173ffffffffffffffffffffffffffffffffffffffff1614610bcd576040517f08c379a0000000000000000000000000000000000000000000000000000000008152600401610bc4906121a5565b60405180910390fd5b508080610bd99061270c565b9150506109b0565b506001600081819054906101000a900463ffffffff1680929190610c0490612755565b91906101000a81548163ffffffff021916908363ffffffff1602179055505060005b86518163ffffffff161015610d1e57600260009054906101000a900473ffffffffffffffffffffffffffffffffffffffff1673ffffffffffffffffffffffffffffffffffffffff1663c4c8d194888363ffffffff1681518110610cb2577f4e487b7100000000000000000000000000000000000000000000000000000000600052603260045260246000fd5b602002602001015160016040518363ffffffff1660e01b8152600401610cd99291906122a2565b600060405180830381600087803b158015610cf357600080fd5b505af1158015610d07573d6000803e3d6000fd5b505050508080610d1690612755565b915050610c26565b50604051806101000160405280600160009054906101000a900463ffffffff1663ffffffff168152602001610d5161135a565b81526020018381526020018263ffffffff1681526020018663ffffffff1681526020013373ffffffffffffffffffffffffffffffffffffffff16815260200185815260200184815250600080600160009054906101000a900463ffffffff1663ffffffff1663ffffffff16815260200190815260200160002060008201518160000160006101000a81548163ffffffff021916908363ffffffff1602179055506020820151816001019080519060200190610e0d92919061162c565b506040820151816002019080519060200190610e2a9291906116b2565b5060608201518160030160006101000a81548163ffffffff021916908363ffffffff16021790555060808201518160030160046101000a81548163ffffffff021916908363ffffffff16021790555060a08201518160030160086101000a81548173ffffffffffffffffffffffffffffffffffffffff021916908373ffffffffffffffffffffffffffffffffffffffff16021790555060c0820151816004019080519060200190610edc92919061162c565b5060e0820151816005019080519060200190610ef992919061162c565b509050503373ffffffffffffffffffffffffffffffffffffffff167fac99a946d149ad7965440d306b135d791a1b84bf070e7ed1400131a45233426a600160009054906101000a900463ffffffff168388604051610f599392919061234f565b60405180910390a2505050505050565b80600260006101000a81548173ffffffffffffffffffffffffffffffffffffffff021916908373ffffffffffffffffffffffffffffffffffffffff16021790555050565b600160059054906101000a900473ffffffffffffffffffffffffffffffffffffffff1673ffffffffffffffffffffffffffffffffffffffff1663d1e47bb33360066040518363ffffffff1660e01b815260040161100b929190612146565b60206040518083038186803b15801561102357600080fd5b505afa158015611037573d6000803e3d6000fd5b505050506040513d601f19601f8201168201806040525081019061105b9190611be6565b61109a576040517f08c379a000000000000000000000000000000000000000000000000000000000815260040161109190612245565b60405180910390fd5b600160009054906101000a900463ffffffff1663ffffffff168263ffffffff1611156110fb576040517f08c379a00000000000000000000000000000000000000000000000000000000081526004016110f2906121c5565b60405180910390fd5b3373ffffffffffffffffffffffffffffffffffffffff166000808463ffffffff1663ffffffff16815260200190815260200160002060030160089054906101000a900473ffffffffffffffffffffffffffffffffffffffff1673ffffffffffffffffffffffffffffffffffffffff16146111aa576040517f08c379a00000000000000000000000000000000000000000000000000000000081526004016111a1906121e5565b60405180910390fd5b806000808463ffffffff1663ffffffff16815260200190815260200160002060030160046101000a81548163ffffffff021916908363ffffffff1602179055505050565b6000600160009054906101000a900463ffffffff16905090565b600160049054906101000a900460ff1615611258576040517f08c379a000000000000000000000000000000000000000000000000000000000815260040161124f90612225565b60405180910390fd5b81600160056101000a81548173ffffffffffffffffffffffffffffffffffffffff021916908373ffffffffffffffffffffffffffffffffffffffff16021790555080600260006101000a81548173ffffffffffffffffffffffffffffffffffffffff021916908373ffffffffffffffffffffffffffffffffffffffff16021790555060018060046101000a81548160ff0219169083151502179055505050565b600160009054906101000a900463ffffffff1681565b600160059054906101000a900473ffffffffffffffffffffffffffffffffffffffff1681565b600260009054906101000a900473ffffffffffffffffffffffffffffffffffffffff1681565b606060018060008282829054906101000a900463ffffffff1661137d9190612484565b92506101000a81548163ffffffff021916908363ffffffff1602179055506113a4426113ea565b6113c5600160009054906101000a900463ffffffff1663ffffffff166113ea565b6040516020016113d6929190612117565b604051602081830303815290604052905090565b60606000821415611432576040518060400160405280600181526020017f300000000000000000000000000000000000000000000000000000000000000081525090506115ba565b600082905060005b6000821461146457808061144d9061270c565b915050600a8261145d91906124f5565b915061143a565b60008167ffffffffffffffff8111156114a6577f4e487b7100000000000000000000000000000000000000000000000000000000600052604160045260246000fd5b6040519080825280601f01601f1916602001820160405280156114d85781602001600182028036833780820191505090505b50905060008290505b600086146115b2576001816114f69190612580565b90506000600a808861150891906124f5565b6115129190612526565b8761151d9190612580565b603061152991906124be565b905060008160f81b90508084848151811061156d577f4e487b7100000000000000000000000000000000000000000000000000000000600052603260045260246000fd5b60200101907effffffffffffffffffffffffffffffffffffffffffffffffffffffffffffff1916908160001a905350600a886115a991906124f5565b975050506114e1565b819450505050505b919050565b604051806101000160405280600063ffffffff1681526020016060815260200160608152602001600063ffffffff168152602001600063ffffffff168152602001600073ffffffffffffffffffffffffffffffffffffffff16815260200160608152602001606081525090565b828054611638906126da565b90600052602060002090601f01602090048101928261165a57600085556116a1565b82601f1061167357805160ff19168380011785556116a1565b828001600101855582156116a1579182015b828111156116a0578251825591602001919060010190611685565b5b5090506116ae9190611762565b5090565b828054828255906000526020600020906007016008900481019282156117515791602002820160005b8382111561171f57835183826101000a81548163ffffffff021916908363ffffffff16021790555092602001926004016020816003010492830192600103026116db565b801561174f5782816101000a81549063ffffffff021916905560040160208160030104928301926001030261171f565b505b50905061175e9190611762565b5090565b5b8082111561177b576000816000905550600101611763565b5090565b600061179261178d846123b7565b612386565b905080838252602082019050828560208602820111156117b157600080fd5b60005b858110156117e157816117c78882611a83565b8452602084019350602083019250506001810190506117b4565b5050509392505050565b60006117fe6117f9846123e3565b612386565b90508281526020810184848401111561181657600080fd5b611821848285612698565b509392505050565b600061183c611837846123e3565b612386565b90508281526020810184848401111561185457600080fd5b61185f8482856126a7565b509392505050565b60008135905061187681612892565b92915050565b60008151905061188b81612892565b92915050565b6000813590506118a0816128a9565b92915050565b600082601f8301126118b757600080fd5b81356118c784826020860161177f565b91505092915050565b6000815190506118df816128c0565b92915050565b6000815190506118f4816128d7565b92915050565b600081519050611909816128e7565b92915050565b600082601f83011261192057600080fd5b81356119308482602086016117eb565b91505092915050565b600082601f83011261194a57600080fd5b815161195a848260208601611829565b91505092915050565b6000610160828403121561197657600080fd5b611981610160612386565b9050600061199184828501611a98565b60008301525060206119a584828501611a98565b60208301525060406119b984828501611a98565b60408301525060606119cd84828501611a98565b60608301525060806119e1848285016118d0565b60808301525060a06119f5848285016118fa565b60a08301525060c0611a098482850161187c565b60c08301525060e0611a1d8482850161187c565b60e083015250610100611a32848285016118e5565b6101008301525061012082015167ffffffffffffffff811115611a5457600080fd5b611a6084828501611939565b61012083015250610140611a76848285016118d0565b6101408301525092915050565b600081359050611a92816128f7565b92915050565b600081519050611aa7816128f7565b92915050565b600060208284031215611abf57600080fd5b6000611acd84828501611867565b91505092915050565b600060208284031215611ae857600080fd5b6000611af684828501611891565b91505092915050565b60008060408385031215611b1257600080fd5b6000611b2085828601611867565b9250506020611b3185828601611891565b9150509250929050565b60008060008060808587031215611b5157600080fd5b600085013567ffffffffffffffff811115611b6b57600080fd5b611b77878288016118a6565b9450506020611b8887828801611a83565b935050604085013567ffffffffffffffff811115611ba557600080fd5b611bb18782880161190f565b925050606085013567ffffffffffffffff811115611bce57600080fd5b611bda8782880161190f565b91505092959194509250565b600060208284031215611bf857600080fd5b6000611c06848285016118d0565b91505092915050565b600060208284031215611c2157600080fd5b600082015167ffffffffffffffff811115611c3b57600080fd5b611c4784828501611963565b91505092915050565b600060208284031215611c6257600080fd5b6000611c7084828501611a83565b91505092915050565b60008060408385031215611c8c57600080fd5b6000611c9a85828601611a83565b9250506020611cab85828601611a83565b9150509250929050565b6000611cc183836120f9565b60208301905092915050565b611cd6816125b4565b82525050565b611ce5816125b4565b82525050565b6000611cf682612423565b611d008185612446565b9350611d0b83612413565b8060005b83811015611d3c578151611d238882611cb5565b9750611d2e83612439565b925050600181019050611d0f565b5085935050505092915050565b611d52816125d8565b82525050565b611d618161263e565b82525050565b611d7081612662565b82525050565b611d7f81612686565b82525050565b6000611d908261242e565b611d9a8185612457565b9350611daa8185602086016126a7565b611db38161286d565b840191505092915050565b6000611dc98261242e565b611dd38185612468565b9350611de38185602086016126a7565b611dec8161286d565b840191505092915050565b6000611e028261242e565b611e0c8185612479565b9350611e1c8185602086016126a7565b80840191505092915050565b6000611e35601c83612468565b91507f566f7573206e27657374207061732070726f7072696574616972652e000000006000830152602082019050919050565b6000611e75600383612479565b91507f41525400000000000000000000000000000000000000000000000000000000006000830152600382019050919050565b6000611eb5600c83612468565b91507f496420696e636f727265637400000000000000000000000000000000000000006000830152602082019050919050565b6000611ef5602d83612468565b91507f566f7573206e2765746573207061732070726f7072696574616972652064652060008301527f63657474652061727469636c65000000000000000000000000000000000000006020830152604082019050919050565b6000611f5b601383612468565b91507f436f6d6d616e6465206e6f6e2070617965722e000000000000000000000000006000830152602082019050919050565b6000611f9b601a83612468565b91507f436f6e747261742064656a6120696e697469616c6973657220210000000000006000830152602082019050919050565b6000611fdb602383612468565b91507f4e6f6e206175746f726973653a207365756c656d656e74204578706f7274617460008301527f65757200000000000000000000000000000000000000000000000000000000006020830152604082019050919050565b60006101008301600083015161204d60008601826120f9565b50602083015184820360208601526120658282611d85565b9150506040830151848203604086015261207f8282611ceb565b915050606083015161209460608601826120f9565b5060808301516120a760808601826120f9565b5060a08301516120ba60a0860182611ccd565b5060c083015184820360c08601526120d28282611d85565b91505060e083015184820360e08601526120ec8282611d85565b9150508091505092915050565b61210281612621565b82525050565b61211181612621565b82525050565b600061212282611e68565b915061212e8285611df7565b915061213a8284611df7565b91508190509392505050565b600060408201905061215b6000830185611cdc565b6121686020830184611d76565b9392505050565b60006020820190506121846000830184611d58565b92915050565b600060208201905061219f6000830184611d67565b92915050565b600060208201905081810360008301526121be81611e28565b9050919050565b600060208201905081810360008301526121de81611ea8565b9050919050565b600060208201905081810360008301526121fe81611ee8565b9050919050565b6000602082019050818103600083015261221e81611f4e565b9050919050565b6000602082019050818103600083015261223e81611f8e565b9050919050565b6000602082019050818103600083015261225e81611fce565b9050919050565b6000602082019050818103600083015261227f8184612034565b905092915050565b600060208201905061229c6000830184612108565b92915050565b60006040820190506122b76000830185612108565b6122c46020830184611d49565b9392505050565b600060e0820190506122e0600083018a612108565b81810360208301526122f28189611dbe565b90506123016040830188612108565b61230e6060830187612108565b61231b6080830186611cdc565b81810360a083015261232d8185611dbe565b905081810360c08301526123418184611dbe565b905098975050505050505050565b60006060820190506123646000830186612108565b6123716020830185612108565b61237e6040830184612108565b949350505050565b6000604051905081810181811067ffffffffffffffff821117156123ad576123ac61283e565b5b8060405250919050565b600067ffffffffffffffff8211156123d2576123d161283e565b5b602082029050602081019050919050565b600067ffffffffffffffff8211156123fe576123fd61283e565b5b601f19601f8301169050602081019050919050565b6000819050602082019050919050565b600081519050919050565b600081519050919050565b6000602082019050919050565b600082825260208201905092915050565b600082825260208201905092915050565b600082825260208201905092915050565b600081905092915050565b600061248f82612621565b915061249a83612621565b92508263ffffffff038211156124b3576124b2612782565b5b828201905092915050565b60006124c982612631565b91506124d483612631565b92508260ff038211156124ea576124e9612782565b5b828201905092915050565b600061250082612617565b915061250b83612617565b92508261251b5761251a6127b1565b5b828204905092915050565b600061253182612617565b915061253c83612617565b9250817fffffffffffffffffffffffffffffffffffffffffffffffffffffffffffffffff048311821515161561257557612574612782565b5b828202905092915050565b600061258b82612617565b915061259683612617565b9250828210156125a9576125a8612782565b5b828203905092915050565b60006125bf826125f7565b9050919050565b60006125d1826125f7565b9050919050565b60008115159050919050565b60008190506125f28261287e565b919050565b600073ffffffffffffffffffffffffffffffffffffffff82169050919050565b6000819050919050565b600063ffffffff82169050919050565b600060ff82169050919050565b600061264982612650565b9050919050565b600061265b826125f7565b9050919050565b600061266d82612674565b9050919050565b600061267f826125f7565b9050919050565b6000612691826125e4565b9050919050565b82818337600083830152505050565b60005b838110156126c55780820151818401526020810190506126aa565b838111156126d4576000848401525b50505050565b600060028204905060018216806126f257607f821691505b602082108114156127065761270561280f565b5b50919050565b600061271782612617565b91507fffffffffffffffffffffffffffffffffffffffffffffffffffffffffffffffff82141561274a57612749612782565b5b600182019050919050565b600061276082612621565b915063ffffffff82141561277757612776612782565b5b600182019050919050565b7f4e487b7100000000000000000000000000000000000000000000000000000000600052601160045260246000fd5b7f4e487b7100000000000000000000000000000000000000000000000000000000600052601260045260246000fd5b7f4e487b7100000000000000000000000000000000000000000000000000000000600052602160045260246000fd5b7f4e487b7100000000000000000000000000000000000000000000000000000000600052602260045260246000fd5b7f4e487b7100000000000000000000000000000000000000000000000000000000600052604160045260246000fd5b6000601f19601f8301169050919050565b6008811061288f5761288e6127e0565b5b50565b61289b816125b4565b81146128a657600080fd5b50565b6128b2816125c6565b81146128bd57600080fd5b50565b6128c9816125d8565b81146128d457600080fd5b50565b600381106128e457600080fd5b50565b600281106128f457600080fd5b50565b61290081612621565b811461290b57600080fd5b5056fea2646970667358221220761502aa2bd51ae88c0c4ee141f1e9736c44022c64e2b65e35913cc1c9a3cf1d64736f6c63430008000033",
  "linkReferences": {},
  "deployedLinkReferences": {}
}