{
  "_format": "hh-sol-artifact-1",
  "contractName": "ExportateurClient",
  "sourceName": "contracts/ExportateurClient.sol",
  "abi": [
    {
      "anonymous": false,
      "inputs": [
        {
          "indexed": true,
          "internalType": "address",
          "name": "exportateur",
          "type": "address"
        },
        {
          "indexed": false,
          "internalType": "uint32",
          "name": "idArticle",
          "type": "uint32"
        },
        {
          "indexed": false,
          "internalType": "uint32",
          "name": "quantite",
          "type": "uint32"
        },
        {
          "indexed": false,
          "internalType": "uint32",
          "name": "prix",
          "type": "uint32"
        }
      ],
      "name": "AjoutArticle",
      "type": "event"
    },
    {
      "anonymous": false,
      "inputs": [
        {
          "indexed": true,
          "internalType": "address",
          "name": "certificateur",
          "type": "address"
        },
        {
          "indexed": false,
          "internalType": "uint32",
          "name": "idArticle",
          "type": "uint32"
        },
        {
          "indexed": false,
          "internalType": "bytes32",
          "name": "cidCertificat",
          "type": "bytes32"
        }
      ],
      "name": "CertifierArticle",
      "type": "event"
    },
    {
      "stateMutability": "payable",
      "type": "fallback"
    },
    {
      "inputs": [
        {
          "internalType": "uint32[]",
          "name": "_idCommandeProduits",
          "type": "uint32[]"
        },
        {
          "internalType": "uint32",
          "name": "_prix",
          "type": "uint32"
        },
        {
          "internalType": "string",
          "name": "_cid",
          "type": "string"
        },
        {
          "internalType": "bytes32",
          "name": "_rootMerkle",
          "type": "bytes32"
        }
      ],
      "name": "ajoutArticle",
      "outputs": [],
      "stateMutability": "nonpayable",
      "type": "function"
    },
    {
      "inputs": [
        {
          "internalType": "uint32",
          "name": "",
          "type": "uint32"
        }
      ],
      "name": "articles",
      "outputs": [
        {
          "internalType": "uint32",
          "name": "id",
          "type": "uint32"
        },
        {
          "internalType": "string",
          "name": "ref",
          "type": "string"
        },
        {
          "internalType": "uint32",
          "name": "quantite",
          "type": "uint32"
        },
        {
          "internalType": "uint32",
          "name": "prix",
          "type": "uint32"
        },
        {
          "internalType": "address",
          "name": "exportateur",
          "type": "address"
        },
        {
          "internalType": "string",
          "name": "cid",
          "type": "string"
        },
        {
          "internalType": "bytes32",
          "name": "rootMerkle",
          "type": "bytes32"
        },
        {
          "internalType": "bool",
          "name": "certifier",
          "type": "bool"
        },
        {
          "internalType": "bytes32",
          "name": "cidCertificat",
          "type": "bytes32"
        }
      ],
      "stateMutability": "view",
      "type": "function"
    },
    {
      "inputs": [
        {
          "internalType": "uint32",
          "name": "_idArticle",
          "type": "uint32"
        },
        {
          "internalType": "bytes32",
          "name": "_cidCertificat",
          "type": "bytes32"
        }
      ],
      "name": "certifierArticle",
      "outputs": [],
      "stateMutability": "nonpayable",
      "type": "function"
    },
    {
      "inputs": [],
      "name": "collecteurExportateur",
      "outputs": [
        {
          "internalType": "contract CollecteurExportateur",
          "name": "",
          "type": "address"
        }
      ],
      "stateMutability": "view",
      "type": "function"
    },
    {
      "inputs": [],
      "name": "compteurArticles",
      "outputs": [
        {
          "internalType": "uint32",
          "name": "",
          "type": "uint32"
        }
      ],
      "stateMutability": "view",
      "type": "function"
    },
    {
      "inputs": [],
      "name": "gestionnaireActeurs",
      "outputs": [
        {
          "internalType": "contract GestionnaireActeurs",
          "name": "",
          "type": "address"
        }
      ],
      "stateMutability": "view",
      "type": "function"
    },
    {
      "inputs": [
        {
          "internalType": "uint32",
          "name": "id",
          "type": "uint32"
        }
      ],
      "name": "getArticle",
      "outputs": [
        {
          "components": [
            {
              "internalType": "uint32",
              "name": "id",
              "type": "uint32"
            },
            {
              "internalType": "string",
              "name": "ref",
              "type": "string"
            },
            {
              "internalType": "uint32[]",
              "name": "idCommandeProduit",
              "type": "uint32[]"
            },
            {
              "internalType": "uint32",
              "name": "quantite",
              "type": "uint32"
            },
            {
              "internalType": "uint32",
              "name": "prix",
              "type": "uint32"
            },
            {
              "internalType": "address",
              "name": "exportateur",
              "type": "address"
            },
            {
              "internalType": "string",
              "name": "cid",
              "type": "string"
            },
            {
              "internalType": "bytes32",
              "name": "rootMerkle",
              "type": "bytes32"
            },
            {
              "internalType": "bool",
              "name": "certifier",
              "type": "bool"
            },
            {
              "internalType": "bytes32",
              "name": "cidCertificat",
              "type": "bytes32"
            }
          ],
          "internalType": "struct StructLib.Article",
          "name": "",
          "type": "tuple"
        }
      ],
      "stateMutability": "view",
      "type": "function"
    },
    {
      "inputs": [],
      "name": "getCompteurArticles",
      "outputs": [
        {
          "internalType": "uint32",
          "name": "",
          "type": "uint32"
        }
      ],
      "stateMutability": "view",
      "type": "function"
    },
    {
      "inputs": [
        {
          "internalType": "address",
          "name": "_gestionnaireActeurs",
          "type": "address"
        },
        {
          "internalType": "address payable",
          "name": "_collecteurExportateur",
          "type": "address"
        }
      ],
      "name": "initialiser",
      "outputs": [],
      "stateMutability": "nonpayable",
      "type": "function"
    },
    {
      "inputs": [
        {
          "internalType": "address payable",
          "name": "_addr",
          "type": "address"
        }
      ],
      "name": "setCollecteurExportateur",
      "outputs": [],
      "stateMutability": "nonpayable",
      "type": "function"
    },
    {
      "inputs": [
        {
          "internalType": "address",
          "name": "_addr",
          "type": "address"
        }
      ],
      "name": "setGestionnaireActeurs",
      "outputs": [],
      "stateMutability": "nonpayable",
      "type": "function"
    },
    {
      "inputs": [
        {
          "internalType": "uint32",
          "name": "_idArticle",
          "type": "uint32"
        },
        {
          "internalType": "uint32",
          "name": "_prix",
          "type": "uint32"
        }
      ],
      "name": "setPriceArticle",
      "outputs": [],
      "stateMutability": "nonpayable",
      "type": "function"
    },
    {
      "stateMutability": "payable",
      "type": "receive"
    }
  ],
  "bytecode": "0x608060405234801561001057600080fd5b50612e39806100206000396000f3fe6080604052600436106100ab5760003560e01c806380844fba1161006457806380844fba146101dc57806382b9ca46146102055780639e942cd414610230578063cad4ed521461025b578063eb072cd414610284578063ff8c6f28146102af576100b2565b80632cb0d412146100b457806337a43847146100f95780633e7a6049146101365780634bb43c351461015f578063704cdb7e14610188578063771c4a51146101b1576100b2565b366100b257005b005b3480156100c057600080fd5b506100db60048036038101906100d69190611ec3565b6102d8565b6040516100f099989796959493929190612788565b60405180910390f35b34801561010557600080fd5b50610120600480360381019061011b9190611ec3565b610493565b60405161012d91906126f9565b60405180910390f35b34801561014257600080fd5b5061015d60048036038101906101589190611d4f565b61076b565b005b34801561016b57600080fd5b5061018660048036038101906101819190611d78565b6107af565b005b34801561019457600080fd5b506101af60048036038101906101aa9190611f28565b6107f3565b005b3480156101bd57600080fd5b506101c6610b20565b6040516101d3919061271b565b60405180910390f35b3480156101e857600080fd5b5061020360048036038101906101fe9190611da1565b610b3a565b005b34801561021157600080fd5b5061021a610c2a565b604051610227919061271b565b60405180910390f35b34801561023c57600080fd5b50610245610c40565b60405161025291906125be565b60405180910390f35b34801561026757600080fd5b50610282600480360381019061027d9190611eec565b610c66565b005b34801561029057600080fd5b50610299610e6b565b6040516102a691906125a3565b60405180910390f35b3480156102bb57600080fd5b506102d660048036038101906102d19190611ddd565b610e91565b005b60006020528060005260406000206000915090508060000160009054906101000a900463ffffffff169080600101805461031190612bb8565b80601f016020809104026020016040519081016040528092919081815260200182805461033d90612bb8565b801561038a5780601f1061035f5761010080835404028352916020019161038a565b820191906000526020600020905b81548152906001019060200180831161036d57829003601f168201915b5050505050908060030160009054906101000a900463ffffffff16908060030160049054906101000a900463ffffffff16908060030160089054906101000a900473ffffffffffffffffffffffffffffffffffffffff16908060040180546103f190612bb8565b80601f016020809104026020016040519081016040528092919081815260200182805461041d90612bb8565b801561046a5780601f1061043f5761010080835404028352916020019161046a565b820191906000526020600020905b81548152906001019060200180831161044d57829003601f168201915b5050505050908060050154908060060160009054906101000a900460ff16908060070154905089565b61049b6118a0565b6000808363ffffffff1663ffffffff168152602001908152602001600020604051806101400160405290816000820160009054906101000a900463ffffffff1663ffffffff1663ffffffff1681526020016001820180546104fb90612bb8565b80601f016020809104026020016040519081016040528092919081815260200182805461052790612bb8565b80156105745780601f1061054957610100808354040283529160200191610574565b820191906000526020600020905b81548152906001019060200180831161055757829003601f168201915b50505050508152602001600282018054806020026020016040519081016040528092919081815260200182805480156105f857602002820191906000526020600020906000905b82829054906101000a900463ffffffff1663ffffffff16815260200190600401906020826003010492830192600103820291508084116105bb5790505b505050505081526020016003820160009054906101000a900463ffffffff1663ffffffff1663ffffffff1681526020016003820160049054906101000a900463ffffffff1663ffffffff1663ffffffff1681526020016003820160089054906101000a900473ffffffffffffffffffffffffffffffffffffffff1673ffffffffffffffffffffffffffffffffffffffff1673ffffffffffffffffffffffffffffffffffffffff1681526020016004820180546106b390612bb8565b80601f01602080910402602001604051908101604052809291908181526020018280546106df90612bb8565b801561072c5780601f106107015761010080835404028352916020019161072c565b820191906000526020600020905b81548152906001019060200180831161070f57829003601f168201915b50505050508152602001600582015481526020016006820160009054906101000a900460ff161515151581526020016007820154815250509050919050565b80600160056101000a81548173ffffffffffffffffffffffffffffffffffffffff021916908373ffffffffffffffffffffffffffffffffffffffff16021790555050565b80600260006101000a81548173ffffffffffffffffffffffffffffffffffffffff021916908373ffffffffffffffffffffffffffffffffffffffff16021790555050565b600160059054906101000a900473ffffffffffffffffffffffffffffffffffffffff1673ffffffffffffffffffffffffffffffffffffffff1663d1e47bb33360066040518363ffffffff1660e01b815260040161085192919061257a565b60206040518083038186803b15801561086957600080fd5b505afa15801561087d573d6000803e3d6000fd5b505050506040513d601f19601f820116820180604052508101906108a19190611e70565b6108e0576040517f08c379a00000000000000000000000000000000000000000000000000000000081526004016108d7906126d9565b60405180910390fd5b600160059054906101000a900473ffffffffffffffffffffffffffffffffffffffff1673ffffffffffffffffffffffffffffffffffffffff16639f7d7f4533306040518363ffffffff1660e01b815260040161093d929190612551565b60206040518083038186803b15801561095557600080fd5b505afa158015610969573d6000803e3d6000fd5b505050506040513d601f19601f8201168201806040525081019061098d9190611e70565b6109cc576040517f08c379a00000000000000000000000000000000000000000000000000000000081526004016109c390612679565b60405180910390fd5b600160009054906101000a900463ffffffff1663ffffffff168263ffffffff161115610a2d576040517f08c379a0000000000000000000000000000000000000000000000000000000008152600401610a2490612639565b60405180910390fd5b3373ffffffffffffffffffffffffffffffffffffffff166000808463ffffffff1663ffffffff16815260200190815260200160002060030160089054906101000a900473ffffffffffffffffffffffffffffffffffffffff1673ffffffffffffffffffffffffffffffffffffffff1614610adc576040517f08c379a0000000000000000000000000000000000000000000000000000000008152600401610ad390612659565b60405180910390fd5b806000808463ffffffff1663ffffffff16815260200190815260200160002060030160046101000a81548163ffffffff021916908363ffffffff1602179055505050565b6000600160009054906101000a900463ffffffff16905090565b600160049054906101000a900460ff1615610b8a576040517f08c379a0000000000000000000000000000000000000000000000000000000008152600401610b81906126b9565b60405180910390fd5b81600160056101000a81548173ffffffffffffffffffffffffffffffffffffffff021916908373ffffffffffffffffffffffffffffffffffffffff16021790555080600260006101000a81548173ffffffffffffffffffffffffffffffffffffffff021916908373ffffffffffffffffffffffffffffffffffffffff16021790555060018060046101000a81548160ff0219169083151502179055505050565b600160009054906101000a900463ffffffff1681565b600160059054906101000a900473ffffffffffffffffffffffffffffffffffffffff1681565b600160059054906101000a900473ffffffffffffffffffffffffffffffffffffffff1673ffffffffffffffffffffffffffffffffffffffff1663d1e47bb33360026040518363ffffffff1660e01b8152600401610cc492919061257a565b60206040518083038186803b158015610cdc57600080fd5b505afa158015610cf0573d6000803e3d6000fd5b505050506040513d601f19601f82011682018060405250810190610d149190611e70565b610d53576040517f08c379a0000000000000000000000000000000000000000000000000000000008152600401610d4a90612619565b60405180910390fd5b600160009054906101000a900463ffffffff1663ffffffff168263ffffffff161115610d7e57600080fd5b6000808363ffffffff1663ffffffff16815260200190815260200160002060060160009054906101000a900460ff1615610db757600080fd5b60016000808463ffffffff1663ffffffff16815260200190815260200160002060060160006101000a81548160ff021916908315150217905550806000808463ffffffff1663ffffffff168152602001908152602001600020600701819055503373ffffffffffffffffffffffffffffffffffffffff167f42f918b0ad9f72db50eeae844fd35928427a61706b8cc1338de7c002631edab08383604051610e5f92919061275f565b60405180910390a25050565b600260009054906101000a900473ffffffffffffffffffffffffffffffffffffffff1681565b600160059054906101000a900473ffffffffffffffffffffffffffffffffffffffff1673ffffffffffffffffffffffffffffffffffffffff1663d1e47bb33360066040518363ffffffff1660e01b8152600401610eef92919061257a565b60206040518083038186803b158015610f0757600080fd5b505afa158015610f1b573d6000803e3d6000fd5b505050506040513d601f19601f82011682018060405250810190610f3f9190611e70565b610f7e576040517f08c379a0000000000000000000000000000000000000000000000000000000008152600401610f75906126d9565b60405180910390fd5b600160059054906101000a900473ffffffffffffffffffffffffffffffffffffffff1673ffffffffffffffffffffffffffffffffffffffff16639f7d7f4533306040518363ffffffff1660e01b8152600401610fdb929190612551565b60206040518083038186803b158015610ff357600080fd5b505afa158015611007573d6000803e3d6000fd5b505050506040513d601f19601f8201168201806040525081019061102b9190611e70565b61106a576040517f08c379a000000000000000000000000000000000000000000000000000000000815260040161106190612679565b60405180910390fd5b6000805b8551811015611289576000600260009054906101000a900473ffffffffffffffffffffffffffffffffffffffff1673ffffffffffffffffffffffffffffffffffffffff16635293ea518884815181106110f0577f4e487b7100000000000000000000000000000000000000000000000000000000600052603260045260246000fd5b60200260200101516040518263ffffffff1660e01b8152600401611114919061271b565b6101806040518083038186803b15801561112d57600080fd5b505afa158015611141573d6000803e3d6000fd5b505050506040513d601f19601f820116820180604052508101906111659190611e99565b90508060400151836111779190612958565b925080608001516111bd576040517f08c379a00000000000000000000000000000000000000000000000000000000081526004016111b490612699565b60405180910390fd5b3373ffffffffffffffffffffffffffffffffffffffff168160e0015173ffffffffffffffffffffffffffffffffffffffff161461122f576040517f08c379a0000000000000000000000000000000000000000000000000000000008152600401611226906125f9565b60405180910390fd5b80610120015115611275576040517f08c379a000000000000000000000000000000000000000000000000000000000815260040161126c906125d9565b60405180910390fd5b50808061128190612bea565b91505061106e565b506001600081819054906101000a900463ffffffff16809291906112ac90612c33565b91906101000a81548163ffffffff021916908363ffffffff1602179055505060005b85518163ffffffff1610156113c657600260009054906101000a900473ffffffffffffffffffffffffffffffffffffffff1673ffffffffffffffffffffffffffffffffffffffff1663c4c8d194878363ffffffff168151811061135a577f4e487b7100000000000000000000000000000000000000000000000000000000600052603260045260246000fd5b602002602001015160016040518363ffffffff1660e01b8152600401611381929190612736565b600060405180830381600087803b15801561139b57600080fd5b505af11580156113af573d6000803e3d6000fd5b5050505080806113be90612c33565b9150506112ce565b50604051806101400160405280600160009054906101000a900463ffffffff1663ffffffff1681526020016113f961163b565b81526020018681526020018263ffffffff1681526020018563ffffffff1681526020013373ffffffffffffffffffffffffffffffffffffffff1681526020018481526020018381526020016000151581526020016000801b815250600080600160009054906101000a900463ffffffff1663ffffffff1663ffffffff16815260200190815260200160002060008201518160000160006101000a81548163ffffffff021916908363ffffffff16021790555060208201518160010190805190602001906114c7929190611923565b5060408201518160020190805190602001906114e49291906119a9565b5060608201518160030160006101000a81548163ffffffff021916908363ffffffff16021790555060808201518160030160046101000a81548163ffffffff021916908363ffffffff16021790555060a08201518160030160086101000a81548173ffffffffffffffffffffffffffffffffffffffff021916908373ffffffffffffffffffffffffffffffffffffffff16021790555060c0820151816004019080519060200190611596929190611923565b5060e082015181600501556101008201518160060160006101000a81548160ff02191690831515021790555061012082015181600701559050503373ffffffffffffffffffffffffffffffffffffffff167fac99a946d149ad7965440d306b135d791a1b84bf070e7ed1400131a45233426a600160009054906101000a900463ffffffff16838760405161162c93929190612823565b60405180910390a25050505050565b606060018060008282829054906101000a900463ffffffff1661165e9190612958565b92506101000a81548163ffffffff021916908363ffffffff160217905550611685426116cb565b6116a6600160009054906101000a900463ffffffff1663ffffffff166116cb565b6040516020016116b7929190612522565b604051602081830303815290604052905090565b60606000821415611713576040518060400160405280600181526020017f3000000000000000000000000000000000000000000000000000000000000000815250905061189b565b600082905060005b6000821461174557808061172e90612bea565b915050600a8261173e91906129c9565b915061171b565b60008167ffffffffffffffff811115611787577f4e487b7100000000000000000000000000000000000000000000000000000000600052604160045260246000fd5b6040519080825280601f01601f1916602001820160405280156117b95781602001600182028036833780820191505090505b50905060008290505b60008614611893576001816117d79190612a54565b90506000600a80886117e991906129c9565b6117f391906129fa565b876117fe9190612a54565b603061180a9190612992565b905060008160f81b90508084848151811061184e577f4e487b7100000000000000000000000000000000000000000000000000000000600052603260045260246000fd5b60200101907effffffffffffffffffffffffffffffffffffffffffffffffffffffffffffff1916908160001a905350600a8861188a91906129c9565b975050506117c2565b819450505050505b919050565b604051806101400160405280600063ffffffff1681526020016060815260200160608152602001600063ffffffff168152602001600063ffffffff168152602001600073ffffffffffffffffffffffffffffffffffffffff1681526020016060815260200160008019168152602001600015158152602001600080191681525090565b82805461192f90612bb8565b90600052602060002090601f0160209004810192826119515760008555611998565b82601f1061196a57805160ff1916838001178555611998565b82800160010185558215611998579182015b8281111561199757825182559160200191906001019061197c565b5b5090506119a59190611a59565b5090565b82805482825590600052602060002090600701600890048101928215611a485791602002820160005b83821115611a1657835183826101000a81548163ffffffff021916908363ffffffff16021790555092602001926004016020816003010492830192600103026119d2565b8015611a465782816101000a81549063ffffffff0219169055600401602081600301049283019260010302611a16565b505b509050611a559190611a59565b5090565b5b80821115611a72576000816000905550600101611a5a565b5090565b6000611a89611a848461288b565b61285a565b90508083825260208201905082856020860282011115611aa857600080fd5b60005b85811015611ad85781611abe8882611d25565b845260208401935060208301925050600181019050611aab565b5050509392505050565b6000611af5611af0846128b7565b61285a565b905082815260208101848484011115611b0d57600080fd5b611b18848285612b76565b509392505050565b600081359050611b2f81612d70565b92915050565b600081519050611b4481612d70565b92915050565b600081359050611b5981612d87565b92915050565b600082601f830112611b7057600080fd5b8135611b80848260208601611a76565b91505092915050565b600081519050611b9881612d9e565b92915050565b600081359050611bad81612db5565b92915050565b600081519050611bc281612dcc565b92915050565b600081519050611bd781612ddc565b92915050565b600082601f830112611bee57600080fd5b8135611bfe848260208601611ae2565b91505092915050565b60006101808284031215611c1a57600080fd5b611c2561018061285a565b90506000611c3584828501611d3a565b6000830152506020611c4984828501611d3a565b6020830152506040611c5d84828501611d3a565b6040830152506060611c7184828501611d3a565b6060830152506080611c8584828501611b89565b60808301525060a0611c9984828501611bc8565b60a08301525060c0611cad84828501611b35565b60c08301525060e0611cc184828501611b35565b60e083015250610100611cd684828501611bb3565b61010083015250610120611cec84828501611b89565b61012083015250610140611d0284828501611b89565b61014083015250610160611d1884828501611b35565b6101608301525092915050565b600081359050611d3481612dec565b92915050565b600081519050611d4981612dec565b92915050565b600060208284031215611d6157600080fd5b6000611d6f84828501611b20565b91505092915050565b600060208284031215611d8a57600080fd5b6000611d9884828501611b4a565b91505092915050565b60008060408385031215611db457600080fd5b6000611dc285828601611b20565b9250506020611dd385828601611b4a565b9150509250929050565b60008060008060808587031215611df357600080fd5b600085013567ffffffffffffffff811115611e0d57600080fd5b611e1987828801611b5f565b9450506020611e2a87828801611d25565b935050604085013567ffffffffffffffff811115611e4757600080fd5b611e5387828801611bdd565b9250506060611e6487828801611b9e565b91505092959194509250565b600060208284031215611e8257600080fd5b6000611e9084828501611b89565b91505092915050565b60006101808284031215611eac57600080fd5b6000611eba84828501611c07565b91505092915050565b600060208284031215611ed557600080fd5b6000611ee384828501611d25565b91505092915050565b60008060408385031215611eff57600080fd5b6000611f0d85828601611d25565b9250506020611f1e85828601611b9e565b9150509250929050565b60008060408385031215611f3b57600080fd5b6000611f4985828601611d25565b9250506020611f5a85828601611d25565b9150509250929050565b6000611f708383612504565b60208301905092915050565b611f8581612a88565b82525050565b611f9481612a88565b82525050565b6000611fa5826128f7565b611faf818561291a565b9350611fba836128e7565b8060005b83811015611feb578151611fd28882611f64565b9750611fdd8361290d565b925050600181019050611fbe565b5085935050505092915050565b61200181612aac565b82525050565b61201081612aac565b82525050565b61201f81612ab8565b82525050565b61202e81612ab8565b82525050565b61203d81612b1c565b82525050565b61204c81612b40565b82525050565b61205b81612b64565b82525050565b600061206c82612902565b612076818561292b565b9350612086818560208601612b85565b61208f81612d4b565b840191505092915050565b60006120a582612902565b6120af818561293c565b93506120bf818560208601612b85565b6120c881612d4b565b840191505092915050565b60006120de82612902565b6120e8818561294d565b93506120f8818560208601612b85565b80840191505092915050565b6000612111601a8361293c565b91507f636f6d6d616e64652064656a6120656e7265676973747265722e0000000000006000830152602082019050919050565b6000612151601c8361293c565b91507f566f7573206e27657374207061732070726f7072696574616972652e000000006000830152602082019050919050565b600061219160258361293c565b91507f4e6f6e206175746f726973653a207365756c656d656e7420436572746966696360008301527f61746575720000000000000000000000000000000000000000000000000000006020830152604082019050919050565b60006121f760038361294d565b91507f41525400000000000000000000000000000000000000000000000000000000006000830152600382019050919050565b6000612237600c8361293c565b91507f496420696e636f727265637400000000000000000000000000000000000000006000830152602082019050919050565b6000612277602d8361293c565b91507f566f7573206e2765746573207061732070726f7072696574616972652064652060008301527f63657474652061727469636c65000000000000000000000000000000000000006020830152604082019050919050565b60006122dd60218361293c565b91507f4e6f6e206175746f726973653a20636f6e74726174206e6f6e2064656c65677560008301527f65000000000000000000000000000000000000000000000000000000000000006020830152604082019050919050565b600061234360138361293c565b91507f436f6d6d616e6465206e6f6e2070617965722e000000000000000000000000006000830152602082019050919050565b6000612383601a8361293c565b91507f436f6e747261742064656a6120696e697469616c6973657220210000000000006000830152602082019050919050565b60006123c360238361293c565b91507f4e6f6e206175746f726973653a207365756c656d656e74204578706f7274617460008301527f65757200000000000000000000000000000000000000000000000000000000006020830152604082019050919050565b6000610140830160008301516124356000860182612504565b506020830151848203602086015261244d8282612061565b915050604083015184820360408601526124678282611f9a565b915050606083015161247c6060860182612504565b50608083015161248f6080860182612504565b5060a08301516124a260a0860182611f7c565b5060c083015184820360c08601526124ba8282612061565b91505060e08301516124cf60e0860182612016565b506101008301516124e4610100860182611ff8565b506101208301516124f9610120860182612016565b508091505092915050565b61250d81612aff565b82525050565b61251c81612aff565b82525050565b600061252d826121ea565b915061253982856120d3565b915061254582846120d3565b91508190509392505050565b60006040820190506125666000830185611f8b565b6125736020830184611f8b565b9392505050565b600060408201905061258f6000830185611f8b565b61259c6020830184612052565b9392505050565b60006020820190506125b86000830184612034565b92915050565b60006020820190506125d36000830184612043565b92915050565b600060208201905081810360008301526125f281612104565b9050919050565b6000602082019050818103600083015261261281612144565b9050919050565b6000602082019050818103600083015261263281612184565b9050919050565b600060208201905081810360008301526126528161222a565b9050919050565b600060208201905081810360008301526126728161226a565b9050919050565b60006020820190508181036000830152612692816122d0565b9050919050565b600060208201905081810360008301526126b281612336565b9050919050565b600060208201905081810360008301526126d281612376565b9050919050565b600060208201905081810360008301526126f2816123b6565b9050919050565b60006020820190508181036000830152612713818461241c565b905092915050565b60006020820190506127306000830184612513565b92915050565b600060408201905061274b6000830185612513565b6127586020830184612007565b9392505050565b60006040820190506127746000830185612513565b6127816020830184612025565b9392505050565b60006101208201905061279e600083018c612513565b81810360208301526127b0818b61209a565b90506127bf604083018a612513565b6127cc6060830189612513565b6127d96080830188611f8b565b81810360a08301526127eb818761209a565b90506127fa60c0830186612025565b61280760e0830185612007565b612815610100830184612025565b9a9950505050505050505050565b60006060820190506128386000830186612513565b6128456020830185612513565b6128526040830184612513565b949350505050565b6000604051905081810181811067ffffffffffffffff8211171561288157612880612d1c565b5b8060405250919050565b600067ffffffffffffffff8211156128a6576128a5612d1c565b5b602082029050602081019050919050565b600067ffffffffffffffff8211156128d2576128d1612d1c565b5b601f19601f8301169050602081019050919050565b6000819050602082019050919050565b600081519050919050565b600081519050919050565b6000602082019050919050565b600082825260208201905092915050565b600082825260208201905092915050565b600082825260208201905092915050565b600081905092915050565b600061296382612aff565b915061296e83612aff565b92508263ffffffff0382111561298757612986612c60565b5b828201905092915050565b600061299d82612b0f565b91506129a883612b0f565b92508260ff038211156129be576129bd612c60565b5b828201905092915050565b60006129d482612af5565b91506129df83612af5565b9250826129ef576129ee612c8f565b5b828204905092915050565b6000612a0582612af5565b9150612a1083612af5565b9250817fffffffffffffffffffffffffffffffffffffffffffffffffffffffffffffffff0483118215151615612a4957612a48612c60565b5b828202905092915050565b6000612a5f82612af5565b9150612a6a83612af5565b925082821015612a7d57612a7c612c60565b5b828203905092915050565b6000612a9382612ad5565b9050919050565b6000612aa582612ad5565b9050919050565b60008115159050919050565b6000819050919050565b6000819050612ad082612d5c565b919050565b600073ffffffffffffffffffffffffffffffffffffffff82169050919050565b6000819050919050565b600063ffffffff82169050919050565b600060ff82169050919050565b6000612b2782612b2e565b9050919050565b6000612b3982612ad5565b9050919050565b6000612b4b82612b52565b9050919050565b6000612b5d82612ad5565b9050919050565b6000612b6f82612ac2565b9050919050565b82818337600083830152505050565b60005b83811015612ba3578082015181840152602081019050612b88565b83811115612bb2576000848401525b50505050565b60006002820490506001821680612bd057607f821691505b60208210811415612be457612be3612ced565b5b50919050565b6000612bf582612af5565b91507fffffffffffffffffffffffffffffffffffffffffffffffffffffffffffffffff821415612c2857612c27612c60565b5b600182019050919050565b6000612c3e82612aff565b915063ffffffff821415612c5557612c54612c60565b5b600182019050919050565b7f4e487b7100000000000000000000000000000000000000000000000000000000600052601160045260246000fd5b7f4e487b7100000000000000000000000000000000000000000000000000000000600052601260045260246000fd5b7f4e487b7100000000000000000000000000000000000000000000000000000000600052602160045260246000fd5b7f4e487b7100000000000000000000000000000000000000000000000000000000600052602260045260246000fd5b7f4e487b7100000000000000000000000000000000000000000000000000000000600052604160045260246000fd5b6000601f19601f8301169050919050565b60088110612d6d57612d6c612cbe565b5b50565b612d7981612a88565b8114612d8457600080fd5b50565b612d9081612a9a565b8114612d9b57600080fd5b50565b612da781612aac565b8114612db257600080fd5b50565b612dbe81612ab8565b8114612dc957600080fd5b50565b60038110612dd957600080fd5b50565b60028110612de957600080fd5b50565b612df581612aff565b8114612e0057600080fd5b5056fea2646970667358221220c650823f1f05de495447ed8fcccad0a12255d345bafab266b8b98d839ad9e5e264736f6c63430008000033",
  "linkReferences": {},
  "deployedLinkReferences": {}
}