{
  "_format": "hh-sol-artifact-1",
  "contractName": "ExportateurClient",
  "sourceName": "contracts/ExportateurClient.sol",
  "abi": [
    {
      "anonymous": false,
      "inputs": [
        {
          "indexed": true,
          "internalType": "address",
          "name": "exportateur",
          "type": "address"
        },
        {
          "indexed": false,
          "internalType": "uint32",
          "name": "idArticle",
          "type": "uint32"
        },
        {
          "indexed": false,
          "internalType": "uint32",
          "name": "quantite",
          "type": "uint32"
        },
        {
          "indexed": false,
          "internalType": "uint32",
          "name": "prix",
          "type": "uint32"
        }
      ],
      "name": "AjouterExpedition",
      "type": "event"
    },
    {
      "anonymous": false,
      "inputs": [
        {
          "indexed": true,
          "internalType": "address",
          "name": "certificateur",
          "type": "address"
        },
        {
          "indexed": false,
          "internalType": "uint32",
          "name": "idArticle",
          "type": "uint32"
        },
        {
          "indexed": false,
          "internalType": "string",
          "name": "cidCertificat",
          "type": "string"
        }
      ],
      "name": "CertifierExpedition",
      "type": "event"
    },
    {
      "stateMutability": "payable",
      "type": "fallback"
    },
    {
      "inputs": [
        {
          "internalType": "uint32[]",
          "name": "_idCommandeProduits",
          "type": "uint32[]"
        },
        {
          "internalType": "uint32",
          "name": "_prix",
          "type": "uint32"
        },
        {
          "internalType": "string",
          "name": "_cid",
          "type": "string"
        },
        {
          "internalType": "bytes32",
          "name": "_rootMerkle",
          "type": "bytes32"
        }
      ],
      "name": "ajouterExpedition",
      "outputs": [],
      "stateMutability": "nonpayable",
      "type": "function"
    },
    {
      "inputs": [
        {
          "internalType": "uint32",
          "name": "_idExpedition",
          "type": "uint32"
        },
        {
          "internalType": "string",
          "name": "_cidCertificat",
          "type": "string"
        }
      ],
      "name": "certifierExpedition",
      "outputs": [],
      "stateMutability": "nonpayable",
      "type": "function"
    },
    {
      "inputs": [],
      "name": "collecteurExportateur",
      "outputs": [
        {
          "internalType": "contract CollecteurExportateur",
          "name": "",
          "type": "address"
        }
      ],
      "stateMutability": "view",
      "type": "function"
    },
    {
      "inputs": [],
      "name": "compteurExpeditions",
      "outputs": [
        {
          "internalType": "uint32",
          "name": "",
          "type": "uint32"
        }
      ],
      "stateMutability": "view",
      "type": "function"
    },
    {
      "inputs": [
        {
          "internalType": "uint32",
          "name": "",
          "type": "uint32"
        }
      ],
      "name": "expeditions",
      "outputs": [
        {
          "internalType": "uint32",
          "name": "id",
          "type": "uint32"
        },
        {
          "internalType": "string",
          "name": "ref",
          "type": "string"
        },
        {
          "internalType": "uint32",
          "name": "quantite",
          "type": "uint32"
        },
        {
          "internalType": "uint32",
          "name": "prix",
          "type": "uint32"
        },
        {
          "internalType": "address",
          "name": "exportateur",
          "type": "address"
        },
        {
          "internalType": "string",
          "name": "cid",
          "type": "string"
        },
        {
          "internalType": "bytes32",
          "name": "rootMerkle",
          "type": "bytes32"
        },
        {
          "internalType": "bool",
          "name": "certifier",
          "type": "bool"
        },
        {
          "internalType": "string",
          "name": "cidCertificat",
          "type": "string"
        }
      ],
      "stateMutability": "view",
      "type": "function"
    },
    {
      "inputs": [],
      "name": "gestionnaireActeurs",
      "outputs": [
        {
          "internalType": "contract GestionnaireActeurs",
          "name": "",
          "type": "address"
        }
      ],
      "stateMutability": "view",
      "type": "function"
    },
    {
      "inputs": [],
      "name": "getCompteurArticles",
      "outputs": [
        {
          "internalType": "uint32",
          "name": "",
          "type": "uint32"
        }
      ],
      "stateMutability": "view",
      "type": "function"
    },
    {
      "inputs": [
        {
          "internalType": "uint32",
          "name": "id",
          "type": "uint32"
        }
      ],
      "name": "getExpedition",
      "outputs": [
        {
          "components": [
            {
              "internalType": "uint32",
              "name": "id",
              "type": "uint32"
            },
            {
              "internalType": "string",
              "name": "ref",
              "type": "string"
            },
            {
              "internalType": "uint32[]",
              "name": "idCommandeProduit",
              "type": "uint32[]"
            },
            {
              "internalType": "uint32",
              "name": "quantite",
              "type": "uint32"
            },
            {
              "internalType": "uint32",
              "name": "prix",
              "type": "uint32"
            },
            {
              "internalType": "address",
              "name": "exportateur",
              "type": "address"
            },
            {
              "internalType": "string",
              "name": "cid",
              "type": "string"
            },
            {
              "internalType": "bytes32",
              "name": "rootMerkle",
              "type": "bytes32"
            },
            {
              "internalType": "bool",
              "name": "certifier",
              "type": "bool"
            },
            {
              "internalType": "string",
              "name": "cidCertificat",
              "type": "string"
            }
          ],
          "internalType": "struct StructLib.Expedition",
          "name": "",
          "type": "tuple"
        }
      ],
      "stateMutability": "view",
      "type": "function"
    },
    {
      "inputs": [
        {
          "internalType": "string",
          "name": "_reference",
          "type": "string"
        }
      ],
      "name": "getExpeditionByReference",
      "outputs": [
        {
          "components": [
            {
              "internalType": "uint32",
              "name": "id",
              "type": "uint32"
            },
            {
              "internalType": "string",
              "name": "ref",
              "type": "string"
            },
            {
              "internalType": "uint32[]",
              "name": "idCommandeProduit",
              "type": "uint32[]"
            },
            {
              "internalType": "uint32",
              "name": "quantite",
              "type": "uint32"
            },
            {
              "internalType": "uint32",
              "name": "prix",
              "type": "uint32"
            },
            {
              "internalType": "address",
              "name": "exportateur",
              "type": "address"
            },
            {
              "internalType": "string",
              "name": "cid",
              "type": "string"
            },
            {
              "internalType": "bytes32",
              "name": "rootMerkle",
              "type": "bytes32"
            },
            {
              "internalType": "bool",
              "name": "certifier",
              "type": "bool"
            },
            {
              "internalType": "string",
              "name": "cidCertificat",
              "type": "string"
            }
          ],
          "internalType": "struct StructLib.Expedition",
          "name": "",
          "type": "tuple"
        }
      ],
      "stateMutability": "view",
      "type": "function"
    },
    {
      "inputs": [
        {
          "internalType": "address",
          "name": "_gestionnaireActeurs",
          "type": "address"
        },
        {
          "internalType": "address payable",
          "name": "_collecteurExportateur",
          "type": "address"
        }
      ],
      "name": "initialiser",
      "outputs": [],
      "stateMutability": "nonpayable",
      "type": "function"
    },
    {
      "inputs": [
        {
          "internalType": "address payable",
          "name": "_addr",
          "type": "address"
        }
      ],
      "name": "setCollecteurExportateur",
      "outputs": [],
      "stateMutability": "nonpayable",
      "type": "function"
    },
    {
      "inputs": [
        {
          "internalType": "address",
          "name": "_addr",
          "type": "address"
        }
      ],
      "name": "setGestionnaireActeurs",
      "outputs": [],
      "stateMutability": "nonpayable",
      "type": "function"
    },
    {
      "inputs": [
        {
          "internalType": "uint32",
          "name": "_idExpedition",
          "type": "uint32"
        },
        {
          "internalType": "uint32",
          "name": "_prix",
          "type": "uint32"
        }
      ],
      "name": "setPriceArticle",
      "outputs": [],
      "stateMutability": "nonpayable",
      "type": "function"
    },
    {
      "stateMutability": "payable",
      "type": "receive"
    }
  ],
  "bytecode": "0x608060405234801561001057600080fd5b506134dd806100206000396000f3fe6080604052600436106100c65760003560e01c8063771c4a511161007f5780639e942cd4116100595780639e942cd414610258578063d309a38414610283578063ddda41ec146102c0578063eb072cd414610305576100cd565b8063771c4a51146101db57806380844fba146102065780639c2699a71461022f576100cd565b80630e041683146100cf57806320908d73146100f85780633e7a6049146101355780634bb43c351461015e5780635f0235ab14610187578063704cdb7e146101b2576100cd565b366100cd57005b005b3480156100db57600080fd5b506100f660048036038101906100f191906124b8565b610330565b005b34801561010457600080fd5b5061011f600480360381019061011a9190612424565b610545565b60405161012c9190612d81565b60405180910390f35b34801561014157600080fd5b5061015c600480360381019061015791906122da565b610923565b005b34801561016a57600080fd5b5061018560048036038101906101809190612303565b610967565b005b34801561019357600080fd5b5061019c6109ab565b6040516101a99190612da3565b60405180910390f35b3480156101be57600080fd5b506101d960048036038101906101d4919061250c565b6109c1565b005b3480156101e757600080fd5b506101f0610cee565b6040516101fd9190612da3565b60405180910390f35b34801561021257600080fd5b5061022d6004803603810190610228919061232c565b610d08565b005b34801561023b57600080fd5b5061025660048036038101906102519190612368565b610df9565b005b34801561026457600080fd5b5061026d611619565b60405161027a9190612c26565b60405180910390f35b34801561028f57600080fd5b506102aa60048036038101906102a5919061248f565b61163f565b6040516102b79190612d81565b60405180910390f35b3480156102cc57600080fd5b506102e760048036038101906102e2919061248f565b61199f565b6040516102fc99989796959493929190612e25565b60405180910390f35b34801561031157600080fd5b5061031a611be2565b6040516103279190612c0b565b60405180910390f35b600260059054906101000a900473ffffffffffffffffffffffffffffffffffffffff1673ffffffffffffffffffffffffffffffffffffffff1663d1e47bb33360026040518363ffffffff1660e01b815260040161038e929190612be2565b60206040518083038186803b1580156103a657600080fd5b505afa1580156103ba573d6000803e3d6000fd5b505050506040513d601f19601f820116820180604052508101906103de91906123fb565b61041d576040517f08c379a000000000000000000000000000000000000000000000000000000000815260040161041490612c81565b60405180910390fd5b600260009054906101000a900463ffffffff1663ffffffff168263ffffffff16111561044857600080fd5b6000808363ffffffff1663ffffffff16815260200190815260200160002060060160009054906101000a900460ff161561048157600080fd5b60016000808463ffffffff1663ffffffff16815260200190815260200160002060060160006101000a81548160ff021916908315150217905550806000808463ffffffff1663ffffffff16815260200190815260200160002060070190805190602001906104f0929190611e2e565b503373ffffffffffffffffffffffffffffffffffffffff167fc61996af39399299fb40c0b65ed0155174c41d440fb361ee4e9b72160359a25b8383604051610539929190612df5565b60405180910390a25050565b61054d611eb4565b600060018360405161055f9190612b73565b908152602001604051809103902060009054906101000a900463ffffffff16905060008163ffffffff1614156105ca576040517f08c379a00000000000000000000000000000000000000000000000000000000081526004016105c190612d01565b60405180910390fd5b6000808263ffffffff1663ffffffff168152602001908152602001600020604051806101400160405290816000820160009054906101000a900463ffffffff1663ffffffff1663ffffffff16815260200160018201805461062a9061325c565b80601f01602080910402602001604051908101604052809291908181526020018280546106569061325c565b80156106a35780601f10610678576101008083540402835291602001916106a3565b820191906000526020600020905b81548152906001019060200180831161068657829003601f168201915b505050505081526020016002820180548060200260200160405190810160405280929190818152602001828054801561072757602002820191906000526020600020906000905b82829054906101000a900463ffffffff1663ffffffff16815260200190600401906020826003010492830192600103820291508084116106ea5790505b505050505081526020016003820160009054906101000a900463ffffffff1663ffffffff1663ffffffff1681526020016003820160049054906101000a900463ffffffff1663ffffffff1663ffffffff1681526020016003820160089054906101000a900473ffffffffffffffffffffffffffffffffffffffff1673ffffffffffffffffffffffffffffffffffffffff1673ffffffffffffffffffffffffffffffffffffffff1681526020016004820180546107e29061325c565b80601f016020809104026020016040519081016040528092919081815260200182805461080e9061325c565b801561085b5780601f106108305761010080835404028352916020019161085b565b820191906000526020600020905b81548152906001019060200180831161083e57829003601f168201915b50505050508152602001600582015481526020016006820160009054906101000a900460ff161515151581526020016007820180546108999061325c565b80601f01602080910402602001604051908101604052809291908181526020018280546108c59061325c565b80156109125780601f106108e757610100808354040283529160200191610912565b820191906000526020600020905b8154815290600101906020018083116108f557829003601f168201915b505050505081525050915050919050565b80600260056101000a81548173ffffffffffffffffffffffffffffffffffffffff021916908373ffffffffffffffffffffffffffffffffffffffff16021790555050565b80600360006101000a81548173ffffffffffffffffffffffffffffffffffffffff021916908373ffffffffffffffffffffffffffffffffffffffff16021790555050565b600260009054906101000a900463ffffffff1681565b600260059054906101000a900473ffffffffffffffffffffffffffffffffffffffff1673ffffffffffffffffffffffffffffffffffffffff1663d1e47bb33360066040518363ffffffff1660e01b8152600401610a1f929190612be2565b60206040518083038186803b158015610a3757600080fd5b505afa158015610a4b573d6000803e3d6000fd5b505050506040513d601f19601f82011682018060405250810190610a6f91906123fb565b610aae576040517f08c379a0000000000000000000000000000000000000000000000000000000008152600401610aa590612d61565b60405180910390fd5b600260059054906101000a900473ffffffffffffffffffffffffffffffffffffffff1673ffffffffffffffffffffffffffffffffffffffff16639f7d7f4533306040518363ffffffff1660e01b8152600401610b0b929190612bb9565b60206040518083038186803b158015610b2357600080fd5b505afa158015610b37573d6000803e3d6000fd5b505050506040513d601f19601f82011682018060405250810190610b5b91906123fb565b610b9a576040517f08c379a0000000000000000000000000000000000000000000000000000000008152600401610b9190612ce1565b60405180910390fd5b600260009054906101000a900463ffffffff1663ffffffff168263ffffffff161115610bfb576040517f08c379a0000000000000000000000000000000000000000000000000000000008152600401610bf290612ca1565b60405180910390fd5b3373ffffffffffffffffffffffffffffffffffffffff166000808463ffffffff1663ffffffff16815260200190815260200160002060030160089054906101000a900473ffffffffffffffffffffffffffffffffffffffff1673ffffffffffffffffffffffffffffffffffffffff1614610caa576040517f08c379a0000000000000000000000000000000000000000000000000000000008152600401610ca190612cc1565b60405180910390fd5b806000808463ffffffff1663ffffffff16815260200190815260200160002060030160046101000a81548163ffffffff021916908363ffffffff1602179055505050565b6000600260009054906101000a900463ffffffff16905090565b600260049054906101000a900460ff1615610d58576040517f08c379a0000000000000000000000000000000000000000000000000000000008152600401610d4f90612d41565b60405180910390fd5b81600260056101000a81548173ffffffffffffffffffffffffffffffffffffffff021916908373ffffffffffffffffffffffffffffffffffffffff16021790555080600360006101000a81548173ffffffffffffffffffffffffffffffffffffffff021916908373ffffffffffffffffffffffffffffffffffffffff1602179055506001600260046101000a81548160ff0219169083151502179055505050565b600260059054906101000a900473ffffffffffffffffffffffffffffffffffffffff1673ffffffffffffffffffffffffffffffffffffffff1663d1e47bb33360066040518363ffffffff1660e01b8152600401610e57929190612be2565b60206040518083038186803b158015610e6f57600080fd5b505afa158015610e83573d6000803e3d6000fd5b505050506040513d601f19601f82011682018060405250810190610ea791906123fb565b610ee6576040517f08c379a0000000000000000000000000000000000000000000000000000000008152600401610edd90612d61565b60405180910390fd5b600260059054906101000a900473ffffffffffffffffffffffffffffffffffffffff1673ffffffffffffffffffffffffffffffffffffffff16639f7d7f4533306040518363ffffffff1660e01b8152600401610f43929190612bb9565b60206040518083038186803b158015610f5b57600080fd5b505afa158015610f6f573d6000803e3d6000fd5b505050506040513d601f19601f82011682018060405250810190610f9391906123fb565b610fd2576040517f08c379a0000000000000000000000000000000000000000000000000000000008152600401610fc990612ce1565b60405180910390fd5b6000805b85518110156111f1576000600360009054906101000a900473ffffffffffffffffffffffffffffffffffffffff1673ffffffffffffffffffffffffffffffffffffffff16635293ea51888481518110611058577f4e487b7100000000000000000000000000000000000000000000000000000000600052603260045260246000fd5b60200260200101516040518263ffffffff1660e01b815260040161107c9190612da3565b6101806040518083038186803b15801561109557600080fd5b505afa1580156110a9573d6000803e3d6000fd5b505050506040513d601f19601f820116820180604052508101906110cd9190612465565b90508060400151836110df9190612ffc565b92508060800151611125576040517f08c379a000000000000000000000000000000000000000000000000000000000815260040161111c90612d21565b60405180910390fd5b3373ffffffffffffffffffffffffffffffffffffffff168160e0015173ffffffffffffffffffffffffffffffffffffffff1614611197576040517f08c379a000000000000000000000000000000000000000000000000000000000815260040161118e90612c61565b60405180910390fd5b806101200151156111dd576040517f08c379a00000000000000000000000000000000000000000000000000000000081526004016111d490612c41565b60405180910390fd5b5080806111e99061328e565b915050610fd6565b506002600081819054906101000a900463ffffffff1680929190611214906132d7565b91906101000a81548163ffffffff021916908363ffffffff1602179055505060005b85518163ffffffff16101561133057600360009054906101000a900473ffffffffffffffffffffffffffffffffffffffff1673ffffffffffffffffffffffffffffffffffffffff16639f867340878363ffffffff16815181106112c2577f4e487b7100000000000000000000000000000000000000000000000000000000600052603260045260246000fd5b60200260200101516001336040518463ffffffff1660e01b81526004016112eb93929190612dbe565b600060405180830381600087803b15801561130557600080fd5b505af1158015611319573d6000803e3d6000fd5b505050508080611328906132d7565b915050611236565b50600061133b611c08565b9050604051806101400160405280600260009054906101000a900463ffffffff1663ffffffff1681526020018281526020018781526020018363ffffffff1681526020018663ffffffff1681526020013373ffffffffffffffffffffffffffffffffffffffff16815260200185815260200184815260200160001515815260200160405180602001604052806000815250815250600080600260009054906101000a900463ffffffff1663ffffffff1663ffffffff16815260200190815260200160002060008201518160000160006101000a81548163ffffffff021916908363ffffffff1602179055506020820151816001019080519060200190611442929190611e2e565b50604082015181600201908051906020019061145f929190611f34565b5060608201518160030160006101000a81548163ffffffff021916908363ffffffff16021790555060808201518160030160046101000a81548163ffffffff021916908363ffffffff16021790555060a08201518160030160086101000a81548173ffffffffffffffffffffffffffffffffffffffff021916908373ffffffffffffffffffffffffffffffffffffffff16021790555060c0820151816004019080519060200190611511929190611e2e565b5060e082015181600501556101008201518160060160006101000a81548160ff02191690831515021790555061012082015181600701908051906020019061155a929190611e2e565b50905050600260009054906101000a900463ffffffff166001826040516115819190612b73565b908152602001604051809103902060006101000a81548163ffffffff021916908363ffffffff1602179055503373ffffffffffffffffffffffffffffffffffffffff167f2e88e19b548531887380574bf9a96e8252804a4f22f7c314e8585f27c2519650600260009054906101000a900463ffffffff16848860405161160993929190612ec7565b60405180910390a2505050505050565b600260059054906101000a900473ffffffffffffffffffffffffffffffffffffffff1681565b611647611eb4565b6000808363ffffffff1663ffffffff168152602001908152602001600020604051806101400160405290816000820160009054906101000a900463ffffffff1663ffffffff1663ffffffff1681526020016001820180546116a79061325c565b80601f01602080910402602001604051908101604052809291908181526020018280546116d39061325c565b80156117205780601f106116f557610100808354040283529160200191611720565b820191906000526020600020905b81548152906001019060200180831161170357829003601f168201915b50505050508152602001600282018054806020026020016040519081016040528092919081815260200182805480156117a457602002820191906000526020600020906000905b82829054906101000a900463ffffffff1663ffffffff16815260200190600401906020826003010492830192600103820291508084116117675790505b505050505081526020016003820160009054906101000a900463ffffffff1663ffffffff1663ffffffff1681526020016003820160049054906101000a900463ffffffff1663ffffffff1663ffffffff1681526020016003820160089054906101000a900473ffffffffffffffffffffffffffffffffffffffff1673ffffffffffffffffffffffffffffffffffffffff1673ffffffffffffffffffffffffffffffffffffffff16815260200160048201805461185f9061325c565b80601f016020809104026020016040519081016040528092919081815260200182805461188b9061325c565b80156118d85780601f106118ad576101008083540402835291602001916118d8565b820191906000526020600020905b8154815290600101906020018083116118bb57829003601f168201915b50505050508152602001600582015481526020016006820160009054906101000a900460ff161515151581526020016007820180546119169061325c565b80601f01602080910402602001604051908101604052809291908181526020018280546119429061325c565b801561198f5780601f106119645761010080835404028352916020019161198f565b820191906000526020600020905b81548152906001019060200180831161197257829003601f168201915b5050505050815250509050919050565b60006020528060005260406000206000915090508060000160009054906101000a900463ffffffff16908060010180546119d89061325c565b80601f0160208091040260200160405190810160405280929190818152602001828054611a049061325c565b8015611a515780601f10611a2657610100808354040283529160200191611a51565b820191906000526020600020905b815481529060010190602001808311611a3457829003601f168201915b5050505050908060030160009054906101000a900463ffffffff16908060030160049054906101000a900463ffffffff16908060030160089054906101000a900473ffffffffffffffffffffffffffffffffffffffff1690806004018054611ab89061325c565b80601f0160208091040260200160405190810160405280929190818152602001828054611ae49061325c565b8015611b315780601f10611b0657610100808354040283529160200191611b31565b820191906000526020600020905b815481529060010190602001808311611b1457829003601f168201915b5050505050908060050154908060060160009054906101000a900460ff1690806007018054611b5f9061325c565b80601f0160208091040260200160405190810160405280929190818152602001828054611b8b9061325c565b8015611bd85780601f10611bad57610100808354040283529160200191611bd8565b820191906000526020600020905b815481529060010190602001808311611bbb57829003601f168201915b5050505050905089565b600360009054906101000a900473ffffffffffffffffffffffffffffffffffffffff1681565b6060611c1342611c59565b611c34600260009054906101000a900463ffffffff1663ffffffff16611c59565b604051602001611c45929190612b8a565b604051602081830303815290604052905090565b60606000821415611ca1576040518060400160405280600181526020017f30000000000000000000000000000000000000000000000000000000000000008152509050611e29565b600082905060005b60008214611cd3578080611cbc9061328e565b915050600a82611ccc919061306d565b9150611ca9565b60008167ffffffffffffffff811115611d15577f4e487b7100000000000000000000000000000000000000000000000000000000600052604160045260246000fd5b6040519080825280601f01601f191660200182016040528015611d475781602001600182028036833780820191505090505b50905060008290505b60008614611e2157600181611d6591906130f8565b90506000600a8088611d77919061306d565b611d81919061309e565b87611d8c91906130f8565b6030611d989190613036565b905060008160f81b905080848481518110611ddc577f4e487b7100000000000000000000000000000000000000000000000000000000600052603260045260246000fd5b60200101907effffffffffffffffffffffffffffffffffffffffffffffffffffffffffffff1916908160001a905350600a88611e18919061306d565b97505050611d50565b819450505050505b919050565b828054611e3a9061325c565b90600052602060002090601f016020900481019282611e5c5760008555611ea3565b82601f10611e7557805160ff1916838001178555611ea3565b82800160010185558215611ea3579182015b82811115611ea2578251825591602001919060010190611e87565b5b509050611eb09190611fe4565b5090565b604051806101400160405280600063ffffffff1681526020016060815260200160608152602001600063ffffffff168152602001600063ffffffff168152602001600073ffffffffffffffffffffffffffffffffffffffff1681526020016060815260200160008019168152602001600015158152602001606081525090565b82805482825590600052602060002090600701600890048101928215611fd35791602002820160005b83821115611fa157835183826101000a81548163ffffffff021916908363ffffffff1602179055509260200192600401602081600301049283019260010302611f5d565b8015611fd15782816101000a81549063ffffffff0219169055600401602081600301049283019260010302611fa1565b505b509050611fe09190611fe4565b5090565b5b80821115611ffd576000816000905550600101611fe5565b5090565b600061201461200f84612f2f565b612efe565b9050808382526020820190508285602086028201111561203357600080fd5b60005b85811015612063578161204988826122b0565b845260208401935060208301925050600181019050612036565b5050509392505050565b600061208061207b84612f5b565b612efe565b90508281526020810184848401111561209857600080fd5b6120a384828561321a565b509392505050565b6000813590506120ba81613414565b92915050565b6000815190506120cf81613414565b92915050565b6000813590506120e48161342b565b92915050565b600082601f8301126120fb57600080fd5b813561210b848260208601612001565b91505092915050565b60008151905061212381613442565b92915050565b60008135905061213881613459565b92915050565b60008151905061214d81613470565b92915050565b60008151905061216281613480565b92915050565b600082601f83011261217957600080fd5b813561218984826020860161206d565b91505092915050565b600061018082840312156121a557600080fd5b6121b0610180612efe565b905060006121c0848285016122c5565b60008301525060206121d4848285016122c5565b60208301525060406121e8848285016122c5565b60408301525060606121fc848285016122c5565b606083015250608061221084828501612114565b60808301525060a061222484828501612153565b60a08301525060c0612238848285016120c0565b60c08301525060e061224c848285016120c0565b60e0830152506101006122618482850161213e565b6101008301525061012061227784828501612114565b6101208301525061014061228d84828501612114565b610140830152506101606122a3848285016120c0565b6101608301525092915050565b6000813590506122bf81613490565b92915050565b6000815190506122d481613490565b92915050565b6000602082840312156122ec57600080fd5b60006122fa848285016120ab565b91505092915050565b60006020828403121561231557600080fd5b6000612323848285016120d5565b91505092915050565b6000806040838503121561233f57600080fd5b600061234d858286016120ab565b925050602061235e858286016120d5565b9150509250929050565b6000806000806080858703121561237e57600080fd5b600085013567ffffffffffffffff81111561239857600080fd5b6123a4878288016120ea565b94505060206123b5878288016122b0565b935050604085013567ffffffffffffffff8111156123d257600080fd5b6123de87828801612168565b92505060606123ef87828801612129565b91505092959194509250565b60006020828403121561240d57600080fd5b600061241b84828501612114565b91505092915050565b60006020828403121561243657600080fd5b600082013567ffffffffffffffff81111561245057600080fd5b61245c84828501612168565b91505092915050565b6000610180828403121561247857600080fd5b600061248684828501612192565b91505092915050565b6000602082840312156124a157600080fd5b60006124af848285016122b0565b91505092915050565b600080604083850312156124cb57600080fd5b60006124d9858286016122b0565b925050602083013567ffffffffffffffff8111156124f657600080fd5b61250285828601612168565b9150509250929050565b6000806040838503121561251f57600080fd5b600061252d858286016122b0565b925050602061253e858286016122b0565b9150509250929050565b60006125548383612b55565b60208301905092915050565b6125698161312c565b82525050565b6125788161312c565b82525050565b600061258982612f9b565b6125938185612fbe565b935061259e83612f8b565b8060005b838110156125cf5781516125b68882612548565b97506125c183612fb1565b9250506001810190506125a2565b5085935050505092915050565b6125e581613150565b82525050565b6125f481613150565b82525050565b6126038161315c565b82525050565b6126128161315c565b82525050565b612621816131c0565b82525050565b612630816131e4565b82525050565b61263f81613208565b82525050565b600061265082612fa6565b61265a8185612fcf565b935061266a818560208601613229565b612673816133ef565b840191505092915050565b600061268982612fa6565b6126938185612fe0565b93506126a3818560208601613229565b6126ac816133ef565b840191505092915050565b60006126c282612fa6565b6126cc8185612ff1565b93506126dc818560208601613229565b80840191505092915050565b60006126f5601a83612fe0565b91507f636f6d6d616e64652064656a6120656e7265676973747265722e0000000000006000830152602082019050919050565b6000612735601c83612fe0565b91507f566f7573206e27657374207061732070726f7072696574616972652e000000006000830152602082019050919050565b6000612775602583612fe0565b91507f4e6f6e206175746f726973653a207365756c656d656e7420436572746966696360008301527f61746575720000000000000000000000000000000000000000000000000000006020830152604082019050919050565b60006127db600c83612fe0565b91507f496420696e636f727265637400000000000000000000000000000000000000006000830152602082019050919050565b600061281b602d83612fe0565b91507f566f7573206e2765746573207061732070726f7072696574616972652064652060008301527f63657474652061727469636c65000000000000000000000000000000000000006020830152604082019050919050565b6000612881602183612fe0565b91507f4e6f6e206175746f726973653a20636f6e74726174206e6f6e2064656c65677560008301527f65000000000000000000000000000000000000000000000000000000000000006020830152604082019050919050565b60006128e7602983612fe0565b91507f5265666572656e636520696e76616c696465206f752061727469636c6520696e60008301527f6578697374616e742e00000000000000000000000000000000000000000000006020830152604082019050919050565b600061294d601383612fe0565b91507f436f6d6d616e6465206e6f6e2070617965722e000000000000000000000000006000830152602082019050919050565b600061298d600483612ff1565b91507f4558502d000000000000000000000000000000000000000000000000000000006000830152600482019050919050565b60006129cd601a83612fe0565b91507f436f6e747261742064656a6120696e697469616c6973657220210000000000006000830152602082019050919050565b6000612a0d602383612fe0565b91507f4e6f6e206175746f726973653a207365756c656d656e74204578706f7274617460008301527f65757200000000000000000000000000000000000000000000000000000000006020830152604082019050919050565b600061014083016000830151612a7f6000860182612b55565b5060208301518482036020860152612a978282612645565b91505060408301518482036040860152612ab1828261257e565b9150506060830151612ac66060860182612b55565b506080830151612ad96080860182612b55565b5060a0830151612aec60a0860182612560565b5060c083015184820360c0860152612b048282612645565b91505060e0830151612b1960e08601826125fa565b50610100830151612b2e6101008601826125dc565b50610120830151848203610120860152612b488282612645565b9150508091505092915050565b612b5e816131a3565b82525050565b612b6d816131a3565b82525050565b6000612b7f82846126b7565b915081905092915050565b6000612b9582612980565b9150612ba182856126b7565b9150612bad82846126b7565b91508190509392505050565b6000604082019050612bce600083018561256f565b612bdb602083018461256f565b9392505050565b6000604082019050612bf7600083018561256f565b612c046020830184612636565b9392505050565b6000602082019050612c206000830184612618565b92915050565b6000602082019050612c3b6000830184612627565b92915050565b60006020820190508181036000830152612c5a816126e8565b9050919050565b60006020820190508181036000830152612c7a81612728565b9050919050565b60006020820190508181036000830152612c9a81612768565b9050919050565b60006020820190508181036000830152612cba816127ce565b9050919050565b60006020820190508181036000830152612cda8161280e565b9050919050565b60006020820190508181036000830152612cfa81612874565b9050919050565b60006020820190508181036000830152612d1a816128da565b9050919050565b60006020820190508181036000830152612d3a81612940565b9050919050565b60006020820190508181036000830152612d5a816129c0565b9050919050565b60006020820190508181036000830152612d7a81612a00565b9050919050565b60006020820190508181036000830152612d9b8184612a66565b905092915050565b6000602082019050612db86000830184612b64565b92915050565b6000606082019050612dd36000830186612b64565b612de060208301856125eb565b612ded604083018461256f565b949350505050565b6000604082019050612e0a6000830185612b64565b8181036020830152612e1c818461267e565b90509392505050565b600061012082019050612e3b600083018c612b64565b8181036020830152612e4d818b61267e565b9050612e5c604083018a612b64565b612e696060830189612b64565b612e76608083018861256f565b81810360a0830152612e88818761267e565b9050612e9760c0830186612609565b612ea460e08301856125eb565b818103610100830152612eb7818461267e565b90509a9950505050505050505050565b6000606082019050612edc6000830186612b64565b612ee96020830185612b64565b612ef66040830184612b64565b949350505050565b6000604051905081810181811067ffffffffffffffff82111715612f2557612f246133c0565b5b8060405250919050565b600067ffffffffffffffff821115612f4a57612f496133c0565b5b602082029050602081019050919050565b600067ffffffffffffffff821115612f7657612f756133c0565b5b601f19601f8301169050602081019050919050565b6000819050602082019050919050565b600081519050919050565b600081519050919050565b6000602082019050919050565b600082825260208201905092915050565b600082825260208201905092915050565b600082825260208201905092915050565b600081905092915050565b6000613007826131a3565b9150613012836131a3565b92508263ffffffff0382111561302b5761302a613304565b5b828201905092915050565b6000613041826131b3565b915061304c836131b3565b92508260ff0382111561306257613061613304565b5b828201905092915050565b600061307882613199565b915061308383613199565b92508261309357613092613333565b5b828204905092915050565b60006130a982613199565b91506130b483613199565b9250817fffffffffffffffffffffffffffffffffffffffffffffffffffffffffffffffff04831182151516156130ed576130ec613304565b5b828202905092915050565b600061310382613199565b915061310e83613199565b92508282101561312157613120613304565b5b828203905092915050565b600061313782613179565b9050919050565b600061314982613179565b9050919050565b60008115159050919050565b6000819050919050565b600081905061317482613400565b919050565b600073ffffffffffffffffffffffffffffffffffffffff82169050919050565b6000819050919050565b600063ffffffff82169050919050565b600060ff82169050919050565b60006131cb826131d2565b9050919050565b60006131dd82613179565b9050919050565b60006131ef826131f6565b9050919050565b600061320182613179565b9050919050565b600061321382613166565b9050919050565b82818337600083830152505050565b60005b8381101561324757808201518184015260208101905061322c565b83811115613256576000848401525b50505050565b6000600282049050600182168061327457607f821691505b6020821081141561328857613287613391565b5b50919050565b600061329982613199565b91507fffffffffffffffffffffffffffffffffffffffffffffffffffffffffffffffff8214156132cc576132cb613304565b5b600182019050919050565b60006132e2826131a3565b915063ffffffff8214156132f9576132f8613304565b5b600182019050919050565b7f4e487b7100000000000000000000000000000000000000000000000000000000600052601160045260246000fd5b7f4e487b7100000000000000000000000000000000000000000000000000000000600052601260045260246000fd5b7f4e487b7100000000000000000000000000000000000000000000000000000000600052602160045260246000fd5b7f4e487b7100000000000000000000000000000000000000000000000000000000600052602260045260246000fd5b7f4e487b7100000000000000000000000000000000000000000000000000000000600052604160045260246000fd5b6000601f19601f8301169050919050565b6008811061341157613410613362565b5b50565b61341d8161312c565b811461342857600080fd5b50565b6134348161313e565b811461343f57600080fd5b50565b61344b81613150565b811461345657600080fd5b50565b6134628161315c565b811461346d57600080fd5b50565b6003811061347d57600080fd5b50565b6002811061348d57600080fd5b50565b613499816131a3565b81146134a457600080fd5b5056fea264697066735822122039bc60dafd1f3aca51fbfddc010fb2549f7c120092635dd5b1e845a15c8ad05e64736f6c63430008000033",
  "linkReferences": {},
  "deployedLinkReferences": {}
}