{
  "_format": "hh-sol-artifact-1",
  "contractName": "GestionnaireActeurs",
  "sourceName": "contracts/gestionnaireActeurs.sol",
  "abi": [
    {
      "anonymous": false,
      "inputs": [
        {
          "indexed": true,
          "internalType": "address",
          "name": "adresse",
          "type": "address"
        },
        {
          "indexed": false,
          "internalType": "string",
          "name": "idBlockchain",
          "type": "string"
        },
        {
          "indexed": false,
          "internalType": "uint256",
          "name": "timestamp",
          "type": "uint256"
        }
      ],
      "name": "ActeurActive",
      "type": "event"
    },
    {
      "anonymous": false,
      "inputs": [
        {
          "indexed": true,
          "internalType": "address",
          "name": "adresse",
          "type": "address"
        },
        {
          "indexed": false,
          "internalType": "string",
          "name": "idBlockchain",
          "type": "string"
        },
        {
          "indexed": false,
          "internalType": "uint256",
          "name": "timestamp",
          "type": "uint256"
        }
      ],
      "name": "ActeurDesactive",
      "type": "event"
    },
    {
      "anonymous": false,
      "inputs": [
        {
          "indexed": true,
          "internalType": "address",
          "name": "adresse",
          "type": "address"
        },
        {
          "indexed": false,
          "internalType": "string",
          "name": "idBlockchain",
          "type": "string"
        },
        {
          "indexed": false,
          "internalType": "enum StructLib.Role",
          "name": "role",
          "type": "uint8"
        },
        {
          "indexed": false,
          "internalType": "string",
          "name": "nom",
          "type": "string"
        },
        {
          "indexed": false,
          "internalType": "uint256",
          "name": "timestamp",
          "type": "uint256"
        }
      ],
      "name": "ActeurEnregistre",
      "type": "event"
    },
    {
      "anonymous": false,
      "inputs": [
        {
          "indexed": true,
          "internalType": "address",
          "name": "adresse",
          "type": "address"
        },
        {
          "indexed": false,
          "internalType": "string",
          "name": "idBlockchain",
          "type": "string"
        },
        {
          "indexed": false,
          "internalType": "enum StructLib.Role",
          "name": "role",
          "type": "uint8"
        },
        {
          "indexed": false,
          "internalType": "string",
          "name": "nom",
          "type": "string"
        },
        {
          "indexed": false,
          "internalType": "uint256",
          "name": "timestamp",
          "type": "uint256"
        }
      ],
      "name": "ActeurModifie",
      "type": "event"
    },
    {
      "anonymous": false,
      "inputs": [
        {
          "indexed": true,
          "internalType": "address",
          "name": "admin",
          "type": "address"
        },
        {
          "indexed": false,
          "internalType": "uint256",
          "name": "timestamp",
          "type": "uint256"
        }
      ],
      "name": "AdministrateurAjoute",
      "type": "event"
    },
    {
      "anonymous": false,
      "inputs": [
        {
          "indexed": true,
          "internalType": "address",
          "name": "admin",
          "type": "address"
        },
        {
          "indexed": false,
          "internalType": "uint256",
          "name": "timestamp",
          "type": "uint256"
        }
      ],
      "name": "AdministrateurRetire",
      "type": "event"
    },
    {
      "anonymous": false,
      "inputs": [
        {
          "indexed": true,
          "internalType": "address",
          "name": "acteur",
          "type": "address"
        },
        {
          "indexed": true,
          "internalType": "address",
          "name": "contrat",
          "type": "address"
        },
        {
          "indexed": false,
          "internalType": "uint256",
          "name": "timestamp",
          "type": "uint256"
        }
      ],
      "name": "ContratDelegueAjoute",
      "type": "event"
    },
    {
      "anonymous": false,
      "inputs": [
        {
          "indexed": true,
          "internalType": "address",
          "name": "acteur",
          "type": "address"
        },
        {
          "indexed": true,
          "internalType": "address",
          "name": "contrat",
          "type": "address"
        },
        {
          "indexed": false,
          "internalType": "uint256",
          "name": "timestamp",
          "type": "uint256"
        }
      ],
      "name": "ContratDelegueRetire",
      "type": "event"
    },
    {
      "inputs": [
        {
          "internalType": "address",
          "name": "_acteur",
          "type": "address"
        },
        {
          "internalType": "address",
          "name": "_contrat",
          "type": "address"
        }
      ],
      "name": "aContratDelegue",
      "outputs": [
        {
          "internalType": "bool",
          "name": "",
          "type": "bool"
        }
      ],
      "stateMutability": "view",
      "type": "function"
    },
    {
      "inputs": [
        {
          "internalType": "address",
          "name": "",
          "type": "address"
        }
      ],
      "name": "acteurs",
      "outputs": [
        {
          "internalType": "address",
          "name": "adresse",
          "type": "address"
        },
        {
          "internalType": "string",
          "name": "idBlockchain",
          "type": "string"
        },
        {
          "internalType": "bool",
          "name": "actif",
          "type": "bool"
        },
        {
          "internalType": "enum GestionnaireActeurs.TypeEntite",
          "name": "typeEntite",
          "type": "uint8"
        },
        {
          "internalType": "string",
          "name": "nom",
          "type": "string"
        },
        {
          "internalType": "string",
          "name": "nifOuCin",
          "type": "string"
        },
        {
          "internalType": "string",
          "name": "adresseOfficielle",
          "type": "string"
        },
        {
          "internalType": "string",
          "name": "email",
          "type": "string"
        },
        {
          "internalType": "string",
          "name": "telephone",
          "type": "string"
        },
        {
          "internalType": "uint256",
          "name": "dateEnregistrement",
          "type": "uint256"
        }
      ],
      "stateMutability": "view",
      "type": "function"
    },
    {
      "inputs": [
        {
          "internalType": "enum StructLib.Role",
          "name": "",
          "type": "uint8"
        },
        {
          "internalType": "uint256",
          "name": "",
          "type": "uint256"
        }
      ],
      "name": "acteursByRole",
      "outputs": [
        {
          "internalType": "address",
          "name": "",
          "type": "address"
        }
      ],
      "stateMutability": "view",
      "type": "function"
    },
    {
      "inputs": [
        {
          "internalType": "address",
          "name": "_adresse",
          "type": "address"
        }
      ],
      "name": "activerActeur",
      "outputs": [],
      "stateMutability": "nonpayable",
      "type": "function"
    },
    {
      "inputs": [
        {
          "internalType": "address",
          "name": "",
          "type": "address"
        }
      ],
      "name": "administrateurs",
      "outputs": [
        {
          "internalType": "bool",
          "name": "",
          "type": "bool"
        }
      ],
      "stateMutability": "view",
      "type": "function"
    },
    {
      "inputs": [
        {
          "internalType": "address",
          "name": "_nouvelAdmin",
          "type": "address"
        }
      ],
      "name": "ajouterAdministrateur",
      "outputs": [],
      "stateMutability": "nonpayable",
      "type": "function"
    },
    {
      "inputs": [
        {
          "internalType": "address",
          "name": "_acteur",
          "type": "address"
        },
        {
          "internalType": "address",
          "name": "_contratDelegue",
          "type": "address"
        }
      ],
      "name": "ajouterContratDelegue",
      "outputs": [],
      "stateMutability": "nonpayable",
      "type": "function"
    },
    {
      "inputs": [
        {
          "internalType": "address",
          "name": "_adresse",
          "type": "address"
        },
        {
          "internalType": "enum StructLib.Role",
          "name": "_role",
          "type": "uint8"
        }
      ],
      "name": "ajouterRole",
      "outputs": [],
      "stateMutability": "nonpayable",
      "type": "function"
    },
    {
      "inputs": [
        {
          "internalType": "enum StructLib.Role",
          "name": "",
          "type": "uint8"
        }
      ],
      "name": "compteurActeurs",
      "outputs": [
        {
          "internalType": "uint256",
          "name": "",
          "type": "uint256"
        }
      ],
      "stateMutability": "view",
      "type": "function"
    },
    {
      "inputs": [
        {
          "internalType": "address",
          "name": "_adresse",
          "type": "address"
        }
      ],
      "name": "desactiverActeur",
      "outputs": [],
      "stateMutability": "nonpayable",
      "type": "function"
    },
    {
      "inputs": [
        {
          "internalType": "address",
          "name": "_adresse",
          "type": "address"
        },
        {
          "internalType": "enum StructLib.Role",
          "name": "_role",
          "type": "uint8"
        },
        {
          "internalType": "enum GestionnaireActeurs.TypeEntite",
          "name": "_typeEntite",
          "type": "uint8"
        },
        {
          "internalType": "string",
          "name": "_nom",
          "type": "string"
        },
        {
          "internalType": "string",
          "name": "_nifOuCin",
          "type": "string"
        },
        {
          "internalType": "string",
          "name": "_adresseOfficielle",
          "type": "string"
        },
        {
          "internalType": "string",
          "name": "_email",
          "type": "string"
        },
        {
          "internalType": "string",
          "name": "_telephone",
          "type": "string"
        }
      ],
      "name": "enregistrerActeur",
      "outputs": [],
      "stateMutability": "nonpayable",
      "type": "function"
    },
    {
      "inputs": [
        {
          "internalType": "address",
          "name": "_adresse",
          "type": "address"
        },
        {
          "internalType": "enum StructLib.Role",
          "name": "_role",
          "type": "uint8"
        }
      ],
      "name": "estActeurAvecRole",
      "outputs": [
        {
          "internalType": "bool",
          "name": "",
          "type": "bool"
        }
      ],
      "stateMutability": "view",
      "type": "function"
    },
    {
      "inputs": [
        {
          "internalType": "enum StructLib.Role",
          "name": "_role",
          "type": "uint8"
        }
      ],
      "name": "getActeursByRole",
      "outputs": [
        {
          "internalType": "address[]",
          "name": "",
          "type": "address[]"
        }
      ],
      "stateMutability": "view",
      "type": "function"
    },
    {
      "inputs": [
        {
          "internalType": "string",
          "name": "_idBlockchain",
          "type": "string"
        }
      ],
      "name": "getAdresseParIdBlockchain",
      "outputs": [
        {
          "internalType": "address",
          "name": "",
          "type": "address"
        }
      ],
      "stateMutability": "view",
      "type": "function"
    },
    {
      "inputs": [
        {
          "internalType": "address",
          "name": "_adresse",
          "type": "address"
        }
      ],
      "name": "getDetailsActeur",
      "outputs": [
        {
          "internalType": "string",
          "name": "idBlockchain",
          "type": "string"
        },
        {
          "internalType": "enum StructLib.Role[]",
          "name": "roles",
          "type": "uint8[]"
        },
        {
          "internalType": "bool",
          "name": "actif",
          "type": "bool"
        },
        {
          "internalType": "enum GestionnaireActeurs.TypeEntite",
          "name": "typeEntite",
          "type": "uint8"
        },
        {
          "internalType": "string",
          "name": "nom",
          "type": "string"
        },
        {
          "internalType": "string",
          "name": "nifOuCin",
          "type": "string"
        },
        {
          "internalType": "string",
          "name": "adresseOfficielle",
          "type": "string"
        },
        {
          "internalType": "string",
          "name": "email",
          "type": "string"
        },
        {
          "internalType": "string",
          "name": "telephone",
          "type": "string"
        },
        {
          "internalType": "uint256",
          "name": "dateEnregistrement",
          "type": "uint256"
        },
        {
          "internalType": "address[]",
          "name": "contratsDelegues",
          "type": "address[]"
        }
      ],
      "stateMutability": "view",
      "type": "function"
    },
    {
      "inputs": [
        {
          "internalType": "address",
          "name": "_adresse",
          "type": "address"
        }
      ],
      "name": "getRoles",
      "outputs": [
        {
          "internalType": "enum StructLib.Role[]",
          "name": "",
          "type": "uint8[]"
        }
      ],
      "stateMutability": "view",
      "type": "function"
    },
    {
      "inputs": [
        {
          "internalType": "string",
          "name": "",
          "type": "string"
        }
      ],
      "name": "idBlockchainToAddress",
      "outputs": [
        {
          "internalType": "address",
          "name": "",
          "type": "address"
        }
      ],
      "stateMutability": "view",
      "type": "function"
    },
    {
      "inputs": [],
      "name": "implementation",
      "outputs": [
        {
          "internalType": "address",
          "name": "",
          "type": "address"
        }
      ],
      "stateMutability": "view",
      "type": "function"
    },
    {
      "inputs": [
        {
          "internalType": "address",
          "name": "_administrateurInitial",
          "type": "address"
        }
      ],
      "name": "initialiser",
      "outputs": [],
      "stateMutability": "nonpayable",
      "type": "function"
    },
    {
      "inputs": [
        {
          "internalType": "address",
          "name": "_nouvelleImplementation",
          "type": "address"
        }
      ],
      "name": "mettreAJourImplementation",
      "outputs": [],
      "stateMutability": "nonpayable",
      "type": "function"
    },
    {
      "inputs": [
        {
          "internalType": "address",
          "name": "_adresse",
          "type": "address"
        },
        {
          "internalType": "string",
          "name": "_nom",
          "type": "string"
        },
        {
          "internalType": "string",
          "name": "_nifOuCin",
          "type": "string"
        },
        {
          "internalType": "string",
          "name": "_adresseOfficielle",
          "type": "string"
        },
        {
          "internalType": "string",
          "name": "_email",
          "type": "string"
        },
        {
          "internalType": "string",
          "name": "_telephone",
          "type": "string"
        }
      ],
      "name": "modifierActeur",
      "outputs": [],
      "stateMutability": "nonpayable",
      "type": "function"
    },
    {
      "inputs": [],
      "name": "proxyAddress",
      "outputs": [
        {
          "internalType": "address",
          "name": "",
          "type": "address"
        }
      ],
      "stateMutability": "view",
      "type": "function"
    },
    {
      "inputs": [
        {
          "internalType": "address",
          "name": "_admin",
          "type": "address"
        }
      ],
      "name": "retirerAdministrateur",
      "outputs": [],
      "stateMutability": "nonpayable",
      "type": "function"
    },
    {
      "inputs": [
        {
          "internalType": "address",
          "name": "_acteur",
          "type": "address"
        },
        {
          "internalType": "address",
          "name": "_contratDelegue",
          "type": "address"
        }
      ],
      "name": "retirerContratDelegue",
      "outputs": [],
      "stateMutability": "nonpayable",
      "type": "function"
    }
  ],
  "bytecode": "0x608060405234801561001057600080fd5b5061564880620000216000396000f3fe608060405234801561001057600080fd5b50600436106101585760003560e01c80638aa1c59e116100c3578063d1e47bb31161007c578063d1e47bb3146103ee578063d2df06d71461041e578063dad30b5314610458578063e947716a14610474578063e9a400ce146104a4578063ef078662146104d457610158565b80638aa1c59e146103015780639f7d7f451461031d578063c6ccf6e01461034d578063ce6ccfaf14610369578063d0e7643614610399578063d1aa5bbe146103b557610158565b80634fbdf4fe116101155780634fbdf4fe1461022f578063567e81f11461024b5780635c60da1b1461027b57806376d9031b146102995780637e101d7a146102c95780637e1d381b146102e557610158565b80631ffd1b491461015d57806323f5c02d1461018d57806327389e16146101ab5780632bda45d1146101c757806338afc3c3146101e357806339f9d940146101ff575b600080fd5b610177600480360381019061017291906142c8565b6104f0565b6040516101849190614bc2565b60405180910390f35b61019561053e565b6040516101a29190614bc2565b60405180910390f35b6101c560048036038101906101c09190613fd3565b610564565b005b6101e160048036038101906101dc9190613ffc565b610801565b005b6101fd60048036038101906101f8919061419e565b610c6c565b005b6102196004803603810190610214919061429f565b610f46565b6040516102269190614ca3565b60405180910390f35b61024960048036038101906102449190613fd3565b611057565b005b61026560048036038101906102609190614304565b6111e3565b6040516102729190614bc2565b60405180910390f35b6102836112a0565b6040516102909190614bc2565b60405180910390f35b6102b360048036038101906102ae919061429f565b6112c6565b6040516102c091906150fb565b60405180910390f35b6102e360048036038101906102de9190613fd3565b6112de565b005b6102ff60048036038101906102fa9190613fd3565b611510565b005b61031b60048036038101906103169190613fd3565b6117b5565b005b61033760048036038101906103329190613ffc565b611a59565b6040516103449190614ce7565b60405180910390f35b61036760048036038101906103629190614074565b611bcf565b005b610383600480360381019061037e9190613fd3565b61228e565b6040516103909190614cc5565b60405180910390f35b6103b360048036038101906103ae9190613ffc565b612382565b005b6103cf60048036038101906103ca9190613fd3565b61281f565b6040516103e59a99989796959493929190614bdd565b60405180910390f35b61040860048036038101906104039190614038565b612bdd565b6040516104159190614ce7565b60405180910390f35b61043860048036038101906104339190613fd3565b612da7565b60405161044f9b9a99989796959493929190614d02565b60405180910390f35b610472600480360381019061046d9190614038565b6133ba565b005b61048e60048036038101906104899190613fd3565b6138ca565b60405161049b9190614ce7565b60405180910390f35b6104be60048036038101906104b99190614304565b6138ea565b6040516104cb9190614bc2565b60405180910390f35b6104ee60048036038101906104e99190613fd3565b613933565b005b6002602052816000526040600020818154811061050c57600080fd5b906000526020600020016000915091509054906101000a900473ffffffffffffffffffffffffffffffffffffffff1681565b600660019054906101000a900473ffffffffffffffffffffffffffffffffffffffff1681565b600360003373ffffffffffffffffffffffffffffffffffffffff1673ffffffffffffffffffffffffffffffffffffffff16815260200190815260200160002060009054906101000a900460ff166105f0576040517f08c379a00000000000000000000000000000000000000000000000000000000081526004016105e79061507b565b60405180910390fd5b600073ffffffffffffffffffffffffffffffffffffffff168173ffffffffffffffffffffffffffffffffffffffff161415610660576040517f08c379a000000000000000000000000000000000000000000000000000000000815260040161065790614f9b565b60405180910390fd5b6000600660019054906101000a900473ffffffffffffffffffffffffffffffffffffffff1673ffffffffffffffffffffffffffffffffffffffff16826040516024016106ac9190614bc2565b6040516020818303038152906040527f025b22bc000000000000000000000000000000000000000000000000000000007bffffffffffffffffffffffffffffffffffffffffffffffffffffffff19166020820180517bffffffffffffffffffffffffffffffffffffffffffffffffffffffff83818316178352505050506040516107369190614b4d565b6000604051808303816000865af19150503d8060008114610773576040519150601f19603f3d011682016040523d82523d6000602084013e610778565b606091505b50509050806107bc576040517f08c379a00000000000000000000000000000000000000000000000000000000081526004016107b39061501b565b60405180910390fd5b81600760006101000a81548173ffffffffffffffffffffffffffffffffffffffff021916908373ffffffffffffffffffffffffffffffffffffffff1602179055505050565b600360003373ffffffffffffffffffffffffffffffffffffffff1673ffffffffffffffffffffffffffffffffffffffff16815260200190815260200160002060009054906101000a900460ff1661088d576040517f08c379a00000000000000000000000000000000000000000000000000000000081526004016108849061507b565b60405180910390fd5b81600073ffffffffffffffffffffffffffffffffffffffff166000808373ffffffffffffffffffffffffffffffffffffffff1673ffffffffffffffffffffffffffffffffffffffff16815260200190815260200160002060000160009054906101000a900473ffffffffffffffffffffffffffffffffffffffff1673ffffffffffffffffffffffffffffffffffffffff16141561095f576040517f08c379a000000000000000000000000000000000000000000000000000000000815260040161095690614f1b565b60405180910390fd5b826000808273ffffffffffffffffffffffffffffffffffffffff1673ffffffffffffffffffffffffffffffffffffffff16815260200190815260200160002060040160009054906101000a900460ff166109ee576040517f08c379a00000000000000000000000000000000000000000000000000000000081526004016109e5906150db565b60405180910390fd5b600073ffffffffffffffffffffffffffffffffffffffff168373ffffffffffffffffffffffffffffffffffffffff161415610a5e576040517f08c379a0000000000000000000000000000000000000000000000000000000008152600401610a559061503b565b60405180910390fd5b60008060008673ffffffffffffffffffffffffffffffffffffffff1673ffffffffffffffffffffffffffffffffffffffff168152602001908152602001600020905060005b81600b0180549050811015610b9a578473ffffffffffffffffffffffffffffffffffffffff1682600b018281548110610b05577f4e487b7100000000000000000000000000000000000000000000000000000000600052603260045260246000fd5b9060005260206000200160009054906101000a900473ffffffffffffffffffffffffffffffffffffffff1673ffffffffffffffffffffffffffffffffffffffff161415610b87576040517f08c379a0000000000000000000000000000000000000000000000000000000008152600401610b7e90614ffb565b60405180910390fd5b8080610b9290615426565b915050610aa3565b5080600b01849080600181540180825580915050600190039060005260206000200160009091909190916101000a81548173ffffffffffffffffffffffffffffffffffffffff021916908373ffffffffffffffffffffffffffffffffffffffff1602179055508373ffffffffffffffffffffffffffffffffffffffff168573ffffffffffffffffffffffffffffffffffffffff167fa3a595aed0b25dafaec56a254012fef39417d4f3bf42eb17714cc06f345bd62442604051610c5d91906150fb565b60405180910390a35050505050565b600360003373ffffffffffffffffffffffffffffffffffffffff1673ffffffffffffffffffffffffffffffffffffffff16815260200190815260200160002060009054906101000a900460ff16610cf8576040517f08c379a0000000000000000000000000000000000000000000000000000000008152600401610cef9061507b565b60405180910390fd5b85600073ffffffffffffffffffffffffffffffffffffffff166000808373ffffffffffffffffffffffffffffffffffffffff1673ffffffffffffffffffffffffffffffffffffffff16815260200190815260200160002060000160009054906101000a900473ffffffffffffffffffffffffffffffffffffffff1673ffffffffffffffffffffffffffffffffffffffff161415610dca576040517f08c379a0000000000000000000000000000000000000000000000000000000008152600401610dc190614f1b565b60405180910390fd5b60008060008973ffffffffffffffffffffffffffffffffffffffff1673ffffffffffffffffffffffffffffffffffffffff168152602001908152602001600020905086816005019080519060200190610e24929190613e74565b5085816006019080519060200190610e3d929190613e74565b5084816007019080519060200190610e56929190613e74565b5083816008019080519060200190610e6f929190613e74565b5082816009019080519060200190610e88929190613e74565b508773ffffffffffffffffffffffffffffffffffffffff167fb79cd79f93ef69d4786df1569ae504f4e805eb9c5342c4d4f625d5519722cda98260010183600201600081548110610f02577f4e487b7100000000000000000000000000000000000000000000000000000000600052603260045260246000fd5b90600052602060002090602091828204019190069054906101000a900460ff168a42604051610f349493929190614e38565b60405180910390a25050505050505050565b606060026000836007811115610f85577f4e487b7100000000000000000000000000000000000000000000000000000000600052602160045260246000fd5b6007811115610fbd577f4e487b7100000000000000000000000000000000000000000000000000000000600052602160045260246000fd5b815260200190815260200160002080548060200260200160405190810160405280929190818152602001828054801561104b57602002820191906000526020600020905b8160009054906101000a900473ffffffffffffffffffffffffffffffffffffffff1673ffffffffffffffffffffffffffffffffffffffff1681526020019060010190808311611001575b50505050509050919050565b600073ffffffffffffffffffffffffffffffffffffffff168173ffffffffffffffffffffffffffffffffffffffff1614156110c7576040517f08c379a00000000000000000000000000000000000000000000000000000000081526004016110be90614fbb565b60405180910390fd5b600660009054906101000a900460ff1615611117576040517f08c379a000000000000000000000000000000000000000000000000000000000815260040161110e906150bb565b60405180910390fd5b6001600360008373ffffffffffffffffffffffffffffffffffffffff1673ffffffffffffffffffffffffffffffffffffffff16815260200190815260200160002060006101000a81548160ff02191690831515021790555060016005819055506001600660006101000a81548160ff0219169083151502179055508073ffffffffffffffffffffffffffffffffffffffff167fcc1e97308fa2b0543caeb7083fb688f2af3e98b4e68e195368dca5788be1441f426040516111d891906150fb565b60405180910390a250565b6000806001836040516111f69190614b64565b908152602001604051809103902060009054906101000a900473ffffffffffffffffffffffffffffffffffffffff169050600073ffffffffffffffffffffffffffffffffffffffff168173ffffffffffffffffffffffffffffffffffffffff161415611297576040517f08c379a000000000000000000000000000000000000000000000000000000000815260040161128e90614efb565b60405180910390fd5b80915050919050565b600760009054906101000a900473ffffffffffffffffffffffffffffffffffffffff1681565b60046020528060005260406000206000915090505481565b600360003373ffffffffffffffffffffffffffffffffffffffff1673ffffffffffffffffffffffffffffffffffffffff16815260200190815260200160002060009054906101000a900460ff1661136a576040517f08c379a00000000000000000000000000000000000000000000000000000000081526004016113619061507b565b60405180910390fd5b600073ffffffffffffffffffffffffffffffffffffffff168173ffffffffffffffffffffffffffffffffffffffff1614156113da576040517f08c379a00000000000000000000000000000000000000000000000000000000081526004016113d190614fdb565b60405180910390fd5b600360008273ffffffffffffffffffffffffffffffffffffffff1673ffffffffffffffffffffffffffffffffffffffff16815260200190815260200160002060009054906101000a900460ff1615611467576040517f08c379a000000000000000000000000000000000000000000000000000000000815260040161145e90614f7b565b60405180910390fd5b6001600360008373ffffffffffffffffffffffffffffffffffffffff1673ffffffffffffffffffffffffffffffffffffffff16815260200190815260200160002060006101000a81548160ff0219169083151502179055508073ffffffffffffffffffffffffffffffffffffffff167fcc1e97308fa2b0543caeb7083fb688f2af3e98b4e68e195368dca5788be1441f4260405161150591906150fb565b60405180910390a250565b600360003373ffffffffffffffffffffffffffffffffffffffff1673ffffffffffffffffffffffffffffffffffffffff16815260200190815260200160002060009054906101000a900460ff1661159c576040517f08c379a00000000000000000000000000000000000000000000000000000000081526004016115939061507b565b60405180910390fd5b80600073ffffffffffffffffffffffffffffffffffffffff166000808373ffffffffffffffffffffffffffffffffffffffff1673ffffffffffffffffffffffffffffffffffffffff16815260200190815260200160002060000160009054906101000a900473ffffffffffffffffffffffffffffffffffffffff1673ffffffffffffffffffffffffffffffffffffffff16141561166e576040517f08c379a000000000000000000000000000000000000000000000000000000000815260040161166590614f1b565b60405180910390fd5b816000808273ffffffffffffffffffffffffffffffffffffffff1673ffffffffffffffffffffffffffffffffffffffff16815260200190815260200160002060040160009054906101000a900460ff166116fd576040517f08c379a00000000000000000000000000000000000000000000000000000000081526004016116f4906150db565b60405180910390fd5b60008060008573ffffffffffffffffffffffffffffffffffffffff1673ffffffffffffffffffffffffffffffffffffffff168152602001908152602001600020905060008160040160006101000a81548160ff0219169083151502179055508373ffffffffffffffffffffffffffffffffffffffff167fb9b44c1c6c99fcb54c8570f6dc3cdebb0d0d49eadfdf6bae7687d629797fc54982600101426040516117a7929190614e8b565b60405180910390a250505050565b600360003373ffffffffffffffffffffffffffffffffffffffff1673ffffffffffffffffffffffffffffffffffffffff16815260200190815260200160002060009054906101000a900460ff16611841576040517f08c379a00000000000000000000000000000000000000000000000000000000081526004016118389061507b565b60405180910390fd5b80600073ffffffffffffffffffffffffffffffffffffffff166000808373ffffffffffffffffffffffffffffffffffffffff1673ffffffffffffffffffffffffffffffffffffffff16815260200190815260200160002060000160009054906101000a900473ffffffffffffffffffffffffffffffffffffffff1673ffffffffffffffffffffffffffffffffffffffff161415611913576040517f08c379a000000000000000000000000000000000000000000000000000000000815260040161190a90614f1b565b60405180910390fd5b6000808373ffffffffffffffffffffffffffffffffffffffff1673ffffffffffffffffffffffffffffffffffffffff16815260200190815260200160002060040160009054906101000a900460ff16156119a2576040517f08c379a000000000000000000000000000000000000000000000000000000000815260040161199990614ebb565b60405180910390fd5b60008060008473ffffffffffffffffffffffffffffffffffffffff1673ffffffffffffffffffffffffffffffffffffffff168152602001908152602001600020905060018160040160006101000a81548160ff0219169083151502179055508273ffffffffffffffffffffffffffffffffffffffff167fdb57de69946a4bd804c67adc0c929a6c314c2631e8f0f3178c907ab551098b858260010142604051611a4c929190614e8b565b60405180910390a2505050565b6000806000808573ffffffffffffffffffffffffffffffffffffffff1673ffffffffffffffffffffffffffffffffffffffff168152602001908152602001600020600b01805480602002602001604051908101604052809291908181526020018280548015611b1d57602002820191906000526020600020905b8160009054906101000a900473ffffffffffffffffffffffffffffffffffffffff1673ffffffffffffffffffffffffffffffffffffffff1681526020019060010190808311611ad3575b5050505050905060005b8151811015611bc2578373ffffffffffffffffffffffffffffffffffffffff16828281518110611b80577f4e487b7100000000000000000000000000000000000000000000000000000000600052603260045260246000fd5b602002602001015173ffffffffffffffffffffffffffffffffffffffff161415611baf57600192505050611bc9565b8080611bba90615426565b915050611b27565b5060009150505b92915050565b600360003373ffffffffffffffffffffffffffffffffffffffff1673ffffffffffffffffffffffffffffffffffffffff16815260200190815260200160002060009054906101000a900460ff16611c5b576040517f08c379a0000000000000000000000000000000000000000000000000000000008152600401611c529061507b565b60405180910390fd5b600073ffffffffffffffffffffffffffffffffffffffff168873ffffffffffffffffffffffffffffffffffffffff161415611ccb576040517f08c379a0000000000000000000000000000000000000000000000000000000008152600401611cc290614fdb565b60405180910390fd5b600073ffffffffffffffffffffffffffffffffffffffff166000808a73ffffffffffffffffffffffffffffffffffffffff1673ffffffffffffffffffffffffffffffffffffffff16815260200190815260200160002060000160009054906101000a900473ffffffffffffffffffffffffffffffffffffffff1673ffffffffffffffffffffffffffffffffffffffff1614611d9b576040517f08c379a0000000000000000000000000000000000000000000000000000000008152600401611d929061509b565b60405180910390fd5b6000611da5613b63565b905060008060008b73ffffffffffffffffffffffffffffffffffffffff1673ffffffffffffffffffffffffffffffffffffffff1681526020019081526020016000209050898160000160006101000a81548173ffffffffffffffffffffffffffffffffffffffff021916908373ffffffffffffffffffffffffffffffffffffffff16021790555081816001019080519060200190611e44929190613e74565b5060018160040160006101000a81548160ff021916908315150217905550878160040160016101000a81548160ff02191690836001811115611eaf577f4e487b7100000000000000000000000000000000000000000000000000000000600052602160045260246000fd5b021790555086816005019080519060200190611ecc929190613e74565b5085816006019080519060200190611ee5929190613e74565b5084816007019080519060200190611efe929190613e74565b5083816008019080519060200190611f17929190613e74565b5082816009019080519060200190611f30929190613e74565b504281600a0181905550806002018990806001815401808255809150506001900390600052602060002090602091828204019190069091909190916101000a81548160ff02191690836007811115611fb1577f4e487b7100000000000000000000000000000000000000000000000000000000600052602160045260246000fd5b021790555060018160030160008b6007811115611ff7577f4e487b7100000000000000000000000000000000000000000000000000000000600052602160045260246000fd5b600781111561202f577f4e487b7100000000000000000000000000000000000000000000000000000000600052602160045260246000fd5b815260200190815260200160002060006101000a81548160ff021916908315150217905550896001836040516120659190614b64565b908152602001604051809103902060006101000a81548173ffffffffffffffffffffffffffffffffffffffff021916908373ffffffffffffffffffffffffffffffffffffffff160217905550600260008a60078111156120ee577f4e487b7100000000000000000000000000000000000000000000000000000000600052602160045260246000fd5b6007811115612126577f4e487b7100000000000000000000000000000000000000000000000000000000600052602160045260246000fd5b81526020019081526020016000208a9080600181540180825580915050600190039060005260206000200160009091909190916101000a81548173ffffffffffffffffffffffffffffffffffffffff021916908373ffffffffffffffffffffffffffffffffffffffff160217905550600460008a60078111156121d2577f4e487b7100000000000000000000000000000000000000000000000000000000600052602160045260246000fd5b600781111561220a577f4e487b7100000000000000000000000000000000000000000000000000000000600052602160045260246000fd5b8152602001908152602001600020600081548092919061222990615426565b91905055508973ffffffffffffffffffffffffffffffffffffffff167f02126c1304b8479b1fc45b552fab0a0d95404f21460d17c282c421e79d133af6838b8a4260405161227a9493929190614de5565b60405180910390a250505050505050505050565b60606000808373ffffffffffffffffffffffffffffffffffffffff1673ffffffffffffffffffffffffffffffffffffffff16815260200190815260200160002060020180548060200260200160405190810160405280929190818152602001828054801561237657602002820191906000526020600020906000905b82829054906101000a900460ff166007811115612350577f4e487b7100000000000000000000000000000000000000000000000000000000600052602160045260246000fd5b8152602001906001019060208260000104928301926001038202915080841161230a5790505b50505050509050919050565b600360003373ffffffffffffffffffffffffffffffffffffffff1673ffffffffffffffffffffffffffffffffffffffff16815260200190815260200160002060009054906101000a900460ff1661240e576040517f08c379a00000000000000000000000000000000000000000000000000000000081526004016124059061507b565b60405180910390fd5b81600073ffffffffffffffffffffffffffffffffffffffff166000808373ffffffffffffffffffffffffffffffffffffffff1673ffffffffffffffffffffffffffffffffffffffff16815260200190815260200160002060000160009054906101000a900473ffffffffffffffffffffffffffffffffffffffff1673ffffffffffffffffffffffffffffffffffffffff1614156124e0576040517f08c379a00000000000000000000000000000000000000000000000000000000081526004016124d790614f1b565b60405180910390fd5b60008060008573ffffffffffffffffffffffffffffffffffffffff1673ffffffffffffffffffffffffffffffffffffffff168152602001908152602001600020905060008080600090505b83600b01805490508110156125f3578573ffffffffffffffffffffffffffffffffffffffff1684600b01828154811061258d577f4e487b7100000000000000000000000000000000000000000000000000000000600052603260045260246000fd5b9060005260206000200160009054906101000a900473ffffffffffffffffffffffffffffffffffffffff1673ffffffffffffffffffffffffffffffffffffffff1614156125e057809150600192506125f3565b80806125eb90615426565b91505061252b565b5081612634576040517f08c379a000000000000000000000000000000000000000000000000000000000815260040161262b90614f5b565b60405180910390fd5b600183600b018054905011156127435782600b01600184600b018054905061265c91906152c2565b81548110612693577f4e487b7100000000000000000000000000000000000000000000000000000000600052603260045260246000fd5b9060005260206000200160009054906101000a900473ffffffffffffffffffffffffffffffffffffffff1683600b0182815481106126fa577f4e487b7100000000000000000000000000000000000000000000000000000000600052603260045260246000fd5b9060005260206000200160006101000a81548173ffffffffffffffffffffffffffffffffffffffff021916908373ffffffffffffffffffffffffffffffffffffffff1602179055505b82600b0180548061277d577f4e487b7100000000000000000000000000000000000000000000000000000000600052603160045260246000fd5b6001900381819060005260206000200160006101000a81549073ffffffffffffffffffffffffffffffffffffffff021916905590558473ffffffffffffffffffffffffffffffffffffffff168673ffffffffffffffffffffffffffffffffffffffff167f0a00e0a3cc14d5ddfcb6bee211a913e407e30c57e5f82462764b0483c6f9b70d4260405161280f91906150fb565b60405180910390a3505050505050565b60006020528060005260406000206000915090508060000160009054906101000a900473ffffffffffffffffffffffffffffffffffffffff1690806001018054612868906153f4565b80601f0160208091040260200160405190810160405280929190818152602001828054612894906153f4565b80156128e15780601f106128b6576101008083540402835291602001916128e1565b820191906000526020600020905b8154815290600101906020018083116128c457829003601f168201915b5050505050908060040160009054906101000a900460ff16908060040160019054906101000a900460ff169080600501805461291c906153f4565b80601f0160208091040260200160405190810160405280929190818152602001828054612948906153f4565b80156129955780601f1061296a57610100808354040283529160200191612995565b820191906000526020600020905b81548152906001019060200180831161297857829003601f168201915b5050505050908060060180546129aa906153f4565b80601f01602080910402602001604051908101604052809291908181526020018280546129d6906153f4565b8015612a235780601f106129f857610100808354040283529160200191612a23565b820191906000526020600020905b815481529060010190602001808311612a0657829003601f168201915b505050505090806007018054612a38906153f4565b80601f0160208091040260200160405190810160405280929190818152602001828054612a64906153f4565b8015612ab15780601f10612a8657610100808354040283529160200191612ab1565b820191906000526020600020905b815481529060010190602001808311612a9457829003601f168201915b505050505090806008018054612ac6906153f4565b80601f0160208091040260200160405190810160405280929190818152602001828054612af2906153f4565b8015612b3f5780601f10612b1457610100808354040283529160200191612b3f565b820191906000526020600020905b815481529060010190602001808311612b2257829003601f168201915b505050505090806009018054612b54906153f4565b80601f0160208091040260200160405190810160405280929190818152602001828054612b80906153f4565b8015612bcd5780601f10612ba257610100808354040283529160200191612bcd565b820191906000526020600020905b815481529060010190602001808311612bb057829003601f168201915b50505050509080600a015490508a565b60008073ffffffffffffffffffffffffffffffffffffffff166000808573ffffffffffffffffffffffffffffffffffffffff1673ffffffffffffffffffffffffffffffffffffffff16815260200190815260200160002060000160009054906101000a900473ffffffffffffffffffffffffffffffffffffffff1673ffffffffffffffffffffffffffffffffffffffff1614158015612d4857506000808473ffffffffffffffffffffffffffffffffffffffff1673ffffffffffffffffffffffffffffffffffffffff1681526020019081526020016000206003016000836007811115612cf3577f4e487b7100000000000000000000000000000000000000000000000000000000600052602160045260246000fd5b6007811115612d2b577f4e487b7100000000000000000000000000000000000000000000000000000000600052602160045260246000fd5b815260200190815260200160002060009054906101000a900460ff165b8015612d9f57506000808473ffffffffffffffffffffffffffffffffffffffff1673ffffffffffffffffffffffffffffffffffffffff16815260200190815260200160002060040160009054906101000a900460ff165b905092915050565b6060806000806060806060806060600060608b600073ffffffffffffffffffffffffffffffffffffffff166000808373ffffffffffffffffffffffffffffffffffffffff1673ffffffffffffffffffffffffffffffffffffffff16815260200190815260200160002060000160009054906101000a900473ffffffffffffffffffffffffffffffffffffffff1673ffffffffffffffffffffffffffffffffffffffff161415612e8b576040517f08c379a0000000000000000000000000000000000000000000000000000000008152600401612e8290614f1b565b60405180910390fd5b60008060008f73ffffffffffffffffffffffffffffffffffffffff1673ffffffffffffffffffffffffffffffffffffffff168152602001908152602001600020905080600101816002018260040160009054906101000a900460ff168360040160019054906101000a900460ff16846005018560060186600701876008018860090189600a01548a600b018a8054612f22906153f4565b80601f0160208091040260200160405190810160405280929190818152602001828054612f4e906153f4565b8015612f9b5780601f10612f7057610100808354040283529160200191612f9b565b820191906000526020600020905b815481529060010190602001808311612f7e57829003601f168201915b50505050509a508980548060200260200160405190810160405280929190818152602001828054801561304857602002820191906000526020600020906000905b82829054906101000a900460ff166007811115613022577f4e487b7100000000000000000000000000000000000000000000000000000000600052602160045260246000fd5b81526020019060010190602082600001049283019260010382029150808411612fdc5790505b5050505050995086805461305b906153f4565b80601f0160208091040260200160405190810160405280929190818152602001828054613087906153f4565b80156130d45780601f106130a9576101008083540402835291602001916130d4565b820191906000526020600020905b8154815290600101906020018083116130b757829003601f168201915b505050505096508580546130e7906153f4565b80601f0160208091040260200160405190810160405280929190818152602001828054613113906153f4565b80156131605780601f1061313557610100808354040283529160200191613160565b820191906000526020600020905b81548152906001019060200180831161314357829003601f168201915b50505050509550848054613173906153f4565b80601f016020809104026020016040519081016040528092919081815260200182805461319f906153f4565b80156131ec5780601f106131c1576101008083540402835291602001916131ec565b820191906000526020600020905b8154815290600101906020018083116131cf57829003601f168201915b505050505094508380546131ff906153f4565b80601f016020809104026020016040519081016040528092919081815260200182805461322b906153f4565b80156132785780601f1061324d57610100808354040283529160200191613278565b820191906000526020600020905b81548152906001019060200180831161325b57829003601f168201915b5050505050935082805461328b906153f4565b80601f01602080910402602001604051908101604052809291908181526020018280546132b7906153f4565b80156133045780601f106132d957610100808354040283529160200191613304565b820191906000526020600020905b8154815290600101906020018083116132e757829003601f168201915b505050505092508080548060200260200160405190810160405280929190818152602001828054801561338c57602002820191906000526020600020905b8160009054906101000a900473ffffffffffffffffffffffffffffffffffffffff1673ffffffffffffffffffffffffffffffffffffffff1681526020019060010190808311613342575b505050505090509c509c509c509c509c509c509c509c509c509c509c50505091939597999b90929496989a50565b600360003373ffffffffffffffffffffffffffffffffffffffff1673ffffffffffffffffffffffffffffffffffffffff16815260200190815260200160002060009054906101000a900460ff16613446576040517f08c379a000000000000000000000000000000000000000000000000000000000815260040161343d9061507b565b60405180910390fd5b81600073ffffffffffffffffffffffffffffffffffffffff166000808373ffffffffffffffffffffffffffffffffffffffff1673ffffffffffffffffffffffffffffffffffffffff16815260200190815260200160002060000160009054906101000a900473ffffffffffffffffffffffffffffffffffffffff1673ffffffffffffffffffffffffffffffffffffffff161415613518576040517f08c379a000000000000000000000000000000000000000000000000000000000815260040161350f90614f1b565b60405180910390fd5b60008060008573ffffffffffffffffffffffffffffffffffffffff1673ffffffffffffffffffffffffffffffffffffffff1681526020019081526020016000209050806003016000846007811115613599577f4e487b7100000000000000000000000000000000000000000000000000000000600052602160045260246000fd5b60078111156135d1577f4e487b7100000000000000000000000000000000000000000000000000000000600052602160045260246000fd5b815260200190815260200160002060009054906101000a900460ff161561362d576040517f08c379a00000000000000000000000000000000000000000000000000000000081526004016136249061505b565b60405180910390fd5b806002018390806001815401808255809150506001900390600052602060002090602091828204019190069091909190916101000a81548160ff021916908360078111156136a4577f4e487b7100000000000000000000000000000000000000000000000000000000600052602160045260246000fd5b021790555060018160030160008560078111156136ea577f4e487b7100000000000000000000000000000000000000000000000000000000600052602160045260246000fd5b6007811115613722577f4e487b7100000000000000000000000000000000000000000000000000000000600052602160045260246000fd5b815260200190815260200160002060006101000a81548160ff02191690831515021790555060026000846007811115613784577f4e487b7100000000000000000000000000000000000000000000000000000000600052602160045260246000fd5b60078111156137bc577f4e487b7100000000000000000000000000000000000000000000000000000000600052602160045260246000fd5b8152602001908152602001600020849080600181540180825580915050600190039060005260206000200160009091909190916101000a81548173ffffffffffffffffffffffffffffffffffffffff021916908373ffffffffffffffffffffffffffffffffffffffff16021790555060046000846007811115613868577f4e487b7100000000000000000000000000000000000000000000000000000000600052602160045260246000fd5b60078111156138a0577f4e487b7100000000000000000000000000000000000000000000000000000000600052602160045260246000fd5b815260200190815260200160002060008154809291906138bf90615426565b919050555050505050565b60036020528060005260406000206000915054906101000a900460ff1681565b6001818051602081018201805184825260208301602085012081835280955050505050506000915054906101000a900473ffffffffffffffffffffffffffffffffffffffff1681565b600360003373ffffffffffffffffffffffffffffffffffffffff1673ffffffffffffffffffffffffffffffffffffffff16815260200190815260200160002060009054906101000a900460ff166139bf576040517f08c379a00000000000000000000000000000000000000000000000000000000081526004016139b69061507b565b60405180910390fd5b600360008273ffffffffffffffffffffffffffffffffffffffff1673ffffffffffffffffffffffffffffffffffffffff16815260200190815260200160002060009054906101000a900460ff16613a4b576040517f08c379a0000000000000000000000000000000000000000000000000000000008152600401613a4290614f3b565b60405180910390fd5b3373ffffffffffffffffffffffffffffffffffffffff168173ffffffffffffffffffffffffffffffffffffffff161415613aba576040517f08c379a0000000000000000000000000000000000000000000000000000000008152600401613ab190614edb565b60405180910390fd5b6000600360008373ffffffffffffffffffffffffffffffffffffffff1673ffffffffffffffffffffffffffffffffffffffff16815260200190815260200160002060006101000a81548160ff0219169083151502179055508073ffffffffffffffffffffffffffffffffffffffff167ff95837395eacf6d5992d2f5190a4a12eafd812a4f58c5f80266353fee626e25042604051613b5891906150fb565b60405180910390a250565b606080600a6005541015613bae576040518060400160405280600381526020017f30303000000000000000000000000000000000000000000000000000000000008152509050613c54565b60646005541015613bf6576040518060400160405280600281526020017f30300000000000000000000000000000000000000000000000000000000000008152509050613c53565b6103e86005541015613c3f576040518060400160405280600181526020017f30000000000000000000000000000000000000000000000000000000000000008152509050613c52565b6040518060200160405280600081525090505b5b5b6000613c61600554613cc1565b905060056000815480929190613c7690615426565b91905055506000613c9361271042613c8e919061546f565b613cc1565b9050808383604051602001613caa93929190614b7b565b604051602081830303815290604052935050505090565b60606000821415613d09576040518060400160405280600181526020017f30000000000000000000000000000000000000000000000000000000000000008152509050613e6f565b600082905060005b60008214613d3b578080613d2490615426565b915050600a82613d349190615291565b9150613d11565b60008167ffffffffffffffff811115613d7d577f4e487b7100000000000000000000000000000000000000000000000000000000600052604160045260246000fd5b6040519080825280601f01601f191660200182016040528015613daf5781602001600182028036833780820191505090505b50905060008290508593505b60008414613e6757600a84613dd0919061546f565b6030613ddc919061523b565b60f81b8282613dea906153ca565b92508281518110613e24577f4e487b7100000000000000000000000000000000000000000000000000000000600052603260045260246000fd5b60200101907effffffffffffffffffffffffffffffffffffffffffffffffffffffffffffff1916908160001a905350600a84613e609190615291565b9350613dbb565b819450505050505b919050565b828054613e80906153f4565b90600052602060002090601f016020900481019282613ea25760008555613ee9565b82601f10613ebb57805160ff1916838001178555613ee9565b82800160010185558215613ee9579182015b82811115613ee8578251825591602001919060010190613ecd565b5b509050613ef69190613efa565b5090565b5b80821115613f13576000816000905550600101613efb565b5090565b6000613f2a613f2584615147565b615116565b905082815260208101848484011115613f4257600080fd5b613f4d848285615388565b509392505050565b600081359050613f64816155c4565b92915050565b600081359050613f79816155db565b92915050565b600081359050613f8e816155eb565b92915050565b600082601f830112613fa557600080fd5b8135613fb5848260208601613f17565b91505092915050565b600081359050613fcd816155fb565b92915050565b600060208284031215613fe557600080fd5b6000613ff384828501613f55565b91505092915050565b6000806040838503121561400f57600080fd5b600061401d85828601613f55565b925050602061402e85828601613f55565b9150509250929050565b6000806040838503121561404b57600080fd5b600061405985828601613f55565b925050602061406a85828601613f6a565b9150509250929050565b600080600080600080600080610100898b03121561409157600080fd5b600061409f8b828c01613f55565b98505060206140b08b828c01613f6a565b97505060406140c18b828c01613f7f565b965050606089013567ffffffffffffffff8111156140de57600080fd5b6140ea8b828c01613f94565b955050608089013567ffffffffffffffff81111561410757600080fd5b6141138b828c01613f94565b94505060a089013567ffffffffffffffff81111561413057600080fd5b61413c8b828c01613f94565b93505060c089013567ffffffffffffffff81111561415957600080fd5b6141658b828c01613f94565b92505060e089013567ffffffffffffffff81111561418257600080fd5b61418e8b828c01613f94565b9150509295985092959890939650565b60008060008060008060c087890312156141b757600080fd5b60006141c589828a01613f55565b965050602087013567ffffffffffffffff8111156141e257600080fd5b6141ee89828a01613f94565b955050604087013567ffffffffffffffff81111561420b57600080fd5b61421789828a01613f94565b945050606087013567ffffffffffffffff81111561423457600080fd5b61424089828a01613f94565b935050608087013567ffffffffffffffff81111561425d57600080fd5b61426989828a01613f94565b92505060a087013567ffffffffffffffff81111561428657600080fd5b61429289828a01613f94565b9150509295509295509295565b6000602082840312156142b157600080fd5b60006142bf84828501613f6a565b91505092915050565b600080604083850312156142db57600080fd5b60006142e985828601613f6a565b92505060206142fa85828601613fbe565b9150509250929050565b60006020828403121561431657600080fd5b600082013567ffffffffffffffff81111561433057600080fd5b61433c84828501613f94565b91505092915050565b60006143518383614375565b60208301905092915050565b6000614369838361448f565b60208301905092915050565b61437e816152f6565b82525050565b61438d816152f6565b82525050565b600061439e826151ac565b6143a881856151f2565b93506143b383615177565b8060005b838110156143e45781516143cb8882614345565b97506143d6836151d8565b9250506001810190506143b7565b5085935050505092915050565b60006143fc826151b7565b6144068185615203565b935061441183615187565b8060005b83811015614442578151614429888261435d565b9750614434836151e5565b925050600181019050614415565b5085935050505092915050565b61445881615308565b82525050565b6000614469826151c2565b6144738185615214565b9350614483818560208601615397565b80840191505092915050565b61449881615364565b82525050565b6144a781615364565b82525050565b6144b681615376565b82525050565b60006144c7826151cd565b6144d1818561521f565b93506144e1818560208601615397565b6144ea8161558b565b840191505092915050565b6000614500826151cd565b61450a8185615230565b935061451a818560208601615397565b80840191505092915050565b60008154614533816153f4565b61453d818661521f565b94506001821660008114614558576001811461456a5761459d565b60ff198316865260208601935061459d565b61457385615197565b60005b8381101561459557815481890152600182019150602081019050614576565b808801955050505b50505092915050565b60006145b360118361521f565b91507f4163746575722064656a612061637469660000000000000000000000000000006000830152602082019050919050565b60006145f360218361521f565b91507f496d706f737369626c65206465207365207265746972657220736f692d6d656d60008301527f65000000000000000000000000000000000000000000000000000000000000006020830152604082019050919050565b600061465960188361521f565b91507f494420426c6f636b636861696e20696e6578697374616e7400000000000000006000830152602082019050919050565b600061469960118361521f565b91507f41637465757220696e6578697374616e740000000000000000000000000000006000830152602082019050919050565b60006146d960158361521f565b91507f50617320756e2061646d696e69737472617465757200000000000000000000006000830152602082019050919050565b600061471960128361521f565b91507f436f6e74726174206e6f6e2074726f75766500000000000000000000000000006000830152602082019050919050565b600061475960138361521f565b91507f44656a612061646d696e697374726174657572000000000000000000000000006000830152602082019050919050565b6000614799600383615230565b91507f4d472d00000000000000000000000000000000000000000000000000000000006000830152600382019050919050565b60006147d960218361521f565b91507f41647265737365206427696d706c656d656e746174696f6e20696e76616c696460008301527f65000000000000000000000000000000000000000000000000000000000000006020830152604082019050919050565b600061483f601f8361521f565b91507f416472657373652061646d696e69737472617465757220696e76616c696465006000830152602082019050919050565b600061487f60108361521f565b91507f4164726573736520696e76616c696465000000000000000000000000000000006000830152602082019050919050565b60006148bf60148361521f565b91507f436f6e747261742064656a612064656c656775650000000000000000000000006000830152602082019050919050565b60006148ff602b8361521f565b91507f4563686563206465206c61206d6973652061206a6f7572206465206c27696d7060008301527f6c656d656e746174696f6e0000000000000000000000000000000000000000006020830152604082019050919050565b6000614965601b8361521f565b91507f4164726573736520646520636f6e7472617420696e76616c69646500000000006000830152602082019050919050565b60006149a5600183615230565b91507f2d000000000000000000000000000000000000000000000000000000000000006000830152600182019050919050565b60006149e560128361521f565b91507f526f6c652064656a6120617474726962756500000000000000000000000000006000830152602082019050919050565b6000614a2560268361521f565b91507f4e6f6e206175746f726973653a207365756c656d656e742041646d696e69737460008301527f72617465757200000000000000000000000000000000000000000000000000006020830152604082019050919050565b6000614a8b60168361521f565b91507f4163746575722064656a6120656e7265676973747265000000000000000000006000830152602082019050919050565b6000614acb601a8361521f565b91507f436f6e747261742064656a6120696e697469616c6973657220210000000000006000830152602082019050919050565b6000614b0b600e8361521f565b91507f41637465757220696e61637469660000000000000000000000000000000000006000830152602082019050919050565b614b478161535a565b82525050565b6000614b59828461445e565b915081905092915050565b6000614b7082846144f5565b915081905092915050565b6000614b868261478c565b9150614b9282866144f5565b9150614b9d82614998565b9150614ba982856144f5565b9150614bb582846144f5565b9150819050949350505050565b6000602082019050614bd76000830184614384565b92915050565b600061014082019050614bf3600083018d614384565b8181036020830152614c05818c6144bc565b9050614c14604083018b61444f565b614c21606083018a6144ad565b8181036080830152614c3381896144bc565b905081810360a0830152614c4781886144bc565b905081810360c0830152614c5b81876144bc565b905081810360e0830152614c6f81866144bc565b9050818103610100830152614c8481856144bc565b9050614c94610120830184614b3e565b9b9a5050505050505050505050565b60006020820190508181036000830152614cbd8184614393565b905092915050565b60006020820190508181036000830152614cdf81846143f1565b905092915050565b6000602082019050614cfc600083018461444f565b92915050565b6000610160820190508181036000830152614d1d818e6144bc565b90508181036020830152614d31818d6143f1565b9050614d40604083018c61444f565b614d4d606083018b6144ad565b8181036080830152614d5f818a6144bc565b905081810360a0830152614d7381896144bc565b905081810360c0830152614d8781886144bc565b905081810360e0830152614d9b81876144bc565b9050818103610100830152614db081866144bc565b9050614dc0610120830185614b3e565b818103610140830152614dd38184614393565b90509c9b505050505050505050505050565b60006080820190508181036000830152614dff81876144bc565b9050614e0e602083018661449e565b8181036040830152614e2081856144bc565b9050614e2f6060830184614b3e565b95945050505050565b60006080820190508181036000830152614e528187614526565b9050614e61602083018661449e565b8181036040830152614e7381856144bc565b9050614e826060830184614b3e565b95945050505050565b60006040820190508181036000830152614ea58185614526565b9050614eb46020830184614b3e565b9392505050565b60006020820190508181036000830152614ed4816145a6565b9050919050565b60006020820190508181036000830152614ef4816145e6565b9050919050565b60006020820190508181036000830152614f148161464c565b9050919050565b60006020820190508181036000830152614f348161468c565b9050919050565b60006020820190508181036000830152614f54816146cc565b9050919050565b60006020820190508181036000830152614f748161470c565b9050919050565b60006020820190508181036000830152614f948161474c565b9050919050565b60006020820190508181036000830152614fb4816147cc565b9050919050565b60006020820190508181036000830152614fd481614832565b9050919050565b60006020820190508181036000830152614ff481614872565b9050919050565b60006020820190508181036000830152615014816148b2565b9050919050565b60006020820190508181036000830152615034816148f2565b9050919050565b6000602082019050818103600083015261505481614958565b9050919050565b60006020820190508181036000830152615074816149d8565b9050919050565b6000602082019050818103600083015261509481614a18565b9050919050565b600060208201905081810360008301526150b481614a7e565b9050919050565b600060208201905081810360008301526150d481614abe565b9050919050565b600060208201905081810360008301526150f481614afe565b9050919050565b60006020820190506151106000830184614b3e565b92915050565b6000604051905081810181811067ffffffffffffffff8211171561513d5761513c61555c565b5b8060405250919050565b600067ffffffffffffffff8211156151625761516161555c565b5b601f19601f8301169050602081019050919050565b6000819050602082019050919050565b6000819050602082019050919050565b60008190508160005260206000209050919050565b600081519050919050565b600081519050919050565b600081519050919050565b600081519050919050565b6000602082019050919050565b6000602082019050919050565b600082825260208201905092915050565b600082825260208201905092915050565b600081905092915050565b600082825260208201905092915050565b600081905092915050565b60006152468261535a565b91506152518361535a565b9250827fffffffffffffffffffffffffffffffffffffffffffffffffffffffffffffffff03821115615286576152856154a0565b5b828201905092915050565b600061529c8261535a565b91506152a78361535a565b9250826152b7576152b66154cf565b5b828204905092915050565b60006152cd8261535a565b91506152d88361535a565b9250828210156152eb576152ea6154a0565b5b828203905092915050565b60006153018261533a565b9050919050565b60008115159050919050565b60008190506153228261559c565b919050565b6000819050615335826155b0565b919050565b600073ffffffffffffffffffffffffffffffffffffffff82169050919050565b6000819050919050565b600061536f82615314565b9050919050565b600061538182615327565b9050919050565b82818337600083830152505050565b60005b838110156153b557808201518184015260208101905061539a565b838111156153c4576000848401525b50505050565b60006153d58261535a565b915060008214156153e9576153e86154a0565b5b600182039050919050565b6000600282049050600182168061540c57607f821691505b602082108114156154205761541f61552d565b5b50919050565b60006154318261535a565b91507fffffffffffffffffffffffffffffffffffffffffffffffffffffffffffffffff821415615464576154636154a0565b5b600182019050919050565b600061547a8261535a565b91506154858361535a565b925082615495576154946154cf565b5b828206905092915050565b7f4e487b7100000000000000000000000000000000000000000000000000000000600052601160045260246000fd5b7f4e487b7100000000000000000000000000000000000000000000000000000000600052601260045260246000fd5b7f4e487b7100000000000000000000000000000000000000000000000000000000600052602160045260246000fd5b7f4e487b7100000000000000000000000000000000000000000000000000000000600052602260045260246000fd5b7f4e487b7100000000000000000000000000000000000000000000000000000000600052604160045260246000fd5b6000601f19601f8301169050919050565b600881106155ad576155ac6154fe565b5b50565b600281106155c1576155c06154fe565b5b50565b6155cd816152f6565b81146155d857600080fd5b50565b600881106155e857600080fd5b50565b600281106155f857600080fd5b50565b6156048161535a565b811461560f57600080fd5b5056fea2646970667358221220997493794f7306583cd223a32e1bfeb139c9abd2297afc7bb2fd24b2bf90b46a64736f6c63430008000033",
  "linkReferences": {},
  "deployedLinkReferences": {}
}