{
  "_format": "hh-sol-artifact-1",
  "contractName": "GestionnaireActeurs",
  "sourceName": "contracts/gestionnaireActeurs.sol",
  "abi": [
    {
      "inputs": [
        {
          "internalType": "address",
          "name": "_administrateurInitial",
          "type": "address"
        },
        {
          "internalType": "address",
          "name": "_proxyAddress",
          "type": "address"
        }
      ],
      "stateMutability": "nonpayable",
      "type": "constructor"
    },
    {
      "anonymous": false,
      "inputs": [
        {
          "indexed": true,
          "internalType": "address",
          "name": "adresse",
          "type": "address"
        },
        {
          "indexed": false,
          "internalType": "string",
          "name": "idBlockchain",
          "type": "string"
        },
        {
          "indexed": false,
          "internalType": "uint256",
          "name": "timestamp",
          "type": "uint256"
        }
      ],
      "name": "ActeurActive",
      "type": "event"
    },
    {
      "anonymous": false,
      "inputs": [
        {
          "indexed": true,
          "internalType": "address",
          "name": "adresse",
          "type": "address"
        },
        {
          "indexed": false,
          "internalType": "string",
          "name": "idBlockchain",
          "type": "string"
        },
        {
          "indexed": false,
          "internalType": "uint256",
          "name": "timestamp",
          "type": "uint256"
        }
      ],
      "name": "ActeurDesactive",
      "type": "event"
    },
    {
      "anonymous": false,
      "inputs": [
        {
          "indexed": true,
          "internalType": "address",
          "name": "adresse",
          "type": "address"
        },
        {
          "indexed": false,
          "internalType": "string",
          "name": "idBlockchain",
          "type": "string"
        },
        {
          "indexed": false,
          "internalType": "enum StructLib.Role",
          "name": "role",
          "type": "uint8"
        },
        {
          "indexed": false,
          "internalType": "string",
          "name": "nom",
          "type": "string"
        },
        {
          "indexed": false,
          "internalType": "uint256",
          "name": "timestamp",
          "type": "uint256"
        }
      ],
      "name": "ActeurEnregistre",
      "type": "event"
    },
    {
      "anonymous": false,
      "inputs": [
        {
          "indexed": true,
          "internalType": "address",
          "name": "adresse",
          "type": "address"
        },
        {
          "indexed": false,
          "internalType": "string",
          "name": "idBlockchain",
          "type": "string"
        },
        {
          "indexed": false,
          "internalType": "enum StructLib.Role",
          "name": "role",
          "type": "uint8"
        },
        {
          "indexed": false,
          "internalType": "string",
          "name": "nom",
          "type": "string"
        },
        {
          "indexed": false,
          "internalType": "uint256",
          "name": "timestamp",
          "type": "uint256"
        }
      ],
      "name": "ActeurModifie",
      "type": "event"
    },
    {
      "anonymous": false,
      "inputs": [
        {
          "indexed": true,
          "internalType": "address",
          "name": "admin",
          "type": "address"
        },
        {
          "indexed": false,
          "internalType": "uint256",
          "name": "timestamp",
          "type": "uint256"
        }
      ],
      "name": "AdministrateurAjoute",
      "type": "event"
    },
    {
      "anonymous": false,
      "inputs": [
        {
          "indexed": true,
          "internalType": "address",
          "name": "admin",
          "type": "address"
        },
        {
          "indexed": false,
          "internalType": "uint256",
          "name": "timestamp",
          "type": "uint256"
        }
      ],
      "name": "AdministrateurRetire",
      "type": "event"
    },
    {
      "anonymous": false,
      "inputs": [
        {
          "indexed": true,
          "internalType": "address",
          "name": "acteur",
          "type": "address"
        },
        {
          "indexed": true,
          "internalType": "address",
          "name": "contrat",
          "type": "address"
        },
        {
          "indexed": false,
          "internalType": "uint256",
          "name": "timestamp",
          "type": "uint256"
        }
      ],
      "name": "ContratDelegueAjoute",
      "type": "event"
    },
    {
      "anonymous": false,
      "inputs": [
        {
          "indexed": true,
          "internalType": "address",
          "name": "acteur",
          "type": "address"
        },
        {
          "indexed": true,
          "internalType": "address",
          "name": "contrat",
          "type": "address"
        },
        {
          "indexed": false,
          "internalType": "uint256",
          "name": "timestamp",
          "type": "uint256"
        }
      ],
      "name": "ContratDelegueRetire",
      "type": "event"
    },
    {
      "inputs": [
        {
          "internalType": "address",
          "name": "",
          "type": "address"
        }
      ],
      "name": "acteurs",
      "outputs": [
        {
          "internalType": "address",
          "name": "adresse",
          "type": "address"
        },
        {
          "internalType": "string",
          "name": "idBlockchain",
          "type": "string"
        },
        {
          "internalType": "enum StructLib.Role",
          "name": "role",
          "type": "uint8"
        },
        {
          "internalType": "bool",
          "name": "actif",
          "type": "bool"
        },
        {
          "internalType": "enum GestionnaireActeurs.TypeEntite",
          "name": "typeEntite",
          "type": "uint8"
        },
        {
          "internalType": "string",
          "name": "nom",
          "type": "string"
        },
        {
          "internalType": "string",
          "name": "nifOuCin",
          "type": "string"
        },
        {
          "internalType": "string",
          "name": "adresseOfficielle",
          "type": "string"
        },
        {
          "internalType": "string",
          "name": "email",
          "type": "string"
        },
        {
          "internalType": "string",
          "name": "telephone",
          "type": "string"
        },
        {
          "internalType": "uint256",
          "name": "dateEnregistrement",
          "type": "uint256"
        }
      ],
      "stateMutability": "view",
      "type": "function"
    },
    {
      "inputs": [
        {
          "internalType": "enum StructLib.Role",
          "name": "",
          "type": "uint8"
        },
        {
          "internalType": "uint256",
          "name": "",
          "type": "uint256"
        }
      ],
      "name": "acteursByRole",
      "outputs": [
        {
          "internalType": "address",
          "name": "",
          "type": "address"
        }
      ],
      "stateMutability": "view",
      "type": "function"
    },
    {
      "inputs": [
        {
          "internalType": "address",
          "name": "_adresse",
          "type": "address"
        }
      ],
      "name": "activerActeur",
      "outputs": [],
      "stateMutability": "nonpayable",
      "type": "function"
    },
    {
      "inputs": [
        {
          "internalType": "address",
          "name": "",
          "type": "address"
        }
      ],
      "name": "administrateurs",
      "outputs": [
        {
          "internalType": "bool",
          "name": "",
          "type": "bool"
        }
      ],
      "stateMutability": "view",
      "type": "function"
    },
    {
      "inputs": [
        {
          "internalType": "address",
          "name": "_nouvelAdmin",
          "type": "address"
        }
      ],
      "name": "ajouterAdministrateur",
      "outputs": [],
      "stateMutability": "nonpayable",
      "type": "function"
    },
    {
      "inputs": [
        {
          "internalType": "address",
          "name": "_acteur",
          "type": "address"
        },
        {
          "internalType": "address",
          "name": "_contratDelegue",
          "type": "address"
        }
      ],
      "name": "ajouterContratDelegue",
      "outputs": [],
      "stateMutability": "nonpayable",
      "type": "function"
    },
    {
      "inputs": [
        {
          "internalType": "enum StructLib.Role",
          "name": "",
          "type": "uint8"
        }
      ],
      "name": "compteurActeurs",
      "outputs": [
        {
          "internalType": "uint256",
          "name": "",
          "type": "uint256"
        }
      ],
      "stateMutability": "view",
      "type": "function"
    },
    {
      "inputs": [
        {
          "internalType": "address",
          "name": "_adresse",
          "type": "address"
        }
      ],
      "name": "desactiverActeur",
      "outputs": [],
      "stateMutability": "nonpayable",
      "type": "function"
    },
    {
      "inputs": [
        {
          "internalType": "address",
          "name": "_adresse",
          "type": "address"
        },
        {
          "internalType": "enum StructLib.Role",
          "name": "_role",
          "type": "uint8"
        },
        {
          "internalType": "enum GestionnaireActeurs.TypeEntite",
          "name": "_typeEntite",
          "type": "uint8"
        },
        {
          "internalType": "string",
          "name": "_nom",
          "type": "string"
        },
        {
          "internalType": "string",
          "name": "_nifOuCin",
          "type": "string"
        },
        {
          "internalType": "string",
          "name": "_adresseOfficielle",
          "type": "string"
        },
        {
          "internalType": "string",
          "name": "_email",
          "type": "string"
        },
        {
          "internalType": "string",
          "name": "_telephone",
          "type": "string"
        }
      ],
      "name": "enregistrerActeur",
      "outputs": [],
      "stateMutability": "nonpayable",
      "type": "function"
    },
    {
      "inputs": [
        {
          "internalType": "address",
          "name": "_adresse",
          "type": "address"
        },
        {
          "internalType": "enum StructLib.Role",
          "name": "_role",
          "type": "uint8"
        }
      ],
      "name": "estActeurAvecRole",
      "outputs": [
        {
          "internalType": "bool",
          "name": "",
          "type": "bool"
        }
      ],
      "stateMutability": "view",
      "type": "function"
    },
    {
      "inputs": [
        {
          "internalType": "enum StructLib.Role",
          "name": "_role",
          "type": "uint8"
        }
      ],
      "name": "getActeursByRole",
      "outputs": [
        {
          "internalType": "address[]",
          "name": "",
          "type": "address[]"
        }
      ],
      "stateMutability": "view",
      "type": "function"
    },
    {
      "inputs": [
        {
          "internalType": "string",
          "name": "_idBlockchain",
          "type": "string"
        }
      ],
      "name": "getAdresseParIdBlockchain",
      "outputs": [
        {
          "internalType": "address",
          "name": "",
          "type": "address"
        }
      ],
      "stateMutability": "view",
      "type": "function"
    },
    {
      "inputs": [
        {
          "internalType": "address",
          "name": "_adresse",
          "type": "address"
        }
      ],
      "name": "getDetailsActeur",
      "outputs": [
        {
          "internalType": "string",
          "name": "idBlockchain",
          "type": "string"
        },
        {
          "internalType": "enum StructLib.Role",
          "name": "role",
          "type": "uint8"
        },
        {
          "internalType": "bool",
          "name": "actif",
          "type": "bool"
        },
        {
          "internalType": "enum GestionnaireActeurs.TypeEntite",
          "name": "typeEntite",
          "type": "uint8"
        },
        {
          "internalType": "string",
          "name": "nom",
          "type": "string"
        },
        {
          "internalType": "string",
          "name": "nifOuCin",
          "type": "string"
        },
        {
          "internalType": "string",
          "name": "adresseOfficielle",
          "type": "string"
        },
        {
          "internalType": "string",
          "name": "email",
          "type": "string"
        },
        {
          "internalType": "string",
          "name": "telephone",
          "type": "string"
        },
        {
          "internalType": "uint256",
          "name": "dateEnregistrement",
          "type": "uint256"
        },
        {
          "internalType": "address[]",
          "name": "contratsDelegues",
          "type": "address[]"
        }
      ],
      "stateMutability": "view",
      "type": "function"
    },
    {
      "inputs": [
        {
          "internalType": "string",
          "name": "",
          "type": "string"
        }
      ],
      "name": "idBlockchainToAddress",
      "outputs": [
        {
          "internalType": "address",
          "name": "",
          "type": "address"
        }
      ],
      "stateMutability": "view",
      "type": "function"
    },
    {
      "inputs": [],
      "name": "implementation",
      "outputs": [
        {
          "internalType": "address",
          "name": "",
          "type": "address"
        }
      ],
      "stateMutability": "view",
      "type": "function"
    },
    {
      "inputs": [
        {
          "internalType": "address",
          "name": "_nouvelleImplementation",
          "type": "address"
        }
      ],
      "name": "mettreAJourImplementation",
      "outputs": [],
      "stateMutability": "nonpayable",
      "type": "function"
    },
    {
      "inputs": [
        {
          "internalType": "address",
          "name": "_adresse",
          "type": "address"
        },
        {
          "internalType": "string",
          "name": "_nom",
          "type": "string"
        },
        {
          "internalType": "string",
          "name": "_nifOuCin",
          "type": "string"
        },
        {
          "internalType": "string",
          "name": "_adresseOfficielle",
          "type": "string"
        },
        {
          "internalType": "string",
          "name": "_email",
          "type": "string"
        },
        {
          "internalType": "string",
          "name": "_telephone",
          "type": "string"
        }
      ],
      "name": "modifierActeur",
      "outputs": [],
      "stateMutability": "nonpayable",
      "type": "function"
    },
    {
      "inputs": [],
      "name": "proxyAddress",
      "outputs": [
        {
          "internalType": "address",
          "name": "",
          "type": "address"
        }
      ],
      "stateMutability": "view",
      "type": "function"
    },
    {
      "inputs": [
        {
          "internalType": "address",
          "name": "_admin",
          "type": "address"
        }
      ],
      "name": "retirerAdministrateur",
      "outputs": [],
      "stateMutability": "nonpayable",
      "type": "function"
    },
    {
      "inputs": [
        {
          "internalType": "address",
          "name": "_acteur",
          "type": "address"
        },
        {
          "internalType": "address",
          "name": "_contratDelegue",
          "type": "address"
        }
      ],
      "name": "retirerContratDelegue",
      "outputs": [],
      "stateMutability": "nonpayable",
      "type": "function"
    }
  ],
  "bytecode": "0x60806040523480156200001157600080fd5b5060405162004fa938038062004fa98339818101604052810190620000379190620001ba565b600073ffffffffffffffffffffffffffffffffffffffff168273ffffffffffffffffffffffffffffffffffffffff161415620000aa576040517f08c379a0000000000000000000000000000000000000000000000000000000008152600401620000a1906200024e565b60405180910390fd5b6001600360008473ffffffffffffffffffffffffffffffffffffffff1673ffffffffffffffffffffffffffffffffffffffff16815260200190815260200160002060006101000a81548160ff02191690831515021790555080600660006101000a81548173ffffffffffffffffffffffffffffffffffffffff021916908373ffffffffffffffffffffffffffffffffffffffff16021790555060016005819055508173ffffffffffffffffffffffffffffffffffffffff167fcc1e97308fa2b0543caeb7083fb688f2af3e98b4e68e195368dca5788be1441f4260405162000193919062000270565b60405180910390a25050620002f6565b600081519050620001b481620002dc565b92915050565b60008060408385031215620001ce57600080fd5b6000620001de85828601620001a3565b9250506020620001f185828601620001a3565b9150509250929050565b60006200020a601f836200028d565b91507f416472657373652061646d696e69737472617465757220696e76616c696465006000830152602082019050919050565b6200024881620002d2565b82525050565b600060208201905081810360008301526200026981620001fb565b9050919050565b60006020820190506200028760008301846200023d565b92915050565b600082825260208201905092915050565b6000620002ab82620002b2565b9050919050565b600073ffffffffffffffffffffffffffffffffffffffff82169050919050565b6000819050919050565b620002e7816200029e565b8114620002f357600080fd5b50565b614ca380620003066000396000f3fe608060405234801561001057600080fd5b506004361061012c5760003560e01c80637e1d381b116100ad578063d1e47bb311610071578063d1e47bb314610347578063d2df06d714610377578063e947716a146103b1578063e9a400ce146103e1578063ef078662146104115761012c565b80637e1d381b1461029d5780638aa1c59e146102b9578063c6ccf6e0146102d5578063d0e76436146102f1578063d1aa5bbe1461030d5761012c565b806339f9d940116100f457806339f9d940146101d3578063567e81f1146102035780635c60da1b1461023357806376d9031b146102515780637e101d7a146102815761012c565b80631ffd1b491461013157806323f5c02d1461016157806327389e161461017f5780632bda45d11461019b57806338afc3c3146101b7575b600080fd5b61014b60048036038101906101469190613b1b565b61042d565b60405161015891906142d0565b60405180910390f35b61016961047b565b60405161017691906142d0565b60405180910390f35b61019960048036038101906101949190613826565b6104a1565b005b6101b560048036038101906101b0919061384f565b61073e565b005b6101d160048036038101906101cc91906139f1565b610ba9565b005b6101ed60048036038101906101e89190613af2565b610e38565b6040516101fa91906143c0565b60405180910390f35b61021d60048036038101906102189190613b57565b610f49565b60405161022a91906142d0565b60405180910390f35b61023b611006565b60405161024891906142d0565b60405180910390f35b61026b60048036038101906102669190613af2565b61102c565b604051610278919061478f565b60405180910390f35b61029b60048036038101906102969190613826565b611044565b005b6102b760048036038101906102b29190613826565b611276565b005b6102d360048036038101906102ce9190613826565b61151b565b005b6102ef60048036038101906102ea91906138c7565b6117bf565b005b61030b6004803603810190610306919061384f565b611f52565b005b61032760048036038101906103229190613826565b6123ef565b60405161033e9b9a999897969594939291906142eb565b60405180910390f35b610361600480360381019061035c919061388b565b6127c0565b60405161036e91906143e2565b60405180910390f35b610391600480360381019061038c9190613826565b61297b565b6040516103a89b9a999897969594939291906143fd565b60405180910390f35b6103cb60048036038101906103c69190613826565b613093565b6040516103d891906143e2565b60405180910390f35b6103fb60048036038101906103f69190613b57565b6130b3565b60405161040891906142d0565b60405180910390f35b61042b60048036038101906104269190613826565b6130fc565b005b6002602052816000526040600020818154811061044957600080fd5b906000526020600020016000915091509054906101000a900473ffffffffffffffffffffffffffffffffffffffff1681565b600660009054906101000a900473ffffffffffffffffffffffffffffffffffffffff1681565b600360003373ffffffffffffffffffffffffffffffffffffffff1673ffffffffffffffffffffffffffffffffffffffff16815260200190815260200160002060009054906101000a900460ff1661052d576040517f08c379a00000000000000000000000000000000000000000000000000000000081526004016105249061472f565b60405180910390fd5b600073ffffffffffffffffffffffffffffffffffffffff168173ffffffffffffffffffffffffffffffffffffffff16141561059d576040517f08c379a00000000000000000000000000000000000000000000000000000000081526004016105949061468f565b60405180910390fd5b6000600660009054906101000a900473ffffffffffffffffffffffffffffffffffffffff1673ffffffffffffffffffffffffffffffffffffffff16826040516024016105e991906142d0565b6040516020818303038152906040527f025b22bc000000000000000000000000000000000000000000000000000000007bffffffffffffffffffffffffffffffffffffffffffffffffffffffff19166020820180517bffffffffffffffffffffffffffffffffffffffffffffffffffffffff8381831617835250505050604051610673919061425b565b6000604051808303816000865af19150503d80600081146106b0576040519150601f19603f3d011682016040523d82523d6000602084013e6106b5565b606091505b50509050806106f9576040517f08c379a00000000000000000000000000000000000000000000000000000000081526004016106f0906146ef565b60405180910390fd5b81600760006101000a81548173ffffffffffffffffffffffffffffffffffffffff021916908373ffffffffffffffffffffffffffffffffffffffff1602179055505050565b600360003373ffffffffffffffffffffffffffffffffffffffff1673ffffffffffffffffffffffffffffffffffffffff16815260200190815260200160002060009054906101000a900460ff166107ca576040517f08c379a00000000000000000000000000000000000000000000000000000000081526004016107c19061472f565b60405180910390fd5b81600073ffffffffffffffffffffffffffffffffffffffff166000808373ffffffffffffffffffffffffffffffffffffffff1673ffffffffffffffffffffffffffffffffffffffff16815260200190815260200160002060000160009054906101000a900473ffffffffffffffffffffffffffffffffffffffff1673ffffffffffffffffffffffffffffffffffffffff16141561089c576040517f08c379a00000000000000000000000000000000000000000000000000000000081526004016108939061460f565b60405180910390fd5b826000808273ffffffffffffffffffffffffffffffffffffffff1673ffffffffffffffffffffffffffffffffffffffff16815260200190815260200160002060020160019054906101000a900460ff1661092b576040517f08c379a00000000000000000000000000000000000000000000000000000000081526004016109229061476f565b60405180910390fd5b600073ffffffffffffffffffffffffffffffffffffffff168373ffffffffffffffffffffffffffffffffffffffff16141561099b576040517f08c379a00000000000000000000000000000000000000000000000000000000081526004016109929061470f565b60405180910390fd5b60008060008673ffffffffffffffffffffffffffffffffffffffff1673ffffffffffffffffffffffffffffffffffffffff168152602001908152602001600020905060005b8160090180549050811015610ad7578473ffffffffffffffffffffffffffffffffffffffff16826009018281548110610a42577f4e487b7100000000000000000000000000000000000000000000000000000000600052603260045260246000fd5b9060005260206000200160009054906101000a900473ffffffffffffffffffffffffffffffffffffffff1673ffffffffffffffffffffffffffffffffffffffff161415610ac4576040517f08c379a0000000000000000000000000000000000000000000000000000000008152600401610abb906146cf565b60405180910390fd5b8080610acf90614a81565b9150506109e0565b5080600901849080600181540180825580915050600190039060005260206000200160009091909190916101000a81548173ffffffffffffffffffffffffffffffffffffffff021916908373ffffffffffffffffffffffffffffffffffffffff1602179055508373ffffffffffffffffffffffffffffffffffffffff168573ffffffffffffffffffffffffffffffffffffffff167fa3a595aed0b25dafaec56a254012fef39417d4f3bf42eb17714cc06f345bd62442604051610b9a919061478f565b60405180910390a35050505050565b600360003373ffffffffffffffffffffffffffffffffffffffff1673ffffffffffffffffffffffffffffffffffffffff16815260200190815260200160002060009054906101000a900460ff16610c35576040517f08c379a0000000000000000000000000000000000000000000000000000000008152600401610c2c9061472f565b60405180910390fd5b85600073ffffffffffffffffffffffffffffffffffffffff166000808373ffffffffffffffffffffffffffffffffffffffff1673ffffffffffffffffffffffffffffffffffffffff16815260200190815260200160002060000160009054906101000a900473ffffffffffffffffffffffffffffffffffffffff1673ffffffffffffffffffffffffffffffffffffffff161415610d07576040517f08c379a0000000000000000000000000000000000000000000000000000000008152600401610cfe9061460f565b60405180910390fd5b60008060008973ffffffffffffffffffffffffffffffffffffffff1673ffffffffffffffffffffffffffffffffffffffff168152602001908152602001600020905086816003019080519060200190610d6192919061363d565b5085816004019080519060200190610d7a92919061363d565b5084816005019080519060200190610d9392919061363d565b5083816006019080519060200190610dac92919061363d565b5082816007019080519060200190610dc592919061363d565b508773ffffffffffffffffffffffffffffffffffffffff167fb79cd79f93ef69d4786df1569ae504f4e805eb9c5342c4d4f625d5519722cda9826001018360020160009054906101000a900460ff168a42604051610e26949392919061452c565b60405180910390a25050505050505050565b606060026000836007811115610e77577f4e487b7100000000000000000000000000000000000000000000000000000000600052602160045260246000fd5b6007811115610eaf577f4e487b7100000000000000000000000000000000000000000000000000000000600052602160045260246000fd5b8152602001908152602001600020805480602002602001604051908101604052809291908181526020018280548015610f3d57602002820191906000526020600020905b8160009054906101000a900473ffffffffffffffffffffffffffffffffffffffff1673ffffffffffffffffffffffffffffffffffffffff1681526020019060010190808311610ef3575b50505050509050919050565b600080600183604051610f5c9190614272565b908152602001604051809103902060009054906101000a900473ffffffffffffffffffffffffffffffffffffffff169050600073ffffffffffffffffffffffffffffffffffffffff168173ffffffffffffffffffffffffffffffffffffffff161415610ffd576040517f08c379a0000000000000000000000000000000000000000000000000000000008152600401610ff4906145ef565b60405180910390fd5b80915050919050565b600760009054906101000a900473ffffffffffffffffffffffffffffffffffffffff1681565b60046020528060005260406000206000915090505481565b600360003373ffffffffffffffffffffffffffffffffffffffff1673ffffffffffffffffffffffffffffffffffffffff16815260200190815260200160002060009054906101000a900460ff166110d0576040517f08c379a00000000000000000000000000000000000000000000000000000000081526004016110c79061472f565b60405180910390fd5b600073ffffffffffffffffffffffffffffffffffffffff168173ffffffffffffffffffffffffffffffffffffffff161415611140576040517f08c379a0000000000000000000000000000000000000000000000000000000008152600401611137906146af565b60405180910390fd5b600360008273ffffffffffffffffffffffffffffffffffffffff1673ffffffffffffffffffffffffffffffffffffffff16815260200190815260200160002060009054906101000a900460ff16156111cd576040517f08c379a00000000000000000000000000000000000000000000000000000000081526004016111c49061466f565b60405180910390fd5b6001600360008373ffffffffffffffffffffffffffffffffffffffff1673ffffffffffffffffffffffffffffffffffffffff16815260200190815260200160002060006101000a81548160ff0219169083151502179055508073ffffffffffffffffffffffffffffffffffffffff167fcc1e97308fa2b0543caeb7083fb688f2af3e98b4e68e195368dca5788be1441f4260405161126b919061478f565b60405180910390a250565b600360003373ffffffffffffffffffffffffffffffffffffffff1673ffffffffffffffffffffffffffffffffffffffff16815260200190815260200160002060009054906101000a900460ff16611302576040517f08c379a00000000000000000000000000000000000000000000000000000000081526004016112f99061472f565b60405180910390fd5b80600073ffffffffffffffffffffffffffffffffffffffff166000808373ffffffffffffffffffffffffffffffffffffffff1673ffffffffffffffffffffffffffffffffffffffff16815260200190815260200160002060000160009054906101000a900473ffffffffffffffffffffffffffffffffffffffff1673ffffffffffffffffffffffffffffffffffffffff1614156113d4576040517f08c379a00000000000000000000000000000000000000000000000000000000081526004016113cb9061460f565b60405180910390fd5b816000808273ffffffffffffffffffffffffffffffffffffffff1673ffffffffffffffffffffffffffffffffffffffff16815260200190815260200160002060020160019054906101000a900460ff16611463576040517f08c379a000000000000000000000000000000000000000000000000000000000815260040161145a9061476f565b60405180910390fd5b60008060008573ffffffffffffffffffffffffffffffffffffffff1673ffffffffffffffffffffffffffffffffffffffff168152602001908152602001600020905060008160020160016101000a81548160ff0219169083151502179055508373ffffffffffffffffffffffffffffffffffffffff167fb9b44c1c6c99fcb54c8570f6dc3cdebb0d0d49eadfdf6bae7687d629797fc549826001014260405161150d92919061457f565b60405180910390a250505050565b600360003373ffffffffffffffffffffffffffffffffffffffff1673ffffffffffffffffffffffffffffffffffffffff16815260200190815260200160002060009054906101000a900460ff166115a7576040517f08c379a000000000000000000000000000000000000000000000000000000000815260040161159e9061472f565b60405180910390fd5b80600073ffffffffffffffffffffffffffffffffffffffff166000808373ffffffffffffffffffffffffffffffffffffffff1673ffffffffffffffffffffffffffffffffffffffff16815260200190815260200160002060000160009054906101000a900473ffffffffffffffffffffffffffffffffffffffff1673ffffffffffffffffffffffffffffffffffffffff161415611679576040517f08c379a00000000000000000000000000000000000000000000000000000000081526004016116709061460f565b60405180910390fd5b6000808373ffffffffffffffffffffffffffffffffffffffff1673ffffffffffffffffffffffffffffffffffffffff16815260200190815260200160002060020160019054906101000a900460ff1615611708576040517f08c379a00000000000000000000000000000000000000000000000000000000081526004016116ff906145af565b60405180910390fd5b60008060008473ffffffffffffffffffffffffffffffffffffffff1673ffffffffffffffffffffffffffffffffffffffff168152602001908152602001600020905060018160020160016101000a81548160ff0219169083151502179055508273ffffffffffffffffffffffffffffffffffffffff167fdb57de69946a4bd804c67adc0c929a6c314c2631e8f0f3178c907ab551098b8582600101426040516117b292919061457f565b60405180910390a2505050565b600360003373ffffffffffffffffffffffffffffffffffffffff1673ffffffffffffffffffffffffffffffffffffffff16815260200190815260200160002060009054906101000a900460ff1661184b576040517f08c379a00000000000000000000000000000000000000000000000000000000081526004016118429061472f565b60405180910390fd5b600073ffffffffffffffffffffffffffffffffffffffff168873ffffffffffffffffffffffffffffffffffffffff1614156118bb576040517f08c379a00000000000000000000000000000000000000000000000000000000081526004016118b2906146af565b60405180910390fd5b600073ffffffffffffffffffffffffffffffffffffffff166000808a73ffffffffffffffffffffffffffffffffffffffff1673ffffffffffffffffffffffffffffffffffffffff16815260200190815260200160002060000160009054906101000a900473ffffffffffffffffffffffffffffffffffffffff1673ffffffffffffffffffffffffffffffffffffffff161461198b576040517f08c379a00000000000000000000000000000000000000000000000000000000081526004016119829061474f565b60405180910390fd5b600061199561332c565b905060008067ffffffffffffffff8111156119d9577f4e487b7100000000000000000000000000000000000000000000000000000000600052604160045260246000fd5b604051908082528060200260200182016040528015611a075781602001602082028036833780820191505090505b50905060006040518061018001604052808c73ffffffffffffffffffffffffffffffffffffffff1681526020018481526020018b6007811115611a73577f4e487b7100000000000000000000000000000000000000000000000000000000600052602160045260246000fd5b81526020016001151581526020018a6001811115611aba577f4e487b7100000000000000000000000000000000000000000000000000000000600052602160045260246000fd5b8152602001898152602001888152602001878152602001868152602001858152602001428152602001838152509050806000808d73ffffffffffffffffffffffffffffffffffffffff1673ffffffffffffffffffffffffffffffffffffffff16815260200190815260200160002060008201518160000160006101000a81548173ffffffffffffffffffffffffffffffffffffffff021916908373ffffffffffffffffffffffffffffffffffffffff1602179055506020820151816001019080519060200190611b8b92919061363d565b5060408201518160020160006101000a81548160ff02191690836007811115611bdd577f4e487b7100000000000000000000000000000000000000000000000000000000600052602160045260246000fd5b021790555060608201518160020160016101000a81548160ff02191690831515021790555060808201518160020160026101000a81548160ff02191690836001811115611c53577f4e487b7100000000000000000000000000000000000000000000000000000000600052602160045260246000fd5b021790555060a0820151816003019080519060200190611c7492919061363d565b5060c0820151816004019080519060200190611c9192919061363d565b5060e0820151816005019080519060200190611cae92919061363d565b50610100820151816006019080519060200190611ccc92919061363d565b50610120820151816007019080519060200190611cea92919061363d565b506101408201518160080155610160820151816009019080519060200190611d139291906136c3565b509050508a600184604051611d289190614272565b908152602001604051809103902060006101000a81548173ffffffffffffffffffffffffffffffffffffffff021916908373ffffffffffffffffffffffffffffffffffffffff160217905550600260008b6007811115611db1577f4e487b7100000000000000000000000000000000000000000000000000000000600052602160045260246000fd5b6007811115611de9577f4e487b7100000000000000000000000000000000000000000000000000000000600052602160045260246000fd5b81526020019081526020016000208b9080600181540180825580915050600190039060005260206000200160009091909190916101000a81548173ffffffffffffffffffffffffffffffffffffffff021916908373ffffffffffffffffffffffffffffffffffffffff160217905550600460008b6007811115611e95577f4e487b7100000000000000000000000000000000000000000000000000000000600052602160045260246000fd5b6007811115611ecd577f4e487b7100000000000000000000000000000000000000000000000000000000600052602160045260246000fd5b81526020019081526020016000206000815480929190611eec90614a81565b91905055508a73ffffffffffffffffffffffffffffffffffffffff167f02126c1304b8479b1fc45b552fab0a0d95404f21460d17c282c421e79d133af6848c8b42604051611f3d94939291906144d9565b60405180910390a25050505050505050505050565b600360003373ffffffffffffffffffffffffffffffffffffffff1673ffffffffffffffffffffffffffffffffffffffff16815260200190815260200160002060009054906101000a900460ff16611fde576040517f08c379a0000000000000000000000000000000000000000000000000000000008152600401611fd59061472f565b60405180910390fd5b81600073ffffffffffffffffffffffffffffffffffffffff166000808373ffffffffffffffffffffffffffffffffffffffff1673ffffffffffffffffffffffffffffffffffffffff16815260200190815260200160002060000160009054906101000a900473ffffffffffffffffffffffffffffffffffffffff1673ffffffffffffffffffffffffffffffffffffffff1614156120b0576040517f08c379a00000000000000000000000000000000000000000000000000000000081526004016120a79061460f565b60405180910390fd5b60008060008573ffffffffffffffffffffffffffffffffffffffff1673ffffffffffffffffffffffffffffffffffffffff168152602001908152602001600020905060008080600090505b83600901805490508110156121c3578573ffffffffffffffffffffffffffffffffffffffff1684600901828154811061215d577f4e487b7100000000000000000000000000000000000000000000000000000000600052603260045260246000fd5b9060005260206000200160009054906101000a900473ffffffffffffffffffffffffffffffffffffffff1673ffffffffffffffffffffffffffffffffffffffff1614156121b057809150600192506121c3565b80806121bb90614a81565b9150506120fb565b5081612204576040517f08c379a00000000000000000000000000000000000000000000000000000000081526004016121fb9061464f565b60405180910390fd5b60018360090180549050111561231357826009016001846009018054905061222c919061491d565b81548110612263577f4e487b7100000000000000000000000000000000000000000000000000000000600052603260045260246000fd5b9060005260206000200160009054906101000a900473ffffffffffffffffffffffffffffffffffffffff168360090182815481106122ca577f4e487b7100000000000000000000000000000000000000000000000000000000600052603260045260246000fd5b9060005260206000200160006101000a81548173ffffffffffffffffffffffffffffffffffffffff021916908373ffffffffffffffffffffffffffffffffffffffff1602179055505b8260090180548061234d577f4e487b7100000000000000000000000000000000000000000000000000000000600052603160045260246000fd5b6001900381819060005260206000200160006101000a81549073ffffffffffffffffffffffffffffffffffffffff021916905590558473ffffffffffffffffffffffffffffffffffffffff168673ffffffffffffffffffffffffffffffffffffffff167f0a00e0a3cc14d5ddfcb6bee211a913e407e30c57e5f82462764b0483c6f9b70d426040516123df919061478f565b60405180910390a3505050505050565b60006020528060005260406000206000915090508060000160009054906101000a900473ffffffffffffffffffffffffffffffffffffffff169080600101805461243890614a4f565b80601f016020809104026020016040519081016040528092919081815260200182805461246490614a4f565b80156124b15780601f10612486576101008083540402835291602001916124b1565b820191906000526020600020905b81548152906001019060200180831161249457829003601f168201915b5050505050908060020160009054906101000a900460ff16908060020160019054906101000a900460ff16908060020160029054906101000a900460ff16908060030180546124ff90614a4f565b80601f016020809104026020016040519081016040528092919081815260200182805461252b90614a4f565b80156125785780601f1061254d57610100808354040283529160200191612578565b820191906000526020600020905b81548152906001019060200180831161255b57829003601f168201915b50505050509080600401805461258d90614a4f565b80601f01602080910402602001604051908101604052809291908181526020018280546125b990614a4f565b80156126065780601f106125db57610100808354040283529160200191612606565b820191906000526020600020905b8154815290600101906020018083116125e957829003601f168201915b50505050509080600501805461261b90614a4f565b80601f016020809104026020016040519081016040528092919081815260200182805461264790614a4f565b80156126945780601f1061266957610100808354040283529160200191612694565b820191906000526020600020905b81548152906001019060200180831161267757829003601f168201915b5050505050908060060180546126a990614a4f565b80601f01602080910402602001604051908101604052809291908181526020018280546126d590614a4f565b80156127225780601f106126f757610100808354040283529160200191612722565b820191906000526020600020905b81548152906001019060200180831161270557829003601f168201915b50505050509080600701805461273790614a4f565b80601f016020809104026020016040519081016040528092919081815260200182805461276390614a4f565b80156127b05780601f10612785576101008083540402835291602001916127b0565b820191906000526020600020905b81548152906001019060200180831161279357829003601f168201915b505050505090806008015490508b565b60008073ffffffffffffffffffffffffffffffffffffffff166000808573ffffffffffffffffffffffffffffffffffffffff1673ffffffffffffffffffffffffffffffffffffffff16815260200190815260200160002060000160009054906101000a900473ffffffffffffffffffffffffffffffffffffffff1673ffffffffffffffffffffffffffffffffffffffff161415801561291c5750816007811115612893577f4e487b7100000000000000000000000000000000000000000000000000000000600052602160045260246000fd5b6000808573ffffffffffffffffffffffffffffffffffffffff1673ffffffffffffffffffffffffffffffffffffffff16815260200190815260200160002060020160009054906101000a900460ff16600781111561291a577f4e487b7100000000000000000000000000000000000000000000000000000000600052602160045260246000fd5b145b801561297357506000808473ffffffffffffffffffffffffffffffffffffffff1673ffffffffffffffffffffffffffffffffffffffff16815260200190815260200160002060020160019054906101000a900460ff165b905092915050565b606060008060006060806060806060600060608b600073ffffffffffffffffffffffffffffffffffffffff166000808373ffffffffffffffffffffffffffffffffffffffff1673ffffffffffffffffffffffffffffffffffffffff16815260200190815260200160002060000160009054906101000a900473ffffffffffffffffffffffffffffffffffffffff1673ffffffffffffffffffffffffffffffffffffffff161415612a60576040517f08c379a0000000000000000000000000000000000000000000000000000000008152600401612a579061460f565b60405180910390fd5b60008060008f73ffffffffffffffffffffffffffffffffffffffff1673ffffffffffffffffffffffffffffffffffffffff168152602001908152602001600020604051806101800160405290816000820160009054906101000a900473ffffffffffffffffffffffffffffffffffffffff1673ffffffffffffffffffffffffffffffffffffffff1673ffffffffffffffffffffffffffffffffffffffff168152602001600182018054612b1290614a4f565b80601f0160208091040260200160405190810160405280929190818152602001828054612b3e90614a4f565b8015612b8b5780601f10612b6057610100808354040283529160200191612b8b565b820191906000526020600020905b815481529060010190602001808311612b6e57829003601f168201915b505050505081526020016002820160009054906101000a900460ff166007811115612bdf577f4e487b7100000000000000000000000000000000000000000000000000000000600052602160045260246000fd5b6007811115612c17577f4e487b7100000000000000000000000000000000000000000000000000000000600052602160045260246000fd5b81526020016002820160019054906101000a900460ff161515151581526020016002820160029054906101000a900460ff166001811115612c81577f4e487b7100000000000000000000000000000000000000000000000000000000600052602160045260246000fd5b6001811115612cb9577f4e487b7100000000000000000000000000000000000000000000000000000000600052602160045260246000fd5b8152602001600382018054612ccd90614a4f565b80601f0160208091040260200160405190810160405280929190818152602001828054612cf990614a4f565b8015612d465780601f10612d1b57610100808354040283529160200191612d46565b820191906000526020600020905b815481529060010190602001808311612d2957829003601f168201915b50505050508152602001600482018054612d5f90614a4f565b80601f0160208091040260200160405190810160405280929190818152602001828054612d8b90614a4f565b8015612dd85780601f10612dad57610100808354040283529160200191612dd8565b820191906000526020600020905b815481529060010190602001808311612dbb57829003601f168201915b50505050508152602001600582018054612df190614a4f565b80601f0160208091040260200160405190810160405280929190818152602001828054612e1d90614a4f565b8015612e6a5780601f10612e3f57610100808354040283529160200191612e6a565b820191906000526020600020905b815481529060010190602001808311612e4d57829003601f168201915b50505050508152602001600682018054612e8390614a4f565b80601f0160208091040260200160405190810160405280929190818152602001828054612eaf90614a4f565b8015612efc5780601f10612ed157610100808354040283529160200191612efc565b820191906000526020600020905b815481529060010190602001808311612edf57829003601f168201915b50505050508152602001600782018054612f1590614a4f565b80601f0160208091040260200160405190810160405280929190818152602001828054612f4190614a4f565b8015612f8e5780601f10612f6357610100808354040283529160200191612f8e565b820191906000526020600020905b815481529060010190602001808311612f7157829003601f168201915b50505050508152602001600882015481526020016009820180548060200260200160405190810160405280929190818152602001828054801561302657602002820191906000526020600020905b8160009054906101000a900473ffffffffffffffffffffffffffffffffffffffff1673ffffffffffffffffffffffffffffffffffffffff1681526020019060010190808311612fdc575b505050505081525050905080602001518160400151826060015183608001518460a001518560c001518660e001518761010001518861012001518961014001518a61016001519c509c509c509c509c509c509c509c509c509c509c50505091939597999b90929496989a50565b60036020528060005260406000206000915054906101000a900460ff1681565b6001818051602081018201805184825260208301602085012081835280955050505050506000915054906101000a900473ffffffffffffffffffffffffffffffffffffffff1681565b600360003373ffffffffffffffffffffffffffffffffffffffff1673ffffffffffffffffffffffffffffffffffffffff16815260200190815260200160002060009054906101000a900460ff16613188576040517f08c379a000000000000000000000000000000000000000000000000000000000815260040161317f9061472f565b60405180910390fd5b600360008273ffffffffffffffffffffffffffffffffffffffff1673ffffffffffffffffffffffffffffffffffffffff16815260200190815260200160002060009054906101000a900460ff16613214576040517f08c379a000000000000000000000000000000000000000000000000000000000815260040161320b9061462f565b60405180910390fd5b3373ffffffffffffffffffffffffffffffffffffffff168173ffffffffffffffffffffffffffffffffffffffff161415613283576040517f08c379a000000000000000000000000000000000000000000000000000000000815260040161327a906145cf565b60405180910390fd5b6000600360008373ffffffffffffffffffffffffffffffffffffffff1673ffffffffffffffffffffffffffffffffffffffff16815260200190815260200160002060006101000a81548160ff0219169083151502179055508073ffffffffffffffffffffffffffffffffffffffff167ff95837395eacf6d5992d2f5190a4a12eafd812a4f58c5f80266353fee626e25042604051613321919061478f565b60405180910390a250565b606080600a6005541015613377576040518060400160405280600381526020017f3030300000000000000000000000000000000000000000000000000000000000815250905061341d565b606460055410156133bf576040518060400160405280600281526020017f3030000000000000000000000000000000000000000000000000000000000000815250905061341c565b6103e86005541015613408576040518060400160405280600181526020017f3000000000000000000000000000000000000000000000000000000000000000815250905061341b565b6040518060200160405280600081525090505b5b5b600061342a60055461348a565b90506005600081548092919061343f90614a81565b9190505550600061345c612710426134579190614aca565b61348a565b905080838360405160200161347393929190614289565b604051602081830303815290604052935050505090565b606060008214156134d2576040518060400160405280600181526020017f30000000000000000000000000000000000000000000000000000000000000008152509050613638565b600082905060005b600082146135045780806134ed90614a81565b915050600a826134fd91906148ec565b91506134da565b60008167ffffffffffffffff811115613546577f4e487b7100000000000000000000000000000000000000000000000000000000600052604160045260246000fd5b6040519080825280601f01601f1916602001820160405280156135785781602001600182028036833780820191505090505b50905060008290508593505b6000841461363057600a846135999190614aca565b60306135a59190614896565b60f81b82826135b390614a25565b925082815181106135ed577f4e487b7100000000000000000000000000000000000000000000000000000000600052603260045260246000fd5b60200101907effffffffffffffffffffffffffffffffffffffffffffffffffffffffffffff1916908160001a905350600a8461362991906148ec565b9350613584565b819450505050505b919050565b82805461364990614a4f565b90600052602060002090601f01602090048101928261366b57600085556136b2565b82601f1061368457805160ff19168380011785556136b2565b828001600101855582156136b2579182015b828111156136b1578251825591602001919060010190613696565b5b5090506136bf919061374d565b5090565b82805482825590600052602060002090810192821561373c579160200282015b8281111561373b5782518260006101000a81548173ffffffffffffffffffffffffffffffffffffffff021916908373ffffffffffffffffffffffffffffffffffffffff160217905550916020019190600101906136e3565b5b509050613749919061374d565b5090565b5b8082111561376657600081600090555060010161374e565b5090565b600061377d613778846147db565b6147aa565b90508281526020810184848401111561379557600080fd5b6137a08482856149e3565b509392505050565b6000813590506137b781614c1f565b92915050565b6000813590506137cc81614c36565b92915050565b6000813590506137e181614c46565b92915050565b600082601f8301126137f857600080fd5b813561380884826020860161376a565b91505092915050565b60008135905061382081614c56565b92915050565b60006020828403121561383857600080fd5b6000613846848285016137a8565b91505092915050565b6000806040838503121561386257600080fd5b6000613870858286016137a8565b9250506020613881858286016137a8565b9150509250929050565b6000806040838503121561389e57600080fd5b60006138ac858286016137a8565b92505060206138bd858286016137bd565b9150509250929050565b600080600080600080600080610100898b0312156138e457600080fd5b60006138f28b828c016137a8565b98505060206139038b828c016137bd565b97505060406139148b828c016137d2565b965050606089013567ffffffffffffffff81111561393157600080fd5b61393d8b828c016137e7565b955050608089013567ffffffffffffffff81111561395a57600080fd5b6139668b828c016137e7565b94505060a089013567ffffffffffffffff81111561398357600080fd5b61398f8b828c016137e7565b93505060c089013567ffffffffffffffff8111156139ac57600080fd5b6139b88b828c016137e7565b92505060e089013567ffffffffffffffff8111156139d557600080fd5b6139e18b828c016137e7565b9150509295985092959890939650565b60008060008060008060c08789031215613a0a57600080fd5b6000613a1889828a016137a8565b965050602087013567ffffffffffffffff811115613a3557600080fd5b613a4189828a016137e7565b955050604087013567ffffffffffffffff811115613a5e57600080fd5b613a6a89828a016137e7565b945050606087013567ffffffffffffffff811115613a8757600080fd5b613a9389828a016137e7565b935050608087013567ffffffffffffffff811115613ab057600080fd5b613abc89828a016137e7565b92505060a087013567ffffffffffffffff811115613ad957600080fd5b613ae589828a016137e7565b9150509295509295509295565b600060208284031215613b0457600080fd5b6000613b12848285016137bd565b91505092915050565b60008060408385031215613b2e57600080fd5b6000613b3c858286016137bd565b9250506020613b4d85828601613811565b9150509250929050565b600060208284031215613b6957600080fd5b600082013567ffffffffffffffff811115613b8357600080fd5b613b8f848285016137e7565b91505092915050565b6000613ba48383613bb0565b60208301905092915050565b613bb981614951565b82525050565b613bc881614951565b82525050565b6000613bd982614830565b613be3818561485e565b9350613bee8361480b565b8060005b83811015613c1f578151613c068882613b98565b9750613c1183614851565b925050600181019050613bf2565b5085935050505092915050565b613c3581614963565b82525050565b6000613c468261483b565b613c50818561486f565b9350613c608185602086016149f2565b80840191505092915050565b613c75816149bf565b82525050565b613c84816149d1565b82525050565b6000613c9582614846565b613c9f818561487a565b9350613caf8185602086016149f2565b613cb881614be6565b840191505092915050565b6000613cce82614846565b613cd8818561488b565b9350613ce88185602086016149f2565b80840191505092915050565b60008154613d0181614a4f565b613d0b818661487a565b94506001821660008114613d265760018114613d3857613d6b565b60ff1983168652602086019350613d6b565b613d418561481b565b60005b83811015613d6357815481890152600182019150602081019050613d44565b808801955050505b50505092915050565b6000613d8160118361487a565b91507f4163746575722064656a612061637469660000000000000000000000000000006000830152602082019050919050565b6000613dc160218361487a565b91507f496d706f737369626c65206465207365207265746972657220736f692d6d656d60008301527f65000000000000000000000000000000000000000000000000000000000000006020830152604082019050919050565b6000613e2760188361487a565b91507f494420426c6f636b636861696e20696e6578697374616e7400000000000000006000830152602082019050919050565b6000613e6760118361487a565b91507f41637465757220696e6578697374616e740000000000000000000000000000006000830152602082019050919050565b6000613ea760158361487a565b91507f50617320756e2061646d696e69737472617465757200000000000000000000006000830152602082019050919050565b6000613ee760128361487a565b91507f436f6e74726174206e6f6e2074726f75766500000000000000000000000000006000830152602082019050919050565b6000613f2760138361487a565b91507f44656a612061646d696e697374726174657572000000000000000000000000006000830152602082019050919050565b6000613f6760038361488b565b91507f4d472d00000000000000000000000000000000000000000000000000000000006000830152600382019050919050565b6000613fa760218361487a565b91507f41647265737365206427696d706c656d656e746174696f6e20696e76616c696460008301527f65000000000000000000000000000000000000000000000000000000000000006020830152604082019050919050565b600061400d60108361487a565b91507f4164726573736520696e76616c696465000000000000000000000000000000006000830152602082019050919050565b600061404d60148361487a565b91507f436f6e747261742064656a612064656c656775650000000000000000000000006000830152602082019050919050565b600061408d602b8361487a565b91507f4563686563206465206c61206d6973652061206a6f7572206465206c27696d7060008301527f6c656d656e746174696f6e0000000000000000000000000000000000000000006020830152604082019050919050565b60006140f3601b8361487a565b91507f4164726573736520646520636f6e7472617420696e76616c69646500000000006000830152602082019050919050565b600061413360018361488b565b91507f2d000000000000000000000000000000000000000000000000000000000000006000830152600182019050919050565b600061417360268361487a565b91507f4e6f6e206175746f726973653a207365756c656d656e742041646d696e69737460008301527f72617465757200000000000000000000000000000000000000000000000000006020830152604082019050919050565b60006141d960168361487a565b91507f4163746575722064656a6120656e7265676973747265000000000000000000006000830152602082019050919050565b6000614219600e8361487a565b91507f41637465757220696e61637469660000000000000000000000000000000000006000830152602082019050919050565b614255816149b5565b82525050565b60006142678284613c3b565b915081905092915050565b600061427e8284613cc3565b915081905092915050565b600061429482613f5a565b91506142a08286613cc3565b91506142ab82614126565b91506142b78285613cc3565b91506142c38284613cc3565b9150819050949350505050565b60006020820190506142e56000830184613bbf565b92915050565b600061016082019050614301600083018e613bbf565b8181036020830152614313818d613c8a565b9050614322604083018c613c6c565b61432f606083018b613c2c565b61433c608083018a613c7b565b81810360a083015261434e8189613c8a565b905081810360c08301526143628188613c8a565b905081810360e08301526143768187613c8a565b905081810361010083015261438b8186613c8a565b90508181036101208301526143a08185613c8a565b90506143b061014083018461424c565b9c9b505050505050505050505050565b600060208201905081810360008301526143da8184613bce565b905092915050565b60006020820190506143f76000830184613c2c565b92915050565b6000610160820190508181036000830152614418818e613c8a565b9050614427602083018d613c6c565b614434604083018c613c2c565b614441606083018b613c7b565b8181036080830152614453818a613c8a565b905081810360a08301526144678189613c8a565b905081810360c083015261447b8188613c8a565b905081810360e083015261448f8187613c8a565b90508181036101008301526144a48186613c8a565b90506144b461012083018561424c565b8181036101408301526144c78184613bce565b90509c9b505050505050505050505050565b600060808201905081810360008301526144f38187613c8a565b90506145026020830186613c6c565b81810360408301526145148185613c8a565b9050614523606083018461424c565b95945050505050565b600060808201905081810360008301526145468187613cf4565b90506145556020830186613c6c565b81810360408301526145678185613c8a565b9050614576606083018461424c565b95945050505050565b600060408201905081810360008301526145998185613cf4565b90506145a8602083018461424c565b9392505050565b600060208201905081810360008301526145c881613d74565b9050919050565b600060208201905081810360008301526145e881613db4565b9050919050565b6000602082019050818103600083015261460881613e1a565b9050919050565b6000602082019050818103600083015261462881613e5a565b9050919050565b6000602082019050818103600083015261464881613e9a565b9050919050565b6000602082019050818103600083015261466881613eda565b9050919050565b6000602082019050818103600083015261468881613f1a565b9050919050565b600060208201905081810360008301526146a881613f9a565b9050919050565b600060208201905081810360008301526146c881614000565b9050919050565b600060208201905081810360008301526146e881614040565b9050919050565b6000602082019050818103600083015261470881614080565b9050919050565b60006020820190508181036000830152614728816140e6565b9050919050565b6000602082019050818103600083015261474881614166565b9050919050565b60006020820190508181036000830152614768816141cc565b9050919050565b600060208201905081810360008301526147888161420c565b9050919050565b60006020820190506147a4600083018461424c565b92915050565b6000604051905081810181811067ffffffffffffffff821117156147d1576147d0614bb7565b5b8060405250919050565b600067ffffffffffffffff8211156147f6576147f5614bb7565b5b601f19601f8301169050602081019050919050565b6000819050602082019050919050565b60008190508160005260206000209050919050565b600081519050919050565b600081519050919050565b600081519050919050565b6000602082019050919050565b600082825260208201905092915050565b600081905092915050565b600082825260208201905092915050565b600081905092915050565b60006148a1826149b5565b91506148ac836149b5565b9250827fffffffffffffffffffffffffffffffffffffffffffffffffffffffffffffffff038211156148e1576148e0614afb565b5b828201905092915050565b60006148f7826149b5565b9150614902836149b5565b92508261491257614911614b2a565b5b828204905092915050565b6000614928826149b5565b9150614933836149b5565b92508282101561494657614945614afb565b5b828203905092915050565b600061495c82614995565b9050919050565b60008115159050919050565b600081905061497d82614bf7565b919050565b600081905061499082614c0b565b919050565b600073ffffffffffffffffffffffffffffffffffffffff82169050919050565b6000819050919050565b60006149ca8261496f565b9050919050565b60006149dc82614982565b9050919050565b82818337600083830152505050565b60005b83811015614a105780820151818401526020810190506149f5565b83811115614a1f576000848401525b50505050565b6000614a30826149b5565b91506000821415614a4457614a43614afb565b5b600182039050919050565b60006002820490506001821680614a6757607f821691505b60208210811415614a7b57614a7a614b88565b5b50919050565b6000614a8c826149b5565b91507fffffffffffffffffffffffffffffffffffffffffffffffffffffffffffffffff821415614abf57614abe614afb565b5b600182019050919050565b6000614ad5826149b5565b9150614ae0836149b5565b925082614af057614aef614b2a565b5b828206905092915050565b7f4e487b7100000000000000000000000000000000000000000000000000000000600052601160045260246000fd5b7f4e487b7100000000000000000000000000000000000000000000000000000000600052601260045260246000fd5b7f4e487b7100000000000000000000000000000000000000000000000000000000600052602160045260246000fd5b7f4e487b7100000000000000000000000000000000000000000000000000000000600052602260045260246000fd5b7f4e487b7100000000000000000000000000000000000000000000000000000000600052604160045260246000fd5b6000601f19601f8301169050919050565b60088110614c0857614c07614b59565b5b50565b60028110614c1c57614c1b614b59565b5b50565b614c2881614951565b8114614c3357600080fd5b50565b60088110614c4357600080fd5b50565b60028110614c5357600080fd5b50565b614c5f816149b5565b8114614c6a57600080fd5b5056fea2646970667358221220fa0790fdf18b52a27bfb8ac440a520538316718b8d9c5a4aff24fac740b3dcdf64736f6c63430008000033",
  "linkReferences": {},
  "deployedLinkReferences": {}
}