{
  "_format": "hh-sol-artifact-1",
  "contractName": "GestionnaireActeurs",
  "sourceName": "contracts/gestionnaireActeurs.sol",
  "abi": [
    {
      "inputs": [
        {
          "internalType": "address",
          "name": "_administrateurInitial",
          "type": "address"
        },
        {
          "internalType": "address",
          "name": "_proxyAddress",
          "type": "address"
        }
      ],
      "stateMutability": "nonpayable",
      "type": "constructor"
    },
    {
      "anonymous": false,
      "inputs": [
        {
          "indexed": true,
          "internalType": "address",
          "name": "adresse",
          "type": "address"
        },
        {
          "indexed": false,
          "internalType": "string",
          "name": "idBlockchain",
          "type": "string"
        },
        {
          "indexed": false,
          "internalType": "uint256",
          "name": "timestamp",
          "type": "uint256"
        }
      ],
      "name": "ActeurActive",
      "type": "event"
    },
    {
      "anonymous": false,
      "inputs": [
        {
          "indexed": true,
          "internalType": "address",
          "name": "adresse",
          "type": "address"
        },
        {
          "indexed": false,
          "internalType": "string",
          "name": "idBlockchain",
          "type": "string"
        },
        {
          "indexed": false,
          "internalType": "uint256",
          "name": "timestamp",
          "type": "uint256"
        }
      ],
      "name": "ActeurDesactive",
      "type": "event"
    },
    {
      "anonymous": false,
      "inputs": [
        {
          "indexed": true,
          "internalType": "address",
          "name": "adresse",
          "type": "address"
        },
        {
          "indexed": false,
          "internalType": "string",
          "name": "idBlockchain",
          "type": "string"
        },
        {
          "indexed": false,
          "internalType": "enum StructLib.Role",
          "name": "role",
          "type": "uint8"
        },
        {
          "indexed": false,
          "internalType": "string",
          "name": "nom",
          "type": "string"
        },
        {
          "indexed": false,
          "internalType": "uint256",
          "name": "timestamp",
          "type": "uint256"
        }
      ],
      "name": "ActeurEnregistre",
      "type": "event"
    },
    {
      "anonymous": false,
      "inputs": [
        {
          "indexed": true,
          "internalType": "address",
          "name": "adresse",
          "type": "address"
        },
        {
          "indexed": false,
          "internalType": "string",
          "name": "idBlockchain",
          "type": "string"
        },
        {
          "indexed": false,
          "internalType": "enum StructLib.Role",
          "name": "role",
          "type": "uint8"
        },
        {
          "indexed": false,
          "internalType": "string",
          "name": "nom",
          "type": "string"
        },
        {
          "indexed": false,
          "internalType": "uint256",
          "name": "timestamp",
          "type": "uint256"
        }
      ],
      "name": "ActeurModifie",
      "type": "event"
    },
    {
      "anonymous": false,
      "inputs": [
        {
          "indexed": true,
          "internalType": "address",
          "name": "admin",
          "type": "address"
        },
        {
          "indexed": false,
          "internalType": "uint256",
          "name": "timestamp",
          "type": "uint256"
        }
      ],
      "name": "AdministrateurAjoute",
      "type": "event"
    },
    {
      "anonymous": false,
      "inputs": [
        {
          "indexed": true,
          "internalType": "address",
          "name": "admin",
          "type": "address"
        },
        {
          "indexed": false,
          "internalType": "uint256",
          "name": "timestamp",
          "type": "uint256"
        }
      ],
      "name": "AdministrateurRetire",
      "type": "event"
    },
    {
      "anonymous": false,
      "inputs": [
        {
          "indexed": true,
          "internalType": "address",
          "name": "acteur",
          "type": "address"
        },
        {
          "indexed": true,
          "internalType": "address",
          "name": "contrat",
          "type": "address"
        },
        {
          "indexed": false,
          "internalType": "uint256",
          "name": "timestamp",
          "type": "uint256"
        }
      ],
      "name": "ContratDelegueAjoute",
      "type": "event"
    },
    {
      "anonymous": false,
      "inputs": [
        {
          "indexed": true,
          "internalType": "address",
          "name": "acteur",
          "type": "address"
        },
        {
          "indexed": true,
          "internalType": "address",
          "name": "contrat",
          "type": "address"
        },
        {
          "indexed": false,
          "internalType": "uint256",
          "name": "timestamp",
          "type": "uint256"
        }
      ],
      "name": "ContratDelegueRetire",
      "type": "event"
    },
    {
      "inputs": [
        {
          "internalType": "address",
          "name": "_acteur",
          "type": "address"
        },
        {
          "internalType": "address",
          "name": "_contrat",
          "type": "address"
        }
      ],
      "name": "aContratDelegue",
      "outputs": [
        {
          "internalType": "bool",
          "name": "",
          "type": "bool"
        }
      ],
      "stateMutability": "view",
      "type": "function"
    },
    {
      "inputs": [
        {
          "internalType": "address",
          "name": "",
          "type": "address"
        }
      ],
      "name": "acteurs",
      "outputs": [
        {
          "internalType": "address",
          "name": "adresse",
          "type": "address"
        },
        {
          "internalType": "string",
          "name": "idBlockchain",
          "type": "string"
        },
        {
          "internalType": "bool",
          "name": "actif",
          "type": "bool"
        },
        {
          "internalType": "enum GestionnaireActeurs.TypeEntite",
          "name": "typeEntite",
          "type": "uint8"
        },
        {
          "internalType": "string",
          "name": "nom",
          "type": "string"
        },
        {
          "internalType": "string",
          "name": "nifOuCin",
          "type": "string"
        },
        {
          "internalType": "string",
          "name": "adresseOfficielle",
          "type": "string"
        },
        {
          "internalType": "string",
          "name": "email",
          "type": "string"
        },
        {
          "internalType": "string",
          "name": "telephone",
          "type": "string"
        },
        {
          "internalType": "uint256",
          "name": "dateEnregistrement",
          "type": "uint256"
        }
      ],
      "stateMutability": "view",
      "type": "function"
    },
    {
      "inputs": [
        {
          "internalType": "enum StructLib.Role",
          "name": "",
          "type": "uint8"
        },
        {
          "internalType": "uint256",
          "name": "",
          "type": "uint256"
        }
      ],
      "name": "acteursByRole",
      "outputs": [
        {
          "internalType": "address",
          "name": "",
          "type": "address"
        }
      ],
      "stateMutability": "view",
      "type": "function"
    },
    {
      "inputs": [
        {
          "internalType": "address",
          "name": "_adresse",
          "type": "address"
        }
      ],
      "name": "activerActeur",
      "outputs": [],
      "stateMutability": "nonpayable",
      "type": "function"
    },
    {
      "inputs": [
        {
          "internalType": "address",
          "name": "",
          "type": "address"
        }
      ],
      "name": "administrateurs",
      "outputs": [
        {
          "internalType": "bool",
          "name": "",
          "type": "bool"
        }
      ],
      "stateMutability": "view",
      "type": "function"
    },
    {
      "inputs": [
        {
          "internalType": "address",
          "name": "_nouvelAdmin",
          "type": "address"
        }
      ],
      "name": "ajouterAdministrateur",
      "outputs": [],
      "stateMutability": "nonpayable",
      "type": "function"
    },
    {
      "inputs": [
        {
          "internalType": "address",
          "name": "_acteur",
          "type": "address"
        },
        {
          "internalType": "address",
          "name": "_contratDelegue",
          "type": "address"
        }
      ],
      "name": "ajouterContratDelegue",
      "outputs": [],
      "stateMutability": "nonpayable",
      "type": "function"
    },
    {
      "inputs": [
        {
          "internalType": "address",
          "name": "_adresse",
          "type": "address"
        },
        {
          "internalType": "enum StructLib.Role",
          "name": "_role",
          "type": "uint8"
        }
      ],
      "name": "ajouterRole",
      "outputs": [],
      "stateMutability": "nonpayable",
      "type": "function"
    },
    {
      "inputs": [
        {
          "internalType": "enum StructLib.Role",
          "name": "",
          "type": "uint8"
        }
      ],
      "name": "compteurActeurs",
      "outputs": [
        {
          "internalType": "uint256",
          "name": "",
          "type": "uint256"
        }
      ],
      "stateMutability": "view",
      "type": "function"
    },
    {
      "inputs": [
        {
          "internalType": "address",
          "name": "_adresse",
          "type": "address"
        }
      ],
      "name": "desactiverActeur",
      "outputs": [],
      "stateMutability": "nonpayable",
      "type": "function"
    },
    {
      "inputs": [
        {
          "internalType": "address",
          "name": "_adresse",
          "type": "address"
        },
        {
          "internalType": "enum StructLib.Role",
          "name": "_role",
          "type": "uint8"
        },
        {
          "internalType": "enum GestionnaireActeurs.TypeEntite",
          "name": "_typeEntite",
          "type": "uint8"
        },
        {
          "internalType": "string",
          "name": "_nom",
          "type": "string"
        },
        {
          "internalType": "string",
          "name": "_nifOuCin",
          "type": "string"
        },
        {
          "internalType": "string",
          "name": "_adresseOfficielle",
          "type": "string"
        },
        {
          "internalType": "string",
          "name": "_email",
          "type": "string"
        },
        {
          "internalType": "string",
          "name": "_telephone",
          "type": "string"
        }
      ],
      "name": "enregistrerActeur",
      "outputs": [],
      "stateMutability": "nonpayable",
      "type": "function"
    },
    {
      "inputs": [
        {
          "internalType": "address",
          "name": "_adresse",
          "type": "address"
        },
        {
          "internalType": "enum StructLib.Role",
          "name": "_role",
          "type": "uint8"
        }
      ],
      "name": "estActeurAvecRole",
      "outputs": [
        {
          "internalType": "bool",
          "name": "",
          "type": "bool"
        }
      ],
      "stateMutability": "view",
      "type": "function"
    },
    {
      "inputs": [
        {
          "internalType": "enum StructLib.Role",
          "name": "_role",
          "type": "uint8"
        }
      ],
      "name": "getActeursByRole",
      "outputs": [
        {
          "internalType": "address[]",
          "name": "",
          "type": "address[]"
        }
      ],
      "stateMutability": "view",
      "type": "function"
    },
    {
      "inputs": [
        {
          "internalType": "string",
          "name": "_idBlockchain",
          "type": "string"
        }
      ],
      "name": "getAdresseParIdBlockchain",
      "outputs": [
        {
          "internalType": "address",
          "name": "",
          "type": "address"
        }
      ],
      "stateMutability": "view",
      "type": "function"
    },
    {
      "inputs": [
        {
          "internalType": "address",
          "name": "_adresse",
          "type": "address"
        }
      ],
      "name": "getDetailsActeur",
      "outputs": [
        {
          "internalType": "string",
          "name": "idBlockchain",
          "type": "string"
        },
        {
          "internalType": "enum StructLib.Role[]",
          "name": "roles",
          "type": "uint8[]"
        },
        {
          "internalType": "bool",
          "name": "actif",
          "type": "bool"
        },
        {
          "internalType": "enum GestionnaireActeurs.TypeEntite",
          "name": "typeEntite",
          "type": "uint8"
        },
        {
          "internalType": "string",
          "name": "nom",
          "type": "string"
        },
        {
          "internalType": "string",
          "name": "nifOuCin",
          "type": "string"
        },
        {
          "internalType": "string",
          "name": "adresseOfficielle",
          "type": "string"
        },
        {
          "internalType": "string",
          "name": "email",
          "type": "string"
        },
        {
          "internalType": "string",
          "name": "telephone",
          "type": "string"
        },
        {
          "internalType": "uint256",
          "name": "dateEnregistrement",
          "type": "uint256"
        },
        {
          "internalType": "address[]",
          "name": "contratsDelegues",
          "type": "address[]"
        }
      ],
      "stateMutability": "view",
      "type": "function"
    },
    {
      "inputs": [
        {
          "internalType": "address",
          "name": "_adresse",
          "type": "address"
        }
      ],
      "name": "getRoles",
      "outputs": [
        {
          "internalType": "enum StructLib.Role[]",
          "name": "",
          "type": "uint8[]"
        }
      ],
      "stateMutability": "view",
      "type": "function"
    },
    {
      "inputs": [
        {
          "internalType": "string",
          "name": "",
          "type": "string"
        }
      ],
      "name": "idBlockchainToAddress",
      "outputs": [
        {
          "internalType": "address",
          "name": "",
          "type": "address"
        }
      ],
      "stateMutability": "view",
      "type": "function"
    },
    {
      "inputs": [],
      "name": "implementation",
      "outputs": [
        {
          "internalType": "address",
          "name": "",
          "type": "address"
        }
      ],
      "stateMutability": "view",
      "type": "function"
    },
    {
      "inputs": [
        {
          "internalType": "address",
          "name": "_nouvelleImplementation",
          "type": "address"
        }
      ],
      "name": "mettreAJourImplementation",
      "outputs": [],
      "stateMutability": "nonpayable",
      "type": "function"
    },
    {
      "inputs": [
        {
          "internalType": "address",
          "name": "_adresse",
          "type": "address"
        },
        {
          "internalType": "string",
          "name": "_nom",
          "type": "string"
        },
        {
          "internalType": "string",
          "name": "_nifOuCin",
          "type": "string"
        },
        {
          "internalType": "string",
          "name": "_adresseOfficielle",
          "type": "string"
        },
        {
          "internalType": "string",
          "name": "_email",
          "type": "string"
        },
        {
          "internalType": "string",
          "name": "_telephone",
          "type": "string"
        }
      ],
      "name": "modifierActeur",
      "outputs": [],
      "stateMutability": "nonpayable",
      "type": "function"
    },
    {
      "inputs": [],
      "name": "proxyAddress",
      "outputs": [
        {
          "internalType": "address",
          "name": "",
          "type": "address"
        }
      ],
      "stateMutability": "view",
      "type": "function"
    },
    {
      "inputs": [
        {
          "internalType": "address",
          "name": "_admin",
          "type": "address"
        }
      ],
      "name": "retirerAdministrateur",
      "outputs": [],
      "stateMutability": "nonpayable",
      "type": "function"
    },
    {
      "inputs": [
        {
          "internalType": "address",
          "name": "_acteur",
          "type": "address"
        },
        {
          "internalType": "address",
          "name": "_contratDelegue",
          "type": "address"
        }
      ],
      "name": "retirerContratDelegue",
      "outputs": [],
      "stateMutability": "nonpayable",
      "type": "function"
    }
  ],
  "bytecode": "0x60806040523480156200001157600080fd5b50604051620056db380380620056db8339818101604052810190620000379190620001ba565b600073ffffffffffffffffffffffffffffffffffffffff168273ffffffffffffffffffffffffffffffffffffffff161415620000aa576040517f08c379a0000000000000000000000000000000000000000000000000000000008152600401620000a1906200024e565b60405180910390fd5b6001600360008473ffffffffffffffffffffffffffffffffffffffff1673ffffffffffffffffffffffffffffffffffffffff16815260200190815260200160002060006101000a81548160ff02191690831515021790555080600660006101000a81548173ffffffffffffffffffffffffffffffffffffffff021916908373ffffffffffffffffffffffffffffffffffffffff16021790555060016005819055508173ffffffffffffffffffffffffffffffffffffffff167fcc1e97308fa2b0543caeb7083fb688f2af3e98b4e68e195368dca5788be1441f4260405162000193919062000270565b60405180910390a25050620002f6565b600081519050620001b481620002dc565b92915050565b60008060408385031215620001ce57600080fd5b6000620001de85828601620001a3565b9250506020620001f185828601620001a3565b9150509250929050565b60006200020a601f836200028d565b91507f416472657373652061646d696e69737472617465757220696e76616c696465006000830152602082019050919050565b6200024881620002d2565b82525050565b600060208201905081810360008301526200026981620001fb565b9050919050565b60006020820190506200028760008301846200023d565b92915050565b600082825260208201905092915050565b6000620002ab82620002b2565b9050919050565b600073ffffffffffffffffffffffffffffffffffffffff82169050919050565b6000819050919050565b620002e7816200029e565b8114620002f357600080fd5b50565b6153d580620003066000396000f3fe608060405234801561001057600080fd5b506004361061014d5760003560e01c80638aa1c59e116100c3578063d1e47bb31161007c578063d1e47bb3146103c7578063d2df06d7146103f7578063dad30b5314610431578063e947716a1461044d578063e9a400ce1461047d578063ef078662146104ad5761014d565b80638aa1c59e146102da5780639f7d7f45146102f6578063c6ccf6e014610326578063ce6ccfaf14610342578063d0e7643614610372578063d1aa5bbe1461038e5761014d565b806339f9d9401161011557806339f9d940146101f4578063567e81f1146102245780635c60da1b1461025457806376d9031b146102725780637e101d7a146102a25780637e1d381b146102be5761014d565b80631ffd1b491461015257806323f5c02d1461018257806327389e16146101a05780632bda45d1146101bc57806338afc3c3146101d8575b600080fd5b61016c60048036038101906101679190614115565b6104c9565b604051610179919061498f565b60405180910390f35b61018a610517565b604051610197919061498f565b60405180910390f35b6101ba60048036038101906101b59190613e20565b61053d565b005b6101d660048036038101906101d19190613e49565b6107da565b005b6101f260048036038101906101ed9190613feb565b610c45565b005b61020e600480360381019061020991906140ec565b610f1f565b60405161021b9190614a70565b60405180910390f35b61023e60048036038101906102399190614151565b611030565b60405161024b919061498f565b60405180910390f35b61025c6110ed565b604051610269919061498f565b60405180910390f35b61028c600480360381019061028791906140ec565b611113565b6040516102999190614e88565b60405180910390f35b6102bc60048036038101906102b79190613e20565b61112b565b005b6102d860048036038101906102d39190613e20565b61135d565b005b6102f460048036038101906102ef9190613e20565b611602565b005b610310600480360381019061030b9190613e49565b6118a6565b60405161031d9190614ab4565b60405180910390f35b610340600480360381019061033b9190613ec1565b611a1c565b005b61035c60048036038101906103579190613e20565b6120db565b6040516103699190614a92565b60405180910390f35b61038c60048036038101906103879190613e49565b6121cf565b005b6103a860048036038101906103a39190613e20565b61266c565b6040516103be9a999897969594939291906149aa565b60405180910390f35b6103e160048036038101906103dc9190613e85565b612a2a565b6040516103ee9190614ab4565b60405180910390f35b610411600480360381019061040c9190613e20565b612bf4565b6040516104289b9a99989796959493929190614acf565b60405180910390f35b61044b60048036038101906104469190613e85565b613207565b005b61046760048036038101906104629190613e20565b613717565b6040516104749190614ab4565b60405180910390f35b61049760048036038101906104929190614151565b613737565b6040516104a4919061498f565b60405180910390f35b6104c760048036038101906104c29190613e20565b613780565b005b600260205281600052604060002081815481106104e557600080fd5b906000526020600020016000915091509054906101000a900473ffffffffffffffffffffffffffffffffffffffff1681565b600660009054906101000a900473ffffffffffffffffffffffffffffffffffffffff1681565b600360003373ffffffffffffffffffffffffffffffffffffffff1673ffffffffffffffffffffffffffffffffffffffff16815260200190815260200160002060009054906101000a900460ff166105c9576040517f08c379a00000000000000000000000000000000000000000000000000000000081526004016105c090614e28565b60405180910390fd5b600073ffffffffffffffffffffffffffffffffffffffff168173ffffffffffffffffffffffffffffffffffffffff161415610639576040517f08c379a000000000000000000000000000000000000000000000000000000000815260040161063090614d68565b60405180910390fd5b6000600660009054906101000a900473ffffffffffffffffffffffffffffffffffffffff1673ffffffffffffffffffffffffffffffffffffffff1682604051602401610685919061498f565b6040516020818303038152906040527f025b22bc000000000000000000000000000000000000000000000000000000007bffffffffffffffffffffffffffffffffffffffffffffffffffffffff19166020820180517bffffffffffffffffffffffffffffffffffffffffffffffffffffffff838183161783525050505060405161070f919061491a565b6000604051808303816000865af19150503d806000811461074c576040519150601f19603f3d011682016040523d82523d6000602084013e610751565b606091505b5050905080610795576040517f08c379a000000000000000000000000000000000000000000000000000000000815260040161078c90614dc8565b60405180910390fd5b81600760006101000a81548173ffffffffffffffffffffffffffffffffffffffff021916908373ffffffffffffffffffffffffffffffffffffffff1602179055505050565b600360003373ffffffffffffffffffffffffffffffffffffffff1673ffffffffffffffffffffffffffffffffffffffff16815260200190815260200160002060009054906101000a900460ff16610866576040517f08c379a000000000000000000000000000000000000000000000000000000000815260040161085d90614e28565b60405180910390fd5b81600073ffffffffffffffffffffffffffffffffffffffff166000808373ffffffffffffffffffffffffffffffffffffffff1673ffffffffffffffffffffffffffffffffffffffff16815260200190815260200160002060000160009054906101000a900473ffffffffffffffffffffffffffffffffffffffff1673ffffffffffffffffffffffffffffffffffffffff161415610938576040517f08c379a000000000000000000000000000000000000000000000000000000000815260040161092f90614ce8565b60405180910390fd5b826000808273ffffffffffffffffffffffffffffffffffffffff1673ffffffffffffffffffffffffffffffffffffffff16815260200190815260200160002060040160009054906101000a900460ff166109c7576040517f08c379a00000000000000000000000000000000000000000000000000000000081526004016109be90614e68565b60405180910390fd5b600073ffffffffffffffffffffffffffffffffffffffff168373ffffffffffffffffffffffffffffffffffffffff161415610a37576040517f08c379a0000000000000000000000000000000000000000000000000000000008152600401610a2e90614de8565b60405180910390fd5b60008060008673ffffffffffffffffffffffffffffffffffffffff1673ffffffffffffffffffffffffffffffffffffffff168152602001908152602001600020905060005b81600b0180549050811015610b73578473ffffffffffffffffffffffffffffffffffffffff1682600b018281548110610ade577f4e487b7100000000000000000000000000000000000000000000000000000000600052603260045260246000fd5b9060005260206000200160009054906101000a900473ffffffffffffffffffffffffffffffffffffffff1673ffffffffffffffffffffffffffffffffffffffff161415610b60576040517f08c379a0000000000000000000000000000000000000000000000000000000008152600401610b5790614da8565b60405180910390fd5b8080610b6b906151b3565b915050610a7c565b5080600b01849080600181540180825580915050600190039060005260206000200160009091909190916101000a81548173ffffffffffffffffffffffffffffffffffffffff021916908373ffffffffffffffffffffffffffffffffffffffff1602179055508373ffffffffffffffffffffffffffffffffffffffff168573ffffffffffffffffffffffffffffffffffffffff167fa3a595aed0b25dafaec56a254012fef39417d4f3bf42eb17714cc06f345bd62442604051610c369190614e88565b60405180910390a35050505050565b600360003373ffffffffffffffffffffffffffffffffffffffff1673ffffffffffffffffffffffffffffffffffffffff16815260200190815260200160002060009054906101000a900460ff16610cd1576040517f08c379a0000000000000000000000000000000000000000000000000000000008152600401610cc890614e28565b60405180910390fd5b85600073ffffffffffffffffffffffffffffffffffffffff166000808373ffffffffffffffffffffffffffffffffffffffff1673ffffffffffffffffffffffffffffffffffffffff16815260200190815260200160002060000160009054906101000a900473ffffffffffffffffffffffffffffffffffffffff1673ffffffffffffffffffffffffffffffffffffffff161415610da3576040517f08c379a0000000000000000000000000000000000000000000000000000000008152600401610d9a90614ce8565b60405180910390fd5b60008060008973ffffffffffffffffffffffffffffffffffffffff1673ffffffffffffffffffffffffffffffffffffffff168152602001908152602001600020905086816005019080519060200190610dfd929190613cc1565b5085816006019080519060200190610e16929190613cc1565b5084816007019080519060200190610e2f929190613cc1565b5083816008019080519060200190610e48929190613cc1565b5082816009019080519060200190610e61929190613cc1565b508773ffffffffffffffffffffffffffffffffffffffff167fb79cd79f93ef69d4786df1569ae504f4e805eb9c5342c4d4f625d5519722cda98260010183600201600081548110610edb577f4e487b7100000000000000000000000000000000000000000000000000000000600052603260045260246000fd5b90600052602060002090602091828204019190069054906101000a900460ff168a42604051610f0d9493929190614c05565b60405180910390a25050505050505050565b606060026000836007811115610f5e577f4e487b7100000000000000000000000000000000000000000000000000000000600052602160045260246000fd5b6007811115610f96577f4e487b7100000000000000000000000000000000000000000000000000000000600052602160045260246000fd5b815260200190815260200160002080548060200260200160405190810160405280929190818152602001828054801561102457602002820191906000526020600020905b8160009054906101000a900473ffffffffffffffffffffffffffffffffffffffff1673ffffffffffffffffffffffffffffffffffffffff1681526020019060010190808311610fda575b50505050509050919050565b6000806001836040516110439190614931565b908152602001604051809103902060009054906101000a900473ffffffffffffffffffffffffffffffffffffffff169050600073ffffffffffffffffffffffffffffffffffffffff168173ffffffffffffffffffffffffffffffffffffffff1614156110e4576040517f08c379a00000000000000000000000000000000000000000000000000000000081526004016110db90614cc8565b60405180910390fd5b80915050919050565b600760009054906101000a900473ffffffffffffffffffffffffffffffffffffffff1681565b60046020528060005260406000206000915090505481565b600360003373ffffffffffffffffffffffffffffffffffffffff1673ffffffffffffffffffffffffffffffffffffffff16815260200190815260200160002060009054906101000a900460ff166111b7576040517f08c379a00000000000000000000000000000000000000000000000000000000081526004016111ae90614e28565b60405180910390fd5b600073ffffffffffffffffffffffffffffffffffffffff168173ffffffffffffffffffffffffffffffffffffffff161415611227576040517f08c379a000000000000000000000000000000000000000000000000000000000815260040161121e90614d88565b60405180910390fd5b600360008273ffffffffffffffffffffffffffffffffffffffff1673ffffffffffffffffffffffffffffffffffffffff16815260200190815260200160002060009054906101000a900460ff16156112b4576040517f08c379a00000000000000000000000000000000000000000000000000000000081526004016112ab90614d48565b60405180910390fd5b6001600360008373ffffffffffffffffffffffffffffffffffffffff1673ffffffffffffffffffffffffffffffffffffffff16815260200190815260200160002060006101000a81548160ff0219169083151502179055508073ffffffffffffffffffffffffffffffffffffffff167fcc1e97308fa2b0543caeb7083fb688f2af3e98b4e68e195368dca5788be1441f426040516113529190614e88565b60405180910390a250565b600360003373ffffffffffffffffffffffffffffffffffffffff1673ffffffffffffffffffffffffffffffffffffffff16815260200190815260200160002060009054906101000a900460ff166113e9576040517f08c379a00000000000000000000000000000000000000000000000000000000081526004016113e090614e28565b60405180910390fd5b80600073ffffffffffffffffffffffffffffffffffffffff166000808373ffffffffffffffffffffffffffffffffffffffff1673ffffffffffffffffffffffffffffffffffffffff16815260200190815260200160002060000160009054906101000a900473ffffffffffffffffffffffffffffffffffffffff1673ffffffffffffffffffffffffffffffffffffffff1614156114bb576040517f08c379a00000000000000000000000000000000000000000000000000000000081526004016114b290614ce8565b60405180910390fd5b816000808273ffffffffffffffffffffffffffffffffffffffff1673ffffffffffffffffffffffffffffffffffffffff16815260200190815260200160002060040160009054906101000a900460ff1661154a576040517f08c379a000000000000000000000000000000000000000000000000000000000815260040161154190614e68565b60405180910390fd5b60008060008573ffffffffffffffffffffffffffffffffffffffff1673ffffffffffffffffffffffffffffffffffffffff168152602001908152602001600020905060008160040160006101000a81548160ff0219169083151502179055508373ffffffffffffffffffffffffffffffffffffffff167fb9b44c1c6c99fcb54c8570f6dc3cdebb0d0d49eadfdf6bae7687d629797fc54982600101426040516115f4929190614c58565b60405180910390a250505050565b600360003373ffffffffffffffffffffffffffffffffffffffff1673ffffffffffffffffffffffffffffffffffffffff16815260200190815260200160002060009054906101000a900460ff1661168e576040517f08c379a000000000000000000000000000000000000000000000000000000000815260040161168590614e28565b60405180910390fd5b80600073ffffffffffffffffffffffffffffffffffffffff166000808373ffffffffffffffffffffffffffffffffffffffff1673ffffffffffffffffffffffffffffffffffffffff16815260200190815260200160002060000160009054906101000a900473ffffffffffffffffffffffffffffffffffffffff1673ffffffffffffffffffffffffffffffffffffffff161415611760576040517f08c379a000000000000000000000000000000000000000000000000000000000815260040161175790614ce8565b60405180910390fd5b6000808373ffffffffffffffffffffffffffffffffffffffff1673ffffffffffffffffffffffffffffffffffffffff16815260200190815260200160002060040160009054906101000a900460ff16156117ef576040517f08c379a00000000000000000000000000000000000000000000000000000000081526004016117e690614c88565b60405180910390fd5b60008060008473ffffffffffffffffffffffffffffffffffffffff1673ffffffffffffffffffffffffffffffffffffffff168152602001908152602001600020905060018160040160006101000a81548160ff0219169083151502179055508273ffffffffffffffffffffffffffffffffffffffff167fdb57de69946a4bd804c67adc0c929a6c314c2631e8f0f3178c907ab551098b858260010142604051611899929190614c58565b60405180910390a2505050565b6000806000808573ffffffffffffffffffffffffffffffffffffffff1673ffffffffffffffffffffffffffffffffffffffff168152602001908152602001600020600b0180548060200260200160405190810160405280929190818152602001828054801561196a57602002820191906000526020600020905b8160009054906101000a900473ffffffffffffffffffffffffffffffffffffffff1673ffffffffffffffffffffffffffffffffffffffff1681526020019060010190808311611920575b5050505050905060005b8151811015611a0f578373ffffffffffffffffffffffffffffffffffffffff168282815181106119cd577f4e487b7100000000000000000000000000000000000000000000000000000000600052603260045260246000fd5b602002602001015173ffffffffffffffffffffffffffffffffffffffff1614156119fc57600192505050611a16565b8080611a07906151b3565b915050611974565b5060009150505b92915050565b600360003373ffffffffffffffffffffffffffffffffffffffff1673ffffffffffffffffffffffffffffffffffffffff16815260200190815260200160002060009054906101000a900460ff16611aa8576040517f08c379a0000000000000000000000000000000000000000000000000000000008152600401611a9f90614e28565b60405180910390fd5b600073ffffffffffffffffffffffffffffffffffffffff168873ffffffffffffffffffffffffffffffffffffffff161415611b18576040517f08c379a0000000000000000000000000000000000000000000000000000000008152600401611b0f90614d88565b60405180910390fd5b600073ffffffffffffffffffffffffffffffffffffffff166000808a73ffffffffffffffffffffffffffffffffffffffff1673ffffffffffffffffffffffffffffffffffffffff16815260200190815260200160002060000160009054906101000a900473ffffffffffffffffffffffffffffffffffffffff1673ffffffffffffffffffffffffffffffffffffffff1614611be8576040517f08c379a0000000000000000000000000000000000000000000000000000000008152600401611bdf90614e48565b60405180910390fd5b6000611bf26139b0565b905060008060008b73ffffffffffffffffffffffffffffffffffffffff1673ffffffffffffffffffffffffffffffffffffffff1681526020019081526020016000209050898160000160006101000a81548173ffffffffffffffffffffffffffffffffffffffff021916908373ffffffffffffffffffffffffffffffffffffffff16021790555081816001019080519060200190611c91929190613cc1565b5060018160040160006101000a81548160ff021916908315150217905550878160040160016101000a81548160ff02191690836001811115611cfc577f4e487b7100000000000000000000000000000000000000000000000000000000600052602160045260246000fd5b021790555086816005019080519060200190611d19929190613cc1565b5085816006019080519060200190611d32929190613cc1565b5084816007019080519060200190611d4b929190613cc1565b5083816008019080519060200190611d64929190613cc1565b5082816009019080519060200190611d7d929190613cc1565b504281600a0181905550806002018990806001815401808255809150506001900390600052602060002090602091828204019190069091909190916101000a81548160ff02191690836007811115611dfe577f4e487b7100000000000000000000000000000000000000000000000000000000600052602160045260246000fd5b021790555060018160030160008b6007811115611e44577f4e487b7100000000000000000000000000000000000000000000000000000000600052602160045260246000fd5b6007811115611e7c577f4e487b7100000000000000000000000000000000000000000000000000000000600052602160045260246000fd5b815260200190815260200160002060006101000a81548160ff02191690831515021790555089600183604051611eb29190614931565b908152602001604051809103902060006101000a81548173ffffffffffffffffffffffffffffffffffffffff021916908373ffffffffffffffffffffffffffffffffffffffff160217905550600260008a6007811115611f3b577f4e487b7100000000000000000000000000000000000000000000000000000000600052602160045260246000fd5b6007811115611f73577f4e487b7100000000000000000000000000000000000000000000000000000000600052602160045260246000fd5b81526020019081526020016000208a9080600181540180825580915050600190039060005260206000200160009091909190916101000a81548173ffffffffffffffffffffffffffffffffffffffff021916908373ffffffffffffffffffffffffffffffffffffffff160217905550600460008a600781111561201f577f4e487b7100000000000000000000000000000000000000000000000000000000600052602160045260246000fd5b6007811115612057577f4e487b7100000000000000000000000000000000000000000000000000000000600052602160045260246000fd5b81526020019081526020016000206000815480929190612076906151b3565b91905055508973ffffffffffffffffffffffffffffffffffffffff167f02126c1304b8479b1fc45b552fab0a0d95404f21460d17c282c421e79d133af6838b8a426040516120c79493929190614bb2565b60405180910390a250505050505050505050565b60606000808373ffffffffffffffffffffffffffffffffffffffff1673ffffffffffffffffffffffffffffffffffffffff1681526020019081526020016000206002018054806020026020016040519081016040528092919081815260200182805480156121c357602002820191906000526020600020906000905b82829054906101000a900460ff16600781111561219d577f4e487b7100000000000000000000000000000000000000000000000000000000600052602160045260246000fd5b815260200190600101906020826000010492830192600103820291508084116121575790505b50505050509050919050565b600360003373ffffffffffffffffffffffffffffffffffffffff1673ffffffffffffffffffffffffffffffffffffffff16815260200190815260200160002060009054906101000a900460ff1661225b576040517f08c379a000000000000000000000000000000000000000000000000000000000815260040161225290614e28565b60405180910390fd5b81600073ffffffffffffffffffffffffffffffffffffffff166000808373ffffffffffffffffffffffffffffffffffffffff1673ffffffffffffffffffffffffffffffffffffffff16815260200190815260200160002060000160009054906101000a900473ffffffffffffffffffffffffffffffffffffffff1673ffffffffffffffffffffffffffffffffffffffff16141561232d576040517f08c379a000000000000000000000000000000000000000000000000000000000815260040161232490614ce8565b60405180910390fd5b60008060008573ffffffffffffffffffffffffffffffffffffffff1673ffffffffffffffffffffffffffffffffffffffff168152602001908152602001600020905060008080600090505b83600b0180549050811015612440578573ffffffffffffffffffffffffffffffffffffffff1684600b0182815481106123da577f4e487b7100000000000000000000000000000000000000000000000000000000600052603260045260246000fd5b9060005260206000200160009054906101000a900473ffffffffffffffffffffffffffffffffffffffff1673ffffffffffffffffffffffffffffffffffffffff16141561242d5780915060019250612440565b8080612438906151b3565b915050612378565b5081612481576040517f08c379a000000000000000000000000000000000000000000000000000000000815260040161247890614d28565b60405180910390fd5b600183600b018054905011156125905782600b01600184600b01805490506124a9919061504f565b815481106124e0577f4e487b7100000000000000000000000000000000000000000000000000000000600052603260045260246000fd5b9060005260206000200160009054906101000a900473ffffffffffffffffffffffffffffffffffffffff1683600b018281548110612547577f4e487b7100000000000000000000000000000000000000000000000000000000600052603260045260246000fd5b9060005260206000200160006101000a81548173ffffffffffffffffffffffffffffffffffffffff021916908373ffffffffffffffffffffffffffffffffffffffff1602179055505b82600b018054806125ca577f4e487b7100000000000000000000000000000000000000000000000000000000600052603160045260246000fd5b6001900381819060005260206000200160006101000a81549073ffffffffffffffffffffffffffffffffffffffff021916905590558473ffffffffffffffffffffffffffffffffffffffff168673ffffffffffffffffffffffffffffffffffffffff167f0a00e0a3cc14d5ddfcb6bee211a913e407e30c57e5f82462764b0483c6f9b70d4260405161265c9190614e88565b60405180910390a3505050505050565b60006020528060005260406000206000915090508060000160009054906101000a900473ffffffffffffffffffffffffffffffffffffffff16908060010180546126b590615181565b80601f01602080910402602001604051908101604052809291908181526020018280546126e190615181565b801561272e5780601f106127035761010080835404028352916020019161272e565b820191906000526020600020905b81548152906001019060200180831161271157829003601f168201915b5050505050908060040160009054906101000a900460ff16908060040160019054906101000a900460ff169080600501805461276990615181565b80601f016020809104026020016040519081016040528092919081815260200182805461279590615181565b80156127e25780601f106127b7576101008083540402835291602001916127e2565b820191906000526020600020905b8154815290600101906020018083116127c557829003601f168201915b5050505050908060060180546127f790615181565b80601f016020809104026020016040519081016040528092919081815260200182805461282390615181565b80156128705780601f1061284557610100808354040283529160200191612870565b820191906000526020600020905b81548152906001019060200180831161285357829003601f168201915b50505050509080600701805461288590615181565b80601f01602080910402602001604051908101604052809291908181526020018280546128b190615181565b80156128fe5780601f106128d3576101008083540402835291602001916128fe565b820191906000526020600020905b8154815290600101906020018083116128e157829003601f168201915b50505050509080600801805461291390615181565b80601f016020809104026020016040519081016040528092919081815260200182805461293f90615181565b801561298c5780601f106129615761010080835404028352916020019161298c565b820191906000526020600020905b81548152906001019060200180831161296f57829003601f168201915b5050505050908060090180546129a190615181565b80601f01602080910402602001604051908101604052809291908181526020018280546129cd90615181565b8015612a1a5780601f106129ef57610100808354040283529160200191612a1a565b820191906000526020600020905b8154815290600101906020018083116129fd57829003601f168201915b50505050509080600a015490508a565b60008073ffffffffffffffffffffffffffffffffffffffff166000808573ffffffffffffffffffffffffffffffffffffffff1673ffffffffffffffffffffffffffffffffffffffff16815260200190815260200160002060000160009054906101000a900473ffffffffffffffffffffffffffffffffffffffff1673ffffffffffffffffffffffffffffffffffffffff1614158015612b9557506000808473ffffffffffffffffffffffffffffffffffffffff1673ffffffffffffffffffffffffffffffffffffffff1681526020019081526020016000206003016000836007811115612b40577f4e487b7100000000000000000000000000000000000000000000000000000000600052602160045260246000fd5b6007811115612b78577f4e487b7100000000000000000000000000000000000000000000000000000000600052602160045260246000fd5b815260200190815260200160002060009054906101000a900460ff165b8015612bec57506000808473ffffffffffffffffffffffffffffffffffffffff1673ffffffffffffffffffffffffffffffffffffffff16815260200190815260200160002060040160009054906101000a900460ff165b905092915050565b6060806000806060806060806060600060608b600073ffffffffffffffffffffffffffffffffffffffff166000808373ffffffffffffffffffffffffffffffffffffffff1673ffffffffffffffffffffffffffffffffffffffff16815260200190815260200160002060000160009054906101000a900473ffffffffffffffffffffffffffffffffffffffff1673ffffffffffffffffffffffffffffffffffffffff161415612cd8576040517f08c379a0000000000000000000000000000000000000000000000000000000008152600401612ccf90614ce8565b60405180910390fd5b60008060008f73ffffffffffffffffffffffffffffffffffffffff1673ffffffffffffffffffffffffffffffffffffffff168152602001908152602001600020905080600101816002018260040160009054906101000a900460ff168360040160019054906101000a900460ff16846005018560060186600701876008018860090189600a01548a600b018a8054612d6f90615181565b80601f0160208091040260200160405190810160405280929190818152602001828054612d9b90615181565b8015612de85780601f10612dbd57610100808354040283529160200191612de8565b820191906000526020600020905b815481529060010190602001808311612dcb57829003601f168201915b50505050509a5089805480602002602001604051908101604052809291908181526020018280548015612e9557602002820191906000526020600020906000905b82829054906101000a900460ff166007811115612e6f577f4e487b7100000000000000000000000000000000000000000000000000000000600052602160045260246000fd5b81526020019060010190602082600001049283019260010382029150808411612e295790505b50505050509950868054612ea890615181565b80601f0160208091040260200160405190810160405280929190818152602001828054612ed490615181565b8015612f215780601f10612ef657610100808354040283529160200191612f21565b820191906000526020600020905b815481529060010190602001808311612f0457829003601f168201915b50505050509650858054612f3490615181565b80601f0160208091040260200160405190810160405280929190818152602001828054612f6090615181565b8015612fad5780601f10612f8257610100808354040283529160200191612fad565b820191906000526020600020905b815481529060010190602001808311612f9057829003601f168201915b50505050509550848054612fc090615181565b80601f0160208091040260200160405190810160405280929190818152602001828054612fec90615181565b80156130395780601f1061300e57610100808354040283529160200191613039565b820191906000526020600020905b81548152906001019060200180831161301c57829003601f168201915b5050505050945083805461304c90615181565b80601f016020809104026020016040519081016040528092919081815260200182805461307890615181565b80156130c55780601f1061309a576101008083540402835291602001916130c5565b820191906000526020600020905b8154815290600101906020018083116130a857829003601f168201915b505050505093508280546130d890615181565b80601f016020809104026020016040519081016040528092919081815260200182805461310490615181565b80156131515780601f1061312657610100808354040283529160200191613151565b820191906000526020600020905b81548152906001019060200180831161313457829003601f168201915b50505050509250808054806020026020016040519081016040528092919081815260200182805480156131d957602002820191906000526020600020905b8160009054906101000a900473ffffffffffffffffffffffffffffffffffffffff1673ffffffffffffffffffffffffffffffffffffffff168152602001906001019080831161318f575b505050505090509c509c509c509c509c509c509c509c509c509c509c50505091939597999b90929496989a50565b600360003373ffffffffffffffffffffffffffffffffffffffff1673ffffffffffffffffffffffffffffffffffffffff16815260200190815260200160002060009054906101000a900460ff16613293576040517f08c379a000000000000000000000000000000000000000000000000000000000815260040161328a90614e28565b60405180910390fd5b81600073ffffffffffffffffffffffffffffffffffffffff166000808373ffffffffffffffffffffffffffffffffffffffff1673ffffffffffffffffffffffffffffffffffffffff16815260200190815260200160002060000160009054906101000a900473ffffffffffffffffffffffffffffffffffffffff1673ffffffffffffffffffffffffffffffffffffffff161415613365576040517f08c379a000000000000000000000000000000000000000000000000000000000815260040161335c90614ce8565b60405180910390fd5b60008060008573ffffffffffffffffffffffffffffffffffffffff1673ffffffffffffffffffffffffffffffffffffffff16815260200190815260200160002090508060030160008460078111156133e6577f4e487b7100000000000000000000000000000000000000000000000000000000600052602160045260246000fd5b600781111561341e577f4e487b7100000000000000000000000000000000000000000000000000000000600052602160045260246000fd5b815260200190815260200160002060009054906101000a900460ff161561347a576040517f08c379a000000000000000000000000000000000000000000000000000000000815260040161347190614e08565b60405180910390fd5b806002018390806001815401808255809150506001900390600052602060002090602091828204019190069091909190916101000a81548160ff021916908360078111156134f1577f4e487b7100000000000000000000000000000000000000000000000000000000600052602160045260246000fd5b02179055506001816003016000856007811115613537577f4e487b7100000000000000000000000000000000000000000000000000000000600052602160045260246000fd5b600781111561356f577f4e487b7100000000000000000000000000000000000000000000000000000000600052602160045260246000fd5b815260200190815260200160002060006101000a81548160ff021916908315150217905550600260008460078111156135d1577f4e487b7100000000000000000000000000000000000000000000000000000000600052602160045260246000fd5b6007811115613609577f4e487b7100000000000000000000000000000000000000000000000000000000600052602160045260246000fd5b8152602001908152602001600020849080600181540180825580915050600190039060005260206000200160009091909190916101000a81548173ffffffffffffffffffffffffffffffffffffffff021916908373ffffffffffffffffffffffffffffffffffffffff160217905550600460008460078111156136b5577f4e487b7100000000000000000000000000000000000000000000000000000000600052602160045260246000fd5b60078111156136ed577f4e487b7100000000000000000000000000000000000000000000000000000000600052602160045260246000fd5b8152602001908152602001600020600081548092919061370c906151b3565b919050555050505050565b60036020528060005260406000206000915054906101000a900460ff1681565b6001818051602081018201805184825260208301602085012081835280955050505050506000915054906101000a900473ffffffffffffffffffffffffffffffffffffffff1681565b600360003373ffffffffffffffffffffffffffffffffffffffff1673ffffffffffffffffffffffffffffffffffffffff16815260200190815260200160002060009054906101000a900460ff1661380c576040517f08c379a000000000000000000000000000000000000000000000000000000000815260040161380390614e28565b60405180910390fd5b600360008273ffffffffffffffffffffffffffffffffffffffff1673ffffffffffffffffffffffffffffffffffffffff16815260200190815260200160002060009054906101000a900460ff16613898576040517f08c379a000000000000000000000000000000000000000000000000000000000815260040161388f90614d08565b60405180910390fd5b3373ffffffffffffffffffffffffffffffffffffffff168173ffffffffffffffffffffffffffffffffffffffff161415613907576040517f08c379a00000000000000000000000000000000000000000000000000000000081526004016138fe90614ca8565b60405180910390fd5b6000600360008373ffffffffffffffffffffffffffffffffffffffff1673ffffffffffffffffffffffffffffffffffffffff16815260200190815260200160002060006101000a81548160ff0219169083151502179055508073ffffffffffffffffffffffffffffffffffffffff167ff95837395eacf6d5992d2f5190a4a12eafd812a4f58c5f80266353fee626e250426040516139a59190614e88565b60405180910390a250565b606080600a60055410156139fb576040518060400160405280600381526020017f30303000000000000000000000000000000000000000000000000000000000008152509050613aa1565b60646005541015613a43576040518060400160405280600281526020017f30300000000000000000000000000000000000000000000000000000000000008152509050613aa0565b6103e86005541015613a8c576040518060400160405280600181526020017f30000000000000000000000000000000000000000000000000000000000000008152509050613a9f565b6040518060200160405280600081525090505b5b5b6000613aae600554613b0e565b905060056000815480929190613ac3906151b3565b91905055506000613ae061271042613adb91906151fc565b613b0e565b9050808383604051602001613af793929190614948565b604051602081830303815290604052935050505090565b60606000821415613b56576040518060400160405280600181526020017f30000000000000000000000000000000000000000000000000000000000000008152509050613cbc565b600082905060005b60008214613b88578080613b71906151b3565b915050600a82613b81919061501e565b9150613b5e565b60008167ffffffffffffffff811115613bca577f4e487b7100000000000000000000000000000000000000000000000000000000600052604160045260246000fd5b6040519080825280601f01601f191660200182016040528015613bfc5781602001600182028036833780820191505090505b50905060008290508593505b60008414613cb457600a84613c1d91906151fc565b6030613c299190614fc8565b60f81b8282613c3790615157565b92508281518110613c71577f4e487b7100000000000000000000000000000000000000000000000000000000600052603260045260246000fd5b60200101907effffffffffffffffffffffffffffffffffffffffffffffffffffffffffffff1916908160001a905350600a84613cad919061501e565b9350613c08565b819450505050505b919050565b828054613ccd90615181565b90600052602060002090601f016020900481019282613cef5760008555613d36565b82601f10613d0857805160ff1916838001178555613d36565b82800160010185558215613d36579182015b82811115613d35578251825591602001919060010190613d1a565b5b509050613d439190613d47565b5090565b5b80821115613d60576000816000905550600101613d48565b5090565b6000613d77613d7284614ed4565b614ea3565b905082815260208101848484011115613d8f57600080fd5b613d9a848285615115565b509392505050565b600081359050613db181615351565b92915050565b600081359050613dc681615368565b92915050565b600081359050613ddb81615378565b92915050565b600082601f830112613df257600080fd5b8135613e02848260208601613d64565b91505092915050565b600081359050613e1a81615388565b92915050565b600060208284031215613e3257600080fd5b6000613e4084828501613da2565b91505092915050565b60008060408385031215613e5c57600080fd5b6000613e6a85828601613da2565b9250506020613e7b85828601613da2565b9150509250929050565b60008060408385031215613e9857600080fd5b6000613ea685828601613da2565b9250506020613eb785828601613db7565b9150509250929050565b600080600080600080600080610100898b031215613ede57600080fd5b6000613eec8b828c01613da2565b9850506020613efd8b828c01613db7565b9750506040613f0e8b828c01613dcc565b965050606089013567ffffffffffffffff811115613f2b57600080fd5b613f378b828c01613de1565b955050608089013567ffffffffffffffff811115613f5457600080fd5b613f608b828c01613de1565b94505060a089013567ffffffffffffffff811115613f7d57600080fd5b613f898b828c01613de1565b93505060c089013567ffffffffffffffff811115613fa657600080fd5b613fb28b828c01613de1565b92505060e089013567ffffffffffffffff811115613fcf57600080fd5b613fdb8b828c01613de1565b9150509295985092959890939650565b60008060008060008060c0878903121561400457600080fd5b600061401289828a01613da2565b965050602087013567ffffffffffffffff81111561402f57600080fd5b61403b89828a01613de1565b955050604087013567ffffffffffffffff81111561405857600080fd5b61406489828a01613de1565b945050606087013567ffffffffffffffff81111561408157600080fd5b61408d89828a01613de1565b935050608087013567ffffffffffffffff8111156140aa57600080fd5b6140b689828a01613de1565b92505060a087013567ffffffffffffffff8111156140d357600080fd5b6140df89828a01613de1565b9150509295509295509295565b6000602082840312156140fe57600080fd5b600061410c84828501613db7565b91505092915050565b6000806040838503121561412857600080fd5b600061413685828601613db7565b925050602061414785828601613e0b565b9150509250929050565b60006020828403121561416357600080fd5b600082013567ffffffffffffffff81111561417d57600080fd5b61418984828501613de1565b91505092915050565b600061419e83836141c2565b60208301905092915050565b60006141b683836142dc565b60208301905092915050565b6141cb81615083565b82525050565b6141da81615083565b82525050565b60006141eb82614f39565b6141f58185614f7f565b935061420083614f04565b8060005b838110156142315781516142188882614192565b975061422383614f65565b925050600181019050614204565b5085935050505092915050565b600061424982614f44565b6142538185614f90565b935061425e83614f14565b8060005b8381101561428f57815161427688826141aa565b975061428183614f72565b925050600181019050614262565b5085935050505092915050565b6142a581615095565b82525050565b60006142b682614f4f565b6142c08185614fa1565b93506142d0818560208601615124565b80840191505092915050565b6142e5816150f1565b82525050565b6142f4816150f1565b82525050565b61430381615103565b82525050565b600061431482614f5a565b61431e8185614fac565b935061432e818560208601615124565b61433781615318565b840191505092915050565b600061434d82614f5a565b6143578185614fbd565b9350614367818560208601615124565b80840191505092915050565b6000815461438081615181565b61438a8186614fac565b945060018216600081146143a557600181146143b7576143ea565b60ff19831686526020860193506143ea565b6143c085614f24565b60005b838110156143e2578154818901526001820191506020810190506143c3565b808801955050505b50505092915050565b6000614400601183614fac565b91507f4163746575722064656a612061637469660000000000000000000000000000006000830152602082019050919050565b6000614440602183614fac565b91507f496d706f737369626c65206465207365207265746972657220736f692d6d656d60008301527f65000000000000000000000000000000000000000000000000000000000000006020830152604082019050919050565b60006144a6601883614fac565b91507f494420426c6f636b636861696e20696e6578697374616e7400000000000000006000830152602082019050919050565b60006144e6601183614fac565b91507f41637465757220696e6578697374616e740000000000000000000000000000006000830152602082019050919050565b6000614526601583614fac565b91507f50617320756e2061646d696e69737472617465757200000000000000000000006000830152602082019050919050565b6000614566601283614fac565b91507f436f6e74726174206e6f6e2074726f75766500000000000000000000000000006000830152602082019050919050565b60006145a6601383614fac565b91507f44656a612061646d696e697374726174657572000000000000000000000000006000830152602082019050919050565b60006145e6600383614fbd565b91507f4d472d00000000000000000000000000000000000000000000000000000000006000830152600382019050919050565b6000614626602183614fac565b91507f41647265737365206427696d706c656d656e746174696f6e20696e76616c696460008301527f65000000000000000000000000000000000000000000000000000000000000006020830152604082019050919050565b600061468c601083614fac565b91507f4164726573736520696e76616c696465000000000000000000000000000000006000830152602082019050919050565b60006146cc601483614fac565b91507f436f6e747261742064656a612064656c656775650000000000000000000000006000830152602082019050919050565b600061470c602b83614fac565b91507f4563686563206465206c61206d6973652061206a6f7572206465206c27696d7060008301527f6c656d656e746174696f6e0000000000000000000000000000000000000000006020830152604082019050919050565b6000614772601b83614fac565b91507f4164726573736520646520636f6e7472617420696e76616c69646500000000006000830152602082019050919050565b60006147b2600183614fbd565b91507f2d000000000000000000000000000000000000000000000000000000000000006000830152600182019050919050565b60006147f2601283614fac565b91507f526f6c652064656a6120617474726962756500000000000000000000000000006000830152602082019050919050565b6000614832602683614fac565b91507f4e6f6e206175746f726973653a207365756c656d656e742041646d696e69737460008301527f72617465757200000000000000000000000000000000000000000000000000006020830152604082019050919050565b6000614898601683614fac565b91507f4163746575722064656a6120656e7265676973747265000000000000000000006000830152602082019050919050565b60006148d8600e83614fac565b91507f41637465757220696e61637469660000000000000000000000000000000000006000830152602082019050919050565b614914816150e7565b82525050565b600061492682846142ab565b915081905092915050565b600061493d8284614342565b915081905092915050565b6000614953826145d9565b915061495f8286614342565b915061496a826147a5565b91506149768285614342565b91506149828284614342565b9150819050949350505050565b60006020820190506149a460008301846141d1565b92915050565b6000610140820190506149c0600083018d6141d1565b81810360208301526149d2818c614309565b90506149e1604083018b61429c565b6149ee606083018a6142fa565b8181036080830152614a008189614309565b905081810360a0830152614a148188614309565b905081810360c0830152614a288187614309565b905081810360e0830152614a3c8186614309565b9050818103610100830152614a518185614309565b9050614a6161012083018461490b565b9b9a5050505050505050505050565b60006020820190508181036000830152614a8a81846141e0565b905092915050565b60006020820190508181036000830152614aac818461423e565b905092915050565b6000602082019050614ac9600083018461429c565b92915050565b6000610160820190508181036000830152614aea818e614309565b90508181036020830152614afe818d61423e565b9050614b0d604083018c61429c565b614b1a606083018b6142fa565b8181036080830152614b2c818a614309565b905081810360a0830152614b408189614309565b905081810360c0830152614b548188614309565b905081810360e0830152614b688187614309565b9050818103610100830152614b7d8186614309565b9050614b8d61012083018561490b565b818103610140830152614ba081846141e0565b90509c9b505050505050505050505050565b60006080820190508181036000830152614bcc8187614309565b9050614bdb60208301866142eb565b8181036040830152614bed8185614309565b9050614bfc606083018461490b565b95945050505050565b60006080820190508181036000830152614c1f8187614373565b9050614c2e60208301866142eb565b8181036040830152614c408185614309565b9050614c4f606083018461490b565b95945050505050565b60006040820190508181036000830152614c728185614373565b9050614c81602083018461490b565b9392505050565b60006020820190508181036000830152614ca1816143f3565b9050919050565b60006020820190508181036000830152614cc181614433565b9050919050565b60006020820190508181036000830152614ce181614499565b9050919050565b60006020820190508181036000830152614d01816144d9565b9050919050565b60006020820190508181036000830152614d2181614519565b9050919050565b60006020820190508181036000830152614d4181614559565b9050919050565b60006020820190508181036000830152614d6181614599565b9050919050565b60006020820190508181036000830152614d8181614619565b9050919050565b60006020820190508181036000830152614da18161467f565b9050919050565b60006020820190508181036000830152614dc1816146bf565b9050919050565b60006020820190508181036000830152614de1816146ff565b9050919050565b60006020820190508181036000830152614e0181614765565b9050919050565b60006020820190508181036000830152614e21816147e5565b9050919050565b60006020820190508181036000830152614e4181614825565b9050919050565b60006020820190508181036000830152614e618161488b565b9050919050565b60006020820190508181036000830152614e81816148cb565b9050919050565b6000602082019050614e9d600083018461490b565b92915050565b6000604051905081810181811067ffffffffffffffff82111715614eca57614ec96152e9565b5b8060405250919050565b600067ffffffffffffffff821115614eef57614eee6152e9565b5b601f19601f8301169050602081019050919050565b6000819050602082019050919050565b6000819050602082019050919050565b60008190508160005260206000209050919050565b600081519050919050565b600081519050919050565b600081519050919050565b600081519050919050565b6000602082019050919050565b6000602082019050919050565b600082825260208201905092915050565b600082825260208201905092915050565b600081905092915050565b600082825260208201905092915050565b600081905092915050565b6000614fd3826150e7565b9150614fde836150e7565b9250827fffffffffffffffffffffffffffffffffffffffffffffffffffffffffffffffff038211156150135761501261522d565b5b828201905092915050565b6000615029826150e7565b9150615034836150e7565b9250826150445761504361525c565b5b828204905092915050565b600061505a826150e7565b9150615065836150e7565b9250828210156150785761507761522d565b5b828203905092915050565b600061508e826150c7565b9050919050565b60008115159050919050565b60008190506150af82615329565b919050565b60008190506150c28261533d565b919050565b600073ffffffffffffffffffffffffffffffffffffffff82169050919050565b6000819050919050565b60006150fc826150a1565b9050919050565b600061510e826150b4565b9050919050565b82818337600083830152505050565b60005b83811015615142578082015181840152602081019050615127565b83811115615151576000848401525b50505050565b6000615162826150e7565b915060008214156151765761517561522d565b5b600182039050919050565b6000600282049050600182168061519957607f821691505b602082108114156151ad576151ac6152ba565b5b50919050565b60006151be826150e7565b91507fffffffffffffffffffffffffffffffffffffffffffffffffffffffffffffffff8214156151f1576151f061522d565b5b600182019050919050565b6000615207826150e7565b9150615212836150e7565b9250826152225761522161525c565b5b828206905092915050565b7f4e487b7100000000000000000000000000000000000000000000000000000000600052601160045260246000fd5b7f4e487b7100000000000000000000000000000000000000000000000000000000600052601260045260246000fd5b7f4e487b7100000000000000000000000000000000000000000000000000000000600052602160045260246000fd5b7f4e487b7100000000000000000000000000000000000000000000000000000000600052602260045260246000fd5b7f4e487b7100000000000000000000000000000000000000000000000000000000600052604160045260246000fd5b6000601f19601f8301169050919050565b6008811061533a5761533961528b565b5b50565b6002811061534e5761534d61528b565b5b50565b61535a81615083565b811461536557600080fd5b50565b6008811061537557600080fd5b50565b6002811061538557600080fd5b50565b615391816150e7565b811461539c57600080fd5b5056fea2646970667358221220fa97e93324e3058f564d2b316086c9a9ad82ec70a546455f272bc88a3193533f64736f6c63430008000033",
  "linkReferences": {},
  "deployedLinkReferences": {}
}