{
  "_format": "hh-sol-artifact-1",
  "contractName": "ProducteurEnPhaseCulture",
  "sourceName": "contracts/ProducteurEnPhaseCulture.sol",
  "abi": [
    {
      "inputs": [
        {
          "internalType": "address",
          "name": "_gestionnaireActeurs",
          "type": "address"
        }
      ],
      "stateMutability": "nonpayable",
      "type": "constructor"
    },
    {
      "stateMutability": "payable",
      "type": "fallback"
    },
    {
      "inputs": [
        {
          "internalType": "uint32",
          "name": "_idParcelle",
          "type": "uint32"
        },
        {
          "internalType": "string",
          "name": "_rapport",
          "type": "string"
        }
      ],
      "name": "ajouterInspection",
      "outputs": [],
      "stateMutability": "nonpayable",
      "type": "function"
    },
    {
      "inputs": [
        {
          "internalType": "uint32",
          "name": "_idParcelle",
          "type": "uint32"
        },
        {
          "internalType": "string",
          "name": "_nom",
          "type": "string"
        },
        {
          "internalType": "uint32",
          "name": "_quantite",
          "type": "uint32"
        }
      ],
      "name": "ajouterIntrant",
      "outputs": [],
      "stateMutability": "nonpayable",
      "type": "function"
    },
    {
      "inputs": [
        {
          "internalType": "uint32",
          "name": "_idParcelle",
          "type": "uint32"
        },
        {
          "internalType": "string",
          "name": "_urlPhoto",
          "type": "string"
        }
      ],
      "name": "ajouterPhoto",
      "outputs": [],
      "stateMutability": "nonpayable",
      "type": "function"
    },
    {
      "inputs": [
        {
          "internalType": "uint32",
          "name": "_idParcelle",
          "type": "uint32"
        },
        {
          "internalType": "bool",
          "name": "_passe",
          "type": "bool"
        }
      ],
      "name": "appliquerControlePhytosanitaire",
      "outputs": [],
      "stateMutability": "nonpayable",
      "type": "function"
    },
    {
      "inputs": [],
      "name": "compteurInspections",
      "outputs": [
        {
          "internalType": "uint32",
          "name": "",
          "type": "uint32"
        }
      ],
      "stateMutability": "view",
      "type": "function"
    },
    {
      "inputs": [],
      "name": "compteurParcelles",
      "outputs": [
        {
          "internalType": "uint32",
          "name": "",
          "type": "uint32"
        }
      ],
      "stateMutability": "view",
      "type": "function"
    },
    {
      "inputs": [
        {
          "internalType": "string",
          "name": "_qualiteSemence",
          "type": "string"
        },
        {
          "internalType": "string",
          "name": "_methodeCulture",
          "type": "string"
        },
        {
          "internalType": "string",
          "name": "_latitude",
          "type": "string"
        },
        {
          "internalType": "string",
          "name": "_longitude",
          "type": "string"
        },
        {
          "internalType": "string",
          "name": "_dateRecolte",
          "type": "string"
        },
        {
          "internalType": "string",
          "name": "_certificatPhytosanitaire",
          "type": "string"
        }
      ],
      "name": "creerParcelle",
      "outputs": [],
      "stateMutability": "nonpayable",
      "type": "function"
    },
    {
      "inputs": [],
      "name": "gestionnaireActeurs",
      "outputs": [
        {
          "internalType": "contract GestionnaireActeurs",
          "name": "",
          "type": "address"
        }
      ],
      "stateMutability": "view",
      "type": "function"
    },
    {
      "inputs": [],
      "name": "getCompteurInspection",
      "outputs": [
        {
          "internalType": "uint32",
          "name": "",
          "type": "uint32"
        }
      ],
      "stateMutability": "view",
      "type": "function"
    },
    {
      "inputs": [],
      "name": "getCompteurParcelle",
      "outputs": [
        {
          "internalType": "uint32",
          "name": "",
          "type": "uint32"
        }
      ],
      "stateMutability": "view",
      "type": "function"
    },
    {
      "inputs": [
        {
          "internalType": "uint32",
          "name": "idParcelle",
          "type": "uint32"
        }
      ],
      "name": "getConditions",
      "outputs": [
        {
          "components": [
            {
              "internalType": "uint32",
              "name": "id",
              "type": "uint32"
            },
            {
              "internalType": "string",
              "name": "temperature",
              "type": "string"
            },
            {
              "internalType": "string",
              "name": "humidite",
              "type": "string"
            },
            {
              "internalType": "uint256",
              "name": "timestamp",
              "type": "uint256"
            }
          ],
          "internalType": "struct StructLib.EnregistrementCondition[]",
          "name": "",
          "type": "tuple[]"
        }
      ],
      "stateMutability": "view",
      "type": "function"
    },
    {
      "inputs": [
        {
          "internalType": "uint32",
          "name": "idParcelle",
          "type": "uint32"
        }
      ],
      "name": "getInspections",
      "outputs": [
        {
          "components": [
            {
              "internalType": "uint32",
              "name": "id",
              "type": "uint32"
            },
            {
              "internalType": "address",
              "name": "auditeur",
              "type": "address"
            },
            {
              "internalType": "string",
              "name": "rapport",
              "type": "string"
            },
            {
              "internalType": "uint256",
              "name": "timestamp",
              "type": "uint256"
            }
          ],
          "internalType": "struct StructLib.Inspection[]",
          "name": "",
          "type": "tuple[]"
        }
      ],
      "stateMutability": "view",
      "type": "function"
    },
    {
      "inputs": [
        {
          "internalType": "uint32",
          "name": "idParcelle",
          "type": "uint32"
        }
      ],
      "name": "getIntrants",
      "outputs": [
        {
          "components": [
            {
              "internalType": "string",
              "name": "nom",
              "type": "string"
            },
            {
              "internalType": "uint32",
              "name": "quantite",
              "type": "uint32"
            },
            {
              "internalType": "bool",
              "name": "valide",
              "type": "bool"
            }
          ],
          "internalType": "struct StructLib.Intrant[]",
          "name": "",
          "type": "tuple[]"
        }
      ],
      "stateMutability": "view",
      "type": "function"
    },
    {
      "inputs": [
        {
          "internalType": "uint32",
          "name": "id",
          "type": "uint32"
        }
      ],
      "name": "getParcelle",
      "outputs": [
        {
          "components": [
            {
              "internalType": "uint32",
              "name": "id",
              "type": "uint32"
            },
            {
              "internalType": "address",
              "name": "producteur",
              "type": "address"
            },
            {
              "internalType": "string",
              "name": "qualiteSemence",
              "type": "string"
            },
            {
              "internalType": "string",
              "name": "methodeCulture",
              "type": "string"
            },
            {
              "internalType": "bool",
              "name": "certifie",
              "type": "bool"
            },
            {
              "internalType": "enum StructLib.Etape",
              "name": "etape",
              "type": "uint8"
            },
            {
              "internalType": "string",
              "name": "latitude",
              "type": "string"
            },
            {
              "internalType": "string",
              "name": "longitude",
              "type": "string"
            },
            {
              "internalType": "string[]",
              "name": "photos",
              "type": "string[]"
            },
            {
              "components": [
                {
                  "internalType": "string",
                  "name": "nom",
                  "type": "string"
                },
                {
                  "internalType": "uint32",
                  "name": "quantite",
                  "type": "uint32"
                },
                {
                  "internalType": "bool",
                  "name": "valide",
                  "type": "bool"
                }
              ],
              "internalType": "struct StructLib.Intrant[]",
              "name": "intrants",
              "type": "tuple[]"
            },
            {
              "components": [
                {
                  "internalType": "uint32",
                  "name": "id",
                  "type": "uint32"
                },
                {
                  "internalType": "address",
                  "name": "auditeur",
                  "type": "address"
                },
                {
                  "internalType": "string",
                  "name": "rapport",
                  "type": "string"
                },
                {
                  "internalType": "uint256",
                  "name": "timestamp",
                  "type": "uint256"
                }
              ],
              "internalType": "struct StructLib.Inspection[]",
              "name": "inspections",
              "type": "tuple[]"
            },
            {
              "components": [
                {
                  "internalType": "uint32",
                  "name": "id",
                  "type": "uint32"
                },
                {
                  "internalType": "string",
                  "name": "temperature",
                  "type": "string"
                },
                {
                  "internalType": "string",
                  "name": "humidite",
                  "type": "string"
                },
                {
                  "internalType": "uint256",
                  "name": "timestamp",
                  "type": "uint256"
                }
              ],
              "internalType": "struct StructLib.EnregistrementCondition[]",
              "name": "conditions",
              "type": "tuple[]"
            },
            {
              "internalType": "string",
              "name": "dateRecolte",
              "type": "string"
            },
            {
              "internalType": "string",
              "name": "certificatPhytosanitaire",
              "type": "string"
            }
          ],
          "internalType": "struct StructLib.Parcelle",
          "name": "",
          "type": "tuple"
        }
      ],
      "stateMutability": "view",
      "type": "function"
    },
    {
      "inputs": [
        {
          "internalType": "uint32",
          "name": "idParcelle",
          "type": "uint32"
        }
      ],
      "name": "getPhotos",
      "outputs": [
        {
          "internalType": "string[]",
          "name": "",
          "type": "string[]"
        }
      ],
      "stateMutability": "view",
      "type": "function"
    },
    {
      "inputs": [
        {
          "internalType": "uint32",
          "name": "_idParcelle",
          "type": "uint32"
        },
        {
          "internalType": "enum StructLib.Etape",
          "name": "_etape",
          "type": "uint8"
        }
      ],
      "name": "mettreAJourEtape",
      "outputs": [],
      "stateMutability": "nonpayable",
      "type": "function"
    },
    {
      "inputs": [
        {
          "internalType": "uint32",
          "name": "",
          "type": "uint32"
        }
      ],
      "name": "parcelles",
      "outputs": [
        {
          "internalType": "uint32",
          "name": "id",
          "type": "uint32"
        },
        {
          "internalType": "address",
          "name": "producteur",
          "type": "address"
        },
        {
          "internalType": "string",
          "name": "qualiteSemence",
          "type": "string"
        },
        {
          "internalType": "string",
          "name": "methodeCulture",
          "type": "string"
        },
        {
          "internalType": "bool",
          "name": "certifie",
          "type": "bool"
        },
        {
          "internalType": "enum StructLib.Etape",
          "name": "etape",
          "type": "uint8"
        },
        {
          "internalType": "string",
          "name": "latitude",
          "type": "string"
        },
        {
          "internalType": "string",
          "name": "longitude",
          "type": "string"
        },
        {
          "internalType": "string",
          "name": "dateRecolte",
          "type": "string"
        },
        {
          "internalType": "string",
          "name": "certificatPhytosanitaire",
          "type": "string"
        }
      ],
      "stateMutability": "view",
      "type": "function"
    },
    {
      "inputs": [
        {
          "internalType": "uint32",
          "name": "_idParcelle",
          "type": "uint32"
        },
        {
          "internalType": "string",
          "name": "_nom",
          "type": "string"
        },
        {
          "internalType": "bool",
          "name": "_valide",
          "type": "bool"
        }
      ],
      "name": "validerIntrant",
      "outputs": [],
      "stateMutability": "nonpayable",
      "type": "function"
    },
    {
      "stateMutability": "payable",
      "type": "receive"
    }
  ],
  "bytecode": "0x60806040523480156200001157600080fd5b506040516200400a3803806200400a833981810160405281019062000037919062000095565b806000806101000a81548173ffffffffffffffffffffffffffffffffffffffff021916908373ffffffffffffffffffffffffffffffffffffffff160217905550506200010f565b6000815190506200008f81620000f5565b92915050565b600060208284031215620000a857600080fd5b6000620000b8848285016200007e565b91505092915050565b6000620000ce82620000d5565b9050919050565b600073ffffffffffffffffffffffffffffffffffffffff82169050919050565b6200010081620000c1565b81146200010c57600080fd5b50565b613eeb806200011f6000396000f3fe60806040526004361061010d5760003560e01c80639462fa1e11610095578063d16d510911610064578063d16d510914610378578063ddb45fec146103a3578063e1e67733146103e0578063ece32cd71461041d578063f03d9af61461044657610114565b80639462fa1e146102d05780639e942cd4146102f9578063a149918c14610324578063cda36e631461034d57610114565b8063421b3e08116100dc578063421b3e08146101d95780635d5efef9146102165780635ee250791461025357806361153ee91461027c5780637bc6edd1146102a757610114565b806304bfefce146101165780631912121d1461013f57806331686f41146101855780633ab62bd7146101b057610114565b3661011457005b005b34801561012257600080fd5b5061013d60048036038101906101389190612cdf565b610483565b005b34801561014b57600080fd5b5061016660048036038101906101619190612bea565b61070f565b60405161017c9a9998979695949392919061397f565b60405180910390f35b34801561019157600080fd5b5061019a610add565b6040516101a79190613964565b60405180910390f35b3480156101bc57600080fd5b506101d760048036038101906101d29190612c8b565b610af7565b005b3480156101e557600080fd5b5061020060048036038101906101fb9190612bea565b610c42565b60405161020d9190613942565b60405180910390f35b34801561022257600080fd5b5061023d60048036038101906102389190612bea565b61163b565b60405161024a9190613865565b60405180910390f35b34801561025f57600080fd5b5061027a60048036038101906102759190612d46565b61178f565b005b34801561028857600080fd5b50610291611954565b60405161029e9190613964565b60405180910390f35b3480156102b357600080fd5b506102ce60048036038101906102c99190612c8b565b61196a565b005b3480156102dc57600080fd5b506102f760048036038101906102f29190612c4f565b611bcb565b005b34801561030557600080fd5b5061030e611d2a565b60405161031b9190613887565b60405180910390f35b34801561033057600080fd5b5061034b60048036038101906103469190612ad1565b611d4e565b005b34801561035957600080fd5b506103626121e0565b60405161036f9190613964565b60405180910390f35b34801561038457600080fd5b5061038d6121f6565b60405161039a9190613964565b60405180910390f35b3480156103af57600080fd5b506103ca60048036038101906103c59190612bea565b612210565b6040516103d79190613843565b60405180910390f35b3480156103ec57600080fd5b5061040760048036038101906104029190612bea565b6123a9565b6040516104149190613821565b60405180910390f35b34801561042957600080fd5b50610444600480360381019061043f9190612c13565b61257e565b005b34801561045257600080fd5b5061046d60048036038101906104689190612bea565b612789565b60405161047a91906137ff565b60405180910390f35b60008054906101000a900473ffffffffffffffffffffffffffffffffffffffff1673ffffffffffffffffffffffffffffffffffffffff1663d1e47bb33360026040518363ffffffff1660e01b81526004016104df9291906137d6565b60206040518083038186803b1580156104f757600080fd5b505afa15801561050b573d6000803e3d6000fd5b505050506040513d601f19601f8201168201806040525081019061052f9190612aa8565b61056e576040517f08c379a0000000000000000000000000000000000000000000000000000000008152600401610565906138e2565b60405180910390fd5b60005b600160008563ffffffff1663ffffffff168152602001908152602001600020600701805490508163ffffffff16101561070957826040516020016105b591906137a8565b60405160208183030381529060405280519060200120600160008663ffffffff1663ffffffff1681526020019081526020016000206007018263ffffffff168154811061062b577f4e487b7100000000000000000000000000000000000000000000000000000000600052603260045260246000fd5b906000526020600020906002020160000160405160200161064c91906137bf565b6040516020818303038152906040528051906020012014156106f65781600160008663ffffffff1663ffffffff1681526020019081526020016000206007018263ffffffff16815481106106c9577f4e487b7100000000000000000000000000000000000000000000000000000000600052603260045260246000fd5b906000526020600020906002020160010160046101000a81548160ff021916908315150217905550610709565b808061070190613d55565b915050610571565b50505050565b60016020528060005260406000206000915090508060000160009054906101000a900463ffffffff16908060000160049054906101000a900473ffffffffffffffffffffffffffffffffffffffff169080600101805461076e90613d23565b80601f016020809104026020016040519081016040528092919081815260200182805461079a90613d23565b80156107e75780601f106107bc576101008083540402835291602001916107e7565b820191906000526020600020905b8154815290600101906020018083116107ca57829003601f168201915b5050505050908060020180546107fc90613d23565b80601f016020809104026020016040519081016040528092919081815260200182805461082890613d23565b80156108755780601f1061084a57610100808354040283529160200191610875565b820191906000526020600020905b81548152906001019060200180831161085857829003601f168201915b5050505050908060030160009054906101000a900460ff16908060030160019054906101000a900460ff16908060040180546108b090613d23565b80601f01602080910402602001604051908101604052809291908181526020018280546108dc90613d23565b80156109295780601f106108fe57610100808354040283529160200191610929565b820191906000526020600020905b81548152906001019060200180831161090c57829003601f168201915b50505050509080600501805461093e90613d23565b80601f016020809104026020016040519081016040528092919081815260200182805461096a90613d23565b80156109b75780601f1061098c576101008083540402835291602001916109b7565b820191906000526020600020905b81548152906001019060200180831161099a57829003601f168201915b50505050509080600a0180546109cc90613d23565b80601f01602080910402602001604051908101604052809291908181526020018280546109f890613d23565b8015610a455780601f10610a1a57610100808354040283529160200191610a45565b820191906000526020600020905b815481529060010190602001808311610a2857829003601f168201915b50505050509080600b018054610a5a90613d23565b80601f0160208091040260200160405190810160405280929190818152602001828054610a8690613d23565b8015610ad35780601f10610aa857610100808354040283529160200191610ad3565b820191906000526020600020905b815481529060010190602001808311610ab657829003601f168201915b505050505090508a565b6000600260009054906101000a900463ffffffff16905090565b60008054906101000a900473ffffffffffffffffffffffffffffffffffffffff1673ffffffffffffffffffffffffffffffffffffffff1663d1e47bb33360006040518363ffffffff1660e01b8152600401610b539291906137d6565b60206040518083038186803b158015610b6b57600080fd5b505afa158015610b7f573d6000803e3d6000fd5b505050506040513d601f19601f82011682018060405250810190610ba39190612aa8565b610be2576040517f08c379a0000000000000000000000000000000000000000000000000000000008152600401610bd9906138c2565b60405180910390fd5b600160008363ffffffff1663ffffffff16815260200190815260200160002060060181908060018154018082558091505060019003906000526020600020016000909190919091509080519060200190610c3d929190612884565b505050565b610c4a61290a565b600160008363ffffffff1663ffffffff168152602001908152602001600020604051806101c00160405290816000820160009054906101000a900463ffffffff1663ffffffff1663ffffffff1681526020016000820160049054906101000a900473ffffffffffffffffffffffffffffffffffffffff1673ffffffffffffffffffffffffffffffffffffffff1673ffffffffffffffffffffffffffffffffffffffff168152602001600182018054610d0190613d23565b80601f0160208091040260200160405190810160405280929190818152602001828054610d2d90613d23565b8015610d7a5780601f10610d4f57610100808354040283529160200191610d7a565b820191906000526020600020905b815481529060010190602001808311610d5d57829003601f168201915b50505050508152602001600282018054610d9390613d23565b80601f0160208091040260200160405190810160405280929190818152602001828054610dbf90613d23565b8015610e0c5780601f10610de157610100808354040283529160200191610e0c565b820191906000526020600020905b815481529060010190602001808311610def57829003601f168201915b505050505081526020016003820160009054906101000a900460ff161515151581526020016003820160019054906101000a900460ff166003811115610e7b577f4e487b7100000000000000000000000000000000000000000000000000000000600052602160045260246000fd5b6003811115610eb3577f4e487b7100000000000000000000000000000000000000000000000000000000600052602160045260246000fd5b8152602001600482018054610ec790613d23565b80601f0160208091040260200160405190810160405280929190818152602001828054610ef390613d23565b8015610f405780601f10610f1557610100808354040283529160200191610f40565b820191906000526020600020905b815481529060010190602001808311610f2357829003601f168201915b50505050508152602001600582018054610f5990613d23565b80601f0160208091040260200160405190810160405280929190818152602001828054610f8590613d23565b8015610fd25780601f10610fa757610100808354040283529160200191610fd2565b820191906000526020600020905b815481529060010190602001808311610fb557829003601f168201915b5050505050815260200160068201805480602002602001604051908101604052809291908181526020016000905b828210156110ac57838290600052602060002001805461101f90613d23565b80601f016020809104026020016040519081016040528092919081815260200182805461104b90613d23565b80156110985780601f1061106d57610100808354040283529160200191611098565b820191906000526020600020905b81548152906001019060200180831161107b57829003601f168201915b505050505081526020019060010190611000565b50505050815260200160078201805480602002602001604051908101604052809291908181526020016000905b828210156111de578382906000526020600020906002020160405180606001604052908160008201805461110c90613d23565b80601f016020809104026020016040519081016040528092919081815260200182805461113890613d23565b80156111855780601f1061115a57610100808354040283529160200191611185565b820191906000526020600020905b81548152906001019060200180831161116857829003601f168201915b505050505081526020016001820160009054906101000a900463ffffffff1663ffffffff1663ffffffff1681526020016001820160049054906101000a900460ff161515151581525050815260200190600101906110d9565b50505050815260200160088201805480602002602001604051908101604052809291908181526020016000905b8282101561135557838290600052602060002090600302016040518060800160405290816000820160009054906101000a900463ffffffff1663ffffffff1663ffffffff1681526020016000820160049054906101000a900473ffffffffffffffffffffffffffffffffffffffff1673ffffffffffffffffffffffffffffffffffffffff1673ffffffffffffffffffffffffffffffffffffffff1681526020016001820180546112ba90613d23565b80601f01602080910402602001604051908101604052809291908181526020018280546112e690613d23565b80156113335780601f1061130857610100808354040283529160200191611333565b820191906000526020600020905b81548152906001019060200180831161131657829003601f168201915b505050505081526020016002820154815250508152602001906001019061120b565b50505050815260200160098201805480602002602001604051908101604052809291908181526020016000905b8282101561150857838290600052602060002090600402016040518060800160405290816000820160009054906101000a900463ffffffff1663ffffffff1663ffffffff1681526020016001820180546113db90613d23565b80601f016020809104026020016040519081016040528092919081815260200182805461140790613d23565b80156114545780601f1061142957610100808354040283529160200191611454565b820191906000526020600020905b81548152906001019060200180831161143757829003601f168201915b5050505050815260200160028201805461146d90613d23565b80601f016020809104026020016040519081016040528092919081815260200182805461149990613d23565b80156114e65780601f106114bb576101008083540402835291602001916114e6565b820191906000526020600020905b8154815290600101906020018083116114c957829003601f168201915b5050505050815260200160038201548152505081526020019060010190611382565b505050508152602001600a8201805461152090613d23565b80601f016020809104026020016040519081016040528092919081815260200182805461154c90613d23565b80156115995780601f1061156e57610100808354040283529160200191611599565b820191906000526020600020905b81548152906001019060200180831161157c57829003601f168201915b50505050508152602001600b820180546115b290613d23565b80601f01602080910402602001604051908101604052809291908181526020018280546115de90613d23565b801561162b5780601f106116005761010080835404028352916020019161162b565b820191906000526020600020905b81548152906001019060200180831161160e57829003601f168201915b5050505050815250509050919050565b6060600160008363ffffffff1663ffffffff168152602001908152602001600020600701805480602002602001604051908101604052809291908181526020016000905b8282101561178457838290600052602060002090600202016040518060600160405290816000820180546116b290613d23565b80601f01602080910402602001604051908101604052809291908181526020018280546116de90613d23565b801561172b5780601f106117005761010080835404028352916020019161172b565b820191906000526020600020905b81548152906001019060200180831161170e57829003601f168201915b505050505081526020016001820160009054906101000a900463ffffffff1663ffffffff1663ffffffff1681526020016001820160049054906101000a900460ff1615151515815250508152602001906001019061167f565b505050509050919050565b60008054906101000a900473ffffffffffffffffffffffffffffffffffffffff1673ffffffffffffffffffffffffffffffffffffffff1663d1e47bb33360016040518363ffffffff1660e01b81526004016117eb9291906137d6565b60206040518083038186803b15801561180357600080fd5b505afa158015611817573d6000803e3d6000fd5b505050506040513d601f19601f8201168201806040525081019061183b9190612aa8565b61187a576040517f08c379a000000000000000000000000000000000000000000000000000000000815260040161187190613922565b60405180910390fd5b600160008463ffffffff1663ffffffff16815260200190815260200160002060070160405180606001604052808481526020018363ffffffff1681526020016000151581525090806001815401808255809150506001900390600052602060002090600202016000909190919091506000820151816000019080519060200190611905929190612884565b5060208201518160010160006101000a81548163ffffffff021916908363ffffffff16021790555060408201518160010160046101000a81548160ff0219169083151502179055505050505050565b600260009054906101000a900463ffffffff1681565b60008054906101000a900473ffffffffffffffffffffffffffffffffffffffff1673ffffffffffffffffffffffffffffffffffffffff1663d1e47bb33360046040518363ffffffff1660e01b81526004016119c69291906137d6565b60206040518083038186803b1580156119de57600080fd5b505afa1580156119f2573d6000803e3d6000fd5b505050506040513d601f19601f82011682018060405250810190611a169190612aa8565b611a55576040517f08c379a0000000000000000000000000000000000000000000000000000000008152600401611a4c906138a2565b60405180910390fd5b6002600481819054906101000a900463ffffffff1680929190611a7790613d55565b91906101000a81548163ffffffff021916908363ffffffff16021790555050600160008363ffffffff1663ffffffff1681526020019081526020016000206008016040518060800160405280600260049054906101000a900463ffffffff1663ffffffff1681526020013373ffffffffffffffffffffffffffffffffffffffff16815260200183815260200142815250908060018154018082558091505060019003906000526020600020906003020160009091909190915060008201518160000160006101000a81548163ffffffff021916908363ffffffff16021790555060208201518160000160046101000a81548173ffffffffffffffffffffffffffffffffffffffff021916908373ffffffffffffffffffffffffffffffffffffffff1602179055506040820151816001019080519060200190611bba929190612884565b506060820151816002015550505050565b60008054906101000a900473ffffffffffffffffffffffffffffffffffffffff1673ffffffffffffffffffffffffffffffffffffffff1663d1e47bb33360006040518363ffffffff1660e01b8152600401611c279291906137d6565b60206040518083038186803b158015611c3f57600080fd5b505afa158015611c53573d6000803e3d6000fd5b505050506040513d601f19601f82011682018060405250810190611c779190612aa8565b611cb6576040517f08c379a0000000000000000000000000000000000000000000000000000000008152600401611cad906138c2565b60405180910390fd5b80600160008463ffffffff1663ffffffff16815260200190815260200160002060030160016101000a81548160ff02191690836003811115611d21577f4e487b7100000000000000000000000000000000000000000000000000000000600052602160045260246000fd5b02179055505050565b60008054906101000a900473ffffffffffffffffffffffffffffffffffffffff1681565b60008054906101000a900473ffffffffffffffffffffffffffffffffffffffff1673ffffffffffffffffffffffffffffffffffffffff1663d1e47bb33360006040518363ffffffff1660e01b8152600401611daa9291906137d6565b60206040518083038186803b158015611dc257600080fd5b505afa158015611dd6573d6000803e3d6000fd5b505050506040513d601f19601f82011682018060405250810190611dfa9190612aa8565b611e39576040517f08c379a0000000000000000000000000000000000000000000000000000000008152600401611e30906138c2565b60405180910390fd5b6002600081819054906101000a900463ffffffff1680929190611e5b90613d55565b91906101000a81548163ffffffff021916908363ffffffff16021790555050600260009054906101000a900463ffffffff1660016000600260009054906101000a900463ffffffff1663ffffffff1663ffffffff16815260200190815260200160002060000160006101000a81548163ffffffff021916908363ffffffff1602179055503360016000600260009054906101000a900463ffffffff1663ffffffff1663ffffffff16815260200190815260200160002060000160046101000a81548173ffffffffffffffffffffffffffffffffffffffff021916908373ffffffffffffffffffffffffffffffffffffffff1602179055508560016000600260009054906101000a900463ffffffff1663ffffffff1663ffffffff1681526020019081526020016000206001019080519060200190611f9a929190612884565b508460016000600260009054906101000a900463ffffffff1663ffffffff1663ffffffff1681526020019081526020016000206002019080519060200190611fe3929190612884565b50600060016000600260009054906101000a900463ffffffff1663ffffffff1663ffffffff16815260200190815260200160002060030160006101000a81548160ff021916908315150217905550600060016000600260009054906101000a900463ffffffff1663ffffffff1663ffffffff16815260200190815260200160002060030160016101000a81548160ff021916908360038111156120af577f4e487b7100000000000000000000000000000000000000000000000000000000600052602160045260246000fd5b02179055508360016000600260009054906101000a900463ffffffff1663ffffffff1663ffffffff16815260200190815260200160002060040190805190602001906120fc929190612884565b508260016000600260009054906101000a900463ffffffff1663ffffffff1663ffffffff1681526020019081526020016000206005019080519060200190612145929190612884565b508160016000600260009054906101000a900463ffffffff1663ffffffff1663ffffffff168152602001908152602001600020600a01908051906020019061218e929190612884565b508060016000600260009054906101000a900463ffffffff1663ffffffff1663ffffffff168152602001908152602001600020600b0190805190602001906121d7929190612884565b50505050505050565b600260049054906101000a900463ffffffff1681565b6000600260049054906101000a900463ffffffff16905090565b6060600160008363ffffffff1663ffffffff168152602001908152602001600020600801805480602002602001604051908101604052809291908181526020016000905b8282101561239e57838290600052602060002090600302016040518060800160405290816000820160009054906101000a900463ffffffff1663ffffffff1663ffffffff1681526020016000820160049054906101000a900473ffffffffffffffffffffffffffffffffffffffff1673ffffffffffffffffffffffffffffffffffffffff1673ffffffffffffffffffffffffffffffffffffffff16815260200160018201805461230390613d23565b80601f016020809104026020016040519081016040528092919081815260200182805461232f90613d23565b801561237c5780601f106123515761010080835404028352916020019161237c565b820191906000526020600020905b81548152906001019060200180831161235f57829003601f168201915b5050505050815260200160028201548152505081526020019060010190612254565b505050509050919050565b6060600160008363ffffffff1663ffffffff168152602001908152602001600020600901805480602002602001604051908101604052809291908181526020016000905b8282101561257357838290600052602060002090600402016040518060800160405290816000820160009054906101000a900463ffffffff1663ffffffff1663ffffffff16815260200160018201805461244690613d23565b80601f016020809104026020016040519081016040528092919081815260200182805461247290613d23565b80156124bf5780601f10612494576101008083540402835291602001916124bf565b820191906000526020600020905b8154815290600101906020018083116124a257829003601f168201915b505050505081526020016002820180546124d890613d23565b80601f016020809104026020016040519081016040528092919081815260200182805461250490613d23565b80156125515780601f1061252657610100808354040283529160200191612551565b820191906000526020600020905b81548152906001019060200180831161253457829003601f168201915b50505050508152602001600382015481525050815260200190600101906123ed565b505050509050919050565b60008054906101000a900473ffffffffffffffffffffffffffffffffffffffff1673ffffffffffffffffffffffffffffffffffffffff1663d1e47bb33360026040518363ffffffff1660e01b81526004016125da9291906137d6565b60206040518083038186803b1580156125f257600080fd5b505afa158015612606573d6000803e3d6000fd5b505050506040513d601f19601f8201168201806040525081019061262a9190612aa8565b612669576040517f08c379a0000000000000000000000000000000000000000000000000000000008152600401612660906138e2565b60405180910390fd5b600160038111156126a3577f4e487b7100000000000000000000000000000000000000000000000000000000600052602160045260246000fd5b600160008463ffffffff1663ffffffff16815260200190815260200160002060030160019054906101000a900460ff16600381111561270b577f4e487b7100000000000000000000000000000000000000000000000000000000600052602160045260246000fd5b1461274b576040517f08c379a000000000000000000000000000000000000000000000000000000000815260040161274290613902565b60405180910390fd5b80600160008463ffffffff1663ffffffff16815260200190815260200160002060030160006101000a81548160ff0219169083151502179055505050565b6060600160008363ffffffff1663ffffffff168152602001908152602001600020600601805480602002602001604051908101604052809291908181526020016000905b828210156128795783829060005260206000200180546127ec90613d23565b80601f016020809104026020016040519081016040528092919081815260200182805461281890613d23565b80156128655780601f1061283a57610100808354040283529160200191612865565b820191906000526020600020905b81548152906001019060200180831161284857829003601f168201915b5050505050815260200190600101906127cd565b505050509050919050565b82805461289090613d23565b90600052602060002090601f0160209004810192826128b257600085556128f9565b82601f106128cb57805160ff19168380011785556128f9565b828001600101855582156128f9579182015b828111156128f85782518255916020019190600101906128dd565b5b50905061290691906129cf565b5090565b604051806101c00160405280600063ffffffff168152602001600073ffffffffffffffffffffffffffffffffffffffff168152602001606081526020016060815260200160001515815260200160006003811115612991577f4e487b7100000000000000000000000000000000000000000000000000000000600052602160045260246000fd5b815260200160608152602001606081526020016060815260200160608152602001606081526020016060815260200160608152602001606081525090565b5b808211156129e85760008160009055506001016129d0565b5090565b60006129ff6129fa84613a76565b613a45565b905082815260208101848484011115612a1757600080fd5b612a22848285613ce1565b509392505050565b600081359050612a3981613e77565b92915050565b600081519050612a4e81613e77565b92915050565b600081359050612a6381613e8e565b92915050565b600082601f830112612a7a57600080fd5b8135612a8a8482602086016129ec565b91505092915050565b600081359050612aa281613e9e565b92915050565b600060208284031215612aba57600080fd5b6000612ac884828501612a3f565b91505092915050565b60008060008060008060c08789031215612aea57600080fd5b600087013567ffffffffffffffff811115612b0457600080fd5b612b1089828a01612a69565b965050602087013567ffffffffffffffff811115612b2d57600080fd5b612b3989828a01612a69565b955050604087013567ffffffffffffffff811115612b5657600080fd5b612b6289828a01612a69565b945050606087013567ffffffffffffffff811115612b7f57600080fd5b612b8b89828a01612a69565b935050608087013567ffffffffffffffff811115612ba857600080fd5b612bb489828a01612a69565b92505060a087013567ffffffffffffffff811115612bd157600080fd5b612bdd89828a01612a69565b9150509295509295509295565b600060208284031215612bfc57600080fd5b6000612c0a84828501612a93565b91505092915050565b60008060408385031215612c2657600080fd5b6000612c3485828601612a93565b9250506020612c4585828601612a2a565b9150509250929050565b60008060408385031215612c6257600080fd5b6000612c7085828601612a93565b9250506020612c8185828601612a54565b9150509250929050565b60008060408385031215612c9e57600080fd5b6000612cac85828601612a93565b925050602083013567ffffffffffffffff811115612cc957600080fd5b612cd585828601612a69565b9150509250929050565b600080600060608486031215612cf457600080fd5b6000612d0286828701612a93565b935050602084013567ffffffffffffffff811115612d1f57600080fd5b612d2b86828701612a69565b9250506040612d3c86828701612a2a565b9150509250925092565b600080600060608486031215612d5b57600080fd5b6000612d6986828701612a93565b935050602084013567ffffffffffffffff811115612d8657600080fd5b612d9286828701612a69565b9250506040612da386828701612a93565b9150509250925092565b6000612db9838361321d565b905092915050565b6000612dcd83836134f1565b905092915050565b6000612de1838361355b565b905092915050565b6000612df583836135be565b905092915050565b612e0681613c1b565b82525050565b612e1581613c1b565b82525050565b6000612e2682613afb565b612e308185613b66565b935083602082028501612e4285613aa6565b8060005b85811015612e7e5784840389528151612e5f8582612dad565b9450612e6a83613b32565b925060208a01995050600181019050612e46565b50829750879550505050505092915050565b6000612e9b82613afb565b612ea58185613b77565b935083602082028501612eb785613aa6565b8060005b85811015612ef35784840389528151612ed48582612dad565b9450612edf83613b32565b925060208a01995050600181019050612ebb565b50829750879550505050505092915050565b6000612f1082613b06565b612f1a8185613b88565b935083602082028501612f2c85613ab6565b8060005b85811015612f685784840389528151612f498582612dc1565b9450612f5483613b3f565b925060208a01995050600181019050612f30565b50829750879550505050505092915050565b6000612f8582613b06565b612f8f8185613b99565b935083602082028501612fa185613ab6565b8060005b85811015612fdd5784840389528151612fbe8582612dc1565b9450612fc983613b3f565b925060208a01995050600181019050612fa5565b50829750879550505050505092915050565b6000612ffa82613b11565b6130048185613baa565b93508360208202850161301685613ac6565b8060005b8581101561305257848403895281516130338582612dd5565b945061303e83613b4c565b925060208a0199505060018101905061301a565b50829750879550505050505092915050565b600061306f82613b11565b6130798185613bbb565b93508360208202850161308b85613ac6565b8060005b858110156130c757848403895281516130a88582612dd5565b94506130b383613b4c565b925060208a0199505060018101905061308f565b50829750879550505050505092915050565b60006130e482613b1c565b6130ee8185613bcc565b93508360208202850161310085613ad6565b8060005b8581101561313c578484038952815161311d8582612de9565b945061312883613b59565b925060208a01995050600181019050613104565b50829750879550505050505092915050565b600061315982613b1c565b6131638185613bdd565b93508360208202850161317585613ad6565b8060005b858110156131b157848403895281516131928582612de9565b945061319d83613b59565b925060208a01995050600181019050613179565b50829750879550505050505092915050565b6131cc81613c2d565b82525050565b6131db81613c2d565b82525050565b6131ea81613c99565b82525050565b6131f981613cbd565b82525050565b61320881613cbd565b82525050565b61321781613ccf565b82525050565b600061322882613b27565b6132328185613bee565b9350613242818560208601613cf0565b61324b81613e3e565b840191505092915050565b600061326182613b27565b61326b8185613bff565b935061327b818560208601613cf0565b61328481613e3e565b840191505092915050565b600061329a82613b27565b6132a48185613c10565b93506132b4818560208601613cf0565b80840191505092915050565b600081546132cd81613d23565b6132d78186613c10565b945060018216600081146132f2576001811461330357613336565b60ff19831686528186019350613336565b61330c85613ae6565b60005b8381101561332e5781548189015260018201915060208101905061330f565b838801955050505b50505092915050565b600061334c602083613bff565b91507f4e6f6e206175746f726973653a207365756c656d656e742041756469746575726000830152602082019050919050565b600061338c602283613bff565b91507f4e6f6e206175746f726973653a207365756c656d656e742050726f647563746560008301527f75720000000000000000000000000000000000000000000000000000000000006020830152604082019050919050565b60006133f2602583613bff565b91507f4e6f6e206175746f726973653a207365756c656d656e7420436572746966696360008301527f61746575720000000000000000000000000000000000000000000000000000006020830152604082019050919050565b6000613458601783613bff565b91507f50617320656e2065746170652064652063756c747572650000000000000000006000830152602082019050919050565b6000613498602383613bff565b91507f4e6f6e206175746f726973653a207365756c656d656e7420466f75726e69737360008301527f65757200000000000000000000000000000000000000000000000000000000006020830152604082019050919050565b6000608083016000830151613509600086018261378a565b5060208301518482036020860152613521828261321d565b9150506040830151848203604086015261353b828261321d565b9150506060830151613550606086018261377b565b508091505092915050565b6000608083016000830151613573600086018261378a565b5060208301516135866020860182612dfd565b506040830151848203604086015261359e828261321d565b91505060608301516135b3606086018261377b565b508091505092915050565b600060608301600083015184820360008601526135db828261321d565b91505060208301516135f0602086018261378a565b50604083015161360360408601826131c3565b508091505092915050565b60006101c083016000830151613627600086018261378a565b50602083015161363a6020860182612dfd565b5060408301518482036040860152613652828261321d565b9150506060830151848203606086015261366c828261321d565b915050608083015161368160808601826131c3565b5060a083015161369460a08601826131f0565b5060c083015184820360c08601526136ac828261321d565b91505060e083015184820360e08601526136c6828261321d565b9150506101008301518482036101008601526136e28282612e1b565b9150506101208301518482036101208601526136fe82826130d9565b91505061014083015184820361014086015261371a8282612fef565b9150506101608301518482036101608601526137368282612f05565b915050610180830151848203610180860152613752828261321d565b9150506101a08301518482036101a086015261376e828261321d565b9150508091505092915050565b61378481613c7f565b82525050565b61379381613c89565b82525050565b6137a281613c89565b82525050565b60006137b4828461328f565b915081905092915050565b60006137cb82846132c0565b915081905092915050565b60006040820190506137eb6000830185612e0c565b6137f8602083018461320e565b9392505050565b600060208201905081810360008301526138198184612e90565b905092915050565b6000602082019050818103600083015261383b8184612f7a565b905092915050565b6000602082019050818103600083015261385d8184613064565b905092915050565b6000602082019050818103600083015261387f818461314e565b905092915050565b600060208201905061389c60008301846131e1565b92915050565b600060208201905081810360008301526138bb8161333f565b9050919050565b600060208201905081810360008301526138db8161337f565b9050919050565b600060208201905081810360008301526138fb816133e5565b9050919050565b6000602082019050818103600083015261391b8161344b565b9050919050565b6000602082019050818103600083015261393b8161348b565b9050919050565b6000602082019050818103600083015261395c818461360e565b905092915050565b60006020820190506139796000830184613799565b92915050565b600061014082019050613995600083018d613799565b6139a2602083018c612e0c565b81810360408301526139b4818b613256565b905081810360608301526139c8818a613256565b90506139d760808301896131d2565b6139e460a08301886131ff565b81810360c08301526139f68187613256565b905081810360e0830152613a0a8186613256565b9050818103610100830152613a1f8185613256565b9050818103610120830152613a348184613256565b90509b9a5050505050505050505050565b6000604051905081810181811067ffffffffffffffff82111715613a6c57613a6b613e0f565b5b8060405250919050565b600067ffffffffffffffff821115613a9157613a90613e0f565b5b601f19601f8301169050602081019050919050565b6000819050602082019050919050565b6000819050602082019050919050565b6000819050602082019050919050565b6000819050602082019050919050565b60008190508160005260206000209050919050565b600081519050919050565b600081519050919050565b600081519050919050565b600081519050919050565b600081519050919050565b6000602082019050919050565b6000602082019050919050565b6000602082019050919050565b6000602082019050919050565b600082825260208201905092915050565b600082825260208201905092915050565b600082825260208201905092915050565b600082825260208201905092915050565b600082825260208201905092915050565b600082825260208201905092915050565b600082825260208201905092915050565b600082825260208201905092915050565b600082825260208201905092915050565b600082825260208201905092915050565b600081905092915050565b6000613c2682613c5f565b9050919050565b60008115159050919050565b6000819050613c4782613e4f565b919050565b6000819050613c5a82613e63565b919050565b600073ffffffffffffffffffffffffffffffffffffffff82169050919050565b6000819050919050565b600063ffffffff82169050919050565b6000613ca482613cab565b9050919050565b6000613cb682613c5f565b9050919050565b6000613cc882613c39565b9050919050565b6000613cda82613c4c565b9050919050565b82818337600083830152505050565b60005b83811015613d0e578082015181840152602081019050613cf3565b83811115613d1d576000848401525b50505050565b60006002820490506001821680613d3b57607f821691505b60208210811415613d4f57613d4e613de0565b5b50919050565b6000613d6082613c89565b915063ffffffff821415613d7757613d76613d82565b5b600182019050919050565b7f4e487b7100000000000000000000000000000000000000000000000000000000600052601160045260246000fd5b7f4e487b7100000000000000000000000000000000000000000000000000000000600052602160045260246000fd5b7f4e487b7100000000000000000000000000000000000000000000000000000000600052602260045260246000fd5b7f4e487b7100000000000000000000000000000000000000000000000000000000600052604160045260246000fd5b6000601f19601f8301169050919050565b60048110613e6057613e5f613db1565b5b50565b60088110613e7457613e73613db1565b5b50565b613e8081613c2d565b8114613e8b57600080fd5b50565b60048110613e9b57600080fd5b50565b613ea781613c89565b8114613eb257600080fd5b5056fea264697066735822122027517a0241b66f09a34b4a5fe119f02fef270d4138c5ae13b8681c36e268481564736f6c63430008000033",
  "linkReferences": {},
  "deployedLinkReferences": {}
}