{
  "_format": "hh-sol-artifact-1",
  "contractName": "ProducteurEnPhaseCulture",
  "sourceName": "contracts/ProducteurEnPhaseCulture.sol",
  "abi": [
    {
      "stateMutability": "payable",
      "type": "fallback"
    },
    {
      "inputs": [],
      "name": "compteurInspections",
      "outputs": [
        {
          "internalType": "uint32",
          "name": "",
          "type": "uint32"
        }
      ],
      "stateMutability": "view",
      "type": "function"
    },
    {
      "inputs": [],
      "name": "compteurIntrants",
      "outputs": [
        {
          "internalType": "uint32",
          "name": "",
          "type": "uint32"
        }
      ],
      "stateMutability": "view",
      "type": "function"
    },
    {
      "inputs": [],
      "name": "compteurParcelles",
      "outputs": [
        {
          "internalType": "uint32",
          "name": "",
          "type": "uint32"
        }
      ],
      "stateMutability": "view",
      "type": "function"
    },
    {
      "inputs": [
        {
          "internalType": "string",
          "name": "_ipfs",
          "type": "string"
        }
      ],
      "name": "creerParcelle",
      "outputs": [],
      "stateMutability": "nonpayable",
      "type": "function"
    },
    {
      "inputs": [],
      "name": "gestionnaireActeurs",
      "outputs": [
        {
          "internalType": "contract GestionnaireActeurs",
          "name": "",
          "type": "address"
        }
      ],
      "stateMutability": "view",
      "type": "function"
    },
    {
      "inputs": [],
      "name": "getCompteurParcelle",
      "outputs": [
        {
          "internalType": "uint32",
          "name": "",
          "type": "uint32"
        }
      ],
      "stateMutability": "view",
      "type": "function"
    },
    {
      "inputs": [
        {
          "internalType": "uint32",
          "name": "id",
          "type": "uint32"
        }
      ],
      "name": "getParcelle",
      "outputs": [
        {
          "components": [
            {
              "internalType": "uint32",
              "name": "id",
              "type": "uint32"
            },
            {
              "internalType": "address",
              "name": "producteur",
              "type": "address"
            },
            {
              "internalType": "string",
              "name": "cid",
              "type": "string"
            },
            {
              "internalType": "bytes32",
              "name": "hashMerkle",
              "type": "bytes32"
            }
          ],
          "internalType": "struct StructLib.Parcelle",
          "name": "",
          "type": "tuple"
        }
      ],
      "stateMutability": "view",
      "type": "function"
    },
    {
      "inputs": [
        {
          "internalType": "address",
          "name": "_gestionnaireActeurs",
          "type": "address"
        }
      ],
      "name": "initialiser",
      "outputs": [],
      "stateMutability": "nonpayable",
      "type": "function"
    },
    {
      "inputs": [
        {
          "internalType": "uint32",
          "name": "_idParcelle",
          "type": "uint32"
        },
        {
          "internalType": "string",
          "name": "_cidInspections",
          "type": "string"
        }
      ],
      "name": "mettreAJourInspectionsParcelle",
      "outputs": [],
      "stateMutability": "nonpayable",
      "type": "function"
    },
    {
      "inputs": [
        {
          "internalType": "uint32",
          "name": "_idParcelle",
          "type": "uint32"
        },
        {
          "internalType": "string",
          "name": "_cidIntrants",
          "type": "string"
        }
      ],
      "name": "mettreAJourIntrantsParcelle",
      "outputs": [],
      "stateMutability": "nonpayable",
      "type": "function"
    },
    {
      "inputs": [
        {
          "internalType": "uint32",
          "name": "_idParcelle",
          "type": "uint32"
        },
        {
          "internalType": "string",
          "name": "_cidPhotos",
          "type": "string"
        }
      ],
      "name": "mettreAJourPhotosParcelle",
      "outputs": [],
      "stateMutability": "nonpayable",
      "type": "function"
    },
    {
      "inputs": [
        {
          "internalType": "uint32",
          "name": "",
          "type": "uint32"
        }
      ],
      "name": "parcelles",
      "outputs": [
        {
          "internalType": "uint32",
          "name": "id",
          "type": "uint32"
        },
        {
          "internalType": "address",
          "name": "producteur",
          "type": "address"
        },
        {
          "internalType": "string",
          "name": "cid",
          "type": "string"
        },
        {
          "internalType": "bytes32",
          "name": "hashMerkle",
          "type": "bytes32"
        }
      ],
      "stateMutability": "view",
      "type": "function"
    },
    {
      "stateMutability": "payable",
      "type": "receive"
    }
  ],
  "bytecode": "0x608060405234801561001057600080fd5b50611d37806100206000396000f3fe6080604052600436106100ab5760003560e01c80639e942cd4116100645780639e942cd4146101d9578063bd6e11d514610204578063be7a880e1461022d578063ca4b34c414610256578063cda36e631461027f578063f54e44fc146102aa576100b2565b80630fb8af74146100b45780631912121d146100dd57806331686f411461011d578063421b3e08146101485780634fbdf4fe1461018557806361153ee9146101ae576100b2565b366100b257005b005b3480156100c057600080fd5b506100db60048036038101906100d69190611393565b6102d5565b005b3480156100e957600080fd5b5061010460048036038101906100ff919061136a565b610546565b6040516101149493929190611950565b60405180910390f35b34801561012957600080fd5b5061013261062e565b60405161013f9190611935565b60405180910390f35b34801561015457600080fd5b5061016f600480360381019061016a919061136a565b610648565b60405161017c9190611913565b60405180910390f35b34801561019157600080fd5b506101ac60048036038101906101a791906112d7565b610799565b005b3480156101ba57600080fd5b506101c3610847565b6040516101d09190611935565b60405180910390f35b3480156101e557600080fd5b506101ee61085d565b6040516101fb9190611838565b60405180910390f35b34801561021057600080fd5b5061022b60048036038101906102269190611393565b610881565b005b34801561023957600080fd5b50610254600480360381019061024f9190611393565b610af2565b005b34801561026257600080fd5b5061027d60048036038101906102789190611329565b610d63565b005b34801561028b57600080fd5b5061029461111a565b6040516102a19190611935565b60405180910390f35b3480156102b657600080fd5b506102bf611130565b6040516102cc9190611935565b60405180910390f35b60008054906101000a900473ffffffffffffffffffffffffffffffffffffffff1673ffffffffffffffffffffffffffffffffffffffff1663d1e47bb33360046040518363ffffffff1660e01b815260040161033192919061180f565b60206040518083038186803b15801561034957600080fd5b505afa15801561035d573d6000803e3d6000fd5b505050506040513d601f19601f820116820180604052508101906103819190611300565b6103c0576040517f08c379a00000000000000000000000000000000000000000000000000000000081526004016103b790611853565b60405180910390fd5b60008054906101000a900473ffffffffffffffffffffffffffffffffffffffff1673ffffffffffffffffffffffffffffffffffffffff16639f7d7f4533306040518363ffffffff1660e01b815260040161041b9291906117e6565b60206040518083038186803b15801561043357600080fd5b505afa158015610447573d6000803e3d6000fd5b505050506040513d601f19601f8201168201806040525081019061046b9190611300565b6104aa576040517f08c379a00000000000000000000000000000000000000000000000000000000081526004016104a1906118b3565b60405180910390fd5b600260009054906101000a900463ffffffff1663ffffffff168263ffffffff16111561050b576040517f08c379a000000000000000000000000000000000000000000000000000000000815260040161050290611893565b60405180910390fd5b80600160008463ffffffff1663ffffffff1681526020019081526020016000206001019080519060200190610541929190611146565b505050565b60016020528060005260406000206000915090508060000160009054906101000a900463ffffffff16908060000160049054906101000a900473ffffffffffffffffffffffffffffffffffffffff16908060010180546105a590611b22565b80601f01602080910402602001604051908101604052809291908181526020018280546105d190611b22565b801561061e5780601f106105f35761010080835404028352916020019161061e565b820191906000526020600020905b81548152906001019060200180831161060157829003601f168201915b5050505050908060020154905084565b6000600260009054906101000a900463ffffffff16905090565b6106506111cc565b600160008363ffffffff1663ffffffff1681526020019081526020016000206040518060800160405290816000820160009054906101000a900463ffffffff1663ffffffff1663ffffffff1681526020016000820160049054906101000a900473ffffffffffffffffffffffffffffffffffffffff1673ffffffffffffffffffffffffffffffffffffffff1673ffffffffffffffffffffffffffffffffffffffff16815260200160018201805461070690611b22565b80601f016020809104026020016040519081016040528092919081815260200182805461073290611b22565b801561077f5780601f106107545761010080835404028352916020019161077f565b820191906000526020600020905b81548152906001019060200180831161076257829003601f168201915b505050505081526020016002820154815250509050919050565b6002600c9054906101000a900460ff16156107e9576040517f08c379a00000000000000000000000000000000000000000000000000000000081526004016107e0906118f3565b60405180910390fd5b806000806101000a81548173ffffffffffffffffffffffffffffffffffffffff021916908373ffffffffffffffffffffffffffffffffffffffff16021790555060016002600c6101000a81548160ff02191690831515021790555050565b600260009054906101000a900463ffffffff1681565b60008054906101000a900473ffffffffffffffffffffffffffffffffffffffff1681565b60008054906101000a900473ffffffffffffffffffffffffffffffffffffffff1673ffffffffffffffffffffffffffffffffffffffff1663d1e47bb33360016040518363ffffffff1660e01b81526004016108dd92919061180f565b60206040518083038186803b1580156108f557600080fd5b505afa158015610909573d6000803e3d6000fd5b505050506040513d601f19601f8201168201806040525081019061092d9190611300565b61096c576040517f08c379a0000000000000000000000000000000000000000000000000000000008152600401610963906118d3565b60405180910390fd5b60008054906101000a900473ffffffffffffffffffffffffffffffffffffffff1673ffffffffffffffffffffffffffffffffffffffff16639f7d7f4533306040518363ffffffff1660e01b81526004016109c79291906117e6565b60206040518083038186803b1580156109df57600080fd5b505afa1580156109f3573d6000803e3d6000fd5b505050506040513d601f19601f82011682018060405250810190610a179190611300565b610a56576040517f08c379a0000000000000000000000000000000000000000000000000000000008152600401610a4d906118b3565b60405180910390fd5b600260009054906101000a900463ffffffff1663ffffffff168263ffffffff161115610ab7576040517f08c379a0000000000000000000000000000000000000000000000000000000008152600401610aae90611893565b60405180910390fd5b80600160008463ffffffff1663ffffffff1681526020019081526020016000206001019080519060200190610aed929190611146565b505050565b60008054906101000a900473ffffffffffffffffffffffffffffffffffffffff1673ffffffffffffffffffffffffffffffffffffffff1663d1e47bb33360006040518363ffffffff1660e01b8152600401610b4e92919061180f565b60206040518083038186803b158015610b6657600080fd5b505afa158015610b7a573d6000803e3d6000fd5b505050506040513d601f19601f82011682018060405250810190610b9e9190611300565b610bdd576040517f08c379a0000000000000000000000000000000000000000000000000000000008152600401610bd490611873565b60405180910390fd5b60008054906101000a900473ffffffffffffffffffffffffffffffffffffffff1673ffffffffffffffffffffffffffffffffffffffff16639f7d7f4533306040518363ffffffff1660e01b8152600401610c389291906117e6565b60206040518083038186803b158015610c5057600080fd5b505afa158015610c64573d6000803e3d6000fd5b505050506040513d601f19601f82011682018060405250810190610c889190611300565b610cc7576040517f08c379a0000000000000000000000000000000000000000000000000000000008152600401610cbe906118b3565b60405180910390fd5b600260009054906101000a900463ffffffff1663ffffffff168263ffffffff161115610d28576040517f08c379a0000000000000000000000000000000000000000000000000000000008152600401610d1f90611893565b60405180910390fd5b80600160008463ffffffff1663ffffffff1681526020019081526020016000206001019080519060200190610d5e929190611146565b505050565b60008054906101000a900473ffffffffffffffffffffffffffffffffffffffff1673ffffffffffffffffffffffffffffffffffffffff1663d1e47bb33360006040518363ffffffff1660e01b8152600401610dbf92919061180f565b60206040518083038186803b158015610dd757600080fd5b505afa158015610deb573d6000803e3d6000fd5b505050506040513d601f19601f82011682018060405250810190610e0f9190611300565b610e4e576040517f08c379a0000000000000000000000000000000000000000000000000000000008152600401610e4590611873565b60405180910390fd5b60008054906101000a900473ffffffffffffffffffffffffffffffffffffffff1673ffffffffffffffffffffffffffffffffffffffff16639f7d7f4533306040518363ffffffff1660e01b8152600401610ea99291906117e6565b60206040518083038186803b158015610ec157600080fd5b505afa158015610ed5573d6000803e3d6000fd5b505050506040513d601f19601f82011682018060405250810190610ef99190611300565b610f38576040517f08c379a0000000000000000000000000000000000000000000000000000000008152600401610f2f906118b3565b60405180910390fd5b6002600081819054906101000a900463ffffffff1680929190610f5a90611b54565b91906101000a81548163ffffffff021916908363ffffffff160217905550506000600260009054906101000a900463ffffffff16338342604051602001610fa4949392919061179c565b604051602081830303815290604052805190602001209050600260009054906101000a900463ffffffff1660016000600260009054906101000a900463ffffffff1663ffffffff1663ffffffff16815260200190815260200160002060000160006101000a81548163ffffffff021916908363ffffffff1602179055503360016000600260009054906101000a900463ffffffff1663ffffffff1663ffffffff16815260200190815260200160002060000160046101000a81548173ffffffffffffffffffffffffffffffffffffffff021916908373ffffffffffffffffffffffffffffffffffffffff1602179055508160016000600260009054906101000a900463ffffffff1663ffffffff1663ffffffff16815260200190815260200160002060010190805190602001906110dc929190611146565b508060016000600260009054906101000a900463ffffffff1663ffffffff1663ffffffff168152602001908152602001600020600201819055505050565b600260049054906101000a900463ffffffff1681565b600260089054906101000a900463ffffffff1681565b82805461115290611b22565b90600052602060002090601f01602090048101928261117457600085556111bb565b82601f1061118d57805160ff19168380011785556111bb565b828001600101855582156111bb579182015b828111156111ba57825182559160200191906001019061119f565b5b5090506111c89190611213565b5090565b6040518060800160405280600063ffffffff168152602001600073ffffffffffffffffffffffffffffffffffffffff16815260200160608152602001600080191681525090565b5b8082111561122c576000816000905550600101611214565b5090565b600061124361123e846119cd565b61199c565b90508281526020810184848401111561125b57600080fd5b611266848285611ae0565b509392505050565b60008135905061127d81611cbc565b92915050565b60008151905061129281611cd3565b92915050565b600082601f8301126112a957600080fd5b81356112b9848260208601611230565b91505092915050565b6000813590506112d181611cea565b92915050565b6000602082840312156112e957600080fd5b60006112f78482850161126e565b91505092915050565b60006020828403121561131257600080fd5b600061132084828501611283565b91505092915050565b60006020828403121561133b57600080fd5b600082013567ffffffffffffffff81111561135557600080fd5b61136184828501611298565b91505092915050565b60006020828403121561137c57600080fd5b600061138a848285016112c2565b91505092915050565b600080604083850312156113a657600080fd5b60006113b4858286016112c2565b925050602083013567ffffffffffffffff8111156113d157600080fd5b6113dd85828601611298565b9150509250929050565b6113f081611a35565b82525050565b6113ff81611a35565b82525050565b61141661141182611a35565b611b81565b82525050565b61142581611a53565b82525050565b61143481611a53565b82525050565b61144381611aaa565b82525050565b61145281611ace565b82525050565b6000611463826119fd565b61146d8185611a08565b935061147d818560208601611aef565b61148681611c7d565b840191505092915050565b600061149c826119fd565b6114a68185611a19565b93506114b6818560208601611aef565b6114bf81611c7d565b840191505092915050565b60006114d5826119fd565b6114df8185611a2a565b93506114ef818560208601611aef565b80840191505092915050565b6000611508602083611a19565b91507f4e6f6e206175746f726973653a207365756c656d656e742041756469746575726000830152602082019050919050565b6000611548602283611a19565b91507f4e6f6e206175746f726973653a207365756c656d656e742050726f647563746560008301527f75720000000000000000000000000000000000000000000000000000000000006020830152604082019050919050565b60006115ae601683611a19565b91507f50617263656c6c65206e6f6e206578697374616e742e000000000000000000006000830152602082019050919050565b60006115ee602183611a19565b91507f4e6f6e206175746f726973653a20636f6e74726174206e6f6e2064656c65677560008301527f65000000000000000000000000000000000000000000000000000000000000006020830152604082019050919050565b6000611654602383611a19565b91507f4e6f6e206175746f726973653a207365756c656d656e7420466f75726e69737360008301527f65757200000000000000000000000000000000000000000000000000000000006020830152604082019050919050565b60006116ba601a83611a19565b91507f436f6e747261742064656a6120696e697469616c6973657220210000000000006000830152602082019050919050565b60006080830160008301516117056000860182611767565b50602083015161171860208601826113e7565b50604083015184820360408601526117308282611458565b9150506060830151611745606086018261141c565b508091505092915050565b61176161175c82611a90565b611ba5565b82525050565b61177081611a9a565b82525050565b61177f81611a9a565b82525050565b61179661179182611a9a565b611baf565b82525050565b60006117a88287611785565b6004820191506117b88286611405565b6014820191506117c882856114ca565b91506117d48284611750565b60208201915081905095945050505050565b60006040820190506117fb60008301856113f6565b61180860208301846113f6565b9392505050565b600060408201905061182460008301856113f6565b6118316020830184611449565b9392505050565b600060208201905061184d600083018461143a565b92915050565b6000602082019050818103600083015261186c816114fb565b9050919050565b6000602082019050818103600083015261188c8161153b565b9050919050565b600060208201905081810360008301526118ac816115a1565b9050919050565b600060208201905081810360008301526118cc816115e1565b9050919050565b600060208201905081810360008301526118ec81611647565b9050919050565b6000602082019050818103600083015261190c816116ad565b9050919050565b6000602082019050818103600083015261192d81846116ed565b905092915050565b600060208201905061194a6000830184611776565b92915050565b60006080820190506119656000830187611776565b61197260208301866113f6565b81810360408301526119848185611491565b9050611993606083018461142b565b95945050505050565b6000604051905081810181811067ffffffffffffffff821117156119c3576119c2611c4e565b5b8060405250919050565b600067ffffffffffffffff8211156119e8576119e7611c4e565b5b601f19601f8301169050602081019050919050565b600081519050919050565b600082825260208201905092915050565b600082825260208201905092915050565b600081905092915050565b6000611a4082611a70565b9050919050565b60008115159050919050565b6000819050919050565b6000819050611a6b82611ca8565b919050565b600073ffffffffffffffffffffffffffffffffffffffff82169050919050565b6000819050919050565b600063ffffffff82169050919050565b6000611ab582611abc565b9050919050565b6000611ac782611a70565b9050919050565b6000611ad982611a5d565b9050919050565b82818337600083830152505050565b60005b83811015611b0d578082015181840152602081019050611af2565b83811115611b1c576000848401525b50505050565b60006002820490506001821680611b3a57607f821691505b60208210811415611b4e57611b4d611c1f565b5b50919050565b6000611b5f82611a9a565b915063ffffffff821415611b7657611b75611bc1565b5b600182019050919050565b6000611b8c82611b93565b9050919050565b6000611b9e82611c9b565b9050919050565b6000819050919050565b6000611bba82611c8e565b9050919050565b7f4e487b7100000000000000000000000000000000000000000000000000000000600052601160045260246000fd5b7f4e487b7100000000000000000000000000000000000000000000000000000000600052602160045260246000fd5b7f4e487b7100000000000000000000000000000000000000000000000000000000600052602260045260246000fd5b7f4e487b7100000000000000000000000000000000000000000000000000000000600052604160045260246000fd5b6000601f19601f8301169050919050565b60008160e01b9050919050565b60008160601b9050919050565b60088110611cb957611cb8611bf0565b5b50565b611cc581611a35565b8114611cd057600080fd5b50565b611cdc81611a47565b8114611ce757600080fd5b50565b611cf381611a9a565b8114611cfe57600080fd5b5056fea26469706673582212205e3fed86ab358c3f0aa714ee46b5c741fef899274f4a2117956e68ef998f36dc64736f6c63430008000033",
  "linkReferences": {},
  "deployedLinkReferences": {}
}