{
  "_format": "hh-sol-artifact-1",
  "contractName": "ProducteurEnPhaseCulture",
  "sourceName": "contracts/ProducteurEnPhaseCulture.sol",
  "abi": [
    {
      "stateMutability": "payable",
      "type": "fallback"
    },
    {
      "inputs": [
        {
          "internalType": "uint32",
          "name": "_idParcelle",
          "type": "uint32"
        },
        {
          "internalType": "string",
          "name": "_hash",
          "type": "string"
        }
      ],
      "name": "ajoutHashMerkleParcelle",
      "outputs": [],
      "stateMutability": "nonpayable",
      "type": "function"
    },
    {
      "inputs": [],
      "name": "compteurInspections",
      "outputs": [
        {
          "internalType": "uint32",
          "name": "",
          "type": "uint32"
        }
      ],
      "stateMutability": "view",
      "type": "function"
    },
    {
      "inputs": [],
      "name": "compteurIntrants",
      "outputs": [
        {
          "internalType": "uint32",
          "name": "",
          "type": "uint32"
        }
      ],
      "stateMutability": "view",
      "type": "function"
    },
    {
      "inputs": [],
      "name": "compteurParcelles",
      "outputs": [
        {
          "internalType": "uint32",
          "name": "",
          "type": "uint32"
        }
      ],
      "stateMutability": "view",
      "type": "function"
    },
    {
      "inputs": [
        {
          "internalType": "string",
          "name": "_ipfs",
          "type": "string"
        }
      ],
      "name": "creerParcelle",
      "outputs": [],
      "stateMutability": "nonpayable",
      "type": "function"
    },
    {
      "inputs": [],
      "name": "gestionnaireActeurs",
      "outputs": [
        {
          "internalType": "contract GestionnaireActeurs",
          "name": "",
          "type": "address"
        }
      ],
      "stateMutability": "view",
      "type": "function"
    },
    {
      "inputs": [],
      "name": "getCompteurParcelle",
      "outputs": [
        {
          "internalType": "uint32",
          "name": "",
          "type": "uint32"
        }
      ],
      "stateMutability": "view",
      "type": "function"
    },
    {
      "inputs": [
        {
          "internalType": "uint32",
          "name": "id",
          "type": "uint32"
        }
      ],
      "name": "getParcelle",
      "outputs": [
        {
          "components": [
            {
              "internalType": "uint32",
              "name": "id",
              "type": "uint32"
            },
            {
              "internalType": "address",
              "name": "producteur",
              "type": "address"
            },
            {
              "internalType": "string",
              "name": "cid",
              "type": "string"
            },
            {
              "internalType": "string",
              "name": "hashMerkle",
              "type": "string"
            }
          ],
          "internalType": "struct StructLib.Parcelle",
          "name": "",
          "type": "tuple"
        }
      ],
      "stateMutability": "view",
      "type": "function"
    },
    {
      "inputs": [
        {
          "internalType": "address",
          "name": "_gestionnaireActeurs",
          "type": "address"
        }
      ],
      "name": "initialiser",
      "outputs": [],
      "stateMutability": "nonpayable",
      "type": "function"
    },
    {
      "inputs": [
        {
          "internalType": "uint32",
          "name": "_idParcelle",
          "type": "uint32"
        },
        {
          "internalType": "string",
          "name": "_cidInspections",
          "type": "string"
        }
      ],
      "name": "mettreAJourInspectionsParcelle",
      "outputs": [],
      "stateMutability": "nonpayable",
      "type": "function"
    },
    {
      "inputs": [
        {
          "internalType": "uint32",
          "name": "_idParcelle",
          "type": "uint32"
        },
        {
          "internalType": "string",
          "name": "_cidIntrants",
          "type": "string"
        }
      ],
      "name": "mettreAJourIntrantsParcelle",
      "outputs": [],
      "stateMutability": "nonpayable",
      "type": "function"
    },
    {
      "inputs": [
        {
          "internalType": "uint32",
          "name": "_idParcelle",
          "type": "uint32"
        },
        {
          "internalType": "string",
          "name": "_cidPhotos",
          "type": "string"
        }
      ],
      "name": "mettreAJourPhotosParcelle",
      "outputs": [],
      "stateMutability": "nonpayable",
      "type": "function"
    },
    {
      "inputs": [
        {
          "internalType": "uint32",
          "name": "",
          "type": "uint32"
        }
      ],
      "name": "parcelles",
      "outputs": [
        {
          "internalType": "uint32",
          "name": "id",
          "type": "uint32"
        },
        {
          "internalType": "address",
          "name": "producteur",
          "type": "address"
        },
        {
          "internalType": "string",
          "name": "cid",
          "type": "string"
        },
        {
          "internalType": "string",
          "name": "hashMerkle",
          "type": "string"
        }
      ],
      "stateMutability": "view",
      "type": "function"
    },
    {
      "stateMutability": "payable",
      "type": "receive"
    }
  ],
  "bytecode": "0x608060405234801561001057600080fd5b50611af8806100206000396000f3fe6080604052600436106100c65760003560e01c806396e031e61161007f578063be7a880e11610059578063be7a880e14610271578063ca4b34c41461029a578063cda36e63146102c3578063f54e44fc146102ee576100cd565b806396e031e6146101f45780639e942cd41461021d578063bd6e11d514610248576100cd565b80630fb8af74146100cf5780631912121d146100f857806331686f4114610138578063421b3e08146101635780634fbdf4fe146101a057806361153ee9146101c9576100cd565b366100cd57005b005b3480156100db57600080fd5b506100f660048036038101906100f1919061129d565b610319565b005b34801561010457600080fd5b5061011f600480360381019061011a9190611274565b6104a0565b60405161012f9493929190611783565b60405180910390f35b34801561014457600080fd5b5061014d610610565b60405161015a9190611768565b60405180910390f35b34801561016f57600080fd5b5061018a60048036038101906101859190611274565b61062a565b6040516101979190611746565b60405180910390f35b3480156101ac57600080fd5b506101c760048036038101906101c291906111e1565b610803565b005b3480156101d557600080fd5b506101de6108b1565b6040516101eb9190611768565b60405180910390f35b34801561020057600080fd5b5061021b6004803603810190610216919061129d565b6108c7565b005b34801561022957600080fd5b50610232610963565b60405161023f919061166b565b60405180910390f35b34801561025457600080fd5b5061026f600480360381019061026a919061129d565b610987565b005b34801561027d57600080fd5b506102986004803603810190610293919061129d565b610b0e565b005b3480156102a657600080fd5b506102c160048036038101906102bc9190611233565b610c95565b005b3480156102cf57600080fd5b506102d8611027565b6040516102e59190611768565b60405180910390f35b3480156102fa57600080fd5b5061030361103d565b6040516103109190611768565b60405180910390f35b60008054906101000a900473ffffffffffffffffffffffffffffffffffffffff1673ffffffffffffffffffffffffffffffffffffffff1663d1e47bb33360046040518363ffffffff1660e01b8152600401610375929190611642565b60206040518083038186803b15801561038d57600080fd5b505afa1580156103a1573d6000803e3d6000fd5b505050506040513d601f19601f820116820180604052508101906103c5919061120a565b610404576040517f08c379a00000000000000000000000000000000000000000000000000000000081526004016103fb90611686565b60405180910390fd5b600260009054906101000a900463ffffffff1663ffffffff168263ffffffff161115610465576040517f08c379a000000000000000000000000000000000000000000000000000000000815260040161045c906116c6565b60405180910390fd5b80600160008463ffffffff1663ffffffff168152602001908152602001600020600101908051906020019061049b929190611053565b505050565b60016020528060005260406000206000915090508060000160009054906101000a900463ffffffff16908060000160049054906101000a900473ffffffffffffffffffffffffffffffffffffffff16908060010180546104ff9061193d565b80601f016020809104026020016040519081016040528092919081815260200182805461052b9061193d565b80156105785780601f1061054d57610100808354040283529160200191610578565b820191906000526020600020905b81548152906001019060200180831161055b57829003601f168201915b50505050509080600201805461058d9061193d565b80601f01602080910402602001604051908101604052809291908181526020018280546105b99061193d565b80156106065780601f106105db57610100808354040283529160200191610606565b820191906000526020600020905b8154815290600101906020018083116105e957829003601f168201915b5050505050905084565b6000600260009054906101000a900463ffffffff16905090565b6106326110d9565b600160008363ffffffff1663ffffffff1681526020019081526020016000206040518060800160405290816000820160009054906101000a900463ffffffff1663ffffffff1663ffffffff1681526020016000820160049054906101000a900473ffffffffffffffffffffffffffffffffffffffff1673ffffffffffffffffffffffffffffffffffffffff1673ffffffffffffffffffffffffffffffffffffffff1681526020016001820180546106e89061193d565b80601f01602080910402602001604051908101604052809291908181526020018280546107149061193d565b80156107615780601f1061073657610100808354040283529160200191610761565b820191906000526020600020905b81548152906001019060200180831161074457829003601f168201915b5050505050815260200160028201805461077a9061193d565b80601f01602080910402602001604051908101604052809291908181526020018280546107a69061193d565b80156107f35780601f106107c8576101008083540402835291602001916107f3565b820191906000526020600020905b8154815290600101906020018083116107d657829003601f168201915b5050505050815250509050919050565b6002600c9054906101000a900460ff1615610853576040517f08c379a000000000000000000000000000000000000000000000000000000000815260040161084a90611726565b60405180910390fd5b806000806101000a81548173ffffffffffffffffffffffffffffffffffffffff021916908373ffffffffffffffffffffffffffffffffffffffff16021790555060016002600c6101000a81548160ff02191690831515021790555050565b600260009054906101000a900463ffffffff1681565b600260009054906101000a900463ffffffff1663ffffffff168263ffffffff161115610928576040517f08c379a000000000000000000000000000000000000000000000000000000000815260040161091f906116c6565b60405180910390fd5b80600160008463ffffffff1663ffffffff168152602001908152602001600020600201908051906020019061095e929190611053565b505050565b60008054906101000a900473ffffffffffffffffffffffffffffffffffffffff1681565b60008054906101000a900473ffffffffffffffffffffffffffffffffffffffff1673ffffffffffffffffffffffffffffffffffffffff1663d1e47bb33360016040518363ffffffff1660e01b81526004016109e3929190611642565b60206040518083038186803b1580156109fb57600080fd5b505afa158015610a0f573d6000803e3d6000fd5b505050506040513d601f19601f82011682018060405250810190610a33919061120a565b610a72576040517f08c379a0000000000000000000000000000000000000000000000000000000008152600401610a6990611706565b60405180910390fd5b600260009054906101000a900463ffffffff1663ffffffff168263ffffffff161115610ad3576040517f08c379a0000000000000000000000000000000000000000000000000000000008152600401610aca906116c6565b60405180910390fd5b80600160008463ffffffff1663ffffffff1681526020019081526020016000206001019080519060200190610b09929190611053565b505050565b60008054906101000a900473ffffffffffffffffffffffffffffffffffffffff1673ffffffffffffffffffffffffffffffffffffffff1663d1e47bb33360006040518363ffffffff1660e01b8152600401610b6a929190611642565b60206040518083038186803b158015610b8257600080fd5b505afa158015610b96573d6000803e3d6000fd5b505050506040513d601f19601f82011682018060405250810190610bba919061120a565b610bf9576040517f08c379a0000000000000000000000000000000000000000000000000000000008152600401610bf0906116a6565b60405180910390fd5b600260009054906101000a900463ffffffff1663ffffffff168263ffffffff161115610c5a576040517f08c379a0000000000000000000000000000000000000000000000000000000008152600401610c51906116c6565b60405180910390fd5b80600160008463ffffffff1663ffffffff1681526020019081526020016000206001019080519060200190610c90929190611053565b505050565b60008054906101000a900473ffffffffffffffffffffffffffffffffffffffff1673ffffffffffffffffffffffffffffffffffffffff1663d1e47bb33360006040518363ffffffff1660e01b8152600401610cf1929190611642565b60206040518083038186803b158015610d0957600080fd5b505afa158015610d1d573d6000803e3d6000fd5b505050506040513d601f19601f82011682018060405250810190610d41919061120a565b610d80576040517f08c379a0000000000000000000000000000000000000000000000000000000008152600401610d77906116a6565b60405180910390fd5b60008054906101000a900473ffffffffffffffffffffffffffffffffffffffff1673ffffffffffffffffffffffffffffffffffffffff16639f7d7f4533306040518363ffffffff1660e01b8152600401610ddb929190611619565b60206040518083038186803b158015610df357600080fd5b505afa158015610e07573d6000803e3d6000fd5b505050506040513d601f19601f82011682018060405250810190610e2b919061120a565b610e6a576040517f08c379a0000000000000000000000000000000000000000000000000000000008152600401610e61906116e6565b60405180910390fd5b6002600081819054906101000a900463ffffffff1680929190610e8c9061196f565b91906101000a81548163ffffffff021916908363ffffffff16021790555050600260009054906101000a900463ffffffff1660016000600260009054906101000a900463ffffffff1663ffffffff1663ffffffff16815260200190815260200160002060000160006101000a81548163ffffffff021916908363ffffffff1602179055503360016000600260009054906101000a900463ffffffff1663ffffffff1663ffffffff16815260200190815260200160002060000160046101000a81548173ffffffffffffffffffffffffffffffffffffffff021916908373ffffffffffffffffffffffffffffffffffffffff1602179055508060016000600260009054906101000a900463ffffffff1663ffffffff1663ffffffff1681526020019081526020016000206001019080519060200190610fcb929190611053565b506040518060200160405280600081525060016000600260009054906101000a900463ffffffff1663ffffffff1663ffffffff1681526020019081526020016000206002019080519060200190611023929190611053565b5050565b600260049054906101000a900463ffffffff1681565b600260089054906101000a900463ffffffff1681565b82805461105f9061193d565b90600052602060002090601f01602090048101928261108157600085556110c8565b82601f1061109a57805160ff19168380011785556110c8565b828001600101855582156110c8579182015b828111156110c75782518255916020019190600101906110ac565b5b5090506110d5919061111d565b5090565b6040518060800160405280600063ffffffff168152602001600073ffffffffffffffffffffffffffffffffffffffff16815260200160608152602001606081525090565b5b8082111561113657600081600090555060010161111e565b5090565b600061114d61114884611807565b6117d6565b90508281526020810184848401111561116557600080fd5b6111708482856118fb565b509392505050565b60008135905061118781611a7d565b92915050565b60008151905061119c81611a94565b92915050565b600082601f8301126111b357600080fd5b81356111c384826020860161113a565b91505092915050565b6000813590506111db81611aab565b92915050565b6000602082840312156111f357600080fd5b600061120184828501611178565b91505092915050565b60006020828403121561121c57600080fd5b600061122a8482850161118d565b91505092915050565b60006020828403121561124557600080fd5b600082013567ffffffffffffffff81111561125f57600080fd5b61126b848285016111a2565b91505092915050565b60006020828403121561128657600080fd5b6000611294848285016111cc565b91505092915050565b600080604083850312156112b057600080fd5b60006112be858286016111cc565b925050602083013567ffffffffffffffff8111156112db57600080fd5b6112e7858286016111a2565b9150509250929050565b6112fa81611864565b82525050565b61130981611864565b82525050565b611318816118c5565b82525050565b611327816118e9565b82525050565b600061133882611837565b6113428185611842565b935061135281856020860161190a565b61135b81611a58565b840191505092915050565b600061137182611837565b61137b8185611853565b935061138b81856020860161190a565b61139481611a58565b840191505092915050565b60006113ac602083611853565b91507f4e6f6e206175746f726973653a207365756c656d656e742041756469746575726000830152602082019050919050565b60006113ec602283611853565b91507f4e6f6e206175746f726973653a207365756c656d656e742050726f647563746560008301527f75720000000000000000000000000000000000000000000000000000000000006020830152604082019050919050565b6000611452601683611853565b91507f50617263656c6c65206e6f6e206578697374616e742e000000000000000000006000830152602082019050919050565b6000611492602183611853565b91507f4e6f6e206175746f726973653a20636f6e74726174206e6f6e2064656c65677560008301527f65000000000000000000000000000000000000000000000000000000000000006020830152604082019050919050565b60006114f8602383611853565b91507f4e6f6e206175746f726973653a207365756c656d656e7420466f75726e69737360008301527f65757200000000000000000000000000000000000000000000000000000000006020830152604082019050919050565b600061155e601a83611853565b91507f436f6e747261742064656a6120696e697469616c6973657220210000000000006000830152602082019050919050565b60006080830160008301516115a960008601826115fb565b5060208301516115bc60208601826112f1565b50604083015184820360408601526115d4828261132d565b915050606083015184820360608601526115ee828261132d565b9150508091505092915050565b611604816118b5565b82525050565b611613816118b5565b82525050565b600060408201905061162e6000830185611300565b61163b6020830184611300565b9392505050565b60006040820190506116576000830185611300565b611664602083018461131e565b9392505050565b6000602082019050611680600083018461130f565b92915050565b6000602082019050818103600083015261169f8161139f565b9050919050565b600060208201905081810360008301526116bf816113df565b9050919050565b600060208201905081810360008301526116df81611445565b9050919050565b600060208201905081810360008301526116ff81611485565b9050919050565b6000602082019050818103600083015261171f816114eb565b9050919050565b6000602082019050818103600083015261173f81611551565b9050919050565b600060208201905081810360008301526117608184611591565b905092915050565b600060208201905061177d600083018461160a565b92915050565b6000608082019050611798600083018761160a565b6117a56020830186611300565b81810360408301526117b78185611366565b905081810360608301526117cb8184611366565b905095945050505050565b6000604051905081810181811067ffffffffffffffff821117156117fd576117fc611a29565b5b8060405250919050565b600067ffffffffffffffff82111561182257611821611a29565b5b601f19601f8301169050602081019050919050565b600081519050919050565b600082825260208201905092915050565b600082825260208201905092915050565b600061186f82611895565b9050919050565b60008115159050919050565b600081905061189082611a69565b919050565b600073ffffffffffffffffffffffffffffffffffffffff82169050919050565b600063ffffffff82169050919050565b60006118d0826118d7565b9050919050565b60006118e282611895565b9050919050565b60006118f482611882565b9050919050565b82818337600083830152505050565b60005b8381101561192857808201518184015260208101905061190d565b83811115611937576000848401525b50505050565b6000600282049050600182168061195557607f821691505b60208210811415611969576119686119fa565b5b50919050565b600061197a826118b5565b915063ffffffff8214156119915761199061199c565b5b600182019050919050565b7f4e487b7100000000000000000000000000000000000000000000000000000000600052601160045260246000fd5b7f4e487b7100000000000000000000000000000000000000000000000000000000600052602160045260246000fd5b7f4e487b7100000000000000000000000000000000000000000000000000000000600052602260045260246000fd5b7f4e487b7100000000000000000000000000000000000000000000000000000000600052604160045260246000fd5b6000601f19601f8301169050919050565b60088110611a7a57611a796119cb565b5b50565b611a8681611864565b8114611a9157600080fd5b50565b611a9d81611876565b8114611aa857600080fd5b50565b611ab4816118b5565b8114611abf57600080fd5b5056fea26469706673582212207b8bcaafbcd9f3ad47f2496385a9b4ab3596aaef43de803ddd2649f4cfc5719f64736f6c63430008000033",
  "linkReferences": {},
  "deployedLinkReferences": {}
}