{
  "_format": "hh-sol-artifact-1",
  "contractName": "ProducteurEnPhaseCulture",
  "sourceName": "contracts/ProducteurEnPhaseCulture.sol",
  "abi": [
    {
      "stateMutability": "payable",
      "type": "fallback"
    },
    {
      "inputs": [],
      "name": "compteurInspections",
      "outputs": [
        {
          "internalType": "uint32",
          "name": "",
          "type": "uint32"
        }
      ],
      "stateMutability": "view",
      "type": "function"
    },
    {
      "inputs": [],
      "name": "compteurIntrants",
      "outputs": [
        {
          "internalType": "uint32",
          "name": "",
          "type": "uint32"
        }
      ],
      "stateMutability": "view",
      "type": "function"
    },
    {
      "inputs": [],
      "name": "compteurParcelles",
      "outputs": [
        {
          "internalType": "uint32",
          "name": "",
          "type": "uint32"
        }
      ],
      "stateMutability": "view",
      "type": "function"
    },
    {
      "inputs": [
        {
          "internalType": "string",
          "name": "_ipfs",
          "type": "string"
        }
      ],
      "name": "creerParcelle",
      "outputs": [],
      "stateMutability": "nonpayable",
      "type": "function"
    },
    {
      "inputs": [],
      "name": "gestionnaireActeurs",
      "outputs": [
        {
          "internalType": "contract GestionnaireActeurs",
          "name": "",
          "type": "address"
        }
      ],
      "stateMutability": "view",
      "type": "function"
    },
    {
      "inputs": [],
      "name": "getCompteurParcelle",
      "outputs": [
        {
          "internalType": "uint32",
          "name": "",
          "type": "uint32"
        }
      ],
      "stateMutability": "view",
      "type": "function"
    },
    {
      "inputs": [
        {
          "internalType": "uint32",
          "name": "id",
          "type": "uint32"
        }
      ],
      "name": "getParcelle",
      "outputs": [
        {
          "components": [
            {
              "internalType": "uint32",
              "name": "id",
              "type": "uint32"
            },
            {
              "internalType": "address",
              "name": "producteur",
              "type": "address"
            },
            {
              "internalType": "string",
              "name": "cid",
              "type": "string"
            },
            {
              "internalType": "bytes32",
              "name": "hashMerkle",
              "type": "bytes32"
            }
          ],
          "internalType": "struct StructLib.Parcelle",
          "name": "",
          "type": "tuple"
        }
      ],
      "stateMutability": "view",
      "type": "function"
    },
    {
      "inputs": [
        {
          "internalType": "address",
          "name": "_gestionnaireActeurs",
          "type": "address"
        }
      ],
      "name": "initialiser",
      "outputs": [],
      "stateMutability": "nonpayable",
      "type": "function"
    },
    {
      "inputs": [
        {
          "internalType": "uint32",
          "name": "_idParcelle",
          "type": "uint32"
        },
        {
          "internalType": "string",
          "name": "_cidInspections",
          "type": "string"
        }
      ],
      "name": "mettreAJourInspectionsParcelle",
      "outputs": [],
      "stateMutability": "nonpayable",
      "type": "function"
    },
    {
      "inputs": [
        {
          "internalType": "uint32",
          "name": "_idParcelle",
          "type": "uint32"
        },
        {
          "internalType": "string",
          "name": "_cidIntrants",
          "type": "string"
        }
      ],
      "name": "mettreAJourIntrantsParcelle",
      "outputs": [],
      "stateMutability": "nonpayable",
      "type": "function"
    },
    {
      "inputs": [
        {
          "internalType": "uint32",
          "name": "_idParcelle",
          "type": "uint32"
        },
        {
          "internalType": "string",
          "name": "_cidPhotos",
          "type": "string"
        }
      ],
      "name": "mettreAJourPhotosParcelle",
      "outputs": [],
      "stateMutability": "nonpayable",
      "type": "function"
    },
    {
      "inputs": [
        {
          "internalType": "uint32",
          "name": "",
          "type": "uint32"
        }
      ],
      "name": "parcelles",
      "outputs": [
        {
          "internalType": "uint32",
          "name": "id",
          "type": "uint32"
        },
        {
          "internalType": "address",
          "name": "producteur",
          "type": "address"
        },
        {
          "internalType": "string",
          "name": "cid",
          "type": "string"
        },
        {
          "internalType": "bytes32",
          "name": "hashMerkle",
          "type": "bytes32"
        }
      ],
      "stateMutability": "view",
      "type": "function"
    },
    {
      "stateMutability": "payable",
      "type": "receive"
    }
  ],
  "bytecode": "0x608060405234801561001057600080fd5b50611bc6806100206000396000f3fe6080604052600436106100ab5760003560e01c80639e942cd4116100645780639e942cd4146101d9578063bd6e11d514610204578063be7a880e1461022d578063ca4b34c414610256578063cda36e631461027f578063f54e44fc146102aa576100b2565b80630fb8af74146100b45780631912121d146100dd57806331686f411461011d578063421b3e08146101485780634fbdf4fe1461018557806361153ee9146101ae576100b2565b366100b257005b005b3480156100c057600080fd5b506100db60048036038101906100d691906112a8565b6102d5565b005b3480156100e957600080fd5b5061010460048036038101906100ff919061127f565b610546565b60405161011494939291906117df565b60405180910390f35b34801561012957600080fd5b5061013261062e565b60405161013f91906117c4565b60405180910390f35b34801561015457600080fd5b5061016f600480360381019061016a919061127f565b610648565b60405161017c91906117a2565b60405180910390f35b34801561019157600080fd5b506101ac60048036038101906101a791906111ec565b610799565b005b3480156101ba57600080fd5b506101c3610847565b6040516101d091906117c4565b60405180910390f35b3480156101e557600080fd5b506101ee61085d565b6040516101fb91906116e7565b60405180910390f35b34801561021057600080fd5b5061022b600480360381019061022691906112a8565b610881565b005b34801561023957600080fd5b50610254600480360381019061024f91906112a8565b610a07565b005b34801561026257600080fd5b5061027d6004803603810190610278919061123e565b610c78565b005b34801561028b57600080fd5b5061029461102f565b6040516102a191906117c4565b60405180910390f35b3480156102b657600080fd5b506102bf611045565b6040516102cc91906117c4565b60405180910390f35b60008054906101000a900473ffffffffffffffffffffffffffffffffffffffff1673ffffffffffffffffffffffffffffffffffffffff1663d1e47bb33360046040518363ffffffff1660e01b81526004016103319291906116be565b60206040518083038186803b15801561034957600080fd5b505afa15801561035d573d6000803e3d6000fd5b505050506040513d601f19601f820116820180604052508101906103819190611215565b6103c0576040517f08c379a00000000000000000000000000000000000000000000000000000000081526004016103b790611702565b60405180910390fd5b60008054906101000a900473ffffffffffffffffffffffffffffffffffffffff1673ffffffffffffffffffffffffffffffffffffffff16639f7d7f4533306040518363ffffffff1660e01b815260040161041b929190611695565b60206040518083038186803b15801561043357600080fd5b505afa158015610447573d6000803e3d6000fd5b505050506040513d601f19601f8201168201806040525081019061046b9190611215565b6104aa576040517f08c379a00000000000000000000000000000000000000000000000000000000081526004016104a190611762565b60405180910390fd5b600260009054906101000a900463ffffffff1663ffffffff168263ffffffff16111561050b576040517f08c379a000000000000000000000000000000000000000000000000000000000815260040161050290611742565b60405180910390fd5b80600160008463ffffffff1663ffffffff168152602001908152602001600020600101908051906020019061054192919061105b565b505050565b60016020528060005260406000206000915090508060000160009054906101000a900463ffffffff16908060000160049054906101000a900473ffffffffffffffffffffffffffffffffffffffff16908060010180546105a5906119b1565b80601f01602080910402602001604051908101604052809291908181526020018280546105d1906119b1565b801561061e5780601f106105f35761010080835404028352916020019161061e565b820191906000526020600020905b81548152906001019060200180831161060157829003601f168201915b5050505050908060020154905084565b6000600260009054906101000a900463ffffffff16905090565b6106506110e1565b600160008363ffffffff1663ffffffff1681526020019081526020016000206040518060800160405290816000820160009054906101000a900463ffffffff1663ffffffff1663ffffffff1681526020016000820160049054906101000a900473ffffffffffffffffffffffffffffffffffffffff1673ffffffffffffffffffffffffffffffffffffffff1673ffffffffffffffffffffffffffffffffffffffff168152602001600182018054610706906119b1565b80601f0160208091040260200160405190810160405280929190818152602001828054610732906119b1565b801561077f5780601f106107545761010080835404028352916020019161077f565b820191906000526020600020905b81548152906001019060200180831161076257829003601f168201915b505050505081526020016002820154815250509050919050565b6002600c9054906101000a900460ff16156107e9576040517f08c379a00000000000000000000000000000000000000000000000000000000081526004016107e090611782565b60405180910390fd5b806000806101000a81548173ffffffffffffffffffffffffffffffffffffffff021916908373ffffffffffffffffffffffffffffffffffffffff16021790555060016002600c6101000a81548160ff02191690831515021790555050565b600260009054906101000a900463ffffffff1681565b60008054906101000a900473ffffffffffffffffffffffffffffffffffffffff1681565b60008054906101000a900473ffffffffffffffffffffffffffffffffffffffff1673ffffffffffffffffffffffffffffffffffffffff16639f7d7f4533306040518363ffffffff1660e01b81526004016108dc929190611695565b60206040518083038186803b1580156108f457600080fd5b505afa158015610908573d6000803e3d6000fd5b505050506040513d601f19601f8201168201806040525081019061092c9190611215565b61096b576040517f08c379a000000000000000000000000000000000000000000000000000000000815260040161096290611762565b60405180910390fd5b600260009054906101000a900463ffffffff1663ffffffff168263ffffffff1611156109cc576040517f08c379a00000000000000000000000000000000000000000000000000000000081526004016109c390611742565b60405180910390fd5b80600160008463ffffffff1663ffffffff1681526020019081526020016000206001019080519060200190610a0292919061105b565b505050565b60008054906101000a900473ffffffffffffffffffffffffffffffffffffffff1673ffffffffffffffffffffffffffffffffffffffff1663d1e47bb33360006040518363ffffffff1660e01b8152600401610a639291906116be565b60206040518083038186803b158015610a7b57600080fd5b505afa158015610a8f573d6000803e3d6000fd5b505050506040513d601f19601f82011682018060405250810190610ab39190611215565b610af2576040517f08c379a0000000000000000000000000000000000000000000000000000000008152600401610ae990611722565b60405180910390fd5b60008054906101000a900473ffffffffffffffffffffffffffffffffffffffff1673ffffffffffffffffffffffffffffffffffffffff16639f7d7f4533306040518363ffffffff1660e01b8152600401610b4d929190611695565b60206040518083038186803b158015610b6557600080fd5b505afa158015610b79573d6000803e3d6000fd5b505050506040513d601f19601f82011682018060405250810190610b9d9190611215565b610bdc576040517f08c379a0000000000000000000000000000000000000000000000000000000008152600401610bd390611762565b60405180910390fd5b600260009054906101000a900463ffffffff1663ffffffff168263ffffffff161115610c3d576040517f08c379a0000000000000000000000000000000000000000000000000000000008152600401610c3490611742565b60405180910390fd5b80600160008463ffffffff1663ffffffff1681526020019081526020016000206001019080519060200190610c7392919061105b565b505050565b60008054906101000a900473ffffffffffffffffffffffffffffffffffffffff1673ffffffffffffffffffffffffffffffffffffffff1663d1e47bb33360006040518363ffffffff1660e01b8152600401610cd49291906116be565b60206040518083038186803b158015610cec57600080fd5b505afa158015610d00573d6000803e3d6000fd5b505050506040513d601f19601f82011682018060405250810190610d249190611215565b610d63576040517f08c379a0000000000000000000000000000000000000000000000000000000008152600401610d5a90611722565b60405180910390fd5b60008054906101000a900473ffffffffffffffffffffffffffffffffffffffff1673ffffffffffffffffffffffffffffffffffffffff16639f7d7f4533306040518363ffffffff1660e01b8152600401610dbe929190611695565b60206040518083038186803b158015610dd657600080fd5b505afa158015610dea573d6000803e3d6000fd5b505050506040513d601f19601f82011682018060405250810190610e0e9190611215565b610e4d576040517f08c379a0000000000000000000000000000000000000000000000000000000008152600401610e4490611762565b60405180910390fd5b6002600081819054906101000a900463ffffffff1680929190610e6f906119e3565b91906101000a81548163ffffffff021916908363ffffffff160217905550506000600260009054906101000a900463ffffffff16338342604051602001610eb9949392919061164b565b604051602081830303815290604052805190602001209050600260009054906101000a900463ffffffff1660016000600260009054906101000a900463ffffffff1663ffffffff1663ffffffff16815260200190815260200160002060000160006101000a81548163ffffffff021916908363ffffffff1602179055503360016000600260009054906101000a900463ffffffff1663ffffffff1663ffffffff16815260200190815260200160002060000160046101000a81548173ffffffffffffffffffffffffffffffffffffffff021916908373ffffffffffffffffffffffffffffffffffffffff1602179055508160016000600260009054906101000a900463ffffffff1663ffffffff1663ffffffff1681526020019081526020016000206001019080519060200190610ff192919061105b565b508060016000600260009054906101000a900463ffffffff1663ffffffff1663ffffffff168152602001908152602001600020600201819055505050565b600260049054906101000a900463ffffffff1681565b600260089054906101000a900463ffffffff1681565b828054611067906119b1565b90600052602060002090601f01602090048101928261108957600085556110d0565b82601f106110a257805160ff19168380011785556110d0565b828001600101855582156110d0579182015b828111156110cf5782518255916020019190600101906110b4565b5b5090506110dd9190611128565b5090565b6040518060800160405280600063ffffffff168152602001600073ffffffffffffffffffffffffffffffffffffffff16815260200160608152602001600080191681525090565b5b80821115611141576000816000905550600101611129565b5090565b60006111586111538461185c565b61182b565b90508281526020810184848401111561117057600080fd5b61117b84828561196f565b509392505050565b60008135905061119281611b4b565b92915050565b6000815190506111a781611b62565b92915050565b600082601f8301126111be57600080fd5b81356111ce848260208601611145565b91505092915050565b6000813590506111e681611b79565b92915050565b6000602082840312156111fe57600080fd5b600061120c84828501611183565b91505092915050565b60006020828403121561122757600080fd5b600061123584828501611198565b91505092915050565b60006020828403121561125057600080fd5b600082013567ffffffffffffffff81111561126a57600080fd5b611276848285016111ad565b91505092915050565b60006020828403121561129157600080fd5b600061129f848285016111d7565b91505092915050565b600080604083850312156112bb57600080fd5b60006112c9858286016111d7565b925050602083013567ffffffffffffffff8111156112e657600080fd5b6112f2858286016111ad565b9150509250929050565b611305816118c4565b82525050565b611314816118c4565b82525050565b61132b611326826118c4565b611a10565b82525050565b61133a816118e2565b82525050565b611349816118e2565b82525050565b61135881611939565b82525050565b6113678161195d565b82525050565b60006113788261188c565b6113828185611897565b935061139281856020860161197e565b61139b81611b0c565b840191505092915050565b60006113b18261188c565b6113bb81856118a8565b93506113cb81856020860161197e565b6113d481611b0c565b840191505092915050565b60006113ea8261188c565b6113f481856118b9565b935061140481856020860161197e565b80840191505092915050565b600061141d6020836118a8565b91507f4e6f6e206175746f726973653a207365756c656d656e742041756469746575726000830152602082019050919050565b600061145d6022836118a8565b91507f4e6f6e206175746f726973653a207365756c656d656e742050726f647563746560008301527f75720000000000000000000000000000000000000000000000000000000000006020830152604082019050919050565b60006114c36016836118a8565b91507f50617263656c6c65206e6f6e206578697374616e742e000000000000000000006000830152602082019050919050565b60006115036021836118a8565b91507f4e6f6e206175746f726973653a20636f6e74726174206e6f6e2064656c65677560008301527f65000000000000000000000000000000000000000000000000000000000000006020830152604082019050919050565b6000611569601a836118a8565b91507f436f6e747261742064656a6120696e697469616c6973657220210000000000006000830152602082019050919050565b60006080830160008301516115b46000860182611616565b5060208301516115c760208601826112fc565b50604083015184820360408601526115df828261136d565b91505060608301516115f46060860182611331565b508091505092915050565b61161061160b8261191f565b611a34565b82525050565b61161f81611929565b82525050565b61162e81611929565b82525050565b61164561164082611929565b611a3e565b82525050565b60006116578287611634565b600482019150611667828661131a565b60148201915061167782856113df565b915061168382846115ff565b60208201915081905095945050505050565b60006040820190506116aa600083018561130b565b6116b7602083018461130b565b9392505050565b60006040820190506116d3600083018561130b565b6116e0602083018461135e565b9392505050565b60006020820190506116fc600083018461134f565b92915050565b6000602082019050818103600083015261171b81611410565b9050919050565b6000602082019050818103600083015261173b81611450565b9050919050565b6000602082019050818103600083015261175b816114b6565b9050919050565b6000602082019050818103600083015261177b816114f6565b9050919050565b6000602082019050818103600083015261179b8161155c565b9050919050565b600060208201905081810360008301526117bc818461159c565b905092915050565b60006020820190506117d96000830184611625565b92915050565b60006080820190506117f46000830187611625565b611801602083018661130b565b818103604083015261181381856113a6565b90506118226060830184611340565b95945050505050565b6000604051905081810181811067ffffffffffffffff8211171561185257611851611add565b5b8060405250919050565b600067ffffffffffffffff82111561187757611876611add565b5b601f19601f8301169050602081019050919050565b600081519050919050565b600082825260208201905092915050565b600082825260208201905092915050565b600081905092915050565b60006118cf826118ff565b9050919050565b60008115159050919050565b6000819050919050565b60008190506118fa82611b37565b919050565b600073ffffffffffffffffffffffffffffffffffffffff82169050919050565b6000819050919050565b600063ffffffff82169050919050565b60006119448261194b565b9050919050565b6000611956826118ff565b9050919050565b6000611968826118ec565b9050919050565b82818337600083830152505050565b60005b8381101561199c578082015181840152602081019050611981565b838111156119ab576000848401525b50505050565b600060028204905060018216806119c957607f821691505b602082108114156119dd576119dc611aae565b5b50919050565b60006119ee82611929565b915063ffffffff821415611a0557611a04611a50565b5b600182019050919050565b6000611a1b82611a22565b9050919050565b6000611a2d82611b2a565b9050919050565b6000819050919050565b6000611a4982611b1d565b9050919050565b7f4e487b7100000000000000000000000000000000000000000000000000000000600052601160045260246000fd5b7f4e487b7100000000000000000000000000000000000000000000000000000000600052602160045260246000fd5b7f4e487b7100000000000000000000000000000000000000000000000000000000600052602260045260246000fd5b7f4e487b7100000000000000000000000000000000000000000000000000000000600052604160045260246000fd5b6000601f19601f8301169050919050565b60008160e01b9050919050565b60008160601b9050919050565b60088110611b4857611b47611a7f565b5b50565b611b54816118c4565b8114611b5f57600080fd5b50565b611b6b816118d6565b8114611b7657600080fd5b50565b611b8281611929565b8114611b8d57600080fd5b5056fea26469706673582212200b97d746ab34b8b41e8e9e4425c6fc3f5fcfe9f32237672041212ddb58e4f20464736f6c63430008000033",
  "linkReferences": {},
  "deployedLinkReferences": {}
}