{
  "_format": "hh-sol-artifact-1",
  "contractName": "ProducteurEnPhaseCulture",
  "sourceName": "contracts/ProducteurEnPhaseCulture.sol",
  "abi": [
    {
      "anonymous": false,
      "inputs": [
        {
          "indexed": true,
          "internalType": "address",
          "name": "acteur",
          "type": "address"
        },
        {
          "indexed": false,
          "internalType": "enum ProducteurEnPhaseCulture.Role",
          "name": "role",
          "type": "uint8"
        }
      ],
      "name": "ActeurEnregistre",
      "type": "event"
    },
    {
      "anonymous": false,
      "inputs": [
        {
          "indexed": true,
          "internalType": "uint256",
          "name": "idParcelle",
          "type": "uint256"
        },
        {
          "indexed": false,
          "internalType": "uint256",
          "name": "idCondition",
          "type": "uint256"
        },
        {
          "indexed": false,
          "internalType": "string",
          "name": "temperature",
          "type": "string"
        },
        {
          "indexed": false,
          "internalType": "string",
          "name": "humidite",
          "type": "string"
        },
        {
          "indexed": false,
          "internalType": "uint256",
          "name": "timestamp",
          "type": "uint256"
        }
      ],
      "name": "ConditionEnregistree",
      "type": "event"
    },
    {
      "anonymous": false,
      "inputs": [
        {
          "indexed": true,
          "internalType": "uint256",
          "name": "idParcelle",
          "type": "uint256"
        },
        {
          "indexed": false,
          "internalType": "bool",
          "name": "passe",
          "type": "bool"
        }
      ],
      "name": "ControlePhytosanitaire",
      "type": "event"
    },
    {
      "anonymous": false,
      "inputs": [
        {
          "indexed": true,
          "internalType": "uint256",
          "name": "idParcelle",
          "type": "uint256"
        },
        {
          "indexed": false,
          "internalType": "enum ProducteurEnPhaseCulture.Etape",
          "name": "etape",
          "type": "uint8"
        }
      ],
      "name": "EtapeMiseAJour",
      "type": "event"
    },
    {
      "anonymous": false,
      "inputs": [
        {
          "indexed": true,
          "internalType": "uint256",
          "name": "idParcelle",
          "type": "uint256"
        },
        {
          "indexed": false,
          "internalType": "uint256",
          "name": "idInspection",
          "type": "uint256"
        },
        {
          "indexed": false,
          "internalType": "address",
          "name": "auditeur",
          "type": "address"
        },
        {
          "indexed": false,
          "internalType": "string",
          "name": "rapport",
          "type": "string"
        },
        {
          "indexed": false,
          "internalType": "uint256",
          "name": "timestamp",
          "type": "uint256"
        }
      ],
      "name": "InspectionAjoutee",
      "type": "event"
    },
    {
      "anonymous": false,
      "inputs": [
        {
          "indexed": true,
          "internalType": "uint256",
          "name": "idParcelle",
          "type": "uint256"
        },
        {
          "indexed": false,
          "internalType": "string",
          "name": "nom",
          "type": "string"
        },
        {
          "indexed": false,
          "internalType": "uint256",
          "name": "quantite",
          "type": "uint256"
        }
      ],
      "name": "IntrantAjoute",
      "type": "event"
    },
    {
      "anonymous": false,
      "inputs": [
        {
          "indexed": true,
          "internalType": "uint256",
          "name": "idParcelle",
          "type": "uint256"
        },
        {
          "indexed": false,
          "internalType": "string",
          "name": "nom",
          "type": "string"
        },
        {
          "indexed": false,
          "internalType": "bool",
          "name": "valide",
          "type": "bool"
        }
      ],
      "name": "IntrantValide",
      "type": "event"
    },
    {
      "anonymous": false,
      "inputs": [
        {
          "indexed": true,
          "internalType": "uint256",
          "name": "idParcelle",
          "type": "uint256"
        },
        {
          "indexed": false,
          "internalType": "string",
          "name": "methodeCulture",
          "type": "string"
        }
      ],
      "name": "MethodeCultureFixee",
      "type": "event"
    },
    {
      "anonymous": false,
      "inputs": [
        {
          "indexed": true,
          "internalType": "uint256",
          "name": "idParcelle",
          "type": "uint256"
        },
        {
          "indexed": false,
          "internalType": "uint256",
          "name": "idPaiement",
          "type": "uint256"
        },
        {
          "indexed": false,
          "internalType": "address",
          "name": "payeur",
          "type": "address"
        },
        {
          "indexed": false,
          "internalType": "uint256",
          "name": "montant",
          "type": "uint256"
        },
        {
          "indexed": false,
          "internalType": "enum ProducteurEnPhaseCulture.ModePaiement",
          "name": "mode",
          "type": "uint8"
        },
        {
          "indexed": false,
          "internalType": "uint256",
          "name": "timestamp",
          "type": "uint256"
        }
      ],
      "name": "PaiementEffectue",
      "type": "event"
    },
    {
      "anonymous": false,
      "inputs": [
        {
          "indexed": true,
          "internalType": "uint256",
          "name": "idParcelle",
          "type": "uint256"
        },
        {
          "indexed": false,
          "internalType": "string",
          "name": "latitude",
          "type": "string"
        },
        {
          "indexed": false,
          "internalType": "string",
          "name": "longitude",
          "type": "string"
        }
      ],
      "name": "ParcelleCree",
      "type": "event"
    },
    {
      "anonymous": false,
      "inputs": [
        {
          "indexed": true,
          "internalType": "uint256",
          "name": "idParcelle",
          "type": "uint256"
        },
        {
          "indexed": false,
          "internalType": "string",
          "name": "urlPhoto",
          "type": "string"
        }
      ],
      "name": "PhotoAjoutee",
      "type": "event"
    },
    {
      "anonymous": false,
      "inputs": [
        {
          "indexed": true,
          "internalType": "uint256",
          "name": "idParcelle",
          "type": "uint256"
        },
        {
          "indexed": false,
          "internalType": "bool",
          "name": "qualiteApprouvee",
          "type": "bool"
        }
      ],
      "name": "RecolteConfirmee",
      "type": "event"
    },
    {
      "anonymous": false,
      "inputs": [
        {
          "indexed": true,
          "internalType": "uint256",
          "name": "idParcelle",
          "type": "uint256"
        },
        {
          "indexed": false,
          "internalType": "string",
          "name": "qualiteSemence",
          "type": "string"
        }
      ],
      "name": "SemenceValidee",
      "type": "event"
    },
    {
      "stateMutability": "payable",
      "type": "fallback"
    },
    {
      "inputs": [
        {
          "internalType": "address",
          "name": "",
          "type": "address"
        }
      ],
      "name": "acteurs",
      "outputs": [
        {
          "internalType": "address",
          "name": "addr",
          "type": "address"
        },
        {
          "internalType": "enum ProducteurEnPhaseCulture.Role",
          "name": "role",
          "type": "uint8"
        }
      ],
      "stateMutability": "view",
      "type": "function"
    },
    {
      "inputs": [
        {
          "internalType": "uint256",
          "name": "_idParcelle",
          "type": "uint256"
        },
        {
          "internalType": "string",
          "name": "_rapport",
          "type": "string"
        }
      ],
      "name": "ajouterInspection",
      "outputs": [],
      "stateMutability": "nonpayable",
      "type": "function"
    },
    {
      "inputs": [
        {
          "internalType": "uint256",
          "name": "_idParcelle",
          "type": "uint256"
        },
        {
          "internalType": "string",
          "name": "_nom",
          "type": "string"
        },
        {
          "internalType": "uint256",
          "name": "_quantite",
          "type": "uint256"
        }
      ],
      "name": "ajouterIntrant",
      "outputs": [],
      "stateMutability": "nonpayable",
      "type": "function"
    },
    {
      "inputs": [
        {
          "internalType": "uint256",
          "name": "_idParcelle",
          "type": "uint256"
        },
        {
          "internalType": "string",
          "name": "_urlPhoto",
          "type": "string"
        }
      ],
      "name": "ajouterPhoto",
      "outputs": [],
      "stateMutability": "nonpayable",
      "type": "function"
    },
    {
      "inputs": [
        {
          "internalType": "uint256",
          "name": "_idParcelle",
          "type": "uint256"
        },
        {
          "internalType": "bool",
          "name": "_passe",
          "type": "bool"
        }
      ],
      "name": "appliquerControlePhytosanitaire",
      "outputs": [],
      "stateMutability": "nonpayable",
      "type": "function"
    },
    {
      "inputs": [],
      "name": "compteurConditions",
      "outputs": [
        {
          "internalType": "uint256",
          "name": "",
          "type": "uint256"
        }
      ],
      "stateMutability": "view",
      "type": "function"
    },
    {
      "inputs": [],
      "name": "compteurInspections",
      "outputs": [
        {
          "internalType": "uint256",
          "name": "",
          "type": "uint256"
        }
      ],
      "stateMutability": "view",
      "type": "function"
    },
    {
      "inputs": [],
      "name": "compteurPaiements",
      "outputs": [
        {
          "internalType": "uint256",
          "name": "",
          "type": "uint256"
        }
      ],
      "stateMutability": "view",
      "type": "function"
    },
    {
      "inputs": [],
      "name": "compteurParcelles",
      "outputs": [
        {
          "internalType": "uint256",
          "name": "",
          "type": "uint256"
        }
      ],
      "stateMutability": "view",
      "type": "function"
    },
    {
      "inputs": [
        {
          "internalType": "uint256",
          "name": "_idParcelle",
          "type": "uint256"
        },
        {
          "internalType": "bool",
          "name": "_qualiteApprouvee",
          "type": "bool"
        }
      ],
      "name": "confirmerRecolte",
      "outputs": [],
      "stateMutability": "nonpayable",
      "type": "function"
    },
    {
      "inputs": [
        {
          "internalType": "string",
          "name": "_qualiteSemence",
          "type": "string"
        },
        {
          "internalType": "string",
          "name": "_methodeCulture",
          "type": "string"
        },
        {
          "internalType": "string",
          "name": "_latitude",
          "type": "string"
        },
        {
          "internalType": "string",
          "name": "_longitude",
          "type": "string"
        },
        {
          "internalType": "string",
          "name": "_produit",
          "type": "string"
        },
        {
          "internalType": "string",
          "name": "_dateRecolte",
          "type": "string"
        },
        {
          "internalType": "string",
          "name": "_certificatPhytosanitaire",
          "type": "string"
        }
      ],
      "name": "creerParcelle",
      "outputs": [],
      "stateMutability": "nonpayable",
      "type": "function"
    },
    {
      "inputs": [
        {
          "internalType": "uint256",
          "name": "_idParcelle",
          "type": "uint256"
        },
        {
          "internalType": "uint256",
          "name": "_montant",
          "type": "uint256"
        },
        {
          "internalType": "enum ProducteurEnPhaseCulture.ModePaiement",
          "name": "_mode",
          "type": "uint8"
        }
      ],
      "name": "effectuerPaiement",
      "outputs": [],
      "stateMutability": "payable",
      "type": "function"
    },
    {
      "inputs": [
        {
          "internalType": "address",
          "name": "_acteur",
          "type": "address"
        },
        {
          "internalType": "enum ProducteurEnPhaseCulture.Role",
          "name": "_role",
          "type": "uint8"
        }
      ],
      "name": "enregistrerActeur",
      "outputs": [],
      "stateMutability": "nonpayable",
      "type": "function"
    },
    {
      "inputs": [
        {
          "internalType": "uint256",
          "name": "_idParcelle",
          "type": "uint256"
        },
        {
          "internalType": "string",
          "name": "_temperature",
          "type": "string"
        },
        {
          "internalType": "string",
          "name": "_humidite",
          "type": "string"
        }
      ],
      "name": "enregistrerCondition",
      "outputs": [],
      "stateMutability": "nonpayable",
      "type": "function"
    },
    {
      "inputs": [
        {
          "internalType": "address",
          "name": "addr",
          "type": "address"
        }
      ],
      "name": "getActeur",
      "outputs": [
        {
          "components": [
            {
              "internalType": "address",
              "name": "addr",
              "type": "address"
            },
            {
              "internalType": "enum ProducteurEnPhaseCulture.Role",
              "name": "role",
              "type": "uint8"
            }
          ],
          "internalType": "struct ProducteurEnPhaseCulture.Acteur",
          "name": "",
          "type": "tuple"
        }
      ],
      "stateMutability": "view",
      "type": "function"
    },
    {
      "inputs": [],
      "name": "getCompteurCondition",
      "outputs": [
        {
          "internalType": "uint256",
          "name": "",
          "type": "uint256"
        }
      ],
      "stateMutability": "view",
      "type": "function"
    },
    {
      "inputs": [],
      "name": "getCompteurInspection",
      "outputs": [
        {
          "internalType": "uint256",
          "name": "",
          "type": "uint256"
        }
      ],
      "stateMutability": "view",
      "type": "function"
    },
    {
      "inputs": [],
      "name": "getCompteurPaiement",
      "outputs": [
        {
          "internalType": "uint256",
          "name": "",
          "type": "uint256"
        }
      ],
      "stateMutability": "view",
      "type": "function"
    },
    {
      "inputs": [],
      "name": "getCompteurParcelle",
      "outputs": [
        {
          "internalType": "uint256",
          "name": "",
          "type": "uint256"
        }
      ],
      "stateMutability": "view",
      "type": "function"
    },
    {
      "inputs": [
        {
          "internalType": "uint256",
          "name": "idParcelle",
          "type": "uint256"
        }
      ],
      "name": "getConditions",
      "outputs": [
        {
          "components": [
            {
              "internalType": "uint256",
              "name": "id",
              "type": "uint256"
            },
            {
              "internalType": "string",
              "name": "temperature",
              "type": "string"
            },
            {
              "internalType": "string",
              "name": "humidite",
              "type": "string"
            },
            {
              "internalType": "uint256",
              "name": "timestamp",
              "type": "uint256"
            }
          ],
          "internalType": "struct ProducteurEnPhaseCulture.EnregistrementCondition[]",
          "name": "",
          "type": "tuple[]"
        }
      ],
      "stateMutability": "view",
      "type": "function"
    },
    {
      "inputs": [
        {
          "internalType": "uint256",
          "name": "idParcelle",
          "type": "uint256"
        }
      ],
      "name": "getInspections",
      "outputs": [
        {
          "components": [
            {
              "internalType": "uint256",
              "name": "id",
              "type": "uint256"
            },
            {
              "internalType": "address",
              "name": "auditeur",
              "type": "address"
            },
            {
              "internalType": "string",
              "name": "rapport",
              "type": "string"
            },
            {
              "internalType": "uint256",
              "name": "timestamp",
              "type": "uint256"
            }
          ],
          "internalType": "struct ProducteurEnPhaseCulture.Inspection[]",
          "name": "",
          "type": "tuple[]"
        }
      ],
      "stateMutability": "view",
      "type": "function"
    },
    {
      "inputs": [
        {
          "internalType": "uint256",
          "name": "idParcelle",
          "type": "uint256"
        }
      ],
      "name": "getIntrants",
      "outputs": [
        {
          "components": [
            {
              "internalType": "string",
              "name": "nom",
              "type": "string"
            },
            {
              "internalType": "uint256",
              "name": "quantite",
              "type": "uint256"
            },
            {
              "internalType": "bool",
              "name": "valide",
              "type": "bool"
            }
          ],
          "internalType": "struct ProducteurEnPhaseCulture.Intrant[]",
          "name": "",
          "type": "tuple[]"
        }
      ],
      "stateMutability": "view",
      "type": "function"
    },
    {
      "inputs": [
        {
          "internalType": "uint256",
          "name": "id",
          "type": "uint256"
        }
      ],
      "name": "getPaiement",
      "outputs": [
        {
          "components": [
            {
              "internalType": "uint256",
              "name": "id",
              "type": "uint256"
            },
            {
              "internalType": "address",
              "name": "payeur",
              "type": "address"
            },
            {
              "internalType": "uint256",
              "name": "montant",
              "type": "uint256"
            },
            {
              "internalType": "enum ProducteurEnPhaseCulture.ModePaiement",
              "name": "mode",
              "type": "uint8"
            },
            {
              "internalType": "uint256",
              "name": "timestamp",
              "type": "uint256"
            }
          ],
          "internalType": "struct ProducteurEnPhaseCulture.Paiement",
          "name": "",
          "type": "tuple"
        }
      ],
      "stateMutability": "view",
      "type": "function"
    },
    {
      "inputs": [
        {
          "internalType": "uint256",
          "name": "id",
          "type": "uint256"
        }
      ],
      "name": "getParcelle",
      "outputs": [
        {
          "components": [
            {
              "internalType": "uint256",
              "name": "id",
              "type": "uint256"
            },
            {
              "internalType": "address",
              "name": "producteur",
              "type": "address"
            },
            {
              "internalType": "string",
              "name": "qualiteSemence",
              "type": "string"
            },
            {
              "internalType": "string",
              "name": "methodeCulture",
              "type": "string"
            },
            {
              "internalType": "bool",
              "name": "certifie",
              "type": "bool"
            },
            {
              "internalType": "enum ProducteurEnPhaseCulture.Etape",
              "name": "etape",
              "type": "uint8"
            },
            {
              "internalType": "string",
              "name": "latitude",
              "type": "string"
            },
            {
              "internalType": "string",
              "name": "longitude",
              "type": "string"
            },
            {
              "internalType": "string[]",
              "name": "photos",
              "type": "string[]"
            },
            {
              "components": [
                {
                  "internalType": "string",
                  "name": "nom",
                  "type": "string"
                },
                {
                  "internalType": "uint256",
                  "name": "quantite",
                  "type": "uint256"
                },
                {
                  "internalType": "bool",
                  "name": "valide",
                  "type": "bool"
                }
              ],
              "internalType": "struct ProducteurEnPhaseCulture.Intrant[]",
              "name": "intrants",
              "type": "tuple[]"
            },
            {
              "components": [
                {
                  "internalType": "uint256",
                  "name": "id",
                  "type": "uint256"
                },
                {
                  "internalType": "address",
                  "name": "auditeur",
                  "type": "address"
                },
                {
                  "internalType": "string",
                  "name": "rapport",
                  "type": "string"
                },
                {
                  "internalType": "uint256",
                  "name": "timestamp",
                  "type": "uint256"
                }
              ],
              "internalType": "struct ProducteurEnPhaseCulture.Inspection[]",
              "name": "inspections",
              "type": "tuple[]"
            },
            {
              "components": [
                {
                  "internalType": "uint256",
                  "name": "id",
                  "type": "uint256"
                },
                {
                  "internalType": "string",
                  "name": "temperature",
                  "type": "string"
                },
                {
                  "internalType": "string",
                  "name": "humidite",
                  "type": "string"
                },
                {
                  "internalType": "uint256",
                  "name": "timestamp",
                  "type": "uint256"
                }
              ],
              "internalType": "struct ProducteurEnPhaseCulture.EnregistrementCondition[]",
              "name": "conditions",
              "type": "tuple[]"
            },
            {
              "internalType": "string",
              "name": "produit",
              "type": "string"
            },
            {
              "internalType": "string",
              "name": "dateRecolte",
              "type": "string"
            },
            {
              "internalType": "string",
              "name": "certificatPhytosanitaire",
              "type": "string"
            }
          ],
          "internalType": "struct ProducteurEnPhaseCulture.Parcelle",
          "name": "",
          "type": "tuple"
        }
      ],
      "stateMutability": "view",
      "type": "function"
    },
    {
      "inputs": [
        {
          "internalType": "uint256",
          "name": "idParcelle",
          "type": "uint256"
        }
      ],
      "name": "getPhotos",
      "outputs": [
        {
          "internalType": "string[]",
          "name": "",
          "type": "string[]"
        }
      ],
      "stateMutability": "view",
      "type": "function"
    },
    {
      "inputs": [
        {
          "internalType": "uint256",
          "name": "_idParcelle",
          "type": "uint256"
        },
        {
          "internalType": "enum ProducteurEnPhaseCulture.Etape",
          "name": "_etape",
          "type": "uint8"
        }
      ],
      "name": "mettreAJourEtape",
      "outputs": [],
      "stateMutability": "nonpayable",
      "type": "function"
    },
    {
      "inputs": [
        {
          "internalType": "uint256",
          "name": "_idParcelle",
          "type": "uint256"
        }
      ],
      "name": "obtenirInformationsParcelle",
      "outputs": [
        {
          "internalType": "string",
          "name": "qualiteSemence",
          "type": "string"
        },
        {
          "internalType": "string",
          "name": "methodeCulture",
          "type": "string"
        },
        {
          "internalType": "string",
          "name": "latitude",
          "type": "string"
        },
        {
          "internalType": "string",
          "name": "longitude",
          "type": "string"
        },
        {
          "internalType": "string",
          "name": "produit",
          "type": "string"
        },
        {
          "internalType": "string",
          "name": "dateRecolte",
          "type": "string"
        },
        {
          "internalType": "string",
          "name": "certificatPhytosanitaire",
          "type": "string"
        }
      ],
      "stateMutability": "view",
      "type": "function"
    },
    {
      "inputs": [
        {
          "internalType": "uint256",
          "name": "",
          "type": "uint256"
        }
      ],
      "name": "paiements",
      "outputs": [
        {
          "internalType": "uint256",
          "name": "id",
          "type": "uint256"
        },
        {
          "internalType": "address",
          "name": "payeur",
          "type": "address"
        },
        {
          "internalType": "uint256",
          "name": "montant",
          "type": "uint256"
        },
        {
          "internalType": "enum ProducteurEnPhaseCulture.ModePaiement",
          "name": "mode",
          "type": "uint8"
        },
        {
          "internalType": "uint256",
          "name": "timestamp",
          "type": "uint256"
        }
      ],
      "stateMutability": "view",
      "type": "function"
    },
    {
      "inputs": [
        {
          "internalType": "uint256",
          "name": "",
          "type": "uint256"
        }
      ],
      "name": "parcelles",
      "outputs": [
        {
          "internalType": "uint256",
          "name": "id",
          "type": "uint256"
        },
        {
          "internalType": "address",
          "name": "producteur",
          "type": "address"
        },
        {
          "internalType": "string",
          "name": "qualiteSemence",
          "type": "string"
        },
        {
          "internalType": "string",
          "name": "methodeCulture",
          "type": "string"
        },
        {
          "internalType": "bool",
          "name": "certifie",
          "type": "bool"
        },
        {
          "internalType": "enum ProducteurEnPhaseCulture.Etape",
          "name": "etape",
          "type": "uint8"
        },
        {
          "internalType": "string",
          "name": "latitude",
          "type": "string"
        },
        {
          "internalType": "string",
          "name": "longitude",
          "type": "string"
        },
        {
          "internalType": "string",
          "name": "produit",
          "type": "string"
        },
        {
          "internalType": "string",
          "name": "dateRecolte",
          "type": "string"
        },
        {
          "internalType": "string",
          "name": "certificatPhytosanitaire",
          "type": "string"
        }
      ],
      "stateMutability": "view",
      "type": "function"
    },
    {
      "inputs": [
        {
          "internalType": "uint256",
          "name": "_idParcelle",
          "type": "uint256"
        },
        {
          "internalType": "string",
          "name": "_nom",
          "type": "string"
        },
        {
          "internalType": "bool",
          "name": "_valide",
          "type": "bool"
        }
      ],
      "name": "validerIntrant",
      "outputs": [],
      "stateMutability": "nonpayable",
      "type": "function"
    },
    {
      "stateMutability": "payable",
      "type": "receive"
    }
  ],
  "bytecode": "0x608060405234801561001057600080fd5b50615a1680620000216000396000f3fe6080604052600436106101d15760003560e01c806391e5954c116100f7578063c1a345dd11610095578063d16d510911610064578063d16d5109146106cb578063d1aa5bbe146106f6578063fdccf43314610734578063fe32398a1461075f576101d8565b8063c1a345dd1461060f578063c889bc6714610638578063cd3df1ed14610675578063cda36e63146106a0576101d8565b8063b262b0fb116100d1578063b262b0fb14610543578063b96cc76f14610580578063bbfcc311146105a9578063bfc5167c146105d2576101d8565b806391e5954c146104ae57806393c2f9b4146104ef578063b0b210671461051a576101d8565b80633c4b76c51161016f57806370b0728b1161013e57806370b0728b146103c85780637b906d47146103f15780637f6452731461042e5780639016d62114610471576101d8565b80633c4b76c514610320578063487396f21461034957806361153ee914610372578063687112e21461039d576101d8565b80631eada765116101ab5780631eada765146102485780632aae399c1461028557806331686f41146102cc5780633a934f75146102f7576101d8565b80630ee99848146101da57806315e20529146102035780631cb0efc31461021f576101d8565b366101d857005b005b3480156101e657600080fd5b5061020160048036038101906101fc91906140f9565b61079c565b005b61021d600480360381019061021891906142d6565b61093d565b005b34801561022b57600080fd5b5061024660048036038101906102419190613f4e565b610be5565b005b34801561025457600080fd5b5061026f600480360381019061026a9190614094565b611000565b60405161027c9190614fa7565b60405180910390f35b34801561029157600080fd5b506102ac60048036038101906102a79190614094565b6111ad565b6040516102c39b9a9998979695949392919061534a565b60405180910390f35b3480156102d857600080fd5b506102e16115f9565b6040516102ee919061532f565b60405180910390f35b34801561030357600080fd5b5061031e60048036038101906103199190614135565b611603565b005b34801561032c57600080fd5b5061034760048036038101906103429190614135565b611852565b005b34801561035557600080fd5b50610370600480360381019061036b91906141f0565b6119df565b005b34801561037e57600080fd5b50610387611bef565b604051610394919061532f565b60405180910390f35b3480156103a957600080fd5b506103b2611bf5565b6040516103bf919061532f565b60405180910390f35b3480156103d457600080fd5b506103ef60048036038101906103ea9190614189565b611bfb565b005b3480156103fd57600080fd5b5061041860048036038101906104139190614094565b611ea1565b6040516104259190614feb565b60405180910390f35b34801561043a57600080fd5b5061045560048036038101906104509190614094565b611fcd565b60405161046897969594939291906150e7565b60405180910390f35b34801561047d57600080fd5b5061049860048036038101906104939190614094565b61243e565b6040516104a59190614fc9565b60405180910390f35b3480156104ba57600080fd5b506104d560048036038101906104d09190614094565b6125af565b6040516104e6959493929190615472565b60405180910390f35b3480156104fb57600080fd5b50610504612612565b604051610511919061532f565b60405180910390f35b34801561052657600080fd5b50610541600480360381019061053c91906140bd565b61261c565b005b34801561054f57600080fd5b5061056a60048036038101906105659190614094565b61282f565b604051610577919061530d565b60405180910390f35b34801561058c57600080fd5b506105a760048036038101906105a29190613f12565b61323e565b005b3480156105b557600080fd5b506105d060048036038101906105cb919061426f565b6133d1565b005b3480156105de57600080fd5b506105f960048036038101906105f49190614094565b6135b7565b6040516106069190614f85565b60405180910390f35b34801561061b57600080fd5b50610636600480360381019061063191906140bd565b6136a6565b005b34801561064457600080fd5b5061065f600480360381019061065a9190614094565b6138e7565b60405161066c91906152f2565b60405180910390f35b34801561068157600080fd5b5061068a613a0f565b604051610697919061532f565b60405180910390f35b3480156106ac57600080fd5b506106b5613a15565b6040516106c2919061532f565b60405180910390f35b3480156106d757600080fd5b506106e0613a1b565b6040516106ed919061532f565b60405180910390f35b34801561070257600080fd5b5061071d60048036038101906107189190613ee9565b613a25565b60405161072b929190614f5c565b60405180910390f35b34801561074057600080fd5b50610749613a76565b604051610756919061532f565b60405180910390f35b34801561076b57600080fd5b5061078660048036038101906107819190613ee9565b613a80565b60405161079391906152d7565b60405180910390f35b600060068111156107d6577f4e487b7100000000000000000000000000000000000000000000000000000000600052602160045260246000fd5b6000803373ffffffffffffffffffffffffffffffffffffffff1673ffffffffffffffffffffffffffffffffffffffff16815260200190815260200160002060000160149054906101000a900460ff16600681111561085d577f4e487b7100000000000000000000000000000000000000000000000000000000600052602160045260246000fd5b1461089d576040517f08c379a0000000000000000000000000000000000000000000000000000000008152600401610894906151d7565b60405180910390fd5b806001600084815260200190815260200160002060040160016101000a81548160ff021916908360038111156108fc577f4e487b7100000000000000000000000000000000000000000000000000000000600052602160045260246000fd5b0217905550817f45b242b5fc63415549b3b82a5f92422875e4d12321c4e12bafa6c1895dd8e32d826040516109319190615028565b60405180910390a25050565b60036006811115610977577f4e487b7100000000000000000000000000000000000000000000000000000000600052602160045260246000fd5b6000803373ffffffffffffffffffffffffffffffffffffffff1673ffffffffffffffffffffffffffffffffffffffff16815260200190815260200160002060000160149054906101000a900460ff1660068111156109fe577f4e487b7100000000000000000000000000000000000000000000000000000000600052602160045260246000fd5b14610a3e576040517f08c379a0000000000000000000000000000000000000000000000000000000008152600401610a3590615277565b60405180910390fd5b60066000815480929190610a5190615819565b91905055506040518060a0016040528060065481526020013373ffffffffffffffffffffffffffffffffffffffff168152602001838152602001826002811115610ac4577f4e487b7100000000000000000000000000000000000000000000000000000000600052602160045260246000fd5b815260200142815250600260008581526020019081526020016000206000820151816000015560208201518160010160006101000a81548173ffffffffffffffffffffffffffffffffffffffff021916908373ffffffffffffffffffffffffffffffffffffffff1602179055506040820151816002015560608201518160030160006101000a81548160ff02191690836002811115610b8c577f4e487b7100000000000000000000000000000000000000000000000000000000600052602160045260246000fd5b021790555060808201518160040155905050827f9fb3f4476c40468867890e22eb6a25fef181c86330769deb6a9a5917a78eff4460065433858542604051610bd8959493929190615472565b60405180910390a2505050565b60006006811115610c1f577f4e487b7100000000000000000000000000000000000000000000000000000000600052602160045260246000fd5b6000803373ffffffffffffffffffffffffffffffffffffffff1673ffffffffffffffffffffffffffffffffffffffff16815260200190815260200160002060000160149054906101000a900460ff166006811115610ca6577f4e487b7100000000000000000000000000000000000000000000000000000000600052602160045260246000fd5b14610ce6576040517f08c379a0000000000000000000000000000000000000000000000000000000008152600401610cdd906151d7565b60405180910390fd5b60036000815480929190610cf990615819565b9190505550600354600160006003548152602001908152602001600020600001819055503360016000600354815260200190815260200160002060010160006101000a81548173ffffffffffffffffffffffffffffffffffffffff021916908373ffffffffffffffffffffffffffffffffffffffff160217905550866001600060035481526020019081526020016000206002019080519060200190610da0929190613bb5565b50856001600060035481526020019081526020016000206003019080519060200190610dcd929190613bb5565b50600060016000600354815260200190815260200160002060040160006101000a81548160ff021916908315150217905550600060016000600354815260200190815260200160002060040160016101000a81548160ff02191690836003811115610e61577f4e487b7100000000000000000000000000000000000000000000000000000000600052602160045260246000fd5b0217905550846001600060035481526020019081526020016000206005019080519060200190610e92929190613bb5565b50836001600060035481526020019081526020016000206006019080519060200190610ebf929190613bb5565b5082600160006003548152602001908152602001600020600b019080519060200190610eec929190613bb5565b5081600160006003548152602001908152602001600020600c019080519060200190610f19929190613bb5565b5080600160006003548152602001908152602001600020600d019080519060200190610f46929190613bb5565b506003547f76020fc040e621874f31bd683ac3c70ae524d6682f783cdb9ead5f6d303c258388604051610f79919061505e565b60405180910390a26003547f4b291666c2cd3cd2be2ae7085933be794c81b3a759eeb12c058b2b26a48a93e187604051610fb3919061505e565b60405180910390a26003547f2f69d44a966e818e483aa2b077fe4fc704ad4ee2a6e35937fc403834e3ba9f798686604051610fef9291906150b0565b60405180910390a250505050505050565b606060016000838152602001908152602001600020600a01805480602002602001604051908101604052809291908181526020016000905b828210156111a2578382906000526020600020906004020160405180608001604052908160008201548152602001600182018054611075906157e7565b80601f01602080910402602001604051908101604052809291908181526020018280546110a1906157e7565b80156110ee5780601f106110c3576101008083540402835291602001916110ee565b820191906000526020600020905b8154815290600101906020018083116110d157829003601f168201915b50505050508152602001600282018054611107906157e7565b80601f0160208091040260200160405190810160405280929190818152602001828054611133906157e7565b80156111805780601f1061115557610100808354040283529160200191611180565b820191906000526020600020905b81548152906001019060200180831161116357829003601f168201915b5050505050815260200160038201548152505081526020019060010190611038565b505050509050919050565b60016020528060005260406000206000915090508060000154908060010160009054906101000a900473ffffffffffffffffffffffffffffffffffffffff16908060020180546111fc906157e7565b80601f0160208091040260200160405190810160405280929190818152602001828054611228906157e7565b80156112755780601f1061124a57610100808354040283529160200191611275565b820191906000526020600020905b81548152906001019060200180831161125857829003601f168201915b50505050509080600301805461128a906157e7565b80601f01602080910402602001604051908101604052809291908181526020018280546112b6906157e7565b80156113035780601f106112d857610100808354040283529160200191611303565b820191906000526020600020905b8154815290600101906020018083116112e657829003601f168201915b5050505050908060040160009054906101000a900460ff16908060040160019054906101000a900460ff169080600501805461133e906157e7565b80601f016020809104026020016040519081016040528092919081815260200182805461136a906157e7565b80156113b75780601f1061138c576101008083540402835291602001916113b7565b820191906000526020600020905b81548152906001019060200180831161139a57829003601f168201915b5050505050908060060180546113cc906157e7565b80601f01602080910402602001604051908101604052809291908181526020018280546113f8906157e7565b80156114455780601f1061141a57610100808354040283529160200191611445565b820191906000526020600020905b81548152906001019060200180831161142857829003601f168201915b50505050509080600b01805461145a906157e7565b80601f0160208091040260200160405190810160405280929190818152602001828054611486906157e7565b80156114d35780601f106114a8576101008083540402835291602001916114d3565b820191906000526020600020905b8154815290600101906020018083116114b657829003601f168201915b50505050509080600c0180546114e8906157e7565b80601f0160208091040260200160405190810160405280929190818152602001828054611514906157e7565b80156115615780601f1061153657610100808354040283529160200191611561565b820191906000526020600020905b81548152906001019060200180831161154457829003601f168201915b50505050509080600d018054611576906157e7565b80601f01602080910402602001604051908101604052809291908181526020018280546115a2906157e7565b80156115ef5780601f106115c4576101008083540402835291602001916115ef565b820191906000526020600020905b8154815290600101906020018083116115d257829003601f168201915b505050505090508b565b6000600354905090565b6004600681111561163d577f4e487b7100000000000000000000000000000000000000000000000000000000600052602160045260246000fd5b6000803373ffffffffffffffffffffffffffffffffffffffff1673ffffffffffffffffffffffffffffffffffffffff16815260200190815260200160002060000160149054906101000a900460ff1660068111156116c4577f4e487b7100000000000000000000000000000000000000000000000000000000600052602160045260246000fd5b14611704576040517f08c379a00000000000000000000000000000000000000000000000000000000081526004016116fb906151b7565b60405180910390fd5b6004600081548092919061171790615819565b919050555060016000838152602001908152602001600020600901604051806080016040528060045481526020013373ffffffffffffffffffffffffffffffffffffffff1681526020018381526020014281525090806001815401808255809150506001900390600052602060002090600402016000909190919091506000820151816000015560208201518160010160006101000a81548173ffffffffffffffffffffffffffffffffffffffff021916908373ffffffffffffffffffffffffffffffffffffffff1602179055506040820151816002019080519060200190611801929190613bb5565b50606082015181600301555050817f01a45eca5add8bc008d04da47eb5d17311e76e71fdcdf26dde57b4370a03bfa76004543384426040516118469493929190615426565b60405180910390a25050565b6000600681111561188c577f4e487b7100000000000000000000000000000000000000000000000000000000600052602160045260246000fd5b6000803373ffffffffffffffffffffffffffffffffffffffff1673ffffffffffffffffffffffffffffffffffffffff16815260200190815260200160002060000160149054906101000a900460ff166006811115611913577f4e487b7100000000000000000000000000000000000000000000000000000000600052602160045260246000fd5b14611953576040517f08c379a000000000000000000000000000000000000000000000000000000000815260040161194a906151d7565b60405180910390fd5b60016000838152602001908152602001600020600701819080600181540180825580915050600190039060005260206000200160009091909190915090805190602001906119a2929190613bb5565b50817f3e91c1bda32051113f8f1aaa1b3fb12b874b54bfd3dbdb463ee2836493a83c9d826040516119d3919061505e565b60405180910390a25050565b60056006811115611a19577f4e487b7100000000000000000000000000000000000000000000000000000000600052602160045260246000fd5b6000803373ffffffffffffffffffffffffffffffffffffffff1673ffffffffffffffffffffffffffffffffffffffff16815260200190815260200160002060000160149054906101000a900460ff166006811115611aa0577f4e487b7100000000000000000000000000000000000000000000000000000000600052602160045260246000fd5b14611ae0576040517f08c379a0000000000000000000000000000000000000000000000000000000008152600401611ad7906152b7565b60405180910390fd5b60056000815480929190611af390615819565b919050555060016000848152602001908152602001600020600a0160405180608001604052806005548152602001848152602001838152602001428152509080600181540180825580915050600190039060005260206000209060040201600090919091909150600082015181600001556020820151816001019080519060200190611b80929190613bb5565b506040820151816002019080519060200190611b9d929190613bb5565b50606082015181600301555050827fa313df723389871f22ba2e986d3ad5724712c38a270e9ec008e6037c670862da600554848442604051611be294939291906154c5565b60405180910390a2505050565b60035481565b60055481565b60026006811115611c35577f4e487b7100000000000000000000000000000000000000000000000000000000600052602160045260246000fd5b6000803373ffffffffffffffffffffffffffffffffffffffff1673ffffffffffffffffffffffffffffffffffffffff16815260200190815260200160002060000160149054906101000a900460ff166006811115611cbc577f4e487b7100000000000000000000000000000000000000000000000000000000600052602160045260246000fd5b14611cfc576040517f08c379a0000000000000000000000000000000000000000000000000000000008152600401611cf3906151f7565b60405180910390fd5b60005b6001600085815260200190815260200160002060080180549050811015611e9b5782604051602001611d319190614f2e565b60405160208183030381529060405280519060200120600160008681526020019081526020016000206008018281548110611d95577f4e487b7100000000000000000000000000000000000000000000000000000000600052603260045260246000fd5b9060005260206000209060030201600001604051602001611db69190614f45565b604051602081830303815290604052805190602001201415611e885781600160008681526020019081526020016000206008018281548110611e21577f4e487b7100000000000000000000000000000000000000000000000000000000600052603260045260246000fd5b906000526020600020906003020160020160006101000a81548160ff021916908315150217905550837f48a30b2f4fe18c85c3ef5f067c24f56cb42dd613715bce20f76dcaa87077d96f8484604051611e7b929190615080565b60405180910390a2611e9b565b8080611e9390615819565b915050611cff565b50505050565b606060016000838152602001908152602001600020600801805480602002602001604051908101604052809291908181526020016000905b82821015611fc25783829060005260206000209060030201604051806060016040529081600082018054611f0c906157e7565b80601f0160208091040260200160405190810160405280929190818152602001828054611f38906157e7565b8015611f855780601f10611f5a57610100808354040283529160200191611f85565b820191906000526020600020905b815481529060010190602001808311611f6857829003601f168201915b50505050508152602001600182015481526020016002820160009054906101000a900460ff16151515158152505081526020019060010190611ed9565b505050509050919050565b606080606080606080606060035488111561201d576040517f08c379a000000000000000000000000000000000000000000000000000000000815260040161201490615237565b60405180910390fd5b6000600160008a815260200190815260200160002090508060020181600301826005018360060184600b0185600c0186600d0186805461205c906157e7565b80601f0160208091040260200160405190810160405280929190818152602001828054612088906157e7565b80156120d55780601f106120aa576101008083540402835291602001916120d5565b820191906000526020600020905b8154815290600101906020018083116120b857829003601f168201915b505050505096508580546120e8906157e7565b80601f0160208091040260200160405190810160405280929190818152602001828054612114906157e7565b80156121615780601f1061213657610100808354040283529160200191612161565b820191906000526020600020905b81548152906001019060200180831161214457829003601f168201915b50505050509550848054612174906157e7565b80601f01602080910402602001604051908101604052809291908181526020018280546121a0906157e7565b80156121ed5780601f106121c2576101008083540402835291602001916121ed565b820191906000526020600020905b8154815290600101906020018083116121d057829003601f168201915b50505050509450838054612200906157e7565b80601f016020809104026020016040519081016040528092919081815260200182805461222c906157e7565b80156122795780601f1061224e57610100808354040283529160200191612279565b820191906000526020600020905b81548152906001019060200180831161225c57829003601f168201915b5050505050935082805461228c906157e7565b80601f01602080910402602001604051908101604052809291908181526020018280546122b8906157e7565b80156123055780601f106122da57610100808354040283529160200191612305565b820191906000526020600020905b8154815290600101906020018083116122e857829003601f168201915b50505050509250818054612318906157e7565b80601f0160208091040260200160405190810160405280929190818152602001828054612344906157e7565b80156123915780601f1061236657610100808354040283529160200191612391565b820191906000526020600020905b81548152906001019060200180831161237457829003601f168201915b505050505091508080546123a4906157e7565b80601f01602080910402602001604051908101604052809291908181526020018280546123d0906157e7565b801561241d5780601f106123f25761010080835404028352916020019161241d565b820191906000526020600020905b81548152906001019060200180831161240057829003601f168201915b50505050509050975097509750975097509750975050919395979092949650565b606060016000838152602001908152602001600020600901805480602002602001604051908101604052809291908181526020016000905b828210156125a45783829060005260206000209060040201604051806080016040529081600082015481526020016001820160009054906101000a900473ffffffffffffffffffffffffffffffffffffffff1673ffffffffffffffffffffffffffffffffffffffff1673ffffffffffffffffffffffffffffffffffffffff168152602001600282018054612509906157e7565b80601f0160208091040260200160405190810160405280929190818152602001828054612535906157e7565b80156125825780601f1061255757610100808354040283529160200191612582565b820191906000526020600020905b81548152906001019060200180831161256557829003601f168201915b5050505050815260200160038201548152505081526020019060010190612476565b505050509050919050565b60026020528060005260406000206000915090508060000154908060010160009054906101000a900473ffffffffffffffffffffffffffffffffffffffff16908060020154908060030160009054906101000a900460ff16908060040154905085565b6000600554905090565b60026006811115612656577f4e487b7100000000000000000000000000000000000000000000000000000000600052602160045260246000fd5b6000803373ffffffffffffffffffffffffffffffffffffffff1673ffffffffffffffffffffffffffffffffffffffff16815260200190815260200160002060000160149054906101000a900460ff1660068111156126dd577f4e487b7100000000000000000000000000000000000000000000000000000000600052602160045260246000fd5b1461271d576040517f08c379a0000000000000000000000000000000000000000000000000000000008152600401612714906151f7565b60405180910390fd5b60026003811115612757577f4e487b7100000000000000000000000000000000000000000000000000000000600052602160045260246000fd5b6001600084815260200190815260200160002060040160019054906101000a900460ff1660038111156127b3577f4e487b7100000000000000000000000000000000000000000000000000000000600052602160045260246000fd5b146127f3576040517f08c379a00000000000000000000000000000000000000000000000000000000081526004016127ea90615217565b60405180910390fd5b817fb0a26e6f92742be73e2b10e4ca6494bc6f97c828c1f06afc1aad3e69eb1a62eb82604051612823919061500d565b60405180910390a25050565b612837613c3b565b60016000838152602001908152602001600020604051806101e0016040529081600082015481526020016001820160009054906101000a900473ffffffffffffffffffffffffffffffffffffffff1673ffffffffffffffffffffffffffffffffffffffff1673ffffffffffffffffffffffffffffffffffffffff1681526020016002820180546128c6906157e7565b80601f01602080910402602001604051908101604052809291908181526020018280546128f2906157e7565b801561293f5780601f106129145761010080835404028352916020019161293f565b820191906000526020600020905b81548152906001019060200180831161292257829003601f168201915b50505050508152602001600382018054612958906157e7565b80601f0160208091040260200160405190810160405280929190818152602001828054612984906157e7565b80156129d15780601f106129a6576101008083540402835291602001916129d1565b820191906000526020600020905b8154815290600101906020018083116129b457829003601f168201915b505050505081526020016004820160009054906101000a900460ff161515151581526020016004820160019054906101000a900460ff166003811115612a40577f4e487b7100000000000000000000000000000000000000000000000000000000600052602160045260246000fd5b6003811115612a78577f4e487b7100000000000000000000000000000000000000000000000000000000600052602160045260246000fd5b8152602001600582018054612a8c906157e7565b80601f0160208091040260200160405190810160405280929190818152602001828054612ab8906157e7565b8015612b055780601f10612ada57610100808354040283529160200191612b05565b820191906000526020600020905b815481529060010190602001808311612ae857829003601f168201915b50505050508152602001600682018054612b1e906157e7565b80601f0160208091040260200160405190810160405280929190818152602001828054612b4a906157e7565b8015612b975780601f10612b6c57610100808354040283529160200191612b97565b820191906000526020600020905b815481529060010190602001808311612b7a57829003601f168201915b5050505050815260200160078201805480602002602001604051908101604052809291908181526020016000905b82821015612c71578382906000526020600020018054612be4906157e7565b80601f0160208091040260200160405190810160405280929190818152602001828054612c10906157e7565b8015612c5d5780601f10612c3257610100808354040283529160200191612c5d565b820191906000526020600020905b815481529060010190602001808311612c4057829003601f168201915b505050505081526020019060010190612bc5565b50505050815260200160088201805480602002602001604051908101604052809291908181526020016000905b82821015612d875783829060005260206000209060030201604051806060016040529081600082018054612cd1906157e7565b80601f0160208091040260200160405190810160405280929190818152602001828054612cfd906157e7565b8015612d4a5780601f10612d1f57610100808354040283529160200191612d4a565b820191906000526020600020905b815481529060010190602001808311612d2d57829003601f168201915b50505050508152602001600182015481526020016002820160009054906101000a900460ff16151515158152505081526020019060010190612c9e565b50505050815260200160098201805480602002602001604051908101604052809291908181526020016000905b82821015612ee25783829060005260206000209060040201604051806080016040529081600082015481526020016001820160009054906101000a900473ffffffffffffffffffffffffffffffffffffffff1673ffffffffffffffffffffffffffffffffffffffff1673ffffffffffffffffffffffffffffffffffffffff168152602001600282018054612e47906157e7565b80601f0160208091040260200160405190810160405280929190818152602001828054612e73906157e7565b8015612ec05780601f10612e9557610100808354040283529160200191612ec0565b820191906000526020600020905b815481529060010190602001808311612ea357829003601f168201915b5050505050815260200160038201548152505081526020019060010190612db4565b505050508152602001600a8201805480602002602001604051908101604052809291908181526020016000905b82821015613079578382906000526020600020906004020160405180608001604052908160008201548152602001600182018054612f4c906157e7565b80601f0160208091040260200160405190810160405280929190818152602001828054612f78906157e7565b8015612fc55780601f10612f9a57610100808354040283529160200191612fc5565b820191906000526020600020905b815481529060010190602001808311612fa857829003601f168201915b50505050508152602001600282018054612fde906157e7565b80601f016020809104026020016040519081016040528092919081815260200182805461300a906157e7565b80156130575780601f1061302c57610100808354040283529160200191613057565b820191906000526020600020905b81548152906001019060200180831161303a57829003601f168201915b5050505050815260200160038201548152505081526020019060010190612f0f565b505050508152602001600b82018054613091906157e7565b80601f01602080910402602001604051908101604052809291908181526020018280546130bd906157e7565b801561310a5780601f106130df5761010080835404028352916020019161310a565b820191906000526020600020905b8154815290600101906020018083116130ed57829003601f168201915b50505050508152602001600c82018054613123906157e7565b80601f016020809104026020016040519081016040528092919081815260200182805461314f906157e7565b801561319c5780601f106131715761010080835404028352916020019161319c565b820191906000526020600020905b81548152906001019060200180831161317f57829003601f168201915b50505050508152602001600d820180546131b5906157e7565b80601f01602080910402602001604051908101604052809291908181526020018280546131e1906157e7565b801561322e5780601f106132035761010080835404028352916020019161322e565b820191906000526020600020905b81548152906001019060200180831161321157829003601f168201915b5050505050815250509050919050565b60405180604001604052808373ffffffffffffffffffffffffffffffffffffffff16815260200182600681111561329e577f4e487b7100000000000000000000000000000000000000000000000000000000600052602160045260246000fd5b8152506000808473ffffffffffffffffffffffffffffffffffffffff1673ffffffffffffffffffffffffffffffffffffffff16815260200190815260200160002060008201518160000160006101000a81548173ffffffffffffffffffffffffffffffffffffffff021916908373ffffffffffffffffffffffffffffffffffffffff16021790555060208201518160000160146101000a81548160ff02191690836006811115613377577f4e487b7100000000000000000000000000000000000000000000000000000000600052602160045260246000fd5b02179055509050508173ffffffffffffffffffffffffffffffffffffffff167fbd86914a2cea41efb2ef2e360c4375dceb3c2ec14c6876f40345126b9ac1f3cc826040516133c59190615043565b60405180910390a25050565b6001600681111561340b577f4e487b7100000000000000000000000000000000000000000000000000000000600052602160045260246000fd5b6000803373ffffffffffffffffffffffffffffffffffffffff1673ffffffffffffffffffffffffffffffffffffffff16815260200190815260200160002060000160149054906101000a900460ff166006811115613492577f4e487b7100000000000000000000000000000000000000000000000000000000600052602160045260246000fd5b146134d2576040517f08c379a00000000000000000000000000000000000000000000000000000000081526004016134c990615297565b60405180910390fd5b600160008481526020019081526020016000206008016040518060600160405280848152602001838152602001600015158152509080600181540180825580915050600190039060005260206000209060030201600090919091909150600082015181600001908051906020019061354b929190613bb5565b506020820151816001015560408201518160020160006101000a81548160ff0219169083151502179055505050827f375185d24a1c31669068f184b530875ecc60b01611be86ca7346d6f42aa7b24a83836040516135aa929190615187565b60405180910390a2505050565b606060016000838152602001908152602001600020600701805480602002602001604051908101604052809291908181526020016000905b8282101561369b57838290600052602060002001805461360e906157e7565b80601f016020809104026020016040519081016040528092919081815260200182805461363a906157e7565b80156136875780601f1061365c57610100808354040283529160200191613687565b820191906000526020600020905b81548152906001019060200180831161366a57829003601f168201915b5050505050815260200190600101906135ef565b505050509050919050565b600260068111156136e0577f4e487b7100000000000000000000000000000000000000000000000000000000600052602160045260246000fd5b6000803373ffffffffffffffffffffffffffffffffffffffff1673ffffffffffffffffffffffffffffffffffffffff16815260200190815260200160002060000160149054906101000a900460ff166006811115613767577f4e487b7100000000000000000000000000000000000000000000000000000000600052602160045260246000fd5b146137a7576040517f08c379a000000000000000000000000000000000000000000000000000000000815260040161379e906151f7565b60405180910390fd5b600160038111156137e1577f4e487b7100000000000000000000000000000000000000000000000000000000600052602160045260246000fd5b6001600084815260200190815260200160002060040160019054906101000a900460ff16600381111561383d577f4e487b7100000000000000000000000000000000000000000000000000000000600052602160045260246000fd5b1461387d576040517f08c379a000000000000000000000000000000000000000000000000000000000815260040161387490615257565b60405180910390fd5b806001600084815260200190815260200160002060040160006101000a81548160ff021916908315150217905550817f8376f0f93a9f281fb3c3d346f9e32ed107438f6270d44c2f4c70f741db94738d826040516138db919061500d565b60405180910390a25050565b6138ef613d01565b600260008381526020019081526020016000206040518060a0016040529081600082015481526020016001820160009054906101000a900473ffffffffffffffffffffffffffffffffffffffff1673ffffffffffffffffffffffffffffffffffffffff1673ffffffffffffffffffffffffffffffffffffffff168152602001600282015481526020016003820160009054906101000a900460ff1660028111156139c2577f4e487b7100000000000000000000000000000000000000000000000000000000600052602160045260246000fd5b60028111156139fa577f4e487b7100000000000000000000000000000000000000000000000000000000600052602160045260246000fd5b81526020016004820154815250509050919050565b60065481565b60045481565b6000600454905090565b60006020528060005260406000206000915090508060000160009054906101000a900473ffffffffffffffffffffffffffffffffffffffff16908060000160149054906101000a900460ff16905082565b6000600654905090565b613a88613d7e565b6000808373ffffffffffffffffffffffffffffffffffffffff1673ffffffffffffffffffffffffffffffffffffffff1681526020019081526020016000206040518060400160405290816000820160009054906101000a900473ffffffffffffffffffffffffffffffffffffffff1673ffffffffffffffffffffffffffffffffffffffff1673ffffffffffffffffffffffffffffffffffffffff1681526020016000820160149054906101000a900460ff166006811115613b72577f4e487b7100000000000000000000000000000000000000000000000000000000600052602160045260246000fd5b6006811115613baa577f4e487b7100000000000000000000000000000000000000000000000000000000600052602160045260246000fd5b815250509050919050565b828054613bc1906157e7565b90600052602060002090601f016020900481019282613be35760008555613c2a565b82601f10613bfc57805160ff1916838001178555613c2a565b82800160010185558215613c2a579182015b82811115613c29578251825591602001919060010190613c0e565b5b509050613c379190613de6565b5090565b604051806101e0016040528060008152602001600073ffffffffffffffffffffffffffffffffffffffff168152602001606081526020016060815260200160001515815260200160006003811115613cbc577f4e487b7100000000000000000000000000000000000000000000000000000000600052602160045260246000fd5b81526020016060815260200160608152602001606081526020016060815260200160608152602001606081526020016060815260200160608152602001606081525090565b6040518060a0016040528060008152602001600073ffffffffffffffffffffffffffffffffffffffff1681526020016000815260200160006002811115613d71577f4e487b7100000000000000000000000000000000000000000000000000000000600052602160045260246000fd5b8152602001600081525090565b6040518060400160405280600073ffffffffffffffffffffffffffffffffffffffff16815260200160006006811115613de0577f4e487b7100000000000000000000000000000000000000000000000000000000600052602160045260246000fd5b81525090565b5b80821115613dff576000816000905550600101613de7565b5090565b6000613e16613e1184615549565b615518565b905082815260208101848484011115613e2e57600080fd5b613e398482856157a5565b509392505050565b600081359050613e508161596b565b92915050565b600081359050613e6581615982565b92915050565b600081359050613e7a81615999565b92915050565b600081359050613e8f816159a9565b92915050565b600081359050613ea4816159b9565b92915050565b600082601f830112613ebb57600080fd5b8135613ecb848260208601613e03565b91505092915050565b600081359050613ee3816159c9565b92915050565b600060208284031215613efb57600080fd5b6000613f0984828501613e41565b91505092915050565b60008060408385031215613f2557600080fd5b6000613f3385828601613e41565b9250506020613f4485828601613e95565b9150509250929050565b600080600080600080600060e0888a031215613f6957600080fd5b600088013567ffffffffffffffff811115613f8357600080fd5b613f8f8a828b01613eaa565b975050602088013567ffffffffffffffff811115613fac57600080fd5b613fb88a828b01613eaa565b965050604088013567ffffffffffffffff811115613fd557600080fd5b613fe18a828b01613eaa565b955050606088013567ffffffffffffffff811115613ffe57600080fd5b61400a8a828b01613eaa565b945050608088013567ffffffffffffffff81111561402757600080fd5b6140338a828b01613eaa565b93505060a088013567ffffffffffffffff81111561405057600080fd5b61405c8a828b01613eaa565b92505060c088013567ffffffffffffffff81111561407957600080fd5b6140858a828b01613eaa565b91505092959891949750929550565b6000602082840312156140a657600080fd5b60006140b484828501613ed4565b91505092915050565b600080604083850312156140d057600080fd5b60006140de85828601613ed4565b92505060206140ef85828601613e56565b9150509250929050565b6000806040838503121561410c57600080fd5b600061411a85828601613ed4565b925050602061412b85828601613e6b565b9150509250929050565b6000806040838503121561414857600080fd5b600061415685828601613ed4565b925050602083013567ffffffffffffffff81111561417357600080fd5b61417f85828601613eaa565b9150509250929050565b60008060006060848603121561419e57600080fd5b60006141ac86828701613ed4565b935050602084013567ffffffffffffffff8111156141c957600080fd5b6141d586828701613eaa565b92505060406141e686828701613e56565b9150509250925092565b60008060006060848603121561420557600080fd5b600061421386828701613ed4565b935050602084013567ffffffffffffffff81111561423057600080fd5b61423c86828701613eaa565b925050604084013567ffffffffffffffff81111561425957600080fd5b61426586828701613eaa565b9150509250925092565b60008060006060848603121561428457600080fd5b600061429286828701613ed4565b935050602084013567ffffffffffffffff8111156142af57600080fd5b6142bb86828701613eaa565b92505060406142cc86828701613ed4565b9150509250925092565b6000806000606084860312156142eb57600080fd5b60006142f986828701613ed4565b935050602061430a86828701613ed4565b925050604061431b86828701613e80565b9150509250925092565b600061433183836147b3565b905092915050565b60006143458383614c02565b905092915050565b60006143598383614c6c565b905092915050565b600061436d8383614ccf565b905092915050565b61437e816156ee565b82525050565b61438d816156ee565b82525050565b600061439e826155ce565b6143a88185615639565b9350836020820285016143ba85615579565b8060005b858110156143f657848403895281516143d78582614325565b94506143e283615605565b925060208a019950506001810190506143be565b50829750879550505050505092915050565b6000614413826155ce565b61441d818561564a565b93508360208202850161442f85615579565b8060005b8581101561446b578484038952815161444c8582614325565b945061445783615605565b925060208a01995050600181019050614433565b50829750879550505050505092915050565b6000614488826155d9565b614492818561565b565b9350836020820285016144a485615589565b8060005b858110156144e057848403895281516144c18582614339565b94506144cc83615612565b925060208a019950506001810190506144a8565b50829750879550505050505092915050565b60006144fd826155d9565b614507818561566c565b93508360208202850161451985615589565b8060005b8581101561455557848403895281516145368582614339565b945061454183615612565b925060208a0199505060018101905061451d565b50829750879550505050505092915050565b6000614572826155e4565b61457c818561567d565b93508360208202850161458e85615599565b8060005b858110156145ca57848403895281516145ab858261434d565b94506145b68361561f565b925060208a01995050600181019050614592565b50829750879550505050505092915050565b60006145e7826155e4565b6145f1818561568e565b93508360208202850161460385615599565b8060005b8581101561463f5784840389528151614620858261434d565b945061462b8361561f565b925060208a01995050600181019050614607565b50829750879550505050505092915050565b600061465c826155ef565b614666818561569f565b935083602082028501614678856155a9565b8060005b858110156146b457848403895281516146958582614361565b94506146a08361562c565b925060208a0199505060018101905061467c565b50829750879550505050505092915050565b60006146d1826155ef565b6146db81856156b0565b9350836020820285016146ed856155a9565b8060005b85811015614729578484038952815161470a8582614361565b94506147158361562c565b925060208a019950506001810190506146f1565b50829750879550505050505092915050565b61474481615700565b82525050565b61475381615700565b82525050565b6147628161576f565b82525050565b6147718161576f565b82525050565b61478081615781565b82525050565b61478f81615781565b82525050565b61479e81615793565b82525050565b6147ad81615793565b82525050565b60006147be826155fa565b6147c881856156c1565b93506147d88185602086016157b4565b6147e18161591e565b840191505092915050565b60006147f7826155fa565b61480181856156d2565b93506148118185602086016157b4565b61481a8161591e565b840191505092915050565b6000614830826155fa565b61483a81856156e3565b935061484a8185602086016157b4565b80840191505092915050565b60008154614863816157e7565b61486d81866156e3565b945060018216600081146148885760018114614899576148cc565b60ff198316865281860193506148cc565b6148a2856155b9565b60005b838110156148c4578154818901526001820191506020810190506148a5565b838801955050505b50505092915050565b60006148e26020836156d2565b91507f4e6f6e206175746f726973653a207365756c656d656e742041756469746575726000830152602082019050919050565b60006149226022836156d2565b91507f4e6f6e206175746f726973653a207365756c656d656e742050726f647563746560008301527f75720000000000000000000000000000000000000000000000000000000000006020830152604082019050919050565b60006149886025836156d2565b91507f4e6f6e206175746f726973653a207365756c656d656e7420436572746966696360008301527f61746575720000000000000000000000000000000000000000000000000000006020830152604082019050919050565b60006149ee6017836156d2565b91507f50617320656e206574617065206465207265636f6c74650000000000000000006000830152602082019050919050565b6000614a2e6018836156d2565b91507f43652070617263656c6c65206e276578697374652070617300000000000000006000830152602082019050919050565b6000614a6e6017836156d2565b91507f50617320656e2065746170652064652063756c747572650000000000000000006000830152602082019050919050565b6000614aae6022836156d2565b91507f4e6f6e206175746f726973653a207365756c656d656e7420436f6c6c6563746560008301527f75720000000000000000000000000000000000000000000000000000000000006020830152604082019050919050565b6000614b146023836156d2565b91507f4e6f6e206175746f726973653a207365756c656d656e7420466f75726e69737360008301527f65757200000000000000000000000000000000000000000000000000000000006020830152604082019050919050565b6000614b7a6024836156d2565b91507f4e6f6e206175746f726973653a207365756c656d656e74205472616e73706f7260008301527f74657572000000000000000000000000000000000000000000000000000000006020830152604082019050919050565b604082016000820151614be96000850182614375565b506020820151614bfc6020850182614795565b50505050565b6000608083016000830151614c1a6000860182614f10565b5060208301518482036020860152614c3282826147b3565b91505060408301518482036040860152614c4c82826147b3565b9150506060830151614c616060860182614f10565b508091505092915050565b6000608083016000830151614c846000860182614f10565b506020830151614c976020860182614375565b5060408301518482036040860152614caf82826147b3565b9150506060830151614cc46060860182614f10565b508091505092915050565b60006060830160008301518482036000860152614cec82826147b3565b9150506020830151614d016020860182614f10565b506040830151614d14604086018261473b565b508091505092915050565b60a082016000820151614d356000850182614f10565b506020820151614d486020850182614375565b506040820151614d5b6040850182614f10565b506060820151614d6e6060850182614777565b506080820151614d816080850182614f10565b50505050565b60006101e083016000830151614da06000860182614f10565b506020830151614db36020860182614375565b5060408301518482036040860152614dcb82826147b3565b91505060608301518482036060860152614de582826147b3565b9150506080830151614dfa608086018261473b565b5060a0830151614e0d60a0860182614759565b5060c083015184820360c0860152614e2582826147b3565b91505060e083015184820360e0860152614e3f82826147b3565b915050610100830151848203610100860152614e5b8282614393565b915050610120830151848203610120860152614e778282614651565b915050610140830151848203610140860152614e938282614567565b915050610160830151848203610160860152614eaf828261447d565b915050610180830151848203610180860152614ecb82826147b3565b9150506101a08301518482036101a0860152614ee782826147b3565b9150506101c08301518482036101c0860152614f0382826147b3565b9150508091505092915050565b614f1981615765565b82525050565b614f2881615765565b82525050565b6000614f3a8284614825565b915081905092915050565b6000614f518284614856565b915081905092915050565b6000604082019050614f716000830185614384565b614f7e60208301846147a4565b9392505050565b60006020820190508181036000830152614f9f8184614408565b905092915050565b60006020820190508181036000830152614fc181846144f2565b905092915050565b60006020820190508181036000830152614fe381846145dc565b905092915050565b6000602082019050818103600083015261500581846146c6565b905092915050565b6000602082019050615022600083018461474a565b92915050565b600060208201905061503d6000830184614768565b92915050565b600060208201905061505860008301846147a4565b92915050565b6000602082019050818103600083015261507881846147ec565b905092915050565b6000604082019050818103600083015261509a81856147ec565b90506150a9602083018461474a565b9392505050565b600060408201905081810360008301526150ca81856147ec565b905081810360208301526150de81846147ec565b90509392505050565b600060e0820190508181036000830152615101818a6147ec565b9050818103602083015261511581896147ec565b9050818103604083015261512981886147ec565b9050818103606083015261513d81876147ec565b9050818103608083015261515181866147ec565b905081810360a083015261516581856147ec565b905081810360c083015261517981846147ec565b905098975050505050505050565b600060408201905081810360008301526151a181856147ec565b90506151b06020830184614f1f565b9392505050565b600060208201905081810360008301526151d0816148d5565b9050919050565b600060208201905081810360008301526151f081614915565b9050919050565b600060208201905081810360008301526152108161497b565b9050919050565b60006020820190508181036000830152615230816149e1565b9050919050565b6000602082019050818103600083015261525081614a21565b9050919050565b6000602082019050818103600083015261527081614a61565b9050919050565b6000602082019050818103600083015261529081614aa1565b9050919050565b600060208201905081810360008301526152b081614b07565b9050919050565b600060208201905081810360008301526152d081614b6d565b9050919050565b60006040820190506152ec6000830184614bd3565b92915050565b600060a0820190506153076000830184614d1f565b92915050565b600060208201905081810360008301526153278184614d87565b905092915050565b60006020820190506153446000830184614f1f565b92915050565b600061016082019050615360600083018e614f1f565b61536d602083018d614384565b818103604083015261537f818c6147ec565b90508181036060830152615393818b6147ec565b90506153a2608083018a61474a565b6153af60a0830189614768565b81810360c08301526153c181886147ec565b905081810360e08301526153d581876147ec565b90508181036101008301526153ea81866147ec565b90508181036101208301526153ff81856147ec565b905081810361014083015261541481846147ec565b90509c9b505050505050505050505050565b600060808201905061543b6000830187614f1f565b6154486020830186614384565b818103604083015261545a81856147ec565b90506154696060830184614f1f565b95945050505050565b600060a0820190506154876000830188614f1f565b6154946020830187614384565b6154a16040830186614f1f565b6154ae6060830185614786565b6154bb6080830184614f1f565b9695505050505050565b60006080820190506154da6000830187614f1f565b81810360208301526154ec81866147ec565b9050818103604083015261550081856147ec565b905061550f6060830184614f1f565b95945050505050565b6000604051905081810181811067ffffffffffffffff8211171561553f5761553e6158ef565b5b8060405250919050565b600067ffffffffffffffff821115615564576155636158ef565b5b601f19601f8301169050602081019050919050565b6000819050602082019050919050565b6000819050602082019050919050565b6000819050602082019050919050565b6000819050602082019050919050565b60008190508160005260206000209050919050565b600081519050919050565b600081519050919050565b600081519050919050565b600081519050919050565b600081519050919050565b6000602082019050919050565b6000602082019050919050565b6000602082019050919050565b6000602082019050919050565b600082825260208201905092915050565b600082825260208201905092915050565b600082825260208201905092915050565b600082825260208201905092915050565b600082825260208201905092915050565b600082825260208201905092915050565b600082825260208201905092915050565b600082825260208201905092915050565b600082825260208201905092915050565b600082825260208201905092915050565b600081905092915050565b60006156f982615745565b9050919050565b60008115159050919050565b600081905061571a8261592f565b919050565b600081905061572d82615943565b919050565b600081905061574082615957565b919050565b600073ffffffffffffffffffffffffffffffffffffffff82169050919050565b6000819050919050565b600061577a8261570c565b9050919050565b600061578c8261571f565b9050919050565b600061579e82615732565b9050919050565b82818337600083830152505050565b60005b838110156157d25780820151818401526020810190506157b7565b838111156157e1576000848401525b50505050565b600060028204905060018216806157ff57607f821691505b60208210811415615813576158126158c0565b5b50919050565b600061582482615765565b91507fffffffffffffffffffffffffffffffffffffffffffffffffffffffffffffffff82141561585757615856615862565b5b600182019050919050565b7f4e487b7100000000000000000000000000000000000000000000000000000000600052601160045260246000fd5b7f4e487b7100000000000000000000000000000000000000000000000000000000600052602160045260246000fd5b7f4e487b7100000000000000000000000000000000000000000000000000000000600052602260045260246000fd5b7f4e487b7100000000000000000000000000000000000000000000000000000000600052604160045260246000fd5b6000601f19601f8301169050919050565b600481106159405761593f615891565b5b50565b6003811061595457615953615891565b5b50565b6007811061596857615967615891565b5b50565b615974816156ee565b811461597f57600080fd5b50565b61598b81615700565b811461599657600080fd5b50565b600481106159a657600080fd5b50565b600381106159b657600080fd5b50565b600781106159c657600080fd5b50565b6159d281615765565b81146159dd57600080fd5b5056fea26469706673582212205eb0db96a58219f9595be3d0a309219686992fb109f011c15db0f99c4cbe7a4c64736f6c63430008000033",
  "linkReferences": {},
  "deployedLinkReferences": {}
}