{
  "_format": "hh-sol-artifact-1",
  "contractName": "ProducteurEnPhaseCulture",
  "sourceName": "contracts/ProducteurEnPhaseCulture.sol",
  "abi": [
    {
      "inputs": [
        {
          "internalType": "address",
          "name": "_gestionnaireActeurs",
          "type": "address"
        }
      ],
      "stateMutability": "nonpayable",
      "type": "constructor"
    },
    {
      "stateMutability": "payable",
      "type": "fallback"
    },
    {
      "inputs": [
        {
          "internalType": "uint32",
          "name": "_idParcelle",
          "type": "uint32"
        },
        {
          "internalType": "string",
          "name": "_rapport",
          "type": "string"
        }
      ],
      "name": "ajouterInspection",
      "outputs": [],
      "stateMutability": "nonpayable",
      "type": "function"
    },
    {
      "inputs": [
        {
          "internalType": "uint32",
          "name": "_idParcelle",
          "type": "uint32"
        },
        {
          "internalType": "string",
          "name": "_nom",
          "type": "string"
        },
        {
          "internalType": "uint32",
          "name": "_quantite",
          "type": "uint32"
        }
      ],
      "name": "ajouterIntrant",
      "outputs": [],
      "stateMutability": "nonpayable",
      "type": "function"
    },
    {
      "inputs": [
        {
          "internalType": "uint32",
          "name": "_idParcelle",
          "type": "uint32"
        },
        {
          "internalType": "string",
          "name": "_urlPhoto",
          "type": "string"
        }
      ],
      "name": "ajouterPhoto",
      "outputs": [],
      "stateMutability": "nonpayable",
      "type": "function"
    },
    {
      "inputs": [
        {
          "internalType": "uint32",
          "name": "_idParcelle",
          "type": "uint32"
        },
        {
          "internalType": "bool",
          "name": "_passe",
          "type": "bool"
        }
      ],
      "name": "appliquerControlePhytosanitaire",
      "outputs": [],
      "stateMutability": "nonpayable",
      "type": "function"
    },
    {
      "inputs": [],
      "name": "compteurInspections",
      "outputs": [
        {
          "internalType": "uint32",
          "name": "",
          "type": "uint32"
        }
      ],
      "stateMutability": "view",
      "type": "function"
    },
    {
      "inputs": [],
      "name": "compteurParcelles",
      "outputs": [
        {
          "internalType": "uint32",
          "name": "",
          "type": "uint32"
        }
      ],
      "stateMutability": "view",
      "type": "function"
    },
    {
      "inputs": [
        {
          "internalType": "string",
          "name": "_qualiteSemence",
          "type": "string"
        },
        {
          "internalType": "string",
          "name": "_methodeCulture",
          "type": "string"
        },
        {
          "internalType": "string",
          "name": "_latitude",
          "type": "string"
        },
        {
          "internalType": "string",
          "name": "_longitude",
          "type": "string"
        },
        {
          "internalType": "string",
          "name": "_dateRecolte",
          "type": "string"
        },
        {
          "internalType": "string",
          "name": "_certificatPhytosanitaire",
          "type": "string"
        }
      ],
      "name": "creerParcelle",
      "outputs": [],
      "stateMutability": "nonpayable",
      "type": "function"
    },
    {
      "inputs": [],
      "name": "gestionnaireActeurs",
      "outputs": [
        {
          "internalType": "contract GestionnaireActeurs",
          "name": "",
          "type": "address"
        }
      ],
      "stateMutability": "view",
      "type": "function"
    },
    {
      "inputs": [
        {
          "internalType": "address",
          "name": "addr",
          "type": "address"
        }
      ],
      "name": "getActeur",
      "outputs": [
        {
          "components": [
            {
              "internalType": "address",
              "name": "addr",
              "type": "address"
            },
            {
              "internalType": "enum StructLib.Role",
              "name": "role",
              "type": "uint8"
            }
          ],
          "internalType": "struct StructLib.Acteur",
          "name": "",
          "type": "tuple"
        }
      ],
      "stateMutability": "view",
      "type": "function"
    },
    {
      "inputs": [],
      "name": "getCompteurInspection",
      "outputs": [
        {
          "internalType": "uint32",
          "name": "",
          "type": "uint32"
        }
      ],
      "stateMutability": "view",
      "type": "function"
    },
    {
      "inputs": [],
      "name": "getCompteurParcelle",
      "outputs": [
        {
          "internalType": "uint32",
          "name": "",
          "type": "uint32"
        }
      ],
      "stateMutability": "view",
      "type": "function"
    },
    {
      "inputs": [
        {
          "internalType": "uint32",
          "name": "idParcelle",
          "type": "uint32"
        }
      ],
      "name": "getConditions",
      "outputs": [
        {
          "components": [
            {
              "internalType": "uint32",
              "name": "id",
              "type": "uint32"
            },
            {
              "internalType": "string",
              "name": "temperature",
              "type": "string"
            },
            {
              "internalType": "string",
              "name": "humidite",
              "type": "string"
            },
            {
              "internalType": "uint256",
              "name": "timestamp",
              "type": "uint256"
            }
          ],
          "internalType": "struct StructLib.EnregistrementCondition[]",
          "name": "",
          "type": "tuple[]"
        }
      ],
      "stateMutability": "view",
      "type": "function"
    },
    {
      "inputs": [
        {
          "internalType": "uint32",
          "name": "idParcelle",
          "type": "uint32"
        }
      ],
      "name": "getInspections",
      "outputs": [
        {
          "components": [
            {
              "internalType": "uint32",
              "name": "id",
              "type": "uint32"
            },
            {
              "internalType": "address",
              "name": "auditeur",
              "type": "address"
            },
            {
              "internalType": "string",
              "name": "rapport",
              "type": "string"
            },
            {
              "internalType": "uint256",
              "name": "timestamp",
              "type": "uint256"
            }
          ],
          "internalType": "struct StructLib.Inspection[]",
          "name": "",
          "type": "tuple[]"
        }
      ],
      "stateMutability": "view",
      "type": "function"
    },
    {
      "inputs": [
        {
          "internalType": "uint32",
          "name": "idParcelle",
          "type": "uint32"
        }
      ],
      "name": "getIntrants",
      "outputs": [
        {
          "components": [
            {
              "internalType": "string",
              "name": "nom",
              "type": "string"
            },
            {
              "internalType": "uint32",
              "name": "quantite",
              "type": "uint32"
            },
            {
              "internalType": "bool",
              "name": "valide",
              "type": "bool"
            }
          ],
          "internalType": "struct StructLib.Intrant[]",
          "name": "",
          "type": "tuple[]"
        }
      ],
      "stateMutability": "view",
      "type": "function"
    },
    {
      "inputs": [
        {
          "internalType": "uint32",
          "name": "id",
          "type": "uint32"
        }
      ],
      "name": "getParcelle",
      "outputs": [
        {
          "components": [
            {
              "internalType": "uint32",
              "name": "id",
              "type": "uint32"
            },
            {
              "internalType": "address",
              "name": "producteur",
              "type": "address"
            },
            {
              "internalType": "string",
              "name": "qualiteSemence",
              "type": "string"
            },
            {
              "internalType": "string",
              "name": "methodeCulture",
              "type": "string"
            },
            {
              "internalType": "bool",
              "name": "certifie",
              "type": "bool"
            },
            {
              "internalType": "enum StructLib.Etape",
              "name": "etape",
              "type": "uint8"
            },
            {
              "internalType": "string",
              "name": "latitude",
              "type": "string"
            },
            {
              "internalType": "string",
              "name": "longitude",
              "type": "string"
            },
            {
              "internalType": "string[]",
              "name": "photos",
              "type": "string[]"
            },
            {
              "components": [
                {
                  "internalType": "string",
                  "name": "nom",
                  "type": "string"
                },
                {
                  "internalType": "uint32",
                  "name": "quantite",
                  "type": "uint32"
                },
                {
                  "internalType": "bool",
                  "name": "valide",
                  "type": "bool"
                }
              ],
              "internalType": "struct StructLib.Intrant[]",
              "name": "intrants",
              "type": "tuple[]"
            },
            {
              "components": [
                {
                  "internalType": "uint32",
                  "name": "id",
                  "type": "uint32"
                },
                {
                  "internalType": "address",
                  "name": "auditeur",
                  "type": "address"
                },
                {
                  "internalType": "string",
                  "name": "rapport",
                  "type": "string"
                },
                {
                  "internalType": "uint256",
                  "name": "timestamp",
                  "type": "uint256"
                }
              ],
              "internalType": "struct StructLib.Inspection[]",
              "name": "inspections",
              "type": "tuple[]"
            },
            {
              "components": [
                {
                  "internalType": "uint32",
                  "name": "id",
                  "type": "uint32"
                },
                {
                  "internalType": "string",
                  "name": "temperature",
                  "type": "string"
                },
                {
                  "internalType": "string",
                  "name": "humidite",
                  "type": "string"
                },
                {
                  "internalType": "uint256",
                  "name": "timestamp",
                  "type": "uint256"
                }
              ],
              "internalType": "struct StructLib.EnregistrementCondition[]",
              "name": "conditions",
              "type": "tuple[]"
            },
            {
              "internalType": "string",
              "name": "dateRecolte",
              "type": "string"
            },
            {
              "internalType": "string",
              "name": "certificatPhytosanitaire",
              "type": "string"
            }
          ],
          "internalType": "struct StructLib.Parcelle",
          "name": "",
          "type": "tuple"
        }
      ],
      "stateMutability": "view",
      "type": "function"
    },
    {
      "inputs": [
        {
          "internalType": "uint32",
          "name": "idParcelle",
          "type": "uint32"
        }
      ],
      "name": "getPhotos",
      "outputs": [
        {
          "internalType": "string[]",
          "name": "",
          "type": "string[]"
        }
      ],
      "stateMutability": "view",
      "type": "function"
    },
    {
      "inputs": [
        {
          "internalType": "uint32",
          "name": "_idParcelle",
          "type": "uint32"
        },
        {
          "internalType": "enum StructLib.Etape",
          "name": "_etape",
          "type": "uint8"
        }
      ],
      "name": "mettreAJourEtape",
      "outputs": [],
      "stateMutability": "nonpayable",
      "type": "function"
    },
    {
      "inputs": [
        {
          "internalType": "uint32",
          "name": "",
          "type": "uint32"
        }
      ],
      "name": "parcelles",
      "outputs": [
        {
          "internalType": "uint32",
          "name": "id",
          "type": "uint32"
        },
        {
          "internalType": "address",
          "name": "producteur",
          "type": "address"
        },
        {
          "internalType": "string",
          "name": "qualiteSemence",
          "type": "string"
        },
        {
          "internalType": "string",
          "name": "methodeCulture",
          "type": "string"
        },
        {
          "internalType": "bool",
          "name": "certifie",
          "type": "bool"
        },
        {
          "internalType": "enum StructLib.Etape",
          "name": "etape",
          "type": "uint8"
        },
        {
          "internalType": "string",
          "name": "latitude",
          "type": "string"
        },
        {
          "internalType": "string",
          "name": "longitude",
          "type": "string"
        },
        {
          "internalType": "string",
          "name": "dateRecolte",
          "type": "string"
        },
        {
          "internalType": "string",
          "name": "certificatPhytosanitaire",
          "type": "string"
        }
      ],
      "stateMutability": "view",
      "type": "function"
    },
    {
      "inputs": [
        {
          "internalType": "uint32",
          "name": "_idParcelle",
          "type": "uint32"
        },
        {
          "internalType": "string",
          "name": "_nom",
          "type": "string"
        },
        {
          "internalType": "bool",
          "name": "_valide",
          "type": "bool"
        }
      ],
      "name": "validerIntrant",
      "outputs": [],
      "stateMutability": "nonpayable",
      "type": "function"
    },
    {
      "stateMutability": "payable",
      "type": "receive"
    }
  ],
  "bytecode": "0x60806040523480156200001157600080fd5b506040516200460738038062004607833981810160405281019062000037919062000095565b806000806101000a81548173ffffffffffffffffffffffffffffffffffffffff021916908373ffffffffffffffffffffffffffffffffffffffff160217905550506200010f565b6000815190506200008f81620000f5565b92915050565b600060208284031215620000a857600080fd5b6000620000b8848285016200007e565b91505092915050565b6000620000ce82620000d5565b9050919050565b600073ffffffffffffffffffffffffffffffffffffffff82169050919050565b6200010081620000c1565b81146200010c57600080fd5b50565b6144e8806200011f6000396000f3fe6080604052600436106101185760003560e01c80639462fa1e116100a0578063ddb45fec11610064578063ddb45fec146103ae578063e1e67733146103eb578063ece32cd714610428578063f03d9af614610451578063fe32398a1461048e5761011f565b80639462fa1e146102db5780639e942cd414610304578063a149918c1461032f578063cda36e6314610358578063d16d5109146103835761011f565b8063421b3e08116100e7578063421b3e08146101e45780635d5efef9146102215780635ee250791461025e57806361153ee9146102875780637bc6edd1146102b25761011f565b806304bfefce146101215780631912121d1461014a57806331686f41146101905780633ab62bd7146101bb5761011f565b3661011f57005b005b34801561012d57600080fd5b50610148600480360381019061014391906131ee565b6104cb565b005b34801561015657600080fd5b50610171600480360381019061016c91906130f9565b610757565b6040516101879a99989796959493929190613f02565b60405180910390f35b34801561019c57600080fd5b506101a5610b25565b6040516101b29190613ee7565b60405180910390f35b3480156101c757600080fd5b506101e260048036038101906101dd919061319a565b610b3f565b005b3480156101f057600080fd5b5061020b600480360381019061020691906130f9565b610c8a565b6040516102189190613ec5565b60405180910390f35b34801561022d57600080fd5b50610248600480360381019061024391906130f9565b611683565b6040516102559190613dcd565b60405180910390f35b34801561026a57600080fd5b5061028560048036038101906102809190613255565b6117d7565b005b34801561029357600080fd5b5061029c61199c565b6040516102a99190613ee7565b60405180910390f35b3480156102be57600080fd5b506102d960048036038101906102d4919061319a565b6119b2565b005b3480156102e757600080fd5b5061030260048036038101906102fd919061315e565b611c13565b005b34801561031057600080fd5b50610319611d72565b6040516103269190613def565b60405180910390f35b34801561033b57600080fd5b5061035660048036038101906103519190612fe0565b611d96565b005b34801561036457600080fd5b5061036d612228565b60405161037a9190613ee7565b60405180910390f35b34801561038f57600080fd5b5061039861223e565b6040516103a59190613ee7565b60405180910390f35b3480156103ba57600080fd5b506103d560048036038101906103d091906130f9565b612258565b6040516103e29190613dab565b60405180910390f35b3480156103f757600080fd5b50610412600480360381019061040d91906130f9565b6123f1565b60405161041f9190613d89565b60405180910390f35b34801561043457600080fd5b5061044f600480360381019061044a9190613122565b6125c6565b005b34801561045d57600080fd5b50610478600480360381019061047391906130f9565b6127d1565b6040516104859190613d67565b60405180910390f35b34801561049a57600080fd5b506104b560048036038101906104b09190612df6565b6128cc565b6040516104c29190613eaa565b60405180910390f35b60008054906101000a900473ffffffffffffffffffffffffffffffffffffffff1673ffffffffffffffffffffffffffffffffffffffff1663d1e47bb33360026040518363ffffffff1660e01b8152600401610527929190613d3e565b60206040518083038186803b15801561053f57600080fd5b505afa158015610553573d6000803e3d6000fd5b505050506040513d601f19601f820116820180604052508101906105779190612e1f565b6105b6576040517f08c379a00000000000000000000000000000000000000000000000000000000081526004016105ad90613e4a565b60405180910390fd5b60005b600160008563ffffffff1663ffffffff168152602001908152602001600020600701805490508163ffffffff16101561075157826040516020016105fd9190613cf5565b60405160208183030381529060405280519060200120600160008663ffffffff1663ffffffff1681526020019081526020016000206007018263ffffffff1681548110610673577f4e487b7100000000000000000000000000000000000000000000000000000000600052603260045260246000fd5b90600052602060002090600202016000016040516020016106949190613d0c565b60405160208183030381529060405280519060200120141561073e5781600160008663ffffffff1663ffffffff1681526020019081526020016000206007018263ffffffff1681548110610711577f4e487b7100000000000000000000000000000000000000000000000000000000600052603260045260246000fd5b906000526020600020906002020160010160046101000a81548160ff021916908315150217905550610751565b808061074990614304565b9150506105b9565b50505050565b60016020528060005260406000206000915090508060000160009054906101000a900463ffffffff16908060000160049054906101000a900473ffffffffffffffffffffffffffffffffffffffff16908060010180546107b6906142d2565b80601f01602080910402602001604051908101604052809291908181526020018280546107e2906142d2565b801561082f5780601f106108045761010080835404028352916020019161082f565b820191906000526020600020905b81548152906001019060200180831161081257829003601f168201915b505050505090806002018054610844906142d2565b80601f0160208091040260200160405190810160405280929190818152602001828054610870906142d2565b80156108bd5780601f10610892576101008083540402835291602001916108bd565b820191906000526020600020905b8154815290600101906020018083116108a057829003601f168201915b5050505050908060030160009054906101000a900460ff16908060030160019054906101000a900460ff16908060040180546108f8906142d2565b80601f0160208091040260200160405190810160405280929190818152602001828054610924906142d2565b80156109715780601f1061094657610100808354040283529160200191610971565b820191906000526020600020905b81548152906001019060200180831161095457829003601f168201915b505050505090806005018054610986906142d2565b80601f01602080910402602001604051908101604052809291908181526020018280546109b2906142d2565b80156109ff5780601f106109d4576101008083540402835291602001916109ff565b820191906000526020600020905b8154815290600101906020018083116109e257829003601f168201915b50505050509080600a018054610a14906142d2565b80601f0160208091040260200160405190810160405280929190818152602001828054610a40906142d2565b8015610a8d5780601f10610a6257610100808354040283529160200191610a8d565b820191906000526020600020905b815481529060010190602001808311610a7057829003601f168201915b50505050509080600b018054610aa2906142d2565b80601f0160208091040260200160405190810160405280929190818152602001828054610ace906142d2565b8015610b1b5780601f10610af057610100808354040283529160200191610b1b565b820191906000526020600020905b815481529060010190602001808311610afe57829003601f168201915b505050505090508a565b6000600260009054906101000a900463ffffffff16905090565b60008054906101000a900473ffffffffffffffffffffffffffffffffffffffff1673ffffffffffffffffffffffffffffffffffffffff1663d1e47bb33360006040518363ffffffff1660e01b8152600401610b9b929190613d3e565b60206040518083038186803b158015610bb357600080fd5b505afa158015610bc7573d6000803e3d6000fd5b505050506040513d601f19601f82011682018060405250810190610beb9190612e1f565b610c2a576040517f08c379a0000000000000000000000000000000000000000000000000000000008152600401610c2190613e2a565b60405180910390fd5b600160008363ffffffff1663ffffffff16815260200190815260200160002060060181908060018154018082558091505060019003906000526020600020016000909190919091509080519060200190610c85929190612a03565b505050565b610c92612a89565b600160008363ffffffff1663ffffffff168152602001908152602001600020604051806101c00160405290816000820160009054906101000a900463ffffffff1663ffffffff1663ffffffff1681526020016000820160049054906101000a900473ffffffffffffffffffffffffffffffffffffffff1673ffffffffffffffffffffffffffffffffffffffff1673ffffffffffffffffffffffffffffffffffffffff168152602001600182018054610d49906142d2565b80601f0160208091040260200160405190810160405280929190818152602001828054610d75906142d2565b8015610dc25780601f10610d9757610100808354040283529160200191610dc2565b820191906000526020600020905b815481529060010190602001808311610da557829003601f168201915b50505050508152602001600282018054610ddb906142d2565b80601f0160208091040260200160405190810160405280929190818152602001828054610e07906142d2565b8015610e545780601f10610e2957610100808354040283529160200191610e54565b820191906000526020600020905b815481529060010190602001808311610e3757829003601f168201915b505050505081526020016003820160009054906101000a900460ff161515151581526020016003820160019054906101000a900460ff166003811115610ec3577f4e487b7100000000000000000000000000000000000000000000000000000000600052602160045260246000fd5b6003811115610efb577f4e487b7100000000000000000000000000000000000000000000000000000000600052602160045260246000fd5b8152602001600482018054610f0f906142d2565b80601f0160208091040260200160405190810160405280929190818152602001828054610f3b906142d2565b8015610f885780601f10610f5d57610100808354040283529160200191610f88565b820191906000526020600020905b815481529060010190602001808311610f6b57829003601f168201915b50505050508152602001600582018054610fa1906142d2565b80601f0160208091040260200160405190810160405280929190818152602001828054610fcd906142d2565b801561101a5780601f10610fef5761010080835404028352916020019161101a565b820191906000526020600020905b815481529060010190602001808311610ffd57829003601f168201915b5050505050815260200160068201805480602002602001604051908101604052809291908181526020016000905b828210156110f4578382906000526020600020018054611067906142d2565b80601f0160208091040260200160405190810160405280929190818152602001828054611093906142d2565b80156110e05780601f106110b5576101008083540402835291602001916110e0565b820191906000526020600020905b8154815290600101906020018083116110c357829003601f168201915b505050505081526020019060010190611048565b50505050815260200160078201805480602002602001604051908101604052809291908181526020016000905b828210156112265783829060005260206000209060020201604051806060016040529081600082018054611154906142d2565b80601f0160208091040260200160405190810160405280929190818152602001828054611180906142d2565b80156111cd5780601f106111a2576101008083540402835291602001916111cd565b820191906000526020600020905b8154815290600101906020018083116111b057829003601f168201915b505050505081526020016001820160009054906101000a900463ffffffff1663ffffffff1663ffffffff1681526020016001820160049054906101000a900460ff16151515158152505081526020019060010190611121565b50505050815260200160088201805480602002602001604051908101604052809291908181526020016000905b8282101561139d57838290600052602060002090600302016040518060800160405290816000820160009054906101000a900463ffffffff1663ffffffff1663ffffffff1681526020016000820160049054906101000a900473ffffffffffffffffffffffffffffffffffffffff1673ffffffffffffffffffffffffffffffffffffffff1673ffffffffffffffffffffffffffffffffffffffff168152602001600182018054611302906142d2565b80601f016020809104026020016040519081016040528092919081815260200182805461132e906142d2565b801561137b5780601f106113505761010080835404028352916020019161137b565b820191906000526020600020905b81548152906001019060200180831161135e57829003601f168201915b5050505050815260200160028201548152505081526020019060010190611253565b50505050815260200160098201805480602002602001604051908101604052809291908181526020016000905b8282101561155057838290600052602060002090600402016040518060800160405290816000820160009054906101000a900463ffffffff1663ffffffff1663ffffffff168152602001600182018054611423906142d2565b80601f016020809104026020016040519081016040528092919081815260200182805461144f906142d2565b801561149c5780601f106114715761010080835404028352916020019161149c565b820191906000526020600020905b81548152906001019060200180831161147f57829003601f168201915b505050505081526020016002820180546114b5906142d2565b80601f01602080910402602001604051908101604052809291908181526020018280546114e1906142d2565b801561152e5780601f106115035761010080835404028352916020019161152e565b820191906000526020600020905b81548152906001019060200180831161151157829003601f168201915b50505050508152602001600382015481525050815260200190600101906113ca565b505050508152602001600a82018054611568906142d2565b80601f0160208091040260200160405190810160405280929190818152602001828054611594906142d2565b80156115e15780601f106115b6576101008083540402835291602001916115e1565b820191906000526020600020905b8154815290600101906020018083116115c457829003601f168201915b50505050508152602001600b820180546115fa906142d2565b80601f0160208091040260200160405190810160405280929190818152602001828054611626906142d2565b80156116735780601f1061164857610100808354040283529160200191611673565b820191906000526020600020905b81548152906001019060200180831161165657829003601f168201915b5050505050815250509050919050565b6060600160008363ffffffff1663ffffffff168152602001908152602001600020600701805480602002602001604051908101604052809291908181526020016000905b828210156117cc57838290600052602060002090600202016040518060600160405290816000820180546116fa906142d2565b80601f0160208091040260200160405190810160405280929190818152602001828054611726906142d2565b80156117735780601f1061174857610100808354040283529160200191611773565b820191906000526020600020905b81548152906001019060200180831161175657829003601f168201915b505050505081526020016001820160009054906101000a900463ffffffff1663ffffffff1663ffffffff1681526020016001820160049054906101000a900460ff161515151581525050815260200190600101906116c7565b505050509050919050565b60008054906101000a900473ffffffffffffffffffffffffffffffffffffffff1673ffffffffffffffffffffffffffffffffffffffff1663d1e47bb33360016040518363ffffffff1660e01b8152600401611833929190613d3e565b60206040518083038186803b15801561184b57600080fd5b505afa15801561185f573d6000803e3d6000fd5b505050506040513d601f19601f820116820180604052508101906118839190612e1f565b6118c2576040517f08c379a00000000000000000000000000000000000000000000000000000000081526004016118b990613e8a565b60405180910390fd5b600160008463ffffffff1663ffffffff16815260200190815260200160002060070160405180606001604052808481526020018363ffffffff168152602001600015158152509080600181540180825580915050600190039060005260206000209060020201600090919091909150600082015181600001908051906020019061194d929190612a03565b5060208201518160010160006101000a81548163ffffffff021916908363ffffffff16021790555060408201518160010160046101000a81548160ff0219169083151502179055505050505050565b600260009054906101000a900463ffffffff1681565b60008054906101000a900473ffffffffffffffffffffffffffffffffffffffff1673ffffffffffffffffffffffffffffffffffffffff1663d1e47bb33360046040518363ffffffff1660e01b8152600401611a0e929190613d3e565b60206040518083038186803b158015611a2657600080fd5b505afa158015611a3a573d6000803e3d6000fd5b505050506040513d601f19601f82011682018060405250810190611a5e9190612e1f565b611a9d576040517f08c379a0000000000000000000000000000000000000000000000000000000008152600401611a9490613e0a565b60405180910390fd5b6002600481819054906101000a900463ffffffff1680929190611abf90614304565b91906101000a81548163ffffffff021916908363ffffffff16021790555050600160008363ffffffff1663ffffffff1681526020019081526020016000206008016040518060800160405280600260049054906101000a900463ffffffff1663ffffffff1681526020013373ffffffffffffffffffffffffffffffffffffffff16815260200183815260200142815250908060018154018082558091505060019003906000526020600020906003020160009091909190915060008201518160000160006101000a81548163ffffffff021916908363ffffffff16021790555060208201518160000160046101000a81548173ffffffffffffffffffffffffffffffffffffffff021916908373ffffffffffffffffffffffffffffffffffffffff1602179055506040820151816001019080519060200190611c02929190612a03565b506060820151816002015550505050565b60008054906101000a900473ffffffffffffffffffffffffffffffffffffffff1673ffffffffffffffffffffffffffffffffffffffff1663d1e47bb33360006040518363ffffffff1660e01b8152600401611c6f929190613d3e565b60206040518083038186803b158015611c8757600080fd5b505afa158015611c9b573d6000803e3d6000fd5b505050506040513d601f19601f82011682018060405250810190611cbf9190612e1f565b611cfe576040517f08c379a0000000000000000000000000000000000000000000000000000000008152600401611cf590613e2a565b60405180910390fd5b80600160008463ffffffff1663ffffffff16815260200190815260200160002060030160016101000a81548160ff02191690836003811115611d69577f4e487b7100000000000000000000000000000000000000000000000000000000600052602160045260246000fd5b02179055505050565b60008054906101000a900473ffffffffffffffffffffffffffffffffffffffff1681565b60008054906101000a900473ffffffffffffffffffffffffffffffffffffffff1673ffffffffffffffffffffffffffffffffffffffff1663d1e47bb33360006040518363ffffffff1660e01b8152600401611df2929190613d3e565b60206040518083038186803b158015611e0a57600080fd5b505afa158015611e1e573d6000803e3d6000fd5b505050506040513d601f19601f82011682018060405250810190611e429190612e1f565b611e81576040517f08c379a0000000000000000000000000000000000000000000000000000000008152600401611e7890613e2a565b60405180910390fd5b6002600081819054906101000a900463ffffffff1680929190611ea390614304565b91906101000a81548163ffffffff021916908363ffffffff16021790555050600260009054906101000a900463ffffffff1660016000600260009054906101000a900463ffffffff1663ffffffff1663ffffffff16815260200190815260200160002060000160006101000a81548163ffffffff021916908363ffffffff1602179055503360016000600260009054906101000a900463ffffffff1663ffffffff1663ffffffff16815260200190815260200160002060000160046101000a81548173ffffffffffffffffffffffffffffffffffffffff021916908373ffffffffffffffffffffffffffffffffffffffff1602179055508560016000600260009054906101000a900463ffffffff1663ffffffff1663ffffffff1681526020019081526020016000206001019080519060200190611fe2929190612a03565b508460016000600260009054906101000a900463ffffffff1663ffffffff1663ffffffff168152602001908152602001600020600201908051906020019061202b929190612a03565b50600060016000600260009054906101000a900463ffffffff1663ffffffff1663ffffffff16815260200190815260200160002060030160006101000a81548160ff021916908315150217905550600060016000600260009054906101000a900463ffffffff1663ffffffff1663ffffffff16815260200190815260200160002060030160016101000a81548160ff021916908360038111156120f7577f4e487b7100000000000000000000000000000000000000000000000000000000600052602160045260246000fd5b02179055508360016000600260009054906101000a900463ffffffff1663ffffffff1663ffffffff1681526020019081526020016000206004019080519060200190612144929190612a03565b508260016000600260009054906101000a900463ffffffff1663ffffffff1663ffffffff168152602001908152602001600020600501908051906020019061218d929190612a03565b508160016000600260009054906101000a900463ffffffff1663ffffffff1663ffffffff168152602001908152602001600020600a0190805190602001906121d6929190612a03565b508060016000600260009054906101000a900463ffffffff1663ffffffff1663ffffffff168152602001908152602001600020600b01908051906020019061221f929190612a03565b50505050505050565b600260049054906101000a900463ffffffff1681565b6000600260049054906101000a900463ffffffff16905090565b6060600160008363ffffffff1663ffffffff168152602001908152602001600020600801805480602002602001604051908101604052809291908181526020016000905b828210156123e657838290600052602060002090600302016040518060800160405290816000820160009054906101000a900463ffffffff1663ffffffff1663ffffffff1681526020016000820160049054906101000a900473ffffffffffffffffffffffffffffffffffffffff1673ffffffffffffffffffffffffffffffffffffffff1673ffffffffffffffffffffffffffffffffffffffff16815260200160018201805461234b906142d2565b80601f0160208091040260200160405190810160405280929190818152602001828054612377906142d2565b80156123c45780601f10612399576101008083540402835291602001916123c4565b820191906000526020600020905b8154815290600101906020018083116123a757829003601f168201915b505050505081526020016002820154815250508152602001906001019061229c565b505050509050919050565b6060600160008363ffffffff1663ffffffff168152602001908152602001600020600901805480602002602001604051908101604052809291908181526020016000905b828210156125bb57838290600052602060002090600402016040518060800160405290816000820160009054906101000a900463ffffffff1663ffffffff1663ffffffff16815260200160018201805461248e906142d2565b80601f01602080910402602001604051908101604052809291908181526020018280546124ba906142d2565b80156125075780601f106124dc57610100808354040283529160200191612507565b820191906000526020600020905b8154815290600101906020018083116124ea57829003601f168201915b50505050508152602001600282018054612520906142d2565b80601f016020809104026020016040519081016040528092919081815260200182805461254c906142d2565b80156125995780601f1061256e57610100808354040283529160200191612599565b820191906000526020600020905b81548152906001019060200180831161257c57829003601f168201915b5050505050815260200160038201548152505081526020019060010190612435565b505050509050919050565b60008054906101000a900473ffffffffffffffffffffffffffffffffffffffff1673ffffffffffffffffffffffffffffffffffffffff1663d1e47bb33360026040518363ffffffff1660e01b8152600401612622929190613d3e565b60206040518083038186803b15801561263a57600080fd5b505afa15801561264e573d6000803e3d6000fd5b505050506040513d601f19601f820116820180604052508101906126729190612e1f565b6126b1576040517f08c379a00000000000000000000000000000000000000000000000000000000081526004016126a890613e4a565b60405180910390fd5b600160038111156126eb577f4e487b7100000000000000000000000000000000000000000000000000000000600052602160045260246000fd5b600160008463ffffffff1663ffffffff16815260200190815260200160002060030160019054906101000a900460ff166003811115612753577f4e487b7100000000000000000000000000000000000000000000000000000000600052602160045260246000fd5b14612793576040517f08c379a000000000000000000000000000000000000000000000000000000000815260040161278a90613e6a565b60405180910390fd5b80600160008463ffffffff1663ffffffff16815260200190815260200160002060030160006101000a81548160ff0219169083151502179055505050565b6060600160008363ffffffff1663ffffffff168152602001908152602001600020600601805480602002602001604051908101604052809291908181526020016000905b828210156128c1578382906000526020600020018054612834906142d2565b80601f0160208091040260200160405190810160405280929190818152602001828054612860906142d2565b80156128ad5780601f10612882576101008083540402835291602001916128ad565b820191906000526020600020905b81548152906001019060200180831161289057829003601f168201915b505050505081526020019060010190612815565b505050509050919050565b6128d4612b4e565b60008060008060009054906101000a900473ffffffffffffffffffffffffffffffffffffffff1673ffffffffffffffffffffffffffffffffffffffff1663d2df06d7866040518263ffffffff1660e01b81526004016129339190613d23565b60006040518083038186803b15801561294b57600080fd5b505afa15801561295f573d6000803e3d6000fd5b505050506040513d6000823e3d601f19601f820116820180604052508101906129889190612e48565b505050505050505092509250925060405180604001604052808673ffffffffffffffffffffffffffffffffffffffff1681526020018360078111156129f6577f4e487b7100000000000000000000000000000000000000000000000000000000600052602160045260246000fd5b8152509350505050919050565b828054612a0f906142d2565b90600052602060002090601f016020900481019282612a315760008555612a78565b82601f10612a4a57805160ff1916838001178555612a78565b82800160010185558215612a78579182015b82811115612a77578251825591602001919060010190612a5c565b5b509050612a859190612bb6565b5090565b604051806101c00160405280600063ffffffff168152602001600073ffffffffffffffffffffffffffffffffffffffff168152602001606081526020016060815260200160001515815260200160006003811115612b10577f4e487b7100000000000000000000000000000000000000000000000000000000600052602160045260246000fd5b815260200160608152602001606081526020016060815260200160608152602001606081526020016060815260200160608152602001606081525090565b6040518060400160405280600073ffffffffffffffffffffffffffffffffffffffff16815260200160006007811115612bb0577f4e487b7100000000000000000000000000000000000000000000000000000000600052602160045260246000fd5b81525090565b5b80821115612bcf576000816000905550600101612bb7565b5090565b6000612be6612be184613ff9565b613fc8565b90508083825260208201905082856020860282011115612c0557600080fd5b60005b85811015612c355781612c1b8882612cd0565b845260208401935060208301925050600181019050612c08565b5050509392505050565b6000612c52612c4d84614025565b613fc8565b905082815260208101848484011115612c6a57600080fd5b612c75848285614290565b509392505050565b6000612c90612c8b84614025565b613fc8565b905082815260208101848484011115612ca857600080fd5b612cb384828561429f565b509392505050565b600081359050612cca81614426565b92915050565b600081519050612cdf81614426565b92915050565b600082601f830112612cf657600080fd5b8151612d06848260208601612bd3565b91505092915050565b600081359050612d1e8161443d565b92915050565b600081519050612d338161443d565b92915050565b600081359050612d4881614454565b92915050565b600081519050612d5d81614464565b92915050565b600081519050612d7281614474565b92915050565b600082601f830112612d8957600080fd5b8135612d99848260208601612c3f565b91505092915050565b600082601f830112612db357600080fd5b8151612dc3848260208601612c7d565b91505092915050565b600081519050612ddb81614484565b92915050565b600081359050612df08161449b565b92915050565b600060208284031215612e0857600080fd5b6000612e1684828501612cbb565b91505092915050565b600060208284031215612e3157600080fd5b6000612e3f84828501612d24565b91505092915050565b60008060008060008060008060008060006101608c8e031215612e6a57600080fd5b60008c015167ffffffffffffffff811115612e8457600080fd5b612e908e828f01612da2565b9b50506020612ea18e828f01612d4e565b9a50506040612eb28e828f01612d24565b9950506060612ec38e828f01612d63565b98505060808c015167ffffffffffffffff811115612ee057600080fd5b612eec8e828f01612da2565b97505060a08c015167ffffffffffffffff811115612f0957600080fd5b612f158e828f01612da2565b96505060c08c015167ffffffffffffffff811115612f3257600080fd5b612f3e8e828f01612da2565b95505060e08c015167ffffffffffffffff811115612f5b57600080fd5b612f678e828f01612da2565b9450506101008c015167ffffffffffffffff811115612f8557600080fd5b612f918e828f01612da2565b935050610120612fa38e828f01612dcc565b9250506101408c015167ffffffffffffffff811115612fc157600080fd5b612fcd8e828f01612ce5565b9150509295989b509295989b9093969950565b60008060008060008060c08789031215612ff957600080fd5b600087013567ffffffffffffffff81111561301357600080fd5b61301f89828a01612d78565b965050602087013567ffffffffffffffff81111561303c57600080fd5b61304889828a01612d78565b955050604087013567ffffffffffffffff81111561306557600080fd5b61307189828a01612d78565b945050606087013567ffffffffffffffff81111561308e57600080fd5b61309a89828a01612d78565b935050608087013567ffffffffffffffff8111156130b757600080fd5b6130c389828a01612d78565b92505060a087013567ffffffffffffffff8111156130e057600080fd5b6130ec89828a01612d78565b9150509295509295509295565b60006020828403121561310b57600080fd5b600061311984828501612de1565b91505092915050565b6000806040838503121561313557600080fd5b600061314385828601612de1565b925050602061315485828601612d0f565b9150509250929050565b6000806040838503121561317157600080fd5b600061317f85828601612de1565b925050602061319085828601612d39565b9150509250929050565b600080604083850312156131ad57600080fd5b60006131bb85828601612de1565b925050602083013567ffffffffffffffff8111156131d857600080fd5b6131e485828601612d78565b9150509250929050565b60008060006060848603121561320357600080fd5b600061321186828701612de1565b935050602084013567ffffffffffffffff81111561322e57600080fd5b61323a86828701612d78565b925050604061324b86828701612d0f565b9150509250925092565b60008060006060848603121561326a57600080fd5b600061327886828701612de1565b935050602084013567ffffffffffffffff81111561329557600080fd5b6132a186828701612d78565b92505060406132b286828701612de1565b9150509250925092565b60006132c8838361373b565b905092915050565b60006132dc8383613a3e565b905092915050565b60006132f08383613aa8565b905092915050565b60006133048383613b0b565b905092915050565b613315816141ca565b82525050565b613324816141ca565b82525050565b6000613335826140aa565b61333f8185614115565b93508360208202850161335185614055565b8060005b8581101561338d578484038952815161336e85826132bc565b9450613379836140e1565b925060208a01995050600181019050613355565b50829750879550505050505092915050565b60006133aa826140aa565b6133b48185614126565b9350836020820285016133c685614055565b8060005b8581101561340257848403895281516133e385826132bc565b94506133ee836140e1565b925060208a019950506001810190506133ca565b50829750879550505050505092915050565b600061341f826140b5565b6134298185614137565b93508360208202850161343b85614065565b8060005b85811015613477578484038952815161345885826132d0565b9450613463836140ee565b925060208a0199505060018101905061343f565b50829750879550505050505092915050565b6000613494826140b5565b61349e8185614148565b9350836020820285016134b085614065565b8060005b858110156134ec57848403895281516134cd85826132d0565b94506134d8836140ee565b925060208a019950506001810190506134b4565b50829750879550505050505092915050565b6000613509826140c0565b6135138185614159565b93508360208202850161352585614075565b8060005b85811015613561578484038952815161354285826132e4565b945061354d836140fb565b925060208a01995050600181019050613529565b50829750879550505050505092915050565b600061357e826140c0565b613588818561416a565b93508360208202850161359a85614075565b8060005b858110156135d657848403895281516135b785826132e4565b94506135c2836140fb565b925060208a0199505060018101905061359e565b50829750879550505050505092915050565b60006135f3826140cb565b6135fd818561417b565b93508360208202850161360f85614085565b8060005b8581101561364b578484038952815161362c85826132f8565b945061363783614108565b925060208a01995050600181019050613613565b50829750879550505050505092915050565b6000613668826140cb565b613672818561418c565b93508360208202850161368485614085565b8060005b858110156136c057848403895281516136a185826132f8565b94506136ac83614108565b925060208a01995050600181019050613688565b50829750879550505050505092915050565b6136db816141dc565b82525050565b6136ea816141dc565b82525050565b6136f981614248565b82525050565b6137088161426c565b82525050565b6137178161426c565b82525050565b6137268161427e565b82525050565b6137358161427e565b82525050565b6000613746826140d6565b613750818561419d565b935061376081856020860161429f565b613769816143ed565b840191505092915050565b600061377f826140d6565b61378981856141ae565b935061379981856020860161429f565b6137a2816143ed565b840191505092915050565b60006137b8826140d6565b6137c281856141bf565b93506137d281856020860161429f565b80840191505092915050565b600081546137eb816142d2565b6137f581866141bf565b94506001821660008114613810576001811461382157613854565b60ff19831686528186019350613854565b61382a85614095565b60005b8381101561384c5781548189015260018201915060208101905061382d565b838801955050505b50505092915050565b600061386a6020836141ae565b91507f4e6f6e206175746f726973653a207365756c656d656e742041756469746575726000830152602082019050919050565b60006138aa6022836141ae565b91507f4e6f6e206175746f726973653a207365756c656d656e742050726f647563746560008301527f75720000000000000000000000000000000000000000000000000000000000006020830152604082019050919050565b60006139106025836141ae565b91507f4e6f6e206175746f726973653a207365756c656d656e7420436572746966696360008301527f61746575720000000000000000000000000000000000000000000000000000006020830152604082019050919050565b60006139766017836141ae565b91507f50617320656e2065746170652064652063756c747572650000000000000000006000830152602082019050919050565b60006139b66023836141ae565b91507f4e6f6e206175746f726973653a207365756c656d656e7420466f75726e69737360008301527f65757200000000000000000000000000000000000000000000000000000000006020830152604082019050919050565b604082016000820151613a25600085018261330c565b506020820151613a38602085018261371d565b50505050565b6000608083016000830151613a566000860182613cd7565b5060208301518482036020860152613a6e828261373b565b91505060408301518482036040860152613a88828261373b565b9150506060830151613a9d6060860182613cc8565b508091505092915050565b6000608083016000830151613ac06000860182613cd7565b506020830151613ad3602086018261330c565b5060408301518482036040860152613aeb828261373b565b9150506060830151613b006060860182613cc8565b508091505092915050565b60006060830160008301518482036000860152613b28828261373b565b9150506020830151613b3d6020860182613cd7565b506040830151613b5060408601826136d2565b508091505092915050565b60006101c083016000830151613b746000860182613cd7565b506020830151613b87602086018261330c565b5060408301518482036040860152613b9f828261373b565b91505060608301518482036060860152613bb9828261373b565b9150506080830151613bce60808601826136d2565b5060a0830151613be160a08601826136ff565b5060c083015184820360c0860152613bf9828261373b565b91505060e083015184820360e0860152613c13828261373b565b915050610100830151848203610100860152613c2f828261332a565b915050610120830151848203610120860152613c4b82826135e8565b915050610140830151848203610140860152613c6782826134fe565b915050610160830151848203610160860152613c838282613414565b915050610180830151848203610180860152613c9f828261373b565b9150506101a08301518482036101a0860152613cbb828261373b565b9150508091505092915050565b613cd18161422e565b82525050565b613ce081614238565b82525050565b613cef81614238565b82525050565b6000613d0182846137ad565b915081905092915050565b6000613d1882846137de565b915081905092915050565b6000602082019050613d38600083018461331b565b92915050565b6000604082019050613d53600083018561331b565b613d60602083018461372c565b9392505050565b60006020820190508181036000830152613d81818461339f565b905092915050565b60006020820190508181036000830152613da38184613489565b905092915050565b60006020820190508181036000830152613dc58184613573565b905092915050565b60006020820190508181036000830152613de7818461365d565b905092915050565b6000602082019050613e0460008301846136f0565b92915050565b60006020820190508181036000830152613e238161385d565b9050919050565b60006020820190508181036000830152613e438161389d565b9050919050565b60006020820190508181036000830152613e6381613903565b9050919050565b60006020820190508181036000830152613e8381613969565b9050919050565b60006020820190508181036000830152613ea3816139a9565b9050919050565b6000604082019050613ebf6000830184613a0f565b92915050565b60006020820190508181036000830152613edf8184613b5b565b905092915050565b6000602082019050613efc6000830184613ce6565b92915050565b600061014082019050613f18600083018d613ce6565b613f25602083018c61331b565b8181036040830152613f37818b613774565b90508181036060830152613f4b818a613774565b9050613f5a60808301896136e1565b613f6760a083018861370e565b81810360c0830152613f798187613774565b905081810360e0830152613f8d8186613774565b9050818103610100830152613fa28185613774565b9050818103610120830152613fb78184613774565b90509b9a5050505050505050505050565b6000604051905081810181811067ffffffffffffffff82111715613fef57613fee6143be565b5b8060405250919050565b600067ffffffffffffffff821115614014576140136143be565b5b602082029050602081019050919050565b600067ffffffffffffffff8211156140405761403f6143be565b5b601f19601f8301169050602081019050919050565b6000819050602082019050919050565b6000819050602082019050919050565b6000819050602082019050919050565b6000819050602082019050919050565b60008190508160005260206000209050919050565b600081519050919050565b600081519050919050565b600081519050919050565b600081519050919050565b600081519050919050565b6000602082019050919050565b6000602082019050919050565b6000602082019050919050565b6000602082019050919050565b600082825260208201905092915050565b600082825260208201905092915050565b600082825260208201905092915050565b600082825260208201905092915050565b600082825260208201905092915050565b600082825260208201905092915050565b600082825260208201905092915050565b600082825260208201905092915050565b600082825260208201905092915050565b600082825260208201905092915050565b600081905092915050565b60006141d58261420e565b9050919050565b60008115159050919050565b60008190506141f6826143fe565b919050565b600081905061420982614412565b919050565b600073ffffffffffffffffffffffffffffffffffffffff82169050919050565b6000819050919050565b600063ffffffff82169050919050565b60006142538261425a565b9050919050565b60006142658261420e565b9050919050565b6000614277826141e8565b9050919050565b6000614289826141fb565b9050919050565b82818337600083830152505050565b60005b838110156142bd5780820151818401526020810190506142a2565b838111156142cc576000848401525b50505050565b600060028204905060018216806142ea57607f821691505b602082108114156142fe576142fd61438f565b5b50919050565b600061430f82614238565b915063ffffffff82141561432657614325614331565b5b600182019050919050565b7f4e487b7100000000000000000000000000000000000000000000000000000000600052601160045260246000fd5b7f4e487b7100000000000000000000000000000000000000000000000000000000600052602160045260246000fd5b7f4e487b7100000000000000000000000000000000000000000000000000000000600052602260045260246000fd5b7f4e487b7100000000000000000000000000000000000000000000000000000000600052604160045260246000fd5b6000601f19601f8301169050919050565b6004811061440f5761440e614360565b5b50565b6008811061442357614422614360565b5b50565b61442f816141ca565b811461443a57600080fd5b50565b614446816141dc565b811461445157600080fd5b50565b6004811061446157600080fd5b50565b6008811061447157600080fd5b50565b6002811061448157600080fd5b50565b61448d8161422e565b811461449857600080fd5b50565b6144a481614238565b81146144af57600080fd5b5056fea26469706673582212202cc967619cb170bac378526abcc08e227f522c899dfacb5b39b12c26b2a1267464736f6c63430008000033",
  "linkReferences": {},
  "deployedLinkReferences": {}
}