{
  "_format": "hh-sol-artifact-1",
  "contractName": "ProducteurEnPhaseCulture",
  "sourceName": "contracts/ProducteurEnPhaseCulture.sol",
  "abi": [
    {
      "anonymous": false,
      "inputs": [
        {
          "indexed": true,
          "internalType": "address",
          "name": "acteur",
          "type": "address"
        },
        {
          "indexed": false,
          "internalType": "enum ProducteurEnPhaseCulture.Role",
          "name": "role",
          "type": "uint8"
        }
      ],
      "name": "ActeurEnregistre",
      "type": "event"
    },
    {
      "anonymous": false,
      "inputs": [
        {
          "indexed": true,
          "internalType": "uint256",
          "name": "idParcelle",
          "type": "uint256"
        },
        {
          "indexed": false,
          "internalType": "uint256",
          "name": "idCondition",
          "type": "uint256"
        },
        {
          "indexed": false,
          "internalType": "string",
          "name": "temperature",
          "type": "string"
        },
        {
          "indexed": false,
          "internalType": "string",
          "name": "humidite",
          "type": "string"
        },
        {
          "indexed": false,
          "internalType": "uint256",
          "name": "timestamp",
          "type": "uint256"
        }
      ],
      "name": "ConditionEnregistree",
      "type": "event"
    },
    {
      "anonymous": false,
      "inputs": [
        {
          "indexed": true,
          "internalType": "uint256",
          "name": "idParcelle",
          "type": "uint256"
        },
        {
          "indexed": false,
          "internalType": "bool",
          "name": "passe",
          "type": "bool"
        }
      ],
      "name": "ControlePhytosanitaire",
      "type": "event"
    },
    {
      "anonymous": false,
      "inputs": [
        {
          "indexed": true,
          "internalType": "uint256",
          "name": "idParcelle",
          "type": "uint256"
        },
        {
          "indexed": false,
          "internalType": "enum ProducteurEnPhaseCulture.Etape",
          "name": "etape",
          "type": "uint8"
        }
      ],
      "name": "EtapeMiseAJour",
      "type": "event"
    },
    {
      "anonymous": false,
      "inputs": [
        {
          "indexed": true,
          "internalType": "uint256",
          "name": "idParcelle",
          "type": "uint256"
        },
        {
          "indexed": false,
          "internalType": "uint256",
          "name": "idInspection",
          "type": "uint256"
        },
        {
          "indexed": false,
          "internalType": "address",
          "name": "auditeur",
          "type": "address"
        },
        {
          "indexed": false,
          "internalType": "string",
          "name": "rapport",
          "type": "string"
        },
        {
          "indexed": false,
          "internalType": "uint256",
          "name": "timestamp",
          "type": "uint256"
        }
      ],
      "name": "InspectionAjoutee",
      "type": "event"
    },
    {
      "anonymous": false,
      "inputs": [
        {
          "indexed": true,
          "internalType": "uint256",
          "name": "idParcelle",
          "type": "uint256"
        },
        {
          "indexed": false,
          "internalType": "string",
          "name": "nom",
          "type": "string"
        },
        {
          "indexed": false,
          "internalType": "uint256",
          "name": "quantite",
          "type": "uint256"
        }
      ],
      "name": "IntrantAjoute",
      "type": "event"
    },
    {
      "anonymous": false,
      "inputs": [
        {
          "indexed": true,
          "internalType": "uint256",
          "name": "idParcelle",
          "type": "uint256"
        },
        {
          "indexed": false,
          "internalType": "string",
          "name": "nom",
          "type": "string"
        },
        {
          "indexed": false,
          "internalType": "bool",
          "name": "valide",
          "type": "bool"
        }
      ],
      "name": "IntrantValide",
      "type": "event"
    },
    {
      "anonymous": false,
      "inputs": [
        {
          "indexed": true,
          "internalType": "uint256",
          "name": "idParcelle",
          "type": "uint256"
        },
        {
          "indexed": false,
          "internalType": "string",
          "name": "methodeCulture",
          "type": "string"
        }
      ],
      "name": "MethodeCultureFixee",
      "type": "event"
    },
    {
      "anonymous": false,
      "inputs": [
        {
          "indexed": true,
          "internalType": "uint256",
          "name": "idParcelle",
          "type": "uint256"
        },
        {
          "indexed": false,
          "internalType": "uint256",
          "name": "idPaiement",
          "type": "uint256"
        },
        {
          "indexed": false,
          "internalType": "address",
          "name": "payeur",
          "type": "address"
        },
        {
          "indexed": false,
          "internalType": "uint256",
          "name": "montant",
          "type": "uint256"
        },
        {
          "indexed": false,
          "internalType": "enum ProducteurEnPhaseCulture.ModePaiement",
          "name": "mode",
          "type": "uint8"
        },
        {
          "indexed": false,
          "internalType": "uint256",
          "name": "timestamp",
          "type": "uint256"
        }
      ],
      "name": "PaiementEffectue",
      "type": "event"
    },
    {
      "anonymous": false,
      "inputs": [
        {
          "indexed": true,
          "internalType": "uint256",
          "name": "idParcelle",
          "type": "uint256"
        },
        {
          "indexed": false,
          "internalType": "string",
          "name": "latitude",
          "type": "string"
        },
        {
          "indexed": false,
          "internalType": "string",
          "name": "longitude",
          "type": "string"
        }
      ],
      "name": "ParcelleCree",
      "type": "event"
    },
    {
      "anonymous": false,
      "inputs": [
        {
          "indexed": true,
          "internalType": "uint256",
          "name": "idParcelle",
          "type": "uint256"
        },
        {
          "indexed": false,
          "internalType": "string",
          "name": "urlPhoto",
          "type": "string"
        }
      ],
      "name": "PhotoAjoutee",
      "type": "event"
    },
    {
      "anonymous": false,
      "inputs": [
        {
          "indexed": true,
          "internalType": "uint256",
          "name": "idParcelle",
          "type": "uint256"
        },
        {
          "indexed": false,
          "internalType": "bool",
          "name": "qualiteApprouvee",
          "type": "bool"
        }
      ],
      "name": "RecolteConfirmee",
      "type": "event"
    },
    {
      "anonymous": false,
      "inputs": [
        {
          "indexed": true,
          "internalType": "uint256",
          "name": "idParcelle",
          "type": "uint256"
        },
        {
          "indexed": false,
          "internalType": "string",
          "name": "qualiteSemence",
          "type": "string"
        }
      ],
      "name": "SemenceValidee",
      "type": "event"
    },
    {
      "inputs": [
        {
          "internalType": "address",
          "name": "",
          "type": "address"
        }
      ],
      "name": "acteurs",
      "outputs": [
        {
          "internalType": "address",
          "name": "addr",
          "type": "address"
        },
        {
          "internalType": "enum ProducteurEnPhaseCulture.Role",
          "name": "role",
          "type": "uint8"
        }
      ],
      "stateMutability": "view",
      "type": "function"
    },
    {
      "inputs": [
        {
          "internalType": "uint256",
          "name": "_idParcelle",
          "type": "uint256"
        },
        {
          "internalType": "string",
          "name": "_rapport",
          "type": "string"
        }
      ],
      "name": "ajouterInspection",
      "outputs": [],
      "stateMutability": "nonpayable",
      "type": "function"
    },
    {
      "inputs": [
        {
          "internalType": "uint256",
          "name": "_idParcelle",
          "type": "uint256"
        },
        {
          "internalType": "string",
          "name": "_nom",
          "type": "string"
        },
        {
          "internalType": "uint256",
          "name": "_quantite",
          "type": "uint256"
        }
      ],
      "name": "ajouterIntrant",
      "outputs": [],
      "stateMutability": "nonpayable",
      "type": "function"
    },
    {
      "inputs": [
        {
          "internalType": "uint256",
          "name": "_idParcelle",
          "type": "uint256"
        },
        {
          "internalType": "string",
          "name": "_urlPhoto",
          "type": "string"
        }
      ],
      "name": "ajouterPhoto",
      "outputs": [],
      "stateMutability": "nonpayable",
      "type": "function"
    },
    {
      "inputs": [
        {
          "internalType": "uint256",
          "name": "_idParcelle",
          "type": "uint256"
        },
        {
          "internalType": "bool",
          "name": "_passe",
          "type": "bool"
        }
      ],
      "name": "appliquerControlePhytosanitaire",
      "outputs": [],
      "stateMutability": "nonpayable",
      "type": "function"
    },
    {
      "inputs": [],
      "name": "compteurConditions",
      "outputs": [
        {
          "internalType": "uint256",
          "name": "",
          "type": "uint256"
        }
      ],
      "stateMutability": "view",
      "type": "function"
    },
    {
      "inputs": [],
      "name": "compteurInspections",
      "outputs": [
        {
          "internalType": "uint256",
          "name": "",
          "type": "uint256"
        }
      ],
      "stateMutability": "view",
      "type": "function"
    },
    {
      "inputs": [],
      "name": "compteurPaiements",
      "outputs": [
        {
          "internalType": "uint256",
          "name": "",
          "type": "uint256"
        }
      ],
      "stateMutability": "view",
      "type": "function"
    },
    {
      "inputs": [],
      "name": "compteurParcelles",
      "outputs": [
        {
          "internalType": "uint256",
          "name": "",
          "type": "uint256"
        }
      ],
      "stateMutability": "view",
      "type": "function"
    },
    {
      "inputs": [
        {
          "internalType": "uint256",
          "name": "_idParcelle",
          "type": "uint256"
        },
        {
          "internalType": "bool",
          "name": "_qualiteApprouvee",
          "type": "bool"
        }
      ],
      "name": "confirmerRecolte",
      "outputs": [],
      "stateMutability": "nonpayable",
      "type": "function"
    },
    {
      "inputs": [
        {
          "internalType": "string",
          "name": "_qualiteSemence",
          "type": "string"
        },
        {
          "internalType": "string",
          "name": "_methodeCulture",
          "type": "string"
        },
        {
          "internalType": "string",
          "name": "_latitude",
          "type": "string"
        },
        {
          "internalType": "string",
          "name": "_longitude",
          "type": "string"
        },
        {
          "internalType": "string",
          "name": "_produit",
          "type": "string"
        },
        {
          "internalType": "string",
          "name": "_dateRecolte",
          "type": "string"
        },
        {
          "internalType": "string",
          "name": "_certificatPhytosanitaire",
          "type": "string"
        }
      ],
      "name": "creerParcelle",
      "outputs": [],
      "stateMutability": "nonpayable",
      "type": "function"
    },
    {
      "inputs": [
        {
          "internalType": "uint256",
          "name": "_idParcelle",
          "type": "uint256"
        },
        {
          "internalType": "uint256",
          "name": "_montant",
          "type": "uint256"
        },
        {
          "internalType": "enum ProducteurEnPhaseCulture.ModePaiement",
          "name": "_mode",
          "type": "uint8"
        }
      ],
      "name": "effectuerPaiement",
      "outputs": [],
      "stateMutability": "payable",
      "type": "function"
    },
    {
      "inputs": [
        {
          "internalType": "address",
          "name": "_acteur",
          "type": "address"
        },
        {
          "internalType": "enum ProducteurEnPhaseCulture.Role",
          "name": "_role",
          "type": "uint8"
        }
      ],
      "name": "enregistrerActeur",
      "outputs": [],
      "stateMutability": "nonpayable",
      "type": "function"
    },
    {
      "inputs": [
        {
          "internalType": "uint256",
          "name": "_idParcelle",
          "type": "uint256"
        },
        {
          "internalType": "string",
          "name": "_temperature",
          "type": "string"
        },
        {
          "internalType": "string",
          "name": "_humidite",
          "type": "string"
        }
      ],
      "name": "enregistrerCondition",
      "outputs": [],
      "stateMutability": "nonpayable",
      "type": "function"
    },
    {
      "inputs": [
        {
          "internalType": "uint256",
          "name": "idParcelle",
          "type": "uint256"
        }
      ],
      "name": "getConditions",
      "outputs": [
        {
          "components": [
            {
              "internalType": "uint256",
              "name": "id",
              "type": "uint256"
            },
            {
              "internalType": "string",
              "name": "temperature",
              "type": "string"
            },
            {
              "internalType": "string",
              "name": "humidite",
              "type": "string"
            },
            {
              "internalType": "uint256",
              "name": "timestamp",
              "type": "uint256"
            }
          ],
          "internalType": "struct ProducteurEnPhaseCulture.EnregistrementCondition[]",
          "name": "",
          "type": "tuple[]"
        }
      ],
      "stateMutability": "view",
      "type": "function"
    },
    {
      "inputs": [
        {
          "internalType": "uint256",
          "name": "idParcelle",
          "type": "uint256"
        }
      ],
      "name": "getInspections",
      "outputs": [
        {
          "components": [
            {
              "internalType": "uint256",
              "name": "id",
              "type": "uint256"
            },
            {
              "internalType": "address",
              "name": "auditeur",
              "type": "address"
            },
            {
              "internalType": "string",
              "name": "rapport",
              "type": "string"
            },
            {
              "internalType": "uint256",
              "name": "timestamp",
              "type": "uint256"
            }
          ],
          "internalType": "struct ProducteurEnPhaseCulture.Inspection[]",
          "name": "",
          "type": "tuple[]"
        }
      ],
      "stateMutability": "view",
      "type": "function"
    },
    {
      "inputs": [
        {
          "internalType": "uint256",
          "name": "idParcelle",
          "type": "uint256"
        }
      ],
      "name": "getIntrants",
      "outputs": [
        {
          "components": [
            {
              "internalType": "string",
              "name": "nom",
              "type": "string"
            },
            {
              "internalType": "uint256",
              "name": "quantite",
              "type": "uint256"
            },
            {
              "internalType": "bool",
              "name": "valide",
              "type": "bool"
            }
          ],
          "internalType": "struct ProducteurEnPhaseCulture.Intrant[]",
          "name": "",
          "type": "tuple[]"
        }
      ],
      "stateMutability": "view",
      "type": "function"
    },
    {
      "inputs": [
        {
          "internalType": "uint256",
          "name": "idParcelle",
          "type": "uint256"
        }
      ],
      "name": "getPhotos",
      "outputs": [
        {
          "internalType": "string[]",
          "name": "",
          "type": "string[]"
        }
      ],
      "stateMutability": "view",
      "type": "function"
    },
    {
      "inputs": [
        {
          "internalType": "uint256",
          "name": "_idParcelle",
          "type": "uint256"
        },
        {
          "internalType": "enum ProducteurEnPhaseCulture.Etape",
          "name": "_etape",
          "type": "uint8"
        }
      ],
      "name": "mettreAJourEtape",
      "outputs": [],
      "stateMutability": "nonpayable",
      "type": "function"
    },
    {
      "inputs": [
        {
          "internalType": "uint256",
          "name": "_idParcelle",
          "type": "uint256"
        }
      ],
      "name": "obtenirInformationsParcelle",
      "outputs": [
        {
          "internalType": "string",
          "name": "qualiteSemence",
          "type": "string"
        },
        {
          "internalType": "string",
          "name": "methodeCulture",
          "type": "string"
        },
        {
          "internalType": "string",
          "name": "latitude",
          "type": "string"
        },
        {
          "internalType": "string",
          "name": "longitude",
          "type": "string"
        },
        {
          "internalType": "string",
          "name": "produit",
          "type": "string"
        },
        {
          "internalType": "string",
          "name": "dateRecolte",
          "type": "string"
        },
        {
          "internalType": "string",
          "name": "certificatPhytosanitaire",
          "type": "string"
        }
      ],
      "stateMutability": "view",
      "type": "function"
    },
    {
      "inputs": [
        {
          "internalType": "uint256",
          "name": "",
          "type": "uint256"
        }
      ],
      "name": "paiements",
      "outputs": [
        {
          "internalType": "uint256",
          "name": "id",
          "type": "uint256"
        },
        {
          "internalType": "address",
          "name": "payeur",
          "type": "address"
        },
        {
          "internalType": "uint256",
          "name": "montant",
          "type": "uint256"
        },
        {
          "internalType": "enum ProducteurEnPhaseCulture.ModePaiement",
          "name": "mode",
          "type": "uint8"
        },
        {
          "internalType": "uint256",
          "name": "timestamp",
          "type": "uint256"
        }
      ],
      "stateMutability": "view",
      "type": "function"
    },
    {
      "inputs": [
        {
          "internalType": "uint256",
          "name": "",
          "type": "uint256"
        }
      ],
      "name": "parcelles",
      "outputs": [
        {
          "internalType": "uint256",
          "name": "id",
          "type": "uint256"
        },
        {
          "internalType": "address",
          "name": "producteur",
          "type": "address"
        },
        {
          "internalType": "string",
          "name": "qualiteSemence",
          "type": "string"
        },
        {
          "internalType": "string",
          "name": "methodeCulture",
          "type": "string"
        },
        {
          "internalType": "bool",
          "name": "certifie",
          "type": "bool"
        },
        {
          "internalType": "enum ProducteurEnPhaseCulture.Etape",
          "name": "etape",
          "type": "uint8"
        },
        {
          "internalType": "string",
          "name": "latitude",
          "type": "string"
        },
        {
          "internalType": "string",
          "name": "longitude",
          "type": "string"
        },
        {
          "internalType": "string",
          "name": "produit",
          "type": "string"
        },
        {
          "internalType": "string",
          "name": "dateRecolte",
          "type": "string"
        },
        {
          "internalType": "string",
          "name": "certificatPhytosanitaire",
          "type": "string"
        }
      ],
      "stateMutability": "view",
      "type": "function"
    },
    {
      "inputs": [
        {
          "internalType": "uint256",
          "name": "_idParcelle",
          "type": "uint256"
        },
        {
          "internalType": "string",
          "name": "_nom",
          "type": "string"
        },
        {
          "internalType": "bool",
          "name": "_valide",
          "type": "bool"
        }
      ],
      "name": "validerIntrant",
      "outputs": [],
      "stateMutability": "nonpayable",
      "type": "function"
    }
  ],
  "bytecode": "0x608060405234801561001057600080fd5b50614880806100206000396000f3fe6080604052600436106101405760003560e01c80637b906d47116100b6578063bbfcc3111161006f578063bbfcc31114610481578063bfc5167c146104aa578063c1a345dd146104e7578063cd3df1ed14610510578063cda36e631461053b578063d1aa5bbe1461056657610140565b80637b906d47146103315780637f6452731461036e5780639016d621146103b157806391e5954c146103ee578063b0b210671461042f578063b96cc76f1461045857610140565b80633a934f75116101085780633a934f75146102375780633c4b76c514610260578063487396f21461028957806361153ee9146102b2578063687112e2146102dd57806370b0728b1461030857610140565b80630ee998481461014557806315e205291461016e5780631cb0efc31461018a5780631eada765146101b35780632aae399c146101f0575b600080fd5b34801561015157600080fd5b5061016c60048036038101906101679190613480565b6105a4565b005b6101886004803603810190610183919061365d565b610745565b005b34801561019657600080fd5b506101b160048036038101906101ac91906132d5565b6109ed565b005b3480156101bf57600080fd5b506101da60048036038101906101d5919061341b565b610e08565b6040516101e79190613ecd565b60405180910390f35b3480156101fc57600080fd5b506102176004803603810190610212919061341b565b6110b6565b60405161022e9b9a999897969594939291906141f8565b60405180910390f35b34801561024357600080fd5b5061025e600480360381019061025991906134bc565b611502565b005b34801561026c57600080fd5b50610287600480360381019061028291906134bc565b611751565b005b34801561029557600080fd5b506102b060048036038101906102ab9190613577565b6118de565b005b3480156102be57600080fd5b506102c7611aed565b6040516102d491906141dd565b60405180910390f35b3480156102e957600080fd5b506102f2611af3565b6040516102ff91906141dd565b60405180910390f35b34801561031457600080fd5b5061032f600480360381019061032a9190613510565b611af9565b005b34801561033d57600080fd5b506103586004803603810190610353919061341b565b611d9f565b6040516103659190613f11565b60405180910390f35b34801561037a57600080fd5b506103956004803603810190610390919061341b565b611fcc565b6040516103a8979695949392919061400d565b60405180910390f35b3480156103bd57600080fd5b506103d860048036038101906103d3919061341b565b6123f8565b6040516103e59190613eef565b60405180910390f35b3480156103fa57600080fd5b506104156004803603810190610410919061341b565b61266a565b604051610426959493929190614320565b60405180910390f35b34801561043b57600080fd5b5061045660048036038101906104519190613444565b6126cd565b005b34801561046457600080fd5b5061047f600480360381019061047a9190613299565b6128e0565b005b34801561048d57600080fd5b506104a860048036038101906104a391906135f6565b612a73565b005b3480156104b657600080fd5b506104d160048036038101906104cc919061341b565b612c59565b6040516104de9190613eab565b60405180910390f35b3480156104f357600080fd5b5061050e60048036038101906105099190613444565b612e49565b005b34801561051c57600080fd5b5061052561308a565b60405161053291906141dd565b60405180910390f35b34801561054757600080fd5b50610550613090565b60405161055d91906141dd565b60405180910390f35b34801561057257600080fd5b5061058d60048036038101906105889190613270565b613096565b60405161059b929190613e82565b60405180910390f35b600060058111156105de577f4e487b7100000000000000000000000000000000000000000000000000000000600052602160045260246000fd5b6000803373ffffffffffffffffffffffffffffffffffffffff1673ffffffffffffffffffffffffffffffffffffffff16815260200190815260200160002060000160149054906101000a900460ff166005811115610665577f4e487b7100000000000000000000000000000000000000000000000000000000600052602160045260246000fd5b146106a5576040517f08c379a000000000000000000000000000000000000000000000000000000000815260040161069c906140fd565b60405180910390fd5b806001600084815260200190815260200160002060040160016101000a81548160ff02191690836003811115610704577f4e487b7100000000000000000000000000000000000000000000000000000000600052602160045260246000fd5b0217905550817f45b242b5fc63415549b3b82a5f92422875e4d12321c4e12bafa6c1895dd8e32d826040516107399190613f4e565b60405180910390a25050565b6003600581111561077f577f4e487b7100000000000000000000000000000000000000000000000000000000600052602160045260246000fd5b6000803373ffffffffffffffffffffffffffffffffffffffff1673ffffffffffffffffffffffffffffffffffffffff16815260200190815260200160002060000160149054906101000a900460ff166005811115610806577f4e487b7100000000000000000000000000000000000000000000000000000000600052602160045260246000fd5b14610846576040517f08c379a000000000000000000000000000000000000000000000000000000000815260040161083d9061417d565b60405180910390fd5b6006600081548092919061085990614683565b91905055506040518060a0016040528060065481526020013373ffffffffffffffffffffffffffffffffffffffff1681526020018381526020018260028111156108cc577f4e487b7100000000000000000000000000000000000000000000000000000000600052602160045260246000fd5b815260200142815250600260008581526020019081526020016000206000820151816000015560208201518160010160006101000a81548173ffffffffffffffffffffffffffffffffffffffff021916908373ffffffffffffffffffffffffffffffffffffffff1602179055506040820151816002015560608201518160030160006101000a81548160ff02191690836002811115610994577f4e487b7100000000000000000000000000000000000000000000000000000000600052602160045260246000fd5b021790555060808201518160040155905050827f9fb3f4476c40468867890e22eb6a25fef181c86330769deb6a9a5917a78eff44600654338585426040516109e0959493929190614320565b60405180910390a2505050565b60006005811115610a27577f4e487b7100000000000000000000000000000000000000000000000000000000600052602160045260246000fd5b6000803373ffffffffffffffffffffffffffffffffffffffff1673ffffffffffffffffffffffffffffffffffffffff16815260200190815260200160002060000160149054906101000a900460ff166005811115610aae577f4e487b7100000000000000000000000000000000000000000000000000000000600052602160045260246000fd5b14610aee576040517f08c379a0000000000000000000000000000000000000000000000000000000008152600401610ae5906140fd565b60405180910390fd5b60036000815480929190610b0190614683565b9190505550600354600160006003548152602001908152602001600020600001819055503360016000600354815260200190815260200160002060010160006101000a81548173ffffffffffffffffffffffffffffffffffffffff021916908373ffffffffffffffffffffffffffffffffffffffff160217905550866001600060035481526020019081526020016000206002019080519060200190610ba89291906130e7565b50856001600060035481526020019081526020016000206003019080519060200190610bd59291906130e7565b50600060016000600354815260200190815260200160002060040160006101000a81548160ff021916908315150217905550600060016000600354815260200190815260200160002060040160016101000a81548160ff02191690836003811115610c69577f4e487b7100000000000000000000000000000000000000000000000000000000600052602160045260246000fd5b0217905550846001600060035481526020019081526020016000206005019080519060200190610c9a9291906130e7565b50836001600060035481526020019081526020016000206006019080519060200190610cc79291906130e7565b5082600160006003548152602001908152602001600020600b019080519060200190610cf49291906130e7565b5081600160006003548152602001908152602001600020600c019080519060200190610d219291906130e7565b5080600160006003548152602001908152602001600020600d019080519060200190610d4e9291906130e7565b506003547f76020fc040e621874f31bd683ac3c70ae524d6682f783cdb9ead5f6d303c258388604051610d819190613f84565b60405180910390a26003547f4b291666c2cd3cd2be2ae7085933be794c81b3a759eeb12c058b2b26a48a93e187604051610dbb9190613f84565b60405180910390a26003547f2f69d44a966e818e483aa2b077fe4fc704ad4ee2a6e35937fc403834e3ba9f798686604051610df7929190613fd6565b60405180910390a250505050505050565b606060006005811115610e44577f4e487b7100000000000000000000000000000000000000000000000000000000600052602160045260246000fd5b6000803373ffffffffffffffffffffffffffffffffffffffff1673ffffffffffffffffffffffffffffffffffffffff16815260200190815260200160002060000160149054906101000a900460ff166005811115610ecb577f4e487b7100000000000000000000000000000000000000000000000000000000600052602160045260246000fd5b14610f0b576040517f08c379a0000000000000000000000000000000000000000000000000000000008152600401610f02906140fd565b60405180910390fd5b60016000838152602001908152602001600020600a01805480602002602001604051908101604052809291908181526020016000905b828210156110ab578382906000526020600020906004020160405180608001604052908160008201548152602001600182018054610f7e90614651565b80601f0160208091040260200160405190810160405280929190818152602001828054610faa90614651565b8015610ff75780601f10610fcc57610100808354040283529160200191610ff7565b820191906000526020600020905b815481529060010190602001808311610fda57829003601f168201915b5050505050815260200160028201805461101090614651565b80601f016020809104026020016040519081016040528092919081815260200182805461103c90614651565b80156110895780601f1061105e57610100808354040283529160200191611089565b820191906000526020600020905b81548152906001019060200180831161106c57829003601f168201915b5050505050815260200160038201548152505081526020019060010190610f41565b505050509050919050565b60016020528060005260406000206000915090508060000154908060010160009054906101000a900473ffffffffffffffffffffffffffffffffffffffff169080600201805461110590614651565b80601f016020809104026020016040519081016040528092919081815260200182805461113190614651565b801561117e5780601f106111535761010080835404028352916020019161117e565b820191906000526020600020905b81548152906001019060200180831161116157829003601f168201915b50505050509080600301805461119390614651565b80601f01602080910402602001604051908101604052809291908181526020018280546111bf90614651565b801561120c5780601f106111e15761010080835404028352916020019161120c565b820191906000526020600020905b8154815290600101906020018083116111ef57829003601f168201915b5050505050908060040160009054906101000a900460ff16908060040160019054906101000a900460ff169080600501805461124790614651565b80601f016020809104026020016040519081016040528092919081815260200182805461127390614651565b80156112c05780601f10611295576101008083540402835291602001916112c0565b820191906000526020600020905b8154815290600101906020018083116112a357829003601f168201915b5050505050908060060180546112d590614651565b80601f016020809104026020016040519081016040528092919081815260200182805461130190614651565b801561134e5780601f106113235761010080835404028352916020019161134e565b820191906000526020600020905b81548152906001019060200180831161133157829003601f168201915b50505050509080600b01805461136390614651565b80601f016020809104026020016040519081016040528092919081815260200182805461138f90614651565b80156113dc5780601f106113b1576101008083540402835291602001916113dc565b820191906000526020600020905b8154815290600101906020018083116113bf57829003601f168201915b50505050509080600c0180546113f190614651565b80601f016020809104026020016040519081016040528092919081815260200182805461141d90614651565b801561146a5780601f1061143f5761010080835404028352916020019161146a565b820191906000526020600020905b81548152906001019060200180831161144d57829003601f168201915b50505050509080600d01805461147f90614651565b80601f01602080910402602001604051908101604052809291908181526020018280546114ab90614651565b80156114f85780601f106114cd576101008083540402835291602001916114f8565b820191906000526020600020905b8154815290600101906020018083116114db57829003601f168201915b505050505090508b565b6004600581111561153c577f4e487b7100000000000000000000000000000000000000000000000000000000600052602160045260246000fd5b6000803373ffffffffffffffffffffffffffffffffffffffff1673ffffffffffffffffffffffffffffffffffffffff16815260200190815260200160002060000160149054906101000a900460ff1660058111156115c3577f4e487b7100000000000000000000000000000000000000000000000000000000600052602160045260246000fd5b14611603576040517f08c379a00000000000000000000000000000000000000000000000000000000081526004016115fa906140dd565b60405180910390fd5b6004600081548092919061161690614683565b919050555060016000838152602001908152602001600020600901604051806080016040528060045481526020013373ffffffffffffffffffffffffffffffffffffffff1681526020018381526020014281525090806001815401808255809150506001900390600052602060002090600402016000909190919091506000820151816000015560208201518160010160006101000a81548173ffffffffffffffffffffffffffffffffffffffff021916908373ffffffffffffffffffffffffffffffffffffffff16021790555060408201518160020190805190602001906117009291906130e7565b50606082015181600301555050817f01a45eca5add8bc008d04da47eb5d17311e76e71fdcdf26dde57b4370a03bfa760045433844260405161174594939291906142d4565b60405180910390a25050565b6000600581111561178b577f4e487b7100000000000000000000000000000000000000000000000000000000600052602160045260246000fd5b6000803373ffffffffffffffffffffffffffffffffffffffff1673ffffffffffffffffffffffffffffffffffffffff16815260200190815260200160002060000160149054906101000a900460ff166005811115611812577f4e487b7100000000000000000000000000000000000000000000000000000000600052602160045260246000fd5b14611852576040517f08c379a0000000000000000000000000000000000000000000000000000000008152600401611849906140fd565b60405180910390fd5b60016000838152602001908152602001600020600701819080600181540180825580915050600190039060005260206000200160009091909190915090805190602001906118a19291906130e7565b50817f3e91c1bda32051113f8f1aaa1b3fb12b874b54bfd3dbdb463ee2836493a83c9d826040516118d29190613f84565b60405180910390a25050565b600580811115611917577f4e487b7100000000000000000000000000000000000000000000000000000000600052602160045260246000fd5b6000803373ffffffffffffffffffffffffffffffffffffffff1673ffffffffffffffffffffffffffffffffffffffff16815260200190815260200160002060000160149054906101000a900460ff16600581111561199e577f4e487b7100000000000000000000000000000000000000000000000000000000600052602160045260246000fd5b146119de576040517f08c379a00000000000000000000000000000000000000000000000000000000081526004016119d5906141bd565b60405180910390fd5b600560008154809291906119f190614683565b919050555060016000848152602001908152602001600020600a0160405180608001604052806005548152602001848152602001838152602001428152509080600181540180825580915050600190039060005260206000209060040201600090919091909150600082015181600001556020820151816001019080519060200190611a7e9291906130e7565b506040820151816002019080519060200190611a9b9291906130e7565b50606082015181600301555050827fa313df723389871f22ba2e986d3ad5724712c38a270e9ec008e6037c670862da600554848442604051611ae09493929190614373565b60405180910390a2505050565b60035481565b60055481565b60026005811115611b33577f4e487b7100000000000000000000000000000000000000000000000000000000600052602160045260246000fd5b6000803373ffffffffffffffffffffffffffffffffffffffff1673ffffffffffffffffffffffffffffffffffffffff16815260200190815260200160002060000160149054906101000a900460ff166005811115611bba577f4e487b7100000000000000000000000000000000000000000000000000000000600052602160045260246000fd5b14611bfa576040517f08c379a0000000000000000000000000000000000000000000000000000000008152600401611bf19061411d565b60405180910390fd5b60005b6001600085815260200190815260200160002060080180549050811015611d995782604051602001611c2f9190613e54565b60405160208183030381529060405280519060200120600160008681526020019081526020016000206008018281548110611c93577f4e487b7100000000000000000000000000000000000000000000000000000000600052603260045260246000fd5b9060005260206000209060030201600001604051602001611cb49190613e6b565b604051602081830303815290604052805190602001201415611d865781600160008681526020019081526020016000206008018281548110611d1f577f4e487b7100000000000000000000000000000000000000000000000000000000600052603260045260246000fd5b906000526020600020906003020160020160006101000a81548160ff021916908315150217905550837f48a30b2f4fe18c85c3ef5f067c24f56cb42dd613715bce20f76dcaa87077d96f8484604051611d79929190613fa6565b60405180910390a2611d99565b8080611d9190614683565b915050611bfd565b50505050565b606060006005811115611ddb577f4e487b7100000000000000000000000000000000000000000000000000000000600052602160045260246000fd5b6000803373ffffffffffffffffffffffffffffffffffffffff1673ffffffffffffffffffffffffffffffffffffffff16815260200190815260200160002060000160149054906101000a900460ff166005811115611e62577f4e487b7100000000000000000000000000000000000000000000000000000000600052602160045260246000fd5b14611ea2576040517f08c379a0000000000000000000000000000000000000000000000000000000008152600401611e99906140fd565b60405180910390fd5b60016000838152602001908152602001600020600801805480602002602001604051908101604052809291908181526020016000905b82821015611fc15783829060005260206000209060030201604051806060016040529081600082018054611f0b90614651565b80601f0160208091040260200160405190810160405280929190818152602001828054611f3790614651565b8015611f845780601f10611f5957610100808354040283529160200191611f84565b820191906000526020600020905b815481529060010190602001808311611f6757829003601f168201915b50505050508152602001600182015481526020016002820160009054906101000a900460ff16151515158152505081526020019060010190611ed8565b505050509050919050565b60608060608060608060606000600160008a815260200190815260200160002090508060020181600301826005018360060184600b0185600c0186600d0186805461201690614651565b80601f016020809104026020016040519081016040528092919081815260200182805461204290614651565b801561208f5780601f106120645761010080835404028352916020019161208f565b820191906000526020600020905b81548152906001019060200180831161207257829003601f168201915b505050505096508580546120a290614651565b80601f01602080910402602001604051908101604052809291908181526020018280546120ce90614651565b801561211b5780601f106120f05761010080835404028352916020019161211b565b820191906000526020600020905b8154815290600101906020018083116120fe57829003601f168201915b5050505050955084805461212e90614651565b80601f016020809104026020016040519081016040528092919081815260200182805461215a90614651565b80156121a75780601f1061217c576101008083540402835291602001916121a7565b820191906000526020600020905b81548152906001019060200180831161218a57829003601f168201915b505050505094508380546121ba90614651565b80601f01602080910402602001604051908101604052809291908181526020018280546121e690614651565b80156122335780601f1061220857610100808354040283529160200191612233565b820191906000526020600020905b81548152906001019060200180831161221657829003601f168201915b5050505050935082805461224690614651565b80601f016020809104026020016040519081016040528092919081815260200182805461227290614651565b80156122bf5780601f10612294576101008083540402835291602001916122bf565b820191906000526020600020905b8154815290600101906020018083116122a257829003601f168201915b505050505092508180546122d290614651565b80601f01602080910402602001604051908101604052809291908181526020018280546122fe90614651565b801561234b5780601f106123205761010080835404028352916020019161234b565b820191906000526020600020905b81548152906001019060200180831161232e57829003601f168201915b5050505050915080805461235e90614651565b80601f016020809104026020016040519081016040528092919081815260200182805461238a90614651565b80156123d75780601f106123ac576101008083540402835291602001916123d7565b820191906000526020600020905b8154815290600101906020018083116123ba57829003601f168201915b50505050509050975097509750975097509750975050919395979092949650565b606060006005811115612434577f4e487b7100000000000000000000000000000000000000000000000000000000600052602160045260246000fd5b6000803373ffffffffffffffffffffffffffffffffffffffff1673ffffffffffffffffffffffffffffffffffffffff16815260200190815260200160002060000160149054906101000a900460ff1660058111156124bb577f4e487b7100000000000000000000000000000000000000000000000000000000600052602160045260246000fd5b146124fb576040517f08c379a00000000000000000000000000000000000000000000000000000000081526004016124f2906140fd565b60405180910390fd5b60016000838152602001908152602001600020600901805480602002602001604051908101604052809291908181526020016000905b8282101561265f5783829060005260206000209060040201604051806080016040529081600082015481526020016001820160009054906101000a900473ffffffffffffffffffffffffffffffffffffffff1673ffffffffffffffffffffffffffffffffffffffff1673ffffffffffffffffffffffffffffffffffffffff1681526020016002820180546125c490614651565b80601f01602080910402602001604051908101604052809291908181526020018280546125f090614651565b801561263d5780601f106126125761010080835404028352916020019161263d565b820191906000526020600020905b81548152906001019060200180831161262057829003601f168201915b5050505050815260200160038201548152505081526020019060010190612531565b505050509050919050565b60026020528060005260406000206000915090508060000154908060010160009054906101000a900473ffffffffffffffffffffffffffffffffffffffff16908060020154908060030160009054906101000a900460ff16908060040154905085565b60026005811115612707577f4e487b7100000000000000000000000000000000000000000000000000000000600052602160045260246000fd5b6000803373ffffffffffffffffffffffffffffffffffffffff1673ffffffffffffffffffffffffffffffffffffffff16815260200190815260200160002060000160149054906101000a900460ff16600581111561278e577f4e487b7100000000000000000000000000000000000000000000000000000000600052602160045260246000fd5b146127ce576040517f08c379a00000000000000000000000000000000000000000000000000000000081526004016127c59061411d565b60405180910390fd5b60026003811115612808577f4e487b7100000000000000000000000000000000000000000000000000000000600052602160045260246000fd5b6001600084815260200190815260200160002060040160019054906101000a900460ff166003811115612864577f4e487b7100000000000000000000000000000000000000000000000000000000600052602160045260246000fd5b146128a4576040517f08c379a000000000000000000000000000000000000000000000000000000000815260040161289b9061413d565b60405180910390fd5b817fb0a26e6f92742be73e2b10e4ca6494bc6f97c828c1f06afc1aad3e69eb1a62eb826040516128d49190613f33565b60405180910390a25050565b60405180604001604052808373ffffffffffffffffffffffffffffffffffffffff168152602001826005811115612940577f4e487b7100000000000000000000000000000000000000000000000000000000600052602160045260246000fd5b8152506000808473ffffffffffffffffffffffffffffffffffffffff1673ffffffffffffffffffffffffffffffffffffffff16815260200190815260200160002060008201518160000160006101000a81548173ffffffffffffffffffffffffffffffffffffffff021916908373ffffffffffffffffffffffffffffffffffffffff16021790555060208201518160000160146101000a81548160ff02191690836005811115612a19577f4e487b7100000000000000000000000000000000000000000000000000000000600052602160045260246000fd5b02179055509050508173ffffffffffffffffffffffffffffffffffffffff167fbd86914a2cea41efb2ef2e360c4375dceb3c2ec14c6876f40345126b9ac1f3cc82604051612a679190613f69565b60405180910390a25050565b60016005811115612aad577f4e487b7100000000000000000000000000000000000000000000000000000000600052602160045260246000fd5b6000803373ffffffffffffffffffffffffffffffffffffffff1673ffffffffffffffffffffffffffffffffffffffff16815260200190815260200160002060000160149054906101000a900460ff166005811115612b34577f4e487b7100000000000000000000000000000000000000000000000000000000600052602160045260246000fd5b14612b74576040517f08c379a0000000000000000000000000000000000000000000000000000000008152600401612b6b9061419d565b60405180910390fd5b6001600084815260200190815260200160002060080160405180606001604052808481526020018381526020016000151581525090806001815401808255809150506001900390600052602060002090600302016000909190919091506000820151816000019080519060200190612bed9291906130e7565b506020820151816001015560408201518160020160006101000a81548160ff0219169083151502179055505050827f375185d24a1c31669068f184b530875ecc60b01611be86ca7346d6f42aa7b24a8383604051612c4c9291906140ad565b60405180910390a2505050565b606060006005811115612c95577f4e487b7100000000000000000000000000000000000000000000000000000000600052602160045260246000fd5b6000803373ffffffffffffffffffffffffffffffffffffffff1673ffffffffffffffffffffffffffffffffffffffff16815260200190815260200160002060000160149054906101000a900460ff166005811115612d1c577f4e487b7100000000000000000000000000000000000000000000000000000000600052602160045260246000fd5b14612d5c576040517f08c379a0000000000000000000000000000000000000000000000000000000008152600401612d53906140fd565b60405180910390fd5b60016000838152602001908152602001600020600701805480602002602001604051908101604052809291908181526020016000905b82821015612e3e578382906000526020600020018054612db190614651565b80601f0160208091040260200160405190810160405280929190818152602001828054612ddd90614651565b8015612e2a5780601f10612dff57610100808354040283529160200191612e2a565b820191906000526020600020905b815481529060010190602001808311612e0d57829003601f168201915b505050505081526020019060010190612d92565b505050509050919050565b60026005811115612e83577f4e487b7100000000000000000000000000000000000000000000000000000000600052602160045260246000fd5b6000803373ffffffffffffffffffffffffffffffffffffffff1673ffffffffffffffffffffffffffffffffffffffff16815260200190815260200160002060000160149054906101000a900460ff166005811115612f0a577f4e487b7100000000000000000000000000000000000000000000000000000000600052602160045260246000fd5b14612f4a576040517f08c379a0000000000000000000000000000000000000000000000000000000008152600401612f419061411d565b60405180910390fd5b60016003811115612f84577f4e487b7100000000000000000000000000000000000000000000000000000000600052602160045260246000fd5b6001600084815260200190815260200160002060040160019054906101000a900460ff166003811115612fe0577f4e487b7100000000000000000000000000000000000000000000000000000000600052602160045260246000fd5b14613020576040517f08c379a00000000000000000000000000000000000000000000000000000000081526004016130179061415d565b60405180910390fd5b806001600084815260200190815260200160002060040160006101000a81548160ff021916908315150217905550817f8376f0f93a9f281fb3c3d346f9e32ed107438f6270d44c2f4c70f741db94738d8260405161307e9190613f33565b60405180910390a25050565b60065481565b60045481565b60006020528060005260406000206000915090508060000160009054906101000a900473ffffffffffffffffffffffffffffffffffffffff16908060000160149054906101000a900460ff16905082565b8280546130f390614651565b90600052602060002090601f016020900481019282613115576000855561315c565b82601f1061312e57805160ff191683800117855561315c565b8280016001018555821561315c579182015b8281111561315b578251825591602001919060010190613140565b5b509050613169919061316d565b5090565b5b8082111561318657600081600090555060010161316e565b5090565b600061319d613198846143f7565b6143c6565b9050828152602081018484840111156131b557600080fd5b6131c084828561460f565b509392505050565b6000813590506131d7816147d5565b92915050565b6000813590506131ec816147ec565b92915050565b60008135905061320181614803565b92915050565b60008135905061321681614813565b92915050565b60008135905061322b81614823565b92915050565b600082601f83011261324257600080fd5b813561325284826020860161318a565b91505092915050565b60008135905061326a81614833565b92915050565b60006020828403121561328257600080fd5b6000613290848285016131c8565b91505092915050565b600080604083850312156132ac57600080fd5b60006132ba858286016131c8565b92505060206132cb8582860161321c565b9150509250929050565b600080600080600080600060e0888a0312156132f057600080fd5b600088013567ffffffffffffffff81111561330a57600080fd5b6133168a828b01613231565b975050602088013567ffffffffffffffff81111561333357600080fd5b61333f8a828b01613231565b965050604088013567ffffffffffffffff81111561335c57600080fd5b6133688a828b01613231565b955050606088013567ffffffffffffffff81111561338557600080fd5b6133918a828b01613231565b945050608088013567ffffffffffffffff8111156133ae57600080fd5b6133ba8a828b01613231565b93505060a088013567ffffffffffffffff8111156133d757600080fd5b6133e38a828b01613231565b92505060c088013567ffffffffffffffff81111561340057600080fd5b61340c8a828b01613231565b91505092959891949750929550565b60006020828403121561342d57600080fd5b600061343b8482850161325b565b91505092915050565b6000806040838503121561345757600080fd5b60006134658582860161325b565b9250506020613476858286016131dd565b9150509250929050565b6000806040838503121561349357600080fd5b60006134a18582860161325b565b92505060206134b2858286016131f2565b9150509250929050565b600080604083850312156134cf57600080fd5b60006134dd8582860161325b565b925050602083013567ffffffffffffffff8111156134fa57600080fd5b61350685828601613231565b9150509250929050565b60008060006060848603121561352557600080fd5b60006135338682870161325b565b935050602084013567ffffffffffffffff81111561355057600080fd5b61355c86828701613231565b925050604061356d868287016131dd565b9150509250925092565b60008060006060848603121561358c57600080fd5b600061359a8682870161325b565b935050602084013567ffffffffffffffff8111156135b757600080fd5b6135c386828701613231565b925050604084013567ffffffffffffffff8111156135e057600080fd5b6135ec86828701613231565b9150509250925092565b60008060006060848603121561360b57600080fd5b60006136198682870161325b565b935050602084013567ffffffffffffffff81111561363657600080fd5b61364286828701613231565b92505060406136538682870161325b565b9150509250925092565b60008060006060848603121561367257600080fd5b60006136808682870161325b565b93505060206136918682870161325b565b92505060406136a286828701613207565b9150509250925092565b60006136b88383613939565b905092915050565b60006136cc8383613d19565b905092915050565b60006136e08383613d83565b905092915050565b60006136f48383613de6565b905092915050565b61370581614558565b82525050565b61371481614558565b82525050565b60006137258261447c565b61372f81856144e7565b93508360208202850161374185614427565b8060005b8581101561377d578484038952815161375e85826136ac565b9450613769836144b3565b925060208a01995050600181019050613745565b50829750879550505050505092915050565b600061379a82614487565b6137a481856144f8565b9350836020820285016137b685614437565b8060005b858110156137f257848403895281516137d385826136c0565b94506137de836144c0565b925060208a019950506001810190506137ba565b50829750879550505050505092915050565b600061380f82614492565b6138198185614509565b93508360208202850161382b85614447565b8060005b85811015613867578484038952815161384885826136d4565b9450613853836144cd565b925060208a0199505060018101905061382f565b50829750879550505050505092915050565b60006138848261449d565b61388e818561451a565b9350836020820285016138a085614457565b8060005b858110156138dc57848403895281516138bd85826136e8565b94506138c8836144da565b925060208a019950506001810190506138a4565b50829750879550505050505092915050565b6138f78161456a565b82525050565b6139068161456a565b82525050565b613915816145d9565b82525050565b613924816145eb565b82525050565b613933816145fd565b82525050565b6000613944826144a8565b61394e818561452b565b935061395e81856020860161461e565b61396781614788565b840191505092915050565b600061397d826144a8565b613987818561453c565b935061399781856020860161461e565b6139a081614788565b840191505092915050565b60006139b6826144a8565b6139c0818561454d565b93506139d081856020860161461e565b80840191505092915050565b600081546139e981614651565b6139f3818661454d565b94506001821660008114613a0e5760018114613a1f57613a52565b60ff19831686528186019350613a52565b613a2885614467565b60005b83811015613a4a57815481890152600182019150602081019050613a2b565b838801955050505b50505092915050565b6000613a6860208361453c565b91507f4e6f6e206175746f726973653a207365756c656d656e742041756469746575726000830152602082019050919050565b6000613aa860228361453c565b91507f4e6f6e206175746f726973653a207365756c656d656e742050726f647563746560008301527f75720000000000000000000000000000000000000000000000000000000000006020830152604082019050919050565b6000613b0e60258361453c565b91507f4e6f6e206175746f726973653a207365756c656d656e7420436572746966696360008301527f61746575720000000000000000000000000000000000000000000000000000006020830152604082019050919050565b6000613b7460178361453c565b91507f50617320656e206574617065206465207265636f6c74650000000000000000006000830152602082019050919050565b6000613bb460178361453c565b91507f50617320656e2065746170652064652063756c747572650000000000000000006000830152602082019050919050565b6000613bf460228361453c565b91507f4e6f6e206175746f726973653a207365756c656d656e7420436f6c6c6563746560008301527f75720000000000000000000000000000000000000000000000000000000000006020830152604082019050919050565b6000613c5a60238361453c565b91507f4e6f6e206175746f726973653a207365756c656d656e7420466f75726e69737360008301527f65757200000000000000000000000000000000000000000000000000000000006020830152604082019050919050565b6000613cc060248361453c565b91507f4e6f6e206175746f726973653a207365756c656d656e74205472616e73706f7260008301527f74657572000000000000000000000000000000000000000000000000000000006020830152604082019050919050565b6000608083016000830151613d316000860182613e36565b5060208301518482036020860152613d498282613939565b91505060408301518482036040860152613d638282613939565b9150506060830151613d786060860182613e36565b508091505092915050565b6000608083016000830151613d9b6000860182613e36565b506020830151613dae60208601826136fc565b5060408301518482036040860152613dc68282613939565b9150506060830151613ddb6060860182613e36565b508091505092915050565b60006060830160008301518482036000860152613e038282613939565b9150506020830151613e186020860182613e36565b506040830151613e2b60408601826138ee565b508091505092915050565b613e3f816145cf565b82525050565b613e4e816145cf565b82525050565b6000613e6082846139ab565b915081905092915050565b6000613e7782846139dc565b915081905092915050565b6000604082019050613e97600083018561370b565b613ea4602083018461392a565b9392505050565b60006020820190508181036000830152613ec5818461371a565b905092915050565b60006020820190508181036000830152613ee7818461378f565b905092915050565b60006020820190508181036000830152613f098184613804565b905092915050565b60006020820190508181036000830152613f2b8184613879565b905092915050565b6000602082019050613f4860008301846138fd565b92915050565b6000602082019050613f63600083018461390c565b92915050565b6000602082019050613f7e600083018461392a565b92915050565b60006020820190508181036000830152613f9e8184613972565b905092915050565b60006040820190508181036000830152613fc08185613972565b9050613fcf60208301846138fd565b9392505050565b60006040820190508181036000830152613ff08185613972565b905081810360208301526140048184613972565b90509392505050565b600060e0820190508181036000830152614027818a613972565b9050818103602083015261403b8189613972565b9050818103604083015261404f8188613972565b905081810360608301526140638187613972565b905081810360808301526140778186613972565b905081810360a083015261408b8185613972565b905081810360c083015261409f8184613972565b905098975050505050505050565b600060408201905081810360008301526140c78185613972565b90506140d66020830184613e45565b9392505050565b600060208201905081810360008301526140f681613a5b565b9050919050565b6000602082019050818103600083015261411681613a9b565b9050919050565b6000602082019050818103600083015261413681613b01565b9050919050565b6000602082019050818103600083015261415681613b67565b9050919050565b6000602082019050818103600083015261417681613ba7565b9050919050565b6000602082019050818103600083015261419681613be7565b9050919050565b600060208201905081810360008301526141b681613c4d565b9050919050565b600060208201905081810360008301526141d681613cb3565b9050919050565b60006020820190506141f26000830184613e45565b92915050565b60006101608201905061420e600083018e613e45565b61421b602083018d61370b565b818103604083015261422d818c613972565b90508181036060830152614241818b613972565b9050614250608083018a6138fd565b61425d60a083018961390c565b81810360c083015261426f8188613972565b905081810360e08301526142838187613972565b90508181036101008301526142988186613972565b90508181036101208301526142ad8185613972565b90508181036101408301526142c28184613972565b90509c9b505050505050505050505050565b60006080820190506142e96000830187613e45565b6142f6602083018661370b565b81810360408301526143088185613972565b90506143176060830184613e45565b95945050505050565b600060a0820190506143356000830188613e45565b614342602083018761370b565b61434f6040830186613e45565b61435c606083018561391b565b6143696080830184613e45565b9695505050505050565b60006080820190506143886000830187613e45565b818103602083015261439a8186613972565b905081810360408301526143ae8185613972565b90506143bd6060830184613e45565b95945050505050565b6000604051905081810181811067ffffffffffffffff821117156143ed576143ec614759565b5b8060405250919050565b600067ffffffffffffffff82111561441257614411614759565b5b601f19601f8301169050602081019050919050565b6000819050602082019050919050565b6000819050602082019050919050565b6000819050602082019050919050565b6000819050602082019050919050565b60008190508160005260206000209050919050565b600081519050919050565b600081519050919050565b600081519050919050565b600081519050919050565b600081519050919050565b6000602082019050919050565b6000602082019050919050565b6000602082019050919050565b6000602082019050919050565b600082825260208201905092915050565b600082825260208201905092915050565b600082825260208201905092915050565b600082825260208201905092915050565b600082825260208201905092915050565b600082825260208201905092915050565b600081905092915050565b6000614563826145af565b9050919050565b60008115159050919050565b600081905061458482614799565b919050565b6000819050614597826147ad565b919050565b60008190506145aa826147c1565b919050565b600073ffffffffffffffffffffffffffffffffffffffff82169050919050565b6000819050919050565b60006145e482614576565b9050919050565b60006145f682614589565b9050919050565b60006146088261459c565b9050919050565b82818337600083830152505050565b60005b8381101561463c578082015181840152602081019050614621565b8381111561464b576000848401525b50505050565b6000600282049050600182168061466957607f821691505b6020821081141561467d5761467c61472a565b5b50919050565b600061468e826145cf565b91507fffffffffffffffffffffffffffffffffffffffffffffffffffffffffffffffff8214156146c1576146c06146cc565b5b600182019050919050565b7f4e487b7100000000000000000000000000000000000000000000000000000000600052601160045260246000fd5b7f4e487b7100000000000000000000000000000000000000000000000000000000600052602160045260246000fd5b7f4e487b7100000000000000000000000000000000000000000000000000000000600052602260045260246000fd5b7f4e487b7100000000000000000000000000000000000000000000000000000000600052604160045260246000fd5b6000601f19601f8301169050919050565b600481106147aa576147a96146fb565b5b50565b600381106147be576147bd6146fb565b5b50565b600681106147d2576147d16146fb565b5b50565b6147de81614558565b81146147e957600080fd5b50565b6147f58161456a565b811461480057600080fd5b50565b6004811061481057600080fd5b50565b6003811061482057600080fd5b50565b6006811061483057600080fd5b50565b61483c816145cf565b811461484757600080fd5b5056fea26469706673582212207dc063b70186f519e078fa9ddc63b3a3d5376ad35000d9a8c8637697605953f864736f6c63430008000033",
  "linkReferences": {},
  "deployedLinkReferences": {}
}