{
  "_format": "hh-sol-artifact-1",
  "contractName": "ProducteurEnPhaseCulture",
  "sourceName": "contracts/ProducteurEnPhaseCulture.sol",
  "abi": [
    {
      "inputs": [
        {
          "internalType": "address",
          "name": "_recolte",
          "type": "address"
        },
        {
          "internalType": "address",
          "name": "_parcelle",
          "type": "address"
        }
      ],
      "stateMutability": "nonpayable",
      "type": "constructor"
    },
    {
      "stateMutability": "payable",
      "type": "fallback"
    },
    {
      "inputs": [
        {
          "internalType": "address",
          "name": "",
          "type": "address"
        }
      ],
      "name": "acteurs",
      "outputs": [
        {
          "internalType": "address",
          "name": "addr",
          "type": "address"
        },
        {
          "internalType": "enum StructLib.Role",
          "name": "role",
          "type": "uint8"
        }
      ],
      "stateMutability": "view",
      "type": "function"
    },
    {
      "inputs": [
        {
          "internalType": "uint32",
          "name": "_idParcelle",
          "type": "uint32"
        },
        {
          "internalType": "uint32",
          "name": "_quantite",
          "type": "uint32"
        },
        {
          "internalType": "uint32",
          "name": "_prix",
          "type": "uint32"
        },
        {
          "internalType": "string",
          "name": "_dateRecolte",
          "type": "string"
        },
        {
          "internalType": "string",
          "name": "_nomProduit",
          "type": "string"
        }
      ],
      "name": "ajoutRecolte",
      "outputs": [],
      "stateMutability": "nonpayable",
      "type": "function"
    },
    {
      "inputs": [
        {
          "internalType": "uint32",
          "name": "_idParcelle",
          "type": "uint32"
        },
        {
          "internalType": "string",
          "name": "_rapport",
          "type": "string"
        }
      ],
      "name": "ajouterInspection",
      "outputs": [],
      "stateMutability": "nonpayable",
      "type": "function"
    },
    {
      "inputs": [
        {
          "internalType": "uint32",
          "name": "_idParcelle",
          "type": "uint32"
        },
        {
          "internalType": "string",
          "name": "_nom",
          "type": "string"
        },
        {
          "internalType": "uint32",
          "name": "_quantite",
          "type": "uint32"
        }
      ],
      "name": "ajouterIntrant",
      "outputs": [],
      "stateMutability": "nonpayable",
      "type": "function"
    },
    {
      "inputs": [
        {
          "internalType": "uint32",
          "name": "_idParcelle",
          "type": "uint32"
        },
        {
          "internalType": "string",
          "name": "_urlPhoto",
          "type": "string"
        }
      ],
      "name": "ajouterPhoto",
      "outputs": [],
      "stateMutability": "nonpayable",
      "type": "function"
    },
    {
      "inputs": [
        {
          "internalType": "uint32",
          "name": "_idParcelle",
          "type": "uint32"
        },
        {
          "internalType": "bool",
          "name": "_passe",
          "type": "bool"
        }
      ],
      "name": "appliquerControlePhytosanitaire",
      "outputs": [],
      "stateMutability": "nonpayable",
      "type": "function"
    },
    {
      "inputs": [
        {
          "internalType": "uint32",
          "name": "_idRecolte",
          "type": "uint32"
        },
        {
          "internalType": "string",
          "name": "_certificat",
          "type": "string"
        }
      ],
      "name": "certifieRecolte",
      "outputs": [],
      "stateMutability": "nonpayable",
      "type": "function"
    },
    {
      "inputs": [
        {
          "internalType": "string",
          "name": "_qualiteSemence",
          "type": "string"
        },
        {
          "internalType": "string",
          "name": "_methodeCulture",
          "type": "string"
        },
        {
          "internalType": "string",
          "name": "_latitude",
          "type": "string"
        },
        {
          "internalType": "string",
          "name": "_longitude",
          "type": "string"
        },
        {
          "internalType": "string",
          "name": "_dateRecolte",
          "type": "string"
        },
        {
          "internalType": "string",
          "name": "_certificatPhytosanitaire",
          "type": "string"
        }
      ],
      "name": "creerParcelle",
      "outputs": [],
      "stateMutability": "nonpayable",
      "type": "function"
    },
    {
      "inputs": [
        {
          "internalType": "uint32",
          "name": "_idCommande",
          "type": "uint32"
        },
        {
          "internalType": "uint32",
          "name": "_montant",
          "type": "uint32"
        },
        {
          "internalType": "enum StructLib.ModePaiement",
          "name": "_mode",
          "type": "uint8"
        }
      ],
      "name": "effectuerPaiementVersProducteur",
      "outputs": [],
      "stateMutability": "payable",
      "type": "function"
    },
    {
      "inputs": [
        {
          "internalType": "address",
          "name": "_acteur",
          "type": "address"
        },
        {
          "internalType": "enum StructLib.Role",
          "name": "_role",
          "type": "uint8"
        }
      ],
      "name": "enregistrerActeur",
      "outputs": [],
      "stateMutability": "nonpayable",
      "type": "function"
    },
    {
      "inputs": [
        {
          "internalType": "address",
          "name": "addr",
          "type": "address"
        }
      ],
      "name": "getActeur",
      "outputs": [
        {
          "components": [
            {
              "internalType": "address",
              "name": "addr",
              "type": "address"
            },
            {
              "internalType": "enum StructLib.Role",
              "name": "role",
              "type": "uint8"
            }
          ],
          "internalType": "struct StructLib.Acteur",
          "name": "",
          "type": "tuple"
        }
      ],
      "stateMutability": "view",
      "type": "function"
    },
    {
      "inputs": [
        {
          "internalType": "uint32",
          "name": "_idRecolte",
          "type": "uint32"
        }
      ],
      "name": "getCommande",
      "outputs": [
        {
          "components": [
            {
              "internalType": "uint32",
              "name": "id",
              "type": "uint32"
            },
            {
              "internalType": "uint32",
              "name": "idRecolte",
              "type": "uint32"
            },
            {
              "internalType": "uint32",
              "name": "quantite",
              "type": "uint32"
            },
            {
              "internalType": "uint32",
              "name": "prix",
              "type": "uint32"
            },
            {
              "internalType": "bool",
              "name": "payer",
              "type": "bool"
            },
            {
              "internalType": "enum StructLib.StatutTransport",
              "name": "statutTransport",
              "type": "uint8"
            },
            {
              "internalType": "address",
              "name": "producteur",
              "type": "address"
            },
            {
              "internalType": "address",
              "name": "collecteur",
              "type": "address"
            }
          ],
          "internalType": "struct StructLib.CommandeRecolte",
          "name": "",
          "type": "tuple"
        }
      ],
      "stateMutability": "view",
      "type": "function"
    },
    {
      "inputs": [],
      "name": "getCompteurCommandes",
      "outputs": [
        {
          "internalType": "uint32",
          "name": "",
          "type": "uint32"
        }
      ],
      "stateMutability": "view",
      "type": "function"
    },
    {
      "inputs": [],
      "name": "getCompteurInspection",
      "outputs": [
        {
          "internalType": "uint32",
          "name": "",
          "type": "uint32"
        }
      ],
      "stateMutability": "view",
      "type": "function"
    },
    {
      "inputs": [],
      "name": "getCompteurPaiments",
      "outputs": [
        {
          "internalType": "uint32",
          "name": "",
          "type": "uint32"
        }
      ],
      "stateMutability": "view",
      "type": "function"
    },
    {
      "inputs": [],
      "name": "getCompteurParcelle",
      "outputs": [
        {
          "internalType": "uint32",
          "name": "",
          "type": "uint32"
        }
      ],
      "stateMutability": "view",
      "type": "function"
    },
    {
      "inputs": [],
      "name": "getCompteurRecoltes",
      "outputs": [
        {
          "internalType": "uint32",
          "name": "",
          "type": "uint32"
        }
      ],
      "stateMutability": "view",
      "type": "function"
    },
    {
      "inputs": [
        {
          "internalType": "uint32",
          "name": "idParcelle",
          "type": "uint32"
        }
      ],
      "name": "getConditions",
      "outputs": [
        {
          "components": [
            {
              "internalType": "uint32",
              "name": "id",
              "type": "uint32"
            },
            {
              "internalType": "string",
              "name": "temperature",
              "type": "string"
            },
            {
              "internalType": "string",
              "name": "humidite",
              "type": "string"
            },
            {
              "internalType": "uint256",
              "name": "timestamp",
              "type": "uint256"
            }
          ],
          "internalType": "struct StructLib.EnregistrementCondition[]",
          "name": "",
          "type": "tuple[]"
        }
      ],
      "stateMutability": "view",
      "type": "function"
    },
    {
      "inputs": [
        {
          "internalType": "uint32",
          "name": "idParcelle",
          "type": "uint32"
        }
      ],
      "name": "getInspections",
      "outputs": [
        {
          "components": [
            {
              "internalType": "uint32",
              "name": "id",
              "type": "uint32"
            },
            {
              "internalType": "address",
              "name": "auditeur",
              "type": "address"
            },
            {
              "internalType": "string",
              "name": "rapport",
              "type": "string"
            },
            {
              "internalType": "uint256",
              "name": "timestamp",
              "type": "uint256"
            }
          ],
          "internalType": "struct StructLib.Inspection[]",
          "name": "",
          "type": "tuple[]"
        }
      ],
      "stateMutability": "view",
      "type": "function"
    },
    {
      "inputs": [
        {
          "internalType": "uint32",
          "name": "idParcelle",
          "type": "uint32"
        }
      ],
      "name": "getIntrants",
      "outputs": [
        {
          "components": [
            {
              "internalType": "string",
              "name": "nom",
              "type": "string"
            },
            {
              "internalType": "uint32",
              "name": "quantite",
              "type": "uint32"
            },
            {
              "internalType": "bool",
              "name": "valide",
              "type": "bool"
            }
          ],
          "internalType": "struct StructLib.Intrant[]",
          "name": "",
          "type": "tuple[]"
        }
      ],
      "stateMutability": "view",
      "type": "function"
    },
    {
      "inputs": [
        {
          "internalType": "uint32",
          "name": "id",
          "type": "uint32"
        }
      ],
      "name": "getPaiement",
      "outputs": [
        {
          "components": [
            {
              "internalType": "uint32",
              "name": "id",
              "type": "uint32"
            },
            {
              "internalType": "address",
              "name": "payeur",
              "type": "address"
            },
            {
              "internalType": "address",
              "name": "vendeur",
              "type": "address"
            },
            {
              "internalType": "uint32",
              "name": "montant",
              "type": "uint32"
            },
            {
              "internalType": "enum StructLib.ModePaiement",
              "name": "mode",
              "type": "uint8"
            },
            {
              "internalType": "uint256",
              "name": "timestamp",
              "type": "uint256"
            }
          ],
          "internalType": "struct StructLib.Paiement",
          "name": "",
          "type": "tuple"
        }
      ],
      "stateMutability": "view",
      "type": "function"
    },
    {
      "inputs": [
        {
          "internalType": "uint32",
          "name": "id",
          "type": "uint32"
        }
      ],
      "name": "getParcelle",
      "outputs": [
        {
          "components": [
            {
              "internalType": "uint32",
              "name": "id",
              "type": "uint32"
            },
            {
              "internalType": "address",
              "name": "producteur",
              "type": "address"
            },
            {
              "internalType": "string",
              "name": "qualiteSemence",
              "type": "string"
            },
            {
              "internalType": "string",
              "name": "methodeCulture",
              "type": "string"
            },
            {
              "internalType": "bool",
              "name": "certifie",
              "type": "bool"
            },
            {
              "internalType": "enum StructLib.Etape",
              "name": "etape",
              "type": "uint8"
            },
            {
              "internalType": "string",
              "name": "latitude",
              "type": "string"
            },
            {
              "internalType": "string",
              "name": "longitude",
              "type": "string"
            },
            {
              "internalType": "string[]",
              "name": "photos",
              "type": "string[]"
            },
            {
              "components": [
                {
                  "internalType": "string",
                  "name": "nom",
                  "type": "string"
                },
                {
                  "internalType": "uint32",
                  "name": "quantite",
                  "type": "uint32"
                },
                {
                  "internalType": "bool",
                  "name": "valide",
                  "type": "bool"
                }
              ],
              "internalType": "struct StructLib.Intrant[]",
              "name": "intrants",
              "type": "tuple[]"
            },
            {
              "components": [
                {
                  "internalType": "uint32",
                  "name": "id",
                  "type": "uint32"
                },
                {
                  "internalType": "address",
                  "name": "auditeur",
                  "type": "address"
                },
                {
                  "internalType": "string",
                  "name": "rapport",
                  "type": "string"
                },
                {
                  "internalType": "uint256",
                  "name": "timestamp",
                  "type": "uint256"
                }
              ],
              "internalType": "struct StructLib.Inspection[]",
              "name": "inspections",
              "type": "tuple[]"
            },
            {
              "components": [
                {
                  "internalType": "uint32",
                  "name": "id",
                  "type": "uint32"
                },
                {
                  "internalType": "string",
                  "name": "temperature",
                  "type": "string"
                },
                {
                  "internalType": "string",
                  "name": "humidite",
                  "type": "string"
                },
                {
                  "internalType": "uint256",
                  "name": "timestamp",
                  "type": "uint256"
                }
              ],
              "internalType": "struct StructLib.EnregistrementCondition[]",
              "name": "conditions",
              "type": "tuple[]"
            },
            {
              "internalType": "string",
              "name": "dateRecolte",
              "type": "string"
            },
            {
              "internalType": "string",
              "name": "certificatPhytosanitaire",
              "type": "string"
            }
          ],
          "internalType": "struct StructLib.Parcelle",
          "name": "",
          "type": "tuple"
        }
      ],
      "stateMutability": "view",
      "type": "function"
    },
    {
      "inputs": [
        {
          "internalType": "uint32",
          "name": "idParcelle",
          "type": "uint32"
        }
      ],
      "name": "getPhotos",
      "outputs": [
        {
          "internalType": "string[]",
          "name": "",
          "type": "string[]"
        }
      ],
      "stateMutability": "view",
      "type": "function"
    },
    {
      "inputs": [
        {
          "internalType": "uint32",
          "name": "_idRecolte",
          "type": "uint32"
        }
      ],
      "name": "getRecolte",
      "outputs": [
        {
          "components": [
            {
              "internalType": "uint32",
              "name": "id",
              "type": "uint32"
            },
            {
              "internalType": "uint32",
              "name": "idParcelle",
              "type": "uint32"
            },
            {
              "internalType": "uint32",
              "name": "quantite",
              "type": "uint32"
            },
            {
              "internalType": "uint32",
              "name": "prixUnit",
              "type": "uint32"
            },
            {
              "internalType": "bool",
              "name": "certifie",
              "type": "bool"
            },
            {
              "internalType": "string",
              "name": "certificatPhytosanitaire",
              "type": "string"
            },
            {
              "internalType": "string",
              "name": "dateRecolte",
              "type": "string"
            },
            {
              "internalType": "address",
              "name": "producteur",
              "type": "address"
            },
            {
              "internalType": "string",
              "name": "nomProduit",
              "type": "string"
            }
          ],
          "internalType": "struct StructLib.Recolte",
          "name": "",
          "type": "tuple"
        }
      ],
      "stateMutability": "view",
      "type": "function"
    },
    {
      "inputs": [
        {
          "internalType": "uint32",
          "name": "_idParcelle",
          "type": "uint32"
        },
        {
          "internalType": "enum StructLib.Etape",
          "name": "_etape",
          "type": "uint8"
        }
      ],
      "name": "mettreAJourEtape",
      "outputs": [],
      "stateMutability": "nonpayable",
      "type": "function"
    },
    {
      "inputs": [
        {
          "internalType": "uint32",
          "name": "_idParcelle",
          "type": "uint32"
        }
      ],
      "name": "obtenirInformationsParcelle",
      "outputs": [
        {
          "internalType": "string",
          "name": "qualiteSemence",
          "type": "string"
        },
        {
          "internalType": "string",
          "name": "methodeCulture",
          "type": "string"
        },
        {
          "internalType": "string",
          "name": "latitude",
          "type": "string"
        },
        {
          "internalType": "string",
          "name": "longitude",
          "type": "string"
        },
        {
          "internalType": "string",
          "name": "dateRecolte",
          "type": "string"
        },
        {
          "internalType": "string",
          "name": "certificatPhytosanitaire",
          "type": "string"
        }
      ],
      "stateMutability": "view",
      "type": "function"
    },
    {
      "inputs": [
        {
          "internalType": "uint32",
          "name": "_idRecolte",
          "type": "uint32"
        },
        {
          "internalType": "uint32",
          "name": "_quantite",
          "type": "uint32"
        }
      ],
      "name": "passerCommandeVersProducteur",
      "outputs": [],
      "stateMutability": "nonpayable",
      "type": "function"
    },
    {
      "inputs": [
        {
          "internalType": "address",
          "name": "_addr",
          "type": "address"
        }
      ],
      "name": "setAddrParcelle",
      "outputs": [],
      "stateMutability": "nonpayable",
      "type": "function"
    },
    {
      "inputs": [
        {
          "internalType": "address",
          "name": "_addr",
          "type": "address"
        }
      ],
      "name": "setAddrRecolte",
      "outputs": [],
      "stateMutability": "nonpayable",
      "type": "function"
    },
    {
      "inputs": [
        {
          "internalType": "uint32",
          "name": "_idParcelle",
          "type": "uint32"
        },
        {
          "internalType": "string",
          "name": "_nom",
          "type": "string"
        },
        {
          "internalType": "bool",
          "name": "_valide",
          "type": "bool"
        }
      ],
      "name": "validerIntrant",
      "outputs": [],
      "stateMutability": "nonpayable",
      "type": "function"
    },
    {
      "stateMutability": "payable",
      "type": "receive"
    }
  ],
  "bytecode": "0x60806040523480156200001157600080fd5b50604051620052b1380380620052b18339818101604052810190620000379190620000d8565b81600160006101000a81548173ffffffffffffffffffffffffffffffffffffffff021916908373ffffffffffffffffffffffffffffffffffffffff16021790555080600260006101000a81548173ffffffffffffffffffffffffffffffffffffffff021916908373ffffffffffffffffffffffffffffffffffffffff160217905550505062000167565b600081519050620000d2816200014d565b92915050565b60008060408385031215620000ec57600080fd5b6000620000fc85828601620000c1565b92505060206200010f85828601620000c1565b9150509250929050565b600062000126826200012d565b9050919050565b600073ffffffffffffffffffffffffffffffffffffffff82169050919050565b620001588162000119565b81146200016457600080fd5b50565b61513a80620001776000396000f3fe6080604052600436106101d15760003560e01c80639462fa1e116100f7578063d16d510911610095578063ece32cd711610064578063ece32cd7146106a7578063f03d9af6146106d0578063fd6431011461070d578063fe32398a1461074a576101d8565b8063d16d5109146105c4578063d1aa5bbe146105ef578063ddb45fec1461062d578063e1e677331461066a576101d8565b8063a149918c116100d1578063a149918c1461051c578063b5fe207614610545578063b96cc76f14610570578063cd60462b14610599576101d8565b80639462fa1e146104a15780639d75741d146104ca578063a0b516dc146104f3576101d8565b8063421b3e081161016f5780635ee250791161013e5780635ee250791461040a5780637bc6edd1146104335780638428d5431461045c57806387c4d70514610478576101d8565b8063421b3e081461032a5780634383fca1146103675780635293ea51146103905780635d5efef9146103cd576101d8565b80632c71ea48116101ab5780632c71ea481461026b5780632d5b3658146102ad57806331686f41146102d65780633ab62bd714610301576101d8565b806304bfefce146101da5780630b215e641461020357806319f1c29014610240576101d8565b366101d857005b005b3480156101e657600080fd5b5061020160048036038101906101fc9190613949565b610787565b005b34801561020f57600080fd5b5061022a6004803603810190610225919061382b565b61091e565b60405161023791906149b2565b60405180910390f35b34801561024c57600080fd5b506102556109d8565b6040516102629190614a11565b60405180910390f35b34801561027757600080fd5b50610292600480360381019061028d919061382b565b610a7f565b6040516102a4969594939291906147b7565b60405180910390f35b3480156102b957600080fd5b506102d460048036038101906102cf9190613a17565b610b4d565b005b3480156102e257600080fd5b506102eb610ce3565b6040516102f89190614a11565b60405180910390f35b34801561030d57600080fd5b50610328600480360381019061032391906138f5565b610d8a565b005b34801561033657600080fd5b50610351600480360381019061034c919061382b565b610f1e565b60405161035e91906149cd565b60405180910390f35b34801561037357600080fd5b5061038e60048036038101906103899190613aa2565b610fdd565b005b34801561039c57600080fd5b506103b760048036038101906103b2919061382b565b61117c565b6040516103c49190614996565b60405180910390f35b3480156103d957600080fd5b506103f460048036038101906103ef919061382b565b611237565b6040516104019190614795565b60405180910390f35b34801561041657600080fd5b50610431600480360381019061042c91906139b0565b6112f0565b005b34801561043f57600080fd5b5061045a600480360381019061045591906138f5565b611487565b005b61047660048036038101906104719190613a53565b61161b565b005b34801561048457600080fd5b5061049f600480360381019061049a91906133bb565b6117b4565b005b3480156104ad57600080fd5b506104c860048036038101906104c391906138b9565b6117f8565b005b3480156104d657600080fd5b506104f160048036038101906104ec91906138f5565b61198c565b005b3480156104ff57600080fd5b5061051a600480360381019061051591906133bb565b611b20565b005b34801561052857600080fd5b50610543600480360381019061053e9190613524565b611b64565b005b34801561055157600080fd5b5061055a611d06565b6040516105679190614a11565b60405180910390f35b34801561057c57600080fd5b50610597600480360381019061059291906133e4565b611dad565b005b3480156105a557600080fd5b506105ae611ef2565b6040516105bb9190614a11565b60405180910390f35b3480156105d057600080fd5b506105d9611f99565b6040516105e69190614a11565b60405180910390f35b3480156105fb57600080fd5b50610616600480360381019061061191906133bb565b612040565b604051610624929190614706565b60405180910390f35b34801561063957600080fd5b50610654600480360381019061064f919061382b565b612091565b6040516106619190614773565b60405180910390f35b34801561067657600080fd5b50610691600480360381019061068c919061382b565b61214a565b60405161069e9190614751565b60405180910390f35b3480156106b357600080fd5b506106ce60048036038101906106c9919061387d565b612203565b005b3480156106dc57600080fd5b506106f760048036038101906106f2919061382b565b612397565b604051610704919061472f565b60405180910390f35b34801561071957600080fd5b50610734600480360381019061072f919061382b565b612450565b60405161074191906149ef565b60405180910390f35b34801561075657600080fd5b50610771600480360381019061076c91906133bb565b61250f565b60405161077e919061497b565b60405180910390f35b600260068111156107c1577f4e487b7100000000000000000000000000000000000000000000000000000000600052602160045260246000fd5b6000803373ffffffffffffffffffffffffffffffffffffffff1673ffffffffffffffffffffffffffffffffffffffff16815260200190815260200160002060000160149054906101000a900460ff166006811115610848577f4e487b7100000000000000000000000000000000000000000000000000000000600052602160045260246000fd5b14610888576040517f08c379a000000000000000000000000000000000000000000000000000000000815260040161087f9061491b565b60405180910390fd5b600260009054906101000a900473ffffffffffffffffffffffffffffffffffffffff1673ffffffffffffffffffffffffffffffffffffffff166304bfefce8484846040518463ffffffff1660e01b81526004016108e793929190614aae565b600060405180830381600087803b15801561090157600080fd5b505af1158015610915573d6000803e3d6000fd5b50505050505050565b610926612644565b600160009054906101000a900473ffffffffffffffffffffffffffffffffffffffff1673ffffffffffffffffffffffffffffffffffffffff1663d5fa0146836040518263ffffffff1660e01b81526004016109819190614a11565b60c06040518083038186803b15801561099957600080fd5b505afa1580156109ad573d6000803e3d6000fd5b505050506040513d601f19601f820116820180604052508101906109d19190613780565b9050919050565b6000600160009054906101000a900473ffffffffffffffffffffffffffffffffffffffff1673ffffffffffffffffffffffffffffffffffffffff166319f1c2906040518163ffffffff1660e01b815260040160206040518083038186803b158015610a4257600080fd5b505afa158015610a56573d6000803e3d6000fd5b505050506040513d601f19601f82011682018060405250810190610a7a9190613854565b905090565b606080606080606080600260009054906101000a900473ffffffffffffffffffffffffffffffffffffffff1673ffffffffffffffffffffffffffffffffffffffff16632c71ea48886040518263ffffffff1660e01b8152600401610ae39190614a11565b60006040518083038186803b158015610afb57600080fd5b505afa158015610b0f573d6000803e3d6000fd5b505050506040513d6000823e3d601f19601f82011682018060405250810190610b38919061363d565b95509550955095509550955091939550919395565b60036006811115610b87577f4e487b7100000000000000000000000000000000000000000000000000000000600052602160045260246000fd5b6000803373ffffffffffffffffffffffffffffffffffffffff1673ffffffffffffffffffffffffffffffffffffffff16815260200190815260200160002060000160149054906101000a900460ff166006811115610c0e577f4e487b7100000000000000000000000000000000000000000000000000000000600052602160045260246000fd5b14610c4e576040517f08c379a0000000000000000000000000000000000000000000000000000000008152600401610c459061493b565b60405180910390fd5b600160009054906101000a900473ffffffffffffffffffffffffffffffffffffffff1673ffffffffffffffffffffffffffffffffffffffff16633297fb558383336040518463ffffffff1660e01b8152600401610cad93929190614b2a565b600060405180830381600087803b158015610cc757600080fd5b505af1158015610cdb573d6000803e3d6000fd5b505050505050565b6000600260009054906101000a900473ffffffffffffffffffffffffffffffffffffffff1673ffffffffffffffffffffffffffffffffffffffff166331686f416040518163ffffffff1660e01b815260040160206040518083038186803b158015610d4d57600080fd5b505afa158015610d61573d6000803e3d6000fd5b505050506040513d601f19601f82011682018060405250810190610d859190613854565b905090565b60006006811115610dc4577f4e487b7100000000000000000000000000000000000000000000000000000000600052602160045260246000fd5b6000803373ffffffffffffffffffffffffffffffffffffffff1673ffffffffffffffffffffffffffffffffffffffff16815260200190815260200160002060000160149054906101000a900460ff166006811115610e4b577f4e487b7100000000000000000000000000000000000000000000000000000000600052602160045260246000fd5b14610e8b576040517f08c379a0000000000000000000000000000000000000000000000000000000008152600401610e82906148fb565b60405180910390fd5b600260009054906101000a900473ffffffffffffffffffffffffffffffffffffffff1673ffffffffffffffffffffffffffffffffffffffff16633ab62bd783836040518363ffffffff1660e01b8152600401610ee8929190614a7e565b600060405180830381600087803b158015610f0257600080fd5b505af1158015610f16573d6000803e3d6000fd5b505050505050565b610f266126ea565b600260009054906101000a900473ffffffffffffffffffffffffffffffffffffffff1673ffffffffffffffffffffffffffffffffffffffff1663421b3e08836040518263ffffffff1660e01b8152600401610f819190614a11565b60006040518083038186803b158015610f9957600080fd5b505afa158015610fad573d6000803e3d6000fd5b505050506040513d6000823e3d601f19601f82011682018060405250810190610fd691906137a9565b9050919050565b60006006811115611017577f4e487b7100000000000000000000000000000000000000000000000000000000600052602160045260246000fd5b6000803373ffffffffffffffffffffffffffffffffffffffff1673ffffffffffffffffffffffffffffffffffffffff16815260200190815260200160002060000160149054906101000a900460ff16600681111561109e577f4e487b7100000000000000000000000000000000000000000000000000000000600052602160045260246000fd5b146110de576040517f08c379a00000000000000000000000000000000000000000000000000000000081526004016110d5906148fb565b60405180910390fd5b600160009054906101000a900473ffffffffffffffffffffffffffffffffffffffff1673ffffffffffffffffffffffffffffffffffffffff1663fac9b2228686868633876040518763ffffffff1660e01b815260040161114396959493929190614ba6565b600060405180830381600087803b15801561115d57600080fd5b505af1158015611171573d6000803e3d6000fd5b505050505050505050565b6111846127af565b600160009054906101000a900473ffffffffffffffffffffffffffffffffffffffff1673ffffffffffffffffffffffffffffffffffffffff16635293ea51836040518263ffffffff1660e01b81526004016111df9190614a11565b6101006040518083038186803b1580156111f857600080fd5b505afa15801561120c573d6000803e3d6000fd5b505050506040513d601f19601f820116820180604052508101906112309190613756565b9050919050565b6060600260009054906101000a900473ffffffffffffffffffffffffffffffffffffffff1673ffffffffffffffffffffffffffffffffffffffff16635d5efef9836040518263ffffffff1660e01b81526004016112949190614a11565b60006040518083038186803b1580156112ac57600080fd5b505afa1580156112c0573d6000803e3d6000fd5b505050506040513d6000823e3d601f19601f820116820180604052508101906112e991906134e3565b9050919050565b6001600681111561132a577f4e487b7100000000000000000000000000000000000000000000000000000000600052602160045260246000fd5b6000803373ffffffffffffffffffffffffffffffffffffffff1673ffffffffffffffffffffffffffffffffffffffff16815260200190815260200160002060000160149054906101000a900460ff1660068111156113b1577f4e487b7100000000000000000000000000000000000000000000000000000000600052602160045260246000fd5b146113f1576040517f08c379a00000000000000000000000000000000000000000000000000000000081526004016113e89061495b565b60405180910390fd5b600260009054906101000a900473ffffffffffffffffffffffffffffffffffffffff1673ffffffffffffffffffffffffffffffffffffffff16635ee250798484846040518463ffffffff1660e01b815260040161145093929190614aec565b600060405180830381600087803b15801561146a57600080fd5b505af115801561147e573d6000803e3d6000fd5b50505050505050565b600460068111156114c1577f4e487b7100000000000000000000000000000000000000000000000000000000600052602160045260246000fd5b6000803373ffffffffffffffffffffffffffffffffffffffff1673ffffffffffffffffffffffffffffffffffffffff16815260200190815260200160002060000160149054906101000a900460ff166006811115611548577f4e487b7100000000000000000000000000000000000000000000000000000000600052602160045260246000fd5b14611588576040517f08c379a000000000000000000000000000000000000000000000000000000000815260040161157f906148db565b60405180910390fd5b600260009054906101000a900473ffffffffffffffffffffffffffffffffffffffff1673ffffffffffffffffffffffffffffffffffffffff16637bc6edd183836040518363ffffffff1660e01b81526004016115e5929190614a7e565b600060405180830381600087803b1580156115ff57600080fd5b505af1158015611613573d6000803e3d6000fd5b505050505050565b60036006811115611655577f4e487b7100000000000000000000000000000000000000000000000000000000600052602160045260246000fd5b6000803373ffffffffffffffffffffffffffffffffffffffff1673ffffffffffffffffffffffffffffffffffffffff16815260200190815260200160002060000160149054906101000a900460ff1660068111156116dc577f4e487b7100000000000000000000000000000000000000000000000000000000600052602160045260246000fd5b1461171c576040517f08c379a00000000000000000000000000000000000000000000000000000000081526004016117139061493b565b60405180910390fd5b600160009054906101000a900473ffffffffffffffffffffffffffffffffffffffff1673ffffffffffffffffffffffffffffffffffffffff16635888c73b848484336040518563ffffffff1660e01b815260040161177d9493929190614b61565b600060405180830381600087803b15801561179757600080fd5b505af11580156117ab573d6000803e3d6000fd5b50505050505050565b80600260006101000a81548173ffffffffffffffffffffffffffffffffffffffff021916908373ffffffffffffffffffffffffffffffffffffffff16021790555050565b60006006811115611832577f4e487b7100000000000000000000000000000000000000000000000000000000600052602160045260246000fd5b6000803373ffffffffffffffffffffffffffffffffffffffff1673ffffffffffffffffffffffffffffffffffffffff16815260200190815260200160002060000160149054906101000a900460ff1660068111156118b9577f4e487b7100000000000000000000000000000000000000000000000000000000600052602160045260246000fd5b146118f9576040517f08c379a00000000000000000000000000000000000000000000000000000000081526004016118f0906148fb565b60405180910390fd5b600260009054906101000a900473ffffffffffffffffffffffffffffffffffffffff1673ffffffffffffffffffffffffffffffffffffffff16639462fa1e83836040518363ffffffff1660e01b8152600401611956929190614a55565b600060405180830381600087803b15801561197057600080fd5b505af1158015611984573d6000803e3d6000fd5b505050505050565b600260068111156119c6577f4e487b7100000000000000000000000000000000000000000000000000000000600052602160045260246000fd5b6000803373ffffffffffffffffffffffffffffffffffffffff1673ffffffffffffffffffffffffffffffffffffffff16815260200190815260200160002060000160149054906101000a900460ff166006811115611a4d577f4e487b7100000000000000000000000000000000000000000000000000000000600052602160045260246000fd5b14611a8d576040517f08c379a0000000000000000000000000000000000000000000000000000000008152600401611a849061491b565b60405180910390fd5b600160009054906101000a900473ffffffffffffffffffffffffffffffffffffffff1673ffffffffffffffffffffffffffffffffffffffff16639d75741d83836040518363ffffffff1660e01b8152600401611aea929190614a7e565b600060405180830381600087803b158015611b0457600080fd5b505af1158015611b18573d6000803e3d6000fd5b505050505050565b80600160006101000a81548173ffffffffffffffffffffffffffffffffffffffff021916908373ffffffffffffffffffffffffffffffffffffffff16021790555050565b60006006811115611b9e577f4e487b7100000000000000000000000000000000000000000000000000000000600052602160045260246000fd5b6000803373ffffffffffffffffffffffffffffffffffffffff1673ffffffffffffffffffffffffffffffffffffffff16815260200190815260200160002060000160149054906101000a900460ff166006811115611c25577f4e487b7100000000000000000000000000000000000000000000000000000000600052602160045260246000fd5b14611c65576040517f08c379a0000000000000000000000000000000000000000000000000000000008152600401611c5c906148fb565b60405180910390fd5b600260009054906101000a900473ffffffffffffffffffffffffffffffffffffffff1673ffffffffffffffffffffffffffffffffffffffff1663aaed4a77878787878787336040518863ffffffff1660e01b8152600401611ccc9796959493929190614842565b600060405180830381600087803b158015611ce657600080fd5b505af1158015611cfa573d6000803e3d6000fd5b50505050505050505050565b6000600160009054906101000a900473ffffffffffffffffffffffffffffffffffffffff1673ffffffffffffffffffffffffffffffffffffffff1663b5fe20766040518163ffffffff1660e01b815260040160206040518083038186803b158015611d7057600080fd5b505afa158015611d84573d6000803e3d6000fd5b505050506040513d601f19601f82011682018060405250810190611da89190613854565b905090565b60405180604001604052808373ffffffffffffffffffffffffffffffffffffffff168152602001826006811115611e0d577f4e487b7100000000000000000000000000000000000000000000000000000000600052602160045260246000fd5b8152506000808473ffffffffffffffffffffffffffffffffffffffff1673ffffffffffffffffffffffffffffffffffffffff16815260200190815260200160002060008201518160000160006101000a81548173ffffffffffffffffffffffffffffffffffffffff021916908373ffffffffffffffffffffffffffffffffffffffff16021790555060208201518160000160146101000a81548160ff02191690836006811115611ee6577f4e487b7100000000000000000000000000000000000000000000000000000000600052602160045260246000fd5b02179055509050505050565b6000600160009054906101000a900473ffffffffffffffffffffffffffffffffffffffff1673ffffffffffffffffffffffffffffffffffffffff1663cd60462b6040518163ffffffff1660e01b815260040160206040518083038186803b158015611f5c57600080fd5b505afa158015611f70573d6000803e3d6000fd5b505050506040513d601f19601f82011682018060405250810190611f949190613854565b905090565b6000600260009054906101000a900473ffffffffffffffffffffffffffffffffffffffff1673ffffffffffffffffffffffffffffffffffffffff1663d16d51096040518163ffffffff1660e01b815260040160206040518083038186803b15801561200357600080fd5b505afa158015612017573d6000803e3d6000fd5b505050506040513d601f19601f8201168201806040525081019061203b9190613854565b905090565b60006020528060005260406000206000915090508060000160009054906101000a900473ffffffffffffffffffffffffffffffffffffffff16908060000160149054906101000a900460ff16905082565b6060600260009054906101000a900473ffffffffffffffffffffffffffffffffffffffff1673ffffffffffffffffffffffffffffffffffffffff1663ddb45fec836040518263ffffffff1660e01b81526004016120ee9190614a11565b60006040518083038186803b15801561210657600080fd5b505afa15801561211a573d6000803e3d6000fd5b505050506040513d6000823e3d601f19601f8201168201806040525081019061214391906134a2565b9050919050565b6060600260009054906101000a900473ffffffffffffffffffffffffffffffffffffffff1673ffffffffffffffffffffffffffffffffffffffff1663e1e67733836040518263ffffffff1660e01b81526004016121a79190614a11565b60006040518083038186803b1580156121bf57600080fd5b505afa1580156121d3573d6000803e3d6000fd5b505050506040513d6000823e3d601f19601f820116820180604052508101906121fc9190613461565b9050919050565b6002600681111561223d577f4e487b7100000000000000000000000000000000000000000000000000000000600052602160045260246000fd5b6000803373ffffffffffffffffffffffffffffffffffffffff1673ffffffffffffffffffffffffffffffffffffffff16815260200190815260200160002060000160149054906101000a900460ff1660068111156122c4577f4e487b7100000000000000000000000000000000000000000000000000000000600052602160045260246000fd5b14612304576040517f08c379a00000000000000000000000000000000000000000000000000000000081526004016122fb9061491b565b60405180910390fd5b600260009054906101000a900473ffffffffffffffffffffffffffffffffffffffff1673ffffffffffffffffffffffffffffffffffffffff1663ece32cd783836040518363ffffffff1660e01b8152600401612361929190614a2c565b600060405180830381600087803b15801561237b57600080fd5b505af115801561238f573d6000803e3d6000fd5b505050505050565b6060600260009054906101000a900473ffffffffffffffffffffffffffffffffffffffff1673ffffffffffffffffffffffffffffffffffffffff1663f03d9af6836040518263ffffffff1660e01b81526004016123f49190614a11565b60006040518083038186803b15801561240c57600080fd5b505afa158015612420573d6000803e3d6000fd5b505050506040513d6000823e3d601f19601f820116820180604052508101906124499190613420565b9050919050565b612458612872565b600160009054906101000a900473ffffffffffffffffffffffffffffffffffffffff1673ffffffffffffffffffffffffffffffffffffffff1663fd643101836040518263ffffffff1660e01b81526004016124b39190614a11565b60006040518083038186803b1580156124cb57600080fd5b505afa1580156124df573d6000803e3d6000fd5b505050506040513d6000823e3d601f19601f8201168201806040525081019061250891906137ea565b9050919050565b6125176128ee565b6000808373ffffffffffffffffffffffffffffffffffffffff1673ffffffffffffffffffffffffffffffffffffffff1681526020019081526020016000206040518060400160405290816000820160009054906101000a900473ffffffffffffffffffffffffffffffffffffffff1673ffffffffffffffffffffffffffffffffffffffff1673ffffffffffffffffffffffffffffffffffffffff1681526020016000820160149054906101000a900460ff166006811115612601577f4e487b7100000000000000000000000000000000000000000000000000000000600052602160045260246000fd5b6006811115612639577f4e487b7100000000000000000000000000000000000000000000000000000000600052602160045260246000fd5b815250509050919050565b6040518060c00160405280600063ffffffff168152602001600073ffffffffffffffffffffffffffffffffffffffff168152602001600073ffffffffffffffffffffffffffffffffffffffff168152602001600063ffffffff168152602001600060028111156126dd577f4e487b7100000000000000000000000000000000000000000000000000000000600052602160045260246000fd5b8152602001600081525090565b604051806101c00160405280600063ffffffff168152602001600073ffffffffffffffffffffffffffffffffffffffff168152602001606081526020016060815260200160001515815260200160006003811115612771577f4e487b7100000000000000000000000000000000000000000000000000000000600052602160045260246000fd5b815260200160608152602001606081526020016060815260200160608152602001606081526020016060815260200160608152602001606081525090565b604051806101000160405280600063ffffffff168152602001600063ffffffff168152602001600063ffffffff168152602001600063ffffffff16815260200160001515815260200160006001811115612832577f4e487b7100000000000000000000000000000000000000000000000000000000600052602160045260246000fd5b8152602001600073ffffffffffffffffffffffffffffffffffffffff168152602001600073ffffffffffffffffffffffffffffffffffffffff1681525090565b604051806101200160405280600063ffffffff168152602001600063ffffffff168152602001600063ffffffff168152602001600063ffffffff1681526020016000151581526020016060815260200160608152602001600073ffffffffffffffffffffffffffffffffffffffff168152602001606081525090565b6040518060400160405280600073ffffffffffffffffffffffffffffffffffffffff16815260200160006006811115612950577f4e487b7100000000000000000000000000000000000000000000000000000000600052602160045260246000fd5b81525090565b600061296961296484614c46565b614c15565b9050808382526020820190508260005b858110156129a9578151850161298f8882612cea565b845260208401935060208301925050600181019050612979565b5050509392505050565b60006129c66129c184614c72565b614c15565b9050808382526020820190508260005b85811015612a0657815185016129ec8882612dda565b8452602084019350602083019250506001810190506129d6565b5050509392505050565b6000612a23612a1e84614c9e565b614c15565b9050808382526020820190508260005b85811015612a635781518501612a498882612e7e565b845260208401935060208301925050600181019050612a33565b5050509392505050565b6000612a80612a7b84614cca565b614c15565b9050808382526020820190508260005b85811015612ac05781518501612aa68882612f0a565b845260208401935060208301925050600181019050612a90565b5050509392505050565b6000612add612ad884614cf6565b614c15565b905082815260208101848484011115612af557600080fd5b612b00848285614f67565b509392505050565b6000612b1b612b1684614cf6565b614c15565b905082815260208101848484011115612b3357600080fd5b612b3e848285614f76565b509392505050565b600081359050612b5581615068565b92915050565b600081519050612b6a81615068565b92915050565b600082601f830112612b8157600080fd5b8151612b91848260208601612956565b91505092915050565b600082601f830112612bab57600080fd5b8151612bbb8482602086016129b3565b91505092915050565b600082601f830112612bd557600080fd5b8151612be5848260208601612a10565b91505092915050565b600082601f830112612bff57600080fd5b8151612c0f848260208601612a6d565b91505092915050565b600081359050612c278161507f565b92915050565b600081519050612c3c8161507f565b92915050565b600081359050612c5181615096565b92915050565b600081519050612c6681615096565b92915050565b600081359050612c7b816150a6565b92915050565b600081519050612c90816150a6565b92915050565b600081359050612ca5816150b6565b92915050565b600081519050612cba816150c6565b92915050565b600082601f830112612cd157600080fd5b8135612ce1848260208601612aca565b91505092915050565b600082601f830112612cfb57600080fd5b8151612d0b848260208601612b08565b91505092915050565b60006101008284031215612d2757600080fd5b612d32610100614c15565b90506000612d42848285016133a6565b6000830152506020612d56848285016133a6565b6020830152506040612d6a848285016133a6565b6040830152506060612d7e848285016133a6565b6060830152506080612d9284828501612c2d565b60808301525060a0612da684828501612cab565b60a08301525060c0612dba84828501612b5b565b60c08301525060e0612dce84828501612b5b565b60e08301525092915050565b600060808284031215612dec57600080fd5b612df66080614c15565b90506000612e06848285016133a6565b600083015250602082015167ffffffffffffffff811115612e2657600080fd5b612e3284828501612cea565b602083015250604082015167ffffffffffffffff811115612e5257600080fd5b612e5e84828501612cea565b6040830152506060612e728482850161337c565b60608301525092915050565b600060808284031215612e9057600080fd5b612e9a6080614c15565b90506000612eaa848285016133a6565b6000830152506020612ebe84828501612b5b565b602083015250604082015167ffffffffffffffff811115612ede57600080fd5b612eea84828501612cea565b6040830152506060612efe8482850161337c565b60608301525092915050565b600060608284031215612f1c57600080fd5b612f266060614c15565b9050600082015167ffffffffffffffff811115612f4257600080fd5b612f4e84828501612cea565b6000830152506020612f62848285016133a6565b6020830152506040612f7684828501612c2d565b60408301525092915050565b600060c08284031215612f9457600080fd5b612f9e60c0614c15565b90506000612fae848285016133a6565b6000830152506020612fc284828501612b5b565b6020830152506040612fd684828501612b5b565b6040830152506060612fea848285016133a6565b6060830152506080612ffe84828501612c81565b60808301525060a06130128482850161337c565b60a08301525092915050565b60006101c0828403121561303157600080fd5b61303c6101c0614c15565b9050600061304c848285016133a6565b600083015250602061306084828501612b5b565b602083015250604082015167ffffffffffffffff81111561308057600080fd5b61308c84828501612cea565b604083015250606082015167ffffffffffffffff8111156130ac57600080fd5b6130b884828501612cea565b60608301525060806130cc84828501612c2d565b60808301525060a06130e084828501612c57565b60a08301525060c082015167ffffffffffffffff81111561310057600080fd5b61310c84828501612cea565b60c08301525060e082015167ffffffffffffffff81111561312c57600080fd5b61313884828501612cea565b60e08301525061010082015167ffffffffffffffff81111561315957600080fd5b61316584828501612b70565b6101008301525061012082015167ffffffffffffffff81111561318757600080fd5b61319384828501612bee565b6101208301525061014082015167ffffffffffffffff8111156131b557600080fd5b6131c184828501612bc4565b6101408301525061016082015167ffffffffffffffff8111156131e357600080fd5b6131ef84828501612b9a565b6101608301525061018082015167ffffffffffffffff81111561321157600080fd5b61321d84828501612cea565b610180830152506101a082015167ffffffffffffffff81111561323f57600080fd5b61324b84828501612cea565b6101a08301525092915050565b6000610120828403121561326b57600080fd5b613276610120614c15565b90506000613286848285016133a6565b600083015250602061329a848285016133a6565b60208301525060406132ae848285016133a6565b60408301525060606132c2848285016133a6565b60608301525060806132d684828501612c2d565b60808301525060a082015167ffffffffffffffff8111156132f657600080fd5b61330284828501612cea565b60a08301525060c082015167ffffffffffffffff81111561332257600080fd5b61332e84828501612cea565b60c08301525060e061334284828501612b5b565b60e08301525061010082015167ffffffffffffffff81111561336357600080fd5b61336f84828501612cea565b6101008301525092915050565b60008151905061338b816150d6565b92915050565b6000813590506133a0816150ed565b92915050565b6000815190506133b5816150ed565b92915050565b6000602082840312156133cd57600080fd5b60006133db84828501612b46565b91505092915050565b600080604083850312156133f757600080fd5b600061340585828601612b46565b925050602061341685828601612c96565b9150509250929050565b60006020828403121561343257600080fd5b600082015167ffffffffffffffff81111561344c57600080fd5b61345884828501612b70565b91505092915050565b60006020828403121561347357600080fd5b600082015167ffffffffffffffff81111561348d57600080fd5b61349984828501612b9a565b91505092915050565b6000602082840312156134b457600080fd5b600082015167ffffffffffffffff8111156134ce57600080fd5b6134da84828501612bc4565b91505092915050565b6000602082840312156134f557600080fd5b600082015167ffffffffffffffff81111561350f57600080fd5b61351b84828501612bee565b91505092915050565b60008060008060008060c0878903121561353d57600080fd5b600087013567ffffffffffffffff81111561355757600080fd5b61356389828a01612cc0565b965050602087013567ffffffffffffffff81111561358057600080fd5b61358c89828a01612cc0565b955050604087013567ffffffffffffffff8111156135a957600080fd5b6135b589828a01612cc0565b945050606087013567ffffffffffffffff8111156135d257600080fd5b6135de89828a01612cc0565b935050608087013567ffffffffffffffff8111156135fb57600080fd5b61360789828a01612cc0565b92505060a087013567ffffffffffffffff81111561362457600080fd5b61363089828a01612cc0565b9150509295509295509295565b60008060008060008060c0878903121561365657600080fd5b600087015167ffffffffffffffff81111561367057600080fd5b61367c89828a01612cea565b965050602087015167ffffffffffffffff81111561369957600080fd5b6136a589828a01612cea565b955050604087015167ffffffffffffffff8111156136c257600080fd5b6136ce89828a01612cea565b945050606087015167ffffffffffffffff8111156136eb57600080fd5b6136f789828a01612cea565b935050608087015167ffffffffffffffff81111561371457600080fd5b61372089828a01612cea565b92505060a087015167ffffffffffffffff81111561373d57600080fd5b61374989828a01612cea565b9150509295509295509295565b6000610100828403121561376957600080fd5b600061377784828501612d14565b91505092915050565b600060c0828403121561379257600080fd5b60006137a084828501612f82565b91505092915050565b6000602082840312156137bb57600080fd5b600082015167ffffffffffffffff8111156137d557600080fd5b6137e18482850161301e565b91505092915050565b6000602082840312156137fc57600080fd5b600082015167ffffffffffffffff81111561381657600080fd5b61382284828501613258565b91505092915050565b60006020828403121561383d57600080fd5b600061384b84828501613391565b91505092915050565b60006020828403121561386657600080fd5b6000613874848285016133a6565b91505092915050565b6000806040838503121561389057600080fd5b600061389e85828601613391565b92505060206138af85828601612c18565b9150509250929050565b600080604083850312156138cc57600080fd5b60006138da85828601613391565b92505060206138eb85828601612c42565b9150509250929050565b6000806040838503121561390857600080fd5b600061391685828601613391565b925050602083013567ffffffffffffffff81111561393357600080fd5b61393f85828601612cc0565b9150509250929050565b60008060006060848603121561395e57600080fd5b600061396c86828701613391565b935050602084013567ffffffffffffffff81111561398957600080fd5b61399586828701612cc0565b92505060406139a686828701612c18565b9150509250925092565b6000806000606084860312156139c557600080fd5b60006139d386828701613391565b935050602084013567ffffffffffffffff8111156139f057600080fd5b6139fc86828701612cc0565b9250506040613a0d86828701613391565b9150509250925092565b60008060408385031215613a2a57600080fd5b6000613a3885828601613391565b9250506020613a4985828601613391565b9150509250929050565b600080600060608486031215613a6857600080fd5b6000613a7686828701613391565b9350506020613a8786828701613391565b9250506040613a9886828701612c6c565b9150509250925092565b600080600080600060a08688031215613aba57600080fd5b6000613ac888828901613391565b9550506020613ad988828901613391565b9450506040613aea88828901613391565b935050606086013567ffffffffffffffff811115613b0757600080fd5b613b1388828901612cc0565b925050608086013567ffffffffffffffff811115613b3057600080fd5b613b3c88828901612cc0565b9150509295509295909350565b6000613b558383613fe6565b905092915050565b6000613b698383614301565b905092915050565b6000613b7d838361436b565b905092915050565b6000613b9183836143ce565b905092915050565b613ba281614e7b565b82525050565b613bb181614e7b565b82525050565b6000613bc282614d66565b613bcc8185614dd1565b935083602082028501613bde85614d26565b8060005b85811015613c1a5784840389528151613bfb8582613b49565b9450613c0683614d9d565b925060208a01995050600181019050613be2565b50829750879550505050505092915050565b6000613c3782614d66565b613c418185614de2565b935083602082028501613c5385614d26565b8060005b85811015613c8f5784840389528151613c708582613b49565b9450613c7b83614d9d565b925060208a01995050600181019050613c57565b50829750879550505050505092915050565b6000613cac82614d71565b613cb68185614df3565b935083602082028501613cc885614d36565b8060005b85811015613d045784840389528151613ce58582613b5d565b9450613cf083614daa565b925060208a01995050600181019050613ccc565b50829750879550505050505092915050565b6000613d2182614d71565b613d2b8185614e04565b935083602082028501613d3d85614d36565b8060005b85811015613d795784840389528151613d5a8582613b5d565b9450613d6583614daa565b925060208a01995050600181019050613d41565b50829750879550505050505092915050565b6000613d9682614d7c565b613da08185614e15565b935083602082028501613db285614d46565b8060005b85811015613dee5784840389528151613dcf8582613b71565b9450613dda83614db7565b925060208a01995050600181019050613db6565b50829750879550505050505092915050565b6000613e0b82614d7c565b613e158185614e26565b935083602082028501613e2785614d46565b8060005b85811015613e635784840389528151613e448582613b71565b9450613e4f83614db7565b925060208a01995050600181019050613e2b565b50829750879550505050505092915050565b6000613e8082614d87565b613e8a8185614e37565b935083602082028501613e9c85614d56565b8060005b85811015613ed85784840389528151613eb98582613b85565b9450613ec483614dc4565b925060208a01995050600181019050613ea0565b50829750879550505050505092915050565b6000613ef582614d87565b613eff8185614e48565b935083602082028501613f1185614d56565b8060005b85811015613f4d5784840389528151613f2e8582613b85565b9450613f3983614dc4565b925060208a01995050600181019050613f15565b50829750879550505050505092915050565b613f6881614e8d565b82525050565b613f7781614e8d565b82525050565b613f8681614f1f565b82525050565b613f9581614f1f565b82525050565b613fa481614f31565b82525050565b613fb381614f31565b82525050565b613fc281614f43565b82525050565b613fd181614f43565b82525050565b613fe081614f55565b82525050565b6000613ff182614d92565b613ffb8185614e59565b935061400b818560208601614f76565b61401481615007565b840191505092915050565b600061402a82614d92565b6140348185614e6a565b9350614044818560208601614f76565b61404d81615007565b840191505092915050565b6000614065602083614e6a565b91507f4e6f6e206175746f726973653a207365756c656d656e742041756469746575726000830152602082019050919050565b60006140a5602283614e6a565b91507f4e6f6e206175746f726973653a207365756c656d656e742050726f647563746560008301527f75720000000000000000000000000000000000000000000000000000000000006020830152604082019050919050565b600061410b602583614e6a565b91507f4e6f6e206175746f726973653a207365756c656d656e7420436572746966696360008301527f61746575720000000000000000000000000000000000000000000000000000006020830152604082019050919050565b6000614171602283614e6a565b91507f4e6f6e206175746f726973653a207365756c656d656e7420436f6c6c6563746560008301527f75720000000000000000000000000000000000000000000000000000000000006020830152604082019050919050565b60006141d7602383614e6a565b91507f4e6f6e206175746f726973653a207365756c656d656e7420466f75726e69737360008301527f65757200000000000000000000000000000000000000000000000000000000006020830152604082019050919050565b6040820160008201516142466000850182613b99565b5060208201516142596020850182613fb9565b50505050565b6101008201600082015161427660008501826146e8565b50602082015161428960208501826146e8565b50604082015161429c60408501826146e8565b5060608201516142af60608501826146e8565b5060808201516142c26080850182613f5f565b5060a08201516142d560a0850182613fd7565b5060c08201516142e860c0850182613b99565b5060e08201516142fb60e0850182613b99565b50505050565b600060808301600083015161431960008601826146e8565b50602083015184820360208601526143318282613fe6565b9150506040830151848203604086015261434b8282613fe6565b915050606083015161436060608601826146d9565b508091505092915050565b600060808301600083015161438360008601826146e8565b5060208301516143966020860182613b99565b50604083015184820360408601526143ae8282613fe6565b91505060608301516143c360608601826146d9565b508091505092915050565b600060608301600083015184820360008601526143eb8282613fe6565b915050602083015161440060208601826146e8565b5060408301516144136040860182613f5f565b508091505092915050565b60c08201600082015161443460008501826146e8565b5060208201516144476020850182613b99565b50604082015161445a6040850182613b99565b50606082015161446d60608501826146e8565b5060808201516144806080850182613f9b565b5060a082015161449360a08501826146d9565b50505050565b60006101c0830160008301516144b260008601826146e8565b5060208301516144c56020860182613b99565b50604083015184820360408601526144dd8282613fe6565b915050606083015184820360608601526144f78282613fe6565b915050608083015161450c6080860182613f5f565b5060a083015161451f60a0860182613f7d565b5060c083015184820360c08601526145378282613fe6565b91505060e083015184820360e08601526145518282613fe6565b91505061010083015184820361010086015261456d8282613bb7565b9150506101208301518482036101208601526145898282613e75565b9150506101408301518482036101408601526145a58282613d8b565b9150506101608301518482036101608601526145c18282613ca1565b9150506101808301518482036101808601526145dd8282613fe6565b9150506101a08301518482036101a08601526145f98282613fe6565b9150508091505092915050565b60006101208301600083015161461f60008601826146e8565b50602083015161463260208601826146e8565b50604083015161464560408601826146e8565b50606083015161465860608601826146e8565b50608083015161466b6080860182613f5f565b5060a083015184820360a08601526146838282613fe6565b91505060c083015184820360c086015261469d8282613fe6565b91505060e08301516146b260e0860182613b99565b506101008301518482036101008601526146cc8282613fe6565b9150508091505092915050565b6146e281614f05565b82525050565b6146f181614f0f565b82525050565b61470081614f0f565b82525050565b600060408201905061471b6000830185613ba8565b6147286020830184613fc8565b9392505050565b600060208201905081810360008301526147498184613c2c565b905092915050565b6000602082019050818103600083015261476b8184613d16565b905092915050565b6000602082019050818103600083015261478d8184613e00565b905092915050565b600060208201905081810360008301526147af8184613eea565b905092915050565b600060c08201905081810360008301526147d1818961401f565b905081810360208301526147e5818861401f565b905081810360408301526147f9818761401f565b9050818103606083015261480d818661401f565b90508181036080830152614821818561401f565b905081810360a0830152614835818461401f565b9050979650505050505050565b600060e082019050818103600083015261485c818a61401f565b90508181036020830152614870818961401f565b90508181036040830152614884818861401f565b90508181036060830152614898818761401f565b905081810360808301526148ac818661401f565b905081810360a08301526148c0818561401f565b90506148cf60c0830184613ba8565b98975050505050505050565b600060208201905081810360008301526148f481614058565b9050919050565b6000602082019050818103600083015261491481614098565b9050919050565b60006020820190508181036000830152614934816140fe565b9050919050565b6000602082019050818103600083015261495481614164565b9050919050565b60006020820190508181036000830152614974816141ca565b9050919050565b60006040820190506149906000830184614230565b92915050565b6000610100820190506149ac600083018461425f565b92915050565b600060c0820190506149c7600083018461441e565b92915050565b600060208201905081810360008301526149e78184614499565b905092915050565b60006020820190508181036000830152614a098184614606565b905092915050565b6000602082019050614a2660008301846146f7565b92915050565b6000604082019050614a4160008301856146f7565b614a4e6020830184613f6e565b9392505050565b6000604082019050614a6a60008301856146f7565b614a776020830184613f8c565b9392505050565b6000604082019050614a9360008301856146f7565b8181036020830152614aa5818461401f565b90509392505050565b6000606082019050614ac360008301866146f7565b8181036020830152614ad5818561401f565b9050614ae46040830184613f6e565b949350505050565b6000606082019050614b0160008301866146f7565b8181036020830152614b13818561401f565b9050614b2260408301846146f7565b949350505050565b6000606082019050614b3f60008301866146f7565b614b4c60208301856146f7565b614b596040830184613ba8565b949350505050565b6000608082019050614b7660008301876146f7565b614b8360208301866146f7565b614b906040830185613faa565b614b9d6060830184613ba8565b95945050505050565b600060c082019050614bbb60008301896146f7565b614bc860208301886146f7565b614bd560408301876146f7565b8181036060830152614be7818661401f565b9050614bf66080830185613ba8565b81810360a0830152614c08818461401f565b9050979650505050505050565b6000604051905081810181811067ffffffffffffffff82111715614c3c57614c3b614fd8565b5b8060405250919050565b600067ffffffffffffffff821115614c6157614c60614fd8565b5b602082029050602081019050919050565b600067ffffffffffffffff821115614c8d57614c8c614fd8565b5b602082029050602081019050919050565b600067ffffffffffffffff821115614cb957614cb8614fd8565b5b602082029050602081019050919050565b600067ffffffffffffffff821115614ce557614ce4614fd8565b5b602082029050602081019050919050565b600067ffffffffffffffff821115614d1157614d10614fd8565b5b601f19601f8301169050602081019050919050565b6000819050602082019050919050565b6000819050602082019050919050565b6000819050602082019050919050565b6000819050602082019050919050565b600081519050919050565b600081519050919050565b600081519050919050565b600081519050919050565b600081519050919050565b6000602082019050919050565b6000602082019050919050565b6000602082019050919050565b6000602082019050919050565b600082825260208201905092915050565b600082825260208201905092915050565b600082825260208201905092915050565b600082825260208201905092915050565b600082825260208201905092915050565b600082825260208201905092915050565b600082825260208201905092915050565b600082825260208201905092915050565b600082825260208201905092915050565b600082825260208201905092915050565b6000614e8682614ee5565b9050919050565b60008115159050919050565b6000819050614ea782615018565b919050565b6000819050614eba8261502c565b919050565b6000819050614ecd82615040565b919050565b6000819050614ee082615054565b919050565b600073ffffffffffffffffffffffffffffffffffffffff82169050919050565b6000819050919050565b600063ffffffff82169050919050565b6000614f2a82614e99565b9050919050565b6000614f3c82614eac565b9050919050565b6000614f4e82614ebf565b9050919050565b6000614f6082614ed2565b9050919050565b82818337600083830152505050565b60005b83811015614f94578082015181840152602081019050614f79565b83811115614fa3576000848401525b50505050565b7f4e487b7100000000000000000000000000000000000000000000000000000000600052602160045260246000fd5b7f4e487b7100000000000000000000000000000000000000000000000000000000600052604160045260246000fd5b6000601f19601f8301169050919050565b6004811061502957615028614fa9565b5b50565b6003811061503d5761503c614fa9565b5b50565b6007811061505157615050614fa9565b5b50565b6002811061506557615064614fa9565b5b50565b61507181614e7b565b811461507c57600080fd5b50565b61508881614e8d565b811461509357600080fd5b50565b600481106150a357600080fd5b50565b600381106150b357600080fd5b50565b600781106150c357600080fd5b50565b600281106150d357600080fd5b50565b6150df81614f05565b81146150ea57600080fd5b50565b6150f681614f0f565b811461510157600080fd5b5056fea2646970667358221220b4969669d30b91a01e0cf21e92d13569a68032dea23e2989ffd19d05cebd341b64736f6c63430008000033",
  "linkReferences": {},
  "deployedLinkReferences": {}
}