{
  "_format": "hh-sol-artifact-1",
  "contractName": "ProducteurEnPhaseCulture",
  "sourceName": "contracts/ProducteurEnPhaseCulture.sol",
  "abi": [
    {
      "stateMutability": "payable",
      "type": "fallback"
    },
    {
      "inputs": [
        {
          "internalType": "uint32",
          "name": "_idParcelle",
          "type": "uint32"
        },
        {
          "internalType": "string",
          "name": "_rapport",
          "type": "string"
        }
      ],
      "name": "ajouterInspection",
      "outputs": [],
      "stateMutability": "nonpayable",
      "type": "function"
    },
    {
      "inputs": [
        {
          "internalType": "uint32",
          "name": "_idParcelle",
          "type": "uint32"
        },
        {
          "internalType": "string",
          "name": "_nom",
          "type": "string"
        },
        {
          "internalType": "uint32",
          "name": "_quantite",
          "type": "uint32"
        }
      ],
      "name": "ajouterIntrant",
      "outputs": [],
      "stateMutability": "nonpayable",
      "type": "function"
    },
    {
      "inputs": [
        {
          "internalType": "uint32",
          "name": "_idParcelle",
          "type": "uint32"
        },
        {
          "internalType": "string",
          "name": "_urlPhoto",
          "type": "string"
        }
      ],
      "name": "ajouterPhoto",
      "outputs": [],
      "stateMutability": "nonpayable",
      "type": "function"
    },
    {
      "inputs": [
        {
          "internalType": "uint32",
          "name": "_idParcelle",
          "type": "uint32"
        },
        {
          "internalType": "bool",
          "name": "_passe",
          "type": "bool"
        }
      ],
      "name": "appliquerControlePhytosanitaire",
      "outputs": [],
      "stateMutability": "nonpayable",
      "type": "function"
    },
    {
      "inputs": [],
      "name": "compteurInspections",
      "outputs": [
        {
          "internalType": "uint32",
          "name": "",
          "type": "uint32"
        }
      ],
      "stateMutability": "view",
      "type": "function"
    },
    {
      "inputs": [],
      "name": "compteurParcelles",
      "outputs": [
        {
          "internalType": "uint32",
          "name": "",
          "type": "uint32"
        }
      ],
      "stateMutability": "view",
      "type": "function"
    },
    {
      "inputs": [
        {
          "internalType": "string",
          "name": "_qualiteSemence",
          "type": "string"
        },
        {
          "internalType": "string",
          "name": "_methodeCulture",
          "type": "string"
        },
        {
          "internalType": "string",
          "name": "_latitude",
          "type": "string"
        },
        {
          "internalType": "string",
          "name": "_longitude",
          "type": "string"
        },
        {
          "internalType": "string",
          "name": "_dateRecolte",
          "type": "string"
        },
        {
          "internalType": "string",
          "name": "_certificatPhytosanitaire",
          "type": "string"
        }
      ],
      "name": "creerParcelle",
      "outputs": [],
      "stateMutability": "nonpayable",
      "type": "function"
    },
    {
      "inputs": [],
      "name": "gestionnaireActeurs",
      "outputs": [
        {
          "internalType": "contract GestionnaireActeurs",
          "name": "",
          "type": "address"
        }
      ],
      "stateMutability": "view",
      "type": "function"
    },
    {
      "inputs": [],
      "name": "getCompteurInspection",
      "outputs": [
        {
          "internalType": "uint32",
          "name": "",
          "type": "uint32"
        }
      ],
      "stateMutability": "view",
      "type": "function"
    },
    {
      "inputs": [],
      "name": "getCompteurParcelle",
      "outputs": [
        {
          "internalType": "uint32",
          "name": "",
          "type": "uint32"
        }
      ],
      "stateMutability": "view",
      "type": "function"
    },
    {
      "inputs": [
        {
          "internalType": "uint32",
          "name": "idParcelle",
          "type": "uint32"
        }
      ],
      "name": "getConditions",
      "outputs": [
        {
          "components": [
            {
              "internalType": "uint32",
              "name": "id",
              "type": "uint32"
            },
            {
              "internalType": "string",
              "name": "temperature",
              "type": "string"
            },
            {
              "internalType": "string",
              "name": "humidite",
              "type": "string"
            },
            {
              "internalType": "uint256",
              "name": "timestamp",
              "type": "uint256"
            }
          ],
          "internalType": "struct StructLib.EnregistrementCondition[]",
          "name": "",
          "type": "tuple[]"
        }
      ],
      "stateMutability": "view",
      "type": "function"
    },
    {
      "inputs": [
        {
          "internalType": "uint32",
          "name": "idParcelle",
          "type": "uint32"
        }
      ],
      "name": "getInspections",
      "outputs": [
        {
          "components": [
            {
              "internalType": "uint32",
              "name": "id",
              "type": "uint32"
            },
            {
              "internalType": "address",
              "name": "auditeur",
              "type": "address"
            },
            {
              "internalType": "string",
              "name": "rapport",
              "type": "string"
            },
            {
              "internalType": "uint256",
              "name": "timestamp",
              "type": "uint256"
            }
          ],
          "internalType": "struct StructLib.Inspection[]",
          "name": "",
          "type": "tuple[]"
        }
      ],
      "stateMutability": "view",
      "type": "function"
    },
    {
      "inputs": [
        {
          "internalType": "uint32",
          "name": "idParcelle",
          "type": "uint32"
        }
      ],
      "name": "getIntrants",
      "outputs": [
        {
          "components": [
            {
              "internalType": "string",
              "name": "nom",
              "type": "string"
            },
            {
              "internalType": "uint32",
              "name": "quantite",
              "type": "uint32"
            },
            {
              "internalType": "bool",
              "name": "valide",
              "type": "bool"
            }
          ],
          "internalType": "struct StructLib.Intrant[]",
          "name": "",
          "type": "tuple[]"
        }
      ],
      "stateMutability": "view",
      "type": "function"
    },
    {
      "inputs": [
        {
          "internalType": "uint32",
          "name": "id",
          "type": "uint32"
        }
      ],
      "name": "getParcelle",
      "outputs": [
        {
          "components": [
            {
              "internalType": "uint32",
              "name": "id",
              "type": "uint32"
            },
            {
              "internalType": "address",
              "name": "producteur",
              "type": "address"
            },
            {
              "internalType": "string",
              "name": "qualiteSemence",
              "type": "string"
            },
            {
              "internalType": "string",
              "name": "methodeCulture",
              "type": "string"
            },
            {
              "internalType": "bool",
              "name": "certifie",
              "type": "bool"
            },
            {
              "internalType": "enum StructLib.Etape",
              "name": "etape",
              "type": "uint8"
            },
            {
              "internalType": "string",
              "name": "latitude",
              "type": "string"
            },
            {
              "internalType": "string",
              "name": "longitude",
              "type": "string"
            },
            {
              "internalType": "string[]",
              "name": "photos",
              "type": "string[]"
            },
            {
              "components": [
                {
                  "internalType": "string",
                  "name": "nom",
                  "type": "string"
                },
                {
                  "internalType": "uint32",
                  "name": "quantite",
                  "type": "uint32"
                },
                {
                  "internalType": "bool",
                  "name": "valide",
                  "type": "bool"
                }
              ],
              "internalType": "struct StructLib.Intrant[]",
              "name": "intrants",
              "type": "tuple[]"
            },
            {
              "components": [
                {
                  "internalType": "uint32",
                  "name": "id",
                  "type": "uint32"
                },
                {
                  "internalType": "address",
                  "name": "auditeur",
                  "type": "address"
                },
                {
                  "internalType": "string",
                  "name": "rapport",
                  "type": "string"
                },
                {
                  "internalType": "uint256",
                  "name": "timestamp",
                  "type": "uint256"
                }
              ],
              "internalType": "struct StructLib.Inspection[]",
              "name": "inspections",
              "type": "tuple[]"
            },
            {
              "components": [
                {
                  "internalType": "uint32",
                  "name": "id",
                  "type": "uint32"
                },
                {
                  "internalType": "string",
                  "name": "temperature",
                  "type": "string"
                },
                {
                  "internalType": "string",
                  "name": "humidite",
                  "type": "string"
                },
                {
                  "internalType": "uint256",
                  "name": "timestamp",
                  "type": "uint256"
                }
              ],
              "internalType": "struct StructLib.EnregistrementCondition[]",
              "name": "conditions",
              "type": "tuple[]"
            },
            {
              "internalType": "string",
              "name": "dateRecolte",
              "type": "string"
            },
            {
              "internalType": "string",
              "name": "certificatPhytosanitaire",
              "type": "string"
            }
          ],
          "internalType": "struct StructLib.Parcelle",
          "name": "",
          "type": "tuple"
        }
      ],
      "stateMutability": "view",
      "type": "function"
    },
    {
      "inputs": [
        {
          "internalType": "uint32",
          "name": "idParcelle",
          "type": "uint32"
        }
      ],
      "name": "getPhotos",
      "outputs": [
        {
          "internalType": "string[]",
          "name": "",
          "type": "string[]"
        }
      ],
      "stateMutability": "view",
      "type": "function"
    },
    {
      "inputs": [
        {
          "internalType": "address",
          "name": "_gestionnaireActeurs",
          "type": "address"
        }
      ],
      "name": "initialiser",
      "outputs": [],
      "stateMutability": "nonpayable",
      "type": "function"
    },
    {
      "inputs": [
        {
          "internalType": "uint32",
          "name": "_idParcelle",
          "type": "uint32"
        },
        {
          "internalType": "enum StructLib.Etape",
          "name": "_etape",
          "type": "uint8"
        }
      ],
      "name": "mettreAJourEtape",
      "outputs": [],
      "stateMutability": "nonpayable",
      "type": "function"
    },
    {
      "inputs": [
        {
          "internalType": "uint32",
          "name": "",
          "type": "uint32"
        }
      ],
      "name": "parcelles",
      "outputs": [
        {
          "internalType": "uint32",
          "name": "id",
          "type": "uint32"
        },
        {
          "internalType": "address",
          "name": "producteur",
          "type": "address"
        },
        {
          "internalType": "string",
          "name": "qualiteSemence",
          "type": "string"
        },
        {
          "internalType": "string",
          "name": "methodeCulture",
          "type": "string"
        },
        {
          "internalType": "bool",
          "name": "certifie",
          "type": "bool"
        },
        {
          "internalType": "enum StructLib.Etape",
          "name": "etape",
          "type": "uint8"
        },
        {
          "internalType": "string",
          "name": "latitude",
          "type": "string"
        },
        {
          "internalType": "string",
          "name": "longitude",
          "type": "string"
        },
        {
          "internalType": "string",
          "name": "dateRecolte",
          "type": "string"
        },
        {
          "internalType": "string",
          "name": "certificatPhytosanitaire",
          "type": "string"
        }
      ],
      "stateMutability": "view",
      "type": "function"
    },
    {
      "inputs": [
        {
          "internalType": "uint32",
          "name": "_idParcelle",
          "type": "uint32"
        },
        {
          "internalType": "string",
          "name": "_nom",
          "type": "string"
        },
        {
          "internalType": "bool",
          "name": "_valide",
          "type": "bool"
        }
      ],
      "name": "validerIntrant",
      "outputs": [],
      "stateMutability": "nonpayable",
      "type": "function"
    },
    {
      "stateMutability": "payable",
      "type": "receive"
    }
  ],
  "bytecode": "0x608060405234801561001057600080fd5b5061421b806100206000396000f3fe6080604052600436106101185760003560e01c80637bc6edd1116100a0578063d16d510911610064578063d16d5109146103ac578063ddb45fec146103d7578063e1e6773314610414578063ece32cd714610451578063f03d9af61461047a5761011f565b80637bc6edd1146102db5780639462fa1e146103045780639e942cd41461032d578063a149918c14610358578063cda36e63146103815761011f565b8063421b3e08116100e7578063421b3e08146101e45780634fbdf4fe146102215780635d5efef91461024a5780635ee250791461028757806361153ee9146102b05761011f565b806304bfefce146101215780631912121d1461014a57806331686f41146101905780633ab62bd7146101bb5761011f565b3661011f57005b005b34801561012d57600080fd5b5061014860048036038101906101439190612ee9565b6104b7565b005b34801561015657600080fd5b50610171600480360381019061016c9190612df4565b610743565b6040516101879a99989796959493929190613c98565b60405180910390f35b34801561019c57600080fd5b506101a5610b11565b6040516101b29190613c7d565b60405180910390f35b3480156101c757600080fd5b506101e260048036038101906101dd9190612e95565b610b2b565b005b3480156101f057600080fd5b5061020b60048036038101906102069190612df4565b610c76565b6040516102189190613c5b565b60405180910390f35b34801561022d57600080fd5b5061024860048036038101906102439190612c89565b61166f565b005b34801561025657600080fd5b50610271600480360381019061026c9190612df4565b61171d565b60405161027e9190613b3e565b60405180910390f35b34801561029357600080fd5b506102ae60048036038101906102a99190612f50565b611871565b005b3480156102bc57600080fd5b506102c5611a36565b6040516102d29190613c7d565b60405180910390f35b3480156102e757600080fd5b5061030260048036038101906102fd9190612e95565b611a4c565b005b34801561031057600080fd5b5061032b60048036038101906103269190612e59565b611cad565b005b34801561033957600080fd5b50610342611e0c565b60405161034f9190613b60565b60405180910390f35b34801561036457600080fd5b5061037f600480360381019061037a9190612cdb565b611e30565b005b34801561038d57600080fd5b506103966123ac565b6040516103a39190613c7d565b60405180910390f35b3480156103b857600080fd5b506103c16123c2565b6040516103ce9190613c7d565b60405180910390f35b3480156103e357600080fd5b506103fe60048036038101906103f99190612df4565b6123dc565b60405161040b9190613b1c565b60405180910390f35b34801561042057600080fd5b5061043b60048036038101906104369190612df4565b612575565b6040516104489190613afa565b60405180910390f35b34801561045d57600080fd5b5061047860048036038101906104739190612e1d565b61274a565b005b34801561048657600080fd5b506104a1600480360381019061049c9190612df4565b612955565b6040516104ae9190613ad8565b60405180910390f35b60008054906101000a900473ffffffffffffffffffffffffffffffffffffffff1673ffffffffffffffffffffffffffffffffffffffff1663d1e47bb33360026040518363ffffffff1660e01b8152600401610513929190613aaf565b60206040518083038186803b15801561052b57600080fd5b505afa15801561053f573d6000803e3d6000fd5b505050506040513d601f19601f820116820180604052508101906105639190612cb2565b6105a2576040517f08c379a000000000000000000000000000000000000000000000000000000000815260040161059990613bbb565b60405180910390fd5b60005b600160008563ffffffff1663ffffffff168152602001908152602001600020600701805490508163ffffffff16101561073d57826040516020016105e99190613a58565b60405160208183030381529060405280519060200120600160008663ffffffff1663ffffffff1681526020019081526020016000206007018263ffffffff168154811061065f577f4e487b7100000000000000000000000000000000000000000000000000000000600052603260045260246000fd5b90600052602060002090600202016000016040516020016106809190613a6f565b60405160208183030381529060405280519060200120141561072a5781600160008663ffffffff1663ffffffff1681526020019081526020016000206007018263ffffffff16815481106106fd577f4e487b7100000000000000000000000000000000000000000000000000000000600052603260045260246000fd5b906000526020600020906002020160010160046101000a81548160ff02191690831515021790555061073d565b80806107359061406e565b9150506105a5565b50505050565b60016020528060005260406000206000915090508060000160009054906101000a900463ffffffff16908060000160049054906101000a900473ffffffffffffffffffffffffffffffffffffffff16908060010180546107a29061403c565b80601f01602080910402602001604051908101604052809291908181526020018280546107ce9061403c565b801561081b5780601f106107f05761010080835404028352916020019161081b565b820191906000526020600020905b8154815290600101906020018083116107fe57829003601f168201915b5050505050908060020180546108309061403c565b80601f016020809104026020016040519081016040528092919081815260200182805461085c9061403c565b80156108a95780601f1061087e576101008083540402835291602001916108a9565b820191906000526020600020905b81548152906001019060200180831161088c57829003601f168201915b5050505050908060030160009054906101000a900460ff16908060030160019054906101000a900460ff16908060040180546108e49061403c565b80601f01602080910402602001604051908101604052809291908181526020018280546109109061403c565b801561095d5780601f106109325761010080835404028352916020019161095d565b820191906000526020600020905b81548152906001019060200180831161094057829003601f168201915b5050505050908060050180546109729061403c565b80601f016020809104026020016040519081016040528092919081815260200182805461099e9061403c565b80156109eb5780601f106109c0576101008083540402835291602001916109eb565b820191906000526020600020905b8154815290600101906020018083116109ce57829003601f168201915b50505050509080600a018054610a009061403c565b80601f0160208091040260200160405190810160405280929190818152602001828054610a2c9061403c565b8015610a795780601f10610a4e57610100808354040283529160200191610a79565b820191906000526020600020905b815481529060010190602001808311610a5c57829003601f168201915b50505050509080600b018054610a8e9061403c565b80601f0160208091040260200160405190810160405280929190818152602001828054610aba9061403c565b8015610b075780601f10610adc57610100808354040283529160200191610b07565b820191906000526020600020905b815481529060010190602001808311610aea57829003601f168201915b505050505090508a565b6000600260009054906101000a900463ffffffff16905090565b60008054906101000a900473ffffffffffffffffffffffffffffffffffffffff1673ffffffffffffffffffffffffffffffffffffffff1663d1e47bb33360006040518363ffffffff1660e01b8152600401610b87929190613aaf565b60206040518083038186803b158015610b9f57600080fd5b505afa158015610bb3573d6000803e3d6000fd5b505050506040513d601f19601f82011682018060405250810190610bd79190612cb2565b610c16576040517f08c379a0000000000000000000000000000000000000000000000000000000008152600401610c0d90613b9b565b60405180910390fd5b600160008363ffffffff1663ffffffff16815260200190815260200160002060060181908060018154018082558091505060019003906000526020600020016000909190919091509080519060200190610c71929190612a50565b505050565b610c7e612ad6565b600160008363ffffffff1663ffffffff168152602001908152602001600020604051806101c00160405290816000820160009054906101000a900463ffffffff1663ffffffff1663ffffffff1681526020016000820160049054906101000a900473ffffffffffffffffffffffffffffffffffffffff1673ffffffffffffffffffffffffffffffffffffffff1673ffffffffffffffffffffffffffffffffffffffff168152602001600182018054610d359061403c565b80601f0160208091040260200160405190810160405280929190818152602001828054610d619061403c565b8015610dae5780601f10610d8357610100808354040283529160200191610dae565b820191906000526020600020905b815481529060010190602001808311610d9157829003601f168201915b50505050508152602001600282018054610dc79061403c565b80601f0160208091040260200160405190810160405280929190818152602001828054610df39061403c565b8015610e405780601f10610e1557610100808354040283529160200191610e40565b820191906000526020600020905b815481529060010190602001808311610e2357829003601f168201915b505050505081526020016003820160009054906101000a900460ff161515151581526020016003820160019054906101000a900460ff166003811115610eaf577f4e487b7100000000000000000000000000000000000000000000000000000000600052602160045260246000fd5b6003811115610ee7577f4e487b7100000000000000000000000000000000000000000000000000000000600052602160045260246000fd5b8152602001600482018054610efb9061403c565b80601f0160208091040260200160405190810160405280929190818152602001828054610f279061403c565b8015610f745780601f10610f4957610100808354040283529160200191610f74565b820191906000526020600020905b815481529060010190602001808311610f5757829003601f168201915b50505050508152602001600582018054610f8d9061403c565b80601f0160208091040260200160405190810160405280929190818152602001828054610fb99061403c565b80156110065780601f10610fdb57610100808354040283529160200191611006565b820191906000526020600020905b815481529060010190602001808311610fe957829003601f168201915b5050505050815260200160068201805480602002602001604051908101604052809291908181526020016000905b828210156110e05783829060005260206000200180546110539061403c565b80601f016020809104026020016040519081016040528092919081815260200182805461107f9061403c565b80156110cc5780601f106110a1576101008083540402835291602001916110cc565b820191906000526020600020905b8154815290600101906020018083116110af57829003601f168201915b505050505081526020019060010190611034565b50505050815260200160078201805480602002602001604051908101604052809291908181526020016000905b8282101561121257838290600052602060002090600202016040518060600160405290816000820180546111409061403c565b80601f016020809104026020016040519081016040528092919081815260200182805461116c9061403c565b80156111b95780601f1061118e576101008083540402835291602001916111b9565b820191906000526020600020905b81548152906001019060200180831161119c57829003601f168201915b505050505081526020016001820160009054906101000a900463ffffffff1663ffffffff1663ffffffff1681526020016001820160049054906101000a900460ff1615151515815250508152602001906001019061110d565b50505050815260200160088201805480602002602001604051908101604052809291908181526020016000905b8282101561138957838290600052602060002090600302016040518060800160405290816000820160009054906101000a900463ffffffff1663ffffffff1663ffffffff1681526020016000820160049054906101000a900473ffffffffffffffffffffffffffffffffffffffff1673ffffffffffffffffffffffffffffffffffffffff1673ffffffffffffffffffffffffffffffffffffffff1681526020016001820180546112ee9061403c565b80601f016020809104026020016040519081016040528092919081815260200182805461131a9061403c565b80156113675780601f1061133c57610100808354040283529160200191611367565b820191906000526020600020905b81548152906001019060200180831161134a57829003601f168201915b505050505081526020016002820154815250508152602001906001019061123f565b50505050815260200160098201805480602002602001604051908101604052809291908181526020016000905b8282101561153c57838290600052602060002090600402016040518060800160405290816000820160009054906101000a900463ffffffff1663ffffffff1663ffffffff16815260200160018201805461140f9061403c565b80601f016020809104026020016040519081016040528092919081815260200182805461143b9061403c565b80156114885780601f1061145d57610100808354040283529160200191611488565b820191906000526020600020905b81548152906001019060200180831161146b57829003601f168201915b505050505081526020016002820180546114a19061403c565b80601f01602080910402602001604051908101604052809291908181526020018280546114cd9061403c565b801561151a5780601f106114ef5761010080835404028352916020019161151a565b820191906000526020600020905b8154815290600101906020018083116114fd57829003601f168201915b50505050508152602001600382015481525050815260200190600101906113b6565b505050508152602001600a820180546115549061403c565b80601f01602080910402602001604051908101604052809291908181526020018280546115809061403c565b80156115cd5780601f106115a2576101008083540402835291602001916115cd565b820191906000526020600020905b8154815290600101906020018083116115b057829003601f168201915b50505050508152602001600b820180546115e69061403c565b80601f01602080910402602001604051908101604052809291908181526020018280546116129061403c565b801561165f5780601f106116345761010080835404028352916020019161165f565b820191906000526020600020905b81548152906001019060200180831161164257829003601f168201915b5050505050815250509050919050565b600260089054906101000a900460ff16156116bf576040517f08c379a00000000000000000000000000000000000000000000000000000000081526004016116b690613c3b565b60405180910390fd5b806000806101000a81548173ffffffffffffffffffffffffffffffffffffffff021916908373ffffffffffffffffffffffffffffffffffffffff1602179055506001600260086101000a81548160ff02191690831515021790555050565b6060600160008363ffffffff1663ffffffff168152602001908152602001600020600701805480602002602001604051908101604052809291908181526020016000905b8282101561186657838290600052602060002090600202016040518060600160405290816000820180546117949061403c565b80601f01602080910402602001604051908101604052809291908181526020018280546117c09061403c565b801561180d5780601f106117e25761010080835404028352916020019161180d565b820191906000526020600020905b8154815290600101906020018083116117f057829003601f168201915b505050505081526020016001820160009054906101000a900463ffffffff1663ffffffff1663ffffffff1681526020016001820160049054906101000a900460ff16151515158152505081526020019060010190611761565b505050509050919050565b60008054906101000a900473ffffffffffffffffffffffffffffffffffffffff1673ffffffffffffffffffffffffffffffffffffffff1663d1e47bb33360016040518363ffffffff1660e01b81526004016118cd929190613aaf565b60206040518083038186803b1580156118e557600080fd5b505afa1580156118f9573d6000803e3d6000fd5b505050506040513d601f19601f8201168201806040525081019061191d9190612cb2565b61195c576040517f08c379a000000000000000000000000000000000000000000000000000000000815260040161195390613c1b565b60405180910390fd5b600160008463ffffffff1663ffffffff16815260200190815260200160002060070160405180606001604052808481526020018363ffffffff16815260200160001515815250908060018154018082558091505060019003906000526020600020906002020160009091909190915060008201518160000190805190602001906119e7929190612a50565b5060208201518160010160006101000a81548163ffffffff021916908363ffffffff16021790555060408201518160010160046101000a81548160ff0219169083151502179055505050505050565b600260009054906101000a900463ffffffff1681565b60008054906101000a900473ffffffffffffffffffffffffffffffffffffffff1673ffffffffffffffffffffffffffffffffffffffff1663d1e47bb33360046040518363ffffffff1660e01b8152600401611aa8929190613aaf565b60206040518083038186803b158015611ac057600080fd5b505afa158015611ad4573d6000803e3d6000fd5b505050506040513d601f19601f82011682018060405250810190611af89190612cb2565b611b37576040517f08c379a0000000000000000000000000000000000000000000000000000000008152600401611b2e90613b7b565b60405180910390fd5b6002600481819054906101000a900463ffffffff1680929190611b599061406e565b91906101000a81548163ffffffff021916908363ffffffff16021790555050600160008363ffffffff1663ffffffff1681526020019081526020016000206008016040518060800160405280600260049054906101000a900463ffffffff1663ffffffff1681526020013373ffffffffffffffffffffffffffffffffffffffff16815260200183815260200142815250908060018154018082558091505060019003906000526020600020906003020160009091909190915060008201518160000160006101000a81548163ffffffff021916908363ffffffff16021790555060208201518160000160046101000a81548173ffffffffffffffffffffffffffffffffffffffff021916908373ffffffffffffffffffffffffffffffffffffffff1602179055506040820151816001019080519060200190611c9c929190612a50565b506060820151816002015550505050565b60008054906101000a900473ffffffffffffffffffffffffffffffffffffffff1673ffffffffffffffffffffffffffffffffffffffff1663d1e47bb33360006040518363ffffffff1660e01b8152600401611d09929190613aaf565b60206040518083038186803b158015611d2157600080fd5b505afa158015611d35573d6000803e3d6000fd5b505050506040513d601f19601f82011682018060405250810190611d599190612cb2565b611d98576040517f08c379a0000000000000000000000000000000000000000000000000000000008152600401611d8f90613b9b565b60405180910390fd5b80600160008463ffffffff1663ffffffff16815260200190815260200160002060030160016101000a81548160ff02191690836003811115611e03577f4e487b7100000000000000000000000000000000000000000000000000000000600052602160045260246000fd5b02179055505050565b60008054906101000a900473ffffffffffffffffffffffffffffffffffffffff1681565b60008054906101000a900473ffffffffffffffffffffffffffffffffffffffff1673ffffffffffffffffffffffffffffffffffffffff1663d1e47bb33360006040518363ffffffff1660e01b8152600401611e8c929190613aaf565b60206040518083038186803b158015611ea457600080fd5b505afa158015611eb8573d6000803e3d6000fd5b505050506040513d601f19601f82011682018060405250810190611edc9190612cb2565b611f1b576040517f08c379a0000000000000000000000000000000000000000000000000000000008152600401611f1290613b9b565b60405180910390fd5b60008054906101000a900473ffffffffffffffffffffffffffffffffffffffff1673ffffffffffffffffffffffffffffffffffffffff16639f7d7f4533306040518363ffffffff1660e01b8152600401611f76929190613a86565b60206040518083038186803b158015611f8e57600080fd5b505afa158015611fa2573d6000803e3d6000fd5b505050506040513d601f19601f82011682018060405250810190611fc69190612cb2565b612005576040517f08c379a0000000000000000000000000000000000000000000000000000000008152600401611ffc90613bdb565b60405180910390fd5b6002600081819054906101000a900463ffffffff16809291906120279061406e565b91906101000a81548163ffffffff021916908363ffffffff16021790555050600260009054906101000a900463ffffffff1660016000600260009054906101000a900463ffffffff1663ffffffff1663ffffffff16815260200190815260200160002060000160006101000a81548163ffffffff021916908363ffffffff1602179055503360016000600260009054906101000a900463ffffffff1663ffffffff1663ffffffff16815260200190815260200160002060000160046101000a81548173ffffffffffffffffffffffffffffffffffffffff021916908373ffffffffffffffffffffffffffffffffffffffff1602179055508560016000600260009054906101000a900463ffffffff1663ffffffff1663ffffffff1681526020019081526020016000206001019080519060200190612166929190612a50565b508460016000600260009054906101000a900463ffffffff1663ffffffff1663ffffffff16815260200190815260200160002060020190805190602001906121af929190612a50565b50600060016000600260009054906101000a900463ffffffff1663ffffffff1663ffffffff16815260200190815260200160002060030160006101000a81548160ff021916908315150217905550600060016000600260009054906101000a900463ffffffff1663ffffffff1663ffffffff16815260200190815260200160002060030160016101000a81548160ff0219169083600381111561227b577f4e487b7100000000000000000000000000000000000000000000000000000000600052602160045260246000fd5b02179055508360016000600260009054906101000a900463ffffffff1663ffffffff1663ffffffff16815260200190815260200160002060040190805190602001906122c8929190612a50565b508260016000600260009054906101000a900463ffffffff1663ffffffff1663ffffffff1681526020019081526020016000206005019080519060200190612311929190612a50565b508160016000600260009054906101000a900463ffffffff1663ffffffff1663ffffffff168152602001908152602001600020600a01908051906020019061235a929190612a50565b508060016000600260009054906101000a900463ffffffff1663ffffffff1663ffffffff168152602001908152602001600020600b0190805190602001906123a3929190612a50565b50505050505050565b600260049054906101000a900463ffffffff1681565b6000600260049054906101000a900463ffffffff16905090565b6060600160008363ffffffff1663ffffffff168152602001908152602001600020600801805480602002602001604051908101604052809291908181526020016000905b8282101561256a57838290600052602060002090600302016040518060800160405290816000820160009054906101000a900463ffffffff1663ffffffff1663ffffffff1681526020016000820160049054906101000a900473ffffffffffffffffffffffffffffffffffffffff1673ffffffffffffffffffffffffffffffffffffffff1673ffffffffffffffffffffffffffffffffffffffff1681526020016001820180546124cf9061403c565b80601f01602080910402602001604051908101604052809291908181526020018280546124fb9061403c565b80156125485780601f1061251d57610100808354040283529160200191612548565b820191906000526020600020905b81548152906001019060200180831161252b57829003601f168201915b5050505050815260200160028201548152505081526020019060010190612420565b505050509050919050565b6060600160008363ffffffff1663ffffffff168152602001908152602001600020600901805480602002602001604051908101604052809291908181526020016000905b8282101561273f57838290600052602060002090600402016040518060800160405290816000820160009054906101000a900463ffffffff1663ffffffff1663ffffffff1681526020016001820180546126129061403c565b80601f016020809104026020016040519081016040528092919081815260200182805461263e9061403c565b801561268b5780601f106126605761010080835404028352916020019161268b565b820191906000526020600020905b81548152906001019060200180831161266e57829003601f168201915b505050505081526020016002820180546126a49061403c565b80601f01602080910402602001604051908101604052809291908181526020018280546126d09061403c565b801561271d5780601f106126f25761010080835404028352916020019161271d565b820191906000526020600020905b81548152906001019060200180831161270057829003601f168201915b50505050508152602001600382015481525050815260200190600101906125b9565b505050509050919050565b60008054906101000a900473ffffffffffffffffffffffffffffffffffffffff1673ffffffffffffffffffffffffffffffffffffffff1663d1e47bb33360026040518363ffffffff1660e01b81526004016127a6929190613aaf565b60206040518083038186803b1580156127be57600080fd5b505afa1580156127d2573d6000803e3d6000fd5b505050506040513d601f19601f820116820180604052508101906127f69190612cb2565b612835576040517f08c379a000000000000000000000000000000000000000000000000000000000815260040161282c90613bbb565b60405180910390fd5b6001600381111561286f577f4e487b7100000000000000000000000000000000000000000000000000000000600052602160045260246000fd5b600160008463ffffffff1663ffffffff16815260200190815260200160002060030160019054906101000a900460ff1660038111156128d7577f4e487b7100000000000000000000000000000000000000000000000000000000600052602160045260246000fd5b14612917576040517f08c379a000000000000000000000000000000000000000000000000000000000815260040161290e90613bfb565b60405180910390fd5b80600160008463ffffffff1663ffffffff16815260200190815260200160002060030160006101000a81548160ff0219169083151502179055505050565b6060600160008363ffffffff1663ffffffff168152602001908152602001600020600601805480602002602001604051908101604052809291908181526020016000905b82821015612a455783829060005260206000200180546129b89061403c565b80601f01602080910402602001604051908101604052809291908181526020018280546129e49061403c565b8015612a315780601f10612a0657610100808354040283529160200191612a31565b820191906000526020600020905b815481529060010190602001808311612a1457829003601f168201915b505050505081526020019060010190612999565b505050509050919050565b828054612a5c9061403c565b90600052602060002090601f016020900481019282612a7e5760008555612ac5565b82601f10612a9757805160ff1916838001178555612ac5565b82800160010185558215612ac5579182015b82811115612ac4578251825591602001919060010190612aa9565b5b509050612ad29190612b9b565b5090565b604051806101c00160405280600063ffffffff168152602001600073ffffffffffffffffffffffffffffffffffffffff168152602001606081526020016060815260200160001515815260200160006003811115612b5d577f4e487b7100000000000000000000000000000000000000000000000000000000600052602160045260246000fd5b815260200160608152602001606081526020016060815260200160608152602001606081526020016060815260200160608152602001606081525090565b5b80821115612bb4576000816000905550600101612b9c565b5090565b6000612bcb612bc684613d8f565b613d5e565b905082815260208101848484011115612be357600080fd5b612bee848285613ffa565b509392505050565b600081359050612c0581614190565b92915050565b600081359050612c1a816141a7565b92915050565b600081519050612c2f816141a7565b92915050565b600081359050612c44816141be565b92915050565b600082601f830112612c5b57600080fd5b8135612c6b848260208601612bb8565b91505092915050565b600081359050612c83816141ce565b92915050565b600060208284031215612c9b57600080fd5b6000612ca984828501612bf6565b91505092915050565b600060208284031215612cc457600080fd5b6000612cd284828501612c20565b91505092915050565b60008060008060008060c08789031215612cf457600080fd5b600087013567ffffffffffffffff811115612d0e57600080fd5b612d1a89828a01612c4a565b965050602087013567ffffffffffffffff811115612d3757600080fd5b612d4389828a01612c4a565b955050604087013567ffffffffffffffff811115612d6057600080fd5b612d6c89828a01612c4a565b945050606087013567ffffffffffffffff811115612d8957600080fd5b612d9589828a01612c4a565b935050608087013567ffffffffffffffff811115612db257600080fd5b612dbe89828a01612c4a565b92505060a087013567ffffffffffffffff811115612ddb57600080fd5b612de789828a01612c4a565b9150509295509295509295565b600060208284031215612e0657600080fd5b6000612e1484828501612c74565b91505092915050565b60008060408385031215612e3057600080fd5b6000612e3e85828601612c74565b9250506020612e4f85828601612c0b565b9150509250929050565b60008060408385031215612e6c57600080fd5b6000612e7a85828601612c74565b9250506020612e8b85828601612c35565b9150509250929050565b60008060408385031215612ea857600080fd5b6000612eb685828601612c74565b925050602083013567ffffffffffffffff811115612ed357600080fd5b612edf85828601612c4a565b9150509250929050565b600080600060608486031215612efe57600080fd5b6000612f0c86828701612c74565b935050602084013567ffffffffffffffff811115612f2957600080fd5b612f3586828701612c4a565b9250506040612f4686828701612c0b565b9150509250925092565b600080600060608486031215612f6557600080fd5b6000612f7386828701612c74565b935050602084013567ffffffffffffffff811115612f9057600080fd5b612f9c86828701612c4a565b9250506040612fad86828701612c74565b9150509250925092565b6000612fc38383613427565b905092915050565b6000612fd783836137a1565b905092915050565b6000612feb838361380b565b905092915050565b6000612fff838361386e565b905092915050565b61301081613f34565b82525050565b61301f81613f34565b82525050565b600061303082613e14565b61303a8185613e7f565b93508360208202850161304c85613dbf565b8060005b8581101561308857848403895281516130698582612fb7565b945061307483613e4b565b925060208a01995050600181019050613050565b50829750879550505050505092915050565b60006130a582613e14565b6130af8185613e90565b9350836020820285016130c185613dbf565b8060005b858110156130fd57848403895281516130de8582612fb7565b94506130e983613e4b565b925060208a019950506001810190506130c5565b50829750879550505050505092915050565b600061311a82613e1f565b6131248185613ea1565b93508360208202850161313685613dcf565b8060005b8581101561317257848403895281516131538582612fcb565b945061315e83613e58565b925060208a0199505060018101905061313a565b50829750879550505050505092915050565b600061318f82613e1f565b6131998185613eb2565b9350836020820285016131ab85613dcf565b8060005b858110156131e757848403895281516131c88582612fcb565b94506131d383613e58565b925060208a019950506001810190506131af565b50829750879550505050505092915050565b600061320482613e2a565b61320e8185613ec3565b93508360208202850161322085613ddf565b8060005b8581101561325c578484038952815161323d8582612fdf565b945061324883613e65565b925060208a01995050600181019050613224565b50829750879550505050505092915050565b600061327982613e2a565b6132838185613ed4565b93508360208202850161329585613ddf565b8060005b858110156132d157848403895281516132b28582612fdf565b94506132bd83613e65565b925060208a01995050600181019050613299565b50829750879550505050505092915050565b60006132ee82613e35565b6132f88185613ee5565b93508360208202850161330a85613def565b8060005b8581101561334657848403895281516133278582612ff3565b945061333283613e72565b925060208a0199505060018101905061330e565b50829750879550505050505092915050565b600061336382613e35565b61336d8185613ef6565b93508360208202850161337f85613def565b8060005b858110156133bb578484038952815161339c8582612ff3565b94506133a783613e72565b925060208a01995050600181019050613383565b50829750879550505050505092915050565b6133d681613f46565b82525050565b6133e581613f46565b82525050565b6133f481613fb2565b82525050565b61340381613fd6565b82525050565b61341281613fd6565b82525050565b61342181613fe8565b82525050565b600061343282613e40565b61343c8185613f07565b935061344c818560208601614009565b61345581614157565b840191505092915050565b600061346b82613e40565b6134758185613f18565b9350613485818560208601614009565b61348e81614157565b840191505092915050565b60006134a482613e40565b6134ae8185613f29565b93506134be818560208601614009565b80840191505092915050565b600081546134d78161403c565b6134e18186613f29565b945060018216600081146134fc576001811461350d57613540565b60ff19831686528186019350613540565b61351685613dff565b60005b8381101561353857815481890152600182019150602081019050613519565b838801955050505b50505092915050565b6000613556602083613f18565b91507f4e6f6e206175746f726973653a207365756c656d656e742041756469746575726000830152602082019050919050565b6000613596602283613f18565b91507f4e6f6e206175746f726973653a207365756c656d656e742050726f647563746560008301527f75720000000000000000000000000000000000000000000000000000000000006020830152604082019050919050565b60006135fc602583613f18565b91507f4e6f6e206175746f726973653a207365756c656d656e7420436572746966696360008301527f61746575720000000000000000000000000000000000000000000000000000006020830152604082019050919050565b6000613662602183613f18565b91507f4e6f6e206175746f726973653a20636f6e74726174206e6f6e2064656c65677560008301527f65000000000000000000000000000000000000000000000000000000000000006020830152604082019050919050565b60006136c8601783613f18565b91507f50617320656e2065746170652064652063756c747572650000000000000000006000830152602082019050919050565b6000613708602383613f18565b91507f4e6f6e206175746f726973653a207365756c656d656e7420466f75726e69737360008301527f65757200000000000000000000000000000000000000000000000000000000006020830152604082019050919050565b600061376e601a83613f18565b91507f436f6e747261742064656a6120696e697469616c6973657220210000000000006000830152602082019050919050565b60006080830160008301516137b96000860182613a3a565b50602083015184820360208601526137d18282613427565b915050604083015184820360408601526137eb8282613427565b91505060608301516138006060860182613a2b565b508091505092915050565b60006080830160008301516138236000860182613a3a565b5060208301516138366020860182613007565b506040830151848203604086015261384e8282613427565b91505060608301516138636060860182613a2b565b508091505092915050565b6000606083016000830151848203600086015261388b8282613427565b91505060208301516138a06020860182613a3a565b5060408301516138b360408601826133cd565b508091505092915050565b60006101c0830160008301516138d76000860182613a3a565b5060208301516138ea6020860182613007565b50604083015184820360408601526139028282613427565b9150506060830151848203606086015261391c8282613427565b915050608083015161393160808601826133cd565b5060a083015161394460a08601826133fa565b5060c083015184820360c086015261395c8282613427565b91505060e083015184820360e08601526139768282613427565b9150506101008301518482036101008601526139928282613025565b9150506101208301518482036101208601526139ae82826132e3565b9150506101408301518482036101408601526139ca82826131f9565b9150506101608301518482036101608601526139e6828261310f565b915050610180830151848203610180860152613a028282613427565b9150506101a08301518482036101a0860152613a1e8282613427565b9150508091505092915050565b613a3481613f98565b82525050565b613a4381613fa2565b82525050565b613a5281613fa2565b82525050565b6000613a648284613499565b915081905092915050565b6000613a7b82846134ca565b915081905092915050565b6000604082019050613a9b6000830185613016565b613aa86020830184613016565b9392505050565b6000604082019050613ac46000830185613016565b613ad16020830184613418565b9392505050565b60006020820190508181036000830152613af2818461309a565b905092915050565b60006020820190508181036000830152613b148184613184565b905092915050565b60006020820190508181036000830152613b36818461326e565b905092915050565b60006020820190508181036000830152613b588184613358565b905092915050565b6000602082019050613b7560008301846133eb565b92915050565b60006020820190508181036000830152613b9481613549565b9050919050565b60006020820190508181036000830152613bb481613589565b9050919050565b60006020820190508181036000830152613bd4816135ef565b9050919050565b60006020820190508181036000830152613bf481613655565b9050919050565b60006020820190508181036000830152613c14816136bb565b9050919050565b60006020820190508181036000830152613c34816136fb565b9050919050565b60006020820190508181036000830152613c5481613761565b9050919050565b60006020820190508181036000830152613c7581846138be565b905092915050565b6000602082019050613c926000830184613a49565b92915050565b600061014082019050613cae600083018d613a49565b613cbb602083018c613016565b8181036040830152613ccd818b613460565b90508181036060830152613ce1818a613460565b9050613cf060808301896133dc565b613cfd60a0830188613409565b81810360c0830152613d0f8187613460565b905081810360e0830152613d238186613460565b9050818103610100830152613d388185613460565b9050818103610120830152613d4d8184613460565b90509b9a5050505050505050505050565b6000604051905081810181811067ffffffffffffffff82111715613d8557613d84614128565b5b8060405250919050565b600067ffffffffffffffff821115613daa57613da9614128565b5b601f19601f8301169050602081019050919050565b6000819050602082019050919050565b6000819050602082019050919050565b6000819050602082019050919050565b6000819050602082019050919050565b60008190508160005260206000209050919050565b600081519050919050565b600081519050919050565b600081519050919050565b600081519050919050565b600081519050919050565b6000602082019050919050565b6000602082019050919050565b6000602082019050919050565b6000602082019050919050565b600082825260208201905092915050565b600082825260208201905092915050565b600082825260208201905092915050565b600082825260208201905092915050565b600082825260208201905092915050565b600082825260208201905092915050565b600082825260208201905092915050565b600082825260208201905092915050565b600082825260208201905092915050565b600082825260208201905092915050565b600081905092915050565b6000613f3f82613f78565b9050919050565b60008115159050919050565b6000819050613f6082614168565b919050565b6000819050613f738261417c565b919050565b600073ffffffffffffffffffffffffffffffffffffffff82169050919050565b6000819050919050565b600063ffffffff82169050919050565b6000613fbd82613fc4565b9050919050565b6000613fcf82613f78565b9050919050565b6000613fe182613f52565b9050919050565b6000613ff382613f65565b9050919050565b82818337600083830152505050565b60005b8381101561402757808201518184015260208101905061400c565b83811115614036576000848401525b50505050565b6000600282049050600182168061405457607f821691505b60208210811415614068576140676140f9565b5b50919050565b600061407982613fa2565b915063ffffffff8214156140905761408f61409b565b5b600182019050919050565b7f4e487b7100000000000000000000000000000000000000000000000000000000600052601160045260246000fd5b7f4e487b7100000000000000000000000000000000000000000000000000000000600052602160045260246000fd5b7f4e487b7100000000000000000000000000000000000000000000000000000000600052602260045260246000fd5b7f4e487b7100000000000000000000000000000000000000000000000000000000600052604160045260246000fd5b6000601f19601f8301169050919050565b60048110614179576141786140ca565b5b50565b6008811061418d5761418c6140ca565b5b50565b61419981613f34565b81146141a457600080fd5b50565b6141b081613f46565b81146141bb57600080fd5b50565b600481106141cb57600080fd5b50565b6141d781613fa2565b81146141e257600080fd5b5056fea26469706673582212200966dc055dc28465525e1a63acb252e8700934969050ad72f7e161fc7a991fd164736f6c63430008000033",
  "linkReferences": {},
  "deployedLinkReferences": {}
}