{
  "_format": "hh-sol-artifact-1",
  "contractName": "ProducteurEnPhaseCulture",
  "sourceName": "contracts/ProducteurEnPhaseCulture.sol",
  "abi": [
    {
      "stateMutability": "payable",
      "type": "fallback"
    },
    {
      "inputs": [
        {
          "internalType": "uint32",
          "name": "_idParcelle",
          "type": "uint32"
        },
        {
          "internalType": "string",
          "name": "_hash",
          "type": "string"
        }
      ],
      "name": "ajoutHashMerkleParcelle",
      "outputs": [],
      "stateMutability": "nonpayable",
      "type": "function"
    },
    {
      "inputs": [],
      "name": "compteurInspections",
      "outputs": [
        {
          "internalType": "uint32",
          "name": "",
          "type": "uint32"
        }
      ],
      "stateMutability": "view",
      "type": "function"
    },
    {
      "inputs": [],
      "name": "compteurIntrants",
      "outputs": [
        {
          "internalType": "uint32",
          "name": "",
          "type": "uint32"
        }
      ],
      "stateMutability": "view",
      "type": "function"
    },
    {
      "inputs": [],
      "name": "compteurParcelles",
      "outputs": [
        {
          "internalType": "uint32",
          "name": "",
          "type": "uint32"
        }
      ],
      "stateMutability": "view",
      "type": "function"
    },
    {
      "inputs": [
        {
          "internalType": "string",
          "name": "_ipfs",
          "type": "string"
        }
      ],
      "name": "creerParcelle",
      "outputs": [],
      "stateMutability": "nonpayable",
      "type": "function"
    },
    {
      "inputs": [],
      "name": "gestionnaireActeurs",
      "outputs": [
        {
          "internalType": "contract GestionnaireActeurs",
          "name": "",
          "type": "address"
        }
      ],
      "stateMutability": "view",
      "type": "function"
    },
    {
      "inputs": [],
      "name": "getCompteurParcelle",
      "outputs": [
        {
          "internalType": "uint32",
          "name": "",
          "type": "uint32"
        }
      ],
      "stateMutability": "view",
      "type": "function"
    },
    {
      "inputs": [
        {
          "internalType": "uint32",
          "name": "id",
          "type": "uint32"
        }
      ],
      "name": "getParcelle",
      "outputs": [
        {
          "components": [
            {
              "internalType": "uint32",
              "name": "id",
              "type": "uint32"
            },
            {
              "internalType": "address",
              "name": "producteur",
              "type": "address"
            },
            {
              "internalType": "string",
              "name": "cid",
              "type": "string"
            },
            {
              "internalType": "string",
              "name": "hashMerkle",
              "type": "string"
            }
          ],
          "internalType": "struct StructLib.Parcelle",
          "name": "",
          "type": "tuple"
        }
      ],
      "stateMutability": "view",
      "type": "function"
    },
    {
      "inputs": [
        {
          "internalType": "address",
          "name": "_gestionnaireActeurs",
          "type": "address"
        }
      ],
      "name": "initialiser",
      "outputs": [],
      "stateMutability": "nonpayable",
      "type": "function"
    },
    {
      "inputs": [
        {
          "internalType": "uint32",
          "name": "_idParcelle",
          "type": "uint32"
        },
        {
          "internalType": "string",
          "name": "_cidInspections",
          "type": "string"
        }
      ],
      "name": "mettreAJourInspectionsParcelle",
      "outputs": [],
      "stateMutability": "nonpayable",
      "type": "function"
    },
    {
      "inputs": [
        {
          "internalType": "uint32",
          "name": "_idParcelle",
          "type": "uint32"
        },
        {
          "internalType": "string",
          "name": "_cidIntrants",
          "type": "string"
        }
      ],
      "name": "mettreAJourIntrantsParcelle",
      "outputs": [],
      "stateMutability": "nonpayable",
      "type": "function"
    },
    {
      "inputs": [
        {
          "internalType": "uint32",
          "name": "_idParcelle",
          "type": "uint32"
        },
        {
          "internalType": "string",
          "name": "_cidPhotos",
          "type": "string"
        }
      ],
      "name": "mettreAJourPhotosParcelle",
      "outputs": [],
      "stateMutability": "nonpayable",
      "type": "function"
    },
    {
      "inputs": [
        {
          "internalType": "uint32",
          "name": "",
          "type": "uint32"
        }
      ],
      "name": "parcelles",
      "outputs": [
        {
          "internalType": "uint32",
          "name": "id",
          "type": "uint32"
        },
        {
          "internalType": "address",
          "name": "producteur",
          "type": "address"
        },
        {
          "internalType": "string",
          "name": "cid",
          "type": "string"
        },
        {
          "internalType": "string",
          "name": "hashMerkle",
          "type": "string"
        }
      ],
      "stateMutability": "view",
      "type": "function"
    },
    {
      "stateMutability": "payable",
      "type": "receive"
    }
  ],
  "bytecode": "0x608060405234801561001057600080fd5b50611db6806100206000396000f3fe6080604052600436106100c65760003560e01c806396e031e61161007f578063be7a880e11610059578063be7a880e14610271578063ca4b34c41461029a578063cda36e63146102c3578063f54e44fc146102ee576100cd565b806396e031e6146101f45780639e942cd41461021d578063bd6e11d514610248576100cd565b80630fb8af74146100cf5780631912121d146100f857806331686f4114610138578063421b3e08146101635780634fbdf4fe146101a057806361153ee9146101c9576100cd565b366100cd57005b005b3480156100db57600080fd5b506100f660048036038101906100f1919061155b565b610319565b005b34801561010457600080fd5b5061011f600480360381019061011a9190611532565b61058a565b60405161012f9493929190611a41565b60405180910390f35b34801561014457600080fd5b5061014d6106fa565b60405161015a9190611a26565b60405180910390f35b34801561016f57600080fd5b5061018a60048036038101906101859190611532565b610714565b6040516101979190611a04565b60405180910390f35b3480156101ac57600080fd5b506101c760048036038101906101c2919061149f565b6108ed565b005b3480156101d557600080fd5b506101de61099b565b6040516101eb9190611a26565b60405180910390f35b34801561020057600080fd5b5061021b6004803603810190610216919061155b565b6109b1565b005b34801561022957600080fd5b50610232610a4d565b60405161023f9190611929565b60405180910390f35b34801561025457600080fd5b5061026f600480360381019061026a919061155b565b610a71565b005b34801561027d57600080fd5b506102986004803603810190610293919061155b565b610ce2565b005b3480156102a657600080fd5b506102c160048036038101906102bc91906114f1565b610f53565b005b3480156102cf57600080fd5b506102d86112e5565b6040516102e59190611a26565b60405180910390f35b3480156102fa57600080fd5b506103036112fb565b6040516103109190611a26565b60405180910390f35b60008054906101000a900473ffffffffffffffffffffffffffffffffffffffff1673ffffffffffffffffffffffffffffffffffffffff1663d1e47bb33360046040518363ffffffff1660e01b8152600401610375929190611900565b60206040518083038186803b15801561038d57600080fd5b505afa1580156103a1573d6000803e3d6000fd5b505050506040513d601f19601f820116820180604052508101906103c591906114c8565b610404576040517f08c379a00000000000000000000000000000000000000000000000000000000081526004016103fb90611944565b60405180910390fd5b60008054906101000a900473ffffffffffffffffffffffffffffffffffffffff1673ffffffffffffffffffffffffffffffffffffffff16639f7d7f4533306040518363ffffffff1660e01b815260040161045f9291906118d7565b60206040518083038186803b15801561047757600080fd5b505afa15801561048b573d6000803e3d6000fd5b505050506040513d601f19601f820116820180604052508101906104af91906114c8565b6104ee576040517f08c379a00000000000000000000000000000000000000000000000000000000081526004016104e5906119a4565b60405180910390fd5b600260009054906101000a900463ffffffff1663ffffffff168263ffffffff16111561054f576040517f08c379a000000000000000000000000000000000000000000000000000000000815260040161054690611984565b60405180910390fd5b80600160008463ffffffff1663ffffffff1681526020019081526020016000206001019080519060200190610585929190611311565b505050565b60016020528060005260406000206000915090508060000160009054906101000a900463ffffffff16908060000160049054906101000a900473ffffffffffffffffffffffffffffffffffffffff16908060010180546105e990611bfb565b80601f016020809104026020016040519081016040528092919081815260200182805461061590611bfb565b80156106625780601f1061063757610100808354040283529160200191610662565b820191906000526020600020905b81548152906001019060200180831161064557829003601f168201915b50505050509080600201805461067790611bfb565b80601f01602080910402602001604051908101604052809291908181526020018280546106a390611bfb565b80156106f05780601f106106c5576101008083540402835291602001916106f0565b820191906000526020600020905b8154815290600101906020018083116106d357829003601f168201915b5050505050905084565b6000600260009054906101000a900463ffffffff16905090565b61071c611397565b600160008363ffffffff1663ffffffff1681526020019081526020016000206040518060800160405290816000820160009054906101000a900463ffffffff1663ffffffff1663ffffffff1681526020016000820160049054906101000a900473ffffffffffffffffffffffffffffffffffffffff1673ffffffffffffffffffffffffffffffffffffffff1673ffffffffffffffffffffffffffffffffffffffff1681526020016001820180546107d290611bfb565b80601f01602080910402602001604051908101604052809291908181526020018280546107fe90611bfb565b801561084b5780601f106108205761010080835404028352916020019161084b565b820191906000526020600020905b81548152906001019060200180831161082e57829003601f168201915b5050505050815260200160028201805461086490611bfb565b80601f016020809104026020016040519081016040528092919081815260200182805461089090611bfb565b80156108dd5780601f106108b2576101008083540402835291602001916108dd565b820191906000526020600020905b8154815290600101906020018083116108c057829003601f168201915b5050505050815250509050919050565b6002600c9054906101000a900460ff161561093d576040517f08c379a0000000000000000000000000000000000000000000000000000000008152600401610934906119e4565b60405180910390fd5b806000806101000a81548173ffffffffffffffffffffffffffffffffffffffff021916908373ffffffffffffffffffffffffffffffffffffffff16021790555060016002600c6101000a81548160ff02191690831515021790555050565b600260009054906101000a900463ffffffff1681565b600260009054906101000a900463ffffffff1663ffffffff168263ffffffff161115610a12576040517f08c379a0000000000000000000000000000000000000000000000000000000008152600401610a0990611984565b60405180910390fd5b80600160008463ffffffff1663ffffffff1681526020019081526020016000206002019080519060200190610a48929190611311565b505050565b60008054906101000a900473ffffffffffffffffffffffffffffffffffffffff1681565b60008054906101000a900473ffffffffffffffffffffffffffffffffffffffff1673ffffffffffffffffffffffffffffffffffffffff1663d1e47bb33360016040518363ffffffff1660e01b8152600401610acd929190611900565b60206040518083038186803b158015610ae557600080fd5b505afa158015610af9573d6000803e3d6000fd5b505050506040513d601f19601f82011682018060405250810190610b1d91906114c8565b610b5c576040517f08c379a0000000000000000000000000000000000000000000000000000000008152600401610b53906119c4565b60405180910390fd5b60008054906101000a900473ffffffffffffffffffffffffffffffffffffffff1673ffffffffffffffffffffffffffffffffffffffff16639f7d7f4533306040518363ffffffff1660e01b8152600401610bb79291906118d7565b60206040518083038186803b158015610bcf57600080fd5b505afa158015610be3573d6000803e3d6000fd5b505050506040513d601f19601f82011682018060405250810190610c0791906114c8565b610c46576040517f08c379a0000000000000000000000000000000000000000000000000000000008152600401610c3d906119a4565b60405180910390fd5b600260009054906101000a900463ffffffff1663ffffffff168263ffffffff161115610ca7576040517f08c379a0000000000000000000000000000000000000000000000000000000008152600401610c9e90611984565b60405180910390fd5b80600160008463ffffffff1663ffffffff1681526020019081526020016000206001019080519060200190610cdd929190611311565b505050565b60008054906101000a900473ffffffffffffffffffffffffffffffffffffffff1673ffffffffffffffffffffffffffffffffffffffff1663d1e47bb33360006040518363ffffffff1660e01b8152600401610d3e929190611900565b60206040518083038186803b158015610d5657600080fd5b505afa158015610d6a573d6000803e3d6000fd5b505050506040513d601f19601f82011682018060405250810190610d8e91906114c8565b610dcd576040517f08c379a0000000000000000000000000000000000000000000000000000000008152600401610dc490611964565b60405180910390fd5b60008054906101000a900473ffffffffffffffffffffffffffffffffffffffff1673ffffffffffffffffffffffffffffffffffffffff16639f7d7f4533306040518363ffffffff1660e01b8152600401610e289291906118d7565b60206040518083038186803b158015610e4057600080fd5b505afa158015610e54573d6000803e3d6000fd5b505050506040513d601f19601f82011682018060405250810190610e7891906114c8565b610eb7576040517f08c379a0000000000000000000000000000000000000000000000000000000008152600401610eae906119a4565b60405180910390fd5b600260009054906101000a900463ffffffff1663ffffffff168263ffffffff161115610f18576040517f08c379a0000000000000000000000000000000000000000000000000000000008152600401610f0f90611984565b60405180910390fd5b80600160008463ffffffff1663ffffffff1681526020019081526020016000206001019080519060200190610f4e929190611311565b505050565b60008054906101000a900473ffffffffffffffffffffffffffffffffffffffff1673ffffffffffffffffffffffffffffffffffffffff1663d1e47bb33360006040518363ffffffff1660e01b8152600401610faf929190611900565b60206040518083038186803b158015610fc757600080fd5b505afa158015610fdb573d6000803e3d6000fd5b505050506040513d601f19601f82011682018060405250810190610fff91906114c8565b61103e576040517f08c379a000000000000000000000000000000000000000000000000000000000815260040161103590611964565b60405180910390fd5b60008054906101000a900473ffffffffffffffffffffffffffffffffffffffff1673ffffffffffffffffffffffffffffffffffffffff16639f7d7f4533306040518363ffffffff1660e01b81526004016110999291906118d7565b60206040518083038186803b1580156110b157600080fd5b505afa1580156110c5573d6000803e3d6000fd5b505050506040513d601f19601f820116820180604052508101906110e991906114c8565b611128576040517f08c379a000000000000000000000000000000000000000000000000000000000815260040161111f906119a4565b60405180910390fd5b6002600081819054906101000a900463ffffffff168092919061114a90611c2d565b91906101000a81548163ffffffff021916908363ffffffff16021790555050600260009054906101000a900463ffffffff1660016000600260009054906101000a900463ffffffff1663ffffffff1663ffffffff16815260200190815260200160002060000160006101000a81548163ffffffff021916908363ffffffff1602179055503360016000600260009054906101000a900463ffffffff1663ffffffff1663ffffffff16815260200190815260200160002060000160046101000a81548173ffffffffffffffffffffffffffffffffffffffff021916908373ffffffffffffffffffffffffffffffffffffffff1602179055508060016000600260009054906101000a900463ffffffff1663ffffffff1663ffffffff1681526020019081526020016000206001019080519060200190611289929190611311565b506040518060200160405280600081525060016000600260009054906101000a900463ffffffff1663ffffffff1663ffffffff16815260200190815260200160002060020190805190602001906112e1929190611311565b5050565b600260049054906101000a900463ffffffff1681565b600260089054906101000a900463ffffffff1681565b82805461131d90611bfb565b90600052602060002090601f01602090048101928261133f5760008555611386565b82601f1061135857805160ff1916838001178555611386565b82800160010185558215611386579182015b8281111561138557825182559160200191906001019061136a565b5b50905061139391906113db565b5090565b6040518060800160405280600063ffffffff168152602001600073ffffffffffffffffffffffffffffffffffffffff16815260200160608152602001606081525090565b5b808211156113f45760008160009055506001016113dc565b5090565b600061140b61140684611ac5565b611a94565b90508281526020810184848401111561142357600080fd5b61142e848285611bb9565b509392505050565b60008135905061144581611d3b565b92915050565b60008151905061145a81611d52565b92915050565b600082601f83011261147157600080fd5b81356114818482602086016113f8565b91505092915050565b60008135905061149981611d69565b92915050565b6000602082840312156114b157600080fd5b60006114bf84828501611436565b91505092915050565b6000602082840312156114da57600080fd5b60006114e88482850161144b565b91505092915050565b60006020828403121561150357600080fd5b600082013567ffffffffffffffff81111561151d57600080fd5b61152984828501611460565b91505092915050565b60006020828403121561154457600080fd5b60006115528482850161148a565b91505092915050565b6000806040838503121561156e57600080fd5b600061157c8582860161148a565b925050602083013567ffffffffffffffff81111561159957600080fd5b6115a585828601611460565b9150509250929050565b6115b881611b22565b82525050565b6115c781611b22565b82525050565b6115d681611b83565b82525050565b6115e581611ba7565b82525050565b60006115f682611af5565b6116008185611b00565b9350611610818560208601611bc8565b61161981611d16565b840191505092915050565b600061162f82611af5565b6116398185611b11565b9350611649818560208601611bc8565b61165281611d16565b840191505092915050565b600061166a602083611b11565b91507f4e6f6e206175746f726973653a207365756c656d656e742041756469746575726000830152602082019050919050565b60006116aa602283611b11565b91507f4e6f6e206175746f726973653a207365756c656d656e742050726f647563746560008301527f75720000000000000000000000000000000000000000000000000000000000006020830152604082019050919050565b6000611710601683611b11565b91507f50617263656c6c65206e6f6e206578697374616e742e000000000000000000006000830152602082019050919050565b6000611750602183611b11565b91507f4e6f6e206175746f726973653a20636f6e74726174206e6f6e2064656c65677560008301527f65000000000000000000000000000000000000000000000000000000000000006020830152604082019050919050565b60006117b6602383611b11565b91507f4e6f6e206175746f726973653a207365756c656d656e7420466f75726e69737360008301527f65757200000000000000000000000000000000000000000000000000000000006020830152604082019050919050565b600061181c601a83611b11565b91507f436f6e747261742064656a6120696e697469616c6973657220210000000000006000830152602082019050919050565b600060808301600083015161186760008601826118b9565b50602083015161187a60208601826115af565b506040830151848203604086015261189282826115eb565b915050606083015184820360608601526118ac82826115eb565b9150508091505092915050565b6118c281611b73565b82525050565b6118d181611b73565b82525050565b60006040820190506118ec60008301856115be565b6118f960208301846115be565b9392505050565b600060408201905061191560008301856115be565b61192260208301846115dc565b9392505050565b600060208201905061193e60008301846115cd565b92915050565b6000602082019050818103600083015261195d8161165d565b9050919050565b6000602082019050818103600083015261197d8161169d565b9050919050565b6000602082019050818103600083015261199d81611703565b9050919050565b600060208201905081810360008301526119bd81611743565b9050919050565b600060208201905081810360008301526119dd816117a9565b9050919050565b600060208201905081810360008301526119fd8161180f565b9050919050565b60006020820190508181036000830152611a1e818461184f565b905092915050565b6000602082019050611a3b60008301846118c8565b92915050565b6000608082019050611a5660008301876118c8565b611a6360208301866115be565b8181036040830152611a758185611624565b90508181036060830152611a898184611624565b905095945050505050565b6000604051905081810181811067ffffffffffffffff82111715611abb57611aba611ce7565b5b8060405250919050565b600067ffffffffffffffff821115611ae057611adf611ce7565b5b601f19601f8301169050602081019050919050565b600081519050919050565b600082825260208201905092915050565b600082825260208201905092915050565b6000611b2d82611b53565b9050919050565b60008115159050919050565b6000819050611b4e82611d27565b919050565b600073ffffffffffffffffffffffffffffffffffffffff82169050919050565b600063ffffffff82169050919050565b6000611b8e82611b95565b9050919050565b6000611ba082611b53565b9050919050565b6000611bb282611b40565b9050919050565b82818337600083830152505050565b60005b83811015611be6578082015181840152602081019050611bcb565b83811115611bf5576000848401525b50505050565b60006002820490506001821680611c1357607f821691505b60208210811415611c2757611c26611cb8565b5b50919050565b6000611c3882611b73565b915063ffffffff821415611c4f57611c4e611c5a565b5b600182019050919050565b7f4e487b7100000000000000000000000000000000000000000000000000000000600052601160045260246000fd5b7f4e487b7100000000000000000000000000000000000000000000000000000000600052602160045260246000fd5b7f4e487b7100000000000000000000000000000000000000000000000000000000600052602260045260246000fd5b7f4e487b7100000000000000000000000000000000000000000000000000000000600052604160045260246000fd5b6000601f19601f8301169050919050565b60088110611d3857611d37611c89565b5b50565b611d4481611b22565b8114611d4f57600080fd5b50565b611d5b81611b34565b8114611d6657600080fd5b50565b611d7281611b73565b8114611d7d57600080fd5b5056fea2646970667358221220aec76dc3410761722887e7f6beeb038fce2f66085445247d0c60243863f5d53764736f6c63430008000033",
  "linkReferences": {},
  "deployedLinkReferences": {}
}