{
  "_format": "hh-sol-artifact-1",
  "contractName": "ProducteurEnPhaseCulture",
  "sourceName": "contracts/ProducteurEnPhaseCulture.sol",
  "abi": [
    {
      "stateMutability": "payable",
      "type": "fallback"
    },
    {
      "inputs": [
        {
          "internalType": "address",
          "name": "",
          "type": "address"
        }
      ],
      "name": "acteurs",
      "outputs": [
        {
          "internalType": "address",
          "name": "addr",
          "type": "address"
        },
        {
          "internalType": "enum StructLib.Role",
          "name": "role",
          "type": "uint8"
        }
      ],
      "stateMutability": "view",
      "type": "function"
    },
    {
      "inputs": [
        {
          "internalType": "uint32",
          "name": "_idParcelle",
          "type": "uint32"
        },
        {
          "internalType": "string",
          "name": "_rapport",
          "type": "string"
        }
      ],
      "name": "ajouterInspection",
      "outputs": [],
      "stateMutability": "nonpayable",
      "type": "function"
    },
    {
      "inputs": [
        {
          "internalType": "uint32",
          "name": "_idParcelle",
          "type": "uint32"
        },
        {
          "internalType": "string",
          "name": "_nom",
          "type": "string"
        },
        {
          "internalType": "uint32",
          "name": "_quantite",
          "type": "uint32"
        }
      ],
      "name": "ajouterIntrant",
      "outputs": [],
      "stateMutability": "nonpayable",
      "type": "function"
    },
    {
      "inputs": [
        {
          "internalType": "uint32",
          "name": "_idParcelle",
          "type": "uint32"
        },
        {
          "internalType": "string",
          "name": "_urlPhoto",
          "type": "string"
        }
      ],
      "name": "ajouterPhoto",
      "outputs": [],
      "stateMutability": "nonpayable",
      "type": "function"
    },
    {
      "inputs": [
        {
          "internalType": "uint32",
          "name": "_idParcelle",
          "type": "uint32"
        },
        {
          "internalType": "bool",
          "name": "_passe",
          "type": "bool"
        }
      ],
      "name": "appliquerControlePhytosanitaire",
      "outputs": [],
      "stateMutability": "nonpayable",
      "type": "function"
    },
    {
      "inputs": [],
      "name": "compteurActeurs",
      "outputs": [
        {
          "internalType": "uint32",
          "name": "",
          "type": "uint32"
        }
      ],
      "stateMutability": "view",
      "type": "function"
    },
    {
      "inputs": [],
      "name": "compteurInspections",
      "outputs": [
        {
          "internalType": "uint32",
          "name": "",
          "type": "uint32"
        }
      ],
      "stateMutability": "view",
      "type": "function"
    },
    {
      "inputs": [],
      "name": "compteurParcelles",
      "outputs": [
        {
          "internalType": "uint32",
          "name": "",
          "type": "uint32"
        }
      ],
      "stateMutability": "view",
      "type": "function"
    },
    {
      "inputs": [
        {
          "internalType": "string",
          "name": "_qualiteSemence",
          "type": "string"
        },
        {
          "internalType": "string",
          "name": "_methodeCulture",
          "type": "string"
        },
        {
          "internalType": "string",
          "name": "_latitude",
          "type": "string"
        },
        {
          "internalType": "string",
          "name": "_longitude",
          "type": "string"
        },
        {
          "internalType": "string",
          "name": "_dateRecolte",
          "type": "string"
        },
        {
          "internalType": "string",
          "name": "_certificatPhytosanitaire",
          "type": "string"
        }
      ],
      "name": "creerParcelle",
      "outputs": [],
      "stateMutability": "nonpayable",
      "type": "function"
    },
    {
      "inputs": [
        {
          "internalType": "address",
          "name": "_acteur",
          "type": "address"
        },
        {
          "internalType": "enum StructLib.Role",
          "name": "_role",
          "type": "uint8"
        }
      ],
      "name": "enregistrerActeur",
      "outputs": [],
      "stateMutability": "nonpayable",
      "type": "function"
    },
    {
      "inputs": [
        {
          "internalType": "address",
          "name": "addr",
          "type": "address"
        }
      ],
      "name": "getActeur",
      "outputs": [
        {
          "components": [
            {
              "internalType": "address",
              "name": "addr",
              "type": "address"
            },
            {
              "internalType": "enum StructLib.Role",
              "name": "role",
              "type": "uint8"
            }
          ],
          "internalType": "struct StructLib.Acteur",
          "name": "",
          "type": "tuple"
        }
      ],
      "stateMutability": "view",
      "type": "function"
    },
    {
      "inputs": [],
      "name": "getCompteurInspection",
      "outputs": [
        {
          "internalType": "uint32",
          "name": "",
          "type": "uint32"
        }
      ],
      "stateMutability": "view",
      "type": "function"
    },
    {
      "inputs": [],
      "name": "getCompteurParcelle",
      "outputs": [
        {
          "internalType": "uint32",
          "name": "",
          "type": "uint32"
        }
      ],
      "stateMutability": "view",
      "type": "function"
    },
    {
      "inputs": [
        {
          "internalType": "uint32",
          "name": "idParcelle",
          "type": "uint32"
        }
      ],
      "name": "getConditions",
      "outputs": [
        {
          "components": [
            {
              "internalType": "uint32",
              "name": "id",
              "type": "uint32"
            },
            {
              "internalType": "string",
              "name": "temperature",
              "type": "string"
            },
            {
              "internalType": "string",
              "name": "humidite",
              "type": "string"
            },
            {
              "internalType": "uint256",
              "name": "timestamp",
              "type": "uint256"
            }
          ],
          "internalType": "struct StructLib.EnregistrementCondition[]",
          "name": "",
          "type": "tuple[]"
        }
      ],
      "stateMutability": "view",
      "type": "function"
    },
    {
      "inputs": [
        {
          "internalType": "uint32",
          "name": "idParcelle",
          "type": "uint32"
        }
      ],
      "name": "getInspections",
      "outputs": [
        {
          "components": [
            {
              "internalType": "uint32",
              "name": "id",
              "type": "uint32"
            },
            {
              "internalType": "address",
              "name": "auditeur",
              "type": "address"
            },
            {
              "internalType": "string",
              "name": "rapport",
              "type": "string"
            },
            {
              "internalType": "uint256",
              "name": "timestamp",
              "type": "uint256"
            }
          ],
          "internalType": "struct StructLib.Inspection[]",
          "name": "",
          "type": "tuple[]"
        }
      ],
      "stateMutability": "view",
      "type": "function"
    },
    {
      "inputs": [
        {
          "internalType": "uint32",
          "name": "idParcelle",
          "type": "uint32"
        }
      ],
      "name": "getIntrants",
      "outputs": [
        {
          "components": [
            {
              "internalType": "string",
              "name": "nom",
              "type": "string"
            },
            {
              "internalType": "uint32",
              "name": "quantite",
              "type": "uint32"
            },
            {
              "internalType": "bool",
              "name": "valide",
              "type": "bool"
            }
          ],
          "internalType": "struct StructLib.Intrant[]",
          "name": "",
          "type": "tuple[]"
        }
      ],
      "stateMutability": "view",
      "type": "function"
    },
    {
      "inputs": [
        {
          "internalType": "uint32",
          "name": "id",
          "type": "uint32"
        }
      ],
      "name": "getParcelle",
      "outputs": [
        {
          "components": [
            {
              "internalType": "uint32",
              "name": "id",
              "type": "uint32"
            },
            {
              "internalType": "address",
              "name": "producteur",
              "type": "address"
            },
            {
              "internalType": "string",
              "name": "qualiteSemence",
              "type": "string"
            },
            {
              "internalType": "string",
              "name": "methodeCulture",
              "type": "string"
            },
            {
              "internalType": "bool",
              "name": "certifie",
              "type": "bool"
            },
            {
              "internalType": "enum StructLib.Etape",
              "name": "etape",
              "type": "uint8"
            },
            {
              "internalType": "string",
              "name": "latitude",
              "type": "string"
            },
            {
              "internalType": "string",
              "name": "longitude",
              "type": "string"
            },
            {
              "internalType": "string[]",
              "name": "photos",
              "type": "string[]"
            },
            {
              "components": [
                {
                  "internalType": "string",
                  "name": "nom",
                  "type": "string"
                },
                {
                  "internalType": "uint32",
                  "name": "quantite",
                  "type": "uint32"
                },
                {
                  "internalType": "bool",
                  "name": "valide",
                  "type": "bool"
                }
              ],
              "internalType": "struct StructLib.Intrant[]",
              "name": "intrants",
              "type": "tuple[]"
            },
            {
              "components": [
                {
                  "internalType": "uint32",
                  "name": "id",
                  "type": "uint32"
                },
                {
                  "internalType": "address",
                  "name": "auditeur",
                  "type": "address"
                },
                {
                  "internalType": "string",
                  "name": "rapport",
                  "type": "string"
                },
                {
                  "internalType": "uint256",
                  "name": "timestamp",
                  "type": "uint256"
                }
              ],
              "internalType": "struct StructLib.Inspection[]",
              "name": "inspections",
              "type": "tuple[]"
            },
            {
              "components": [
                {
                  "internalType": "uint32",
                  "name": "id",
                  "type": "uint32"
                },
                {
                  "internalType": "string",
                  "name": "temperature",
                  "type": "string"
                },
                {
                  "internalType": "string",
                  "name": "humidite",
                  "type": "string"
                },
                {
                  "internalType": "uint256",
                  "name": "timestamp",
                  "type": "uint256"
                }
              ],
              "internalType": "struct StructLib.EnregistrementCondition[]",
              "name": "conditions",
              "type": "tuple[]"
            },
            {
              "internalType": "string",
              "name": "dateRecolte",
              "type": "string"
            },
            {
              "internalType": "string",
              "name": "certificatPhytosanitaire",
              "type": "string"
            }
          ],
          "internalType": "struct StructLib.Parcelle",
          "name": "",
          "type": "tuple"
        }
      ],
      "stateMutability": "view",
      "type": "function"
    },
    {
      "inputs": [
        {
          "internalType": "uint32",
          "name": "idParcelle",
          "type": "uint32"
        }
      ],
      "name": "getPhotos",
      "outputs": [
        {
          "internalType": "string[]",
          "name": "",
          "type": "string[]"
        }
      ],
      "stateMutability": "view",
      "type": "function"
    },
    {
      "inputs": [
        {
          "internalType": "uint32",
          "name": "_idParcelle",
          "type": "uint32"
        },
        {
          "internalType": "enum StructLib.Etape",
          "name": "_etape",
          "type": "uint8"
        }
      ],
      "name": "mettreAJourEtape",
      "outputs": [],
      "stateMutability": "nonpayable",
      "type": "function"
    },
    {
      "inputs": [
        {
          "internalType": "uint32",
          "name": "",
          "type": "uint32"
        }
      ],
      "name": "parcelles",
      "outputs": [
        {
          "internalType": "uint32",
          "name": "id",
          "type": "uint32"
        },
        {
          "internalType": "address",
          "name": "producteur",
          "type": "address"
        },
        {
          "internalType": "string",
          "name": "qualiteSemence",
          "type": "string"
        },
        {
          "internalType": "string",
          "name": "methodeCulture",
          "type": "string"
        },
        {
          "internalType": "bool",
          "name": "certifie",
          "type": "bool"
        },
        {
          "internalType": "enum StructLib.Etape",
          "name": "etape",
          "type": "uint8"
        },
        {
          "internalType": "string",
          "name": "latitude",
          "type": "string"
        },
        {
          "internalType": "string",
          "name": "longitude",
          "type": "string"
        },
        {
          "internalType": "string",
          "name": "dateRecolte",
          "type": "string"
        },
        {
          "internalType": "string",
          "name": "certificatPhytosanitaire",
          "type": "string"
        }
      ],
      "stateMutability": "view",
      "type": "function"
    },
    {
      "inputs": [
        {
          "internalType": "uint32",
          "name": "_idParcelle",
          "type": "uint32"
        },
        {
          "internalType": "string",
          "name": "_nom",
          "type": "string"
        },
        {
          "internalType": "bool",
          "name": "_valide",
          "type": "bool"
        }
      ],
      "name": "validerIntrant",
      "outputs": [],
      "stateMutability": "nonpayable",
      "type": "function"
    },
    {
      "stateMutability": "payable",
      "type": "receive"
    }
  ],
  "bytecode": "0x608060405234801561001057600080fd5b50614433806100206000396000f3fe60806040526004361061012e5760003560e01c80639462fa1e116100ab578063d1aa5bbe1161006f578063d1aa5bbe146103ed578063ddb45fec1461042b578063e1e6773314610468578063ece32cd7146104a5578063f03d9af6146104ce578063fe32398a1461050b57610135565b80639462fa1e1461031c578063a149918c14610345578063b96cc76f1461036e578063cda36e6314610397578063d16d5109146103c257610135565b80635d5efef9116100f25780635d5efef9146102375780635ee250791461027457806361153ee91461029d5780637bc6edd1146102c857806389051cb2146102f157610135565b806304bfefce146101375780631912121d1461016057806331686f41146101a65780633ab62bd7146101d1578063421b3e08146101fa57610135565b3661013557005b005b34801561014357600080fd5b5061015e600480360381019061015991906131f5565b610548565b005b34801561016c57600080fd5b5061018760048036038101906101829190613100565b6107ea565b60405161019d9a99989796959493929190613ec4565b60405180910390f35b3480156101b257600080fd5b506101bb610bb8565b6040516101c89190613ea9565b60405180910390f35b3480156101dd57600080fd5b506101f860048036038101906101f391906131a1565b610bd2565b005b34801561020657600080fd5b50610221600480360381019061021c9190613100565b610d33565b60405161022e9190613e87565b60405180910390f35b34801561024357600080fd5b5061025e60048036038101906102599190613100565b61172c565b60405161026b9190613daa565b60405180910390f35b34801561028057600080fd5b5061029b6004803603810190610296919061325c565b611880565b005b3480156102a957600080fd5b506102b2611a5b565b6040516102bf9190613ea9565b60405180910390f35b3480156102d457600080fd5b506102ef60048036038101906102ea91906131a1565b611a71565b005b3480156102fd57600080fd5b50610306611ce8565b6040516103139190613ea9565b60405180910390f35b34801561032857600080fd5b50610343600480360381019061033e9190613165565b611cfe565b005b34801561035157600080fd5b5061036c60048036038101906103679190612fe7565b611e73565b005b34801561037a57600080fd5b5061039560048036038101906103909190612fab565b61231b565b005b3480156103a357600080fd5b506103ac6124a1565b6040516103b99190613ea9565b60405180910390f35b3480156103ce57600080fd5b506103d76124b7565b6040516103e49190613ea9565b60405180910390f35b3480156103f957600080fd5b50610414600480360381019061040f9190612f82565b6124d1565b604051610422929190613d1b565b60405180910390f35b34801561043757600080fd5b50610452600480360381019061044d9190613100565b612522565b60405161045f9190613d88565b60405180910390f35b34801561047457600080fd5b5061048f600480360381019061048a9190613100565b6126bb565b60405161049c9190613d66565b60405180910390f35b3480156104b157600080fd5b506104cc60048036038101906104c79190613129565b612890565b005b3480156104da57600080fd5b506104f560048036038101906104f09190613100565b612ab1565b6040516105029190613d44565b60405180910390f35b34801561051757600080fd5b50610532600480360381019061052d9190612f82565b612bac565b60405161053f9190613e6c565b60405180910390f35b60026006811115610582577f4e487b7100000000000000000000000000000000000000000000000000000000600052602160045260246000fd5b6000803373ffffffffffffffffffffffffffffffffffffffff1673ffffffffffffffffffffffffffffffffffffffff16815260200190815260200160002060000160149054906101000a900460ff166006811115610609577f4e487b7100000000000000000000000000000000000000000000000000000000600052602160045260246000fd5b14610649576040517f08c379a000000000000000000000000000000000000000000000000000000000815260040161064090613e0c565b60405180910390fd5b60005b600260008563ffffffff1663ffffffff168152602001908152602001600020600701805490508163ffffffff1610156107e457826040516020016106909190613ced565b60405160208183030381529060405280519060200120600260008663ffffffff1663ffffffff1681526020019081526020016000206007018263ffffffff1681548110610706577f4e487b7100000000000000000000000000000000000000000000000000000000600052603260045260246000fd5b90600052602060002090600202016000016040516020016107279190613d04565b6040516020818303038152906040528051906020012014156107d15781600260008663ffffffff1663ffffffff1681526020019081526020016000206007018263ffffffff16815481106107a4577f4e487b7100000000000000000000000000000000000000000000000000000000600052603260045260246000fd5b906000526020600020906002020160010160046101000a81548160ff0219169083151502179055506107e4565b80806107dc90614276565b91505061064c565b50505050565b60026020528060005260406000206000915090508060000160009054906101000a900463ffffffff16908060000160049054906101000a900473ffffffffffffffffffffffffffffffffffffffff169080600101805461084990614244565b80601f016020809104026020016040519081016040528092919081815260200182805461087590614244565b80156108c25780601f10610897576101008083540402835291602001916108c2565b820191906000526020600020905b8154815290600101906020018083116108a557829003601f168201915b5050505050908060020180546108d790614244565b80601f016020809104026020016040519081016040528092919081815260200182805461090390614244565b80156109505780601f1061092557610100808354040283529160200191610950565b820191906000526020600020905b81548152906001019060200180831161093357829003601f168201915b5050505050908060030160009054906101000a900460ff16908060030160019054906101000a900460ff169080600401805461098b90614244565b80601f01602080910402602001604051908101604052809291908181526020018280546109b790614244565b8015610a045780601f106109d957610100808354040283529160200191610a04565b820191906000526020600020905b8154815290600101906020018083116109e757829003601f168201915b505050505090806005018054610a1990614244565b80601f0160208091040260200160405190810160405280929190818152602001828054610a4590614244565b8015610a925780601f10610a6757610100808354040283529160200191610a92565b820191906000526020600020905b815481529060010190602001808311610a7557829003601f168201915b50505050509080600a018054610aa790614244565b80601f0160208091040260200160405190810160405280929190818152602001828054610ad390614244565b8015610b205780601f10610af557610100808354040283529160200191610b20565b820191906000526020600020905b815481529060010190602001808311610b0357829003601f168201915b50505050509080600b018054610b3590614244565b80601f0160208091040260200160405190810160405280929190818152602001828054610b6190614244565b8015610bae5780601f10610b8357610100808354040283529160200191610bae565b820191906000526020600020905b815481529060010190602001808311610b9157829003601f168201915b505050505090508a565b6000600360009054906101000a900463ffffffff16905090565b60006006811115610c0c577f4e487b7100000000000000000000000000000000000000000000000000000000600052602160045260246000fd5b6000803373ffffffffffffffffffffffffffffffffffffffff1673ffffffffffffffffffffffffffffffffffffffff16815260200190815260200160002060000160149054906101000a900460ff166006811115610c93577f4e487b7100000000000000000000000000000000000000000000000000000000600052602160045260246000fd5b14610cd3576040517f08c379a0000000000000000000000000000000000000000000000000000000008152600401610cca90613dec565b60405180910390fd5b600260008363ffffffff1663ffffffff16815260200190815260200160002060060181908060018154018082558091505060019003906000526020600020016000909190919091509080519060200190610d2e929190612ce1565b505050565b610d3b612d67565b600260008363ffffffff1663ffffffff168152602001908152602001600020604051806101c00160405290816000820160009054906101000a900463ffffffff1663ffffffff1663ffffffff1681526020016000820160049054906101000a900473ffffffffffffffffffffffffffffffffffffffff1673ffffffffffffffffffffffffffffffffffffffff1673ffffffffffffffffffffffffffffffffffffffff168152602001600182018054610df290614244565b80601f0160208091040260200160405190810160405280929190818152602001828054610e1e90614244565b8015610e6b5780601f10610e4057610100808354040283529160200191610e6b565b820191906000526020600020905b815481529060010190602001808311610e4e57829003601f168201915b50505050508152602001600282018054610e8490614244565b80601f0160208091040260200160405190810160405280929190818152602001828054610eb090614244565b8015610efd5780601f10610ed257610100808354040283529160200191610efd565b820191906000526020600020905b815481529060010190602001808311610ee057829003601f168201915b505050505081526020016003820160009054906101000a900460ff161515151581526020016003820160019054906101000a900460ff166003811115610f6c577f4e487b7100000000000000000000000000000000000000000000000000000000600052602160045260246000fd5b6003811115610fa4577f4e487b7100000000000000000000000000000000000000000000000000000000600052602160045260246000fd5b8152602001600482018054610fb890614244565b80601f0160208091040260200160405190810160405280929190818152602001828054610fe490614244565b80156110315780601f1061100657610100808354040283529160200191611031565b820191906000526020600020905b81548152906001019060200180831161101457829003601f168201915b5050505050815260200160058201805461104a90614244565b80601f016020809104026020016040519081016040528092919081815260200182805461107690614244565b80156110c35780601f10611098576101008083540402835291602001916110c3565b820191906000526020600020905b8154815290600101906020018083116110a657829003601f168201915b5050505050815260200160068201805480602002602001604051908101604052809291908181526020016000905b8282101561119d57838290600052602060002001805461111090614244565b80601f016020809104026020016040519081016040528092919081815260200182805461113c90614244565b80156111895780601f1061115e57610100808354040283529160200191611189565b820191906000526020600020905b81548152906001019060200180831161116c57829003601f168201915b5050505050815260200190600101906110f1565b50505050815260200160078201805480602002602001604051908101604052809291908181526020016000905b828210156112cf57838290600052602060002090600202016040518060600160405290816000820180546111fd90614244565b80601f016020809104026020016040519081016040528092919081815260200182805461122990614244565b80156112765780601f1061124b57610100808354040283529160200191611276565b820191906000526020600020905b81548152906001019060200180831161125957829003601f168201915b505050505081526020016001820160009054906101000a900463ffffffff1663ffffffff1663ffffffff1681526020016001820160049054906101000a900460ff161515151581525050815260200190600101906111ca565b50505050815260200160088201805480602002602001604051908101604052809291908181526020016000905b8282101561144657838290600052602060002090600302016040518060800160405290816000820160009054906101000a900463ffffffff1663ffffffff1663ffffffff1681526020016000820160049054906101000a900473ffffffffffffffffffffffffffffffffffffffff1673ffffffffffffffffffffffffffffffffffffffff1673ffffffffffffffffffffffffffffffffffffffff1681526020016001820180546113ab90614244565b80601f01602080910402602001604051908101604052809291908181526020018280546113d790614244565b80156114245780601f106113f957610100808354040283529160200191611424565b820191906000526020600020905b81548152906001019060200180831161140757829003601f168201915b50505050508152602001600282015481525050815260200190600101906112fc565b50505050815260200160098201805480602002602001604051908101604052809291908181526020016000905b828210156115f957838290600052602060002090600402016040518060800160405290816000820160009054906101000a900463ffffffff1663ffffffff1663ffffffff1681526020016001820180546114cc90614244565b80601f01602080910402602001604051908101604052809291908181526020018280546114f890614244565b80156115455780601f1061151a57610100808354040283529160200191611545565b820191906000526020600020905b81548152906001019060200180831161152857829003601f168201915b5050505050815260200160028201805461155e90614244565b80601f016020809104026020016040519081016040528092919081815260200182805461158a90614244565b80156115d75780601f106115ac576101008083540402835291602001916115d7565b820191906000526020600020905b8154815290600101906020018083116115ba57829003601f168201915b5050505050815260200160038201548152505081526020019060010190611473565b505050508152602001600a8201805461161190614244565b80601f016020809104026020016040519081016040528092919081815260200182805461163d90614244565b801561168a5780601f1061165f5761010080835404028352916020019161168a565b820191906000526020600020905b81548152906001019060200180831161166d57829003601f168201915b50505050508152602001600b820180546116a390614244565b80601f01602080910402602001604051908101604052809291908181526020018280546116cf90614244565b801561171c5780601f106116f15761010080835404028352916020019161171c565b820191906000526020600020905b8154815290600101906020018083116116ff57829003601f168201915b5050505050815250509050919050565b6060600260008363ffffffff1663ffffffff168152602001908152602001600020600701805480602002602001604051908101604052809291908181526020016000905b8282101561187557838290600052602060002090600202016040518060600160405290816000820180546117a390614244565b80601f01602080910402602001604051908101604052809291908181526020018280546117cf90614244565b801561181c5780601f106117f15761010080835404028352916020019161181c565b820191906000526020600020905b8154815290600101906020018083116117ff57829003601f168201915b505050505081526020016001820160009054906101000a900463ffffffff1663ffffffff1663ffffffff1681526020016001820160049054906101000a900460ff16151515158152505081526020019060010190611770565b505050509050919050565b600160068111156118ba577f4e487b7100000000000000000000000000000000000000000000000000000000600052602160045260246000fd5b6000803373ffffffffffffffffffffffffffffffffffffffff1673ffffffffffffffffffffffffffffffffffffffff16815260200190815260200160002060000160149054906101000a900460ff166006811115611941577f4e487b7100000000000000000000000000000000000000000000000000000000600052602160045260246000fd5b14611981576040517f08c379a000000000000000000000000000000000000000000000000000000000815260040161197890613e4c565b60405180910390fd5b600260008463ffffffff1663ffffffff16815260200190815260200160002060070160405180606001604052808481526020018363ffffffff1681526020016000151581525090806001815401808255809150506001900390600052602060002090600202016000909190919091506000820151816000019080519060200190611a0c929190612ce1565b5060208201518160010160006101000a81548163ffffffff021916908363ffffffff16021790555060408201518160010160046101000a81548160ff0219169083151502179055505050505050565b600360009054906101000a900463ffffffff1681565b60046006811115611aab577f4e487b7100000000000000000000000000000000000000000000000000000000600052602160045260246000fd5b6000803373ffffffffffffffffffffffffffffffffffffffff1673ffffffffffffffffffffffffffffffffffffffff16815260200190815260200160002060000160149054906101000a900460ff166006811115611b32577f4e487b7100000000000000000000000000000000000000000000000000000000600052602160045260246000fd5b14611b72576040517f08c379a0000000000000000000000000000000000000000000000000000000008152600401611b6990613dcc565b60405180910390fd5b6003600481819054906101000a900463ffffffff1680929190611b9490614276565b91906101000a81548163ffffffff021916908363ffffffff16021790555050600260008363ffffffff1663ffffffff1681526020019081526020016000206008016040518060800160405280600360049054906101000a900463ffffffff1663ffffffff1681526020013373ffffffffffffffffffffffffffffffffffffffff16815260200183815260200142815250908060018154018082558091505060019003906000526020600020906003020160009091909190915060008201518160000160006101000a81548163ffffffff021916908363ffffffff16021790555060208201518160000160046101000a81548173ffffffffffffffffffffffffffffffffffffffff021916908373ffffffffffffffffffffffffffffffffffffffff1602179055506040820151816001019080519060200190611cd7929190612ce1565b506060820151816002015550505050565b600160009054906101000a900463ffffffff1681565b60006006811115611d38577f4e487b7100000000000000000000000000000000000000000000000000000000600052602160045260246000fd5b6000803373ffffffffffffffffffffffffffffffffffffffff1673ffffffffffffffffffffffffffffffffffffffff16815260200190815260200160002060000160149054906101000a900460ff166006811115611dbf577f4e487b7100000000000000000000000000000000000000000000000000000000600052602160045260246000fd5b14611dff576040517f08c379a0000000000000000000000000000000000000000000000000000000008152600401611df690613dec565b60405180910390fd5b80600260008463ffffffff1663ffffffff16815260200190815260200160002060030160016101000a81548160ff02191690836003811115611e6a577f4e487b7100000000000000000000000000000000000000000000000000000000600052602160045260246000fd5b02179055505050565b60006006811115611ead577f4e487b7100000000000000000000000000000000000000000000000000000000600052602160045260246000fd5b6000803373ffffffffffffffffffffffffffffffffffffffff1673ffffffffffffffffffffffffffffffffffffffff16815260200190815260200160002060000160149054906101000a900460ff166006811115611f34577f4e487b7100000000000000000000000000000000000000000000000000000000600052602160045260246000fd5b14611f74576040517f08c379a0000000000000000000000000000000000000000000000000000000008152600401611f6b90613dec565b60405180910390fd5b6003600081819054906101000a900463ffffffff1680929190611f9690614276565b91906101000a81548163ffffffff021916908363ffffffff16021790555050600360009054906101000a900463ffffffff1660026000600360009054906101000a900463ffffffff1663ffffffff1663ffffffff16815260200190815260200160002060000160006101000a81548163ffffffff021916908363ffffffff1602179055503360026000600360009054906101000a900463ffffffff1663ffffffff1663ffffffff16815260200190815260200160002060000160046101000a81548173ffffffffffffffffffffffffffffffffffffffff021916908373ffffffffffffffffffffffffffffffffffffffff1602179055508560026000600360009054906101000a900463ffffffff1663ffffffff1663ffffffff16815260200190815260200160002060010190805190602001906120d5929190612ce1565b508460026000600360009054906101000a900463ffffffff1663ffffffff1663ffffffff168152602001908152602001600020600201908051906020019061211e929190612ce1565b50600060026000600360009054906101000a900463ffffffff1663ffffffff1663ffffffff16815260200190815260200160002060030160006101000a81548160ff021916908315150217905550600060026000600360009054906101000a900463ffffffff1663ffffffff1663ffffffff16815260200190815260200160002060030160016101000a81548160ff021916908360038111156121ea577f4e487b7100000000000000000000000000000000000000000000000000000000600052602160045260246000fd5b02179055508360026000600360009054906101000a900463ffffffff1663ffffffff1663ffffffff1681526020019081526020016000206004019080519060200190612237929190612ce1565b508260026000600360009054906101000a900463ffffffff1663ffffffff1663ffffffff1681526020019081526020016000206005019080519060200190612280929190612ce1565b508160026000600360009054906101000a900463ffffffff1663ffffffff1663ffffffff168152602001908152602001600020600a0190805190602001906122c9929190612ce1565b508060026000600360009054906101000a900463ffffffff1663ffffffff1663ffffffff168152602001908152602001600020600b019080519060200190612312929190612ce1565b50505050505050565b6001600081819054906101000a900463ffffffff168092919061233d90614276565b91906101000a81548163ffffffff021916908363ffffffff1602179055505060405180604001604052808373ffffffffffffffffffffffffffffffffffffffff1681526020018260068111156123bc577f4e487b7100000000000000000000000000000000000000000000000000000000600052602160045260246000fd5b8152506000808473ffffffffffffffffffffffffffffffffffffffff1673ffffffffffffffffffffffffffffffffffffffff16815260200190815260200160002060008201518160000160006101000a81548173ffffffffffffffffffffffffffffffffffffffff021916908373ffffffffffffffffffffffffffffffffffffffff16021790555060208201518160000160146101000a81548160ff02191690836006811115612495577f4e487b7100000000000000000000000000000000000000000000000000000000600052602160045260246000fd5b02179055509050505050565b600360049054906101000a900463ffffffff1681565b6000600360049054906101000a900463ffffffff16905090565b60006020528060005260406000206000915090508060000160009054906101000a900473ffffffffffffffffffffffffffffffffffffffff16908060000160149054906101000a900460ff16905082565b6060600260008363ffffffff1663ffffffff168152602001908152602001600020600801805480602002602001604051908101604052809291908181526020016000905b828210156126b057838290600052602060002090600302016040518060800160405290816000820160009054906101000a900463ffffffff1663ffffffff1663ffffffff1681526020016000820160049054906101000a900473ffffffffffffffffffffffffffffffffffffffff1673ffffffffffffffffffffffffffffffffffffffff1673ffffffffffffffffffffffffffffffffffffffff16815260200160018201805461261590614244565b80601f016020809104026020016040519081016040528092919081815260200182805461264190614244565b801561268e5780601f106126635761010080835404028352916020019161268e565b820191906000526020600020905b81548152906001019060200180831161267157829003601f168201915b5050505050815260200160028201548152505081526020019060010190612566565b505050509050919050565b6060600260008363ffffffff1663ffffffff168152602001908152602001600020600901805480602002602001604051908101604052809291908181526020016000905b8282101561288557838290600052602060002090600402016040518060800160405290816000820160009054906101000a900463ffffffff1663ffffffff1663ffffffff16815260200160018201805461275890614244565b80601f016020809104026020016040519081016040528092919081815260200182805461278490614244565b80156127d15780601f106127a6576101008083540402835291602001916127d1565b820191906000526020600020905b8154815290600101906020018083116127b457829003601f168201915b505050505081526020016002820180546127ea90614244565b80601f016020809104026020016040519081016040528092919081815260200182805461281690614244565b80156128635780601f1061283857610100808354040283529160200191612863565b820191906000526020600020905b81548152906001019060200180831161284657829003601f168201915b50505050508152602001600382015481525050815260200190600101906126ff565b505050509050919050565b600260068111156128ca577f4e487b7100000000000000000000000000000000000000000000000000000000600052602160045260246000fd5b6000803373ffffffffffffffffffffffffffffffffffffffff1673ffffffffffffffffffffffffffffffffffffffff16815260200190815260200160002060000160149054906101000a900460ff166006811115612951577f4e487b7100000000000000000000000000000000000000000000000000000000600052602160045260246000fd5b14612991576040517f08c379a000000000000000000000000000000000000000000000000000000000815260040161298890613e0c565b60405180910390fd5b600160038111156129cb577f4e487b7100000000000000000000000000000000000000000000000000000000600052602160045260246000fd5b600260008463ffffffff1663ffffffff16815260200190815260200160002060030160019054906101000a900460ff166003811115612a33577f4e487b7100000000000000000000000000000000000000000000000000000000600052602160045260246000fd5b14612a73576040517f08c379a0000000000000000000000000000000000000000000000000000000008152600401612a6a90613e2c565b60405180910390fd5b80600260008463ffffffff1663ffffffff16815260200190815260200160002060030160006101000a81548160ff0219169083151502179055505050565b6060600260008363ffffffff1663ffffffff168152602001908152602001600020600601805480602002602001604051908101604052809291908181526020016000905b82821015612ba1578382906000526020600020018054612b1490614244565b80601f0160208091040260200160405190810160405280929190818152602001828054612b4090614244565b8015612b8d5780601f10612b6257610100808354040283529160200191612b8d565b820191906000526020600020905b815481529060010190602001808311612b7057829003601f168201915b505050505081526020019060010190612af5565b505050509050919050565b612bb4612e2c565b6000808373ffffffffffffffffffffffffffffffffffffffff1673ffffffffffffffffffffffffffffffffffffffff1681526020019081526020016000206040518060400160405290816000820160009054906101000a900473ffffffffffffffffffffffffffffffffffffffff1673ffffffffffffffffffffffffffffffffffffffff1673ffffffffffffffffffffffffffffffffffffffff1681526020016000820160149054906101000a900460ff166006811115612c9e577f4e487b7100000000000000000000000000000000000000000000000000000000600052602160045260246000fd5b6006811115612cd6577f4e487b7100000000000000000000000000000000000000000000000000000000600052602160045260246000fd5b815250509050919050565b828054612ced90614244565b90600052602060002090601f016020900481019282612d0f5760008555612d56565b82601f10612d2857805160ff1916838001178555612d56565b82800160010185558215612d56579182015b82811115612d55578251825591602001919060010190612d3a565b5b509050612d639190612e94565b5090565b604051806101c00160405280600063ffffffff168152602001600073ffffffffffffffffffffffffffffffffffffffff168152602001606081526020016060815260200160001515815260200160006003811115612dee577f4e487b7100000000000000000000000000000000000000000000000000000000600052602160045260246000fd5b815260200160608152602001606081526020016060815260200160608152602001606081526020016060815260200160608152602001606081525090565b6040518060400160405280600073ffffffffffffffffffffffffffffffffffffffff16815260200160006006811115612e8e577f4e487b7100000000000000000000000000000000000000000000000000000000600052602160045260246000fd5b81525090565b5b80821115612ead576000816000905550600101612e95565b5090565b6000612ec4612ebf84613fbb565b613f8a565b905082815260208101848484011115612edc57600080fd5b612ee7848285614202565b509392505050565b600081359050612efe81614398565b92915050565b600081359050612f13816143af565b92915050565b600081359050612f28816143c6565b92915050565b600081359050612f3d816143d6565b92915050565b600082601f830112612f5457600080fd5b8135612f64848260208601612eb1565b91505092915050565b600081359050612f7c816143e6565b92915050565b600060208284031215612f9457600080fd5b6000612fa284828501612eef565b91505092915050565b60008060408385031215612fbe57600080fd5b6000612fcc85828601612eef565b9250506020612fdd85828601612f2e565b9150509250929050565b60008060008060008060c0878903121561300057600080fd5b600087013567ffffffffffffffff81111561301a57600080fd5b61302689828a01612f43565b965050602087013567ffffffffffffffff81111561304357600080fd5b61304f89828a01612f43565b955050604087013567ffffffffffffffff81111561306c57600080fd5b61307889828a01612f43565b945050606087013567ffffffffffffffff81111561309557600080fd5b6130a189828a01612f43565b935050608087013567ffffffffffffffff8111156130be57600080fd5b6130ca89828a01612f43565b92505060a087013567ffffffffffffffff8111156130e757600080fd5b6130f389828a01612f43565b9150509295509295509295565b60006020828403121561311257600080fd5b600061312084828501612f6d565b91505092915050565b6000806040838503121561313c57600080fd5b600061314a85828601612f6d565b925050602061315b85828601612f04565b9150509250929050565b6000806040838503121561317857600080fd5b600061318685828601612f6d565b925050602061319785828601612f19565b9150509250929050565b600080604083850312156131b457600080fd5b60006131c285828601612f6d565b925050602083013567ffffffffffffffff8111156131df57600080fd5b6131eb85828601612f43565b9150509250929050565b60008060006060848603121561320a57600080fd5b600061321886828701612f6d565b935050602084013567ffffffffffffffff81111561323557600080fd5b61324186828701612f43565b925050604061325286828701612f04565b9150509250925092565b60008060006060848603121561327157600080fd5b600061327f86828701612f6d565b935050602084013567ffffffffffffffff81111561329c57600080fd5b6132a886828701612f43565b92505060406132b986828701612f6d565b9150509250925092565b60006132cf8383613733565b905092915050565b60006132e38383613a36565b905092915050565b60006132f78383613aa0565b905092915050565b600061330b8383613b03565b905092915050565b61331c81614160565b82525050565b61332b81614160565b82525050565b600061333c82614040565b61334681856140ab565b93508360208202850161335885613feb565b8060005b85811015613394578484038952815161337585826132c3565b945061338083614077565b925060208a0199505060018101905061335c565b50829750879550505050505092915050565b60006133b182614040565b6133bb81856140bc565b9350836020820285016133cd85613feb565b8060005b8581101561340957848403895281516133ea85826132c3565b94506133f583614077565b925060208a019950506001810190506133d1565b50829750879550505050505092915050565b60006134268261404b565b61343081856140cd565b93508360208202850161344285613ffb565b8060005b8581101561347e578484038952815161345f85826132d7565b945061346a83614084565b925060208a01995050600181019050613446565b50829750879550505050505092915050565b600061349b8261404b565b6134a581856140de565b9350836020820285016134b785613ffb565b8060005b858110156134f357848403895281516134d485826132d7565b94506134df83614084565b925060208a019950506001810190506134bb565b50829750879550505050505092915050565b600061351082614056565b61351a81856140ef565b93508360208202850161352c8561400b565b8060005b85811015613568578484038952815161354985826132eb565b945061355483614091565b925060208a01995050600181019050613530565b50829750879550505050505092915050565b600061358582614056565b61358f8185614100565b9350836020820285016135a18561400b565b8060005b858110156135dd57848403895281516135be85826132eb565b94506135c983614091565b925060208a019950506001810190506135a5565b50829750879550505050505092915050565b60006135fa82614061565b6136048185614111565b9350836020820285016136168561401b565b8060005b85811015613652578484038952815161363385826132ff565b945061363e8361409e565b925060208a0199505060018101905061361a565b50829750879550505050505092915050565b600061366f82614061565b6136798185614122565b93508360208202850161368b8561401b565b8060005b858110156136c757848403895281516136a885826132ff565b94506136b38361409e565b925060208a0199505060018101905061368f565b50829750879550505050505092915050565b6136e281614172565b82525050565b6136f181614172565b82525050565b613700816141de565b82525050565b61370f816141de565b82525050565b61371e816141f0565b82525050565b61372d816141f0565b82525050565b600061373e8261406c565b6137488185614133565b9350613758818560208601614211565b6137618161435f565b840191505092915050565b60006137778261406c565b6137818185614144565b9350613791818560208601614211565b61379a8161435f565b840191505092915050565b60006137b08261406c565b6137ba8185614155565b93506137ca818560208601614211565b80840191505092915050565b600081546137e381614244565b6137ed8186614155565b9450600182166000811461380857600181146138195761384c565b60ff1983168652818601935061384c565b6138228561402b565b60005b8381101561384457815481890152600182019150602081019050613825565b838801955050505b50505092915050565b6000613862602083614144565b91507f4e6f6e206175746f726973653a207365756c656d656e742041756469746575726000830152602082019050919050565b60006138a2602283614144565b91507f4e6f6e206175746f726973653a207365756c656d656e742050726f647563746560008301527f75720000000000000000000000000000000000000000000000000000000000006020830152604082019050919050565b6000613908602583614144565b91507f4e6f6e206175746f726973653a207365756c656d656e7420436572746966696360008301527f61746575720000000000000000000000000000000000000000000000000000006020830152604082019050919050565b600061396e601783614144565b91507f50617320656e2065746170652064652063756c747572650000000000000000006000830152602082019050919050565b60006139ae602383614144565b91507f4e6f6e206175746f726973653a207365756c656d656e7420466f75726e69737360008301527f65757200000000000000000000000000000000000000000000000000000000006020830152604082019050919050565b604082016000820151613a1d6000850182613313565b506020820151613a306020850182613715565b50505050565b6000608083016000830151613a4e6000860182613ccf565b5060208301518482036020860152613a668282613733565b91505060408301518482036040860152613a808282613733565b9150506060830151613a956060860182613cc0565b508091505092915050565b6000608083016000830151613ab86000860182613ccf565b506020830151613acb6020860182613313565b5060408301518482036040860152613ae38282613733565b9150506060830151613af86060860182613cc0565b508091505092915050565b60006060830160008301518482036000860152613b208282613733565b9150506020830151613b356020860182613ccf565b506040830151613b4860408601826136d9565b508091505092915050565b60006101c083016000830151613b6c6000860182613ccf565b506020830151613b7f6020860182613313565b5060408301518482036040860152613b978282613733565b91505060608301518482036060860152613bb18282613733565b9150506080830151613bc660808601826136d9565b5060a0830151613bd960a08601826136f7565b5060c083015184820360c0860152613bf18282613733565b91505060e083015184820360e0860152613c0b8282613733565b915050610100830151848203610100860152613c278282613331565b915050610120830151848203610120860152613c4382826135ef565b915050610140830151848203610140860152613c5f8282613505565b915050610160830151848203610160860152613c7b828261341b565b915050610180830151848203610180860152613c978282613733565b9150506101a08301518482036101a0860152613cb38282613733565b9150508091505092915050565b613cc9816141c4565b82525050565b613cd8816141ce565b82525050565b613ce7816141ce565b82525050565b6000613cf982846137a5565b915081905092915050565b6000613d1082846137d6565b915081905092915050565b6000604082019050613d306000830185613322565b613d3d6020830184613724565b9392505050565b60006020820190508181036000830152613d5e81846133a6565b905092915050565b60006020820190508181036000830152613d808184613490565b905092915050565b60006020820190508181036000830152613da2818461357a565b905092915050565b60006020820190508181036000830152613dc48184613664565b905092915050565b60006020820190508181036000830152613de581613855565b9050919050565b60006020820190508181036000830152613e0581613895565b9050919050565b60006020820190508181036000830152613e25816138fb565b9050919050565b60006020820190508181036000830152613e4581613961565b9050919050565b60006020820190508181036000830152613e65816139a1565b9050919050565b6000604082019050613e816000830184613a07565b92915050565b60006020820190508181036000830152613ea18184613b53565b905092915050565b6000602082019050613ebe6000830184613cde565b92915050565b600061014082019050613eda600083018d613cde565b613ee7602083018c613322565b8181036040830152613ef9818b61376c565b90508181036060830152613f0d818a61376c565b9050613f1c60808301896136e8565b613f2960a0830188613706565b81810360c0830152613f3b818761376c565b905081810360e0830152613f4f818661376c565b9050818103610100830152613f64818561376c565b9050818103610120830152613f79818461376c565b90509b9a5050505050505050505050565b6000604051905081810181811067ffffffffffffffff82111715613fb157613fb0614330565b5b8060405250919050565b600067ffffffffffffffff821115613fd657613fd5614330565b5b601f19601f8301169050602081019050919050565b6000819050602082019050919050565b6000819050602082019050919050565b6000819050602082019050919050565b6000819050602082019050919050565b60008190508160005260206000209050919050565b600081519050919050565b600081519050919050565b600081519050919050565b600081519050919050565b600081519050919050565b6000602082019050919050565b6000602082019050919050565b6000602082019050919050565b6000602082019050919050565b600082825260208201905092915050565b600082825260208201905092915050565b600082825260208201905092915050565b600082825260208201905092915050565b600082825260208201905092915050565b600082825260208201905092915050565b600082825260208201905092915050565b600082825260208201905092915050565b600082825260208201905092915050565b600082825260208201905092915050565b600081905092915050565b600061416b826141a4565b9050919050565b60008115159050919050565b600081905061418c82614370565b919050565b600081905061419f82614384565b919050565b600073ffffffffffffffffffffffffffffffffffffffff82169050919050565b6000819050919050565b600063ffffffff82169050919050565b60006141e98261417e565b9050919050565b60006141fb82614191565b9050919050565b82818337600083830152505050565b60005b8381101561422f578082015181840152602081019050614214565b8381111561423e576000848401525b50505050565b6000600282049050600182168061425c57607f821691505b602082108114156142705761426f614301565b5b50919050565b6000614281826141ce565b915063ffffffff821415614298576142976142a3565b5b600182019050919050565b7f4e487b7100000000000000000000000000000000000000000000000000000000600052601160045260246000fd5b7f4e487b7100000000000000000000000000000000000000000000000000000000600052602160045260246000fd5b7f4e487b7100000000000000000000000000000000000000000000000000000000600052602260045260246000fd5b7f4e487b7100000000000000000000000000000000000000000000000000000000600052604160045260246000fd5b6000601f19601f8301169050919050565b60048110614381576143806142d2565b5b50565b60078110614395576143946142d2565b5b50565b6143a181614160565b81146143ac57600080fd5b50565b6143b881614172565b81146143c357600080fd5b50565b600481106143d357600080fd5b50565b600781106143e357600080fd5b50565b6143ef816141ce565b81146143fa57600080fd5b5056fea26469706673582212209d6c41fcbb549a6202339c8b0c85a4a3cd0b74dddae361144a485e77517b95cc64736f6c63430008000033",
  "linkReferences": {},
  "deployedLinkReferences": {}
}