{
  "_format": "hh-sol-artifact-1",
  "contractName": "ProducteurEnPhaseCulture",
  "sourceName": "contracts/ProducteurEnPhaseCulture.sol",
  "abi": [
    {
      "anonymous": false,
      "inputs": [
        {
          "indexed": true,
          "internalType": "address",
          "name": "acteur",
          "type": "address"
        },
        {
          "indexed": false,
          "internalType": "enum ProducteurEnPhaseCulture.Role",
          "name": "role",
          "type": "uint8"
        }
      ],
      "name": "ActeurEnregistre",
      "type": "event"
    },
    {
      "anonymous": false,
      "inputs": [
        {
          "indexed": true,
          "internalType": "uint256",
          "name": "idParcelle",
          "type": "uint256"
        },
        {
          "indexed": false,
          "internalType": "uint256",
          "name": "idCondition",
          "type": "uint256"
        },
        {
          "indexed": false,
          "internalType": "string",
          "name": "temperature",
          "type": "string"
        },
        {
          "indexed": false,
          "internalType": "string",
          "name": "humidite",
          "type": "string"
        },
        {
          "indexed": false,
          "internalType": "uint256",
          "name": "timestamp",
          "type": "uint256"
        }
      ],
      "name": "ConditionEnregistree",
      "type": "event"
    },
    {
      "anonymous": false,
      "inputs": [
        {
          "indexed": true,
          "internalType": "uint256",
          "name": "idParcelle",
          "type": "uint256"
        },
        {
          "indexed": false,
          "internalType": "bool",
          "name": "passe",
          "type": "bool"
        }
      ],
      "name": "ControlePhytosanitaire",
      "type": "event"
    },
    {
      "anonymous": false,
      "inputs": [
        {
          "indexed": true,
          "internalType": "uint256",
          "name": "idParcelle",
          "type": "uint256"
        },
        {
          "indexed": false,
          "internalType": "enum ProducteurEnPhaseCulture.Etape",
          "name": "etape",
          "type": "uint8"
        }
      ],
      "name": "EtapeMiseAJour",
      "type": "event"
    },
    {
      "anonymous": false,
      "inputs": [
        {
          "indexed": true,
          "internalType": "uint256",
          "name": "idParcelle",
          "type": "uint256"
        },
        {
          "indexed": false,
          "internalType": "uint256",
          "name": "idInspection",
          "type": "uint256"
        },
        {
          "indexed": false,
          "internalType": "address",
          "name": "auditeur",
          "type": "address"
        },
        {
          "indexed": false,
          "internalType": "string",
          "name": "rapport",
          "type": "string"
        },
        {
          "indexed": false,
          "internalType": "uint256",
          "name": "timestamp",
          "type": "uint256"
        }
      ],
      "name": "InspectionAjoutee",
      "type": "event"
    },
    {
      "anonymous": false,
      "inputs": [
        {
          "indexed": true,
          "internalType": "uint256",
          "name": "idParcelle",
          "type": "uint256"
        },
        {
          "indexed": false,
          "internalType": "string",
          "name": "nom",
          "type": "string"
        },
        {
          "indexed": false,
          "internalType": "uint256",
          "name": "quantite",
          "type": "uint256"
        }
      ],
      "name": "IntrantAjoute",
      "type": "event"
    },
    {
      "anonymous": false,
      "inputs": [
        {
          "indexed": true,
          "internalType": "uint256",
          "name": "idParcelle",
          "type": "uint256"
        },
        {
          "indexed": false,
          "internalType": "string",
          "name": "nom",
          "type": "string"
        },
        {
          "indexed": false,
          "internalType": "bool",
          "name": "valide",
          "type": "bool"
        }
      ],
      "name": "IntrantValide",
      "type": "event"
    },
    {
      "anonymous": false,
      "inputs": [
        {
          "indexed": true,
          "internalType": "uint256",
          "name": "idParcelle",
          "type": "uint256"
        },
        {
          "indexed": false,
          "internalType": "string",
          "name": "methodeCulture",
          "type": "string"
        }
      ],
      "name": "MethodeCultureFixee",
      "type": "event"
    },
    {
      "anonymous": false,
      "inputs": [
        {
          "indexed": true,
          "internalType": "uint256",
          "name": "idParcelle",
          "type": "uint256"
        },
        {
          "indexed": false,
          "internalType": "uint256",
          "name": "idPaiement",
          "type": "uint256"
        },
        {
          "indexed": false,
          "internalType": "address",
          "name": "payeur",
          "type": "address"
        },
        {
          "indexed": false,
          "internalType": "uint256",
          "name": "montant",
          "type": "uint256"
        },
        {
          "indexed": false,
          "internalType": "enum ProducteurEnPhaseCulture.ModePaiement",
          "name": "mode",
          "type": "uint8"
        },
        {
          "indexed": false,
          "internalType": "uint256",
          "name": "timestamp",
          "type": "uint256"
        }
      ],
      "name": "PaiementEffectue",
      "type": "event"
    },
    {
      "anonymous": false,
      "inputs": [
        {
          "indexed": true,
          "internalType": "uint256",
          "name": "idParcelle",
          "type": "uint256"
        },
        {
          "indexed": false,
          "internalType": "string",
          "name": "latitude",
          "type": "string"
        },
        {
          "indexed": false,
          "internalType": "string",
          "name": "longitude",
          "type": "string"
        }
      ],
      "name": "ParcelleCree",
      "type": "event"
    },
    {
      "anonymous": false,
      "inputs": [
        {
          "indexed": true,
          "internalType": "uint256",
          "name": "idParcelle",
          "type": "uint256"
        },
        {
          "indexed": false,
          "internalType": "string",
          "name": "urlPhoto",
          "type": "string"
        }
      ],
      "name": "PhotoAjoutee",
      "type": "event"
    },
    {
      "anonymous": false,
      "inputs": [
        {
          "indexed": true,
          "internalType": "uint256",
          "name": "idParcelle",
          "type": "uint256"
        },
        {
          "indexed": false,
          "internalType": "bool",
          "name": "qualiteApprouvee",
          "type": "bool"
        }
      ],
      "name": "RecolteConfirmee",
      "type": "event"
    },
    {
      "anonymous": false,
      "inputs": [
        {
          "indexed": true,
          "internalType": "uint256",
          "name": "idParcelle",
          "type": "uint256"
        },
        {
          "indexed": false,
          "internalType": "string",
          "name": "qualiteSemence",
          "type": "string"
        }
      ],
      "name": "SemenceValidee",
      "type": "event"
    },
    {
      "stateMutability": "payable",
      "type": "fallback"
    },
    {
      "inputs": [
        {
          "internalType": "address",
          "name": "",
          "type": "address"
        }
      ],
      "name": "acteurs",
      "outputs": [
        {
          "internalType": "address",
          "name": "addr",
          "type": "address"
        },
        {
          "internalType": "enum ProducteurEnPhaseCulture.Role",
          "name": "role",
          "type": "uint8"
        }
      ],
      "stateMutability": "view",
      "type": "function"
    },
    {
      "inputs": [
        {
          "internalType": "uint256",
          "name": "_idParcelle",
          "type": "uint256"
        },
        {
          "internalType": "string",
          "name": "_rapport",
          "type": "string"
        }
      ],
      "name": "ajouterInspection",
      "outputs": [],
      "stateMutability": "nonpayable",
      "type": "function"
    },
    {
      "inputs": [
        {
          "internalType": "uint256",
          "name": "_idParcelle",
          "type": "uint256"
        },
        {
          "internalType": "string",
          "name": "_nom",
          "type": "string"
        },
        {
          "internalType": "uint256",
          "name": "_quantite",
          "type": "uint256"
        }
      ],
      "name": "ajouterIntrant",
      "outputs": [],
      "stateMutability": "nonpayable",
      "type": "function"
    },
    {
      "inputs": [
        {
          "internalType": "uint256",
          "name": "_idParcelle",
          "type": "uint256"
        },
        {
          "internalType": "string",
          "name": "_urlPhoto",
          "type": "string"
        }
      ],
      "name": "ajouterPhoto",
      "outputs": [],
      "stateMutability": "nonpayable",
      "type": "function"
    },
    {
      "inputs": [],
      "name": "compteurConditions",
      "outputs": [
        {
          "internalType": "uint256",
          "name": "",
          "type": "uint256"
        }
      ],
      "stateMutability": "view",
      "type": "function"
    },
    {
      "inputs": [],
      "name": "compteurInspections",
      "outputs": [
        {
          "internalType": "uint256",
          "name": "",
          "type": "uint256"
        }
      ],
      "stateMutability": "view",
      "type": "function"
    },
    {
      "inputs": [],
      "name": "compteurPaiements",
      "outputs": [
        {
          "internalType": "uint256",
          "name": "",
          "type": "uint256"
        }
      ],
      "stateMutability": "view",
      "type": "function"
    },
    {
      "inputs": [],
      "name": "compteurParcelles",
      "outputs": [
        {
          "internalType": "uint256",
          "name": "",
          "type": "uint256"
        }
      ],
      "stateMutability": "view",
      "type": "function"
    },
    {
      "inputs": [
        {
          "internalType": "uint256",
          "name": "_idParcelle",
          "type": "uint256"
        },
        {
          "internalType": "bool",
          "name": "_qualiteApprouvee",
          "type": "bool"
        }
      ],
      "name": "confirmerRecolte",
      "outputs": [],
      "stateMutability": "nonpayable",
      "type": "function"
    },
    {
      "inputs": [
        {
          "internalType": "string",
          "name": "_qualiteSemence",
          "type": "string"
        },
        {
          "internalType": "string",
          "name": "_methodeCulture",
          "type": "string"
        },
        {
          "internalType": "string",
          "name": "_latitude",
          "type": "string"
        },
        {
          "internalType": "string",
          "name": "_longitude",
          "type": "string"
        },
        {
          "internalType": "string",
          "name": "_produit",
          "type": "string"
        },
        {
          "internalType": "string",
          "name": "_dateRecolte",
          "type": "string"
        },
        {
          "internalType": "string",
          "name": "_certificatPhytosanitaire",
          "type": "string"
        }
      ],
      "name": "creerParcelle",
      "outputs": [],
      "stateMutability": "nonpayable",
      "type": "function"
    },
    {
      "inputs": [
        {
          "internalType": "uint256",
          "name": "_idParcelle",
          "type": "uint256"
        },
        {
          "internalType": "uint256",
          "name": "_montant",
          "type": "uint256"
        },
        {
          "internalType": "enum ProducteurEnPhaseCulture.ModePaiement",
          "name": "_mode",
          "type": "uint8"
        }
      ],
      "name": "effectuerPaiement",
      "outputs": [],
      "stateMutability": "payable",
      "type": "function"
    },
    {
      "inputs": [
        {
          "internalType": "address",
          "name": "_acteur",
          "type": "address"
        },
        {
          "internalType": "enum ProducteurEnPhaseCulture.Role",
          "name": "_role",
          "type": "uint8"
        }
      ],
      "name": "enregistrerActeur",
      "outputs": [],
      "stateMutability": "nonpayable",
      "type": "function"
    },
    {
      "inputs": [
        {
          "internalType": "uint256",
          "name": "_idParcelle",
          "type": "uint256"
        },
        {
          "internalType": "string",
          "name": "_temperature",
          "type": "string"
        },
        {
          "internalType": "string",
          "name": "_humidite",
          "type": "string"
        }
      ],
      "name": "enregistrerCondition",
      "outputs": [],
      "stateMutability": "nonpayable",
      "type": "function"
    },
    {
      "inputs": [
        {
          "internalType": "address",
          "name": "addr",
          "type": "address"
        }
      ],
      "name": "getActeur",
      "outputs": [
        {
          "components": [
            {
              "internalType": "address",
              "name": "addr",
              "type": "address"
            },
            {
              "internalType": "enum ProducteurEnPhaseCulture.Role",
              "name": "role",
              "type": "uint8"
            }
          ],
          "internalType": "struct ProducteurEnPhaseCulture.Acteur",
          "name": "",
          "type": "tuple"
        }
      ],
      "stateMutability": "view",
      "type": "function"
    },
    {
      "inputs": [],
      "name": "getCompteurCondition",
      "outputs": [
        {
          "internalType": "uint256",
          "name": "",
          "type": "uint256"
        }
      ],
      "stateMutability": "view",
      "type": "function"
    },
    {
      "inputs": [],
      "name": "getCompteurInspection",
      "outputs": [
        {
          "internalType": "uint256",
          "name": "",
          "type": "uint256"
        }
      ],
      "stateMutability": "view",
      "type": "function"
    },
    {
      "inputs": [],
      "name": "getCompteurPaiement",
      "outputs": [
        {
          "internalType": "uint256",
          "name": "",
          "type": "uint256"
        }
      ],
      "stateMutability": "view",
      "type": "function"
    },
    {
      "inputs": [],
      "name": "getCompteurParcelle",
      "outputs": [
        {
          "internalType": "uint256",
          "name": "",
          "type": "uint256"
        }
      ],
      "stateMutability": "view",
      "type": "function"
    },
    {
      "inputs": [
        {
          "internalType": "uint256",
          "name": "idParcelle",
          "type": "uint256"
        }
      ],
      "name": "getConditions",
      "outputs": [
        {
          "components": [
            {
              "internalType": "uint256",
              "name": "id",
              "type": "uint256"
            },
            {
              "internalType": "string",
              "name": "temperature",
              "type": "string"
            },
            {
              "internalType": "string",
              "name": "humidite",
              "type": "string"
            },
            {
              "internalType": "uint256",
              "name": "timestamp",
              "type": "uint256"
            }
          ],
          "internalType": "struct ProducteurEnPhaseCulture.EnregistrementCondition[]",
          "name": "",
          "type": "tuple[]"
        }
      ],
      "stateMutability": "view",
      "type": "function"
    },
    {
      "inputs": [
        {
          "internalType": "uint256",
          "name": "idParcelle",
          "type": "uint256"
        }
      ],
      "name": "getInspections",
      "outputs": [
        {
          "components": [
            {
              "internalType": "uint256",
              "name": "id",
              "type": "uint256"
            },
            {
              "internalType": "address",
              "name": "auditeur",
              "type": "address"
            },
            {
              "internalType": "string",
              "name": "rapport",
              "type": "string"
            },
            {
              "internalType": "uint256",
              "name": "timestamp",
              "type": "uint256"
            }
          ],
          "internalType": "struct ProducteurEnPhaseCulture.Inspection[]",
          "name": "",
          "type": "tuple[]"
        }
      ],
      "stateMutability": "view",
      "type": "function"
    },
    {
      "inputs": [
        {
          "internalType": "uint256",
          "name": "idParcelle",
          "type": "uint256"
        }
      ],
      "name": "getIntrants",
      "outputs": [
        {
          "components": [
            {
              "internalType": "string",
              "name": "nom",
              "type": "string"
            },
            {
              "internalType": "uint256",
              "name": "quantite",
              "type": "uint256"
            },
            {
              "internalType": "bool",
              "name": "valide",
              "type": "bool"
            }
          ],
          "internalType": "struct ProducteurEnPhaseCulture.Intrant[]",
          "name": "",
          "type": "tuple[]"
        }
      ],
      "stateMutability": "view",
      "type": "function"
    },
    {
      "inputs": [
        {
          "internalType": "uint256",
          "name": "id",
          "type": "uint256"
        }
      ],
      "name": "getPaiement",
      "outputs": [
        {
          "components": [
            {
              "internalType": "uint256",
              "name": "id",
              "type": "uint256"
            },
            {
              "internalType": "address",
              "name": "payeur",
              "type": "address"
            },
            {
              "internalType": "uint256",
              "name": "montant",
              "type": "uint256"
            },
            {
              "internalType": "enum ProducteurEnPhaseCulture.ModePaiement",
              "name": "mode",
              "type": "uint8"
            },
            {
              "internalType": "uint256",
              "name": "timestamp",
              "type": "uint256"
            }
          ],
          "internalType": "struct ProducteurEnPhaseCulture.Paiement",
          "name": "",
          "type": "tuple"
        }
      ],
      "stateMutability": "view",
      "type": "function"
    },
    {
      "inputs": [
        {
          "internalType": "uint256",
          "name": "id",
          "type": "uint256"
        }
      ],
      "name": "getParcelle",
      "outputs": [
        {
          "components": [
            {
              "internalType": "uint256",
              "name": "id",
              "type": "uint256"
            },
            {
              "internalType": "address",
              "name": "producteur",
              "type": "address"
            },
            {
              "internalType": "string",
              "name": "qualiteSemence",
              "type": "string"
            },
            {
              "internalType": "string",
              "name": "methodeCulture",
              "type": "string"
            },
            {
              "internalType": "bool",
              "name": "certifie",
              "type": "bool"
            },
            {
              "internalType": "enum ProducteurEnPhaseCulture.Etape",
              "name": "etape",
              "type": "uint8"
            },
            {
              "internalType": "string",
              "name": "latitude",
              "type": "string"
            },
            {
              "internalType": "string",
              "name": "longitude",
              "type": "string"
            },
            {
              "internalType": "string[]",
              "name": "photos",
              "type": "string[]"
            },
            {
              "components": [
                {
                  "internalType": "string",
                  "name": "nom",
                  "type": "string"
                },
                {
                  "internalType": "uint256",
                  "name": "quantite",
                  "type": "uint256"
                },
                {
                  "internalType": "bool",
                  "name": "valide",
                  "type": "bool"
                }
              ],
              "internalType": "struct ProducteurEnPhaseCulture.Intrant[]",
              "name": "intrants",
              "type": "tuple[]"
            },
            {
              "components": [
                {
                  "internalType": "uint256",
                  "name": "id",
                  "type": "uint256"
                },
                {
                  "internalType": "address",
                  "name": "auditeur",
                  "type": "address"
                },
                {
                  "internalType": "string",
                  "name": "rapport",
                  "type": "string"
                },
                {
                  "internalType": "uint256",
                  "name": "timestamp",
                  "type": "uint256"
                }
              ],
              "internalType": "struct ProducteurEnPhaseCulture.Inspection[]",
              "name": "inspections",
              "type": "tuple[]"
            },
            {
              "components": [
                {
                  "internalType": "uint256",
                  "name": "id",
                  "type": "uint256"
                },
                {
                  "internalType": "string",
                  "name": "temperature",
                  "type": "string"
                },
                {
                  "internalType": "string",
                  "name": "humidite",
                  "type": "string"
                },
                {
                  "internalType": "uint256",
                  "name": "timestamp",
                  "type": "uint256"
                }
              ],
              "internalType": "struct ProducteurEnPhaseCulture.EnregistrementCondition[]",
              "name": "conditions",
              "type": "tuple[]"
            },
            {
              "internalType": "string",
              "name": "produit",
              "type": "string"
            },
            {
              "internalType": "string",
              "name": "dateRecolte",
              "type": "string"
            },
            {
              "internalType": "string",
              "name": "certificatPhytosanitaire",
              "type": "string"
            }
          ],
          "internalType": "struct ProducteurEnPhaseCulture.Parcelle",
          "name": "",
          "type": "tuple"
        }
      ],
      "stateMutability": "view",
      "type": "function"
    },
    {
      "inputs": [
        {
          "internalType": "uint256",
          "name": "idParcelle",
          "type": "uint256"
        }
      ],
      "name": "getPhotos",
      "outputs": [
        {
          "internalType": "string[]",
          "name": "",
          "type": "string[]"
        }
      ],
      "stateMutability": "view",
      "type": "function"
    },
    {
      "inputs": [
        {
          "internalType": "uint256",
          "name": "_idParcelle",
          "type": "uint256"
        },
        {
          "internalType": "enum ProducteurEnPhaseCulture.Etape",
          "name": "_etape",
          "type": "uint8"
        }
      ],
      "name": "mettreAJourEtape",
      "outputs": [],
      "stateMutability": "nonpayable",
      "type": "function"
    },
    {
      "inputs": [
        {
          "internalType": "uint256",
          "name": "_idParcelle",
          "type": "uint256"
        }
      ],
      "name": "obtenirInformationsParcelle",
      "outputs": [
        {
          "internalType": "string",
          "name": "qualiteSemence",
          "type": "string"
        },
        {
          "internalType": "string",
          "name": "methodeCulture",
          "type": "string"
        },
        {
          "internalType": "string",
          "name": "latitude",
          "type": "string"
        },
        {
          "internalType": "string",
          "name": "longitude",
          "type": "string"
        },
        {
          "internalType": "string",
          "name": "produit",
          "type": "string"
        },
        {
          "internalType": "string",
          "name": "dateRecolte",
          "type": "string"
        },
        {
          "internalType": "string",
          "name": "certificatPhytosanitaire",
          "type": "string"
        }
      ],
      "stateMutability": "view",
      "type": "function"
    },
    {
      "inputs": [
        {
          "internalType": "uint256",
          "name": "",
          "type": "uint256"
        }
      ],
      "name": "paiements",
      "outputs": [
        {
          "internalType": "uint256",
          "name": "id",
          "type": "uint256"
        },
        {
          "internalType": "address",
          "name": "payeur",
          "type": "address"
        },
        {
          "internalType": "uint256",
          "name": "montant",
          "type": "uint256"
        },
        {
          "internalType": "enum ProducteurEnPhaseCulture.ModePaiement",
          "name": "mode",
          "type": "uint8"
        },
        {
          "internalType": "uint256",
          "name": "timestamp",
          "type": "uint256"
        }
      ],
      "stateMutability": "view",
      "type": "function"
    },
    {
      "inputs": [
        {
          "internalType": "uint256",
          "name": "",
          "type": "uint256"
        }
      ],
      "name": "parcelles",
      "outputs": [
        {
          "internalType": "uint256",
          "name": "id",
          "type": "uint256"
        },
        {
          "internalType": "address",
          "name": "producteur",
          "type": "address"
        },
        {
          "internalType": "string",
          "name": "qualiteSemence",
          "type": "string"
        },
        {
          "internalType": "string",
          "name": "methodeCulture",
          "type": "string"
        },
        {
          "internalType": "bool",
          "name": "certifie",
          "type": "bool"
        },
        {
          "internalType": "enum ProducteurEnPhaseCulture.Etape",
          "name": "etape",
          "type": "uint8"
        },
        {
          "internalType": "string",
          "name": "latitude",
          "type": "string"
        },
        {
          "internalType": "string",
          "name": "longitude",
          "type": "string"
        },
        {
          "internalType": "string",
          "name": "produit",
          "type": "string"
        },
        {
          "internalType": "string",
          "name": "dateRecolte",
          "type": "string"
        },
        {
          "internalType": "string",
          "name": "certificatPhytosanitaire",
          "type": "string"
        }
      ],
      "stateMutability": "view",
      "type": "function"
    },
    {
      "inputs": [
        {
          "internalType": "uint256",
          "name": "_idParcelle",
          "type": "uint256"
        },
        {
          "internalType": "string",
          "name": "_nom",
          "type": "string"
        },
        {
          "internalType": "bool",
          "name": "_valide",
          "type": "bool"
        }
      ],
      "name": "validerIntrant",
      "outputs": [],
      "stateMutability": "nonpayable",
      "type": "function"
    },
    {
      "stateMutability": "payable",
      "type": "receive"
    }
  ],
  "bytecode": "0x608060405234801561001057600080fd5b5061574180620000216000396000f3fe6080604052600436106101c65760003560e01c80639016d621116100f7578063bfc5167c11610095578063d16d510911610064578063d16d510914610697578063d1aa5bbe146106c2578063fdccf43314610700578063fe32398a1461072b576101cd565b8063bfc5167c146105c7578063c889bc6714610604578063cd3df1ed14610641578063cda36e631461066c576101cd565b8063b0b21067116100d1578063b0b210671461050f578063b262b0fb14610538578063b96cc76f14610575578063bbfcc3111461059e576101cd565b80639016d6211461046657806391e5954c146104a357806393c2f9b4146104e4576101cd565b80633c4b76c511610164578063687112e21161013e578063687112e21461039257806370b0728b146103bd5780637b906d47146103e65780637f64527314610423576101cd565b80633c4b76c514610315578063487396f21461033e57806361153ee914610367576101cd565b80631eada765116101a05780631eada7651461023d5780632aae399c1461027a57806331686f41146102c15780633a934f75146102ec576101cd565b80630ee99848146101cf57806315e20529146101f85780631cb0efc314610214576101cd565b366101cd57005b005b3480156101db57600080fd5b506101f660048036038101906101f19190613e84565b610768565b005b610212600480360381019061020d9190614061565b610909565b005b34801561022057600080fd5b5061023b60048036038101906102369190613cd9565b610bb1565b005b34801561024957600080fd5b50610264600480360381019061025f9190613e1f565b610fcc565b6040516102719190614cf2565b60405180910390f35b34801561028657600080fd5b506102a1600480360381019061029c9190613e1f565b611179565b6040516102b89b9a99989796959493929190615075565b60405180910390f35b3480156102cd57600080fd5b506102d66115c5565b6040516102e3919061505a565b60405180910390f35b3480156102f857600080fd5b50610313600480360381019061030e9190613ec0565b6115cf565b005b34801561032157600080fd5b5061033c60048036038101906103379190613ec0565b61181e565b005b34801561034a57600080fd5b5061036560048036038101906103609190613f7b565b6119ab565b005b34801561037357600080fd5b5061037c611bbb565b604051610389919061505a565b60405180910390f35b34801561039e57600080fd5b506103a7611bc1565b6040516103b4919061505a565b60405180910390f35b3480156103c957600080fd5b506103e460048036038101906103df9190613f14565b611bc7565b005b3480156103f257600080fd5b5061040d60048036038101906104089190613e1f565b611e6d565b60405161041a9190614d36565b60405180910390f35b34801561042f57600080fd5b5061044a60048036038101906104459190613e1f565b611f99565b60405161045d9796959493929190614e32565b60405180910390f35b34801561047257600080fd5b5061048d60048036038101906104889190613e1f565b61240a565b60405161049a9190614d14565b60405180910390f35b3480156104af57600080fd5b506104ca60048036038101906104c59190613e1f565b61257b565b6040516104db95949392919061519d565b60405180910390f35b3480156104f057600080fd5b506104f96125de565b604051610506919061505a565b60405180910390f35b34801561051b57600080fd5b5061053660048036038101906105319190613e48565b6125e8565b005b34801561054457600080fd5b5061055f600480360381019061055a9190613e1f565b6127fb565b60405161056c9190615038565b60405180910390f35b34801561058157600080fd5b5061059c60048036038101906105979190613c9d565b61320a565b005b3480156105aa57600080fd5b506105c560048036038101906105c09190613ffa565b61339d565b005b3480156105d357600080fd5b506105ee60048036038101906105e99190613e1f565b613583565b6040516105fb9190614cd0565b60405180910390f35b34801561061057600080fd5b5061062b60048036038101906106269190613e1f565b613672565b604051610638919061501d565b60405180910390f35b34801561064d57600080fd5b5061065661379a565b604051610663919061505a565b60405180910390f35b34801561067857600080fd5b506106816137a0565b60405161068e919061505a565b60405180910390f35b3480156106a357600080fd5b506106ac6137a6565b6040516106b9919061505a565b60405180910390f35b3480156106ce57600080fd5b506106e960048036038101906106e49190613c74565b6137b0565b6040516106f7929190614ca7565b60405180910390f35b34801561070c57600080fd5b50610715613801565b604051610722919061505a565b60405180910390f35b34801561073757600080fd5b50610752600480360381019061074d9190613c74565b61380b565b60405161075f9190615002565b60405180910390f35b600060068111156107a2577f4e487b7100000000000000000000000000000000000000000000000000000000600052602160045260246000fd5b6000803373ffffffffffffffffffffffffffffffffffffffff1673ffffffffffffffffffffffffffffffffffffffff16815260200190815260200160002060000160149054906101000a900460ff166006811115610829577f4e487b7100000000000000000000000000000000000000000000000000000000600052602160045260246000fd5b14610869576040517f08c379a000000000000000000000000000000000000000000000000000000000815260040161086090614f22565b60405180910390fd5b806001600084815260200190815260200160002060040160016101000a81548160ff021916908360038111156108c8577f4e487b7100000000000000000000000000000000000000000000000000000000600052602160045260246000fd5b0217905550817f45b242b5fc63415549b3b82a5f92422875e4d12321c4e12bafa6c1895dd8e32d826040516108fd9190614d73565b60405180910390a25050565b60036006811115610943577f4e487b7100000000000000000000000000000000000000000000000000000000600052602160045260246000fd5b6000803373ffffffffffffffffffffffffffffffffffffffff1673ffffffffffffffffffffffffffffffffffffffff16815260200190815260200160002060000160149054906101000a900460ff1660068111156109ca577f4e487b7100000000000000000000000000000000000000000000000000000000600052602160045260246000fd5b14610a0a576040517f08c379a0000000000000000000000000000000000000000000000000000000008152600401610a0190614fa2565b60405180910390fd5b60066000815480929190610a1d90615544565b91905055506040518060a0016040528060065481526020013373ffffffffffffffffffffffffffffffffffffffff168152602001838152602001826002811115610a90577f4e487b7100000000000000000000000000000000000000000000000000000000600052602160045260246000fd5b815260200142815250600260008581526020019081526020016000206000820151816000015560208201518160010160006101000a81548173ffffffffffffffffffffffffffffffffffffffff021916908373ffffffffffffffffffffffffffffffffffffffff1602179055506040820151816002015560608201518160030160006101000a81548160ff02191690836002811115610b58577f4e487b7100000000000000000000000000000000000000000000000000000000600052602160045260246000fd5b021790555060808201518160040155905050827f9fb3f4476c40468867890e22eb6a25fef181c86330769deb6a9a5917a78eff4460065433858542604051610ba495949392919061519d565b60405180910390a2505050565b60006006811115610beb577f4e487b7100000000000000000000000000000000000000000000000000000000600052602160045260246000fd5b6000803373ffffffffffffffffffffffffffffffffffffffff1673ffffffffffffffffffffffffffffffffffffffff16815260200190815260200160002060000160149054906101000a900460ff166006811115610c72577f4e487b7100000000000000000000000000000000000000000000000000000000600052602160045260246000fd5b14610cb2576040517f08c379a0000000000000000000000000000000000000000000000000000000008152600401610ca990614f22565b60405180910390fd5b60036000815480929190610cc590615544565b9190505550600354600160006003548152602001908152602001600020600001819055503360016000600354815260200190815260200160002060010160006101000a81548173ffffffffffffffffffffffffffffffffffffffff021916908373ffffffffffffffffffffffffffffffffffffffff160217905550866001600060035481526020019081526020016000206002019080519060200190610d6c929190613940565b50856001600060035481526020019081526020016000206003019080519060200190610d99929190613940565b50600060016000600354815260200190815260200160002060040160006101000a81548160ff021916908315150217905550600060016000600354815260200190815260200160002060040160016101000a81548160ff02191690836003811115610e2d577f4e487b7100000000000000000000000000000000000000000000000000000000600052602160045260246000fd5b0217905550846001600060035481526020019081526020016000206005019080519060200190610e5e929190613940565b50836001600060035481526020019081526020016000206006019080519060200190610e8b929190613940565b5082600160006003548152602001908152602001600020600b019080519060200190610eb8929190613940565b5081600160006003548152602001908152602001600020600c019080519060200190610ee5929190613940565b5080600160006003548152602001908152602001600020600d019080519060200190610f12929190613940565b506003547f76020fc040e621874f31bd683ac3c70ae524d6682f783cdb9ead5f6d303c258388604051610f459190614da9565b60405180910390a26003547f4b291666c2cd3cd2be2ae7085933be794c81b3a759eeb12c058b2b26a48a93e187604051610f7f9190614da9565b60405180910390a26003547f2f69d44a966e818e483aa2b077fe4fc704ad4ee2a6e35937fc403834e3ba9f798686604051610fbb929190614dfb565b60405180910390a250505050505050565b606060016000838152602001908152602001600020600a01805480602002602001604051908101604052809291908181526020016000905b8282101561116e57838290600052602060002090600402016040518060800160405290816000820154815260200160018201805461104190615512565b80601f016020809104026020016040519081016040528092919081815260200182805461106d90615512565b80156110ba5780601f1061108f576101008083540402835291602001916110ba565b820191906000526020600020905b81548152906001019060200180831161109d57829003601f168201915b505050505081526020016002820180546110d390615512565b80601f01602080910402602001604051908101604052809291908181526020018280546110ff90615512565b801561114c5780601f106111215761010080835404028352916020019161114c565b820191906000526020600020905b81548152906001019060200180831161112f57829003601f168201915b5050505050815260200160038201548152505081526020019060010190611004565b505050509050919050565b60016020528060005260406000206000915090508060000154908060010160009054906101000a900473ffffffffffffffffffffffffffffffffffffffff16908060020180546111c890615512565b80601f01602080910402602001604051908101604052809291908181526020018280546111f490615512565b80156112415780601f1061121657610100808354040283529160200191611241565b820191906000526020600020905b81548152906001019060200180831161122457829003601f168201915b50505050509080600301805461125690615512565b80601f016020809104026020016040519081016040528092919081815260200182805461128290615512565b80156112cf5780601f106112a4576101008083540402835291602001916112cf565b820191906000526020600020905b8154815290600101906020018083116112b257829003601f168201915b5050505050908060040160009054906101000a900460ff16908060040160019054906101000a900460ff169080600501805461130a90615512565b80601f016020809104026020016040519081016040528092919081815260200182805461133690615512565b80156113835780601f1061135857610100808354040283529160200191611383565b820191906000526020600020905b81548152906001019060200180831161136657829003601f168201915b50505050509080600601805461139890615512565b80601f01602080910402602001604051908101604052809291908181526020018280546113c490615512565b80156114115780601f106113e657610100808354040283529160200191611411565b820191906000526020600020905b8154815290600101906020018083116113f457829003601f168201915b50505050509080600b01805461142690615512565b80601f016020809104026020016040519081016040528092919081815260200182805461145290615512565b801561149f5780601f106114745761010080835404028352916020019161149f565b820191906000526020600020905b81548152906001019060200180831161148257829003601f168201915b50505050509080600c0180546114b490615512565b80601f01602080910402602001604051908101604052809291908181526020018280546114e090615512565b801561152d5780601f106115025761010080835404028352916020019161152d565b820191906000526020600020905b81548152906001019060200180831161151057829003601f168201915b50505050509080600d01805461154290615512565b80601f016020809104026020016040519081016040528092919081815260200182805461156e90615512565b80156115bb5780601f10611590576101008083540402835291602001916115bb565b820191906000526020600020905b81548152906001019060200180831161159e57829003601f168201915b505050505090508b565b6000600354905090565b60046006811115611609577f4e487b7100000000000000000000000000000000000000000000000000000000600052602160045260246000fd5b6000803373ffffffffffffffffffffffffffffffffffffffff1673ffffffffffffffffffffffffffffffffffffffff16815260200190815260200160002060000160149054906101000a900460ff166006811115611690577f4e487b7100000000000000000000000000000000000000000000000000000000600052602160045260246000fd5b146116d0576040517f08c379a00000000000000000000000000000000000000000000000000000000081526004016116c790614f02565b60405180910390fd5b600460008154809291906116e390615544565b919050555060016000838152602001908152602001600020600901604051806080016040528060045481526020013373ffffffffffffffffffffffffffffffffffffffff1681526020018381526020014281525090806001815401808255809150506001900390600052602060002090600402016000909190919091506000820151816000015560208201518160010160006101000a81548173ffffffffffffffffffffffffffffffffffffffff021916908373ffffffffffffffffffffffffffffffffffffffff16021790555060408201518160020190805190602001906117cd929190613940565b50606082015181600301555050817f01a45eca5add8bc008d04da47eb5d17311e76e71fdcdf26dde57b4370a03bfa76004543384426040516118129493929190615151565b60405180910390a25050565b60006006811115611858577f4e487b7100000000000000000000000000000000000000000000000000000000600052602160045260246000fd5b6000803373ffffffffffffffffffffffffffffffffffffffff1673ffffffffffffffffffffffffffffffffffffffff16815260200190815260200160002060000160149054906101000a900460ff1660068111156118df577f4e487b7100000000000000000000000000000000000000000000000000000000600052602160045260246000fd5b1461191f576040517f08c379a000000000000000000000000000000000000000000000000000000000815260040161191690614f22565b60405180910390fd5b600160008381526020019081526020016000206007018190806001815401808255809150506001900390600052602060002001600090919091909150908051906020019061196e929190613940565b50817f3e91c1bda32051113f8f1aaa1b3fb12b874b54bfd3dbdb463ee2836493a83c9d8260405161199f9190614da9565b60405180910390a25050565b600560068111156119e5577f4e487b7100000000000000000000000000000000000000000000000000000000600052602160045260246000fd5b6000803373ffffffffffffffffffffffffffffffffffffffff1673ffffffffffffffffffffffffffffffffffffffff16815260200190815260200160002060000160149054906101000a900460ff166006811115611a6c577f4e487b7100000000000000000000000000000000000000000000000000000000600052602160045260246000fd5b14611aac576040517f08c379a0000000000000000000000000000000000000000000000000000000008152600401611aa390614fe2565b60405180910390fd5b60056000815480929190611abf90615544565b919050555060016000848152602001908152602001600020600a0160405180608001604052806005548152602001848152602001838152602001428152509080600181540180825580915050600190039060005260206000209060040201600090919091909150600082015181600001556020820151816001019080519060200190611b4c929190613940565b506040820151816002019080519060200190611b69929190613940565b50606082015181600301555050827fa313df723389871f22ba2e986d3ad5724712c38a270e9ec008e6037c670862da600554848442604051611bae94939291906151f0565b60405180910390a2505050565b60035481565b60055481565b60026006811115611c01577f4e487b7100000000000000000000000000000000000000000000000000000000600052602160045260246000fd5b6000803373ffffffffffffffffffffffffffffffffffffffff1673ffffffffffffffffffffffffffffffffffffffff16815260200190815260200160002060000160149054906101000a900460ff166006811115611c88577f4e487b7100000000000000000000000000000000000000000000000000000000600052602160045260246000fd5b14611cc8576040517f08c379a0000000000000000000000000000000000000000000000000000000008152600401611cbf90614f42565b60405180910390fd5b60005b6001600085815260200190815260200160002060080180549050811015611e675782604051602001611cfd9190614c79565b60405160208183030381529060405280519060200120600160008681526020019081526020016000206008018281548110611d61577f4e487b7100000000000000000000000000000000000000000000000000000000600052603260045260246000fd5b9060005260206000209060030201600001604051602001611d829190614c90565b604051602081830303815290604052805190602001201415611e545781600160008681526020019081526020016000206008018281548110611ded577f4e487b7100000000000000000000000000000000000000000000000000000000600052603260045260246000fd5b906000526020600020906003020160020160006101000a81548160ff021916908315150217905550837f48a30b2f4fe18c85c3ef5f067c24f56cb42dd613715bce20f76dcaa87077d96f8484604051611e47929190614dcb565b60405180910390a2611e67565b8080611e5f90615544565b915050611ccb565b50505050565b606060016000838152602001908152602001600020600801805480602002602001604051908101604052809291908181526020016000905b82821015611f8e5783829060005260206000209060030201604051806060016040529081600082018054611ed890615512565b80601f0160208091040260200160405190810160405280929190818152602001828054611f0490615512565b8015611f515780601f10611f2657610100808354040283529160200191611f51565b820191906000526020600020905b815481529060010190602001808311611f3457829003601f168201915b50505050508152602001600182015481526020016002820160009054906101000a900460ff16151515158152505081526020019060010190611ea5565b505050509050919050565b6060806060806060806060600354881115611fe9576040517f08c379a0000000000000000000000000000000000000000000000000000000008152600401611fe090614f82565b60405180910390fd5b6000600160008a815260200190815260200160002090508060020181600301826005018360060184600b0185600c0186600d0186805461202890615512565b80601f016020809104026020016040519081016040528092919081815260200182805461205490615512565b80156120a15780601f10612076576101008083540402835291602001916120a1565b820191906000526020600020905b81548152906001019060200180831161208457829003601f168201915b505050505096508580546120b490615512565b80601f01602080910402602001604051908101604052809291908181526020018280546120e090615512565b801561212d5780601f106121025761010080835404028352916020019161212d565b820191906000526020600020905b81548152906001019060200180831161211057829003601f168201915b5050505050955084805461214090615512565b80601f016020809104026020016040519081016040528092919081815260200182805461216c90615512565b80156121b95780601f1061218e576101008083540402835291602001916121b9565b820191906000526020600020905b81548152906001019060200180831161219c57829003601f168201915b505050505094508380546121cc90615512565b80601f01602080910402602001604051908101604052809291908181526020018280546121f890615512565b80156122455780601f1061221a57610100808354040283529160200191612245565b820191906000526020600020905b81548152906001019060200180831161222857829003601f168201915b5050505050935082805461225890615512565b80601f016020809104026020016040519081016040528092919081815260200182805461228490615512565b80156122d15780601f106122a6576101008083540402835291602001916122d1565b820191906000526020600020905b8154815290600101906020018083116122b457829003601f168201915b505050505092508180546122e490615512565b80601f016020809104026020016040519081016040528092919081815260200182805461231090615512565b801561235d5780601f106123325761010080835404028352916020019161235d565b820191906000526020600020905b81548152906001019060200180831161234057829003601f168201915b5050505050915080805461237090615512565b80601f016020809104026020016040519081016040528092919081815260200182805461239c90615512565b80156123e95780601f106123be576101008083540402835291602001916123e9565b820191906000526020600020905b8154815290600101906020018083116123cc57829003601f168201915b50505050509050975097509750975097509750975050919395979092949650565b606060016000838152602001908152602001600020600901805480602002602001604051908101604052809291908181526020016000905b828210156125705783829060005260206000209060040201604051806080016040529081600082015481526020016001820160009054906101000a900473ffffffffffffffffffffffffffffffffffffffff1673ffffffffffffffffffffffffffffffffffffffff1673ffffffffffffffffffffffffffffffffffffffff1681526020016002820180546124d590615512565b80601f016020809104026020016040519081016040528092919081815260200182805461250190615512565b801561254e5780601f106125235761010080835404028352916020019161254e565b820191906000526020600020905b81548152906001019060200180831161253157829003601f168201915b5050505050815260200160038201548152505081526020019060010190612442565b505050509050919050565b60026020528060005260406000206000915090508060000154908060010160009054906101000a900473ffffffffffffffffffffffffffffffffffffffff16908060020154908060030160009054906101000a900460ff16908060040154905085565b6000600554905090565b60026006811115612622577f4e487b7100000000000000000000000000000000000000000000000000000000600052602160045260246000fd5b6000803373ffffffffffffffffffffffffffffffffffffffff1673ffffffffffffffffffffffffffffffffffffffff16815260200190815260200160002060000160149054906101000a900460ff1660068111156126a9577f4e487b7100000000000000000000000000000000000000000000000000000000600052602160045260246000fd5b146126e9576040517f08c379a00000000000000000000000000000000000000000000000000000000081526004016126e090614f42565b60405180910390fd5b60026003811115612723577f4e487b7100000000000000000000000000000000000000000000000000000000600052602160045260246000fd5b6001600084815260200190815260200160002060040160019054906101000a900460ff16600381111561277f577f4e487b7100000000000000000000000000000000000000000000000000000000600052602160045260246000fd5b146127bf576040517f08c379a00000000000000000000000000000000000000000000000000000000081526004016127b690614f62565b60405180910390fd5b817fb0a26e6f92742be73e2b10e4ca6494bc6f97c828c1f06afc1aad3e69eb1a62eb826040516127ef9190614d58565b60405180910390a25050565b6128036139c6565b60016000838152602001908152602001600020604051806101e0016040529081600082015481526020016001820160009054906101000a900473ffffffffffffffffffffffffffffffffffffffff1673ffffffffffffffffffffffffffffffffffffffff1673ffffffffffffffffffffffffffffffffffffffff16815260200160028201805461289290615512565b80601f01602080910402602001604051908101604052809291908181526020018280546128be90615512565b801561290b5780601f106128e05761010080835404028352916020019161290b565b820191906000526020600020905b8154815290600101906020018083116128ee57829003601f168201915b5050505050815260200160038201805461292490615512565b80601f016020809104026020016040519081016040528092919081815260200182805461295090615512565b801561299d5780601f106129725761010080835404028352916020019161299d565b820191906000526020600020905b81548152906001019060200180831161298057829003601f168201915b505050505081526020016004820160009054906101000a900460ff161515151581526020016004820160019054906101000a900460ff166003811115612a0c577f4e487b7100000000000000000000000000000000000000000000000000000000600052602160045260246000fd5b6003811115612a44577f4e487b7100000000000000000000000000000000000000000000000000000000600052602160045260246000fd5b8152602001600582018054612a5890615512565b80601f0160208091040260200160405190810160405280929190818152602001828054612a8490615512565b8015612ad15780601f10612aa657610100808354040283529160200191612ad1565b820191906000526020600020905b815481529060010190602001808311612ab457829003601f168201915b50505050508152602001600682018054612aea90615512565b80601f0160208091040260200160405190810160405280929190818152602001828054612b1690615512565b8015612b635780601f10612b3857610100808354040283529160200191612b63565b820191906000526020600020905b815481529060010190602001808311612b4657829003601f168201915b5050505050815260200160078201805480602002602001604051908101604052809291908181526020016000905b82821015612c3d578382906000526020600020018054612bb090615512565b80601f0160208091040260200160405190810160405280929190818152602001828054612bdc90615512565b8015612c295780601f10612bfe57610100808354040283529160200191612c29565b820191906000526020600020905b815481529060010190602001808311612c0c57829003601f168201915b505050505081526020019060010190612b91565b50505050815260200160088201805480602002602001604051908101604052809291908181526020016000905b82821015612d535783829060005260206000209060030201604051806060016040529081600082018054612c9d90615512565b80601f0160208091040260200160405190810160405280929190818152602001828054612cc990615512565b8015612d165780601f10612ceb57610100808354040283529160200191612d16565b820191906000526020600020905b815481529060010190602001808311612cf957829003601f168201915b50505050508152602001600182015481526020016002820160009054906101000a900460ff16151515158152505081526020019060010190612c6a565b50505050815260200160098201805480602002602001604051908101604052809291908181526020016000905b82821015612eae5783829060005260206000209060040201604051806080016040529081600082015481526020016001820160009054906101000a900473ffffffffffffffffffffffffffffffffffffffff1673ffffffffffffffffffffffffffffffffffffffff1673ffffffffffffffffffffffffffffffffffffffff168152602001600282018054612e1390615512565b80601f0160208091040260200160405190810160405280929190818152602001828054612e3f90615512565b8015612e8c5780601f10612e6157610100808354040283529160200191612e8c565b820191906000526020600020905b815481529060010190602001808311612e6f57829003601f168201915b5050505050815260200160038201548152505081526020019060010190612d80565b505050508152602001600a8201805480602002602001604051908101604052809291908181526020016000905b82821015613045578382906000526020600020906004020160405180608001604052908160008201548152602001600182018054612f1890615512565b80601f0160208091040260200160405190810160405280929190818152602001828054612f4490615512565b8015612f915780601f10612f6657610100808354040283529160200191612f91565b820191906000526020600020905b815481529060010190602001808311612f7457829003601f168201915b50505050508152602001600282018054612faa90615512565b80601f0160208091040260200160405190810160405280929190818152602001828054612fd690615512565b80156130235780601f10612ff857610100808354040283529160200191613023565b820191906000526020600020905b81548152906001019060200180831161300657829003601f168201915b5050505050815260200160038201548152505081526020019060010190612edb565b505050508152602001600b8201805461305d90615512565b80601f016020809104026020016040519081016040528092919081815260200182805461308990615512565b80156130d65780601f106130ab576101008083540402835291602001916130d6565b820191906000526020600020905b8154815290600101906020018083116130b957829003601f168201915b50505050508152602001600c820180546130ef90615512565b80601f016020809104026020016040519081016040528092919081815260200182805461311b90615512565b80156131685780601f1061313d57610100808354040283529160200191613168565b820191906000526020600020905b81548152906001019060200180831161314b57829003601f168201915b50505050508152602001600d8201805461318190615512565b80601f01602080910402602001604051908101604052809291908181526020018280546131ad90615512565b80156131fa5780601f106131cf576101008083540402835291602001916131fa565b820191906000526020600020905b8154815290600101906020018083116131dd57829003601f168201915b5050505050815250509050919050565b60405180604001604052808373ffffffffffffffffffffffffffffffffffffffff16815260200182600681111561326a577f4e487b7100000000000000000000000000000000000000000000000000000000600052602160045260246000fd5b8152506000808473ffffffffffffffffffffffffffffffffffffffff1673ffffffffffffffffffffffffffffffffffffffff16815260200190815260200160002060008201518160000160006101000a81548173ffffffffffffffffffffffffffffffffffffffff021916908373ffffffffffffffffffffffffffffffffffffffff16021790555060208201518160000160146101000a81548160ff02191690836006811115613343577f4e487b7100000000000000000000000000000000000000000000000000000000600052602160045260246000fd5b02179055509050508173ffffffffffffffffffffffffffffffffffffffff167fbd86914a2cea41efb2ef2e360c4375dceb3c2ec14c6876f40345126b9ac1f3cc826040516133919190614d8e565b60405180910390a25050565b600160068111156133d7577f4e487b7100000000000000000000000000000000000000000000000000000000600052602160045260246000fd5b6000803373ffffffffffffffffffffffffffffffffffffffff1673ffffffffffffffffffffffffffffffffffffffff16815260200190815260200160002060000160149054906101000a900460ff16600681111561345e577f4e487b7100000000000000000000000000000000000000000000000000000000600052602160045260246000fd5b1461349e576040517f08c379a000000000000000000000000000000000000000000000000000000000815260040161349590614fc2565b60405180910390fd5b6001600084815260200190815260200160002060080160405180606001604052808481526020018381526020016000151581525090806001815401808255809150506001900390600052602060002090600302016000909190919091506000820151816000019080519060200190613517929190613940565b506020820151816001015560408201518160020160006101000a81548160ff0219169083151502179055505050827f375185d24a1c31669068f184b530875ecc60b01611be86ca7346d6f42aa7b24a8383604051613576929190614ed2565b60405180910390a2505050565b606060016000838152602001908152602001600020600701805480602002602001604051908101604052809291908181526020016000905b828210156136675783829060005260206000200180546135da90615512565b80601f016020809104026020016040519081016040528092919081815260200182805461360690615512565b80156136535780601f1061362857610100808354040283529160200191613653565b820191906000526020600020905b81548152906001019060200180831161363657829003601f168201915b5050505050815260200190600101906135bb565b505050509050919050565b61367a613a8c565b600260008381526020019081526020016000206040518060a0016040529081600082015481526020016001820160009054906101000a900473ffffffffffffffffffffffffffffffffffffffff1673ffffffffffffffffffffffffffffffffffffffff1673ffffffffffffffffffffffffffffffffffffffff168152602001600282015481526020016003820160009054906101000a900460ff16600281111561374d577f4e487b7100000000000000000000000000000000000000000000000000000000600052602160045260246000fd5b6002811115613785577f4e487b7100000000000000000000000000000000000000000000000000000000600052602160045260246000fd5b81526020016004820154815250509050919050565b60065481565b60045481565b6000600454905090565b60006020528060005260406000206000915090508060000160009054906101000a900473ffffffffffffffffffffffffffffffffffffffff16908060000160149054906101000a900460ff16905082565b6000600654905090565b613813613b09565b6000808373ffffffffffffffffffffffffffffffffffffffff1673ffffffffffffffffffffffffffffffffffffffff1681526020019081526020016000206040518060400160405290816000820160009054906101000a900473ffffffffffffffffffffffffffffffffffffffff1673ffffffffffffffffffffffffffffffffffffffff1673ffffffffffffffffffffffffffffffffffffffff1681526020016000820160149054906101000a900460ff1660068111156138fd577f4e487b7100000000000000000000000000000000000000000000000000000000600052602160045260246000fd5b6006811115613935577f4e487b7100000000000000000000000000000000000000000000000000000000600052602160045260246000fd5b815250509050919050565b82805461394c90615512565b90600052602060002090601f01602090048101928261396e57600085556139b5565b82601f1061398757805160ff19168380011785556139b5565b828001600101855582156139b5579182015b828111156139b4578251825591602001919060010190613999565b5b5090506139c29190613b71565b5090565b604051806101e0016040528060008152602001600073ffffffffffffffffffffffffffffffffffffffff168152602001606081526020016060815260200160001515815260200160006003811115613a47577f4e487b7100000000000000000000000000000000000000000000000000000000600052602160045260246000fd5b81526020016060815260200160608152602001606081526020016060815260200160608152602001606081526020016060815260200160608152602001606081525090565b6040518060a0016040528060008152602001600073ffffffffffffffffffffffffffffffffffffffff1681526020016000815260200160006002811115613afc577f4e487b7100000000000000000000000000000000000000000000000000000000600052602160045260246000fd5b8152602001600081525090565b6040518060400160405280600073ffffffffffffffffffffffffffffffffffffffff16815260200160006006811115613b6b577f4e487b7100000000000000000000000000000000000000000000000000000000600052602160045260246000fd5b81525090565b5b80821115613b8a576000816000905550600101613b72565b5090565b6000613ba1613b9c84615274565b615243565b905082815260208101848484011115613bb957600080fd5b613bc48482856154d0565b509392505050565b600081359050613bdb81615696565b92915050565b600081359050613bf0816156ad565b92915050565b600081359050613c05816156c4565b92915050565b600081359050613c1a816156d4565b92915050565b600081359050613c2f816156e4565b92915050565b600082601f830112613c4657600080fd5b8135613c56848260208601613b8e565b91505092915050565b600081359050613c6e816156f4565b92915050565b600060208284031215613c8657600080fd5b6000613c9484828501613bcc565b91505092915050565b60008060408385031215613cb057600080fd5b6000613cbe85828601613bcc565b9250506020613ccf85828601613c20565b9150509250929050565b600080600080600080600060e0888a031215613cf457600080fd5b600088013567ffffffffffffffff811115613d0e57600080fd5b613d1a8a828b01613c35565b975050602088013567ffffffffffffffff811115613d3757600080fd5b613d438a828b01613c35565b965050604088013567ffffffffffffffff811115613d6057600080fd5b613d6c8a828b01613c35565b955050606088013567ffffffffffffffff811115613d8957600080fd5b613d958a828b01613c35565b945050608088013567ffffffffffffffff811115613db257600080fd5b613dbe8a828b01613c35565b93505060a088013567ffffffffffffffff811115613ddb57600080fd5b613de78a828b01613c35565b92505060c088013567ffffffffffffffff811115613e0457600080fd5b613e108a828b01613c35565b91505092959891949750929550565b600060208284031215613e3157600080fd5b6000613e3f84828501613c5f565b91505092915050565b60008060408385031215613e5b57600080fd5b6000613e6985828601613c5f565b9250506020613e7a85828601613be1565b9150509250929050565b60008060408385031215613e9757600080fd5b6000613ea585828601613c5f565b9250506020613eb685828601613bf6565b9150509250929050565b60008060408385031215613ed357600080fd5b6000613ee185828601613c5f565b925050602083013567ffffffffffffffff811115613efe57600080fd5b613f0a85828601613c35565b9150509250929050565b600080600060608486031215613f2957600080fd5b6000613f3786828701613c5f565b935050602084013567ffffffffffffffff811115613f5457600080fd5b613f6086828701613c35565b9250506040613f7186828701613be1565b9150509250925092565b600080600060608486031215613f9057600080fd5b6000613f9e86828701613c5f565b935050602084013567ffffffffffffffff811115613fbb57600080fd5b613fc786828701613c35565b925050604084013567ffffffffffffffff811115613fe457600080fd5b613ff086828701613c35565b9150509250925092565b60008060006060848603121561400f57600080fd5b600061401d86828701613c5f565b935050602084013567ffffffffffffffff81111561403a57600080fd5b61404686828701613c35565b925050604061405786828701613c5f565b9150509250925092565b60008060006060848603121561407657600080fd5b600061408486828701613c5f565b935050602061409586828701613c5f565b92505060406140a686828701613c0b565b9150509250925092565b60006140bc838361453e565b905092915050565b60006140d0838361494d565b905092915050565b60006140e483836149b7565b905092915050565b60006140f88383614a1a565b905092915050565b61410981615419565b82525050565b61411881615419565b82525050565b6000614129826152f9565b6141338185615364565b935083602082028501614145856152a4565b8060005b85811015614181578484038952815161416285826140b0565b945061416d83615330565b925060208a01995050600181019050614149565b50829750879550505050505092915050565b600061419e826152f9565b6141a88185615375565b9350836020820285016141ba856152a4565b8060005b858110156141f657848403895281516141d785826140b0565b94506141e283615330565b925060208a019950506001810190506141be565b50829750879550505050505092915050565b600061421382615304565b61421d8185615386565b93508360208202850161422f856152b4565b8060005b8581101561426b578484038952815161424c85826140c4565b94506142578361533d565b925060208a01995050600181019050614233565b50829750879550505050505092915050565b600061428882615304565b6142928185615397565b9350836020820285016142a4856152b4565b8060005b858110156142e057848403895281516142c185826140c4565b94506142cc8361533d565b925060208a019950506001810190506142a8565b50829750879550505050505092915050565b60006142fd8261530f565b61430781856153a8565b935083602082028501614319856152c4565b8060005b85811015614355578484038952815161433685826140d8565b94506143418361534a565b925060208a0199505060018101905061431d565b50829750879550505050505092915050565b60006143728261530f565b61437c81856153b9565b93508360208202850161438e856152c4565b8060005b858110156143ca57848403895281516143ab85826140d8565b94506143b68361534a565b925060208a01995050600181019050614392565b50829750879550505050505092915050565b60006143e78261531a565b6143f181856153ca565b935083602082028501614403856152d4565b8060005b8581101561443f578484038952815161442085826140ec565b945061442b83615357565b925060208a01995050600181019050614407565b50829750879550505050505092915050565b600061445c8261531a565b61446681856153db565b935083602082028501614478856152d4565b8060005b858110156144b4578484038952815161449585826140ec565b94506144a083615357565b925060208a0199505060018101905061447c565b50829750879550505050505092915050565b6144cf8161542b565b82525050565b6144de8161542b565b82525050565b6144ed8161549a565b82525050565b6144fc8161549a565b82525050565b61450b816154ac565b82525050565b61451a816154ac565b82525050565b614529816154be565b82525050565b614538816154be565b82525050565b600061454982615325565b61455381856153ec565b93506145638185602086016154df565b61456c81615649565b840191505092915050565b600061458282615325565b61458c81856153fd565b935061459c8185602086016154df565b6145a581615649565b840191505092915050565b60006145bb82615325565b6145c5818561540e565b93506145d58185602086016154df565b80840191505092915050565b600081546145ee81615512565b6145f8818661540e565b94506001821660008114614613576001811461462457614657565b60ff19831686528186019350614657565b61462d856152e4565b60005b8381101561464f57815481890152600182019150602081019050614630565b838801955050505b50505092915050565b600061466d6020836153fd565b91507f4e6f6e206175746f726973653a207365756c656d656e742041756469746575726000830152602082019050919050565b60006146ad6022836153fd565b91507f4e6f6e206175746f726973653a207365756c656d656e742050726f647563746560008301527f75720000000000000000000000000000000000000000000000000000000000006020830152604082019050919050565b60006147136025836153fd565b91507f4e6f6e206175746f726973653a207365756c656d656e7420436572746966696360008301527f61746575720000000000000000000000000000000000000000000000000000006020830152604082019050919050565b60006147796017836153fd565b91507f50617320656e206574617065206465207265636f6c74650000000000000000006000830152602082019050919050565b60006147b96018836153fd565b91507f43652070617263656c6c65206e276578697374652070617300000000000000006000830152602082019050919050565b60006147f96022836153fd565b91507f4e6f6e206175746f726973653a207365756c656d656e7420436f6c6c6563746560008301527f75720000000000000000000000000000000000000000000000000000000000006020830152604082019050919050565b600061485f6023836153fd565b91507f4e6f6e206175746f726973653a207365756c656d656e7420466f75726e69737360008301527f65757200000000000000000000000000000000000000000000000000000000006020830152604082019050919050565b60006148c56024836153fd565b91507f4e6f6e206175746f726973653a207365756c656d656e74205472616e73706f7260008301527f74657572000000000000000000000000000000000000000000000000000000006020830152604082019050919050565b6040820160008201516149346000850182614100565b5060208201516149476020850182614520565b50505050565b60006080830160008301516149656000860182614c5b565b506020830151848203602086015261497d828261453e565b91505060408301518482036040860152614997828261453e565b91505060608301516149ac6060860182614c5b565b508091505092915050565b60006080830160008301516149cf6000860182614c5b565b5060208301516149e26020860182614100565b50604083015184820360408601526149fa828261453e565b9150506060830151614a0f6060860182614c5b565b508091505092915050565b60006060830160008301518482036000860152614a37828261453e565b9150506020830151614a4c6020860182614c5b565b506040830151614a5f60408601826144c6565b508091505092915050565b60a082016000820151614a806000850182614c5b565b506020820151614a936020850182614100565b506040820151614aa66040850182614c5b565b506060820151614ab96060850182614502565b506080820151614acc6080850182614c5b565b50505050565b60006101e083016000830151614aeb6000860182614c5b565b506020830151614afe6020860182614100565b5060408301518482036040860152614b16828261453e565b91505060608301518482036060860152614b30828261453e565b9150506080830151614b4560808601826144c6565b5060a0830151614b5860a08601826144e4565b5060c083015184820360c0860152614b70828261453e565b91505060e083015184820360e0860152614b8a828261453e565b915050610100830151848203610100860152614ba6828261411e565b915050610120830151848203610120860152614bc282826143dc565b915050610140830151848203610140860152614bde82826142f2565b915050610160830151848203610160860152614bfa8282614208565b915050610180830151848203610180860152614c16828261453e565b9150506101a08301518482036101a0860152614c32828261453e565b9150506101c08301518482036101c0860152614c4e828261453e565b9150508091505092915050565b614c6481615490565b82525050565b614c7381615490565b82525050565b6000614c8582846145b0565b915081905092915050565b6000614c9c82846145e1565b915081905092915050565b6000604082019050614cbc600083018561410f565b614cc9602083018461452f565b9392505050565b60006020820190508181036000830152614cea8184614193565b905092915050565b60006020820190508181036000830152614d0c818461427d565b905092915050565b60006020820190508181036000830152614d2e8184614367565b905092915050565b60006020820190508181036000830152614d508184614451565b905092915050565b6000602082019050614d6d60008301846144d5565b92915050565b6000602082019050614d8860008301846144f3565b92915050565b6000602082019050614da3600083018461452f565b92915050565b60006020820190508181036000830152614dc38184614577565b905092915050565b60006040820190508181036000830152614de58185614577565b9050614df460208301846144d5565b9392505050565b60006040820190508181036000830152614e158185614577565b90508181036020830152614e298184614577565b90509392505050565b600060e0820190508181036000830152614e4c818a614577565b90508181036020830152614e608189614577565b90508181036040830152614e748188614577565b90508181036060830152614e888187614577565b90508181036080830152614e9c8186614577565b905081810360a0830152614eb08185614577565b905081810360c0830152614ec48184614577565b905098975050505050505050565b60006040820190508181036000830152614eec8185614577565b9050614efb6020830184614c6a565b9392505050565b60006020820190508181036000830152614f1b81614660565b9050919050565b60006020820190508181036000830152614f3b816146a0565b9050919050565b60006020820190508181036000830152614f5b81614706565b9050919050565b60006020820190508181036000830152614f7b8161476c565b9050919050565b60006020820190508181036000830152614f9b816147ac565b9050919050565b60006020820190508181036000830152614fbb816147ec565b9050919050565b60006020820190508181036000830152614fdb81614852565b9050919050565b60006020820190508181036000830152614ffb816148b8565b9050919050565b6000604082019050615017600083018461491e565b92915050565b600060a0820190506150326000830184614a6a565b92915050565b600060208201905081810360008301526150528184614ad2565b905092915050565b600060208201905061506f6000830184614c6a565b92915050565b60006101608201905061508b600083018e614c6a565b615098602083018d61410f565b81810360408301526150aa818c614577565b905081810360608301526150be818b614577565b90506150cd608083018a6144d5565b6150da60a08301896144f3565b81810360c08301526150ec8188614577565b905081810360e08301526151008187614577565b90508181036101008301526151158186614577565b905081810361012083015261512a8185614577565b905081810361014083015261513f8184614577565b90509c9b505050505050505050505050565b60006080820190506151666000830187614c6a565b615173602083018661410f565b81810360408301526151858185614577565b90506151946060830184614c6a565b95945050505050565b600060a0820190506151b26000830188614c6a565b6151bf602083018761410f565b6151cc6040830186614c6a565b6151d96060830185614511565b6151e66080830184614c6a565b9695505050505050565b60006080820190506152056000830187614c6a565b81810360208301526152178186614577565b9050818103604083015261522b8185614577565b905061523a6060830184614c6a565b95945050505050565b6000604051905081810181811067ffffffffffffffff8211171561526a5761526961561a565b5b8060405250919050565b600067ffffffffffffffff82111561528f5761528e61561a565b5b601f19601f8301169050602081019050919050565b6000819050602082019050919050565b6000819050602082019050919050565b6000819050602082019050919050565b6000819050602082019050919050565b60008190508160005260206000209050919050565b600081519050919050565b600081519050919050565b600081519050919050565b600081519050919050565b600081519050919050565b6000602082019050919050565b6000602082019050919050565b6000602082019050919050565b6000602082019050919050565b600082825260208201905092915050565b600082825260208201905092915050565b600082825260208201905092915050565b600082825260208201905092915050565b600082825260208201905092915050565b600082825260208201905092915050565b600082825260208201905092915050565b600082825260208201905092915050565b600082825260208201905092915050565b600082825260208201905092915050565b600081905092915050565b600061542482615470565b9050919050565b60008115159050919050565b60008190506154458261565a565b919050565b60008190506154588261566e565b919050565b600081905061546b82615682565b919050565b600073ffffffffffffffffffffffffffffffffffffffff82169050919050565b6000819050919050565b60006154a582615437565b9050919050565b60006154b78261544a565b9050919050565b60006154c98261545d565b9050919050565b82818337600083830152505050565b60005b838110156154fd5780820151818401526020810190506154e2565b8381111561550c576000848401525b50505050565b6000600282049050600182168061552a57607f821691505b6020821081141561553e5761553d6155eb565b5b50919050565b600061554f82615490565b91507fffffffffffffffffffffffffffffffffffffffffffffffffffffffffffffffff8214156155825761558161558d565b5b600182019050919050565b7f4e487b7100000000000000000000000000000000000000000000000000000000600052601160045260246000fd5b7f4e487b7100000000000000000000000000000000000000000000000000000000600052602160045260246000fd5b7f4e487b7100000000000000000000000000000000000000000000000000000000600052602260045260246000fd5b7f4e487b7100000000000000000000000000000000000000000000000000000000600052604160045260246000fd5b6000601f19601f8301169050919050565b6004811061566b5761566a6155bc565b5b50565b6003811061567f5761567e6155bc565b5b50565b60078110615693576156926155bc565b5b50565b61569f81615419565b81146156aa57600080fd5b50565b6156b68161542b565b81146156c157600080fd5b50565b600481106156d157600080fd5b50565b600381106156e157600080fd5b50565b600781106156f157600080fd5b50565b6156fd81615490565b811461570857600080fd5b5056fea26469706673582212206407a85c856d34ad4ab14f554628cd78af6ce01e653f2cbe24575a52b86ac27164736f6c63430008000033",
  "linkReferences": {},
  "deployedLinkReferences": {}
}