{
  "_format": "hh-sol-artifact-1",
  "contractName": "ProducteurEnPhaseCulture",
  "sourceName": "contracts/ProducteurEnPhaseCulture.sol",
  "abi": [
    {
      "stateMutability": "payable",
      "type": "fallback"
    },
    {
      "inputs": [
        {
          "internalType": "uint32",
          "name": "_idParcelle",
          "type": "uint32"
        },
        {
          "internalType": "string",
          "name": "_rapport",
          "type": "string"
        }
      ],
      "name": "ajouterInspection",
      "outputs": [],
      "stateMutability": "nonpayable",
      "type": "function"
    },
    {
      "inputs": [
        {
          "internalType": "uint32",
          "name": "_idParcelle",
          "type": "uint32"
        },
        {
          "internalType": "string",
          "name": "_nom",
          "type": "string"
        },
        {
          "internalType": "uint32",
          "name": "_quantite",
          "type": "uint32"
        },
        {
          "internalType": "string",
          "name": "_categorie",
          "type": "string"
        },
        {
          "internalType": "address",
          "name": "_fournisseur",
          "type": "address"
        }
      ],
      "name": "ajouterIntrant",
      "outputs": [],
      "stateMutability": "nonpayable",
      "type": "function"
    },
    {
      "inputs": [
        {
          "internalType": "uint32",
          "name": "_idParcelle",
          "type": "uint32"
        },
        {
          "internalType": "string",
          "name": "_urlPhoto",
          "type": "string"
        }
      ],
      "name": "ajouterPhoto",
      "outputs": [],
      "stateMutability": "nonpayable",
      "type": "function"
    },
    {
      "inputs": [
        {
          "internalType": "uint32",
          "name": "_idParcelle",
          "type": "uint32"
        },
        {
          "internalType": "bool",
          "name": "_passe",
          "type": "bool"
        }
      ],
      "name": "appliquerControlePhytosanitaire",
      "outputs": [],
      "stateMutability": "nonpayable",
      "type": "function"
    },
    {
      "inputs": [],
      "name": "compteurInspections",
      "outputs": [
        {
          "internalType": "uint32",
          "name": "",
          "type": "uint32"
        }
      ],
      "stateMutability": "view",
      "type": "function"
    },
    {
      "inputs": [],
      "name": "compteurIntrants",
      "outputs": [
        {
          "internalType": "uint32",
          "name": "",
          "type": "uint32"
        }
      ],
      "stateMutability": "view",
      "type": "function"
    },
    {
      "inputs": [],
      "name": "compteurParcelles",
      "outputs": [
        {
          "internalType": "uint32",
          "name": "",
          "type": "uint32"
        }
      ],
      "stateMutability": "view",
      "type": "function"
    },
    {
      "inputs": [
        {
          "internalType": "string",
          "name": "_qualiteSemence",
          "type": "string"
        },
        {
          "internalType": "string",
          "name": "_methodeCulture",
          "type": "string"
        },
        {
          "internalType": "string",
          "name": "_latitude",
          "type": "string"
        },
        {
          "internalType": "string",
          "name": "_longitude",
          "type": "string"
        },
        {
          "internalType": "string",
          "name": "_dateRecolte",
          "type": "string"
        },
        {
          "internalType": "string",
          "name": "_certificatPhytosanitaire",
          "type": "string"
        }
      ],
      "name": "creerParcelle",
      "outputs": [],
      "stateMutability": "nonpayable",
      "type": "function"
    },
    {
      "inputs": [],
      "name": "gestionnaireActeurs",
      "outputs": [
        {
          "internalType": "contract GestionnaireActeurs",
          "name": "",
          "type": "address"
        }
      ],
      "stateMutability": "view",
      "type": "function"
    },
    {
      "inputs": [],
      "name": "getCompteurInspection",
      "outputs": [
        {
          "internalType": "uint32",
          "name": "",
          "type": "uint32"
        }
      ],
      "stateMutability": "view",
      "type": "function"
    },
    {
      "inputs": [],
      "name": "getCompteurParcelle",
      "outputs": [
        {
          "internalType": "uint32",
          "name": "",
          "type": "uint32"
        }
      ],
      "stateMutability": "view",
      "type": "function"
    },
    {
      "inputs": [
        {
          "internalType": "uint32",
          "name": "idParcelle",
          "type": "uint32"
        }
      ],
      "name": "getConditions",
      "outputs": [
        {
          "components": [
            {
              "internalType": "uint32",
              "name": "id",
              "type": "uint32"
            },
            {
              "internalType": "string",
              "name": "temperature",
              "type": "string"
            },
            {
              "internalType": "string",
              "name": "humidite",
              "type": "string"
            },
            {
              "internalType": "uint256",
              "name": "timestamp",
              "type": "uint256"
            }
          ],
          "internalType": "struct StructLib.EnregistrementCondition[]",
          "name": "",
          "type": "tuple[]"
        }
      ],
      "stateMutability": "view",
      "type": "function"
    },
    {
      "inputs": [
        {
          "internalType": "uint32",
          "name": "idParcelle",
          "type": "uint32"
        }
      ],
      "name": "getInspections",
      "outputs": [
        {
          "components": [
            {
              "internalType": "uint32",
              "name": "id",
              "type": "uint32"
            },
            {
              "internalType": "address",
              "name": "auditeur",
              "type": "address"
            },
            {
              "internalType": "string",
              "name": "rapport",
              "type": "string"
            },
            {
              "internalType": "uint256",
              "name": "timestamp",
              "type": "uint256"
            }
          ],
          "internalType": "struct StructLib.Inspection[]",
          "name": "",
          "type": "tuple[]"
        }
      ],
      "stateMutability": "view",
      "type": "function"
    },
    {
      "inputs": [
        {
          "internalType": "uint32",
          "name": "idParcelle",
          "type": "uint32"
        }
      ],
      "name": "getIntrants",
      "outputs": [
        {
          "components": [
            {
              "internalType": "string",
              "name": "nom",
              "type": "string"
            },
            {
              "internalType": "uint32",
              "name": "quantite",
              "type": "uint32"
            },
            {
              "internalType": "bool",
              "name": "valide",
              "type": "bool"
            },
            {
              "internalType": "uint32",
              "name": "id",
              "type": "uint32"
            },
            {
              "internalType": "string",
              "name": "categorie",
              "type": "string"
            },
            {
              "internalType": "address",
              "name": "fournisseur",
              "type": "address"
            },
            {
              "internalType": "string",
              "name": "certificatPhytosanitaire",
              "type": "string"
            }
          ],
          "internalType": "struct StructLib.Intrant[]",
          "name": "",
          "type": "tuple[]"
        }
      ],
      "stateMutability": "view",
      "type": "function"
    },
    {
      "inputs": [
        {
          "internalType": "uint32",
          "name": "id",
          "type": "uint32"
        }
      ],
      "name": "getParcelle",
      "outputs": [
        {
          "components": [
            {
              "internalType": "uint32",
              "name": "id",
              "type": "uint32"
            },
            {
              "internalType": "address",
              "name": "producteur",
              "type": "address"
            },
            {
              "internalType": "string",
              "name": "qualiteSemence",
              "type": "string"
            },
            {
              "internalType": "string",
              "name": "methodeCulture",
              "type": "string"
            },
            {
              "internalType": "bool",
              "name": "certifie",
              "type": "bool"
            },
            {
              "internalType": "enum StructLib.Etape",
              "name": "etape",
              "type": "uint8"
            },
            {
              "internalType": "string",
              "name": "latitude",
              "type": "string"
            },
            {
              "internalType": "string",
              "name": "longitude",
              "type": "string"
            },
            {
              "internalType": "string[]",
              "name": "photos",
              "type": "string[]"
            },
            {
              "components": [
                {
                  "internalType": "string",
                  "name": "nom",
                  "type": "string"
                },
                {
                  "internalType": "uint32",
                  "name": "quantite",
                  "type": "uint32"
                },
                {
                  "internalType": "bool",
                  "name": "valide",
                  "type": "bool"
                },
                {
                  "internalType": "uint32",
                  "name": "id",
                  "type": "uint32"
                },
                {
                  "internalType": "string",
                  "name": "categorie",
                  "type": "string"
                },
                {
                  "internalType": "address",
                  "name": "fournisseur",
                  "type": "address"
                },
                {
                  "internalType": "string",
                  "name": "certificatPhytosanitaire",
                  "type": "string"
                }
              ],
              "internalType": "struct StructLib.Intrant[]",
              "name": "intrants",
              "type": "tuple[]"
            },
            {
              "components": [
                {
                  "internalType": "uint32",
                  "name": "id",
                  "type": "uint32"
                },
                {
                  "internalType": "address",
                  "name": "auditeur",
                  "type": "address"
                },
                {
                  "internalType": "string",
                  "name": "rapport",
                  "type": "string"
                },
                {
                  "internalType": "uint256",
                  "name": "timestamp",
                  "type": "uint256"
                }
              ],
              "internalType": "struct StructLib.Inspection[]",
              "name": "inspections",
              "type": "tuple[]"
            },
            {
              "components": [
                {
                  "internalType": "uint32",
                  "name": "id",
                  "type": "uint32"
                },
                {
                  "internalType": "string",
                  "name": "temperature",
                  "type": "string"
                },
                {
                  "internalType": "string",
                  "name": "humidite",
                  "type": "string"
                },
                {
                  "internalType": "uint256",
                  "name": "timestamp",
                  "type": "uint256"
                }
              ],
              "internalType": "struct StructLib.EnregistrementCondition[]",
              "name": "conditions",
              "type": "tuple[]"
            },
            {
              "internalType": "string",
              "name": "dateRecolte",
              "type": "string"
            },
            {
              "internalType": "string",
              "name": "certificatPhytosanitaire",
              "type": "string"
            }
          ],
          "internalType": "struct StructLib.Parcelle",
          "name": "",
          "type": "tuple"
        }
      ],
      "stateMutability": "view",
      "type": "function"
    },
    {
      "inputs": [
        {
          "internalType": "uint32",
          "name": "idParcelle",
          "type": "uint32"
        }
      ],
      "name": "getPhotos",
      "outputs": [
        {
          "internalType": "string[]",
          "name": "",
          "type": "string[]"
        }
      ],
      "stateMutability": "view",
      "type": "function"
    },
    {
      "inputs": [
        {
          "internalType": "address",
          "name": "_gestionnaireActeurs",
          "type": "address"
        }
      ],
      "name": "initialiser",
      "outputs": [],
      "stateMutability": "nonpayable",
      "type": "function"
    },
    {
      "inputs": [
        {
          "internalType": "uint32",
          "name": "_idParcelle",
          "type": "uint32"
        },
        {
          "internalType": "enum StructLib.Etape",
          "name": "_etape",
          "type": "uint8"
        }
      ],
      "name": "mettreAJourEtape",
      "outputs": [],
      "stateMutability": "nonpayable",
      "type": "function"
    },
    {
      "inputs": [
        {
          "internalType": "uint32",
          "name": "",
          "type": "uint32"
        }
      ],
      "name": "parcelles",
      "outputs": [
        {
          "internalType": "uint32",
          "name": "id",
          "type": "uint32"
        },
        {
          "internalType": "address",
          "name": "producteur",
          "type": "address"
        },
        {
          "internalType": "string",
          "name": "qualiteSemence",
          "type": "string"
        },
        {
          "internalType": "string",
          "name": "methodeCulture",
          "type": "string"
        },
        {
          "internalType": "bool",
          "name": "certifie",
          "type": "bool"
        },
        {
          "internalType": "enum StructLib.Etape",
          "name": "etape",
          "type": "uint8"
        },
        {
          "internalType": "string",
          "name": "latitude",
          "type": "string"
        },
        {
          "internalType": "string",
          "name": "longitude",
          "type": "string"
        },
        {
          "internalType": "string",
          "name": "dateRecolte",
          "type": "string"
        },
        {
          "internalType": "string",
          "name": "certificatPhytosanitaire",
          "type": "string"
        }
      ],
      "stateMutability": "view",
      "type": "function"
    },
    {
      "inputs": [
        {
          "internalType": "uint32",
          "name": "_idParcelle",
          "type": "uint32"
        },
        {
          "internalType": "uint32",
          "name": "_id",
          "type": "uint32"
        },
        {
          "internalType": "bool",
          "name": "_valide",
          "type": "bool"
        },
        {
          "internalType": "string",
          "name": "_certificatPhytosanitaire",
          "type": "string"
        }
      ],
      "name": "validerIntrant",
      "outputs": [],
      "stateMutability": "nonpayable",
      "type": "function"
    },
    {
      "stateMutability": "payable",
      "type": "receive"
    }
  ],
  "bytecode": "0x608060405234801561001057600080fd5b506146ef806100206000396000f3fe6080604052600436106101235760003560e01c8063a149918c116100a0578063ddb45fec11610064578063ddb45fec146103e2578063e1e677331461041f578063ece32cd71461045c578063f03d9af614610485578063f54e44fc146104c25761012a565b8063a149918c14610311578063aeaba0781461033a578063b8988fa514610363578063cda36e631461038c578063d16d5109146103b75761012a565b80635d5efef9116100e75780635d5efef91461022c57806361153ee9146102695780637bc6edd1146102945780639462fa1e146102bd5780639e942cd4146102e65761012a565b80631912121d1461012c57806331686f41146101725780633ab62bd71461019d578063421b3e08146101c65780634fbdf4fe146102035761012a565b3661012a57005b005b34801561013857600080fd5b50610153600480360381019061014e9190613318565b6104ed565b6040516101699a9998979695949392919061418c565b60405180910390f35b34801561017e57600080fd5b506101876108bb565b6040516101949190614171565b60405180910390f35b3480156101a957600080fd5b506101c460048036038101906101bf91906133b9565b6108d5565b005b3480156101d257600080fd5b506101ed60048036038101906101e89190613318565b610a20565b6040516101fa919061414f565b60405180910390f35b34801561020f57600080fd5b5061022a600480360381019061022591906131ad565b6115b9565b005b34801561023857600080fd5b50610253600480360381019061024e9190613318565b611667565b6040516102609190614032565b60405180910390f35b34801561027557600080fd5b5061027e61195b565b60405161028b9190614171565b60405180910390f35b3480156102a057600080fd5b506102bb60048036038101906102b691906133b9565b611971565b005b3480156102c957600080fd5b506102e460048036038101906102df919061337d565b611bd2565b005b3480156102f257600080fd5b506102fb611d31565b6040516103089190614054565b60405180910390f35b34801561031d57600080fd5b50610338600480360381019061033391906131ff565b611d55565b005b34801561034657600080fd5b50610361600480360381019061035c91906134b4565b6122d1565b005b34801561036f57600080fd5b5061038a6004803603810190610385919061340d565b6125b5565b005b34801561039857600080fd5b506103a16128ba565b6040516103ae9190614171565b60405180910390f35b3480156103c357600080fd5b506103cc6128d0565b6040516103d99190614171565b60405180910390f35b3480156103ee57600080fd5b5061040960048036038101906104049190613318565b6128ea565b6040516104169190614010565b60405180910390f35b34801561042b57600080fd5b5061044660048036038101906104419190613318565b612a83565b6040516104539190613fee565b60405180910390f35b34801561046857600080fd5b50610483600480360381019061047e9190613341565b612c58565b005b34801561049157600080fd5b506104ac60048036038101906104a79190613318565b612e63565b6040516104b99190613fcc565b60405180910390f35b3480156104ce57600080fd5b506104d7612f5e565b6040516104e49190614171565b60405180910390f35b60016020528060005260406000206000915090508060000160009054906101000a900463ffffffff16908060000160049054906101000a900473ffffffffffffffffffffffffffffffffffffffff169080600101805461054c90614510565b80601f016020809104026020016040519081016040528092919081815260200182805461057890614510565b80156105c55780601f1061059a576101008083540402835291602001916105c5565b820191906000526020600020905b8154815290600101906020018083116105a857829003601f168201915b5050505050908060020180546105da90614510565b80601f016020809104026020016040519081016040528092919081815260200182805461060690614510565b80156106535780601f1061062857610100808354040283529160200191610653565b820191906000526020600020905b81548152906001019060200180831161063657829003601f168201915b5050505050908060030160009054906101000a900460ff16908060030160019054906101000a900460ff169080600401805461068e90614510565b80601f01602080910402602001604051908101604052809291908181526020018280546106ba90614510565b80156107075780601f106106dc57610100808354040283529160200191610707565b820191906000526020600020905b8154815290600101906020018083116106ea57829003601f168201915b50505050509080600501805461071c90614510565b80601f016020809104026020016040519081016040528092919081815260200182805461074890614510565b80156107955780601f1061076a57610100808354040283529160200191610795565b820191906000526020600020905b81548152906001019060200180831161077857829003601f168201915b50505050509080600a0180546107aa90614510565b80601f01602080910402602001604051908101604052809291908181526020018280546107d690614510565b80156108235780601f106107f857610100808354040283529160200191610823565b820191906000526020600020905b81548152906001019060200180831161080657829003601f168201915b50505050509080600b01805461083890614510565b80601f016020809104026020016040519081016040528092919081815260200182805461086490614510565b80156108b15780601f10610886576101008083540402835291602001916108b1565b820191906000526020600020905b81548152906001019060200180831161089457829003601f168201915b505050505090508a565b6000600260009054906101000a900463ffffffff16905090565b60008054906101000a900473ffffffffffffffffffffffffffffffffffffffff1673ffffffffffffffffffffffffffffffffffffffff1663d1e47bb33360006040518363ffffffff1660e01b8152600401610931929190613fa3565b60206040518083038186803b15801561094957600080fd5b505afa15801561095d573d6000803e3d6000fd5b505050506040513d601f19601f8201168201806040525081019061098191906131d6565b6109c0576040517f08c379a00000000000000000000000000000000000000000000000000000000081526004016109b79061408f565b60405180910390fd5b600160008363ffffffff1663ffffffff16815260200190815260200160002060060181908060018154018082558091505060019003906000526020600020016000909190919091509080519060200190610a1b929190612f74565b505050565b610a28612ffa565b600160008363ffffffff1663ffffffff168152602001908152602001600020604051806101c00160405290816000820160009054906101000a900463ffffffff1663ffffffff1663ffffffff1681526020016000820160049054906101000a900473ffffffffffffffffffffffffffffffffffffffff1673ffffffffffffffffffffffffffffffffffffffff1673ffffffffffffffffffffffffffffffffffffffff168152602001600182018054610adf90614510565b80601f0160208091040260200160405190810160405280929190818152602001828054610b0b90614510565b8015610b585780601f10610b2d57610100808354040283529160200191610b58565b820191906000526020600020905b815481529060010190602001808311610b3b57829003601f168201915b50505050508152602001600282018054610b7190614510565b80601f0160208091040260200160405190810160405280929190818152602001828054610b9d90614510565b8015610bea5780601f10610bbf57610100808354040283529160200191610bea565b820191906000526020600020905b815481529060010190602001808311610bcd57829003601f168201915b505050505081526020016003820160009054906101000a900460ff161515151581526020016003820160019054906101000a900460ff166003811115610c59577f4e487b7100000000000000000000000000000000000000000000000000000000600052602160045260246000fd5b6003811115610c91577f4e487b7100000000000000000000000000000000000000000000000000000000600052602160045260246000fd5b8152602001600482018054610ca590614510565b80601f0160208091040260200160405190810160405280929190818152602001828054610cd190614510565b8015610d1e5780601f10610cf357610100808354040283529160200191610d1e565b820191906000526020600020905b815481529060010190602001808311610d0157829003601f168201915b50505050508152602001600582018054610d3790614510565b80601f0160208091040260200160405190810160405280929190818152602001828054610d6390614510565b8015610db05780601f10610d8557610100808354040283529160200191610db0565b820191906000526020600020905b815481529060010190602001808311610d9357829003601f168201915b5050505050815260200160068201805480602002602001604051908101604052809291908181526020016000905b82821015610e8a578382906000526020600020018054610dfd90614510565b80601f0160208091040260200160405190810160405280929190818152602001828054610e2990614510565b8015610e765780601f10610e4b57610100808354040283529160200191610e76565b820191906000526020600020905b815481529060010190602001808311610e5957829003601f168201915b505050505081526020019060010190610dde565b50505050815260200160078201805480602002602001604051908101604052809291908181526020016000905b8282101561115c57838290600052602060002090600502016040518060e0016040529081600082018054610eea90614510565b80601f0160208091040260200160405190810160405280929190818152602001828054610f1690614510565b8015610f635780601f10610f3857610100808354040283529160200191610f63565b820191906000526020600020905b815481529060010190602001808311610f4657829003601f168201915b505050505081526020016001820160009054906101000a900463ffffffff1663ffffffff1663ffffffff1681526020016001820160049054906101000a900460ff161515151581526020016001820160059054906101000a900463ffffffff1663ffffffff1663ffffffff168152602001600282018054610fe390614510565b80601f016020809104026020016040519081016040528092919081815260200182805461100f90614510565b801561105c5780601f106110315761010080835404028352916020019161105c565b820191906000526020600020905b81548152906001019060200180831161103f57829003601f168201915b505050505081526020016003820160009054906101000a900473ffffffffffffffffffffffffffffffffffffffff1673ffffffffffffffffffffffffffffffffffffffff1673ffffffffffffffffffffffffffffffffffffffff1681526020016004820180546110cb90614510565b80601f01602080910402602001604051908101604052809291908181526020018280546110f790614510565b80156111445780601f1061111957610100808354040283529160200191611144565b820191906000526020600020905b81548152906001019060200180831161112757829003601f168201915b50505050508152505081526020019060010190610eb7565b50505050815260200160088201805480602002602001604051908101604052809291908181526020016000905b828210156112d357838290600052602060002090600302016040518060800160405290816000820160009054906101000a900463ffffffff1663ffffffff1663ffffffff1681526020016000820160049054906101000a900473ffffffffffffffffffffffffffffffffffffffff1673ffffffffffffffffffffffffffffffffffffffff1673ffffffffffffffffffffffffffffffffffffffff16815260200160018201805461123890614510565b80601f016020809104026020016040519081016040528092919081815260200182805461126490614510565b80156112b15780601f10611286576101008083540402835291602001916112b1565b820191906000526020600020905b81548152906001019060200180831161129457829003601f168201915b5050505050815260200160028201548152505081526020019060010190611189565b50505050815260200160098201805480602002602001604051908101604052809291908181526020016000905b8282101561148657838290600052602060002090600402016040518060800160405290816000820160009054906101000a900463ffffffff1663ffffffff1663ffffffff16815260200160018201805461135990614510565b80601f016020809104026020016040519081016040528092919081815260200182805461138590614510565b80156113d25780601f106113a7576101008083540402835291602001916113d2565b820191906000526020600020905b8154815290600101906020018083116113b557829003601f168201915b505050505081526020016002820180546113eb90614510565b80601f016020809104026020016040519081016040528092919081815260200182805461141790614510565b80156114645780601f1061143957610100808354040283529160200191611464565b820191906000526020600020905b81548152906001019060200180831161144757829003601f168201915b5050505050815260200160038201548152505081526020019060010190611300565b505050508152602001600a8201805461149e90614510565b80601f01602080910402602001604051908101604052809291908181526020018280546114ca90614510565b80156115175780601f106114ec57610100808354040283529160200191611517565b820191906000526020600020905b8154815290600101906020018083116114fa57829003601f168201915b50505050508152602001600b8201805461153090614510565b80601f016020809104026020016040519081016040528092919081815260200182805461155c90614510565b80156115a95780601f1061157e576101008083540402835291602001916115a9565b820191906000526020600020905b81548152906001019060200180831161158c57829003601f168201915b5050505050815250509050919050565b6002600c9054906101000a900460ff1615611609576040517f08c379a00000000000000000000000000000000000000000000000000000000081526004016116009061412f565b60405180910390fd5b806000806101000a81548173ffffffffffffffffffffffffffffffffffffffff021916908373ffffffffffffffffffffffffffffffffffffffff16021790555060016002600c6101000a81548160ff02191690831515021790555050565b6060600160008363ffffffff1663ffffffff168152602001908152602001600020600701805480602002602001604051908101604052809291908181526020016000905b8282101561195057838290600052602060002090600502016040518060e00160405290816000820180546116de90614510565b80601f016020809104026020016040519081016040528092919081815260200182805461170a90614510565b80156117575780601f1061172c57610100808354040283529160200191611757565b820191906000526020600020905b81548152906001019060200180831161173a57829003601f168201915b505050505081526020016001820160009054906101000a900463ffffffff1663ffffffff1663ffffffff1681526020016001820160049054906101000a900460ff161515151581526020016001820160059054906101000a900463ffffffff1663ffffffff1663ffffffff1681526020016002820180546117d790614510565b80601f016020809104026020016040519081016040528092919081815260200182805461180390614510565b80156118505780601f1061182557610100808354040283529160200191611850565b820191906000526020600020905b81548152906001019060200180831161183357829003601f168201915b505050505081526020016003820160009054906101000a900473ffffffffffffffffffffffffffffffffffffffff1673ffffffffffffffffffffffffffffffffffffffff1673ffffffffffffffffffffffffffffffffffffffff1681526020016004820180546118bf90614510565b80601f01602080910402602001604051908101604052809291908181526020018280546118eb90614510565b80156119385780601f1061190d57610100808354040283529160200191611938565b820191906000526020600020905b81548152906001019060200180831161191b57829003601f168201915b505050505081525050815260200190600101906116ab565b505050509050919050565b600260009054906101000a900463ffffffff1681565b60008054906101000a900473ffffffffffffffffffffffffffffffffffffffff1673ffffffffffffffffffffffffffffffffffffffff1663d1e47bb33360046040518363ffffffff1660e01b81526004016119cd929190613fa3565b60206040518083038186803b1580156119e557600080fd5b505afa1580156119f9573d6000803e3d6000fd5b505050506040513d601f19601f82011682018060405250810190611a1d91906131d6565b611a5c576040517f08c379a0000000000000000000000000000000000000000000000000000000008152600401611a539061406f565b60405180910390fd5b6002600481819054906101000a900463ffffffff1680929190611a7e90614542565b91906101000a81548163ffffffff021916908363ffffffff16021790555050600160008363ffffffff1663ffffffff1681526020019081526020016000206008016040518060800160405280600260049054906101000a900463ffffffff1663ffffffff1681526020013373ffffffffffffffffffffffffffffffffffffffff16815260200183815260200142815250908060018154018082558091505060019003906000526020600020906003020160009091909190915060008201518160000160006101000a81548163ffffffff021916908363ffffffff16021790555060208201518160000160046101000a81548173ffffffffffffffffffffffffffffffffffffffff021916908373ffffffffffffffffffffffffffffffffffffffff1602179055506040820151816001019080519060200190611bc1929190612f74565b506060820151816002015550505050565b60008054906101000a900473ffffffffffffffffffffffffffffffffffffffff1673ffffffffffffffffffffffffffffffffffffffff1663d1e47bb33360006040518363ffffffff1660e01b8152600401611c2e929190613fa3565b60206040518083038186803b158015611c4657600080fd5b505afa158015611c5a573d6000803e3d6000fd5b505050506040513d601f19601f82011682018060405250810190611c7e91906131d6565b611cbd576040517f08c379a0000000000000000000000000000000000000000000000000000000008152600401611cb49061408f565b60405180910390fd5b80600160008463ffffffff1663ffffffff16815260200190815260200160002060030160016101000a81548160ff02191690836003811115611d28577f4e487b7100000000000000000000000000000000000000000000000000000000600052602160045260246000fd5b02179055505050565b60008054906101000a900473ffffffffffffffffffffffffffffffffffffffff1681565b60008054906101000a900473ffffffffffffffffffffffffffffffffffffffff1673ffffffffffffffffffffffffffffffffffffffff1663d1e47bb33360006040518363ffffffff1660e01b8152600401611db1929190613fa3565b60206040518083038186803b158015611dc957600080fd5b505afa158015611ddd573d6000803e3d6000fd5b505050506040513d601f19601f82011682018060405250810190611e0191906131d6565b611e40576040517f08c379a0000000000000000000000000000000000000000000000000000000008152600401611e379061408f565b60405180910390fd5b60008054906101000a900473ffffffffffffffffffffffffffffffffffffffff1673ffffffffffffffffffffffffffffffffffffffff16639f7d7f4533306040518363ffffffff1660e01b8152600401611e9b929190613f7a565b60206040518083038186803b158015611eb357600080fd5b505afa158015611ec7573d6000803e3d6000fd5b505050506040513d601f19601f82011682018060405250810190611eeb91906131d6565b611f2a576040517f08c379a0000000000000000000000000000000000000000000000000000000008152600401611f21906140cf565b60405180910390fd5b6002600081819054906101000a900463ffffffff1680929190611f4c90614542565b91906101000a81548163ffffffff021916908363ffffffff16021790555050600260009054906101000a900463ffffffff1660016000600260009054906101000a900463ffffffff1663ffffffff1663ffffffff16815260200190815260200160002060000160006101000a81548163ffffffff021916908363ffffffff1602179055503360016000600260009054906101000a900463ffffffff1663ffffffff1663ffffffff16815260200190815260200160002060000160046101000a81548173ffffffffffffffffffffffffffffffffffffffff021916908373ffffffffffffffffffffffffffffffffffffffff1602179055508560016000600260009054906101000a900463ffffffff1663ffffffff1663ffffffff168152602001908152602001600020600101908051906020019061208b929190612f74565b508460016000600260009054906101000a900463ffffffff1663ffffffff1663ffffffff16815260200190815260200160002060020190805190602001906120d4929190612f74565b50600060016000600260009054906101000a900463ffffffff1663ffffffff1663ffffffff16815260200190815260200160002060030160006101000a81548160ff021916908315150217905550600060016000600260009054906101000a900463ffffffff1663ffffffff1663ffffffff16815260200190815260200160002060030160016101000a81548160ff021916908360038111156121a0577f4e487b7100000000000000000000000000000000000000000000000000000000600052602160045260246000fd5b02179055508360016000600260009054906101000a900463ffffffff1663ffffffff1663ffffffff16815260200190815260200160002060040190805190602001906121ed929190612f74565b508260016000600260009054906101000a900463ffffffff1663ffffffff1663ffffffff1681526020019081526020016000206005019080519060200190612236929190612f74565b508160016000600260009054906101000a900463ffffffff1663ffffffff1663ffffffff168152602001908152602001600020600a01908051906020019061227f929190612f74565b508060016000600260009054906101000a900463ffffffff1663ffffffff1663ffffffff168152602001908152602001600020600b0190805190602001906122c8929190612f74565b50505050505050565b60008054906101000a900473ffffffffffffffffffffffffffffffffffffffff1673ffffffffffffffffffffffffffffffffffffffff1663d1e47bb33360026040518363ffffffff1660e01b815260040161232d929190613fa3565b60206040518083038186803b15801561234557600080fd5b505afa158015612359573d6000803e3d6000fd5b505050506040513d601f19601f8201168201806040525081019061237d91906131d6565b6123bc576040517f08c379a00000000000000000000000000000000000000000000000000000000081526004016123b3906140af565b60405180910390fd5b60005b600160008663ffffffff1663ffffffff168152602001908152602001600020600701805490508163ffffffff1610156125ae578363ffffffff16600160008763ffffffff1663ffffffff1681526020019081526020016000206007018263ffffffff1681548110612459577f4e487b7100000000000000000000000000000000000000000000000000000000600052603260045260246000fd5b906000526020600020906005020160010160059054906101000a900463ffffffff1663ffffffff16141561259b5782600160008763ffffffff1663ffffffff1681526020019081526020016000206007018263ffffffff16815481106124e8577f4e487b7100000000000000000000000000000000000000000000000000000000600052603260045260246000fd5b906000526020600020906005020160010160046101000a81548160ff02191690831515021790555081600160008763ffffffff1663ffffffff1681526020019081526020016000206007018263ffffffff1681548110612571577f4e487b7100000000000000000000000000000000000000000000000000000000600052603260045260246000fd5b90600052602060002090600502016004019080519060200190612595929190612f74565b506125ae565b80806125a690614542565b9150506123bf565b5050505050565b60008054906101000a900473ffffffffffffffffffffffffffffffffffffffff1673ffffffffffffffffffffffffffffffffffffffff1663d1e47bb33360016040518363ffffffff1660e01b8152600401612611929190613fa3565b60206040518083038186803b15801561262957600080fd5b505afa15801561263d573d6000803e3d6000fd5b505050506040513d601f19601f8201168201806040525081019061266191906131d6565b6126a0576040517f08c379a00000000000000000000000000000000000000000000000000000000081526004016126979061410f565b60405180910390fd5b6002600881819054906101000a900463ffffffff16809291906126c290614542565b91906101000a81548163ffffffff021916908363ffffffff16021790555050600160008663ffffffff1663ffffffff1681526020019081526020016000206007016040518060e001604052808681526020018563ffffffff168152602001600015158152602001600260089054906101000a900463ffffffff1663ffffffff1681526020018481526020018373ffffffffffffffffffffffffffffffffffffffff16815260200160405180602001604052806000815250815250908060018154018082558091505060019003906000526020600020906005020160009091909190915060008201518160000190805190602001906127c1929190612f74565b5060208201518160010160006101000a81548163ffffffff021916908363ffffffff16021790555060408201518160010160046101000a81548160ff02191690831515021790555060608201518160010160056101000a81548163ffffffff021916908363ffffffff160217905550608082015181600201908051906020019061284c929190612f74565b5060a08201518160030160006101000a81548173ffffffffffffffffffffffffffffffffffffffff021916908373ffffffffffffffffffffffffffffffffffffffff16021790555060c08201518160040190805190602001906128b0929190612f74565b5050505050505050565b600260049054906101000a900463ffffffff1681565b6000600260049054906101000a900463ffffffff16905090565b6060600160008363ffffffff1663ffffffff168152602001908152602001600020600801805480602002602001604051908101604052809291908181526020016000905b82821015612a7857838290600052602060002090600302016040518060800160405290816000820160009054906101000a900463ffffffff1663ffffffff1663ffffffff1681526020016000820160049054906101000a900473ffffffffffffffffffffffffffffffffffffffff1673ffffffffffffffffffffffffffffffffffffffff1673ffffffffffffffffffffffffffffffffffffffff1681526020016001820180546129dd90614510565b80601f0160208091040260200160405190810160405280929190818152602001828054612a0990614510565b8015612a565780601f10612a2b57610100808354040283529160200191612a56565b820191906000526020600020905b815481529060010190602001808311612a3957829003601f168201915b505050505081526020016002820154815250508152602001906001019061292e565b505050509050919050565b6060600160008363ffffffff1663ffffffff168152602001908152602001600020600901805480602002602001604051908101604052809291908181526020016000905b82821015612c4d57838290600052602060002090600402016040518060800160405290816000820160009054906101000a900463ffffffff1663ffffffff1663ffffffff168152602001600182018054612b2090614510565b80601f0160208091040260200160405190810160405280929190818152602001828054612b4c90614510565b8015612b995780601f10612b6e57610100808354040283529160200191612b99565b820191906000526020600020905b815481529060010190602001808311612b7c57829003601f168201915b50505050508152602001600282018054612bb290614510565b80601f0160208091040260200160405190810160405280929190818152602001828054612bde90614510565b8015612c2b5780601f10612c0057610100808354040283529160200191612c2b565b820191906000526020600020905b815481529060010190602001808311612c0e57829003601f168201915b5050505050815260200160038201548152505081526020019060010190612ac7565b505050509050919050565b60008054906101000a900473ffffffffffffffffffffffffffffffffffffffff1673ffffffffffffffffffffffffffffffffffffffff1663d1e47bb33360026040518363ffffffff1660e01b8152600401612cb4929190613fa3565b60206040518083038186803b158015612ccc57600080fd5b505afa158015612ce0573d6000803e3d6000fd5b505050506040513d601f19601f82011682018060405250810190612d0491906131d6565b612d43576040517f08c379a0000000000000000000000000000000000000000000000000000000008152600401612d3a906140af565b60405180910390fd5b60016003811115612d7d577f4e487b7100000000000000000000000000000000000000000000000000000000600052602160045260246000fd5b600160008463ffffffff1663ffffffff16815260200190815260200160002060030160019054906101000a900460ff166003811115612de5577f4e487b7100000000000000000000000000000000000000000000000000000000600052602160045260246000fd5b14612e25576040517f08c379a0000000000000000000000000000000000000000000000000000000008152600401612e1c906140ef565b60405180910390fd5b80600160008463ffffffff1663ffffffff16815260200190815260200160002060030160006101000a81548160ff0219169083151502179055505050565b6060600160008363ffffffff1663ffffffff168152602001908152602001600020600601805480602002602001604051908101604052809291908181526020016000905b82821015612f53578382906000526020600020018054612ec690614510565b80601f0160208091040260200160405190810160405280929190818152602001828054612ef290614510565b8015612f3f5780601f10612f1457610100808354040283529160200191612f3f565b820191906000526020600020905b815481529060010190602001808311612f2257829003601f168201915b505050505081526020019060010190612ea7565b505050509050919050565b600260089054906101000a900463ffffffff1681565b828054612f8090614510565b90600052602060002090601f016020900481019282612fa25760008555612fe9565b82601f10612fbb57805160ff1916838001178555612fe9565b82800160010185558215612fe9579182015b82811115612fe8578251825591602001919060010190612fcd565b5b509050612ff691906130bf565b5090565b604051806101c00160405280600063ffffffff168152602001600073ffffffffffffffffffffffffffffffffffffffff168152602001606081526020016060815260200160001515815260200160006003811115613081577f4e487b7100000000000000000000000000000000000000000000000000000000600052602160045260246000fd5b815260200160608152602001606081526020016060815260200160608152602001606081526020016060815260200160608152602001606081525090565b5b808211156130d85760008160009055506001016130c0565b5090565b60006130ef6130ea84614283565b614252565b90508281526020810184848401111561310757600080fd5b6131128482856144ce565b509392505050565b60008135905061312981614664565b92915050565b60008135905061313e8161467b565b92915050565b6000815190506131538161467b565b92915050565b60008135905061316881614692565b92915050565b600082601f83011261317f57600080fd5b813561318f8482602086016130dc565b91505092915050565b6000813590506131a7816146a2565b92915050565b6000602082840312156131bf57600080fd5b60006131cd8482850161311a565b91505092915050565b6000602082840312156131e857600080fd5b60006131f684828501613144565b91505092915050565b60008060008060008060c0878903121561321857600080fd5b600087013567ffffffffffffffff81111561323257600080fd5b61323e89828a0161316e565b965050602087013567ffffffffffffffff81111561325b57600080fd5b61326789828a0161316e565b955050604087013567ffffffffffffffff81111561328457600080fd5b61329089828a0161316e565b945050606087013567ffffffffffffffff8111156132ad57600080fd5b6132b989828a0161316e565b935050608087013567ffffffffffffffff8111156132d657600080fd5b6132e289828a0161316e565b92505060a087013567ffffffffffffffff8111156132ff57600080fd5b61330b89828a0161316e565b9150509295509295509295565b60006020828403121561332a57600080fd5b600061333884828501613198565b91505092915050565b6000806040838503121561335457600080fd5b600061336285828601613198565b92505060206133738582860161312f565b9150509250929050565b6000806040838503121561339057600080fd5b600061339e85828601613198565b92505060206133af85828601613159565b9150509250929050565b600080604083850312156133cc57600080fd5b60006133da85828601613198565b925050602083013567ffffffffffffffff8111156133f757600080fd5b6134038582860161316e565b9150509250929050565b600080600080600060a0868803121561342557600080fd5b600061343388828901613198565b955050602086013567ffffffffffffffff81111561345057600080fd5b61345c8882890161316e565b945050604061346d88828901613198565b935050606086013567ffffffffffffffff81111561348a57600080fd5b6134968882890161316e565b92505060806134a78882890161311a565b9150509295509295909350565b600080600080608085870312156134ca57600080fd5b60006134d887828801613198565b94505060206134e987828801613198565b93505060406134fa8782880161312f565b925050606085013567ffffffffffffffff81111561351757600080fd5b6135238782880161316e565b91505092959194509250565b600061353b838361399f565b905092915050565b600061354f8383613c69565b905092915050565b60006135638383613cd3565b905092915050565b60006135778383613d36565b905092915050565b61358881614408565b82525050565b61359781614408565b82525050565b60006135a8826142f3565b6135b2818561435e565b9350836020820285016135c4856142b3565b8060005b8581101561360057848403895281516135e1858261352f565b94506135ec8361432a565b925060208a019950506001810190506135c8565b50829750879550505050505092915050565b600061361d826142f3565b613627818561436f565b935083602082028501613639856142b3565b8060005b858110156136755784840389528151613656858261352f565b94506136618361432a565b925060208a0199505060018101905061363d565b50829750879550505050505092915050565b6000613692826142fe565b61369c8185614380565b9350836020820285016136ae856142c3565b8060005b858110156136ea57848403895281516136cb8582613543565b94506136d683614337565b925060208a019950506001810190506136b2565b50829750879550505050505092915050565b6000613707826142fe565b6137118185614391565b935083602082028501613723856142c3565b8060005b8581101561375f57848403895281516137408582613543565b945061374b83614337565b925060208a01995050600181019050613727565b50829750879550505050505092915050565b600061377c82614309565b61378681856143a2565b935083602082028501613798856142d3565b8060005b858110156137d457848403895281516137b58582613557565b94506137c083614344565b925060208a0199505060018101905061379c565b50829750879550505050505092915050565b60006137f182614309565b6137fb81856143b3565b93508360208202850161380d856142d3565b8060005b85811015613849578484038952815161382a8582613557565b945061383583614344565b925060208a01995050600181019050613811565b50829750879550505050505092915050565b600061386682614314565b61387081856143c4565b935083602082028501613882856142e3565b8060005b858110156138be578484038952815161389f858261356b565b94506138aa83614351565b925060208a01995050600181019050613886565b50829750879550505050505092915050565b60006138db82614314565b6138e581856143d5565b9350836020820285016138f7856142e3565b8060005b858110156139335784840389528151613914858261356b565b945061391f83614351565b925060208a019950506001810190506138fb565b50829750879550505050505092915050565b61394e8161441a565b82525050565b61395d8161441a565b82525050565b61396c81614486565b82525050565b61397b816144aa565b82525050565b61398a816144aa565b82525050565b613999816144bc565b82525050565b60006139aa8261431f565b6139b481856143e6565b93506139c48185602086016144dd565b6139cd8161462b565b840191505092915050565b60006139e38261431f565b6139ed81856143f7565b93506139fd8185602086016144dd565b613a068161462b565b840191505092915050565b6000613a1e6020836143f7565b91507f4e6f6e206175746f726973653a207365756c656d656e742041756469746575726000830152602082019050919050565b6000613a5e6022836143f7565b91507f4e6f6e206175746f726973653a207365756c656d656e742050726f647563746560008301527f75720000000000000000000000000000000000000000000000000000000000006020830152604082019050919050565b6000613ac46025836143f7565b91507f4e6f6e206175746f726973653a207365756c656d656e7420436572746966696360008301527f61746575720000000000000000000000000000000000000000000000000000006020830152604082019050919050565b6000613b2a6021836143f7565b91507f4e6f6e206175746f726973653a20636f6e74726174206e6f6e2064656c65677560008301527f65000000000000000000000000000000000000000000000000000000000000006020830152604082019050919050565b6000613b906017836143f7565b91507f50617320656e2065746170652064652063756c747572650000000000000000006000830152602082019050919050565b6000613bd06023836143f7565b91507f4e6f6e206175746f726973653a207365756c656d656e7420466f75726e69737360008301527f65757200000000000000000000000000000000000000000000000000000000006020830152604082019050919050565b6000613c36601a836143f7565b91507f436f6e747261742064656a6120696e697469616c6973657220210000000000006000830152602082019050919050565b6000608083016000830151613c816000860182613f5c565b5060208301518482036020860152613c99828261399f565b91505060408301518482036040860152613cb3828261399f565b9150506060830151613cc86060860182613f4d565b508091505092915050565b6000608083016000830151613ceb6000860182613f5c565b506020830151613cfe602086018261357f565b5060408301518482036040860152613d16828261399f565b9150506060830151613d2b6060860182613f4d565b508091505092915050565b600060e0830160008301518482036000860152613d53828261399f565b9150506020830151613d686020860182613f5c565b506040830151613d7b6040860182613945565b506060830151613d8e6060860182613f5c565b5060808301518482036080860152613da6828261399f565b91505060a0830151613dbb60a086018261357f565b5060c083015184820360c0860152613dd3828261399f565b9150508091505092915050565b60006101c083016000830151613df96000860182613f5c565b506020830151613e0c602086018261357f565b5060408301518482036040860152613e24828261399f565b91505060608301518482036060860152613e3e828261399f565b9150506080830151613e536080860182613945565b5060a0830151613e6660a0860182613972565b5060c083015184820360c0860152613e7e828261399f565b91505060e083015184820360e0860152613e98828261399f565b915050610100830151848203610100860152613eb4828261359d565b915050610120830151848203610120860152613ed0828261385b565b915050610140830151848203610140860152613eec8282613771565b915050610160830151848203610160860152613f088282613687565b915050610180830151848203610180860152613f24828261399f565b9150506101a08301518482036101a0860152613f40828261399f565b9150508091505092915050565b613f568161446c565b82525050565b613f6581614476565b82525050565b613f7481614476565b82525050565b6000604082019050613f8f600083018561358e565b613f9c602083018461358e565b9392505050565b6000604082019050613fb8600083018561358e565b613fc56020830184613990565b9392505050565b60006020820190508181036000830152613fe68184613612565b905092915050565b6000602082019050818103600083015261400881846136fc565b905092915050565b6000602082019050818103600083015261402a81846137e6565b905092915050565b6000602082019050818103600083015261404c81846138d0565b905092915050565b60006020820190506140696000830184613963565b92915050565b6000602082019050818103600083015261408881613a11565b9050919050565b600060208201905081810360008301526140a881613a51565b9050919050565b600060208201905081810360008301526140c881613ab7565b9050919050565b600060208201905081810360008301526140e881613b1d565b9050919050565b6000602082019050818103600083015261410881613b83565b9050919050565b6000602082019050818103600083015261412881613bc3565b9050919050565b6000602082019050818103600083015261414881613c29565b9050919050565b600060208201905081810360008301526141698184613de0565b905092915050565b60006020820190506141866000830184613f6b565b92915050565b6000610140820190506141a2600083018d613f6b565b6141af602083018c61358e565b81810360408301526141c1818b6139d8565b905081810360608301526141d5818a6139d8565b90506141e46080830189613954565b6141f160a0830188613981565b81810360c083015261420381876139d8565b905081810360e083015261421781866139d8565b905081810361010083015261422c81856139d8565b905081810361012083015261424181846139d8565b90509b9a5050505050505050505050565b6000604051905081810181811067ffffffffffffffff82111715614279576142786145fc565b5b8060405250919050565b600067ffffffffffffffff82111561429e5761429d6145fc565b5b601f19601f8301169050602081019050919050565b6000819050602082019050919050565b6000819050602082019050919050565b6000819050602082019050919050565b6000819050602082019050919050565b600081519050919050565b600081519050919050565b600081519050919050565b600081519050919050565b600081519050919050565b6000602082019050919050565b6000602082019050919050565b6000602082019050919050565b6000602082019050919050565b600082825260208201905092915050565b600082825260208201905092915050565b600082825260208201905092915050565b600082825260208201905092915050565b600082825260208201905092915050565b600082825260208201905092915050565b600082825260208201905092915050565b600082825260208201905092915050565b600082825260208201905092915050565b600082825260208201905092915050565b60006144138261444c565b9050919050565b60008115159050919050565b60008190506144348261463c565b919050565b600081905061444782614650565b919050565b600073ffffffffffffffffffffffffffffffffffffffff82169050919050565b6000819050919050565b600063ffffffff82169050919050565b600061449182614498565b9050919050565b60006144a38261444c565b9050919050565b60006144b582614426565b9050919050565b60006144c782614439565b9050919050565b82818337600083830152505050565b60005b838110156144fb5780820151818401526020810190506144e0565b8381111561450a576000848401525b50505050565b6000600282049050600182168061452857607f821691505b6020821081141561453c5761453b6145cd565b5b50919050565b600061454d82614476565b915063ffffffff8214156145645761456361456f565b5b600182019050919050565b7f4e487b7100000000000000000000000000000000000000000000000000000000600052601160045260246000fd5b7f4e487b7100000000000000000000000000000000000000000000000000000000600052602160045260246000fd5b7f4e487b7100000000000000000000000000000000000000000000000000000000600052602260045260246000fd5b7f4e487b7100000000000000000000000000000000000000000000000000000000600052604160045260246000fd5b6000601f19601f8301169050919050565b6004811061464d5761464c61459e565b5b50565b600881106146615761466061459e565b5b50565b61466d81614408565b811461467857600080fd5b50565b6146848161441a565b811461468f57600080fd5b50565b6004811061469f57600080fd5b50565b6146ab81614476565b81146146b657600080fd5b5056fea2646970667358221220f572923ffd1f63d30e45777c16dd2010c5c5a0c110a9432239a761a50834a71a64736f6c63430008000033",
  "linkReferences": {},
  "deployedLinkReferences": {}
}