{
  "_format": "hh-sol-artifact-1",
  "contractName": "ProducteurEnPhaseCulture",
  "sourceName": "contracts/ProducteurEnPhaseCulture.sol",
  "abi": [
    {
      "inputs": [
        {
          "internalType": "address",
          "name": "_gestionnaireActeurs",
          "type": "address"
        }
      ],
      "stateMutability": "nonpayable",
      "type": "constructor"
    },
    {
      "stateMutability": "payable",
      "type": "fallback"
    },
    {
      "inputs": [
        {
          "internalType": "uint32",
          "name": "_idParcelle",
          "type": "uint32"
        },
        {
          "internalType": "string",
          "name": "_rapport",
          "type": "string"
        }
      ],
      "name": "ajouterInspection",
      "outputs": [],
      "stateMutability": "nonpayable",
      "type": "function"
    },
    {
      "inputs": [
        {
          "internalType": "uint32",
          "name": "_idParcelle",
          "type": "uint32"
        },
        {
          "internalType": "string",
          "name": "_nom",
          "type": "string"
        },
        {
          "internalType": "uint32",
          "name": "_quantite",
          "type": "uint32"
        }
      ],
      "name": "ajouterIntrant",
      "outputs": [],
      "stateMutability": "nonpayable",
      "type": "function"
    },
    {
      "inputs": [
        {
          "internalType": "uint32",
          "name": "_idParcelle",
          "type": "uint32"
        },
        {
          "internalType": "string",
          "name": "_urlPhoto",
          "type": "string"
        }
      ],
      "name": "ajouterPhoto",
      "outputs": [],
      "stateMutability": "nonpayable",
      "type": "function"
    },
    {
      "inputs": [
        {
          "internalType": "uint32",
          "name": "_idParcelle",
          "type": "uint32"
        },
        {
          "internalType": "bool",
          "name": "_passe",
          "type": "bool"
        }
      ],
      "name": "appliquerControlePhytosanitaire",
      "outputs": [],
      "stateMutability": "nonpayable",
      "type": "function"
    },
    {
      "inputs": [],
      "name": "compteurInspections",
      "outputs": [
        {
          "internalType": "uint32",
          "name": "",
          "type": "uint32"
        }
      ],
      "stateMutability": "view",
      "type": "function"
    },
    {
      "inputs": [],
      "name": "compteurParcelles",
      "outputs": [
        {
          "internalType": "uint32",
          "name": "",
          "type": "uint32"
        }
      ],
      "stateMutability": "view",
      "type": "function"
    },
    {
      "inputs": [
        {
          "internalType": "string",
          "name": "_qualiteSemence",
          "type": "string"
        },
        {
          "internalType": "string",
          "name": "_methodeCulture",
          "type": "string"
        },
        {
          "internalType": "string",
          "name": "_latitude",
          "type": "string"
        },
        {
          "internalType": "string",
          "name": "_longitude",
          "type": "string"
        },
        {
          "internalType": "string",
          "name": "_dateRecolte",
          "type": "string"
        },
        {
          "internalType": "string",
          "name": "_certificatPhytosanitaire",
          "type": "string"
        }
      ],
      "name": "creerParcelle",
      "outputs": [],
      "stateMutability": "nonpayable",
      "type": "function"
    },
    {
      "inputs": [],
      "name": "gestionnaireActeurs",
      "outputs": [
        {
          "internalType": "contract GestionnaireActeurs",
          "name": "",
          "type": "address"
        }
      ],
      "stateMutability": "view",
      "type": "function"
    },
    {
      "inputs": [],
      "name": "getCompteurInspection",
      "outputs": [
        {
          "internalType": "uint32",
          "name": "",
          "type": "uint32"
        }
      ],
      "stateMutability": "view",
      "type": "function"
    },
    {
      "inputs": [],
      "name": "getCompteurParcelle",
      "outputs": [
        {
          "internalType": "uint32",
          "name": "",
          "type": "uint32"
        }
      ],
      "stateMutability": "view",
      "type": "function"
    },
    {
      "inputs": [
        {
          "internalType": "uint32",
          "name": "idParcelle",
          "type": "uint32"
        }
      ],
      "name": "getConditions",
      "outputs": [
        {
          "components": [
            {
              "internalType": "uint32",
              "name": "id",
              "type": "uint32"
            },
            {
              "internalType": "string",
              "name": "temperature",
              "type": "string"
            },
            {
              "internalType": "string",
              "name": "humidite",
              "type": "string"
            },
            {
              "internalType": "uint256",
              "name": "timestamp",
              "type": "uint256"
            }
          ],
          "internalType": "struct StructLib.EnregistrementCondition[]",
          "name": "",
          "type": "tuple[]"
        }
      ],
      "stateMutability": "view",
      "type": "function"
    },
    {
      "inputs": [
        {
          "internalType": "uint32",
          "name": "idParcelle",
          "type": "uint32"
        }
      ],
      "name": "getInspections",
      "outputs": [
        {
          "components": [
            {
              "internalType": "uint32",
              "name": "id",
              "type": "uint32"
            },
            {
              "internalType": "address",
              "name": "auditeur",
              "type": "address"
            },
            {
              "internalType": "string",
              "name": "rapport",
              "type": "string"
            },
            {
              "internalType": "uint256",
              "name": "timestamp",
              "type": "uint256"
            }
          ],
          "internalType": "struct StructLib.Inspection[]",
          "name": "",
          "type": "tuple[]"
        }
      ],
      "stateMutability": "view",
      "type": "function"
    },
    {
      "inputs": [
        {
          "internalType": "uint32",
          "name": "idParcelle",
          "type": "uint32"
        }
      ],
      "name": "getIntrants",
      "outputs": [
        {
          "components": [
            {
              "internalType": "string",
              "name": "nom",
              "type": "string"
            },
            {
              "internalType": "uint32",
              "name": "quantite",
              "type": "uint32"
            },
            {
              "internalType": "bool",
              "name": "valide",
              "type": "bool"
            }
          ],
          "internalType": "struct StructLib.Intrant[]",
          "name": "",
          "type": "tuple[]"
        }
      ],
      "stateMutability": "view",
      "type": "function"
    },
    {
      "inputs": [
        {
          "internalType": "uint32",
          "name": "id",
          "type": "uint32"
        }
      ],
      "name": "getParcelle",
      "outputs": [
        {
          "components": [
            {
              "internalType": "uint32",
              "name": "id",
              "type": "uint32"
            },
            {
              "internalType": "address",
              "name": "producteur",
              "type": "address"
            },
            {
              "internalType": "string",
              "name": "qualiteSemence",
              "type": "string"
            },
            {
              "internalType": "string",
              "name": "methodeCulture",
              "type": "string"
            },
            {
              "internalType": "bool",
              "name": "certifie",
              "type": "bool"
            },
            {
              "internalType": "enum StructLib.Etape",
              "name": "etape",
              "type": "uint8"
            },
            {
              "internalType": "string",
              "name": "latitude",
              "type": "string"
            },
            {
              "internalType": "string",
              "name": "longitude",
              "type": "string"
            },
            {
              "internalType": "string[]",
              "name": "photos",
              "type": "string[]"
            },
            {
              "components": [
                {
                  "internalType": "string",
                  "name": "nom",
                  "type": "string"
                },
                {
                  "internalType": "uint32",
                  "name": "quantite",
                  "type": "uint32"
                },
                {
                  "internalType": "bool",
                  "name": "valide",
                  "type": "bool"
                }
              ],
              "internalType": "struct StructLib.Intrant[]",
              "name": "intrants",
              "type": "tuple[]"
            },
            {
              "components": [
                {
                  "internalType": "uint32",
                  "name": "id",
                  "type": "uint32"
                },
                {
                  "internalType": "address",
                  "name": "auditeur",
                  "type": "address"
                },
                {
                  "internalType": "string",
                  "name": "rapport",
                  "type": "string"
                },
                {
                  "internalType": "uint256",
                  "name": "timestamp",
                  "type": "uint256"
                }
              ],
              "internalType": "struct StructLib.Inspection[]",
              "name": "inspections",
              "type": "tuple[]"
            },
            {
              "components": [
                {
                  "internalType": "uint32",
                  "name": "id",
                  "type": "uint32"
                },
                {
                  "internalType": "string",
                  "name": "temperature",
                  "type": "string"
                },
                {
                  "internalType": "string",
                  "name": "humidite",
                  "type": "string"
                },
                {
                  "internalType": "uint256",
                  "name": "timestamp",
                  "type": "uint256"
                }
              ],
              "internalType": "struct StructLib.EnregistrementCondition[]",
              "name": "conditions",
              "type": "tuple[]"
            },
            {
              "internalType": "string",
              "name": "dateRecolte",
              "type": "string"
            },
            {
              "internalType": "string",
              "name": "certificatPhytosanitaire",
              "type": "string"
            }
          ],
          "internalType": "struct StructLib.Parcelle",
          "name": "",
          "type": "tuple"
        }
      ],
      "stateMutability": "view",
      "type": "function"
    },
    {
      "inputs": [
        {
          "internalType": "uint32",
          "name": "idParcelle",
          "type": "uint32"
        }
      ],
      "name": "getPhotos",
      "outputs": [
        {
          "internalType": "string[]",
          "name": "",
          "type": "string[]"
        }
      ],
      "stateMutability": "view",
      "type": "function"
    },
    {
      "inputs": [
        {
          "internalType": "uint32",
          "name": "_idParcelle",
          "type": "uint32"
        },
        {
          "internalType": "enum StructLib.Etape",
          "name": "_etape",
          "type": "uint8"
        }
      ],
      "name": "mettreAJourEtape",
      "outputs": [],
      "stateMutability": "nonpayable",
      "type": "function"
    },
    {
      "inputs": [
        {
          "internalType": "uint32",
          "name": "",
          "type": "uint32"
        }
      ],
      "name": "parcelles",
      "outputs": [
        {
          "internalType": "uint32",
          "name": "id",
          "type": "uint32"
        },
        {
          "internalType": "address",
          "name": "producteur",
          "type": "address"
        },
        {
          "internalType": "string",
          "name": "qualiteSemence",
          "type": "string"
        },
        {
          "internalType": "string",
          "name": "methodeCulture",
          "type": "string"
        },
        {
          "internalType": "bool",
          "name": "certifie",
          "type": "bool"
        },
        {
          "internalType": "enum StructLib.Etape",
          "name": "etape",
          "type": "uint8"
        },
        {
          "internalType": "string",
          "name": "latitude",
          "type": "string"
        },
        {
          "internalType": "string",
          "name": "longitude",
          "type": "string"
        },
        {
          "internalType": "string",
          "name": "dateRecolte",
          "type": "string"
        },
        {
          "internalType": "string",
          "name": "certificatPhytosanitaire",
          "type": "string"
        }
      ],
      "stateMutability": "view",
      "type": "function"
    },
    {
      "inputs": [
        {
          "internalType": "uint32",
          "name": "_idParcelle",
          "type": "uint32"
        },
        {
          "internalType": "string",
          "name": "_nom",
          "type": "string"
        },
        {
          "internalType": "bool",
          "name": "_valide",
          "type": "bool"
        }
      ],
      "name": "validerIntrant",
      "outputs": [],
      "stateMutability": "nonpayable",
      "type": "function"
    },
    {
      "stateMutability": "payable",
      "type": "receive"
    }
  ],
  "bytecode": "0x60806040523480156200001157600080fd5b50604051620041a3380380620041a3833981810160405281019062000037919062000095565b806000806101000a81548173ffffffffffffffffffffffffffffffffffffffff021916908373ffffffffffffffffffffffffffffffffffffffff160217905550506200010f565b6000815190506200008f81620000f5565b92915050565b600060208284031215620000a857600080fd5b6000620000b8848285016200007e565b91505092915050565b6000620000ce82620000d5565b9050919050565b600073ffffffffffffffffffffffffffffffffffffffff82169050919050565b6200010081620000c1565b81146200010c57600080fd5b50565b614084806200011f6000396000f3fe60806040526004361061010d5760003560e01c80639462fa1e11610095578063d16d510911610064578063d16d510914610378578063ddb45fec146103a3578063e1e67733146103e0578063ece32cd71461041d578063f03d9af61461044657610114565b80639462fa1e146102d05780639e942cd4146102f9578063a149918c14610324578063cda36e631461034d57610114565b8063421b3e08116100dc578063421b3e08146101d95780635d5efef9146102165780635ee250791461025357806361153ee91461027c5780637bc6edd1146102a757610114565b806304bfefce146101165780631912121d1461013f57806331686f41146101855780633ab62bd7146101b057610114565b3661011457005b005b34801561012257600080fd5b5061013d60048036038101906101389190612dc9565b610483565b005b34801561014b57600080fd5b5061016660048036038101906101619190612cd4565b61070f565b60405161017c9a99989796959493929190613b18565b60405180910390f35b34801561019157600080fd5b5061019a610add565b6040516101a79190613afd565b60405180910390f35b3480156101bc57600080fd5b506101d760048036038101906101d29190612d75565b610af7565b005b3480156101e557600080fd5b5061020060048036038101906101fb9190612cd4565b610c42565b60405161020d9190613adb565b60405180910390f35b34801561022257600080fd5b5061023d60048036038101906102389190612cd4565b61163b565b60405161024a91906139de565b60405180910390f35b34801561025f57600080fd5b5061027a60048036038101906102759190612e30565b61178f565b005b34801561028857600080fd5b50610291611954565b60405161029e9190613afd565b60405180910390f35b3480156102b357600080fd5b506102ce60048036038101906102c99190612d75565b61196a565b005b3480156102dc57600080fd5b506102f760048036038101906102f29190612d39565b611bcb565b005b34801561030557600080fd5b5061030e611d2a565b60405161031b9190613a00565b60405180910390f35b34801561033057600080fd5b5061034b60048036038101906103469190612bbb565b611d4e565b005b34801561035957600080fd5b506103626122ca565b60405161036f9190613afd565b60405180910390f35b34801561038457600080fd5b5061038d6122e0565b60405161039a9190613afd565b60405180910390f35b3480156103af57600080fd5b506103ca60048036038101906103c59190612cd4565b6122fa565b6040516103d791906139bc565b60405180910390f35b3480156103ec57600080fd5b5061040760048036038101906104029190612cd4565b612493565b604051610414919061399a565b60405180910390f35b34801561042957600080fd5b50610444600480360381019061043f9190612cfd565b612668565b005b34801561045257600080fd5b5061046d60048036038101906104689190612cd4565b612873565b60405161047a9190613978565b60405180910390f35b60008054906101000a900473ffffffffffffffffffffffffffffffffffffffff1673ffffffffffffffffffffffffffffffffffffffff1663d1e47bb33360026040518363ffffffff1660e01b81526004016104df92919061394f565b60206040518083038186803b1580156104f757600080fd5b505afa15801561050b573d6000803e3d6000fd5b505050506040513d601f19601f8201168201806040525081019061052f9190612b92565b61056e576040517f08c379a000000000000000000000000000000000000000000000000000000000815260040161056590613a5b565b60405180910390fd5b60005b600160008563ffffffff1663ffffffff168152602001908152602001600020600701805490508163ffffffff16101561070957826040516020016105b591906138f8565b60405160208183030381529060405280519060200120600160008663ffffffff1663ffffffff1681526020019081526020016000206007018263ffffffff168154811061062b577f4e487b7100000000000000000000000000000000000000000000000000000000600052603260045260246000fd5b906000526020600020906002020160000160405160200161064c919061390f565b6040516020818303038152906040528051906020012014156106f65781600160008663ffffffff1663ffffffff1681526020019081526020016000206007018263ffffffff16815481106106c9577f4e487b7100000000000000000000000000000000000000000000000000000000600052603260045260246000fd5b906000526020600020906002020160010160046101000a81548160ff021916908315150217905550610709565b808061070190613eee565b915050610571565b50505050565b60016020528060005260406000206000915090508060000160009054906101000a900463ffffffff16908060000160049054906101000a900473ffffffffffffffffffffffffffffffffffffffff169080600101805461076e90613ebc565b80601f016020809104026020016040519081016040528092919081815260200182805461079a90613ebc565b80156107e75780601f106107bc576101008083540402835291602001916107e7565b820191906000526020600020905b8154815290600101906020018083116107ca57829003601f168201915b5050505050908060020180546107fc90613ebc565b80601f016020809104026020016040519081016040528092919081815260200182805461082890613ebc565b80156108755780601f1061084a57610100808354040283529160200191610875565b820191906000526020600020905b81548152906001019060200180831161085857829003601f168201915b5050505050908060030160009054906101000a900460ff16908060030160019054906101000a900460ff16908060040180546108b090613ebc565b80601f01602080910402602001604051908101604052809291908181526020018280546108dc90613ebc565b80156109295780601f106108fe57610100808354040283529160200191610929565b820191906000526020600020905b81548152906001019060200180831161090c57829003601f168201915b50505050509080600501805461093e90613ebc565b80601f016020809104026020016040519081016040528092919081815260200182805461096a90613ebc565b80156109b75780601f1061098c576101008083540402835291602001916109b7565b820191906000526020600020905b81548152906001019060200180831161099a57829003601f168201915b50505050509080600a0180546109cc90613ebc565b80601f01602080910402602001604051908101604052809291908181526020018280546109f890613ebc565b8015610a455780601f10610a1a57610100808354040283529160200191610a45565b820191906000526020600020905b815481529060010190602001808311610a2857829003601f168201915b50505050509080600b018054610a5a90613ebc565b80601f0160208091040260200160405190810160405280929190818152602001828054610a8690613ebc565b8015610ad35780601f10610aa857610100808354040283529160200191610ad3565b820191906000526020600020905b815481529060010190602001808311610ab657829003601f168201915b505050505090508a565b6000600260009054906101000a900463ffffffff16905090565b60008054906101000a900473ffffffffffffffffffffffffffffffffffffffff1673ffffffffffffffffffffffffffffffffffffffff1663d1e47bb33360006040518363ffffffff1660e01b8152600401610b5392919061394f565b60206040518083038186803b158015610b6b57600080fd5b505afa158015610b7f573d6000803e3d6000fd5b505050506040513d601f19601f82011682018060405250810190610ba39190612b92565b610be2576040517f08c379a0000000000000000000000000000000000000000000000000000000008152600401610bd990613a3b565b60405180910390fd5b600160008363ffffffff1663ffffffff16815260200190815260200160002060060181908060018154018082558091505060019003906000526020600020016000909190919091509080519060200190610c3d92919061296e565b505050565b610c4a6129f4565b600160008363ffffffff1663ffffffff168152602001908152602001600020604051806101c00160405290816000820160009054906101000a900463ffffffff1663ffffffff1663ffffffff1681526020016000820160049054906101000a900473ffffffffffffffffffffffffffffffffffffffff1673ffffffffffffffffffffffffffffffffffffffff1673ffffffffffffffffffffffffffffffffffffffff168152602001600182018054610d0190613ebc565b80601f0160208091040260200160405190810160405280929190818152602001828054610d2d90613ebc565b8015610d7a5780601f10610d4f57610100808354040283529160200191610d7a565b820191906000526020600020905b815481529060010190602001808311610d5d57829003601f168201915b50505050508152602001600282018054610d9390613ebc565b80601f0160208091040260200160405190810160405280929190818152602001828054610dbf90613ebc565b8015610e0c5780601f10610de157610100808354040283529160200191610e0c565b820191906000526020600020905b815481529060010190602001808311610def57829003601f168201915b505050505081526020016003820160009054906101000a900460ff161515151581526020016003820160019054906101000a900460ff166003811115610e7b577f4e487b7100000000000000000000000000000000000000000000000000000000600052602160045260246000fd5b6003811115610eb3577f4e487b7100000000000000000000000000000000000000000000000000000000600052602160045260246000fd5b8152602001600482018054610ec790613ebc565b80601f0160208091040260200160405190810160405280929190818152602001828054610ef390613ebc565b8015610f405780601f10610f1557610100808354040283529160200191610f40565b820191906000526020600020905b815481529060010190602001808311610f2357829003601f168201915b50505050508152602001600582018054610f5990613ebc565b80601f0160208091040260200160405190810160405280929190818152602001828054610f8590613ebc565b8015610fd25780601f10610fa757610100808354040283529160200191610fd2565b820191906000526020600020905b815481529060010190602001808311610fb557829003601f168201915b5050505050815260200160068201805480602002602001604051908101604052809291908181526020016000905b828210156110ac57838290600052602060002001805461101f90613ebc565b80601f016020809104026020016040519081016040528092919081815260200182805461104b90613ebc565b80156110985780601f1061106d57610100808354040283529160200191611098565b820191906000526020600020905b81548152906001019060200180831161107b57829003601f168201915b505050505081526020019060010190611000565b50505050815260200160078201805480602002602001604051908101604052809291908181526020016000905b828210156111de578382906000526020600020906002020160405180606001604052908160008201805461110c90613ebc565b80601f016020809104026020016040519081016040528092919081815260200182805461113890613ebc565b80156111855780601f1061115a57610100808354040283529160200191611185565b820191906000526020600020905b81548152906001019060200180831161116857829003601f168201915b505050505081526020016001820160009054906101000a900463ffffffff1663ffffffff1663ffffffff1681526020016001820160049054906101000a900460ff161515151581525050815260200190600101906110d9565b50505050815260200160088201805480602002602001604051908101604052809291908181526020016000905b8282101561135557838290600052602060002090600302016040518060800160405290816000820160009054906101000a900463ffffffff1663ffffffff1663ffffffff1681526020016000820160049054906101000a900473ffffffffffffffffffffffffffffffffffffffff1673ffffffffffffffffffffffffffffffffffffffff1673ffffffffffffffffffffffffffffffffffffffff1681526020016001820180546112ba90613ebc565b80601f01602080910402602001604051908101604052809291908181526020018280546112e690613ebc565b80156113335780601f1061130857610100808354040283529160200191611333565b820191906000526020600020905b81548152906001019060200180831161131657829003601f168201915b505050505081526020016002820154815250508152602001906001019061120b565b50505050815260200160098201805480602002602001604051908101604052809291908181526020016000905b8282101561150857838290600052602060002090600402016040518060800160405290816000820160009054906101000a900463ffffffff1663ffffffff1663ffffffff1681526020016001820180546113db90613ebc565b80601f016020809104026020016040519081016040528092919081815260200182805461140790613ebc565b80156114545780601f1061142957610100808354040283529160200191611454565b820191906000526020600020905b81548152906001019060200180831161143757829003601f168201915b5050505050815260200160028201805461146d90613ebc565b80601f016020809104026020016040519081016040528092919081815260200182805461149990613ebc565b80156114e65780601f106114bb576101008083540402835291602001916114e6565b820191906000526020600020905b8154815290600101906020018083116114c957829003601f168201915b5050505050815260200160038201548152505081526020019060010190611382565b505050508152602001600a8201805461152090613ebc565b80601f016020809104026020016040519081016040528092919081815260200182805461154c90613ebc565b80156115995780601f1061156e57610100808354040283529160200191611599565b820191906000526020600020905b81548152906001019060200180831161157c57829003601f168201915b50505050508152602001600b820180546115b290613ebc565b80601f01602080910402602001604051908101604052809291908181526020018280546115de90613ebc565b801561162b5780601f106116005761010080835404028352916020019161162b565b820191906000526020600020905b81548152906001019060200180831161160e57829003601f168201915b5050505050815250509050919050565b6060600160008363ffffffff1663ffffffff168152602001908152602001600020600701805480602002602001604051908101604052809291908181526020016000905b8282101561178457838290600052602060002090600202016040518060600160405290816000820180546116b290613ebc565b80601f01602080910402602001604051908101604052809291908181526020018280546116de90613ebc565b801561172b5780601f106117005761010080835404028352916020019161172b565b820191906000526020600020905b81548152906001019060200180831161170e57829003601f168201915b505050505081526020016001820160009054906101000a900463ffffffff1663ffffffff1663ffffffff1681526020016001820160049054906101000a900460ff1615151515815250508152602001906001019061167f565b505050509050919050565b60008054906101000a900473ffffffffffffffffffffffffffffffffffffffff1673ffffffffffffffffffffffffffffffffffffffff1663d1e47bb33360016040518363ffffffff1660e01b81526004016117eb92919061394f565b60206040518083038186803b15801561180357600080fd5b505afa158015611817573d6000803e3d6000fd5b505050506040513d601f19601f8201168201806040525081019061183b9190612b92565b61187a576040517f08c379a000000000000000000000000000000000000000000000000000000000815260040161187190613abb565b60405180910390fd5b600160008463ffffffff1663ffffffff16815260200190815260200160002060070160405180606001604052808481526020018363ffffffff168152602001600015158152509080600181540180825580915050600190039060005260206000209060020201600090919091909150600082015181600001908051906020019061190592919061296e565b5060208201518160010160006101000a81548163ffffffff021916908363ffffffff16021790555060408201518160010160046101000a81548160ff0219169083151502179055505050505050565b600260009054906101000a900463ffffffff1681565b60008054906101000a900473ffffffffffffffffffffffffffffffffffffffff1673ffffffffffffffffffffffffffffffffffffffff1663d1e47bb33360046040518363ffffffff1660e01b81526004016119c692919061394f565b60206040518083038186803b1580156119de57600080fd5b505afa1580156119f2573d6000803e3d6000fd5b505050506040513d601f19601f82011682018060405250810190611a169190612b92565b611a55576040517f08c379a0000000000000000000000000000000000000000000000000000000008152600401611a4c90613a1b565b60405180910390fd5b6002600481819054906101000a900463ffffffff1680929190611a7790613eee565b91906101000a81548163ffffffff021916908363ffffffff16021790555050600160008363ffffffff1663ffffffff1681526020019081526020016000206008016040518060800160405280600260049054906101000a900463ffffffff1663ffffffff1681526020013373ffffffffffffffffffffffffffffffffffffffff16815260200183815260200142815250908060018154018082558091505060019003906000526020600020906003020160009091909190915060008201518160000160006101000a81548163ffffffff021916908363ffffffff16021790555060208201518160000160046101000a81548173ffffffffffffffffffffffffffffffffffffffff021916908373ffffffffffffffffffffffffffffffffffffffff1602179055506040820151816001019080519060200190611bba92919061296e565b506060820151816002015550505050565b60008054906101000a900473ffffffffffffffffffffffffffffffffffffffff1673ffffffffffffffffffffffffffffffffffffffff1663d1e47bb33360006040518363ffffffff1660e01b8152600401611c2792919061394f565b60206040518083038186803b158015611c3f57600080fd5b505afa158015611c53573d6000803e3d6000fd5b505050506040513d601f19601f82011682018060405250810190611c779190612b92565b611cb6576040517f08c379a0000000000000000000000000000000000000000000000000000000008152600401611cad90613a3b565b60405180910390fd5b80600160008463ffffffff1663ffffffff16815260200190815260200160002060030160016101000a81548160ff02191690836003811115611d21577f4e487b7100000000000000000000000000000000000000000000000000000000600052602160045260246000fd5b02179055505050565b60008054906101000a900473ffffffffffffffffffffffffffffffffffffffff1681565b60008054906101000a900473ffffffffffffffffffffffffffffffffffffffff1673ffffffffffffffffffffffffffffffffffffffff1663d1e47bb33360006040518363ffffffff1660e01b8152600401611daa92919061394f565b60206040518083038186803b158015611dc257600080fd5b505afa158015611dd6573d6000803e3d6000fd5b505050506040513d601f19601f82011682018060405250810190611dfa9190612b92565b611e39576040517f08c379a0000000000000000000000000000000000000000000000000000000008152600401611e3090613a3b565b60405180910390fd5b60008054906101000a900473ffffffffffffffffffffffffffffffffffffffff1673ffffffffffffffffffffffffffffffffffffffff16639f7d7f4533306040518363ffffffff1660e01b8152600401611e94929190613926565b60206040518083038186803b158015611eac57600080fd5b505afa158015611ec0573d6000803e3d6000fd5b505050506040513d601f19601f82011682018060405250810190611ee49190612b92565b611f23576040517f08c379a0000000000000000000000000000000000000000000000000000000008152600401611f1a90613a7b565b60405180910390fd5b6002600081819054906101000a900463ffffffff1680929190611f4590613eee565b91906101000a81548163ffffffff021916908363ffffffff16021790555050600260009054906101000a900463ffffffff1660016000600260009054906101000a900463ffffffff1663ffffffff1663ffffffff16815260200190815260200160002060000160006101000a81548163ffffffff021916908363ffffffff1602179055503360016000600260009054906101000a900463ffffffff1663ffffffff1663ffffffff16815260200190815260200160002060000160046101000a81548173ffffffffffffffffffffffffffffffffffffffff021916908373ffffffffffffffffffffffffffffffffffffffff1602179055508560016000600260009054906101000a900463ffffffff1663ffffffff1663ffffffff168152602001908152602001600020600101908051906020019061208492919061296e565b508460016000600260009054906101000a900463ffffffff1663ffffffff1663ffffffff16815260200190815260200160002060020190805190602001906120cd92919061296e565b50600060016000600260009054906101000a900463ffffffff1663ffffffff1663ffffffff16815260200190815260200160002060030160006101000a81548160ff021916908315150217905550600060016000600260009054906101000a900463ffffffff1663ffffffff1663ffffffff16815260200190815260200160002060030160016101000a81548160ff02191690836003811115612199577f4e487b7100000000000000000000000000000000000000000000000000000000600052602160045260246000fd5b02179055508360016000600260009054906101000a900463ffffffff1663ffffffff1663ffffffff16815260200190815260200160002060040190805190602001906121e692919061296e565b508260016000600260009054906101000a900463ffffffff1663ffffffff1663ffffffff168152602001908152602001600020600501908051906020019061222f92919061296e565b508160016000600260009054906101000a900463ffffffff1663ffffffff1663ffffffff168152602001908152602001600020600a01908051906020019061227892919061296e565b508060016000600260009054906101000a900463ffffffff1663ffffffff1663ffffffff168152602001908152602001600020600b0190805190602001906122c192919061296e565b50505050505050565b600260049054906101000a900463ffffffff1681565b6000600260049054906101000a900463ffffffff16905090565b6060600160008363ffffffff1663ffffffff168152602001908152602001600020600801805480602002602001604051908101604052809291908181526020016000905b8282101561248857838290600052602060002090600302016040518060800160405290816000820160009054906101000a900463ffffffff1663ffffffff1663ffffffff1681526020016000820160049054906101000a900473ffffffffffffffffffffffffffffffffffffffff1673ffffffffffffffffffffffffffffffffffffffff1673ffffffffffffffffffffffffffffffffffffffff1681526020016001820180546123ed90613ebc565b80601f016020809104026020016040519081016040528092919081815260200182805461241990613ebc565b80156124665780601f1061243b57610100808354040283529160200191612466565b820191906000526020600020905b81548152906001019060200180831161244957829003601f168201915b505050505081526020016002820154815250508152602001906001019061233e565b505050509050919050565b6060600160008363ffffffff1663ffffffff168152602001908152602001600020600901805480602002602001604051908101604052809291908181526020016000905b8282101561265d57838290600052602060002090600402016040518060800160405290816000820160009054906101000a900463ffffffff1663ffffffff1663ffffffff16815260200160018201805461253090613ebc565b80601f016020809104026020016040519081016040528092919081815260200182805461255c90613ebc565b80156125a95780601f1061257e576101008083540402835291602001916125a9565b820191906000526020600020905b81548152906001019060200180831161258c57829003601f168201915b505050505081526020016002820180546125c290613ebc565b80601f01602080910402602001604051908101604052809291908181526020018280546125ee90613ebc565b801561263b5780601f106126105761010080835404028352916020019161263b565b820191906000526020600020905b81548152906001019060200180831161261e57829003601f168201915b50505050508152602001600382015481525050815260200190600101906124d7565b505050509050919050565b60008054906101000a900473ffffffffffffffffffffffffffffffffffffffff1673ffffffffffffffffffffffffffffffffffffffff1663d1e47bb33360026040518363ffffffff1660e01b81526004016126c492919061394f565b60206040518083038186803b1580156126dc57600080fd5b505afa1580156126f0573d6000803e3d6000fd5b505050506040513d601f19601f820116820180604052508101906127149190612b92565b612753576040517f08c379a000000000000000000000000000000000000000000000000000000000815260040161274a90613a5b565b60405180910390fd5b6001600381111561278d577f4e487b7100000000000000000000000000000000000000000000000000000000600052602160045260246000fd5b600160008463ffffffff1663ffffffff16815260200190815260200160002060030160019054906101000a900460ff1660038111156127f5577f4e487b7100000000000000000000000000000000000000000000000000000000600052602160045260246000fd5b14612835576040517f08c379a000000000000000000000000000000000000000000000000000000000815260040161282c90613a9b565b60405180910390fd5b80600160008463ffffffff1663ffffffff16815260200190815260200160002060030160006101000a81548160ff0219169083151502179055505050565b6060600160008363ffffffff1663ffffffff168152602001908152602001600020600601805480602002602001604051908101604052809291908181526020016000905b828210156129635783829060005260206000200180546128d690613ebc565b80601f016020809104026020016040519081016040528092919081815260200182805461290290613ebc565b801561294f5780601f106129245761010080835404028352916020019161294f565b820191906000526020600020905b81548152906001019060200180831161293257829003601f168201915b5050505050815260200190600101906128b7565b505050509050919050565b82805461297a90613ebc565b90600052602060002090601f01602090048101928261299c57600085556129e3565b82601f106129b557805160ff19168380011785556129e3565b828001600101855582156129e3579182015b828111156129e25782518255916020019190600101906129c7565b5b5090506129f09190612ab9565b5090565b604051806101c00160405280600063ffffffff168152602001600073ffffffffffffffffffffffffffffffffffffffff168152602001606081526020016060815260200160001515815260200160006003811115612a7b577f4e487b7100000000000000000000000000000000000000000000000000000000600052602160045260246000fd5b815260200160608152602001606081526020016060815260200160608152602001606081526020016060815260200160608152602001606081525090565b5b80821115612ad2576000816000905550600101612aba565b5090565b6000612ae9612ae484613c0f565b613bde565b905082815260208101848484011115612b0157600080fd5b612b0c848285613e7a565b509392505050565b600081359050612b2381614010565b92915050565b600081519050612b3881614010565b92915050565b600081359050612b4d81614027565b92915050565b600082601f830112612b6457600080fd5b8135612b74848260208601612ad6565b91505092915050565b600081359050612b8c81614037565b92915050565b600060208284031215612ba457600080fd5b6000612bb284828501612b29565b91505092915050565b60008060008060008060c08789031215612bd457600080fd5b600087013567ffffffffffffffff811115612bee57600080fd5b612bfa89828a01612b53565b965050602087013567ffffffffffffffff811115612c1757600080fd5b612c2389828a01612b53565b955050604087013567ffffffffffffffff811115612c4057600080fd5b612c4c89828a01612b53565b945050606087013567ffffffffffffffff811115612c6957600080fd5b612c7589828a01612b53565b935050608087013567ffffffffffffffff811115612c9257600080fd5b612c9e89828a01612b53565b92505060a087013567ffffffffffffffff811115612cbb57600080fd5b612cc789828a01612b53565b9150509295509295509295565b600060208284031215612ce657600080fd5b6000612cf484828501612b7d565b91505092915050565b60008060408385031215612d1057600080fd5b6000612d1e85828601612b7d565b9250506020612d2f85828601612b14565b9150509250929050565b60008060408385031215612d4c57600080fd5b6000612d5a85828601612b7d565b9250506020612d6b85828601612b3e565b9150509250929050565b60008060408385031215612d8857600080fd5b6000612d9685828601612b7d565b925050602083013567ffffffffffffffff811115612db357600080fd5b612dbf85828601612b53565b9150509250929050565b600080600060608486031215612dde57600080fd5b6000612dec86828701612b7d565b935050602084013567ffffffffffffffff811115612e0957600080fd5b612e1586828701612b53565b9250506040612e2686828701612b14565b9150509250925092565b600080600060608486031215612e4557600080fd5b6000612e5386828701612b7d565b935050602084013567ffffffffffffffff811115612e7057600080fd5b612e7c86828701612b53565b9250506040612e8d86828701612b7d565b9150509250925092565b6000612ea38383613307565b905092915050565b6000612eb78383613641565b905092915050565b6000612ecb83836136ab565b905092915050565b6000612edf838361370e565b905092915050565b612ef081613db4565b82525050565b612eff81613db4565b82525050565b6000612f1082613c94565b612f1a8185613cff565b935083602082028501612f2c85613c3f565b8060005b85811015612f685784840389528151612f498582612e97565b9450612f5483613ccb565b925060208a01995050600181019050612f30565b50829750879550505050505092915050565b6000612f8582613c94565b612f8f8185613d10565b935083602082028501612fa185613c3f565b8060005b85811015612fdd5784840389528151612fbe8582612e97565b9450612fc983613ccb565b925060208a01995050600181019050612fa5565b50829750879550505050505092915050565b6000612ffa82613c9f565b6130048185613d21565b93508360208202850161301685613c4f565b8060005b8581101561305257848403895281516130338582612eab565b945061303e83613cd8565b925060208a0199505060018101905061301a565b50829750879550505050505092915050565b600061306f82613c9f565b6130798185613d32565b93508360208202850161308b85613c4f565b8060005b858110156130c757848403895281516130a88582612eab565b94506130b383613cd8565b925060208a0199505060018101905061308f565b50829750879550505050505092915050565b60006130e482613caa565b6130ee8185613d43565b93508360208202850161310085613c5f565b8060005b8581101561313c578484038952815161311d8582612ebf565b945061312883613ce5565b925060208a01995050600181019050613104565b50829750879550505050505092915050565b600061315982613caa565b6131638185613d54565b93508360208202850161317585613c5f565b8060005b858110156131b157848403895281516131928582612ebf565b945061319d83613ce5565b925060208a01995050600181019050613179565b50829750879550505050505092915050565b60006131ce82613cb5565b6131d88185613d65565b9350836020820285016131ea85613c6f565b8060005b8581101561322657848403895281516132078582612ed3565b945061321283613cf2565b925060208a019950506001810190506131ee565b50829750879550505050505092915050565b600061324382613cb5565b61324d8185613d76565b93508360208202850161325f85613c6f565b8060005b8581101561329b578484038952815161327c8582612ed3565b945061328783613cf2565b925060208a01995050600181019050613263565b50829750879550505050505092915050565b6132b681613dc6565b82525050565b6132c581613dc6565b82525050565b6132d481613e32565b82525050565b6132e381613e56565b82525050565b6132f281613e56565b82525050565b61330181613e68565b82525050565b600061331282613cc0565b61331c8185613d87565b935061332c818560208601613e89565b61333581613fd7565b840191505092915050565b600061334b82613cc0565b6133558185613d98565b9350613365818560208601613e89565b61336e81613fd7565b840191505092915050565b600061338482613cc0565b61338e8185613da9565b935061339e818560208601613e89565b80840191505092915050565b600081546133b781613ebc565b6133c18186613da9565b945060018216600081146133dc57600181146133ed57613420565b60ff19831686528186019350613420565b6133f685613c7f565b60005b83811015613418578154818901526001820191506020810190506133f9565b838801955050505b50505092915050565b6000613436602083613d98565b91507f4e6f6e206175746f726973653a207365756c656d656e742041756469746575726000830152602082019050919050565b6000613476602283613d98565b91507f4e6f6e206175746f726973653a207365756c656d656e742050726f647563746560008301527f75720000000000000000000000000000000000000000000000000000000000006020830152604082019050919050565b60006134dc602583613d98565b91507f4e6f6e206175746f726973653a207365756c656d656e7420436572746966696360008301527f61746575720000000000000000000000000000000000000000000000000000006020830152604082019050919050565b6000613542602183613d98565b91507f4e6f6e206175746f726973653a20636f6e74726174206e6f6e2064656c65677560008301527f65000000000000000000000000000000000000000000000000000000000000006020830152604082019050919050565b60006135a8601783613d98565b91507f50617320656e2065746170652064652063756c747572650000000000000000006000830152602082019050919050565b60006135e8602383613d98565b91507f4e6f6e206175746f726973653a207365756c656d656e7420466f75726e69737360008301527f65757200000000000000000000000000000000000000000000000000000000006020830152604082019050919050565b600060808301600083015161365960008601826138da565b50602083015184820360208601526136718282613307565b9150506040830151848203604086015261368b8282613307565b91505060608301516136a060608601826138cb565b508091505092915050565b60006080830160008301516136c360008601826138da565b5060208301516136d66020860182612ee7565b50604083015184820360408601526136ee8282613307565b915050606083015161370360608601826138cb565b508091505092915050565b6000606083016000830151848203600086015261372b8282613307565b915050602083015161374060208601826138da565b50604083015161375360408601826132ad565b508091505092915050565b60006101c08301600083015161377760008601826138da565b50602083015161378a6020860182612ee7565b50604083015184820360408601526137a28282613307565b915050606083015184820360608601526137bc8282613307565b91505060808301516137d160808601826132ad565b5060a08301516137e460a08601826132da565b5060c083015184820360c08601526137fc8282613307565b91505060e083015184820360e08601526138168282613307565b9150506101008301518482036101008601526138328282612f05565b91505061012083015184820361012086015261384e82826131c3565b91505061014083015184820361014086015261386a82826130d9565b9150506101608301518482036101608601526138868282612fef565b9150506101808301518482036101808601526138a28282613307565b9150506101a08301518482036101a08601526138be8282613307565b9150508091505092915050565b6138d481613e18565b82525050565b6138e381613e22565b82525050565b6138f281613e22565b82525050565b60006139048284613379565b915081905092915050565b600061391b82846133aa565b915081905092915050565b600060408201905061393b6000830185612ef6565b6139486020830184612ef6565b9392505050565b60006040820190506139646000830185612ef6565b61397160208301846132f8565b9392505050565b600060208201905081810360008301526139928184612f7a565b905092915050565b600060208201905081810360008301526139b48184613064565b905092915050565b600060208201905081810360008301526139d6818461314e565b905092915050565b600060208201905081810360008301526139f88184613238565b905092915050565b6000602082019050613a1560008301846132cb565b92915050565b60006020820190508181036000830152613a3481613429565b9050919050565b60006020820190508181036000830152613a5481613469565b9050919050565b60006020820190508181036000830152613a74816134cf565b9050919050565b60006020820190508181036000830152613a9481613535565b9050919050565b60006020820190508181036000830152613ab48161359b565b9050919050565b60006020820190508181036000830152613ad4816135db565b9050919050565b60006020820190508181036000830152613af5818461375e565b905092915050565b6000602082019050613b1260008301846138e9565b92915050565b600061014082019050613b2e600083018d6138e9565b613b3b602083018c612ef6565b8181036040830152613b4d818b613340565b90508181036060830152613b61818a613340565b9050613b7060808301896132bc565b613b7d60a08301886132e9565b81810360c0830152613b8f8187613340565b905081810360e0830152613ba38186613340565b9050818103610100830152613bb88185613340565b9050818103610120830152613bcd8184613340565b90509b9a5050505050505050505050565b6000604051905081810181811067ffffffffffffffff82111715613c0557613c04613fa8565b5b8060405250919050565b600067ffffffffffffffff821115613c2a57613c29613fa8565b5b601f19601f8301169050602081019050919050565b6000819050602082019050919050565b6000819050602082019050919050565b6000819050602082019050919050565b6000819050602082019050919050565b60008190508160005260206000209050919050565b600081519050919050565b600081519050919050565b600081519050919050565b600081519050919050565b600081519050919050565b6000602082019050919050565b6000602082019050919050565b6000602082019050919050565b6000602082019050919050565b600082825260208201905092915050565b600082825260208201905092915050565b600082825260208201905092915050565b600082825260208201905092915050565b600082825260208201905092915050565b600082825260208201905092915050565b600082825260208201905092915050565b600082825260208201905092915050565b600082825260208201905092915050565b600082825260208201905092915050565b600081905092915050565b6000613dbf82613df8565b9050919050565b60008115159050919050565b6000819050613de082613fe8565b919050565b6000819050613df382613ffc565b919050565b600073ffffffffffffffffffffffffffffffffffffffff82169050919050565b6000819050919050565b600063ffffffff82169050919050565b6000613e3d82613e44565b9050919050565b6000613e4f82613df8565b9050919050565b6000613e6182613dd2565b9050919050565b6000613e7382613de5565b9050919050565b82818337600083830152505050565b60005b83811015613ea7578082015181840152602081019050613e8c565b83811115613eb6576000848401525b50505050565b60006002820490506001821680613ed457607f821691505b60208210811415613ee857613ee7613f79565b5b50919050565b6000613ef982613e22565b915063ffffffff821415613f1057613f0f613f1b565b5b600182019050919050565b7f4e487b7100000000000000000000000000000000000000000000000000000000600052601160045260246000fd5b7f4e487b7100000000000000000000000000000000000000000000000000000000600052602160045260246000fd5b7f4e487b7100000000000000000000000000000000000000000000000000000000600052602260045260246000fd5b7f4e487b7100000000000000000000000000000000000000000000000000000000600052604160045260246000fd5b6000601f19601f8301169050919050565b60048110613ff957613ff8613f4a565b5b50565b6008811061400d5761400c613f4a565b5b50565b61401981613dc6565b811461402457600080fd5b50565b6004811061403457600080fd5b50565b61404081613e22565b811461404b57600080fd5b5056fea2646970667358221220030143301af76aefe51e4c809e1bb87bb9cc59cbf24cf0f12471c623741052ba64736f6c63430008000033",
  "linkReferences": {},
  "deployedLinkReferences": {}
}