{
  "_format": "hh-sol-artifact-1",
  "contractName": "ExportateurClient",
  "sourceName": "contracts/ExportateurClient.sol",
  "abi": [
    {
      "anonymous": false,
      "inputs": [
        {
          "indexed": true,
          "internalType": "address",
          "name": "exportateur",
          "type": "address"
        },
        {
          "indexed": false,
          "internalType": "uint32",
          "name": "idArticle",
          "type": "uint32"
        },
        {
          "indexed": false,
          "internalType": "uint32",
          "name": "quantite",
          "type": "uint32"
        },
        {
          "indexed": false,
          "internalType": "uint32",
          "name": "prix",
          "type": "uint32"
        },
        {
          "indexed": true,
          "internalType": "bytes32",
          "name": "rootMerkle",
          "type": "bytes32"
        },
        {
          "indexed": false,
          "internalType": "string",
          "name": "ref",
          "type": "string"
        }
      ],
      "name": "AjouterExpedition",
      "type": "event"
    },
    {
      "anonymous": false,
      "inputs": [
        {
          "indexed": true,
          "internalType": "address",
          "name": "certificateur",
          "type": "address"
        },
        {
          "indexed": false,
          "internalType": "uint32",
          "name": "idArticle",
          "type": "uint32"
        },
        {
          "indexed": false,
          "internalType": "string",
          "name": "cidCertificat",
          "type": "string"
        }
      ],
      "name": "CertifierExpedition",
      "type": "event"
    },
    {
      "stateMutability": "payable",
      "type": "fallback"
    },
    {
      "inputs": [
        {
          "internalType": "uint32[]",
          "name": "_idCommandeProduits",
          "type": "uint32[]"
        },
        {
          "internalType": "uint32",
          "name": "_prix",
          "type": "uint32"
        },
        {
          "internalType": "string",
          "name": "_cid",
          "type": "string"
        },
        {
          "internalType": "bytes32",
          "name": "_rootMerkle",
          "type": "bytes32"
        }
      ],
      "name": "ajouterExpedition",
      "outputs": [],
      "stateMutability": "nonpayable",
      "type": "function"
    },
    {
      "inputs": [
        {
          "internalType": "uint32",
          "name": "_idExpedition",
          "type": "uint32"
        },
        {
          "internalType": "string",
          "name": "_cidCertificat",
          "type": "string"
        }
      ],
      "name": "certifierExpedition",
      "outputs": [],
      "stateMutability": "nonpayable",
      "type": "function"
    },
    {
      "inputs": [],
      "name": "collecteurExportateur",
      "outputs": [
        {
          "internalType": "contract CollecteurExportateur",
          "name": "",
          "type": "address"
        }
      ],
      "stateMutability": "view",
      "type": "function"
    },
    {
      "inputs": [],
      "name": "compteurExpeditions",
      "outputs": [
        {
          "internalType": "uint32",
          "name": "",
          "type": "uint32"
        }
      ],
      "stateMutability": "view",
      "type": "function"
    },
    {
      "inputs": [
        {
          "internalType": "uint32",
          "name": "",
          "type": "uint32"
        }
      ],
      "name": "expeditions",
      "outputs": [
        {
          "internalType": "uint32",
          "name": "id",
          "type": "uint32"
        },
        {
          "internalType": "string",
          "name": "ref",
          "type": "string"
        },
        {
          "internalType": "uint32",
          "name": "quantite",
          "type": "uint32"
        },
        {
          "internalType": "uint32",
          "name": "prix",
          "type": "uint32"
        },
        {
          "internalType": "address",
          "name": "exportateur",
          "type": "address"
        },
        {
          "internalType": "string",
          "name": "cid",
          "type": "string"
        },
        {
          "internalType": "bytes32",
          "name": "rootMerkle",
          "type": "bytes32"
        },
        {
          "internalType": "bool",
          "name": "certifier",
          "type": "bool"
        },
        {
          "internalType": "string",
          "name": "cidCertificat",
          "type": "string"
        }
      ],
      "stateMutability": "view",
      "type": "function"
    },
    {
      "inputs": [],
      "name": "gestionnaireActeurs",
      "outputs": [
        {
          "internalType": "contract GestionnaireActeurs",
          "name": "",
          "type": "address"
        }
      ],
      "stateMutability": "view",
      "type": "function"
    },
    {
      "inputs": [],
      "name": "getCompteurArticles",
      "outputs": [
        {
          "internalType": "uint32",
          "name": "",
          "type": "uint32"
        }
      ],
      "stateMutability": "view",
      "type": "function"
    },
    {
      "inputs": [
        {
          "internalType": "uint32",
          "name": "id",
          "type": "uint32"
        }
      ],
      "name": "getExpedition",
      "outputs": [
        {
          "components": [
            {
              "internalType": "uint32",
              "name": "id",
              "type": "uint32"
            },
            {
              "internalType": "string",
              "name": "ref",
              "type": "string"
            },
            {
              "internalType": "uint32[]",
              "name": "idCommandeProduit",
              "type": "uint32[]"
            },
            {
              "internalType": "uint32",
              "name": "quantite",
              "type": "uint32"
            },
            {
              "internalType": "uint32",
              "name": "prix",
              "type": "uint32"
            },
            {
              "internalType": "address",
              "name": "exportateur",
              "type": "address"
            },
            {
              "internalType": "string",
              "name": "cid",
              "type": "string"
            },
            {
              "internalType": "bytes32",
              "name": "rootMerkle",
              "type": "bytes32"
            },
            {
              "internalType": "bool",
              "name": "certifier",
              "type": "bool"
            },
            {
              "internalType": "string",
              "name": "cidCertificat",
              "type": "string"
            }
          ],
          "internalType": "struct StructLib.Expedition",
          "name": "",
          "type": "tuple"
        }
      ],
      "stateMutability": "view",
      "type": "function"
    },
    {
      "inputs": [
        {
          "internalType": "string",
          "name": "_reference",
          "type": "string"
        }
      ],
      "name": "getExpeditionByReference",
      "outputs": [
        {
          "components": [
            {
              "internalType": "uint32",
              "name": "id",
              "type": "uint32"
            },
            {
              "internalType": "string",
              "name": "ref",
              "type": "string"
            },
            {
              "internalType": "uint32[]",
              "name": "idCommandeProduit",
              "type": "uint32[]"
            },
            {
              "internalType": "uint32",
              "name": "quantite",
              "type": "uint32"
            },
            {
              "internalType": "uint32",
              "name": "prix",
              "type": "uint32"
            },
            {
              "internalType": "address",
              "name": "exportateur",
              "type": "address"
            },
            {
              "internalType": "string",
              "name": "cid",
              "type": "string"
            },
            {
              "internalType": "bytes32",
              "name": "rootMerkle",
              "type": "bytes32"
            },
            {
              "internalType": "bool",
              "name": "certifier",
              "type": "bool"
            },
            {
              "internalType": "string",
              "name": "cidCertificat",
              "type": "string"
            }
          ],
          "internalType": "struct StructLib.Expedition",
          "name": "",
          "type": "tuple"
        }
      ],
      "stateMutability": "view",
      "type": "function"
    },
    {
      "inputs": [
        {
          "internalType": "address",
          "name": "_gestionnaireActeurs",
          "type": "address"
        },
        {
          "internalType": "address payable",
          "name": "_collecteurExportateur",
          "type": "address"
        }
      ],
      "name": "initialiser",
      "outputs": [],
      "stateMutability": "nonpayable",
      "type": "function"
    },
    {
      "inputs": [
        {
          "internalType": "address payable",
          "name": "_addr",
          "type": "address"
        }
      ],
      "name": "setCollecteurExportateur",
      "outputs": [],
      "stateMutability": "nonpayable",
      "type": "function"
    },
    {
      "inputs": [
        {
          "internalType": "address",
          "name": "_addr",
          "type": "address"
        }
      ],
      "name": "setGestionnaireActeurs",
      "outputs": [],
      "stateMutability": "nonpayable",
      "type": "function"
    },
    {
      "inputs": [
        {
          "internalType": "uint32",
          "name": "_idExpedition",
          "type": "uint32"
        },
        {
          "internalType": "uint32",
          "name": "_prix",
          "type": "uint32"
        }
      ],
      "name": "setPriceArticle",
      "outputs": [],
      "stateMutability": "nonpayable",
      "type": "function"
    },
    {
      "stateMutability": "payable",
      "type": "receive"
    }
  ],
  "bytecode": "0x608060405234801561001057600080fd5b506134e5806100206000396000f3fe6080604052600436106100c65760003560e01c8063771c4a511161007f5780639e942cd4116100595780639e942cd414610258578063d309a38414610283578063ddda41ec146102c0578063eb072cd414610305576100cd565b8063771c4a51146101db57806380844fba146102065780639c2699a71461022f576100cd565b80630e041683146100cf57806320908d73146100f85780633e7a6049146101355780634bb43c351461015e5780635f0235ab14610187578063704cdb7e146101b2576100cd565b366100cd57005b005b3480156100db57600080fd5b506100f660048036038101906100f191906124b9565b610330565b005b34801561010457600080fd5b5061011f600480360381019061011a9190612425565b610545565b60405161012c9190612d82565b60405180910390f35b34801561014157600080fd5b5061015c600480360381019061015791906122db565b610923565b005b34801561016a57600080fd5b5061018560048036038101906101809190612304565b610967565b005b34801561019357600080fd5b5061019c6109ab565b6040516101a99190612da4565b60405180910390f35b3480156101be57600080fd5b506101d960048036038101906101d4919061250d565b6109c1565b005b3480156101e757600080fd5b506101f0610cee565b6040516101fd9190612da4565b60405180910390f35b34801561021257600080fd5b5061022d6004803603810190610228919061232d565b610d08565b005b34801561023b57600080fd5b5061025660048036038101906102519190612369565b610df9565b005b34801561026457600080fd5b5061026d61161a565b60405161027a9190612c27565b60405180910390f35b34801561028f57600080fd5b506102aa60048036038101906102a59190612490565b611640565b6040516102b79190612d82565b60405180910390f35b3480156102cc57600080fd5b506102e760048036038101906102e29190612490565b6119a0565b6040516102fc99989796959493929190612e18565b60405180910390f35b34801561031157600080fd5b5061031a611be3565b6040516103279190612c0c565b60405180910390f35b600260059054906101000a900473ffffffffffffffffffffffffffffffffffffffff1673ffffffffffffffffffffffffffffffffffffffff1663d1e47bb33360026040518363ffffffff1660e01b815260040161038e929190612be3565b60206040518083038186803b1580156103a657600080fd5b505afa1580156103ba573d6000803e3d6000fd5b505050506040513d601f19601f820116820180604052508101906103de91906123fc565b61041d576040517f08c379a000000000000000000000000000000000000000000000000000000000815260040161041490612c82565b60405180910390fd5b600260009054906101000a900463ffffffff1663ffffffff168263ffffffff16111561044857600080fd5b6000808363ffffffff1663ffffffff16815260200190815260200160002060060160009054906101000a900460ff161561048157600080fd5b60016000808463ffffffff1663ffffffff16815260200190815260200160002060060160006101000a81548160ff021916908315150217905550806000808463ffffffff1663ffffffff16815260200190815260200160002060070190805190602001906104f0929190611e2f565b503373ffffffffffffffffffffffffffffffffffffffff167fc61996af39399299fb40c0b65ed0155174c41d440fb361ee4e9b72160359a25b8383604051610539929190612de8565b60405180910390a25050565b61054d611eb5565b600060018360405161055f9190612b74565b908152602001604051809103902060009054906101000a900463ffffffff16905060008163ffffffff1614156105ca576040517f08c379a00000000000000000000000000000000000000000000000000000000081526004016105c190612d02565b60405180910390fd5b6000808263ffffffff1663ffffffff168152602001908152602001600020604051806101400160405290816000820160009054906101000a900463ffffffff1663ffffffff1663ffffffff16815260200160018201805461062a90613264565b80601f016020809104026020016040519081016040528092919081815260200182805461065690613264565b80156106a35780601f10610678576101008083540402835291602001916106a3565b820191906000526020600020905b81548152906001019060200180831161068657829003601f168201915b505050505081526020016002820180548060200260200160405190810160405280929190818152602001828054801561072757602002820191906000526020600020906000905b82829054906101000a900463ffffffff1663ffffffff16815260200190600401906020826003010492830192600103820291508084116106ea5790505b505050505081526020016003820160009054906101000a900463ffffffff1663ffffffff1663ffffffff1681526020016003820160049054906101000a900463ffffffff1663ffffffff1663ffffffff1681526020016003820160089054906101000a900473ffffffffffffffffffffffffffffffffffffffff1673ffffffffffffffffffffffffffffffffffffffff1673ffffffffffffffffffffffffffffffffffffffff1681526020016004820180546107e290613264565b80601f016020809104026020016040519081016040528092919081815260200182805461080e90613264565b801561085b5780601f106108305761010080835404028352916020019161085b565b820191906000526020600020905b81548152906001019060200180831161083e57829003601f168201915b50505050508152602001600582015481526020016006820160009054906101000a900460ff1615151515815260200160078201805461089990613264565b80601f01602080910402602001604051908101604052809291908181526020018280546108c590613264565b80156109125780601f106108e757610100808354040283529160200191610912565b820191906000526020600020905b8154815290600101906020018083116108f557829003601f168201915b505050505081525050915050919050565b80600260056101000a81548173ffffffffffffffffffffffffffffffffffffffff021916908373ffffffffffffffffffffffffffffffffffffffff16021790555050565b80600360006101000a81548173ffffffffffffffffffffffffffffffffffffffff021916908373ffffffffffffffffffffffffffffffffffffffff16021790555050565b600260009054906101000a900463ffffffff1681565b600260059054906101000a900473ffffffffffffffffffffffffffffffffffffffff1673ffffffffffffffffffffffffffffffffffffffff1663d1e47bb33360066040518363ffffffff1660e01b8152600401610a1f929190612be3565b60206040518083038186803b158015610a3757600080fd5b505afa158015610a4b573d6000803e3d6000fd5b505050506040513d601f19601f82011682018060405250810190610a6f91906123fc565b610aae576040517f08c379a0000000000000000000000000000000000000000000000000000000008152600401610aa590612d62565b60405180910390fd5b600260059054906101000a900473ffffffffffffffffffffffffffffffffffffffff1673ffffffffffffffffffffffffffffffffffffffff16639f7d7f4533306040518363ffffffff1660e01b8152600401610b0b929190612bba565b60206040518083038186803b158015610b2357600080fd5b505afa158015610b37573d6000803e3d6000fd5b505050506040513d601f19601f82011682018060405250810190610b5b91906123fc565b610b9a576040517f08c379a0000000000000000000000000000000000000000000000000000000008152600401610b9190612ce2565b60405180910390fd5b600260009054906101000a900463ffffffff1663ffffffff168263ffffffff161115610bfb576040517f08c379a0000000000000000000000000000000000000000000000000000000008152600401610bf290612ca2565b60405180910390fd5b3373ffffffffffffffffffffffffffffffffffffffff166000808463ffffffff1663ffffffff16815260200190815260200160002060030160089054906101000a900473ffffffffffffffffffffffffffffffffffffffff1673ffffffffffffffffffffffffffffffffffffffff1614610caa576040517f08c379a0000000000000000000000000000000000000000000000000000000008152600401610ca190612cc2565b60405180910390fd5b806000808463ffffffff1663ffffffff16815260200190815260200160002060030160046101000a81548163ffffffff021916908363ffffffff1602179055505050565b6000600260009054906101000a900463ffffffff16905090565b600260049054906101000a900460ff1615610d58576040517f08c379a0000000000000000000000000000000000000000000000000000000008152600401610d4f90612d42565b60405180910390fd5b81600260056101000a81548173ffffffffffffffffffffffffffffffffffffffff021916908373ffffffffffffffffffffffffffffffffffffffff16021790555080600360006101000a81548173ffffffffffffffffffffffffffffffffffffffff021916908373ffffffffffffffffffffffffffffffffffffffff1602179055506001600260046101000a81548160ff0219169083151502179055505050565b600260059054906101000a900473ffffffffffffffffffffffffffffffffffffffff1673ffffffffffffffffffffffffffffffffffffffff1663d1e47bb33360066040518363ffffffff1660e01b8152600401610e57929190612be3565b60206040518083038186803b158015610e6f57600080fd5b505afa158015610e83573d6000803e3d6000fd5b505050506040513d601f19601f82011682018060405250810190610ea791906123fc565b610ee6576040517f08c379a0000000000000000000000000000000000000000000000000000000008152600401610edd90612d62565b60405180910390fd5b600260059054906101000a900473ffffffffffffffffffffffffffffffffffffffff1673ffffffffffffffffffffffffffffffffffffffff16639f7d7f4533306040518363ffffffff1660e01b8152600401610f43929190612bba565b60206040518083038186803b158015610f5b57600080fd5b505afa158015610f6f573d6000803e3d6000fd5b505050506040513d601f19601f82011682018060405250810190610f9391906123fc565b610fd2576040517f08c379a0000000000000000000000000000000000000000000000000000000008152600401610fc990612ce2565b60405180910390fd5b6000805b85518110156111f1576000600360009054906101000a900473ffffffffffffffffffffffffffffffffffffffff1673ffffffffffffffffffffffffffffffffffffffff16635293ea51888481518110611058577f4e487b7100000000000000000000000000000000000000000000000000000000600052603260045260246000fd5b60200260200101516040518263ffffffff1660e01b815260040161107c9190612da4565b6101806040518083038186803b15801561109557600080fd5b505afa1580156110a9573d6000803e3d6000fd5b505050506040513d601f19601f820116820180604052508101906110cd9190612466565b90508060400151836110df9190613004565b92508060800151611125576040517f08c379a000000000000000000000000000000000000000000000000000000000815260040161111c90612d22565b60405180910390fd5b3373ffffffffffffffffffffffffffffffffffffffff168160e0015173ffffffffffffffffffffffffffffffffffffffff1614611197576040517f08c379a000000000000000000000000000000000000000000000000000000000815260040161118e90612c62565b60405180910390fd5b806101200151156111dd576040517f08c379a00000000000000000000000000000000000000000000000000000000081526004016111d490612c42565b60405180910390fd5b5080806111e990613296565b915050610fd6565b506002600081819054906101000a900463ffffffff1680929190611214906132df565b91906101000a81548163ffffffff021916908363ffffffff1602179055505060005b85518163ffffffff16101561132e57600360009054906101000a900473ffffffffffffffffffffffffffffffffffffffff1673ffffffffffffffffffffffffffffffffffffffff1663c4c8d194878363ffffffff16815181106112c2577f4e487b7100000000000000000000000000000000000000000000000000000000600052603260045260246000fd5b602002602001015160016040518363ffffffff1660e01b81526004016112e9929190612dbf565b600060405180830381600087803b15801561130357600080fd5b505af1158015611317573d6000803e3d6000fd5b505050508080611326906132df565b915050611236565b506000611339611c09565b9050604051806101400160405280600260009054906101000a900463ffffffff1663ffffffff1681526020018281526020018781526020018363ffffffff1681526020018663ffffffff1681526020013373ffffffffffffffffffffffffffffffffffffffff16815260200185815260200184815260200160001515815260200160405180602001604052806000815250815250600080600260009054906101000a900463ffffffff1663ffffffff1663ffffffff16815260200190815260200160002060008201518160000160006101000a81548163ffffffff021916908363ffffffff1602179055506020820151816001019080519060200190611440929190611e2f565b50604082015181600201908051906020019061145d929190611f35565b5060608201518160030160006101000a81548163ffffffff021916908363ffffffff16021790555060808201518160030160046101000a81548163ffffffff021916908363ffffffff16021790555060a08201518160030160086101000a81548173ffffffffffffffffffffffffffffffffffffffff021916908373ffffffffffffffffffffffffffffffffffffffff16021790555060c082015181600401908051906020019061150f929190611e2f565b5060e082015181600501556101008201518160060160006101000a81548160ff021916908315150217905550610120820151816007019080519060200190611558929190611e2f565b50905050600260009054906101000a900463ffffffff1660018260405161157f9190612b74565b908152602001604051809103902060006101000a81548163ffffffff021916908363ffffffff160217905550823373ffffffffffffffffffffffffffffffffffffffff167f8b0f486fb7b67efea4802902f5710269eb1a027bc10633e62a9ce638d78db3ca600260009054906101000a900463ffffffff1685898660405161160a9493929190612eba565b60405180910390a3505050505050565b600260059054906101000a900473ffffffffffffffffffffffffffffffffffffffff1681565b611648611eb5565b6000808363ffffffff1663ffffffff168152602001908152602001600020604051806101400160405290816000820160009054906101000a900463ffffffff1663ffffffff1663ffffffff1681526020016001820180546116a890613264565b80601f01602080910402602001604051908101604052809291908181526020018280546116d490613264565b80156117215780601f106116f657610100808354040283529160200191611721565b820191906000526020600020905b81548152906001019060200180831161170457829003601f168201915b50505050508152602001600282018054806020026020016040519081016040528092919081815260200182805480156117a557602002820191906000526020600020906000905b82829054906101000a900463ffffffff1663ffffffff16815260200190600401906020826003010492830192600103820291508084116117685790505b505050505081526020016003820160009054906101000a900463ffffffff1663ffffffff1663ffffffff1681526020016003820160049054906101000a900463ffffffff1663ffffffff1663ffffffff1681526020016003820160089054906101000a900473ffffffffffffffffffffffffffffffffffffffff1673ffffffffffffffffffffffffffffffffffffffff1673ffffffffffffffffffffffffffffffffffffffff16815260200160048201805461186090613264565b80601f016020809104026020016040519081016040528092919081815260200182805461188c90613264565b80156118d95780601f106118ae576101008083540402835291602001916118d9565b820191906000526020600020905b8154815290600101906020018083116118bc57829003601f168201915b50505050508152602001600582015481526020016006820160009054906101000a900460ff1615151515815260200160078201805461191790613264565b80601f016020809104026020016040519081016040528092919081815260200182805461194390613264565b80156119905780601f1061196557610100808354040283529160200191611990565b820191906000526020600020905b81548152906001019060200180831161197357829003601f168201915b5050505050815250509050919050565b60006020528060005260406000206000915090508060000160009054906101000a900463ffffffff16908060010180546119d990613264565b80601f0160208091040260200160405190810160405280929190818152602001828054611a0590613264565b8015611a525780601f10611a2757610100808354040283529160200191611a52565b820191906000526020600020905b815481529060010190602001808311611a3557829003601f168201915b5050505050908060030160009054906101000a900463ffffffff16908060030160049054906101000a900463ffffffff16908060030160089054906101000a900473ffffffffffffffffffffffffffffffffffffffff1690806004018054611ab990613264565b80601f0160208091040260200160405190810160405280929190818152602001828054611ae590613264565b8015611b325780601f10611b0757610100808354040283529160200191611b32565b820191906000526020600020905b815481529060010190602001808311611b1557829003601f168201915b5050505050908060050154908060060160009054906101000a900460ff1690806007018054611b6090613264565b80601f0160208091040260200160405190810160405280929190818152602001828054611b8c90613264565b8015611bd95780601f10611bae57610100808354040283529160200191611bd9565b820191906000526020600020905b815481529060010190602001808311611bbc57829003601f168201915b5050505050905089565b600360009054906101000a900473ffffffffffffffffffffffffffffffffffffffff1681565b6060611c1442611c5a565b611c35600260009054906101000a900463ffffffff1663ffffffff16611c5a565b604051602001611c46929190612b8b565b604051602081830303815290604052905090565b60606000821415611ca2576040518060400160405280600181526020017f30000000000000000000000000000000000000000000000000000000000000008152509050611e2a565b600082905060005b60008214611cd4578080611cbd90613296565b915050600a82611ccd9190613075565b9150611caa565b60008167ffffffffffffffff811115611d16577f4e487b7100000000000000000000000000000000000000000000000000000000600052604160045260246000fd5b6040519080825280601f01601f191660200182016040528015611d485781602001600182028036833780820191505090505b50905060008290505b60008614611e2257600181611d669190613100565b90506000600a8088611d789190613075565b611d8291906130a6565b87611d8d9190613100565b6030611d99919061303e565b905060008160f81b905080848481518110611ddd577f4e487b7100000000000000000000000000000000000000000000000000000000600052603260045260246000fd5b60200101907effffffffffffffffffffffffffffffffffffffffffffffffffffffffffffff1916908160001a905350600a88611e199190613075565b97505050611d51565b819450505050505b919050565b828054611e3b90613264565b90600052602060002090601f016020900481019282611e5d5760008555611ea4565b82601f10611e7657805160ff1916838001178555611ea4565b82800160010185558215611ea4579182015b82811115611ea3578251825591602001919060010190611e88565b5b509050611eb19190611fe5565b5090565b604051806101400160405280600063ffffffff1681526020016060815260200160608152602001600063ffffffff168152602001600063ffffffff168152602001600073ffffffffffffffffffffffffffffffffffffffff1681526020016060815260200160008019168152602001600015158152602001606081525090565b82805482825590600052602060002090600701600890048101928215611fd45791602002820160005b83821115611fa257835183826101000a81548163ffffffff021916908363ffffffff1602179055509260200192600401602081600301049283019260010302611f5e565b8015611fd25782816101000a81549063ffffffff0219169055600401602081600301049283019260010302611fa2565b505b509050611fe19190611fe5565b5090565b5b80821115611ffe576000816000905550600101611fe6565b5090565b600061201561201084612f37565b612f06565b9050808382526020820190508285602086028201111561203457600080fd5b60005b85811015612064578161204a88826122b1565b845260208401935060208301925050600181019050612037565b5050509392505050565b600061208161207c84612f63565b612f06565b90508281526020810184848401111561209957600080fd5b6120a4848285613222565b509392505050565b6000813590506120bb8161341c565b92915050565b6000815190506120d08161341c565b92915050565b6000813590506120e581613433565b92915050565b600082601f8301126120fc57600080fd5b813561210c848260208601612002565b91505092915050565b6000815190506121248161344a565b92915050565b60008135905061213981613461565b92915050565b60008151905061214e81613478565b92915050565b60008151905061216381613488565b92915050565b600082601f83011261217a57600080fd5b813561218a84826020860161206e565b91505092915050565b600061018082840312156121a657600080fd5b6121b1610180612f06565b905060006121c1848285016122c6565b60008301525060206121d5848285016122c6565b60208301525060406121e9848285016122c6565b60408301525060606121fd848285016122c6565b606083015250608061221184828501612115565b60808301525060a061222584828501612154565b60a08301525060c0612239848285016120c1565b60c08301525060e061224d848285016120c1565b60e0830152506101006122628482850161213f565b6101008301525061012061227884828501612115565b6101208301525061014061228e84828501612115565b610140830152506101606122a4848285016120c1565b6101608301525092915050565b6000813590506122c081613498565b92915050565b6000815190506122d581613498565b92915050565b6000602082840312156122ed57600080fd5b60006122fb848285016120ac565b91505092915050565b60006020828403121561231657600080fd5b6000612324848285016120d6565b91505092915050565b6000806040838503121561234057600080fd5b600061234e858286016120ac565b925050602061235f858286016120d6565b9150509250929050565b6000806000806080858703121561237f57600080fd5b600085013567ffffffffffffffff81111561239957600080fd5b6123a5878288016120eb565b94505060206123b6878288016122b1565b935050604085013567ffffffffffffffff8111156123d357600080fd5b6123df87828801612169565b92505060606123f08782880161212a565b91505092959194509250565b60006020828403121561240e57600080fd5b600061241c84828501612115565b91505092915050565b60006020828403121561243757600080fd5b600082013567ffffffffffffffff81111561245157600080fd5b61245d84828501612169565b91505092915050565b6000610180828403121561247957600080fd5b600061248784828501612193565b91505092915050565b6000602082840312156124a257600080fd5b60006124b0848285016122b1565b91505092915050565b600080604083850312156124cc57600080fd5b60006124da858286016122b1565b925050602083013567ffffffffffffffff8111156124f757600080fd5b61250385828601612169565b9150509250929050565b6000806040838503121561252057600080fd5b600061252e858286016122b1565b925050602061253f858286016122b1565b9150509250929050565b60006125558383612b56565b60208301905092915050565b61256a81613134565b82525050565b61257981613134565b82525050565b600061258a82612fa3565b6125948185612fc6565b935061259f83612f93565b8060005b838110156125d05781516125b78882612549565b97506125c283612fb9565b9250506001810190506125a3565b5085935050505092915050565b6125e681613158565b82525050565b6125f581613158565b82525050565b61260481613164565b82525050565b61261381613164565b82525050565b612622816131c8565b82525050565b612631816131ec565b82525050565b61264081613210565b82525050565b600061265182612fae565b61265b8185612fd7565b935061266b818560208601613231565b612674816133f7565b840191505092915050565b600061268a82612fae565b6126948185612fe8565b93506126a4818560208601613231565b6126ad816133f7565b840191505092915050565b60006126c382612fae565b6126cd8185612ff9565b93506126dd818560208601613231565b80840191505092915050565b60006126f6601a83612fe8565b91507f636f6d6d616e64652064656a6120656e7265676973747265722e0000000000006000830152602082019050919050565b6000612736601c83612fe8565b91507f566f7573206e27657374207061732070726f7072696574616972652e000000006000830152602082019050919050565b6000612776602583612fe8565b91507f4e6f6e206175746f726973653a207365756c656d656e7420436572746966696360008301527f61746575720000000000000000000000000000000000000000000000000000006020830152604082019050919050565b60006127dc600c83612fe8565b91507f496420696e636f727265637400000000000000000000000000000000000000006000830152602082019050919050565b600061281c602d83612fe8565b91507f566f7573206e2765746573207061732070726f7072696574616972652064652060008301527f63657474652061727469636c65000000000000000000000000000000000000006020830152604082019050919050565b6000612882602183612fe8565b91507f4e6f6e206175746f726973653a20636f6e74726174206e6f6e2064656c65677560008301527f65000000000000000000000000000000000000000000000000000000000000006020830152604082019050919050565b60006128e8602983612fe8565b91507f5265666572656e636520696e76616c696465206f752061727469636c6520696e60008301527f6578697374616e742e00000000000000000000000000000000000000000000006020830152604082019050919050565b600061294e601383612fe8565b91507f436f6d6d616e6465206e6f6e2070617965722e000000000000000000000000006000830152602082019050919050565b600061298e600483612ff9565b91507f4558502d000000000000000000000000000000000000000000000000000000006000830152600482019050919050565b60006129ce601a83612fe8565b91507f436f6e747261742064656a6120696e697469616c6973657220210000000000006000830152602082019050919050565b6000612a0e602383612fe8565b91507f4e6f6e206175746f726973653a207365756c656d656e74204578706f7274617460008301527f65757200000000000000000000000000000000000000000000000000000000006020830152604082019050919050565b600061014083016000830151612a806000860182612b56565b5060208301518482036020860152612a988282612646565b91505060408301518482036040860152612ab2828261257f565b9150506060830151612ac76060860182612b56565b506080830151612ada6080860182612b56565b5060a0830151612aed60a0860182612561565b5060c083015184820360c0860152612b058282612646565b91505060e0830151612b1a60e08601826125fb565b50610100830151612b2f6101008601826125dd565b50610120830151848203610120860152612b498282612646565b9150508091505092915050565b612b5f816131ab565b82525050565b612b6e816131ab565b82525050565b6000612b8082846126b8565b915081905092915050565b6000612b9682612981565b9150612ba282856126b8565b9150612bae82846126b8565b91508190509392505050565b6000604082019050612bcf6000830185612570565b612bdc6020830184612570565b9392505050565b6000604082019050612bf86000830185612570565b612c056020830184612637565b9392505050565b6000602082019050612c216000830184612619565b92915050565b6000602082019050612c3c6000830184612628565b92915050565b60006020820190508181036000830152612c5b816126e9565b9050919050565b60006020820190508181036000830152612c7b81612729565b9050919050565b60006020820190508181036000830152612c9b81612769565b9050919050565b60006020820190508181036000830152612cbb816127cf565b9050919050565b60006020820190508181036000830152612cdb8161280f565b9050919050565b60006020820190508181036000830152612cfb81612875565b9050919050565b60006020820190508181036000830152612d1b816128db565b9050919050565b60006020820190508181036000830152612d3b81612941565b9050919050565b60006020820190508181036000830152612d5b816129c1565b9050919050565b60006020820190508181036000830152612d7b81612a01565b9050919050565b60006020820190508181036000830152612d9c8184612a67565b905092915050565b6000602082019050612db96000830184612b65565b92915050565b6000604082019050612dd46000830185612b65565b612de160208301846125ec565b9392505050565b6000604082019050612dfd6000830185612b65565b8181036020830152612e0f818461267f565b90509392505050565b600061012082019050612e2e600083018c612b65565b8181036020830152612e40818b61267f565b9050612e4f604083018a612b65565b612e5c6060830189612b65565b612e696080830188612570565b81810360a0830152612e7b818761267f565b9050612e8a60c083018661260a565b612e9760e08301856125ec565b818103610100830152612eaa818461267f565b90509a9950505050505050505050565b6000608082019050612ecf6000830187612b65565b612edc6020830186612b65565b612ee96040830185612b65565b8181036060830152612efb818461267f565b905095945050505050565b6000604051905081810181811067ffffffffffffffff82111715612f2d57612f2c6133c8565b5b8060405250919050565b600067ffffffffffffffff821115612f5257612f516133c8565b5b602082029050602081019050919050565b600067ffffffffffffffff821115612f7e57612f7d6133c8565b5b601f19601f8301169050602081019050919050565b6000819050602082019050919050565b600081519050919050565b600081519050919050565b6000602082019050919050565b600082825260208201905092915050565b600082825260208201905092915050565b600082825260208201905092915050565b600081905092915050565b600061300f826131ab565b915061301a836131ab565b92508263ffffffff038211156130335761303261330c565b5b828201905092915050565b6000613049826131bb565b9150613054836131bb565b92508260ff0382111561306a5761306961330c565b5b828201905092915050565b6000613080826131a1565b915061308b836131a1565b92508261309b5761309a61333b565b5b828204905092915050565b60006130b1826131a1565b91506130bc836131a1565b9250817fffffffffffffffffffffffffffffffffffffffffffffffffffffffffffffffff04831182151516156130f5576130f461330c565b5b828202905092915050565b600061310b826131a1565b9150613116836131a1565b9250828210156131295761312861330c565b5b828203905092915050565b600061313f82613181565b9050919050565b600061315182613181565b9050919050565b60008115159050919050565b6000819050919050565b600081905061317c82613408565b919050565b600073ffffffffffffffffffffffffffffffffffffffff82169050919050565b6000819050919050565b600063ffffffff82169050919050565b600060ff82169050919050565b60006131d3826131da565b9050919050565b60006131e582613181565b9050919050565b60006131f7826131fe565b9050919050565b600061320982613181565b9050919050565b600061321b8261316e565b9050919050565b82818337600083830152505050565b60005b8381101561324f578082015181840152602081019050613234565b8381111561325e576000848401525b50505050565b6000600282049050600182168061327c57607f821691505b602082108114156132905761328f613399565b5b50919050565b60006132a1826131a1565b91507fffffffffffffffffffffffffffffffffffffffffffffffffffffffffffffffff8214156132d4576132d361330c565b5b600182019050919050565b60006132ea826131ab565b915063ffffffff8214156133015761330061330c565b5b600182019050919050565b7f4e487b7100000000000000000000000000000000000000000000000000000000600052601160045260246000fd5b7f4e487b7100000000000000000000000000000000000000000000000000000000600052601260045260246000fd5b7f4e487b7100000000000000000000000000000000000000000000000000000000600052602160045260246000fd5b7f4e487b7100000000000000000000000000000000000000000000000000000000600052602260045260246000fd5b7f4e487b7100000000000000000000000000000000000000000000000000000000600052604160045260246000fd5b6000601f19601f8301169050919050565b600881106134195761341861336a565b5b50565b61342581613134565b811461343057600080fd5b50565b61343c81613146565b811461344757600080fd5b50565b61345381613158565b811461345e57600080fd5b50565b61346a81613164565b811461347557600080fd5b50565b6003811061348557600080fd5b50565b6002811061349557600080fd5b50565b6134a1816131ab565b81146134ac57600080fd5b5056fea2646970667358221220cbe3c9d85072019eb02ad91591b8b6f4e4aba22a1a1122fb3a52d44297603c9e64736f6c63430008000033",
  "linkReferences": {},
  "deployedLinkReferences": {}
}