{
  "_format": "hh-sol-artifact-1",
  "contractName": "RegistreExpedition",
  "sourceName": "contracts/RegistreExpedition.sol",
  "abi": [
    {
      "anonymous": false,
      "inputs": [
        {
          "indexed": false,
          "internalType": "string",
          "name": "ref",
          "type": "string"
        },
        {
          "indexed": false,
          "internalType": "bytes32",
          "name": "rootMerkle",
          "type": "bytes32"
        },
        {
          "indexed": false,
          "internalType": "uint256",
          "name": "horodatage",
          "type": "uint256"
        }
      ],
      "name": "AncrerLot",
      "type": "event"
    },
    {
      "inputs": [
        {
          "internalType": "string",
          "name": "_ref",
          "type": "string"
        },
        {
          "internalType": "bytes32",
          "name": "_rootMerkle",
          "type": "bytes32"
        }
      ],
      "name": "ancrerLot",
      "outputs": [],
      "stateMutability": "nonpayable",
      "type": "function"
    },
    {
      "inputs": [
        {
          "internalType": "string",
          "name": "_ref",
          "type": "string"
        }
      ],
      "name": "getExpeditionAncrer",
      "outputs": [
        {
          "components": [
            {
              "internalType": "string",
              "name": "ref",
              "type": "string"
            },
            {
              "internalType": "bytes32",
              "name": "rootMerkle",
              "type": "bytes32"
            },
            {
              "internalType": "uint256",
              "name": "horodatage",
              "type": "uint256"
            }
          ],
          "internalType": "struct StructLib.ExpeditionAncrer",
          "name": "",
          "type": "tuple"
        }
      ],
      "stateMutability": "view",
      "type": "function"
    }
  ],
  "bytecode": "0x608060405234801561001057600080fd5b50610961806100206000396000f3fe608060405234801561001057600080fd5b50600436106100365760003560e01c806314e2da961461003b578063d1a1ee2114610057575b600080fd5b6100556004803603810190610050919061046a565b610087565b005b610071600480360381019061006c9190610429565b6101c3565b60405161007e9190610762565b60405180910390f35b60008251116100cb576040517f08c379a00000000000000000000000000000000000000000000000000000000081526004016100c290610722565b60405180910390fd5b6000801b811415610111576040517f08c379a000000000000000000000000000000000000000000000000000000000815260040161010890610702565b60405180910390fd5b600042905060405180606001604052808481526020018381526020018281525060008460405161014191906106ad565b9081526020016040518091039020600082015181600001908051906020019061016b9291906102e5565b5060208201518160010155604082015181600201559050507fcca4c111e0472a555630d71464e6c56aec948c44eaf3754b1012cbaf0d83617c8383836040516101b6939291906106c4565b60405180910390a1505050565b6101cb61036b565b600082511161020f576040517f08c379a000000000000000000000000000000000000000000000000000000000815260040161020690610742565b60405180910390fd5b60008260405161021f91906106ad565b908152602001604051809103902060405180606001604052908160008201805461024890610873565b80601f016020809104026020016040519081016040528092919081815260200182805461027490610873565b80156102c15780601f10610296576101008083540402835291602001916102c1565b820191906000526020600020905b8154815290600101906020018083116102a457829003601f168201915b50505050508152602001600182015481526020016002820154815250509050919050565b8280546102f190610873565b90600052602060002090601f016020900481019282610313576000855561035a565b82601f1061032c57805160ff191683800117855561035a565b8280016001018555821561035a579182015b8281111561035957825182559160200191906001019061033e565b5b509050610367919061038f565b5090565b60405180606001604052806060815260200160008019168152602001600081525090565b5b808211156103a8576000816000905550600101610390565b5090565b60006103bf6103ba846107b5565b610784565b9050828152602081018484840111156103d757600080fd5b6103e2848285610831565b509392505050565b6000813590506103f981610914565b92915050565b600082601f83011261041057600080fd5b81356104208482602086016103ac565b91505092915050565b60006020828403121561043b57600080fd5b600082013567ffffffffffffffff81111561045557600080fd5b610461848285016103ff565b91505092915050565b6000806040838503121561047d57600080fd5b600083013567ffffffffffffffff81111561049757600080fd5b6104a3858286016103ff565b92505060206104b4858286016103ea565b9150509250929050565b6104c78161081d565b82525050565b6104d68161081d565b82525050565b60006104e7826107e5565b6104f181856107f0565b9350610501818560208601610840565b61050a81610903565b840191505092915050565b6000610520826107e5565b61052a8185610801565b935061053a818560208601610840565b61054381610903565b840191505092915050565b6000610559826107e5565b6105638185610812565b9350610573818560208601610840565b80840191505092915050565b600061058c601183610801565b91507f526f6f74206d65726b6c65206e756c6c2e0000000000000000000000000000006000830152602082019050919050565b60006105cc600f83610801565b91507f5265666572656e636520766964652e00000000000000000000000000000000006000830152602082019050919050565b600061060c600e83610801565b91507f5265666572656e636520766964650000000000000000000000000000000000006000830152602082019050919050565b6000606083016000830151848203600086015261065c82826104dc565b915050602083015161067160208601826104be565b506040830151610684604086018261068f565b508091505092915050565b61069881610827565b82525050565b6106a781610827565b82525050565b60006106b9828461054e565b915081905092915050565b600060608201905081810360008301526106de8186610515565b90506106ed60208301856104cd565b6106fa604083018461069e565b949350505050565b6000602082019050818103600083015261071b8161057f565b9050919050565b6000602082019050818103600083015261073b816105bf565b9050919050565b6000602082019050818103600083015261075b816105ff565b9050919050565b6000602082019050818103600083015261077c818461063f565b905092915050565b6000604051905081810181811067ffffffffffffffff821117156107ab576107aa6108d4565b5b8060405250919050565b600067ffffffffffffffff8211156107d0576107cf6108d4565b5b601f19601f8301169050602081019050919050565b600081519050919050565b600082825260208201905092915050565b600082825260208201905092915050565b600081905092915050565b6000819050919050565b6000819050919050565b82818337600083830152505050565b60005b8381101561085e578082015181840152602081019050610843565b8381111561086d576000848401525b50505050565b6000600282049050600182168061088b57607f821691505b6020821081141561089f5761089e6108a5565b5b50919050565b7f4e487b7100000000000000000000000000000000000000000000000000000000600052602260045260246000fd5b7f4e487b7100000000000000000000000000000000000000000000000000000000600052604160045260246000fd5b6000601f19601f8301169050919050565b61091d8161081d565b811461092857600080fd5b5056fea264697066735822122048bacfdd27b765e23479957f357ff4467b11e400df3caf3dc613b05aeef166c464736f6c63430008000033",
  "linkReferences": {},
  "deployedLinkReferences": {}
}